{
	"data": {
		"bytecode": {
			"linkReferences": {
				"remix_tests.sol": {
					"Assert": [
						{
							"length": 20,
							"start": 352
						},
						{
							"length": 20,
							"start": 794
						},
						{
							"length": 20,
							"start": 917
						},
						{
							"length": 20,
							"start": 1065
						},
						{
							"length": 20,
							"start": 1396
						},
						{
							"length": 20,
							"start": 1816
						},
						{
							"length": 20,
							"start": 2080
						},
						{
							"length": 20,
							"start": 2660
						},
						{
							"length": 20,
							"start": 3113
						},
						{
							"length": 20,
							"start": 3236
						},
						{
							"length": 20,
							"start": 3358
						}
					]
				}
			},
			"object": "6080604052674563918244f40000600255348015601a575f80fd5b50615e21806100285f395ff3fe60806040526004361061007a575f3560e01c80637fea0d4b1161004d5780637fea0d4b146100ea57806392a5353b14610100578063ac5990901461010a578063ed661e1e146101205761007a565b8063069e4b221461007e5780630aa9b52b14610094578063424f4fef146100aa5780634a4507ff146100d4575b5f80fd5b348015610089575f80fd5b50610092610136565b005b34801561009f575f80fd5b506100a861025d565b005b3480156100b5575f80fd5b506100be610497565b6040516100cb9190610dfd565b60405180910390f35b3480156100df575f80fd5b506100e86104ba565b005b3480156100f5575f80fd5b506100fe6105c6565b005b61010861066c565b005b348015610115575f80fd5b5061011e6107f6565b005b34801561012b575f80fd5b50610134610d74565b005b73__$acbfb1c35000d78352310b16a054a6b106$__63bfba5dd65f8054906101000a900473ffffffffffffffffffffffffffffffffffffffff1673ffffffffffffffffffffffffffffffffffffffff16638da5cb5b6040518163ffffffff1660e01b8152600401602060405180830381865afa1580156101b8573d5f803e3d5ffd5b505050506040513d601f19601f820116820180604052508101906101dc9190610e62565b60015f9054906101000a900473ffffffffffffffffffffffffffffffffffffffff166040518363ffffffff1660e01b815260040161021b929190610ef6565b602060405180830381865af4158015610236573d5f803e3d5ffd5b505050506040513d601f19601f8201168201806040525081019061025a9190610f65565b50565b5f805f9054906101000a900473ffffffffffffffffffffffffffffffffffffffff1673ffffffffffffffffffffffffffffffffffffffff166302ee3a526040518163ffffffff1660e01b81526004015f60405180830381865afa1580156102c6573d5f803e3d5ffd5b505050506040513d5f823e3d601f19601f820116820180604052508101906102ee91906112b2565b905073__$acbfb1c35000d78352310b16a054a6b106$__63abcd7960825160146040518363ffffffff1660e01b815260040161032b9291906113b1565b602060405180830381865af4158015610346573d5f803e3d5ffd5b505050506040513d601f19601f8201168201806040525081019061036a9190610f65565b5073__$acbfb1c35000d78352310b16a054a6b106$__63e8c2cb16825f81518110610398576103976113eb565b5b60200260200101515f01516040518263ffffffff1660e01b81526004016103bf91906114ee565b602060405180830381865af41580156103da573d5f803e3d5ffd5b505050506040513d601f19601f820116820180604052508101906103fe9190610f65565b5073__$acbfb1c35000d78352310b16a054a6b106$__63e8c2cb16825f8151811061042c5761042b6113eb565b5b6020026020010151604001516040518263ffffffff1660e01b815260040161045491906115c8565b602060405180830381865af415801561046f573d5f803e3d5ffd5b505050506040513d601f19601f820116820180604052508101906104939190610f65565b5050565b5f8054906101000a900473ffffffffffffffffffffffffffffffffffffffff1681565b5f805f9054906101000a900473ffffffffffffffffffffffffffffffffffffffff1673ffffffffffffffffffffffffffffffffffffffff166312065fe06040518163ffffffff1660e01b8152600401602060405180830381865afa158015610524573d5f803e3d5ffd5b505050506040513d601f19601f82011682018060405250810190610548919061160e565b905073__$acbfb1c35000d78352310b16a054a6b106$__63abcd7960825f6040518363ffffffff1660e01b81526004016105839291906116bc565b602060405180830381865af415801561059e573d5f803e3d5ffd5b505050506040513d601f19601f820116820180604052508101906105c29190610f65565b5050565b3060015f6101000a81548173ffffffffffffffffffffffffffffffffffffffff021916908373ffffffffffffffffffffffffffffffffffffffff16021790555060405161061290610d76565b604051809103905ff08015801561062b573d5f803e3d5ffd5b505f806101000a81548173ffffffffffffffffffffffffffffffffffffffff021916908373ffffffffffffffffffffffffffffffffffffffff160217905550565b5f8054906101000a900473ffffffffffffffffffffffffffffffffffffffff1673ffffffffffffffffffffffffffffffffffffffff1663a26759cb619c406002546040518363ffffffff1660e01b81526004015f604051808303818589803b1580156106d6575f80fd5b5088f11580156106e8573d5f803e3d5ffd5b50505050505073__$acbfb1c35000d78352310b16a054a6b106$__63abcd79605f8054906101000a900473ffffffffffffffffffffffffffffffffffffffff1673ffffffffffffffffffffffffffffffffffffffff166312065fe06040518163ffffffff1660e01b8152600401602060405180830381865afa158015610770573d5f803e3d5ffd5b505050506040513d601f19601f82011682018060405250810190610794919061160e565b6002546040518363ffffffff1660e01b81526004016107b4929190611766565b602060405180830381865af41580156107cf573d5f803e3d5ffd5b505050506040513d601f19601f820116820180604052508101906107f39190610f65565b50565b73__$acbfb1c35000d78352310b16a054a6b106$__63abcd79605f8054906101000a900473ffffffffffffffffffffffffffffffffffffffff1673ffffffffffffffffffffffffffffffffffffffff166312065fe06040518163ffffffff1660e01b8152600401602060405180830381865afa158015610878573d5f803e3d5ffd5b505050506040513d601f19601f8201168201806040525081019061089c919061160e565b6002546040518363ffffffff1660e01b81526004016108bc929190611810565b602060405180830381865af41580156108d7573d5f803e3d5ffd5b505050506040513d601f19601f820116820180604052508101906108fb9190610f65565b505f805f9054906101000a900473ffffffffffffffffffffffffffffffffffffffff1673ffffffffffffffffffffffffffffffffffffffff166302ee3a526040518163ffffffff1660e01b81526004015f60405180830381865afa158015610965573d5f803e3d5ffd5b505050506040513d5f823e3d601f19601f8201168201806040525081019061098d91906112b2565b90505f815f815181106109a3576109a26113eb565b5b602002602001015190505f8054906101000a900473ffffffffffffffffffffffffffffffffffffffff1673ffffffffffffffffffffffffffffffffffffffff166319f92926620222e0835f01516040518363ffffffff1660e01b8152600401610a0c9190611892565b5f604051808303815f88803b158015610a23575f80fd5b5087f1158015610a35573d5f803e3d5ffd5b505050505073__$acbfb1c35000d78352310b16a054a6b106$__63aea889525f8054906101000a900473ffffffffffffffffffffffffffffffffffffffff1673ffffffffffffffffffffffffffffffffffffffff166312065fe06040518163ffffffff1660e01b8152600401602060405180830381865afa158015610abc573d5f803e3d5ffd5b505050506040513d601f19601f82011682018060405250810190610ae0919061160e565b6002546040518363ffffffff1660e01b8152600401610b00929190611922565b602060405180830381865af4158015610b1b573d5f803e3d5ffd5b505050506040513d601f19601f82011682018060405250810190610b3f9190610f65565b505f805f9054906101000a900473ffffffffffffffffffffffffffffffffffffffff1673ffffffffffffffffffffffffffffffffffffffff16631107bc9860015f9054906101000a900473ffffffffffffffffffffffffffffffffffffffff166040518263ffffffff1660e01b8152600401610bbb919061196b565b5f60405180830381865afa158015610bd5573d5f803e3d5ffd5b505050506040513d5f823e3d601f19601f82011682018060405250810190610bfd9190611b37565b905073__$acbfb1c35000d78352310b16a054a6b106$__63abcd7960825160016040518363ffffffff1660e01b8152600401610c3a929190611c27565b602060405180830381865af4158015610c55573d5f803e3d5ffd5b505050506040513d601f19601f82011682018060405250810190610c799190610f65565b5073__$acbfb1c35000d78352310b16a054a6b106$__63e8c2cb16835f01516040518263ffffffff1660e01b8152600401610cb49190611cd1565b602060405180830381865af4158015610ccf573d5f803e3d5ffd5b505050506040513d601f19601f82011682018060405250810190610cf39190610f65565b5073__$acbfb1c35000d78352310b16a054a6b106$__63e8c2cb1683604001516040518263ffffffff1660e01b8152600401610d2f9190611d87565b602060405180830381865af4158015610d4a573d5f803e3d5ffd5b505050506040513d601f19601f82011682018060405250810190610d6e9190610f65565b50505050565b565b61401e80611dce83390190565b5f73ffffffffffffffffffffffffffffffffffffffff82169050919050565b5f819050919050565b5f610dc5610dc0610dbb84610d83565b610da2565b610d83565b9050919050565b5f610dd682610dab565b9050919050565b5f610de782610dcc565b9050919050565b610df781610ddd565b82525050565b5f602082019050610e105f830184610dee565b92915050565b5f604051905090565b5f80fd5b5f80fd5b5f610e3182610d83565b9050919050565b610e4181610e27565b8114610e4b575f80fd5b50565b5f81519050610e5c81610e38565b92915050565b5f60208284031215610e7757610e76610e1f565b5b5f610e8484828501610e4e565b91505092915050565b610e9681610e27565b82525050565b5f82825260208201905092915050565b7f4f776e6572206e6f742073657420636f72726563746c790000000000000000005f82015250565b5f610ee0601783610e9c565b9150610eeb82610eac565b602082019050919050565b5f606082019050610f095f830185610e8d565b610f166020830184610e8d565b8181036040830152610f2781610ed4565b90509392505050565b5f8115159050919050565b610f4481610f30565b8114610f4e575f80fd5b50565b5f81519050610f5f81610f3b565b92915050565b5f60208284031215610f7a57610f79610e1f565b5b5f610f8784828501610f51565b91505092915050565b5f80fd5b5f601f19601f8301169050919050565b7f4e487b71000000000000000000000000000000000000000000000000000000005f52604160045260245ffd5b610fda82610f94565b810181811067ffffffffffffffff82111715610ff957610ff8610fa4565b5b80604052505050565b5f61100b610e16565b90506110178282610fd1565b919050565b5f67ffffffffffffffff82111561103657611035610fa4565b5b602082029050602081019050919050565b5f80fd5b5f80fd5b5f80fd5b5f80fd5b5f67ffffffffffffffff82111561107157611070610fa4565b5b61107a82610f94565b9050602081019050919050565b8281835e5f83830152505050565b5f6110a76110a284611057565b611002565b9050828152602081018484840111156110c3576110c2611053565b5b6110ce848285611087565b509392505050565b5f82601f8301126110ea576110e9610f90565b5b81516110fa848260208601611095565b91505092915050565b5f819050919050565b61111581611103565b811461111f575f80fd5b50565b5f815190506111308161110c565b92915050565b5f6080828403121561114b5761114a61104b565b5b6111556080611002565b90505f82015167ffffffffffffffff8111156111745761117361104f565b5b611180848285016110d6565b5f83015250602061119384828501611122565b602083015250604082015167ffffffffffffffff8111156111b7576111b661104f565b5b6111c3848285016110d6565b604083015250606082015167ffffffffffffffff8111156111e7576111e661104f565b5b6111f3848285016110d6565b60608301525092915050565b5f61121161120c8461101c565b611002565b9050808382526020820190506020840283018581111561123457611233611047565b5b835b8181101561127b57805167ffffffffffffffff81111561125957611258610f90565b5b8086016112668982611136565b85526020850194505050602081019050611236565b5050509392505050565b5f82601f83011261129957611298610f90565b5b81516112a98482602086016111ff565b91505092915050565b5f602082840312156112c7576112c6610e1f565b5b5f82015167ffffffffffffffff8111156112e4576112e3610e23565b5b6112f084828501611285565b91505092915050565b61130281611103565b82525050565b5f819050919050565b5f61132b61132661132184611308565b610da2565b611103565b9050919050565b61133b81611311565b82525050565b7f53686f756c6420686176652032302070726f647563747320696e697469616c695f8201527f7a65640000000000000000000000000000000000000000000000000000000000602082015250565b5f61139b602383610e9c565b91506113a682611341565b604082019050919050565b5f6060820190506113c45f8301856112f9565b6113d16020830184611332565b81810360408301526113e28161138f565b90509392505050565b7f4e487b71000000000000000000000000000000000000000000000000000000005f52603260045260245ffd5b5f81519050919050565b5f61142c82611418565b6114368185610e9c565b9350611446818560208601611087565b61144f81610f94565b840191505092915050565b7f41310000000000000000000000000000000000000000000000000000000000005f82015250565b5f61148e600283610e9c565b91506114998261145a565b602082019050919050565b7f46697273742070726f6475637420636f64652073686f756c64206265204131005f82015250565b5f6114d8601f83610e9c565b91506114e3826114a4565b602082019050919050565b5f6060820190508181035f8301526115068184611422565b9050818103602083015261151981611482565b9050818103604083015261152c816114cc565b905092915050565b7f4c617973000000000000000000000000000000000000000000000000000000005f82015250565b5f611568600483610e9c565b915061157382611534565b602082019050919050565b7f46697273742070726f647563742073686f756c64206265204c617973000000005f82015250565b5f6115b2601c83610e9c565b91506115bd8261157e565b602082019050919050565b5f6060820190508181035f8301526115e08184611422565b905081810360208301526115f38161155c565b90508181036040830152611606816115a6565b905092915050565b5f6020828403121561162357611622610e1f565b5b5f61163084828501611122565b91505092915050565b5f819050919050565b5f61165c61165761165284611639565b610da2565b611103565b9050919050565b61166c81611642565b82525050565b7f496e697469616c2062616c616e63652073686f756c64206265203000000000005f82015250565b5f6116a6601b83610e9c565b91506116b182611672565b602082019050919050565b5f6060820190506116cf5f8301856112f9565b6116dc6020830184611663565b81810360408301526116ed8161169a565b90509392505050565b7f53686f756c6420686176652035303030303030303030303030303030303030205f8201527f696e207468652062616c616e6365000000000000000000000000000000000000602082015250565b5f611750602e83610e9c565b915061175b826116f6565b604082019050919050565b5f6060820190506117795f8301856112f9565b61178660208301846112f9565b818103604083015261179781611744565b90509392505050565b7f53686f756c64206861766520736f6d652066756e647320696e207468652076655f8201527f6e64696e67206d616368696e65206265666f7265207075726368617365000000602082015250565b5f6117fa603d83610e9c565b9150611805826117a0565b604082019050919050565b5f6060820190506118235f8301856112f9565b61183060208301846112f9565b8181036040830152611841816117ee565b90509392505050565b5f82825260208201905092915050565b5f61186482611418565b61186e818561184a565b935061187e818560208601611087565b61188781610f94565b840191505092915050565b5f6020820190508181035f8301526118aa818461185a565b905092915050565b7f42616c616e63652073686f756c642064656372656173652061667465722070755f8201527f7263686173650000000000000000000000000000000000000000000000000000602082015250565b5f61190c602683610e9c565b9150611917826118b2565b604082019050919050565b5f6060820190506119355f8301856112f9565b61194260208301846112f9565b818103604083015261195381611900565b90509392505050565b61196581610e27565b82525050565b5f60208201905061197e5f83018461195c565b92915050565b5f67ffffffffffffffff82111561199e5761199d610fa4565b5b602082029050602081019050919050565b5f60c082840312156119c4576119c361104b565b5b6119ce60c0611002565b90505f6119dd84828501611122565b5f83015250602082015167ffffffffffffffff811115611a00576119ff61104f565b5b611a0c848285016110d6565b602083015250604082015167ffffffffffffffff811115611a3057611a2f61104f565b5b611a3c848285016110d6565b6040830152506060611a5084828501611122565b6060830152506080611a6484828501611122565b60808301525060a0611a7884828501610f51565b60a08301525092915050565b5f611a96611a9184611984565b611002565b90508083825260208201905060208402830185811115611ab957611ab8611047565b5b835b81811015611b0057805167ffffffffffffffff811115611ade57611add610f90565b5b808601611aeb89826119af565b85526020850194505050602081019050611abb565b5050509392505050565b5f82601f830112611b1e57611b1d610f90565b5b8151611b2e848260208601611a84565b91505092915050565b5f60208284031215611b4c57611b4b610e1f565b5b5f82015167ffffffffffffffff811115611b6957611b68610e23565b5b611b7584828501611b0a565b91505092915050565b5f819050919050565b5f611ba1611b9c611b9784611b7e565b610da2565b611103565b9050919050565b611bb181611b87565b82525050565b7f546865206163636f756e742073686f756c642068617665206f6e6520707572635f8201527f6861736500000000000000000000000000000000000000000000000000000000602082015250565b5f611c11602483610e9c565b9150611c1c82611bb7565b604082019050919050565b5f606082019050611c3a5f8301856112f9565b611c476020830184611ba8565b8181036040830152611c5881611c05565b90509392505050565b7f5075726368617365642070726f64756374206e616d652073686f756c642062655f8201527f2041310000000000000000000000000000000000000000000000000000000000602082015250565b5f611cbb602383610e9c565b9150611cc682611c61565b604082019050919050565b5f6060820190508181035f830152611ce98184611422565b90508181036020830152611cfc81611482565b90508181036040830152611d0f81611caf565b905092915050565b7f5075726368617365642070726f64756374206e616d652073686f756c642062655f8201527f204c617973000000000000000000000000000000000000000000000000000000602082015250565b5f611d71602583610e9c565b9150611d7c82611d17565b604082019050919050565b5f6060820190508181035f830152611d9f8184611422565b90508181036020830152611db28161155c565b90508181036040830152611dc581611d65565b90509291505056fe608060405234801561000f575f80fd5b50335f806101000a81548173ffffffffffffffffffffffffffffffffffffffff021916908373ffffffffffffffffffffffffffffffffffffffff16021790555061005d61006260201b60201c565b611ee4565b600160405180608001604052806040518060400160405280600281526020017f413100000000000000000000000000000000000000000000000000000000000081525081526020016305f5e100600f6100bb9190611b38565b81526020016040518060400160405280600481526020017f4c61797300000000000000000000000000000000000000000000000000000000815250815260200161013f6040518060400160405280600881526020017f6c6179732e706e67000000000000000000000000000000000000000000000000815250611abf60201b60201c565b815250908060018154018082558091505060019003905f5260205f2090600402015f909190919091505f820151815f01908161017b9190611daa565b5060208201518160010155604082015181600201908161019b9190611daa565b5060608201518160030190816101b19190611daa565b505050600160405180608001604052806040518060400160405280600281526020017f413200000000000000000000000000000000000000000000000000000000000081525081526020016298968060af61020c9190611b38565b81526020016040518060400160405280600981526020017f436f636120436f6c61000000000000000000000000000000000000000000000081525081526020016102906040518060400160405280600d81526020017f636f63612d636f6c612e706e6700000000000000000000000000000000000000815250611abf60201b60201c565b815250908060018154018082558091505060019003905f5260205f2090600402015f909190919091505f820151815f0190816102cc9190611daa565b506020820151816001015560408201518160020190816102ec9190611daa565b5060608201518160030190816103029190611daa565b505050600160405180608001604052806040518060400160405280600281526020017f413300000000000000000000000000000000000000000000000000000000000081525081526020016305f5e100600f61035e9190611b38565b81526020016040518060400160405280600881526020017f5072696e676c657300000000000000000000000000000000000000000000000081525081526020016103e26040518060400160405280600c81526020017f7072696e676c65732e706e670000000000000000000000000000000000000000815250611abf60201b60201c565b815250908060018154018082558091505060019003905f5260205f2090600402015f909190919091505f820151815f01908161041e9190611daa565b5060208201518160010155604082015181600201908161043e9190611daa565b5060608201518160030190816104549190611daa565b505050600160405180608001604052806040518060400160405280600281526020017f413400000000000000000000000000000000000000000000000000000000000081525081526020016298968060af6104af9190611b38565b81526020016040518060400160405280600581526020017f576174657200000000000000000000000000000000000000000000000000000081525081526020016105336040518060400160405280600981526020017f77617465722e706e670000000000000000000000000000000000000000000000815250611abf60201b60201c565b815250908060018154018082558091505060019003905f5260205f2090600402015f909190919091505f820151815f01908161056f9190611daa565b5060208201518160010155604082015181600201908161058f9190611daa565b5060608201518160030190816105a59190611daa565b505050600160405180608001604052806040518060400160405280600281526020017f413500000000000000000000000000000000000000000000000000000000000081525081526020016305f5e100600f6106019190611b38565b81526020016040518060400160405280600c81526020017f456e65726779204472696e6b000000000000000000000000000000000000000081525081526020016106856040518060400160405280600c81526020017f7265642d62756c6c2e706e670000000000000000000000000000000000000000815250611abf60201b60201c565b815250908060018154018082558091505060019003905f5260205f2090600402015f909190919091505f820151815f0190816106c19190611daa565b506020820151816001015560408201518160020190816106e19190611daa565b5060608201518160030190816106f79190611daa565b505050600160405180608001604052806040518060400160405280600281526020017f423100000000000000000000000000000000000000000000000000000000000081525081526020016305f5e10060146107539190611b38565b81526020016040518060400160405280600881526020017f53616e647769636800000000000000000000000000000000000000000000000081525081526020016107d76040518060400160405280600c81526020017f73616e64776963682e706e670000000000000000000000000000000000000000815250611abf60201b60201c565b815250908060018154018082558091505060019003905f5260205f2090600402015f909190919091505f820151815f0190816108139190611daa565b506020820151816001015560408201518160020190816108339190611daa565b5060608201518160030190816108499190611daa565b505050600160405180608001604052806040518060400160405280600281526020017f423200000000000000000000000000000000000000000000000000000000000081525081526020016298968060af6108a49190611b38565b81526020016040518060400160405280600481526020017f4f72656f0000000000000000000000000000000000000000000000000000000081525081526020016109286040518060400160405280600881526020017f6f72656f2e706e67000000000000000000000000000000000000000000000000815250611abf60201b60201c565b815250908060018154018082558091505060019003905f5260205f2090600402015f909190919091505f820151815f0190816109649190611daa565b506020820151816001015560408201518160020190816109849190611daa565b50606082015181600301908161099a9190611daa565b505050600160405180608001604052806040518060400160405280600281526020017f423300000000000000000000000000000000000000000000000000000000000081525081526020016305f5e100600f6109f69190611b38565b81526020016040518060400160405280600681526020017f53707269746500000000000000000000000000000000000000000000000000008152508152602001610a7a6040518060400160405280600a81526020017f7370726974652e706e6700000000000000000000000000000000000000000000815250611abf60201b60201c565b815250908060018154018082558091505060019003905f5260205f2090600402015f909190919091505f820151815f019081610ab69190611daa565b50602082015181600101556040820151816002019081610ad69190611daa565b506060820151816003019081610aec9190611daa565b505050600160405180608001604052806040518060400160405280600281526020017f423400000000000000000000000000000000000000000000000000000000000081525081526020016298968060af610b479190611b38565b81526020016040518060400160405280600b81526020017f4772616e6f6c61204261720000000000000000000000000000000000000000008152508152602001610bcb6040518060400160405280600f81526020017f6772616e6f6c612d6261722e706e670000000000000000000000000000000000815250611abf60201b60201c565b815250908060018154018082558091505060019003905f5260205f2090600402015f909190919091505f820151815f019081610c079190611daa565b50602082015181600101556040820151816002019081610c279190611daa565b506060820151816003019081610c3d9190611daa565b505050600160405180608001604052806040518060400160405280600281526020017f423500000000000000000000000000000000000000000000000000000000000081525081526020016298968060af610c989190611b38565b81526020016040518060400160405280600781526020017f446f7269746f73000000000000000000000000000000000000000000000000008152508152602001610d1c6040518060400160405280600b81526020017f646f7269746f732e706e67000000000000000000000000000000000000000000815250611abf60201b60201c565b815250908060018154018082558091505060019003905f5260205f2090600402015f909190919091505f820151815f019081610d589190611daa565b50602082015181600101556040820151816002019081610d789190611daa565b506060820151816003019081610d8e9190611daa565b505050600160405180608001604052806040518060400160405280600281526020017f433100000000000000000000000000000000000000000000000000000000000081525081526020016305f5e100600f610dea9190611b38565b81526020016040518060400160405280600b81526020017f536e69636b6572204261720000000000000000000000000000000000000000008152508152602001610e6e6040518060400160405280600c81526020017f736e69636b6572732e706e670000000000000000000000000000000000000000815250611abf60201b60201c565b815250908060018154018082558091505060019003905f5260205f2090600402015f909190919091505f820151815f019081610eaa9190611daa565b50602082015181600101556040820151816002019081610eca9190611daa565b506060820151816003019081610ee09190611daa565b505050600160405180608001604052806040518060400160405280600281526020017f433200000000000000000000000000000000000000000000000000000000000081525081526020016305f5e100600f610f3c9190611b38565b81526020016040518060400160405280600481526020017f4d264d73000000000000000000000000000000000000000000000000000000008152508152602001610fc06040518060400160405280600881526020017f6d266d732e706e67000000000000000000000000000000000000000000000000815250611abf60201b60201c565b815250908060018154018082558091505060019003905f5260205f2090600402015f909190919091505f820151815f019081610ffc9190611daa565b5060208201518160010155604082015181600201908161101c9190611daa565b5060608201518160030190816110329190611daa565b505050600160405180608001604052806040518060400160405280600281526020017f4333000000000000000000000000000000000000000000000000000000000000815250815260200162989680607d61108d9190611b38565b81526020016040518060400160405280600e81526020017f427562626c65205461702047756d00000000000000000000000000000000000081525081526020016111116040518060400160405280600e81526020017f627562626c652d7461702e706e67000000000000000000000000000000000000815250611abf60201b60201c565b815250908060018154018082558091505060019003905f5260205f2090600402015f909190919091505f820151815f01908161114d9190611daa565b5060208201518160010155604082015181600201908161116d9190611daa565b5060608201518160030190816111839190611daa565b505050600160405180608001604052806040518060400160405280600281526020017f433400000000000000000000000000000000000000000000000000000000000081525081526020016298968060af6111de9190611b38565b81526020016040518060400160405280600d81526020017f4672756974204e7574204261720000000000000000000000000000000000000081525081526020016112626040518060400160405280600d81526020017f66727569742d6e75742e706e6700000000000000000000000000000000000000815250611abf60201b60201c565b815250908060018154018082558091505060019003905f5260205f2090600402015f909190919091505f820151815f01908161129e9190611daa565b506020820151816001015560408201518160020190816112be9190611daa565b5060608201518160030190816112d49190611daa565b505050600160405180608001604052806040518060400160405280600281526020017f433500000000000000000000000000000000000000000000000000000000000081525081526020016298968060af61132f9190611b38565b81526020016040518060400160405280600a81526020017f42656566204a65726b790000000000000000000000000000000000000000000081525081526020016113b36040518060400160405280600e81526020017f626565662d6a65726b792e706e67000000000000000000000000000000000000815250611abf60201b60201c565b815250908060018154018082558091505060019003905f5260205f2090600402015f909190919091505f820151815f0190816113ef9190611daa565b5060208201518160010155604082015181600201908161140f9190611daa565b5060608201518160030190816114259190611daa565b505050600160405180608001604052806040518060400160405280600281526020017f4431000000000000000000000000000000000000000000000000000000000000815250815260200162989680607d6114809190611b38565b81526020016040518060400160405280600e81526020017f4b69744b6174204269736375697400000000000000000000000000000000000081525081526020016115046040518060400160405280600a81526020017f6b69746b61742e706e6700000000000000000000000000000000000000000000815250611abf60201b60201c565b815250908060018154018082558091505060019003905f5260205f2090600402015f909190919091505f820151815f0190816115409190611daa565b506020820151816001015560408201518160020190816115609190611daa565b5060608201518160030190816115769190611daa565b505050600160405180608001604052806040518060400160405280600281526020017f4432000000000000000000000000000000000000000000000000000000000000815250815260200162989680607d6115d19190611b38565b81526020016040518060400160405280600881526020017f506f7020436f726e00000000000000000000000000000000000000000000000081525081526020016116556040518060400160405280600b81526020017f706f70636f726e2e706e67000000000000000000000000000000000000000000815250611abf60201b60201c565b815250908060018154018082558091505060019003905f5260205f2090600402015f909190919091505f820151815f0190816116919190611daa565b506020820151816001015560408201518160020190816116b19190611daa565b5060608201518160030190816116c79190611daa565b505050600160405180608001604052806040518060400160405280600281526020017f443300000000000000000000000000000000000000000000000000000000000081525081526020016298968060966117229190611b38565b81526020016040518060400160405280600881526020017f547769782042617200000000000000000000000000000000000000000000000081525081526020016117a66040518060400160405280600881526020017f747769782e706e67000000000000000000000000000000000000000000000000815250611abf60201b60201c565b815250908060018154018082558091505060019003905f5260205f2090600402015f909190919091505f820151815f0190816117e29190611daa565b506020820151816001015560408201518160020190816118029190611daa565b5060608201518160030190816118189190611daa565b505050600160405180608001604052806040518060400160405280600281526020017f4434000000000000000000000000000000000000000000000000000000000000815250815260200162989680607d6118739190611b38565b81526020016040518060400160405280600581526020017f446f6e757400000000000000000000000000000000000000000000000000000081525081526020016118f76040518060400160405280600981526020017f646f6e75742e706e670000000000000000000000000000000000000000000000815250611abf60201b60201c565b815250908060018154018082558091505060019003905f5260205f2090600402015f909190919091505f820151815f0190816119339190611daa565b506020820151816001015560408201518160020190816119539190611daa565b5060608201518160030190816119699190611daa565b505050600160405180608001604052806040518060400160405280600281526020017f4435000000000000000000000000000000000000000000000000000000000000815250815260200162989680607d6119c49190611b38565b81526020016040518060400160405280600981526020017f526564204170706c6500000000000000000000000000000000000000000000008152508152602001611a486040518060400160405280600981526020017f6170706c652e706e670000000000000000000000000000000000000000000000815250611abf60201b60201c565b815250908060018154018082558091505060019003905f5260205f2090600402015f909190919091505f820151815f019081611a849190611daa565b50602082015181600101556040820151816002019081611aa49190611daa565b506060820151816003019081611aba9190611daa565b505050565b60606040518060600160405280602f8152602001613fef602f913982604051602001611aec929190611ec1565b6040516020818303038152906040529050919050565b5f819050919050565b7f4e487b71000000000000000000000000000000000000000000000000000000005f52601160045260245ffd5b5f611b4282611b02565b9150611b4d83611b02565b9250828202611b5b81611b02565b91508282048414831517611b7257611b71611b0b565b5b5092915050565b5f81519050919050565b7f4e487b71000000000000000000000000000000000000000000000000000000005f52604160045260245ffd5b7f4e487b71000000000000000000000000000000000000000000000000000000005f52602260045260245ffd5b5f6002820490506001821680611bf457607f821691505b602082108103611c0757611c06611bb0565b5b50919050565b5f819050815f5260205f209050919050565b5f6020601f8301049050919050565b5f82821b905092915050565b5f60088302611c697fffffffffffffffffffffffffffffffffffffffffffffffffffffffffffffffff82611c2e565b611c738683611c2e565b95508019841693508086168417925050509392505050565b5f819050919050565b5f611cae611ca9611ca484611b02565b611c8b565b611b02565b9050919050565b5f819050919050565b611cc783611c94565b611cdb611cd382611cb5565b848454611c3a565b825550505050565b5f90565b611cef611ce3565b611cfa818484611cbe565b505050565b5b81811015611d1d57611d125f82611ce7565b600181019050611d00565b5050565b601f821115611d6257611d3381611c0d565b611d3c84611c1f565b81016020851015611d4b578190505b611d5f611d5785611c1f565b830182611cff565b50505b505050565b5f82821c905092915050565b5f611d825f1984600802611d67565b1980831691505092915050565b5f611d9a8383611d73565b9150826002028217905092915050565b611db382611b79565b67ffffffffffffffff811115611dcc57611dcb611b83565b5b611dd68254611bdd565b611de1828285611d21565b5f60209050601f831160018114611e12575f8415611e00578287015190505b611e0a8582611d8f565b865550611e71565b601f198416611e2086611c0d565b5f5b82811015611e4757848901518255600182019150602085019450602081019050611e22565b86831015611e645784890151611e60601f891682611d73565b8355505b6001600288020188555050505b505050505050565b5f81905092915050565b8281835e5f83830152505050565b5f611e9b82611b79565b611ea58185611e79565b9350611eb5818560208601611e83565b80840191505092915050565b5f611ecc8285611e91565b9150611ed88284611e91565b91508190509392505050565b6120fe80611ef15f395ff3fe60806040526004361061007a575f3560e01c80633ccfd60b1161004d5780633ccfd60b146101365780638da5cb5b1461014c578063a26759cb14610176578063b04f3225146101805761007a565b806302ee3a521461007e5780631107bc98146100a857806312065fe0146100e457806319f929261461010e575b5f80fd5b348015610089575f80fd5b506100926101a8565b60405161009f919061130e565b60405180910390f35b3480156100b3575f80fd5b506100ce60048036038101906100c99190611399565b6103bd565b6040516100db9190611526565b60405180910390f35b3480156100ef575f80fd5b506100f86106ea565b6040516101059190611555565b60405180910390f35b348015610119575f80fd5b50610134600480360381019061012f919061169a565b61072e565b005b348015610141575f80fd5b5061014a61091b565b005b348015610157575f80fd5b50610160610b9b565b60405161016d91906116f0565b60405180910390f35b61017e610bbe565b005b34801561018b575f80fd5b506101a660048036038101906101a19190611733565b610c55565b005b60606001805480602002602001604051908101604052809291908181526020015f905b828210156103b4578382905f5260205f2090600402016040518060800160405290815f820180546101fb9061178b565b80601f01602080910402602001604051908101604052809291908181526020018280546102279061178b565b80156102725780601f1061024957610100808354040283529160200191610272565b820191905f5260205f20905b81548152906001019060200180831161025557829003601f168201915b50505050508152602001600182015481526020016002820180546102959061178b565b80601f01602080910402602001604051908101604052809291908181526020018280546102c19061178b565b801561030c5780601f106102e35761010080835404028352916020019161030c565b820191905f5260205f20905b8154815290600101906020018083116102ef57829003601f168201915b505050505081526020016003820180546103259061178b565b80601f01602080910402602001604051908101604052809291908181526020018280546103519061178b565b801561039c5780601f106103735761010080835404028352916020019161039c565b820191905f5260205f20905b81548152906001019060200180831161037f57829003601f168201915b505050505081525050815260200190600101906101cb565b50505050905090565b60605f805b60038054905081101561045f578373ffffffffffffffffffffffffffffffffffffffff16600382815481106103fa576103f96117bb565b5b905f5260205f2090600402015f015f9054906101000a900473ffffffffffffffffffffffffffffffffffffffff1673ffffffffffffffffffffffffffffffffffffffff160361045257818061044e90611815565b9250505b80806001019150506103c2565b505f8167ffffffffffffffff81111561047b5761047a611576565b5b6040519080825280602002602001820160405280156104b457816020015b6104a1611102565b8152602001906001900390816104995790505b5090505f805b6003805490508110156106de578573ffffffffffffffffffffffffffffffffffffffff16600382815481106104f2576104f16117bb565b5b905f5260205f2090600402015f015f9054906101000a900473ffffffffffffffffffffffffffffffffffffffff1673ffffffffffffffffffffffffffffffffffffffff16036106d1575f6105ee60038381548110610553576105526117bb565b5b905f5260205f209060040201600101805461056d9061178b565b80601f01602080910402602001604051908101604052809291908181526020018280546105999061178b565b80156105e45780601f106105bb576101008083540402835291602001916105e4565b820191905f5260205f20905b8154815290600101906020018083116105c757829003601f168201915b5050505050610e3d565b90506040518060c0016040528083815260200182604001518152602001826060015181526020018260200151815260200160038481548110610633576106326117bb565b5b905f5260205f20906004020160020154815260200160018081111561065b5761065a61185c565b5b6003858154811061066f5761066e6117bb565b5b905f5260205f2090600402016003015f9054906101000a900460ff16600181111561069d5761069c61185c565b5b1415158152508484815181106106b6576106b56117bb565b5b602002602001018190525082806106cc90611815565b935050505b80806001019150506104ba565b50819350505050919050565b5f60025f3373ffffffffffffffffffffffffffffffffffffffff1673ffffffffffffffffffffffffffffffffffffffff1681526020019081526020015f2054905090565b5f61073882610e3d565b6020015190508060025f3373ffffffffffffffffffffffffffffffffffffffff1673ffffffffffffffffffffffffffffffffffffffff1681526020019081526020015f205410156107be576040517f08c379a00000000000000000000000000000000000000000000000000000000081526004016107b5906118e3565b60405180910390fd5b8060025f3373ffffffffffffffffffffffffffffffffffffffff1673ffffffffffffffffffffffffffffffffffffffff1681526020019081526020015f205f82825461080a9190611901565b92505081905550600360405180608001604052803373ffffffffffffffffffffffffffffffffffffffff1681526020018481526020014281526020015f60018111156108595761085861185c565b5b815250908060018154018082558091505060019003905f5260205f2090600402015f909190919091505f820151815f015f6101000a81548173ffffffffffffffffffffffffffffffffffffffff021916908373ffffffffffffffffffffffffffffffffffffffff16021790555060208201518160010190816108db9190611ad1565b50604082015181600201556060820151816003015f6101000a81548160ff021916908360018111156109105761090f61185c565b5b021790555050505050565b5f8054906101000a900473ffffffffffffffffffffffffffffffffffffffff1673ffffffffffffffffffffffffffffffffffffffff163373ffffffffffffffffffffffffffffffffffffffff16146109a8576040517f08c379a000000000000000000000000000000000000000000000000000000000815260040161099f90611c10565b60405180910390fd5b5f60149054906101000a900460ff16156109f7576040517f08c379a00000000000000000000000000000000000000000000000000000000081526004016109ee90611c78565b60405180910390fd5b60015f60146101000a81548160ff0219169083151502179055505f60025f3373ffffffffffffffffffffffffffffffffffffffff1673ffffffffffffffffffffffffffffffffffffffff1681526020019081526020015f205490505f8111610a94576040517f08c379a0000000000000000000000000000000000000000000000000000000008152600401610a8b90611ce0565b60405180910390fd5b5f60025f3373ffffffffffffffffffffffffffffffffffffffff1673ffffffffffffffffffffffffffffffffffffffff1681526020019081526020015f20819055505f3373ffffffffffffffffffffffffffffffffffffffff1682604051610afb90611d2b565b5f6040518083038185875af1925050503d805f8114610b35576040519150601f19603f3d011682016040523d82523d5f602084013e610b3a565b606091505b5050905080610b7e576040517f08c379a0000000000000000000000000000000000000000000000000000000008152600401610b7590611d89565b60405180910390fd5b50505f8060146101000a81548160ff021916908315150217905550565b5f8054906101000a900473ffffffffffffffffffffffffffffffffffffffff1681565b5f3411610c00576040517f08c379a0000000000000000000000000000000000000000000000000000000008152600401610bf790611df1565b60405180910390fd5b3460025f3373ffffffffffffffffffffffffffffffffffffffff1673ffffffffffffffffffffffffffffffffffffffff1681526020019081526020015f205f828254610c4c9190611e0f565b92505081905550565b600380549050811080610c6c575060038054905081115b610cab576040517f08c379a0000000000000000000000000000000000000000000000000000000008152600401610ca290611e8c565b60405180910390fd5b3373ffffffffffffffffffffffffffffffffffffffff1660038281548110610cd657610cd56117bb565b5b905f5260205f2090600402015f015f9054906101000a900473ffffffffffffffffffffffffffffffffffffffff1673ffffffffffffffffffffffffffffffffffffffff1614610d5a576040517f08c379a0000000000000000000000000000000000000000000000000000000008152600401610d5190611ef4565b60405180910390fd5b5f6001811115610d6d57610d6c61185c565b5b60038281548110610d8157610d806117bb565b5b905f5260205f2090600402016003015f9054906101000a900460ff166001811115610daf57610dae61185c565b5b14610def576040517f08c379a0000000000000000000000000000000000000000000000000000000008152600401610de690611f5c565b60405180910390fd5b600160038281548110610e0557610e046117bb565b5b905f5260205f2090600402016003015f6101000a81548160ff02191690836001811115610e3557610e3461185c565b5b021790555050565b610e45611136565b5f5b6001805490508110156110c15782604051602001610e659190611fb4565b6040516020818303038152906040528051906020012060018281548110610e8f57610e8e6117bb565b5b905f5260205f2090600402015f01604051602001610ead919061204a565b60405160208183030381529060405280519060200120036110b45760018181548110610edc57610edb6117bb565b5b905f5260205f2090600402016040518060800160405290815f82018054610f029061178b565b80601f0160208091040260200160405190810160405280929190818152602001828054610f2e9061178b565b8015610f795780601f10610f5057610100808354040283529160200191610f79565b820191905f5260205f20905b815481529060010190602001808311610f5c57829003601f168201915b5050505050815260200160018201548152602001600282018054610f9c9061178b565b80601f0160208091040260200160405190810160405280929190818152602001828054610fc89061178b565b80156110135780601f10610fea57610100808354040283529160200191611013565b820191905f5260205f20905b815481529060010190602001808311610ff657829003601f168201915b5050505050815260200160038201805461102c9061178b565b80601f01602080910402602001604051908101604052809291908181526020018280546110589061178b565b80156110a35780601f1061107a576101008083540402835291602001916110a3565b820191905f5260205f20905b81548152906001019060200180831161108657829003601f168201915b5050505050815250509150506110fd565b8080600101915050610e47565b506040517f08c379a00000000000000000000000000000000000000000000000000000000081526004016110f4906120aa565b60405180910390fd5b919050565b6040518060c001604052805f815260200160608152602001606081526020015f81526020015f81526020015f151581525090565b6040518060800160405280606081526020015f815260200160608152602001606081525090565b5f81519050919050565b5f82825260208201905092915050565b5f819050602082019050919050565b5f81519050919050565b5f82825260208201905092915050565b8281835e5f83830152505050565b5f601f19601f8301169050919050565b5f6111c882611186565b6111d28185611190565b93506111e28185602086016111a0565b6111eb816111ae565b840191505092915050565b5f819050919050565b611208816111f6565b82525050565b5f608083015f8301518482035f86015261122882826111be565b915050602083015161123d60208601826111ff565b506040830151848203604086015261125582826111be565b9150506060830151848203606086015261126f82826111be565b9150508091505092915050565b5f611287838361120e565b905092915050565b5f602082019050919050565b5f6112a58261115d565b6112af8185611167565b9350836020820285016112c185611177565b805f5b858110156112fc57848403895281516112dd858261127c565b94506112e88361128f565b925060208a019950506001810190506112c4565b50829750879550505050505092915050565b5f6020820190508181035f830152611326818461129b565b905092915050565b5f604051905090565b5f80fd5b5f80fd5b5f73ffffffffffffffffffffffffffffffffffffffff82169050919050565b5f6113688261133f565b9050919050565b6113788161135e565b8114611382575f80fd5b50565b5f813590506113938161136f565b92915050565b5f602082840312156113ae576113ad611337565b5b5f6113bb84828501611385565b91505092915050565b5f81519050919050565b5f82825260208201905092915050565b5f819050602082019050919050565b5f8115159050919050565b611401816113ed565b82525050565b5f60c083015f83015161141c5f8601826111ff565b506020830151848203602086015261143482826111be565b9150506040830151848203604086015261144e82826111be565b915050606083015161146360608601826111ff565b50608083015161147660808601826111ff565b5060a083015161148960a08601826113f8565b508091505092915050565b5f61149f8383611407565b905092915050565b5f602082019050919050565b5f6114bd826113c4565b6114c781856113ce565b9350836020820285016114d9856113de565b805f5b8581101561151457848403895281516114f58582611494565b9450611500836114a7565b925060208a019950506001810190506114dc565b50829750879550505050505092915050565b5f6020820190508181035f83015261153e81846114b3565b905092915050565b61154f816111f6565b82525050565b5f6020820190506115685f830184611546565b92915050565b5f80fd5b5f80fd5b7f4e487b71000000000000000000000000000000000000000000000000000000005f52604160045260245ffd5b6115ac826111ae565b810181811067ffffffffffffffff821117156115cb576115ca611576565b5b80604052505050565b5f6115dd61132e565b90506115e982826115a3565b919050565b5f67ffffffffffffffff82111561160857611607611576565b5b611611826111ae565b9050602081019050919050565b828183375f83830152505050565b5f61163e611639846115ee565b6115d4565b90508281526020810184848401111561165a57611659611572565b5b61166584828561161e565b509392505050565b5f82601f8301126116815761168061156e565b5b813561169184826020860161162c565b91505092915050565b5f602082840312156116af576116ae611337565b5b5f82013567ffffffffffffffff8111156116cc576116cb61133b565b5b6116d88482850161166d565b91505092915050565b6116ea8161135e565b82525050565b5f6020820190506117035f8301846116e1565b92915050565b611712816111f6565b811461171c575f80fd5b50565b5f8135905061172d81611709565b92915050565b5f6020828403121561174857611747611337565b5b5f6117558482850161171f565b91505092915050565b7f4e487b71000000000000000000000000000000000000000000000000000000005f52602260045260245ffd5b5f60028204905060018216806117a257607f821691505b6020821081036117b5576117b461175e565b5b50919050565b7f4e487b71000000000000000000000000000000000000000000000000000000005f52603260045260245ffd5b7f4e487b71000000000000000000000000000000000000000000000000000000005f52601160045260245ffd5b5f61181f826111f6565b91507fffffffffffffffffffffffffffffffffffffffffffffffffffffffffffffffff8203611851576118506117e8565b5b600182019050919050565b7f4e487b71000000000000000000000000000000000000000000000000000000005f52602160045260245ffd5b5f82825260208201905092915050565b7f496e73756666696369656e742066756e647300000000000000000000000000005f82015250565b5f6118cd601283611889565b91506118d882611899565b602082019050919050565b5f6020820190508181035f8301526118fa816118c1565b9050919050565b5f61190b826111f6565b9150611916836111f6565b925082820390508181111561192e5761192d6117e8565b5b92915050565b5f819050815f5260205f209050919050565b5f6020601f8301049050919050565b5f82821b905092915050565b5f600883026119907fffffffffffffffffffffffffffffffffffffffffffffffffffffffffffffffff82611955565b61199a8683611955565b95508019841693508086168417925050509392505050565b5f819050919050565b5f6119d56119d06119cb846111f6565b6119b2565b6111f6565b9050919050565b5f819050919050565b6119ee836119bb565b611a026119fa826119dc565b848454611961565b825550505050565b5f90565b611a16611a0a565b611a218184846119e5565b505050565b5b81811015611a4457611a395f82611a0e565b600181019050611a27565b5050565b601f821115611a8957611a5a81611934565b611a6384611946565b81016020851015611a72578190505b611a86611a7e85611946565b830182611a26565b50505b505050565b5f82821c905092915050565b5f611aa95f1984600802611a8e565b1980831691505092915050565b5f611ac18383611a9a565b9150826002028217905092915050565b611ada82611186565b67ffffffffffffffff811115611af357611af2611576565b5b611afd825461178b565b611b08828285611a48565b5f60209050601f831160018114611b39575f8415611b27578287015190505b611b318582611ab6565b865550611b98565b601f198416611b4786611934565b5f5b82811015611b6e57848901518255600182019150602085019450602081019050611b49565b86831015611b8b5784890151611b87601f891682611a9a565b8355505b6001600288020188555050505b505050505050565b7f4f6e6c79206f776e65722063616e2063616c6c20746869732066756e6374696f5f8201527f6e00000000000000000000000000000000000000000000000000000000000000602082015250565b5f611bfa602183611889565b9150611c0582611ba0565b604082019050919050565b5f6020820190508181035f830152611c2781611bee565b9050919050565b7f4e6f207265656e7472616e6379000000000000000000000000000000000000005f82015250565b5f611c62600d83611889565b9150611c6d82611c2e565b602082019050919050565b5f6020820190508181035f830152611c8f81611c56565b9050919050565b7f596f7520646f206e6f74206861766520616e792062616c616e63652e000000005f82015250565b5f611cca601c83611889565b9150611cd582611c96565b602082019050919050565b5f6020820190508181035f830152611cf781611cbe565b9050919050565b5f81905092915050565b50565b5f611d165f83611cfe565b9150611d2182611d08565b5f82019050919050565b5f611d3582611d0b565b9150819050919050565b7f5472616e73666572206661696c65642e000000000000000000000000000000005f82015250565b5f611d73601083611889565b9150611d7e82611d3f565b602082019050919050565b5f6020820190508181035f830152611da081611d67565b9050919050565b7f4d697373696e6720726571756972656420616d6f756e740000000000000000005f82015250565b5f611ddb601783611889565b9150611de682611da7565b602082019050919050565b5f6020820190508181035f830152611e0881611dcf565b9050919050565b5f611e19826111f6565b9150611e24836111f6565b9250828201905080821115611e3c57611e3b6117e8565b5b92915050565b7f496e76616c696420707572636861736520696e646578000000000000000000005f82015250565b5f611e76601683611889565b9150611e8182611e42565b602082019050919050565b5f6020820190508181035f830152611ea381611e6a565b9050919050565b7f4e6f7420796f75722070757263686173650000000000000000000000000000005f82015250565b5f611ede601183611889565b9150611ee982611eaa565b602082019050919050565b5f6020820190508181035f830152611f0b81611ed2565b9050919050565b7f507572636861736520616c726561647920636f6e73756d6564000000000000005f82015250565b5f611f46601983611889565b9150611f5182611f12565b602082019050919050565b5f6020820190508181035f830152611f7381611f3a565b9050919050565b5f81905092915050565b5f611f8e82611186565b611f988185611f7a565b9350611fa88185602086016111a0565b80840191505092915050565b5f611fbf8284611f84565b915081905092915050565b5f8154611fd68161178b565b611fe08186611f7a565b9450600182165f8114611ffa576001811461200f57612041565b60ff1983168652811515820286019350612041565b61201885611934565b5f5b838110156120395781548189015260018201915060208101905061201a565b838801955050505b50505092915050565b5f6120558284611fca565b915081905092915050565b7f50726f64756374206e6f7420666f756e640000000000000000000000000000005f82015250565b5f612094601183611889565b915061209f82612060565b602082019050919050565b5f6020820190508181035f8301526120c181612088565b905091905056fea26469706673582212200d492a52a200ec4c8cfb40e8cfab52db525fa6de71e1d8904a0a204cdd4a446064736f6c634300081a0033516d6652465261626f50334d3438656578766e516b6977675544506150484a69466e44634b637545754c426266312fa264697066735822122008b431d0b0b4e29b9992d238b28cf62d371878c0d8521113f8540cf26abbdb7764736f6c634300081a0033",
			"opcodes": "PUSH1 0x80 PUSH1 0x40 MSTORE PUSH8 0x4563918244F40000 PUSH1 0x2 SSTORE CALLVALUE DUP1 ISZERO PUSH1 0x1A JUMPI PUSH0 DUP1 REVERT JUMPDEST POP PUSH2 0x5E21 DUP1 PUSH2 0x28 PUSH0 CODECOPY PUSH0 RETURN INVALID PUSH1 0x80 PUSH1 0x40 MSTORE PUSH1 0x4 CALLDATASIZE LT PUSH2 0x7A JUMPI PUSH0 CALLDATALOAD PUSH1 0xE0 SHR DUP1 PUSH4 0x7FEA0D4B GT PUSH2 0x4D JUMPI DUP1 PUSH4 0x7FEA0D4B EQ PUSH2 0xEA JUMPI DUP1 PUSH4 0x92A5353B EQ PUSH2 0x100 JUMPI DUP1 PUSH4 0xAC599090 EQ PUSH2 0x10A JUMPI DUP1 PUSH4 0xED661E1E EQ PUSH2 0x120 JUMPI PUSH2 0x7A JUMP JUMPDEST DUP1 PUSH4 0x69E4B22 EQ PUSH2 0x7E JUMPI DUP1 PUSH4 0xAA9B52B EQ PUSH2 0x94 JUMPI DUP1 PUSH4 0x424F4FEF EQ PUSH2 0xAA JUMPI DUP1 PUSH4 0x4A4507FF EQ PUSH2 0xD4 JUMPI JUMPDEST PUSH0 DUP1 REVERT JUMPDEST CALLVALUE DUP1 ISZERO PUSH2 0x89 JUMPI PUSH0 DUP1 REVERT JUMPDEST POP PUSH2 0x92 PUSH2 0x136 JUMP JUMPDEST STOP JUMPDEST CALLVALUE DUP1 ISZERO PUSH2 0x9F JUMPI PUSH0 DUP1 REVERT JUMPDEST POP PUSH2 0xA8 PUSH2 0x25D JUMP JUMPDEST STOP JUMPDEST CALLVALUE DUP1 ISZERO PUSH2 0xB5 JUMPI PUSH0 DUP1 REVERT JUMPDEST POP PUSH2 0xBE PUSH2 0x497 JUMP JUMPDEST PUSH1 0x40 MLOAD PUSH2 0xCB SWAP2 SWAP1 PUSH2 0xDFD JUMP JUMPDEST PUSH1 0x40 MLOAD DUP1 SWAP2 SUB SWAP1 RETURN JUMPDEST CALLVALUE DUP1 ISZERO PUSH2 0xDF JUMPI PUSH0 DUP1 REVERT JUMPDEST POP PUSH2 0xE8 PUSH2 0x4BA JUMP JUMPDEST STOP JUMPDEST CALLVALUE DUP1 ISZERO PUSH2 0xF5 JUMPI PUSH0 DUP1 REVERT JUMPDEST POP PUSH2 0xFE PUSH2 0x5C6 JUMP JUMPDEST STOP JUMPDEST PUSH2 0x108 PUSH2 0x66C JUMP JUMPDEST STOP JUMPDEST CALLVALUE DUP1 ISZERO PUSH2 0x115 JUMPI PUSH0 DUP1 REVERT JUMPDEST POP PUSH2 0x11E PUSH2 0x7F6 JUMP JUMPDEST STOP JUMPDEST CALLVALUE DUP1 ISZERO PUSH2 0x12B JUMPI PUSH0 DUP1 REVERT JUMPDEST POP PUSH2 0x134 PUSH2 0xD74 JUMP JUMPDEST STOP JUMPDEST PUSH20 0x0 PUSH4 0xBFBA5DD6 PUSH0 DUP1 SLOAD SWAP1 PUSH2 0x100 EXP SWAP1 DIV PUSH20 0xFFFFFFFFFFFFFFFFFFFFFFFFFFFFFFFFFFFFFFFF AND PUSH20 0xFFFFFFFFFFFFFFFFFFFFFFFFFFFFFFFFFFFFFFFF AND PUSH4 0x8DA5CB5B PUSH1 0x40 MLOAD DUP2 PUSH4 0xFFFFFFFF AND PUSH1 0xE0 SHL DUP2 MSTORE PUSH1 0x4 ADD PUSH1 0x20 PUSH1 0x40 MLOAD DUP1 DUP4 SUB DUP2 DUP7 GAS STATICCALL ISZERO DUP1 ISZERO PUSH2 0x1B8 JUMPI RETURNDATASIZE PUSH0 DUP1 RETURNDATACOPY RETURNDATASIZE PUSH0 REVERT JUMPDEST POP POP POP POP PUSH1 0x40 MLOAD RETURNDATASIZE PUSH1 0x1F NOT PUSH1 0x1F DUP3 ADD AND DUP3 ADD DUP1 PUSH1 0x40 MSTORE POP DUP2 ADD SWAP1 PUSH2 0x1DC SWAP2 SWAP1 PUSH2 0xE62 JUMP JUMPDEST PUSH1 0x1 PUSH0 SWAP1 SLOAD SWAP1 PUSH2 0x100 EXP SWAP1 DIV PUSH20 0xFFFFFFFFFFFFFFFFFFFFFFFFFFFFFFFFFFFFFFFF AND PUSH1 0x40 MLOAD DUP4 PUSH4 0xFFFFFFFF AND PUSH1 0xE0 SHL DUP2 MSTORE PUSH1 0x4 ADD PUSH2 0x21B SWAP3 SWAP2 SWAP1 PUSH2 0xEF6 JUMP JUMPDEST PUSH1 0x20 PUSH1 0x40 MLOAD DUP1 DUP4 SUB DUP2 DUP7 GAS DELEGATECALL ISZERO DUP1 ISZERO PUSH2 0x236 JUMPI RETURNDATASIZE PUSH0 DUP1 RETURNDATACOPY RETURNDATASIZE PUSH0 REVERT JUMPDEST POP POP POP POP PUSH1 0x40 MLOAD RETURNDATASIZE PUSH1 0x1F NOT PUSH1 0x1F DUP3 ADD AND DUP3 ADD DUP1 PUSH1 0x40 MSTORE POP DUP2 ADD SWAP1 PUSH2 0x25A SWAP2 SWAP1 PUSH2 0xF65 JUMP JUMPDEST POP JUMP JUMPDEST PUSH0 DUP1 PUSH0 SWAP1 SLOAD SWAP1 PUSH2 0x100 EXP SWAP1 DIV PUSH20 0xFFFFFFFFFFFFFFFFFFFFFFFFFFFFFFFFFFFFFFFF AND PUSH20 0xFFFFFFFFFFFFFFFFFFFFFFFFFFFFFFFFFFFFFFFF AND PUSH4 0x2EE3A52 PUSH1 0x40 MLOAD DUP2 PUSH4 0xFFFFFFFF AND PUSH1 0xE0 SHL DUP2 MSTORE PUSH1 0x4 ADD PUSH0 PUSH1 0x40 MLOAD DUP1 DUP4 SUB DUP2 DUP7 GAS STATICCALL ISZERO DUP1 ISZERO PUSH2 0x2C6 JUMPI RETURNDATASIZE PUSH0 DUP1 RETURNDATACOPY RETURNDATASIZE PUSH0 REVERT JUMPDEST POP POP POP POP PUSH1 0x40 MLOAD RETURNDATASIZE PUSH0 DUP3 RETURNDATACOPY RETURNDATASIZE PUSH1 0x1F NOT PUSH1 0x1F DUP3 ADD AND DUP3 ADD DUP1 PUSH1 0x40 MSTORE POP DUP2 ADD SWAP1 PUSH2 0x2EE SWAP2 SWAP1 PUSH2 0x12B2 JUMP JUMPDEST SWAP1 POP PUSH20 0x0 PUSH4 0xABCD7960 DUP3 MLOAD PUSH1 0x14 PUSH1 0x40 MLOAD DUP4 PUSH4 0xFFFFFFFF AND PUSH1 0xE0 SHL DUP2 MSTORE PUSH1 0x4 ADD PUSH2 0x32B SWAP3 SWAP2 SWAP1 PUSH2 0x13B1 JUMP JUMPDEST PUSH1 0x20 PUSH1 0x40 MLOAD DUP1 DUP4 SUB DUP2 DUP7 GAS DELEGATECALL ISZERO DUP1 ISZERO PUSH2 0x346 JUMPI RETURNDATASIZE PUSH0 DUP1 RETURNDATACOPY RETURNDATASIZE PUSH0 REVERT JUMPDEST POP POP POP POP PUSH1 0x40 MLOAD RETURNDATASIZE PUSH1 0x1F NOT PUSH1 0x1F DUP3 ADD AND DUP3 ADD DUP1 PUSH1 0x40 MSTORE POP DUP2 ADD SWAP1 PUSH2 0x36A SWAP2 SWAP1 PUSH2 0xF65 JUMP JUMPDEST POP PUSH20 0x0 PUSH4 0xE8C2CB16 DUP3 PUSH0 DUP2 MLOAD DUP2 LT PUSH2 0x398 JUMPI PUSH2 0x397 PUSH2 0x13EB JUMP JUMPDEST JUMPDEST PUSH1 0x20 MUL PUSH1 0x20 ADD ADD MLOAD PUSH0 ADD MLOAD PUSH1 0x40 MLOAD DUP3 PUSH4 0xFFFFFFFF AND PUSH1 0xE0 SHL DUP2 MSTORE PUSH1 0x4 ADD PUSH2 0x3BF SWAP2 SWAP1 PUSH2 0x14EE JUMP JUMPDEST PUSH1 0x20 PUSH1 0x40 MLOAD DUP1 DUP4 SUB DUP2 DUP7 GAS DELEGATECALL ISZERO DUP1 ISZERO PUSH2 0x3DA JUMPI RETURNDATASIZE PUSH0 DUP1 RETURNDATACOPY RETURNDATASIZE PUSH0 REVERT JUMPDEST POP POP POP POP PUSH1 0x40 MLOAD RETURNDATASIZE PUSH1 0x1F NOT PUSH1 0x1F DUP3 ADD AND DUP3 ADD DUP1 PUSH1 0x40 MSTORE POP DUP2 ADD SWAP1 PUSH2 0x3FE SWAP2 SWAP1 PUSH2 0xF65 JUMP JUMPDEST POP PUSH20 0x0 PUSH4 0xE8C2CB16 DUP3 PUSH0 DUP2 MLOAD DUP2 LT PUSH2 0x42C JUMPI PUSH2 0x42B PUSH2 0x13EB JUMP JUMPDEST JUMPDEST PUSH1 0x20 MUL PUSH1 0x20 ADD ADD MLOAD PUSH1 0x40 ADD MLOAD PUSH1 0x40 MLOAD DUP3 PUSH4 0xFFFFFFFF AND PUSH1 0xE0 SHL DUP2 MSTORE PUSH1 0x4 ADD PUSH2 0x454 SWAP2 SWAP1 PUSH2 0x15C8 JUMP JUMPDEST PUSH1 0x20 PUSH1 0x40 MLOAD DUP1 DUP4 SUB DUP2 DUP7 GAS DELEGATECALL ISZERO DUP1 ISZERO PUSH2 0x46F JUMPI RETURNDATASIZE PUSH0 DUP1 RETURNDATACOPY RETURNDATASIZE PUSH0 REVERT JUMPDEST POP POP POP POP PUSH1 0x40 MLOAD RETURNDATASIZE PUSH1 0x1F NOT PUSH1 0x1F DUP3 ADD AND DUP3 ADD DUP1 PUSH1 0x40 MSTORE POP DUP2 ADD SWAP1 PUSH2 0x493 SWAP2 SWAP1 PUSH2 0xF65 JUMP JUMPDEST POP POP JUMP JUMPDEST PUSH0 DUP1 SLOAD SWAP1 PUSH2 0x100 EXP SWAP1 DIV PUSH20 0xFFFFFFFFFFFFFFFFFFFFFFFFFFFFFFFFFFFFFFFF AND DUP2 JUMP JUMPDEST PUSH0 DUP1 PUSH0 SWAP1 SLOAD SWAP1 PUSH2 0x100 EXP SWAP1 DIV PUSH20 0xFFFFFFFFFFFFFFFFFFFFFFFFFFFFFFFFFFFFFFFF AND PUSH20 0xFFFFFFFFFFFFFFFFFFFFFFFFFFFFFFFFFFFFFFFF AND PUSH4 0x12065FE0 PUSH1 0x40 MLOAD DUP2 PUSH4 0xFFFFFFFF AND PUSH1 0xE0 SHL DUP2 MSTORE PUSH1 0x4 ADD PUSH1 0x20 PUSH1 0x40 MLOAD DUP1 DUP4 SUB DUP2 DUP7 GAS STATICCALL ISZERO DUP1 ISZERO PUSH2 0x524 JUMPI RETURNDATASIZE PUSH0 DUP1 RETURNDATACOPY RETURNDATASIZE PUSH0 REVERT JUMPDEST POP POP POP POP PUSH1 0x40 MLOAD RETURNDATASIZE PUSH1 0x1F NOT PUSH1 0x1F DUP3 ADD AND DUP3 ADD DUP1 PUSH1 0x40 MSTORE POP DUP2 ADD SWAP1 PUSH2 0x548 SWAP2 SWAP1 PUSH2 0x160E JUMP JUMPDEST SWAP1 POP PUSH20 0x0 PUSH4 0xABCD7960 DUP3 PUSH0 PUSH1 0x40 MLOAD DUP4 PUSH4 0xFFFFFFFF AND PUSH1 0xE0 SHL DUP2 MSTORE PUSH1 0x4 ADD PUSH2 0x583 SWAP3 SWAP2 SWAP1 PUSH2 0x16BC JUMP JUMPDEST PUSH1 0x20 PUSH1 0x40 MLOAD DUP1 DUP4 SUB DUP2 DUP7 GAS DELEGATECALL ISZERO DUP1 ISZERO PUSH2 0x59E JUMPI RETURNDATASIZE PUSH0 DUP1 RETURNDATACOPY RETURNDATASIZE PUSH0 REVERT JUMPDEST POP POP POP POP PUSH1 0x40 MLOAD RETURNDATASIZE PUSH1 0x1F NOT PUSH1 0x1F DUP3 ADD AND DUP3 ADD DUP1 PUSH1 0x40 MSTORE POP DUP2 ADD SWAP1 PUSH2 0x5C2 SWAP2 SWAP1 PUSH2 0xF65 JUMP JUMPDEST POP POP JUMP JUMPDEST ADDRESS PUSH1 0x1 PUSH0 PUSH2 0x100 EXP DUP2 SLOAD DUP2 PUSH20 0xFFFFFFFFFFFFFFFFFFFFFFFFFFFFFFFFFFFFFFFF MUL NOT AND SWAP1 DUP4 PUSH20 0xFFFFFFFFFFFFFFFFFFFFFFFFFFFFFFFFFFFFFFFF AND MUL OR SWAP1 SSTORE POP PUSH1 0x40 MLOAD PUSH2 0x612 SWAP1 PUSH2 0xD76 JUMP JUMPDEST PUSH1 0x40 MLOAD DUP1 SWAP2 SUB SWAP1 PUSH0 CREATE DUP1 ISZERO DUP1 ISZERO PUSH2 0x62B JUMPI RETURNDATASIZE PUSH0 DUP1 RETURNDATACOPY RETURNDATASIZE PUSH0 REVERT JUMPDEST POP PUSH0 DUP1 PUSH2 0x100 EXP DUP2 SLOAD DUP2 PUSH20 0xFFFFFFFFFFFFFFFFFFFFFFFFFFFFFFFFFFFFFFFF MUL NOT AND SWAP1 DUP4 PUSH20 0xFFFFFFFFFFFFFFFFFFFFFFFFFFFFFFFFFFFFFFFF AND MUL OR SWAP1 SSTORE POP JUMP JUMPDEST PUSH0 DUP1 SLOAD SWAP1 PUSH2 0x100 EXP SWAP1 DIV PUSH20 0xFFFFFFFFFFFFFFFFFFFFFFFFFFFFFFFFFFFFFFFF AND PUSH20 0xFFFFFFFFFFFFFFFFFFFFFFFFFFFFFFFFFFFFFFFF AND PUSH4 0xA26759CB PUSH2 0x9C40 PUSH1 0x2 SLOAD PUSH1 0x40 MLOAD DUP4 PUSH4 0xFFFFFFFF AND PUSH1 0xE0 SHL DUP2 MSTORE PUSH1 0x4 ADD PUSH0 PUSH1 0x40 MLOAD DUP1 DUP4 SUB DUP2 DUP6 DUP10 DUP1 EXTCODESIZE ISZERO DUP1 ISZERO PUSH2 0x6D6 JUMPI PUSH0 DUP1 REVERT JUMPDEST POP DUP9 CALL ISZERO DUP1 ISZERO PUSH2 0x6E8 JUMPI RETURNDATASIZE PUSH0 DUP1 RETURNDATACOPY RETURNDATASIZE PUSH0 REVERT JUMPDEST POP POP POP POP POP POP PUSH20 0x0 PUSH4 0xABCD7960 PUSH0 DUP1 SLOAD SWAP1 PUSH2 0x100 EXP SWAP1 DIV PUSH20 0xFFFFFFFFFFFFFFFFFFFFFFFFFFFFFFFFFFFFFFFF AND PUSH20 0xFFFFFFFFFFFFFFFFFFFFFFFFFFFFFFFFFFFFFFFF AND PUSH4 0x12065FE0 PUSH1 0x40 MLOAD DUP2 PUSH4 0xFFFFFFFF AND PUSH1 0xE0 SHL DUP2 MSTORE PUSH1 0x4 ADD PUSH1 0x20 PUSH1 0x40 MLOAD DUP1 DUP4 SUB DUP2 DUP7 GAS STATICCALL ISZERO DUP1 ISZERO PUSH2 0x770 JUMPI RETURNDATASIZE PUSH0 DUP1 RETURNDATACOPY RETURNDATASIZE PUSH0 REVERT JUMPDEST POP POP POP POP PUSH1 0x40 MLOAD RETURNDATASIZE PUSH1 0x1F NOT PUSH1 0x1F DUP3 ADD AND DUP3 ADD DUP1 PUSH1 0x40 MSTORE POP DUP2 ADD SWAP1 PUSH2 0x794 SWAP2 SWAP1 PUSH2 0x160E JUMP JUMPDEST PUSH1 0x2 SLOAD PUSH1 0x40 MLOAD DUP4 PUSH4 0xFFFFFFFF AND PUSH1 0xE0 SHL DUP2 MSTORE PUSH1 0x4 ADD PUSH2 0x7B4 SWAP3 SWAP2 SWAP1 PUSH2 0x1766 JUMP JUMPDEST PUSH1 0x20 PUSH1 0x40 MLOAD DUP1 DUP4 SUB DUP2 DUP7 GAS DELEGATECALL ISZERO DUP1 ISZERO PUSH2 0x7CF JUMPI RETURNDATASIZE PUSH0 DUP1 RETURNDATACOPY RETURNDATASIZE PUSH0 REVERT JUMPDEST POP POP POP POP PUSH1 0x40 MLOAD RETURNDATASIZE PUSH1 0x1F NOT PUSH1 0x1F DUP3 ADD AND DUP3 ADD DUP1 PUSH1 0x40 MSTORE POP DUP2 ADD SWAP1 PUSH2 0x7F3 SWAP2 SWAP1 PUSH2 0xF65 JUMP JUMPDEST POP JUMP JUMPDEST PUSH20 0x0 PUSH4 0xABCD7960 PUSH0 DUP1 SLOAD SWAP1 PUSH2 0x100 EXP SWAP1 DIV PUSH20 0xFFFFFFFFFFFFFFFFFFFFFFFFFFFFFFFFFFFFFFFF AND PUSH20 0xFFFFFFFFFFFFFFFFFFFFFFFFFFFFFFFFFFFFFFFF AND PUSH4 0x12065FE0 PUSH1 0x40 MLOAD DUP2 PUSH4 0xFFFFFFFF AND PUSH1 0xE0 SHL DUP2 MSTORE PUSH1 0x4 ADD PUSH1 0x20 PUSH1 0x40 MLOAD DUP1 DUP4 SUB DUP2 DUP7 GAS STATICCALL ISZERO DUP1 ISZERO PUSH2 0x878 JUMPI RETURNDATASIZE PUSH0 DUP1 RETURNDATACOPY RETURNDATASIZE PUSH0 REVERT JUMPDEST POP POP POP POP PUSH1 0x40 MLOAD RETURNDATASIZE PUSH1 0x1F NOT PUSH1 0x1F DUP3 ADD AND DUP3 ADD DUP1 PUSH1 0x40 MSTORE POP DUP2 ADD SWAP1 PUSH2 0x89C SWAP2 SWAP1 PUSH2 0x160E JUMP JUMPDEST PUSH1 0x2 SLOAD PUSH1 0x40 MLOAD DUP4 PUSH4 0xFFFFFFFF AND PUSH1 0xE0 SHL DUP2 MSTORE PUSH1 0x4 ADD PUSH2 0x8BC SWAP3 SWAP2 SWAP1 PUSH2 0x1810 JUMP JUMPDEST PUSH1 0x20 PUSH1 0x40 MLOAD DUP1 DUP4 SUB DUP2 DUP7 GAS DELEGATECALL ISZERO DUP1 ISZERO PUSH2 0x8D7 JUMPI RETURNDATASIZE PUSH0 DUP1 RETURNDATACOPY RETURNDATASIZE PUSH0 REVERT JUMPDEST POP POP POP POP PUSH1 0x40 MLOAD RETURNDATASIZE PUSH1 0x1F NOT PUSH1 0x1F DUP3 ADD AND DUP3 ADD DUP1 PUSH1 0x40 MSTORE POP DUP2 ADD SWAP1 PUSH2 0x8FB SWAP2 SWAP1 PUSH2 0xF65 JUMP JUMPDEST POP PUSH0 DUP1 PUSH0 SWAP1 SLOAD SWAP1 PUSH2 0x100 EXP SWAP1 DIV PUSH20 0xFFFFFFFFFFFFFFFFFFFFFFFFFFFFFFFFFFFFFFFF AND PUSH20 0xFFFFFFFFFFFFFFFFFFFFFFFFFFFFFFFFFFFFFFFF AND PUSH4 0x2EE3A52 PUSH1 0x40 MLOAD DUP2 PUSH4 0xFFFFFFFF AND PUSH1 0xE0 SHL DUP2 MSTORE PUSH1 0x4 ADD PUSH0 PUSH1 0x40 MLOAD DUP1 DUP4 SUB DUP2 DUP7 GAS STATICCALL ISZERO DUP1 ISZERO PUSH2 0x965 JUMPI RETURNDATASIZE PUSH0 DUP1 RETURNDATACOPY RETURNDATASIZE PUSH0 REVERT JUMPDEST POP POP POP POP PUSH1 0x40 MLOAD RETURNDATASIZE PUSH0 DUP3 RETURNDATACOPY RETURNDATASIZE PUSH1 0x1F NOT PUSH1 0x1F DUP3 ADD AND DUP3 ADD DUP1 PUSH1 0x40 MSTORE POP DUP2 ADD SWAP1 PUSH2 0x98D SWAP2 SWAP1 PUSH2 0x12B2 JUMP JUMPDEST SWAP1 POP PUSH0 DUP2 PUSH0 DUP2 MLOAD DUP2 LT PUSH2 0x9A3 JUMPI PUSH2 0x9A2 PUSH2 0x13EB JUMP JUMPDEST JUMPDEST PUSH1 0x20 MUL PUSH1 0x20 ADD ADD MLOAD SWAP1 POP PUSH0 DUP1 SLOAD SWAP1 PUSH2 0x100 EXP SWAP1 DIV PUSH20 0xFFFFFFFFFFFFFFFFFFFFFFFFFFFFFFFFFFFFFFFF AND PUSH20 0xFFFFFFFFFFFFFFFFFFFFFFFFFFFFFFFFFFFFFFFF AND PUSH4 0x19F92926 PUSH3 0x222E0 DUP4 PUSH0 ADD MLOAD PUSH1 0x40 MLOAD DUP4 PUSH4 0xFFFFFFFF AND PUSH1 0xE0 SHL DUP2 MSTORE PUSH1 0x4 ADD PUSH2 0xA0C SWAP2 SWAP1 PUSH2 0x1892 JUMP JUMPDEST PUSH0 PUSH1 0x40 MLOAD DUP1 DUP4 SUB DUP2 PUSH0 DUP9 DUP1 EXTCODESIZE ISZERO DUP1 ISZERO PUSH2 0xA23 JUMPI PUSH0 DUP1 REVERT JUMPDEST POP DUP8 CALL ISZERO DUP1 ISZERO PUSH2 0xA35 JUMPI RETURNDATASIZE PUSH0 DUP1 RETURNDATACOPY RETURNDATASIZE PUSH0 REVERT JUMPDEST POP POP POP POP POP PUSH20 0x0 PUSH4 0xAEA88952 PUSH0 DUP1 SLOAD SWAP1 PUSH2 0x100 EXP SWAP1 DIV PUSH20 0xFFFFFFFFFFFFFFFFFFFFFFFFFFFFFFFFFFFFFFFF AND PUSH20 0xFFFFFFFFFFFFFFFFFFFFFFFFFFFFFFFFFFFFFFFF AND PUSH4 0x12065FE0 PUSH1 0x40 MLOAD DUP2 PUSH4 0xFFFFFFFF AND PUSH1 0xE0 SHL DUP2 MSTORE PUSH1 0x4 ADD PUSH1 0x20 PUSH1 0x40 MLOAD DUP1 DUP4 SUB DUP2 DUP7 GAS STATICCALL ISZERO DUP1 ISZERO PUSH2 0xABC JUMPI RETURNDATASIZE PUSH0 DUP1 RETURNDATACOPY RETURNDATASIZE PUSH0 REVERT JUMPDEST POP POP POP POP PUSH1 0x40 MLOAD RETURNDATASIZE PUSH1 0x1F NOT PUSH1 0x1F DUP3 ADD AND DUP3 ADD DUP1 PUSH1 0x40 MSTORE POP DUP2 ADD SWAP1 PUSH2 0xAE0 SWAP2 SWAP1 PUSH2 0x160E JUMP JUMPDEST PUSH1 0x2 SLOAD PUSH1 0x40 MLOAD DUP4 PUSH4 0xFFFFFFFF AND PUSH1 0xE0 SHL DUP2 MSTORE PUSH1 0x4 ADD PUSH2 0xB00 SWAP3 SWAP2 SWAP1 PUSH2 0x1922 JUMP JUMPDEST PUSH1 0x20 PUSH1 0x40 MLOAD DUP1 DUP4 SUB DUP2 DUP7 GAS DELEGATECALL ISZERO DUP1 ISZERO PUSH2 0xB1B JUMPI RETURNDATASIZE PUSH0 DUP1 RETURNDATACOPY RETURNDATASIZE PUSH0 REVERT JUMPDEST POP POP POP POP PUSH1 0x40 MLOAD RETURNDATASIZE PUSH1 0x1F NOT PUSH1 0x1F DUP3 ADD AND DUP3 ADD DUP1 PUSH1 0x40 MSTORE POP DUP2 ADD SWAP1 PUSH2 0xB3F SWAP2 SWAP1 PUSH2 0xF65 JUMP JUMPDEST POP PUSH0 DUP1 PUSH0 SWAP1 SLOAD SWAP1 PUSH2 0x100 EXP SWAP1 DIV PUSH20 0xFFFFFFFFFFFFFFFFFFFFFFFFFFFFFFFFFFFFFFFF AND PUSH20 0xFFFFFFFFFFFFFFFFFFFFFFFFFFFFFFFFFFFFFFFF AND PUSH4 0x1107BC98 PUSH1 0x1 PUSH0 SWAP1 SLOAD SWAP1 PUSH2 0x100 EXP SWAP1 DIV PUSH20 0xFFFFFFFFFFFFFFFFFFFFFFFFFFFFFFFFFFFFFFFF AND PUSH1 0x40 MLOAD DUP3 PUSH4 0xFFFFFFFF AND PUSH1 0xE0 SHL DUP2 MSTORE PUSH1 0x4 ADD PUSH2 0xBBB SWAP2 SWAP1 PUSH2 0x196B JUMP JUMPDEST PUSH0 PUSH1 0x40 MLOAD DUP1 DUP4 SUB DUP2 DUP7 GAS STATICCALL ISZERO DUP1 ISZERO PUSH2 0xBD5 JUMPI RETURNDATASIZE PUSH0 DUP1 RETURNDATACOPY RETURNDATASIZE PUSH0 REVERT JUMPDEST POP POP POP POP PUSH1 0x40 MLOAD RETURNDATASIZE PUSH0 DUP3 RETURNDATACOPY RETURNDATASIZE PUSH1 0x1F NOT PUSH1 0x1F DUP3 ADD AND DUP3 ADD DUP1 PUSH1 0x40 MSTORE POP DUP2 ADD SWAP1 PUSH2 0xBFD SWAP2 SWAP1 PUSH2 0x1B37 JUMP JUMPDEST SWAP1 POP PUSH20 0x0 PUSH4 0xABCD7960 DUP3 MLOAD PUSH1 0x1 PUSH1 0x40 MLOAD DUP4 PUSH4 0xFFFFFFFF AND PUSH1 0xE0 SHL DUP2 MSTORE PUSH1 0x4 ADD PUSH2 0xC3A SWAP3 SWAP2 SWAP1 PUSH2 0x1C27 JUMP JUMPDEST PUSH1 0x20 PUSH1 0x40 MLOAD DUP1 DUP4 SUB DUP2 DUP7 GAS DELEGATECALL ISZERO DUP1 ISZERO PUSH2 0xC55 JUMPI RETURNDATASIZE PUSH0 DUP1 RETURNDATACOPY RETURNDATASIZE PUSH0 REVERT JUMPDEST POP POP POP POP PUSH1 0x40 MLOAD RETURNDATASIZE PUSH1 0x1F NOT PUSH1 0x1F DUP3 ADD AND DUP3 ADD DUP1 PUSH1 0x40 MSTORE POP DUP2 ADD SWAP1 PUSH2 0xC79 SWAP2 SWAP1 PUSH2 0xF65 JUMP JUMPDEST POP PUSH20 0x0 PUSH4 0xE8C2CB16 DUP4 PUSH0 ADD MLOAD PUSH1 0x40 MLOAD DUP3 PUSH4 0xFFFFFFFF AND PUSH1 0xE0 SHL DUP2 MSTORE PUSH1 0x4 ADD PUSH2 0xCB4 SWAP2 SWAP1 PUSH2 0x1CD1 JUMP JUMPDEST PUSH1 0x20 PUSH1 0x40 MLOAD DUP1 DUP4 SUB DUP2 DUP7 GAS DELEGATECALL ISZERO DUP1 ISZERO PUSH2 0xCCF JUMPI RETURNDATASIZE PUSH0 DUP1 RETURNDATACOPY RETURNDATASIZE PUSH0 REVERT JUMPDEST POP POP POP POP PUSH1 0x40 MLOAD RETURNDATASIZE PUSH1 0x1F NOT PUSH1 0x1F DUP3 ADD AND DUP3 ADD DUP1 PUSH1 0x40 MSTORE POP DUP2 ADD SWAP1 PUSH2 0xCF3 SWAP2 SWAP1 PUSH2 0xF65 JUMP JUMPDEST POP PUSH20 0x0 PUSH4 0xE8C2CB16 DUP4 PUSH1 0x40 ADD MLOAD PUSH1 0x40 MLOAD DUP3 PUSH4 0xFFFFFFFF AND PUSH1 0xE0 SHL DUP2 MSTORE PUSH1 0x4 ADD PUSH2 0xD2F SWAP2 SWAP1 PUSH2 0x1D87 JUMP JUMPDEST PUSH1 0x20 PUSH1 0x40 MLOAD DUP1 DUP4 SUB DUP2 DUP7 GAS DELEGATECALL ISZERO DUP1 ISZERO PUSH2 0xD4A JUMPI RETURNDATASIZE PUSH0 DUP1 RETURNDATACOPY RETURNDATASIZE PUSH0 REVERT JUMPDEST POP POP POP POP PUSH1 0x40 MLOAD RETURNDATASIZE PUSH1 0x1F NOT PUSH1 0x1F DUP3 ADD AND DUP3 ADD DUP1 PUSH1 0x40 MSTORE POP DUP2 ADD SWAP1 PUSH2 0xD6E SWAP2 SWAP1 PUSH2 0xF65 JUMP JUMPDEST POP POP POP POP JUMP JUMPDEST JUMP JUMPDEST PUSH2 0x401E DUP1 PUSH2 0x1DCE DUP4 CODECOPY ADD SWAP1 JUMP JUMPDEST PUSH0 PUSH20 0xFFFFFFFFFFFFFFFFFFFFFFFFFFFFFFFFFFFFFFFF DUP3 AND SWAP1 POP SWAP2 SWAP1 POP JUMP JUMPDEST PUSH0 DUP2 SWAP1 POP SWAP2 SWAP1 POP JUMP JUMPDEST PUSH0 PUSH2 0xDC5 PUSH2 0xDC0 PUSH2 0xDBB DUP5 PUSH2 0xD83 JUMP JUMPDEST PUSH2 0xDA2 JUMP JUMPDEST PUSH2 0xD83 JUMP JUMPDEST SWAP1 POP SWAP2 SWAP1 POP JUMP JUMPDEST PUSH0 PUSH2 0xDD6 DUP3 PUSH2 0xDAB JUMP JUMPDEST SWAP1 POP SWAP2 SWAP1 POP JUMP JUMPDEST PUSH0 PUSH2 0xDE7 DUP3 PUSH2 0xDCC JUMP JUMPDEST SWAP1 POP SWAP2 SWAP1 POP JUMP JUMPDEST PUSH2 0xDF7 DUP2 PUSH2 0xDDD JUMP JUMPDEST DUP3 MSTORE POP POP JUMP JUMPDEST PUSH0 PUSH1 0x20 DUP3 ADD SWAP1 POP PUSH2 0xE10 PUSH0 DUP4 ADD DUP5 PUSH2 0xDEE JUMP JUMPDEST SWAP3 SWAP2 POP POP JUMP JUMPDEST PUSH0 PUSH1 0x40 MLOAD SWAP1 POP SWAP1 JUMP JUMPDEST PUSH0 DUP1 REVERT JUMPDEST PUSH0 DUP1 REVERT JUMPDEST PUSH0 PUSH2 0xE31 DUP3 PUSH2 0xD83 JUMP JUMPDEST SWAP1 POP SWAP2 SWAP1 POP JUMP JUMPDEST PUSH2 0xE41 DUP2 PUSH2 0xE27 JUMP JUMPDEST DUP2 EQ PUSH2 0xE4B JUMPI PUSH0 DUP1 REVERT JUMPDEST POP JUMP JUMPDEST PUSH0 DUP2 MLOAD SWAP1 POP PUSH2 0xE5C DUP2 PUSH2 0xE38 JUMP JUMPDEST SWAP3 SWAP2 POP POP JUMP JUMPDEST PUSH0 PUSH1 0x20 DUP3 DUP5 SUB SLT ISZERO PUSH2 0xE77 JUMPI PUSH2 0xE76 PUSH2 0xE1F JUMP JUMPDEST JUMPDEST PUSH0 PUSH2 0xE84 DUP5 DUP3 DUP6 ADD PUSH2 0xE4E JUMP JUMPDEST SWAP2 POP POP SWAP3 SWAP2 POP POP JUMP JUMPDEST PUSH2 0xE96 DUP2 PUSH2 0xE27 JUMP JUMPDEST DUP3 MSTORE POP POP JUMP JUMPDEST PUSH0 DUP3 DUP3 MSTORE PUSH1 0x20 DUP3 ADD SWAP1 POP SWAP3 SWAP2 POP POP JUMP JUMPDEST PUSH32 0x4F776E6572206E6F742073657420636F72726563746C79000000000000000000 PUSH0 DUP3 ADD MSTORE POP JUMP JUMPDEST PUSH0 PUSH2 0xEE0 PUSH1 0x17 DUP4 PUSH2 0xE9C JUMP JUMPDEST SWAP2 POP PUSH2 0xEEB DUP3 PUSH2 0xEAC JUMP JUMPDEST PUSH1 0x20 DUP3 ADD SWAP1 POP SWAP2 SWAP1 POP JUMP JUMPDEST PUSH0 PUSH1 0x60 DUP3 ADD SWAP1 POP PUSH2 0xF09 PUSH0 DUP4 ADD DUP6 PUSH2 0xE8D JUMP JUMPDEST PUSH2 0xF16 PUSH1 0x20 DUP4 ADD DUP5 PUSH2 0xE8D JUMP JUMPDEST DUP2 DUP2 SUB PUSH1 0x40 DUP4 ADD MSTORE PUSH2 0xF27 DUP2 PUSH2 0xED4 JUMP JUMPDEST SWAP1 POP SWAP4 SWAP3 POP POP POP JUMP JUMPDEST PUSH0 DUP2 ISZERO ISZERO SWAP1 POP SWAP2 SWAP1 POP JUMP JUMPDEST PUSH2 0xF44 DUP2 PUSH2 0xF30 JUMP JUMPDEST DUP2 EQ PUSH2 0xF4E JUMPI PUSH0 DUP1 REVERT JUMPDEST POP JUMP JUMPDEST PUSH0 DUP2 MLOAD SWAP1 POP PUSH2 0xF5F DUP2 PUSH2 0xF3B JUMP JUMPDEST SWAP3 SWAP2 POP POP JUMP JUMPDEST PUSH0 PUSH1 0x20 DUP3 DUP5 SUB SLT ISZERO PUSH2 0xF7A JUMPI PUSH2 0xF79 PUSH2 0xE1F JUMP JUMPDEST JUMPDEST PUSH0 PUSH2 0xF87 DUP5 DUP3 DUP6 ADD PUSH2 0xF51 JUMP JUMPDEST SWAP2 POP POP SWAP3 SWAP2 POP POP JUMP JUMPDEST PUSH0 DUP1 REVERT JUMPDEST PUSH0 PUSH1 0x1F NOT PUSH1 0x1F DUP4 ADD AND SWAP1 POP SWAP2 SWAP1 POP JUMP JUMPDEST PUSH32 0x4E487B7100000000000000000000000000000000000000000000000000000000 PUSH0 MSTORE PUSH1 0x41 PUSH1 0x4 MSTORE PUSH1 0x24 PUSH0 REVERT JUMPDEST PUSH2 0xFDA DUP3 PUSH2 0xF94 JUMP JUMPDEST DUP2 ADD DUP2 DUP2 LT PUSH8 0xFFFFFFFFFFFFFFFF DUP3 GT OR ISZERO PUSH2 0xFF9 JUMPI PUSH2 0xFF8 PUSH2 0xFA4 JUMP JUMPDEST JUMPDEST DUP1 PUSH1 0x40 MSTORE POP POP POP JUMP JUMPDEST PUSH0 PUSH2 0x100B PUSH2 0xE16 JUMP JUMPDEST SWAP1 POP PUSH2 0x1017 DUP3 DUP3 PUSH2 0xFD1 JUMP JUMPDEST SWAP2 SWAP1 POP JUMP JUMPDEST PUSH0 PUSH8 0xFFFFFFFFFFFFFFFF DUP3 GT ISZERO PUSH2 0x1036 JUMPI PUSH2 0x1035 PUSH2 0xFA4 JUMP JUMPDEST JUMPDEST PUSH1 0x20 DUP3 MUL SWAP1 POP PUSH1 0x20 DUP2 ADD SWAP1 POP SWAP2 SWAP1 POP JUMP JUMPDEST PUSH0 DUP1 REVERT JUMPDEST PUSH0 DUP1 REVERT JUMPDEST PUSH0 DUP1 REVERT JUMPDEST PUSH0 DUP1 REVERT JUMPDEST PUSH0 PUSH8 0xFFFFFFFFFFFFFFFF DUP3 GT ISZERO PUSH2 0x1071 JUMPI PUSH2 0x1070 PUSH2 0xFA4 JUMP JUMPDEST JUMPDEST PUSH2 0x107A DUP3 PUSH2 0xF94 JUMP JUMPDEST SWAP1 POP PUSH1 0x20 DUP2 ADD SWAP1 POP SWAP2 SWAP1 POP JUMP JUMPDEST DUP3 DUP2 DUP4 MCOPY PUSH0 DUP4 DUP4 ADD MSTORE POP POP POP JUMP JUMPDEST PUSH0 PUSH2 0x10A7 PUSH2 0x10A2 DUP5 PUSH2 0x1057 JUMP JUMPDEST PUSH2 0x1002 JUMP JUMPDEST SWAP1 POP DUP3 DUP2 MSTORE PUSH1 0x20 DUP2 ADD DUP5 DUP5 DUP5 ADD GT ISZERO PUSH2 0x10C3 JUMPI PUSH2 0x10C2 PUSH2 0x1053 JUMP JUMPDEST JUMPDEST PUSH2 0x10CE DUP5 DUP3 DUP6 PUSH2 0x1087 JUMP JUMPDEST POP SWAP4 SWAP3 POP POP POP JUMP JUMPDEST PUSH0 DUP3 PUSH1 0x1F DUP4 ADD SLT PUSH2 0x10EA JUMPI PUSH2 0x10E9 PUSH2 0xF90 JUMP JUMPDEST JUMPDEST DUP2 MLOAD PUSH2 0x10FA DUP5 DUP3 PUSH1 0x20 DUP7 ADD PUSH2 0x1095 JUMP JUMPDEST SWAP2 POP POP SWAP3 SWAP2 POP POP JUMP JUMPDEST PUSH0 DUP2 SWAP1 POP SWAP2 SWAP1 POP JUMP JUMPDEST PUSH2 0x1115 DUP2 PUSH2 0x1103 JUMP JUMPDEST DUP2 EQ PUSH2 0x111F JUMPI PUSH0 DUP1 REVERT JUMPDEST POP JUMP JUMPDEST PUSH0 DUP2 MLOAD SWAP1 POP PUSH2 0x1130 DUP2 PUSH2 0x110C JUMP JUMPDEST SWAP3 SWAP2 POP POP JUMP JUMPDEST PUSH0 PUSH1 0x80 DUP3 DUP5 SUB SLT ISZERO PUSH2 0x114B JUMPI PUSH2 0x114A PUSH2 0x104B JUMP JUMPDEST JUMPDEST PUSH2 0x1155 PUSH1 0x80 PUSH2 0x1002 JUMP JUMPDEST SWAP1 POP PUSH0 DUP3 ADD MLOAD PUSH8 0xFFFFFFFFFFFFFFFF DUP2 GT ISZERO PUSH2 0x1174 JUMPI PUSH2 0x1173 PUSH2 0x104F JUMP JUMPDEST JUMPDEST PUSH2 0x1180 DUP5 DUP3 DUP6 ADD PUSH2 0x10D6 JUMP JUMPDEST PUSH0 DUP4 ADD MSTORE POP PUSH1 0x20 PUSH2 0x1193 DUP5 DUP3 DUP6 ADD PUSH2 0x1122 JUMP JUMPDEST PUSH1 0x20 DUP4 ADD MSTORE POP PUSH1 0x40 DUP3 ADD MLOAD PUSH8 0xFFFFFFFFFFFFFFFF DUP2 GT ISZERO PUSH2 0x11B7 JUMPI PUSH2 0x11B6 PUSH2 0x104F JUMP JUMPDEST JUMPDEST PUSH2 0x11C3 DUP5 DUP3 DUP6 ADD PUSH2 0x10D6 JUMP JUMPDEST PUSH1 0x40 DUP4 ADD MSTORE POP PUSH1 0x60 DUP3 ADD MLOAD PUSH8 0xFFFFFFFFFFFFFFFF DUP2 GT ISZERO PUSH2 0x11E7 JUMPI PUSH2 0x11E6 PUSH2 0x104F JUMP JUMPDEST JUMPDEST PUSH2 0x11F3 DUP5 DUP3 DUP6 ADD PUSH2 0x10D6 JUMP JUMPDEST PUSH1 0x60 DUP4 ADD MSTORE POP SWAP3 SWAP2 POP POP JUMP JUMPDEST PUSH0 PUSH2 0x1211 PUSH2 0x120C DUP5 PUSH2 0x101C JUMP JUMPDEST PUSH2 0x1002 JUMP JUMPDEST SWAP1 POP DUP1 DUP4 DUP3 MSTORE PUSH1 0x20 DUP3 ADD SWAP1 POP PUSH1 0x20 DUP5 MUL DUP4 ADD DUP6 DUP2 GT ISZERO PUSH2 0x1234 JUMPI PUSH2 0x1233 PUSH2 0x1047 JUMP JUMPDEST JUMPDEST DUP4 JUMPDEST DUP2 DUP2 LT ISZERO PUSH2 0x127B JUMPI DUP1 MLOAD PUSH8 0xFFFFFFFFFFFFFFFF DUP2 GT ISZERO PUSH2 0x1259 JUMPI PUSH2 0x1258 PUSH2 0xF90 JUMP JUMPDEST JUMPDEST DUP1 DUP7 ADD PUSH2 0x1266 DUP10 DUP3 PUSH2 0x1136 JUMP JUMPDEST DUP6 MSTORE PUSH1 0x20 DUP6 ADD SWAP5 POP POP POP PUSH1 0x20 DUP2 ADD SWAP1 POP PUSH2 0x1236 JUMP JUMPDEST POP POP POP SWAP4 SWAP3 POP POP POP JUMP JUMPDEST PUSH0 DUP3 PUSH1 0x1F DUP4 ADD SLT PUSH2 0x1299 JUMPI PUSH2 0x1298 PUSH2 0xF90 JUMP JUMPDEST JUMPDEST DUP2 MLOAD PUSH2 0x12A9 DUP5 DUP3 PUSH1 0x20 DUP7 ADD PUSH2 0x11FF JUMP JUMPDEST SWAP2 POP POP SWAP3 SWAP2 POP POP JUMP JUMPDEST PUSH0 PUSH1 0x20 DUP3 DUP5 SUB SLT ISZERO PUSH2 0x12C7 JUMPI PUSH2 0x12C6 PUSH2 0xE1F JUMP JUMPDEST JUMPDEST PUSH0 DUP3 ADD MLOAD PUSH8 0xFFFFFFFFFFFFFFFF DUP2 GT ISZERO PUSH2 0x12E4 JUMPI PUSH2 0x12E3 PUSH2 0xE23 JUMP JUMPDEST JUMPDEST PUSH2 0x12F0 DUP5 DUP3 DUP6 ADD PUSH2 0x1285 JUMP JUMPDEST SWAP2 POP POP SWAP3 SWAP2 POP POP JUMP JUMPDEST PUSH2 0x1302 DUP2 PUSH2 0x1103 JUMP JUMPDEST DUP3 MSTORE POP POP JUMP JUMPDEST PUSH0 DUP2 SWAP1 POP SWAP2 SWAP1 POP JUMP JUMPDEST PUSH0 PUSH2 0x132B PUSH2 0x1326 PUSH2 0x1321 DUP5 PUSH2 0x1308 JUMP JUMPDEST PUSH2 0xDA2 JUMP JUMPDEST PUSH2 0x1103 JUMP JUMPDEST SWAP1 POP SWAP2 SWAP1 POP JUMP JUMPDEST PUSH2 0x133B DUP2 PUSH2 0x1311 JUMP JUMPDEST DUP3 MSTORE POP POP JUMP JUMPDEST PUSH32 0x53686F756C6420686176652032302070726F647563747320696E697469616C69 PUSH0 DUP3 ADD MSTORE PUSH32 0x7A65640000000000000000000000000000000000000000000000000000000000 PUSH1 0x20 DUP3 ADD MSTORE POP JUMP JUMPDEST PUSH0 PUSH2 0x139B PUSH1 0x23 DUP4 PUSH2 0xE9C JUMP JUMPDEST SWAP2 POP PUSH2 0x13A6 DUP3 PUSH2 0x1341 JUMP JUMPDEST PUSH1 0x40 DUP3 ADD SWAP1 POP SWAP2 SWAP1 POP JUMP JUMPDEST PUSH0 PUSH1 0x60 DUP3 ADD SWAP1 POP PUSH2 0x13C4 PUSH0 DUP4 ADD DUP6 PUSH2 0x12F9 JUMP JUMPDEST PUSH2 0x13D1 PUSH1 0x20 DUP4 ADD DUP5 PUSH2 0x1332 JUMP JUMPDEST DUP2 DUP2 SUB PUSH1 0x40 DUP4 ADD MSTORE PUSH2 0x13E2 DUP2 PUSH2 0x138F JUMP JUMPDEST SWAP1 POP SWAP4 SWAP3 POP POP POP JUMP JUMPDEST PUSH32 0x4E487B7100000000000000000000000000000000000000000000000000000000 PUSH0 MSTORE PUSH1 0x32 PUSH1 0x4 MSTORE PUSH1 0x24 PUSH0 REVERT JUMPDEST PUSH0 DUP2 MLOAD SWAP1 POP SWAP2 SWAP1 POP JUMP JUMPDEST PUSH0 PUSH2 0x142C DUP3 PUSH2 0x1418 JUMP JUMPDEST PUSH2 0x1436 DUP2 DUP6 PUSH2 0xE9C JUMP JUMPDEST SWAP4 POP PUSH2 0x1446 DUP2 DUP6 PUSH1 0x20 DUP7 ADD PUSH2 0x1087 JUMP JUMPDEST PUSH2 0x144F DUP2 PUSH2 0xF94 JUMP JUMPDEST DUP5 ADD SWAP2 POP POP SWAP3 SWAP2 POP POP JUMP JUMPDEST PUSH32 0x4131000000000000000000000000000000000000000000000000000000000000 PUSH0 DUP3 ADD MSTORE POP JUMP JUMPDEST PUSH0 PUSH2 0x148E PUSH1 0x2 DUP4 PUSH2 0xE9C JUMP JUMPDEST SWAP2 POP PUSH2 0x1499 DUP3 PUSH2 0x145A JUMP JUMPDEST PUSH1 0x20 DUP3 ADD SWAP1 POP SWAP2 SWAP1 POP JUMP JUMPDEST PUSH32 0x46697273742070726F6475637420636F64652073686F756C6420626520413100 PUSH0 DUP3 ADD MSTORE POP JUMP JUMPDEST PUSH0 PUSH2 0x14D8 PUSH1 0x1F DUP4 PUSH2 0xE9C JUMP JUMPDEST SWAP2 POP PUSH2 0x14E3 DUP3 PUSH2 0x14A4 JUMP JUMPDEST PUSH1 0x20 DUP3 ADD SWAP1 POP SWAP2 SWAP1 POP JUMP JUMPDEST PUSH0 PUSH1 0x60 DUP3 ADD SWAP1 POP DUP2 DUP2 SUB PUSH0 DUP4 ADD MSTORE PUSH2 0x1506 DUP2 DUP5 PUSH2 0x1422 JUMP JUMPDEST SWAP1 POP DUP2 DUP2 SUB PUSH1 0x20 DUP4 ADD MSTORE PUSH2 0x1519 DUP2 PUSH2 0x1482 JUMP JUMPDEST SWAP1 POP DUP2 DUP2 SUB PUSH1 0x40 DUP4 ADD MSTORE PUSH2 0x152C DUP2 PUSH2 0x14CC JUMP JUMPDEST SWAP1 POP SWAP3 SWAP2 POP POP JUMP JUMPDEST PUSH32 0x4C61797300000000000000000000000000000000000000000000000000000000 PUSH0 DUP3 ADD MSTORE POP JUMP JUMPDEST PUSH0 PUSH2 0x1568 PUSH1 0x4 DUP4 PUSH2 0xE9C JUMP JUMPDEST SWAP2 POP PUSH2 0x1573 DUP3 PUSH2 0x1534 JUMP JUMPDEST PUSH1 0x20 DUP3 ADD SWAP1 POP SWAP2 SWAP1 POP JUMP JUMPDEST PUSH32 0x46697273742070726F647563742073686F756C64206265204C61797300000000 PUSH0 DUP3 ADD MSTORE POP JUMP JUMPDEST PUSH0 PUSH2 0x15B2 PUSH1 0x1C DUP4 PUSH2 0xE9C JUMP JUMPDEST SWAP2 POP PUSH2 0x15BD DUP3 PUSH2 0x157E JUMP JUMPDEST PUSH1 0x20 DUP3 ADD SWAP1 POP SWAP2 SWAP1 POP JUMP JUMPDEST PUSH0 PUSH1 0x60 DUP3 ADD SWAP1 POP DUP2 DUP2 SUB PUSH0 DUP4 ADD MSTORE PUSH2 0x15E0 DUP2 DUP5 PUSH2 0x1422 JUMP JUMPDEST SWAP1 POP DUP2 DUP2 SUB PUSH1 0x20 DUP4 ADD MSTORE PUSH2 0x15F3 DUP2 PUSH2 0x155C JUMP JUMPDEST SWAP1 POP DUP2 DUP2 SUB PUSH1 0x40 DUP4 ADD MSTORE PUSH2 0x1606 DUP2 PUSH2 0x15A6 JUMP JUMPDEST SWAP1 POP SWAP3 SWAP2 POP POP JUMP JUMPDEST PUSH0 PUSH1 0x20 DUP3 DUP5 SUB SLT ISZERO PUSH2 0x1623 JUMPI PUSH2 0x1622 PUSH2 0xE1F JUMP JUMPDEST JUMPDEST PUSH0 PUSH2 0x1630 DUP5 DUP3 DUP6 ADD PUSH2 0x1122 JUMP JUMPDEST SWAP2 POP POP SWAP3 SWAP2 POP POP JUMP JUMPDEST PUSH0 DUP2 SWAP1 POP SWAP2 SWAP1 POP JUMP JUMPDEST PUSH0 PUSH2 0x165C PUSH2 0x1657 PUSH2 0x1652 DUP5 PUSH2 0x1639 JUMP JUMPDEST PUSH2 0xDA2 JUMP JUMPDEST PUSH2 0x1103 JUMP JUMPDEST SWAP1 POP SWAP2 SWAP1 POP JUMP JUMPDEST PUSH2 0x166C DUP2 PUSH2 0x1642 JUMP JUMPDEST DUP3 MSTORE POP POP JUMP JUMPDEST PUSH32 0x496E697469616C2062616C616E63652073686F756C6420626520300000000000 PUSH0 DUP3 ADD MSTORE POP JUMP JUMPDEST PUSH0 PUSH2 0x16A6 PUSH1 0x1B DUP4 PUSH2 0xE9C JUMP JUMPDEST SWAP2 POP PUSH2 0x16B1 DUP3 PUSH2 0x1672 JUMP JUMPDEST PUSH1 0x20 DUP3 ADD SWAP1 POP SWAP2 SWAP1 POP JUMP JUMPDEST PUSH0 PUSH1 0x60 DUP3 ADD SWAP1 POP PUSH2 0x16CF PUSH0 DUP4 ADD DUP6 PUSH2 0x12F9 JUMP JUMPDEST PUSH2 0x16DC PUSH1 0x20 DUP4 ADD DUP5 PUSH2 0x1663 JUMP JUMPDEST DUP2 DUP2 SUB PUSH1 0x40 DUP4 ADD MSTORE PUSH2 0x16ED DUP2 PUSH2 0x169A JUMP JUMPDEST SWAP1 POP SWAP4 SWAP3 POP POP POP JUMP JUMPDEST PUSH32 0x53686F756C642068617665203530303030303030303030303030303030303020 PUSH0 DUP3 ADD MSTORE PUSH32 0x696E207468652062616C616E6365000000000000000000000000000000000000 PUSH1 0x20 DUP3 ADD MSTORE POP JUMP JUMPDEST PUSH0 PUSH2 0x1750 PUSH1 0x2E DUP4 PUSH2 0xE9C JUMP JUMPDEST SWAP2 POP PUSH2 0x175B DUP3 PUSH2 0x16F6 JUMP JUMPDEST PUSH1 0x40 DUP3 ADD SWAP1 POP SWAP2 SWAP1 POP JUMP JUMPDEST PUSH0 PUSH1 0x60 DUP3 ADD SWAP1 POP PUSH2 0x1779 PUSH0 DUP4 ADD DUP6 PUSH2 0x12F9 JUMP JUMPDEST PUSH2 0x1786 PUSH1 0x20 DUP4 ADD DUP5 PUSH2 0x12F9 JUMP JUMPDEST DUP2 DUP2 SUB PUSH1 0x40 DUP4 ADD MSTORE PUSH2 0x1797 DUP2 PUSH2 0x1744 JUMP JUMPDEST SWAP1 POP SWAP4 SWAP3 POP POP POP JUMP JUMPDEST PUSH32 0x53686F756C64206861766520736F6D652066756E647320696E20746865207665 PUSH0 DUP3 ADD MSTORE PUSH32 0x6E64696E67206D616368696E65206265666F7265207075726368617365000000 PUSH1 0x20 DUP3 ADD MSTORE POP JUMP JUMPDEST PUSH0 PUSH2 0x17FA PUSH1 0x3D DUP4 PUSH2 0xE9C JUMP JUMPDEST SWAP2 POP PUSH2 0x1805 DUP3 PUSH2 0x17A0 JUMP JUMPDEST PUSH1 0x40 DUP3 ADD SWAP1 POP SWAP2 SWAP1 POP JUMP JUMPDEST PUSH0 PUSH1 0x60 DUP3 ADD SWAP1 POP PUSH2 0x1823 PUSH0 DUP4 ADD DUP6 PUSH2 0x12F9 JUMP JUMPDEST PUSH2 0x1830 PUSH1 0x20 DUP4 ADD DUP5 PUSH2 0x12F9 JUMP JUMPDEST DUP2 DUP2 SUB PUSH1 0x40 DUP4 ADD MSTORE PUSH2 0x1841 DUP2 PUSH2 0x17EE JUMP JUMPDEST SWAP1 POP SWAP4 SWAP3 POP POP POP JUMP JUMPDEST PUSH0 DUP3 DUP3 MSTORE PUSH1 0x20 DUP3 ADD SWAP1 POP SWAP3 SWAP2 POP POP JUMP JUMPDEST PUSH0 PUSH2 0x1864 DUP3 PUSH2 0x1418 JUMP JUMPDEST PUSH2 0x186E DUP2 DUP6 PUSH2 0x184A JUMP JUMPDEST SWAP4 POP PUSH2 0x187E DUP2 DUP6 PUSH1 0x20 DUP7 ADD PUSH2 0x1087 JUMP JUMPDEST PUSH2 0x1887 DUP2 PUSH2 0xF94 JUMP JUMPDEST DUP5 ADD SWAP2 POP POP SWAP3 SWAP2 POP POP JUMP JUMPDEST PUSH0 PUSH1 0x20 DUP3 ADD SWAP1 POP DUP2 DUP2 SUB PUSH0 DUP4 ADD MSTORE PUSH2 0x18AA DUP2 DUP5 PUSH2 0x185A JUMP JUMPDEST SWAP1 POP SWAP3 SWAP2 POP POP JUMP JUMPDEST PUSH32 0x42616C616E63652073686F756C64206465637265617365206166746572207075 PUSH0 DUP3 ADD MSTORE PUSH32 0x7263686173650000000000000000000000000000000000000000000000000000 PUSH1 0x20 DUP3 ADD MSTORE POP JUMP JUMPDEST PUSH0 PUSH2 0x190C PUSH1 0x26 DUP4 PUSH2 0xE9C JUMP JUMPDEST SWAP2 POP PUSH2 0x1917 DUP3 PUSH2 0x18B2 JUMP JUMPDEST PUSH1 0x40 DUP3 ADD SWAP1 POP SWAP2 SWAP1 POP JUMP JUMPDEST PUSH0 PUSH1 0x60 DUP3 ADD SWAP1 POP PUSH2 0x1935 PUSH0 DUP4 ADD DUP6 PUSH2 0x12F9 JUMP JUMPDEST PUSH2 0x1942 PUSH1 0x20 DUP4 ADD DUP5 PUSH2 0x12F9 JUMP JUMPDEST DUP2 DUP2 SUB PUSH1 0x40 DUP4 ADD MSTORE PUSH2 0x1953 DUP2 PUSH2 0x1900 JUMP JUMPDEST SWAP1 POP SWAP4 SWAP3 POP POP POP JUMP JUMPDEST PUSH2 0x1965 DUP2 PUSH2 0xE27 JUMP JUMPDEST DUP3 MSTORE POP POP JUMP JUMPDEST PUSH0 PUSH1 0x20 DUP3 ADD SWAP1 POP PUSH2 0x197E PUSH0 DUP4 ADD DUP5 PUSH2 0x195C JUMP JUMPDEST SWAP3 SWAP2 POP POP JUMP JUMPDEST PUSH0 PUSH8 0xFFFFFFFFFFFFFFFF DUP3 GT ISZERO PUSH2 0x199E JUMPI PUSH2 0x199D PUSH2 0xFA4 JUMP JUMPDEST JUMPDEST PUSH1 0x20 DUP3 MUL SWAP1 POP PUSH1 0x20 DUP2 ADD SWAP1 POP SWAP2 SWAP1 POP JUMP JUMPDEST PUSH0 PUSH1 0xC0 DUP3 DUP5 SUB SLT ISZERO PUSH2 0x19C4 JUMPI PUSH2 0x19C3 PUSH2 0x104B JUMP JUMPDEST JUMPDEST PUSH2 0x19CE PUSH1 0xC0 PUSH2 0x1002 JUMP JUMPDEST SWAP1 POP PUSH0 PUSH2 0x19DD DUP5 DUP3 DUP6 ADD PUSH2 0x1122 JUMP JUMPDEST PUSH0 DUP4 ADD MSTORE POP PUSH1 0x20 DUP3 ADD MLOAD PUSH8 0xFFFFFFFFFFFFFFFF DUP2 GT ISZERO PUSH2 0x1A00 JUMPI PUSH2 0x19FF PUSH2 0x104F JUMP JUMPDEST JUMPDEST PUSH2 0x1A0C DUP5 DUP3 DUP6 ADD PUSH2 0x10D6 JUMP JUMPDEST PUSH1 0x20 DUP4 ADD MSTORE POP PUSH1 0x40 DUP3 ADD MLOAD PUSH8 0xFFFFFFFFFFFFFFFF DUP2 GT ISZERO PUSH2 0x1A30 JUMPI PUSH2 0x1A2F PUSH2 0x104F JUMP JUMPDEST JUMPDEST PUSH2 0x1A3C DUP5 DUP3 DUP6 ADD PUSH2 0x10D6 JUMP JUMPDEST PUSH1 0x40 DUP4 ADD MSTORE POP PUSH1 0x60 PUSH2 0x1A50 DUP5 DUP3 DUP6 ADD PUSH2 0x1122 JUMP JUMPDEST PUSH1 0x60 DUP4 ADD MSTORE POP PUSH1 0x80 PUSH2 0x1A64 DUP5 DUP3 DUP6 ADD PUSH2 0x1122 JUMP JUMPDEST PUSH1 0x80 DUP4 ADD MSTORE POP PUSH1 0xA0 PUSH2 0x1A78 DUP5 DUP3 DUP6 ADD PUSH2 0xF51 JUMP JUMPDEST PUSH1 0xA0 DUP4 ADD MSTORE POP SWAP3 SWAP2 POP POP JUMP JUMPDEST PUSH0 PUSH2 0x1A96 PUSH2 0x1A91 DUP5 PUSH2 0x1984 JUMP JUMPDEST PUSH2 0x1002 JUMP JUMPDEST SWAP1 POP DUP1 DUP4 DUP3 MSTORE PUSH1 0x20 DUP3 ADD SWAP1 POP PUSH1 0x20 DUP5 MUL DUP4 ADD DUP6 DUP2 GT ISZERO PUSH2 0x1AB9 JUMPI PUSH2 0x1AB8 PUSH2 0x1047 JUMP JUMPDEST JUMPDEST DUP4 JUMPDEST DUP2 DUP2 LT ISZERO PUSH2 0x1B00 JUMPI DUP1 MLOAD PUSH8 0xFFFFFFFFFFFFFFFF DUP2 GT ISZERO PUSH2 0x1ADE JUMPI PUSH2 0x1ADD PUSH2 0xF90 JUMP JUMPDEST JUMPDEST DUP1 DUP7 ADD PUSH2 0x1AEB DUP10 DUP3 PUSH2 0x19AF JUMP JUMPDEST DUP6 MSTORE PUSH1 0x20 DUP6 ADD SWAP5 POP POP POP PUSH1 0x20 DUP2 ADD SWAP1 POP PUSH2 0x1ABB JUMP JUMPDEST POP POP POP SWAP4 SWAP3 POP POP POP JUMP JUMPDEST PUSH0 DUP3 PUSH1 0x1F DUP4 ADD SLT PUSH2 0x1B1E JUMPI PUSH2 0x1B1D PUSH2 0xF90 JUMP JUMPDEST JUMPDEST DUP2 MLOAD PUSH2 0x1B2E DUP5 DUP3 PUSH1 0x20 DUP7 ADD PUSH2 0x1A84 JUMP JUMPDEST SWAP2 POP POP SWAP3 SWAP2 POP POP JUMP JUMPDEST PUSH0 PUSH1 0x20 DUP3 DUP5 SUB SLT ISZERO PUSH2 0x1B4C JUMPI PUSH2 0x1B4B PUSH2 0xE1F JUMP JUMPDEST JUMPDEST PUSH0 DUP3 ADD MLOAD PUSH8 0xFFFFFFFFFFFFFFFF DUP2 GT ISZERO PUSH2 0x1B69 JUMPI PUSH2 0x1B68 PUSH2 0xE23 JUMP JUMPDEST JUMPDEST PUSH2 0x1B75 DUP5 DUP3 DUP6 ADD PUSH2 0x1B0A JUMP JUMPDEST SWAP2 POP POP SWAP3 SWAP2 POP POP JUMP JUMPDEST PUSH0 DUP2 SWAP1 POP SWAP2 SWAP1 POP JUMP JUMPDEST PUSH0 PUSH2 0x1BA1 PUSH2 0x1B9C PUSH2 0x1B97 DUP5 PUSH2 0x1B7E JUMP JUMPDEST PUSH2 0xDA2 JUMP JUMPDEST PUSH2 0x1103 JUMP JUMPDEST SWAP1 POP SWAP2 SWAP1 POP JUMP JUMPDEST PUSH2 0x1BB1 DUP2 PUSH2 0x1B87 JUMP JUMPDEST DUP3 MSTORE POP POP JUMP JUMPDEST PUSH32 0x546865206163636F756E742073686F756C642068617665206F6E652070757263 PUSH0 DUP3 ADD MSTORE PUSH32 0x6861736500000000000000000000000000000000000000000000000000000000 PUSH1 0x20 DUP3 ADD MSTORE POP JUMP JUMPDEST PUSH0 PUSH2 0x1C11 PUSH1 0x24 DUP4 PUSH2 0xE9C JUMP JUMPDEST SWAP2 POP PUSH2 0x1C1C DUP3 PUSH2 0x1BB7 JUMP JUMPDEST PUSH1 0x40 DUP3 ADD SWAP1 POP SWAP2 SWAP1 POP JUMP JUMPDEST PUSH0 PUSH1 0x60 DUP3 ADD SWAP1 POP PUSH2 0x1C3A PUSH0 DUP4 ADD DUP6 PUSH2 0x12F9 JUMP JUMPDEST PUSH2 0x1C47 PUSH1 0x20 DUP4 ADD DUP5 PUSH2 0x1BA8 JUMP JUMPDEST DUP2 DUP2 SUB PUSH1 0x40 DUP4 ADD MSTORE PUSH2 0x1C58 DUP2 PUSH2 0x1C05 JUMP JUMPDEST SWAP1 POP SWAP4 SWAP3 POP POP POP JUMP JUMPDEST PUSH32 0x5075726368617365642070726F64756374206E616D652073686F756C64206265 PUSH0 DUP3 ADD MSTORE PUSH32 0x2041310000000000000000000000000000000000000000000000000000000000 PUSH1 0x20 DUP3 ADD MSTORE POP JUMP JUMPDEST PUSH0 PUSH2 0x1CBB PUSH1 0x23 DUP4 PUSH2 0xE9C JUMP JUMPDEST SWAP2 POP PUSH2 0x1CC6 DUP3 PUSH2 0x1C61 JUMP JUMPDEST PUSH1 0x40 DUP3 ADD SWAP1 POP SWAP2 SWAP1 POP JUMP JUMPDEST PUSH0 PUSH1 0x60 DUP3 ADD SWAP1 POP DUP2 DUP2 SUB PUSH0 DUP4 ADD MSTORE PUSH2 0x1CE9 DUP2 DUP5 PUSH2 0x1422 JUMP JUMPDEST SWAP1 POP DUP2 DUP2 SUB PUSH1 0x20 DUP4 ADD MSTORE PUSH2 0x1CFC DUP2 PUSH2 0x1482 JUMP JUMPDEST SWAP1 POP DUP2 DUP2 SUB PUSH1 0x40 DUP4 ADD MSTORE PUSH2 0x1D0F DUP2 PUSH2 0x1CAF JUMP JUMPDEST SWAP1 POP SWAP3 SWAP2 POP POP JUMP JUMPDEST PUSH32 0x5075726368617365642070726F64756374206E616D652073686F756C64206265 PUSH0 DUP3 ADD MSTORE PUSH32 0x204C617973000000000000000000000000000000000000000000000000000000 PUSH1 0x20 DUP3 ADD MSTORE POP JUMP JUMPDEST PUSH0 PUSH2 0x1D71 PUSH1 0x25 DUP4 PUSH2 0xE9C JUMP JUMPDEST SWAP2 POP PUSH2 0x1D7C DUP3 PUSH2 0x1D17 JUMP JUMPDEST PUSH1 0x40 DUP3 ADD SWAP1 POP SWAP2 SWAP1 POP JUMP JUMPDEST PUSH0 PUSH1 0x60 DUP3 ADD SWAP1 POP DUP2 DUP2 SUB PUSH0 DUP4 ADD MSTORE PUSH2 0x1D9F DUP2 DUP5 PUSH2 0x1422 JUMP JUMPDEST SWAP1 POP DUP2 DUP2 SUB PUSH1 0x20 DUP4 ADD MSTORE PUSH2 0x1DB2 DUP2 PUSH2 0x155C JUMP JUMPDEST SWAP1 POP DUP2 DUP2 SUB PUSH1 0x40 DUP4 ADD MSTORE PUSH2 0x1DC5 DUP2 PUSH2 0x1D65 JUMP JUMPDEST SWAP1 POP SWAP3 SWAP2 POP POP JUMP INVALID PUSH1 0x80 PUSH1 0x40 MSTORE CALLVALUE DUP1 ISZERO PUSH2 0xF JUMPI PUSH0 DUP1 REVERT JUMPDEST POP CALLER PUSH0 DUP1 PUSH2 0x100 EXP DUP2 SLOAD DUP2 PUSH20 0xFFFFFFFFFFFFFFFFFFFFFFFFFFFFFFFFFFFFFFFF MUL NOT AND SWAP1 DUP4 PUSH20 0xFFFFFFFFFFFFFFFFFFFFFFFFFFFFFFFFFFFFFFFF AND MUL OR SWAP1 SSTORE POP PUSH2 0x5D PUSH2 0x62 PUSH1 0x20 SHL PUSH1 0x20 SHR JUMP JUMPDEST PUSH2 0x1EE4 JUMP JUMPDEST PUSH1 0x1 PUSH1 0x40 MLOAD DUP1 PUSH1 0x80 ADD PUSH1 0x40 MSTORE DUP1 PUSH1 0x40 MLOAD DUP1 PUSH1 0x40 ADD PUSH1 0x40 MSTORE DUP1 PUSH1 0x2 DUP2 MSTORE PUSH1 0x20 ADD PUSH32 0x4131000000000000000000000000000000000000000000000000000000000000 DUP2 MSTORE POP DUP2 MSTORE PUSH1 0x20 ADD PUSH4 0x5F5E100 PUSH1 0xF PUSH2 0xBB SWAP2 SWAP1 PUSH2 0x1B38 JUMP JUMPDEST DUP2 MSTORE PUSH1 0x20 ADD PUSH1 0x40 MLOAD DUP1 PUSH1 0x40 ADD PUSH1 0x40 MSTORE DUP1 PUSH1 0x4 DUP2 MSTORE PUSH1 0x20 ADD PUSH32 0x4C61797300000000000000000000000000000000000000000000000000000000 DUP2 MSTORE POP DUP2 MSTORE PUSH1 0x20 ADD PUSH2 0x13F PUSH1 0x40 MLOAD DUP1 PUSH1 0x40 ADD PUSH1 0x40 MSTORE DUP1 PUSH1 0x8 DUP2 MSTORE PUSH1 0x20 ADD PUSH32 0x6C6179732E706E67000000000000000000000000000000000000000000000000 DUP2 MSTORE POP PUSH2 0x1ABF PUSH1 0x20 SHL PUSH1 0x20 SHR JUMP JUMPDEST DUP2 MSTORE POP SWAP1 DUP1 PUSH1 0x1 DUP2 SLOAD ADD DUP1 DUP3 SSTORE DUP1 SWAP2 POP POP PUSH1 0x1 SWAP1 SUB SWAP1 PUSH0 MSTORE PUSH1 0x20 PUSH0 KECCAK256 SWAP1 PUSH1 0x4 MUL ADD PUSH0 SWAP1 SWAP2 SWAP1 SWAP2 SWAP1 SWAP2 POP PUSH0 DUP3 ADD MLOAD DUP2 PUSH0 ADD SWAP1 DUP2 PUSH2 0x17B SWAP2 SWAP1 PUSH2 0x1DAA JUMP JUMPDEST POP PUSH1 0x20 DUP3 ADD MLOAD DUP2 PUSH1 0x1 ADD SSTORE PUSH1 0x40 DUP3 ADD MLOAD DUP2 PUSH1 0x2 ADD SWAP1 DUP2 PUSH2 0x19B SWAP2 SWAP1 PUSH2 0x1DAA JUMP JUMPDEST POP PUSH1 0x60 DUP3 ADD MLOAD DUP2 PUSH1 0x3 ADD SWAP1 DUP2 PUSH2 0x1B1 SWAP2 SWAP1 PUSH2 0x1DAA JUMP JUMPDEST POP POP POP PUSH1 0x1 PUSH1 0x40 MLOAD DUP1 PUSH1 0x80 ADD PUSH1 0x40 MSTORE DUP1 PUSH1 0x40 MLOAD DUP1 PUSH1 0x40 ADD PUSH1 0x40 MSTORE DUP1 PUSH1 0x2 DUP2 MSTORE PUSH1 0x20 ADD PUSH32 0x4132000000000000000000000000000000000000000000000000000000000000 DUP2 MSTORE POP DUP2 MSTORE PUSH1 0x20 ADD PUSH3 0x989680 PUSH1 0xAF PUSH2 0x20C SWAP2 SWAP1 PUSH2 0x1B38 JUMP JUMPDEST DUP2 MSTORE PUSH1 0x20 ADD PUSH1 0x40 MLOAD DUP1 PUSH1 0x40 ADD PUSH1 0x40 MSTORE DUP1 PUSH1 0x9 DUP2 MSTORE PUSH1 0x20 ADD PUSH32 0x436F636120436F6C610000000000000000000000000000000000000000000000 DUP2 MSTORE POP DUP2 MSTORE PUSH1 0x20 ADD PUSH2 0x290 PUSH1 0x40 MLOAD DUP1 PUSH1 0x40 ADD PUSH1 0x40 MSTORE DUP1 PUSH1 0xD DUP2 MSTORE PUSH1 0x20 ADD PUSH32 0x636F63612D636F6C612E706E6700000000000000000000000000000000000000 DUP2 MSTORE POP PUSH2 0x1ABF PUSH1 0x20 SHL PUSH1 0x20 SHR JUMP JUMPDEST DUP2 MSTORE POP SWAP1 DUP1 PUSH1 0x1 DUP2 SLOAD ADD DUP1 DUP3 SSTORE DUP1 SWAP2 POP POP PUSH1 0x1 SWAP1 SUB SWAP1 PUSH0 MSTORE PUSH1 0x20 PUSH0 KECCAK256 SWAP1 PUSH1 0x4 MUL ADD PUSH0 SWAP1 SWAP2 SWAP1 SWAP2 SWAP1 SWAP2 POP PUSH0 DUP3 ADD MLOAD DUP2 PUSH0 ADD SWAP1 DUP2 PUSH2 0x2CC SWAP2 SWAP1 PUSH2 0x1DAA JUMP JUMPDEST POP PUSH1 0x20 DUP3 ADD MLOAD DUP2 PUSH1 0x1 ADD SSTORE PUSH1 0x40 DUP3 ADD MLOAD DUP2 PUSH1 0x2 ADD SWAP1 DUP2 PUSH2 0x2EC SWAP2 SWAP1 PUSH2 0x1DAA JUMP JUMPDEST POP PUSH1 0x60 DUP3 ADD MLOAD DUP2 PUSH1 0x3 ADD SWAP1 DUP2 PUSH2 0x302 SWAP2 SWAP1 PUSH2 0x1DAA JUMP JUMPDEST POP POP POP PUSH1 0x1 PUSH1 0x40 MLOAD DUP1 PUSH1 0x80 ADD PUSH1 0x40 MSTORE DUP1 PUSH1 0x40 MLOAD DUP1 PUSH1 0x40 ADD PUSH1 0x40 MSTORE DUP1 PUSH1 0x2 DUP2 MSTORE PUSH1 0x20 ADD PUSH32 0x4133000000000000000000000000000000000000000000000000000000000000 DUP2 MSTORE POP DUP2 MSTORE PUSH1 0x20 ADD PUSH4 0x5F5E100 PUSH1 0xF PUSH2 0x35E SWAP2 SWAP1 PUSH2 0x1B38 JUMP JUMPDEST DUP2 MSTORE PUSH1 0x20 ADD PUSH1 0x40 MLOAD DUP1 PUSH1 0x40 ADD PUSH1 0x40 MSTORE DUP1 PUSH1 0x8 DUP2 MSTORE PUSH1 0x20 ADD PUSH32 0x5072696E676C6573000000000000000000000000000000000000000000000000 DUP2 MSTORE POP DUP2 MSTORE PUSH1 0x20 ADD PUSH2 0x3E2 PUSH1 0x40 MLOAD DUP1 PUSH1 0x40 ADD PUSH1 0x40 MSTORE DUP1 PUSH1 0xC DUP2 MSTORE PUSH1 0x20 ADD PUSH32 0x7072696E676C65732E706E670000000000000000000000000000000000000000 DUP2 MSTORE POP PUSH2 0x1ABF PUSH1 0x20 SHL PUSH1 0x20 SHR JUMP JUMPDEST DUP2 MSTORE POP SWAP1 DUP1 PUSH1 0x1 DUP2 SLOAD ADD DUP1 DUP3 SSTORE DUP1 SWAP2 POP POP PUSH1 0x1 SWAP1 SUB SWAP1 PUSH0 MSTORE PUSH1 0x20 PUSH0 KECCAK256 SWAP1 PUSH1 0x4 MUL ADD PUSH0 SWAP1 SWAP2 SWAP1 SWAP2 SWAP1 SWAP2 POP PUSH0 DUP3 ADD MLOAD DUP2 PUSH0 ADD SWAP1 DUP2 PUSH2 0x41E SWAP2 SWAP1 PUSH2 0x1DAA JUMP JUMPDEST POP PUSH1 0x20 DUP3 ADD MLOAD DUP2 PUSH1 0x1 ADD SSTORE PUSH1 0x40 DUP3 ADD MLOAD DUP2 PUSH1 0x2 ADD SWAP1 DUP2 PUSH2 0x43E SWAP2 SWAP1 PUSH2 0x1DAA JUMP JUMPDEST POP PUSH1 0x60 DUP3 ADD MLOAD DUP2 PUSH1 0x3 ADD SWAP1 DUP2 PUSH2 0x454 SWAP2 SWAP1 PUSH2 0x1DAA JUMP JUMPDEST POP POP POP PUSH1 0x1 PUSH1 0x40 MLOAD DUP1 PUSH1 0x80 ADD PUSH1 0x40 MSTORE DUP1 PUSH1 0x40 MLOAD DUP1 PUSH1 0x40 ADD PUSH1 0x40 MSTORE DUP1 PUSH1 0x2 DUP2 MSTORE PUSH1 0x20 ADD PUSH32 0x4134000000000000000000000000000000000000000000000000000000000000 DUP2 MSTORE POP DUP2 MSTORE PUSH1 0x20 ADD PUSH3 0x989680 PUSH1 0xAF PUSH2 0x4AF SWAP2 SWAP1 PUSH2 0x1B38 JUMP JUMPDEST DUP2 MSTORE PUSH1 0x20 ADD PUSH1 0x40 MLOAD DUP1 PUSH1 0x40 ADD PUSH1 0x40 MSTORE DUP1 PUSH1 0x5 DUP2 MSTORE PUSH1 0x20 ADD PUSH32 0x5761746572000000000000000000000000000000000000000000000000000000 DUP2 MSTORE POP DUP2 MSTORE PUSH1 0x20 ADD PUSH2 0x533 PUSH1 0x40 MLOAD DUP1 PUSH1 0x40 ADD PUSH1 0x40 MSTORE DUP1 PUSH1 0x9 DUP2 MSTORE PUSH1 0x20 ADD PUSH32 0x77617465722E706E670000000000000000000000000000000000000000000000 DUP2 MSTORE POP PUSH2 0x1ABF PUSH1 0x20 SHL PUSH1 0x20 SHR JUMP JUMPDEST DUP2 MSTORE POP SWAP1 DUP1 PUSH1 0x1 DUP2 SLOAD ADD DUP1 DUP3 SSTORE DUP1 SWAP2 POP POP PUSH1 0x1 SWAP1 SUB SWAP1 PUSH0 MSTORE PUSH1 0x20 PUSH0 KECCAK256 SWAP1 PUSH1 0x4 MUL ADD PUSH0 SWAP1 SWAP2 SWAP1 SWAP2 SWAP1 SWAP2 POP PUSH0 DUP3 ADD MLOAD DUP2 PUSH0 ADD SWAP1 DUP2 PUSH2 0x56F SWAP2 SWAP1 PUSH2 0x1DAA JUMP JUMPDEST POP PUSH1 0x20 DUP3 ADD MLOAD DUP2 PUSH1 0x1 ADD SSTORE PUSH1 0x40 DUP3 ADD MLOAD DUP2 PUSH1 0x2 ADD SWAP1 DUP2 PUSH2 0x58F SWAP2 SWAP1 PUSH2 0x1DAA JUMP JUMPDEST POP PUSH1 0x60 DUP3 ADD MLOAD DUP2 PUSH1 0x3 ADD SWAP1 DUP2 PUSH2 0x5A5 SWAP2 SWAP1 PUSH2 0x1DAA JUMP JUMPDEST POP POP POP PUSH1 0x1 PUSH1 0x40 MLOAD DUP1 PUSH1 0x80 ADD PUSH1 0x40 MSTORE DUP1 PUSH1 0x40 MLOAD DUP1 PUSH1 0x40 ADD PUSH1 0x40 MSTORE DUP1 PUSH1 0x2 DUP2 MSTORE PUSH1 0x20 ADD PUSH32 0x4135000000000000000000000000000000000000000000000000000000000000 DUP2 MSTORE POP DUP2 MSTORE PUSH1 0x20 ADD PUSH4 0x5F5E100 PUSH1 0xF PUSH2 0x601 SWAP2 SWAP1 PUSH2 0x1B38 JUMP JUMPDEST DUP2 MSTORE PUSH1 0x20 ADD PUSH1 0x40 MLOAD DUP1 PUSH1 0x40 ADD PUSH1 0x40 MSTORE DUP1 PUSH1 0xC DUP2 MSTORE PUSH1 0x20 ADD PUSH32 0x456E65726779204472696E6B0000000000000000000000000000000000000000 DUP2 MSTORE POP DUP2 MSTORE PUSH1 0x20 ADD PUSH2 0x685 PUSH1 0x40 MLOAD DUP1 PUSH1 0x40 ADD PUSH1 0x40 MSTORE DUP1 PUSH1 0xC DUP2 MSTORE PUSH1 0x20 ADD PUSH32 0x7265642D62756C6C2E706E670000000000000000000000000000000000000000 DUP2 MSTORE POP PUSH2 0x1ABF PUSH1 0x20 SHL PUSH1 0x20 SHR JUMP JUMPDEST DUP2 MSTORE POP SWAP1 DUP1 PUSH1 0x1 DUP2 SLOAD ADD DUP1 DUP3 SSTORE DUP1 SWAP2 POP POP PUSH1 0x1 SWAP1 SUB SWAP1 PUSH0 MSTORE PUSH1 0x20 PUSH0 KECCAK256 SWAP1 PUSH1 0x4 MUL ADD PUSH0 SWAP1 SWAP2 SWAP1 SWAP2 SWAP1 SWAP2 POP PUSH0 DUP3 ADD MLOAD DUP2 PUSH0 ADD SWAP1 DUP2 PUSH2 0x6C1 SWAP2 SWAP1 PUSH2 0x1DAA JUMP JUMPDEST POP PUSH1 0x20 DUP3 ADD MLOAD DUP2 PUSH1 0x1 ADD SSTORE PUSH1 0x40 DUP3 ADD MLOAD DUP2 PUSH1 0x2 ADD SWAP1 DUP2 PUSH2 0x6E1 SWAP2 SWAP1 PUSH2 0x1DAA JUMP JUMPDEST POP PUSH1 0x60 DUP3 ADD MLOAD DUP2 PUSH1 0x3 ADD SWAP1 DUP2 PUSH2 0x6F7 SWAP2 SWAP1 PUSH2 0x1DAA JUMP JUMPDEST POP POP POP PUSH1 0x1 PUSH1 0x40 MLOAD DUP1 PUSH1 0x80 ADD PUSH1 0x40 MSTORE DUP1 PUSH1 0x40 MLOAD DUP1 PUSH1 0x40 ADD PUSH1 0x40 MSTORE DUP1 PUSH1 0x2 DUP2 MSTORE PUSH1 0x20 ADD PUSH32 0x4231000000000000000000000000000000000000000000000000000000000000 DUP2 MSTORE POP DUP2 MSTORE PUSH1 0x20 ADD PUSH4 0x5F5E100 PUSH1 0x14 PUSH2 0x753 SWAP2 SWAP1 PUSH2 0x1B38 JUMP JUMPDEST DUP2 MSTORE PUSH1 0x20 ADD PUSH1 0x40 MLOAD DUP1 PUSH1 0x40 ADD PUSH1 0x40 MSTORE DUP1 PUSH1 0x8 DUP2 MSTORE PUSH1 0x20 ADD PUSH32 0x53616E6477696368000000000000000000000000000000000000000000000000 DUP2 MSTORE POP DUP2 MSTORE PUSH1 0x20 ADD PUSH2 0x7D7 PUSH1 0x40 MLOAD DUP1 PUSH1 0x40 ADD PUSH1 0x40 MSTORE DUP1 PUSH1 0xC DUP2 MSTORE PUSH1 0x20 ADD PUSH32 0x73616E64776963682E706E670000000000000000000000000000000000000000 DUP2 MSTORE POP PUSH2 0x1ABF PUSH1 0x20 SHL PUSH1 0x20 SHR JUMP JUMPDEST DUP2 MSTORE POP SWAP1 DUP1 PUSH1 0x1 DUP2 SLOAD ADD DUP1 DUP3 SSTORE DUP1 SWAP2 POP POP PUSH1 0x1 SWAP1 SUB SWAP1 PUSH0 MSTORE PUSH1 0x20 PUSH0 KECCAK256 SWAP1 PUSH1 0x4 MUL ADD PUSH0 SWAP1 SWAP2 SWAP1 SWAP2 SWAP1 SWAP2 POP PUSH0 DUP3 ADD MLOAD DUP2 PUSH0 ADD SWAP1 DUP2 PUSH2 0x813 SWAP2 SWAP1 PUSH2 0x1DAA JUMP JUMPDEST POP PUSH1 0x20 DUP3 ADD MLOAD DUP2 PUSH1 0x1 ADD SSTORE PUSH1 0x40 DUP3 ADD MLOAD DUP2 PUSH1 0x2 ADD SWAP1 DUP2 PUSH2 0x833 SWAP2 SWAP1 PUSH2 0x1DAA JUMP JUMPDEST POP PUSH1 0x60 DUP3 ADD MLOAD DUP2 PUSH1 0x3 ADD SWAP1 DUP2 PUSH2 0x849 SWAP2 SWAP1 PUSH2 0x1DAA JUMP JUMPDEST POP POP POP PUSH1 0x1 PUSH1 0x40 MLOAD DUP1 PUSH1 0x80 ADD PUSH1 0x40 MSTORE DUP1 PUSH1 0x40 MLOAD DUP1 PUSH1 0x40 ADD PUSH1 0x40 MSTORE DUP1 PUSH1 0x2 DUP2 MSTORE PUSH1 0x20 ADD PUSH32 0x4232000000000000000000000000000000000000000000000000000000000000 DUP2 MSTORE POP DUP2 MSTORE PUSH1 0x20 ADD PUSH3 0x989680 PUSH1 0xAF PUSH2 0x8A4 SWAP2 SWAP1 PUSH2 0x1B38 JUMP JUMPDEST DUP2 MSTORE PUSH1 0x20 ADD PUSH1 0x40 MLOAD DUP1 PUSH1 0x40 ADD PUSH1 0x40 MSTORE DUP1 PUSH1 0x4 DUP2 MSTORE PUSH1 0x20 ADD PUSH32 0x4F72656F00000000000000000000000000000000000000000000000000000000 DUP2 MSTORE POP DUP2 MSTORE PUSH1 0x20 ADD PUSH2 0x928 PUSH1 0x40 MLOAD DUP1 PUSH1 0x40 ADD PUSH1 0x40 MSTORE DUP1 PUSH1 0x8 DUP2 MSTORE PUSH1 0x20 ADD PUSH32 0x6F72656F2E706E67000000000000000000000000000000000000000000000000 DUP2 MSTORE POP PUSH2 0x1ABF PUSH1 0x20 SHL PUSH1 0x20 SHR JUMP JUMPDEST DUP2 MSTORE POP SWAP1 DUP1 PUSH1 0x1 DUP2 SLOAD ADD DUP1 DUP3 SSTORE DUP1 SWAP2 POP POP PUSH1 0x1 SWAP1 SUB SWAP1 PUSH0 MSTORE PUSH1 0x20 PUSH0 KECCAK256 SWAP1 PUSH1 0x4 MUL ADD PUSH0 SWAP1 SWAP2 SWAP1 SWAP2 SWAP1 SWAP2 POP PUSH0 DUP3 ADD MLOAD DUP2 PUSH0 ADD SWAP1 DUP2 PUSH2 0x964 SWAP2 SWAP1 PUSH2 0x1DAA JUMP JUMPDEST POP PUSH1 0x20 DUP3 ADD MLOAD DUP2 PUSH1 0x1 ADD SSTORE PUSH1 0x40 DUP3 ADD MLOAD DUP2 PUSH1 0x2 ADD SWAP1 DUP2 PUSH2 0x984 SWAP2 SWAP1 PUSH2 0x1DAA JUMP JUMPDEST POP PUSH1 0x60 DUP3 ADD MLOAD DUP2 PUSH1 0x3 ADD SWAP1 DUP2 PUSH2 0x99A SWAP2 SWAP1 PUSH2 0x1DAA JUMP JUMPDEST POP POP POP PUSH1 0x1 PUSH1 0x40 MLOAD DUP1 PUSH1 0x80 ADD PUSH1 0x40 MSTORE DUP1 PUSH1 0x40 MLOAD DUP1 PUSH1 0x40 ADD PUSH1 0x40 MSTORE DUP1 PUSH1 0x2 DUP2 MSTORE PUSH1 0x20 ADD PUSH32 0x4233000000000000000000000000000000000000000000000000000000000000 DUP2 MSTORE POP DUP2 MSTORE PUSH1 0x20 ADD PUSH4 0x5F5E100 PUSH1 0xF PUSH2 0x9F6 SWAP2 SWAP1 PUSH2 0x1B38 JUMP JUMPDEST DUP2 MSTORE PUSH1 0x20 ADD PUSH1 0x40 MLOAD DUP1 PUSH1 0x40 ADD PUSH1 0x40 MSTORE DUP1 PUSH1 0x6 DUP2 MSTORE PUSH1 0x20 ADD PUSH32 0x5370726974650000000000000000000000000000000000000000000000000000 DUP2 MSTORE POP DUP2 MSTORE PUSH1 0x20 ADD PUSH2 0xA7A PUSH1 0x40 MLOAD DUP1 PUSH1 0x40 ADD PUSH1 0x40 MSTORE DUP1 PUSH1 0xA DUP2 MSTORE PUSH1 0x20 ADD PUSH32 0x7370726974652E706E6700000000000000000000000000000000000000000000 DUP2 MSTORE POP PUSH2 0x1ABF PUSH1 0x20 SHL PUSH1 0x20 SHR JUMP JUMPDEST DUP2 MSTORE POP SWAP1 DUP1 PUSH1 0x1 DUP2 SLOAD ADD DUP1 DUP3 SSTORE DUP1 SWAP2 POP POP PUSH1 0x1 SWAP1 SUB SWAP1 PUSH0 MSTORE PUSH1 0x20 PUSH0 KECCAK256 SWAP1 PUSH1 0x4 MUL ADD PUSH0 SWAP1 SWAP2 SWAP1 SWAP2 SWAP1 SWAP2 POP PUSH0 DUP3 ADD MLOAD DUP2 PUSH0 ADD SWAP1 DUP2 PUSH2 0xAB6 SWAP2 SWAP1 PUSH2 0x1DAA JUMP JUMPDEST POP PUSH1 0x20 DUP3 ADD MLOAD DUP2 PUSH1 0x1 ADD SSTORE PUSH1 0x40 DUP3 ADD MLOAD DUP2 PUSH1 0x2 ADD SWAP1 DUP2 PUSH2 0xAD6 SWAP2 SWAP1 PUSH2 0x1DAA JUMP JUMPDEST POP PUSH1 0x60 DUP3 ADD MLOAD DUP2 PUSH1 0x3 ADD SWAP1 DUP2 PUSH2 0xAEC SWAP2 SWAP1 PUSH2 0x1DAA JUMP JUMPDEST POP POP POP PUSH1 0x1 PUSH1 0x40 MLOAD DUP1 PUSH1 0x80 ADD PUSH1 0x40 MSTORE DUP1 PUSH1 0x40 MLOAD DUP1 PUSH1 0x40 ADD PUSH1 0x40 MSTORE DUP1 PUSH1 0x2 DUP2 MSTORE PUSH1 0x20 ADD PUSH32 0x4234000000000000000000000000000000000000000000000000000000000000 DUP2 MSTORE POP DUP2 MSTORE PUSH1 0x20 ADD PUSH3 0x989680 PUSH1 0xAF PUSH2 0xB47 SWAP2 SWAP1 PUSH2 0x1B38 JUMP JUMPDEST DUP2 MSTORE PUSH1 0x20 ADD PUSH1 0x40 MLOAD DUP1 PUSH1 0x40 ADD PUSH1 0x40 MSTORE DUP1 PUSH1 0xB DUP2 MSTORE PUSH1 0x20 ADD PUSH32 0x4772616E6F6C6120426172000000000000000000000000000000000000000000 DUP2 MSTORE POP DUP2 MSTORE PUSH1 0x20 ADD PUSH2 0xBCB PUSH1 0x40 MLOAD DUP1 PUSH1 0x40 ADD PUSH1 0x40 MSTORE DUP1 PUSH1 0xF DUP2 MSTORE PUSH1 0x20 ADD PUSH32 0x6772616E6F6C612D6261722E706E670000000000000000000000000000000000 DUP2 MSTORE POP PUSH2 0x1ABF PUSH1 0x20 SHL PUSH1 0x20 SHR JUMP JUMPDEST DUP2 MSTORE POP SWAP1 DUP1 PUSH1 0x1 DUP2 SLOAD ADD DUP1 DUP3 SSTORE DUP1 SWAP2 POP POP PUSH1 0x1 SWAP1 SUB SWAP1 PUSH0 MSTORE PUSH1 0x20 PUSH0 KECCAK256 SWAP1 PUSH1 0x4 MUL ADD PUSH0 SWAP1 SWAP2 SWAP1 SWAP2 SWAP1 SWAP2 POP PUSH0 DUP3 ADD MLOAD DUP2 PUSH0 ADD SWAP1 DUP2 PUSH2 0xC07 SWAP2 SWAP1 PUSH2 0x1DAA JUMP JUMPDEST POP PUSH1 0x20 DUP3 ADD MLOAD DUP2 PUSH1 0x1 ADD SSTORE PUSH1 0x40 DUP3 ADD MLOAD DUP2 PUSH1 0x2 ADD SWAP1 DUP2 PUSH2 0xC27 SWAP2 SWAP1 PUSH2 0x1DAA JUMP JUMPDEST POP PUSH1 0x60 DUP3 ADD MLOAD DUP2 PUSH1 0x3 ADD SWAP1 DUP2 PUSH2 0xC3D SWAP2 SWAP1 PUSH2 0x1DAA JUMP JUMPDEST POP POP POP PUSH1 0x1 PUSH1 0x40 MLOAD DUP1 PUSH1 0x80 ADD PUSH1 0x40 MSTORE DUP1 PUSH1 0x40 MLOAD DUP1 PUSH1 0x40 ADD PUSH1 0x40 MSTORE DUP1 PUSH1 0x2 DUP2 MSTORE PUSH1 0x20 ADD PUSH32 0x4235000000000000000000000000000000000000000000000000000000000000 DUP2 MSTORE POP DUP2 MSTORE PUSH1 0x20 ADD PUSH3 0x989680 PUSH1 0xAF PUSH2 0xC98 SWAP2 SWAP1 PUSH2 0x1B38 JUMP JUMPDEST DUP2 MSTORE PUSH1 0x20 ADD PUSH1 0x40 MLOAD DUP1 PUSH1 0x40 ADD PUSH1 0x40 MSTORE DUP1 PUSH1 0x7 DUP2 MSTORE PUSH1 0x20 ADD PUSH32 0x446F7269746F7300000000000000000000000000000000000000000000000000 DUP2 MSTORE POP DUP2 MSTORE PUSH1 0x20 ADD PUSH2 0xD1C PUSH1 0x40 MLOAD DUP1 PUSH1 0x40 ADD PUSH1 0x40 MSTORE DUP1 PUSH1 0xB DUP2 MSTORE PUSH1 0x20 ADD PUSH32 0x646F7269746F732E706E67000000000000000000000000000000000000000000 DUP2 MSTORE POP PUSH2 0x1ABF PUSH1 0x20 SHL PUSH1 0x20 SHR JUMP JUMPDEST DUP2 MSTORE POP SWAP1 DUP1 PUSH1 0x1 DUP2 SLOAD ADD DUP1 DUP3 SSTORE DUP1 SWAP2 POP POP PUSH1 0x1 SWAP1 SUB SWAP1 PUSH0 MSTORE PUSH1 0x20 PUSH0 KECCAK256 SWAP1 PUSH1 0x4 MUL ADD PUSH0 SWAP1 SWAP2 SWAP1 SWAP2 SWAP1 SWAP2 POP PUSH0 DUP3 ADD MLOAD DUP2 PUSH0 ADD SWAP1 DUP2 PUSH2 0xD58 SWAP2 SWAP1 PUSH2 0x1DAA JUMP JUMPDEST POP PUSH1 0x20 DUP3 ADD MLOAD DUP2 PUSH1 0x1 ADD SSTORE PUSH1 0x40 DUP3 ADD MLOAD DUP2 PUSH1 0x2 ADD SWAP1 DUP2 PUSH2 0xD78 SWAP2 SWAP1 PUSH2 0x1DAA JUMP JUMPDEST POP PUSH1 0x60 DUP3 ADD MLOAD DUP2 PUSH1 0x3 ADD SWAP1 DUP2 PUSH2 0xD8E SWAP2 SWAP1 PUSH2 0x1DAA JUMP JUMPDEST POP POP POP PUSH1 0x1 PUSH1 0x40 MLOAD DUP1 PUSH1 0x80 ADD PUSH1 0x40 MSTORE DUP1 PUSH1 0x40 MLOAD DUP1 PUSH1 0x40 ADD PUSH1 0x40 MSTORE DUP1 PUSH1 0x2 DUP2 MSTORE PUSH1 0x20 ADD PUSH32 0x4331000000000000000000000000000000000000000000000000000000000000 DUP2 MSTORE POP DUP2 MSTORE PUSH1 0x20 ADD PUSH4 0x5F5E100 PUSH1 0xF PUSH2 0xDEA SWAP2 SWAP1 PUSH2 0x1B38 JUMP JUMPDEST DUP2 MSTORE PUSH1 0x20 ADD PUSH1 0x40 MLOAD DUP1 PUSH1 0x40 ADD PUSH1 0x40 MSTORE DUP1 PUSH1 0xB DUP2 MSTORE PUSH1 0x20 ADD PUSH32 0x536E69636B657220426172000000000000000000000000000000000000000000 DUP2 MSTORE POP DUP2 MSTORE PUSH1 0x20 ADD PUSH2 0xE6E PUSH1 0x40 MLOAD DUP1 PUSH1 0x40 ADD PUSH1 0x40 MSTORE DUP1 PUSH1 0xC DUP2 MSTORE PUSH1 0x20 ADD PUSH32 0x736E69636B6572732E706E670000000000000000000000000000000000000000 DUP2 MSTORE POP PUSH2 0x1ABF PUSH1 0x20 SHL PUSH1 0x20 SHR JUMP JUMPDEST DUP2 MSTORE POP SWAP1 DUP1 PUSH1 0x1 DUP2 SLOAD ADD DUP1 DUP3 SSTORE DUP1 SWAP2 POP POP PUSH1 0x1 SWAP1 SUB SWAP1 PUSH0 MSTORE PUSH1 0x20 PUSH0 KECCAK256 SWAP1 PUSH1 0x4 MUL ADD PUSH0 SWAP1 SWAP2 SWAP1 SWAP2 SWAP1 SWAP2 POP PUSH0 DUP3 ADD MLOAD DUP2 PUSH0 ADD SWAP1 DUP2 PUSH2 0xEAA SWAP2 SWAP1 PUSH2 0x1DAA JUMP JUMPDEST POP PUSH1 0x20 DUP3 ADD MLOAD DUP2 PUSH1 0x1 ADD SSTORE PUSH1 0x40 DUP3 ADD MLOAD DUP2 PUSH1 0x2 ADD SWAP1 DUP2 PUSH2 0xECA SWAP2 SWAP1 PUSH2 0x1DAA JUMP JUMPDEST POP PUSH1 0x60 DUP3 ADD MLOAD DUP2 PUSH1 0x3 ADD SWAP1 DUP2 PUSH2 0xEE0 SWAP2 SWAP1 PUSH2 0x1DAA JUMP JUMPDEST POP POP POP PUSH1 0x1 PUSH1 0x40 MLOAD DUP1 PUSH1 0x80 ADD PUSH1 0x40 MSTORE DUP1 PUSH1 0x40 MLOAD DUP1 PUSH1 0x40 ADD PUSH1 0x40 MSTORE DUP1 PUSH1 0x2 DUP2 MSTORE PUSH1 0x20 ADD PUSH32 0x4332000000000000000000000000000000000000000000000000000000000000 DUP2 MSTORE POP DUP2 MSTORE PUSH1 0x20 ADD PUSH4 0x5F5E100 PUSH1 0xF PUSH2 0xF3C SWAP2 SWAP1 PUSH2 0x1B38 JUMP JUMPDEST DUP2 MSTORE PUSH1 0x20 ADD PUSH1 0x40 MLOAD DUP1 PUSH1 0x40 ADD PUSH1 0x40 MSTORE DUP1 PUSH1 0x4 DUP2 MSTORE PUSH1 0x20 ADD PUSH32 0x4D264D7300000000000000000000000000000000000000000000000000000000 DUP2 MSTORE POP DUP2 MSTORE PUSH1 0x20 ADD PUSH2 0xFC0 PUSH1 0x40 MLOAD DUP1 PUSH1 0x40 ADD PUSH1 0x40 MSTORE DUP1 PUSH1 0x8 DUP2 MSTORE PUSH1 0x20 ADD PUSH32 0x6D266D732E706E67000000000000000000000000000000000000000000000000 DUP2 MSTORE POP PUSH2 0x1ABF PUSH1 0x20 SHL PUSH1 0x20 SHR JUMP JUMPDEST DUP2 MSTORE POP SWAP1 DUP1 PUSH1 0x1 DUP2 SLOAD ADD DUP1 DUP3 SSTORE DUP1 SWAP2 POP POP PUSH1 0x1 SWAP1 SUB SWAP1 PUSH0 MSTORE PUSH1 0x20 PUSH0 KECCAK256 SWAP1 PUSH1 0x4 MUL ADD PUSH0 SWAP1 SWAP2 SWAP1 SWAP2 SWAP1 SWAP2 POP PUSH0 DUP3 ADD MLOAD DUP2 PUSH0 ADD SWAP1 DUP2 PUSH2 0xFFC SWAP2 SWAP1 PUSH2 0x1DAA JUMP JUMPDEST POP PUSH1 0x20 DUP3 ADD MLOAD DUP2 PUSH1 0x1 ADD SSTORE PUSH1 0x40 DUP3 ADD MLOAD DUP2 PUSH1 0x2 ADD SWAP1 DUP2 PUSH2 0x101C SWAP2 SWAP1 PUSH2 0x1DAA JUMP JUMPDEST POP PUSH1 0x60 DUP3 ADD MLOAD DUP2 PUSH1 0x3 ADD SWAP1 DUP2 PUSH2 0x1032 SWAP2 SWAP1 PUSH2 0x1DAA JUMP JUMPDEST POP POP POP PUSH1 0x1 PUSH1 0x40 MLOAD DUP1 PUSH1 0x80 ADD PUSH1 0x40 MSTORE DUP1 PUSH1 0x40 MLOAD DUP1 PUSH1 0x40 ADD PUSH1 0x40 MSTORE DUP1 PUSH1 0x2 DUP2 MSTORE PUSH1 0x20 ADD PUSH32 0x4333000000000000000000000000000000000000000000000000000000000000 DUP2 MSTORE POP DUP2 MSTORE PUSH1 0x20 ADD PUSH3 0x989680 PUSH1 0x7D PUSH2 0x108D SWAP2 SWAP1 PUSH2 0x1B38 JUMP JUMPDEST DUP2 MSTORE PUSH1 0x20 ADD PUSH1 0x40 MLOAD DUP1 PUSH1 0x40 ADD PUSH1 0x40 MSTORE DUP1 PUSH1 0xE DUP2 MSTORE PUSH1 0x20 ADD PUSH32 0x427562626C65205461702047756D000000000000000000000000000000000000 DUP2 MSTORE POP DUP2 MSTORE PUSH1 0x20 ADD PUSH2 0x1111 PUSH1 0x40 MLOAD DUP1 PUSH1 0x40 ADD PUSH1 0x40 MSTORE DUP1 PUSH1 0xE DUP2 MSTORE PUSH1 0x20 ADD PUSH32 0x627562626C652D7461702E706E67000000000000000000000000000000000000 DUP2 MSTORE POP PUSH2 0x1ABF PUSH1 0x20 SHL PUSH1 0x20 SHR JUMP JUMPDEST DUP2 MSTORE POP SWAP1 DUP1 PUSH1 0x1 DUP2 SLOAD ADD DUP1 DUP3 SSTORE DUP1 SWAP2 POP POP PUSH1 0x1 SWAP1 SUB SWAP1 PUSH0 MSTORE PUSH1 0x20 PUSH0 KECCAK256 SWAP1 PUSH1 0x4 MUL ADD PUSH0 SWAP1 SWAP2 SWAP1 SWAP2 SWAP1 SWAP2 POP PUSH0 DUP3 ADD MLOAD DUP2 PUSH0 ADD SWAP1 DUP2 PUSH2 0x114D SWAP2 SWAP1 PUSH2 0x1DAA JUMP JUMPDEST POP PUSH1 0x20 DUP3 ADD MLOAD DUP2 PUSH1 0x1 ADD SSTORE PUSH1 0x40 DUP3 ADD MLOAD DUP2 PUSH1 0x2 ADD SWAP1 DUP2 PUSH2 0x116D SWAP2 SWAP1 PUSH2 0x1DAA JUMP JUMPDEST POP PUSH1 0x60 DUP3 ADD MLOAD DUP2 PUSH1 0x3 ADD SWAP1 DUP2 PUSH2 0x1183 SWAP2 SWAP1 PUSH2 0x1DAA JUMP JUMPDEST POP POP POP PUSH1 0x1 PUSH1 0x40 MLOAD DUP1 PUSH1 0x80 ADD PUSH1 0x40 MSTORE DUP1 PUSH1 0x40 MLOAD DUP1 PUSH1 0x40 ADD PUSH1 0x40 MSTORE DUP1 PUSH1 0x2 DUP2 MSTORE PUSH1 0x20 ADD PUSH32 0x4334000000000000000000000000000000000000000000000000000000000000 DUP2 MSTORE POP DUP2 MSTORE PUSH1 0x20 ADD PUSH3 0x989680 PUSH1 0xAF PUSH2 0x11DE SWAP2 SWAP1 PUSH2 0x1B38 JUMP JUMPDEST DUP2 MSTORE PUSH1 0x20 ADD PUSH1 0x40 MLOAD DUP1 PUSH1 0x40 ADD PUSH1 0x40 MSTORE DUP1 PUSH1 0xD DUP2 MSTORE PUSH1 0x20 ADD PUSH32 0x4672756974204E75742042617200000000000000000000000000000000000000 DUP2 MSTORE POP DUP2 MSTORE PUSH1 0x20 ADD PUSH2 0x1262 PUSH1 0x40 MLOAD DUP1 PUSH1 0x40 ADD PUSH1 0x40 MSTORE DUP1 PUSH1 0xD DUP2 MSTORE PUSH1 0x20 ADD PUSH32 0x66727569742D6E75742E706E6700000000000000000000000000000000000000 DUP2 MSTORE POP PUSH2 0x1ABF PUSH1 0x20 SHL PUSH1 0x20 SHR JUMP JUMPDEST DUP2 MSTORE POP SWAP1 DUP1 PUSH1 0x1 DUP2 SLOAD ADD DUP1 DUP3 SSTORE DUP1 SWAP2 POP POP PUSH1 0x1 SWAP1 SUB SWAP1 PUSH0 MSTORE PUSH1 0x20 PUSH0 KECCAK256 SWAP1 PUSH1 0x4 MUL ADD PUSH0 SWAP1 SWAP2 SWAP1 SWAP2 SWAP1 SWAP2 POP PUSH0 DUP3 ADD MLOAD DUP2 PUSH0 ADD SWAP1 DUP2 PUSH2 0x129E SWAP2 SWAP1 PUSH2 0x1DAA JUMP JUMPDEST POP PUSH1 0x20 DUP3 ADD MLOAD DUP2 PUSH1 0x1 ADD SSTORE PUSH1 0x40 DUP3 ADD MLOAD DUP2 PUSH1 0x2 ADD SWAP1 DUP2 PUSH2 0x12BE SWAP2 SWAP1 PUSH2 0x1DAA JUMP JUMPDEST POP PUSH1 0x60 DUP3 ADD MLOAD DUP2 PUSH1 0x3 ADD SWAP1 DUP2 PUSH2 0x12D4 SWAP2 SWAP1 PUSH2 0x1DAA JUMP JUMPDEST POP POP POP PUSH1 0x1 PUSH1 0x40 MLOAD DUP1 PUSH1 0x80 ADD PUSH1 0x40 MSTORE DUP1 PUSH1 0x40 MLOAD DUP1 PUSH1 0x40 ADD PUSH1 0x40 MSTORE DUP1 PUSH1 0x2 DUP2 MSTORE PUSH1 0x20 ADD PUSH32 0x4335000000000000000000000000000000000000000000000000000000000000 DUP2 MSTORE POP DUP2 MSTORE PUSH1 0x20 ADD PUSH3 0x989680 PUSH1 0xAF PUSH2 0x132F SWAP2 SWAP1 PUSH2 0x1B38 JUMP JUMPDEST DUP2 MSTORE PUSH1 0x20 ADD PUSH1 0x40 MLOAD DUP1 PUSH1 0x40 ADD PUSH1 0x40 MSTORE DUP1 PUSH1 0xA DUP2 MSTORE PUSH1 0x20 ADD PUSH32 0x42656566204A65726B7900000000000000000000000000000000000000000000 DUP2 MSTORE POP DUP2 MSTORE PUSH1 0x20 ADD PUSH2 0x13B3 PUSH1 0x40 MLOAD DUP1 PUSH1 0x40 ADD PUSH1 0x40 MSTORE DUP1 PUSH1 0xE DUP2 MSTORE PUSH1 0x20 ADD PUSH32 0x626565662D6A65726B792E706E67000000000000000000000000000000000000 DUP2 MSTORE POP PUSH2 0x1ABF PUSH1 0x20 SHL PUSH1 0x20 SHR JUMP JUMPDEST DUP2 MSTORE POP SWAP1 DUP1 PUSH1 0x1 DUP2 SLOAD ADD DUP1 DUP3 SSTORE DUP1 SWAP2 POP POP PUSH1 0x1 SWAP1 SUB SWAP1 PUSH0 MSTORE PUSH1 0x20 PUSH0 KECCAK256 SWAP1 PUSH1 0x4 MUL ADD PUSH0 SWAP1 SWAP2 SWAP1 SWAP2 SWAP1 SWAP2 POP PUSH0 DUP3 ADD MLOAD DUP2 PUSH0 ADD SWAP1 DUP2 PUSH2 0x13EF SWAP2 SWAP1 PUSH2 0x1DAA JUMP JUMPDEST POP PUSH1 0x20 DUP3 ADD MLOAD DUP2 PUSH1 0x1 ADD SSTORE PUSH1 0x40 DUP3 ADD MLOAD DUP2 PUSH1 0x2 ADD SWAP1 DUP2 PUSH2 0x140F SWAP2 SWAP1 PUSH2 0x1DAA JUMP JUMPDEST POP PUSH1 0x60 DUP3 ADD MLOAD DUP2 PUSH1 0x3 ADD SWAP1 DUP2 PUSH2 0x1425 SWAP2 SWAP1 PUSH2 0x1DAA JUMP JUMPDEST POP POP POP PUSH1 0x1 PUSH1 0x40 MLOAD DUP1 PUSH1 0x80 ADD PUSH1 0x40 MSTORE DUP1 PUSH1 0x40 MLOAD DUP1 PUSH1 0x40 ADD PUSH1 0x40 MSTORE DUP1 PUSH1 0x2 DUP2 MSTORE PUSH1 0x20 ADD PUSH32 0x4431000000000000000000000000000000000000000000000000000000000000 DUP2 MSTORE POP DUP2 MSTORE PUSH1 0x20 ADD PUSH3 0x989680 PUSH1 0x7D PUSH2 0x1480 SWAP2 SWAP1 PUSH2 0x1B38 JUMP JUMPDEST DUP2 MSTORE PUSH1 0x20 ADD PUSH1 0x40 MLOAD DUP1 PUSH1 0x40 ADD PUSH1 0x40 MSTORE DUP1 PUSH1 0xE DUP2 MSTORE PUSH1 0x20 ADD PUSH32 0x4B69744B61742042697363756974000000000000000000000000000000000000 DUP2 MSTORE POP DUP2 MSTORE PUSH1 0x20 ADD PUSH2 0x1504 PUSH1 0x40 MLOAD DUP1 PUSH1 0x40 ADD PUSH1 0x40 MSTORE DUP1 PUSH1 0xA DUP2 MSTORE PUSH1 0x20 ADD PUSH32 0x6B69746B61742E706E6700000000000000000000000000000000000000000000 DUP2 MSTORE POP PUSH2 0x1ABF PUSH1 0x20 SHL PUSH1 0x20 SHR JUMP JUMPDEST DUP2 MSTORE POP SWAP1 DUP1 PUSH1 0x1 DUP2 SLOAD ADD DUP1 DUP3 SSTORE DUP1 SWAP2 POP POP PUSH1 0x1 SWAP1 SUB SWAP1 PUSH0 MSTORE PUSH1 0x20 PUSH0 KECCAK256 SWAP1 PUSH1 0x4 MUL ADD PUSH0 SWAP1 SWAP2 SWAP1 SWAP2 SWAP1 SWAP2 POP PUSH0 DUP3 ADD MLOAD DUP2 PUSH0 ADD SWAP1 DUP2 PUSH2 0x1540 SWAP2 SWAP1 PUSH2 0x1DAA JUMP JUMPDEST POP PUSH1 0x20 DUP3 ADD MLOAD DUP2 PUSH1 0x1 ADD SSTORE PUSH1 0x40 DUP3 ADD MLOAD DUP2 PUSH1 0x2 ADD SWAP1 DUP2 PUSH2 0x1560 SWAP2 SWAP1 PUSH2 0x1DAA JUMP JUMPDEST POP PUSH1 0x60 DUP3 ADD MLOAD DUP2 PUSH1 0x3 ADD SWAP1 DUP2 PUSH2 0x1576 SWAP2 SWAP1 PUSH2 0x1DAA JUMP JUMPDEST POP POP POP PUSH1 0x1 PUSH1 0x40 MLOAD DUP1 PUSH1 0x80 ADD PUSH1 0x40 MSTORE DUP1 PUSH1 0x40 MLOAD DUP1 PUSH1 0x40 ADD PUSH1 0x40 MSTORE DUP1 PUSH1 0x2 DUP2 MSTORE PUSH1 0x20 ADD PUSH32 0x4432000000000000000000000000000000000000000000000000000000000000 DUP2 MSTORE POP DUP2 MSTORE PUSH1 0x20 ADD PUSH3 0x989680 PUSH1 0x7D PUSH2 0x15D1 SWAP2 SWAP1 PUSH2 0x1B38 JUMP JUMPDEST DUP2 MSTORE PUSH1 0x20 ADD PUSH1 0x40 MLOAD DUP1 PUSH1 0x40 ADD PUSH1 0x40 MSTORE DUP1 PUSH1 0x8 DUP2 MSTORE PUSH1 0x20 ADD PUSH32 0x506F7020436F726E000000000000000000000000000000000000000000000000 DUP2 MSTORE POP DUP2 MSTORE PUSH1 0x20 ADD PUSH2 0x1655 PUSH1 0x40 MLOAD DUP1 PUSH1 0x40 ADD PUSH1 0x40 MSTORE DUP1 PUSH1 0xB DUP2 MSTORE PUSH1 0x20 ADD PUSH32 0x706F70636F726E2E706E67000000000000000000000000000000000000000000 DUP2 MSTORE POP PUSH2 0x1ABF PUSH1 0x20 SHL PUSH1 0x20 SHR JUMP JUMPDEST DUP2 MSTORE POP SWAP1 DUP1 PUSH1 0x1 DUP2 SLOAD ADD DUP1 DUP3 SSTORE DUP1 SWAP2 POP POP PUSH1 0x1 SWAP1 SUB SWAP1 PUSH0 MSTORE PUSH1 0x20 PUSH0 KECCAK256 SWAP1 PUSH1 0x4 MUL ADD PUSH0 SWAP1 SWAP2 SWAP1 SWAP2 SWAP1 SWAP2 POP PUSH0 DUP3 ADD MLOAD DUP2 PUSH0 ADD SWAP1 DUP2 PUSH2 0x1691 SWAP2 SWAP1 PUSH2 0x1DAA JUMP JUMPDEST POP PUSH1 0x20 DUP3 ADD MLOAD DUP2 PUSH1 0x1 ADD SSTORE PUSH1 0x40 DUP3 ADD MLOAD DUP2 PUSH1 0x2 ADD SWAP1 DUP2 PUSH2 0x16B1 SWAP2 SWAP1 PUSH2 0x1DAA JUMP JUMPDEST POP PUSH1 0x60 DUP3 ADD MLOAD DUP2 PUSH1 0x3 ADD SWAP1 DUP2 PUSH2 0x16C7 SWAP2 SWAP1 PUSH2 0x1DAA JUMP JUMPDEST POP POP POP PUSH1 0x1 PUSH1 0x40 MLOAD DUP1 PUSH1 0x80 ADD PUSH1 0x40 MSTORE DUP1 PUSH1 0x40 MLOAD DUP1 PUSH1 0x40 ADD PUSH1 0x40 MSTORE DUP1 PUSH1 0x2 DUP2 MSTORE PUSH1 0x20 ADD PUSH32 0x4433000000000000000000000000000000000000000000000000000000000000 DUP2 MSTORE POP DUP2 MSTORE PUSH1 0x20 ADD PUSH3 0x989680 PUSH1 0x96 PUSH2 0x1722 SWAP2 SWAP1 PUSH2 0x1B38 JUMP JUMPDEST DUP2 MSTORE PUSH1 0x20 ADD PUSH1 0x40 MLOAD DUP1 PUSH1 0x40 ADD PUSH1 0x40 MSTORE DUP1 PUSH1 0x8 DUP2 MSTORE PUSH1 0x20 ADD PUSH32 0x5477697820426172000000000000000000000000000000000000000000000000 DUP2 MSTORE POP DUP2 MSTORE PUSH1 0x20 ADD PUSH2 0x17A6 PUSH1 0x40 MLOAD DUP1 PUSH1 0x40 ADD PUSH1 0x40 MSTORE DUP1 PUSH1 0x8 DUP2 MSTORE PUSH1 0x20 ADD PUSH32 0x747769782E706E67000000000000000000000000000000000000000000000000 DUP2 MSTORE POP PUSH2 0x1ABF PUSH1 0x20 SHL PUSH1 0x20 SHR JUMP JUMPDEST DUP2 MSTORE POP SWAP1 DUP1 PUSH1 0x1 DUP2 SLOAD ADD DUP1 DUP3 SSTORE DUP1 SWAP2 POP POP PUSH1 0x1 SWAP1 SUB SWAP1 PUSH0 MSTORE PUSH1 0x20 PUSH0 KECCAK256 SWAP1 PUSH1 0x4 MUL ADD PUSH0 SWAP1 SWAP2 SWAP1 SWAP2 SWAP1 SWAP2 POP PUSH0 DUP3 ADD MLOAD DUP2 PUSH0 ADD SWAP1 DUP2 PUSH2 0x17E2 SWAP2 SWAP1 PUSH2 0x1DAA JUMP JUMPDEST POP PUSH1 0x20 DUP3 ADD MLOAD DUP2 PUSH1 0x1 ADD SSTORE PUSH1 0x40 DUP3 ADD MLOAD DUP2 PUSH1 0x2 ADD SWAP1 DUP2 PUSH2 0x1802 SWAP2 SWAP1 PUSH2 0x1DAA JUMP JUMPDEST POP PUSH1 0x60 DUP3 ADD MLOAD DUP2 PUSH1 0x3 ADD SWAP1 DUP2 PUSH2 0x1818 SWAP2 SWAP1 PUSH2 0x1DAA JUMP JUMPDEST POP POP POP PUSH1 0x1 PUSH1 0x40 MLOAD DUP1 PUSH1 0x80 ADD PUSH1 0x40 MSTORE DUP1 PUSH1 0x40 MLOAD DUP1 PUSH1 0x40 ADD PUSH1 0x40 MSTORE DUP1 PUSH1 0x2 DUP2 MSTORE PUSH1 0x20 ADD PUSH32 0x4434000000000000000000000000000000000000000000000000000000000000 DUP2 MSTORE POP DUP2 MSTORE PUSH1 0x20 ADD PUSH3 0x989680 PUSH1 0x7D PUSH2 0x1873 SWAP2 SWAP1 PUSH2 0x1B38 JUMP JUMPDEST DUP2 MSTORE PUSH1 0x20 ADD PUSH1 0x40 MLOAD DUP1 PUSH1 0x40 ADD PUSH1 0x40 MSTORE DUP1 PUSH1 0x5 DUP2 MSTORE PUSH1 0x20 ADD PUSH32 0x446F6E7574000000000000000000000000000000000000000000000000000000 DUP2 MSTORE POP DUP2 MSTORE PUSH1 0x20 ADD PUSH2 0x18F7 PUSH1 0x40 MLOAD DUP1 PUSH1 0x40 ADD PUSH1 0x40 MSTORE DUP1 PUSH1 0x9 DUP2 MSTORE PUSH1 0x20 ADD PUSH32 0x646F6E75742E706E670000000000000000000000000000000000000000000000 DUP2 MSTORE POP PUSH2 0x1ABF PUSH1 0x20 SHL PUSH1 0x20 SHR JUMP JUMPDEST DUP2 MSTORE POP SWAP1 DUP1 PUSH1 0x1 DUP2 SLOAD ADD DUP1 DUP3 SSTORE DUP1 SWAP2 POP POP PUSH1 0x1 SWAP1 SUB SWAP1 PUSH0 MSTORE PUSH1 0x20 PUSH0 KECCAK256 SWAP1 PUSH1 0x4 MUL ADD PUSH0 SWAP1 SWAP2 SWAP1 SWAP2 SWAP1 SWAP2 POP PUSH0 DUP3 ADD MLOAD DUP2 PUSH0 ADD SWAP1 DUP2 PUSH2 0x1933 SWAP2 SWAP1 PUSH2 0x1DAA JUMP JUMPDEST POP PUSH1 0x20 DUP3 ADD MLOAD DUP2 PUSH1 0x1 ADD SSTORE PUSH1 0x40 DUP3 ADD MLOAD DUP2 PUSH1 0x2 ADD SWAP1 DUP2 PUSH2 0x1953 SWAP2 SWAP1 PUSH2 0x1DAA JUMP JUMPDEST POP PUSH1 0x60 DUP3 ADD MLOAD DUP2 PUSH1 0x3 ADD SWAP1 DUP2 PUSH2 0x1969 SWAP2 SWAP1 PUSH2 0x1DAA JUMP JUMPDEST POP POP POP PUSH1 0x1 PUSH1 0x40 MLOAD DUP1 PUSH1 0x80 ADD PUSH1 0x40 MSTORE DUP1 PUSH1 0x40 MLOAD DUP1 PUSH1 0x40 ADD PUSH1 0x40 MSTORE DUP1 PUSH1 0x2 DUP2 MSTORE PUSH1 0x20 ADD PUSH32 0x4435000000000000000000000000000000000000000000000000000000000000 DUP2 MSTORE POP DUP2 MSTORE PUSH1 0x20 ADD PUSH3 0x989680 PUSH1 0x7D PUSH2 0x19C4 SWAP2 SWAP1 PUSH2 0x1B38 JUMP JUMPDEST DUP2 MSTORE PUSH1 0x20 ADD PUSH1 0x40 MLOAD DUP1 PUSH1 0x40 ADD PUSH1 0x40 MSTORE DUP1 PUSH1 0x9 DUP2 MSTORE PUSH1 0x20 ADD PUSH32 0x526564204170706C650000000000000000000000000000000000000000000000 DUP2 MSTORE POP DUP2 MSTORE PUSH1 0x20 ADD PUSH2 0x1A48 PUSH1 0x40 MLOAD DUP1 PUSH1 0x40 ADD PUSH1 0x40 MSTORE DUP1 PUSH1 0x9 DUP2 MSTORE PUSH1 0x20 ADD PUSH32 0x6170706C652E706E670000000000000000000000000000000000000000000000 DUP2 MSTORE POP PUSH2 0x1ABF PUSH1 0x20 SHL PUSH1 0x20 SHR JUMP JUMPDEST DUP2 MSTORE POP SWAP1 DUP1 PUSH1 0x1 DUP2 SLOAD ADD DUP1 DUP3 SSTORE DUP1 SWAP2 POP POP PUSH1 0x1 SWAP1 SUB SWAP1 PUSH0 MSTORE PUSH1 0x20 PUSH0 KECCAK256 SWAP1 PUSH1 0x4 MUL ADD PUSH0 SWAP1 SWAP2 SWAP1 SWAP2 SWAP1 SWAP2 POP PUSH0 DUP3 ADD MLOAD DUP2 PUSH0 ADD SWAP1 DUP2 PUSH2 0x1A84 SWAP2 SWAP1 PUSH2 0x1DAA JUMP JUMPDEST POP PUSH1 0x20 DUP3 ADD MLOAD DUP2 PUSH1 0x1 ADD SSTORE PUSH1 0x40 DUP3 ADD MLOAD DUP2 PUSH1 0x2 ADD SWAP1 DUP2 PUSH2 0x1AA4 SWAP2 SWAP1 PUSH2 0x1DAA JUMP JUMPDEST POP PUSH1 0x60 DUP3 ADD MLOAD DUP2 PUSH1 0x3 ADD SWAP1 DUP2 PUSH2 0x1ABA SWAP2 SWAP1 PUSH2 0x1DAA JUMP JUMPDEST POP POP POP JUMP JUMPDEST PUSH1 0x60 PUSH1 0x40 MLOAD DUP1 PUSH1 0x60 ADD PUSH1 0x40 MSTORE DUP1 PUSH1 0x2F DUP2 MSTORE PUSH1 0x20 ADD PUSH2 0x3FEF PUSH1 0x2F SWAP2 CODECOPY DUP3 PUSH1 0x40 MLOAD PUSH1 0x20 ADD PUSH2 0x1AEC SWAP3 SWAP2 SWAP1 PUSH2 0x1EC1 JUMP JUMPDEST PUSH1 0x40 MLOAD PUSH1 0x20 DUP2 DUP4 SUB SUB DUP2 MSTORE SWAP1 PUSH1 0x40 MSTORE SWAP1 POP SWAP2 SWAP1 POP JUMP JUMPDEST PUSH0 DUP2 SWAP1 POP SWAP2 SWAP1 POP JUMP JUMPDEST PUSH32 0x4E487B7100000000000000000000000000000000000000000000000000000000 PUSH0 MSTORE PUSH1 0x11 PUSH1 0x4 MSTORE PUSH1 0x24 PUSH0 REVERT JUMPDEST PUSH0 PUSH2 0x1B42 DUP3 PUSH2 0x1B02 JUMP JUMPDEST SWAP2 POP PUSH2 0x1B4D DUP4 PUSH2 0x1B02 JUMP JUMPDEST SWAP3 POP DUP3 DUP3 MUL PUSH2 0x1B5B DUP2 PUSH2 0x1B02 JUMP JUMPDEST SWAP2 POP DUP3 DUP3 DIV DUP5 EQ DUP4 ISZERO OR PUSH2 0x1B72 JUMPI PUSH2 0x1B71 PUSH2 0x1B0B JUMP JUMPDEST JUMPDEST POP SWAP3 SWAP2 POP POP JUMP JUMPDEST PUSH0 DUP2 MLOAD SWAP1 POP SWAP2 SWAP1 POP JUMP JUMPDEST PUSH32 0x4E487B7100000000000000000000000000000000000000000000000000000000 PUSH0 MSTORE PUSH1 0x41 PUSH1 0x4 MSTORE PUSH1 0x24 PUSH0 REVERT JUMPDEST PUSH32 0x4E487B7100000000000000000000000000000000000000000000000000000000 PUSH0 MSTORE PUSH1 0x22 PUSH1 0x4 MSTORE PUSH1 0x24 PUSH0 REVERT JUMPDEST PUSH0 PUSH1 0x2 DUP3 DIV SWAP1 POP PUSH1 0x1 DUP3 AND DUP1 PUSH2 0x1BF4 JUMPI PUSH1 0x7F DUP3 AND SWAP2 POP JUMPDEST PUSH1 0x20 DUP3 LT DUP2 SUB PUSH2 0x1C07 JUMPI PUSH2 0x1C06 PUSH2 0x1BB0 JUMP JUMPDEST JUMPDEST POP SWAP2 SWAP1 POP JUMP JUMPDEST PUSH0 DUP2 SWAP1 POP DUP2 PUSH0 MSTORE PUSH1 0x20 PUSH0 KECCAK256 SWAP1 POP SWAP2 SWAP1 POP JUMP JUMPDEST PUSH0 PUSH1 0x20 PUSH1 0x1F DUP4 ADD DIV SWAP1 POP SWAP2 SWAP1 POP JUMP JUMPDEST PUSH0 DUP3 DUP3 SHL SWAP1 POP SWAP3 SWAP2 POP POP JUMP JUMPDEST PUSH0 PUSH1 0x8 DUP4 MUL PUSH2 0x1C69 PUSH32 0xFFFFFFFFFFFFFFFFFFFFFFFFFFFFFFFFFFFFFFFFFFFFFFFFFFFFFFFFFFFFFFFF DUP3 PUSH2 0x1C2E JUMP JUMPDEST PUSH2 0x1C73 DUP7 DUP4 PUSH2 0x1C2E JUMP JUMPDEST SWAP6 POP DUP1 NOT DUP5 AND SWAP4 POP DUP1 DUP7 AND DUP5 OR SWAP3 POP POP POP SWAP4 SWAP3 POP POP POP JUMP JUMPDEST PUSH0 DUP2 SWAP1 POP SWAP2 SWAP1 POP JUMP JUMPDEST PUSH0 PUSH2 0x1CAE PUSH2 0x1CA9 PUSH2 0x1CA4 DUP5 PUSH2 0x1B02 JUMP JUMPDEST PUSH2 0x1C8B JUMP JUMPDEST PUSH2 0x1B02 JUMP JUMPDEST SWAP1 POP SWAP2 SWAP1 POP JUMP JUMPDEST PUSH0 DUP2 SWAP1 POP SWAP2 SWAP1 POP JUMP JUMPDEST PUSH2 0x1CC7 DUP4 PUSH2 0x1C94 JUMP JUMPDEST PUSH2 0x1CDB PUSH2 0x1CD3 DUP3 PUSH2 0x1CB5 JUMP JUMPDEST DUP5 DUP5 SLOAD PUSH2 0x1C3A JUMP JUMPDEST DUP3 SSTORE POP POP POP POP JUMP JUMPDEST PUSH0 SWAP1 JUMP JUMPDEST PUSH2 0x1CEF PUSH2 0x1CE3 JUMP JUMPDEST PUSH2 0x1CFA DUP2 DUP5 DUP5 PUSH2 0x1CBE JUMP JUMPDEST POP POP POP JUMP JUMPDEST JUMPDEST DUP2 DUP2 LT ISZERO PUSH2 0x1D1D JUMPI PUSH2 0x1D12 PUSH0 DUP3 PUSH2 0x1CE7 JUMP JUMPDEST PUSH1 0x1 DUP2 ADD SWAP1 POP PUSH2 0x1D00 JUMP JUMPDEST POP POP JUMP JUMPDEST PUSH1 0x1F DUP3 GT ISZERO PUSH2 0x1D62 JUMPI PUSH2 0x1D33 DUP2 PUSH2 0x1C0D JUMP JUMPDEST PUSH2 0x1D3C DUP5 PUSH2 0x1C1F JUMP JUMPDEST DUP2 ADD PUSH1 0x20 DUP6 LT ISZERO PUSH2 0x1D4B JUMPI DUP2 SWAP1 POP JUMPDEST PUSH2 0x1D5F PUSH2 0x1D57 DUP6 PUSH2 0x1C1F JUMP JUMPDEST DUP4 ADD DUP3 PUSH2 0x1CFF JUMP JUMPDEST POP POP JUMPDEST POP POP POP JUMP JUMPDEST PUSH0 DUP3 DUP3 SHR SWAP1 POP SWAP3 SWAP2 POP POP JUMP JUMPDEST PUSH0 PUSH2 0x1D82 PUSH0 NOT DUP5 PUSH1 0x8 MUL PUSH2 0x1D67 JUMP JUMPDEST NOT DUP1 DUP4 AND SWAP2 POP POP SWAP3 SWAP2 POP POP JUMP JUMPDEST PUSH0 PUSH2 0x1D9A DUP4 DUP4 PUSH2 0x1D73 JUMP JUMPDEST SWAP2 POP DUP3 PUSH1 0x2 MUL DUP3 OR SWAP1 POP SWAP3 SWAP2 POP POP JUMP JUMPDEST PUSH2 0x1DB3 DUP3 PUSH2 0x1B79 JUMP JUMPDEST PUSH8 0xFFFFFFFFFFFFFFFF DUP2 GT ISZERO PUSH2 0x1DCC JUMPI PUSH2 0x1DCB PUSH2 0x1B83 JUMP JUMPDEST JUMPDEST PUSH2 0x1DD6 DUP3 SLOAD PUSH2 0x1BDD JUMP JUMPDEST PUSH2 0x1DE1 DUP3 DUP3 DUP6 PUSH2 0x1D21 JUMP JUMPDEST PUSH0 PUSH1 0x20 SWAP1 POP PUSH1 0x1F DUP4 GT PUSH1 0x1 DUP2 EQ PUSH2 0x1E12 JUMPI PUSH0 DUP5 ISZERO PUSH2 0x1E00 JUMPI DUP3 DUP8 ADD MLOAD SWAP1 POP JUMPDEST PUSH2 0x1E0A DUP6 DUP3 PUSH2 0x1D8F JUMP JUMPDEST DUP7 SSTORE POP PUSH2 0x1E71 JUMP JUMPDEST PUSH1 0x1F NOT DUP5 AND PUSH2 0x1E20 DUP7 PUSH2 0x1C0D JUMP JUMPDEST PUSH0 JUMPDEST DUP3 DUP2 LT ISZERO PUSH2 0x1E47 JUMPI DUP5 DUP10 ADD MLOAD DUP3 SSTORE PUSH1 0x1 DUP3 ADD SWAP2 POP PUSH1 0x20 DUP6 ADD SWAP5 POP PUSH1 0x20 DUP2 ADD SWAP1 POP PUSH2 0x1E22 JUMP JUMPDEST DUP7 DUP4 LT ISZERO PUSH2 0x1E64 JUMPI DUP5 DUP10 ADD MLOAD PUSH2 0x1E60 PUSH1 0x1F DUP10 AND DUP3 PUSH2 0x1D73 JUMP JUMPDEST DUP4 SSTORE POP JUMPDEST PUSH1 0x1 PUSH1 0x2 DUP9 MUL ADD DUP9 SSTORE POP POP POP JUMPDEST POP POP POP POP POP POP JUMP JUMPDEST PUSH0 DUP2 SWAP1 POP SWAP3 SWAP2 POP POP JUMP JUMPDEST DUP3 DUP2 DUP4 MCOPY PUSH0 DUP4 DUP4 ADD MSTORE POP POP POP JUMP JUMPDEST PUSH0 PUSH2 0x1E9B DUP3 PUSH2 0x1B79 JUMP JUMPDEST PUSH2 0x1EA5 DUP2 DUP6 PUSH2 0x1E79 JUMP JUMPDEST SWAP4 POP PUSH2 0x1EB5 DUP2 DUP6 PUSH1 0x20 DUP7 ADD PUSH2 0x1E83 JUMP JUMPDEST DUP1 DUP5 ADD SWAP2 POP POP SWAP3 SWAP2 POP POP JUMP JUMPDEST PUSH0 PUSH2 0x1ECC DUP3 DUP6 PUSH2 0x1E91 JUMP JUMPDEST SWAP2 POP PUSH2 0x1ED8 DUP3 DUP5 PUSH2 0x1E91 JUMP JUMPDEST SWAP2 POP DUP2 SWAP1 POP SWAP4 SWAP3 POP POP POP JUMP JUMPDEST PUSH2 0x20FE DUP1 PUSH2 0x1EF1 PUSH0 CODECOPY PUSH0 RETURN INVALID PUSH1 0x80 PUSH1 0x40 MSTORE PUSH1 0x4 CALLDATASIZE LT PUSH2 0x7A JUMPI PUSH0 CALLDATALOAD PUSH1 0xE0 SHR DUP1 PUSH4 0x3CCFD60B GT PUSH2 0x4D JUMPI DUP1 PUSH4 0x3CCFD60B EQ PUSH2 0x136 JUMPI DUP1 PUSH4 0x8DA5CB5B EQ PUSH2 0x14C JUMPI DUP1 PUSH4 0xA26759CB EQ PUSH2 0x176 JUMPI DUP1 PUSH4 0xB04F3225 EQ PUSH2 0x180 JUMPI PUSH2 0x7A JUMP JUMPDEST DUP1 PUSH4 0x2EE3A52 EQ PUSH2 0x7E JUMPI DUP1 PUSH4 0x1107BC98 EQ PUSH2 0xA8 JUMPI DUP1 PUSH4 0x12065FE0 EQ PUSH2 0xE4 JUMPI DUP1 PUSH4 0x19F92926 EQ PUSH2 0x10E JUMPI JUMPDEST PUSH0 DUP1 REVERT JUMPDEST CALLVALUE DUP1 ISZERO PUSH2 0x89 JUMPI PUSH0 DUP1 REVERT JUMPDEST POP PUSH2 0x92 PUSH2 0x1A8 JUMP JUMPDEST PUSH1 0x40 MLOAD PUSH2 0x9F SWAP2 SWAP1 PUSH2 0x130E JUMP JUMPDEST PUSH1 0x40 MLOAD DUP1 SWAP2 SUB SWAP1 RETURN JUMPDEST CALLVALUE DUP1 ISZERO PUSH2 0xB3 JUMPI PUSH0 DUP1 REVERT JUMPDEST POP PUSH2 0xCE PUSH1 0x4 DUP1 CALLDATASIZE SUB DUP2 ADD SWAP1 PUSH2 0xC9 SWAP2 SWAP1 PUSH2 0x1399 JUMP JUMPDEST PUSH2 0x3BD JUMP JUMPDEST PUSH1 0x40 MLOAD PUSH2 0xDB SWAP2 SWAP1 PUSH2 0x1526 JUMP JUMPDEST PUSH1 0x40 MLOAD DUP1 SWAP2 SUB SWAP1 RETURN JUMPDEST CALLVALUE DUP1 ISZERO PUSH2 0xEF JUMPI PUSH0 DUP1 REVERT JUMPDEST POP PUSH2 0xF8 PUSH2 0x6EA JUMP JUMPDEST PUSH1 0x40 MLOAD PUSH2 0x105 SWAP2 SWAP1 PUSH2 0x1555 JUMP JUMPDEST PUSH1 0x40 MLOAD DUP1 SWAP2 SUB SWAP1 RETURN JUMPDEST CALLVALUE DUP1 ISZERO PUSH2 0x119 JUMPI PUSH0 DUP1 REVERT JUMPDEST POP PUSH2 0x134 PUSH1 0x4 DUP1 CALLDATASIZE SUB DUP2 ADD SWAP1 PUSH2 0x12F SWAP2 SWAP1 PUSH2 0x169A JUMP JUMPDEST PUSH2 0x72E JUMP JUMPDEST STOP JUMPDEST CALLVALUE DUP1 ISZERO PUSH2 0x141 JUMPI PUSH0 DUP1 REVERT JUMPDEST POP PUSH2 0x14A PUSH2 0x91B JUMP JUMPDEST STOP JUMPDEST CALLVALUE DUP1 ISZERO PUSH2 0x157 JUMPI PUSH0 DUP1 REVERT JUMPDEST POP PUSH2 0x160 PUSH2 0xB9B JUMP JUMPDEST PUSH1 0x40 MLOAD PUSH2 0x16D SWAP2 SWAP1 PUSH2 0x16F0 JUMP JUMPDEST PUSH1 0x40 MLOAD DUP1 SWAP2 SUB SWAP1 RETURN JUMPDEST PUSH2 0x17E PUSH2 0xBBE JUMP JUMPDEST STOP JUMPDEST CALLVALUE DUP1 ISZERO PUSH2 0x18B JUMPI PUSH0 DUP1 REVERT JUMPDEST POP PUSH2 0x1A6 PUSH1 0x4 DUP1 CALLDATASIZE SUB DUP2 ADD SWAP1 PUSH2 0x1A1 SWAP2 SWAP1 PUSH2 0x1733 JUMP JUMPDEST PUSH2 0xC55 JUMP JUMPDEST STOP JUMPDEST PUSH1 0x60 PUSH1 0x1 DUP1 SLOAD DUP1 PUSH1 0x20 MUL PUSH1 0x20 ADD PUSH1 0x40 MLOAD SWAP1 DUP2 ADD PUSH1 0x40 MSTORE DUP1 SWAP3 SWAP2 SWAP1 DUP2 DUP2 MSTORE PUSH1 0x20 ADD PUSH0 SWAP1 JUMPDEST DUP3 DUP3 LT ISZERO PUSH2 0x3B4 JUMPI DUP4 DUP3 SWAP1 PUSH0 MSTORE PUSH1 0x20 PUSH0 KECCAK256 SWAP1 PUSH1 0x4 MUL ADD PUSH1 0x40 MLOAD DUP1 PUSH1 0x80 ADD PUSH1 0x40 MSTORE SWAP1 DUP2 PUSH0 DUP3 ADD DUP1 SLOAD PUSH2 0x1FB SWAP1 PUSH2 0x178B JUMP JUMPDEST DUP1 PUSH1 0x1F ADD PUSH1 0x20 DUP1 SWAP2 DIV MUL PUSH1 0x20 ADD PUSH1 0x40 MLOAD SWAP1 DUP2 ADD PUSH1 0x40 MSTORE DUP1 SWAP3 SWAP2 SWAP1 DUP2 DUP2 MSTORE PUSH1 0x20 ADD DUP3 DUP1 SLOAD PUSH2 0x227 SWAP1 PUSH2 0x178B JUMP JUMPDEST DUP1 ISZERO PUSH2 0x272 JUMPI DUP1 PUSH1 0x1F LT PUSH2 0x249 JUMPI PUSH2 0x100 DUP1 DUP4 SLOAD DIV MUL DUP4 MSTORE SWAP2 PUSH1 0x20 ADD SWAP2 PUSH2 0x272 JUMP JUMPDEST DUP3 ADD SWAP2 SWAP1 PUSH0 MSTORE PUSH1 0x20 PUSH0 KECCAK256 SWAP1 JUMPDEST DUP2 SLOAD DUP2 MSTORE SWAP1 PUSH1 0x1 ADD SWAP1 PUSH1 0x20 ADD DUP1 DUP4 GT PUSH2 0x255 JUMPI DUP3 SWAP1 SUB PUSH1 0x1F AND DUP3 ADD SWAP2 JUMPDEST POP POP POP POP POP DUP2 MSTORE PUSH1 0x20 ADD PUSH1 0x1 DUP3 ADD SLOAD DUP2 MSTORE PUSH1 0x20 ADD PUSH1 0x2 DUP3 ADD DUP1 SLOAD PUSH2 0x295 SWAP1 PUSH2 0x178B JUMP JUMPDEST DUP1 PUSH1 0x1F ADD PUSH1 0x20 DUP1 SWAP2 DIV MUL PUSH1 0x20 ADD PUSH1 0x40 MLOAD SWAP1 DUP2 ADD PUSH1 0x40 MSTORE DUP1 SWAP3 SWAP2 SWAP1 DUP2 DUP2 MSTORE PUSH1 0x20 ADD DUP3 DUP1 SLOAD PUSH2 0x2C1 SWAP1 PUSH2 0x178B JUMP JUMPDEST DUP1 ISZERO PUSH2 0x30C JUMPI DUP1 PUSH1 0x1F LT PUSH2 0x2E3 JUMPI PUSH2 0x100 DUP1 DUP4 SLOAD DIV MUL DUP4 MSTORE SWAP2 PUSH1 0x20 ADD SWAP2 PUSH2 0x30C JUMP JUMPDEST DUP3 ADD SWAP2 SWAP1 PUSH0 MSTORE PUSH1 0x20 PUSH0 KECCAK256 SWAP1 JUMPDEST DUP2 SLOAD DUP2 MSTORE SWAP1 PUSH1 0x1 ADD SWAP1 PUSH1 0x20 ADD DUP1 DUP4 GT PUSH2 0x2EF JUMPI DUP3 SWAP1 SUB PUSH1 0x1F AND DUP3 ADD SWAP2 JUMPDEST POP POP POP POP POP DUP2 MSTORE PUSH1 0x20 ADD PUSH1 0x3 DUP3 ADD DUP1 SLOAD PUSH2 0x325 SWAP1 PUSH2 0x178B JUMP JUMPDEST DUP1 PUSH1 0x1F ADD PUSH1 0x20 DUP1 SWAP2 DIV MUL PUSH1 0x20 ADD PUSH1 0x40 MLOAD SWAP1 DUP2 ADD PUSH1 0x40 MSTORE DUP1 SWAP3 SWAP2 SWAP1 DUP2 DUP2 MSTORE PUSH1 0x20 ADD DUP3 DUP1 SLOAD PUSH2 0x351 SWAP1 PUSH2 0x178B JUMP JUMPDEST DUP1 ISZERO PUSH2 0x39C JUMPI DUP1 PUSH1 0x1F LT PUSH2 0x373 JUMPI PUSH2 0x100 DUP1 DUP4 SLOAD DIV MUL DUP4 MSTORE SWAP2 PUSH1 0x20 ADD SWAP2 PUSH2 0x39C JUMP JUMPDEST DUP3 ADD SWAP2 SWAP1 PUSH0 MSTORE PUSH1 0x20 PUSH0 KECCAK256 SWAP1 JUMPDEST DUP2 SLOAD DUP2 MSTORE SWAP1 PUSH1 0x1 ADD SWAP1 PUSH1 0x20 ADD DUP1 DUP4 GT PUSH2 0x37F JUMPI DUP3 SWAP1 SUB PUSH1 0x1F AND DUP3 ADD SWAP2 JUMPDEST POP POP POP POP POP DUP2 MSTORE POP POP DUP2 MSTORE PUSH1 0x20 ADD SWAP1 PUSH1 0x1 ADD SWAP1 PUSH2 0x1CB JUMP JUMPDEST POP POP POP POP SWAP1 POP SWAP1 JUMP JUMPDEST PUSH1 0x60 PUSH0 DUP1 JUMPDEST PUSH1 0x3 DUP1 SLOAD SWAP1 POP DUP2 LT ISZERO PUSH2 0x45F JUMPI DUP4 PUSH20 0xFFFFFFFFFFFFFFFFFFFFFFFFFFFFFFFFFFFFFFFF AND PUSH1 0x3 DUP3 DUP2 SLOAD DUP2 LT PUSH2 0x3FA JUMPI PUSH2 0x3F9 PUSH2 0x17BB JUMP JUMPDEST JUMPDEST SWAP1 PUSH0 MSTORE PUSH1 0x20 PUSH0 KECCAK256 SWAP1 PUSH1 0x4 MUL ADD PUSH0 ADD PUSH0 SWAP1 SLOAD SWAP1 PUSH2 0x100 EXP SWAP1 DIV PUSH20 0xFFFFFFFFFFFFFFFFFFFFFFFFFFFFFFFFFFFFFFFF AND PUSH20 0xFFFFFFFFFFFFFFFFFFFFFFFFFFFFFFFFFFFFFFFF AND SUB PUSH2 0x452 JUMPI DUP2 DUP1 PUSH2 0x44E SWAP1 PUSH2 0x1815 JUMP JUMPDEST SWAP3 POP POP JUMPDEST DUP1 DUP1 PUSH1 0x1 ADD SWAP2 POP POP PUSH2 0x3C2 JUMP JUMPDEST POP PUSH0 DUP2 PUSH8 0xFFFFFFFFFFFFFFFF DUP2 GT ISZERO PUSH2 0x47B JUMPI PUSH2 0x47A PUSH2 0x1576 JUMP JUMPDEST JUMPDEST PUSH1 0x40 MLOAD SWAP1 DUP1 DUP3 MSTORE DUP1 PUSH1 0x20 MUL PUSH1 0x20 ADD DUP3 ADD PUSH1 0x40 MSTORE DUP1 ISZERO PUSH2 0x4B4 JUMPI DUP2 PUSH1 0x20 ADD JUMPDEST PUSH2 0x4A1 PUSH2 0x1102 JUMP JUMPDEST DUP2 MSTORE PUSH1 0x20 ADD SWAP1 PUSH1 0x1 SWAP1 SUB SWAP1 DUP2 PUSH2 0x499 JUMPI SWAP1 POP JUMPDEST POP SWAP1 POP PUSH0 DUP1 JUMPDEST PUSH1 0x3 DUP1 SLOAD SWAP1 POP DUP2 LT ISZERO PUSH2 0x6DE JUMPI DUP6 PUSH20 0xFFFFFFFFFFFFFFFFFFFFFFFFFFFFFFFFFFFFFFFF AND PUSH1 0x3 DUP3 DUP2 SLOAD DUP2 LT PUSH2 0x4F2 JUMPI PUSH2 0x4F1 PUSH2 0x17BB JUMP JUMPDEST JUMPDEST SWAP1 PUSH0 MSTORE PUSH1 0x20 PUSH0 KECCAK256 SWAP1 PUSH1 0x4 MUL ADD PUSH0 ADD PUSH0 SWAP1 SLOAD SWAP1 PUSH2 0x100 EXP SWAP1 DIV PUSH20 0xFFFFFFFFFFFFFFFFFFFFFFFFFFFFFFFFFFFFFFFF AND PUSH20 0xFFFFFFFFFFFFFFFFFFFFFFFFFFFFFFFFFFFFFFFF AND SUB PUSH2 0x6D1 JUMPI PUSH0 PUSH2 0x5EE PUSH1 0x3 DUP4 DUP2 SLOAD DUP2 LT PUSH2 0x553 JUMPI PUSH2 0x552 PUSH2 0x17BB JUMP JUMPDEST JUMPDEST SWAP1 PUSH0 MSTORE PUSH1 0x20 PUSH0 KECCAK256 SWAP1 PUSH1 0x4 MUL ADD PUSH1 0x1 ADD DUP1 SLOAD PUSH2 0x56D SWAP1 PUSH2 0x178B JUMP JUMPDEST DUP1 PUSH1 0x1F ADD PUSH1 0x20 DUP1 SWAP2 DIV MUL PUSH1 0x20 ADD PUSH1 0x40 MLOAD SWAP1 DUP2 ADD PUSH1 0x40 MSTORE DUP1 SWAP3 SWAP2 SWAP1 DUP2 DUP2 MSTORE PUSH1 0x20 ADD DUP3 DUP1 SLOAD PUSH2 0x599 SWAP1 PUSH2 0x178B JUMP JUMPDEST DUP1 ISZERO PUSH2 0x5E4 JUMPI DUP1 PUSH1 0x1F LT PUSH2 0x5BB JUMPI PUSH2 0x100 DUP1 DUP4 SLOAD DIV MUL DUP4 MSTORE SWAP2 PUSH1 0x20 ADD SWAP2 PUSH2 0x5E4 JUMP JUMPDEST DUP3 ADD SWAP2 SWAP1 PUSH0 MSTORE PUSH1 0x20 PUSH0 KECCAK256 SWAP1 JUMPDEST DUP2 SLOAD DUP2 MSTORE SWAP1 PUSH1 0x1 ADD SWAP1 PUSH1 0x20 ADD DUP1 DUP4 GT PUSH2 0x5C7 JUMPI DUP3 SWAP1 SUB PUSH1 0x1F AND DUP3 ADD SWAP2 JUMPDEST POP POP POP POP POP PUSH2 0xE3D JUMP JUMPDEST SWAP1 POP PUSH1 0x40 MLOAD DUP1 PUSH1 0xC0 ADD PUSH1 0x40 MSTORE DUP1 DUP4 DUP2 MSTORE PUSH1 0x20 ADD DUP3 PUSH1 0x40 ADD MLOAD DUP2 MSTORE PUSH1 0x20 ADD DUP3 PUSH1 0x60 ADD MLOAD DUP2 MSTORE PUSH1 0x20 ADD DUP3 PUSH1 0x20 ADD MLOAD DUP2 MSTORE PUSH1 0x20 ADD PUSH1 0x3 DUP5 DUP2 SLOAD DUP2 LT PUSH2 0x633 JUMPI PUSH2 0x632 PUSH2 0x17BB JUMP JUMPDEST JUMPDEST SWAP1 PUSH0 MSTORE PUSH1 0x20 PUSH0 KECCAK256 SWAP1 PUSH1 0x4 MUL ADD PUSH1 0x2 ADD SLOAD DUP2 MSTORE PUSH1 0x20 ADD PUSH1 0x1 DUP1 DUP2 GT ISZERO PUSH2 0x65B JUMPI PUSH2 0x65A PUSH2 0x185C JUMP JUMPDEST JUMPDEST PUSH1 0x3 DUP6 DUP2 SLOAD DUP2 LT PUSH2 0x66F JUMPI PUSH2 0x66E PUSH2 0x17BB JUMP JUMPDEST JUMPDEST SWAP1 PUSH0 MSTORE PUSH1 0x20 PUSH0 KECCAK256 SWAP1 PUSH1 0x4 MUL ADD PUSH1 0x3 ADD PUSH0 SWAP1 SLOAD SWAP1 PUSH2 0x100 EXP SWAP1 DIV PUSH1 0xFF AND PUSH1 0x1 DUP2 GT ISZERO PUSH2 0x69D JUMPI PUSH2 0x69C PUSH2 0x185C JUMP JUMPDEST JUMPDEST EQ ISZERO ISZERO DUP2 MSTORE POP DUP5 DUP5 DUP2 MLOAD DUP2 LT PUSH2 0x6B6 JUMPI PUSH2 0x6B5 PUSH2 0x17BB JUMP JUMPDEST JUMPDEST PUSH1 0x20 MUL PUSH1 0x20 ADD ADD DUP2 SWAP1 MSTORE POP DUP3 DUP1 PUSH2 0x6CC SWAP1 PUSH2 0x1815 JUMP JUMPDEST SWAP4 POP POP POP JUMPDEST DUP1 DUP1 PUSH1 0x1 ADD SWAP2 POP POP PUSH2 0x4BA JUMP JUMPDEST POP DUP2 SWAP4 POP POP POP POP SWAP2 SWAP1 POP JUMP JUMPDEST PUSH0 PUSH1 0x2 PUSH0 CALLER PUSH20 0xFFFFFFFFFFFFFFFFFFFFFFFFFFFFFFFFFFFFFFFF AND PUSH20 0xFFFFFFFFFFFFFFFFFFFFFFFFFFFFFFFFFFFFFFFF AND DUP2 MSTORE PUSH1 0x20 ADD SWAP1 DUP2 MSTORE PUSH1 0x20 ADD PUSH0 KECCAK256 SLOAD SWAP1 POP SWAP1 JUMP JUMPDEST PUSH0 PUSH2 0x738 DUP3 PUSH2 0xE3D JUMP JUMPDEST PUSH1 0x20 ADD MLOAD SWAP1 POP DUP1 PUSH1 0x2 PUSH0 CALLER PUSH20 0xFFFFFFFFFFFFFFFFFFFFFFFFFFFFFFFFFFFFFFFF AND PUSH20 0xFFFFFFFFFFFFFFFFFFFFFFFFFFFFFFFFFFFFFFFF AND DUP2 MSTORE PUSH1 0x20 ADD SWAP1 DUP2 MSTORE PUSH1 0x20 ADD PUSH0 KECCAK256 SLOAD LT ISZERO PUSH2 0x7BE JUMPI PUSH1 0x40 MLOAD PUSH32 0x8C379A000000000000000000000000000000000000000000000000000000000 DUP2 MSTORE PUSH1 0x4 ADD PUSH2 0x7B5 SWAP1 PUSH2 0x18E3 JUMP JUMPDEST PUSH1 0x40 MLOAD DUP1 SWAP2 SUB SWAP1 REVERT JUMPDEST DUP1 PUSH1 0x2 PUSH0 CALLER PUSH20 0xFFFFFFFFFFFFFFFFFFFFFFFFFFFFFFFFFFFFFFFF AND PUSH20 0xFFFFFFFFFFFFFFFFFFFFFFFFFFFFFFFFFFFFFFFF AND DUP2 MSTORE PUSH1 0x20 ADD SWAP1 DUP2 MSTORE PUSH1 0x20 ADD PUSH0 KECCAK256 PUSH0 DUP3 DUP3 SLOAD PUSH2 0x80A SWAP2 SWAP1 PUSH2 0x1901 JUMP JUMPDEST SWAP3 POP POP DUP2 SWAP1 SSTORE POP PUSH1 0x3 PUSH1 0x40 MLOAD DUP1 PUSH1 0x80 ADD PUSH1 0x40 MSTORE DUP1 CALLER PUSH20 0xFFFFFFFFFFFFFFFFFFFFFFFFFFFFFFFFFFFFFFFF AND DUP2 MSTORE PUSH1 0x20 ADD DUP5 DUP2 MSTORE PUSH1 0x20 ADD TIMESTAMP DUP2 MSTORE PUSH1 0x20 ADD PUSH0 PUSH1 0x1 DUP2 GT ISZERO PUSH2 0x859 JUMPI PUSH2 0x858 PUSH2 0x185C JUMP JUMPDEST JUMPDEST DUP2 MSTORE POP SWAP1 DUP1 PUSH1 0x1 DUP2 SLOAD ADD DUP1 DUP3 SSTORE DUP1 SWAP2 POP POP PUSH1 0x1 SWAP1 SUB SWAP1 PUSH0 MSTORE PUSH1 0x20 PUSH0 KECCAK256 SWAP1 PUSH1 0x4 MUL ADD PUSH0 SWAP1 SWAP2 SWAP1 SWAP2 SWAP1 SWAP2 POP PUSH0 DUP3 ADD MLOAD DUP2 PUSH0 ADD PUSH0 PUSH2 0x100 EXP DUP2 SLOAD DUP2 PUSH20 0xFFFFFFFFFFFFFFFFFFFFFFFFFFFFFFFFFFFFFFFF MUL NOT AND SWAP1 DUP4 PUSH20 0xFFFFFFFFFFFFFFFFFFFFFFFFFFFFFFFFFFFFFFFF AND MUL OR SWAP1 SSTORE POP PUSH1 0x20 DUP3 ADD MLOAD DUP2 PUSH1 0x1 ADD SWAP1 DUP2 PUSH2 0x8DB SWAP2 SWAP1 PUSH2 0x1AD1 JUMP JUMPDEST POP PUSH1 0x40 DUP3 ADD MLOAD DUP2 PUSH1 0x2 ADD SSTORE PUSH1 0x60 DUP3 ADD MLOAD DUP2 PUSH1 0x3 ADD PUSH0 PUSH2 0x100 EXP DUP2 SLOAD DUP2 PUSH1 0xFF MUL NOT AND SWAP1 DUP4 PUSH1 0x1 DUP2 GT ISZERO PUSH2 0x910 JUMPI PUSH2 0x90F PUSH2 0x185C JUMP JUMPDEST JUMPDEST MUL OR SWAP1 SSTORE POP POP POP POP POP JUMP JUMPDEST PUSH0 DUP1 SLOAD SWAP1 PUSH2 0x100 EXP SWAP1 DIV PUSH20 0xFFFFFFFFFFFFFFFFFFFFFFFFFFFFFFFFFFFFFFFF AND PUSH20 0xFFFFFFFFFFFFFFFFFFFFFFFFFFFFFFFFFFFFFFFF AND CALLER PUSH20 0xFFFFFFFFFFFFFFFFFFFFFFFFFFFFFFFFFFFFFFFF AND EQ PUSH2 0x9A8 JUMPI PUSH1 0x40 MLOAD PUSH32 0x8C379A000000000000000000000000000000000000000000000000000000000 DUP2 MSTORE PUSH1 0x4 ADD PUSH2 0x99F SWAP1 PUSH2 0x1C10 JUMP JUMPDEST PUSH1 0x40 MLOAD DUP1 SWAP2 SUB SWAP1 REVERT JUMPDEST PUSH0 PUSH1 0x14 SWAP1 SLOAD SWAP1 PUSH2 0x100 EXP SWAP1 DIV PUSH1 0xFF AND ISZERO PUSH2 0x9F7 JUMPI PUSH1 0x40 MLOAD PUSH32 0x8C379A000000000000000000000000000000000000000000000000000000000 DUP2 MSTORE PUSH1 0x4 ADD PUSH2 0x9EE SWAP1 PUSH2 0x1C78 JUMP JUMPDEST PUSH1 0x40 MLOAD DUP1 SWAP2 SUB SWAP1 REVERT JUMPDEST PUSH1 0x1 PUSH0 PUSH1 0x14 PUSH2 0x100 EXP DUP2 SLOAD DUP2 PUSH1 0xFF MUL NOT AND SWAP1 DUP4 ISZERO ISZERO MUL OR SWAP1 SSTORE POP PUSH0 PUSH1 0x2 PUSH0 CALLER PUSH20 0xFFFFFFFFFFFFFFFFFFFFFFFFFFFFFFFFFFFFFFFF AND PUSH20 0xFFFFFFFFFFFFFFFFFFFFFFFFFFFFFFFFFFFFFFFF AND DUP2 MSTORE PUSH1 0x20 ADD SWAP1 DUP2 MSTORE PUSH1 0x20 ADD PUSH0 KECCAK256 SLOAD SWAP1 POP PUSH0 DUP2 GT PUSH2 0xA94 JUMPI PUSH1 0x40 MLOAD PUSH32 0x8C379A000000000000000000000000000000000000000000000000000000000 DUP2 MSTORE PUSH1 0x4 ADD PUSH2 0xA8B SWAP1 PUSH2 0x1CE0 JUMP JUMPDEST PUSH1 0x40 MLOAD DUP1 SWAP2 SUB SWAP1 REVERT JUMPDEST PUSH0 PUSH1 0x2 PUSH0 CALLER PUSH20 0xFFFFFFFFFFFFFFFFFFFFFFFFFFFFFFFFFFFFFFFF AND PUSH20 0xFFFFFFFFFFFFFFFFFFFFFFFFFFFFFFFFFFFFFFFF AND DUP2 MSTORE PUSH1 0x20 ADD SWAP1 DUP2 MSTORE PUSH1 0x20 ADD PUSH0 KECCAK256 DUP2 SWAP1 SSTORE POP PUSH0 CALLER PUSH20 0xFFFFFFFFFFFFFFFFFFFFFFFFFFFFFFFFFFFFFFFF AND DUP3 PUSH1 0x40 MLOAD PUSH2 0xAFB SWAP1 PUSH2 0x1D2B JUMP JUMPDEST PUSH0 PUSH1 0x40 MLOAD DUP1 DUP4 SUB DUP2 DUP6 DUP8 GAS CALL SWAP3 POP POP POP RETURNDATASIZE DUP1 PUSH0 DUP2 EQ PUSH2 0xB35 JUMPI PUSH1 0x40 MLOAD SWAP2 POP PUSH1 0x1F NOT PUSH1 0x3F RETURNDATASIZE ADD AND DUP3 ADD PUSH1 0x40 MSTORE RETURNDATASIZE DUP3 MSTORE RETURNDATASIZE PUSH0 PUSH1 0x20 DUP5 ADD RETURNDATACOPY PUSH2 0xB3A JUMP JUMPDEST PUSH1 0x60 SWAP2 POP JUMPDEST POP POP SWAP1 POP DUP1 PUSH2 0xB7E JUMPI PUSH1 0x40 MLOAD PUSH32 0x8C379A000000000000000000000000000000000000000000000000000000000 DUP2 MSTORE PUSH1 0x4 ADD PUSH2 0xB75 SWAP1 PUSH2 0x1D89 JUMP JUMPDEST PUSH1 0x40 MLOAD DUP1 SWAP2 SUB SWAP1 REVERT JUMPDEST POP POP PUSH0 DUP1 PUSH1 0x14 PUSH2 0x100 EXP DUP2 SLOAD DUP2 PUSH1 0xFF MUL NOT AND SWAP1 DUP4 ISZERO ISZERO MUL OR SWAP1 SSTORE POP JUMP JUMPDEST PUSH0 DUP1 SLOAD SWAP1 PUSH2 0x100 EXP SWAP1 DIV PUSH20 0xFFFFFFFFFFFFFFFFFFFFFFFFFFFFFFFFFFFFFFFF AND DUP2 JUMP JUMPDEST PUSH0 CALLVALUE GT PUSH2 0xC00 JUMPI PUSH1 0x40 MLOAD PUSH32 0x8C379A000000000000000000000000000000000000000000000000000000000 DUP2 MSTORE PUSH1 0x4 ADD PUSH2 0xBF7 SWAP1 PUSH2 0x1DF1 JUMP JUMPDEST PUSH1 0x40 MLOAD DUP1 SWAP2 SUB SWAP1 REVERT JUMPDEST CALLVALUE PUSH1 0x2 PUSH0 CALLER PUSH20 0xFFFFFFFFFFFFFFFFFFFFFFFFFFFFFFFFFFFFFFFF AND PUSH20 0xFFFFFFFFFFFFFFFFFFFFFFFFFFFFFFFFFFFFFFFF AND DUP2 MSTORE PUSH1 0x20 ADD SWAP1 DUP2 MSTORE PUSH1 0x20 ADD PUSH0 KECCAK256 PUSH0 DUP3 DUP3 SLOAD PUSH2 0xC4C SWAP2 SWAP1 PUSH2 0x1E0F JUMP JUMPDEST SWAP3 POP POP DUP2 SWAP1 SSTORE POP JUMP JUMPDEST PUSH1 0x3 DUP1 SLOAD SWAP1 POP DUP2 LT DUP1 PUSH2 0xC6C JUMPI POP PUSH1 0x3 DUP1 SLOAD SWAP1 POP DUP2 GT JUMPDEST PUSH2 0xCAB JUMPI PUSH1 0x40 MLOAD PUSH32 0x8C379A000000000000000000000000000000000000000000000000000000000 DUP2 MSTORE PUSH1 0x4 ADD PUSH2 0xCA2 SWAP1 PUSH2 0x1E8C JUMP JUMPDEST PUSH1 0x40 MLOAD DUP1 SWAP2 SUB SWAP1 REVERT JUMPDEST CALLER PUSH20 0xFFFFFFFFFFFFFFFFFFFFFFFFFFFFFFFFFFFFFFFF AND PUSH1 0x3 DUP3 DUP2 SLOAD DUP2 LT PUSH2 0xCD6 JUMPI PUSH2 0xCD5 PUSH2 0x17BB JUMP JUMPDEST JUMPDEST SWAP1 PUSH0 MSTORE PUSH1 0x20 PUSH0 KECCAK256 SWAP1 PUSH1 0x4 MUL ADD PUSH0 ADD PUSH0 SWAP1 SLOAD SWAP1 PUSH2 0x100 EXP SWAP1 DIV PUSH20 0xFFFFFFFFFFFFFFFFFFFFFFFFFFFFFFFFFFFFFFFF AND PUSH20 0xFFFFFFFFFFFFFFFFFFFFFFFFFFFFFFFFFFFFFFFF AND EQ PUSH2 0xD5A JUMPI PUSH1 0x40 MLOAD PUSH32 0x8C379A000000000000000000000000000000000000000000000000000000000 DUP2 MSTORE PUSH1 0x4 ADD PUSH2 0xD51 SWAP1 PUSH2 0x1EF4 JUMP JUMPDEST PUSH1 0x40 MLOAD DUP1 SWAP2 SUB SWAP1 REVERT JUMPDEST PUSH0 PUSH1 0x1 DUP2 GT ISZERO PUSH2 0xD6D JUMPI PUSH2 0xD6C PUSH2 0x185C JUMP JUMPDEST JUMPDEST PUSH1 0x3 DUP3 DUP2 SLOAD DUP2 LT PUSH2 0xD81 JUMPI PUSH2 0xD80 PUSH2 0x17BB JUMP JUMPDEST JUMPDEST SWAP1 PUSH0 MSTORE PUSH1 0x20 PUSH0 KECCAK256 SWAP1 PUSH1 0x4 MUL ADD PUSH1 0x3 ADD PUSH0 SWAP1 SLOAD SWAP1 PUSH2 0x100 EXP SWAP1 DIV PUSH1 0xFF AND PUSH1 0x1 DUP2 GT ISZERO PUSH2 0xDAF JUMPI PUSH2 0xDAE PUSH2 0x185C JUMP JUMPDEST JUMPDEST EQ PUSH2 0xDEF JUMPI PUSH1 0x40 MLOAD PUSH32 0x8C379A000000000000000000000000000000000000000000000000000000000 DUP2 MSTORE PUSH1 0x4 ADD PUSH2 0xDE6 SWAP1 PUSH2 0x1F5C JUMP JUMPDEST PUSH1 0x40 MLOAD DUP1 SWAP2 SUB SWAP1 REVERT JUMPDEST PUSH1 0x1 PUSH1 0x3 DUP3 DUP2 SLOAD DUP2 LT PUSH2 0xE05 JUMPI PUSH2 0xE04 PUSH2 0x17BB JUMP JUMPDEST JUMPDEST SWAP1 PUSH0 MSTORE PUSH1 0x20 PUSH0 KECCAK256 SWAP1 PUSH1 0x4 MUL ADD PUSH1 0x3 ADD PUSH0 PUSH2 0x100 EXP DUP2 SLOAD DUP2 PUSH1 0xFF MUL NOT AND SWAP1 DUP4 PUSH1 0x1 DUP2 GT ISZERO PUSH2 0xE35 JUMPI PUSH2 0xE34 PUSH2 0x185C JUMP JUMPDEST JUMPDEST MUL OR SWAP1 SSTORE POP POP JUMP JUMPDEST PUSH2 0xE45 PUSH2 0x1136 JUMP JUMPDEST PUSH0 JUMPDEST PUSH1 0x1 DUP1 SLOAD SWAP1 POP DUP2 LT ISZERO PUSH2 0x10C1 JUMPI DUP3 PUSH1 0x40 MLOAD PUSH1 0x20 ADD PUSH2 0xE65 SWAP2 SWAP1 PUSH2 0x1FB4 JUMP JUMPDEST PUSH1 0x40 MLOAD PUSH1 0x20 DUP2 DUP4 SUB SUB DUP2 MSTORE SWAP1 PUSH1 0x40 MSTORE DUP1 MLOAD SWAP1 PUSH1 0x20 ADD KECCAK256 PUSH1 0x1 DUP3 DUP2 SLOAD DUP2 LT PUSH2 0xE8F JUMPI PUSH2 0xE8E PUSH2 0x17BB JUMP JUMPDEST JUMPDEST SWAP1 PUSH0 MSTORE PUSH1 0x20 PUSH0 KECCAK256 SWAP1 PUSH1 0x4 MUL ADD PUSH0 ADD PUSH1 0x40 MLOAD PUSH1 0x20 ADD PUSH2 0xEAD SWAP2 SWAP1 PUSH2 0x204A JUMP JUMPDEST PUSH1 0x40 MLOAD PUSH1 0x20 DUP2 DUP4 SUB SUB DUP2 MSTORE SWAP1 PUSH1 0x40 MSTORE DUP1 MLOAD SWAP1 PUSH1 0x20 ADD KECCAK256 SUB PUSH2 0x10B4 JUMPI PUSH1 0x1 DUP2 DUP2 SLOAD DUP2 LT PUSH2 0xEDC JUMPI PUSH2 0xEDB PUSH2 0x17BB JUMP JUMPDEST JUMPDEST SWAP1 PUSH0 MSTORE PUSH1 0x20 PUSH0 KECCAK256 SWAP1 PUSH1 0x4 MUL ADD PUSH1 0x40 MLOAD DUP1 PUSH1 0x80 ADD PUSH1 0x40 MSTORE SWAP1 DUP2 PUSH0 DUP3 ADD DUP1 SLOAD PUSH2 0xF02 SWAP1 PUSH2 0x178B JUMP JUMPDEST DUP1 PUSH1 0x1F ADD PUSH1 0x20 DUP1 SWAP2 DIV MUL PUSH1 0x20 ADD PUSH1 0x40 MLOAD SWAP1 DUP2 ADD PUSH1 0x40 MSTORE DUP1 SWAP3 SWAP2 SWAP1 DUP2 DUP2 MSTORE PUSH1 0x20 ADD DUP3 DUP1 SLOAD PUSH2 0xF2E SWAP1 PUSH2 0x178B JUMP JUMPDEST DUP1 ISZERO PUSH2 0xF79 JUMPI DUP1 PUSH1 0x1F LT PUSH2 0xF50 JUMPI PUSH2 0x100 DUP1 DUP4 SLOAD DIV MUL DUP4 MSTORE SWAP2 PUSH1 0x20 ADD SWAP2 PUSH2 0xF79 JUMP JUMPDEST DUP3 ADD SWAP2 SWAP1 PUSH0 MSTORE PUSH1 0x20 PUSH0 KECCAK256 SWAP1 JUMPDEST DUP2 SLOAD DUP2 MSTORE SWAP1 PUSH1 0x1 ADD SWAP1 PUSH1 0x20 ADD DUP1 DUP4 GT PUSH2 0xF5C JUMPI DUP3 SWAP1 SUB PUSH1 0x1F AND DUP3 ADD SWAP2 JUMPDEST POP POP POP POP POP DUP2 MSTORE PUSH1 0x20 ADD PUSH1 0x1 DUP3 ADD SLOAD DUP2 MSTORE PUSH1 0x20 ADD PUSH1 0x2 DUP3 ADD DUP1 SLOAD PUSH2 0xF9C SWAP1 PUSH2 0x178B JUMP JUMPDEST DUP1 PUSH1 0x1F ADD PUSH1 0x20 DUP1 SWAP2 DIV MUL PUSH1 0x20 ADD PUSH1 0x40 MLOAD SWAP1 DUP2 ADD PUSH1 0x40 MSTORE DUP1 SWAP3 SWAP2 SWAP1 DUP2 DUP2 MSTORE PUSH1 0x20 ADD DUP3 DUP1 SLOAD PUSH2 0xFC8 SWAP1 PUSH2 0x178B JUMP JUMPDEST DUP1 ISZERO PUSH2 0x1013 JUMPI DUP1 PUSH1 0x1F LT PUSH2 0xFEA JUMPI PUSH2 0x100 DUP1 DUP4 SLOAD DIV MUL DUP4 MSTORE SWAP2 PUSH1 0x20 ADD SWAP2 PUSH2 0x1013 JUMP JUMPDEST DUP3 ADD SWAP2 SWAP1 PUSH0 MSTORE PUSH1 0x20 PUSH0 KECCAK256 SWAP1 JUMPDEST DUP2 SLOAD DUP2 MSTORE SWAP1 PUSH1 0x1 ADD SWAP1 PUSH1 0x20 ADD DUP1 DUP4 GT PUSH2 0xFF6 JUMPI DUP3 SWAP1 SUB PUSH1 0x1F AND DUP3 ADD SWAP2 JUMPDEST POP POP POP POP POP DUP2 MSTORE PUSH1 0x20 ADD PUSH1 0x3 DUP3 ADD DUP1 SLOAD PUSH2 0x102C SWAP1 PUSH2 0x178B JUMP JUMPDEST DUP1 PUSH1 0x1F ADD PUSH1 0x20 DUP1 SWAP2 DIV MUL PUSH1 0x20 ADD PUSH1 0x40 MLOAD SWAP1 DUP2 ADD PUSH1 0x40 MSTORE DUP1 SWAP3 SWAP2 SWAP1 DUP2 DUP2 MSTORE PUSH1 0x20 ADD DUP3 DUP1 SLOAD PUSH2 0x1058 SWAP1 PUSH2 0x178B JUMP JUMPDEST DUP1 ISZERO PUSH2 0x10A3 JUMPI DUP1 PUSH1 0x1F LT PUSH2 0x107A JUMPI PUSH2 0x100 DUP1 DUP4 SLOAD DIV MUL DUP4 MSTORE SWAP2 PUSH1 0x20 ADD SWAP2 PUSH2 0x10A3 JUMP JUMPDEST DUP3 ADD SWAP2 SWAP1 PUSH0 MSTORE PUSH1 0x20 PUSH0 KECCAK256 SWAP1 JUMPDEST DUP2 SLOAD DUP2 MSTORE SWAP1 PUSH1 0x1 ADD SWAP1 PUSH1 0x20 ADD DUP1 DUP4 GT PUSH2 0x1086 JUMPI DUP3 SWAP1 SUB PUSH1 0x1F AND DUP3 ADD SWAP2 JUMPDEST POP POP POP POP POP DUP2 MSTORE POP POP SWAP2 POP POP PUSH2 0x10FD JUMP JUMPDEST DUP1 DUP1 PUSH1 0x1 ADD SWAP2 POP POP PUSH2 0xE47 JUMP JUMPDEST POP PUSH1 0x40 MLOAD PUSH32 0x8C379A000000000000000000000000000000000000000000000000000000000 DUP2 MSTORE PUSH1 0x4 ADD PUSH2 0x10F4 SWAP1 PUSH2 0x20AA JUMP JUMPDEST PUSH1 0x40 MLOAD DUP1 SWAP2 SUB SWAP1 REVERT JUMPDEST SWAP2 SWAP1 POP JUMP JUMPDEST PUSH1 0x40 MLOAD DUP1 PUSH1 0xC0 ADD PUSH1 0x40 MSTORE DUP1 PUSH0 DUP2 MSTORE PUSH1 0x20 ADD PUSH1 0x60 DUP2 MSTORE PUSH1 0x20 ADD PUSH1 0x60 DUP2 MSTORE PUSH1 0x20 ADD PUSH0 DUP2 MSTORE PUSH1 0x20 ADD PUSH0 DUP2 MSTORE PUSH1 0x20 ADD PUSH0 ISZERO ISZERO DUP2 MSTORE POP SWAP1 JUMP JUMPDEST PUSH1 0x40 MLOAD DUP1 PUSH1 0x80 ADD PUSH1 0x40 MSTORE DUP1 PUSH1 0x60 DUP2 MSTORE PUSH1 0x20 ADD PUSH0 DUP2 MSTORE PUSH1 0x20 ADD PUSH1 0x60 DUP2 MSTORE PUSH1 0x20 ADD PUSH1 0x60 DUP2 MSTORE POP SWAP1 JUMP JUMPDEST PUSH0 DUP2 MLOAD SWAP1 POP SWAP2 SWAP1 POP JUMP JUMPDEST PUSH0 DUP3 DUP3 MSTORE PUSH1 0x20 DUP3 ADD SWAP1 POP SWAP3 SWAP2 POP POP JUMP JUMPDEST PUSH0 DUP2 SWAP1 POP PUSH1 0x20 DUP3 ADD SWAP1 POP SWAP2 SWAP1 POP JUMP JUMPDEST PUSH0 DUP2 MLOAD SWAP1 POP SWAP2 SWAP1 POP JUMP JUMPDEST PUSH0 DUP3 DUP3 MSTORE PUSH1 0x20 DUP3 ADD SWAP1 POP SWAP3 SWAP2 POP POP JUMP JUMPDEST DUP3 DUP2 DUP4 MCOPY PUSH0 DUP4 DUP4 ADD MSTORE POP POP POP JUMP JUMPDEST PUSH0 PUSH1 0x1F NOT PUSH1 0x1F DUP4 ADD AND SWAP1 POP SWAP2 SWAP1 POP JUMP JUMPDEST PUSH0 PUSH2 0x11C8 DUP3 PUSH2 0x1186 JUMP JUMPDEST PUSH2 0x11D2 DUP2 DUP6 PUSH2 0x1190 JUMP JUMPDEST SWAP4 POP PUSH2 0x11E2 DUP2 DUP6 PUSH1 0x20 DUP7 ADD PUSH2 0x11A0 JUMP JUMPDEST PUSH2 0x11EB DUP2 PUSH2 0x11AE JUMP JUMPDEST DUP5 ADD SWAP2 POP POP SWAP3 SWAP2 POP POP JUMP JUMPDEST PUSH0 DUP2 SWAP1 POP SWAP2 SWAP1 POP JUMP JUMPDEST PUSH2 0x1208 DUP2 PUSH2 0x11F6 JUMP JUMPDEST DUP3 MSTORE POP POP JUMP JUMPDEST PUSH0 PUSH1 0x80 DUP4 ADD PUSH0 DUP4 ADD MLOAD DUP5 DUP3 SUB PUSH0 DUP7 ADD MSTORE PUSH2 0x1228 DUP3 DUP3 PUSH2 0x11BE JUMP JUMPDEST SWAP2 POP POP PUSH1 0x20 DUP4 ADD MLOAD PUSH2 0x123D PUSH1 0x20 DUP7 ADD DUP3 PUSH2 0x11FF JUMP JUMPDEST POP PUSH1 0x40 DUP4 ADD MLOAD DUP5 DUP3 SUB PUSH1 0x40 DUP7 ADD MSTORE PUSH2 0x1255 DUP3 DUP3 PUSH2 0x11BE JUMP JUMPDEST SWAP2 POP POP PUSH1 0x60 DUP4 ADD MLOAD DUP5 DUP3 SUB PUSH1 0x60 DUP7 ADD MSTORE PUSH2 0x126F DUP3 DUP3 PUSH2 0x11BE JUMP JUMPDEST SWAP2 POP POP DUP1 SWAP2 POP POP SWAP3 SWAP2 POP POP JUMP JUMPDEST PUSH0 PUSH2 0x1287 DUP4 DUP4 PUSH2 0x120E JUMP JUMPDEST SWAP1 POP SWAP3 SWAP2 POP POP JUMP JUMPDEST PUSH0 PUSH1 0x20 DUP3 ADD SWAP1 POP SWAP2 SWAP1 POP JUMP JUMPDEST PUSH0 PUSH2 0x12A5 DUP3 PUSH2 0x115D JUMP JUMPDEST PUSH2 0x12AF DUP2 DUP6 PUSH2 0x1167 JUMP JUMPDEST SWAP4 POP DUP4 PUSH1 0x20 DUP3 MUL DUP6 ADD PUSH2 0x12C1 DUP6 PUSH2 0x1177 JUMP JUMPDEST DUP1 PUSH0 JUMPDEST DUP6 DUP2 LT ISZERO PUSH2 0x12FC JUMPI DUP5 DUP5 SUB DUP10 MSTORE DUP2 MLOAD PUSH2 0x12DD DUP6 DUP3 PUSH2 0x127C JUMP JUMPDEST SWAP5 POP PUSH2 0x12E8 DUP4 PUSH2 0x128F JUMP JUMPDEST SWAP3 POP PUSH1 0x20 DUP11 ADD SWAP10 POP POP PUSH1 0x1 DUP2 ADD SWAP1 POP PUSH2 0x12C4 JUMP JUMPDEST POP DUP3 SWAP8 POP DUP8 SWAP6 POP POP POP POP POP POP SWAP3 SWAP2 POP POP JUMP JUMPDEST PUSH0 PUSH1 0x20 DUP3 ADD SWAP1 POP DUP2 DUP2 SUB PUSH0 DUP4 ADD MSTORE PUSH2 0x1326 DUP2 DUP5 PUSH2 0x129B JUMP JUMPDEST SWAP1 POP SWAP3 SWAP2 POP POP JUMP JUMPDEST PUSH0 PUSH1 0x40 MLOAD SWAP1 POP SWAP1 JUMP JUMPDEST PUSH0 DUP1 REVERT JUMPDEST PUSH0 DUP1 REVERT JUMPDEST PUSH0 PUSH20 0xFFFFFFFFFFFFFFFFFFFFFFFFFFFFFFFFFFFFFFFF DUP3 AND SWAP1 POP SWAP2 SWAP1 POP JUMP JUMPDEST PUSH0 PUSH2 0x1368 DUP3 PUSH2 0x133F JUMP JUMPDEST SWAP1 POP SWAP2 SWAP1 POP JUMP JUMPDEST PUSH2 0x1378 DUP2 PUSH2 0x135E JUMP JUMPDEST DUP2 EQ PUSH2 0x1382 JUMPI PUSH0 DUP1 REVERT JUMPDEST POP JUMP JUMPDEST PUSH0 DUP2 CALLDATALOAD SWAP1 POP PUSH2 0x1393 DUP2 PUSH2 0x136F JUMP JUMPDEST SWAP3 SWAP2 POP POP JUMP JUMPDEST PUSH0 PUSH1 0x20 DUP3 DUP5 SUB SLT ISZERO PUSH2 0x13AE JUMPI PUSH2 0x13AD PUSH2 0x1337 JUMP JUMPDEST JUMPDEST PUSH0 PUSH2 0x13BB DUP5 DUP3 DUP6 ADD PUSH2 0x1385 JUMP JUMPDEST SWAP2 POP POP SWAP3 SWAP2 POP POP JUMP JUMPDEST PUSH0 DUP2 MLOAD SWAP1 POP SWAP2 SWAP1 POP JUMP JUMPDEST PUSH0 DUP3 DUP3 MSTORE PUSH1 0x20 DUP3 ADD SWAP1 POP SWAP3 SWAP2 POP POP JUMP JUMPDEST PUSH0 DUP2 SWAP1 POP PUSH1 0x20 DUP3 ADD SWAP1 POP SWAP2 SWAP1 POP JUMP JUMPDEST PUSH0 DUP2 ISZERO ISZERO SWAP1 POP SWAP2 SWAP1 POP JUMP JUMPDEST PUSH2 0x1401 DUP2 PUSH2 0x13ED JUMP JUMPDEST DUP3 MSTORE POP POP JUMP JUMPDEST PUSH0 PUSH1 0xC0 DUP4 ADD PUSH0 DUP4 ADD MLOAD PUSH2 0x141C PUSH0 DUP7 ADD DUP3 PUSH2 0x11FF JUMP JUMPDEST POP PUSH1 0x20 DUP4 ADD MLOAD DUP5 DUP3 SUB PUSH1 0x20 DUP7 ADD MSTORE PUSH2 0x1434 DUP3 DUP3 PUSH2 0x11BE JUMP JUMPDEST SWAP2 POP POP PUSH1 0x40 DUP4 ADD MLOAD DUP5 DUP3 SUB PUSH1 0x40 DUP7 ADD MSTORE PUSH2 0x144E DUP3 DUP3 PUSH2 0x11BE JUMP JUMPDEST SWAP2 POP POP PUSH1 0x60 DUP4 ADD MLOAD PUSH2 0x1463 PUSH1 0x60 DUP7 ADD DUP3 PUSH2 0x11FF JUMP JUMPDEST POP PUSH1 0x80 DUP4 ADD MLOAD PUSH2 0x1476 PUSH1 0x80 DUP7 ADD DUP3 PUSH2 0x11FF JUMP JUMPDEST POP PUSH1 0xA0 DUP4 ADD MLOAD PUSH2 0x1489 PUSH1 0xA0 DUP7 ADD DUP3 PUSH2 0x13F8 JUMP JUMPDEST POP DUP1 SWAP2 POP POP SWAP3 SWAP2 POP POP JUMP JUMPDEST PUSH0 PUSH2 0x149F DUP4 DUP4 PUSH2 0x1407 JUMP JUMPDEST SWAP1 POP SWAP3 SWAP2 POP POP JUMP JUMPDEST PUSH0 PUSH1 0x20 DUP3 ADD SWAP1 POP SWAP2 SWAP1 POP JUMP JUMPDEST PUSH0 PUSH2 0x14BD DUP3 PUSH2 0x13C4 JUMP JUMPDEST PUSH2 0x14C7 DUP2 DUP6 PUSH2 0x13CE JUMP JUMPDEST SWAP4 POP DUP4 PUSH1 0x20 DUP3 MUL DUP6 ADD PUSH2 0x14D9 DUP6 PUSH2 0x13DE JUMP JUMPDEST DUP1 PUSH0 JUMPDEST DUP6 DUP2 LT ISZERO PUSH2 0x1514 JUMPI DUP5 DUP5 SUB DUP10 MSTORE DUP2 MLOAD PUSH2 0x14F5 DUP6 DUP3 PUSH2 0x1494 JUMP JUMPDEST SWAP5 POP PUSH2 0x1500 DUP4 PUSH2 0x14A7 JUMP JUMPDEST SWAP3 POP PUSH1 0x20 DUP11 ADD SWAP10 POP POP PUSH1 0x1 DUP2 ADD SWAP1 POP PUSH2 0x14DC JUMP JUMPDEST POP DUP3 SWAP8 POP DUP8 SWAP6 POP POP POP POP POP POP SWAP3 SWAP2 POP POP JUMP JUMPDEST PUSH0 PUSH1 0x20 DUP3 ADD SWAP1 POP DUP2 DUP2 SUB PUSH0 DUP4 ADD MSTORE PUSH2 0x153E DUP2 DUP5 PUSH2 0x14B3 JUMP JUMPDEST SWAP1 POP SWAP3 SWAP2 POP POP JUMP JUMPDEST PUSH2 0x154F DUP2 PUSH2 0x11F6 JUMP JUMPDEST DUP3 MSTORE POP POP JUMP JUMPDEST PUSH0 PUSH1 0x20 DUP3 ADD SWAP1 POP PUSH2 0x1568 PUSH0 DUP4 ADD DUP5 PUSH2 0x1546 JUMP JUMPDEST SWAP3 SWAP2 POP POP JUMP JUMPDEST PUSH0 DUP1 REVERT JUMPDEST PUSH0 DUP1 REVERT JUMPDEST PUSH32 0x4E487B7100000000000000000000000000000000000000000000000000000000 PUSH0 MSTORE PUSH1 0x41 PUSH1 0x4 MSTORE PUSH1 0x24 PUSH0 REVERT JUMPDEST PUSH2 0x15AC DUP3 PUSH2 0x11AE JUMP JUMPDEST DUP2 ADD DUP2 DUP2 LT PUSH8 0xFFFFFFFFFFFFFFFF DUP3 GT OR ISZERO PUSH2 0x15CB JUMPI PUSH2 0x15CA PUSH2 0x1576 JUMP JUMPDEST JUMPDEST DUP1 PUSH1 0x40 MSTORE POP POP POP JUMP JUMPDEST PUSH0 PUSH2 0x15DD PUSH2 0x132E JUMP JUMPDEST SWAP1 POP PUSH2 0x15E9 DUP3 DUP3 PUSH2 0x15A3 JUMP JUMPDEST SWAP2 SWAP1 POP JUMP JUMPDEST PUSH0 PUSH8 0xFFFFFFFFFFFFFFFF DUP3 GT ISZERO PUSH2 0x1608 JUMPI PUSH2 0x1607 PUSH2 0x1576 JUMP JUMPDEST JUMPDEST PUSH2 0x1611 DUP3 PUSH2 0x11AE JUMP JUMPDEST SWAP1 POP PUSH1 0x20 DUP2 ADD SWAP1 POP SWAP2 SWAP1 POP JUMP JUMPDEST DUP3 DUP2 DUP4 CALLDATACOPY PUSH0 DUP4 DUP4 ADD MSTORE POP POP POP JUMP JUMPDEST PUSH0 PUSH2 0x163E PUSH2 0x1639 DUP5 PUSH2 0x15EE JUMP JUMPDEST PUSH2 0x15D4 JUMP JUMPDEST SWAP1 POP DUP3 DUP2 MSTORE PUSH1 0x20 DUP2 ADD DUP5 DUP5 DUP5 ADD GT ISZERO PUSH2 0x165A JUMPI PUSH2 0x1659 PUSH2 0x1572 JUMP JUMPDEST JUMPDEST PUSH2 0x1665 DUP5 DUP3 DUP6 PUSH2 0x161E JUMP JUMPDEST POP SWAP4 SWAP3 POP POP POP JUMP JUMPDEST PUSH0 DUP3 PUSH1 0x1F DUP4 ADD SLT PUSH2 0x1681 JUMPI PUSH2 0x1680 PUSH2 0x156E JUMP JUMPDEST JUMPDEST DUP2 CALLDATALOAD PUSH2 0x1691 DUP5 DUP3 PUSH1 0x20 DUP7 ADD PUSH2 0x162C JUMP JUMPDEST SWAP2 POP POP SWAP3 SWAP2 POP POP JUMP JUMPDEST PUSH0 PUSH1 0x20 DUP3 DUP5 SUB SLT ISZERO PUSH2 0x16AF JUMPI PUSH2 0x16AE PUSH2 0x1337 JUMP JUMPDEST JUMPDEST PUSH0 DUP3 ADD CALLDATALOAD PUSH8 0xFFFFFFFFFFFFFFFF DUP2 GT ISZERO PUSH2 0x16CC JUMPI PUSH2 0x16CB PUSH2 0x133B JUMP JUMPDEST JUMPDEST PUSH2 0x16D8 DUP5 DUP3 DUP6 ADD PUSH2 0x166D JUMP JUMPDEST SWAP2 POP POP SWAP3 SWAP2 POP POP JUMP JUMPDEST PUSH2 0x16EA DUP2 PUSH2 0x135E JUMP JUMPDEST DUP3 MSTORE POP POP JUMP JUMPDEST PUSH0 PUSH1 0x20 DUP3 ADD SWAP1 POP PUSH2 0x1703 PUSH0 DUP4 ADD DUP5 PUSH2 0x16E1 JUMP JUMPDEST SWAP3 SWAP2 POP POP JUMP JUMPDEST PUSH2 0x1712 DUP2 PUSH2 0x11F6 JUMP JUMPDEST DUP2 EQ PUSH2 0x171C JUMPI PUSH0 DUP1 REVERT JUMPDEST POP JUMP JUMPDEST PUSH0 DUP2 CALLDATALOAD SWAP1 POP PUSH2 0x172D DUP2 PUSH2 0x1709 JUMP JUMPDEST SWAP3 SWAP2 POP POP JUMP JUMPDEST PUSH0 PUSH1 0x20 DUP3 DUP5 SUB SLT ISZERO PUSH2 0x1748 JUMPI PUSH2 0x1747 PUSH2 0x1337 JUMP JUMPDEST JUMPDEST PUSH0 PUSH2 0x1755 DUP5 DUP3 DUP6 ADD PUSH2 0x171F JUMP JUMPDEST SWAP2 POP POP SWAP3 SWAP2 POP POP JUMP JUMPDEST PUSH32 0x4E487B7100000000000000000000000000000000000000000000000000000000 PUSH0 MSTORE PUSH1 0x22 PUSH1 0x4 MSTORE PUSH1 0x24 PUSH0 REVERT JUMPDEST PUSH0 PUSH1 0x2 DUP3 DIV SWAP1 POP PUSH1 0x1 DUP3 AND DUP1 PUSH2 0x17A2 JUMPI PUSH1 0x7F DUP3 AND SWAP2 POP JUMPDEST PUSH1 0x20 DUP3 LT DUP2 SUB PUSH2 0x17B5 JUMPI PUSH2 0x17B4 PUSH2 0x175E JUMP JUMPDEST JUMPDEST POP SWAP2 SWAP1 POP JUMP JUMPDEST PUSH32 0x4E487B7100000000000000000000000000000000000000000000000000000000 PUSH0 MSTORE PUSH1 0x32 PUSH1 0x4 MSTORE PUSH1 0x24 PUSH0 REVERT JUMPDEST PUSH32 0x4E487B7100000000000000000000000000000000000000000000000000000000 PUSH0 MSTORE PUSH1 0x11 PUSH1 0x4 MSTORE PUSH1 0x24 PUSH0 REVERT JUMPDEST PUSH0 PUSH2 0x181F DUP3 PUSH2 0x11F6 JUMP JUMPDEST SWAP2 POP PUSH32 0xFFFFFFFFFFFFFFFFFFFFFFFFFFFFFFFFFFFFFFFFFFFFFFFFFFFFFFFFFFFFFFFF DUP3 SUB PUSH2 0x1851 JUMPI PUSH2 0x1850 PUSH2 0x17E8 JUMP JUMPDEST JUMPDEST PUSH1 0x1 DUP3 ADD SWAP1 POP SWAP2 SWAP1 POP JUMP JUMPDEST PUSH32 0x4E487B7100000000000000000000000000000000000000000000000000000000 PUSH0 MSTORE PUSH1 0x21 PUSH1 0x4 MSTORE PUSH1 0x24 PUSH0 REVERT JUMPDEST PUSH0 DUP3 DUP3 MSTORE PUSH1 0x20 DUP3 ADD SWAP1 POP SWAP3 SWAP2 POP POP JUMP JUMPDEST PUSH32 0x496E73756666696369656E742066756E64730000000000000000000000000000 PUSH0 DUP3 ADD MSTORE POP JUMP JUMPDEST PUSH0 PUSH2 0x18CD PUSH1 0x12 DUP4 PUSH2 0x1889 JUMP JUMPDEST SWAP2 POP PUSH2 0x18D8 DUP3 PUSH2 0x1899 JUMP JUMPDEST PUSH1 0x20 DUP3 ADD SWAP1 POP SWAP2 SWAP1 POP JUMP JUMPDEST PUSH0 PUSH1 0x20 DUP3 ADD SWAP1 POP DUP2 DUP2 SUB PUSH0 DUP4 ADD MSTORE PUSH2 0x18FA DUP2 PUSH2 0x18C1 JUMP JUMPDEST SWAP1 POP SWAP2 SWAP1 POP JUMP JUMPDEST PUSH0 PUSH2 0x190B DUP3 PUSH2 0x11F6 JUMP JUMPDEST SWAP2 POP PUSH2 0x1916 DUP4 PUSH2 0x11F6 JUMP JUMPDEST SWAP3 POP DUP3 DUP3 SUB SWAP1 POP DUP2 DUP2 GT ISZERO PUSH2 0x192E JUMPI PUSH2 0x192D PUSH2 0x17E8 JUMP JUMPDEST JUMPDEST SWAP3 SWAP2 POP POP JUMP JUMPDEST PUSH0 DUP2 SWAP1 POP DUP2 PUSH0 MSTORE PUSH1 0x20 PUSH0 KECCAK256 SWAP1 POP SWAP2 SWAP1 POP JUMP JUMPDEST PUSH0 PUSH1 0x20 PUSH1 0x1F DUP4 ADD DIV SWAP1 POP SWAP2 SWAP1 POP JUMP JUMPDEST PUSH0 DUP3 DUP3 SHL SWAP1 POP SWAP3 SWAP2 POP POP JUMP JUMPDEST PUSH0 PUSH1 0x8 DUP4 MUL PUSH2 0x1990 PUSH32 0xFFFFFFFFFFFFFFFFFFFFFFFFFFFFFFFFFFFFFFFFFFFFFFFFFFFFFFFFFFFFFFFF DUP3 PUSH2 0x1955 JUMP JUMPDEST PUSH2 0x199A DUP7 DUP4 PUSH2 0x1955 JUMP JUMPDEST SWAP6 POP DUP1 NOT DUP5 AND SWAP4 POP DUP1 DUP7 AND DUP5 OR SWAP3 POP POP POP SWAP4 SWAP3 POP POP POP JUMP JUMPDEST PUSH0 DUP2 SWAP1 POP SWAP2 SWAP1 POP JUMP JUMPDEST PUSH0 PUSH2 0x19D5 PUSH2 0x19D0 PUSH2 0x19CB DUP5 PUSH2 0x11F6 JUMP JUMPDEST PUSH2 0x19B2 JUMP JUMPDEST PUSH2 0x11F6 JUMP JUMPDEST SWAP1 POP SWAP2 SWAP1 POP JUMP JUMPDEST PUSH0 DUP2 SWAP1 POP SWAP2 SWAP1 POP JUMP JUMPDEST PUSH2 0x19EE DUP4 PUSH2 0x19BB JUMP JUMPDEST PUSH2 0x1A02 PUSH2 0x19FA DUP3 PUSH2 0x19DC JUMP JUMPDEST DUP5 DUP5 SLOAD PUSH2 0x1961 JUMP JUMPDEST DUP3 SSTORE POP POP POP POP JUMP JUMPDEST PUSH0 SWAP1 JUMP JUMPDEST PUSH2 0x1A16 PUSH2 0x1A0A JUMP JUMPDEST PUSH2 0x1A21 DUP2 DUP5 DUP5 PUSH2 0x19E5 JUMP JUMPDEST POP POP POP JUMP JUMPDEST JUMPDEST DUP2 DUP2 LT ISZERO PUSH2 0x1A44 JUMPI PUSH2 0x1A39 PUSH0 DUP3 PUSH2 0x1A0E JUMP JUMPDEST PUSH1 0x1 DUP2 ADD SWAP1 POP PUSH2 0x1A27 JUMP JUMPDEST POP POP JUMP JUMPDEST PUSH1 0x1F DUP3 GT ISZERO PUSH2 0x1A89 JUMPI PUSH2 0x1A5A DUP2 PUSH2 0x1934 JUMP JUMPDEST PUSH2 0x1A63 DUP5 PUSH2 0x1946 JUMP JUMPDEST DUP2 ADD PUSH1 0x20 DUP6 LT ISZERO PUSH2 0x1A72 JUMPI DUP2 SWAP1 POP JUMPDEST PUSH2 0x1A86 PUSH2 0x1A7E DUP6 PUSH2 0x1946 JUMP JUMPDEST DUP4 ADD DUP3 PUSH2 0x1A26 JUMP JUMPDEST POP POP JUMPDEST POP POP POP JUMP JUMPDEST PUSH0 DUP3 DUP3 SHR SWAP1 POP SWAP3 SWAP2 POP POP JUMP JUMPDEST PUSH0 PUSH2 0x1AA9 PUSH0 NOT DUP5 PUSH1 0x8 MUL PUSH2 0x1A8E JUMP JUMPDEST NOT DUP1 DUP4 AND SWAP2 POP POP SWAP3 SWAP2 POP POP JUMP JUMPDEST PUSH0 PUSH2 0x1AC1 DUP4 DUP4 PUSH2 0x1A9A JUMP JUMPDEST SWAP2 POP DUP3 PUSH1 0x2 MUL DUP3 OR SWAP1 POP SWAP3 SWAP2 POP POP JUMP JUMPDEST PUSH2 0x1ADA DUP3 PUSH2 0x1186 JUMP JUMPDEST PUSH8 0xFFFFFFFFFFFFFFFF DUP2 GT ISZERO PUSH2 0x1AF3 JUMPI PUSH2 0x1AF2 PUSH2 0x1576 JUMP JUMPDEST JUMPDEST PUSH2 0x1AFD DUP3 SLOAD PUSH2 0x178B JUMP JUMPDEST PUSH2 0x1B08 DUP3 DUP3 DUP6 PUSH2 0x1A48 JUMP JUMPDEST PUSH0 PUSH1 0x20 SWAP1 POP PUSH1 0x1F DUP4 GT PUSH1 0x1 DUP2 EQ PUSH2 0x1B39 JUMPI PUSH0 DUP5 ISZERO PUSH2 0x1B27 JUMPI DUP3 DUP8 ADD MLOAD SWAP1 POP JUMPDEST PUSH2 0x1B31 DUP6 DUP3 PUSH2 0x1AB6 JUMP JUMPDEST DUP7 SSTORE POP PUSH2 0x1B98 JUMP JUMPDEST PUSH1 0x1F NOT DUP5 AND PUSH2 0x1B47 DUP7 PUSH2 0x1934 JUMP JUMPDEST PUSH0 JUMPDEST DUP3 DUP2 LT ISZERO PUSH2 0x1B6E JUMPI DUP5 DUP10 ADD MLOAD DUP3 SSTORE PUSH1 0x1 DUP3 ADD SWAP2 POP PUSH1 0x20 DUP6 ADD SWAP5 POP PUSH1 0x20 DUP2 ADD SWAP1 POP PUSH2 0x1B49 JUMP JUMPDEST DUP7 DUP4 LT ISZERO PUSH2 0x1B8B JUMPI DUP5 DUP10 ADD MLOAD PUSH2 0x1B87 PUSH1 0x1F DUP10 AND DUP3 PUSH2 0x1A9A JUMP JUMPDEST DUP4 SSTORE POP JUMPDEST PUSH1 0x1 PUSH1 0x2 DUP9 MUL ADD DUP9 SSTORE POP POP POP JUMPDEST POP POP POP POP POP POP JUMP JUMPDEST PUSH32 0x4F6E6C79206F776E65722063616E2063616C6C20746869732066756E6374696F PUSH0 DUP3 ADD MSTORE PUSH32 0x6E00000000000000000000000000000000000000000000000000000000000000 PUSH1 0x20 DUP3 ADD MSTORE POP JUMP JUMPDEST PUSH0 PUSH2 0x1BFA PUSH1 0x21 DUP4 PUSH2 0x1889 JUMP JUMPDEST SWAP2 POP PUSH2 0x1C05 DUP3 PUSH2 0x1BA0 JUMP JUMPDEST PUSH1 0x40 DUP3 ADD SWAP1 POP SWAP2 SWAP1 POP JUMP JUMPDEST PUSH0 PUSH1 0x20 DUP3 ADD SWAP1 POP DUP2 DUP2 SUB PUSH0 DUP4 ADD MSTORE PUSH2 0x1C27 DUP2 PUSH2 0x1BEE JUMP JUMPDEST SWAP1 POP SWAP2 SWAP1 POP JUMP JUMPDEST PUSH32 0x4E6F207265656E7472616E637900000000000000000000000000000000000000 PUSH0 DUP3 ADD MSTORE POP JUMP JUMPDEST PUSH0 PUSH2 0x1C62 PUSH1 0xD DUP4 PUSH2 0x1889 JUMP JUMPDEST SWAP2 POP PUSH2 0x1C6D DUP3 PUSH2 0x1C2E JUMP JUMPDEST PUSH1 0x20 DUP3 ADD SWAP1 POP SWAP2 SWAP1 POP JUMP JUMPDEST PUSH0 PUSH1 0x20 DUP3 ADD SWAP1 POP DUP2 DUP2 SUB PUSH0 DUP4 ADD MSTORE PUSH2 0x1C8F DUP2 PUSH2 0x1C56 JUMP JUMPDEST SWAP1 POP SWAP2 SWAP1 POP JUMP JUMPDEST PUSH32 0x596F7520646F206E6F74206861766520616E792062616C616E63652E00000000 PUSH0 DUP3 ADD MSTORE POP JUMP JUMPDEST PUSH0 PUSH2 0x1CCA PUSH1 0x1C DUP4 PUSH2 0x1889 JUMP JUMPDEST SWAP2 POP PUSH2 0x1CD5 DUP3 PUSH2 0x1C96 JUMP JUMPDEST PUSH1 0x20 DUP3 ADD SWAP1 POP SWAP2 SWAP1 POP JUMP JUMPDEST PUSH0 PUSH1 0x20 DUP3 ADD SWAP1 POP DUP2 DUP2 SUB PUSH0 DUP4 ADD MSTORE PUSH2 0x1CF7 DUP2 PUSH2 0x1CBE JUMP JUMPDEST SWAP1 POP SWAP2 SWAP1 POP JUMP JUMPDEST PUSH0 DUP2 SWAP1 POP SWAP3 SWAP2 POP POP JUMP JUMPDEST POP JUMP JUMPDEST PUSH0 PUSH2 0x1D16 PUSH0 DUP4 PUSH2 0x1CFE JUMP JUMPDEST SWAP2 POP PUSH2 0x1D21 DUP3 PUSH2 0x1D08 JUMP JUMPDEST PUSH0 DUP3 ADD SWAP1 POP SWAP2 SWAP1 POP JUMP JUMPDEST PUSH0 PUSH2 0x1D35 DUP3 PUSH2 0x1D0B JUMP JUMPDEST SWAP2 POP DUP2 SWAP1 POP SWAP2 SWAP1 POP JUMP JUMPDEST PUSH32 0x5472616E73666572206661696C65642E00000000000000000000000000000000 PUSH0 DUP3 ADD MSTORE POP JUMP JUMPDEST PUSH0 PUSH2 0x1D73 PUSH1 0x10 DUP4 PUSH2 0x1889 JUMP JUMPDEST SWAP2 POP PUSH2 0x1D7E DUP3 PUSH2 0x1D3F JUMP JUMPDEST PUSH1 0x20 DUP3 ADD SWAP1 POP SWAP2 SWAP1 POP JUMP JUMPDEST PUSH0 PUSH1 0x20 DUP3 ADD SWAP1 POP DUP2 DUP2 SUB PUSH0 DUP4 ADD MSTORE PUSH2 0x1DA0 DUP2 PUSH2 0x1D67 JUMP JUMPDEST SWAP1 POP SWAP2 SWAP1 POP JUMP JUMPDEST PUSH32 0x4D697373696E6720726571756972656420616D6F756E74000000000000000000 PUSH0 DUP3 ADD MSTORE POP JUMP JUMPDEST PUSH0 PUSH2 0x1DDB PUSH1 0x17 DUP4 PUSH2 0x1889 JUMP JUMPDEST SWAP2 POP PUSH2 0x1DE6 DUP3 PUSH2 0x1DA7 JUMP JUMPDEST PUSH1 0x20 DUP3 ADD SWAP1 POP SWAP2 SWAP1 POP JUMP JUMPDEST PUSH0 PUSH1 0x20 DUP3 ADD SWAP1 POP DUP2 DUP2 SUB PUSH0 DUP4 ADD MSTORE PUSH2 0x1E08 DUP2 PUSH2 0x1DCF JUMP JUMPDEST SWAP1 POP SWAP2 SWAP1 POP JUMP JUMPDEST PUSH0 PUSH2 0x1E19 DUP3 PUSH2 0x11F6 JUMP JUMPDEST SWAP2 POP PUSH2 0x1E24 DUP4 PUSH2 0x11F6 JUMP JUMPDEST SWAP3 POP DUP3 DUP3 ADD SWAP1 POP DUP1 DUP3 GT ISZERO PUSH2 0x1E3C JUMPI PUSH2 0x1E3B PUSH2 0x17E8 JUMP JUMPDEST JUMPDEST SWAP3 SWAP2 POP POP JUMP JUMPDEST PUSH32 0x496E76616C696420707572636861736520696E64657800000000000000000000 PUSH0 DUP3 ADD MSTORE POP JUMP JUMPDEST PUSH0 PUSH2 0x1E76 PUSH1 0x16 DUP4 PUSH2 0x1889 JUMP JUMPDEST SWAP2 POP PUSH2 0x1E81 DUP3 PUSH2 0x1E42 JUMP JUMPDEST PUSH1 0x20 DUP3 ADD SWAP1 POP SWAP2 SWAP1 POP JUMP JUMPDEST PUSH0 PUSH1 0x20 DUP3 ADD SWAP1 POP DUP2 DUP2 SUB PUSH0 DUP4 ADD MSTORE PUSH2 0x1EA3 DUP2 PUSH2 0x1E6A JUMP JUMPDEST SWAP1 POP SWAP2 SWAP1 POP JUMP JUMPDEST PUSH32 0x4E6F7420796F7572207075726368617365000000000000000000000000000000 PUSH0 DUP3 ADD MSTORE POP JUMP JUMPDEST PUSH0 PUSH2 0x1EDE PUSH1 0x11 DUP4 PUSH2 0x1889 JUMP JUMPDEST SWAP2 POP PUSH2 0x1EE9 DUP3 PUSH2 0x1EAA JUMP JUMPDEST PUSH1 0x20 DUP3 ADD SWAP1 POP SWAP2 SWAP1 POP JUMP JUMPDEST PUSH0 PUSH1 0x20 DUP3 ADD SWAP1 POP DUP2 DUP2 SUB PUSH0 DUP4 ADD MSTORE PUSH2 0x1F0B DUP2 PUSH2 0x1ED2 JUMP JUMPDEST SWAP1 POP SWAP2 SWAP1 POP JUMP JUMPDEST PUSH32 0x507572636861736520616C726561647920636F6E73756D656400000000000000 PUSH0 DUP3 ADD MSTORE POP JUMP JUMPDEST PUSH0 PUSH2 0x1F46 PUSH1 0x19 DUP4 PUSH2 0x1889 JUMP JUMPDEST SWAP2 POP PUSH2 0x1F51 DUP3 PUSH2 0x1F12 JUMP JUMPDEST PUSH1 0x20 DUP3 ADD SWAP1 POP SWAP2 SWAP1 POP JUMP JUMPDEST PUSH0 PUSH1 0x20 DUP3 ADD SWAP1 POP DUP2 DUP2 SUB PUSH0 DUP4 ADD MSTORE PUSH2 0x1F73 DUP2 PUSH2 0x1F3A JUMP JUMPDEST SWAP1 POP SWAP2 SWAP1 POP JUMP JUMPDEST PUSH0 DUP2 SWAP1 POP SWAP3 SWAP2 POP POP JUMP JUMPDEST PUSH0 PUSH2 0x1F8E DUP3 PUSH2 0x1186 JUMP JUMPDEST PUSH2 0x1F98 DUP2 DUP6 PUSH2 0x1F7A JUMP JUMPDEST SWAP4 POP PUSH2 0x1FA8 DUP2 DUP6 PUSH1 0x20 DUP7 ADD PUSH2 0x11A0 JUMP JUMPDEST DUP1 DUP5 ADD SWAP2 POP POP SWAP3 SWAP2 POP POP JUMP JUMPDEST PUSH0 PUSH2 0x1FBF DUP3 DUP5 PUSH2 0x1F84 JUMP JUMPDEST SWAP2 POP DUP2 SWAP1 POP SWAP3 SWAP2 POP POP JUMP JUMPDEST PUSH0 DUP2 SLOAD PUSH2 0x1FD6 DUP2 PUSH2 0x178B JUMP JUMPDEST PUSH2 0x1FE0 DUP2 DUP7 PUSH2 0x1F7A JUMP JUMPDEST SWAP5 POP PUSH1 0x1 DUP3 AND PUSH0 DUP2 EQ PUSH2 0x1FFA JUMPI PUSH1 0x1 DUP2 EQ PUSH2 0x200F JUMPI PUSH2 0x2041 JUMP JUMPDEST PUSH1 0xFF NOT DUP4 AND DUP7 MSTORE DUP2 ISZERO ISZERO DUP3 MUL DUP7 ADD SWAP4 POP PUSH2 0x2041 JUMP JUMPDEST PUSH2 0x2018 DUP6 PUSH2 0x1934 JUMP JUMPDEST PUSH0 JUMPDEST DUP4 DUP2 LT ISZERO PUSH2 0x2039 JUMPI DUP2 SLOAD DUP2 DUP10 ADD MSTORE PUSH1 0x1 DUP3 ADD SWAP2 POP PUSH1 0x20 DUP2 ADD SWAP1 POP PUSH2 0x201A JUMP JUMPDEST DUP4 DUP9 ADD SWAP6 POP POP POP JUMPDEST POP POP POP SWAP3 SWAP2 POP POP JUMP JUMPDEST PUSH0 PUSH2 0x2055 DUP3 DUP5 PUSH2 0x1FCA JUMP JUMPDEST SWAP2 POP DUP2 SWAP1 POP SWAP3 SWAP2 POP POP JUMP JUMPDEST PUSH32 0x50726F64756374206E6F7420666F756E64000000000000000000000000000000 PUSH0 DUP3 ADD MSTORE POP JUMP JUMPDEST PUSH0 PUSH2 0x2094 PUSH1 0x11 DUP4 PUSH2 0x1889 JUMP JUMPDEST SWAP2 POP PUSH2 0x209F DUP3 PUSH2 0x2060 JUMP JUMPDEST PUSH1 0x20 DUP3 ADD SWAP1 POP SWAP2 SWAP1 POP JUMP JUMPDEST PUSH0 PUSH1 0x20 DUP3 ADD SWAP1 POP DUP2 DUP2 SUB PUSH0 DUP4 ADD MSTORE PUSH2 0x20C1 DUP2 PUSH2 0x2088 JUMP JUMPDEST SWAP1 POP SWAP2 SWAP1 POP JUMP INVALID LOG2 PUSH5 0x6970667358 0x22 SLT KECCAK256 0xD BLOBHASH 0x2A MSTORE LOG2 STOP 0xEC 0x4C DUP13 0xFB BLOCKHASH 0xE8 0xCF 0xAB MSTORE 0xDB MSTORE PUSH0 0xA6 0xDE PUSH18 0xE1D8904A0A204CDD4A446064736F6C634300 ADDMOD BYTE STOP CALLER MLOAD PUSH14 0x6652465261626F50334D34386565 PUSH25 0x766E516B6977675544506150484A69466E44634B637545754C TIMESTAMP PUSH3 0x66312F LOG2 PUSH5 0x6970667358 0x22 SLT KECCAK256 ADDMOD 0xB4 BALANCE 0xD0 0xB0 0xB4 0xE2 SWAP12 SWAP10 SWAP3 0xD2 CODESIZE 0xB2 DUP13 0xF6 0x2D CALLDATACOPY XOR PUSH25 0xC0D8521113F8540CF26ABBDB7764736F6C634300081A003300 "
		},
		"gasEstimates": {
			"creation": {
				"codeDepositCost": "4819400",
				"executionCost": "27789",
				"totalCost": "4847189"
			},
			"external": {
				"beforeAll()": "infinite",
				"testAddFundsOnce()": "infinite",
				"testConsumedProduct()": "209",
				"testGetAllProductsSetup()": "infinite",
				"testInitialBalance()": "infinite",
				"testOwnerIsSetCorrectly()": "infinite",
				"testPurchaseProduct()": "infinite",
				"vendingMachine()": "infinite"
			}
		},
		"methodIdentifiers": {
			"beforeAll()": "7fea0d4b",
			"testAddFundsOnce()": "92a5353b",
			"testConsumedProduct()": "ed661e1e",
			"testGetAllProductsSetup()": "0aa9b52b",
			"testInitialBalance()": "4a4507ff",
			"testOwnerIsSetCorrectly()": "069e4b22",
			"testPurchaseProduct()": "ac599090",
			"vendingMachine()": "424f4fef"
		}
	},
	"abi": [
		{
			"inputs": [],
			"name": "beforeAll",
			"outputs": [],
			"stateMutability": "nonpayable",
			"type": "function"
		},
		{
			"inputs": [],
			"name": "testAddFundsOnce",
			"outputs": [],
			"stateMutability": "payable",
			"type": "function"
		},
		{
			"inputs": [],
			"name": "testConsumedProduct",
			"outputs": [],
			"stateMutability": "nonpayable",
			"type": "function"
		},
		{
			"inputs": [],
			"name": "testGetAllProductsSetup",
			"outputs": [],
			"stateMutability": "nonpayable",
			"type": "function"
		},
		{
			"inputs": [],
			"name": "testInitialBalance",
			"outputs": [],
			"stateMutability": "nonpayable",
			"type": "function"
		},
		{
			"inputs": [],
			"name": "testOwnerIsSetCorrectly",
			"outputs": [],
			"stateMutability": "nonpayable",
			"type": "function"
		},
		{
			"inputs": [],
			"name": "testPurchaseProduct",
			"outputs": [],
			"stateMutability": "nonpayable",
			"type": "function"
		},
		{
			"inputs": [],
			"name": "vendingMachine",
			"outputs": [
				{
					"internalType": "contract VendingMachine",
					"name": "",
					"type": "address"
				}
			],
			"stateMutability": "view",
			"type": "function"
		}
	]
}