{
	"contracts/VendingMachine.sol": {
		"VendingMachine": {
			"abi": [
				{
					"inputs": [],
					"stateMutability": "nonpayable",
					"type": "constructor"
				},
				{
					"inputs": [],
					"name": "addFunds",
					"outputs": [],
					"stateMutability": "payable",
					"type": "function"
				},
				{
					"inputs": [
						{
							"internalType": "uint256",
							"name": "_purchaseIndex",
							"type": "uint256"
						}
					],
					"name": "consumePurchase",
					"outputs": [],
					"stateMutability": "nonpayable",
					"type": "function"
				},
				{
					"inputs": [],
					"name": "getAllProducts",
					"outputs": [
						{
							"components": [
								{
									"internalType": "string",
									"name": "code",
									"type": "string"
								},
								{
									"internalType": "uint256",
									"name": "price",
									"type": "uint256"
								},
								{
									"internalType": "string",
									"name": "name",
									"type": "string"
								},
								{
									"internalType": "string",
									"name": "imageCID",
									"type": "string"
								}
							],
							"internalType": "struct ProductLibrary.Product[]",
							"name": "",
							"type": "tuple[]"
						}
					],
					"stateMutability": "view",
					"type": "function"
				},
				{
					"inputs": [
						{
							"internalType": "address",
							"name": "_buyer",
							"type": "address"
						}
					],
					"name": "getAvailablePurchases",
					"outputs": [
						{
							"components": [
								{
									"internalType": "address",
									"name": "buyer",
									"type": "address"
								},
								{
									"internalType": "string",
									"name": "productId",
									"type": "string"
								},
								{
									"internalType": "uint256",
									"name": "timestamp",
									"type": "uint256"
								},
								{
									"internalType": "enum ProductLibrary.PurchaseStatus",
									"name": "status",
									"type": "uint8"
								}
							],
							"internalType": "struct ProductLibrary.Purchase[]",
							"name": "",
							"type": "tuple[]"
						}
					],
					"stateMutability": "view",
					"type": "function"
				},
				{
					"inputs": [],
					"name": "getBalance",
					"outputs": [
						{
							"internalType": "uint256",
							"name": "",
							"type": "uint256"
						}
					],
					"stateMutability": "view",
					"type": "function"
				},
				{
					"inputs": [
						{
							"internalType": "address",
							"name": "_buyer",
							"type": "address"
						}
					],
					"name": "getConsumedPurchases",
					"outputs": [
						{
							"components": [
								{
									"internalType": "address",
									"name": "buyer",
									"type": "address"
								},
								{
									"internalType": "string",
									"name": "productId",
									"type": "string"
								},
								{
									"internalType": "uint256",
									"name": "timestamp",
									"type": "uint256"
								},
								{
									"internalType": "enum ProductLibrary.PurchaseStatus",
									"name": "status",
									"type": "uint8"
								}
							],
							"internalType": "struct ProductLibrary.Purchase[]",
							"name": "",
							"type": "tuple[]"
						}
					],
					"stateMutability": "view",
					"type": "function"
				},
				{
					"inputs": [
						{
							"internalType": "string",
							"name": "_productId",
							"type": "string"
						}
					],
					"name": "getProductByCode",
					"outputs": [
						{
							"components": [
								{
									"internalType": "string",
									"name": "code",
									"type": "string"
								},
								{
									"internalType": "uint256",
									"name": "price",
									"type": "uint256"
								},
								{
									"internalType": "string",
									"name": "name",
									"type": "string"
								},
								{
									"internalType": "string",
									"name": "imageCID",
									"type": "string"
								}
							],
							"internalType": "struct ProductLibrary.Product",
							"name": "",
							"type": "tuple"
						}
					],
					"stateMutability": "view",
					"type": "function"
				},
				{
					"inputs": [
						{
							"internalType": "address",
							"name": "_buyer",
							"type": "address"
						}
					],
					"name": "getPurchases",
					"outputs": [
						{
							"components": [
								{
									"internalType": "address",
									"name": "buyer",
									"type": "address"
								},
								{
									"internalType": "string",
									"name": "productId",
									"type": "string"
								},
								{
									"internalType": "uint256",
									"name": "timestamp",
									"type": "uint256"
								},
								{
									"internalType": "enum ProductLibrary.PurchaseStatus",
									"name": "status",
									"type": "uint8"
								}
							],
							"internalType": "struct ProductLibrary.Purchase[]",
							"name": "",
							"type": "tuple[]"
						}
					],
					"stateMutability": "view",
					"type": "function"
				},
				{
					"inputs": [
						{
							"internalType": "string",
							"name": "_productId",
							"type": "string"
						}
					],
					"name": "purchaseProduct",
					"outputs": [],
					"stateMutability": "nonpayable",
					"type": "function"
				},
				{
					"inputs": [],
					"name": "withdraw",
					"outputs": [],
					"stateMutability": "nonpayable",
					"type": "function"
				}
			],
			"devdoc": {
				"kind": "dev",
				"methods": {},
				"version": 1
			},
			"evm": {
				"assembly": "    /* \"contracts/VendingMachine.sol\":90:7686  contract VendingMachine {... */\n  mstore(0x40, 0x80)\n    /* \"contracts/VendingMachine.sol\":778:857  constructor() {... */\n  callvalue\n  dup1\n  iszero\n  tag_1\n  jumpi\n  0x00\n  dup1\n  revert\ntag_1:\n  pop\n    /* \"contracts/VendingMachine.sol\":810:820  msg.sender */\n  caller\n    /* \"contracts/VendingMachine.sol\":802:807  owner */\n  0x00\n  dup1\n    /* \"contracts/VendingMachine.sol\":802:820  owner = msg.sender */\n  0x0100\n  exp\n  dup2\n  sload\n  dup2\n  0xffffffffffffffffffffffffffffffffffffffff\n  mul\n  not\n  and\n  swap1\n  dup4\n  0xffffffffffffffffffffffffffffffffffffffff\n  and\n  mul\n  or\n  swap1\n  sstore\n  pop\n    /* \"contracts/VendingMachine.sol\":830:850  initializeProducts() */\n  tag_4\n    /* \"contracts/VendingMachine.sol\":830:848  initializeProducts */\n  shl(0x20, tag_5)\n    /* \"contracts/VendingMachine.sol\":830:850  initializeProducts() */\n  0x20\n  shr\n  jump\t// in\ntag_4:\n    /* \"contracts/VendingMachine.sol\":90:7686  contract VendingMachine {... */\n  jump(tag_6)\n    /* \"contracts/VendingMachine.sol\":1016:3619  function initializeProducts() private {... */\ntag_5:\n    /* \"contracts/VendingMachine.sol\":1064:1072  products */\n  0x01\n    /* \"contracts/VendingMachine.sol\":1078:1169  ProductLibrary.Product(\"A1\", 15 * GWEI_MULTIPLIER, \"Lays\", concatIPFSReference(\"lays.png\")) */\n  mload(0x40)\n  dup1\n  0x80\n  add\n  0x40\n  mstore\n  dup1\n  mload(0x40)\n  dup1\n  0x40\n  add\n  0x40\n  mstore\n  dup1\n  0x02\n  dup2\n  mstore\n  0x20\n  add\n  0x4131000000000000000000000000000000000000000000000000000000000000\n  dup2\n  mstore\n  pop\n  dup2\n  mstore\n  0x20\n  add\n    /* \"contracts/VendingMachine.sol\":448:453  10**8 */\n  0x05f5e100\n    /* \"contracts/VendingMachine.sol\":1107:1109  15 */\n  0x0f\n    /* \"contracts/VendingMachine.sol\":1107:1127  15 * GWEI_MULTIPLIER */\n  tag_8\n  swap2\n  swap1\n  tag_9\n  jump\t// in\ntag_8:\n    /* \"contracts/VendingMachine.sol\":1078:1169  ProductLibrary.Product(\"A1\", 15 * GWEI_MULTIPLIER, \"Lays\", concatIPFSReference(\"lays.png\")) */\n  dup2\n  mstore\n  0x20\n  add\n  mload(0x40)\n  dup1\n  0x40\n  add\n  0x40\n  mstore\n  dup1\n  0x04\n  dup2\n  mstore\n  0x20\n  add\n  0x4c61797300000000000000000000000000000000000000000000000000000000\n  dup2\n  mstore\n  pop\n  dup2\n  mstore\n  0x20\n  add\n    /* \"contracts/VendingMachine.sol\":1137:1168  concatIPFSReference(\"lays.png\") */\n  tag_10\n  mload(0x40)\n  dup1\n  0x40\n  add\n  0x40\n  mstore\n  dup1\n  0x08\n  dup2\n  mstore\n  0x20\n  add\n  0x6c6179732e706e67000000000000000000000000000000000000000000000000\n  dup2\n  mstore\n  pop\n    /* \"contracts/VendingMachine.sol\":1137:1156  concatIPFSReference */\n  shl(0x20, tag_11)\n    /* \"contracts/VendingMachine.sol\":1137:1168  concatIPFSReference(\"lays.png\") */\n  0x20\n  shr\n  jump\t// in\ntag_10:\n    /* \"contracts/VendingMachine.sol\":1078:1169  ProductLibrary.Product(\"A1\", 15 * GWEI_MULTIPLIER, \"Lays\", concatIPFSReference(\"lays.png\")) */\n  dup2\n  mstore\n  pop\n    /* \"contracts/VendingMachine.sol\":1064:1170  products.push(ProductLibrary.Product(\"A1\", 15 * GWEI_MULTIPLIER, \"Lays\", concatIPFSReference(\"lays.png\"))) */\n  swap1\n  dup1\n  0x01\n  dup2\n  sload\n  add\n  dup1\n  dup3\n  sstore\n  dup1\n  swap2\n  pop\n  pop\n  0x01\n  swap1\n  sub\n  swap1\n  0x00\n  mstore\n  keccak256(0x00, 0x20)\n  swap1\n  0x04\n  mul\n  add\n  0x00\n  swap1\n  swap2\n  swap1\n  swap2\n  swap1\n  swap2\n  pop\n  0x00\n  dup3\n  add\n  mload\n  dup2\n  0x00\n  add\n  swap1\n  dup2\n  tag_13\n  swap2\n  swap1\n  tag_14\n  jump\t// in\ntag_13:\n  pop\n  0x20\n  dup3\n  add\n  mload\n  dup2\n  0x01\n  add\n  sstore\n  0x40\n  dup3\n  add\n  mload\n  dup2\n  0x02\n  add\n  swap1\n  dup2\n  tag_15\n  swap2\n  swap1\n  tag_14\n  jump\t// in\ntag_15:\n  pop\n  0x60\n  dup3\n  add\n  mload\n  dup2\n  0x03\n  add\n  swap1\n  dup2\n  tag_16\n  swap2\n  swap1\n  tag_14\n  jump\t// in\ntag_16:\n  pop\n  pop\n  pop\n    /* \"contracts/VendingMachine.sol\":1180:1188  products */\n  0x01\n    /* \"contracts/VendingMachine.sol\":1194:1302  ProductLibrary.Product(\"A2\", 175 * SMALL_GWEI_MULTIPLIER, \"Coca Cola\", concatIPFSReference(\"coca-cola.png\")) */\n  mload(0x40)\n  dup1\n  0x80\n  add\n  0x40\n  mstore\n  dup1\n  mload(0x40)\n  dup1\n  0x40\n  add\n  0x40\n  mstore\n  dup1\n  0x02\n  dup2\n  mstore\n  0x20\n  add\n  0x4132000000000000000000000000000000000000000000000000000000000000\n  dup2\n  mstore\n  pop\n  dup2\n  mstore\n  0x20\n  add\n    /* \"contracts/VendingMachine.sol\":508:513  10**7 */\n  0x989680\n    /* \"contracts/VendingMachine.sol\":1223:1226  175 */\n  0xaf\n    /* \"contracts/VendingMachine.sol\":1223:1250  175 * SMALL_GWEI_MULTIPLIER */\n  tag_17\n  swap2\n  swap1\n  tag_9\n  jump\t// in\ntag_17:\n    /* \"contracts/VendingMachine.sol\":1194:1302  ProductLibrary.Product(\"A2\", 175 * SMALL_GWEI_MULTIPLIER, \"Coca Cola\", concatIPFSReference(\"coca-cola.png\")) */\n  dup2\n  mstore\n  0x20\n  add\n  mload(0x40)\n  dup1\n  0x40\n  add\n  0x40\n  mstore\n  dup1\n  0x09\n  dup2\n  mstore\n  0x20\n  add\n  0x436f636120436f6c610000000000000000000000000000000000000000000000\n  dup2\n  mstore\n  pop\n  dup2\n  mstore\n  0x20\n  add\n    /* \"contracts/VendingMachine.sol\":1265:1301  concatIPFSReference(\"coca-cola.png\") */\n  tag_18\n  mload(0x40)\n  dup1\n  0x40\n  add\n  0x40\n  mstore\n  dup1\n  0x0d\n  dup2\n  mstore\n  0x20\n  add\n  0x636f63612d636f6c612e706e6700000000000000000000000000000000000000\n  dup2\n  mstore\n  pop\n    /* \"contracts/VendingMachine.sol\":1265:1284  concatIPFSReference */\n  shl(0x20, tag_11)\n    /* \"contracts/VendingMachine.sol\":1265:1301  concatIPFSReference(\"coca-cola.png\") */\n  0x20\n  shr\n  jump\t// in\ntag_18:\n    /* \"contracts/VendingMachine.sol\":1194:1302  ProductLibrary.Product(\"A2\", 175 * SMALL_GWEI_MULTIPLIER, \"Coca Cola\", concatIPFSReference(\"coca-cola.png\")) */\n  dup2\n  mstore\n  pop\n    /* \"contracts/VendingMachine.sol\":1180:1303  products.push(ProductLibrary.Product(\"A2\", 175 * SMALL_GWEI_MULTIPLIER, \"Coca Cola\", concatIPFSReference(\"coca-cola.png\"))) */\n  swap1\n  dup1\n  0x01\n  dup2\n  sload\n  add\n  dup1\n  dup3\n  sstore\n  dup1\n  swap2\n  pop\n  pop\n  0x01\n  swap1\n  sub\n  swap1\n  0x00\n  mstore\n  keccak256(0x00, 0x20)\n  swap1\n  0x04\n  mul\n  add\n  0x00\n  swap1\n  swap2\n  swap1\n  swap2\n  swap1\n  swap2\n  pop\n  0x00\n  dup3\n  add\n  mload\n  dup2\n  0x00\n  add\n  swap1\n  dup2\n  tag_20\n  swap2\n  swap1\n  tag_14\n  jump\t// in\ntag_20:\n  pop\n  0x20\n  dup3\n  add\n  mload\n  dup2\n  0x01\n  add\n  sstore\n  0x40\n  dup3\n  add\n  mload\n  dup2\n  0x02\n  add\n  swap1\n  dup2\n  tag_21\n  swap2\n  swap1\n  tag_14\n  jump\t// in\ntag_21:\n  pop\n  0x60\n  dup3\n  add\n  mload\n  dup2\n  0x03\n  add\n  swap1\n  dup2\n  tag_22\n  swap2\n  swap1\n  tag_14\n  jump\t// in\ntag_22:\n  pop\n  pop\n  pop\n    /* \"contracts/VendingMachine.sol\":1313:1321  products */\n  0x01\n    /* \"contracts/VendingMachine.sol\":1327:1425  ProductLibrary.Product(\"A3\", 15 * GWEI_MULTIPLIER, \"Pringles\", concatIPFSReference(\"pingles.png\")) */\n  mload(0x40)\n  dup1\n  0x80\n  add\n  0x40\n  mstore\n  dup1\n  mload(0x40)\n  dup1\n  0x40\n  add\n  0x40\n  mstore\n  dup1\n  0x02\n  dup2\n  mstore\n  0x20\n  add\n  0x4133000000000000000000000000000000000000000000000000000000000000\n  dup2\n  mstore\n  pop\n  dup2\n  mstore\n  0x20\n  add\n    /* \"contracts/VendingMachine.sol\":448:453  10**8 */\n  0x05f5e100\n    /* \"contracts/VendingMachine.sol\":1356:1358  15 */\n  0x0f\n    /* \"contracts/VendingMachine.sol\":1356:1376  15 * GWEI_MULTIPLIER */\n  tag_23\n  swap2\n  swap1\n  tag_9\n  jump\t// in\ntag_23:\n    /* \"contracts/VendingMachine.sol\":1327:1425  ProductLibrary.Product(\"A3\", 15 * GWEI_MULTIPLIER, \"Pringles\", concatIPFSReference(\"pingles.png\")) */\n  dup2\n  mstore\n  0x20\n  add\n  mload(0x40)\n  dup1\n  0x40\n  add\n  0x40\n  mstore\n  dup1\n  0x08\n  dup2\n  mstore\n  0x20\n  add\n  0x5072696e676c6573000000000000000000000000000000000000000000000000\n  dup2\n  mstore\n  pop\n  dup2\n  mstore\n  0x20\n  add\n    /* \"contracts/VendingMachine.sol\":1390:1424  concatIPFSReference(\"pingles.png\") */\n  tag_24\n  mload(0x40)\n  dup1\n  0x40\n  add\n  0x40\n  mstore\n  dup1\n  0x0b\n  dup2\n  mstore\n  0x20\n  add\n  0x70696e676c65732e706e67000000000000000000000000000000000000000000\n  dup2\n  mstore\n  pop\n    /* \"contracts/VendingMachine.sol\":1390:1409  concatIPFSReference */\n  shl(0x20, tag_11)\n    /* \"contracts/VendingMachine.sol\":1390:1424  concatIPFSReference(\"pingles.png\") */\n  0x20\n  shr\n  jump\t// in\ntag_24:\n    /* \"contracts/VendingMachine.sol\":1327:1425  ProductLibrary.Product(\"A3\", 15 * GWEI_MULTIPLIER, \"Pringles\", concatIPFSReference(\"pingles.png\")) */\n  dup2\n  mstore\n  pop\n    /* \"contracts/VendingMachine.sol\":1313:1426  products.push(ProductLibrary.Product(\"A3\", 15 * GWEI_MULTIPLIER, \"Pringles\", concatIPFSReference(\"pingles.png\"))) */\n  swap1\n  dup1\n  0x01\n  dup2\n  sload\n  add\n  dup1\n  dup3\n  sstore\n  dup1\n  swap2\n  pop\n  pop\n  0x01\n  swap1\n  sub\n  swap1\n  0x00\n  mstore\n  keccak256(0x00, 0x20)\n  swap1\n  0x04\n  mul\n  add\n  0x00\n  swap1\n  swap2\n  swap1\n  swap2\n  swap1\n  swap2\n  pop\n  0x00\n  dup3\n  add\n  mload\n  dup2\n  0x00\n  add\n  swap1\n  dup2\n  tag_26\n  swap2\n  swap1\n  tag_14\n  jump\t// in\ntag_26:\n  pop\n  0x20\n  dup3\n  add\n  mload\n  dup2\n  0x01\n  add\n  sstore\n  0x40\n  dup3\n  add\n  mload\n  dup2\n  0x02\n  add\n  swap1\n  dup2\n  tag_27\n  swap2\n  swap1\n  tag_14\n  jump\t// in\ntag_27:\n  pop\n  0x60\n  dup3\n  add\n  mload\n  dup2\n  0x03\n  add\n  swap1\n  dup2\n  tag_28\n  swap2\n  swap1\n  tag_14\n  jump\t// in\ntag_28:\n  pop\n  pop\n  pop\n    /* \"contracts/VendingMachine.sol\":1436:1444  products */\n  0x01\n    /* \"contracts/VendingMachine.sol\":1450:1550  ProductLibrary.Product(\"A4\", 175 * SMALL_GWEI_MULTIPLIER, \"Water\", concatIPFSReference(\"water.png\")) */\n  mload(0x40)\n  dup1\n  0x80\n  add\n  0x40\n  mstore\n  dup1\n  mload(0x40)\n  dup1\n  0x40\n  add\n  0x40\n  mstore\n  dup1\n  0x02\n  dup2\n  mstore\n  0x20\n  add\n  0x4134000000000000000000000000000000000000000000000000000000000000\n  dup2\n  mstore\n  pop\n  dup2\n  mstore\n  0x20\n  add\n    /* \"contracts/VendingMachine.sol\":508:513  10**7 */\n  0x989680\n    /* \"contracts/VendingMachine.sol\":1479:1482  175 */\n  0xaf\n    /* \"contracts/VendingMachine.sol\":1479:1506  175 * SMALL_GWEI_MULTIPLIER */\n  tag_29\n  swap2\n  swap1\n  tag_9\n  jump\t// in\ntag_29:\n    /* \"contracts/VendingMachine.sol\":1450:1550  ProductLibrary.Product(\"A4\", 175 * SMALL_GWEI_MULTIPLIER, \"Water\", concatIPFSReference(\"water.png\")) */\n  dup2\n  mstore\n  0x20\n  add\n  mload(0x40)\n  dup1\n  0x40\n  add\n  0x40\n  mstore\n  dup1\n  0x05\n  dup2\n  mstore\n  0x20\n  add\n  0x5761746572000000000000000000000000000000000000000000000000000000\n  dup2\n  mstore\n  pop\n  dup2\n  mstore\n  0x20\n  add\n    /* \"contracts/VendingMachine.sol\":1517:1549  concatIPFSReference(\"water.png\") */\n  tag_30\n  mload(0x40)\n  dup1\n  0x40\n  add\n  0x40\n  mstore\n  dup1\n  0x09\n  dup2\n  mstore\n  0x20\n  add\n  0x77617465722e706e670000000000000000000000000000000000000000000000\n  dup2\n  mstore\n  pop\n    /* \"contracts/VendingMachine.sol\":1517:1536  concatIPFSReference */\n  shl(0x20, tag_11)\n    /* \"contracts/VendingMachine.sol\":1517:1549  concatIPFSReference(\"water.png\") */\n  0x20\n  shr\n  jump\t// in\ntag_30:\n    /* \"contracts/VendingMachine.sol\":1450:1550  ProductLibrary.Product(\"A4\", 175 * SMALL_GWEI_MULTIPLIER, \"Water\", concatIPFSReference(\"water.png\")) */\n  dup2\n  mstore\n  pop\n    /* \"contracts/VendingMachine.sol\":1436:1551  products.push(ProductLibrary.Product(\"A4\", 175 * SMALL_GWEI_MULTIPLIER, \"Water\", concatIPFSReference(\"water.png\"))) */\n  swap1\n  dup1\n  0x01\n  dup2\n  sload\n  add\n  dup1\n  dup3\n  sstore\n  dup1\n  swap2\n  pop\n  pop\n  0x01\n  swap1\n  sub\n  swap1\n  0x00\n  mstore\n  keccak256(0x00, 0x20)\n  swap1\n  0x04\n  mul\n  add\n  0x00\n  swap1\n  swap2\n  swap1\n  swap2\n  swap1\n  swap2\n  pop\n  0x00\n  dup3\n  add\n  mload\n  dup2\n  0x00\n  add\n  swap1\n  dup2\n  tag_32\n  swap2\n  swap1\n  tag_14\n  jump\t// in\ntag_32:\n  pop\n  0x20\n  dup3\n  add\n  mload\n  dup2\n  0x01\n  add\n  sstore\n  0x40\n  dup3\n  add\n  mload\n  dup2\n  0x02\n  add\n  swap1\n  dup2\n  tag_33\n  swap2\n  swap1\n  tag_14\n  jump\t// in\ntag_33:\n  pop\n  0x60\n  dup3\n  add\n  mload\n  dup2\n  0x03\n  add\n  swap1\n  dup2\n  tag_34\n  swap2\n  swap1\n  tag_14\n  jump\t// in\ntag_34:\n  pop\n  pop\n  pop\n    /* \"contracts/VendingMachine.sol\":1561:1569  products */\n  0x01\n    /* \"contracts/VendingMachine.sol\":1575:1678  ProductLibrary.Product(\"A5\", 15 * GWEI_MULTIPLIER, \"Energy Drink\", concatIPFSReference(\"red-bull.png\")) */\n  mload(0x40)\n  dup1\n  0x80\n  add\n  0x40\n  mstore\n  dup1\n  mload(0x40)\n  dup1\n  0x40\n  add\n  0x40\n  mstore\n  dup1\n  0x02\n  dup2\n  mstore\n  0x20\n  add\n  0x4135000000000000000000000000000000000000000000000000000000000000\n  dup2\n  mstore\n  pop\n  dup2\n  mstore\n  0x20\n  add\n    /* \"contracts/VendingMachine.sol\":448:453  10**8 */\n  0x05f5e100\n    /* \"contracts/VendingMachine.sol\":1604:1606  15 */\n  0x0f\n    /* \"contracts/VendingMachine.sol\":1604:1624  15 * GWEI_MULTIPLIER */\n  tag_35\n  swap2\n  swap1\n  tag_9\n  jump\t// in\ntag_35:\n    /* \"contracts/VendingMachine.sol\":1575:1678  ProductLibrary.Product(\"A5\", 15 * GWEI_MULTIPLIER, \"Energy Drink\", concatIPFSReference(\"red-bull.png\")) */\n  dup2\n  mstore\n  0x20\n  add\n  mload(0x40)\n  dup1\n  0x40\n  add\n  0x40\n  mstore\n  dup1\n  0x0c\n  dup2\n  mstore\n  0x20\n  add\n  0x456e65726779204472696e6b0000000000000000000000000000000000000000\n  dup2\n  mstore\n  pop\n  dup2\n  mstore\n  0x20\n  add\n    /* \"contracts/VendingMachine.sol\":1642:1677  concatIPFSReference(\"red-bull.png\") */\n  tag_36\n  mload(0x40)\n  dup1\n  0x40\n  add\n  0x40\n  mstore\n  dup1\n  0x0c\n  dup2\n  mstore\n  0x20\n  add\n  0x7265642d62756c6c2e706e670000000000000000000000000000000000000000\n  dup2\n  mstore\n  pop\n    /* \"contracts/VendingMachine.sol\":1642:1661  concatIPFSReference */\n  shl(0x20, tag_11)\n    /* \"contracts/VendingMachine.sol\":1642:1677  concatIPFSReference(\"red-bull.png\") */\n  0x20\n  shr\n  jump\t// in\ntag_36:\n    /* \"contracts/VendingMachine.sol\":1575:1678  ProductLibrary.Product(\"A5\", 15 * GWEI_MULTIPLIER, \"Energy Drink\", concatIPFSReference(\"red-bull.png\")) */\n  dup2\n  mstore\n  pop\n    /* \"contracts/VendingMachine.sol\":1561:1679  products.push(ProductLibrary.Product(\"A5\", 15 * GWEI_MULTIPLIER, \"Energy Drink\", concatIPFSReference(\"red-bull.png\"))) */\n  swap1\n  dup1\n  0x01\n  dup2\n  sload\n  add\n  dup1\n  dup3\n  sstore\n  dup1\n  swap2\n  pop\n  pop\n  0x01\n  swap1\n  sub\n  swap1\n  0x00\n  mstore\n  keccak256(0x00, 0x20)\n  swap1\n  0x04\n  mul\n  add\n  0x00\n  swap1\n  swap2\n  swap1\n  swap2\n  swap1\n  swap2\n  pop\n  0x00\n  dup3\n  add\n  mload\n  dup2\n  0x00\n  add\n  swap1\n  dup2\n  tag_38\n  swap2\n  swap1\n  tag_14\n  jump\t// in\ntag_38:\n  pop\n  0x20\n  dup3\n  add\n  mload\n  dup2\n  0x01\n  add\n  sstore\n  0x40\n  dup3\n  add\n  mload\n  dup2\n  0x02\n  add\n  swap1\n  dup2\n  tag_39\n  swap2\n  swap1\n  tag_14\n  jump\t// in\ntag_39:\n  pop\n  0x60\n  dup3\n  add\n  mload\n  dup2\n  0x03\n  add\n  swap1\n  dup2\n  tag_40\n  swap2\n  swap1\n  tag_14\n  jump\t// in\ntag_40:\n  pop\n  pop\n  pop\n    /* \"contracts/VendingMachine.sol\":1689:1697  products */\n  0x01\n    /* \"contracts/VendingMachine.sol\":1703:1802  ProductLibrary.Product(\"B1\", 20 * GWEI_MULTIPLIER, \"Sandwich\", concatIPFSReference(\"sandwich.png\")) */\n  mload(0x40)\n  dup1\n  0x80\n  add\n  0x40\n  mstore\n  dup1\n  mload(0x40)\n  dup1\n  0x40\n  add\n  0x40\n  mstore\n  dup1\n  0x02\n  dup2\n  mstore\n  0x20\n  add\n  0x4231000000000000000000000000000000000000000000000000000000000000\n  dup2\n  mstore\n  pop\n  dup2\n  mstore\n  0x20\n  add\n    /* \"contracts/VendingMachine.sol\":448:453  10**8 */\n  0x05f5e100\n    /* \"contracts/VendingMachine.sol\":1732:1734  20 */\n  0x14\n    /* \"contracts/VendingMachine.sol\":1732:1752  20 * GWEI_MULTIPLIER */\n  tag_41\n  swap2\n  swap1\n  tag_9\n  jump\t// in\ntag_41:\n    /* \"contracts/VendingMachine.sol\":1703:1802  ProductLibrary.Product(\"B1\", 20 * GWEI_MULTIPLIER, \"Sandwich\", concatIPFSReference(\"sandwich.png\")) */\n  dup2\n  mstore\n  0x20\n  add\n  mload(0x40)\n  dup1\n  0x40\n  add\n  0x40\n  mstore\n  dup1\n  0x08\n  dup2\n  mstore\n  0x20\n  add\n  0x53616e6477696368000000000000000000000000000000000000000000000000\n  dup2\n  mstore\n  pop\n  dup2\n  mstore\n  0x20\n  add\n    /* \"contracts/VendingMachine.sol\":1766:1801  concatIPFSReference(\"sandwich.png\") */\n  tag_42\n  mload(0x40)\n  dup1\n  0x40\n  add\n  0x40\n  mstore\n  dup1\n  0x0c\n  dup2\n  mstore\n  0x20\n  add\n  0x73616e64776963682e706e670000000000000000000000000000000000000000\n  dup2\n  mstore\n  pop\n    /* \"contracts/VendingMachine.sol\":1766:1785  concatIPFSReference */\n  shl(0x20, tag_11)\n    /* \"contracts/VendingMachine.sol\":1766:1801  concatIPFSReference(\"sandwich.png\") */\n  0x20\n  shr\n  jump\t// in\ntag_42:\n    /* \"contracts/VendingMachine.sol\":1703:1802  ProductLibrary.Product(\"B1\", 20 * GWEI_MULTIPLIER, \"Sandwich\", concatIPFSReference(\"sandwich.png\")) */\n  dup2\n  mstore\n  pop\n    /* \"contracts/VendingMachine.sol\":1689:1803  products.push(ProductLibrary.Product(\"B1\", 20 * GWEI_MULTIPLIER, \"Sandwich\", concatIPFSReference(\"sandwich.png\"))) */\n  swap1\n  dup1\n  0x01\n  dup2\n  sload\n  add\n  dup1\n  dup3\n  sstore\n  dup1\n  swap2\n  pop\n  pop\n  0x01\n  swap1\n  sub\n  swap1\n  0x00\n  mstore\n  keccak256(0x00, 0x20)\n  swap1\n  0x04\n  mul\n  add\n  0x00\n  swap1\n  swap2\n  swap1\n  swap2\n  swap1\n  swap2\n  pop\n  0x00\n  dup3\n  add\n  mload\n  dup2\n  0x00\n  add\n  swap1\n  dup2\n  tag_44\n  swap2\n  swap1\n  tag_14\n  jump\t// in\ntag_44:\n  pop\n  0x20\n  dup3\n  add\n  mload\n  dup2\n  0x01\n  add\n  sstore\n  0x40\n  dup3\n  add\n  mload\n  dup2\n  0x02\n  add\n  swap1\n  dup2\n  tag_45\n  swap2\n  swap1\n  tag_14\n  jump\t// in\ntag_45:\n  pop\n  0x60\n  dup3\n  add\n  mload\n  dup2\n  0x03\n  add\n  swap1\n  dup2\n  tag_46\n  swap2\n  swap1\n  tag_14\n  jump\t// in\ntag_46:\n  pop\n  pop\n  pop\n    /* \"contracts/VendingMachine.sol\":1813:1821  products */\n  0x01\n    /* \"contracts/VendingMachine.sol\":1827:1925  ProductLibrary.Product(\"B2\", 175 * SMALL_GWEI_MULTIPLIER, \"Oreo\", concatIPFSReference(\"oreo.png\")) */\n  mload(0x40)\n  dup1\n  0x80\n  add\n  0x40\n  mstore\n  dup1\n  mload(0x40)\n  dup1\n  0x40\n  add\n  0x40\n  mstore\n  dup1\n  0x02\n  dup2\n  mstore\n  0x20\n  add\n  0x4232000000000000000000000000000000000000000000000000000000000000\n  dup2\n  mstore\n  pop\n  dup2\n  mstore\n  0x20\n  add\n    /* \"contracts/VendingMachine.sol\":508:513  10**7 */\n  0x989680\n    /* \"contracts/VendingMachine.sol\":1856:1859  175 */\n  0xaf\n    /* \"contracts/VendingMachine.sol\":1856:1883  175 * SMALL_GWEI_MULTIPLIER */\n  tag_47\n  swap2\n  swap1\n  tag_9\n  jump\t// in\ntag_47:\n    /* \"contracts/VendingMachine.sol\":1827:1925  ProductLibrary.Product(\"B2\", 175 * SMALL_GWEI_MULTIPLIER, \"Oreo\", concatIPFSReference(\"oreo.png\")) */\n  dup2\n  mstore\n  0x20\n  add\n  mload(0x40)\n  dup1\n  0x40\n  add\n  0x40\n  mstore\n  dup1\n  0x04\n  dup2\n  mstore\n  0x20\n  add\n  0x4f72656f00000000000000000000000000000000000000000000000000000000\n  dup2\n  mstore\n  pop\n  dup2\n  mstore\n  0x20\n  add\n    /* \"contracts/VendingMachine.sol\":1893:1924  concatIPFSReference(\"oreo.png\") */\n  tag_48\n  mload(0x40)\n  dup1\n  0x40\n  add\n  0x40\n  mstore\n  dup1\n  0x08\n  dup2\n  mstore\n  0x20\n  add\n  0x6f72656f2e706e67000000000000000000000000000000000000000000000000\n  dup2\n  mstore\n  pop\n    /* \"contracts/VendingMachine.sol\":1893:1912  concatIPFSReference */\n  shl(0x20, tag_11)\n    /* \"contracts/VendingMachine.sol\":1893:1924  concatIPFSReference(\"oreo.png\") */\n  0x20\n  shr\n  jump\t// in\ntag_48:\n    /* \"contracts/VendingMachine.sol\":1827:1925  ProductLibrary.Product(\"B2\", 175 * SMALL_GWEI_MULTIPLIER, \"Oreo\", concatIPFSReference(\"oreo.png\")) */\n  dup2\n  mstore\n  pop\n    /* \"contracts/VendingMachine.sol\":1813:1926  products.push(ProductLibrary.Product(\"B2\", 175 * SMALL_GWEI_MULTIPLIER, \"Oreo\", concatIPFSReference(\"oreo.png\"))) */\n  swap1\n  dup1\n  0x01\n  dup2\n  sload\n  add\n  dup1\n  dup3\n  sstore\n  dup1\n  swap2\n  pop\n  pop\n  0x01\n  swap1\n  sub\n  swap1\n  0x00\n  mstore\n  keccak256(0x00, 0x20)\n  swap1\n  0x04\n  mul\n  add\n  0x00\n  swap1\n  swap2\n  swap1\n  swap2\n  swap1\n  swap2\n  pop\n  0x00\n  dup3\n  add\n  mload\n  dup2\n  0x00\n  add\n  swap1\n  dup2\n  tag_50\n  swap2\n  swap1\n  tag_14\n  jump\t// in\ntag_50:\n  pop\n  0x20\n  dup3\n  add\n  mload\n  dup2\n  0x01\n  add\n  sstore\n  0x40\n  dup3\n  add\n  mload\n  dup2\n  0x02\n  add\n  swap1\n  dup2\n  tag_51\n  swap2\n  swap1\n  tag_14\n  jump\t// in\ntag_51:\n  pop\n  0x60\n  dup3\n  add\n  mload\n  dup2\n  0x03\n  add\n  swap1\n  dup2\n  tag_52\n  swap2\n  swap1\n  tag_14\n  jump\t// in\ntag_52:\n  pop\n  pop\n  pop\n    /* \"contracts/VendingMachine.sol\":1936:1944  products */\n  0x01\n    /* \"contracts/VendingMachine.sol\":1950:2045  ProductLibrary.Product(\"B3\", 15 * GWEI_MULTIPLIER, \"Sprite\", concatIPFSReference(\"sprite.png\")) */\n  mload(0x40)\n  dup1\n  0x80\n  add\n  0x40\n  mstore\n  dup1\n  mload(0x40)\n  dup1\n  0x40\n  add\n  0x40\n  mstore\n  dup1\n  0x02\n  dup2\n  mstore\n  0x20\n  add\n  0x4233000000000000000000000000000000000000000000000000000000000000\n  dup2\n  mstore\n  pop\n  dup2\n  mstore\n  0x20\n  add\n    /* \"contracts/VendingMachine.sol\":448:453  10**8 */\n  0x05f5e100\n    /* \"contracts/VendingMachine.sol\":1979:1981  15 */\n  0x0f\n    /* \"contracts/VendingMachine.sol\":1979:1999  15 * GWEI_MULTIPLIER */\n  tag_53\n  swap2\n  swap1\n  tag_9\n  jump\t// in\ntag_53:\n    /* \"contracts/VendingMachine.sol\":1950:2045  ProductLibrary.Product(\"B3\", 15 * GWEI_MULTIPLIER, \"Sprite\", concatIPFSReference(\"sprite.png\")) */\n  dup2\n  mstore\n  0x20\n  add\n  mload(0x40)\n  dup1\n  0x40\n  add\n  0x40\n  mstore\n  dup1\n  0x06\n  dup2\n  mstore\n  0x20\n  add\n  0x5370726974650000000000000000000000000000000000000000000000000000\n  dup2\n  mstore\n  pop\n  dup2\n  mstore\n  0x20\n  add\n    /* \"contracts/VendingMachine.sol\":2011:2044  concatIPFSReference(\"sprite.png\") */\n  tag_54\n  mload(0x40)\n  dup1\n  0x40\n  add\n  0x40\n  mstore\n  dup1\n  0x0a\n  dup2\n  mstore\n  0x20\n  add\n  0x7370726974652e706e6700000000000000000000000000000000000000000000\n  dup2\n  mstore\n  pop\n    /* \"contracts/VendingMachine.sol\":2011:2030  concatIPFSReference */\n  shl(0x20, tag_11)\n    /* \"contracts/VendingMachine.sol\":2011:2044  concatIPFSReference(\"sprite.png\") */\n  0x20\n  shr\n  jump\t// in\ntag_54:\n    /* \"contracts/VendingMachine.sol\":1950:2045  ProductLibrary.Product(\"B3\", 15 * GWEI_MULTIPLIER, \"Sprite\", concatIPFSReference(\"sprite.png\")) */\n  dup2\n  mstore\n  pop\n    /* \"contracts/VendingMachine.sol\":1936:2046  products.push(ProductLibrary.Product(\"B3\", 15 * GWEI_MULTIPLIER, \"Sprite\", concatIPFSReference(\"sprite.png\"))) */\n  swap1\n  dup1\n  0x01\n  dup2\n  sload\n  add\n  dup1\n  dup3\n  sstore\n  dup1\n  swap2\n  pop\n  pop\n  0x01\n  swap1\n  sub\n  swap1\n  0x00\n  mstore\n  keccak256(0x00, 0x20)\n  swap1\n  0x04\n  mul\n  add\n  0x00\n  swap1\n  swap2\n  swap1\n  swap2\n  swap1\n  swap2\n  pop\n  0x00\n  dup3\n  add\n  mload\n  dup2\n  0x00\n  add\n  swap1\n  dup2\n  tag_56\n  swap2\n  swap1\n  tag_14\n  jump\t// in\ntag_56:\n  pop\n  0x20\n  dup3\n  add\n  mload\n  dup2\n  0x01\n  add\n  sstore\n  0x40\n  dup3\n  add\n  mload\n  dup2\n  0x02\n  add\n  swap1\n  dup2\n  tag_57\n  swap2\n  swap1\n  tag_14\n  jump\t// in\ntag_57:\n  pop\n  0x60\n  dup3\n  add\n  mload\n  dup2\n  0x03\n  add\n  swap1\n  dup2\n  tag_58\n  swap2\n  swap1\n  tag_14\n  jump\t// in\ntag_58:\n  pop\n  pop\n  pop\n    /* \"contracts/VendingMachine.sol\":2056:2064  products */\n  0x01\n    /* \"contracts/VendingMachine.sol\":2070:2182  ProductLibrary.Product(\"B4\", 175 * SMALL_GWEI_MULTIPLIER, \"Granola Bar\", concatIPFSReference(\"granola-bar.png\")) */\n  mload(0x40)\n  dup1\n  0x80\n  add\n  0x40\n  mstore\n  dup1\n  mload(0x40)\n  dup1\n  0x40\n  add\n  0x40\n  mstore\n  dup1\n  0x02\n  dup2\n  mstore\n  0x20\n  add\n  0x4234000000000000000000000000000000000000000000000000000000000000\n  dup2\n  mstore\n  pop\n  dup2\n  mstore\n  0x20\n  add\n    /* \"contracts/VendingMachine.sol\":508:513  10**7 */\n  0x989680\n    /* \"contracts/VendingMachine.sol\":2099:2102  175 */\n  0xaf\n    /* \"contracts/VendingMachine.sol\":2099:2126  175 * SMALL_GWEI_MULTIPLIER */\n  tag_59\n  swap2\n  swap1\n  tag_9\n  jump\t// in\ntag_59:\n    /* \"contracts/VendingMachine.sol\":2070:2182  ProductLibrary.Product(\"B4\", 175 * SMALL_GWEI_MULTIPLIER, \"Granola Bar\", concatIPFSReference(\"granola-bar.png\")) */\n  dup2\n  mstore\n  0x20\n  add\n  mload(0x40)\n  dup1\n  0x40\n  add\n  0x40\n  mstore\n  dup1\n  0x0b\n  dup2\n  mstore\n  0x20\n  add\n  0x4772616e6f6c6120426172000000000000000000000000000000000000000000\n  dup2\n  mstore\n  pop\n  dup2\n  mstore\n  0x20\n  add\n    /* \"contracts/VendingMachine.sol\":2143:2181  concatIPFSReference(\"granola-bar.png\") */\n  tag_60\n  mload(0x40)\n  dup1\n  0x40\n  add\n  0x40\n  mstore\n  dup1\n  0x0f\n  dup2\n  mstore\n  0x20\n  add\n  0x6772616e6f6c612d6261722e706e670000000000000000000000000000000000\n  dup2\n  mstore\n  pop\n    /* \"contracts/VendingMachine.sol\":2143:2162  concatIPFSReference */\n  shl(0x20, tag_11)\n    /* \"contracts/VendingMachine.sol\":2143:2181  concatIPFSReference(\"granola-bar.png\") */\n  0x20\n  shr\n  jump\t// in\ntag_60:\n    /* \"contracts/VendingMachine.sol\":2070:2182  ProductLibrary.Product(\"B4\", 175 * SMALL_GWEI_MULTIPLIER, \"Granola Bar\", concatIPFSReference(\"granola-bar.png\")) */\n  dup2\n  mstore\n  pop\n    /* \"contracts/VendingMachine.sol\":2056:2183  products.push(ProductLibrary.Product(\"B4\", 175 * SMALL_GWEI_MULTIPLIER, \"Granola Bar\", concatIPFSReference(\"granola-bar.png\"))) */\n  swap1\n  dup1\n  0x01\n  dup2\n  sload\n  add\n  dup1\n  dup3\n  sstore\n  dup1\n  swap2\n  pop\n  pop\n  0x01\n  swap1\n  sub\n  swap1\n  0x00\n  mstore\n  keccak256(0x00, 0x20)\n  swap1\n  0x04\n  mul\n  add\n  0x00\n  swap1\n  swap2\n  swap1\n  swap2\n  swap1\n  swap2\n  pop\n  0x00\n  dup3\n  add\n  mload\n  dup2\n  0x00\n  add\n  swap1\n  dup2\n  tag_62\n  swap2\n  swap1\n  tag_14\n  jump\t// in\ntag_62:\n  pop\n  0x20\n  dup3\n  add\n  mload\n  dup2\n  0x01\n  add\n  sstore\n  0x40\n  dup3\n  add\n  mload\n  dup2\n  0x02\n  add\n  swap1\n  dup2\n  tag_63\n  swap2\n  swap1\n  tag_14\n  jump\t// in\ntag_63:\n  pop\n  0x60\n  dup3\n  add\n  mload\n  dup2\n  0x03\n  add\n  swap1\n  dup2\n  tag_64\n  swap2\n  swap1\n  tag_14\n  jump\t// in\ntag_64:\n  pop\n  pop\n  pop\n    /* \"contracts/VendingMachine.sol\":2193:2201  products */\n  0x01\n    /* \"contracts/VendingMachine.sol\":2207:2311  ProductLibrary.Product(\"B5\", 175 * SMALL_GWEI_MULTIPLIER, \"Doritos\", concatIPFSReference(\"doritos.png\")) */\n  mload(0x40)\n  dup1\n  0x80\n  add\n  0x40\n  mstore\n  dup1\n  mload(0x40)\n  dup1\n  0x40\n  add\n  0x40\n  mstore\n  dup1\n  0x02\n  dup2\n  mstore\n  0x20\n  add\n  0x4235000000000000000000000000000000000000000000000000000000000000\n  dup2\n  mstore\n  pop\n  dup2\n  mstore\n  0x20\n  add\n    /* \"contracts/VendingMachine.sol\":508:513  10**7 */\n  0x989680\n    /* \"contracts/VendingMachine.sol\":2236:2239  175 */\n  0xaf\n    /* \"contracts/VendingMachine.sol\":2236:2263  175 * SMALL_GWEI_MULTIPLIER */\n  tag_65\n  swap2\n  swap1\n  tag_9\n  jump\t// in\ntag_65:\n    /* \"contracts/VendingMachine.sol\":2207:2311  ProductLibrary.Product(\"B5\", 175 * SMALL_GWEI_MULTIPLIER, \"Doritos\", concatIPFSReference(\"doritos.png\")) */\n  dup2\n  mstore\n  0x20\n  add\n  mload(0x40)\n  dup1\n  0x40\n  add\n  0x40\n  mstore\n  dup1\n  0x07\n  dup2\n  mstore\n  0x20\n  add\n  0x446f7269746f7300000000000000000000000000000000000000000000000000\n  dup2\n  mstore\n  pop\n  dup2\n  mstore\n  0x20\n  add\n    /* \"contracts/VendingMachine.sol\":2276:2310  concatIPFSReference(\"doritos.png\") */\n  tag_66\n  mload(0x40)\n  dup1\n  0x40\n  add\n  0x40\n  mstore\n  dup1\n  0x0b\n  dup2\n  mstore\n  0x20\n  add\n  0x646f7269746f732e706e67000000000000000000000000000000000000000000\n  dup2\n  mstore\n  pop\n    /* \"contracts/VendingMachine.sol\":2276:2295  concatIPFSReference */\n  shl(0x20, tag_11)\n    /* \"contracts/VendingMachine.sol\":2276:2310  concatIPFSReference(\"doritos.png\") */\n  0x20\n  shr\n  jump\t// in\ntag_66:\n    /* \"contracts/VendingMachine.sol\":2207:2311  ProductLibrary.Product(\"B5\", 175 * SMALL_GWEI_MULTIPLIER, \"Doritos\", concatIPFSReference(\"doritos.png\")) */\n  dup2\n  mstore\n  pop\n    /* \"contracts/VendingMachine.sol\":2193:2312  products.push(ProductLibrary.Product(\"B5\", 175 * SMALL_GWEI_MULTIPLIER, \"Doritos\", concatIPFSReference(\"doritos.png\"))) */\n  swap1\n  dup1\n  0x01\n  dup2\n  sload\n  add\n  dup1\n  dup3\n  sstore\n  dup1\n  swap2\n  pop\n  pop\n  0x01\n  swap1\n  sub\n  swap1\n  0x00\n  mstore\n  keccak256(0x00, 0x20)\n  swap1\n  0x04\n  mul\n  add\n  0x00\n  swap1\n  swap2\n  swap1\n  swap2\n  swap1\n  swap2\n  pop\n  0x00\n  dup3\n  add\n  mload\n  dup2\n  0x00\n  add\n  swap1\n  dup2\n  tag_68\n  swap2\n  swap1\n  tag_14\n  jump\t// in\ntag_68:\n  pop\n  0x20\n  dup3\n  add\n  mload\n  dup2\n  0x01\n  add\n  sstore\n  0x40\n  dup3\n  add\n  mload\n  dup2\n  0x02\n  add\n  swap1\n  dup2\n  tag_69\n  swap2\n  swap1\n  tag_14\n  jump\t// in\ntag_69:\n  pop\n  0x60\n  dup3\n  add\n  mload\n  dup2\n  0x03\n  add\n  swap1\n  dup2\n  tag_70\n  swap2\n  swap1\n  tag_14\n  jump\t// in\ntag_70:\n  pop\n  pop\n  pop\n    /* \"contracts/VendingMachine.sol\":2322:2330  products */\n  0x01\n    /* \"contracts/VendingMachine.sol\":2336:2438  ProductLibrary.Product(\"C1\", 15 * GWEI_MULTIPLIER, \"Snicker Bar\", concatIPFSReference(\"snickers.png\")) */\n  mload(0x40)\n  dup1\n  0x80\n  add\n  0x40\n  mstore\n  dup1\n  mload(0x40)\n  dup1\n  0x40\n  add\n  0x40\n  mstore\n  dup1\n  0x02\n  dup2\n  mstore\n  0x20\n  add\n  0x4331000000000000000000000000000000000000000000000000000000000000\n  dup2\n  mstore\n  pop\n  dup2\n  mstore\n  0x20\n  add\n    /* \"contracts/VendingMachine.sol\":448:453  10**8 */\n  0x05f5e100\n    /* \"contracts/VendingMachine.sol\":2365:2367  15 */\n  0x0f\n    /* \"contracts/VendingMachine.sol\":2365:2385  15 * GWEI_MULTIPLIER */\n  tag_71\n  swap2\n  swap1\n  tag_9\n  jump\t// in\ntag_71:\n    /* \"contracts/VendingMachine.sol\":2336:2438  ProductLibrary.Product(\"C1\", 15 * GWEI_MULTIPLIER, \"Snicker Bar\", concatIPFSReference(\"snickers.png\")) */\n  dup2\n  mstore\n  0x20\n  add\n  mload(0x40)\n  dup1\n  0x40\n  add\n  0x40\n  mstore\n  dup1\n  0x0b\n  dup2\n  mstore\n  0x20\n  add\n  0x536e69636b657220426172000000000000000000000000000000000000000000\n  dup2\n  mstore\n  pop\n  dup2\n  mstore\n  0x20\n  add\n    /* \"contracts/VendingMachine.sol\":2402:2437  concatIPFSReference(\"snickers.png\") */\n  tag_72\n  mload(0x40)\n  dup1\n  0x40\n  add\n  0x40\n  mstore\n  dup1\n  0x0c\n  dup2\n  mstore\n  0x20\n  add\n  0x736e69636b6572732e706e670000000000000000000000000000000000000000\n  dup2\n  mstore\n  pop\n    /* \"contracts/VendingMachine.sol\":2402:2421  concatIPFSReference */\n  shl(0x20, tag_11)\n    /* \"contracts/VendingMachine.sol\":2402:2437  concatIPFSReference(\"snickers.png\") */\n  0x20\n  shr\n  jump\t// in\ntag_72:\n    /* \"contracts/VendingMachine.sol\":2336:2438  ProductLibrary.Product(\"C1\", 15 * GWEI_MULTIPLIER, \"Snicker Bar\", concatIPFSReference(\"snickers.png\")) */\n  dup2\n  mstore\n  pop\n    /* \"contracts/VendingMachine.sol\":2322:2439  products.push(ProductLibrary.Product(\"C1\", 15 * GWEI_MULTIPLIER, \"Snicker Bar\", concatIPFSReference(\"snickers.png\"))) */\n  swap1\n  dup1\n  0x01\n  dup2\n  sload\n  add\n  dup1\n  dup3\n  sstore\n  dup1\n  swap2\n  pop\n  pop\n  0x01\n  swap1\n  sub\n  swap1\n  0x00\n  mstore\n  keccak256(0x00, 0x20)\n  swap1\n  0x04\n  mul\n  add\n  0x00\n  swap1\n  swap2\n  swap1\n  swap2\n  swap1\n  swap2\n  pop\n  0x00\n  dup3\n  add\n  mload\n  dup2\n  0x00\n  add\n  swap1\n  dup2\n  tag_74\n  swap2\n  swap1\n  tag_14\n  jump\t// in\ntag_74:\n  pop\n  0x20\n  dup3\n  add\n  mload\n  dup2\n  0x01\n  add\n  sstore\n  0x40\n  dup3\n  add\n  mload\n  dup2\n  0x02\n  add\n  swap1\n  dup2\n  tag_75\n  swap2\n  swap1\n  tag_14\n  jump\t// in\ntag_75:\n  pop\n  0x60\n  dup3\n  add\n  mload\n  dup2\n  0x03\n  add\n  swap1\n  dup2\n  tag_76\n  swap2\n  swap1\n  tag_14\n  jump\t// in\ntag_76:\n  pop\n  pop\n  pop\n    /* \"contracts/VendingMachine.sol\":2449:2457  products */\n  0x01\n    /* \"contracts/VendingMachine.sol\":2463:2554  ProductLibrary.Product(\"C2\", 15 * GWEI_MULTIPLIER, \"M&Ms\", concatIPFSReference(\"m&ms.png\")) */\n  mload(0x40)\n  dup1\n  0x80\n  add\n  0x40\n  mstore\n  dup1\n  mload(0x40)\n  dup1\n  0x40\n  add\n  0x40\n  mstore\n  dup1\n  0x02\n  dup2\n  mstore\n  0x20\n  add\n  0x4332000000000000000000000000000000000000000000000000000000000000\n  dup2\n  mstore\n  pop\n  dup2\n  mstore\n  0x20\n  add\n    /* \"contracts/VendingMachine.sol\":448:453  10**8 */\n  0x05f5e100\n    /* \"contracts/VendingMachine.sol\":2492:2494  15 */\n  0x0f\n    /* \"contracts/VendingMachine.sol\":2492:2512  15 * GWEI_MULTIPLIER */\n  tag_77\n  swap2\n  swap1\n  tag_9\n  jump\t// in\ntag_77:\n    /* \"contracts/VendingMachine.sol\":2463:2554  ProductLibrary.Product(\"C2\", 15 * GWEI_MULTIPLIER, \"M&Ms\", concatIPFSReference(\"m&ms.png\")) */\n  dup2\n  mstore\n  0x20\n  add\n  mload(0x40)\n  dup1\n  0x40\n  add\n  0x40\n  mstore\n  dup1\n  0x04\n  dup2\n  mstore\n  0x20\n  add\n  0x4d264d7300000000000000000000000000000000000000000000000000000000\n  dup2\n  mstore\n  pop\n  dup2\n  mstore\n  0x20\n  add\n    /* \"contracts/VendingMachine.sol\":2522:2553  concatIPFSReference(\"m&ms.png\") */\n  tag_78\n  mload(0x40)\n  dup1\n  0x40\n  add\n  0x40\n  mstore\n  dup1\n  0x08\n  dup2\n  mstore\n  0x20\n  add\n  0x6d266d732e706e67000000000000000000000000000000000000000000000000\n  dup2\n  mstore\n  pop\n    /* \"contracts/VendingMachine.sol\":2522:2541  concatIPFSReference */\n  shl(0x20, tag_11)\n    /* \"contracts/VendingMachine.sol\":2522:2553  concatIPFSReference(\"m&ms.png\") */\n  0x20\n  shr\n  jump\t// in\ntag_78:\n    /* \"contracts/VendingMachine.sol\":2463:2554  ProductLibrary.Product(\"C2\", 15 * GWEI_MULTIPLIER, \"M&Ms\", concatIPFSReference(\"m&ms.png\")) */\n  dup2\n  mstore\n  pop\n    /* \"contracts/VendingMachine.sol\":2449:2555  products.push(ProductLibrary.Product(\"C2\", 15 * GWEI_MULTIPLIER, \"M&Ms\", concatIPFSReference(\"m&ms.png\"))) */\n  swap1\n  dup1\n  0x01\n  dup2\n  sload\n  add\n  dup1\n  dup3\n  sstore\n  dup1\n  swap2\n  pop\n  pop\n  0x01\n  swap1\n  sub\n  swap1\n  0x00\n  mstore\n  keccak256(0x00, 0x20)\n  swap1\n  0x04\n  mul\n  add\n  0x00\n  swap1\n  swap2\n  swap1\n  swap2\n  swap1\n  swap2\n  pop\n  0x00\n  dup3\n  add\n  mload\n  dup2\n  0x00\n  add\n  swap1\n  dup2\n  tag_80\n  swap2\n  swap1\n  tag_14\n  jump\t// in\ntag_80:\n  pop\n  0x20\n  dup3\n  add\n  mload\n  dup2\n  0x01\n  add\n  sstore\n  0x40\n  dup3\n  add\n  mload\n  dup2\n  0x02\n  add\n  swap1\n  dup2\n  tag_81\n  swap2\n  swap1\n  tag_14\n  jump\t// in\ntag_81:\n  pop\n  0x60\n  dup3\n  add\n  mload\n  dup2\n  0x03\n  add\n  swap1\n  dup2\n  tag_82\n  swap2\n  swap1\n  tag_14\n  jump\t// in\ntag_82:\n  pop\n  pop\n  pop\n    /* \"contracts/VendingMachine.sol\":2565:2573  products */\n  0x01\n    /* \"contracts/VendingMachine.sol\":2579:2693  ProductLibrary.Product(\"C3\", 125 * SMALL_GWEI_MULTIPLIER, \"Bubble Tap Gum\", concatIPFSReference(\"bubble-tap.png\")) */\n  mload(0x40)\n  dup1\n  0x80\n  add\n  0x40\n  mstore\n  dup1\n  mload(0x40)\n  dup1\n  0x40\n  add\n  0x40\n  mstore\n  dup1\n  0x02\n  dup2\n  mstore\n  0x20\n  add\n  0x4333000000000000000000000000000000000000000000000000000000000000\n  dup2\n  mstore\n  pop\n  dup2\n  mstore\n  0x20\n  add\n    /* \"contracts/VendingMachine.sol\":508:513  10**7 */\n  0x989680\n    /* \"contracts/VendingMachine.sol\":2608:2611  125 */\n  0x7d\n    /* \"contracts/VendingMachine.sol\":2608:2635  125 * SMALL_GWEI_MULTIPLIER */\n  tag_83\n  swap2\n  swap1\n  tag_9\n  jump\t// in\ntag_83:\n    /* \"contracts/VendingMachine.sol\":2579:2693  ProductLibrary.Product(\"C3\", 125 * SMALL_GWEI_MULTIPLIER, \"Bubble Tap Gum\", concatIPFSReference(\"bubble-tap.png\")) */\n  dup2\n  mstore\n  0x20\n  add\n  mload(0x40)\n  dup1\n  0x40\n  add\n  0x40\n  mstore\n  dup1\n  0x0e\n  dup2\n  mstore\n  0x20\n  add\n  0x427562626c65205461702047756d000000000000000000000000000000000000\n  dup2\n  mstore\n  pop\n  dup2\n  mstore\n  0x20\n  add\n    /* \"contracts/VendingMachine.sol\":2655:2692  concatIPFSReference(\"bubble-tap.png\") */\n  tag_84\n  mload(0x40)\n  dup1\n  0x40\n  add\n  0x40\n  mstore\n  dup1\n  0x0e\n  dup2\n  mstore\n  0x20\n  add\n  0x627562626c652d7461702e706e67000000000000000000000000000000000000\n  dup2\n  mstore\n  pop\n    /* \"contracts/VendingMachine.sol\":2655:2674  concatIPFSReference */\n  shl(0x20, tag_11)\n    /* \"contracts/VendingMachine.sol\":2655:2692  concatIPFSReference(\"bubble-tap.png\") */\n  0x20\n  shr\n  jump\t// in\ntag_84:\n    /* \"contracts/VendingMachine.sol\":2579:2693  ProductLibrary.Product(\"C3\", 125 * SMALL_GWEI_MULTIPLIER, \"Bubble Tap Gum\", concatIPFSReference(\"bubble-tap.png\")) */\n  dup2\n  mstore\n  pop\n    /* \"contracts/VendingMachine.sol\":2565:2694  products.push(ProductLibrary.Product(\"C3\", 125 * SMALL_GWEI_MULTIPLIER, \"Bubble Tap Gum\", concatIPFSReference(\"bubble-tap.png\"))) */\n  swap1\n  dup1\n  0x01\n  dup2\n  sload\n  add\n  dup1\n  dup3\n  sstore\n  dup1\n  swap2\n  pop\n  pop\n  0x01\n  swap1\n  sub\n  swap1\n  0x00\n  mstore\n  keccak256(0x00, 0x20)\n  swap1\n  0x04\n  mul\n  add\n  0x00\n  swap1\n  swap2\n  swap1\n  swap2\n  swap1\n  swap2\n  pop\n  0x00\n  dup3\n  add\n  mload\n  dup2\n  0x00\n  add\n  swap1\n  dup2\n  tag_86\n  swap2\n  swap1\n  tag_14\n  jump\t// in\ntag_86:\n  pop\n  0x20\n  dup3\n  add\n  mload\n  dup2\n  0x01\n  add\n  sstore\n  0x40\n  dup3\n  add\n  mload\n  dup2\n  0x02\n  add\n  swap1\n  dup2\n  tag_87\n  swap2\n  swap1\n  tag_14\n  jump\t// in\ntag_87:\n  pop\n  0x60\n  dup3\n  add\n  mload\n  dup2\n  0x03\n  add\n  swap1\n  dup2\n  tag_88\n  swap2\n  swap1\n  tag_14\n  jump\t// in\ntag_88:\n  pop\n  pop\n  pop\n    /* \"contracts/VendingMachine.sol\":2704:2712  products */\n  0x01\n    /* \"contracts/VendingMachine.sol\":2718:2830  ProductLibrary.Product(\"C4\", 175 * SMALL_GWEI_MULTIPLIER, \"Fruit Nut Bar\", concatIPFSReference(\"fruit-nut.png\")) */\n  mload(0x40)\n  dup1\n  0x80\n  add\n  0x40\n  mstore\n  dup1\n  mload(0x40)\n  dup1\n  0x40\n  add\n  0x40\n  mstore\n  dup1\n  0x02\n  dup2\n  mstore\n  0x20\n  add\n  0x4334000000000000000000000000000000000000000000000000000000000000\n  dup2\n  mstore\n  pop\n  dup2\n  mstore\n  0x20\n  add\n    /* \"contracts/VendingMachine.sol\":508:513  10**7 */\n  0x989680\n    /* \"contracts/VendingMachine.sol\":2747:2750  175 */\n  0xaf\n    /* \"contracts/VendingMachine.sol\":2747:2774  175 * SMALL_GWEI_MULTIPLIER */\n  tag_89\n  swap2\n  swap1\n  tag_9\n  jump\t// in\ntag_89:\n    /* \"contracts/VendingMachine.sol\":2718:2830  ProductLibrary.Product(\"C4\", 175 * SMALL_GWEI_MULTIPLIER, \"Fruit Nut Bar\", concatIPFSReference(\"fruit-nut.png\")) */\n  dup2\n  mstore\n  0x20\n  add\n  mload(0x40)\n  dup1\n  0x40\n  add\n  0x40\n  mstore\n  dup1\n  0x0d\n  dup2\n  mstore\n  0x20\n  add\n  0x4672756974204e75742042617200000000000000000000000000000000000000\n  dup2\n  mstore\n  pop\n  dup2\n  mstore\n  0x20\n  add\n    /* \"contracts/VendingMachine.sol\":2793:2829  concatIPFSReference(\"fruit-nut.png\") */\n  tag_90\n  mload(0x40)\n  dup1\n  0x40\n  add\n  0x40\n  mstore\n  dup1\n  0x0d\n  dup2\n  mstore\n  0x20\n  add\n  0x66727569742d6e75742e706e6700000000000000000000000000000000000000\n  dup2\n  mstore\n  pop\n    /* \"contracts/VendingMachine.sol\":2793:2812  concatIPFSReference */\n  shl(0x20, tag_11)\n    /* \"contracts/VendingMachine.sol\":2793:2829  concatIPFSReference(\"fruit-nut.png\") */\n  0x20\n  shr\n  jump\t// in\ntag_90:\n    /* \"contracts/VendingMachine.sol\":2718:2830  ProductLibrary.Product(\"C4\", 175 * SMALL_GWEI_MULTIPLIER, \"Fruit Nut Bar\", concatIPFSReference(\"fruit-nut.png\")) */\n  dup2\n  mstore\n  pop\n    /* \"contracts/VendingMachine.sol\":2704:2831  products.push(ProductLibrary.Product(\"C4\", 175 * SMALL_GWEI_MULTIPLIER, \"Fruit Nut Bar\", concatIPFSReference(\"fruit-nut.png\"))) */\n  swap1\n  dup1\n  0x01\n  dup2\n  sload\n  add\n  dup1\n  dup3\n  sstore\n  dup1\n  swap2\n  pop\n  pop\n  0x01\n  swap1\n  sub\n  swap1\n  0x00\n  mstore\n  keccak256(0x00, 0x20)\n  swap1\n  0x04\n  mul\n  add\n  0x00\n  swap1\n  swap2\n  swap1\n  swap2\n  swap1\n  swap2\n  pop\n  0x00\n  dup3\n  add\n  mload\n  dup2\n  0x00\n  add\n  swap1\n  dup2\n  tag_92\n  swap2\n  swap1\n  tag_14\n  jump\t// in\ntag_92:\n  pop\n  0x20\n  dup3\n  add\n  mload\n  dup2\n  0x01\n  add\n  sstore\n  0x40\n  dup3\n  add\n  mload\n  dup2\n  0x02\n  add\n  swap1\n  dup2\n  tag_93\n  swap2\n  swap1\n  tag_14\n  jump\t// in\ntag_93:\n  pop\n  0x60\n  dup3\n  add\n  mload\n  dup2\n  0x03\n  add\n  swap1\n  dup2\n  tag_94\n  swap2\n  swap1\n  tag_14\n  jump\t// in\ntag_94:\n  pop\n  pop\n  pop\n    /* \"contracts/VendingMachine.sol\":2841:2849  products */\n  0x01\n    /* \"contracts/VendingMachine.sol\":2855:2965  ProductLibrary.Product(\"C5\", 175 * SMALL_GWEI_MULTIPLIER, \"Beef Jerky\", concatIPFSReference(\"beef-jerky.png\")) */\n  mload(0x40)\n  dup1\n  0x80\n  add\n  0x40\n  mstore\n  dup1\n  mload(0x40)\n  dup1\n  0x40\n  add\n  0x40\n  mstore\n  dup1\n  0x02\n  dup2\n  mstore\n  0x20\n  add\n  0x4335000000000000000000000000000000000000000000000000000000000000\n  dup2\n  mstore\n  pop\n  dup2\n  mstore\n  0x20\n  add\n    /* \"contracts/VendingMachine.sol\":508:513  10**7 */\n  0x989680\n    /* \"contracts/VendingMachine.sol\":2884:2887  175 */\n  0xaf\n    /* \"contracts/VendingMachine.sol\":2884:2911  175 * SMALL_GWEI_MULTIPLIER */\n  tag_95\n  swap2\n  swap1\n  tag_9\n  jump\t// in\ntag_95:\n    /* \"contracts/VendingMachine.sol\":2855:2965  ProductLibrary.Product(\"C5\", 175 * SMALL_GWEI_MULTIPLIER, \"Beef Jerky\", concatIPFSReference(\"beef-jerky.png\")) */\n  dup2\n  mstore\n  0x20\n  add\n  mload(0x40)\n  dup1\n  0x40\n  add\n  0x40\n  mstore\n  dup1\n  0x0a\n  dup2\n  mstore\n  0x20\n  add\n  0x42656566204a65726b7900000000000000000000000000000000000000000000\n  dup2\n  mstore\n  pop\n  dup2\n  mstore\n  0x20\n  add\n    /* \"contracts/VendingMachine.sol\":2927:2964  concatIPFSReference(\"beef-jerky.png\") */\n  tag_96\n  mload(0x40)\n  dup1\n  0x40\n  add\n  0x40\n  mstore\n  dup1\n  0x0e\n  dup2\n  mstore\n  0x20\n  add\n  0x626565662d6a65726b792e706e67000000000000000000000000000000000000\n  dup2\n  mstore\n  pop\n    /* \"contracts/VendingMachine.sol\":2927:2946  concatIPFSReference */\n  shl(0x20, tag_11)\n    /* \"contracts/VendingMachine.sol\":2927:2964  concatIPFSReference(\"beef-jerky.png\") */\n  0x20\n  shr\n  jump\t// in\ntag_96:\n    /* \"contracts/VendingMachine.sol\":2855:2965  ProductLibrary.Product(\"C5\", 175 * SMALL_GWEI_MULTIPLIER, \"Beef Jerky\", concatIPFSReference(\"beef-jerky.png\")) */\n  dup2\n  mstore\n  pop\n    /* \"contracts/VendingMachine.sol\":2841:2966  products.push(ProductLibrary.Product(\"C5\", 175 * SMALL_GWEI_MULTIPLIER, \"Beef Jerky\", concatIPFSReference(\"beef-jerky.png\"))) */\n  swap1\n  dup1\n  0x01\n  dup2\n  sload\n  add\n  dup1\n  dup3\n  sstore\n  dup1\n  swap2\n  pop\n  pop\n  0x01\n  swap1\n  sub\n  swap1\n  0x00\n  mstore\n  keccak256(0x00, 0x20)\n  swap1\n  0x04\n  mul\n  add\n  0x00\n  swap1\n  swap2\n  swap1\n  swap2\n  swap1\n  swap2\n  pop\n  0x00\n  dup3\n  add\n  mload\n  dup2\n  0x00\n  add\n  swap1\n  dup2\n  tag_98\n  swap2\n  swap1\n  tag_14\n  jump\t// in\ntag_98:\n  pop\n  0x20\n  dup3\n  add\n  mload\n  dup2\n  0x01\n  add\n  sstore\n  0x40\n  dup3\n  add\n  mload\n  dup2\n  0x02\n  add\n  swap1\n  dup2\n  tag_99\n  swap2\n  swap1\n  tag_14\n  jump\t// in\ntag_99:\n  pop\n  0x60\n  dup3\n  add\n  mload\n  dup2\n  0x03\n  add\n  swap1\n  dup2\n  tag_100\n  swap2\n  swap1\n  tag_14\n  jump\t// in\ntag_100:\n  pop\n  pop\n  pop\n    /* \"contracts/VendingMachine.sol\":2976:2984  products */\n  0x01\n    /* \"contracts/VendingMachine.sol\":2990:3100  ProductLibrary.Product(\"D1\", 125 * SMALL_GWEI_MULTIPLIER, \"KitKat Biscuit\", concatIPFSReference(\"kitkat.png\")) */\n  mload(0x40)\n  dup1\n  0x80\n  add\n  0x40\n  mstore\n  dup1\n  mload(0x40)\n  dup1\n  0x40\n  add\n  0x40\n  mstore\n  dup1\n  0x02\n  dup2\n  mstore\n  0x20\n  add\n  0x4431000000000000000000000000000000000000000000000000000000000000\n  dup2\n  mstore\n  pop\n  dup2\n  mstore\n  0x20\n  add\n    /* \"contracts/VendingMachine.sol\":508:513  10**7 */\n  0x989680\n    /* \"contracts/VendingMachine.sol\":3019:3022  125 */\n  0x7d\n    /* \"contracts/VendingMachine.sol\":3019:3046  125 * SMALL_GWEI_MULTIPLIER */\n  tag_101\n  swap2\n  swap1\n  tag_9\n  jump\t// in\ntag_101:\n    /* \"contracts/VendingMachine.sol\":2990:3100  ProductLibrary.Product(\"D1\", 125 * SMALL_GWEI_MULTIPLIER, \"KitKat Biscuit\", concatIPFSReference(\"kitkat.png\")) */\n  dup2\n  mstore\n  0x20\n  add\n  mload(0x40)\n  dup1\n  0x40\n  add\n  0x40\n  mstore\n  dup1\n  0x0e\n  dup2\n  mstore\n  0x20\n  add\n  0x4b69744b61742042697363756974000000000000000000000000000000000000\n  dup2\n  mstore\n  pop\n  dup2\n  mstore\n  0x20\n  add\n    /* \"contracts/VendingMachine.sol\":3066:3099  concatIPFSReference(\"kitkat.png\") */\n  tag_102\n  mload(0x40)\n  dup1\n  0x40\n  add\n  0x40\n  mstore\n  dup1\n  0x0a\n  dup2\n  mstore\n  0x20\n  add\n  0x6b69746b61742e706e6700000000000000000000000000000000000000000000\n  dup2\n  mstore\n  pop\n    /* \"contracts/VendingMachine.sol\":3066:3085  concatIPFSReference */\n  shl(0x20, tag_11)\n    /* \"contracts/VendingMachine.sol\":3066:3099  concatIPFSReference(\"kitkat.png\") */\n  0x20\n  shr\n  jump\t// in\ntag_102:\n    /* \"contracts/VendingMachine.sol\":2990:3100  ProductLibrary.Product(\"D1\", 125 * SMALL_GWEI_MULTIPLIER, \"KitKat Biscuit\", concatIPFSReference(\"kitkat.png\")) */\n  dup2\n  mstore\n  pop\n    /* \"contracts/VendingMachine.sol\":2976:3101  products.push(ProductLibrary.Product(\"D1\", 125 * SMALL_GWEI_MULTIPLIER, \"KitKat Biscuit\", concatIPFSReference(\"kitkat.png\"))) */\n  swap1\n  dup1\n  0x01\n  dup2\n  sload\n  add\n  dup1\n  dup3\n  sstore\n  dup1\n  swap2\n  pop\n  pop\n  0x01\n  swap1\n  sub\n  swap1\n  0x00\n  mstore\n  keccak256(0x00, 0x20)\n  swap1\n  0x04\n  mul\n  add\n  0x00\n  swap1\n  swap2\n  swap1\n  swap2\n  swap1\n  swap2\n  pop\n  0x00\n  dup3\n  add\n  mload\n  dup2\n  0x00\n  add\n  swap1\n  dup2\n  tag_104\n  swap2\n  swap1\n  tag_14\n  jump\t// in\ntag_104:\n  pop\n  0x20\n  dup3\n  add\n  mload\n  dup2\n  0x01\n  add\n  sstore\n  0x40\n  dup3\n  add\n  mload\n  dup2\n  0x02\n  add\n  swap1\n  dup2\n  tag_105\n  swap2\n  swap1\n  tag_14\n  jump\t// in\ntag_105:\n  pop\n  0x60\n  dup3\n  add\n  mload\n  dup2\n  0x03\n  add\n  swap1\n  dup2\n  tag_106\n  swap2\n  swap1\n  tag_14\n  jump\t// in\ntag_106:\n  pop\n  pop\n  pop\n    /* \"contracts/VendingMachine.sol\":3111:3119  products */\n  0x01\n    /* \"contracts/VendingMachine.sol\":3125:3230  ProductLibrary.Product(\"D2\", 125 * SMALL_GWEI_MULTIPLIER, \"Pop Corn\", concatIPFSReference(\"popcorn.png\")) */\n  mload(0x40)\n  dup1\n  0x80\n  add\n  0x40\n  mstore\n  dup1\n  mload(0x40)\n  dup1\n  0x40\n  add\n  0x40\n  mstore\n  dup1\n  0x02\n  dup2\n  mstore\n  0x20\n  add\n  0x4432000000000000000000000000000000000000000000000000000000000000\n  dup2\n  mstore\n  pop\n  dup2\n  mstore\n  0x20\n  add\n    /* \"contracts/VendingMachine.sol\":508:513  10**7 */\n  0x989680\n    /* \"contracts/VendingMachine.sol\":3154:3157  125 */\n  0x7d\n    /* \"contracts/VendingMachine.sol\":3154:3181  125 * SMALL_GWEI_MULTIPLIER */\n  tag_107\n  swap2\n  swap1\n  tag_9\n  jump\t// in\ntag_107:\n    /* \"contracts/VendingMachine.sol\":3125:3230  ProductLibrary.Product(\"D2\", 125 * SMALL_GWEI_MULTIPLIER, \"Pop Corn\", concatIPFSReference(\"popcorn.png\")) */\n  dup2\n  mstore\n  0x20\n  add\n  mload(0x40)\n  dup1\n  0x40\n  add\n  0x40\n  mstore\n  dup1\n  0x08\n  dup2\n  mstore\n  0x20\n  add\n  0x506f7020436f726e000000000000000000000000000000000000000000000000\n  dup2\n  mstore\n  pop\n  dup2\n  mstore\n  0x20\n  add\n    /* \"contracts/VendingMachine.sol\":3195:3229  concatIPFSReference(\"popcorn.png\") */\n  tag_108\n  mload(0x40)\n  dup1\n  0x40\n  add\n  0x40\n  mstore\n  dup1\n  0x0b\n  dup2\n  mstore\n  0x20\n  add\n  0x706f70636f726e2e706e67000000000000000000000000000000000000000000\n  dup2\n  mstore\n  pop\n    /* \"contracts/VendingMachine.sol\":3195:3214  concatIPFSReference */\n  shl(0x20, tag_11)\n    /* \"contracts/VendingMachine.sol\":3195:3229  concatIPFSReference(\"popcorn.png\") */\n  0x20\n  shr\n  jump\t// in\ntag_108:\n    /* \"contracts/VendingMachine.sol\":3125:3230  ProductLibrary.Product(\"D2\", 125 * SMALL_GWEI_MULTIPLIER, \"Pop Corn\", concatIPFSReference(\"popcorn.png\")) */\n  dup2\n  mstore\n  pop\n    /* \"contracts/VendingMachine.sol\":3111:3231  products.push(ProductLibrary.Product(\"D2\", 125 * SMALL_GWEI_MULTIPLIER, \"Pop Corn\", concatIPFSReference(\"popcorn.png\"))) */\n  swap1\n  dup1\n  0x01\n  dup2\n  sload\n  add\n  dup1\n  dup3\n  sstore\n  dup1\n  swap2\n  pop\n  pop\n  0x01\n  swap1\n  sub\n  swap1\n  0x00\n  mstore\n  keccak256(0x00, 0x20)\n  swap1\n  0x04\n  mul\n  add\n  0x00\n  swap1\n  swap2\n  swap1\n  swap2\n  swap1\n  swap2\n  pop\n  0x00\n  dup3\n  add\n  mload\n  dup2\n  0x00\n  add\n  swap1\n  dup2\n  tag_110\n  swap2\n  swap1\n  tag_14\n  jump\t// in\ntag_110:\n  pop\n  0x20\n  dup3\n  add\n  mload\n  dup2\n  0x01\n  add\n  sstore\n  0x40\n  dup3\n  add\n  mload\n  dup2\n  0x02\n  add\n  swap1\n  dup2\n  tag_111\n  swap2\n  swap1\n  tag_14\n  jump\t// in\ntag_111:\n  pop\n  0x60\n  dup3\n  add\n  mload\n  dup2\n  0x03\n  add\n  swap1\n  dup2\n  tag_112\n  swap2\n  swap1\n  tag_14\n  jump\t// in\ntag_112:\n  pop\n  pop\n  pop\n    /* \"contracts/VendingMachine.sol\":3241:3249  products */\n  0x01\n    /* \"contracts/VendingMachine.sol\":3255:3357  ProductLibrary.Product(\"D3\", 150 * SMALL_GWEI_MULTIPLIER, \"Twix Bar\", concatIPFSReference(\"twix.png\")) */\n  mload(0x40)\n  dup1\n  0x80\n  add\n  0x40\n  mstore\n  dup1\n  mload(0x40)\n  dup1\n  0x40\n  add\n  0x40\n  mstore\n  dup1\n  0x02\n  dup2\n  mstore\n  0x20\n  add\n  0x4433000000000000000000000000000000000000000000000000000000000000\n  dup2\n  mstore\n  pop\n  dup2\n  mstore\n  0x20\n  add\n    /* \"contracts/VendingMachine.sol\":508:513  10**7 */\n  0x989680\n    /* \"contracts/VendingMachine.sol\":3284:3287  150 */\n  0x96\n    /* \"contracts/VendingMachine.sol\":3284:3311  150 * SMALL_GWEI_MULTIPLIER */\n  tag_113\n  swap2\n  swap1\n  tag_9\n  jump\t// in\ntag_113:\n    /* \"contracts/VendingMachine.sol\":3255:3357  ProductLibrary.Product(\"D3\", 150 * SMALL_GWEI_MULTIPLIER, \"Twix Bar\", concatIPFSReference(\"twix.png\")) */\n  dup2\n  mstore\n  0x20\n  add\n  mload(0x40)\n  dup1\n  0x40\n  add\n  0x40\n  mstore\n  dup1\n  0x08\n  dup2\n  mstore\n  0x20\n  add\n  0x5477697820426172000000000000000000000000000000000000000000000000\n  dup2\n  mstore\n  pop\n  dup2\n  mstore\n  0x20\n  add\n    /* \"contracts/VendingMachine.sol\":3325:3356  concatIPFSReference(\"twix.png\") */\n  tag_114\n  mload(0x40)\n  dup1\n  0x40\n  add\n  0x40\n  mstore\n  dup1\n  0x08\n  dup2\n  mstore\n  0x20\n  add\n  0x747769782e706e67000000000000000000000000000000000000000000000000\n  dup2\n  mstore\n  pop\n    /* \"contracts/VendingMachine.sol\":3325:3344  concatIPFSReference */\n  shl(0x20, tag_11)\n    /* \"contracts/VendingMachine.sol\":3325:3356  concatIPFSReference(\"twix.png\") */\n  0x20\n  shr\n  jump\t// in\ntag_114:\n    /* \"contracts/VendingMachine.sol\":3255:3357  ProductLibrary.Product(\"D3\", 150 * SMALL_GWEI_MULTIPLIER, \"Twix Bar\", concatIPFSReference(\"twix.png\")) */\n  dup2\n  mstore\n  pop\n    /* \"contracts/VendingMachine.sol\":3241:3358  products.push(ProductLibrary.Product(\"D3\", 150 * SMALL_GWEI_MULTIPLIER, \"Twix Bar\", concatIPFSReference(\"twix.png\"))) */\n  swap1\n  dup1\n  0x01\n  dup2\n  sload\n  add\n  dup1\n  dup3\n  sstore\n  dup1\n  swap2\n  pop\n  pop\n  0x01\n  swap1\n  sub\n  swap1\n  0x00\n  mstore\n  keccak256(0x00, 0x20)\n  swap1\n  0x04\n  mul\n  add\n  0x00\n  swap1\n  swap2\n  swap1\n  swap2\n  swap1\n  swap2\n  pop\n  0x00\n  dup3\n  add\n  mload\n  dup2\n  0x00\n  add\n  swap1\n  dup2\n  tag_116\n  swap2\n  swap1\n  tag_14\n  jump\t// in\ntag_116:\n  pop\n  0x20\n  dup3\n  add\n  mload\n  dup2\n  0x01\n  add\n  sstore\n  0x40\n  dup3\n  add\n  mload\n  dup2\n  0x02\n  add\n  swap1\n  dup2\n  tag_117\n  swap2\n  swap1\n  tag_14\n  jump\t// in\ntag_117:\n  pop\n  0x60\n  dup3\n  add\n  mload\n  dup2\n  0x03\n  add\n  swap1\n  dup2\n  tag_118\n  swap2\n  swap1\n  tag_14\n  jump\t// in\ntag_118:\n  pop\n  pop\n  pop\n    /* \"contracts/VendingMachine.sol\":3368:3376  products */\n  0x01\n    /* \"contracts/VendingMachine.sol\":3382:3482  ProductLibrary.Product(\"D4\", 125 * SMALL_GWEI_MULTIPLIER, \"Donut\", concatIPFSReference(\"donut.png\")) */\n  mload(0x40)\n  dup1\n  0x80\n  add\n  0x40\n  mstore\n  dup1\n  mload(0x40)\n  dup1\n  0x40\n  add\n  0x40\n  mstore\n  dup1\n  0x02\n  dup2\n  mstore\n  0x20\n  add\n  0x4434000000000000000000000000000000000000000000000000000000000000\n  dup2\n  mstore\n  pop\n  dup2\n  mstore\n  0x20\n  add\n    /* \"contracts/VendingMachine.sol\":508:513  10**7 */\n  0x989680\n    /* \"contracts/VendingMachine.sol\":3411:3414  125 */\n  0x7d\n    /* \"contracts/VendingMachine.sol\":3411:3438  125 * SMALL_GWEI_MULTIPLIER */\n  tag_119\n  swap2\n  swap1\n  tag_9\n  jump\t// in\ntag_119:\n    /* \"contracts/VendingMachine.sol\":3382:3482  ProductLibrary.Product(\"D4\", 125 * SMALL_GWEI_MULTIPLIER, \"Donut\", concatIPFSReference(\"donut.png\")) */\n  dup2\n  mstore\n  0x20\n  add\n  mload(0x40)\n  dup1\n  0x40\n  add\n  0x40\n  mstore\n  dup1\n  0x05\n  dup2\n  mstore\n  0x20\n  add\n  0x446f6e7574000000000000000000000000000000000000000000000000000000\n  dup2\n  mstore\n  pop\n  dup2\n  mstore\n  0x20\n  add\n    /* \"contracts/VendingMachine.sol\":3449:3481  concatIPFSReference(\"donut.png\") */\n  tag_120\n  mload(0x40)\n  dup1\n  0x40\n  add\n  0x40\n  mstore\n  dup1\n  0x09\n  dup2\n  mstore\n  0x20\n  add\n  0x646f6e75742e706e670000000000000000000000000000000000000000000000\n  dup2\n  mstore\n  pop\n    /* \"contracts/VendingMachine.sol\":3449:3468  concatIPFSReference */\n  shl(0x20, tag_11)\n    /* \"contracts/VendingMachine.sol\":3449:3481  concatIPFSReference(\"donut.png\") */\n  0x20\n  shr\n  jump\t// in\ntag_120:\n    /* \"contracts/VendingMachine.sol\":3382:3482  ProductLibrary.Product(\"D4\", 125 * SMALL_GWEI_MULTIPLIER, \"Donut\", concatIPFSReference(\"donut.png\")) */\n  dup2\n  mstore\n  pop\n    /* \"contracts/VendingMachine.sol\":3368:3483  products.push(ProductLibrary.Product(\"D4\", 125 * SMALL_GWEI_MULTIPLIER, \"Donut\", concatIPFSReference(\"donut.png\"))) */\n  swap1\n  dup1\n  0x01\n  dup2\n  sload\n  add\n  dup1\n  dup3\n  sstore\n  dup1\n  swap2\n  pop\n  pop\n  0x01\n  swap1\n  sub\n  swap1\n  0x00\n  mstore\n  keccak256(0x00, 0x20)\n  swap1\n  0x04\n  mul\n  add\n  0x00\n  swap1\n  swap2\n  swap1\n  swap2\n  swap1\n  swap2\n  pop\n  0x00\n  dup3\n  add\n  mload\n  dup2\n  0x00\n  add\n  swap1\n  dup2\n  tag_122\n  swap2\n  swap1\n  tag_14\n  jump\t// in\ntag_122:\n  pop\n  0x20\n  dup3\n  add\n  mload\n  dup2\n  0x01\n  add\n  sstore\n  0x40\n  dup3\n  add\n  mload\n  dup2\n  0x02\n  add\n  swap1\n  dup2\n  tag_123\n  swap2\n  swap1\n  tag_14\n  jump\t// in\ntag_123:\n  pop\n  0x60\n  dup3\n  add\n  mload\n  dup2\n  0x03\n  add\n  swap1\n  dup2\n  tag_124\n  swap2\n  swap1\n  tag_14\n  jump\t// in\ntag_124:\n  pop\n  pop\n  pop\n    /* \"contracts/VendingMachine.sol\":3493:3501  products */\n  0x01\n    /* \"contracts/VendingMachine.sol\":3507:3611  ProductLibrary.Product(\"D5\", 125 * SMALL_GWEI_MULTIPLIER, \"Red Apple\", concatIPFSReference(\"apple.png\")) */\n  mload(0x40)\n  dup1\n  0x80\n  add\n  0x40\n  mstore\n  dup1\n  mload(0x40)\n  dup1\n  0x40\n  add\n  0x40\n  mstore\n  dup1\n  0x02\n  dup2\n  mstore\n  0x20\n  add\n  0x4435000000000000000000000000000000000000000000000000000000000000\n  dup2\n  mstore\n  pop\n  dup2\n  mstore\n  0x20\n  add\n    /* \"contracts/VendingMachine.sol\":508:513  10**7 */\n  0x989680\n    /* \"contracts/VendingMachine.sol\":3536:3539  125 */\n  0x7d\n    /* \"contracts/VendingMachine.sol\":3536:3563  125 * SMALL_GWEI_MULTIPLIER */\n  tag_125\n  swap2\n  swap1\n  tag_9\n  jump\t// in\ntag_125:\n    /* \"contracts/VendingMachine.sol\":3507:3611  ProductLibrary.Product(\"D5\", 125 * SMALL_GWEI_MULTIPLIER, \"Red Apple\", concatIPFSReference(\"apple.png\")) */\n  dup2\n  mstore\n  0x20\n  add\n  mload(0x40)\n  dup1\n  0x40\n  add\n  0x40\n  mstore\n  dup1\n  0x09\n  dup2\n  mstore\n  0x20\n  add\n  0x526564204170706c650000000000000000000000000000000000000000000000\n  dup2\n  mstore\n  pop\n  dup2\n  mstore\n  0x20\n  add\n    /* \"contracts/VendingMachine.sol\":3578:3610  concatIPFSReference(\"apple.png\") */\n  tag_126\n  mload(0x40)\n  dup1\n  0x40\n  add\n  0x40\n  mstore\n  dup1\n  0x09\n  dup2\n  mstore\n  0x20\n  add\n  0x6170706c652e706e670000000000000000000000000000000000000000000000\n  dup2\n  mstore\n  pop\n    /* \"contracts/VendingMachine.sol\":3578:3597  concatIPFSReference */\n  shl(0x20, tag_11)\n    /* \"contracts/VendingMachine.sol\":3578:3610  concatIPFSReference(\"apple.png\") */\n  0x20\n  shr\n  jump\t// in\ntag_126:\n    /* \"contracts/VendingMachine.sol\":3507:3611  ProductLibrary.Product(\"D5\", 125 * SMALL_GWEI_MULTIPLIER, \"Red Apple\", concatIPFSReference(\"apple.png\")) */\n  dup2\n  mstore\n  pop\n    /* \"contracts/VendingMachine.sol\":3493:3612  products.push(ProductLibrary.Product(\"D5\", 125 * SMALL_GWEI_MULTIPLIER, \"Red Apple\", concatIPFSReference(\"apple.png\"))) */\n  swap1\n  dup1\n  0x01\n  dup2\n  sload\n  add\n  dup1\n  dup3\n  sstore\n  dup1\n  swap2\n  pop\n  pop\n  0x01\n  swap1\n  sub\n  swap1\n  0x00\n  mstore\n  keccak256(0x00, 0x20)\n  swap1\n  0x04\n  mul\n  add\n  0x00\n  swap1\n  swap2\n  swap1\n  swap2\n  swap1\n  swap2\n  pop\n  0x00\n  dup3\n  add\n  mload\n  dup2\n  0x00\n  add\n  swap1\n  dup2\n  tag_128\n  swap2\n  swap1\n  tag_14\n  jump\t// in\ntag_128:\n  pop\n  0x20\n  dup3\n  add\n  mload\n  dup2\n  0x01\n  add\n  sstore\n  0x40\n  dup3\n  add\n  mload\n  dup2\n  0x02\n  add\n  swap1\n  dup2\n  tag_129\n  swap2\n  swap1\n  tag_14\n  jump\t// in\ntag_129:\n  pop\n  0x60\n  dup3\n  add\n  mload\n  dup2\n  0x03\n  add\n  swap1\n  dup2\n  tag_130\n  swap2\n  swap1\n  tag_14\n  jump\t// in\ntag_130:\n  pop\n  pop\n  pop\n    /* \"contracts/VendingMachine.sol\":1016:3619  function initializeProducts() private {... */\n  jump\t// out\n    /* \"contracts/VendingMachine.sol\":863:1010  function concatIPFSReference (string memory _key) pure  private returns (string memory) {... */\ntag_11:\n    /* \"contracts/VendingMachine.sol\":936:949  string memory */\n  0x60\n    /* \"contracts/VendingMachine.sol\":982:996  IPFS_REFERENCE */\n  mload(0x40)\n  dup1\n  0x60\n  add\n  0x40\n  mstore\n  dup1\n  0x2f\n  dup2\n  mstore\n  0x20\n  add\n  data_ec9eb78cc41e57eb52d56b49fd2dd4ed8c3cd69def9c06a39aaca306c1f4712f\n  0x2f\n  swap2\n  codecopy\n    /* \"contracts/VendingMachine.sol\":998:1002  _key */\n  dup3\n    /* \"contracts/VendingMachine.sol\":968:1003  string.concat(IPFS_REFERENCE, _key) */\n  add(0x20, mload(0x40))\n  tag_132\n  swap3\n  swap2\n  swap1\n  tag_133\n  jump\t// in\ntag_132:\n  mload(0x40)\n  0x20\n  dup2\n  dup4\n  sub\n  sub\n  dup2\n  mstore\n  swap1\n  0x40\n  mstore\n    /* \"contracts/VendingMachine.sol\":961:1003  return string.concat(IPFS_REFERENCE, _key) */\n  swap1\n  pop\n    /* \"contracts/VendingMachine.sol\":863:1010  function concatIPFSReference (string memory _key) pure  private returns (string memory) {... */\n  swap2\n  swap1\n  pop\n  jump\t// out\n    /* \"#utility.yul\":7:84   */\ntag_134:\n    /* \"#utility.yul\":44:51   */\n  0x00\n    /* \"#utility.yul\":73:78   */\n  dup2\n    /* \"#utility.yul\":62:78   */\n  swap1\n  pop\n    /* \"#utility.yul\":7:84   */\n  swap2\n  swap1\n  pop\n  jump\t// out\n    /* \"#utility.yul\":90:270   */\ntag_135:\n    /* \"#utility.yul\":138:215   */\n  0x4e487b7100000000000000000000000000000000000000000000000000000000\n    /* \"#utility.yul\":135:136   */\n  0x00\n    /* \"#utility.yul\":128:216   */\n  mstore\n    /* \"#utility.yul\":235:239   */\n  0x11\n    /* \"#utility.yul\":232:233   */\n  0x04\n    /* \"#utility.yul\":225:240   */\n  mstore\n    /* \"#utility.yul\":259:263   */\n  0x24\n    /* \"#utility.yul\":256:257   */\n  0x00\n    /* \"#utility.yul\":249:264   */\n  revert\n    /* \"#utility.yul\":276:686   */\ntag_9:\n    /* \"#utility.yul\":316:323   */\n  0x00\n    /* \"#utility.yul\":339:359   */\n  tag_162\n    /* \"#utility.yul\":357:358   */\n  dup3\n    /* \"#utility.yul\":339:359   */\n  tag_134\n  jump\t// in\ntag_162:\n    /* \"#utility.yul\":334:359   */\n  swap2\n  pop\n    /* \"#utility.yul\":373:393   */\n  tag_163\n    /* \"#utility.yul\":391:392   */\n  dup4\n    /* \"#utility.yul\":373:393   */\n  tag_134\n  jump\t// in\ntag_163:\n    /* \"#utility.yul\":368:393   */\n  swap3\n  pop\n    /* \"#utility.yul\":428:429   */\n  dup3\n    /* \"#utility.yul\":425:426   */\n  dup3\n    /* \"#utility.yul\":421:430   */\n  mul\n    /* \"#utility.yul\":450:480   */\n  tag_164\n    /* \"#utility.yul\":468:479   */\n  dup2\n    /* \"#utility.yul\":450:480   */\n  tag_134\n  jump\t// in\ntag_164:\n    /* \"#utility.yul\":439:480   */\n  swap2\n  pop\n    /* \"#utility.yul\":629:630   */\n  dup3\n    /* \"#utility.yul\":620:627   */\n  dup3\n    /* \"#utility.yul\":616:631   */\n  div\n    /* \"#utility.yul\":613:614   */\n  dup5\n    /* \"#utility.yul\":610:632   */\n  eq\n    /* \"#utility.yul\":590:591   */\n  dup4\n    /* \"#utility.yul\":583:592   */\n  iszero\n    /* \"#utility.yul\":563:646   */\n  or\n    /* \"#utility.yul\":540:679   */\n  tag_165\n  jumpi\n    /* \"#utility.yul\":659:677   */\n  tag_166\n  tag_135\n  jump\t// in\ntag_166:\n    /* \"#utility.yul\":540:679   */\ntag_165:\n    /* \"#utility.yul\":324:686   */\n  pop\n    /* \"#utility.yul\":276:686   */\n  swap3\n  swap2\n  pop\n  pop\n  jump\t// out\n    /* \"#utility.yul\":692:791   */\ntag_136:\n    /* \"#utility.yul\":744:750   */\n  0x00\n    /* \"#utility.yul\":778:783   */\n  dup2\n    /* \"#utility.yul\":772:784   */\n  mload\n    /* \"#utility.yul\":762:784   */\n  swap1\n  pop\n    /* \"#utility.yul\":692:791   */\n  swap2\n  swap1\n  pop\n  jump\t// out\n    /* \"#utility.yul\":797:977   */\ntag_137:\n    /* \"#utility.yul\":845:922   */\n  0x4e487b7100000000000000000000000000000000000000000000000000000000\n    /* \"#utility.yul\":842:843   */\n  0x00\n    /* \"#utility.yul\":835:923   */\n  mstore\n    /* \"#utility.yul\":942:946   */\n  0x41\n    /* \"#utility.yul\":939:940   */\n  0x04\n    /* \"#utility.yul\":932:947   */\n  mstore\n    /* \"#utility.yul\":966:970   */\n  0x24\n    /* \"#utility.yul\":963:964   */\n  0x00\n    /* \"#utility.yul\":956:971   */\n  revert\n    /* \"#utility.yul\":983:1163   */\ntag_138:\n    /* \"#utility.yul\":1031:1108   */\n  0x4e487b7100000000000000000000000000000000000000000000000000000000\n    /* \"#utility.yul\":1028:1029   */\n  0x00\n    /* \"#utility.yul\":1021:1109   */\n  mstore\n    /* \"#utility.yul\":1128:1132   */\n  0x22\n    /* \"#utility.yul\":1125:1126   */\n  0x04\n    /* \"#utility.yul\":1118:1133   */\n  mstore\n    /* \"#utility.yul\":1152:1156   */\n  0x24\n    /* \"#utility.yul\":1149:1150   */\n  0x00\n    /* \"#utility.yul\":1142:1157   */\n  revert\n    /* \"#utility.yul\":1169:1489   */\ntag_139:\n    /* \"#utility.yul\":1213:1219   */\n  0x00\n    /* \"#utility.yul\":1250:1251   */\n  0x02\n    /* \"#utility.yul\":1244:1248   */\n  dup3\n    /* \"#utility.yul\":1240:1252   */\n  div\n    /* \"#utility.yul\":1230:1252   */\n  swap1\n  pop\n    /* \"#utility.yul\":1297:1298   */\n  0x01\n    /* \"#utility.yul\":1291:1295   */\n  dup3\n    /* \"#utility.yul\":1287:1299   */\n  and\n    /* \"#utility.yul\":1318:1336   */\n  dup1\n    /* \"#utility.yul\":1308:1389   */\n  tag_171\n  jumpi\n    /* \"#utility.yul\":1374:1378   */\n  0x7f\n    /* \"#utility.yul\":1366:1372   */\n  dup3\n    /* \"#utility.yul\":1362:1379   */\n  and\n    /* \"#utility.yul\":1352:1379   */\n  swap2\n  pop\n    /* \"#utility.yul\":1308:1389   */\ntag_171:\n    /* \"#utility.yul\":1436:1438   */\n  0x20\n    /* \"#utility.yul\":1428:1434   */\n  dup3\n    /* \"#utility.yul\":1425:1439   */\n  lt\n    /* \"#utility.yul\":1405:1423   */\n  dup2\n    /* \"#utility.yul\":1402:1440   */\n  sub\n    /* \"#utility.yul\":1399:1483   */\n  tag_172\n  jumpi\n    /* \"#utility.yul\":1455:1473   */\n  tag_173\n  tag_138\n  jump\t// in\ntag_173:\n    /* \"#utility.yul\":1399:1483   */\ntag_172:\n    /* \"#utility.yul\":1220:1489   */\n  pop\n    /* \"#utility.yul\":1169:1489   */\n  swap2\n  swap1\n  pop\n  jump\t// out\n    /* \"#utility.yul\":1495:1636   */\ntag_140:\n    /* \"#utility.yul\":1544:1548   */\n  0x00\n    /* \"#utility.yul\":1567:1570   */\n  dup2\n    /* \"#utility.yul\":1559:1570   */\n  swap1\n  pop\n    /* \"#utility.yul\":1590:1593   */\n  dup2\n    /* \"#utility.yul\":1587:1588   */\n  0x00\n    /* \"#utility.yul\":1580:1594   */\n  mstore\n    /* \"#utility.yul\":1624:1628   */\n  0x20\n    /* \"#utility.yul\":1621:1622   */\n  0x00\n    /* \"#utility.yul\":1611:1629   */\n  keccak256\n    /* \"#utility.yul\":1603:1629   */\n  swap1\n  pop\n    /* \"#utility.yul\":1495:1636   */\n  swap2\n  swap1\n  pop\n  jump\t// out\n    /* \"#utility.yul\":1642:1735   */\ntag_141:\n    /* \"#utility.yul\":1679:1685   */\n  0x00\n    /* \"#utility.yul\":1726:1728   */\n  0x20\n    /* \"#utility.yul\":1721:1723   */\n  0x1f\n    /* \"#utility.yul\":1714:1719   */\n  dup4\n    /* \"#utility.yul\":1710:1724   */\n  add\n    /* \"#utility.yul\":1706:1729   */\n  div\n    /* \"#utility.yul\":1696:1729   */\n  swap1\n  pop\n    /* \"#utility.yul\":1642:1735   */\n  swap2\n  swap1\n  pop\n  jump\t// out\n    /* \"#utility.yul\":1741:1848   */\ntag_142:\n    /* \"#utility.yul\":1785:1793   */\n  0x00\n    /* \"#utility.yul\":1835:1840   */\n  dup3\n    /* \"#utility.yul\":1829:1833   */\n  dup3\n    /* \"#utility.yul\":1825:1841   */\n  shl\n    /* \"#utility.yul\":1804:1841   */\n  swap1\n  pop\n    /* \"#utility.yul\":1741:1848   */\n  swap3\n  swap2\n  pop\n  pop\n  jump\t// out\n    /* \"#utility.yul\":1854:2247   */\ntag_143:\n    /* \"#utility.yul\":1923:1929   */\n  0x00\n    /* \"#utility.yul\":1973:1974   */\n  0x08\n    /* \"#utility.yul\":1961:1971   */\n  dup4\n    /* \"#utility.yul\":1957:1975   */\n  mul\n    /* \"#utility.yul\":1996:2093   */\n  tag_178\n    /* \"#utility.yul\":2026:2092   */\n  0xffffffffffffffffffffffffffffffffffffffffffffffffffffffffffffffff\n    /* \"#utility.yul\":2015:2024   */\n  dup3\n    /* \"#utility.yul\":1996:2093   */\n  tag_142\n  jump\t// in\ntag_178:\n    /* \"#utility.yul\":2114:2153   */\n  tag_179\n    /* \"#utility.yul\":2144:2152   */\n  dup7\n    /* \"#utility.yul\":2133:2142   */\n  dup4\n    /* \"#utility.yul\":2114:2153   */\n  tag_142\n  jump\t// in\ntag_179:\n    /* \"#utility.yul\":2102:2153   */\n  swap6\n  pop\n    /* \"#utility.yul\":2186:2190   */\n  dup1\n    /* \"#utility.yul\":2182:2191   */\n  not\n    /* \"#utility.yul\":2175:2180   */\n  dup5\n    /* \"#utility.yul\":2171:2192   */\n  and\n    /* \"#utility.yul\":2162:2192   */\n  swap4\n  pop\n    /* \"#utility.yul\":2235:2239   */\n  dup1\n    /* \"#utility.yul\":2225:2233   */\n  dup7\n    /* \"#utility.yul\":2221:2240   */\n  and\n    /* \"#utility.yul\":2214:2219   */\n  dup5\n    /* \"#utility.yul\":2211:2241   */\n  or\n    /* \"#utility.yul\":2201:2241   */\n  swap3\n  pop\n    /* \"#utility.yul\":1930:2247   */\n  pop\n  pop\n    /* \"#utility.yul\":1854:2247   */\n  swap4\n  swap3\n  pop\n  pop\n  pop\n  jump\t// out\n    /* \"#utility.yul\":2253:2313   */\ntag_144:\n    /* \"#utility.yul\":2281:2284   */\n  0x00\n    /* \"#utility.yul\":2302:2307   */\n  dup2\n    /* \"#utility.yul\":2295:2307   */\n  swap1\n  pop\n    /* \"#utility.yul\":2253:2313   */\n  swap2\n  swap1\n  pop\n  jump\t// out\n    /* \"#utility.yul\":2319:2461   */\ntag_145:\n    /* \"#utility.yul\":2369:2378   */\n  0x00\n    /* \"#utility.yul\":2402:2455   */\n  tag_182\n    /* \"#utility.yul\":2420:2454   */\n  tag_183\n    /* \"#utility.yul\":2429:2453   */\n  tag_184\n    /* \"#utility.yul\":2447:2452   */\n  dup5\n    /* \"#utility.yul\":2429:2453   */\n  tag_134\n  jump\t// in\ntag_184:\n    /* \"#utility.yul\":2420:2454   */\n  tag_144\n  jump\t// in\ntag_183:\n    /* \"#utility.yul\":2402:2455   */\n  tag_134\n  jump\t// in\ntag_182:\n    /* \"#utility.yul\":2389:2455   */\n  swap1\n  pop\n    /* \"#utility.yul\":2319:2461   */\n  swap2\n  swap1\n  pop\n  jump\t// out\n    /* \"#utility.yul\":2467:2542   */\ntag_146:\n    /* \"#utility.yul\":2510:2513   */\n  0x00\n    /* \"#utility.yul\":2531:2536   */\n  dup2\n    /* \"#utility.yul\":2524:2536   */\n  swap1\n  pop\n    /* \"#utility.yul\":2467:2542   */\n  swap2\n  swap1\n  pop\n  jump\t// out\n    /* \"#utility.yul\":2548:2817   */\ntag_147:\n    /* \"#utility.yul\":2658:2697   */\n  tag_187\n    /* \"#utility.yul\":2689:2696   */\n  dup4\n    /* \"#utility.yul\":2658:2697   */\n  tag_145\n  jump\t// in\ntag_187:\n    /* \"#utility.yul\":2719:2810   */\n  tag_188\n    /* \"#utility.yul\":2768:2809   */\n  tag_189\n    /* \"#utility.yul\":2792:2808   */\n  dup3\n    /* \"#utility.yul\":2768:2809   */\n  tag_146\n  jump\t// in\ntag_189:\n    /* \"#utility.yul\":2760:2766   */\n  dup5\n    /* \"#utility.yul\":2753:2757   */\n  dup5\n    /* \"#utility.yul\":2747:2758   */\n  sload\n    /* \"#utility.yul\":2719:2810   */\n  tag_143\n  jump\t// in\ntag_188:\n    /* \"#utility.yul\":2713:2717   */\n  dup3\n    /* \"#utility.yul\":2706:2811   */\n  sstore\n    /* \"#utility.yul\":2624:2817   */\n  pop\n    /* \"#utility.yul\":2548:2817   */\n  pop\n  pop\n  pop\n  jump\t// out\n    /* \"#utility.yul\":2823:2896   */\ntag_148:\n    /* \"#utility.yul\":2868:2871   */\n  0x00\n    /* \"#utility.yul\":2823:2896   */\n  swap1\n  jump\t// out\n    /* \"#utility.yul\":2902:3091   */\ntag_149:\n    /* \"#utility.yul\":2979:3011   */\n  tag_192\n  tag_148\n  jump\t// in\ntag_192:\n    /* \"#utility.yul\":3020:3085   */\n  tag_193\n    /* \"#utility.yul\":3078:3084   */\n  dup2\n    /* \"#utility.yul\":3070:3076   */\n  dup5\n    /* \"#utility.yul\":3064:3068   */\n  dup5\n    /* \"#utility.yul\":3020:3085   */\n  tag_147\n  jump\t// in\ntag_193:\n    /* \"#utility.yul\":2955:3091   */\n  pop\n    /* \"#utility.yul\":2902:3091   */\n  pop\n  pop\n  jump\t// out\n    /* \"#utility.yul\":3097:3283   */\ntag_150:\n    /* \"#utility.yul\":3157:3277   */\ntag_195:\n    /* \"#utility.yul\":3174:3177   */\n  dup2\n    /* \"#utility.yul\":3167:3172   */\n  dup2\n    /* \"#utility.yul\":3164:3178   */\n  lt\n    /* \"#utility.yul\":3157:3277   */\n  iszero\n  tag_197\n  jumpi\n    /* \"#utility.yul\":3228:3267   */\n  tag_198\n    /* \"#utility.yul\":3265:3266   */\n  0x00\n    /* \"#utility.yul\":3258:3263   */\n  dup3\n    /* \"#utility.yul\":3228:3267   */\n  tag_149\n  jump\t// in\ntag_198:\n    /* \"#utility.yul\":3201:3202   */\n  0x01\n    /* \"#utility.yul\":3194:3199   */\n  dup2\n    /* \"#utility.yul\":3190:3203   */\n  add\n    /* \"#utility.yul\":3181:3203   */\n  swap1\n  pop\n    /* \"#utility.yul\":3157:3277   */\n  jump(tag_195)\ntag_197:\n    /* \"#utility.yul\":3097:3283   */\n  pop\n  pop\n  jump\t// out\n    /* \"#utility.yul\":3289:3832   */\ntag_151:\n    /* \"#utility.yul\":3390:3392   */\n  0x1f\n    /* \"#utility.yul\":3385:3388   */\n  dup3\n    /* \"#utility.yul\":3382:3393   */\n  gt\n    /* \"#utility.yul\":3379:3825   */\n  iszero\n  tag_200\n  jumpi\n    /* \"#utility.yul\":3424:3462   */\n  tag_201\n    /* \"#utility.yul\":3456:3461   */\n  dup2\n    /* \"#utility.yul\":3424:3462   */\n  tag_140\n  jump\t// in\ntag_201:\n    /* \"#utility.yul\":3508:3537   */\n  tag_202\n    /* \"#utility.yul\":3526:3536   */\n  dup5\n    /* \"#utility.yul\":3508:3537   */\n  tag_141\n  jump\t// in\ntag_202:\n    /* \"#utility.yul\":3498:3506   */\n  dup2\n    /* \"#utility.yul\":3494:3538   */\n  add\n    /* \"#utility.yul\":3691:3693   */\n  0x20\n    /* \"#utility.yul\":3679:3689   */\n  dup6\n    /* \"#utility.yul\":3676:3694   */\n  lt\n    /* \"#utility.yul\":3673:3722   */\n  iszero\n  tag_203\n  jumpi\n    /* \"#utility.yul\":3712:3720   */\n  dup2\n    /* \"#utility.yul\":3697:3720   */\n  swap1\n  pop\n    /* \"#utility.yul\":3673:3722   */\ntag_203:\n    /* \"#utility.yul\":3735:3815   */\n  tag_204\n    /* \"#utility.yul\":3791:3813   */\n  tag_205\n    /* \"#utility.yul\":3809:3812   */\n  dup6\n    /* \"#utility.yul\":3791:3813   */\n  tag_141\n  jump\t// in\ntag_205:\n    /* \"#utility.yul\":3781:3789   */\n  dup4\n    /* \"#utility.yul\":3777:3814   */\n  add\n    /* \"#utility.yul\":3764:3775   */\n  dup3\n    /* \"#utility.yul\":3735:3815   */\n  tag_150\n  jump\t// in\ntag_204:\n    /* \"#utility.yul\":3394:3825   */\n  pop\n  pop\n    /* \"#utility.yul\":3379:3825   */\ntag_200:\n    /* \"#utility.yul\":3289:3832   */\n  pop\n  pop\n  pop\n  jump\t// out\n    /* \"#utility.yul\":3838:3955   */\ntag_152:\n    /* \"#utility.yul\":3892:3900   */\n  0x00\n    /* \"#utility.yul\":3942:3947   */\n  dup3\n    /* \"#utility.yul\":3936:3940   */\n  dup3\n    /* \"#utility.yul\":3932:3948   */\n  shr\n    /* \"#utility.yul\":3911:3948   */\n  swap1\n  pop\n    /* \"#utility.yul\":3838:3955   */\n  swap3\n  swap2\n  pop\n  pop\n  jump\t// out\n    /* \"#utility.yul\":3961:4130   */\ntag_153:\n    /* \"#utility.yul\":4005:4011   */\n  0x00\n    /* \"#utility.yul\":4038:4089   */\n  tag_208\n    /* \"#utility.yul\":4086:4087   */\n  0x00\n    /* \"#utility.yul\":4082:4088   */\n  not\n    /* \"#utility.yul\":4074:4079   */\n  dup5\n    /* \"#utility.yul\":4071:4072   */\n  0x08\n    /* \"#utility.yul\":4067:4080   */\n  mul\n    /* \"#utility.yul\":4038:4089   */\n  tag_152\n  jump\t// in\ntag_208:\n    /* \"#utility.yul\":4034:4090   */\n  not\n    /* \"#utility.yul\":4119:4123   */\n  dup1\n    /* \"#utility.yul\":4113:4117   */\n  dup4\n    /* \"#utility.yul\":4109:4124   */\n  and\n    /* \"#utility.yul\":4099:4124   */\n  swap2\n  pop\n    /* \"#utility.yul\":4012:4130   */\n  pop\n    /* \"#utility.yul\":3961:4130   */\n  swap3\n  swap2\n  pop\n  pop\n  jump\t// out\n    /* \"#utility.yul\":4135:4430   */\ntag_154:\n    /* \"#utility.yul\":4211:4215   */\n  0x00\n    /* \"#utility.yul\":4357:4386   */\n  tag_210\n    /* \"#utility.yul\":4382:4385   */\n  dup4\n    /* \"#utility.yul\":4376:4380   */\n  dup4\n    /* \"#utility.yul\":4357:4386   */\n  tag_153\n  jump\t// in\ntag_210:\n    /* \"#utility.yul\":4349:4386   */\n  swap2\n  pop\n    /* \"#utility.yul\":4419:4422   */\n  dup3\n    /* \"#utility.yul\":4416:4417   */\n  0x02\n    /* \"#utility.yul\":4412:4423   */\n  mul\n    /* \"#utility.yul\":4406:4410   */\n  dup3\n    /* \"#utility.yul\":4403:4424   */\n  or\n    /* \"#utility.yul\":4395:4424   */\n  swap1\n  pop\n    /* \"#utility.yul\":4135:4430   */\n  swap3\n  swap2\n  pop\n  pop\n  jump\t// out\n    /* \"#utility.yul\":4435:5830   */\ntag_14:\n    /* \"#utility.yul\":4552:4589   */\n  tag_212\n    /* \"#utility.yul\":4585:4588   */\n  dup3\n    /* \"#utility.yul\":4552:4589   */\n  tag_136\n  jump\t// in\ntag_212:\n    /* \"#utility.yul\":4654:4672   */\n  0xffffffffffffffff\n    /* \"#utility.yul\":4646:4652   */\n  dup2\n    /* \"#utility.yul\":4643:4673   */\n  gt\n    /* \"#utility.yul\":4640:4696   */\n  iszero\n  tag_213\n  jumpi\n    /* \"#utility.yul\":4676:4694   */\n  tag_214\n  tag_137\n  jump\t// in\ntag_214:\n    /* \"#utility.yul\":4640:4696   */\ntag_213:\n    /* \"#utility.yul\":4720:4758   */\n  tag_215\n    /* \"#utility.yul\":4752:4756   */\n  dup3\n    /* \"#utility.yul\":4746:4757   */\n  sload\n    /* \"#utility.yul\":4720:4758   */\n  tag_139\n  jump\t// in\ntag_215:\n    /* \"#utility.yul\":4805:4872   */\n  tag_216\n    /* \"#utility.yul\":4865:4871   */\n  dup3\n    /* \"#utility.yul\":4857:4863   */\n  dup3\n    /* \"#utility.yul\":4851:4855   */\n  dup6\n    /* \"#utility.yul\":4805:4872   */\n  tag_151\n  jump\t// in\ntag_216:\n    /* \"#utility.yul\":4899:4900   */\n  0x00\n    /* \"#utility.yul\":4923:4927   */\n  0x20\n    /* \"#utility.yul\":4910:4927   */\n  swap1\n  pop\n    /* \"#utility.yul\":4955:4957   */\n  0x1f\n    /* \"#utility.yul\":4947:4953   */\n  dup4\n    /* \"#utility.yul\":4944:4958   */\n  gt\n    /* \"#utility.yul\":4972:4973   */\n  0x01\n    /* \"#utility.yul\":4967:5585   */\n  dup2\n  eq\n  tag_218\n  jumpi\n    /* \"#utility.yul\":5629:5630   */\n  0x00\n    /* \"#utility.yul\":5646:5652   */\n  dup5\n    /* \"#utility.yul\":5643:5720   */\n  iszero\n  tag_219\n  jumpi\n    /* \"#utility.yul\":5695:5704   */\n  dup3\n    /* \"#utility.yul\":5690:5693   */\n  dup8\n    /* \"#utility.yul\":5686:5705   */\n  add\n    /* \"#utility.yul\":5680:5706   */\n  mload\n    /* \"#utility.yul\":5671:5706   */\n  swap1\n  pop\n    /* \"#utility.yul\":5643:5720   */\ntag_219:\n    /* \"#utility.yul\":5746:5813   */\n  tag_220\n    /* \"#utility.yul\":5806:5812   */\n  dup6\n    /* \"#utility.yul\":5799:5804   */\n  dup3\n    /* \"#utility.yul\":5746:5813   */\n  tag_154\n  jump\t// in\ntag_220:\n    /* \"#utility.yul\":5740:5744   */\n  dup7\n    /* \"#utility.yul\":5733:5814   */\n  sstore\n    /* \"#utility.yul\":5602:5824   */\n  pop\n    /* \"#utility.yul\":4937:5824   */\n  jump(tag_217)\n    /* \"#utility.yul\":4967:5585   */\ntag_218:\n    /* \"#utility.yul\":5019:5023   */\n  0x1f\n    /* \"#utility.yul\":5015:5024   */\n  not\n    /* \"#utility.yul\":5007:5013   */\n  dup5\n    /* \"#utility.yul\":5003:5025   */\n  and\n    /* \"#utility.yul\":5053:5090   */\n  tag_221\n    /* \"#utility.yul\":5085:5089   */\n  dup7\n    /* \"#utility.yul\":5053:5090   */\n  tag_140\n  jump\t// in\ntag_221:\n    /* \"#utility.yul\":5112:5113   */\n  0x00\n    /* \"#utility.yul\":5126:5334   */\ntag_222:\n    /* \"#utility.yul\":5140:5147   */\n  dup3\n    /* \"#utility.yul\":5137:5138   */\n  dup2\n    /* \"#utility.yul\":5134:5148   */\n  lt\n    /* \"#utility.yul\":5126:5334   */\n  iszero\n  tag_224\n  jumpi\n    /* \"#utility.yul\":5219:5228   */\n  dup5\n    /* \"#utility.yul\":5214:5217   */\n  dup10\n    /* \"#utility.yul\":5210:5229   */\n  add\n    /* \"#utility.yul\":5204:5230   */\n  mload\n    /* \"#utility.yul\":5196:5202   */\n  dup3\n    /* \"#utility.yul\":5189:5231   */\n  sstore\n    /* \"#utility.yul\":5270:5271   */\n  0x01\n    /* \"#utility.yul\":5262:5268   */\n  dup3\n    /* \"#utility.yul\":5258:5272   */\n  add\n    /* \"#utility.yul\":5248:5272   */\n  swap2\n  pop\n    /* \"#utility.yul\":5317:5319   */\n  0x20\n    /* \"#utility.yul\":5306:5315   */\n  dup6\n    /* \"#utility.yul\":5302:5320   */\n  add\n    /* \"#utility.yul\":5289:5320   */\n  swap5\n  pop\n    /* \"#utility.yul\":5163:5167   */\n  0x20\n    /* \"#utility.yul\":5160:5161   */\n  dup2\n    /* \"#utility.yul\":5156:5168   */\n  add\n    /* \"#utility.yul\":5151:5168   */\n  swap1\n  pop\n    /* \"#utility.yul\":5126:5334   */\n  jump(tag_222)\ntag_224:\n    /* \"#utility.yul\":5362:5368   */\n  dup7\n    /* \"#utility.yul\":5353:5360   */\n  dup4\n    /* \"#utility.yul\":5350:5369   */\n  lt\n    /* \"#utility.yul\":5347:5526   */\n  iszero\n  tag_225\n  jumpi\n    /* \"#utility.yul\":5420:5429   */\n  dup5\n    /* \"#utility.yul\":5415:5418   */\n  dup10\n    /* \"#utility.yul\":5411:5430   */\n  add\n    /* \"#utility.yul\":5405:5431   */\n  mload\n    /* \"#utility.yul\":5463:5511   */\n  tag_226\n    /* \"#utility.yul\":5505:5509   */\n  0x1f\n    /* \"#utility.yul\":5497:5503   */\n  dup10\n    /* \"#utility.yul\":5493:5510   */\n  and\n    /* \"#utility.yul\":5482:5491   */\n  dup3\n    /* \"#utility.yul\":5463:5511   */\n  tag_153\n  jump\t// in\ntag_226:\n    /* \"#utility.yul\":5455:5461   */\n  dup4\n    /* \"#utility.yul\":5448:5512   */\n  sstore\n    /* \"#utility.yul\":5370:5526   */\n  pop\n    /* \"#utility.yul\":5347:5526   */\ntag_225:\n    /* \"#utility.yul\":5572:5573   */\n  0x01\n    /* \"#utility.yul\":5568:5569   */\n  0x02\n    /* \"#utility.yul\":5560:5566   */\n  dup9\n    /* \"#utility.yul\":5556:5570   */\n  mul\n    /* \"#utility.yul\":5552:5574   */\n  add\n    /* \"#utility.yul\":5546:5550   */\n  dup9\n    /* \"#utility.yul\":5539:5575   */\n  sstore\n    /* \"#utility.yul\":4974:5585   */\n  pop\n  pop\n  pop\n    /* \"#utility.yul\":4937:5824   */\ntag_217:\n  pop\n    /* \"#utility.yul\":4527:5830   */\n  pop\n  pop\n  pop\n    /* \"#utility.yul\":4435:5830   */\n  pop\n  pop\n  jump\t// out\n    /* \"#utility.yul\":5836:5984   */\ntag_155:\n    /* \"#utility.yul\":5938:5949   */\n  0x00\n    /* \"#utility.yul\":5975:5978   */\n  dup2\n    /* \"#utility.yul\":5960:5978   */\n  swap1\n  pop\n    /* \"#utility.yul\":5836:5984   */\n  swap3\n  swap2\n  pop\n  pop\n  jump\t// out\n    /* \"#utility.yul\":5990:6129   */\ntag_156:\n    /* \"#utility.yul\":6079:6085   */\n  dup3\n    /* \"#utility.yul\":6074:6077   */\n  dup2\n    /* \"#utility.yul\":6069:6072   */\n  dup4\n    /* \"#utility.yul\":6063:6086   */\n  mcopy\n    /* \"#utility.yul\":6120:6121   */\n  0x00\n    /* \"#utility.yul\":6111:6117   */\n  dup4\n    /* \"#utility.yul\":6106:6109   */\n  dup4\n    /* \"#utility.yul\":6102:6118   */\n  add\n    /* \"#utility.yul\":6095:6122   */\n  mstore\n    /* \"#utility.yul\":5990:6129   */\n  pop\n  pop\n  pop\n  jump\t// out\n    /* \"#utility.yul\":6135:6525   */\ntag_157:\n    /* \"#utility.yul\":6241:6244   */\n  0x00\n    /* \"#utility.yul\":6269:6308   */\n  tag_230\n    /* \"#utility.yul\":6302:6307   */\n  dup3\n    /* \"#utility.yul\":6269:6308   */\n  tag_136\n  jump\t// in\ntag_230:\n    /* \"#utility.yul\":6324:6413   */\n  tag_231\n    /* \"#utility.yul\":6406:6412   */\n  dup2\n    /* \"#utility.yul\":6401:6404   */\n  dup6\n    /* \"#utility.yul\":6324:6413   */\n  tag_155\n  jump\t// in\ntag_231:\n    /* \"#utility.yul\":6317:6413   */\n  swap4\n  pop\n    /* \"#utility.yul\":6422:6487   */\n  tag_232\n    /* \"#utility.yul\":6480:6486   */\n  dup2\n    /* \"#utility.yul\":6475:6478   */\n  dup6\n    /* \"#utility.yul\":6468:6472   */\n  0x20\n    /* \"#utility.yul\":6461:6466   */\n  dup7\n    /* \"#utility.yul\":6457:6473   */\n  add\n    /* \"#utility.yul\":6422:6487   */\n  tag_156\n  jump\t// in\ntag_232:\n    /* \"#utility.yul\":6512:6518   */\n  dup1\n    /* \"#utility.yul\":6507:6510   */\n  dup5\n    /* \"#utility.yul\":6503:6519   */\n  add\n    /* \"#utility.yul\":6496:6519   */\n  swap2\n  pop\n    /* \"#utility.yul\":6245:6525   */\n  pop\n    /* \"#utility.yul\":6135:6525   */\n  swap3\n  swap2\n  pop\n  pop\n  jump\t// out\n    /* \"#utility.yul\":6531:6966   */\ntag_133:\n    /* \"#utility.yul\":6711:6714   */\n  0x00\n    /* \"#utility.yul\":6733:6828   */\n  tag_234\n    /* \"#utility.yul\":6824:6827   */\n  dup3\n    /* \"#utility.yul\":6815:6821   */\n  dup6\n    /* \"#utility.yul\":6733:6828   */\n  tag_157\n  jump\t// in\ntag_234:\n    /* \"#utility.yul\":6726:6828   */\n  swap2\n  pop\n    /* \"#utility.yul\":6845:6940   */\n  tag_235\n    /* \"#utility.yul\":6936:6939   */\n  dup3\n    /* \"#utility.yul\":6927:6933   */\n  dup5\n    /* \"#utility.yul\":6845:6940   */\n  tag_157\n  jump\t// in\ntag_235:\n    /* \"#utility.yul\":6838:6940   */\n  swap2\n  pop\n    /* \"#utility.yul\":6957:6960   */\n  dup2\n    /* \"#utility.yul\":6950:6960   */\n  swap1\n  pop\n    /* \"#utility.yul\":6531:6966   */\n  swap4\n  swap3\n  pop\n  pop\n  pop\n  jump\t// out\n    /* \"contracts/VendingMachine.sol\":90:7686  contract VendingMachine {... */\ntag_6:\n  dataSize(sub_0)\n  dup1\n  dataOffset(sub_0)\n  0x00\n  codecopy\n  0x00\n  return\nstop\ndata_ec9eb78cc41e57eb52d56b49fd2dd4ed8c3cd69def9c06a39aaca306c1f4712f 516d6652465261626f50334d3438656578766e516b6977675544506150484a69466e44634b637545754c426266312f\n\nsub_0: assembly {\n        /* \"contracts/VendingMachine.sol\":90:7686  contract VendingMachine {... */\n      mstore(0x40, 0x80)\n      jumpi(tag_1, lt(calldatasize, 0x04))\n      shr(0xe0, calldataload(0x00))\n      dup1\n      0x70cd5a80\n      gt\n      tag_12\n      jumpi\n      dup1\n      0x70cd5a80\n      eq\n      tag_7\n      jumpi\n      dup1\n      0x94cf2160\n      eq\n      tag_8\n      jumpi\n      dup1\n      0xa26759cb\n      eq\n      tag_9\n      jumpi\n      dup1\n      0xb04f3225\n      eq\n      tag_10\n      jumpi\n      dup1\n      0xcdad28d7\n      eq\n      tag_11\n      jumpi\n      jump(tag_1)\n    tag_12:\n      dup1\n      0x02ee3a52\n      eq\n      tag_2\n      jumpi\n      dup1\n      0x12065fe0\n      eq\n      tag_3\n      jumpi\n      dup1\n      0x121dc3d5\n      eq\n      tag_4\n      jumpi\n      dup1\n      0x19f92926\n      eq\n      tag_5\n      jumpi\n      dup1\n      0x3ccfd60b\n      eq\n      tag_6\n      jumpi\n    tag_1:\n      0x00\n      dup1\n      revert\n        /* \"contracts/VendingMachine.sol\":4002:4114  function getAllProducts() public view returns (ProductLibrary.Product[] memory) {... */\n    tag_2:\n      callvalue\n      dup1\n      iszero\n      tag_13\n      jumpi\n      0x00\n      dup1\n      revert\n    tag_13:\n      pop\n      tag_14\n      tag_15\n      jump\t// in\n    tag_14:\n      mload(0x40)\n      tag_16\n      swap2\n      swap1\n      tag_17\n      jump\t// in\n    tag_16:\n      mload(0x40)\n      dup1\n      swap2\n      sub\n      swap1\n      return\n        /* \"contracts/VendingMachine.sol\":4280:4383  function getBalance() public view onlyOwner returns (uint) {... */\n    tag_3:\n      callvalue\n      dup1\n      iszero\n      tag_18\n      jumpi\n      0x00\n      dup1\n      revert\n    tag_18:\n      pop\n      tag_19\n      tag_20\n      jump\t// in\n    tag_19:\n      mload(0x40)\n      tag_21\n      swap2\n      swap1\n      tag_22\n      jump\t// in\n    tag_21:\n      mload(0x40)\n      dup1\n      swap2\n      sub\n      swap1\n      return\n        /* \"contracts/VendingMachine.sol\":5893:6633  function getAvailablePurchases(address _buyer) public view onlyOwner returns (ProductLibrary.Purchase[] memory) {... */\n    tag_4:\n      callvalue\n      dup1\n      iszero\n      tag_23\n      jumpi\n      0x00\n      dup1\n      revert\n    tag_23:\n      pop\n      tag_24\n      0x04\n      dup1\n      calldatasize\n      sub\n      dup2\n      add\n      swap1\n      tag_25\n      swap2\n      swap1\n      tag_26\n      jump\t// in\n    tag_25:\n      tag_27\n      jump\t// in\n    tag_24:\n      mload(0x40)\n      tag_28\n      swap2\n      swap1\n      tag_29\n      jump\t// in\n    tag_28:\n      mload(0x40)\n      dup1\n      swap2\n      sub\n      swap1\n      return\n        /* \"contracts/VendingMachine.sol\":4393:4787  function purchaseProduct(string memory _productId) public onlyOwner {... */\n    tag_5:\n      callvalue\n      dup1\n      iszero\n      tag_30\n      jumpi\n      0x00\n      dup1\n      revert\n    tag_30:\n      pop\n      tag_31\n      0x04\n      dup1\n      calldatasize\n      sub\n      dup2\n      add\n      swap1\n      tag_32\n      swap2\n      swap1\n      tag_33\n      jump\t// in\n    tag_32:\n      tag_34\n      jump\t// in\n    tag_31:\n      stop\n        /* \"contracts/VendingMachine.sol\":7380:7684  function withdraw() public onlyOwner noReentrant {... */\n    tag_6:\n      callvalue\n      dup1\n      iszero\n      tag_35\n      jumpi\n      0x00\n      dup1\n      revert\n    tag_35:\n      pop\n      tag_36\n      tag_37\n      jump\t// in\n    tag_36:\n      stop\n        /* \"contracts/VendingMachine.sol\":4793:5441  function getPurchases(address _buyer) public view onlyOwner returns (ProductLibrary.Purchase[] memory) {... */\n    tag_7:\n      callvalue\n      dup1\n      iszero\n      tag_38\n      jumpi\n      0x00\n      dup1\n      revert\n    tag_38:\n      pop\n      tag_39\n      0x04\n      dup1\n      calldatasize\n      sub\n      dup2\n      add\n      swap1\n      tag_40\n      swap2\n      swap1\n      tag_26\n      jump\t// in\n    tag_40:\n      tag_41\n      jump\t// in\n    tag_39:\n      mload(0x40)\n      tag_42\n      swap2\n      swap1\n      tag_29\n      jump\t// in\n    tag_42:\n      mload(0x40)\n      dup1\n      swap2\n      sub\n      swap1\n      return\n        /* \"contracts/VendingMachine.sol\":6639:7374  function getConsumedPurchases(address _buyer) public view onlyOwner returns (ProductLibrary.Purchase[] memory) {... */\n    tag_8:\n      callvalue\n      dup1\n      iszero\n      tag_43\n      jumpi\n      0x00\n      dup1\n      revert\n    tag_43:\n      pop\n      tag_44\n      0x04\n      dup1\n      calldatasize\n      sub\n      dup2\n      add\n      swap1\n      tag_45\n      swap2\n      swap1\n      tag_26\n      jump\t// in\n    tag_45:\n      tag_46\n      jump\t// in\n    tag_44:\n      mload(0x40)\n      tag_47\n      swap2\n      swap1\n      tag_29\n      jump\t// in\n    tag_47:\n      mload(0x40)\n      dup1\n      swap2\n      sub\n      swap1\n      return\n        /* \"contracts/VendingMachine.sol\":4120:4274  function addFunds() public onlyOwner payable {... */\n    tag_9:\n      tag_48\n      tag_49\n      jump\t// in\n    tag_48:\n      stop\n        /* \"contracts/VendingMachine.sol\":5447:5887  function consumePurchase(uint _purchaseIndex) public onlyOwner {... */\n    tag_10:\n      callvalue\n      dup1\n      iszero\n      tag_50\n      jumpi\n      0x00\n      dup1\n      revert\n    tag_50:\n      pop\n      tag_51\n      0x04\n      dup1\n      calldatasize\n      sub\n      dup2\n      add\n      swap1\n      tag_52\n      swap2\n      swap1\n      tag_53\n      jump\t// in\n    tag_52:\n      tag_54\n      jump\t// in\n    tag_51:\n      stop\n        /* \"contracts/VendingMachine.sol\":3625:3996  function getProductByCode(string memory _productId) public view returns (ProductLibrary.Product memory) {... */\n    tag_11:\n      callvalue\n      dup1\n      iszero\n      tag_55\n      jumpi\n      0x00\n      dup1\n      revert\n    tag_55:\n      pop\n      tag_56\n      0x04\n      dup1\n      calldatasize\n      sub\n      dup2\n      add\n      swap1\n      tag_57\n      swap2\n      swap1\n      tag_33\n      jump\t// in\n    tag_57:\n      tag_58\n      jump\t// in\n    tag_56:\n      mload(0x40)\n      tag_59\n      swap2\n      swap1\n      tag_60\n      jump\t// in\n    tag_59:\n      mload(0x40)\n      dup1\n      swap2\n      sub\n      swap1\n      return\n        /* \"contracts/VendingMachine.sol\":4002:4114  function getAllProducts() public view returns (ProductLibrary.Product[] memory) {... */\n    tag_15:\n        /* \"contracts/VendingMachine.sol\":4049:4080  ProductLibrary.Product[] memory */\n      0x60\n        /* \"contracts/VendingMachine.sol\":4099:4107  products */\n      0x01\n        /* \"contracts/VendingMachine.sol\":4092:4107  return products */\n      dup1\n      sload\n      dup1\n      0x20\n      mul\n      0x20\n      add\n      mload(0x40)\n      swap1\n      dup2\n      add\n      0x40\n      mstore\n      dup1\n      swap3\n      swap2\n      swap1\n      dup2\n      dup2\n      mstore\n      0x20\n      add\n      0x00\n      swap1\n    tag_62:\n      dup3\n      dup3\n      lt\n      iszero\n      tag_63\n      jumpi\n      dup4\n      dup3\n      swap1\n      0x00\n      mstore\n      keccak256(0x00, 0x20)\n      swap1\n      0x04\n      mul\n      add\n      mload(0x40)\n      dup1\n      0x80\n      add\n      0x40\n      mstore\n      swap1\n      dup2\n      0x00\n      dup3\n      add\n      dup1\n      sload\n      tag_65\n      swap1\n      tag_66\n      jump\t// in\n    tag_65:\n      dup1\n      0x1f\n      add\n      0x20\n      dup1\n      swap2\n      div\n      mul\n      0x20\n      add\n      mload(0x40)\n      swap1\n      dup2\n      add\n      0x40\n      mstore\n      dup1\n      swap3\n      swap2\n      swap1\n      dup2\n      dup2\n      mstore\n      0x20\n      add\n      dup3\n      dup1\n      sload\n      tag_67\n      swap1\n      tag_66\n      jump\t// in\n    tag_67:\n      dup1\n      iszero\n      tag_68\n      jumpi\n      dup1\n      0x1f\n      lt\n      tag_69\n      jumpi\n      0x0100\n      dup1\n      dup4\n      sload\n      div\n      mul\n      dup4\n      mstore\n      swap2\n      0x20\n      add\n      swap2\n      jump(tag_68)\n    tag_69:\n      dup3\n      add\n      swap2\n      swap1\n      0x00\n      mstore\n      keccak256(0x00, 0x20)\n      swap1\n    tag_70:\n      dup2\n      sload\n      dup2\n      mstore\n      swap1\n      0x01\n      add\n      swap1\n      0x20\n      add\n      dup1\n      dup4\n      gt\n      tag_70\n      jumpi\n      dup3\n      swap1\n      sub\n      0x1f\n      and\n      dup3\n      add\n      swap2\n    tag_68:\n      pop\n      pop\n      pop\n      pop\n      pop\n      dup2\n      mstore\n      0x20\n      add\n      0x01\n      dup3\n      add\n      sload\n      dup2\n      mstore\n      0x20\n      add\n      0x02\n      dup3\n      add\n      dup1\n      sload\n      tag_71\n      swap1\n      tag_66\n      jump\t// in\n    tag_71:\n      dup1\n      0x1f\n      add\n      0x20\n      dup1\n      swap2\n      div\n      mul\n      0x20\n      add\n      mload(0x40)\n      swap1\n      dup2\n      add\n      0x40\n      mstore\n      dup1\n      swap3\n      swap2\n      swap1\n      dup2\n      dup2\n      mstore\n      0x20\n      add\n      dup3\n      dup1\n      sload\n      tag_72\n      swap1\n      tag_66\n      jump\t// in\n    tag_72:\n      dup1\n      iszero\n      tag_73\n      jumpi\n      dup1\n      0x1f\n      lt\n      tag_74\n      jumpi\n      0x0100\n      dup1\n      dup4\n      sload\n      div\n      mul\n      dup4\n      mstore\n      swap2\n      0x20\n      add\n      swap2\n      jump(tag_73)\n    tag_74:\n      dup3\n      add\n      swap2\n      swap1\n      0x00\n      mstore\n      keccak256(0x00, 0x20)\n      swap1\n    tag_75:\n      dup2\n      sload\n      dup2\n      mstore\n      swap1\n      0x01\n      add\n      swap1\n      0x20\n      add\n      dup1\n      dup4\n      gt\n      tag_75\n      jumpi\n      dup3\n      swap1\n      sub\n      0x1f\n      and\n      dup3\n      add\n      swap2\n    tag_73:\n      pop\n      pop\n      pop\n      pop\n      pop\n      dup2\n      mstore\n      0x20\n      add\n      0x03\n      dup3\n      add\n      dup1\n      sload\n      tag_76\n      swap1\n      tag_66\n      jump\t// in\n    tag_76:\n      dup1\n      0x1f\n      add\n      0x20\n      dup1\n      swap2\n      div\n      mul\n      0x20\n      add\n      mload(0x40)\n      swap1\n      dup2\n      add\n      0x40\n      mstore\n      dup1\n      swap3\n      swap2\n      swap1\n      dup2\n      dup2\n      mstore\n      0x20\n      add\n      dup3\n      dup1\n      sload\n      tag_77\n      swap1\n      tag_66\n      jump\t// in\n    tag_77:\n      dup1\n      iszero\n      tag_78\n      jumpi\n      dup1\n      0x1f\n      lt\n      tag_79\n      jumpi\n      0x0100\n      dup1\n      dup4\n      sload\n      div\n      mul\n      dup4\n      mstore\n      swap2\n      0x20\n      add\n      swap2\n      jump(tag_78)\n    tag_79:\n      dup3\n      add\n      swap2\n      swap1\n      0x00\n      mstore\n      keccak256(0x00, 0x20)\n      swap1\n    tag_80:\n      dup2\n      sload\n      dup2\n      mstore\n      swap1\n      0x01\n      add\n      swap1\n      0x20\n      add\n      dup1\n      dup4\n      gt\n      tag_80\n      jumpi\n      dup3\n      swap1\n      sub\n      0x1f\n      and\n      dup3\n      add\n      swap2\n    tag_78:\n      pop\n      pop\n      pop\n      pop\n      pop\n      dup2\n      mstore\n      pop\n      pop\n      dup2\n      mstore\n      0x20\n      add\n      swap1\n      0x01\n      add\n      swap1\n      jump(tag_62)\n    tag_63:\n      pop\n      pop\n      pop\n      pop\n      swap1\n      pop\n        /* \"contracts/VendingMachine.sol\":4002:4114  function getAllProducts() public view returns (ProductLibrary.Product[] memory) {... */\n      swap1\n      jump\t// out\n        /* \"contracts/VendingMachine.sol\":4280:4383  function getBalance() public view onlyOwner returns (uint) {... */\n    tag_20:\n        /* \"contracts/VendingMachine.sol\":4333:4337  uint */\n      0x00\n        /* \"contracts/VendingMachine.sol\":573:578  owner */\n      dup1\n      0x00\n      swap1\n      sload\n      swap1\n      0x0100\n      exp\n      swap1\n      div\n      0xffffffffffffffffffffffffffffffffffffffff\n      and\n        /* \"contracts/VendingMachine.sol\":559:578  msg.sender == owner */\n      0xffffffffffffffffffffffffffffffffffffffff\n      and\n        /* \"contracts/VendingMachine.sol\":559:569  msg.sender */\n      caller\n        /* \"contracts/VendingMachine.sol\":559:578  msg.sender == owner */\n      0xffffffffffffffffffffffffffffffffffffffff\n      and\n      eq\n        /* \"contracts/VendingMachine.sol\":551:616  require(msg.sender == owner, \"Only owner can call this function\") */\n      tag_82\n      jumpi\n      mload(0x40)\n      0x08c379a000000000000000000000000000000000000000000000000000000000\n      dup2\n      mstore\n      0x04\n      add\n      tag_83\n      swap1\n      tag_84\n      jump\t// in\n    tag_83:\n      mload(0x40)\n      dup1\n      swap2\n      sub\n      swap1\n      revert\n    tag_82:\n        /* \"contracts/VendingMachine.sol\":4356:4364  balances */\n      0x02\n        /* \"contracts/VendingMachine.sol\":4356:4376  balances[msg.sender] */\n      0x00\n        /* \"contracts/VendingMachine.sol\":4365:4375  msg.sender */\n      caller\n        /* \"contracts/VendingMachine.sol\":4356:4376  balances[msg.sender] */\n      0xffffffffffffffffffffffffffffffffffffffff\n      and\n      0xffffffffffffffffffffffffffffffffffffffff\n      and\n      dup2\n      mstore\n      0x20\n      add\n      swap1\n      dup2\n      mstore\n      0x20\n      add\n      0x00\n      keccak256\n      sload\n        /* \"contracts/VendingMachine.sol\":4349:4376  return balances[msg.sender] */\n      swap1\n      pop\n        /* \"contracts/VendingMachine.sol\":4280:4383  function getBalance() public view onlyOwner returns (uint) {... */\n      swap1\n      jump\t// out\n        /* \"contracts/VendingMachine.sol\":5893:6633  function getAvailablePurchases(address _buyer) public view onlyOwner returns (ProductLibrary.Purchase[] memory) {... */\n    tag_27:\n        /* \"contracts/VendingMachine.sol\":5971:6003  ProductLibrary.Purchase[] memory */\n      0x60\n        /* \"contracts/VendingMachine.sol\":573:578  owner */\n      0x00\n      dup1\n      sload\n      swap1\n      0x0100\n      exp\n      swap1\n      div\n      0xffffffffffffffffffffffffffffffffffffffff\n      and\n        /* \"contracts/VendingMachine.sol\":559:578  msg.sender == owner */\n      0xffffffffffffffffffffffffffffffffffffffff\n      and\n        /* \"contracts/VendingMachine.sol\":559:569  msg.sender */\n      caller\n        /* \"contracts/VendingMachine.sol\":559:578  msg.sender == owner */\n      0xffffffffffffffffffffffffffffffffffffffff\n      and\n      eq\n        /* \"contracts/VendingMachine.sol\":551:616  require(msg.sender == owner, \"Only owner can call this function\") */\n      tag_87\n      jumpi\n      mload(0x40)\n      0x08c379a000000000000000000000000000000000000000000000000000000000\n      dup2\n      mstore\n      0x04\n      add\n      tag_88\n      swap1\n      tag_84\n      jump\t// in\n    tag_88:\n      mload(0x40)\n      dup1\n      swap2\n      sub\n      swap1\n      revert\n    tag_87:\n        /* \"contracts/VendingMachine.sol\":6015:6066  ProductLibrary.Purchase[] memory availablePurchases */\n      0x00\n        /* \"contracts/VendingMachine.sol\":6099:6108  purchases */\n      0x03\n        /* \"contracts/VendingMachine.sol\":6099:6115  purchases.length */\n      dup1\n      sload\n      swap1\n      pop\n        /* \"contracts/VendingMachine.sol\":6069:6116  new ProductLibrary.Purchase[](purchases.length) */\n      0xffffffffffffffff\n      dup2\n      gt\n      iszero\n      tag_90\n      jumpi\n      tag_91\n      tag_92\n      jump\t// in\n    tag_91:\n    tag_90:\n      mload(0x40)\n      swap1\n      dup1\n      dup3\n      mstore\n      dup1\n      0x20\n      mul\n      0x20\n      add\n      dup3\n      add\n      0x40\n      mstore\n      dup1\n      iszero\n      tag_93\n      jumpi\n      dup2\n      0x20\n      add\n    tag_94:\n      tag_95\n      tag_96\n      jump\t// in\n    tag_95:\n      dup2\n      mstore\n      0x20\n      add\n      swap1\n      0x01\n      swap1\n      sub\n      swap1\n      dup2\n      tag_94\n      jumpi\n      swap1\n      pop\n    tag_93:\n      pop\n        /* \"contracts/VendingMachine.sol\":6015:6116  ProductLibrary.Purchase[] memory availablePurchases = new ProductLibrary.Purchase[](purchases.length) */\n      swap1\n      pop\n        /* \"contracts/VendingMachine.sol\":6126:6136  uint count */\n      0x00\n        /* \"contracts/VendingMachine.sol\":6155:6161  uint i */\n      dup1\n        /* \"contracts/VendingMachine.sol\":6150:6416  for (uint i = 0; i < purchases.length; i++) {... */\n    tag_97:\n        /* \"contracts/VendingMachine.sol\":6171:6180  purchases */\n      0x03\n        /* \"contracts/VendingMachine.sol\":6171:6187  purchases.length */\n      dup1\n      sload\n      swap1\n      pop\n        /* \"contracts/VendingMachine.sol\":6167:6168  i */\n      dup2\n        /* \"contracts/VendingMachine.sol\":6167:6187  i < purchases.length */\n      lt\n        /* \"contracts/VendingMachine.sol\":6150:6416  for (uint i = 0; i < purchases.length; i++) {... */\n      iszero\n      tag_98\n      jumpi\n        /* \"contracts/VendingMachine.sol\":6234:6240  _buyer */\n      dup5\n        /* \"contracts/VendingMachine.sol\":6212:6240  purchases[i].buyer == _buyer */\n      0xffffffffffffffffffffffffffffffffffffffff\n      and\n        /* \"contracts/VendingMachine.sol\":6212:6221  purchases */\n      0x03\n        /* \"contracts/VendingMachine.sol\":6222:6223  i */\n      dup3\n        /* \"contracts/VendingMachine.sol\":6212:6224  purchases[i] */\n      dup2\n      sload\n      dup2\n      lt\n      tag_100\n      jumpi\n      tag_101\n      tag_102\n      jump\t// in\n    tag_101:\n    tag_100:\n      swap1\n      0x00\n      mstore\n      keccak256(0x00, 0x20)\n      swap1\n      0x04\n      mul\n      add\n        /* \"contracts/VendingMachine.sol\":6212:6230  purchases[i].buyer */\n      0x00\n      add\n      0x00\n      swap1\n      sload\n      swap1\n      0x0100\n      exp\n      swap1\n      div\n      0xffffffffffffffffffffffffffffffffffffffff\n      and\n        /* \"contracts/VendingMachine.sol\":6212:6240  purchases[i].buyer == _buyer */\n      0xffffffffffffffffffffffffffffffffffffffff\n      and\n      eq\n        /* \"contracts/VendingMachine.sol\":6212:6306  purchases[i].buyer == _buyer && purchases[i].status == ProductLibrary.PurchaseStatus.Available */\n      dup1\n      iszero\n      tag_104\n      jumpi\n      pop\n        /* \"contracts/VendingMachine.sol\":6267:6306  ProductLibrary.PurchaseStatus.Available */\n      0x00\n        /* \"contracts/VendingMachine.sol\":6244:6306  purchases[i].status == ProductLibrary.PurchaseStatus.Available */\n      0x01\n      dup2\n      gt\n      iszero\n      tag_105\n      jumpi\n      tag_106\n      tag_107\n      jump\t// in\n    tag_106:\n    tag_105:\n        /* \"contracts/VendingMachine.sol\":6244:6253  purchases */\n      0x03\n        /* \"contracts/VendingMachine.sol\":6254:6255  i */\n      dup3\n        /* \"contracts/VendingMachine.sol\":6244:6256  purchases[i] */\n      dup2\n      sload\n      dup2\n      lt\n      tag_108\n      jumpi\n      tag_109\n      tag_102\n      jump\t// in\n    tag_109:\n    tag_108:\n      swap1\n      0x00\n      mstore\n      keccak256(0x00, 0x20)\n      swap1\n      0x04\n      mul\n      add\n        /* \"contracts/VendingMachine.sol\":6244:6263  purchases[i].status */\n      0x03\n      add\n      0x00\n      swap1\n      sload\n      swap1\n      0x0100\n      exp\n      swap1\n      div\n      0xff\n      and\n        /* \"contracts/VendingMachine.sol\":6244:6306  purchases[i].status == ProductLibrary.PurchaseStatus.Available */\n      0x01\n      dup2\n      gt\n      iszero\n      tag_111\n      jumpi\n      tag_112\n      tag_107\n      jump\t// in\n    tag_112:\n    tag_111:\n      eq\n        /* \"contracts/VendingMachine.sol\":6212:6306  purchases[i].buyer == _buyer && purchases[i].status == ProductLibrary.PurchaseStatus.Available */\n    tag_104:\n        /* \"contracts/VendingMachine.sol\":6208:6406  if (purchases[i].buyer == _buyer && purchases[i].status == ProductLibrary.PurchaseStatus.Available) {... */\n      iszero\n      tag_113\n      jumpi\n        /* \"contracts/VendingMachine.sol\":6354:6363  purchases */\n      0x03\n        /* \"contracts/VendingMachine.sol\":6364:6365  i */\n      dup2\n        /* \"contracts/VendingMachine.sol\":6354:6366  purchases[i] */\n      dup2\n      sload\n      dup2\n      lt\n      tag_114\n      jumpi\n      tag_115\n      tag_102\n      jump\t// in\n    tag_115:\n    tag_114:\n      swap1\n      0x00\n      mstore\n      keccak256(0x00, 0x20)\n      swap1\n      0x04\n      mul\n      add\n        /* \"contracts/VendingMachine.sol\":6326:6366  availablePurchases[count] = purchases[i] */\n      mload(0x40)\n      dup1\n      0x80\n      add\n      0x40\n      mstore\n      swap1\n      dup2\n      0x00\n      dup3\n      add\n      0x00\n      swap1\n      sload\n      swap1\n      0x0100\n      exp\n      swap1\n      div\n      0xffffffffffffffffffffffffffffffffffffffff\n      and\n      0xffffffffffffffffffffffffffffffffffffffff\n      and\n      0xffffffffffffffffffffffffffffffffffffffff\n      and\n      dup2\n      mstore\n      0x20\n      add\n      0x01\n      dup3\n      add\n      dup1\n      sload\n      tag_117\n      swap1\n      tag_66\n      jump\t// in\n    tag_117:\n      dup1\n      0x1f\n      add\n      0x20\n      dup1\n      swap2\n      div\n      mul\n      0x20\n      add\n      mload(0x40)\n      swap1\n      dup2\n      add\n      0x40\n      mstore\n      dup1\n      swap3\n      swap2\n      swap1\n      dup2\n      dup2\n      mstore\n      0x20\n      add\n      dup3\n      dup1\n      sload\n      tag_118\n      swap1\n      tag_66\n      jump\t// in\n    tag_118:\n      dup1\n      iszero\n      tag_119\n      jumpi\n      dup1\n      0x1f\n      lt\n      tag_120\n      jumpi\n      0x0100\n      dup1\n      dup4\n      sload\n      div\n      mul\n      dup4\n      mstore\n      swap2\n      0x20\n      add\n      swap2\n      jump(tag_119)\n    tag_120:\n      dup3\n      add\n      swap2\n      swap1\n      0x00\n      mstore\n      keccak256(0x00, 0x20)\n      swap1\n    tag_121:\n      dup2\n      sload\n      dup2\n      mstore\n      swap1\n      0x01\n      add\n      swap1\n      0x20\n      add\n      dup1\n      dup4\n      gt\n      tag_121\n      jumpi\n      dup3\n      swap1\n      sub\n      0x1f\n      and\n      dup3\n      add\n      swap2\n    tag_119:\n      pop\n      pop\n      pop\n      pop\n      pop\n      dup2\n      mstore\n      0x20\n      add\n      0x02\n      dup3\n      add\n      sload\n      dup2\n      mstore\n      0x20\n      add\n      0x03\n      dup3\n      add\n      0x00\n      swap1\n      sload\n      swap1\n      0x0100\n      exp\n      swap1\n      div\n      0xff\n      and\n      0x01\n      dup2\n      gt\n      iszero\n      tag_122\n      jumpi\n      tag_123\n      tag_107\n      jump\t// in\n    tag_123:\n    tag_122:\n      0x01\n      dup2\n      gt\n      iszero\n      tag_124\n      jumpi\n      tag_125\n      tag_107\n      jump\t// in\n    tag_125:\n    tag_124:\n      dup2\n      mstore\n      pop\n      pop\n        /* \"contracts/VendingMachine.sol\":6326:6344  availablePurchases */\n      dup4\n        /* \"contracts/VendingMachine.sol\":6345:6350  count */\n      dup4\n        /* \"contracts/VendingMachine.sol\":6326:6351  availablePurchases[count] */\n      dup2\n      mload\n      dup2\n      lt\n      tag_126\n      jumpi\n      tag_127\n      tag_102\n      jump\t// in\n    tag_127:\n    tag_126:\n      0x20\n      mul\n      0x20\n      add\n      add\n        /* \"contracts/VendingMachine.sol\":6326:6366  availablePurchases[count] = purchases[i] */\n      dup2\n      swap1\n      mstore\n      pop\n        /* \"contracts/VendingMachine.sol\":6384:6391  count++ */\n      dup2\n      dup1\n      tag_128\n      swap1\n      tag_129\n      jump\t// in\n    tag_128:\n      swap3\n      pop\n      pop\n        /* \"contracts/VendingMachine.sol\":6208:6406  if (purchases[i].buyer == _buyer && purchases[i].status == ProductLibrary.PurchaseStatus.Available) {... */\n    tag_113:\n        /* \"contracts/VendingMachine.sol\":6189:6192  i++ */\n      dup1\n      dup1\n      0x01\n      add\n      swap2\n      pop\n      pop\n        /* \"contracts/VendingMachine.sol\":6150:6416  for (uint i = 0; i < purchases.length; i++) {... */\n      jump(tag_97)\n    tag_98:\n      pop\n        /* \"contracts/VendingMachine.sol\":6425:6464  ProductLibrary.Purchase[] memory result */\n      0x00\n        /* \"contracts/VendingMachine.sol\":6497:6502  count */\n      dup2\n        /* \"contracts/VendingMachine.sol\":6467:6503  new ProductLibrary.Purchase[](count) */\n      0xffffffffffffffff\n      dup2\n      gt\n      iszero\n      tag_130\n      jumpi\n      tag_131\n      tag_92\n      jump\t// in\n    tag_131:\n    tag_130:\n      mload(0x40)\n      swap1\n      dup1\n      dup3\n      mstore\n      dup1\n      0x20\n      mul\n      0x20\n      add\n      dup3\n      add\n      0x40\n      mstore\n      dup1\n      iszero\n      tag_132\n      jumpi\n      dup2\n      0x20\n      add\n    tag_133:\n      tag_134\n      tag_96\n      jump\t// in\n    tag_134:\n      dup2\n      mstore\n      0x20\n      add\n      swap1\n      0x01\n      swap1\n      sub\n      swap1\n      dup2\n      tag_133\n      jumpi\n      swap1\n      pop\n    tag_132:\n      pop\n        /* \"contracts/VendingMachine.sol\":6425:6503  ProductLibrary.Purchase[] memory result = new ProductLibrary.Purchase[](count) */\n      swap1\n      pop\n        /* \"contracts/VendingMachine.sol\":6518:6524  uint i */\n      0x00\n        /* \"contracts/VendingMachine.sol\":6513:6604  for (uint i = 0; i < count; i++) {... */\n    tag_135:\n        /* \"contracts/VendingMachine.sol\":6534:6539  count */\n      dup3\n        /* \"contracts/VendingMachine.sol\":6530:6531  i */\n      dup2\n        /* \"contracts/VendingMachine.sol\":6530:6539  i < count */\n      lt\n        /* \"contracts/VendingMachine.sol\":6513:6604  for (uint i = 0; i < count; i++) {... */\n      iszero\n      tag_136\n      jumpi\n        /* \"contracts/VendingMachine.sol\":6572:6590  availablePurchases */\n      dup4\n        /* \"contracts/VendingMachine.sol\":6591:6592  i */\n      dup2\n        /* \"contracts/VendingMachine.sol\":6572:6593  availablePurchases[i] */\n      dup2\n      mload\n      dup2\n      lt\n      tag_138\n      jumpi\n      tag_139\n      tag_102\n      jump\t// in\n    tag_139:\n    tag_138:\n      0x20\n      mul\n      0x20\n      add\n      add\n      mload\n        /* \"contracts/VendingMachine.sol\":6560:6566  result */\n      dup3\n        /* \"contracts/VendingMachine.sol\":6567:6568  i */\n      dup3\n        /* \"contracts/VendingMachine.sol\":6560:6569  result[i] */\n      dup2\n      mload\n      dup2\n      lt\n      tag_140\n      jumpi\n      tag_141\n      tag_102\n      jump\t// in\n    tag_141:\n    tag_140:\n      0x20\n      mul\n      0x20\n      add\n      add\n        /* \"contracts/VendingMachine.sol\":6560:6593  result[i] = availablePurchases[i] */\n      dup2\n      swap1\n      mstore\n      pop\n        /* \"contracts/VendingMachine.sol\":6541:6544  i++ */\n      dup1\n      dup1\n      0x01\n      add\n      swap2\n      pop\n      pop\n        /* \"contracts/VendingMachine.sol\":6513:6604  for (uint i = 0; i < count; i++) {... */\n      jump(tag_135)\n    tag_136:\n      pop\n        /* \"contracts/VendingMachine.sol\":6620:6626  result */\n      dup1\n        /* \"contracts/VendingMachine.sol\":6613:6626  return result */\n      swap4\n      pop\n      pop\n      pop\n      pop\n        /* \"contracts/VendingMachine.sol\":5893:6633  function getAvailablePurchases(address _buyer) public view onlyOwner returns (ProductLibrary.Purchase[] memory) {... */\n      swap2\n      swap1\n      pop\n      jump\t// out\n        /* \"contracts/VendingMachine.sol\":4393:4787  function purchaseProduct(string memory _productId) public onlyOwner {... */\n    tag_34:\n        /* \"contracts/VendingMachine.sol\":573:578  owner */\n      0x00\n      dup1\n      sload\n      swap1\n      0x0100\n      exp\n      swap1\n      div\n      0xffffffffffffffffffffffffffffffffffffffff\n      and\n        /* \"contracts/VendingMachine.sol\":559:578  msg.sender == owner */\n      0xffffffffffffffffffffffffffffffffffffffff\n      and\n        /* \"contracts/VendingMachine.sol\":559:569  msg.sender */\n      caller\n        /* \"contracts/VendingMachine.sol\":559:578  msg.sender == owner */\n      0xffffffffffffffffffffffffffffffffffffffff\n      and\n      eq\n        /* \"contracts/VendingMachine.sol\":551:616  require(msg.sender == owner, \"Only owner can call this function\") */\n      tag_143\n      jumpi\n      mload(0x40)\n      0x08c379a000000000000000000000000000000000000000000000000000000000\n      dup2\n      mstore\n      0x04\n      add\n      tag_144\n      swap1\n      tag_84\n      jump\t// in\n    tag_144:\n      mload(0x40)\n      dup1\n      swap2\n      sub\n      swap1\n      revert\n    tag_143:\n        /* \"contracts/VendingMachine.sol\":4471:4488  uint productPrice */\n      0x00\n        /* \"contracts/VendingMachine.sol\":4491:4519  getProductByCode(_productId) */\n      tag_146\n        /* \"contracts/VendingMachine.sol\":4508:4518  _productId */\n      dup3\n        /* \"contracts/VendingMachine.sol\":4491:4507  getProductByCode */\n      tag_58\n        /* \"contracts/VendingMachine.sol\":4491:4519  getProductByCode(_productId) */\n      jump\t// in\n    tag_146:\n        /* \"contracts/VendingMachine.sol\":4491:4525  getProductByCode(_productId).price */\n      0x20\n      add\n      mload\n        /* \"contracts/VendingMachine.sol\":4471:4525  uint productPrice = getProductByCode(_productId).price */\n      swap1\n      pop\n        /* \"contracts/VendingMachine.sol\":4567:4579  productPrice */\n      dup1\n        /* \"contracts/VendingMachine.sol\":4543:4551  balances */\n      0x02\n        /* \"contracts/VendingMachine.sol\":4543:4563  balances[msg.sender] */\n      0x00\n        /* \"contracts/VendingMachine.sol\":4552:4562  msg.sender */\n      caller\n        /* \"contracts/VendingMachine.sol\":4543:4563  balances[msg.sender] */\n      0xffffffffffffffffffffffffffffffffffffffff\n      and\n      0xffffffffffffffffffffffffffffffffffffffff\n      and\n      dup2\n      mstore\n      0x20\n      add\n      swap1\n      dup2\n      mstore\n      0x20\n      add\n      0x00\n      keccak256\n      sload\n        /* \"contracts/VendingMachine.sol\":4543:4579  balances[msg.sender] >= productPrice */\n      lt\n      iszero\n        /* \"contracts/VendingMachine.sol\":4535:4602  require(balances[msg.sender] >= productPrice, \"Insufficient funds\") */\n      tag_147\n      jumpi\n      mload(0x40)\n      0x08c379a000000000000000000000000000000000000000000000000000000000\n      dup2\n      mstore\n      0x04\n      add\n      tag_148\n      swap1\n      tag_149\n      jump\t// in\n    tag_148:\n      mload(0x40)\n      dup1\n      swap2\n      sub\n      swap1\n      revert\n    tag_147:\n        /* \"contracts/VendingMachine.sol\":4637:4649  productPrice */\n      dup1\n        /* \"contracts/VendingMachine.sol\":4613:4621  balances */\n      0x02\n        /* \"contracts/VendingMachine.sol\":4613:4633  balances[msg.sender] */\n      0x00\n        /* \"contracts/VendingMachine.sol\":4622:4632  msg.sender */\n      caller\n        /* \"contracts/VendingMachine.sol\":4613:4633  balances[msg.sender] */\n      0xffffffffffffffffffffffffffffffffffffffff\n      and\n      0xffffffffffffffffffffffffffffffffffffffff\n      and\n      dup2\n      mstore\n      0x20\n      add\n      swap1\n      dup2\n      mstore\n      0x20\n      add\n      0x00\n      keccak256\n      0x00\n        /* \"contracts/VendingMachine.sol\":4613:4649  balances[msg.sender] -= productPrice */\n      dup3\n      dup3\n      sload\n      tag_150\n      swap2\n      swap1\n      tag_151\n      jump\t// in\n    tag_150:\n      swap3\n      pop\n      pop\n      dup2\n      swap1\n      sstore\n      pop\n        /* \"contracts/VendingMachine.sol\":4659:4668  purchases */\n      0x03\n        /* \"contracts/VendingMachine.sol\":4674:4779  ProductLibrary.Purchase(msg.sender, _productId, block.timestamp, ProductLibrary.PurchaseStatus.Available) */\n      mload(0x40)\n      dup1\n      0x80\n      add\n      0x40\n      mstore\n      dup1\n        /* \"contracts/VendingMachine.sol\":4698:4708  msg.sender */\n      caller\n        /* \"contracts/VendingMachine.sol\":4674:4779  ProductLibrary.Purchase(msg.sender, _productId, block.timestamp, ProductLibrary.PurchaseStatus.Available) */\n      0xffffffffffffffffffffffffffffffffffffffff\n      and\n      dup2\n      mstore\n      0x20\n      add\n        /* \"contracts/VendingMachine.sol\":4710:4720  _productId */\n      dup5\n        /* \"contracts/VendingMachine.sol\":4674:4779  ProductLibrary.Purchase(msg.sender, _productId, block.timestamp, ProductLibrary.PurchaseStatus.Available) */\n      dup2\n      mstore\n      0x20\n      add\n        /* \"contracts/VendingMachine.sol\":4722:4737  block.timestamp */\n      timestamp\n        /* \"contracts/VendingMachine.sol\":4674:4779  ProductLibrary.Purchase(msg.sender, _productId, block.timestamp, ProductLibrary.PurchaseStatus.Available) */\n      dup2\n      mstore\n      0x20\n      add\n        /* \"contracts/VendingMachine.sol\":4739:4778  ProductLibrary.PurchaseStatus.Available */\n      0x00\n        /* \"contracts/VendingMachine.sol\":4674:4779  ProductLibrary.Purchase(msg.sender, _productId, block.timestamp, ProductLibrary.PurchaseStatus.Available) */\n      0x01\n      dup2\n      gt\n      iszero\n      tag_152\n      jumpi\n      tag_153\n      tag_107\n      jump\t// in\n    tag_153:\n    tag_152:\n      dup2\n      mstore\n      pop\n        /* \"contracts/VendingMachine.sol\":4659:4780  purchases.push(ProductLibrary.Purchase(msg.sender, _productId, block.timestamp, ProductLibrary.PurchaseStatus.Available)) */\n      swap1\n      dup1\n      0x01\n      dup2\n      sload\n      add\n      dup1\n      dup3\n      sstore\n      dup1\n      swap2\n      pop\n      pop\n      0x01\n      swap1\n      sub\n      swap1\n      0x00\n      mstore\n      keccak256(0x00, 0x20)\n      swap1\n      0x04\n      mul\n      add\n      0x00\n      swap1\n      swap2\n      swap1\n      swap2\n      swap1\n      swap2\n      pop\n      0x00\n      dup3\n      add\n      mload\n      dup2\n      0x00\n      add\n      exp(0x0100, 0x00)\n      dup2\n      sload\n      dup2\n      0xffffffffffffffffffffffffffffffffffffffff\n      mul\n      not\n      and\n      swap1\n      dup4\n      0xffffffffffffffffffffffffffffffffffffffff\n      and\n      mul\n      or\n      swap1\n      sstore\n      pop\n      0x20\n      dup3\n      add\n      mload\n      dup2\n      0x01\n      add\n      swap1\n      dup2\n      tag_155\n      swap2\n      swap1\n      tag_156\n      jump\t// in\n    tag_155:\n      pop\n      0x40\n      dup3\n      add\n      mload\n      dup2\n      0x02\n      add\n      sstore\n      0x60\n      dup3\n      add\n      mload\n      dup2\n      0x03\n      add\n      exp(0x0100, 0x00)\n      dup2\n      sload\n      dup2\n      0xff\n      mul\n      not\n      and\n      swap1\n      dup4\n      0x01\n      dup2\n      gt\n      iszero\n      tag_157\n      jumpi\n      tag_158\n      tag_107\n      jump\t// in\n    tag_158:\n    tag_157:\n      mul\n      or\n      swap1\n      sstore\n      pop\n      pop\n      pop\n        /* \"contracts/VendingMachine.sol\":4461:4787  {... */\n      pop\n        /* \"contracts/VendingMachine.sol\":4393:4787  function purchaseProduct(string memory _productId) public onlyOwner {... */\n      pop\n      jump\t// out\n        /* \"contracts/VendingMachine.sol\":7380:7684  function withdraw() public onlyOwner noReentrant {... */\n    tag_37:\n        /* \"contracts/VendingMachine.sol\":573:578  owner */\n      0x00\n      dup1\n      sload\n      swap1\n      0x0100\n      exp\n      swap1\n      div\n      0xffffffffffffffffffffffffffffffffffffffff\n      and\n        /* \"contracts/VendingMachine.sol\":559:578  msg.sender == owner */\n      0xffffffffffffffffffffffffffffffffffffffff\n      and\n        /* \"contracts/VendingMachine.sol\":559:569  msg.sender */\n      caller\n        /* \"contracts/VendingMachine.sol\":559:578  msg.sender == owner */\n      0xffffffffffffffffffffffffffffffffffffffff\n      and\n      eq\n        /* \"contracts/VendingMachine.sol\":551:616  require(msg.sender == owner, \"Only owner can call this function\") */\n      tag_160\n      jumpi\n      mload(0x40)\n      0x08c379a000000000000000000000000000000000000000000000000000000000\n      dup2\n      mstore\n      0x04\n      add\n      tag_161\n      swap1\n      tag_84\n      jump\t// in\n    tag_161:\n      mload(0x40)\n      dup1\n      swap2\n      sub\n      swap1\n      revert\n    tag_160:\n        /* \"contracts/VendingMachine.sol\":682:688  locked */\n      0x00\n      0x14\n      swap1\n      sload\n      swap1\n      0x0100\n      exp\n      swap1\n      div\n      0xff\n      and\n        /* \"contracts/VendingMachine.sol\":681:688  !locked */\n      iszero\n        /* \"contracts/VendingMachine.sol\":673:706  require(!locked, \"No reentrancy\") */\n      tag_163\n      jumpi\n      mload(0x40)\n      0x08c379a000000000000000000000000000000000000000000000000000000000\n      dup2\n      mstore\n      0x04\n      add\n      tag_164\n      swap1\n      tag_165\n      jump\t// in\n    tag_164:\n      mload(0x40)\n      dup1\n      swap2\n      sub\n      swap1\n      revert\n    tag_163:\n        /* \"contracts/VendingMachine.sol\":725:729  true */\n      0x01\n        /* \"contracts/VendingMachine.sol\":716:722  locked */\n      0x00\n      0x14\n        /* \"contracts/VendingMachine.sol\":716:729  locked = true */\n      0x0100\n      exp\n      dup2\n      sload\n      dup2\n      0xff\n      mul\n      not\n      and\n      swap1\n      dup4\n      iszero\n      iszero\n      mul\n      or\n      swap1\n      sstore\n      pop\n        /* \"contracts/VendingMachine.sol\":7439:7450  uint amount */\n      0x00\n        /* \"contracts/VendingMachine.sol\":7453:7461  balances */\n      0x02\n        /* \"contracts/VendingMachine.sol\":7453:7473  balances[msg.sender] */\n      0x00\n        /* \"contracts/VendingMachine.sol\":7462:7472  msg.sender */\n      caller\n        /* \"contracts/VendingMachine.sol\":7453:7473  balances[msg.sender] */\n      0xffffffffffffffffffffffffffffffffffffffff\n      and\n      0xffffffffffffffffffffffffffffffffffffffff\n      and\n      dup2\n      mstore\n      0x20\n      add\n      swap1\n      dup2\n      mstore\n      0x20\n      add\n      0x00\n      keccak256\n      sload\n        /* \"contracts/VendingMachine.sol\":7439:7473  uint amount = balances[msg.sender] */\n      swap1\n      pop\n        /* \"contracts/VendingMachine.sol\":7500:7501  0 */\n      0x00\n        /* \"contracts/VendingMachine.sol\":7491:7497  amount */\n      dup2\n        /* \"contracts/VendingMachine.sol\":7491:7501  amount > 0 */\n      gt\n        /* \"contracts/VendingMachine.sol\":7483:7534  require(amount > 0, \"You do not have any balance.\") */\n      tag_167\n      jumpi\n      mload(0x40)\n      0x08c379a000000000000000000000000000000000000000000000000000000000\n      dup2\n      mstore\n      0x04\n      add\n      tag_168\n      swap1\n      tag_169\n      jump\t// in\n    tag_168:\n      mload(0x40)\n      dup1\n      swap2\n      sub\n      swap1\n      revert\n    tag_167:\n        /* \"contracts/VendingMachine.sol\":7567:7568  0 */\n      0x00\n        /* \"contracts/VendingMachine.sol\":7544:7552  balances */\n      0x02\n        /* \"contracts/VendingMachine.sol\":7544:7564  balances[msg.sender] */\n      0x00\n        /* \"contracts/VendingMachine.sol\":7553:7563  msg.sender */\n      caller\n        /* \"contracts/VendingMachine.sol\":7544:7564  balances[msg.sender] */\n      0xffffffffffffffffffffffffffffffffffffffff\n      and\n      0xffffffffffffffffffffffffffffffffffffffff\n      and\n      dup2\n      mstore\n      0x20\n      add\n      swap1\n      dup2\n      mstore\n      0x20\n      add\n      0x00\n      keccak256\n        /* \"contracts/VendingMachine.sol\":7544:7568  balances[msg.sender] = 0 */\n      dup2\n      swap1\n      sstore\n      pop\n        /* \"contracts/VendingMachine.sol\":7579:7591  bool success */\n      0x00\n        /* \"contracts/VendingMachine.sol\":7597:7607  msg.sender */\n      caller\n        /* \"contracts/VendingMachine.sol\":7597:7612  msg.sender.call */\n      0xffffffffffffffffffffffffffffffffffffffff\n      and\n        /* \"contracts/VendingMachine.sol\":7620:7626  amount */\n      dup3\n        /* \"contracts/VendingMachine.sol\":7597:7631  msg.sender.call{value: amount}(\"\") */\n      mload(0x40)\n      tag_170\n      swap1\n      tag_171\n      jump\t// in\n    tag_170:\n      0x00\n      mload(0x40)\n      dup1\n      dup4\n      sub\n      dup2\n      dup6\n      dup8\n      gas\n      call\n      swap3\n      pop\n      pop\n      pop\n      returndatasize\n      dup1\n      0x00\n      dup2\n      eq\n      tag_174\n      jumpi\n      mload(0x40)\n      swap2\n      pop\n      and(add(returndatasize, 0x3f), not(0x1f))\n      dup3\n      add\n      0x40\n      mstore\n      returndatasize\n      dup3\n      mstore\n      returndatasize\n      0x00\n      0x20\n      dup5\n      add\n      returndatacopy\n      jump(tag_173)\n    tag_174:\n      0x60\n      swap2\n      pop\n    tag_173:\n      pop\n        /* \"contracts/VendingMachine.sol\":7578:7631  (bool success, ) = msg.sender.call{value: amount}(\"\") */\n      pop\n      swap1\n      pop\n        /* \"contracts/VendingMachine.sol\":7649:7656  success */\n      dup1\n        /* \"contracts/VendingMachine.sol\":7641:7677  require(success, \"Transfer failed.\") */\n      tag_175\n      jumpi\n      mload(0x40)\n      0x08c379a000000000000000000000000000000000000000000000000000000000\n      dup2\n      mstore\n      0x04\n      add\n      tag_176\n      swap1\n      tag_177\n      jump\t// in\n    tag_176:\n      mload(0x40)\n      dup1\n      swap2\n      sub\n      swap1\n      revert\n    tag_175:\n        /* \"contracts/VendingMachine.sol\":7429:7684  {... */\n      pop\n      pop\n        /* \"contracts/VendingMachine.sol\":759:764  false */\n      0x00\n        /* \"contracts/VendingMachine.sol\":750:756  locked */\n      dup1\n      0x14\n        /* \"contracts/VendingMachine.sol\":750:764  locked = false */\n      0x0100\n      exp\n      dup2\n      sload\n      dup2\n      0xff\n      mul\n      not\n      and\n      swap1\n      dup4\n      iszero\n      iszero\n      mul\n      or\n      swap1\n      sstore\n      pop\n        /* \"contracts/VendingMachine.sol\":7380:7684  function withdraw() public onlyOwner noReentrant {... */\n      jump\t// out\n        /* \"contracts/VendingMachine.sol\":4793:5441  function getPurchases(address _buyer) public view onlyOwner returns (ProductLibrary.Purchase[] memory) {... */\n    tag_41:\n        /* \"contracts/VendingMachine.sol\":4862:4894  ProductLibrary.Purchase[] memory */\n      0x60\n        /* \"contracts/VendingMachine.sol\":573:578  owner */\n      0x00\n      dup1\n      sload\n      swap1\n      0x0100\n      exp\n      swap1\n      div\n      0xffffffffffffffffffffffffffffffffffffffff\n      and\n        /* \"contracts/VendingMachine.sol\":559:578  msg.sender == owner */\n      0xffffffffffffffffffffffffffffffffffffffff\n      and\n        /* \"contracts/VendingMachine.sol\":559:569  msg.sender */\n      caller\n        /* \"contracts/VendingMachine.sol\":559:578  msg.sender == owner */\n      0xffffffffffffffffffffffffffffffffffffffff\n      and\n      eq\n        /* \"contracts/VendingMachine.sol\":551:616  require(msg.sender == owner, \"Only owner can call this function\") */\n      tag_179\n      jumpi\n      mload(0x40)\n      0x08c379a000000000000000000000000000000000000000000000000000000000\n      dup2\n      mstore\n      0x04\n      add\n      tag_180\n      swap1\n      tag_84\n      jump\t// in\n    tag_180:\n      mload(0x40)\n      dup1\n      swap2\n      sub\n      swap1\n      revert\n    tag_179:\n        /* \"contracts/VendingMachine.sol\":4906:4952  ProductLibrary.Purchase[] memory userPurchases */\n      0x00\n        /* \"contracts/VendingMachine.sol\":4985:4994  purchases */\n      0x03\n        /* \"contracts/VendingMachine.sol\":4985:5001  purchases.length */\n      dup1\n      sload\n      swap1\n      pop\n        /* \"contracts/VendingMachine.sol\":4955:5002  new ProductLibrary.Purchase[](purchases.length) */\n      0xffffffffffffffff\n      dup2\n      gt\n      iszero\n      tag_182\n      jumpi\n      tag_183\n      tag_92\n      jump\t// in\n    tag_183:\n    tag_182:\n      mload(0x40)\n      swap1\n      dup1\n      dup3\n      mstore\n      dup1\n      0x20\n      mul\n      0x20\n      add\n      dup3\n      add\n      0x40\n      mstore\n      dup1\n      iszero\n      tag_184\n      jumpi\n      dup2\n      0x20\n      add\n    tag_185:\n      tag_186\n      tag_96\n      jump\t// in\n    tag_186:\n      dup2\n      mstore\n      0x20\n      add\n      swap1\n      0x01\n      swap1\n      sub\n      swap1\n      dup2\n      tag_185\n      jumpi\n      swap1\n      pop\n    tag_184:\n      pop\n        /* \"contracts/VendingMachine.sol\":4906:5002  ProductLibrary.Purchase[] memory userPurchases = new ProductLibrary.Purchase[](purchases.length) */\n      swap1\n      pop\n        /* \"contracts/VendingMachine.sol\":5012:5022  uint count */\n      0x00\n        /* \"contracts/VendingMachine.sol\":5041:5047  uint i */\n      dup1\n        /* \"contracts/VendingMachine.sol\":5036:5231  for (uint i = 0; i < purchases.length; i++) {... */\n    tag_187:\n        /* \"contracts/VendingMachine.sol\":5057:5066  purchases */\n      0x03\n        /* \"contracts/VendingMachine.sol\":5057:5073  purchases.length */\n      dup1\n      sload\n      swap1\n      pop\n        /* \"contracts/VendingMachine.sol\":5053:5054  i */\n      dup2\n        /* \"contracts/VendingMachine.sol\":5053:5073  i < purchases.length */\n      lt\n        /* \"contracts/VendingMachine.sol\":5036:5231  for (uint i = 0; i < purchases.length; i++) {... */\n      iszero\n      tag_188\n      jumpi\n        /* \"contracts/VendingMachine.sol\":5120:5126  _buyer */\n      dup5\n        /* \"contracts/VendingMachine.sol\":5098:5126  purchases[i].buyer == _buyer */\n      0xffffffffffffffffffffffffffffffffffffffff\n      and\n        /* \"contracts/VendingMachine.sol\":5098:5107  purchases */\n      0x03\n        /* \"contracts/VendingMachine.sol\":5108:5109  i */\n      dup3\n        /* \"contracts/VendingMachine.sol\":5098:5110  purchases[i] */\n      dup2\n      sload\n      dup2\n      lt\n      tag_190\n      jumpi\n      tag_191\n      tag_102\n      jump\t// in\n    tag_191:\n    tag_190:\n      swap1\n      0x00\n      mstore\n      keccak256(0x00, 0x20)\n      swap1\n      0x04\n      mul\n      add\n        /* \"contracts/VendingMachine.sol\":5098:5116  purchases[i].buyer */\n      0x00\n      add\n      0x00\n      swap1\n      sload\n      swap1\n      0x0100\n      exp\n      swap1\n      div\n      0xffffffffffffffffffffffffffffffffffffffff\n      and\n        /* \"contracts/VendingMachine.sol\":5098:5126  purchases[i].buyer == _buyer */\n      0xffffffffffffffffffffffffffffffffffffffff\n      and\n      sub\n        /* \"contracts/VendingMachine.sol\":5094:5221  if (purchases[i].buyer == _buyer) {... */\n      tag_193\n      jumpi\n        /* \"contracts/VendingMachine.sol\":5169:5178  purchases */\n      0x03\n        /* \"contracts/VendingMachine.sol\":5179:5180  i */\n      dup2\n        /* \"contracts/VendingMachine.sol\":5169:5181  purchases[i] */\n      dup2\n      sload\n      dup2\n      lt\n      tag_194\n      jumpi\n      tag_195\n      tag_102\n      jump\t// in\n    tag_195:\n    tag_194:\n      swap1\n      0x00\n      mstore\n      keccak256(0x00, 0x20)\n      swap1\n      0x04\n      mul\n      add\n        /* \"contracts/VendingMachine.sol\":5146:5181  userPurchases[count] = purchases[i] */\n      mload(0x40)\n      dup1\n      0x80\n      add\n      0x40\n      mstore\n      swap1\n      dup2\n      0x00\n      dup3\n      add\n      0x00\n      swap1\n      sload\n      swap1\n      0x0100\n      exp\n      swap1\n      div\n      0xffffffffffffffffffffffffffffffffffffffff\n      and\n      0xffffffffffffffffffffffffffffffffffffffff\n      and\n      0xffffffffffffffffffffffffffffffffffffffff\n      and\n      dup2\n      mstore\n      0x20\n      add\n      0x01\n      dup3\n      add\n      dup1\n      sload\n      tag_197\n      swap1\n      tag_66\n      jump\t// in\n    tag_197:\n      dup1\n      0x1f\n      add\n      0x20\n      dup1\n      swap2\n      div\n      mul\n      0x20\n      add\n      mload(0x40)\n      swap1\n      dup2\n      add\n      0x40\n      mstore\n      dup1\n      swap3\n      swap2\n      swap1\n      dup2\n      dup2\n      mstore\n      0x20\n      add\n      dup3\n      dup1\n      sload\n      tag_198\n      swap1\n      tag_66\n      jump\t// in\n    tag_198:\n      dup1\n      iszero\n      tag_199\n      jumpi\n      dup1\n      0x1f\n      lt\n      tag_200\n      jumpi\n      0x0100\n      dup1\n      dup4\n      sload\n      div\n      mul\n      dup4\n      mstore\n      swap2\n      0x20\n      add\n      swap2\n      jump(tag_199)\n    tag_200:\n      dup3\n      add\n      swap2\n      swap1\n      0x00\n      mstore\n      keccak256(0x00, 0x20)\n      swap1\n    tag_201:\n      dup2\n      sload\n      dup2\n      mstore\n      swap1\n      0x01\n      add\n      swap1\n      0x20\n      add\n      dup1\n      dup4\n      gt\n      tag_201\n      jumpi\n      dup3\n      swap1\n      sub\n      0x1f\n      and\n      dup3\n      add\n      swap2\n    tag_199:\n      pop\n      pop\n      pop\n      pop\n      pop\n      dup2\n      mstore\n      0x20\n      add\n      0x02\n      dup3\n      add\n      sload\n      dup2\n      mstore\n      0x20\n      add\n      0x03\n      dup3\n      add\n      0x00\n      swap1\n      sload\n      swap1\n      0x0100\n      exp\n      swap1\n      div\n      0xff\n      and\n      0x01\n      dup2\n      gt\n      iszero\n      tag_202\n      jumpi\n      tag_203\n      tag_107\n      jump\t// in\n    tag_203:\n    tag_202:\n      0x01\n      dup2\n      gt\n      iszero\n      tag_204\n      jumpi\n      tag_205\n      tag_107\n      jump\t// in\n    tag_205:\n    tag_204:\n      dup2\n      mstore\n      pop\n      pop\n        /* \"contracts/VendingMachine.sol\":5146:5159  userPurchases */\n      dup4\n        /* \"contracts/VendingMachine.sol\":5160:5165  count */\n      dup4\n        /* \"contracts/VendingMachine.sol\":5146:5166  userPurchases[count] */\n      dup2\n      mload\n      dup2\n      lt\n      tag_206\n      jumpi\n      tag_207\n      tag_102\n      jump\t// in\n    tag_207:\n    tag_206:\n      0x20\n      mul\n      0x20\n      add\n      add\n        /* \"contracts/VendingMachine.sol\":5146:5181  userPurchases[count] = purchases[i] */\n      dup2\n      swap1\n      mstore\n      pop\n        /* \"contracts/VendingMachine.sol\":5199:5206  count++ */\n      dup2\n      dup1\n      tag_208\n      swap1\n      tag_129\n      jump\t// in\n    tag_208:\n      swap3\n      pop\n      pop\n        /* \"contracts/VendingMachine.sol\":5094:5221  if (purchases[i].buyer == _buyer) {... */\n    tag_193:\n        /* \"contracts/VendingMachine.sol\":5075:5078  i++ */\n      dup1\n      dup1\n      0x01\n      add\n      swap2\n      pop\n      pop\n        /* \"contracts/VendingMachine.sol\":5036:5231  for (uint i = 0; i < purchases.length; i++) {... */\n      jump(tag_187)\n    tag_188:\n      pop\n        /* \"contracts/VendingMachine.sol\":5240:5279  ProductLibrary.Purchase[] memory result */\n      0x00\n        /* \"contracts/VendingMachine.sol\":5312:5317  count */\n      dup2\n        /* \"contracts/VendingMachine.sol\":5282:5318  new ProductLibrary.Purchase[](count) */\n      0xffffffffffffffff\n      dup2\n      gt\n      iszero\n      tag_209\n      jumpi\n      tag_210\n      tag_92\n      jump\t// in\n    tag_210:\n    tag_209:\n      mload(0x40)\n      swap1\n      dup1\n      dup3\n      mstore\n      dup1\n      0x20\n      mul\n      0x20\n      add\n      dup3\n      add\n      0x40\n      mstore\n      dup1\n      iszero\n      tag_211\n      jumpi\n      dup2\n      0x20\n      add\n    tag_212:\n      tag_213\n      tag_96\n      jump\t// in\n    tag_213:\n      dup2\n      mstore\n      0x20\n      add\n      swap1\n      0x01\n      swap1\n      sub\n      swap1\n      dup2\n      tag_212\n      jumpi\n      swap1\n      pop\n    tag_211:\n      pop\n        /* \"contracts/VendingMachine.sol\":5240:5318  ProductLibrary.Purchase[] memory result = new ProductLibrary.Purchase[](count) */\n      swap1\n      pop\n        /* \"contracts/VendingMachine.sol\":5332:5338  uint i */\n      0x00\n        /* \"contracts/VendingMachine.sol\":5328:5412  for(uint i = 0; i < count; i++){... */\n    tag_214:\n        /* \"contracts/VendingMachine.sol\":5348:5353  count */\n      dup3\n        /* \"contracts/VendingMachine.sol\":5344:5345  i */\n      dup2\n        /* \"contracts/VendingMachine.sol\":5344:5353  i < count */\n      lt\n        /* \"contracts/VendingMachine.sol\":5328:5412  for(uint i = 0; i < count; i++){... */\n      iszero\n      tag_215\n      jumpi\n        /* \"contracts/VendingMachine.sol\":5385:5398  userPurchases */\n      dup4\n        /* \"contracts/VendingMachine.sol\":5399:5400  i */\n      dup2\n        /* \"contracts/VendingMachine.sol\":5385:5401  userPurchases[i] */\n      dup2\n      mload\n      dup2\n      lt\n      tag_217\n      jumpi\n      tag_218\n      tag_102\n      jump\t// in\n    tag_218:\n    tag_217:\n      0x20\n      mul\n      0x20\n      add\n      add\n      mload\n        /* \"contracts/VendingMachine.sol\":5373:5379  result */\n      dup3\n        /* \"contracts/VendingMachine.sol\":5380:5381  i */\n      dup3\n        /* \"contracts/VendingMachine.sol\":5373:5382  result[i] */\n      dup2\n      mload\n      dup2\n      lt\n      tag_219\n      jumpi\n      tag_220\n      tag_102\n      jump\t// in\n    tag_220:\n    tag_219:\n      0x20\n      mul\n      0x20\n      add\n      add\n        /* \"contracts/VendingMachine.sol\":5373:5401  result[i] = userPurchases[i] */\n      dup2\n      swap1\n      mstore\n      pop\n        /* \"contracts/VendingMachine.sol\":5355:5358  i++ */\n      dup1\n      dup1\n      0x01\n      add\n      swap2\n      pop\n      pop\n        /* \"contracts/VendingMachine.sol\":5328:5412  for(uint i = 0; i < count; i++){... */\n      jump(tag_214)\n    tag_215:\n      pop\n        /* \"contracts/VendingMachine.sol\":5428:5434  result */\n      dup1\n        /* \"contracts/VendingMachine.sol\":5421:5434  return result */\n      swap4\n      pop\n      pop\n      pop\n      pop\n        /* \"contracts/VendingMachine.sol\":4793:5441  function getPurchases(address _buyer) public view onlyOwner returns (ProductLibrary.Purchase[] memory) {... */\n      swap2\n      swap1\n      pop\n      jump\t// out\n        /* \"contracts/VendingMachine.sol\":6639:7374  function getConsumedPurchases(address _buyer) public view onlyOwner returns (ProductLibrary.Purchase[] memory) {... */\n    tag_46:\n        /* \"contracts/VendingMachine.sol\":6716:6748  ProductLibrary.Purchase[] memory */\n      0x60\n        /* \"contracts/VendingMachine.sol\":573:578  owner */\n      0x00\n      dup1\n      sload\n      swap1\n      0x0100\n      exp\n      swap1\n      div\n      0xffffffffffffffffffffffffffffffffffffffff\n      and\n        /* \"contracts/VendingMachine.sol\":559:578  msg.sender == owner */\n      0xffffffffffffffffffffffffffffffffffffffff\n      and\n        /* \"contracts/VendingMachine.sol\":559:569  msg.sender */\n      caller\n        /* \"contracts/VendingMachine.sol\":559:578  msg.sender == owner */\n      0xffffffffffffffffffffffffffffffffffffffff\n      and\n      eq\n        /* \"contracts/VendingMachine.sol\":551:616  require(msg.sender == owner, \"Only owner can call this function\") */\n      tag_222\n      jumpi\n      mload(0x40)\n      0x08c379a000000000000000000000000000000000000000000000000000000000\n      dup2\n      mstore\n      0x04\n      add\n      tag_223\n      swap1\n      tag_84\n      jump\t// in\n    tag_223:\n      mload(0x40)\n      dup1\n      swap2\n      sub\n      swap1\n      revert\n    tag_222:\n        /* \"contracts/VendingMachine.sol\":6760:6810  ProductLibrary.Purchase[] memory consumedPurchases */\n      0x00\n        /* \"contracts/VendingMachine.sol\":6843:6852  purchases */\n      0x03\n        /* \"contracts/VendingMachine.sol\":6843:6859  purchases.length */\n      dup1\n      sload\n      swap1\n      pop\n        /* \"contracts/VendingMachine.sol\":6813:6860  new ProductLibrary.Purchase[](purchases.length) */\n      0xffffffffffffffff\n      dup2\n      gt\n      iszero\n      tag_225\n      jumpi\n      tag_226\n      tag_92\n      jump\t// in\n    tag_226:\n    tag_225:\n      mload(0x40)\n      swap1\n      dup1\n      dup3\n      mstore\n      dup1\n      0x20\n      mul\n      0x20\n      add\n      dup3\n      add\n      0x40\n      mstore\n      dup1\n      iszero\n      tag_227\n      jumpi\n      dup2\n      0x20\n      add\n    tag_228:\n      tag_229\n      tag_96\n      jump\t// in\n    tag_229:\n      dup2\n      mstore\n      0x20\n      add\n      swap1\n      0x01\n      swap1\n      sub\n      swap1\n      dup2\n      tag_228\n      jumpi\n      swap1\n      pop\n    tag_227:\n      pop\n        /* \"contracts/VendingMachine.sol\":6760:6860  ProductLibrary.Purchase[] memory consumedPurchases = new ProductLibrary.Purchase[](purchases.length) */\n      swap1\n      pop\n        /* \"contracts/VendingMachine.sol\":6870:6880  uint count */\n      0x00\n        /* \"contracts/VendingMachine.sol\":6899:6905  uint i */\n      dup1\n        /* \"contracts/VendingMachine.sol\":6894:7158  for (uint i = 0; i < purchases.length; i++) {... */\n    tag_230:\n        /* \"contracts/VendingMachine.sol\":6915:6924  purchases */\n      0x03\n        /* \"contracts/VendingMachine.sol\":6915:6931  purchases.length */\n      dup1\n      sload\n      swap1\n      pop\n        /* \"contracts/VendingMachine.sol\":6911:6912  i */\n      dup2\n        /* \"contracts/VendingMachine.sol\":6911:6931  i < purchases.length */\n      lt\n        /* \"contracts/VendingMachine.sol\":6894:7158  for (uint i = 0; i < purchases.length; i++) {... */\n      iszero\n      tag_231\n      jumpi\n        /* \"contracts/VendingMachine.sol\":6978:6984  _buyer */\n      dup5\n        /* \"contracts/VendingMachine.sol\":6956:6984  purchases[i].buyer == _buyer */\n      0xffffffffffffffffffffffffffffffffffffffff\n      and\n        /* \"contracts/VendingMachine.sol\":6956:6965  purchases */\n      0x03\n        /* \"contracts/VendingMachine.sol\":6966:6967  i */\n      dup3\n        /* \"contracts/VendingMachine.sol\":6956:6968  purchases[i] */\n      dup2\n      sload\n      dup2\n      lt\n      tag_233\n      jumpi\n      tag_234\n      tag_102\n      jump\t// in\n    tag_234:\n    tag_233:\n      swap1\n      0x00\n      mstore\n      keccak256(0x00, 0x20)\n      swap1\n      0x04\n      mul\n      add\n        /* \"contracts/VendingMachine.sol\":6956:6974  purchases[i].buyer */\n      0x00\n      add\n      0x00\n      swap1\n      sload\n      swap1\n      0x0100\n      exp\n      swap1\n      div\n      0xffffffffffffffffffffffffffffffffffffffff\n      and\n        /* \"contracts/VendingMachine.sol\":6956:6984  purchases[i].buyer == _buyer */\n      0xffffffffffffffffffffffffffffffffffffffff\n      and\n      eq\n        /* \"contracts/VendingMachine.sol\":6956:7049  purchases[i].buyer == _buyer && purchases[i].status == ProductLibrary.PurchaseStatus.Consumed */\n      dup1\n      iszero\n      tag_236\n      jumpi\n      pop\n        /* \"contracts/VendingMachine.sol\":7011:7049  ProductLibrary.PurchaseStatus.Consumed */\n      0x01\n        /* \"contracts/VendingMachine.sol\":6988:7049  purchases[i].status == ProductLibrary.PurchaseStatus.Consumed */\n      dup1\n      dup2\n      gt\n      iszero\n      tag_237\n      jumpi\n      tag_238\n      tag_107\n      jump\t// in\n    tag_238:\n    tag_237:\n        /* \"contracts/VendingMachine.sol\":6988:6997  purchases */\n      0x03\n        /* \"contracts/VendingMachine.sol\":6998:6999  i */\n      dup3\n        /* \"contracts/VendingMachine.sol\":6988:7000  purchases[i] */\n      dup2\n      sload\n      dup2\n      lt\n      tag_239\n      jumpi\n      tag_240\n      tag_102\n      jump\t// in\n    tag_240:\n    tag_239:\n      swap1\n      0x00\n      mstore\n      keccak256(0x00, 0x20)\n      swap1\n      0x04\n      mul\n      add\n        /* \"contracts/VendingMachine.sol\":6988:7007  purchases[i].status */\n      0x03\n      add\n      0x00\n      swap1\n      sload\n      swap1\n      0x0100\n      exp\n      swap1\n      div\n      0xff\n      and\n        /* \"contracts/VendingMachine.sol\":6988:7049  purchases[i].status == ProductLibrary.PurchaseStatus.Consumed */\n      0x01\n      dup2\n      gt\n      iszero\n      tag_242\n      jumpi\n      tag_243\n      tag_107\n      jump\t// in\n    tag_243:\n    tag_242:\n      eq\n        /* \"contracts/VendingMachine.sol\":6956:7049  purchases[i].buyer == _buyer && purchases[i].status == ProductLibrary.PurchaseStatus.Consumed */\n    tag_236:\n        /* \"contracts/VendingMachine.sol\":6952:7148  if (purchases[i].buyer == _buyer && purchases[i].status == ProductLibrary.PurchaseStatus.Consumed) {... */\n      iszero\n      tag_244\n      jumpi\n        /* \"contracts/VendingMachine.sol\":7096:7105  purchases */\n      0x03\n        /* \"contracts/VendingMachine.sol\":7106:7107  i */\n      dup2\n        /* \"contracts/VendingMachine.sol\":7096:7108  purchases[i] */\n      dup2\n      sload\n      dup2\n      lt\n      tag_245\n      jumpi\n      tag_246\n      tag_102\n      jump\t// in\n    tag_246:\n    tag_245:\n      swap1\n      0x00\n      mstore\n      keccak256(0x00, 0x20)\n      swap1\n      0x04\n      mul\n      add\n        /* \"contracts/VendingMachine.sol\":7069:7108  consumedPurchases[count] = purchases[i] */\n      mload(0x40)\n      dup1\n      0x80\n      add\n      0x40\n      mstore\n      swap1\n      dup2\n      0x00\n      dup3\n      add\n      0x00\n      swap1\n      sload\n      swap1\n      0x0100\n      exp\n      swap1\n      div\n      0xffffffffffffffffffffffffffffffffffffffff\n      and\n      0xffffffffffffffffffffffffffffffffffffffff\n      and\n      0xffffffffffffffffffffffffffffffffffffffff\n      and\n      dup2\n      mstore\n      0x20\n      add\n      0x01\n      dup3\n      add\n      dup1\n      sload\n      tag_248\n      swap1\n      tag_66\n      jump\t// in\n    tag_248:\n      dup1\n      0x1f\n      add\n      0x20\n      dup1\n      swap2\n      div\n      mul\n      0x20\n      add\n      mload(0x40)\n      swap1\n      dup2\n      add\n      0x40\n      mstore\n      dup1\n      swap3\n      swap2\n      swap1\n      dup2\n      dup2\n      mstore\n      0x20\n      add\n      dup3\n      dup1\n      sload\n      tag_249\n      swap1\n      tag_66\n      jump\t// in\n    tag_249:\n      dup1\n      iszero\n      tag_250\n      jumpi\n      dup1\n      0x1f\n      lt\n      tag_251\n      jumpi\n      0x0100\n      dup1\n      dup4\n      sload\n      div\n      mul\n      dup4\n      mstore\n      swap2\n      0x20\n      add\n      swap2\n      jump(tag_250)\n    tag_251:\n      dup3\n      add\n      swap2\n      swap1\n      0x00\n      mstore\n      keccak256(0x00, 0x20)\n      swap1\n    tag_252:\n      dup2\n      sload\n      dup2\n      mstore\n      swap1\n      0x01\n      add\n      swap1\n      0x20\n      add\n      dup1\n      dup4\n      gt\n      tag_252\n      jumpi\n      dup3\n      swap1\n      sub\n      0x1f\n      and\n      dup3\n      add\n      swap2\n    tag_250:\n      pop\n      pop\n      pop\n      pop\n      pop\n      dup2\n      mstore\n      0x20\n      add\n      0x02\n      dup3\n      add\n      sload\n      dup2\n      mstore\n      0x20\n      add\n      0x03\n      dup3\n      add\n      0x00\n      swap1\n      sload\n      swap1\n      0x0100\n      exp\n      swap1\n      div\n      0xff\n      and\n      0x01\n      dup2\n      gt\n      iszero\n      tag_253\n      jumpi\n      tag_254\n      tag_107\n      jump\t// in\n    tag_254:\n    tag_253:\n      0x01\n      dup2\n      gt\n      iszero\n      tag_255\n      jumpi\n      tag_256\n      tag_107\n      jump\t// in\n    tag_256:\n    tag_255:\n      dup2\n      mstore\n      pop\n      pop\n        /* \"contracts/VendingMachine.sol\":7069:7086  consumedPurchases */\n      dup4\n        /* \"contracts/VendingMachine.sol\":7087:7092  count */\n      dup4\n        /* \"contracts/VendingMachine.sol\":7069:7093  consumedPurchases[count] */\n      dup2\n      mload\n      dup2\n      lt\n      tag_257\n      jumpi\n      tag_258\n      tag_102\n      jump\t// in\n    tag_258:\n    tag_257:\n      0x20\n      mul\n      0x20\n      add\n      add\n        /* \"contracts/VendingMachine.sol\":7069:7108  consumedPurchases[count] = purchases[i] */\n      dup2\n      swap1\n      mstore\n      pop\n        /* \"contracts/VendingMachine.sol\":7126:7133  count++ */\n      dup2\n      dup1\n      tag_259\n      swap1\n      tag_129\n      jump\t// in\n    tag_259:\n      swap3\n      pop\n      pop\n        /* \"contracts/VendingMachine.sol\":6952:7148  if (purchases[i].buyer == _buyer && purchases[i].status == ProductLibrary.PurchaseStatus.Consumed) {... */\n    tag_244:\n        /* \"contracts/VendingMachine.sol\":6933:6936  i++ */\n      dup1\n      dup1\n      0x01\n      add\n      swap2\n      pop\n      pop\n        /* \"contracts/VendingMachine.sol\":6894:7158  for (uint i = 0; i < purchases.length; i++) {... */\n      jump(tag_230)\n    tag_231:\n      pop\n        /* \"contracts/VendingMachine.sol\":7167:7206  ProductLibrary.Purchase[] memory result */\n      0x00\n        /* \"contracts/VendingMachine.sol\":7239:7244  count */\n      dup2\n        /* \"contracts/VendingMachine.sol\":7209:7245  new ProductLibrary.Purchase[](count) */\n      0xffffffffffffffff\n      dup2\n      gt\n      iszero\n      tag_260\n      jumpi\n      tag_261\n      tag_92\n      jump\t// in\n    tag_261:\n    tag_260:\n      mload(0x40)\n      swap1\n      dup1\n      dup3\n      mstore\n      dup1\n      0x20\n      mul\n      0x20\n      add\n      dup3\n      add\n      0x40\n      mstore\n      dup1\n      iszero\n      tag_262\n      jumpi\n      dup2\n      0x20\n      add\n    tag_263:\n      tag_264\n      tag_96\n      jump\t// in\n    tag_264:\n      dup2\n      mstore\n      0x20\n      add\n      swap1\n      0x01\n      swap1\n      sub\n      swap1\n      dup2\n      tag_263\n      jumpi\n      swap1\n      pop\n    tag_262:\n      pop\n        /* \"contracts/VendingMachine.sol\":7167:7245  ProductLibrary.Purchase[] memory result = new ProductLibrary.Purchase[](count) */\n      swap1\n      pop\n        /* \"contracts/VendingMachine.sol\":7260:7266  uint i */\n      0x00\n        /* \"contracts/VendingMachine.sol\":7255:7345  for (uint i = 0; i < count; i++) {... */\n    tag_265:\n        /* \"contracts/VendingMachine.sol\":7276:7281  count */\n      dup3\n        /* \"contracts/VendingMachine.sol\":7272:7273  i */\n      dup2\n        /* \"contracts/VendingMachine.sol\":7272:7281  i < count */\n      lt\n        /* \"contracts/VendingMachine.sol\":7255:7345  for (uint i = 0; i < count; i++) {... */\n      iszero\n      tag_266\n      jumpi\n        /* \"contracts/VendingMachine.sol\":7314:7331  consumedPurchases */\n      dup4\n        /* \"contracts/VendingMachine.sol\":7332:7333  i */\n      dup2\n        /* \"contracts/VendingMachine.sol\":7314:7334  consumedPurchases[i] */\n      dup2\n      mload\n      dup2\n      lt\n      tag_268\n      jumpi\n      tag_269\n      tag_102\n      jump\t// in\n    tag_269:\n    tag_268:\n      0x20\n      mul\n      0x20\n      add\n      add\n      mload\n        /* \"contracts/VendingMachine.sol\":7302:7308  result */\n      dup3\n        /* \"contracts/VendingMachine.sol\":7309:7310  i */\n      dup3\n        /* \"contracts/VendingMachine.sol\":7302:7311  result[i] */\n      dup2\n      mload\n      dup2\n      lt\n      tag_270\n      jumpi\n      tag_271\n      tag_102\n      jump\t// in\n    tag_271:\n    tag_270:\n      0x20\n      mul\n      0x20\n      add\n      add\n        /* \"contracts/VendingMachine.sol\":7302:7334  result[i] = consumedPurchases[i] */\n      dup2\n      swap1\n      mstore\n      pop\n        /* \"contracts/VendingMachine.sol\":7283:7286  i++ */\n      dup1\n      dup1\n      0x01\n      add\n      swap2\n      pop\n      pop\n        /* \"contracts/VendingMachine.sol\":7255:7345  for (uint i = 0; i < count; i++) {... */\n      jump(tag_265)\n    tag_266:\n      pop\n        /* \"contracts/VendingMachine.sol\":7361:7367  result */\n      dup1\n        /* \"contracts/VendingMachine.sol\":7354:7367  return result */\n      swap4\n      pop\n      pop\n      pop\n      pop\n        /* \"contracts/VendingMachine.sol\":6639:7374  function getConsumedPurchases(address _buyer) public view onlyOwner returns (ProductLibrary.Purchase[] memory) {... */\n      swap2\n      swap1\n      pop\n      jump\t// out\n        /* \"contracts/VendingMachine.sol\":4120:4274  function addFunds() public onlyOwner payable {... */\n    tag_49:\n        /* \"contracts/VendingMachine.sol\":573:578  owner */\n      0x00\n      dup1\n      sload\n      swap1\n      0x0100\n      exp\n      swap1\n      div\n      0xffffffffffffffffffffffffffffffffffffffff\n      and\n        /* \"contracts/VendingMachine.sol\":559:578  msg.sender == owner */\n      0xffffffffffffffffffffffffffffffffffffffff\n      and\n        /* \"contracts/VendingMachine.sol\":559:569  msg.sender */\n      caller\n        /* \"contracts/VendingMachine.sol\":559:578  msg.sender == owner */\n      0xffffffffffffffffffffffffffffffffffffffff\n      and\n      eq\n        /* \"contracts/VendingMachine.sol\":551:616  require(msg.sender == owner, \"Only owner can call this function\") */\n      tag_273\n      jumpi\n      mload(0x40)\n      0x08c379a000000000000000000000000000000000000000000000000000000000\n      dup2\n      mstore\n      0x04\n      add\n      tag_274\n      swap1\n      tag_84\n      jump\t// in\n    tag_274:\n      mload(0x40)\n      dup1\n      swap2\n      sub\n      swap1\n      revert\n    tag_273:\n        /* \"contracts/VendingMachine.sol\":4195:4196  0 */\n      0x00\n        /* \"contracts/VendingMachine.sol\":4183:4192  msg.value */\n      callvalue\n        /* \"contracts/VendingMachine.sol\":4183:4196  msg.value > 0 */\n      gt\n        /* \"contracts/VendingMachine.sol\":4175:4224  require(msg.value > 0, \"Missing required amount\") */\n      tag_276\n      jumpi\n      mload(0x40)\n      0x08c379a000000000000000000000000000000000000000000000000000000000\n      dup2\n      mstore\n      0x04\n      add\n      tag_277\n      swap1\n      tag_278\n      jump\t// in\n    tag_277:\n      mload(0x40)\n      dup1\n      swap2\n      sub\n      swap1\n      revert\n    tag_276:\n        /* \"contracts/VendingMachine.sol\":4258:4267  msg.value */\n      callvalue\n        /* \"contracts/VendingMachine.sol\":4234:4242  balances */\n      0x02\n        /* \"contracts/VendingMachine.sol\":4234:4254  balances[msg.sender] */\n      0x00\n        /* \"contracts/VendingMachine.sol\":4243:4253  msg.sender */\n      caller\n        /* \"contracts/VendingMachine.sol\":4234:4254  balances[msg.sender] */\n      0xffffffffffffffffffffffffffffffffffffffff\n      and\n      0xffffffffffffffffffffffffffffffffffffffff\n      and\n      dup2\n      mstore\n      0x20\n      add\n      swap1\n      dup2\n      mstore\n      0x20\n      add\n      0x00\n      keccak256\n      0x00\n        /* \"contracts/VendingMachine.sol\":4234:4267  balances[msg.sender] += msg.value */\n      dup3\n      dup3\n      sload\n      tag_279\n      swap2\n      swap1\n      tag_280\n      jump\t// in\n    tag_279:\n      swap3\n      pop\n      pop\n      dup2\n      swap1\n      sstore\n      pop\n        /* \"contracts/VendingMachine.sol\":4120:4274  function addFunds() public onlyOwner payable {... */\n      jump\t// out\n        /* \"contracts/VendingMachine.sol\":5447:5887  function consumePurchase(uint _purchaseIndex) public onlyOwner {... */\n    tag_54:\n        /* \"contracts/VendingMachine.sol\":573:578  owner */\n      0x00\n      dup1\n      sload\n      swap1\n      0x0100\n      exp\n      swap1\n      div\n      0xffffffffffffffffffffffffffffffffffffffff\n      and\n        /* \"contracts/VendingMachine.sol\":559:578  msg.sender == owner */\n      0xffffffffffffffffffffffffffffffffffffffff\n      and\n        /* \"contracts/VendingMachine.sol\":559:569  msg.sender */\n      caller\n        /* \"contracts/VendingMachine.sol\":559:578  msg.sender == owner */\n      0xffffffffffffffffffffffffffffffffffffffff\n      and\n      eq\n        /* \"contracts/VendingMachine.sol\":551:616  require(msg.sender == owner, \"Only owner can call this function\") */\n      tag_282\n      jumpi\n      mload(0x40)\n      0x08c379a000000000000000000000000000000000000000000000000000000000\n      dup2\n      mstore\n      0x04\n      add\n      tag_283\n      swap1\n      tag_84\n      jump\t// in\n    tag_283:\n      mload(0x40)\n      dup1\n      swap2\n      sub\n      swap1\n      revert\n    tag_282:\n        /* \"contracts/VendingMachine.sol\":5545:5554  purchases */\n      0x03\n        /* \"contracts/VendingMachine.sol\":5545:5561  purchases.length */\n      dup1\n      sload\n      swap1\n      pop\n        /* \"contracts/VendingMachine.sol\":5528:5542  _purchaseIndex */\n      dup2\n        /* \"contracts/VendingMachine.sol\":5528:5561  _purchaseIndex < purchases.length */\n      lt\n        /* \"contracts/VendingMachine.sol\":5520:5588  require(_purchaseIndex < purchases.length, \"Invalid purchase index\") */\n      tag_285\n      jumpi\n      mload(0x40)\n      0x08c379a000000000000000000000000000000000000000000000000000000000\n      dup2\n      mstore\n      0x04\n      add\n      tag_286\n      swap1\n      tag_287\n      jump\t// in\n    tag_286:\n      mload(0x40)\n      dup1\n      swap2\n      sub\n      swap1\n      revert\n    tag_285:\n        /* \"contracts/VendingMachine.sol\":5641:5651  msg.sender */\n      caller\n        /* \"contracts/VendingMachine.sol\":5606:5651  purchases[_purchaseIndex].buyer == msg.sender */\n      0xffffffffffffffffffffffffffffffffffffffff\n      and\n        /* \"contracts/VendingMachine.sol\":5606:5615  purchases */\n      0x03\n        /* \"contracts/VendingMachine.sol\":5616:5630  _purchaseIndex */\n      dup3\n        /* \"contracts/VendingMachine.sol\":5606:5631  purchases[_purchaseIndex] */\n      dup2\n      sload\n      dup2\n      lt\n      tag_288\n      jumpi\n      tag_289\n      tag_102\n      jump\t// in\n    tag_289:\n    tag_288:\n      swap1\n      0x00\n      mstore\n      keccak256(0x00, 0x20)\n      swap1\n      0x04\n      mul\n      add\n        /* \"contracts/VendingMachine.sol\":5606:5637  purchases[_purchaseIndex].buyer */\n      0x00\n      add\n      0x00\n      swap1\n      sload\n      swap1\n      0x0100\n      exp\n      swap1\n      div\n      0xffffffffffffffffffffffffffffffffffffffff\n      and\n        /* \"contracts/VendingMachine.sol\":5606:5651  purchases[_purchaseIndex].buyer == msg.sender */\n      0xffffffffffffffffffffffffffffffffffffffff\n      and\n      eq\n        /* \"contracts/VendingMachine.sol\":5598:5673  require(purchases[_purchaseIndex].buyer == msg.sender, \"Not your purchase\") */\n      tag_291\n      jumpi\n      mload(0x40)\n      0x08c379a000000000000000000000000000000000000000000000000000000000\n      dup2\n      mstore\n      0x04\n      add\n      tag_292\n      swap1\n      tag_293\n      jump\t// in\n    tag_292:\n      mload(0x40)\n      dup1\n      swap2\n      sub\n      swap1\n      revert\n    tag_291:\n        /* \"contracts/VendingMachine.sol\":5727:5766  ProductLibrary.PurchaseStatus.Available */\n      0x00\n        /* \"contracts/VendingMachine.sol\":5691:5766  purchases[_purchaseIndex].status == ProductLibrary.PurchaseStatus.Available */\n      0x01\n      dup2\n      gt\n      iszero\n      tag_294\n      jumpi\n      tag_295\n      tag_107\n      jump\t// in\n    tag_295:\n    tag_294:\n        /* \"contracts/VendingMachine.sol\":5691:5700  purchases */\n      0x03\n        /* \"contracts/VendingMachine.sol\":5701:5715  _purchaseIndex */\n      dup3\n        /* \"contracts/VendingMachine.sol\":5691:5716  purchases[_purchaseIndex] */\n      dup2\n      sload\n      dup2\n      lt\n      tag_296\n      jumpi\n      tag_297\n      tag_102\n      jump\t// in\n    tag_297:\n    tag_296:\n      swap1\n      0x00\n      mstore\n      keccak256(0x00, 0x20)\n      swap1\n      0x04\n      mul\n      add\n        /* \"contracts/VendingMachine.sol\":5691:5723  purchases[_purchaseIndex].status */\n      0x03\n      add\n      0x00\n      swap1\n      sload\n      swap1\n      0x0100\n      exp\n      swap1\n      div\n      0xff\n      and\n        /* \"contracts/VendingMachine.sol\":5691:5766  purchases[_purchaseIndex].status == ProductLibrary.PurchaseStatus.Available */\n      0x01\n      dup2\n      gt\n      iszero\n      tag_299\n      jumpi\n      tag_300\n      tag_107\n      jump\t// in\n    tag_300:\n    tag_299:\n      eq\n        /* \"contracts/VendingMachine.sol\":5683:5796  require(purchases[_purchaseIndex].status == ProductLibrary.PurchaseStatus.Available, \"Purchase already consumed\") */\n      tag_301\n      jumpi\n      mload(0x40)\n      0x08c379a000000000000000000000000000000000000000000000000000000000\n      dup2\n      mstore\n      0x04\n      add\n      tag_302\n      swap1\n      tag_303\n      jump\t// in\n    tag_302:\n      mload(0x40)\n      dup1\n      swap2\n      sub\n      swap1\n      revert\n    tag_301:\n        /* \"contracts/VendingMachine.sol\":5842:5880  ProductLibrary.PurchaseStatus.Consumed */\n      0x01\n        /* \"contracts/VendingMachine.sol\":5807:5816  purchases */\n      0x03\n        /* \"contracts/VendingMachine.sol\":5817:5831  _purchaseIndex */\n      dup3\n        /* \"contracts/VendingMachine.sol\":5807:5832  purchases[_purchaseIndex] */\n      dup2\n      sload\n      dup2\n      lt\n      tag_304\n      jumpi\n      tag_305\n      tag_102\n      jump\t// in\n    tag_305:\n    tag_304:\n      swap1\n      0x00\n      mstore\n      keccak256(0x00, 0x20)\n      swap1\n      0x04\n      mul\n      add\n        /* \"contracts/VendingMachine.sol\":5807:5839  purchases[_purchaseIndex].status */\n      0x03\n      add\n      0x00\n        /* \"contracts/VendingMachine.sol\":5807:5880  purchases[_purchaseIndex].status = ProductLibrary.PurchaseStatus.Consumed */\n      0x0100\n      exp\n      dup2\n      sload\n      dup2\n      0xff\n      mul\n      not\n      and\n      swap1\n      dup4\n      0x01\n      dup2\n      gt\n      iszero\n      tag_307\n      jumpi\n      tag_308\n      tag_107\n      jump\t// in\n    tag_308:\n    tag_307:\n      mul\n      or\n      swap1\n      sstore\n      pop\n        /* \"contracts/VendingMachine.sol\":5447:5887  function consumePurchase(uint _purchaseIndex) public onlyOwner {... */\n      pop\n      jump\t// out\n        /* \"contracts/VendingMachine.sol\":3625:3996  function getProductByCode(string memory _productId) public view returns (ProductLibrary.Product memory) {... */\n    tag_58:\n        /* \"contracts/VendingMachine.sol\":3698:3727  ProductLibrary.Product memory */\n      tag_309\n      tag_310\n      jump\t// in\n    tag_309:\n        /* \"contracts/VendingMachine.sol\":3745:3751  uint i */\n      0x00\n        /* \"contracts/VendingMachine.sol\":3740:3953  for (uint i = 0; i < products.length; i++) {... */\n    tag_312:\n        /* \"contracts/VendingMachine.sol\":3761:3769  products */\n      0x01\n        /* \"contracts/VendingMachine.sol\":3761:3776  products.length */\n      dup1\n      sload\n      swap1\n      pop\n        /* \"contracts/VendingMachine.sol\":3757:3758  i */\n      dup2\n        /* \"contracts/VendingMachine.sol\":3757:3776  i < products.length */\n      lt\n        /* \"contracts/VendingMachine.sol\":3740:3953  for (uint i = 0; i < products.length; i++) {... */\n      iszero\n      tag_313\n      jumpi\n        /* \"contracts/VendingMachine.sol\":3877:3887  _productId */\n      dup3\n        /* \"contracts/VendingMachine.sol\":3860:3888  abi.encodePacked(_productId) */\n      add(0x20, mload(0x40))\n      tag_315\n      swap2\n      swap1\n      tag_316\n      jump\t// in\n    tag_315:\n      mload(0x40)\n      0x20\n      dup2\n      dup4\n      sub\n      sub\n      dup2\n      mstore\n      swap1\n      0x40\n      mstore\n        /* \"contracts/VendingMachine.sol\":3850:3889  keccak256(abi.encodePacked(_productId)) */\n      dup1\n      mload\n      swap1\n      0x20\n      add\n      keccak256\n        /* \"contracts/VendingMachine.sol\":3828:3836  products */\n      0x01\n        /* \"contracts/VendingMachine.sol\":3837:3838  i */\n      dup3\n        /* \"contracts/VendingMachine.sol\":3828:3839  products[i] */\n      dup2\n      sload\n      dup2\n      lt\n      tag_317\n      jumpi\n      tag_318\n      tag_102\n      jump\t// in\n    tag_318:\n    tag_317:\n      swap1\n      0x00\n      mstore\n      keccak256(0x00, 0x20)\n      swap1\n      0x04\n      mul\n      add\n        /* \"contracts/VendingMachine.sol\":3828:3844  products[i].code */\n      0x00\n      add\n        /* \"contracts/VendingMachine.sol\":3811:3845  abi.encodePacked(products[i].code) */\n      add(0x20, mload(0x40))\n      tag_320\n      swap2\n      swap1\n      tag_321\n      jump\t// in\n    tag_320:\n      mload(0x40)\n      0x20\n      dup2\n      dup4\n      sub\n      sub\n      dup2\n      mstore\n      swap1\n      0x40\n      mstore\n        /* \"contracts/VendingMachine.sol\":3801:3846  keccak256(abi.encodePacked(products[i].code)) */\n      dup1\n      mload\n      swap1\n      0x20\n      add\n      keccak256\n        /* \"contracts/VendingMachine.sol\":3801:3889  keccak256(abi.encodePacked(products[i].code)) == keccak256(abi.encodePacked(_productId)) */\n      sub\n        /* \"contracts/VendingMachine.sol\":3797:3943  if (keccak256(abi.encodePacked(products[i].code)) == keccak256(abi.encodePacked(_productId))) {... */\n      tag_322\n      jumpi\n        /* \"contracts/VendingMachine.sol\":3916:3924  products */\n      0x01\n        /* \"contracts/VendingMachine.sol\":3925:3926  i */\n      dup2\n        /* \"contracts/VendingMachine.sol\":3916:3927  products[i] */\n      dup2\n      sload\n      dup2\n      lt\n      tag_323\n      jumpi\n      tag_324\n      tag_102\n      jump\t// in\n    tag_324:\n    tag_323:\n      swap1\n      0x00\n      mstore\n      keccak256(0x00, 0x20)\n      swap1\n      0x04\n      mul\n      add\n        /* \"contracts/VendingMachine.sol\":3909:3927  return products[i] */\n      mload(0x40)\n      dup1\n      0x80\n      add\n      0x40\n      mstore\n      swap1\n      dup2\n      0x00\n      dup3\n      add\n      dup1\n      sload\n      tag_326\n      swap1\n      tag_66\n      jump\t// in\n    tag_326:\n      dup1\n      0x1f\n      add\n      0x20\n      dup1\n      swap2\n      div\n      mul\n      0x20\n      add\n      mload(0x40)\n      swap1\n      dup2\n      add\n      0x40\n      mstore\n      dup1\n      swap3\n      swap2\n      swap1\n      dup2\n      dup2\n      mstore\n      0x20\n      add\n      dup3\n      dup1\n      sload\n      tag_327\n      swap1\n      tag_66\n      jump\t// in\n    tag_327:\n      dup1\n      iszero\n      tag_328\n      jumpi\n      dup1\n      0x1f\n      lt\n      tag_329\n      jumpi\n      0x0100\n      dup1\n      dup4\n      sload\n      div\n      mul\n      dup4\n      mstore\n      swap2\n      0x20\n      add\n      swap2\n      jump(tag_328)\n    tag_329:\n      dup3\n      add\n      swap2\n      swap1\n      0x00\n      mstore\n      keccak256(0x00, 0x20)\n      swap1\n    tag_330:\n      dup2\n      sload\n      dup2\n      mstore\n      swap1\n      0x01\n      add\n      swap1\n      0x20\n      add\n      dup1\n      dup4\n      gt\n      tag_330\n      jumpi\n      dup3\n      swap1\n      sub\n      0x1f\n      and\n      dup3\n      add\n      swap2\n    tag_328:\n      pop\n      pop\n      pop\n      pop\n      pop\n      dup2\n      mstore\n      0x20\n      add\n      0x01\n      dup3\n      add\n      sload\n      dup2\n      mstore\n      0x20\n      add\n      0x02\n      dup3\n      add\n      dup1\n      sload\n      tag_331\n      swap1\n      tag_66\n      jump\t// in\n    tag_331:\n      dup1\n      0x1f\n      add\n      0x20\n      dup1\n      swap2\n      div\n      mul\n      0x20\n      add\n      mload(0x40)\n      swap1\n      dup2\n      add\n      0x40\n      mstore\n      dup1\n      swap3\n      swap2\n      swap1\n      dup2\n      dup2\n      mstore\n      0x20\n      add\n      dup3\n      dup1\n      sload\n      tag_332\n      swap1\n      tag_66\n      jump\t// in\n    tag_332:\n      dup1\n      iszero\n      tag_333\n      jumpi\n      dup1\n      0x1f\n      lt\n      tag_334\n      jumpi\n      0x0100\n      dup1\n      dup4\n      sload\n      div\n      mul\n      dup4\n      mstore\n      swap2\n      0x20\n      add\n      swap2\n      jump(tag_333)\n    tag_334:\n      dup3\n      add\n      swap2\n      swap1\n      0x00\n      mstore\n      keccak256(0x00, 0x20)\n      swap1\n    tag_335:\n      dup2\n      sload\n      dup2\n      mstore\n      swap1\n      0x01\n      add\n      swap1\n      0x20\n      add\n      dup1\n      dup4\n      gt\n      tag_335\n      jumpi\n      dup3\n      swap1\n      sub\n      0x1f\n      and\n      dup3\n      add\n      swap2\n    tag_333:\n      pop\n      pop\n      pop\n      pop\n      pop\n      dup2\n      mstore\n      0x20\n      add\n      0x03\n      dup3\n      add\n      dup1\n      sload\n      tag_336\n      swap1\n      tag_66\n      jump\t// in\n    tag_336:\n      dup1\n      0x1f\n      add\n      0x20\n      dup1\n      swap2\n      div\n      mul\n      0x20\n      add\n      mload(0x40)\n      swap1\n      dup2\n      add\n      0x40\n      mstore\n      dup1\n      swap3\n      swap2\n      swap1\n      dup2\n      dup2\n      mstore\n      0x20\n      add\n      dup3\n      dup1\n      sload\n      tag_337\n      swap1\n      tag_66\n      jump\t// in\n    tag_337:\n      dup1\n      iszero\n      tag_338\n      jumpi\n      dup1\n      0x1f\n      lt\n      tag_339\n      jumpi\n      0x0100\n      dup1\n      dup4\n      sload\n      div\n      mul\n      dup4\n      mstore\n      swap2\n      0x20\n      add\n      swap2\n      jump(tag_338)\n    tag_339:\n      dup3\n      add\n      swap2\n      swap1\n      0x00\n      mstore\n      keccak256(0x00, 0x20)\n      swap1\n    tag_340:\n      dup2\n      sload\n      dup2\n      mstore\n      swap1\n      0x01\n      add\n      swap1\n      0x20\n      add\n      dup1\n      dup4\n      gt\n      tag_340\n      jumpi\n      dup3\n      swap1\n      sub\n      0x1f\n      and\n      dup3\n      add\n      swap2\n    tag_338:\n      pop\n      pop\n      pop\n      pop\n      pop\n      dup2\n      mstore\n      pop\n      pop\n      swap2\n      pop\n      pop\n      jump(tag_311)\n        /* \"contracts/VendingMachine.sol\":3797:3943  if (keccak256(abi.encodePacked(products[i].code)) == keccak256(abi.encodePacked(_productId))) {... */\n    tag_322:\n        /* \"contracts/VendingMachine.sol\":3778:3781  i++ */\n      dup1\n      dup1\n      0x01\n      add\n      swap2\n      pop\n      pop\n        /* \"contracts/VendingMachine.sol\":3740:3953  for (uint i = 0; i < products.length; i++) {... */\n      jump(tag_312)\n    tag_313:\n      pop\n        /* \"contracts/VendingMachine.sol\":3962:3989  revert(\"Product not found\") */\n      mload(0x40)\n      0x08c379a000000000000000000000000000000000000000000000000000000000\n      dup2\n      mstore\n      0x04\n      add\n      tag_341\n      swap1\n      tag_342\n      jump\t// in\n    tag_341:\n      mload(0x40)\n      dup1\n      swap2\n      sub\n      swap1\n      revert\n        /* \"contracts/VendingMachine.sol\":3625:3996  function getProductByCode(string memory _productId) public view returns (ProductLibrary.Product memory) {... */\n    tag_311:\n      swap2\n      swap1\n      pop\n      jump\t// out\n    tag_96:\n      mload(0x40)\n      dup1\n      0x80\n      add\n      0x40\n      mstore\n      dup1\n      and(0xffffffffffffffffffffffffffffffffffffffff, 0x00)\n      dup2\n      mstore\n      0x20\n      add\n      0x60\n      dup2\n      mstore\n      0x20\n      add\n      0x00\n      dup2\n      mstore\n      0x20\n      add\n      0x00\n      0x01\n      dup2\n      gt\n      iszero\n      tag_343\n      jumpi\n      tag_344\n      tag_107\n      jump\t// in\n    tag_344:\n    tag_343:\n      dup2\n      mstore\n      pop\n      swap1\n      jump\t// out\n    tag_310:\n      mload(0x40)\n      dup1\n      0x80\n      add\n      0x40\n      mstore\n      dup1\n      0x60\n      dup2\n      mstore\n      0x20\n      add\n      0x00\n      dup2\n      mstore\n      0x20\n      add\n      0x60\n      dup2\n      mstore\n      0x20\n      add\n      0x60\n      dup2\n      mstore\n      pop\n      swap1\n      jump\t// out\n        /* \"#utility.yul\":7:144   */\n    tag_345:\n        /* \"#utility.yul\":97:103   */\n      0x00\n        /* \"#utility.yul\":131:136   */\n      dup2\n        /* \"#utility.yul\":125:137   */\n      mload\n        /* \"#utility.yul\":115:137   */\n      swap1\n      pop\n        /* \"#utility.yul\":7:144   */\n      swap2\n      swap1\n      pop\n      jump\t// out\n        /* \"#utility.yul\":150:357   */\n    tag_346:\n        /* \"#utility.yul\":272:283   */\n      0x00\n        /* \"#utility.yul\":306:312   */\n      dup3\n        /* \"#utility.yul\":301:304   */\n      dup3\n        /* \"#utility.yul\":294:313   */\n      mstore\n        /* \"#utility.yul\":346:350   */\n      0x20\n        /* \"#utility.yul\":341:344   */\n      dup3\n        /* \"#utility.yul\":337:351   */\n      add\n        /* \"#utility.yul\":322:351   */\n      swap1\n      pop\n        /* \"#utility.yul\":150:357   */\n      swap3\n      swap2\n      pop\n      pop\n      jump\t// out\n        /* \"#utility.yul\":363:518   */\n    tag_347:\n        /* \"#utility.yul\":453:457   */\n      0x00\n        /* \"#utility.yul\":476:479   */\n      dup2\n        /* \"#utility.yul\":468:479   */\n      swap1\n      pop\n        /* \"#utility.yul\":506:510   */\n      0x20\n        /* \"#utility.yul\":501:504   */\n      dup3\n        /* \"#utility.yul\":497:511   */\n      add\n        /* \"#utility.yul\":489:511   */\n      swap1\n      pop\n        /* \"#utility.yul\":363:518   */\n      swap2\n      swap1\n      pop\n      jump\t// out\n        /* \"#utility.yul\":524:623   */\n    tag_348:\n        /* \"#utility.yul\":576:582   */\n      0x00\n        /* \"#utility.yul\":610:615   */\n      dup2\n        /* \"#utility.yul\":604:616   */\n      mload\n        /* \"#utility.yul\":594:616   */\n      swap1\n      pop\n        /* \"#utility.yul\":524:623   */\n      swap2\n      swap1\n      pop\n      jump\t// out\n        /* \"#utility.yul\":629:788   */\n    tag_349:\n        /* \"#utility.yul\":703:714   */\n      0x00\n        /* \"#utility.yul\":737:743   */\n      dup3\n        /* \"#utility.yul\":732:735   */\n      dup3\n        /* \"#utility.yul\":725:744   */\n      mstore\n        /* \"#utility.yul\":777:781   */\n      0x20\n        /* \"#utility.yul\":772:775   */\n      dup3\n        /* \"#utility.yul\":768:782   */\n      add\n        /* \"#utility.yul\":753:782   */\n      swap1\n      pop\n        /* \"#utility.yul\":629:788   */\n      swap3\n      swap2\n      pop\n      pop\n      jump\t// out\n        /* \"#utility.yul\":794:933   */\n    tag_350:\n        /* \"#utility.yul\":883:889   */\n      dup3\n        /* \"#utility.yul\":878:881   */\n      dup2\n        /* \"#utility.yul\":873:876   */\n      dup4\n        /* \"#utility.yul\":867:890   */\n      mcopy\n        /* \"#utility.yul\":924:925   */\n      0x00\n        /* \"#utility.yul\":915:921   */\n      dup4\n        /* \"#utility.yul\":910:913   */\n      dup4\n        /* \"#utility.yul\":906:922   */\n      add\n        /* \"#utility.yul\":899:926   */\n      mstore\n        /* \"#utility.yul\":794:933   */\n      pop\n      pop\n      pop\n      jump\t// out\n        /* \"#utility.yul\":939:1041   */\n    tag_351:\n        /* \"#utility.yul\":980:986   */\n      0x00\n        /* \"#utility.yul\":1031:1033   */\n      0x1f\n        /* \"#utility.yul\":1027:1034   */\n      not\n        /* \"#utility.yul\":1022:1024   */\n      0x1f\n        /* \"#utility.yul\":1015:1020   */\n      dup4\n        /* \"#utility.yul\":1011:1025   */\n      add\n        /* \"#utility.yul\":1007:1035   */\n      and\n        /* \"#utility.yul\":997:1035   */\n      swap1\n      pop\n        /* \"#utility.yul\":939:1041   */\n      swap2\n      swap1\n      pop\n      jump\t// out\n        /* \"#utility.yul\":1047:1404   */\n    tag_352:\n        /* \"#utility.yul\":1125:1128   */\n      0x00\n        /* \"#utility.yul\":1153:1192   */\n      tag_443\n        /* \"#utility.yul\":1186:1191   */\n      dup3\n        /* \"#utility.yul\":1153:1192   */\n      tag_348\n      jump\t// in\n    tag_443:\n        /* \"#utility.yul\":1208:1269   */\n      tag_444\n        /* \"#utility.yul\":1262:1268   */\n      dup2\n        /* \"#utility.yul\":1257:1260   */\n      dup6\n        /* \"#utility.yul\":1208:1269   */\n      tag_349\n      jump\t// in\n    tag_444:\n        /* \"#utility.yul\":1201:1269   */\n      swap4\n      pop\n        /* \"#utility.yul\":1278:1343   */\n      tag_445\n        /* \"#utility.yul\":1336:1342   */\n      dup2\n        /* \"#utility.yul\":1331:1334   */\n      dup6\n        /* \"#utility.yul\":1324:1328   */\n      0x20\n        /* \"#utility.yul\":1317:1322   */\n      dup7\n        /* \"#utility.yul\":1313:1329   */\n      add\n        /* \"#utility.yul\":1278:1343   */\n      tag_350\n      jump\t// in\n    tag_445:\n        /* \"#utility.yul\":1368:1397   */\n      tag_446\n        /* \"#utility.yul\":1390:1396   */\n      dup2\n        /* \"#utility.yul\":1368:1397   */\n      tag_351\n      jump\t// in\n    tag_446:\n        /* \"#utility.yul\":1363:1366   */\n      dup5\n        /* \"#utility.yul\":1359:1398   */\n      add\n        /* \"#utility.yul\":1352:1398   */\n      swap2\n      pop\n        /* \"#utility.yul\":1129:1404   */\n      pop\n        /* \"#utility.yul\":1047:1404   */\n      swap3\n      swap2\n      pop\n      pop\n      jump\t// out\n        /* \"#utility.yul\":1410:1487   */\n    tag_353:\n        /* \"#utility.yul\":1447:1454   */\n      0x00\n        /* \"#utility.yul\":1476:1481   */\n      dup2\n        /* \"#utility.yul\":1465:1481   */\n      swap1\n      pop\n        /* \"#utility.yul\":1410:1487   */\n      swap2\n      swap1\n      pop\n      jump\t// out\n        /* \"#utility.yul\":1493:1601   */\n    tag_354:\n        /* \"#utility.yul\":1570:1594   */\n      tag_449\n        /* \"#utility.yul\":1588:1593   */\n      dup2\n        /* \"#utility.yul\":1570:1594   */\n      tag_353\n      jump\t// in\n    tag_449:\n        /* \"#utility.yul\":1565:1568   */\n      dup3\n        /* \"#utility.yul\":1558:1595   */\n      mstore\n        /* \"#utility.yul\":1493:1601   */\n      pop\n      pop\n      jump\t// out\n        /* \"#utility.yul\":1677:2764   */\n    tag_355:\n        /* \"#utility.yul\":1782:1785   */\n      0x00\n        /* \"#utility.yul\":1818:1822   */\n      0x80\n        /* \"#utility.yul\":1813:1816   */\n      dup4\n        /* \"#utility.yul\":1809:1823   */\n      add\n        /* \"#utility.yul\":1905:1909   */\n      0x00\n        /* \"#utility.yul\":1898:1903   */\n      dup4\n        /* \"#utility.yul\":1894:1910   */\n      add\n        /* \"#utility.yul\":1888:1911   */\n      mload\n        /* \"#utility.yul\":1958:1961   */\n      dup5\n        /* \"#utility.yul\":1952:1956   */\n      dup3\n        /* \"#utility.yul\":1948:1962   */\n      sub\n        /* \"#utility.yul\":1941:1945   */\n      0x00\n        /* \"#utility.yul\":1936:1939   */\n      dup7\n        /* \"#utility.yul\":1932:1946   */\n      add\n        /* \"#utility.yul\":1925:1963   */\n      mstore\n        /* \"#utility.yul\":1984:2057   */\n      tag_451\n        /* \"#utility.yul\":2052:2056   */\n      dup3\n        /* \"#utility.yul\":2038:2050   */\n      dup3\n        /* \"#utility.yul\":1984:2057   */\n      tag_352\n      jump\t// in\n    tag_451:\n        /* \"#utility.yul\":1976:2057   */\n      swap2\n      pop\n        /* \"#utility.yul\":1833:2068   */\n      pop\n        /* \"#utility.yul\":2151:2155   */\n      0x20\n        /* \"#utility.yul\":2144:2149   */\n      dup4\n        /* \"#utility.yul\":2140:2156   */\n      add\n        /* \"#utility.yul\":2134:2157   */\n      mload\n        /* \"#utility.yul\":2170:2233   */\n      tag_452\n        /* \"#utility.yul\":2227:2231   */\n      0x20\n        /* \"#utility.yul\":2222:2225   */\n      dup7\n        /* \"#utility.yul\":2218:2232   */\n      add\n        /* \"#utility.yul\":2204:2216   */\n      dup3\n        /* \"#utility.yul\":2170:2233   */\n      tag_354\n      jump\t// in\n    tag_452:\n        /* \"#utility.yul\":2078:2243   */\n      pop\n        /* \"#utility.yul\":2325:2329   */\n      0x40\n        /* \"#utility.yul\":2318:2323   */\n      dup4\n        /* \"#utility.yul\":2314:2330   */\n      add\n        /* \"#utility.yul\":2308:2331   */\n      mload\n        /* \"#utility.yul\":2378:2381   */\n      dup5\n        /* \"#utility.yul\":2372:2376   */\n      dup3\n        /* \"#utility.yul\":2368:2382   */\n      sub\n        /* \"#utility.yul\":2361:2365   */\n      0x40\n        /* \"#utility.yul\":2356:2359   */\n      dup7\n        /* \"#utility.yul\":2352:2366   */\n      add\n        /* \"#utility.yul\":2345:2383   */\n      mstore\n        /* \"#utility.yul\":2404:2477   */\n      tag_453\n        /* \"#utility.yul\":2472:2476   */\n      dup3\n        /* \"#utility.yul\":2458:2470   */\n      dup3\n        /* \"#utility.yul\":2404:2477   */\n      tag_352\n      jump\t// in\n    tag_453:\n        /* \"#utility.yul\":2396:2477   */\n      swap2\n      pop\n        /* \"#utility.yul\":2253:2488   */\n      pop\n        /* \"#utility.yul\":2574:2578   */\n      0x60\n        /* \"#utility.yul\":2567:2572   */\n      dup4\n        /* \"#utility.yul\":2563:2579   */\n      add\n        /* \"#utility.yul\":2557:2580   */\n      mload\n        /* \"#utility.yul\":2627:2630   */\n      dup5\n        /* \"#utility.yul\":2621:2625   */\n      dup3\n        /* \"#utility.yul\":2617:2631   */\n      sub\n        /* \"#utility.yul\":2610:2614   */\n      0x60\n        /* \"#utility.yul\":2605:2608   */\n      dup7\n        /* \"#utility.yul\":2601:2615   */\n      add\n        /* \"#utility.yul\":2594:2632   */\n      mstore\n        /* \"#utility.yul\":2653:2726   */\n      tag_454\n        /* \"#utility.yul\":2721:2725   */\n      dup3\n        /* \"#utility.yul\":2707:2719   */\n      dup3\n        /* \"#utility.yul\":2653:2726   */\n      tag_352\n      jump\t// in\n    tag_454:\n        /* \"#utility.yul\":2645:2726   */\n      swap2\n      pop\n        /* \"#utility.yul\":2498:2737   */\n      pop\n        /* \"#utility.yul\":2754:2758   */\n      dup1\n        /* \"#utility.yul\":2747:2758   */\n      swap2\n      pop\n        /* \"#utility.yul\":1787:2764   */\n      pop\n        /* \"#utility.yul\":1677:2764   */\n      swap3\n      swap2\n      pop\n      pop\n      jump\t// out\n        /* \"#utility.yul\":2770:3018   */\n    tag_356:\n        /* \"#utility.yul\":2885:2895   */\n      0x00\n        /* \"#utility.yul\":2920:3012   */\n      tag_456\n        /* \"#utility.yul\":3008:3011   */\n      dup4\n        /* \"#utility.yul\":3000:3006   */\n      dup4\n        /* \"#utility.yul\":2920:3012   */\n      tag_355\n      jump\t// in\n    tag_456:\n        /* \"#utility.yul\":2906:3012   */\n      swap1\n      pop\n        /* \"#utility.yul\":2770:3018   */\n      swap3\n      swap2\n      pop\n      pop\n      jump\t// out\n        /* \"#utility.yul\":3024:3160   */\n    tag_357:\n        /* \"#utility.yul\":3117:3121   */\n      0x00\n        /* \"#utility.yul\":3149:3153   */\n      0x20\n        /* \"#utility.yul\":3144:3147   */\n      dup3\n        /* \"#utility.yul\":3140:3154   */\n      add\n        /* \"#utility.yul\":3132:3154   */\n      swap1\n      pop\n        /* \"#utility.yul\":3024:3160   */\n      swap2\n      swap1\n      pop\n      jump\t// out\n        /* \"#utility.yul\":3240:4335   */\n    tag_358:\n        /* \"#utility.yul\":3405:3408   */\n      0x00\n        /* \"#utility.yul\":3434:3511   */\n      tag_459\n        /* \"#utility.yul\":3505:3510   */\n      dup3\n        /* \"#utility.yul\":3434:3511   */\n      tag_345\n      jump\t// in\n    tag_459:\n        /* \"#utility.yul\":3527:3636   */\n      tag_460\n        /* \"#utility.yul\":3629:3635   */\n      dup2\n        /* \"#utility.yul\":3624:3627   */\n      dup6\n        /* \"#utility.yul\":3527:3636   */\n      tag_346\n      jump\t// in\n    tag_460:\n        /* \"#utility.yul\":3520:3636   */\n      swap4\n      pop\n        /* \"#utility.yul\":3662:3665   */\n      dup4\n        /* \"#utility.yul\":3707:3711   */\n      0x20\n        /* \"#utility.yul\":3699:3705   */\n      dup3\n        /* \"#utility.yul\":3695:3712   */\n      mul\n        /* \"#utility.yul\":3690:3693   */\n      dup6\n        /* \"#utility.yul\":3686:3713   */\n      add\n        /* \"#utility.yul\":3737:3816   */\n      tag_461\n        /* \"#utility.yul\":3810:3815   */\n      dup6\n        /* \"#utility.yul\":3737:3816   */\n      tag_347\n      jump\t// in\n    tag_461:\n        /* \"#utility.yul\":3839:3846   */\n      dup1\n        /* \"#utility.yul\":3870:3871   */\n      0x00\n        /* \"#utility.yul\":3855:4290   */\n    tag_462:\n        /* \"#utility.yul\":3880:3886   */\n      dup6\n        /* \"#utility.yul\":3877:3878   */\n      dup2\n        /* \"#utility.yul\":3874:3887   */\n      lt\n        /* \"#utility.yul\":3855:4290   */\n      iszero\n      tag_464\n      jumpi\n        /* \"#utility.yul\":3951:3960   */\n      dup5\n        /* \"#utility.yul\":3945:3949   */\n      dup5\n        /* \"#utility.yul\":3941:3961   */\n      sub\n        /* \"#utility.yul\":3936:3939   */\n      dup10\n        /* \"#utility.yul\":3929:3962   */\n      mstore\n        /* \"#utility.yul\":4002:4008   */\n      dup2\n        /* \"#utility.yul\":3996:4009   */\n      mload\n        /* \"#utility.yul\":4030:4140   */\n      tag_465\n        /* \"#utility.yul\":4135:4139   */\n      dup6\n        /* \"#utility.yul\":4120:4133   */\n      dup3\n        /* \"#utility.yul\":4030:4140   */\n      tag_356\n      jump\t// in\n    tag_465:\n        /* \"#utility.yul\":4022:4140   */\n      swap5\n      pop\n        /* \"#utility.yul\":4163:4246   */\n      tag_466\n        /* \"#utility.yul\":4239:4245   */\n      dup4\n        /* \"#utility.yul\":4163:4246   */\n      tag_357\n      jump\t// in\n    tag_466:\n        /* \"#utility.yul\":4153:4246   */\n      swap3\n      pop\n        /* \"#utility.yul\":4275:4279   */\n      0x20\n        /* \"#utility.yul\":4270:4273   */\n      dup11\n        /* \"#utility.yul\":4266:4280   */\n      add\n        /* \"#utility.yul\":4259:4280   */\n      swap10\n      pop\n        /* \"#utility.yul\":3915:4290   */\n      pop\n        /* \"#utility.yul\":3902:3903   */\n      0x01\n        /* \"#utility.yul\":3899:3900   */\n      dup2\n        /* \"#utility.yul\":3895:3904   */\n      add\n        /* \"#utility.yul\":3890:3904   */\n      swap1\n      pop\n        /* \"#utility.yul\":3855:4290   */\n      jump(tag_462)\n    tag_464:\n        /* \"#utility.yul\":3859:3873   */\n      pop\n        /* \"#utility.yul\":4306:4310   */\n      dup3\n        /* \"#utility.yul\":4299:4310   */\n      swap8\n      pop\n        /* \"#utility.yul\":4326:4329   */\n      dup8\n        /* \"#utility.yul\":4319:4329   */\n      swap6\n      pop\n        /* \"#utility.yul\":3410:4335   */\n      pop\n      pop\n      pop\n      pop\n      pop\n        /* \"#utility.yul\":3240:4335   */\n      swap3\n      swap2\n      pop\n      pop\n      jump\t// out\n        /* \"#utility.yul\":4341:4806   */\n    tag_17:\n        /* \"#utility.yul\":4530:4534   */\n      0x00\n        /* \"#utility.yul\":4568:4570   */\n      0x20\n        /* \"#utility.yul\":4557:4566   */\n      dup3\n        /* \"#utility.yul\":4553:4571   */\n      add\n        /* \"#utility.yul\":4545:4571   */\n      swap1\n      pop\n        /* \"#utility.yul\":4617:4626   */\n      dup2\n        /* \"#utility.yul\":4611:4615   */\n      dup2\n        /* \"#utility.yul\":4607:4627   */\n      sub\n        /* \"#utility.yul\":4603:4604   */\n      0x00\n        /* \"#utility.yul\":4592:4601   */\n      dup4\n        /* \"#utility.yul\":4588:4605   */\n      add\n        /* \"#utility.yul\":4581:4628   */\n      mstore\n        /* \"#utility.yul\":4645:4799   */\n      tag_468\n        /* \"#utility.yul\":4794:4798   */\n      dup2\n        /* \"#utility.yul\":4785:4791   */\n      dup5\n        /* \"#utility.yul\":4645:4799   */\n      tag_358\n      jump\t// in\n    tag_468:\n        /* \"#utility.yul\":4637:4799   */\n      swap1\n      pop\n        /* \"#utility.yul\":4341:4806   */\n      swap3\n      swap2\n      pop\n      pop\n      jump\t// out\n        /* \"#utility.yul\":4812:4930   */\n    tag_359:\n        /* \"#utility.yul\":4899:4923   */\n      tag_470\n        /* \"#utility.yul\":4917:4922   */\n      dup2\n        /* \"#utility.yul\":4899:4923   */\n      tag_353\n      jump\t// in\n    tag_470:\n        /* \"#utility.yul\":4894:4897   */\n      dup3\n        /* \"#utility.yul\":4887:4924   */\n      mstore\n        /* \"#utility.yul\":4812:4930   */\n      pop\n      pop\n      jump\t// out\n        /* \"#utility.yul\":4936:5158   */\n    tag_22:\n        /* \"#utility.yul\":5029:5033   */\n      0x00\n        /* \"#utility.yul\":5067:5069   */\n      0x20\n        /* \"#utility.yul\":5056:5065   */\n      dup3\n        /* \"#utility.yul\":5052:5070   */\n      add\n        /* \"#utility.yul\":5044:5070   */\n      swap1\n      pop\n        /* \"#utility.yul\":5080:5151   */\n      tag_472\n        /* \"#utility.yul\":5148:5149   */\n      0x00\n        /* \"#utility.yul\":5137:5146   */\n      dup4\n        /* \"#utility.yul\":5133:5150   */\n      add\n        /* \"#utility.yul\":5124:5130   */\n      dup5\n        /* \"#utility.yul\":5080:5151   */\n      tag_359\n      jump\t// in\n    tag_472:\n        /* \"#utility.yul\":4936:5158   */\n      swap3\n      swap2\n      pop\n      pop\n      jump\t// out\n        /* \"#utility.yul\":5164:5239   */\n    tag_360:\n        /* \"#utility.yul\":5197:5203   */\n      0x00\n        /* \"#utility.yul\":5230:5232   */\n      0x40\n        /* \"#utility.yul\":5224:5233   */\n      mload\n        /* \"#utility.yul\":5214:5233   */\n      swap1\n      pop\n        /* \"#utility.yul\":5164:5239   */\n      swap1\n      jump\t// out\n        /* \"#utility.yul\":5245:5362   */\n    tag_361:\n        /* \"#utility.yul\":5354:5355   */\n      0x00\n        /* \"#utility.yul\":5351:5352   */\n      dup1\n        /* \"#utility.yul\":5344:5356   */\n      revert\n        /* \"#utility.yul\":5368:5485   */\n    tag_362:\n        /* \"#utility.yul\":5477:5478   */\n      0x00\n        /* \"#utility.yul\":5474:5475   */\n      dup1\n        /* \"#utility.yul\":5467:5479   */\n      revert\n        /* \"#utility.yul\":5491:5617   */\n    tag_363:\n        /* \"#utility.yul\":5528:5535   */\n      0x00\n        /* \"#utility.yul\":5568:5610   */\n      0xffffffffffffffffffffffffffffffffffffffff\n        /* \"#utility.yul\":5561:5566   */\n      dup3\n        /* \"#utility.yul\":5557:5611   */\n      and\n        /* \"#utility.yul\":5546:5611   */\n      swap1\n      pop\n        /* \"#utility.yul\":5491:5617   */\n      swap2\n      swap1\n      pop\n      jump\t// out\n        /* \"#utility.yul\":5623:5719   */\n    tag_364:\n        /* \"#utility.yul\":5660:5667   */\n      0x00\n        /* \"#utility.yul\":5689:5713   */\n      tag_478\n        /* \"#utility.yul\":5707:5712   */\n      dup3\n        /* \"#utility.yul\":5689:5713   */\n      tag_363\n      jump\t// in\n    tag_478:\n        /* \"#utility.yul\":5678:5713   */\n      swap1\n      pop\n        /* \"#utility.yul\":5623:5719   */\n      swap2\n      swap1\n      pop\n      jump\t// out\n        /* \"#utility.yul\":5725:5847   */\n    tag_365:\n        /* \"#utility.yul\":5798:5822   */\n      tag_480\n        /* \"#utility.yul\":5816:5821   */\n      dup2\n        /* \"#utility.yul\":5798:5822   */\n      tag_364\n      jump\t// in\n    tag_480:\n        /* \"#utility.yul\":5791:5796   */\n      dup2\n        /* \"#utility.yul\":5788:5823   */\n      eq\n        /* \"#utility.yul\":5778:5841   */\n      tag_481\n      jumpi\n        /* \"#utility.yul\":5837:5838   */\n      0x00\n        /* \"#utility.yul\":5834:5835   */\n      dup1\n        /* \"#utility.yul\":5827:5839   */\n      revert\n        /* \"#utility.yul\":5778:5841   */\n    tag_481:\n        /* \"#utility.yul\":5725:5847   */\n      pop\n      jump\t// out\n        /* \"#utility.yul\":5853:5992   */\n    tag_366:\n        /* \"#utility.yul\":5899:5904   */\n      0x00\n        /* \"#utility.yul\":5937:5943   */\n      dup2\n        /* \"#utility.yul\":5924:5944   */\n      calldataload\n        /* \"#utility.yul\":5915:5944   */\n      swap1\n      pop\n        /* \"#utility.yul\":5953:5986   */\n      tag_483\n        /* \"#utility.yul\":5980:5985   */\n      dup2\n        /* \"#utility.yul\":5953:5986   */\n      tag_365\n      jump\t// in\n    tag_483:\n        /* \"#utility.yul\":5853:5992   */\n      swap3\n      swap2\n      pop\n      pop\n      jump\t// out\n        /* \"#utility.yul\":5998:6327   */\n    tag_26:\n        /* \"#utility.yul\":6057:6063   */\n      0x00\n        /* \"#utility.yul\":6106:6108   */\n      0x20\n        /* \"#utility.yul\":6094:6103   */\n      dup3\n        /* \"#utility.yul\":6085:6092   */\n      dup5\n        /* \"#utility.yul\":6081:6104   */\n      sub\n        /* \"#utility.yul\":6077:6109   */\n      slt\n        /* \"#utility.yul\":6074:6193   */\n      iszero\n      tag_485\n      jumpi\n        /* \"#utility.yul\":6112:6191   */\n      tag_486\n      tag_361\n      jump\t// in\n    tag_486:\n        /* \"#utility.yul\":6074:6193   */\n    tag_485:\n        /* \"#utility.yul\":6232:6233   */\n      0x00\n        /* \"#utility.yul\":6257:6310   */\n      tag_487\n        /* \"#utility.yul\":6302:6309   */\n      dup5\n        /* \"#utility.yul\":6293:6299   */\n      dup3\n        /* \"#utility.yul\":6282:6291   */\n      dup6\n        /* \"#utility.yul\":6278:6300   */\n      add\n        /* \"#utility.yul\":6257:6310   */\n      tag_366\n      jump\t// in\n    tag_487:\n        /* \"#utility.yul\":6247:6310   */\n      swap2\n      pop\n        /* \"#utility.yul\":6203:6320   */\n      pop\n        /* \"#utility.yul\":5998:6327   */\n      swap3\n      swap2\n      pop\n      pop\n      jump\t// out\n        /* \"#utility.yul\":6333:6471   */\n    tag_367:\n        /* \"#utility.yul\":6424:6430   */\n      0x00\n        /* \"#utility.yul\":6458:6463   */\n      dup2\n        /* \"#utility.yul\":6452:6464   */\n      mload\n        /* \"#utility.yul\":6442:6464   */\n      swap1\n      pop\n        /* \"#utility.yul\":6333:6471   */\n      swap2\n      swap1\n      pop\n      jump\t// out\n        /* \"#utility.yul\":6477:6685   */\n    tag_368:\n        /* \"#utility.yul\":6600:6611   */\n      0x00\n        /* \"#utility.yul\":6634:6640   */\n      dup3\n        /* \"#utility.yul\":6629:6632   */\n      dup3\n        /* \"#utility.yul\":6622:6641   */\n      mstore\n        /* \"#utility.yul\":6674:6678   */\n      0x20\n        /* \"#utility.yul\":6669:6672   */\n      dup3\n        /* \"#utility.yul\":6665:6679   */\n      add\n        /* \"#utility.yul\":6650:6679   */\n      swap1\n      pop\n        /* \"#utility.yul\":6477:6685   */\n      swap3\n      swap2\n      pop\n      pop\n      jump\t// out\n        /* \"#utility.yul\":6691:6847   */\n    tag_369:\n        /* \"#utility.yul\":6782:6786   */\n      0x00\n        /* \"#utility.yul\":6805:6808   */\n      dup2\n        /* \"#utility.yul\":6797:6808   */\n      swap1\n      pop\n        /* \"#utility.yul\":6835:6839   */\n      0x20\n        /* \"#utility.yul\":6830:6833   */\n      dup3\n        /* \"#utility.yul\":6826:6840   */\n      add\n        /* \"#utility.yul\":6818:6840   */\n      swap1\n      pop\n        /* \"#utility.yul\":6691:6847   */\n      swap2\n      swap1\n      pop\n      jump\t// out\n        /* \"#utility.yul\":6853:6961   */\n    tag_370:\n        /* \"#utility.yul\":6930:6954   */\n      tag_492\n        /* \"#utility.yul\":6948:6953   */\n      dup2\n        /* \"#utility.yul\":6930:6954   */\n      tag_364\n      jump\t// in\n    tag_492:\n        /* \"#utility.yul\":6925:6928   */\n      dup3\n        /* \"#utility.yul\":6918:6955   */\n      mstore\n        /* \"#utility.yul\":6853:6961   */\n      pop\n      pop\n      jump\t// out\n        /* \"#utility.yul\":6967:7147   */\n    tag_107:\n        /* \"#utility.yul\":7015:7092   */\n      0x4e487b7100000000000000000000000000000000000000000000000000000000\n        /* \"#utility.yul\":7012:7013   */\n      0x00\n        /* \"#utility.yul\":7005:7093   */\n      mstore\n        /* \"#utility.yul\":7112:7116   */\n      0x21\n        /* \"#utility.yul\":7109:7110   */\n      0x04\n        /* \"#utility.yul\":7102:7117   */\n      mstore\n        /* \"#utility.yul\":7136:7140   */\n      0x24\n        /* \"#utility.yul\":7133:7134   */\n      0x00\n        /* \"#utility.yul\":7126:7141   */\n      revert\n        /* \"#utility.yul\":7153:7274   */\n    tag_371:\n        /* \"#utility.yul\":7242:7243   */\n      0x02\n        /* \"#utility.yul\":7235:7240   */\n      dup2\n        /* \"#utility.yul\":7232:7244   */\n      lt\n        /* \"#utility.yul\":7222:7268   */\n      tag_495\n      jumpi\n        /* \"#utility.yul\":7248:7266   */\n      tag_496\n      tag_107\n      jump\t// in\n    tag_496:\n        /* \"#utility.yul\":7222:7268   */\n    tag_495:\n        /* \"#utility.yul\":7153:7274   */\n      pop\n      jump\t// out\n        /* \"#utility.yul\":7280:7423   */\n    tag_372:\n        /* \"#utility.yul\":7333:7340   */\n      0x00\n        /* \"#utility.yul\":7362:7367   */\n      dup2\n        /* \"#utility.yul\":7351:7367   */\n      swap1\n      pop\n        /* \"#utility.yul\":7368:7417   */\n      tag_498\n        /* \"#utility.yul\":7411:7416   */\n      dup3\n        /* \"#utility.yul\":7368:7417   */\n      tag_371\n      jump\t// in\n    tag_498:\n        /* \"#utility.yul\":7280:7423   */\n      swap2\n      swap1\n      pop\n      jump\t// out\n        /* \"#utility.yul\":7429:7572   */\n    tag_373:\n        /* \"#utility.yul\":7493:7502   */\n      0x00\n        /* \"#utility.yul\":7526:7566   */\n      tag_500\n        /* \"#utility.yul\":7560:7565   */\n      dup3\n        /* \"#utility.yul\":7526:7566   */\n      tag_372\n      jump\t// in\n    tag_500:\n        /* \"#utility.yul\":7513:7566   */\n      swap1\n      pop\n        /* \"#utility.yul\":7429:7572   */\n      swap2\n      swap1\n      pop\n      jump\t// out\n        /* \"#utility.yul\":7578:7727   */\n    tag_374:\n        /* \"#utility.yul\":7669:7720   */\n      tag_502\n        /* \"#utility.yul\":7714:7719   */\n      dup2\n        /* \"#utility.yul\":7669:7720   */\n      tag_373\n      jump\t// in\n    tag_502:\n        /* \"#utility.yul\":7664:7667   */\n      dup3\n        /* \"#utility.yul\":7657:7721   */\n      mstore\n        /* \"#utility.yul\":7578:7727   */\n      pop\n      pop\n      jump\t// out\n        /* \"#utility.yul\":7805:8774   */\n    tag_375:\n        /* \"#utility.yul\":7912:7915   */\n      0x00\n        /* \"#utility.yul\":7948:7952   */\n      0x80\n        /* \"#utility.yul\":7943:7946   */\n      dup4\n        /* \"#utility.yul\":7939:7953   */\n      add\n        /* \"#utility.yul\":8036:8040   */\n      0x00\n        /* \"#utility.yul\":8029:8034   */\n      dup4\n        /* \"#utility.yul\":8025:8041   */\n      add\n        /* \"#utility.yul\":8019:8042   */\n      mload\n        /* \"#utility.yul\":8055:8118   */\n      tag_504\n        /* \"#utility.yul\":8112:8116   */\n      0x00\n        /* \"#utility.yul\":8107:8110   */\n      dup7\n        /* \"#utility.yul\":8103:8117   */\n      add\n        /* \"#utility.yul\":8089:8101   */\n      dup3\n        /* \"#utility.yul\":8055:8118   */\n      tag_370\n      jump\t// in\n    tag_504:\n        /* \"#utility.yul\":7963:8128   */\n      pop\n        /* \"#utility.yul\":8215:8219   */\n      0x20\n        /* \"#utility.yul\":8208:8213   */\n      dup4\n        /* \"#utility.yul\":8204:8220   */\n      add\n        /* \"#utility.yul\":8198:8221   */\n      mload\n        /* \"#utility.yul\":8268:8271   */\n      dup5\n        /* \"#utility.yul\":8262:8266   */\n      dup3\n        /* \"#utility.yul\":8258:8272   */\n      sub\n        /* \"#utility.yul\":8251:8255   */\n      0x20\n        /* \"#utility.yul\":8246:8249   */\n      dup7\n        /* \"#utility.yul\":8242:8256   */\n      add\n        /* \"#utility.yul\":8235:8273   */\n      mstore\n        /* \"#utility.yul\":8294:8367   */\n      tag_505\n        /* \"#utility.yul\":8362:8366   */\n      dup3\n        /* \"#utility.yul\":8348:8360   */\n      dup3\n        /* \"#utility.yul\":8294:8367   */\n      tag_352\n      jump\t// in\n    tag_505:\n        /* \"#utility.yul\":8286:8367   */\n      swap2\n      pop\n        /* \"#utility.yul\":8138:8378   */\n      pop\n        /* \"#utility.yul\":8465:8469   */\n      0x40\n        /* \"#utility.yul\":8458:8463   */\n      dup4\n        /* \"#utility.yul\":8454:8470   */\n      add\n        /* \"#utility.yul\":8448:8471   */\n      mload\n        /* \"#utility.yul\":8484:8547   */\n      tag_506\n        /* \"#utility.yul\":8541:8545   */\n      0x40\n        /* \"#utility.yul\":8536:8539   */\n      dup7\n        /* \"#utility.yul\":8532:8546   */\n      add\n        /* \"#utility.yul\":8518:8530   */\n      dup3\n        /* \"#utility.yul\":8484:8547   */\n      tag_354\n      jump\t// in\n    tag_506:\n        /* \"#utility.yul\":8388:8557   */\n      pop\n        /* \"#utility.yul\":8641:8645   */\n      0x60\n        /* \"#utility.yul\":8634:8639   */\n      dup4\n        /* \"#utility.yul\":8630:8646   */\n      add\n        /* \"#utility.yul\":8624:8647   */\n      mload\n        /* \"#utility.yul\":8660:8737   */\n      tag_507\n        /* \"#utility.yul\":8731:8735   */\n      0x60\n        /* \"#utility.yul\":8726:8729   */\n      dup7\n        /* \"#utility.yul\":8722:8736   */\n      add\n        /* \"#utility.yul\":8708:8720   */\n      dup3\n        /* \"#utility.yul\":8660:8737   */\n      tag_374\n      jump\t// in\n    tag_507:\n        /* \"#utility.yul\":8567:8747   */\n      pop\n        /* \"#utility.yul\":8764:8768   */\n      dup1\n        /* \"#utility.yul\":8757:8768   */\n      swap2\n      pop\n        /* \"#utility.yul\":7917:8774   */\n      pop\n        /* \"#utility.yul\":7805:8774   */\n      swap3\n      swap2\n      pop\n      pop\n      jump\t// out\n        /* \"#utility.yul\":8780:9032   */\n    tag_376:\n        /* \"#utility.yul\":8897:8907   */\n      0x00\n        /* \"#utility.yul\":8932:9026   */\n      tag_509\n        /* \"#utility.yul\":9022:9025   */\n      dup4\n        /* \"#utility.yul\":9014:9020   */\n      dup4\n        /* \"#utility.yul\":8932:9026   */\n      tag_375\n      jump\t// in\n    tag_509:\n        /* \"#utility.yul\":8918:9026   */\n      swap1\n      pop\n        /* \"#utility.yul\":8780:9032   */\n      swap3\n      swap2\n      pop\n      pop\n      jump\t// out\n        /* \"#utility.yul\":9038:9175   */\n    tag_377:\n        /* \"#utility.yul\":9132:9136   */\n      0x00\n        /* \"#utility.yul\":9164:9168   */\n      0x20\n        /* \"#utility.yul\":9159:9162   */\n      dup3\n        /* \"#utility.yul\":9155:9169   */\n      add\n        /* \"#utility.yul\":9147:9169   */\n      swap1\n      pop\n        /* \"#utility.yul\":9038:9175   */\n      swap2\n      swap1\n      pop\n      jump\t// out\n        /* \"#utility.yul\":9257:10360   */\n    tag_378:\n        /* \"#utility.yul\":9424:9427   */\n      0x00\n        /* \"#utility.yul\":9453:9531   */\n      tag_512\n        /* \"#utility.yul\":9525:9530   */\n      dup3\n        /* \"#utility.yul\":9453:9531   */\n      tag_367\n      jump\t// in\n    tag_512:\n        /* \"#utility.yul\":9547:9657   */\n      tag_513\n        /* \"#utility.yul\":9650:9656   */\n      dup2\n        /* \"#utility.yul\":9645:9648   */\n      dup6\n        /* \"#utility.yul\":9547:9657   */\n      tag_368\n      jump\t// in\n    tag_513:\n        /* \"#utility.yul\":9540:9657   */\n      swap4\n      pop\n        /* \"#utility.yul\":9683:9686   */\n      dup4\n        /* \"#utility.yul\":9728:9732   */\n      0x20\n        /* \"#utility.yul\":9720:9726   */\n      dup3\n        /* \"#utility.yul\":9716:9733   */\n      mul\n        /* \"#utility.yul\":9711:9714   */\n      dup6\n        /* \"#utility.yul\":9707:9734   */\n      add\n        /* \"#utility.yul\":9758:9838   */\n      tag_514\n        /* \"#utility.yul\":9832:9837   */\n      dup6\n        /* \"#utility.yul\":9758:9838   */\n      tag_369\n      jump\t// in\n    tag_514:\n        /* \"#utility.yul\":9861:9868   */\n      dup1\n        /* \"#utility.yul\":9892:9893   */\n      0x00\n        /* \"#utility.yul\":9877:10315   */\n    tag_515:\n        /* \"#utility.yul\":9902:9908   */\n      dup6\n        /* \"#utility.yul\":9899:9900   */\n      dup2\n        /* \"#utility.yul\":9896:9909   */\n      lt\n        /* \"#utility.yul\":9877:10315   */\n      iszero\n      tag_517\n      jumpi\n        /* \"#utility.yul\":9973:9982   */\n      dup5\n        /* \"#utility.yul\":9967:9971   */\n      dup5\n        /* \"#utility.yul\":9963:9983   */\n      sub\n        /* \"#utility.yul\":9958:9961   */\n      dup10\n        /* \"#utility.yul\":9951:9984   */\n      mstore\n        /* \"#utility.yul\":10024:10030   */\n      dup2\n        /* \"#utility.yul\":10018:10031   */\n      mload\n        /* \"#utility.yul\":10052:10164   */\n      tag_518\n        /* \"#utility.yul\":10159:10163   */\n      dup6\n        /* \"#utility.yul\":10144:10157   */\n      dup3\n        /* \"#utility.yul\":10052:10164   */\n      tag_376\n      jump\t// in\n    tag_518:\n        /* \"#utility.yul\":10044:10164   */\n      swap5\n      pop\n        /* \"#utility.yul\":10187:10271   */\n      tag_519\n        /* \"#utility.yul\":10264:10270   */\n      dup4\n        /* \"#utility.yul\":10187:10271   */\n      tag_377\n      jump\t// in\n    tag_519:\n        /* \"#utility.yul\":10177:10271   */\n      swap3\n      pop\n        /* \"#utility.yul\":10300:10304   */\n      0x20\n        /* \"#utility.yul\":10295:10298   */\n      dup11\n        /* \"#utility.yul\":10291:10305   */\n      add\n        /* \"#utility.yul\":10284:10305   */\n      swap10\n      pop\n        /* \"#utility.yul\":9937:10315   */\n      pop\n        /* \"#utility.yul\":9924:9925   */\n      0x01\n        /* \"#utility.yul\":9921:9922   */\n      dup2\n        /* \"#utility.yul\":9917:9926   */\n      add\n        /* \"#utility.yul\":9912:9926   */\n      swap1\n      pop\n        /* \"#utility.yul\":9877:10315   */\n      jump(tag_515)\n    tag_517:\n        /* \"#utility.yul\":9881:9895   */\n      pop\n        /* \"#utility.yul\":10331:10335   */\n      dup3\n        /* \"#utility.yul\":10324:10335   */\n      swap8\n      pop\n        /* \"#utility.yul\":10351:10354   */\n      dup8\n        /* \"#utility.yul\":10344:10354   */\n      swap6\n      pop\n        /* \"#utility.yul\":9429:10360   */\n      pop\n      pop\n      pop\n      pop\n      pop\n        /* \"#utility.yul\":9257:10360   */\n      swap3\n      swap2\n      pop\n      pop\n      jump\t// out\n        /* \"#utility.yul\":10366:10835   */\n    tag_29:\n        /* \"#utility.yul\":10557:10561   */\n      0x00\n        /* \"#utility.yul\":10595:10597   */\n      0x20\n        /* \"#utility.yul\":10584:10593   */\n      dup3\n        /* \"#utility.yul\":10580:10598   */\n      add\n        /* \"#utility.yul\":10572:10598   */\n      swap1\n      pop\n        /* \"#utility.yul\":10644:10653   */\n      dup2\n        /* \"#utility.yul\":10638:10642   */\n      dup2\n        /* \"#utility.yul\":10634:10654   */\n      sub\n        /* \"#utility.yul\":10630:10631   */\n      0x00\n        /* \"#utility.yul\":10619:10628   */\n      dup4\n        /* \"#utility.yul\":10615:10632   */\n      add\n        /* \"#utility.yul\":10608:10655   */\n      mstore\n        /* \"#utility.yul\":10672:10828   */\n      tag_521\n        /* \"#utility.yul\":10823:10827   */\n      dup2\n        /* \"#utility.yul\":10814:10820   */\n      dup5\n        /* \"#utility.yul\":10672:10828   */\n      tag_378\n      jump\t// in\n    tag_521:\n        /* \"#utility.yul\":10664:10828   */\n      swap1\n      pop\n        /* \"#utility.yul\":10366:10835   */\n      swap3\n      swap2\n      pop\n      pop\n      jump\t// out\n        /* \"#utility.yul\":10841:10958   */\n    tag_379:\n        /* \"#utility.yul\":10950:10951   */\n      0x00\n        /* \"#utility.yul\":10947:10948   */\n      dup1\n        /* \"#utility.yul\":10940:10952   */\n      revert\n        /* \"#utility.yul\":10964:11081   */\n    tag_380:\n        /* \"#utility.yul\":11073:11074   */\n      0x00\n        /* \"#utility.yul\":11070:11071   */\n      dup1\n        /* \"#utility.yul\":11063:11075   */\n      revert\n        /* \"#utility.yul\":11087:11267   */\n    tag_92:\n        /* \"#utility.yul\":11135:11212   */\n      0x4e487b7100000000000000000000000000000000000000000000000000000000\n        /* \"#utility.yul\":11132:11133   */\n      0x00\n        /* \"#utility.yul\":11125:11213   */\n      mstore\n        /* \"#utility.yul\":11232:11236   */\n      0x41\n        /* \"#utility.yul\":11229:11230   */\n      0x04\n        /* \"#utility.yul\":11222:11237   */\n      mstore\n        /* \"#utility.yul\":11256:11260   */\n      0x24\n        /* \"#utility.yul\":11253:11254   */\n      0x00\n        /* \"#utility.yul\":11246:11261   */\n      revert\n        /* \"#utility.yul\":11273:11554   */\n    tag_381:\n        /* \"#utility.yul\":11356:11383   */\n      tag_526\n        /* \"#utility.yul\":11378:11382   */\n      dup3\n        /* \"#utility.yul\":11356:11383   */\n      tag_351\n      jump\t// in\n    tag_526:\n        /* \"#utility.yul\":11348:11354   */\n      dup2\n        /* \"#utility.yul\":11344:11384   */\n      add\n        /* \"#utility.yul\":11486:11492   */\n      dup2\n        /* \"#utility.yul\":11474:11484   */\n      dup2\n        /* \"#utility.yul\":11471:11493   */\n      lt\n        /* \"#utility.yul\":11450:11468   */\n      0xffffffffffffffff\n        /* \"#utility.yul\":11438:11448   */\n      dup3\n        /* \"#utility.yul\":11435:11469   */\n      gt\n        /* \"#utility.yul\":11432:11494   */\n      or\n        /* \"#utility.yul\":11429:11517   */\n      iszero\n      tag_527\n      jumpi\n        /* \"#utility.yul\":11497:11515   */\n      tag_528\n      tag_92\n      jump\t// in\n    tag_528:\n        /* \"#utility.yul\":11429:11517   */\n    tag_527:\n        /* \"#utility.yul\":11537:11547   */\n      dup1\n        /* \"#utility.yul\":11533:11535   */\n      0x40\n        /* \"#utility.yul\":11526:11548   */\n      mstore\n        /* \"#utility.yul\":11316:11554   */\n      pop\n        /* \"#utility.yul\":11273:11554   */\n      pop\n      pop\n      jump\t// out\n        /* \"#utility.yul\":11560:11689   */\n    tag_382:\n        /* \"#utility.yul\":11594:11600   */\n      0x00\n        /* \"#utility.yul\":11621:11641   */\n      tag_530\n      tag_360\n      jump\t// in\n    tag_530:\n        /* \"#utility.yul\":11611:11641   */\n      swap1\n      pop\n        /* \"#utility.yul\":11650:11683   */\n      tag_531\n        /* \"#utility.yul\":11678:11682   */\n      dup3\n        /* \"#utility.yul\":11670:11676   */\n      dup3\n        /* \"#utility.yul\":11650:11683   */\n      tag_381\n      jump\t// in\n    tag_531:\n        /* \"#utility.yul\":11560:11689   */\n      swap2\n      swap1\n      pop\n      jump\t// out\n        /* \"#utility.yul\":11695:12003   */\n    tag_383:\n        /* \"#utility.yul\":11757:11761   */\n      0x00\n        /* \"#utility.yul\":11847:11865   */\n      0xffffffffffffffff\n        /* \"#utility.yul\":11839:11845   */\n      dup3\n        /* \"#utility.yul\":11836:11866   */\n      gt\n        /* \"#utility.yul\":11833:11889   */\n      iszero\n      tag_533\n      jumpi\n        /* \"#utility.yul\":11869:11887   */\n      tag_534\n      tag_92\n      jump\t// in\n    tag_534:\n        /* \"#utility.yul\":11833:11889   */\n    tag_533:\n        /* \"#utility.yul\":11907:11936   */\n      tag_535\n        /* \"#utility.yul\":11929:11935   */\n      dup3\n        /* \"#utility.yul\":11907:11936   */\n      tag_351\n      jump\t// in\n    tag_535:\n        /* \"#utility.yul\":11899:11936   */\n      swap1\n      pop\n        /* \"#utility.yul\":11991:11995   */\n      0x20\n        /* \"#utility.yul\":11985:11989   */\n      dup2\n        /* \"#utility.yul\":11981:11996   */\n      add\n        /* \"#utility.yul\":11973:11996   */\n      swap1\n      pop\n        /* \"#utility.yul\":11695:12003   */\n      swap2\n      swap1\n      pop\n      jump\t// out\n        /* \"#utility.yul\":12009:12157   */\n    tag_384:\n        /* \"#utility.yul\":12107:12113   */\n      dup3\n        /* \"#utility.yul\":12102:12105   */\n      dup2\n        /* \"#utility.yul\":12097:12100   */\n      dup4\n        /* \"#utility.yul\":12084:12114   */\n      calldatacopy\n        /* \"#utility.yul\":12148:12149   */\n      0x00\n        /* \"#utility.yul\":12139:12145   */\n      dup4\n        /* \"#utility.yul\":12134:12137   */\n      dup4\n        /* \"#utility.yul\":12130:12146   */\n      add\n        /* \"#utility.yul\":12123:12150   */\n      mstore\n        /* \"#utility.yul\":12009:12157   */\n      pop\n      pop\n      pop\n      jump\t// out\n        /* \"#utility.yul\":12163:12588   */\n    tag_385:\n        /* \"#utility.yul\":12241:12246   */\n      0x00\n        /* \"#utility.yul\":12266:12332   */\n      tag_538\n        /* \"#utility.yul\":12282:12331   */\n      tag_539\n        /* \"#utility.yul\":12324:12330   */\n      dup5\n        /* \"#utility.yul\":12282:12331   */\n      tag_383\n      jump\t// in\n    tag_539:\n        /* \"#utility.yul\":12266:12332   */\n      tag_382\n      jump\t// in\n    tag_538:\n        /* \"#utility.yul\":12257:12332   */\n      swap1\n      pop\n        /* \"#utility.yul\":12355:12361   */\n      dup3\n        /* \"#utility.yul\":12348:12353   */\n      dup2\n        /* \"#utility.yul\":12341:12362   */\n      mstore\n        /* \"#utility.yul\":12393:12397   */\n      0x20\n        /* \"#utility.yul\":12386:12391   */\n      dup2\n        /* \"#utility.yul\":12382:12398   */\n      add\n        /* \"#utility.yul\":12431:12434   */\n      dup5\n        /* \"#utility.yul\":12422:12428   */\n      dup5\n        /* \"#utility.yul\":12417:12420   */\n      dup5\n        /* \"#utility.yul\":12413:12429   */\n      add\n        /* \"#utility.yul\":12410:12435   */\n      gt\n        /* \"#utility.yul\":12407:12519   */\n      iszero\n      tag_540\n      jumpi\n        /* \"#utility.yul\":12438:12517   */\n      tag_541\n      tag_380\n      jump\t// in\n    tag_541:\n        /* \"#utility.yul\":12407:12519   */\n    tag_540:\n        /* \"#utility.yul\":12528:12582   */\n      tag_542\n        /* \"#utility.yul\":12575:12581   */\n      dup5\n        /* \"#utility.yul\":12570:12573   */\n      dup3\n        /* \"#utility.yul\":12565:12568   */\n      dup6\n        /* \"#utility.yul\":12528:12582   */\n      tag_384\n      jump\t// in\n    tag_542:\n        /* \"#utility.yul\":12247:12588   */\n      pop\n        /* \"#utility.yul\":12163:12588   */\n      swap4\n      swap3\n      pop\n      pop\n      pop\n      jump\t// out\n        /* \"#utility.yul\":12608:12948   */\n    tag_386:\n        /* \"#utility.yul\":12664:12669   */\n      0x00\n        /* \"#utility.yul\":12713:12716   */\n      dup3\n        /* \"#utility.yul\":12706:12710   */\n      0x1f\n        /* \"#utility.yul\":12698:12704   */\n      dup4\n        /* \"#utility.yul\":12694:12711   */\n      add\n        /* \"#utility.yul\":12690:12717   */\n      slt\n        /* \"#utility.yul\":12680:12802   */\n      tag_544\n      jumpi\n        /* \"#utility.yul\":12721:12800   */\n      tag_545\n      tag_379\n      jump\t// in\n    tag_545:\n        /* \"#utility.yul\":12680:12802   */\n    tag_544:\n        /* \"#utility.yul\":12838:12844   */\n      dup2\n        /* \"#utility.yul\":12825:12845   */\n      calldataload\n        /* \"#utility.yul\":12863:12942   */\n      tag_546\n        /* \"#utility.yul\":12938:12941   */\n      dup5\n        /* \"#utility.yul\":12930:12936   */\n      dup3\n        /* \"#utility.yul\":12923:12927   */\n      0x20\n        /* \"#utility.yul\":12915:12921   */\n      dup7\n        /* \"#utility.yul\":12911:12928   */\n      add\n        /* \"#utility.yul\":12863:12942   */\n      tag_385\n      jump\t// in\n    tag_546:\n        /* \"#utility.yul\":12854:12942   */\n      swap2\n      pop\n        /* \"#utility.yul\":12670:12948   */\n      pop\n        /* \"#utility.yul\":12608:12948   */\n      swap3\n      swap2\n      pop\n      pop\n      jump\t// out\n        /* \"#utility.yul\":12954:13463   */\n    tag_33:\n        /* \"#utility.yul\":13023:13029   */\n      0x00\n        /* \"#utility.yul\":13072:13074   */\n      0x20\n        /* \"#utility.yul\":13060:13069   */\n      dup3\n        /* \"#utility.yul\":13051:13058   */\n      dup5\n        /* \"#utility.yul\":13047:13070   */\n      sub\n        /* \"#utility.yul\":13043:13075   */\n      slt\n        /* \"#utility.yul\":13040:13159   */\n      iszero\n      tag_548\n      jumpi\n        /* \"#utility.yul\":13078:13157   */\n      tag_549\n      tag_361\n      jump\t// in\n    tag_549:\n        /* \"#utility.yul\":13040:13159   */\n    tag_548:\n        /* \"#utility.yul\":13226:13227   */\n      0x00\n        /* \"#utility.yul\":13215:13224   */\n      dup3\n        /* \"#utility.yul\":13211:13228   */\n      add\n        /* \"#utility.yul\":13198:13229   */\n      calldataload\n        /* \"#utility.yul\":13256:13274   */\n      0xffffffffffffffff\n        /* \"#utility.yul\":13248:13254   */\n      dup2\n        /* \"#utility.yul\":13245:13275   */\n      gt\n        /* \"#utility.yul\":13242:13359   */\n      iszero\n      tag_550\n      jumpi\n        /* \"#utility.yul\":13278:13357   */\n      tag_551\n      tag_362\n      jump\t// in\n    tag_551:\n        /* \"#utility.yul\":13242:13359   */\n    tag_550:\n        /* \"#utility.yul\":13383:13446   */\n      tag_552\n        /* \"#utility.yul\":13438:13445   */\n      dup5\n        /* \"#utility.yul\":13429:13435   */\n      dup3\n        /* \"#utility.yul\":13418:13427   */\n      dup6\n        /* \"#utility.yul\":13414:13436   */\n      add\n        /* \"#utility.yul\":13383:13446   */\n      tag_386\n      jump\t// in\n    tag_552:\n        /* \"#utility.yul\":13373:13446   */\n      swap2\n      pop\n        /* \"#utility.yul\":13169:13456   */\n      pop\n        /* \"#utility.yul\":12954:13463   */\n      swap3\n      swap2\n      pop\n      pop\n      jump\t// out\n        /* \"#utility.yul\":13469:13591   */\n    tag_387:\n        /* \"#utility.yul\":13542:13566   */\n      tag_554\n        /* \"#utility.yul\":13560:13565   */\n      dup2\n        /* \"#utility.yul\":13542:13566   */\n      tag_353\n      jump\t// in\n    tag_554:\n        /* \"#utility.yul\":13535:13540   */\n      dup2\n        /* \"#utility.yul\":13532:13567   */\n      eq\n        /* \"#utility.yul\":13522:13585   */\n      tag_555\n      jumpi\n        /* \"#utility.yul\":13581:13582   */\n      0x00\n        /* \"#utility.yul\":13578:13579   */\n      dup1\n        /* \"#utility.yul\":13571:13583   */\n      revert\n        /* \"#utility.yul\":13522:13585   */\n    tag_555:\n        /* \"#utility.yul\":13469:13591   */\n      pop\n      jump\t// out\n        /* \"#utility.yul\":13597:13736   */\n    tag_388:\n        /* \"#utility.yul\":13643:13648   */\n      0x00\n        /* \"#utility.yul\":13681:13687   */\n      dup2\n        /* \"#utility.yul\":13668:13688   */\n      calldataload\n        /* \"#utility.yul\":13659:13688   */\n      swap1\n      pop\n        /* \"#utility.yul\":13697:13730   */\n      tag_557\n        /* \"#utility.yul\":13724:13729   */\n      dup2\n        /* \"#utility.yul\":13697:13730   */\n      tag_387\n      jump\t// in\n    tag_557:\n        /* \"#utility.yul\":13597:13736   */\n      swap3\n      swap2\n      pop\n      pop\n      jump\t// out\n        /* \"#utility.yul\":13742:14071   */\n    tag_53:\n        /* \"#utility.yul\":13801:13807   */\n      0x00\n        /* \"#utility.yul\":13850:13852   */\n      0x20\n        /* \"#utility.yul\":13838:13847   */\n      dup3\n        /* \"#utility.yul\":13829:13836   */\n      dup5\n        /* \"#utility.yul\":13825:13848   */\n      sub\n        /* \"#utility.yul\":13821:13853   */\n      slt\n        /* \"#utility.yul\":13818:13937   */\n      iszero\n      tag_559\n      jumpi\n        /* \"#utility.yul\":13856:13935   */\n      tag_560\n      tag_361\n      jump\t// in\n    tag_560:\n        /* \"#utility.yul\":13818:13937   */\n    tag_559:\n        /* \"#utility.yul\":13976:13977   */\n      0x00\n        /* \"#utility.yul\":14001:14054   */\n      tag_561\n        /* \"#utility.yul\":14046:14053   */\n      dup5\n        /* \"#utility.yul\":14037:14043   */\n      dup3\n        /* \"#utility.yul\":14026:14035   */\n      dup6\n        /* \"#utility.yul\":14022:14044   */\n      add\n        /* \"#utility.yul\":14001:14054   */\n      tag_388\n      jump\t// in\n    tag_561:\n        /* \"#utility.yul\":13991:14054   */\n      swap2\n      pop\n        /* \"#utility.yul\":13947:14064   */\n      pop\n        /* \"#utility.yul\":13742:14071   */\n      swap3\n      swap2\n      pop\n      pop\n      jump\t// out\n        /* \"#utility.yul\":14147:15244   */\n    tag_389:\n        /* \"#utility.yul\":14262:14265   */\n      0x00\n        /* \"#utility.yul\":14298:14302   */\n      0x80\n        /* \"#utility.yul\":14293:14296   */\n      dup4\n        /* \"#utility.yul\":14289:14303   */\n      add\n        /* \"#utility.yul\":14385:14389   */\n      0x00\n        /* \"#utility.yul\":14378:14383   */\n      dup4\n        /* \"#utility.yul\":14374:14390   */\n      add\n        /* \"#utility.yul\":14368:14391   */\n      mload\n        /* \"#utility.yul\":14438:14441   */\n      dup5\n        /* \"#utility.yul\":14432:14436   */\n      dup3\n        /* \"#utility.yul\":14428:14442   */\n      sub\n        /* \"#utility.yul\":14421:14425   */\n      0x00\n        /* \"#utility.yul\":14416:14419   */\n      dup7\n        /* \"#utility.yul\":14412:14426   */\n      add\n        /* \"#utility.yul\":14405:14443   */\n      mstore\n        /* \"#utility.yul\":14464:14537   */\n      tag_563\n        /* \"#utility.yul\":14532:14536   */\n      dup3\n        /* \"#utility.yul\":14518:14530   */\n      dup3\n        /* \"#utility.yul\":14464:14537   */\n      tag_352\n      jump\t// in\n    tag_563:\n        /* \"#utility.yul\":14456:14537   */\n      swap2\n      pop\n        /* \"#utility.yul\":14313:14548   */\n      pop\n        /* \"#utility.yul\":14631:14635   */\n      0x20\n        /* \"#utility.yul\":14624:14629   */\n      dup4\n        /* \"#utility.yul\":14620:14636   */\n      add\n        /* \"#utility.yul\":14614:14637   */\n      mload\n        /* \"#utility.yul\":14650:14713   */\n      tag_564\n        /* \"#utility.yul\":14707:14711   */\n      0x20\n        /* \"#utility.yul\":14702:14705   */\n      dup7\n        /* \"#utility.yul\":14698:14712   */\n      add\n        /* \"#utility.yul\":14684:14696   */\n      dup3\n        /* \"#utility.yul\":14650:14713   */\n      tag_354\n      jump\t// in\n    tag_564:\n        /* \"#utility.yul\":14558:14723   */\n      pop\n        /* \"#utility.yul\":14805:14809   */\n      0x40\n        /* \"#utility.yul\":14798:14803   */\n      dup4\n        /* \"#utility.yul\":14794:14810   */\n      add\n        /* \"#utility.yul\":14788:14811   */\n      mload\n        /* \"#utility.yul\":14858:14861   */\n      dup5\n        /* \"#utility.yul\":14852:14856   */\n      dup3\n        /* \"#utility.yul\":14848:14862   */\n      sub\n        /* \"#utility.yul\":14841:14845   */\n      0x40\n        /* \"#utility.yul\":14836:14839   */\n      dup7\n        /* \"#utility.yul\":14832:14846   */\n      add\n        /* \"#utility.yul\":14825:14863   */\n      mstore\n        /* \"#utility.yul\":14884:14957   */\n      tag_565\n        /* \"#utility.yul\":14952:14956   */\n      dup3\n        /* \"#utility.yul\":14938:14950   */\n      dup3\n        /* \"#utility.yul\":14884:14957   */\n      tag_352\n      jump\t// in\n    tag_565:\n        /* \"#utility.yul\":14876:14957   */\n      swap2\n      pop\n        /* \"#utility.yul\":14733:14968   */\n      pop\n        /* \"#utility.yul\":15054:15058   */\n      0x60\n        /* \"#utility.yul\":15047:15052   */\n      dup4\n        /* \"#utility.yul\":15043:15059   */\n      add\n        /* \"#utility.yul\":15037:15060   */\n      mload\n        /* \"#utility.yul\":15107:15110   */\n      dup5\n        /* \"#utility.yul\":15101:15105   */\n      dup3\n        /* \"#utility.yul\":15097:15111   */\n      sub\n        /* \"#utility.yul\":15090:15094   */\n      0x60\n        /* \"#utility.yul\":15085:15088   */\n      dup7\n        /* \"#utility.yul\":15081:15095   */\n      add\n        /* \"#utility.yul\":15074:15112   */\n      mstore\n        /* \"#utility.yul\":15133:15206   */\n      tag_566\n        /* \"#utility.yul\":15201:15205   */\n      dup3\n        /* \"#utility.yul\":15187:15199   */\n      dup3\n        /* \"#utility.yul\":15133:15206   */\n      tag_352\n      jump\t// in\n    tag_566:\n        /* \"#utility.yul\":15125:15206   */\n      swap2\n      pop\n        /* \"#utility.yul\":14978:15217   */\n      pop\n        /* \"#utility.yul\":15234:15238   */\n      dup1\n        /* \"#utility.yul\":15227:15238   */\n      swap2\n      pop\n        /* \"#utility.yul\":14267:15244   */\n      pop\n        /* \"#utility.yul\":14147:15244   */\n      swap3\n      swap2\n      pop\n      pop\n      jump\t// out\n        /* \"#utility.yul\":15250:15615   */\n    tag_60:\n        /* \"#utility.yul\":15389:15393   */\n      0x00\n        /* \"#utility.yul\":15427:15429   */\n      0x20\n        /* \"#utility.yul\":15416:15425   */\n      dup3\n        /* \"#utility.yul\":15412:15430   */\n      add\n        /* \"#utility.yul\":15404:15430   */\n      swap1\n      pop\n        /* \"#utility.yul\":15476:15485   */\n      dup2\n        /* \"#utility.yul\":15470:15474   */\n      dup2\n        /* \"#utility.yul\":15466:15486   */\n      sub\n        /* \"#utility.yul\":15462:15463   */\n      0x00\n        /* \"#utility.yul\":15451:15460   */\n      dup4\n        /* \"#utility.yul\":15447:15464   */\n      add\n        /* \"#utility.yul\":15440:15487   */\n      mstore\n        /* \"#utility.yul\":15504:15608   */\n      tag_568\n        /* \"#utility.yul\":15603:15607   */\n      dup2\n        /* \"#utility.yul\":15594:15600   */\n      dup5\n        /* \"#utility.yul\":15504:15608   */\n      tag_389\n      jump\t// in\n    tag_568:\n        /* \"#utility.yul\":15496:15608   */\n      swap1\n      pop\n        /* \"#utility.yul\":15250:15615   */\n      swap3\n      swap2\n      pop\n      pop\n      jump\t// out\n        /* \"#utility.yul\":15621:15801   */\n    tag_390:\n        /* \"#utility.yul\":15669:15746   */\n      0x4e487b7100000000000000000000000000000000000000000000000000000000\n        /* \"#utility.yul\":15666:15667   */\n      0x00\n        /* \"#utility.yul\":15659:15747   */\n      mstore\n        /* \"#utility.yul\":15766:15770   */\n      0x22\n        /* \"#utility.yul\":15763:15764   */\n      0x04\n        /* \"#utility.yul\":15756:15771   */\n      mstore\n        /* \"#utility.yul\":15790:15794   */\n      0x24\n        /* \"#utility.yul\":15787:15788   */\n      0x00\n        /* \"#utility.yul\":15780:15795   */\n      revert\n        /* \"#utility.yul\":15807:16127   */\n    tag_66:\n        /* \"#utility.yul\":15851:15857   */\n      0x00\n        /* \"#utility.yul\":15888:15889   */\n      0x02\n        /* \"#utility.yul\":15882:15886   */\n      dup3\n        /* \"#utility.yul\":15878:15890   */\n      div\n        /* \"#utility.yul\":15868:15890   */\n      swap1\n      pop\n        /* \"#utility.yul\":15935:15936   */\n      0x01\n        /* \"#utility.yul\":15929:15933   */\n      dup3\n        /* \"#utility.yul\":15925:15937   */\n      and\n        /* \"#utility.yul\":15956:15974   */\n      dup1\n        /* \"#utility.yul\":15946:16027   */\n      tag_571\n      jumpi\n        /* \"#utility.yul\":16012:16016   */\n      0x7f\n        /* \"#utility.yul\":16004:16010   */\n      dup3\n        /* \"#utility.yul\":16000:16017   */\n      and\n        /* \"#utility.yul\":15990:16017   */\n      swap2\n      pop\n        /* \"#utility.yul\":15946:16027   */\n    tag_571:\n        /* \"#utility.yul\":16074:16076   */\n      0x20\n        /* \"#utility.yul\":16066:16072   */\n      dup3\n        /* \"#utility.yul\":16063:16077   */\n      lt\n        /* \"#utility.yul\":16043:16061   */\n      dup2\n        /* \"#utility.yul\":16040:16078   */\n      sub\n        /* \"#utility.yul\":16037:16121   */\n      tag_572\n      jumpi\n        /* \"#utility.yul\":16093:16111   */\n      tag_573\n      tag_390\n      jump\t// in\n    tag_573:\n        /* \"#utility.yul\":16037:16121   */\n    tag_572:\n        /* \"#utility.yul\":15858:16127   */\n      pop\n        /* \"#utility.yul\":15807:16127   */\n      swap2\n      swap1\n      pop\n      jump\t// out\n        /* \"#utility.yul\":16133:16302   */\n    tag_391:\n        /* \"#utility.yul\":16217:16228   */\n      0x00\n        /* \"#utility.yul\":16251:16257   */\n      dup3\n        /* \"#utility.yul\":16246:16249   */\n      dup3\n        /* \"#utility.yul\":16239:16258   */\n      mstore\n        /* \"#utility.yul\":16291:16295   */\n      0x20\n        /* \"#utility.yul\":16286:16289   */\n      dup3\n        /* \"#utility.yul\":16282:16296   */\n      add\n        /* \"#utility.yul\":16267:16296   */\n      swap1\n      pop\n        /* \"#utility.yul\":16133:16302   */\n      swap3\n      swap2\n      pop\n      pop\n      jump\t// out\n        /* \"#utility.yul\":16308:16528   */\n    tag_392:\n        /* \"#utility.yul\":16448:16482   */\n      0x4f6e6c79206f776e65722063616e2063616c6c20746869732066756e6374696f\n        /* \"#utility.yul\":16444:16445   */\n      0x00\n        /* \"#utility.yul\":16436:16442   */\n      dup3\n        /* \"#utility.yul\":16432:16446   */\n      add\n        /* \"#utility.yul\":16425:16483   */\n      mstore\n        /* \"#utility.yul\":16517:16520   */\n      0x6e00000000000000000000000000000000000000000000000000000000000000\n        /* \"#utility.yul\":16512:16514   */\n      0x20\n        /* \"#utility.yul\":16504:16510   */\n      dup3\n        /* \"#utility.yul\":16500:16515   */\n      add\n        /* \"#utility.yul\":16493:16521   */\n      mstore\n        /* \"#utility.yul\":16308:16528   */\n      pop\n      jump\t// out\n        /* \"#utility.yul\":16534:16900   */\n    tag_393:\n        /* \"#utility.yul\":16676:16679   */\n      0x00\n        /* \"#utility.yul\":16697:16764   */\n      tag_577\n        /* \"#utility.yul\":16761:16763   */\n      0x21\n        /* \"#utility.yul\":16756:16759   */\n      dup4\n        /* \"#utility.yul\":16697:16764   */\n      tag_391\n      jump\t// in\n    tag_577:\n        /* \"#utility.yul\":16690:16764   */\n      swap2\n      pop\n        /* \"#utility.yul\":16773:16866   */\n      tag_578\n        /* \"#utility.yul\":16862:16865   */\n      dup3\n        /* \"#utility.yul\":16773:16866   */\n      tag_392\n      jump\t// in\n    tag_578:\n        /* \"#utility.yul\":16891:16893   */\n      0x40\n        /* \"#utility.yul\":16886:16889   */\n      dup3\n        /* \"#utility.yul\":16882:16894   */\n      add\n        /* \"#utility.yul\":16875:16894   */\n      swap1\n      pop\n        /* \"#utility.yul\":16534:16900   */\n      swap2\n      swap1\n      pop\n      jump\t// out\n        /* \"#utility.yul\":16906:17325   */\n    tag_84:\n        /* \"#utility.yul\":17072:17076   */\n      0x00\n        /* \"#utility.yul\":17110:17112   */\n      0x20\n        /* \"#utility.yul\":17099:17108   */\n      dup3\n        /* \"#utility.yul\":17095:17113   */\n      add\n        /* \"#utility.yul\":17087:17113   */\n      swap1\n      pop\n        /* \"#utility.yul\":17159:17168   */\n      dup2\n        /* \"#utility.yul\":17153:17157   */\n      dup2\n        /* \"#utility.yul\":17149:17169   */\n      sub\n        /* \"#utility.yul\":17145:17146   */\n      0x00\n        /* \"#utility.yul\":17134:17143   */\n      dup4\n        /* \"#utility.yul\":17130:17147   */\n      add\n        /* \"#utility.yul\":17123:17170   */\n      mstore\n        /* \"#utility.yul\":17187:17318   */\n      tag_580\n        /* \"#utility.yul\":17313:17317   */\n      dup2\n        /* \"#utility.yul\":17187:17318   */\n      tag_393\n      jump\t// in\n    tag_580:\n        /* \"#utility.yul\":17179:17318   */\n      swap1\n      pop\n        /* \"#utility.yul\":16906:17325   */\n      swap2\n      swap1\n      pop\n      jump\t// out\n        /* \"#utility.yul\":17331:17511   */\n    tag_102:\n        /* \"#utility.yul\":17379:17456   */\n      0x4e487b7100000000000000000000000000000000000000000000000000000000\n        /* \"#utility.yul\":17376:17377   */\n      0x00\n        /* \"#utility.yul\":17369:17457   */\n      mstore\n        /* \"#utility.yul\":17476:17480   */\n      0x32\n        /* \"#utility.yul\":17473:17474   */\n      0x04\n        /* \"#utility.yul\":17466:17481   */\n      mstore\n        /* \"#utility.yul\":17500:17504   */\n      0x24\n        /* \"#utility.yul\":17497:17498   */\n      0x00\n        /* \"#utility.yul\":17490:17505   */\n      revert\n        /* \"#utility.yul\":17517:17697   */\n    tag_394:\n        /* \"#utility.yul\":17565:17642   */\n      0x4e487b7100000000000000000000000000000000000000000000000000000000\n        /* \"#utility.yul\":17562:17563   */\n      0x00\n        /* \"#utility.yul\":17555:17643   */\n      mstore\n        /* \"#utility.yul\":17662:17666   */\n      0x11\n        /* \"#utility.yul\":17659:17660   */\n      0x04\n        /* \"#utility.yul\":17652:17667   */\n      mstore\n        /* \"#utility.yul\":17686:17690   */\n      0x24\n        /* \"#utility.yul\":17683:17684   */\n      0x00\n        /* \"#utility.yul\":17676:17691   */\n      revert\n        /* \"#utility.yul\":17703:17936   */\n    tag_129:\n        /* \"#utility.yul\":17742:17745   */\n      0x00\n        /* \"#utility.yul\":17765:17789   */\n      tag_584\n        /* \"#utility.yul\":17783:17788   */\n      dup3\n        /* \"#utility.yul\":17765:17789   */\n      tag_353\n      jump\t// in\n    tag_584:\n        /* \"#utility.yul\":17756:17789   */\n      swap2\n      pop\n        /* \"#utility.yul\":17811:17877   */\n      0xffffffffffffffffffffffffffffffffffffffffffffffffffffffffffffffff\n        /* \"#utility.yul\":17804:17809   */\n      dup3\n        /* \"#utility.yul\":17801:17878   */\n      sub\n        /* \"#utility.yul\":17798:17901   */\n      tag_585\n      jumpi\n        /* \"#utility.yul\":17881:17899   */\n      tag_586\n      tag_394\n      jump\t// in\n    tag_586:\n        /* \"#utility.yul\":17798:17901   */\n    tag_585:\n        /* \"#utility.yul\":17928:17929   */\n      0x01\n        /* \"#utility.yul\":17921:17926   */\n      dup3\n        /* \"#utility.yul\":17917:17930   */\n      add\n        /* \"#utility.yul\":17910:17930   */\n      swap1\n      pop\n        /* \"#utility.yul\":17703:17936   */\n      swap2\n      swap1\n      pop\n      jump\t// out\n        /* \"#utility.yul\":17942:18110   */\n    tag_395:\n        /* \"#utility.yul\":18082:18102   */\n      0x496e73756666696369656e742066756e64730000000000000000000000000000\n        /* \"#utility.yul\":18078:18079   */\n      0x00\n        /* \"#utility.yul\":18070:18076   */\n      dup3\n        /* \"#utility.yul\":18066:18080   */\n      add\n        /* \"#utility.yul\":18059:18103   */\n      mstore\n        /* \"#utility.yul\":17942:18110   */\n      pop\n      jump\t// out\n        /* \"#utility.yul\":18116:18482   */\n    tag_396:\n        /* \"#utility.yul\":18258:18261   */\n      0x00\n        /* \"#utility.yul\":18279:18346   */\n      tag_589\n        /* \"#utility.yul\":18343:18345   */\n      0x12\n        /* \"#utility.yul\":18338:18341   */\n      dup4\n        /* \"#utility.yul\":18279:18346   */\n      tag_391\n      jump\t// in\n    tag_589:\n        /* \"#utility.yul\":18272:18346   */\n      swap2\n      pop\n        /* \"#utility.yul\":18355:18448   */\n      tag_590\n        /* \"#utility.yul\":18444:18447   */\n      dup3\n        /* \"#utility.yul\":18355:18448   */\n      tag_395\n      jump\t// in\n    tag_590:\n        /* \"#utility.yul\":18473:18475   */\n      0x20\n        /* \"#utility.yul\":18468:18471   */\n      dup3\n        /* \"#utility.yul\":18464:18476   */\n      add\n        /* \"#utility.yul\":18457:18476   */\n      swap1\n      pop\n        /* \"#utility.yul\":18116:18482   */\n      swap2\n      swap1\n      pop\n      jump\t// out\n        /* \"#utility.yul\":18488:18907   */\n    tag_149:\n        /* \"#utility.yul\":18654:18658   */\n      0x00\n        /* \"#utility.yul\":18692:18694   */\n      0x20\n        /* \"#utility.yul\":18681:18690   */\n      dup3\n        /* \"#utility.yul\":18677:18695   */\n      add\n        /* \"#utility.yul\":18669:18695   */\n      swap1\n      pop\n        /* \"#utility.yul\":18741:18750   */\n      dup2\n        /* \"#utility.yul\":18735:18739   */\n      dup2\n        /* \"#utility.yul\":18731:18751   */\n      sub\n        /* \"#utility.yul\":18727:18728   */\n      0x00\n        /* \"#utility.yul\":18716:18725   */\n      dup4\n        /* \"#utility.yul\":18712:18729   */\n      add\n        /* \"#utility.yul\":18705:18752   */\n      mstore\n        /* \"#utility.yul\":18769:18900   */\n      tag_592\n        /* \"#utility.yul\":18895:18899   */\n      dup2\n        /* \"#utility.yul\":18769:18900   */\n      tag_396\n      jump\t// in\n    tag_592:\n        /* \"#utility.yul\":18761:18900   */\n      swap1\n      pop\n        /* \"#utility.yul\":18488:18907   */\n      swap2\n      swap1\n      pop\n      jump\t// out\n        /* \"#utility.yul\":18913:19107   */\n    tag_151:\n        /* \"#utility.yul\":18953:18957   */\n      0x00\n        /* \"#utility.yul\":18973:18993   */\n      tag_594\n        /* \"#utility.yul\":18991:18992   */\n      dup3\n        /* \"#utility.yul\":18973:18993   */\n      tag_353\n      jump\t// in\n    tag_594:\n        /* \"#utility.yul\":18968:18993   */\n      swap2\n      pop\n        /* \"#utility.yul\":19007:19027   */\n      tag_595\n        /* \"#utility.yul\":19025:19026   */\n      dup4\n        /* \"#utility.yul\":19007:19027   */\n      tag_353\n      jump\t// in\n    tag_595:\n        /* \"#utility.yul\":19002:19027   */\n      swap3\n      pop\n        /* \"#utility.yul\":19051:19052   */\n      dup3\n        /* \"#utility.yul\":19048:19049   */\n      dup3\n        /* \"#utility.yul\":19044:19053   */\n      sub\n        /* \"#utility.yul\":19036:19053   */\n      swap1\n      pop\n        /* \"#utility.yul\":19075:19076   */\n      dup2\n        /* \"#utility.yul\":19069:19073   */\n      dup2\n        /* \"#utility.yul\":19066:19077   */\n      gt\n        /* \"#utility.yul\":19063:19100   */\n      iszero\n      tag_596\n      jumpi\n        /* \"#utility.yul\":19080:19098   */\n      tag_597\n      tag_394\n      jump\t// in\n    tag_597:\n        /* \"#utility.yul\":19063:19100   */\n    tag_596:\n        /* \"#utility.yul\":18913:19107   */\n      swap3\n      swap2\n      pop\n      pop\n      jump\t// out\n        /* \"#utility.yul\":19113:19254   */\n    tag_397:\n        /* \"#utility.yul\":19162:19166   */\n      0x00\n        /* \"#utility.yul\":19185:19188   */\n      dup2\n        /* \"#utility.yul\":19177:19188   */\n      swap1\n      pop\n        /* \"#utility.yul\":19208:19211   */\n      dup2\n        /* \"#utility.yul\":19205:19206   */\n      0x00\n        /* \"#utility.yul\":19198:19212   */\n      mstore\n        /* \"#utility.yul\":19242:19246   */\n      0x20\n        /* \"#utility.yul\":19239:19240   */\n      0x00\n        /* \"#utility.yul\":19229:19247   */\n      keccak256\n        /* \"#utility.yul\":19221:19247   */\n      swap1\n      pop\n        /* \"#utility.yul\":19113:19254   */\n      swap2\n      swap1\n      pop\n      jump\t// out\n        /* \"#utility.yul\":19260:19353   */\n    tag_398:\n        /* \"#utility.yul\":19297:19303   */\n      0x00\n        /* \"#utility.yul\":19344:19346   */\n      0x20\n        /* \"#utility.yul\":19339:19341   */\n      0x1f\n        /* \"#utility.yul\":19332:19337   */\n      dup4\n        /* \"#utility.yul\":19328:19342   */\n      add\n        /* \"#utility.yul\":19324:19347   */\n      div\n        /* \"#utility.yul\":19314:19347   */\n      swap1\n      pop\n        /* \"#utility.yul\":19260:19353   */\n      swap2\n      swap1\n      pop\n      jump\t// out\n        /* \"#utility.yul\":19359:19466   */\n    tag_399:\n        /* \"#utility.yul\":19403:19411   */\n      0x00\n        /* \"#utility.yul\":19453:19458   */\n      dup3\n        /* \"#utility.yul\":19447:19451   */\n      dup3\n        /* \"#utility.yul\":19443:19459   */\n      shl\n        /* \"#utility.yul\":19422:19459   */\n      swap1\n      pop\n        /* \"#utility.yul\":19359:19466   */\n      swap3\n      swap2\n      pop\n      pop\n      jump\t// out\n        /* \"#utility.yul\":19472:19865   */\n    tag_400:\n        /* \"#utility.yul\":19541:19547   */\n      0x00\n        /* \"#utility.yul\":19591:19592   */\n      0x08\n        /* \"#utility.yul\":19579:19589   */\n      dup4\n        /* \"#utility.yul\":19575:19593   */\n      mul\n        /* \"#utility.yul\":19614:19711   */\n      tag_602\n        /* \"#utility.yul\":19644:19710   */\n      0xffffffffffffffffffffffffffffffffffffffffffffffffffffffffffffffff\n        /* \"#utility.yul\":19633:19642   */\n      dup3\n        /* \"#utility.yul\":19614:19711   */\n      tag_399\n      jump\t// in\n    tag_602:\n        /* \"#utility.yul\":19732:19771   */\n      tag_603\n        /* \"#utility.yul\":19762:19770   */\n      dup7\n        /* \"#utility.yul\":19751:19760   */\n      dup4\n        /* \"#utility.yul\":19732:19771   */\n      tag_399\n      jump\t// in\n    tag_603:\n        /* \"#utility.yul\":19720:19771   */\n      swap6\n      pop\n        /* \"#utility.yul\":19804:19808   */\n      dup1\n        /* \"#utility.yul\":19800:19809   */\n      not\n        /* \"#utility.yul\":19793:19798   */\n      dup5\n        /* \"#utility.yul\":19789:19810   */\n      and\n        /* \"#utility.yul\":19780:19810   */\n      swap4\n      pop\n        /* \"#utility.yul\":19853:19857   */\n      dup1\n        /* \"#utility.yul\":19843:19851   */\n      dup7\n        /* \"#utility.yul\":19839:19858   */\n      and\n        /* \"#utility.yul\":19832:19837   */\n      dup5\n        /* \"#utility.yul\":19829:19859   */\n      or\n        /* \"#utility.yul\":19819:19859   */\n      swap3\n      pop\n        /* \"#utility.yul\":19548:19865   */\n      pop\n      pop\n        /* \"#utility.yul\":19472:19865   */\n      swap4\n      swap3\n      pop\n      pop\n      pop\n      jump\t// out\n        /* \"#utility.yul\":19871:19931   */\n    tag_401:\n        /* \"#utility.yul\":19899:19902   */\n      0x00\n        /* \"#utility.yul\":19920:19925   */\n      dup2\n        /* \"#utility.yul\":19913:19925   */\n      swap1\n      pop\n        /* \"#utility.yul\":19871:19931   */\n      swap2\n      swap1\n      pop\n      jump\t// out\n        /* \"#utility.yul\":19937:20079   */\n    tag_402:\n        /* \"#utility.yul\":19987:19996   */\n      0x00\n        /* \"#utility.yul\":20020:20073   */\n      tag_606\n        /* \"#utility.yul\":20038:20072   */\n      tag_607\n        /* \"#utility.yul\":20047:20071   */\n      tag_608\n        /* \"#utility.yul\":20065:20070   */\n      dup5\n        /* \"#utility.yul\":20047:20071   */\n      tag_353\n      jump\t// in\n    tag_608:\n        /* \"#utility.yul\":20038:20072   */\n      tag_401\n      jump\t// in\n    tag_607:\n        /* \"#utility.yul\":20020:20073   */\n      tag_353\n      jump\t// in\n    tag_606:\n        /* \"#utility.yul\":20007:20073   */\n      swap1\n      pop\n        /* \"#utility.yul\":19937:20079   */\n      swap2\n      swap1\n      pop\n      jump\t// out\n        /* \"#utility.yul\":20085:20160   */\n    tag_403:\n        /* \"#utility.yul\":20128:20131   */\n      0x00\n        /* \"#utility.yul\":20149:20154   */\n      dup2\n        /* \"#utility.yul\":20142:20154   */\n      swap1\n      pop\n        /* \"#utility.yul\":20085:20160   */\n      swap2\n      swap1\n      pop\n      jump\t// out\n        /* \"#utility.yul\":20166:20435   */\n    tag_404:\n        /* \"#utility.yul\":20276:20315   */\n      tag_611\n        /* \"#utility.yul\":20307:20314   */\n      dup4\n        /* \"#utility.yul\":20276:20315   */\n      tag_402\n      jump\t// in\n    tag_611:\n        /* \"#utility.yul\":20337:20428   */\n      tag_612\n        /* \"#utility.yul\":20386:20427   */\n      tag_613\n        /* \"#utility.yul\":20410:20426   */\n      dup3\n        /* \"#utility.yul\":20386:20427   */\n      tag_403\n      jump\t// in\n    tag_613:\n        /* \"#utility.yul\":20378:20384   */\n      dup5\n        /* \"#utility.yul\":20371:20375   */\n      dup5\n        /* \"#utility.yul\":20365:20376   */\n      sload\n        /* \"#utility.yul\":20337:20428   */\n      tag_400\n      jump\t// in\n    tag_612:\n        /* \"#utility.yul\":20331:20335   */\n      dup3\n        /* \"#utility.yul\":20324:20429   */\n      sstore\n        /* \"#utility.yul\":20242:20435   */\n      pop\n        /* \"#utility.yul\":20166:20435   */\n      pop\n      pop\n      pop\n      jump\t// out\n        /* \"#utility.yul\":20441:20514   */\n    tag_405:\n        /* \"#utility.yul\":20486:20489   */\n      0x00\n        /* \"#utility.yul\":20441:20514   */\n      swap1\n      jump\t// out\n        /* \"#utility.yul\":20520:20709   */\n    tag_406:\n        /* \"#utility.yul\":20597:20629   */\n      tag_616\n      tag_405\n      jump\t// in\n    tag_616:\n        /* \"#utility.yul\":20638:20703   */\n      tag_617\n        /* \"#utility.yul\":20696:20702   */\n      dup2\n        /* \"#utility.yul\":20688:20694   */\n      dup5\n        /* \"#utility.yul\":20682:20686   */\n      dup5\n        /* \"#utility.yul\":20638:20703   */\n      tag_404\n      jump\t// in\n    tag_617:\n        /* \"#utility.yul\":20573:20709   */\n      pop\n        /* \"#utility.yul\":20520:20709   */\n      pop\n      pop\n      jump\t// out\n        /* \"#utility.yul\":20715:20901   */\n    tag_407:\n        /* \"#utility.yul\":20775:20895   */\n    tag_619:\n        /* \"#utility.yul\":20792:20795   */\n      dup2\n        /* \"#utility.yul\":20785:20790   */\n      dup2\n        /* \"#utility.yul\":20782:20796   */\n      lt\n        /* \"#utility.yul\":20775:20895   */\n      iszero\n      tag_621\n      jumpi\n        /* \"#utility.yul\":20846:20885   */\n      tag_622\n        /* \"#utility.yul\":20883:20884   */\n      0x00\n        /* \"#utility.yul\":20876:20881   */\n      dup3\n        /* \"#utility.yul\":20846:20885   */\n      tag_406\n      jump\t// in\n    tag_622:\n        /* \"#utility.yul\":20819:20820   */\n      0x01\n        /* \"#utility.yul\":20812:20817   */\n      dup2\n        /* \"#utility.yul\":20808:20821   */\n      add\n        /* \"#utility.yul\":20799:20821   */\n      swap1\n      pop\n        /* \"#utility.yul\":20775:20895   */\n      jump(tag_619)\n    tag_621:\n        /* \"#utility.yul\":20715:20901   */\n      pop\n      pop\n      jump\t// out\n        /* \"#utility.yul\":20907:21450   */\n    tag_408:\n        /* \"#utility.yul\":21008:21010   */\n      0x1f\n        /* \"#utility.yul\":21003:21006   */\n      dup3\n        /* \"#utility.yul\":21000:21011   */\n      gt\n        /* \"#utility.yul\":20997:21443   */\n      iszero\n      tag_624\n      jumpi\n        /* \"#utility.yul\":21042:21080   */\n      tag_625\n        /* \"#utility.yul\":21074:21079   */\n      dup2\n        /* \"#utility.yul\":21042:21080   */\n      tag_397\n      jump\t// in\n    tag_625:\n        /* \"#utility.yul\":21126:21155   */\n      tag_626\n        /* \"#utility.yul\":21144:21154   */\n      dup5\n        /* \"#utility.yul\":21126:21155   */\n      tag_398\n      jump\t// in\n    tag_626:\n        /* \"#utility.yul\":21116:21124   */\n      dup2\n        /* \"#utility.yul\":21112:21156   */\n      add\n        /* \"#utility.yul\":21309:21311   */\n      0x20\n        /* \"#utility.yul\":21297:21307   */\n      dup6\n        /* \"#utility.yul\":21294:21312   */\n      lt\n        /* \"#utility.yul\":21291:21340   */\n      iszero\n      tag_627\n      jumpi\n        /* \"#utility.yul\":21330:21338   */\n      dup2\n        /* \"#utility.yul\":21315:21338   */\n      swap1\n      pop\n        /* \"#utility.yul\":21291:21340   */\n    tag_627:\n        /* \"#utility.yul\":21353:21433   */\n      tag_628\n        /* \"#utility.yul\":21409:21431   */\n      tag_629\n        /* \"#utility.yul\":21427:21430   */\n      dup6\n        /* \"#utility.yul\":21409:21431   */\n      tag_398\n      jump\t// in\n    tag_629:\n        /* \"#utility.yul\":21399:21407   */\n      dup4\n        /* \"#utility.yul\":21395:21432   */\n      add\n        /* \"#utility.yul\":21382:21393   */\n      dup3\n        /* \"#utility.yul\":21353:21433   */\n      tag_407\n      jump\t// in\n    tag_628:\n        /* \"#utility.yul\":21012:21443   */\n      pop\n      pop\n        /* \"#utility.yul\":20997:21443   */\n    tag_624:\n        /* \"#utility.yul\":20907:21450   */\n      pop\n      pop\n      pop\n      jump\t// out\n        /* \"#utility.yul\":21456:21573   */\n    tag_409:\n        /* \"#utility.yul\":21510:21518   */\n      0x00\n        /* \"#utility.yul\":21560:21565   */\n      dup3\n        /* \"#utility.yul\":21554:21558   */\n      dup3\n        /* \"#utility.yul\":21550:21566   */\n      shr\n        /* \"#utility.yul\":21529:21566   */\n      swap1\n      pop\n        /* \"#utility.yul\":21456:21573   */\n      swap3\n      swap2\n      pop\n      pop\n      jump\t// out\n        /* \"#utility.yul\":21579:21748   */\n    tag_410:\n        /* \"#utility.yul\":21623:21629   */\n      0x00\n        /* \"#utility.yul\":21656:21707   */\n      tag_632\n        /* \"#utility.yul\":21704:21705   */\n      0x00\n        /* \"#utility.yul\":21700:21706   */\n      not\n        /* \"#utility.yul\":21692:21697   */\n      dup5\n        /* \"#utility.yul\":21689:21690   */\n      0x08\n        /* \"#utility.yul\":21685:21698   */\n      mul\n        /* \"#utility.yul\":21656:21707   */\n      tag_409\n      jump\t// in\n    tag_632:\n        /* \"#utility.yul\":21652:21708   */\n      not\n        /* \"#utility.yul\":21737:21741   */\n      dup1\n        /* \"#utility.yul\":21731:21735   */\n      dup4\n        /* \"#utility.yul\":21727:21742   */\n      and\n        /* \"#utility.yul\":21717:21742   */\n      swap2\n      pop\n        /* \"#utility.yul\":21630:21748   */\n      pop\n        /* \"#utility.yul\":21579:21748   */\n      swap3\n      swap2\n      pop\n      pop\n      jump\t// out\n        /* \"#utility.yul\":21753:22048   */\n    tag_411:\n        /* \"#utility.yul\":21829:21833   */\n      0x00\n        /* \"#utility.yul\":21975:22004   */\n      tag_634\n        /* \"#utility.yul\":22000:22003   */\n      dup4\n        /* \"#utility.yul\":21994:21998   */\n      dup4\n        /* \"#utility.yul\":21975:22004   */\n      tag_410\n      jump\t// in\n    tag_634:\n        /* \"#utility.yul\":21967:22004   */\n      swap2\n      pop\n        /* \"#utility.yul\":22037:22040   */\n      dup3\n        /* \"#utility.yul\":22034:22035   */\n      0x02\n        /* \"#utility.yul\":22030:22041   */\n      mul\n        /* \"#utility.yul\":22024:22028   */\n      dup3\n        /* \"#utility.yul\":22021:22042   */\n      or\n        /* \"#utility.yul\":22013:22042   */\n      swap1\n      pop\n        /* \"#utility.yul\":21753:22048   */\n      swap3\n      swap2\n      pop\n      pop\n      jump\t// out\n        /* \"#utility.yul\":22053:23448   */\n    tag_156:\n        /* \"#utility.yul\":22170:22207   */\n      tag_636\n        /* \"#utility.yul\":22203:22206   */\n      dup3\n        /* \"#utility.yul\":22170:22207   */\n      tag_348\n      jump\t// in\n    tag_636:\n        /* \"#utility.yul\":22272:22290   */\n      0xffffffffffffffff\n        /* \"#utility.yul\":22264:22270   */\n      dup2\n        /* \"#utility.yul\":22261:22291   */\n      gt\n        /* \"#utility.yul\":22258:22314   */\n      iszero\n      tag_637\n      jumpi\n        /* \"#utility.yul\":22294:22312   */\n      tag_638\n      tag_92\n      jump\t// in\n    tag_638:\n        /* \"#utility.yul\":22258:22314   */\n    tag_637:\n        /* \"#utility.yul\":22338:22376   */\n      tag_639\n        /* \"#utility.yul\":22370:22374   */\n      dup3\n        /* \"#utility.yul\":22364:22375   */\n      sload\n        /* \"#utility.yul\":22338:22376   */\n      tag_66\n      jump\t// in\n    tag_639:\n        /* \"#utility.yul\":22423:22490   */\n      tag_640\n        /* \"#utility.yul\":22483:22489   */\n      dup3\n        /* \"#utility.yul\":22475:22481   */\n      dup3\n        /* \"#utility.yul\":22469:22473   */\n      dup6\n        /* \"#utility.yul\":22423:22490   */\n      tag_408\n      jump\t// in\n    tag_640:\n        /* \"#utility.yul\":22517:22518   */\n      0x00\n        /* \"#utility.yul\":22541:22545   */\n      0x20\n        /* \"#utility.yul\":22528:22545   */\n      swap1\n      pop\n        /* \"#utility.yul\":22573:22575   */\n      0x1f\n        /* \"#utility.yul\":22565:22571   */\n      dup4\n        /* \"#utility.yul\":22562:22576   */\n      gt\n        /* \"#utility.yul\":22590:22591   */\n      0x01\n        /* \"#utility.yul\":22585:23203   */\n      dup2\n      eq\n      tag_642\n      jumpi\n        /* \"#utility.yul\":23247:23248   */\n      0x00\n        /* \"#utility.yul\":23264:23270   */\n      dup5\n        /* \"#utility.yul\":23261:23338   */\n      iszero\n      tag_643\n      jumpi\n        /* \"#utility.yul\":23313:23322   */\n      dup3\n        /* \"#utility.yul\":23308:23311   */\n      dup8\n        /* \"#utility.yul\":23304:23323   */\n      add\n        /* \"#utility.yul\":23298:23324   */\n      mload\n        /* \"#utility.yul\":23289:23324   */\n      swap1\n      pop\n        /* \"#utility.yul\":23261:23338   */\n    tag_643:\n        /* \"#utility.yul\":23364:23431   */\n      tag_644\n        /* \"#utility.yul\":23424:23430   */\n      dup6\n        /* \"#utility.yul\":23417:23422   */\n      dup3\n        /* \"#utility.yul\":23364:23431   */\n      tag_411\n      jump\t// in\n    tag_644:\n        /* \"#utility.yul\":23358:23362   */\n      dup7\n        /* \"#utility.yul\":23351:23432   */\n      sstore\n        /* \"#utility.yul\":23220:23442   */\n      pop\n        /* \"#utility.yul\":22555:23442   */\n      jump(tag_641)\n        /* \"#utility.yul\":22585:23203   */\n    tag_642:\n        /* \"#utility.yul\":22637:22641   */\n      0x1f\n        /* \"#utility.yul\":22633:22642   */\n      not\n        /* \"#utility.yul\":22625:22631   */\n      dup5\n        /* \"#utility.yul\":22621:22643   */\n      and\n        /* \"#utility.yul\":22671:22708   */\n      tag_645\n        /* \"#utility.yul\":22703:22707   */\n      dup7\n        /* \"#utility.yul\":22671:22708   */\n      tag_397\n      jump\t// in\n    tag_645:\n        /* \"#utility.yul\":22730:22731   */\n      0x00\n        /* \"#utility.yul\":22744:22952   */\n    tag_646:\n        /* \"#utility.yul\":22758:22765   */\n      dup3\n        /* \"#utility.yul\":22755:22756   */\n      dup2\n        /* \"#utility.yul\":22752:22766   */\n      lt\n        /* \"#utility.yul\":22744:22952   */\n      iszero\n      tag_648\n      jumpi\n        /* \"#utility.yul\":22837:22846   */\n      dup5\n        /* \"#utility.yul\":22832:22835   */\n      dup10\n        /* \"#utility.yul\":22828:22847   */\n      add\n        /* \"#utility.yul\":22822:22848   */\n      mload\n        /* \"#utility.yul\":22814:22820   */\n      dup3\n        /* \"#utility.yul\":22807:22849   */\n      sstore\n        /* \"#utility.yul\":22888:22889   */\n      0x01\n        /* \"#utility.yul\":22880:22886   */\n      dup3\n        /* \"#utility.yul\":22876:22890   */\n      add\n        /* \"#utility.yul\":22866:22890   */\n      swap2\n      pop\n        /* \"#utility.yul\":22935:22937   */\n      0x20\n        /* \"#utility.yul\":22924:22933   */\n      dup6\n        /* \"#utility.yul\":22920:22938   */\n      add\n        /* \"#utility.yul\":22907:22938   */\n      swap5\n      pop\n        /* \"#utility.yul\":22781:22785   */\n      0x20\n        /* \"#utility.yul\":22778:22779   */\n      dup2\n        /* \"#utility.yul\":22774:22786   */\n      add\n        /* \"#utility.yul\":22769:22786   */\n      swap1\n      pop\n        /* \"#utility.yul\":22744:22952   */\n      jump(tag_646)\n    tag_648:\n        /* \"#utility.yul\":22980:22986   */\n      dup7\n        /* \"#utility.yul\":22971:22978   */\n      dup4\n        /* \"#utility.yul\":22968:22987   */\n      lt\n        /* \"#utility.yul\":22965:23144   */\n      iszero\n      tag_649\n      jumpi\n        /* \"#utility.yul\":23038:23047   */\n      dup5\n        /* \"#utility.yul\":23033:23036   */\n      dup10\n        /* \"#utility.yul\":23029:23048   */\n      add\n        /* \"#utility.yul\":23023:23049   */\n      mload\n        /* \"#utility.yul\":23081:23129   */\n      tag_650\n        /* \"#utility.yul\":23123:23127   */\n      0x1f\n        /* \"#utility.yul\":23115:23121   */\n      dup10\n        /* \"#utility.yul\":23111:23128   */\n      and\n        /* \"#utility.yul\":23100:23109   */\n      dup3\n        /* \"#utility.yul\":23081:23129   */\n      tag_410\n      jump\t// in\n    tag_650:\n        /* \"#utility.yul\":23073:23079   */\n      dup4\n        /* \"#utility.yul\":23066:23130   */\n      sstore\n        /* \"#utility.yul\":22988:23144   */\n      pop\n        /* \"#utility.yul\":22965:23144   */\n    tag_649:\n        /* \"#utility.yul\":23190:23191   */\n      0x01\n        /* \"#utility.yul\":23186:23187   */\n      0x02\n        /* \"#utility.yul\":23178:23184   */\n      dup9\n        /* \"#utility.yul\":23174:23188   */\n      mul\n        /* \"#utility.yul\":23170:23192   */\n      add\n        /* \"#utility.yul\":23164:23168   */\n      dup9\n        /* \"#utility.yul\":23157:23193   */\n      sstore\n        /* \"#utility.yul\":22592:23203   */\n      pop\n      pop\n      pop\n        /* \"#utility.yul\":22555:23442   */\n    tag_641:\n      pop\n        /* \"#utility.yul\":22145:23448   */\n      pop\n      pop\n      pop\n        /* \"#utility.yul\":22053:23448   */\n      pop\n      pop\n      jump\t// out\n        /* \"#utility.yul\":23454:23617   */\n    tag_412:\n        /* \"#utility.yul\":23594:23609   */\n      0x4e6f207265656e7472616e637900000000000000000000000000000000000000\n        /* \"#utility.yul\":23590:23591   */\n      0x00\n        /* \"#utility.yul\":23582:23588   */\n      dup3\n        /* \"#utility.yul\":23578:23592   */\n      add\n        /* \"#utility.yul\":23571:23610   */\n      mstore\n        /* \"#utility.yul\":23454:23617   */\n      pop\n      jump\t// out\n        /* \"#utility.yul\":23623:23989   */\n    tag_413:\n        /* \"#utility.yul\":23765:23768   */\n      0x00\n        /* \"#utility.yul\":23786:23853   */\n      tag_653\n        /* \"#utility.yul\":23850:23852   */\n      0x0d\n        /* \"#utility.yul\":23845:23848   */\n      dup4\n        /* \"#utility.yul\":23786:23853   */\n      tag_391\n      jump\t// in\n    tag_653:\n        /* \"#utility.yul\":23779:23853   */\n      swap2\n      pop\n        /* \"#utility.yul\":23862:23955   */\n      tag_654\n        /* \"#utility.yul\":23951:23954   */\n      dup3\n        /* \"#utility.yul\":23862:23955   */\n      tag_412\n      jump\t// in\n    tag_654:\n        /* \"#utility.yul\":23980:23982   */\n      0x20\n        /* \"#utility.yul\":23975:23978   */\n      dup3\n        /* \"#utility.yul\":23971:23983   */\n      add\n        /* \"#utility.yul\":23964:23983   */\n      swap1\n      pop\n        /* \"#utility.yul\":23623:23989   */\n      swap2\n      swap1\n      pop\n      jump\t// out\n        /* \"#utility.yul\":23995:24414   */\n    tag_165:\n        /* \"#utility.yul\":24161:24165   */\n      0x00\n        /* \"#utility.yul\":24199:24201   */\n      0x20\n        /* \"#utility.yul\":24188:24197   */\n      dup3\n        /* \"#utility.yul\":24184:24202   */\n      add\n        /* \"#utility.yul\":24176:24202   */\n      swap1\n      pop\n        /* \"#utility.yul\":24248:24257   */\n      dup2\n        /* \"#utility.yul\":24242:24246   */\n      dup2\n        /* \"#utility.yul\":24238:24258   */\n      sub\n        /* \"#utility.yul\":24234:24235   */\n      0x00\n        /* \"#utility.yul\":24223:24232   */\n      dup4\n        /* \"#utility.yul\":24219:24236   */\n      add\n        /* \"#utility.yul\":24212:24259   */\n      mstore\n        /* \"#utility.yul\":24276:24407   */\n      tag_656\n        /* \"#utility.yul\":24402:24406   */\n      dup2\n        /* \"#utility.yul\":24276:24407   */\n      tag_413\n      jump\t// in\n    tag_656:\n        /* \"#utility.yul\":24268:24407   */\n      swap1\n      pop\n        /* \"#utility.yul\":23995:24414   */\n      swap2\n      swap1\n      pop\n      jump\t// out\n        /* \"#utility.yul\":24420:24598   */\n    tag_414:\n        /* \"#utility.yul\":24560:24590   */\n      0x596f7520646f206e6f74206861766520616e792062616c616e63652e00000000\n        /* \"#utility.yul\":24556:24557   */\n      0x00\n        /* \"#utility.yul\":24548:24554   */\n      dup3\n        /* \"#utility.yul\":24544:24558   */\n      add\n        /* \"#utility.yul\":24537:24591   */\n      mstore\n        /* \"#utility.yul\":24420:24598   */\n      pop\n      jump\t// out\n        /* \"#utility.yul\":24604:24970   */\n    tag_415:\n        /* \"#utility.yul\":24746:24749   */\n      0x00\n        /* \"#utility.yul\":24767:24834   */\n      tag_659\n        /* \"#utility.yul\":24831:24833   */\n      0x1c\n        /* \"#utility.yul\":24826:24829   */\n      dup4\n        /* \"#utility.yul\":24767:24834   */\n      tag_391\n      jump\t// in\n    tag_659:\n        /* \"#utility.yul\":24760:24834   */\n      swap2\n      pop\n        /* \"#utility.yul\":24843:24936   */\n      tag_660\n        /* \"#utility.yul\":24932:24935   */\n      dup3\n        /* \"#utility.yul\":24843:24936   */\n      tag_414\n      jump\t// in\n    tag_660:\n        /* \"#utility.yul\":24961:24963   */\n      0x20\n        /* \"#utility.yul\":24956:24959   */\n      dup3\n        /* \"#utility.yul\":24952:24964   */\n      add\n        /* \"#utility.yul\":24945:24964   */\n      swap1\n      pop\n        /* \"#utility.yul\":24604:24970   */\n      swap2\n      swap1\n      pop\n      jump\t// out\n        /* \"#utility.yul\":24976:25395   */\n    tag_169:\n        /* \"#utility.yul\":25142:25146   */\n      0x00\n        /* \"#utility.yul\":25180:25182   */\n      0x20\n        /* \"#utility.yul\":25169:25178   */\n      dup3\n        /* \"#utility.yul\":25165:25183   */\n      add\n        /* \"#utility.yul\":25157:25183   */\n      swap1\n      pop\n        /* \"#utility.yul\":25229:25238   */\n      dup2\n        /* \"#utility.yul\":25223:25227   */\n      dup2\n        /* \"#utility.yul\":25219:25239   */\n      sub\n        /* \"#utility.yul\":25215:25216   */\n      0x00\n        /* \"#utility.yul\":25204:25213   */\n      dup4\n        /* \"#utility.yul\":25200:25217   */\n      add\n        /* \"#utility.yul\":25193:25240   */\n      mstore\n        /* \"#utility.yul\":25257:25388   */\n      tag_662\n        /* \"#utility.yul\":25383:25387   */\n      dup2\n        /* \"#utility.yul\":25257:25388   */\n      tag_415\n      jump\t// in\n    tag_662:\n        /* \"#utility.yul\":25249:25388   */\n      swap1\n      pop\n        /* \"#utility.yul\":24976:25395   */\n      swap2\n      swap1\n      pop\n      jump\t// out\n        /* \"#utility.yul\":25401:25548   */\n    tag_416:\n        /* \"#utility.yul\":25502:25513   */\n      0x00\n        /* \"#utility.yul\":25539:25542   */\n      dup2\n        /* \"#utility.yul\":25524:25542   */\n      swap1\n      pop\n        /* \"#utility.yul\":25401:25548   */\n      swap3\n      swap2\n      pop\n      pop\n      jump\t// out\n        /* \"#utility.yul\":25554:25668   */\n    tag_417:\n      pop\n      jump\t// out\n        /* \"#utility.yul\":25674:26072   */\n    tag_418:\n        /* \"#utility.yul\":25833:25836   */\n      0x00\n        /* \"#utility.yul\":25854:25937   */\n      tag_666\n        /* \"#utility.yul\":25935:25936   */\n      0x00\n        /* \"#utility.yul\":25930:25933   */\n      dup4\n        /* \"#utility.yul\":25854:25937   */\n      tag_416\n      jump\t// in\n    tag_666:\n        /* \"#utility.yul\":25847:25937   */\n      swap2\n      pop\n        /* \"#utility.yul\":25946:26039   */\n      tag_667\n        /* \"#utility.yul\":26035:26038   */\n      dup3\n        /* \"#utility.yul\":25946:26039   */\n      tag_417\n      jump\t// in\n    tag_667:\n        /* \"#utility.yul\":26064:26065   */\n      0x00\n        /* \"#utility.yul\":26059:26062   */\n      dup3\n        /* \"#utility.yul\":26055:26066   */\n      add\n        /* \"#utility.yul\":26048:26066   */\n      swap1\n      pop\n        /* \"#utility.yul\":25674:26072   */\n      swap2\n      swap1\n      pop\n      jump\t// out\n        /* \"#utility.yul\":26078:26457   */\n    tag_171:\n        /* \"#utility.yul\":26262:26265   */\n      0x00\n        /* \"#utility.yul\":26284:26431   */\n      tag_669\n        /* \"#utility.yul\":26427:26430   */\n      dup3\n        /* \"#utility.yul\":26284:26431   */\n      tag_418\n      jump\t// in\n    tag_669:\n        /* \"#utility.yul\":26277:26431   */\n      swap2\n      pop\n        /* \"#utility.yul\":26448:26451   */\n      dup2\n        /* \"#utility.yul\":26441:26451   */\n      swap1\n      pop\n        /* \"#utility.yul\":26078:26457   */\n      swap2\n      swap1\n      pop\n      jump\t// out\n        /* \"#utility.yul\":26463:26629   */\n    tag_419:\n        /* \"#utility.yul\":26603:26621   */\n      0x5472616e73666572206661696c65642e00000000000000000000000000000000\n        /* \"#utility.yul\":26599:26600   */\n      0x00\n        /* \"#utility.yul\":26591:26597   */\n      dup3\n        /* \"#utility.yul\":26587:26601   */\n      add\n        /* \"#utility.yul\":26580:26622   */\n      mstore\n        /* \"#utility.yul\":26463:26629   */\n      pop\n      jump\t// out\n        /* \"#utility.yul\":26635:27001   */\n    tag_420:\n        /* \"#utility.yul\":26777:26780   */\n      0x00\n        /* \"#utility.yul\":26798:26865   */\n      tag_672\n        /* \"#utility.yul\":26862:26864   */\n      0x10\n        /* \"#utility.yul\":26857:26860   */\n      dup4\n        /* \"#utility.yul\":26798:26865   */\n      tag_391\n      jump\t// in\n    tag_672:\n        /* \"#utility.yul\":26791:26865   */\n      swap2\n      pop\n        /* \"#utility.yul\":26874:26967   */\n      tag_673\n        /* \"#utility.yul\":26963:26966   */\n      dup3\n        /* \"#utility.yul\":26874:26967   */\n      tag_419\n      jump\t// in\n    tag_673:\n        /* \"#utility.yul\":26992:26994   */\n      0x20\n        /* \"#utility.yul\":26987:26990   */\n      dup3\n        /* \"#utility.yul\":26983:26995   */\n      add\n        /* \"#utility.yul\":26976:26995   */\n      swap1\n      pop\n        /* \"#utility.yul\":26635:27001   */\n      swap2\n      swap1\n      pop\n      jump\t// out\n        /* \"#utility.yul\":27007:27426   */\n    tag_177:\n        /* \"#utility.yul\":27173:27177   */\n      0x00\n        /* \"#utility.yul\":27211:27213   */\n      0x20\n        /* \"#utility.yul\":27200:27209   */\n      dup3\n        /* \"#utility.yul\":27196:27214   */\n      add\n        /* \"#utility.yul\":27188:27214   */\n      swap1\n      pop\n        /* \"#utility.yul\":27260:27269   */\n      dup2\n        /* \"#utility.yul\":27254:27258   */\n      dup2\n        /* \"#utility.yul\":27250:27270   */\n      sub\n        /* \"#utility.yul\":27246:27247   */\n      0x00\n        /* \"#utility.yul\":27235:27244   */\n      dup4\n        /* \"#utility.yul\":27231:27248   */\n      add\n        /* \"#utility.yul\":27224:27271   */\n      mstore\n        /* \"#utility.yul\":27288:27419   */\n      tag_675\n        /* \"#utility.yul\":27414:27418   */\n      dup2\n        /* \"#utility.yul\":27288:27419   */\n      tag_420\n      jump\t// in\n    tag_675:\n        /* \"#utility.yul\":27280:27419   */\n      swap1\n      pop\n        /* \"#utility.yul\":27007:27426   */\n      swap2\n      swap1\n      pop\n      jump\t// out\n        /* \"#utility.yul\":27432:27605   */\n    tag_421:\n        /* \"#utility.yul\":27572:27597   */\n      0x4d697373696e6720726571756972656420616d6f756e74000000000000000000\n        /* \"#utility.yul\":27568:27569   */\n      0x00\n        /* \"#utility.yul\":27560:27566   */\n      dup3\n        /* \"#utility.yul\":27556:27570   */\n      add\n        /* \"#utility.yul\":27549:27598   */\n      mstore\n        /* \"#utility.yul\":27432:27605   */\n      pop\n      jump\t// out\n        /* \"#utility.yul\":27611:27977   */\n    tag_422:\n        /* \"#utility.yul\":27753:27756   */\n      0x00\n        /* \"#utility.yul\":27774:27841   */\n      tag_678\n        /* \"#utility.yul\":27838:27840   */\n      0x17\n        /* \"#utility.yul\":27833:27836   */\n      dup4\n        /* \"#utility.yul\":27774:27841   */\n      tag_391\n      jump\t// in\n    tag_678:\n        /* \"#utility.yul\":27767:27841   */\n      swap2\n      pop\n        /* \"#utility.yul\":27850:27943   */\n      tag_679\n        /* \"#utility.yul\":27939:27942   */\n      dup3\n        /* \"#utility.yul\":27850:27943   */\n      tag_421\n      jump\t// in\n    tag_679:\n        /* \"#utility.yul\":27968:27970   */\n      0x20\n        /* \"#utility.yul\":27963:27966   */\n      dup3\n        /* \"#utility.yul\":27959:27971   */\n      add\n        /* \"#utility.yul\":27952:27971   */\n      swap1\n      pop\n        /* \"#utility.yul\":27611:27977   */\n      swap2\n      swap1\n      pop\n      jump\t// out\n        /* \"#utility.yul\":27983:28402   */\n    tag_278:\n        /* \"#utility.yul\":28149:28153   */\n      0x00\n        /* \"#utility.yul\":28187:28189   */\n      0x20\n        /* \"#utility.yul\":28176:28185   */\n      dup3\n        /* \"#utility.yul\":28172:28190   */\n      add\n        /* \"#utility.yul\":28164:28190   */\n      swap1\n      pop\n        /* \"#utility.yul\":28236:28245   */\n      dup2\n        /* \"#utility.yul\":28230:28234   */\n      dup2\n        /* \"#utility.yul\":28226:28246   */\n      sub\n        /* \"#utility.yul\":28222:28223   */\n      0x00\n        /* \"#utility.yul\":28211:28220   */\n      dup4\n        /* \"#utility.yul\":28207:28224   */\n      add\n        /* \"#utility.yul\":28200:28247   */\n      mstore\n        /* \"#utility.yul\":28264:28395   */\n      tag_681\n        /* \"#utility.yul\":28390:28394   */\n      dup2\n        /* \"#utility.yul\":28264:28395   */\n      tag_422\n      jump\t// in\n    tag_681:\n        /* \"#utility.yul\":28256:28395   */\n      swap1\n      pop\n        /* \"#utility.yul\":27983:28402   */\n      swap2\n      swap1\n      pop\n      jump\t// out\n        /* \"#utility.yul\":28408:28599   */\n    tag_280:\n        /* \"#utility.yul\":28448:28451   */\n      0x00\n        /* \"#utility.yul\":28467:28487   */\n      tag_683\n        /* \"#utility.yul\":28485:28486   */\n      dup3\n        /* \"#utility.yul\":28467:28487   */\n      tag_353\n      jump\t// in\n    tag_683:\n        /* \"#utility.yul\":28462:28487   */\n      swap2\n      pop\n        /* \"#utility.yul\":28501:28521   */\n      tag_684\n        /* \"#utility.yul\":28519:28520   */\n      dup4\n        /* \"#utility.yul\":28501:28521   */\n      tag_353\n      jump\t// in\n    tag_684:\n        /* \"#utility.yul\":28496:28521   */\n      swap3\n      pop\n        /* \"#utility.yul\":28544:28545   */\n      dup3\n        /* \"#utility.yul\":28541:28542   */\n      dup3\n        /* \"#utility.yul\":28537:28546   */\n      add\n        /* \"#utility.yul\":28530:28546   */\n      swap1\n      pop\n        /* \"#utility.yul\":28565:28568   */\n      dup1\n        /* \"#utility.yul\":28562:28563   */\n      dup3\n        /* \"#utility.yul\":28559:28569   */\n      gt\n        /* \"#utility.yul\":28556:28592   */\n      iszero\n      tag_685\n      jumpi\n        /* \"#utility.yul\":28572:28590   */\n      tag_686\n      tag_394\n      jump\t// in\n    tag_686:\n        /* \"#utility.yul\":28556:28592   */\n    tag_685:\n        /* \"#utility.yul\":28408:28599   */\n      swap3\n      swap2\n      pop\n      pop\n      jump\t// out\n        /* \"#utility.yul\":28605:28777   */\n    tag_423:\n        /* \"#utility.yul\":28745:28769   */\n      0x496e76616c696420707572636861736520696e64657800000000000000000000\n        /* \"#utility.yul\":28741:28742   */\n      0x00\n        /* \"#utility.yul\":28733:28739   */\n      dup3\n        /* \"#utility.yul\":28729:28743   */\n      add\n        /* \"#utility.yul\":28722:28770   */\n      mstore\n        /* \"#utility.yul\":28605:28777   */\n      pop\n      jump\t// out\n        /* \"#utility.yul\":28783:29149   */\n    tag_424:\n        /* \"#utility.yul\":28925:28928   */\n      0x00\n        /* \"#utility.yul\":28946:29013   */\n      tag_689\n        /* \"#utility.yul\":29010:29012   */\n      0x16\n        /* \"#utility.yul\":29005:29008   */\n      dup4\n        /* \"#utility.yul\":28946:29013   */\n      tag_391\n      jump\t// in\n    tag_689:\n        /* \"#utility.yul\":28939:29013   */\n      swap2\n      pop\n        /* \"#utility.yul\":29022:29115   */\n      tag_690\n        /* \"#utility.yul\":29111:29114   */\n      dup3\n        /* \"#utility.yul\":29022:29115   */\n      tag_423\n      jump\t// in\n    tag_690:\n        /* \"#utility.yul\":29140:29142   */\n      0x20\n        /* \"#utility.yul\":29135:29138   */\n      dup3\n        /* \"#utility.yul\":29131:29143   */\n      add\n        /* \"#utility.yul\":29124:29143   */\n      swap1\n      pop\n        /* \"#utility.yul\":28783:29149   */\n      swap2\n      swap1\n      pop\n      jump\t// out\n        /* \"#utility.yul\":29155:29574   */\n    tag_287:\n        /* \"#utility.yul\":29321:29325   */\n      0x00\n        /* \"#utility.yul\":29359:29361   */\n      0x20\n        /* \"#utility.yul\":29348:29357   */\n      dup3\n        /* \"#utility.yul\":29344:29362   */\n      add\n        /* \"#utility.yul\":29336:29362   */\n      swap1\n      pop\n        /* \"#utility.yul\":29408:29417   */\n      dup2\n        /* \"#utility.yul\":29402:29406   */\n      dup2\n        /* \"#utility.yul\":29398:29418   */\n      sub\n        /* \"#utility.yul\":29394:29395   */\n      0x00\n        /* \"#utility.yul\":29383:29392   */\n      dup4\n        /* \"#utility.yul\":29379:29396   */\n      add\n        /* \"#utility.yul\":29372:29419   */\n      mstore\n        /* \"#utility.yul\":29436:29567   */\n      tag_692\n        /* \"#utility.yul\":29562:29566   */\n      dup2\n        /* \"#utility.yul\":29436:29567   */\n      tag_424\n      jump\t// in\n    tag_692:\n        /* \"#utility.yul\":29428:29567   */\n      swap1\n      pop\n        /* \"#utility.yul\":29155:29574   */\n      swap2\n      swap1\n      pop\n      jump\t// out\n        /* \"#utility.yul\":29580:29747   */\n    tag_425:\n        /* \"#utility.yul\":29720:29739   */\n      0x4e6f7420796f7572207075726368617365000000000000000000000000000000\n        /* \"#utility.yul\":29716:29717   */\n      0x00\n        /* \"#utility.yul\":29708:29714   */\n      dup3\n        /* \"#utility.yul\":29704:29718   */\n      add\n        /* \"#utility.yul\":29697:29740   */\n      mstore\n        /* \"#utility.yul\":29580:29747   */\n      pop\n      jump\t// out\n        /* \"#utility.yul\":29753:30119   */\n    tag_426:\n        /* \"#utility.yul\":29895:29898   */\n      0x00\n        /* \"#utility.yul\":29916:29983   */\n      tag_695\n        /* \"#utility.yul\":29980:29982   */\n      0x11\n        /* \"#utility.yul\":29975:29978   */\n      dup4\n        /* \"#utility.yul\":29916:29983   */\n      tag_391\n      jump\t// in\n    tag_695:\n        /* \"#utility.yul\":29909:29983   */\n      swap2\n      pop\n        /* \"#utility.yul\":29992:30085   */\n      tag_696\n        /* \"#utility.yul\":30081:30084   */\n      dup3\n        /* \"#utility.yul\":29992:30085   */\n      tag_425\n      jump\t// in\n    tag_696:\n        /* \"#utility.yul\":30110:30112   */\n      0x20\n        /* \"#utility.yul\":30105:30108   */\n      dup3\n        /* \"#utility.yul\":30101:30113   */\n      add\n        /* \"#utility.yul\":30094:30113   */\n      swap1\n      pop\n        /* \"#utility.yul\":29753:30119   */\n      swap2\n      swap1\n      pop\n      jump\t// out\n        /* \"#utility.yul\":30125:30544   */\n    tag_293:\n        /* \"#utility.yul\":30291:30295   */\n      0x00\n        /* \"#utility.yul\":30329:30331   */\n      0x20\n        /* \"#utility.yul\":30318:30327   */\n      dup3\n        /* \"#utility.yul\":30314:30332   */\n      add\n        /* \"#utility.yul\":30306:30332   */\n      swap1\n      pop\n        /* \"#utility.yul\":30378:30387   */\n      dup2\n        /* \"#utility.yul\":30372:30376   */\n      dup2\n        /* \"#utility.yul\":30368:30388   */\n      sub\n        /* \"#utility.yul\":30364:30365   */\n      0x00\n        /* \"#utility.yul\":30353:30362   */\n      dup4\n        /* \"#utility.yul\":30349:30366   */\n      add\n        /* \"#utility.yul\":30342:30389   */\n      mstore\n        /* \"#utility.yul\":30406:30537   */\n      tag_698\n        /* \"#utility.yul\":30532:30536   */\n      dup2\n        /* \"#utility.yul\":30406:30537   */\n      tag_426\n      jump\t// in\n    tag_698:\n        /* \"#utility.yul\":30398:30537   */\n      swap1\n      pop\n        /* \"#utility.yul\":30125:30544   */\n      swap2\n      swap1\n      pop\n      jump\t// out\n        /* \"#utility.yul\":30550:30725   */\n    tag_427:\n        /* \"#utility.yul\":30690:30717   */\n      0x507572636861736520616c726561647920636f6e73756d656400000000000000\n        /* \"#utility.yul\":30686:30687   */\n      0x00\n        /* \"#utility.yul\":30678:30684   */\n      dup3\n        /* \"#utility.yul\":30674:30688   */\n      add\n        /* \"#utility.yul\":30667:30718   */\n      mstore\n        /* \"#utility.yul\":30550:30725   */\n      pop\n      jump\t// out\n        /* \"#utility.yul\":30731:31097   */\n    tag_428:\n        /* \"#utility.yul\":30873:30876   */\n      0x00\n        /* \"#utility.yul\":30894:30961   */\n      tag_701\n        /* \"#utility.yul\":30958:30960   */\n      0x19\n        /* \"#utility.yul\":30953:30956   */\n      dup4\n        /* \"#utility.yul\":30894:30961   */\n      tag_391\n      jump\t// in\n    tag_701:\n        /* \"#utility.yul\":30887:30961   */\n      swap2\n      pop\n        /* \"#utility.yul\":30970:31063   */\n      tag_702\n        /* \"#utility.yul\":31059:31062   */\n      dup3\n        /* \"#utility.yul\":30970:31063   */\n      tag_427\n      jump\t// in\n    tag_702:\n        /* \"#utility.yul\":31088:31090   */\n      0x20\n        /* \"#utility.yul\":31083:31086   */\n      dup3\n        /* \"#utility.yul\":31079:31091   */\n      add\n        /* \"#utility.yul\":31072:31091   */\n      swap1\n      pop\n        /* \"#utility.yul\":30731:31097   */\n      swap2\n      swap1\n      pop\n      jump\t// out\n        /* \"#utility.yul\":31103:31522   */\n    tag_303:\n        /* \"#utility.yul\":31269:31273   */\n      0x00\n        /* \"#utility.yul\":31307:31309   */\n      0x20\n        /* \"#utility.yul\":31296:31305   */\n      dup3\n        /* \"#utility.yul\":31292:31310   */\n      add\n        /* \"#utility.yul\":31284:31310   */\n      swap1\n      pop\n        /* \"#utility.yul\":31356:31365   */\n      dup2\n        /* \"#utility.yul\":31350:31354   */\n      dup2\n        /* \"#utility.yul\":31346:31366   */\n      sub\n        /* \"#utility.yul\":31342:31343   */\n      0x00\n        /* \"#utility.yul\":31331:31340   */\n      dup4\n        /* \"#utility.yul\":31327:31344   */\n      add\n        /* \"#utility.yul\":31320:31367   */\n      mstore\n        /* \"#utility.yul\":31384:31515   */\n      tag_704\n        /* \"#utility.yul\":31510:31514   */\n      dup2\n        /* \"#utility.yul\":31384:31515   */\n      tag_428\n      jump\t// in\n    tag_704:\n        /* \"#utility.yul\":31376:31515   */\n      swap1\n      pop\n        /* \"#utility.yul\":31103:31522   */\n      swap2\n      swap1\n      pop\n      jump\t// out\n        /* \"#utility.yul\":31528:31676   */\n    tag_429:\n        /* \"#utility.yul\":31630:31641   */\n      0x00\n        /* \"#utility.yul\":31667:31670   */\n      dup2\n        /* \"#utility.yul\":31652:31670   */\n      swap1\n      pop\n        /* \"#utility.yul\":31528:31676   */\n      swap3\n      swap2\n      pop\n      pop\n      jump\t// out\n        /* \"#utility.yul\":31682:32072   */\n    tag_430:\n        /* \"#utility.yul\":31788:31791   */\n      0x00\n        /* \"#utility.yul\":31816:31855   */\n      tag_707\n        /* \"#utility.yul\":31849:31854   */\n      dup3\n        /* \"#utility.yul\":31816:31855   */\n      tag_348\n      jump\t// in\n    tag_707:\n        /* \"#utility.yul\":31871:31960   */\n      tag_708\n        /* \"#utility.yul\":31953:31959   */\n      dup2\n        /* \"#utility.yul\":31948:31951   */\n      dup6\n        /* \"#utility.yul\":31871:31960   */\n      tag_429\n      jump\t// in\n    tag_708:\n        /* \"#utility.yul\":31864:31960   */\n      swap4\n      pop\n        /* \"#utility.yul\":31969:32034   */\n      tag_709\n        /* \"#utility.yul\":32027:32033   */\n      dup2\n        /* \"#utility.yul\":32022:32025   */\n      dup6\n        /* \"#utility.yul\":32015:32019   */\n      0x20\n        /* \"#utility.yul\":32008:32013   */\n      dup7\n        /* \"#utility.yul\":32004:32020   */\n      add\n        /* \"#utility.yul\":31969:32034   */\n      tag_350\n      jump\t// in\n    tag_709:\n        /* \"#utility.yul\":32059:32065   */\n      dup1\n        /* \"#utility.yul\":32054:32057   */\n      dup5\n        /* \"#utility.yul\":32050:32066   */\n      add\n        /* \"#utility.yul\":32043:32066   */\n      swap2\n      pop\n        /* \"#utility.yul\":31792:32072   */\n      pop\n        /* \"#utility.yul\":31682:32072   */\n      swap3\n      swap2\n      pop\n      pop\n      jump\t// out\n        /* \"#utility.yul\":32078:32353   */\n    tag_316:\n        /* \"#utility.yul\":32210:32213   */\n      0x00\n        /* \"#utility.yul\":32232:32327   */\n      tag_711\n        /* \"#utility.yul\":32323:32326   */\n      dup3\n        /* \"#utility.yul\":32314:32320   */\n      dup5\n        /* \"#utility.yul\":32232:32327   */\n      tag_430\n      jump\t// in\n    tag_711:\n        /* \"#utility.yul\":32225:32327   */\n      swap2\n      pop\n        /* \"#utility.yul\":32344:32347   */\n      dup2\n        /* \"#utility.yul\":32337:32347   */\n      swap1\n      pop\n        /* \"#utility.yul\":32078:32353   */\n      swap3\n      swap2\n      pop\n      pop\n      jump\t// out\n        /* \"#utility.yul\":32383:33257   */\n    tag_431:\n        /* \"#utility.yul\":32486:32489   */\n      0x00\n        /* \"#utility.yul\":32523:32528   */\n      dup2\n        /* \"#utility.yul\":32517:32529   */\n      sload\n        /* \"#utility.yul\":32552:32588   */\n      tag_713\n        /* \"#utility.yul\":32578:32587   */\n      dup2\n        /* \"#utility.yul\":32552:32588   */\n      tag_66\n      jump\t// in\n    tag_713:\n        /* \"#utility.yul\":32604:32693   */\n      tag_714\n        /* \"#utility.yul\":32686:32692   */\n      dup2\n        /* \"#utility.yul\":32681:32684   */\n      dup7\n        /* \"#utility.yul\":32604:32693   */\n      tag_429\n      jump\t// in\n    tag_714:\n        /* \"#utility.yul\":32597:32693   */\n      swap5\n      pop\n        /* \"#utility.yul\":32724:32725   */\n      0x01\n        /* \"#utility.yul\":32713:32722   */\n      dup3\n        /* \"#utility.yul\":32709:32726   */\n      and\n        /* \"#utility.yul\":32740:32741   */\n      0x00\n        /* \"#utility.yul\":32735:32901   */\n      dup2\n      eq\n      tag_716\n      jumpi\n        /* \"#utility.yul\":32915:32916   */\n      0x01\n        /* \"#utility.yul\":32910:33251   */\n      dup2\n      eq\n      tag_717\n      jumpi\n        /* \"#utility.yul\":32702:33251   */\n      jump(tag_715)\n        /* \"#utility.yul\":32735:32901   */\n    tag_716:\n        /* \"#utility.yul\":32819:32823   */\n      0xff\n        /* \"#utility.yul\":32815:32824   */\n      not\n        /* \"#utility.yul\":32804:32813   */\n      dup4\n        /* \"#utility.yul\":32800:32825   */\n      and\n        /* \"#utility.yul\":32795:32798   */\n      dup7\n        /* \"#utility.yul\":32788:32826   */\n      mstore\n        /* \"#utility.yul\":32881:32887   */\n      dup2\n        /* \"#utility.yul\":32874:32888   */\n      iszero\n        /* \"#utility.yul\":32867:32889   */\n      iszero\n        /* \"#utility.yul\":32859:32865   */\n      dup3\n        /* \"#utility.yul\":32855:32890   */\n      mul\n        /* \"#utility.yul\":32850:32853   */\n      dup7\n        /* \"#utility.yul\":32846:32891   */\n      add\n        /* \"#utility.yul\":32839:32891   */\n      swap4\n      pop\n        /* \"#utility.yul\":32735:32901   */\n      jump(tag_715)\n        /* \"#utility.yul\":32910:33251   */\n    tag_717:\n        /* \"#utility.yul\":32977:33015   */\n      tag_718\n        /* \"#utility.yul\":33009:33014   */\n      dup6\n        /* \"#utility.yul\":32977:33015   */\n      tag_397\n      jump\t// in\n    tag_718:\n        /* \"#utility.yul\":33037:33038   */\n      0x00\n        /* \"#utility.yul\":33051:33205   */\n    tag_719:\n        /* \"#utility.yul\":33065:33071   */\n      dup4\n        /* \"#utility.yul\":33062:33063   */\n      dup2\n        /* \"#utility.yul\":33059:33072   */\n      lt\n        /* \"#utility.yul\":33051:33205   */\n      iszero\n      tag_721\n      jumpi\n        /* \"#utility.yul\":33139:33146   */\n      dup2\n        /* \"#utility.yul\":33133:33147   */\n      sload\n        /* \"#utility.yul\":33129:33130   */\n      dup2\n        /* \"#utility.yul\":33124:33127   */\n      dup10\n        /* \"#utility.yul\":33120:33131   */\n      add\n        /* \"#utility.yul\":33113:33148   */\n      mstore\n        /* \"#utility.yul\":33189:33190   */\n      0x01\n        /* \"#utility.yul\":33180:33187   */\n      dup3\n        /* \"#utility.yul\":33176:33191   */\n      add\n        /* \"#utility.yul\":33165:33191   */\n      swap2\n      pop\n        /* \"#utility.yul\":33087:33091   */\n      0x20\n        /* \"#utility.yul\":33084:33085   */\n      dup2\n        /* \"#utility.yul\":33080:33092   */\n      add\n        /* \"#utility.yul\":33075:33092   */\n      swap1\n      pop\n        /* \"#utility.yul\":33051:33205   */\n      jump(tag_719)\n    tag_721:\n        /* \"#utility.yul\":33234:33240   */\n      dup4\n        /* \"#utility.yul\":33229:33232   */\n      dup9\n        /* \"#utility.yul\":33225:33241   */\n      add\n        /* \"#utility.yul\":33218:33241   */\n      swap6\n      pop\n        /* \"#utility.yul\":32917:33251   */\n      pop\n      pop\n        /* \"#utility.yul\":32702:33251   */\n    tag_715:\n      pop\n        /* \"#utility.yul\":32490:33257   */\n      pop\n      pop\n        /* \"#utility.yul\":32383:33257   */\n      swap3\n      swap2\n      pop\n      pop\n      jump\t// out\n        /* \"#utility.yul\":33263:33532   */\n    tag_321:\n        /* \"#utility.yul\":33392:33395   */\n      0x00\n        /* \"#utility.yul\":33414:33506   */\n      tag_723\n        /* \"#utility.yul\":33502:33505   */\n      dup3\n        /* \"#utility.yul\":33493:33499   */\n      dup5\n        /* \"#utility.yul\":33414:33506   */\n      tag_431\n      jump\t// in\n    tag_723:\n        /* \"#utility.yul\":33407:33506   */\n      swap2\n      pop\n        /* \"#utility.yul\":33523:33526   */\n      dup2\n        /* \"#utility.yul\":33516:33526   */\n      swap1\n      pop\n        /* \"#utility.yul\":33263:33532   */\n      swap3\n      swap2\n      pop\n      pop\n      jump\t// out\n        /* \"#utility.yul\":33538:33705   */\n    tag_432:\n        /* \"#utility.yul\":33678:33697   */\n      0x50726f64756374206e6f7420666f756e64000000000000000000000000000000\n        /* \"#utility.yul\":33674:33675   */\n      0x00\n        /* \"#utility.yul\":33666:33672   */\n      dup3\n        /* \"#utility.yul\":33662:33676   */\n      add\n        /* \"#utility.yul\":33655:33698   */\n      mstore\n        /* \"#utility.yul\":33538:33705   */\n      pop\n      jump\t// out\n        /* \"#utility.yul\":33711:34077   */\n    tag_433:\n        /* \"#utility.yul\":33853:33856   */\n      0x00\n        /* \"#utility.yul\":33874:33941   */\n      tag_726\n        /* \"#utility.yul\":33938:33940   */\n      0x11\n        /* \"#utility.yul\":33933:33936   */\n      dup4\n        /* \"#utility.yul\":33874:33941   */\n      tag_391\n      jump\t// in\n    tag_726:\n        /* \"#utility.yul\":33867:33941   */\n      swap2\n      pop\n        /* \"#utility.yul\":33950:34043   */\n      tag_727\n        /* \"#utility.yul\":34039:34042   */\n      dup3\n        /* \"#utility.yul\":33950:34043   */\n      tag_432\n      jump\t// in\n    tag_727:\n        /* \"#utility.yul\":34068:34070   */\n      0x20\n        /* \"#utility.yul\":34063:34066   */\n      dup3\n        /* \"#utility.yul\":34059:34071   */\n      add\n        /* \"#utility.yul\":34052:34071   */\n      swap1\n      pop\n        /* \"#utility.yul\":33711:34077   */\n      swap2\n      swap1\n      pop\n      jump\t// out\n        /* \"#utility.yul\":34083:34502   */\n    tag_342:\n        /* \"#utility.yul\":34249:34253   */\n      0x00\n        /* \"#utility.yul\":34287:34289   */\n      0x20\n        /* \"#utility.yul\":34276:34285   */\n      dup3\n        /* \"#utility.yul\":34272:34290   */\n      add\n        /* \"#utility.yul\":34264:34290   */\n      swap1\n      pop\n        /* \"#utility.yul\":34336:34345   */\n      dup2\n        /* \"#utility.yul\":34330:34334   */\n      dup2\n        /* \"#utility.yul\":34326:34346   */\n      sub\n        /* \"#utility.yul\":34322:34323   */\n      0x00\n        /* \"#utility.yul\":34311:34320   */\n      dup4\n        /* \"#utility.yul\":34307:34324   */\n      add\n        /* \"#utility.yul\":34300:34347   */\n      mstore\n        /* \"#utility.yul\":34364:34495   */\n      tag_729\n        /* \"#utility.yul\":34490:34494   */\n      dup2\n        /* \"#utility.yul\":34364:34495   */\n      tag_433\n      jump\t// in\n    tag_729:\n        /* \"#utility.yul\":34356:34495   */\n      swap1\n      pop\n        /* \"#utility.yul\":34083:34502   */\n      swap2\n      swap1\n      pop\n      jump\t// out\n\n    auxdata: 0xa264697066735822122059f7680153639bdbf6581e28bcbf31f1c6101ce4e16291d18a6d5df4b0a8b4ed64736f6c634300081a0033\n}\n",
				"bytecode": {
					"linkReferences": {},
					"object": "608060405234801561000f575f80fd5b50335f806101000a81548173ffffffffffffffffffffffffffffffffffffffff021916908373ffffffffffffffffffffffffffffffffffffffff16021790555061005d61006260201b60201c565b611ee4565b600160405180608001604052806040518060400160405280600281526020017f413100000000000000000000000000000000000000000000000000000000000081525081526020016305f5e100600f6100bb9190611b38565b81526020016040518060400160405280600481526020017f4c61797300000000000000000000000000000000000000000000000000000000815250815260200161013f6040518060400160405280600881526020017f6c6179732e706e67000000000000000000000000000000000000000000000000815250611abf60201b60201c565b815250908060018154018082558091505060019003905f5260205f2090600402015f909190919091505f820151815f01908161017b9190611daa565b5060208201518160010155604082015181600201908161019b9190611daa565b5060608201518160030190816101b19190611daa565b505050600160405180608001604052806040518060400160405280600281526020017f413200000000000000000000000000000000000000000000000000000000000081525081526020016298968060af61020c9190611b38565b81526020016040518060400160405280600981526020017f436f636120436f6c61000000000000000000000000000000000000000000000081525081526020016102906040518060400160405280600d81526020017f636f63612d636f6c612e706e6700000000000000000000000000000000000000815250611abf60201b60201c565b815250908060018154018082558091505060019003905f5260205f2090600402015f909190919091505f820151815f0190816102cc9190611daa565b506020820151816001015560408201518160020190816102ec9190611daa565b5060608201518160030190816103029190611daa565b505050600160405180608001604052806040518060400160405280600281526020017f413300000000000000000000000000000000000000000000000000000000000081525081526020016305f5e100600f61035e9190611b38565b81526020016040518060400160405280600881526020017f5072696e676c657300000000000000000000000000000000000000000000000081525081526020016103e26040518060400160405280600b81526020017f70696e676c65732e706e67000000000000000000000000000000000000000000815250611abf60201b60201c565b815250908060018154018082558091505060019003905f5260205f2090600402015f909190919091505f820151815f01908161041e9190611daa565b5060208201518160010155604082015181600201908161043e9190611daa565b5060608201518160030190816104549190611daa565b505050600160405180608001604052806040518060400160405280600281526020017f413400000000000000000000000000000000000000000000000000000000000081525081526020016298968060af6104af9190611b38565b81526020016040518060400160405280600581526020017f576174657200000000000000000000000000000000000000000000000000000081525081526020016105336040518060400160405280600981526020017f77617465722e706e670000000000000000000000000000000000000000000000815250611abf60201b60201c565b815250908060018154018082558091505060019003905f5260205f2090600402015f909190919091505f820151815f01908161056f9190611daa565b5060208201518160010155604082015181600201908161058f9190611daa565b5060608201518160030190816105a59190611daa565b505050600160405180608001604052806040518060400160405280600281526020017f413500000000000000000000000000000000000000000000000000000000000081525081526020016305f5e100600f6106019190611b38565b81526020016040518060400160405280600c81526020017f456e65726779204472696e6b000000000000000000000000000000000000000081525081526020016106856040518060400160405280600c81526020017f7265642d62756c6c2e706e670000000000000000000000000000000000000000815250611abf60201b60201c565b815250908060018154018082558091505060019003905f5260205f2090600402015f909190919091505f820151815f0190816106c19190611daa565b506020820151816001015560408201518160020190816106e19190611daa565b5060608201518160030190816106f79190611daa565b505050600160405180608001604052806040518060400160405280600281526020017f423100000000000000000000000000000000000000000000000000000000000081525081526020016305f5e10060146107539190611b38565b81526020016040518060400160405280600881526020017f53616e647769636800000000000000000000000000000000000000000000000081525081526020016107d76040518060400160405280600c81526020017f73616e64776963682e706e670000000000000000000000000000000000000000815250611abf60201b60201c565b815250908060018154018082558091505060019003905f5260205f2090600402015f909190919091505f820151815f0190816108139190611daa565b506020820151816001015560408201518160020190816108339190611daa565b5060608201518160030190816108499190611daa565b505050600160405180608001604052806040518060400160405280600281526020017f423200000000000000000000000000000000000000000000000000000000000081525081526020016298968060af6108a49190611b38565b81526020016040518060400160405280600481526020017f4f72656f0000000000000000000000000000000000000000000000000000000081525081526020016109286040518060400160405280600881526020017f6f72656f2e706e67000000000000000000000000000000000000000000000000815250611abf60201b60201c565b815250908060018154018082558091505060019003905f5260205f2090600402015f909190919091505f820151815f0190816109649190611daa565b506020820151816001015560408201518160020190816109849190611daa565b50606082015181600301908161099a9190611daa565b505050600160405180608001604052806040518060400160405280600281526020017f423300000000000000000000000000000000000000000000000000000000000081525081526020016305f5e100600f6109f69190611b38565b81526020016040518060400160405280600681526020017f53707269746500000000000000000000000000000000000000000000000000008152508152602001610a7a6040518060400160405280600a81526020017f7370726974652e706e6700000000000000000000000000000000000000000000815250611abf60201b60201c565b815250908060018154018082558091505060019003905f5260205f2090600402015f909190919091505f820151815f019081610ab69190611daa565b50602082015181600101556040820151816002019081610ad69190611daa565b506060820151816003019081610aec9190611daa565b505050600160405180608001604052806040518060400160405280600281526020017f423400000000000000000000000000000000000000000000000000000000000081525081526020016298968060af610b479190611b38565b81526020016040518060400160405280600b81526020017f4772616e6f6c61204261720000000000000000000000000000000000000000008152508152602001610bcb6040518060400160405280600f81526020017f6772616e6f6c612d6261722e706e670000000000000000000000000000000000815250611abf60201b60201c565b815250908060018154018082558091505060019003905f5260205f2090600402015f909190919091505f820151815f019081610c079190611daa565b50602082015181600101556040820151816002019081610c279190611daa565b506060820151816003019081610c3d9190611daa565b505050600160405180608001604052806040518060400160405280600281526020017f423500000000000000000000000000000000000000000000000000000000000081525081526020016298968060af610c989190611b38565b81526020016040518060400160405280600781526020017f446f7269746f73000000000000000000000000000000000000000000000000008152508152602001610d1c6040518060400160405280600b81526020017f646f7269746f732e706e67000000000000000000000000000000000000000000815250611abf60201b60201c565b815250908060018154018082558091505060019003905f5260205f2090600402015f909190919091505f820151815f019081610d589190611daa565b50602082015181600101556040820151816002019081610d789190611daa565b506060820151816003019081610d8e9190611daa565b505050600160405180608001604052806040518060400160405280600281526020017f433100000000000000000000000000000000000000000000000000000000000081525081526020016305f5e100600f610dea9190611b38565b81526020016040518060400160405280600b81526020017f536e69636b6572204261720000000000000000000000000000000000000000008152508152602001610e6e6040518060400160405280600c81526020017f736e69636b6572732e706e670000000000000000000000000000000000000000815250611abf60201b60201c565b815250908060018154018082558091505060019003905f5260205f2090600402015f909190919091505f820151815f019081610eaa9190611daa565b50602082015181600101556040820151816002019081610eca9190611daa565b506060820151816003019081610ee09190611daa565b505050600160405180608001604052806040518060400160405280600281526020017f433200000000000000000000000000000000000000000000000000000000000081525081526020016305f5e100600f610f3c9190611b38565b81526020016040518060400160405280600481526020017f4d264d73000000000000000000000000000000000000000000000000000000008152508152602001610fc06040518060400160405280600881526020017f6d266d732e706e67000000000000000000000000000000000000000000000000815250611abf60201b60201c565b815250908060018154018082558091505060019003905f5260205f2090600402015f909190919091505f820151815f019081610ffc9190611daa565b5060208201518160010155604082015181600201908161101c9190611daa565b5060608201518160030190816110329190611daa565b505050600160405180608001604052806040518060400160405280600281526020017f4333000000000000000000000000000000000000000000000000000000000000815250815260200162989680607d61108d9190611b38565b81526020016040518060400160405280600e81526020017f427562626c65205461702047756d00000000000000000000000000000000000081525081526020016111116040518060400160405280600e81526020017f627562626c652d7461702e706e67000000000000000000000000000000000000815250611abf60201b60201c565b815250908060018154018082558091505060019003905f5260205f2090600402015f909190919091505f820151815f01908161114d9190611daa565b5060208201518160010155604082015181600201908161116d9190611daa565b5060608201518160030190816111839190611daa565b505050600160405180608001604052806040518060400160405280600281526020017f433400000000000000000000000000000000000000000000000000000000000081525081526020016298968060af6111de9190611b38565b81526020016040518060400160405280600d81526020017f4672756974204e7574204261720000000000000000000000000000000000000081525081526020016112626040518060400160405280600d81526020017f66727569742d6e75742e706e6700000000000000000000000000000000000000815250611abf60201b60201c565b815250908060018154018082558091505060019003905f5260205f2090600402015f909190919091505f820151815f01908161129e9190611daa565b506020820151816001015560408201518160020190816112be9190611daa565b5060608201518160030190816112d49190611daa565b505050600160405180608001604052806040518060400160405280600281526020017f433500000000000000000000000000000000000000000000000000000000000081525081526020016298968060af61132f9190611b38565b81526020016040518060400160405280600a81526020017f42656566204a65726b790000000000000000000000000000000000000000000081525081526020016113b36040518060400160405280600e81526020017f626565662d6a65726b792e706e67000000000000000000000000000000000000815250611abf60201b60201c565b815250908060018154018082558091505060019003905f5260205f2090600402015f909190919091505f820151815f0190816113ef9190611daa565b5060208201518160010155604082015181600201908161140f9190611daa565b5060608201518160030190816114259190611daa565b505050600160405180608001604052806040518060400160405280600281526020017f4431000000000000000000000000000000000000000000000000000000000000815250815260200162989680607d6114809190611b38565b81526020016040518060400160405280600e81526020017f4b69744b6174204269736375697400000000000000000000000000000000000081525081526020016115046040518060400160405280600a81526020017f6b69746b61742e706e6700000000000000000000000000000000000000000000815250611abf60201b60201c565b815250908060018154018082558091505060019003905f5260205f2090600402015f909190919091505f820151815f0190816115409190611daa565b506020820151816001015560408201518160020190816115609190611daa565b5060608201518160030190816115769190611daa565b505050600160405180608001604052806040518060400160405280600281526020017f4432000000000000000000000000000000000000000000000000000000000000815250815260200162989680607d6115d19190611b38565b81526020016040518060400160405280600881526020017f506f7020436f726e00000000000000000000000000000000000000000000000081525081526020016116556040518060400160405280600b81526020017f706f70636f726e2e706e67000000000000000000000000000000000000000000815250611abf60201b60201c565b815250908060018154018082558091505060019003905f5260205f2090600402015f909190919091505f820151815f0190816116919190611daa565b506020820151816001015560408201518160020190816116b19190611daa565b5060608201518160030190816116c79190611daa565b505050600160405180608001604052806040518060400160405280600281526020017f443300000000000000000000000000000000000000000000000000000000000081525081526020016298968060966117229190611b38565b81526020016040518060400160405280600881526020017f547769782042617200000000000000000000000000000000000000000000000081525081526020016117a66040518060400160405280600881526020017f747769782e706e67000000000000000000000000000000000000000000000000815250611abf60201b60201c565b815250908060018154018082558091505060019003905f5260205f2090600402015f909190919091505f820151815f0190816117e29190611daa565b506020820151816001015560408201518160020190816118029190611daa565b5060608201518160030190816118189190611daa565b505050600160405180608001604052806040518060400160405280600281526020017f4434000000000000000000000000000000000000000000000000000000000000815250815260200162989680607d6118739190611b38565b81526020016040518060400160405280600581526020017f446f6e757400000000000000000000000000000000000000000000000000000081525081526020016118f76040518060400160405280600981526020017f646f6e75742e706e670000000000000000000000000000000000000000000000815250611abf60201b60201c565b815250908060018154018082558091505060019003905f5260205f2090600402015f909190919091505f820151815f0190816119339190611daa565b506020820151816001015560408201518160020190816119539190611daa565b5060608201518160030190816119699190611daa565b505050600160405180608001604052806040518060400160405280600281526020017f4435000000000000000000000000000000000000000000000000000000000000815250815260200162989680607d6119c49190611b38565b81526020016040518060400160405280600981526020017f526564204170706c6500000000000000000000000000000000000000000000008152508152602001611a486040518060400160405280600981526020017f6170706c652e706e670000000000000000000000000000000000000000000000815250611abf60201b60201c565b815250908060018154018082558091505060019003905f5260205f2090600402015f909190919091505f820151815f019081611a849190611daa565b50602082015181600101556040820151816002019081611aa49190611daa565b506060820151816003019081611aba9190611daa565b505050565b60606040518060600160405280602f8152602001614bc0602f913982604051602001611aec929190611ec1565b6040516020818303038152906040529050919050565b5f819050919050565b7f4e487b71000000000000000000000000000000000000000000000000000000005f52601160045260245ffd5b5f611b4282611b02565b9150611b4d83611b02565b9250828202611b5b81611b02565b91508282048414831517611b7257611b71611b0b565b5b5092915050565b5f81519050919050565b7f4e487b71000000000000000000000000000000000000000000000000000000005f52604160045260245ffd5b7f4e487b71000000000000000000000000000000000000000000000000000000005f52602260045260245ffd5b5f6002820490506001821680611bf457607f821691505b602082108103611c0757611c06611bb0565b5b50919050565b5f819050815f5260205f209050919050565b5f6020601f8301049050919050565b5f82821b905092915050565b5f60088302611c697fffffffffffffffffffffffffffffffffffffffffffffffffffffffffffffffff82611c2e565b611c738683611c2e565b95508019841693508086168417925050509392505050565b5f819050919050565b5f611cae611ca9611ca484611b02565b611c8b565b611b02565b9050919050565b5f819050919050565b611cc783611c94565b611cdb611cd382611cb5565b848454611c3a565b825550505050565b5f90565b611cef611ce3565b611cfa818484611cbe565b505050565b5b81811015611d1d57611d125f82611ce7565b600181019050611d00565b5050565b601f821115611d6257611d3381611c0d565b611d3c84611c1f565b81016020851015611d4b578190505b611d5f611d5785611c1f565b830182611cff565b50505b505050565b5f82821c905092915050565b5f611d825f1984600802611d67565b1980831691505092915050565b5f611d9a8383611d73565b9150826002028217905092915050565b611db382611b79565b67ffffffffffffffff811115611dcc57611dcb611b83565b5b611dd68254611bdd565b611de1828285611d21565b5f60209050601f831160018114611e12575f8415611e00578287015190505b611e0a8582611d8f565b865550611e71565b601f198416611e2086611c0d565b5f5b82811015611e4757848901518255600182019150602085019450602081019050611e22565b86831015611e645784890151611e60601f891682611d73565b8355505b6001600288020188555050505b505050505050565b5f81905092915050565b8281835e5f83830152505050565b5f611e9b82611b79565b611ea58185611e79565b9350611eb5818560208601611e83565b80840191505092915050565b5f611ecc8285611e91565b9150611ed88284611e91565b91508190509392505050565b612ccf80611ef15f395ff3fe608060405260043610610090575f3560e01c806370cd5a801161005857806370cd5a801461016257806394cf21601461019e578063a26759cb146101da578063b04f3225146101e4578063cdad28d71461020c57610090565b806302ee3a521461009457806312065fe0146100be578063121dc3d5146100e857806319f92926146101245780633ccfd60b1461014c575b5f80fd5b34801561009f575f80fd5b506100a8610248565b6040516100b59190611e6b565b60405180910390f35b3480156100c9575f80fd5b506100d261045d565b6040516100df9190611e9a565b60405180910390f35b3480156100f3575f80fd5b5061010e60048036038101906101099190611f1e565b61052f565b60405161011b91906120e6565b60405180910390f35b34801561012f575f80fd5b5061014a60048036038101906101459190612232565b61093e565b005b348015610157575f80fd5b50610160610bb8565b005b34801561016d575f80fd5b5061018860048036038101906101839190611f1e565b610e38565b60405161019591906120e6565b60405180910390f35b3480156101a9575f80fd5b506101c460048036038101906101bf9190611f1e565b6111e8565b6040516101d191906120e6565b60405180910390f35b6101e26115f7565b005b3480156101ef575f80fd5b5061020a600480360381019061020591906122a3565b61171b565b005b348015610217575f80fd5b50610232600480360381019061022d9190612232565b611981565b60405161023f919061233c565b60405180910390f35b60606001805480602002602001604051908101604052809291908181526020015f905b82821015610454578382905f5260205f2090600402016040518060800160405290815f8201805461029b90612389565b80601f01602080910402602001604051908101604052809291908181526020018280546102c790612389565b80156103125780601f106102e957610100808354040283529160200191610312565b820191905f5260205f20905b8154815290600101906020018083116102f557829003601f168201915b505050505081526020016001820154815260200160028201805461033590612389565b80601f016020809104026020016040519081016040528092919081815260200182805461036190612389565b80156103ac5780601f10610383576101008083540402835291602001916103ac565b820191905f5260205f20905b81548152906001019060200180831161038f57829003601f168201915b505050505081526020016003820180546103c590612389565b80601f01602080910402602001604051908101604052809291908181526020018280546103f190612389565b801561043c5780601f106104135761010080835404028352916020019161043c565b820191905f5260205f20905b81548152906001019060200180831161041f57829003601f168201915b5050505050815250508152602001906001019061026b565b50505050905090565b5f805f9054906101000a900473ffffffffffffffffffffffffffffffffffffffff1673ffffffffffffffffffffffffffffffffffffffff163373ffffffffffffffffffffffffffffffffffffffff16146104ec576040517f08c379a00000000000000000000000000000000000000000000000000000000081526004016104e390612439565b60405180910390fd5b60025f3373ffffffffffffffffffffffffffffffffffffffff1673ffffffffffffffffffffffffffffffffffffffff1681526020019081526020015f2054905090565b60605f8054906101000a900473ffffffffffffffffffffffffffffffffffffffff1673ffffffffffffffffffffffffffffffffffffffff163373ffffffffffffffffffffffffffffffffffffffff16146105be576040517f08c379a00000000000000000000000000000000000000000000000000000000081526004016105b590612439565b60405180910390fd5b5f60038054905067ffffffffffffffff8111156105de576105dd61210e565b5b60405190808252806020026020018201604052801561061757816020015b610604611c46565b8152602001906001900390816105fc5790505b5090505f805b60038054905081101561088a578473ffffffffffffffffffffffffffffffffffffffff166003828154811061065557610654612457565b5b905f5260205f2090600402015f015f9054906101000a900473ffffffffffffffffffffffffffffffffffffffff1673ffffffffffffffffffffffffffffffffffffffff161480156106f857505f60018111156106b4576106b3611f81565b5b600382815481106106c8576106c7612457565b5b905f5260205f2090600402016003015f9054906101000a900460ff1660018111156106f6576106f5611f81565b5b145b1561087d576003818154811061071157610710612457565b5b905f5260205f2090600402016040518060800160405290815f82015f9054906101000a900473ffffffffffffffffffffffffffffffffffffffff1673ffffffffffffffffffffffffffffffffffffffff1673ffffffffffffffffffffffffffffffffffffffff16815260200160018201805461078c90612389565b80601f01602080910402602001604051908101604052809291908181526020018280546107b890612389565b80156108035780601f106107da57610100808354040283529160200191610803565b820191905f5260205f20905b8154815290600101906020018083116107e657829003601f168201915b5050505050815260200160028201548152602001600382015f9054906101000a900460ff16600181111561083a57610839611f81565b5b600181111561084c5761084b611f81565b5b8152505083838151811061086357610862612457565b5b60200260200101819052508180610879906124b1565b9250505b808060010191505061061d565b505f8167ffffffffffffffff8111156108a6576108a561210e565b5b6040519080825280602002602001820160405280156108df57816020015b6108cc611c46565b8152602001906001900390816108c45790505b5090505f5b82811015610932578381815181106108ff576108fe612457565b5b602002602001015182828151811061091a57610919612457565b5b602002602001018190525080806001019150506108e4565b50809350505050919050565b5f8054906101000a900473ffffffffffffffffffffffffffffffffffffffff1673ffffffffffffffffffffffffffffffffffffffff163373ffffffffffffffffffffffffffffffffffffffff16146109cb576040517f08c379a00000000000000000000000000000000000000000000000000000000081526004016109c290612439565b60405180910390fd5b5f6109d582611981565b6020015190508060025f3373ffffffffffffffffffffffffffffffffffffffff1673ffffffffffffffffffffffffffffffffffffffff1681526020019081526020015f20541015610a5b576040517f08c379a0000000000000000000000000000000000000000000000000000000008152600401610a5290612542565b60405180910390fd5b8060025f3373ffffffffffffffffffffffffffffffffffffffff1673ffffffffffffffffffffffffffffffffffffffff1681526020019081526020015f205f828254610aa79190612560565b92505081905550600360405180608001604052803373ffffffffffffffffffffffffffffffffffffffff1681526020018481526020014281526020015f6001811115610af657610af5611f81565b5b815250908060018154018082558091505060019003905f5260205f2090600402015f909190919091505f820151815f015f6101000a81548173ffffffffffffffffffffffffffffffffffffffff021916908373ffffffffffffffffffffffffffffffffffffffff1602179055506020820151816001019081610b789190612730565b50604082015181600201556060820151816003015f6101000a81548160ff02191690836001811115610bad57610bac611f81565b5b021790555050505050565b5f8054906101000a900473ffffffffffffffffffffffffffffffffffffffff1673ffffffffffffffffffffffffffffffffffffffff163373ffffffffffffffffffffffffffffffffffffffff1614610c45576040517f08c379a0000000000000000000000000000000000000000000000000000000008152600401610c3c90612439565b60405180910390fd5b5f60149054906101000a900460ff1615610c94576040517f08c379a0000000000000000000000000000000000000000000000000000000008152600401610c8b90612849565b60405180910390fd5b60015f60146101000a81548160ff0219169083151502179055505f60025f3373ffffffffffffffffffffffffffffffffffffffff1673ffffffffffffffffffffffffffffffffffffffff1681526020019081526020015f205490505f8111610d31576040517f08c379a0000000000000000000000000000000000000000000000000000000008152600401610d28906128b1565b60405180910390fd5b5f60025f3373ffffffffffffffffffffffffffffffffffffffff1673ffffffffffffffffffffffffffffffffffffffff1681526020019081526020015f20819055505f3373ffffffffffffffffffffffffffffffffffffffff1682604051610d98906128fc565b5f6040518083038185875af1925050503d805f8114610dd2576040519150601f19603f3d011682016040523d82523d5f602084013e610dd7565b606091505b5050905080610e1b576040517f08c379a0000000000000000000000000000000000000000000000000000000008152600401610e129061295a565b60405180910390fd5b50505f8060146101000a81548160ff021916908315150217905550565b60605f8054906101000a900473ffffffffffffffffffffffffffffffffffffffff1673ffffffffffffffffffffffffffffffffffffffff163373ffffffffffffffffffffffffffffffffffffffff1614610ec7576040517f08c379a0000000000000000000000000000000000000000000000000000000008152600401610ebe90612439565b60405180910390fd5b5f60038054905067ffffffffffffffff811115610ee757610ee661210e565b5b604051908082528060200260200182016040528015610f2057816020015b610f0d611c46565b815260200190600190039081610f055790505b5090505f805b600380549050811015611134578473ffffffffffffffffffffffffffffffffffffffff1660038281548110610f5e57610f5d612457565b5b905f5260205f2090600402015f015f9054906101000a900473ffffffffffffffffffffffffffffffffffffffff1673ffffffffffffffffffffffffffffffffffffffff16036111275760038181548110610fbb57610fba612457565b5b905f5260205f2090600402016040518060800160405290815f82015f9054906101000a900473ffffffffffffffffffffffffffffffffffffffff1673ffffffffffffffffffffffffffffffffffffffff1673ffffffffffffffffffffffffffffffffffffffff16815260200160018201805461103690612389565b80601f016020809104026020016040519081016040528092919081815260200182805461106290612389565b80156110ad5780601f10611084576101008083540402835291602001916110ad565b820191905f5260205f20905b81548152906001019060200180831161109057829003601f168201915b5050505050815260200160028201548152602001600382015f9054906101000a900460ff1660018111156110e4576110e3611f81565b5b60018111156110f6576110f5611f81565b5b8152505083838151811061110d5761110c612457565b5b60200260200101819052508180611123906124b1565b9250505b8080600101915050610f26565b505f8167ffffffffffffffff8111156111505761114f61210e565b5b60405190808252806020026020018201604052801561118957816020015b611176611c46565b81526020019060019003908161116e5790505b5090505f5b828110156111dc578381815181106111a9576111a8612457565b5b60200260200101518282815181106111c4576111c3612457565b5b6020026020010181905250808060010191505061118e565b50809350505050919050565b60605f8054906101000a900473ffffffffffffffffffffffffffffffffffffffff1673ffffffffffffffffffffffffffffffffffffffff163373ffffffffffffffffffffffffffffffffffffffff1614611277576040517f08c379a000000000000000000000000000000000000000000000000000000000815260040161126e90612439565b60405180910390fd5b5f60038054905067ffffffffffffffff8111156112975761129661210e565b5b6040519080825280602002602001820160405280156112d057816020015b6112bd611c46565b8152602001906001900390816112b55790505b5090505f805b600380549050811015611543578473ffffffffffffffffffffffffffffffffffffffff166003828154811061130e5761130d612457565b5b905f5260205f2090600402015f015f9054906101000a900473ffffffffffffffffffffffffffffffffffffffff1673ffffffffffffffffffffffffffffffffffffffff161480156113b1575060018081111561136d5761136c611f81565b5b6003828154811061138157611380612457565b5b905f5260205f2090600402016003015f9054906101000a900460ff1660018111156113af576113ae611f81565b5b145b1561153657600381815481106113ca576113c9612457565b5b905f5260205f2090600402016040518060800160405290815f82015f9054906101000a900473ffffffffffffffffffffffffffffffffffffffff1673ffffffffffffffffffffffffffffffffffffffff1673ffffffffffffffffffffffffffffffffffffffff16815260200160018201805461144590612389565b80601f016020809104026020016040519081016040528092919081815260200182805461147190612389565b80156114bc5780601f10611493576101008083540402835291602001916114bc565b820191905f5260205f20905b81548152906001019060200180831161149f57829003601f168201915b5050505050815260200160028201548152602001600382015f9054906101000a900460ff1660018111156114f3576114f2611f81565b5b600181111561150557611504611f81565b5b8152505083838151811061151c5761151b612457565b5b60200260200101819052508180611532906124b1565b9250505b80806001019150506112d6565b505f8167ffffffffffffffff81111561155f5761155e61210e565b5b60405190808252806020026020018201604052801561159857816020015b611585611c46565b81526020019060019003908161157d5790505b5090505f5b828110156115eb578381815181106115b8576115b7612457565b5b60200260200101518282815181106115d3576115d2612457565b5b6020026020010181905250808060010191505061159d565b50809350505050919050565b5f8054906101000a900473ffffffffffffffffffffffffffffffffffffffff1673ffffffffffffffffffffffffffffffffffffffff163373ffffffffffffffffffffffffffffffffffffffff1614611684576040517f08c379a000000000000000000000000000000000000000000000000000000000815260040161167b90612439565b60405180910390fd5b5f34116116c6576040517f08c379a00000000000000000000000000000000000000000000000000000000081526004016116bd906129c2565b60405180910390fd5b3460025f3373ffffffffffffffffffffffffffffffffffffffff1673ffffffffffffffffffffffffffffffffffffffff1681526020019081526020015f205f82825461171291906129e0565b92505081905550565b5f8054906101000a900473ffffffffffffffffffffffffffffffffffffffff1673ffffffffffffffffffffffffffffffffffffffff163373ffffffffffffffffffffffffffffffffffffffff16146117a8576040517f08c379a000000000000000000000000000000000000000000000000000000000815260040161179f90612439565b60405180910390fd5b60038054905081106117ef576040517f08c379a00000000000000000000000000000000000000000000000000000000081526004016117e690612a5d565b60405180910390fd5b3373ffffffffffffffffffffffffffffffffffffffff166003828154811061181a57611819612457565b5b905f5260205f2090600402015f015f9054906101000a900473ffffffffffffffffffffffffffffffffffffffff1673ffffffffffffffffffffffffffffffffffffffff161461189e576040517f08c379a000000000000000000000000000000000000000000000000000000000815260040161189590612ac5565b60405180910390fd5b5f60018111156118b1576118b0611f81565b5b600382815481106118c5576118c4612457565b5b905f5260205f2090600402016003015f9054906101000a900460ff1660018111156118f3576118f2611f81565b5b14611933576040517f08c379a000000000000000000000000000000000000000000000000000000000815260040161192a90612b2d565b60405180910390fd5b60016003828154811061194957611948612457565b5b905f5260205f2090600402016003015f6101000a81548160ff0219169083600181111561197957611978611f81565b5b021790555050565b611989611c93565b5f5b600180549050811015611c0557826040516020016119a99190612b85565b60405160208183030381529060405280519060200120600182815481106119d3576119d2612457565b5b905f5260205f2090600402015f016040516020016119f19190612c1b565b6040516020818303038152906040528051906020012003611bf85760018181548110611a2057611a1f612457565b5b905f5260205f2090600402016040518060800160405290815f82018054611a4690612389565b80601f0160208091040260200160405190810160405280929190818152602001828054611a7290612389565b8015611abd5780601f10611a9457610100808354040283529160200191611abd565b820191905f5260205f20905b815481529060010190602001808311611aa057829003601f168201915b5050505050815260200160018201548152602001600282018054611ae090612389565b80601f0160208091040260200160405190810160405280929190818152602001828054611b0c90612389565b8015611b575780601f10611b2e57610100808354040283529160200191611b57565b820191905f5260205f20905b815481529060010190602001808311611b3a57829003601f168201915b50505050508152602001600382018054611b7090612389565b80601f0160208091040260200160405190810160405280929190818152602001828054611b9c90612389565b8015611be75780601f10611bbe57610100808354040283529160200191611be7565b820191905f5260205f20905b815481529060010190602001808311611bca57829003601f168201915b505050505081525050915050611c41565b808060010191505061198b565b506040517f08c379a0000000000000000000000000000000000000000000000000000000008152600401611c3890612c7b565b60405180910390fd5b919050565b60405180608001604052805f73ffffffffffffffffffffffffffffffffffffffff168152602001606081526020015f81526020015f6001811115611c8d57611c8c611f81565b5b81525090565b6040518060800160405280606081526020015f815260200160608152602001606081525090565b5f81519050919050565b5f82825260208201905092915050565b5f819050602082019050919050565b5f81519050919050565b5f82825260208201905092915050565b8281835e5f83830152505050565b5f601f19601f8301169050919050565b5f611d2582611ce3565b611d2f8185611ced565b9350611d3f818560208601611cfd565b611d4881611d0b565b840191505092915050565b5f819050919050565b611d6581611d53565b82525050565b5f608083015f8301518482035f860152611d858282611d1b565b9150506020830151611d9a6020860182611d5c565b5060408301518482036040860152611db28282611d1b565b91505060608301518482036060860152611dcc8282611d1b565b9150508091505092915050565b5f611de48383611d6b565b905092915050565b5f602082019050919050565b5f611e0282611cba565b611e0c8185611cc4565b935083602082028501611e1e85611cd4565b805f5b85811015611e595784840389528151611e3a8582611dd9565b9450611e4583611dec565b925060208a01995050600181019050611e21565b50829750879550505050505092915050565b5f6020820190508181035f830152611e838184611df8565b905092915050565b611e9481611d53565b82525050565b5f602082019050611ead5f830184611e8b565b92915050565b5f604051905090565b5f80fd5b5f80fd5b5f73ffffffffffffffffffffffffffffffffffffffff82169050919050565b5f611eed82611ec4565b9050919050565b611efd81611ee3565b8114611f07575f80fd5b50565b5f81359050611f1881611ef4565b92915050565b5f60208284031215611f3357611f32611ebc565b5b5f611f4084828501611f0a565b91505092915050565b5f81519050919050565b5f82825260208201905092915050565b5f819050602082019050919050565b611f7b81611ee3565b82525050565b7f4e487b71000000000000000000000000000000000000000000000000000000005f52602160045260245ffd5b60028110611fbf57611fbe611f81565b5b50565b5f819050611fcf82611fae565b919050565b5f611fde82611fc2565b9050919050565b611fee81611fd4565b82525050565b5f608083015f8301516120095f860182611f72565b50602083015184820360208601526120218282611d1b565b91505060408301516120366040860182611d5c565b5060608301516120496060860182611fe5565b508091505092915050565b5f61205f8383611ff4565b905092915050565b5f602082019050919050565b5f61207d82611f49565b6120878185611f53565b93508360208202850161209985611f63565b805f5b858110156120d457848403895281516120b58582612054565b94506120c083612067565b925060208a0199505060018101905061209c565b50829750879550505050505092915050565b5f6020820190508181035f8301526120fe8184612073565b905092915050565b5f80fd5b5f80fd5b7f4e487b71000000000000000000000000000000000000000000000000000000005f52604160045260245ffd5b61214482611d0b565b810181811067ffffffffffffffff821117156121635761216261210e565b5b80604052505050565b5f612175611eb3565b9050612181828261213b565b919050565b5f67ffffffffffffffff8211156121a05761219f61210e565b5b6121a982611d0b565b9050602081019050919050565b828183375f83830152505050565b5f6121d66121d184612186565b61216c565b9050828152602081018484840111156121f2576121f161210a565b5b6121fd8482856121b6565b509392505050565b5f82601f83011261221957612218612106565b5b81356122298482602086016121c4565b91505092915050565b5f6020828403121561224757612246611ebc565b5b5f82013567ffffffffffffffff81111561226457612263611ec0565b5b61227084828501612205565b91505092915050565b61228281611d53565b811461228c575f80fd5b50565b5f8135905061229d81612279565b92915050565b5f602082840312156122b8576122b7611ebc565b5b5f6122c58482850161228f565b91505092915050565b5f608083015f8301518482035f8601526122e88282611d1b565b91505060208301516122fd6020860182611d5c565b50604083015184820360408601526123158282611d1b565b9150506060830151848203606086015261232f8282611d1b565b9150508091505092915050565b5f6020820190508181035f83015261235481846122ce565b905092915050565b7f4e487b71000000000000000000000000000000000000000000000000000000005f52602260045260245ffd5b5f60028204905060018216806123a057607f821691505b6020821081036123b3576123b261235c565b5b50919050565b5f82825260208201905092915050565b7f4f6e6c79206f776e65722063616e2063616c6c20746869732066756e6374696f5f8201527f6e00000000000000000000000000000000000000000000000000000000000000602082015250565b5f6124236021836123b9565b915061242e826123c9565b604082019050919050565b5f6020820190508181035f83015261245081612417565b9050919050565b7f4e487b71000000000000000000000000000000000000000000000000000000005f52603260045260245ffd5b7f4e487b71000000000000000000000000000000000000000000000000000000005f52601160045260245ffd5b5f6124bb82611d53565b91507fffffffffffffffffffffffffffffffffffffffffffffffffffffffffffffffff82036124ed576124ec612484565b5b600182019050919050565b7f496e73756666696369656e742066756e647300000000000000000000000000005f82015250565b5f61252c6012836123b9565b9150612537826124f8565b602082019050919050565b5f6020820190508181035f83015261255981612520565b9050919050565b5f61256a82611d53565b915061257583611d53565b925082820390508181111561258d5761258c612484565b5b92915050565b5f819050815f5260205f209050919050565b5f6020601f8301049050919050565b5f82821b905092915050565b5f600883026125ef7fffffffffffffffffffffffffffffffffffffffffffffffffffffffffffffffff826125b4565b6125f986836125b4565b95508019841693508086168417925050509392505050565b5f819050919050565b5f61263461262f61262a84611d53565b612611565b611d53565b9050919050565b5f819050919050565b61264d8361261a565b6126616126598261263b565b8484546125c0565b825550505050565b5f90565b612675612669565b612680818484612644565b505050565b5b818110156126a3576126985f8261266d565b600181019050612686565b5050565b601f8211156126e8576126b981612593565b6126c2846125a5565b810160208510156126d1578190505b6126e56126dd856125a5565b830182612685565b50505b505050565b5f82821c905092915050565b5f6127085f19846008026126ed565b1980831691505092915050565b5f61272083836126f9565b9150826002028217905092915050565b61273982611ce3565b67ffffffffffffffff8111156127525761275161210e565b5b61275c8254612389565b6127678282856126a7565b5f60209050601f831160018114612798575f8415612786578287015190505b6127908582612715565b8655506127f7565b601f1984166127a686612593565b5f5b828110156127cd578489015182556001820191506020850194506020810190506127a8565b868310156127ea57848901516127e6601f8916826126f9565b8355505b6001600288020188555050505b505050505050565b7f4e6f207265656e7472616e6379000000000000000000000000000000000000005f82015250565b5f612833600d836123b9565b915061283e826127ff565b602082019050919050565b5f6020820190508181035f83015261286081612827565b9050919050565b7f596f7520646f206e6f74206861766520616e792062616c616e63652e000000005f82015250565b5f61289b601c836123b9565b91506128a682612867565b602082019050919050565b5f6020820190508181035f8301526128c88161288f565b9050919050565b5f81905092915050565b50565b5f6128e75f836128cf565b91506128f2826128d9565b5f82019050919050565b5f612906826128dc565b9150819050919050565b7f5472616e73666572206661696c65642e000000000000000000000000000000005f82015250565b5f6129446010836123b9565b915061294f82612910565b602082019050919050565b5f6020820190508181035f83015261297181612938565b9050919050565b7f4d697373696e6720726571756972656420616d6f756e740000000000000000005f82015250565b5f6129ac6017836123b9565b91506129b782612978565b602082019050919050565b5f6020820190508181035f8301526129d9816129a0565b9050919050565b5f6129ea82611d53565b91506129f583611d53565b9250828201905080821115612a0d57612a0c612484565b5b92915050565b7f496e76616c696420707572636861736520696e646578000000000000000000005f82015250565b5f612a476016836123b9565b9150612a5282612a13565b602082019050919050565b5f6020820190508181035f830152612a7481612a3b565b9050919050565b7f4e6f7420796f75722070757263686173650000000000000000000000000000005f82015250565b5f612aaf6011836123b9565b9150612aba82612a7b565b602082019050919050565b5f6020820190508181035f830152612adc81612aa3565b9050919050565b7f507572636861736520616c726561647920636f6e73756d6564000000000000005f82015250565b5f612b176019836123b9565b9150612b2282612ae3565b602082019050919050565b5f6020820190508181035f830152612b4481612b0b565b9050919050565b5f81905092915050565b5f612b5f82611ce3565b612b698185612b4b565b9350612b79818560208601611cfd565b80840191505092915050565b5f612b908284612b55565b915081905092915050565b5f8154612ba781612389565b612bb18186612b4b565b9450600182165f8114612bcb5760018114612be057612c12565b60ff1983168652811515820286019350612c12565b612be985612593565b5f5b83811015612c0a57815481890152600182019150602081019050612beb565b838801955050505b50505092915050565b5f612c268284612b9b565b915081905092915050565b7f50726f64756374206e6f7420666f756e640000000000000000000000000000005f82015250565b5f612c656011836123b9565b9150612c7082612c31565b602082019050919050565b5f6020820190508181035f830152612c9281612c59565b905091905056fea264697066735822122059f7680153639bdbf6581e28bcbf31f1c6101ce4e16291d18a6d5df4b0a8b4ed64736f6c634300081a0033516d6652465261626f50334d3438656578766e516b6977675544506150484a69466e44634b637545754c426266312f",
					"opcodes": "PUSH1 0x80 PUSH1 0x40 MSTORE CALLVALUE DUP1 ISZERO PUSH2 0xF JUMPI PUSH0 DUP1 REVERT JUMPDEST POP CALLER PUSH0 DUP1 PUSH2 0x100 EXP DUP2 SLOAD DUP2 PUSH20 0xFFFFFFFFFFFFFFFFFFFFFFFFFFFFFFFFFFFFFFFF MUL NOT AND SWAP1 DUP4 PUSH20 0xFFFFFFFFFFFFFFFFFFFFFFFFFFFFFFFFFFFFFFFF AND MUL OR SWAP1 SSTORE POP PUSH2 0x5D PUSH2 0x62 PUSH1 0x20 SHL PUSH1 0x20 SHR JUMP JUMPDEST PUSH2 0x1EE4 JUMP JUMPDEST PUSH1 0x1 PUSH1 0x40 MLOAD DUP1 PUSH1 0x80 ADD PUSH1 0x40 MSTORE DUP1 PUSH1 0x40 MLOAD DUP1 PUSH1 0x40 ADD PUSH1 0x40 MSTORE DUP1 PUSH1 0x2 DUP2 MSTORE PUSH1 0x20 ADD PUSH32 0x4131000000000000000000000000000000000000000000000000000000000000 DUP2 MSTORE POP DUP2 MSTORE PUSH1 0x20 ADD PUSH4 0x5F5E100 PUSH1 0xF PUSH2 0xBB SWAP2 SWAP1 PUSH2 0x1B38 JUMP JUMPDEST DUP2 MSTORE PUSH1 0x20 ADD PUSH1 0x40 MLOAD DUP1 PUSH1 0x40 ADD PUSH1 0x40 MSTORE DUP1 PUSH1 0x4 DUP2 MSTORE PUSH1 0x20 ADD PUSH32 0x4C61797300000000000000000000000000000000000000000000000000000000 DUP2 MSTORE POP DUP2 MSTORE PUSH1 0x20 ADD PUSH2 0x13F PUSH1 0x40 MLOAD DUP1 PUSH1 0x40 ADD PUSH1 0x40 MSTORE DUP1 PUSH1 0x8 DUP2 MSTORE PUSH1 0x20 ADD PUSH32 0x6C6179732E706E67000000000000000000000000000000000000000000000000 DUP2 MSTORE POP PUSH2 0x1ABF PUSH1 0x20 SHL PUSH1 0x20 SHR JUMP JUMPDEST DUP2 MSTORE POP SWAP1 DUP1 PUSH1 0x1 DUP2 SLOAD ADD DUP1 DUP3 SSTORE DUP1 SWAP2 POP POP PUSH1 0x1 SWAP1 SUB SWAP1 PUSH0 MSTORE PUSH1 0x20 PUSH0 KECCAK256 SWAP1 PUSH1 0x4 MUL ADD PUSH0 SWAP1 SWAP2 SWAP1 SWAP2 SWAP1 SWAP2 POP PUSH0 DUP3 ADD MLOAD DUP2 PUSH0 ADD SWAP1 DUP2 PUSH2 0x17B SWAP2 SWAP1 PUSH2 0x1DAA JUMP JUMPDEST POP PUSH1 0x20 DUP3 ADD MLOAD DUP2 PUSH1 0x1 ADD SSTORE PUSH1 0x40 DUP3 ADD MLOAD DUP2 PUSH1 0x2 ADD SWAP1 DUP2 PUSH2 0x19B SWAP2 SWAP1 PUSH2 0x1DAA JUMP JUMPDEST POP PUSH1 0x60 DUP3 ADD MLOAD DUP2 PUSH1 0x3 ADD SWAP1 DUP2 PUSH2 0x1B1 SWAP2 SWAP1 PUSH2 0x1DAA JUMP JUMPDEST POP POP POP PUSH1 0x1 PUSH1 0x40 MLOAD DUP1 PUSH1 0x80 ADD PUSH1 0x40 MSTORE DUP1 PUSH1 0x40 MLOAD DUP1 PUSH1 0x40 ADD PUSH1 0x40 MSTORE DUP1 PUSH1 0x2 DUP2 MSTORE PUSH1 0x20 ADD PUSH32 0x4132000000000000000000000000000000000000000000000000000000000000 DUP2 MSTORE POP DUP2 MSTORE PUSH1 0x20 ADD PUSH3 0x989680 PUSH1 0xAF PUSH2 0x20C SWAP2 SWAP1 PUSH2 0x1B38 JUMP JUMPDEST DUP2 MSTORE PUSH1 0x20 ADD PUSH1 0x40 MLOAD DUP1 PUSH1 0x40 ADD PUSH1 0x40 MSTORE DUP1 PUSH1 0x9 DUP2 MSTORE PUSH1 0x20 ADD PUSH32 0x436F636120436F6C610000000000000000000000000000000000000000000000 DUP2 MSTORE POP DUP2 MSTORE PUSH1 0x20 ADD PUSH2 0x290 PUSH1 0x40 MLOAD DUP1 PUSH1 0x40 ADD PUSH1 0x40 MSTORE DUP1 PUSH1 0xD DUP2 MSTORE PUSH1 0x20 ADD PUSH32 0x636F63612D636F6C612E706E6700000000000000000000000000000000000000 DUP2 MSTORE POP PUSH2 0x1ABF PUSH1 0x20 SHL PUSH1 0x20 SHR JUMP JUMPDEST DUP2 MSTORE POP SWAP1 DUP1 PUSH1 0x1 DUP2 SLOAD ADD DUP1 DUP3 SSTORE DUP1 SWAP2 POP POP PUSH1 0x1 SWAP1 SUB SWAP1 PUSH0 MSTORE PUSH1 0x20 PUSH0 KECCAK256 SWAP1 PUSH1 0x4 MUL ADD PUSH0 SWAP1 SWAP2 SWAP1 SWAP2 SWAP1 SWAP2 POP PUSH0 DUP3 ADD MLOAD DUP2 PUSH0 ADD SWAP1 DUP2 PUSH2 0x2CC SWAP2 SWAP1 PUSH2 0x1DAA JUMP JUMPDEST POP PUSH1 0x20 DUP3 ADD MLOAD DUP2 PUSH1 0x1 ADD SSTORE PUSH1 0x40 DUP3 ADD MLOAD DUP2 PUSH1 0x2 ADD SWAP1 DUP2 PUSH2 0x2EC SWAP2 SWAP1 PUSH2 0x1DAA JUMP JUMPDEST POP PUSH1 0x60 DUP3 ADD MLOAD DUP2 PUSH1 0x3 ADD SWAP1 DUP2 PUSH2 0x302 SWAP2 SWAP1 PUSH2 0x1DAA JUMP JUMPDEST POP POP POP PUSH1 0x1 PUSH1 0x40 MLOAD DUP1 PUSH1 0x80 ADD PUSH1 0x40 MSTORE DUP1 PUSH1 0x40 MLOAD DUP1 PUSH1 0x40 ADD PUSH1 0x40 MSTORE DUP1 PUSH1 0x2 DUP2 MSTORE PUSH1 0x20 ADD PUSH32 0x4133000000000000000000000000000000000000000000000000000000000000 DUP2 MSTORE POP DUP2 MSTORE PUSH1 0x20 ADD PUSH4 0x5F5E100 PUSH1 0xF PUSH2 0x35E SWAP2 SWAP1 PUSH2 0x1B38 JUMP JUMPDEST DUP2 MSTORE PUSH1 0x20 ADD PUSH1 0x40 MLOAD DUP1 PUSH1 0x40 ADD PUSH1 0x40 MSTORE DUP1 PUSH1 0x8 DUP2 MSTORE PUSH1 0x20 ADD PUSH32 0x5072696E676C6573000000000000000000000000000000000000000000000000 DUP2 MSTORE POP DUP2 MSTORE PUSH1 0x20 ADD PUSH2 0x3E2 PUSH1 0x40 MLOAD DUP1 PUSH1 0x40 ADD PUSH1 0x40 MSTORE DUP1 PUSH1 0xB DUP2 MSTORE PUSH1 0x20 ADD PUSH32 0x70696E676C65732E706E67000000000000000000000000000000000000000000 DUP2 MSTORE POP PUSH2 0x1ABF PUSH1 0x20 SHL PUSH1 0x20 SHR JUMP JUMPDEST DUP2 MSTORE POP SWAP1 DUP1 PUSH1 0x1 DUP2 SLOAD ADD DUP1 DUP3 SSTORE DUP1 SWAP2 POP POP PUSH1 0x1 SWAP1 SUB SWAP1 PUSH0 MSTORE PUSH1 0x20 PUSH0 KECCAK256 SWAP1 PUSH1 0x4 MUL ADD PUSH0 SWAP1 SWAP2 SWAP1 SWAP2 SWAP1 SWAP2 POP PUSH0 DUP3 ADD MLOAD DUP2 PUSH0 ADD SWAP1 DUP2 PUSH2 0x41E SWAP2 SWAP1 PUSH2 0x1DAA JUMP JUMPDEST POP PUSH1 0x20 DUP3 ADD MLOAD DUP2 PUSH1 0x1 ADD SSTORE PUSH1 0x40 DUP3 ADD MLOAD DUP2 PUSH1 0x2 ADD SWAP1 DUP2 PUSH2 0x43E SWAP2 SWAP1 PUSH2 0x1DAA JUMP JUMPDEST POP PUSH1 0x60 DUP3 ADD MLOAD DUP2 PUSH1 0x3 ADD SWAP1 DUP2 PUSH2 0x454 SWAP2 SWAP1 PUSH2 0x1DAA JUMP JUMPDEST POP POP POP PUSH1 0x1 PUSH1 0x40 MLOAD DUP1 PUSH1 0x80 ADD PUSH1 0x40 MSTORE DUP1 PUSH1 0x40 MLOAD DUP1 PUSH1 0x40 ADD PUSH1 0x40 MSTORE DUP1 PUSH1 0x2 DUP2 MSTORE PUSH1 0x20 ADD PUSH32 0x4134000000000000000000000000000000000000000000000000000000000000 DUP2 MSTORE POP DUP2 MSTORE PUSH1 0x20 ADD PUSH3 0x989680 PUSH1 0xAF PUSH2 0x4AF SWAP2 SWAP1 PUSH2 0x1B38 JUMP JUMPDEST DUP2 MSTORE PUSH1 0x20 ADD PUSH1 0x40 MLOAD DUP1 PUSH1 0x40 ADD PUSH1 0x40 MSTORE DUP1 PUSH1 0x5 DUP2 MSTORE PUSH1 0x20 ADD PUSH32 0x5761746572000000000000000000000000000000000000000000000000000000 DUP2 MSTORE POP DUP2 MSTORE PUSH1 0x20 ADD PUSH2 0x533 PUSH1 0x40 MLOAD DUP1 PUSH1 0x40 ADD PUSH1 0x40 MSTORE DUP1 PUSH1 0x9 DUP2 MSTORE PUSH1 0x20 ADD PUSH32 0x77617465722E706E670000000000000000000000000000000000000000000000 DUP2 MSTORE POP PUSH2 0x1ABF PUSH1 0x20 SHL PUSH1 0x20 SHR JUMP JUMPDEST DUP2 MSTORE POP SWAP1 DUP1 PUSH1 0x1 DUP2 SLOAD ADD DUP1 DUP3 SSTORE DUP1 SWAP2 POP POP PUSH1 0x1 SWAP1 SUB SWAP1 PUSH0 MSTORE PUSH1 0x20 PUSH0 KECCAK256 SWAP1 PUSH1 0x4 MUL ADD PUSH0 SWAP1 SWAP2 SWAP1 SWAP2 SWAP1 SWAP2 POP PUSH0 DUP3 ADD MLOAD DUP2 PUSH0 ADD SWAP1 DUP2 PUSH2 0x56F SWAP2 SWAP1 PUSH2 0x1DAA JUMP JUMPDEST POP PUSH1 0x20 DUP3 ADD MLOAD DUP2 PUSH1 0x1 ADD SSTORE PUSH1 0x40 DUP3 ADD MLOAD DUP2 PUSH1 0x2 ADD SWAP1 DUP2 PUSH2 0x58F SWAP2 SWAP1 PUSH2 0x1DAA JUMP JUMPDEST POP PUSH1 0x60 DUP3 ADD MLOAD DUP2 PUSH1 0x3 ADD SWAP1 DUP2 PUSH2 0x5A5 SWAP2 SWAP1 PUSH2 0x1DAA JUMP JUMPDEST POP POP POP PUSH1 0x1 PUSH1 0x40 MLOAD DUP1 PUSH1 0x80 ADD PUSH1 0x40 MSTORE DUP1 PUSH1 0x40 MLOAD DUP1 PUSH1 0x40 ADD PUSH1 0x40 MSTORE DUP1 PUSH1 0x2 DUP2 MSTORE PUSH1 0x20 ADD PUSH32 0x4135000000000000000000000000000000000000000000000000000000000000 DUP2 MSTORE POP DUP2 MSTORE PUSH1 0x20 ADD PUSH4 0x5F5E100 PUSH1 0xF PUSH2 0x601 SWAP2 SWAP1 PUSH2 0x1B38 JUMP JUMPDEST DUP2 MSTORE PUSH1 0x20 ADD PUSH1 0x40 MLOAD DUP1 PUSH1 0x40 ADD PUSH1 0x40 MSTORE DUP1 PUSH1 0xC DUP2 MSTORE PUSH1 0x20 ADD PUSH32 0x456E65726779204472696E6B0000000000000000000000000000000000000000 DUP2 MSTORE POP DUP2 MSTORE PUSH1 0x20 ADD PUSH2 0x685 PUSH1 0x40 MLOAD DUP1 PUSH1 0x40 ADD PUSH1 0x40 MSTORE DUP1 PUSH1 0xC DUP2 MSTORE PUSH1 0x20 ADD PUSH32 0x7265642D62756C6C2E706E670000000000000000000000000000000000000000 DUP2 MSTORE POP PUSH2 0x1ABF PUSH1 0x20 SHL PUSH1 0x20 SHR JUMP JUMPDEST DUP2 MSTORE POP SWAP1 DUP1 PUSH1 0x1 DUP2 SLOAD ADD DUP1 DUP3 SSTORE DUP1 SWAP2 POP POP PUSH1 0x1 SWAP1 SUB SWAP1 PUSH0 MSTORE PUSH1 0x20 PUSH0 KECCAK256 SWAP1 PUSH1 0x4 MUL ADD PUSH0 SWAP1 SWAP2 SWAP1 SWAP2 SWAP1 SWAP2 POP PUSH0 DUP3 ADD MLOAD DUP2 PUSH0 ADD SWAP1 DUP2 PUSH2 0x6C1 SWAP2 SWAP1 PUSH2 0x1DAA JUMP JUMPDEST POP PUSH1 0x20 DUP3 ADD MLOAD DUP2 PUSH1 0x1 ADD SSTORE PUSH1 0x40 DUP3 ADD MLOAD DUP2 PUSH1 0x2 ADD SWAP1 DUP2 PUSH2 0x6E1 SWAP2 SWAP1 PUSH2 0x1DAA JUMP JUMPDEST POP PUSH1 0x60 DUP3 ADD MLOAD DUP2 PUSH1 0x3 ADD SWAP1 DUP2 PUSH2 0x6F7 SWAP2 SWAP1 PUSH2 0x1DAA JUMP JUMPDEST POP POP POP PUSH1 0x1 PUSH1 0x40 MLOAD DUP1 PUSH1 0x80 ADD PUSH1 0x40 MSTORE DUP1 PUSH1 0x40 MLOAD DUP1 PUSH1 0x40 ADD PUSH1 0x40 MSTORE DUP1 PUSH1 0x2 DUP2 MSTORE PUSH1 0x20 ADD PUSH32 0x4231000000000000000000000000000000000000000000000000000000000000 DUP2 MSTORE POP DUP2 MSTORE PUSH1 0x20 ADD PUSH4 0x5F5E100 PUSH1 0x14 PUSH2 0x753 SWAP2 SWAP1 PUSH2 0x1B38 JUMP JUMPDEST DUP2 MSTORE PUSH1 0x20 ADD PUSH1 0x40 MLOAD DUP1 PUSH1 0x40 ADD PUSH1 0x40 MSTORE DUP1 PUSH1 0x8 DUP2 MSTORE PUSH1 0x20 ADD PUSH32 0x53616E6477696368000000000000000000000000000000000000000000000000 DUP2 MSTORE POP DUP2 MSTORE PUSH1 0x20 ADD PUSH2 0x7D7 PUSH1 0x40 MLOAD DUP1 PUSH1 0x40 ADD PUSH1 0x40 MSTORE DUP1 PUSH1 0xC DUP2 MSTORE PUSH1 0x20 ADD PUSH32 0x73616E64776963682E706E670000000000000000000000000000000000000000 DUP2 MSTORE POP PUSH2 0x1ABF PUSH1 0x20 SHL PUSH1 0x20 SHR JUMP JUMPDEST DUP2 MSTORE POP SWAP1 DUP1 PUSH1 0x1 DUP2 SLOAD ADD DUP1 DUP3 SSTORE DUP1 SWAP2 POP POP PUSH1 0x1 SWAP1 SUB SWAP1 PUSH0 MSTORE PUSH1 0x20 PUSH0 KECCAK256 SWAP1 PUSH1 0x4 MUL ADD PUSH0 SWAP1 SWAP2 SWAP1 SWAP2 SWAP1 SWAP2 POP PUSH0 DUP3 ADD MLOAD DUP2 PUSH0 ADD SWAP1 DUP2 PUSH2 0x813 SWAP2 SWAP1 PUSH2 0x1DAA JUMP JUMPDEST POP PUSH1 0x20 DUP3 ADD MLOAD DUP2 PUSH1 0x1 ADD SSTORE PUSH1 0x40 DUP3 ADD MLOAD DUP2 PUSH1 0x2 ADD SWAP1 DUP2 PUSH2 0x833 SWAP2 SWAP1 PUSH2 0x1DAA JUMP JUMPDEST POP PUSH1 0x60 DUP3 ADD MLOAD DUP2 PUSH1 0x3 ADD SWAP1 DUP2 PUSH2 0x849 SWAP2 SWAP1 PUSH2 0x1DAA JUMP JUMPDEST POP POP POP PUSH1 0x1 PUSH1 0x40 MLOAD DUP1 PUSH1 0x80 ADD PUSH1 0x40 MSTORE DUP1 PUSH1 0x40 MLOAD DUP1 PUSH1 0x40 ADD PUSH1 0x40 MSTORE DUP1 PUSH1 0x2 DUP2 MSTORE PUSH1 0x20 ADD PUSH32 0x4232000000000000000000000000000000000000000000000000000000000000 DUP2 MSTORE POP DUP2 MSTORE PUSH1 0x20 ADD PUSH3 0x989680 PUSH1 0xAF PUSH2 0x8A4 SWAP2 SWAP1 PUSH2 0x1B38 JUMP JUMPDEST DUP2 MSTORE PUSH1 0x20 ADD PUSH1 0x40 MLOAD DUP1 PUSH1 0x40 ADD PUSH1 0x40 MSTORE DUP1 PUSH1 0x4 DUP2 MSTORE PUSH1 0x20 ADD PUSH32 0x4F72656F00000000000000000000000000000000000000000000000000000000 DUP2 MSTORE POP DUP2 MSTORE PUSH1 0x20 ADD PUSH2 0x928 PUSH1 0x40 MLOAD DUP1 PUSH1 0x40 ADD PUSH1 0x40 MSTORE DUP1 PUSH1 0x8 DUP2 MSTORE PUSH1 0x20 ADD PUSH32 0x6F72656F2E706E67000000000000000000000000000000000000000000000000 DUP2 MSTORE POP PUSH2 0x1ABF PUSH1 0x20 SHL PUSH1 0x20 SHR JUMP JUMPDEST DUP2 MSTORE POP SWAP1 DUP1 PUSH1 0x1 DUP2 SLOAD ADD DUP1 DUP3 SSTORE DUP1 SWAP2 POP POP PUSH1 0x1 SWAP1 SUB SWAP1 PUSH0 MSTORE PUSH1 0x20 PUSH0 KECCAK256 SWAP1 PUSH1 0x4 MUL ADD PUSH0 SWAP1 SWAP2 SWAP1 SWAP2 SWAP1 SWAP2 POP PUSH0 DUP3 ADD MLOAD DUP2 PUSH0 ADD SWAP1 DUP2 PUSH2 0x964 SWAP2 SWAP1 PUSH2 0x1DAA JUMP JUMPDEST POP PUSH1 0x20 DUP3 ADD MLOAD DUP2 PUSH1 0x1 ADD SSTORE PUSH1 0x40 DUP3 ADD MLOAD DUP2 PUSH1 0x2 ADD SWAP1 DUP2 PUSH2 0x984 SWAP2 SWAP1 PUSH2 0x1DAA JUMP JUMPDEST POP PUSH1 0x60 DUP3 ADD MLOAD DUP2 PUSH1 0x3 ADD SWAP1 DUP2 PUSH2 0x99A SWAP2 SWAP1 PUSH2 0x1DAA JUMP JUMPDEST POP POP POP PUSH1 0x1 PUSH1 0x40 MLOAD DUP1 PUSH1 0x80 ADD PUSH1 0x40 MSTORE DUP1 PUSH1 0x40 MLOAD DUP1 PUSH1 0x40 ADD PUSH1 0x40 MSTORE DUP1 PUSH1 0x2 DUP2 MSTORE PUSH1 0x20 ADD PUSH32 0x4233000000000000000000000000000000000000000000000000000000000000 DUP2 MSTORE POP DUP2 MSTORE PUSH1 0x20 ADD PUSH4 0x5F5E100 PUSH1 0xF PUSH2 0x9F6 SWAP2 SWAP1 PUSH2 0x1B38 JUMP JUMPDEST DUP2 MSTORE PUSH1 0x20 ADD PUSH1 0x40 MLOAD DUP1 PUSH1 0x40 ADD PUSH1 0x40 MSTORE DUP1 PUSH1 0x6 DUP2 MSTORE PUSH1 0x20 ADD PUSH32 0x5370726974650000000000000000000000000000000000000000000000000000 DUP2 MSTORE POP DUP2 MSTORE PUSH1 0x20 ADD PUSH2 0xA7A PUSH1 0x40 MLOAD DUP1 PUSH1 0x40 ADD PUSH1 0x40 MSTORE DUP1 PUSH1 0xA DUP2 MSTORE PUSH1 0x20 ADD PUSH32 0x7370726974652E706E6700000000000000000000000000000000000000000000 DUP2 MSTORE POP PUSH2 0x1ABF PUSH1 0x20 SHL PUSH1 0x20 SHR JUMP JUMPDEST DUP2 MSTORE POP SWAP1 DUP1 PUSH1 0x1 DUP2 SLOAD ADD DUP1 DUP3 SSTORE DUP1 SWAP2 POP POP PUSH1 0x1 SWAP1 SUB SWAP1 PUSH0 MSTORE PUSH1 0x20 PUSH0 KECCAK256 SWAP1 PUSH1 0x4 MUL ADD PUSH0 SWAP1 SWAP2 SWAP1 SWAP2 SWAP1 SWAP2 POP PUSH0 DUP3 ADD MLOAD DUP2 PUSH0 ADD SWAP1 DUP2 PUSH2 0xAB6 SWAP2 SWAP1 PUSH2 0x1DAA JUMP JUMPDEST POP PUSH1 0x20 DUP3 ADD MLOAD DUP2 PUSH1 0x1 ADD SSTORE PUSH1 0x40 DUP3 ADD MLOAD DUP2 PUSH1 0x2 ADD SWAP1 DUP2 PUSH2 0xAD6 SWAP2 SWAP1 PUSH2 0x1DAA JUMP JUMPDEST POP PUSH1 0x60 DUP3 ADD MLOAD DUP2 PUSH1 0x3 ADD SWAP1 DUP2 PUSH2 0xAEC SWAP2 SWAP1 PUSH2 0x1DAA JUMP JUMPDEST POP POP POP PUSH1 0x1 PUSH1 0x40 MLOAD DUP1 PUSH1 0x80 ADD PUSH1 0x40 MSTORE DUP1 PUSH1 0x40 MLOAD DUP1 PUSH1 0x40 ADD PUSH1 0x40 MSTORE DUP1 PUSH1 0x2 DUP2 MSTORE PUSH1 0x20 ADD PUSH32 0x4234000000000000000000000000000000000000000000000000000000000000 DUP2 MSTORE POP DUP2 MSTORE PUSH1 0x20 ADD PUSH3 0x989680 PUSH1 0xAF PUSH2 0xB47 SWAP2 SWAP1 PUSH2 0x1B38 JUMP JUMPDEST DUP2 MSTORE PUSH1 0x20 ADD PUSH1 0x40 MLOAD DUP1 PUSH1 0x40 ADD PUSH1 0x40 MSTORE DUP1 PUSH1 0xB DUP2 MSTORE PUSH1 0x20 ADD PUSH32 0x4772616E6F6C6120426172000000000000000000000000000000000000000000 DUP2 MSTORE POP DUP2 MSTORE PUSH1 0x20 ADD PUSH2 0xBCB PUSH1 0x40 MLOAD DUP1 PUSH1 0x40 ADD PUSH1 0x40 MSTORE DUP1 PUSH1 0xF DUP2 MSTORE PUSH1 0x20 ADD PUSH32 0x6772616E6F6C612D6261722E706E670000000000000000000000000000000000 DUP2 MSTORE POP PUSH2 0x1ABF PUSH1 0x20 SHL PUSH1 0x20 SHR JUMP JUMPDEST DUP2 MSTORE POP SWAP1 DUP1 PUSH1 0x1 DUP2 SLOAD ADD DUP1 DUP3 SSTORE DUP1 SWAP2 POP POP PUSH1 0x1 SWAP1 SUB SWAP1 PUSH0 MSTORE PUSH1 0x20 PUSH0 KECCAK256 SWAP1 PUSH1 0x4 MUL ADD PUSH0 SWAP1 SWAP2 SWAP1 SWAP2 SWAP1 SWAP2 POP PUSH0 DUP3 ADD MLOAD DUP2 PUSH0 ADD SWAP1 DUP2 PUSH2 0xC07 SWAP2 SWAP1 PUSH2 0x1DAA JUMP JUMPDEST POP PUSH1 0x20 DUP3 ADD MLOAD DUP2 PUSH1 0x1 ADD SSTORE PUSH1 0x40 DUP3 ADD MLOAD DUP2 PUSH1 0x2 ADD SWAP1 DUP2 PUSH2 0xC27 SWAP2 SWAP1 PUSH2 0x1DAA JUMP JUMPDEST POP PUSH1 0x60 DUP3 ADD MLOAD DUP2 PUSH1 0x3 ADD SWAP1 DUP2 PUSH2 0xC3D SWAP2 SWAP1 PUSH2 0x1DAA JUMP JUMPDEST POP POP POP PUSH1 0x1 PUSH1 0x40 MLOAD DUP1 PUSH1 0x80 ADD PUSH1 0x40 MSTORE DUP1 PUSH1 0x40 MLOAD DUP1 PUSH1 0x40 ADD PUSH1 0x40 MSTORE DUP1 PUSH1 0x2 DUP2 MSTORE PUSH1 0x20 ADD PUSH32 0x4235000000000000000000000000000000000000000000000000000000000000 DUP2 MSTORE POP DUP2 MSTORE PUSH1 0x20 ADD PUSH3 0x989680 PUSH1 0xAF PUSH2 0xC98 SWAP2 SWAP1 PUSH2 0x1B38 JUMP JUMPDEST DUP2 MSTORE PUSH1 0x20 ADD PUSH1 0x40 MLOAD DUP1 PUSH1 0x40 ADD PUSH1 0x40 MSTORE DUP1 PUSH1 0x7 DUP2 MSTORE PUSH1 0x20 ADD PUSH32 0x446F7269746F7300000000000000000000000000000000000000000000000000 DUP2 MSTORE POP DUP2 MSTORE PUSH1 0x20 ADD PUSH2 0xD1C PUSH1 0x40 MLOAD DUP1 PUSH1 0x40 ADD PUSH1 0x40 MSTORE DUP1 PUSH1 0xB DUP2 MSTORE PUSH1 0x20 ADD PUSH32 0x646F7269746F732E706E67000000000000000000000000000000000000000000 DUP2 MSTORE POP PUSH2 0x1ABF PUSH1 0x20 SHL PUSH1 0x20 SHR JUMP JUMPDEST DUP2 MSTORE POP SWAP1 DUP1 PUSH1 0x1 DUP2 SLOAD ADD DUP1 DUP3 SSTORE DUP1 SWAP2 POP POP PUSH1 0x1 SWAP1 SUB SWAP1 PUSH0 MSTORE PUSH1 0x20 PUSH0 KECCAK256 SWAP1 PUSH1 0x4 MUL ADD PUSH0 SWAP1 SWAP2 SWAP1 SWAP2 SWAP1 SWAP2 POP PUSH0 DUP3 ADD MLOAD DUP2 PUSH0 ADD SWAP1 DUP2 PUSH2 0xD58 SWAP2 SWAP1 PUSH2 0x1DAA JUMP JUMPDEST POP PUSH1 0x20 DUP3 ADD MLOAD DUP2 PUSH1 0x1 ADD SSTORE PUSH1 0x40 DUP3 ADD MLOAD DUP2 PUSH1 0x2 ADD SWAP1 DUP2 PUSH2 0xD78 SWAP2 SWAP1 PUSH2 0x1DAA JUMP JUMPDEST POP PUSH1 0x60 DUP3 ADD MLOAD DUP2 PUSH1 0x3 ADD SWAP1 DUP2 PUSH2 0xD8E SWAP2 SWAP1 PUSH2 0x1DAA JUMP JUMPDEST POP POP POP PUSH1 0x1 PUSH1 0x40 MLOAD DUP1 PUSH1 0x80 ADD PUSH1 0x40 MSTORE DUP1 PUSH1 0x40 MLOAD DUP1 PUSH1 0x40 ADD PUSH1 0x40 MSTORE DUP1 PUSH1 0x2 DUP2 MSTORE PUSH1 0x20 ADD PUSH32 0x4331000000000000000000000000000000000000000000000000000000000000 DUP2 MSTORE POP DUP2 MSTORE PUSH1 0x20 ADD PUSH4 0x5F5E100 PUSH1 0xF PUSH2 0xDEA SWAP2 SWAP1 PUSH2 0x1B38 JUMP JUMPDEST DUP2 MSTORE PUSH1 0x20 ADD PUSH1 0x40 MLOAD DUP1 PUSH1 0x40 ADD PUSH1 0x40 MSTORE DUP1 PUSH1 0xB DUP2 MSTORE PUSH1 0x20 ADD PUSH32 0x536E69636B657220426172000000000000000000000000000000000000000000 DUP2 MSTORE POP DUP2 MSTORE PUSH1 0x20 ADD PUSH2 0xE6E PUSH1 0x40 MLOAD DUP1 PUSH1 0x40 ADD PUSH1 0x40 MSTORE DUP1 PUSH1 0xC DUP2 MSTORE PUSH1 0x20 ADD PUSH32 0x736E69636B6572732E706E670000000000000000000000000000000000000000 DUP2 MSTORE POP PUSH2 0x1ABF PUSH1 0x20 SHL PUSH1 0x20 SHR JUMP JUMPDEST DUP2 MSTORE POP SWAP1 DUP1 PUSH1 0x1 DUP2 SLOAD ADD DUP1 DUP3 SSTORE DUP1 SWAP2 POP POP PUSH1 0x1 SWAP1 SUB SWAP1 PUSH0 MSTORE PUSH1 0x20 PUSH0 KECCAK256 SWAP1 PUSH1 0x4 MUL ADD PUSH0 SWAP1 SWAP2 SWAP1 SWAP2 SWAP1 SWAP2 POP PUSH0 DUP3 ADD MLOAD DUP2 PUSH0 ADD SWAP1 DUP2 PUSH2 0xEAA SWAP2 SWAP1 PUSH2 0x1DAA JUMP JUMPDEST POP PUSH1 0x20 DUP3 ADD MLOAD DUP2 PUSH1 0x1 ADD SSTORE PUSH1 0x40 DUP3 ADD MLOAD DUP2 PUSH1 0x2 ADD SWAP1 DUP2 PUSH2 0xECA SWAP2 SWAP1 PUSH2 0x1DAA JUMP JUMPDEST POP PUSH1 0x60 DUP3 ADD MLOAD DUP2 PUSH1 0x3 ADD SWAP1 DUP2 PUSH2 0xEE0 SWAP2 SWAP1 PUSH2 0x1DAA JUMP JUMPDEST POP POP POP PUSH1 0x1 PUSH1 0x40 MLOAD DUP1 PUSH1 0x80 ADD PUSH1 0x40 MSTORE DUP1 PUSH1 0x40 MLOAD DUP1 PUSH1 0x40 ADD PUSH1 0x40 MSTORE DUP1 PUSH1 0x2 DUP2 MSTORE PUSH1 0x20 ADD PUSH32 0x4332000000000000000000000000000000000000000000000000000000000000 DUP2 MSTORE POP DUP2 MSTORE PUSH1 0x20 ADD PUSH4 0x5F5E100 PUSH1 0xF PUSH2 0xF3C SWAP2 SWAP1 PUSH2 0x1B38 JUMP JUMPDEST DUP2 MSTORE PUSH1 0x20 ADD PUSH1 0x40 MLOAD DUP1 PUSH1 0x40 ADD PUSH1 0x40 MSTORE DUP1 PUSH1 0x4 DUP2 MSTORE PUSH1 0x20 ADD PUSH32 0x4D264D7300000000000000000000000000000000000000000000000000000000 DUP2 MSTORE POP DUP2 MSTORE PUSH1 0x20 ADD PUSH2 0xFC0 PUSH1 0x40 MLOAD DUP1 PUSH1 0x40 ADD PUSH1 0x40 MSTORE DUP1 PUSH1 0x8 DUP2 MSTORE PUSH1 0x20 ADD PUSH32 0x6D266D732E706E67000000000000000000000000000000000000000000000000 DUP2 MSTORE POP PUSH2 0x1ABF PUSH1 0x20 SHL PUSH1 0x20 SHR JUMP JUMPDEST DUP2 MSTORE POP SWAP1 DUP1 PUSH1 0x1 DUP2 SLOAD ADD DUP1 DUP3 SSTORE DUP1 SWAP2 POP POP PUSH1 0x1 SWAP1 SUB SWAP1 PUSH0 MSTORE PUSH1 0x20 PUSH0 KECCAK256 SWAP1 PUSH1 0x4 MUL ADD PUSH0 SWAP1 SWAP2 SWAP1 SWAP2 SWAP1 SWAP2 POP PUSH0 DUP3 ADD MLOAD DUP2 PUSH0 ADD SWAP1 DUP2 PUSH2 0xFFC SWAP2 SWAP1 PUSH2 0x1DAA JUMP JUMPDEST POP PUSH1 0x20 DUP3 ADD MLOAD DUP2 PUSH1 0x1 ADD SSTORE PUSH1 0x40 DUP3 ADD MLOAD DUP2 PUSH1 0x2 ADD SWAP1 DUP2 PUSH2 0x101C SWAP2 SWAP1 PUSH2 0x1DAA JUMP JUMPDEST POP PUSH1 0x60 DUP3 ADD MLOAD DUP2 PUSH1 0x3 ADD SWAP1 DUP2 PUSH2 0x1032 SWAP2 SWAP1 PUSH2 0x1DAA JUMP JUMPDEST POP POP POP PUSH1 0x1 PUSH1 0x40 MLOAD DUP1 PUSH1 0x80 ADD PUSH1 0x40 MSTORE DUP1 PUSH1 0x40 MLOAD DUP1 PUSH1 0x40 ADD PUSH1 0x40 MSTORE DUP1 PUSH1 0x2 DUP2 MSTORE PUSH1 0x20 ADD PUSH32 0x4333000000000000000000000000000000000000000000000000000000000000 DUP2 MSTORE POP DUP2 MSTORE PUSH1 0x20 ADD PUSH3 0x989680 PUSH1 0x7D PUSH2 0x108D SWAP2 SWAP1 PUSH2 0x1B38 JUMP JUMPDEST DUP2 MSTORE PUSH1 0x20 ADD PUSH1 0x40 MLOAD DUP1 PUSH1 0x40 ADD PUSH1 0x40 MSTORE DUP1 PUSH1 0xE DUP2 MSTORE PUSH1 0x20 ADD PUSH32 0x427562626C65205461702047756D000000000000000000000000000000000000 DUP2 MSTORE POP DUP2 MSTORE PUSH1 0x20 ADD PUSH2 0x1111 PUSH1 0x40 MLOAD DUP1 PUSH1 0x40 ADD PUSH1 0x40 MSTORE DUP1 PUSH1 0xE DUP2 MSTORE PUSH1 0x20 ADD PUSH32 0x627562626C652D7461702E706E67000000000000000000000000000000000000 DUP2 MSTORE POP PUSH2 0x1ABF PUSH1 0x20 SHL PUSH1 0x20 SHR JUMP JUMPDEST DUP2 MSTORE POP SWAP1 DUP1 PUSH1 0x1 DUP2 SLOAD ADD DUP1 DUP3 SSTORE DUP1 SWAP2 POP POP PUSH1 0x1 SWAP1 SUB SWAP1 PUSH0 MSTORE PUSH1 0x20 PUSH0 KECCAK256 SWAP1 PUSH1 0x4 MUL ADD PUSH0 SWAP1 SWAP2 SWAP1 SWAP2 SWAP1 SWAP2 POP PUSH0 DUP3 ADD MLOAD DUP2 PUSH0 ADD SWAP1 DUP2 PUSH2 0x114D SWAP2 SWAP1 PUSH2 0x1DAA JUMP JUMPDEST POP PUSH1 0x20 DUP3 ADD MLOAD DUP2 PUSH1 0x1 ADD SSTORE PUSH1 0x40 DUP3 ADD MLOAD DUP2 PUSH1 0x2 ADD SWAP1 DUP2 PUSH2 0x116D SWAP2 SWAP1 PUSH2 0x1DAA JUMP JUMPDEST POP PUSH1 0x60 DUP3 ADD MLOAD DUP2 PUSH1 0x3 ADD SWAP1 DUP2 PUSH2 0x1183 SWAP2 SWAP1 PUSH2 0x1DAA JUMP JUMPDEST POP POP POP PUSH1 0x1 PUSH1 0x40 MLOAD DUP1 PUSH1 0x80 ADD PUSH1 0x40 MSTORE DUP1 PUSH1 0x40 MLOAD DUP1 PUSH1 0x40 ADD PUSH1 0x40 MSTORE DUP1 PUSH1 0x2 DUP2 MSTORE PUSH1 0x20 ADD PUSH32 0x4334000000000000000000000000000000000000000000000000000000000000 DUP2 MSTORE POP DUP2 MSTORE PUSH1 0x20 ADD PUSH3 0x989680 PUSH1 0xAF PUSH2 0x11DE SWAP2 SWAP1 PUSH2 0x1B38 JUMP JUMPDEST DUP2 MSTORE PUSH1 0x20 ADD PUSH1 0x40 MLOAD DUP1 PUSH1 0x40 ADD PUSH1 0x40 MSTORE DUP1 PUSH1 0xD DUP2 MSTORE PUSH1 0x20 ADD PUSH32 0x4672756974204E75742042617200000000000000000000000000000000000000 DUP2 MSTORE POP DUP2 MSTORE PUSH1 0x20 ADD PUSH2 0x1262 PUSH1 0x40 MLOAD DUP1 PUSH1 0x40 ADD PUSH1 0x40 MSTORE DUP1 PUSH1 0xD DUP2 MSTORE PUSH1 0x20 ADD PUSH32 0x66727569742D6E75742E706E6700000000000000000000000000000000000000 DUP2 MSTORE POP PUSH2 0x1ABF PUSH1 0x20 SHL PUSH1 0x20 SHR JUMP JUMPDEST DUP2 MSTORE POP SWAP1 DUP1 PUSH1 0x1 DUP2 SLOAD ADD DUP1 DUP3 SSTORE DUP1 SWAP2 POP POP PUSH1 0x1 SWAP1 SUB SWAP1 PUSH0 MSTORE PUSH1 0x20 PUSH0 KECCAK256 SWAP1 PUSH1 0x4 MUL ADD PUSH0 SWAP1 SWAP2 SWAP1 SWAP2 SWAP1 SWAP2 POP PUSH0 DUP3 ADD MLOAD DUP2 PUSH0 ADD SWAP1 DUP2 PUSH2 0x129E SWAP2 SWAP1 PUSH2 0x1DAA JUMP JUMPDEST POP PUSH1 0x20 DUP3 ADD MLOAD DUP2 PUSH1 0x1 ADD SSTORE PUSH1 0x40 DUP3 ADD MLOAD DUP2 PUSH1 0x2 ADD SWAP1 DUP2 PUSH2 0x12BE SWAP2 SWAP1 PUSH2 0x1DAA JUMP JUMPDEST POP PUSH1 0x60 DUP3 ADD MLOAD DUP2 PUSH1 0x3 ADD SWAP1 DUP2 PUSH2 0x12D4 SWAP2 SWAP1 PUSH2 0x1DAA JUMP JUMPDEST POP POP POP PUSH1 0x1 PUSH1 0x40 MLOAD DUP1 PUSH1 0x80 ADD PUSH1 0x40 MSTORE DUP1 PUSH1 0x40 MLOAD DUP1 PUSH1 0x40 ADD PUSH1 0x40 MSTORE DUP1 PUSH1 0x2 DUP2 MSTORE PUSH1 0x20 ADD PUSH32 0x4335000000000000000000000000000000000000000000000000000000000000 DUP2 MSTORE POP DUP2 MSTORE PUSH1 0x20 ADD PUSH3 0x989680 PUSH1 0xAF PUSH2 0x132F SWAP2 SWAP1 PUSH2 0x1B38 JUMP JUMPDEST DUP2 MSTORE PUSH1 0x20 ADD PUSH1 0x40 MLOAD DUP1 PUSH1 0x40 ADD PUSH1 0x40 MSTORE DUP1 PUSH1 0xA DUP2 MSTORE PUSH1 0x20 ADD PUSH32 0x42656566204A65726B7900000000000000000000000000000000000000000000 DUP2 MSTORE POP DUP2 MSTORE PUSH1 0x20 ADD PUSH2 0x13B3 PUSH1 0x40 MLOAD DUP1 PUSH1 0x40 ADD PUSH1 0x40 MSTORE DUP1 PUSH1 0xE DUP2 MSTORE PUSH1 0x20 ADD PUSH32 0x626565662D6A65726B792E706E67000000000000000000000000000000000000 DUP2 MSTORE POP PUSH2 0x1ABF PUSH1 0x20 SHL PUSH1 0x20 SHR JUMP JUMPDEST DUP2 MSTORE POP SWAP1 DUP1 PUSH1 0x1 DUP2 SLOAD ADD DUP1 DUP3 SSTORE DUP1 SWAP2 POP POP PUSH1 0x1 SWAP1 SUB SWAP1 PUSH0 MSTORE PUSH1 0x20 PUSH0 KECCAK256 SWAP1 PUSH1 0x4 MUL ADD PUSH0 SWAP1 SWAP2 SWAP1 SWAP2 SWAP1 SWAP2 POP PUSH0 DUP3 ADD MLOAD DUP2 PUSH0 ADD SWAP1 DUP2 PUSH2 0x13EF SWAP2 SWAP1 PUSH2 0x1DAA JUMP JUMPDEST POP PUSH1 0x20 DUP3 ADD MLOAD DUP2 PUSH1 0x1 ADD SSTORE PUSH1 0x40 DUP3 ADD MLOAD DUP2 PUSH1 0x2 ADD SWAP1 DUP2 PUSH2 0x140F SWAP2 SWAP1 PUSH2 0x1DAA JUMP JUMPDEST POP PUSH1 0x60 DUP3 ADD MLOAD DUP2 PUSH1 0x3 ADD SWAP1 DUP2 PUSH2 0x1425 SWAP2 SWAP1 PUSH2 0x1DAA JUMP JUMPDEST POP POP POP PUSH1 0x1 PUSH1 0x40 MLOAD DUP1 PUSH1 0x80 ADD PUSH1 0x40 MSTORE DUP1 PUSH1 0x40 MLOAD DUP1 PUSH1 0x40 ADD PUSH1 0x40 MSTORE DUP1 PUSH1 0x2 DUP2 MSTORE PUSH1 0x20 ADD PUSH32 0x4431000000000000000000000000000000000000000000000000000000000000 DUP2 MSTORE POP DUP2 MSTORE PUSH1 0x20 ADD PUSH3 0x989680 PUSH1 0x7D PUSH2 0x1480 SWAP2 SWAP1 PUSH2 0x1B38 JUMP JUMPDEST DUP2 MSTORE PUSH1 0x20 ADD PUSH1 0x40 MLOAD DUP1 PUSH1 0x40 ADD PUSH1 0x40 MSTORE DUP1 PUSH1 0xE DUP2 MSTORE PUSH1 0x20 ADD PUSH32 0x4B69744B61742042697363756974000000000000000000000000000000000000 DUP2 MSTORE POP DUP2 MSTORE PUSH1 0x20 ADD PUSH2 0x1504 PUSH1 0x40 MLOAD DUP1 PUSH1 0x40 ADD PUSH1 0x40 MSTORE DUP1 PUSH1 0xA DUP2 MSTORE PUSH1 0x20 ADD PUSH32 0x6B69746B61742E706E6700000000000000000000000000000000000000000000 DUP2 MSTORE POP PUSH2 0x1ABF PUSH1 0x20 SHL PUSH1 0x20 SHR JUMP JUMPDEST DUP2 MSTORE POP SWAP1 DUP1 PUSH1 0x1 DUP2 SLOAD ADD DUP1 DUP3 SSTORE DUP1 SWAP2 POP POP PUSH1 0x1 SWAP1 SUB SWAP1 PUSH0 MSTORE PUSH1 0x20 PUSH0 KECCAK256 SWAP1 PUSH1 0x4 MUL ADD PUSH0 SWAP1 SWAP2 SWAP1 SWAP2 SWAP1 SWAP2 POP PUSH0 DUP3 ADD MLOAD DUP2 PUSH0 ADD SWAP1 DUP2 PUSH2 0x1540 SWAP2 SWAP1 PUSH2 0x1DAA JUMP JUMPDEST POP PUSH1 0x20 DUP3 ADD MLOAD DUP2 PUSH1 0x1 ADD SSTORE PUSH1 0x40 DUP3 ADD MLOAD DUP2 PUSH1 0x2 ADD SWAP1 DUP2 PUSH2 0x1560 SWAP2 SWAP1 PUSH2 0x1DAA JUMP JUMPDEST POP PUSH1 0x60 DUP3 ADD MLOAD DUP2 PUSH1 0x3 ADD SWAP1 DUP2 PUSH2 0x1576 SWAP2 SWAP1 PUSH2 0x1DAA JUMP JUMPDEST POP POP POP PUSH1 0x1 PUSH1 0x40 MLOAD DUP1 PUSH1 0x80 ADD PUSH1 0x40 MSTORE DUP1 PUSH1 0x40 MLOAD DUP1 PUSH1 0x40 ADD PUSH1 0x40 MSTORE DUP1 PUSH1 0x2 DUP2 MSTORE PUSH1 0x20 ADD PUSH32 0x4432000000000000000000000000000000000000000000000000000000000000 DUP2 MSTORE POP DUP2 MSTORE PUSH1 0x20 ADD PUSH3 0x989680 PUSH1 0x7D PUSH2 0x15D1 SWAP2 SWAP1 PUSH2 0x1B38 JUMP JUMPDEST DUP2 MSTORE PUSH1 0x20 ADD PUSH1 0x40 MLOAD DUP1 PUSH1 0x40 ADD PUSH1 0x40 MSTORE DUP1 PUSH1 0x8 DUP2 MSTORE PUSH1 0x20 ADD PUSH32 0x506F7020436F726E000000000000000000000000000000000000000000000000 DUP2 MSTORE POP DUP2 MSTORE PUSH1 0x20 ADD PUSH2 0x1655 PUSH1 0x40 MLOAD DUP1 PUSH1 0x40 ADD PUSH1 0x40 MSTORE DUP1 PUSH1 0xB DUP2 MSTORE PUSH1 0x20 ADD PUSH32 0x706F70636F726E2E706E67000000000000000000000000000000000000000000 DUP2 MSTORE POP PUSH2 0x1ABF PUSH1 0x20 SHL PUSH1 0x20 SHR JUMP JUMPDEST DUP2 MSTORE POP SWAP1 DUP1 PUSH1 0x1 DUP2 SLOAD ADD DUP1 DUP3 SSTORE DUP1 SWAP2 POP POP PUSH1 0x1 SWAP1 SUB SWAP1 PUSH0 MSTORE PUSH1 0x20 PUSH0 KECCAK256 SWAP1 PUSH1 0x4 MUL ADD PUSH0 SWAP1 SWAP2 SWAP1 SWAP2 SWAP1 SWAP2 POP PUSH0 DUP3 ADD MLOAD DUP2 PUSH0 ADD SWAP1 DUP2 PUSH2 0x1691 SWAP2 SWAP1 PUSH2 0x1DAA JUMP JUMPDEST POP PUSH1 0x20 DUP3 ADD MLOAD DUP2 PUSH1 0x1 ADD SSTORE PUSH1 0x40 DUP3 ADD MLOAD DUP2 PUSH1 0x2 ADD SWAP1 DUP2 PUSH2 0x16B1 SWAP2 SWAP1 PUSH2 0x1DAA JUMP JUMPDEST POP PUSH1 0x60 DUP3 ADD MLOAD DUP2 PUSH1 0x3 ADD SWAP1 DUP2 PUSH2 0x16C7 SWAP2 SWAP1 PUSH2 0x1DAA JUMP JUMPDEST POP POP POP PUSH1 0x1 PUSH1 0x40 MLOAD DUP1 PUSH1 0x80 ADD PUSH1 0x40 MSTORE DUP1 PUSH1 0x40 MLOAD DUP1 PUSH1 0x40 ADD PUSH1 0x40 MSTORE DUP1 PUSH1 0x2 DUP2 MSTORE PUSH1 0x20 ADD PUSH32 0x4433000000000000000000000000000000000000000000000000000000000000 DUP2 MSTORE POP DUP2 MSTORE PUSH1 0x20 ADD PUSH3 0x989680 PUSH1 0x96 PUSH2 0x1722 SWAP2 SWAP1 PUSH2 0x1B38 JUMP JUMPDEST DUP2 MSTORE PUSH1 0x20 ADD PUSH1 0x40 MLOAD DUP1 PUSH1 0x40 ADD PUSH1 0x40 MSTORE DUP1 PUSH1 0x8 DUP2 MSTORE PUSH1 0x20 ADD PUSH32 0x5477697820426172000000000000000000000000000000000000000000000000 DUP2 MSTORE POP DUP2 MSTORE PUSH1 0x20 ADD PUSH2 0x17A6 PUSH1 0x40 MLOAD DUP1 PUSH1 0x40 ADD PUSH1 0x40 MSTORE DUP1 PUSH1 0x8 DUP2 MSTORE PUSH1 0x20 ADD PUSH32 0x747769782E706E67000000000000000000000000000000000000000000000000 DUP2 MSTORE POP PUSH2 0x1ABF PUSH1 0x20 SHL PUSH1 0x20 SHR JUMP JUMPDEST DUP2 MSTORE POP SWAP1 DUP1 PUSH1 0x1 DUP2 SLOAD ADD DUP1 DUP3 SSTORE DUP1 SWAP2 POP POP PUSH1 0x1 SWAP1 SUB SWAP1 PUSH0 MSTORE PUSH1 0x20 PUSH0 KECCAK256 SWAP1 PUSH1 0x4 MUL ADD PUSH0 SWAP1 SWAP2 SWAP1 SWAP2 SWAP1 SWAP2 POP PUSH0 DUP3 ADD MLOAD DUP2 PUSH0 ADD SWAP1 DUP2 PUSH2 0x17E2 SWAP2 SWAP1 PUSH2 0x1DAA JUMP JUMPDEST POP PUSH1 0x20 DUP3 ADD MLOAD DUP2 PUSH1 0x1 ADD SSTORE PUSH1 0x40 DUP3 ADD MLOAD DUP2 PUSH1 0x2 ADD SWAP1 DUP2 PUSH2 0x1802 SWAP2 SWAP1 PUSH2 0x1DAA JUMP JUMPDEST POP PUSH1 0x60 DUP3 ADD MLOAD DUP2 PUSH1 0x3 ADD SWAP1 DUP2 PUSH2 0x1818 SWAP2 SWAP1 PUSH2 0x1DAA JUMP JUMPDEST POP POP POP PUSH1 0x1 PUSH1 0x40 MLOAD DUP1 PUSH1 0x80 ADD PUSH1 0x40 MSTORE DUP1 PUSH1 0x40 MLOAD DUP1 PUSH1 0x40 ADD PUSH1 0x40 MSTORE DUP1 PUSH1 0x2 DUP2 MSTORE PUSH1 0x20 ADD PUSH32 0x4434000000000000000000000000000000000000000000000000000000000000 DUP2 MSTORE POP DUP2 MSTORE PUSH1 0x20 ADD PUSH3 0x989680 PUSH1 0x7D PUSH2 0x1873 SWAP2 SWAP1 PUSH2 0x1B38 JUMP JUMPDEST DUP2 MSTORE PUSH1 0x20 ADD PUSH1 0x40 MLOAD DUP1 PUSH1 0x40 ADD PUSH1 0x40 MSTORE DUP1 PUSH1 0x5 DUP2 MSTORE PUSH1 0x20 ADD PUSH32 0x446F6E7574000000000000000000000000000000000000000000000000000000 DUP2 MSTORE POP DUP2 MSTORE PUSH1 0x20 ADD PUSH2 0x18F7 PUSH1 0x40 MLOAD DUP1 PUSH1 0x40 ADD PUSH1 0x40 MSTORE DUP1 PUSH1 0x9 DUP2 MSTORE PUSH1 0x20 ADD PUSH32 0x646F6E75742E706E670000000000000000000000000000000000000000000000 DUP2 MSTORE POP PUSH2 0x1ABF PUSH1 0x20 SHL PUSH1 0x20 SHR JUMP JUMPDEST DUP2 MSTORE POP SWAP1 DUP1 PUSH1 0x1 DUP2 SLOAD ADD DUP1 DUP3 SSTORE DUP1 SWAP2 POP POP PUSH1 0x1 SWAP1 SUB SWAP1 PUSH0 MSTORE PUSH1 0x20 PUSH0 KECCAK256 SWAP1 PUSH1 0x4 MUL ADD PUSH0 SWAP1 SWAP2 SWAP1 SWAP2 SWAP1 SWAP2 POP PUSH0 DUP3 ADD MLOAD DUP2 PUSH0 ADD SWAP1 DUP2 PUSH2 0x1933 SWAP2 SWAP1 PUSH2 0x1DAA JUMP JUMPDEST POP PUSH1 0x20 DUP3 ADD MLOAD DUP2 PUSH1 0x1 ADD SSTORE PUSH1 0x40 DUP3 ADD MLOAD DUP2 PUSH1 0x2 ADD SWAP1 DUP2 PUSH2 0x1953 SWAP2 SWAP1 PUSH2 0x1DAA JUMP JUMPDEST POP PUSH1 0x60 DUP3 ADD MLOAD DUP2 PUSH1 0x3 ADD SWAP1 DUP2 PUSH2 0x1969 SWAP2 SWAP1 PUSH2 0x1DAA JUMP JUMPDEST POP POP POP PUSH1 0x1 PUSH1 0x40 MLOAD DUP1 PUSH1 0x80 ADD PUSH1 0x40 MSTORE DUP1 PUSH1 0x40 MLOAD DUP1 PUSH1 0x40 ADD PUSH1 0x40 MSTORE DUP1 PUSH1 0x2 DUP2 MSTORE PUSH1 0x20 ADD PUSH32 0x4435000000000000000000000000000000000000000000000000000000000000 DUP2 MSTORE POP DUP2 MSTORE PUSH1 0x20 ADD PUSH3 0x989680 PUSH1 0x7D PUSH2 0x19C4 SWAP2 SWAP1 PUSH2 0x1B38 JUMP JUMPDEST DUP2 MSTORE PUSH1 0x20 ADD PUSH1 0x40 MLOAD DUP1 PUSH1 0x40 ADD PUSH1 0x40 MSTORE DUP1 PUSH1 0x9 DUP2 MSTORE PUSH1 0x20 ADD PUSH32 0x526564204170706C650000000000000000000000000000000000000000000000 DUP2 MSTORE POP DUP2 MSTORE PUSH1 0x20 ADD PUSH2 0x1A48 PUSH1 0x40 MLOAD DUP1 PUSH1 0x40 ADD PUSH1 0x40 MSTORE DUP1 PUSH1 0x9 DUP2 MSTORE PUSH1 0x20 ADD PUSH32 0x6170706C652E706E670000000000000000000000000000000000000000000000 DUP2 MSTORE POP PUSH2 0x1ABF PUSH1 0x20 SHL PUSH1 0x20 SHR JUMP JUMPDEST DUP2 MSTORE POP SWAP1 DUP1 PUSH1 0x1 DUP2 SLOAD ADD DUP1 DUP3 SSTORE DUP1 SWAP2 POP POP PUSH1 0x1 SWAP1 SUB SWAP1 PUSH0 MSTORE PUSH1 0x20 PUSH0 KECCAK256 SWAP1 PUSH1 0x4 MUL ADD PUSH0 SWAP1 SWAP2 SWAP1 SWAP2 SWAP1 SWAP2 POP PUSH0 DUP3 ADD MLOAD DUP2 PUSH0 ADD SWAP1 DUP2 PUSH2 0x1A84 SWAP2 SWAP1 PUSH2 0x1DAA JUMP JUMPDEST POP PUSH1 0x20 DUP3 ADD MLOAD DUP2 PUSH1 0x1 ADD SSTORE PUSH1 0x40 DUP3 ADD MLOAD DUP2 PUSH1 0x2 ADD SWAP1 DUP2 PUSH2 0x1AA4 SWAP2 SWAP1 PUSH2 0x1DAA JUMP JUMPDEST POP PUSH1 0x60 DUP3 ADD MLOAD DUP2 PUSH1 0x3 ADD SWAP1 DUP2 PUSH2 0x1ABA SWAP2 SWAP1 PUSH2 0x1DAA JUMP JUMPDEST POP POP POP JUMP JUMPDEST PUSH1 0x60 PUSH1 0x40 MLOAD DUP1 PUSH1 0x60 ADD PUSH1 0x40 MSTORE DUP1 PUSH1 0x2F DUP2 MSTORE PUSH1 0x20 ADD PUSH2 0x4BC0 PUSH1 0x2F SWAP2 CODECOPY DUP3 PUSH1 0x40 MLOAD PUSH1 0x20 ADD PUSH2 0x1AEC SWAP3 SWAP2 SWAP1 PUSH2 0x1EC1 JUMP JUMPDEST PUSH1 0x40 MLOAD PUSH1 0x20 DUP2 DUP4 SUB SUB DUP2 MSTORE SWAP1 PUSH1 0x40 MSTORE SWAP1 POP SWAP2 SWAP1 POP JUMP JUMPDEST PUSH0 DUP2 SWAP1 POP SWAP2 SWAP1 POP JUMP JUMPDEST PUSH32 0x4E487B7100000000000000000000000000000000000000000000000000000000 PUSH0 MSTORE PUSH1 0x11 PUSH1 0x4 MSTORE PUSH1 0x24 PUSH0 REVERT JUMPDEST PUSH0 PUSH2 0x1B42 DUP3 PUSH2 0x1B02 JUMP JUMPDEST SWAP2 POP PUSH2 0x1B4D DUP4 PUSH2 0x1B02 JUMP JUMPDEST SWAP3 POP DUP3 DUP3 MUL PUSH2 0x1B5B DUP2 PUSH2 0x1B02 JUMP JUMPDEST SWAP2 POP DUP3 DUP3 DIV DUP5 EQ DUP4 ISZERO OR PUSH2 0x1B72 JUMPI PUSH2 0x1B71 PUSH2 0x1B0B JUMP JUMPDEST JUMPDEST POP SWAP3 SWAP2 POP POP JUMP JUMPDEST PUSH0 DUP2 MLOAD SWAP1 POP SWAP2 SWAP1 POP JUMP JUMPDEST PUSH32 0x4E487B7100000000000000000000000000000000000000000000000000000000 PUSH0 MSTORE PUSH1 0x41 PUSH1 0x4 MSTORE PUSH1 0x24 PUSH0 REVERT JUMPDEST PUSH32 0x4E487B7100000000000000000000000000000000000000000000000000000000 PUSH0 MSTORE PUSH1 0x22 PUSH1 0x4 MSTORE PUSH1 0x24 PUSH0 REVERT JUMPDEST PUSH0 PUSH1 0x2 DUP3 DIV SWAP1 POP PUSH1 0x1 DUP3 AND DUP1 PUSH2 0x1BF4 JUMPI PUSH1 0x7F DUP3 AND SWAP2 POP JUMPDEST PUSH1 0x20 DUP3 LT DUP2 SUB PUSH2 0x1C07 JUMPI PUSH2 0x1C06 PUSH2 0x1BB0 JUMP JUMPDEST JUMPDEST POP SWAP2 SWAP1 POP JUMP JUMPDEST PUSH0 DUP2 SWAP1 POP DUP2 PUSH0 MSTORE PUSH1 0x20 PUSH0 KECCAK256 SWAP1 POP SWAP2 SWAP1 POP JUMP JUMPDEST PUSH0 PUSH1 0x20 PUSH1 0x1F DUP4 ADD DIV SWAP1 POP SWAP2 SWAP1 POP JUMP JUMPDEST PUSH0 DUP3 DUP3 SHL SWAP1 POP SWAP3 SWAP2 POP POP JUMP JUMPDEST PUSH0 PUSH1 0x8 DUP4 MUL PUSH2 0x1C69 PUSH32 0xFFFFFFFFFFFFFFFFFFFFFFFFFFFFFFFFFFFFFFFFFFFFFFFFFFFFFFFFFFFFFFFF DUP3 PUSH2 0x1C2E JUMP JUMPDEST PUSH2 0x1C73 DUP7 DUP4 PUSH2 0x1C2E JUMP JUMPDEST SWAP6 POP DUP1 NOT DUP5 AND SWAP4 POP DUP1 DUP7 AND DUP5 OR SWAP3 POP POP POP SWAP4 SWAP3 POP POP POP JUMP JUMPDEST PUSH0 DUP2 SWAP1 POP SWAP2 SWAP1 POP JUMP JUMPDEST PUSH0 PUSH2 0x1CAE PUSH2 0x1CA9 PUSH2 0x1CA4 DUP5 PUSH2 0x1B02 JUMP JUMPDEST PUSH2 0x1C8B JUMP JUMPDEST PUSH2 0x1B02 JUMP JUMPDEST SWAP1 POP SWAP2 SWAP1 POP JUMP JUMPDEST PUSH0 DUP2 SWAP1 POP SWAP2 SWAP1 POP JUMP JUMPDEST PUSH2 0x1CC7 DUP4 PUSH2 0x1C94 JUMP JUMPDEST PUSH2 0x1CDB PUSH2 0x1CD3 DUP3 PUSH2 0x1CB5 JUMP JUMPDEST DUP5 DUP5 SLOAD PUSH2 0x1C3A JUMP JUMPDEST DUP3 SSTORE POP POP POP POP JUMP JUMPDEST PUSH0 SWAP1 JUMP JUMPDEST PUSH2 0x1CEF PUSH2 0x1CE3 JUMP JUMPDEST PUSH2 0x1CFA DUP2 DUP5 DUP5 PUSH2 0x1CBE JUMP JUMPDEST POP POP POP JUMP JUMPDEST JUMPDEST DUP2 DUP2 LT ISZERO PUSH2 0x1D1D JUMPI PUSH2 0x1D12 PUSH0 DUP3 PUSH2 0x1CE7 JUMP JUMPDEST PUSH1 0x1 DUP2 ADD SWAP1 POP PUSH2 0x1D00 JUMP JUMPDEST POP POP JUMP JUMPDEST PUSH1 0x1F DUP3 GT ISZERO PUSH2 0x1D62 JUMPI PUSH2 0x1D33 DUP2 PUSH2 0x1C0D JUMP JUMPDEST PUSH2 0x1D3C DUP5 PUSH2 0x1C1F JUMP JUMPDEST DUP2 ADD PUSH1 0x20 DUP6 LT ISZERO PUSH2 0x1D4B JUMPI DUP2 SWAP1 POP JUMPDEST PUSH2 0x1D5F PUSH2 0x1D57 DUP6 PUSH2 0x1C1F JUMP JUMPDEST DUP4 ADD DUP3 PUSH2 0x1CFF JUMP JUMPDEST POP POP JUMPDEST POP POP POP JUMP JUMPDEST PUSH0 DUP3 DUP3 SHR SWAP1 POP SWAP3 SWAP2 POP POP JUMP JUMPDEST PUSH0 PUSH2 0x1D82 PUSH0 NOT DUP5 PUSH1 0x8 MUL PUSH2 0x1D67 JUMP JUMPDEST NOT DUP1 DUP4 AND SWAP2 POP POP SWAP3 SWAP2 POP POP JUMP JUMPDEST PUSH0 PUSH2 0x1D9A DUP4 DUP4 PUSH2 0x1D73 JUMP JUMPDEST SWAP2 POP DUP3 PUSH1 0x2 MUL DUP3 OR SWAP1 POP SWAP3 SWAP2 POP POP JUMP JUMPDEST PUSH2 0x1DB3 DUP3 PUSH2 0x1B79 JUMP JUMPDEST PUSH8 0xFFFFFFFFFFFFFFFF DUP2 GT ISZERO PUSH2 0x1DCC JUMPI PUSH2 0x1DCB PUSH2 0x1B83 JUMP JUMPDEST JUMPDEST PUSH2 0x1DD6 DUP3 SLOAD PUSH2 0x1BDD JUMP JUMPDEST PUSH2 0x1DE1 DUP3 DUP3 DUP6 PUSH2 0x1D21 JUMP JUMPDEST PUSH0 PUSH1 0x20 SWAP1 POP PUSH1 0x1F DUP4 GT PUSH1 0x1 DUP2 EQ PUSH2 0x1E12 JUMPI PUSH0 DUP5 ISZERO PUSH2 0x1E00 JUMPI DUP3 DUP8 ADD MLOAD SWAP1 POP JUMPDEST PUSH2 0x1E0A DUP6 DUP3 PUSH2 0x1D8F JUMP JUMPDEST DUP7 SSTORE POP PUSH2 0x1E71 JUMP JUMPDEST PUSH1 0x1F NOT DUP5 AND PUSH2 0x1E20 DUP7 PUSH2 0x1C0D JUMP JUMPDEST PUSH0 JUMPDEST DUP3 DUP2 LT ISZERO PUSH2 0x1E47 JUMPI DUP5 DUP10 ADD MLOAD DUP3 SSTORE PUSH1 0x1 DUP3 ADD SWAP2 POP PUSH1 0x20 DUP6 ADD SWAP5 POP PUSH1 0x20 DUP2 ADD SWAP1 POP PUSH2 0x1E22 JUMP JUMPDEST DUP7 DUP4 LT ISZERO PUSH2 0x1E64 JUMPI DUP5 DUP10 ADD MLOAD PUSH2 0x1E60 PUSH1 0x1F DUP10 AND DUP3 PUSH2 0x1D73 JUMP JUMPDEST DUP4 SSTORE POP JUMPDEST PUSH1 0x1 PUSH1 0x2 DUP9 MUL ADD DUP9 SSTORE POP POP POP JUMPDEST POP POP POP POP POP POP JUMP JUMPDEST PUSH0 DUP2 SWAP1 POP SWAP3 SWAP2 POP POP JUMP JUMPDEST DUP3 DUP2 DUP4 MCOPY PUSH0 DUP4 DUP4 ADD MSTORE POP POP POP JUMP JUMPDEST PUSH0 PUSH2 0x1E9B DUP3 PUSH2 0x1B79 JUMP JUMPDEST PUSH2 0x1EA5 DUP2 DUP6 PUSH2 0x1E79 JUMP JUMPDEST SWAP4 POP PUSH2 0x1EB5 DUP2 DUP6 PUSH1 0x20 DUP7 ADD PUSH2 0x1E83 JUMP JUMPDEST DUP1 DUP5 ADD SWAP2 POP POP SWAP3 SWAP2 POP POP JUMP JUMPDEST PUSH0 PUSH2 0x1ECC DUP3 DUP6 PUSH2 0x1E91 JUMP JUMPDEST SWAP2 POP PUSH2 0x1ED8 DUP3 DUP5 PUSH2 0x1E91 JUMP JUMPDEST SWAP2 POP DUP2 SWAP1 POP SWAP4 SWAP3 POP POP POP JUMP JUMPDEST PUSH2 0x2CCF DUP1 PUSH2 0x1EF1 PUSH0 CODECOPY PUSH0 RETURN INVALID PUSH1 0x80 PUSH1 0x40 MSTORE PUSH1 0x4 CALLDATASIZE LT PUSH2 0x90 JUMPI PUSH0 CALLDATALOAD PUSH1 0xE0 SHR DUP1 PUSH4 0x70CD5A80 GT PUSH2 0x58 JUMPI DUP1 PUSH4 0x70CD5A80 EQ PUSH2 0x162 JUMPI DUP1 PUSH4 0x94CF2160 EQ PUSH2 0x19E JUMPI DUP1 PUSH4 0xA26759CB EQ PUSH2 0x1DA JUMPI DUP1 PUSH4 0xB04F3225 EQ PUSH2 0x1E4 JUMPI DUP1 PUSH4 0xCDAD28D7 EQ PUSH2 0x20C JUMPI PUSH2 0x90 JUMP JUMPDEST DUP1 PUSH4 0x2EE3A52 EQ PUSH2 0x94 JUMPI DUP1 PUSH4 0x12065FE0 EQ PUSH2 0xBE JUMPI DUP1 PUSH4 0x121DC3D5 EQ PUSH2 0xE8 JUMPI DUP1 PUSH4 0x19F92926 EQ PUSH2 0x124 JUMPI DUP1 PUSH4 0x3CCFD60B EQ PUSH2 0x14C JUMPI JUMPDEST PUSH0 DUP1 REVERT JUMPDEST CALLVALUE DUP1 ISZERO PUSH2 0x9F JUMPI PUSH0 DUP1 REVERT JUMPDEST POP PUSH2 0xA8 PUSH2 0x248 JUMP JUMPDEST PUSH1 0x40 MLOAD PUSH2 0xB5 SWAP2 SWAP1 PUSH2 0x1E6B JUMP JUMPDEST PUSH1 0x40 MLOAD DUP1 SWAP2 SUB SWAP1 RETURN JUMPDEST CALLVALUE DUP1 ISZERO PUSH2 0xC9 JUMPI PUSH0 DUP1 REVERT JUMPDEST POP PUSH2 0xD2 PUSH2 0x45D JUMP JUMPDEST PUSH1 0x40 MLOAD PUSH2 0xDF SWAP2 SWAP1 PUSH2 0x1E9A JUMP JUMPDEST PUSH1 0x40 MLOAD DUP1 SWAP2 SUB SWAP1 RETURN JUMPDEST CALLVALUE DUP1 ISZERO PUSH2 0xF3 JUMPI PUSH0 DUP1 REVERT JUMPDEST POP PUSH2 0x10E PUSH1 0x4 DUP1 CALLDATASIZE SUB DUP2 ADD SWAP1 PUSH2 0x109 SWAP2 SWAP1 PUSH2 0x1F1E JUMP JUMPDEST PUSH2 0x52F JUMP JUMPDEST PUSH1 0x40 MLOAD PUSH2 0x11B SWAP2 SWAP1 PUSH2 0x20E6 JUMP JUMPDEST PUSH1 0x40 MLOAD DUP1 SWAP2 SUB SWAP1 RETURN JUMPDEST CALLVALUE DUP1 ISZERO PUSH2 0x12F JUMPI PUSH0 DUP1 REVERT JUMPDEST POP PUSH2 0x14A PUSH1 0x4 DUP1 CALLDATASIZE SUB DUP2 ADD SWAP1 PUSH2 0x145 SWAP2 SWAP1 PUSH2 0x2232 JUMP JUMPDEST PUSH2 0x93E JUMP JUMPDEST STOP JUMPDEST CALLVALUE DUP1 ISZERO PUSH2 0x157 JUMPI PUSH0 DUP1 REVERT JUMPDEST POP PUSH2 0x160 PUSH2 0xBB8 JUMP JUMPDEST STOP JUMPDEST CALLVALUE DUP1 ISZERO PUSH2 0x16D JUMPI PUSH0 DUP1 REVERT JUMPDEST POP PUSH2 0x188 PUSH1 0x4 DUP1 CALLDATASIZE SUB DUP2 ADD SWAP1 PUSH2 0x183 SWAP2 SWAP1 PUSH2 0x1F1E JUMP JUMPDEST PUSH2 0xE38 JUMP JUMPDEST PUSH1 0x40 MLOAD PUSH2 0x195 SWAP2 SWAP1 PUSH2 0x20E6 JUMP JUMPDEST PUSH1 0x40 MLOAD DUP1 SWAP2 SUB SWAP1 RETURN JUMPDEST CALLVALUE DUP1 ISZERO PUSH2 0x1A9 JUMPI PUSH0 DUP1 REVERT JUMPDEST POP PUSH2 0x1C4 PUSH1 0x4 DUP1 CALLDATASIZE SUB DUP2 ADD SWAP1 PUSH2 0x1BF SWAP2 SWAP1 PUSH2 0x1F1E JUMP JUMPDEST PUSH2 0x11E8 JUMP JUMPDEST PUSH1 0x40 MLOAD PUSH2 0x1D1 SWAP2 SWAP1 PUSH2 0x20E6 JUMP JUMPDEST PUSH1 0x40 MLOAD DUP1 SWAP2 SUB SWAP1 RETURN JUMPDEST PUSH2 0x1E2 PUSH2 0x15F7 JUMP JUMPDEST STOP JUMPDEST CALLVALUE DUP1 ISZERO PUSH2 0x1EF JUMPI PUSH0 DUP1 REVERT JUMPDEST POP PUSH2 0x20A PUSH1 0x4 DUP1 CALLDATASIZE SUB DUP2 ADD SWAP1 PUSH2 0x205 SWAP2 SWAP1 PUSH2 0x22A3 JUMP JUMPDEST PUSH2 0x171B JUMP JUMPDEST STOP JUMPDEST CALLVALUE DUP1 ISZERO PUSH2 0x217 JUMPI PUSH0 DUP1 REVERT JUMPDEST POP PUSH2 0x232 PUSH1 0x4 DUP1 CALLDATASIZE SUB DUP2 ADD SWAP1 PUSH2 0x22D SWAP2 SWAP1 PUSH2 0x2232 JUMP JUMPDEST PUSH2 0x1981 JUMP JUMPDEST PUSH1 0x40 MLOAD PUSH2 0x23F SWAP2 SWAP1 PUSH2 0x233C JUMP JUMPDEST PUSH1 0x40 MLOAD DUP1 SWAP2 SUB SWAP1 RETURN JUMPDEST PUSH1 0x60 PUSH1 0x1 DUP1 SLOAD DUP1 PUSH1 0x20 MUL PUSH1 0x20 ADD PUSH1 0x40 MLOAD SWAP1 DUP2 ADD PUSH1 0x40 MSTORE DUP1 SWAP3 SWAP2 SWAP1 DUP2 DUP2 MSTORE PUSH1 0x20 ADD PUSH0 SWAP1 JUMPDEST DUP3 DUP3 LT ISZERO PUSH2 0x454 JUMPI DUP4 DUP3 SWAP1 PUSH0 MSTORE PUSH1 0x20 PUSH0 KECCAK256 SWAP1 PUSH1 0x4 MUL ADD PUSH1 0x40 MLOAD DUP1 PUSH1 0x80 ADD PUSH1 0x40 MSTORE SWAP1 DUP2 PUSH0 DUP3 ADD DUP1 SLOAD PUSH2 0x29B SWAP1 PUSH2 0x2389 JUMP JUMPDEST DUP1 PUSH1 0x1F ADD PUSH1 0x20 DUP1 SWAP2 DIV MUL PUSH1 0x20 ADD PUSH1 0x40 MLOAD SWAP1 DUP2 ADD PUSH1 0x40 MSTORE DUP1 SWAP3 SWAP2 SWAP1 DUP2 DUP2 MSTORE PUSH1 0x20 ADD DUP3 DUP1 SLOAD PUSH2 0x2C7 SWAP1 PUSH2 0x2389 JUMP JUMPDEST DUP1 ISZERO PUSH2 0x312 JUMPI DUP1 PUSH1 0x1F LT PUSH2 0x2E9 JUMPI PUSH2 0x100 DUP1 DUP4 SLOAD DIV MUL DUP4 MSTORE SWAP2 PUSH1 0x20 ADD SWAP2 PUSH2 0x312 JUMP JUMPDEST DUP3 ADD SWAP2 SWAP1 PUSH0 MSTORE PUSH1 0x20 PUSH0 KECCAK256 SWAP1 JUMPDEST DUP2 SLOAD DUP2 MSTORE SWAP1 PUSH1 0x1 ADD SWAP1 PUSH1 0x20 ADD DUP1 DUP4 GT PUSH2 0x2F5 JUMPI DUP3 SWAP1 SUB PUSH1 0x1F AND DUP3 ADD SWAP2 JUMPDEST POP POP POP POP POP DUP2 MSTORE PUSH1 0x20 ADD PUSH1 0x1 DUP3 ADD SLOAD DUP2 MSTORE PUSH1 0x20 ADD PUSH1 0x2 DUP3 ADD DUP1 SLOAD PUSH2 0x335 SWAP1 PUSH2 0x2389 JUMP JUMPDEST DUP1 PUSH1 0x1F ADD PUSH1 0x20 DUP1 SWAP2 DIV MUL PUSH1 0x20 ADD PUSH1 0x40 MLOAD SWAP1 DUP2 ADD PUSH1 0x40 MSTORE DUP1 SWAP3 SWAP2 SWAP1 DUP2 DUP2 MSTORE PUSH1 0x20 ADD DUP3 DUP1 SLOAD PUSH2 0x361 SWAP1 PUSH2 0x2389 JUMP JUMPDEST DUP1 ISZERO PUSH2 0x3AC JUMPI DUP1 PUSH1 0x1F LT PUSH2 0x383 JUMPI PUSH2 0x100 DUP1 DUP4 SLOAD DIV MUL DUP4 MSTORE SWAP2 PUSH1 0x20 ADD SWAP2 PUSH2 0x3AC JUMP JUMPDEST DUP3 ADD SWAP2 SWAP1 PUSH0 MSTORE PUSH1 0x20 PUSH0 KECCAK256 SWAP1 JUMPDEST DUP2 SLOAD DUP2 MSTORE SWAP1 PUSH1 0x1 ADD SWAP1 PUSH1 0x20 ADD DUP1 DUP4 GT PUSH2 0x38F JUMPI DUP3 SWAP1 SUB PUSH1 0x1F AND DUP3 ADD SWAP2 JUMPDEST POP POP POP POP POP DUP2 MSTORE PUSH1 0x20 ADD PUSH1 0x3 DUP3 ADD DUP1 SLOAD PUSH2 0x3C5 SWAP1 PUSH2 0x2389 JUMP JUMPDEST DUP1 PUSH1 0x1F ADD PUSH1 0x20 DUP1 SWAP2 DIV MUL PUSH1 0x20 ADD PUSH1 0x40 MLOAD SWAP1 DUP2 ADD PUSH1 0x40 MSTORE DUP1 SWAP3 SWAP2 SWAP1 DUP2 DUP2 MSTORE PUSH1 0x20 ADD DUP3 DUP1 SLOAD PUSH2 0x3F1 SWAP1 PUSH2 0x2389 JUMP JUMPDEST DUP1 ISZERO PUSH2 0x43C JUMPI DUP1 PUSH1 0x1F LT PUSH2 0x413 JUMPI PUSH2 0x100 DUP1 DUP4 SLOAD DIV MUL DUP4 MSTORE SWAP2 PUSH1 0x20 ADD SWAP2 PUSH2 0x43C JUMP JUMPDEST DUP3 ADD SWAP2 SWAP1 PUSH0 MSTORE PUSH1 0x20 PUSH0 KECCAK256 SWAP1 JUMPDEST DUP2 SLOAD DUP2 MSTORE SWAP1 PUSH1 0x1 ADD SWAP1 PUSH1 0x20 ADD DUP1 DUP4 GT PUSH2 0x41F JUMPI DUP3 SWAP1 SUB PUSH1 0x1F AND DUP3 ADD SWAP2 JUMPDEST POP POP POP POP POP DUP2 MSTORE POP POP DUP2 MSTORE PUSH1 0x20 ADD SWAP1 PUSH1 0x1 ADD SWAP1 PUSH2 0x26B JUMP JUMPDEST POP POP POP POP SWAP1 POP SWAP1 JUMP JUMPDEST PUSH0 DUP1 PUSH0 SWAP1 SLOAD SWAP1 PUSH2 0x100 EXP SWAP1 DIV PUSH20 0xFFFFFFFFFFFFFFFFFFFFFFFFFFFFFFFFFFFFFFFF AND PUSH20 0xFFFFFFFFFFFFFFFFFFFFFFFFFFFFFFFFFFFFFFFF AND CALLER PUSH20 0xFFFFFFFFFFFFFFFFFFFFFFFFFFFFFFFFFFFFFFFF AND EQ PUSH2 0x4EC JUMPI PUSH1 0x40 MLOAD PUSH32 0x8C379A000000000000000000000000000000000000000000000000000000000 DUP2 MSTORE PUSH1 0x4 ADD PUSH2 0x4E3 SWAP1 PUSH2 0x2439 JUMP JUMPDEST PUSH1 0x40 MLOAD DUP1 SWAP2 SUB SWAP1 REVERT JUMPDEST PUSH1 0x2 PUSH0 CALLER PUSH20 0xFFFFFFFFFFFFFFFFFFFFFFFFFFFFFFFFFFFFFFFF AND PUSH20 0xFFFFFFFFFFFFFFFFFFFFFFFFFFFFFFFFFFFFFFFF AND DUP2 MSTORE PUSH1 0x20 ADD SWAP1 DUP2 MSTORE PUSH1 0x20 ADD PUSH0 KECCAK256 SLOAD SWAP1 POP SWAP1 JUMP JUMPDEST PUSH1 0x60 PUSH0 DUP1 SLOAD SWAP1 PUSH2 0x100 EXP SWAP1 DIV PUSH20 0xFFFFFFFFFFFFFFFFFFFFFFFFFFFFFFFFFFFFFFFF AND PUSH20 0xFFFFFFFFFFFFFFFFFFFFFFFFFFFFFFFFFFFFFFFF AND CALLER PUSH20 0xFFFFFFFFFFFFFFFFFFFFFFFFFFFFFFFFFFFFFFFF AND EQ PUSH2 0x5BE JUMPI PUSH1 0x40 MLOAD PUSH32 0x8C379A000000000000000000000000000000000000000000000000000000000 DUP2 MSTORE PUSH1 0x4 ADD PUSH2 0x5B5 SWAP1 PUSH2 0x2439 JUMP JUMPDEST PUSH1 0x40 MLOAD DUP1 SWAP2 SUB SWAP1 REVERT JUMPDEST PUSH0 PUSH1 0x3 DUP1 SLOAD SWAP1 POP PUSH8 0xFFFFFFFFFFFFFFFF DUP2 GT ISZERO PUSH2 0x5DE JUMPI PUSH2 0x5DD PUSH2 0x210E JUMP JUMPDEST JUMPDEST PUSH1 0x40 MLOAD SWAP1 DUP1 DUP3 MSTORE DUP1 PUSH1 0x20 MUL PUSH1 0x20 ADD DUP3 ADD PUSH1 0x40 MSTORE DUP1 ISZERO PUSH2 0x617 JUMPI DUP2 PUSH1 0x20 ADD JUMPDEST PUSH2 0x604 PUSH2 0x1C46 JUMP JUMPDEST DUP2 MSTORE PUSH1 0x20 ADD SWAP1 PUSH1 0x1 SWAP1 SUB SWAP1 DUP2 PUSH2 0x5FC JUMPI SWAP1 POP JUMPDEST POP SWAP1 POP PUSH0 DUP1 JUMPDEST PUSH1 0x3 DUP1 SLOAD SWAP1 POP DUP2 LT ISZERO PUSH2 0x88A JUMPI DUP5 PUSH20 0xFFFFFFFFFFFFFFFFFFFFFFFFFFFFFFFFFFFFFFFF AND PUSH1 0x3 DUP3 DUP2 SLOAD DUP2 LT PUSH2 0x655 JUMPI PUSH2 0x654 PUSH2 0x2457 JUMP JUMPDEST JUMPDEST SWAP1 PUSH0 MSTORE PUSH1 0x20 PUSH0 KECCAK256 SWAP1 PUSH1 0x4 MUL ADD PUSH0 ADD PUSH0 SWAP1 SLOAD SWAP1 PUSH2 0x100 EXP SWAP1 DIV PUSH20 0xFFFFFFFFFFFFFFFFFFFFFFFFFFFFFFFFFFFFFFFF AND PUSH20 0xFFFFFFFFFFFFFFFFFFFFFFFFFFFFFFFFFFFFFFFF AND EQ DUP1 ISZERO PUSH2 0x6F8 JUMPI POP PUSH0 PUSH1 0x1 DUP2 GT ISZERO PUSH2 0x6B4 JUMPI PUSH2 0x6B3 PUSH2 0x1F81 JUMP JUMPDEST JUMPDEST PUSH1 0x3 DUP3 DUP2 SLOAD DUP2 LT PUSH2 0x6C8 JUMPI PUSH2 0x6C7 PUSH2 0x2457 JUMP JUMPDEST JUMPDEST SWAP1 PUSH0 MSTORE PUSH1 0x20 PUSH0 KECCAK256 SWAP1 PUSH1 0x4 MUL ADD PUSH1 0x3 ADD PUSH0 SWAP1 SLOAD SWAP1 PUSH2 0x100 EXP SWAP1 DIV PUSH1 0xFF AND PUSH1 0x1 DUP2 GT ISZERO PUSH2 0x6F6 JUMPI PUSH2 0x6F5 PUSH2 0x1F81 JUMP JUMPDEST JUMPDEST EQ JUMPDEST ISZERO PUSH2 0x87D JUMPI PUSH1 0x3 DUP2 DUP2 SLOAD DUP2 LT PUSH2 0x711 JUMPI PUSH2 0x710 PUSH2 0x2457 JUMP JUMPDEST JUMPDEST SWAP1 PUSH0 MSTORE PUSH1 0x20 PUSH0 KECCAK256 SWAP1 PUSH1 0x4 MUL ADD PUSH1 0x40 MLOAD DUP1 PUSH1 0x80 ADD PUSH1 0x40 MSTORE SWAP1 DUP2 PUSH0 DUP3 ADD PUSH0 SWAP1 SLOAD SWAP1 PUSH2 0x100 EXP SWAP1 DIV PUSH20 0xFFFFFFFFFFFFFFFFFFFFFFFFFFFFFFFFFFFFFFFF AND PUSH20 0xFFFFFFFFFFFFFFFFFFFFFFFFFFFFFFFFFFFFFFFF AND PUSH20 0xFFFFFFFFFFFFFFFFFFFFFFFFFFFFFFFFFFFFFFFF AND DUP2 MSTORE PUSH1 0x20 ADD PUSH1 0x1 DUP3 ADD DUP1 SLOAD PUSH2 0x78C SWAP1 PUSH2 0x2389 JUMP JUMPDEST DUP1 PUSH1 0x1F ADD PUSH1 0x20 DUP1 SWAP2 DIV MUL PUSH1 0x20 ADD PUSH1 0x40 MLOAD SWAP1 DUP2 ADD PUSH1 0x40 MSTORE DUP1 SWAP3 SWAP2 SWAP1 DUP2 DUP2 MSTORE PUSH1 0x20 ADD DUP3 DUP1 SLOAD PUSH2 0x7B8 SWAP1 PUSH2 0x2389 JUMP JUMPDEST DUP1 ISZERO PUSH2 0x803 JUMPI DUP1 PUSH1 0x1F LT PUSH2 0x7DA JUMPI PUSH2 0x100 DUP1 DUP4 SLOAD DIV MUL DUP4 MSTORE SWAP2 PUSH1 0x20 ADD SWAP2 PUSH2 0x803 JUMP JUMPDEST DUP3 ADD SWAP2 SWAP1 PUSH0 MSTORE PUSH1 0x20 PUSH0 KECCAK256 SWAP1 JUMPDEST DUP2 SLOAD DUP2 MSTORE SWAP1 PUSH1 0x1 ADD SWAP1 PUSH1 0x20 ADD DUP1 DUP4 GT PUSH2 0x7E6 JUMPI DUP3 SWAP1 SUB PUSH1 0x1F AND DUP3 ADD SWAP2 JUMPDEST POP POP POP POP POP DUP2 MSTORE PUSH1 0x20 ADD PUSH1 0x2 DUP3 ADD SLOAD DUP2 MSTORE PUSH1 0x20 ADD PUSH1 0x3 DUP3 ADD PUSH0 SWAP1 SLOAD SWAP1 PUSH2 0x100 EXP SWAP1 DIV PUSH1 0xFF AND PUSH1 0x1 DUP2 GT ISZERO PUSH2 0x83A JUMPI PUSH2 0x839 PUSH2 0x1F81 JUMP JUMPDEST JUMPDEST PUSH1 0x1 DUP2 GT ISZERO PUSH2 0x84C JUMPI PUSH2 0x84B PUSH2 0x1F81 JUMP JUMPDEST JUMPDEST DUP2 MSTORE POP POP DUP4 DUP4 DUP2 MLOAD DUP2 LT PUSH2 0x863 JUMPI PUSH2 0x862 PUSH2 0x2457 JUMP JUMPDEST JUMPDEST PUSH1 0x20 MUL PUSH1 0x20 ADD ADD DUP2 SWAP1 MSTORE POP DUP2 DUP1 PUSH2 0x879 SWAP1 PUSH2 0x24B1 JUMP JUMPDEST SWAP3 POP POP JUMPDEST DUP1 DUP1 PUSH1 0x1 ADD SWAP2 POP POP PUSH2 0x61D JUMP JUMPDEST POP PUSH0 DUP2 PUSH8 0xFFFFFFFFFFFFFFFF DUP2 GT ISZERO PUSH2 0x8A6 JUMPI PUSH2 0x8A5 PUSH2 0x210E JUMP JUMPDEST JUMPDEST PUSH1 0x40 MLOAD SWAP1 DUP1 DUP3 MSTORE DUP1 PUSH1 0x20 MUL PUSH1 0x20 ADD DUP3 ADD PUSH1 0x40 MSTORE DUP1 ISZERO PUSH2 0x8DF JUMPI DUP2 PUSH1 0x20 ADD JUMPDEST PUSH2 0x8CC PUSH2 0x1C46 JUMP JUMPDEST DUP2 MSTORE PUSH1 0x20 ADD SWAP1 PUSH1 0x1 SWAP1 SUB SWAP1 DUP2 PUSH2 0x8C4 JUMPI SWAP1 POP JUMPDEST POP SWAP1 POP PUSH0 JUMPDEST DUP3 DUP2 LT ISZERO PUSH2 0x932 JUMPI DUP4 DUP2 DUP2 MLOAD DUP2 LT PUSH2 0x8FF JUMPI PUSH2 0x8FE PUSH2 0x2457 JUMP JUMPDEST JUMPDEST PUSH1 0x20 MUL PUSH1 0x20 ADD ADD MLOAD DUP3 DUP3 DUP2 MLOAD DUP2 LT PUSH2 0x91A JUMPI PUSH2 0x919 PUSH2 0x2457 JUMP JUMPDEST JUMPDEST PUSH1 0x20 MUL PUSH1 0x20 ADD ADD DUP2 SWAP1 MSTORE POP DUP1 DUP1 PUSH1 0x1 ADD SWAP2 POP POP PUSH2 0x8E4 JUMP JUMPDEST POP DUP1 SWAP4 POP POP POP POP SWAP2 SWAP1 POP JUMP JUMPDEST PUSH0 DUP1 SLOAD SWAP1 PUSH2 0x100 EXP SWAP1 DIV PUSH20 0xFFFFFFFFFFFFFFFFFFFFFFFFFFFFFFFFFFFFFFFF AND PUSH20 0xFFFFFFFFFFFFFFFFFFFFFFFFFFFFFFFFFFFFFFFF AND CALLER PUSH20 0xFFFFFFFFFFFFFFFFFFFFFFFFFFFFFFFFFFFFFFFF AND EQ PUSH2 0x9CB JUMPI PUSH1 0x40 MLOAD PUSH32 0x8C379A000000000000000000000000000000000000000000000000000000000 DUP2 MSTORE PUSH1 0x4 ADD PUSH2 0x9C2 SWAP1 PUSH2 0x2439 JUMP JUMPDEST PUSH1 0x40 MLOAD DUP1 SWAP2 SUB SWAP1 REVERT JUMPDEST PUSH0 PUSH2 0x9D5 DUP3 PUSH2 0x1981 JUMP JUMPDEST PUSH1 0x20 ADD MLOAD SWAP1 POP DUP1 PUSH1 0x2 PUSH0 CALLER PUSH20 0xFFFFFFFFFFFFFFFFFFFFFFFFFFFFFFFFFFFFFFFF AND PUSH20 0xFFFFFFFFFFFFFFFFFFFFFFFFFFFFFFFFFFFFFFFF AND DUP2 MSTORE PUSH1 0x20 ADD SWAP1 DUP2 MSTORE PUSH1 0x20 ADD PUSH0 KECCAK256 SLOAD LT ISZERO PUSH2 0xA5B JUMPI PUSH1 0x40 MLOAD PUSH32 0x8C379A000000000000000000000000000000000000000000000000000000000 DUP2 MSTORE PUSH1 0x4 ADD PUSH2 0xA52 SWAP1 PUSH2 0x2542 JUMP JUMPDEST PUSH1 0x40 MLOAD DUP1 SWAP2 SUB SWAP1 REVERT JUMPDEST DUP1 PUSH1 0x2 PUSH0 CALLER PUSH20 0xFFFFFFFFFFFFFFFFFFFFFFFFFFFFFFFFFFFFFFFF AND PUSH20 0xFFFFFFFFFFFFFFFFFFFFFFFFFFFFFFFFFFFFFFFF AND DUP2 MSTORE PUSH1 0x20 ADD SWAP1 DUP2 MSTORE PUSH1 0x20 ADD PUSH0 KECCAK256 PUSH0 DUP3 DUP3 SLOAD PUSH2 0xAA7 SWAP2 SWAP1 PUSH2 0x2560 JUMP JUMPDEST SWAP3 POP POP DUP2 SWAP1 SSTORE POP PUSH1 0x3 PUSH1 0x40 MLOAD DUP1 PUSH1 0x80 ADD PUSH1 0x40 MSTORE DUP1 CALLER PUSH20 0xFFFFFFFFFFFFFFFFFFFFFFFFFFFFFFFFFFFFFFFF AND DUP2 MSTORE PUSH1 0x20 ADD DUP5 DUP2 MSTORE PUSH1 0x20 ADD TIMESTAMP DUP2 MSTORE PUSH1 0x20 ADD PUSH0 PUSH1 0x1 DUP2 GT ISZERO PUSH2 0xAF6 JUMPI PUSH2 0xAF5 PUSH2 0x1F81 JUMP JUMPDEST JUMPDEST DUP2 MSTORE POP SWAP1 DUP1 PUSH1 0x1 DUP2 SLOAD ADD DUP1 DUP3 SSTORE DUP1 SWAP2 POP POP PUSH1 0x1 SWAP1 SUB SWAP1 PUSH0 MSTORE PUSH1 0x20 PUSH0 KECCAK256 SWAP1 PUSH1 0x4 MUL ADD PUSH0 SWAP1 SWAP2 SWAP1 SWAP2 SWAP1 SWAP2 POP PUSH0 DUP3 ADD MLOAD DUP2 PUSH0 ADD PUSH0 PUSH2 0x100 EXP DUP2 SLOAD DUP2 PUSH20 0xFFFFFFFFFFFFFFFFFFFFFFFFFFFFFFFFFFFFFFFF MUL NOT AND SWAP1 DUP4 PUSH20 0xFFFFFFFFFFFFFFFFFFFFFFFFFFFFFFFFFFFFFFFF AND MUL OR SWAP1 SSTORE POP PUSH1 0x20 DUP3 ADD MLOAD DUP2 PUSH1 0x1 ADD SWAP1 DUP2 PUSH2 0xB78 SWAP2 SWAP1 PUSH2 0x2730 JUMP JUMPDEST POP PUSH1 0x40 DUP3 ADD MLOAD DUP2 PUSH1 0x2 ADD SSTORE PUSH1 0x60 DUP3 ADD MLOAD DUP2 PUSH1 0x3 ADD PUSH0 PUSH2 0x100 EXP DUP2 SLOAD DUP2 PUSH1 0xFF MUL NOT AND SWAP1 DUP4 PUSH1 0x1 DUP2 GT ISZERO PUSH2 0xBAD JUMPI PUSH2 0xBAC PUSH2 0x1F81 JUMP JUMPDEST JUMPDEST MUL OR SWAP1 SSTORE POP POP POP POP POP JUMP JUMPDEST PUSH0 DUP1 SLOAD SWAP1 PUSH2 0x100 EXP SWAP1 DIV PUSH20 0xFFFFFFFFFFFFFFFFFFFFFFFFFFFFFFFFFFFFFFFF AND PUSH20 0xFFFFFFFFFFFFFFFFFFFFFFFFFFFFFFFFFFFFFFFF AND CALLER PUSH20 0xFFFFFFFFFFFFFFFFFFFFFFFFFFFFFFFFFFFFFFFF AND EQ PUSH2 0xC45 JUMPI PUSH1 0x40 MLOAD PUSH32 0x8C379A000000000000000000000000000000000000000000000000000000000 DUP2 MSTORE PUSH1 0x4 ADD PUSH2 0xC3C SWAP1 PUSH2 0x2439 JUMP JUMPDEST PUSH1 0x40 MLOAD DUP1 SWAP2 SUB SWAP1 REVERT JUMPDEST PUSH0 PUSH1 0x14 SWAP1 SLOAD SWAP1 PUSH2 0x100 EXP SWAP1 DIV PUSH1 0xFF AND ISZERO PUSH2 0xC94 JUMPI PUSH1 0x40 MLOAD PUSH32 0x8C379A000000000000000000000000000000000000000000000000000000000 DUP2 MSTORE PUSH1 0x4 ADD PUSH2 0xC8B SWAP1 PUSH2 0x2849 JUMP JUMPDEST PUSH1 0x40 MLOAD DUP1 SWAP2 SUB SWAP1 REVERT JUMPDEST PUSH1 0x1 PUSH0 PUSH1 0x14 PUSH2 0x100 EXP DUP2 SLOAD DUP2 PUSH1 0xFF MUL NOT AND SWAP1 DUP4 ISZERO ISZERO MUL OR SWAP1 SSTORE POP PUSH0 PUSH1 0x2 PUSH0 CALLER PUSH20 0xFFFFFFFFFFFFFFFFFFFFFFFFFFFFFFFFFFFFFFFF AND PUSH20 0xFFFFFFFFFFFFFFFFFFFFFFFFFFFFFFFFFFFFFFFF AND DUP2 MSTORE PUSH1 0x20 ADD SWAP1 DUP2 MSTORE PUSH1 0x20 ADD PUSH0 KECCAK256 SLOAD SWAP1 POP PUSH0 DUP2 GT PUSH2 0xD31 JUMPI PUSH1 0x40 MLOAD PUSH32 0x8C379A000000000000000000000000000000000000000000000000000000000 DUP2 MSTORE PUSH1 0x4 ADD PUSH2 0xD28 SWAP1 PUSH2 0x28B1 JUMP JUMPDEST PUSH1 0x40 MLOAD DUP1 SWAP2 SUB SWAP1 REVERT JUMPDEST PUSH0 PUSH1 0x2 PUSH0 CALLER PUSH20 0xFFFFFFFFFFFFFFFFFFFFFFFFFFFFFFFFFFFFFFFF AND PUSH20 0xFFFFFFFFFFFFFFFFFFFFFFFFFFFFFFFFFFFFFFFF AND DUP2 MSTORE PUSH1 0x20 ADD SWAP1 DUP2 MSTORE PUSH1 0x20 ADD PUSH0 KECCAK256 DUP2 SWAP1 SSTORE POP PUSH0 CALLER PUSH20 0xFFFFFFFFFFFFFFFFFFFFFFFFFFFFFFFFFFFFFFFF AND DUP3 PUSH1 0x40 MLOAD PUSH2 0xD98 SWAP1 PUSH2 0x28FC JUMP JUMPDEST PUSH0 PUSH1 0x40 MLOAD DUP1 DUP4 SUB DUP2 DUP6 DUP8 GAS CALL SWAP3 POP POP POP RETURNDATASIZE DUP1 PUSH0 DUP2 EQ PUSH2 0xDD2 JUMPI PUSH1 0x40 MLOAD SWAP2 POP PUSH1 0x1F NOT PUSH1 0x3F RETURNDATASIZE ADD AND DUP3 ADD PUSH1 0x40 MSTORE RETURNDATASIZE DUP3 MSTORE RETURNDATASIZE PUSH0 PUSH1 0x20 DUP5 ADD RETURNDATACOPY PUSH2 0xDD7 JUMP JUMPDEST PUSH1 0x60 SWAP2 POP JUMPDEST POP POP SWAP1 POP DUP1 PUSH2 0xE1B JUMPI PUSH1 0x40 MLOAD PUSH32 0x8C379A000000000000000000000000000000000000000000000000000000000 DUP2 MSTORE PUSH1 0x4 ADD PUSH2 0xE12 SWAP1 PUSH2 0x295A JUMP JUMPDEST PUSH1 0x40 MLOAD DUP1 SWAP2 SUB SWAP1 REVERT JUMPDEST POP POP PUSH0 DUP1 PUSH1 0x14 PUSH2 0x100 EXP DUP2 SLOAD DUP2 PUSH1 0xFF MUL NOT AND SWAP1 DUP4 ISZERO ISZERO MUL OR SWAP1 SSTORE POP JUMP JUMPDEST PUSH1 0x60 PUSH0 DUP1 SLOAD SWAP1 PUSH2 0x100 EXP SWAP1 DIV PUSH20 0xFFFFFFFFFFFFFFFFFFFFFFFFFFFFFFFFFFFFFFFF AND PUSH20 0xFFFFFFFFFFFFFFFFFFFFFFFFFFFFFFFFFFFFFFFF AND CALLER PUSH20 0xFFFFFFFFFFFFFFFFFFFFFFFFFFFFFFFFFFFFFFFF AND EQ PUSH2 0xEC7 JUMPI PUSH1 0x40 MLOAD PUSH32 0x8C379A000000000000000000000000000000000000000000000000000000000 DUP2 MSTORE PUSH1 0x4 ADD PUSH2 0xEBE SWAP1 PUSH2 0x2439 JUMP JUMPDEST PUSH1 0x40 MLOAD DUP1 SWAP2 SUB SWAP1 REVERT JUMPDEST PUSH0 PUSH1 0x3 DUP1 SLOAD SWAP1 POP PUSH8 0xFFFFFFFFFFFFFFFF DUP2 GT ISZERO PUSH2 0xEE7 JUMPI PUSH2 0xEE6 PUSH2 0x210E JUMP JUMPDEST JUMPDEST PUSH1 0x40 MLOAD SWAP1 DUP1 DUP3 MSTORE DUP1 PUSH1 0x20 MUL PUSH1 0x20 ADD DUP3 ADD PUSH1 0x40 MSTORE DUP1 ISZERO PUSH2 0xF20 JUMPI DUP2 PUSH1 0x20 ADD JUMPDEST PUSH2 0xF0D PUSH2 0x1C46 JUMP JUMPDEST DUP2 MSTORE PUSH1 0x20 ADD SWAP1 PUSH1 0x1 SWAP1 SUB SWAP1 DUP2 PUSH2 0xF05 JUMPI SWAP1 POP JUMPDEST POP SWAP1 POP PUSH0 DUP1 JUMPDEST PUSH1 0x3 DUP1 SLOAD SWAP1 POP DUP2 LT ISZERO PUSH2 0x1134 JUMPI DUP5 PUSH20 0xFFFFFFFFFFFFFFFFFFFFFFFFFFFFFFFFFFFFFFFF AND PUSH1 0x3 DUP3 DUP2 SLOAD DUP2 LT PUSH2 0xF5E JUMPI PUSH2 0xF5D PUSH2 0x2457 JUMP JUMPDEST JUMPDEST SWAP1 PUSH0 MSTORE PUSH1 0x20 PUSH0 KECCAK256 SWAP1 PUSH1 0x4 MUL ADD PUSH0 ADD PUSH0 SWAP1 SLOAD SWAP1 PUSH2 0x100 EXP SWAP1 DIV PUSH20 0xFFFFFFFFFFFFFFFFFFFFFFFFFFFFFFFFFFFFFFFF AND PUSH20 0xFFFFFFFFFFFFFFFFFFFFFFFFFFFFFFFFFFFFFFFF AND SUB PUSH2 0x1127 JUMPI PUSH1 0x3 DUP2 DUP2 SLOAD DUP2 LT PUSH2 0xFBB JUMPI PUSH2 0xFBA PUSH2 0x2457 JUMP JUMPDEST JUMPDEST SWAP1 PUSH0 MSTORE PUSH1 0x20 PUSH0 KECCAK256 SWAP1 PUSH1 0x4 MUL ADD PUSH1 0x40 MLOAD DUP1 PUSH1 0x80 ADD PUSH1 0x40 MSTORE SWAP1 DUP2 PUSH0 DUP3 ADD PUSH0 SWAP1 SLOAD SWAP1 PUSH2 0x100 EXP SWAP1 DIV PUSH20 0xFFFFFFFFFFFFFFFFFFFFFFFFFFFFFFFFFFFFFFFF AND PUSH20 0xFFFFFFFFFFFFFFFFFFFFFFFFFFFFFFFFFFFFFFFF AND PUSH20 0xFFFFFFFFFFFFFFFFFFFFFFFFFFFFFFFFFFFFFFFF AND DUP2 MSTORE PUSH1 0x20 ADD PUSH1 0x1 DUP3 ADD DUP1 SLOAD PUSH2 0x1036 SWAP1 PUSH2 0x2389 JUMP JUMPDEST DUP1 PUSH1 0x1F ADD PUSH1 0x20 DUP1 SWAP2 DIV MUL PUSH1 0x20 ADD PUSH1 0x40 MLOAD SWAP1 DUP2 ADD PUSH1 0x40 MSTORE DUP1 SWAP3 SWAP2 SWAP1 DUP2 DUP2 MSTORE PUSH1 0x20 ADD DUP3 DUP1 SLOAD PUSH2 0x1062 SWAP1 PUSH2 0x2389 JUMP JUMPDEST DUP1 ISZERO PUSH2 0x10AD JUMPI DUP1 PUSH1 0x1F LT PUSH2 0x1084 JUMPI PUSH2 0x100 DUP1 DUP4 SLOAD DIV MUL DUP4 MSTORE SWAP2 PUSH1 0x20 ADD SWAP2 PUSH2 0x10AD JUMP JUMPDEST DUP3 ADD SWAP2 SWAP1 PUSH0 MSTORE PUSH1 0x20 PUSH0 KECCAK256 SWAP1 JUMPDEST DUP2 SLOAD DUP2 MSTORE SWAP1 PUSH1 0x1 ADD SWAP1 PUSH1 0x20 ADD DUP1 DUP4 GT PUSH2 0x1090 JUMPI DUP3 SWAP1 SUB PUSH1 0x1F AND DUP3 ADD SWAP2 JUMPDEST POP POP POP POP POP DUP2 MSTORE PUSH1 0x20 ADD PUSH1 0x2 DUP3 ADD SLOAD DUP2 MSTORE PUSH1 0x20 ADD PUSH1 0x3 DUP3 ADD PUSH0 SWAP1 SLOAD SWAP1 PUSH2 0x100 EXP SWAP1 DIV PUSH1 0xFF AND PUSH1 0x1 DUP2 GT ISZERO PUSH2 0x10E4 JUMPI PUSH2 0x10E3 PUSH2 0x1F81 JUMP JUMPDEST JUMPDEST PUSH1 0x1 DUP2 GT ISZERO PUSH2 0x10F6 JUMPI PUSH2 0x10F5 PUSH2 0x1F81 JUMP JUMPDEST JUMPDEST DUP2 MSTORE POP POP DUP4 DUP4 DUP2 MLOAD DUP2 LT PUSH2 0x110D JUMPI PUSH2 0x110C PUSH2 0x2457 JUMP JUMPDEST JUMPDEST PUSH1 0x20 MUL PUSH1 0x20 ADD ADD DUP2 SWAP1 MSTORE POP DUP2 DUP1 PUSH2 0x1123 SWAP1 PUSH2 0x24B1 JUMP JUMPDEST SWAP3 POP POP JUMPDEST DUP1 DUP1 PUSH1 0x1 ADD SWAP2 POP POP PUSH2 0xF26 JUMP JUMPDEST POP PUSH0 DUP2 PUSH8 0xFFFFFFFFFFFFFFFF DUP2 GT ISZERO PUSH2 0x1150 JUMPI PUSH2 0x114F PUSH2 0x210E JUMP JUMPDEST JUMPDEST PUSH1 0x40 MLOAD SWAP1 DUP1 DUP3 MSTORE DUP1 PUSH1 0x20 MUL PUSH1 0x20 ADD DUP3 ADD PUSH1 0x40 MSTORE DUP1 ISZERO PUSH2 0x1189 JUMPI DUP2 PUSH1 0x20 ADD JUMPDEST PUSH2 0x1176 PUSH2 0x1C46 JUMP JUMPDEST DUP2 MSTORE PUSH1 0x20 ADD SWAP1 PUSH1 0x1 SWAP1 SUB SWAP1 DUP2 PUSH2 0x116E JUMPI SWAP1 POP JUMPDEST POP SWAP1 POP PUSH0 JUMPDEST DUP3 DUP2 LT ISZERO PUSH2 0x11DC JUMPI DUP4 DUP2 DUP2 MLOAD DUP2 LT PUSH2 0x11A9 JUMPI PUSH2 0x11A8 PUSH2 0x2457 JUMP JUMPDEST JUMPDEST PUSH1 0x20 MUL PUSH1 0x20 ADD ADD MLOAD DUP3 DUP3 DUP2 MLOAD DUP2 LT PUSH2 0x11C4 JUMPI PUSH2 0x11C3 PUSH2 0x2457 JUMP JUMPDEST JUMPDEST PUSH1 0x20 MUL PUSH1 0x20 ADD ADD DUP2 SWAP1 MSTORE POP DUP1 DUP1 PUSH1 0x1 ADD SWAP2 POP POP PUSH2 0x118E JUMP JUMPDEST POP DUP1 SWAP4 POP POP POP POP SWAP2 SWAP1 POP JUMP JUMPDEST PUSH1 0x60 PUSH0 DUP1 SLOAD SWAP1 PUSH2 0x100 EXP SWAP1 DIV PUSH20 0xFFFFFFFFFFFFFFFFFFFFFFFFFFFFFFFFFFFFFFFF AND PUSH20 0xFFFFFFFFFFFFFFFFFFFFFFFFFFFFFFFFFFFFFFFF AND CALLER PUSH20 0xFFFFFFFFFFFFFFFFFFFFFFFFFFFFFFFFFFFFFFFF AND EQ PUSH2 0x1277 JUMPI PUSH1 0x40 MLOAD PUSH32 0x8C379A000000000000000000000000000000000000000000000000000000000 DUP2 MSTORE PUSH1 0x4 ADD PUSH2 0x126E SWAP1 PUSH2 0x2439 JUMP JUMPDEST PUSH1 0x40 MLOAD DUP1 SWAP2 SUB SWAP1 REVERT JUMPDEST PUSH0 PUSH1 0x3 DUP1 SLOAD SWAP1 POP PUSH8 0xFFFFFFFFFFFFFFFF DUP2 GT ISZERO PUSH2 0x1297 JUMPI PUSH2 0x1296 PUSH2 0x210E JUMP JUMPDEST JUMPDEST PUSH1 0x40 MLOAD SWAP1 DUP1 DUP3 MSTORE DUP1 PUSH1 0x20 MUL PUSH1 0x20 ADD DUP3 ADD PUSH1 0x40 MSTORE DUP1 ISZERO PUSH2 0x12D0 JUMPI DUP2 PUSH1 0x20 ADD JUMPDEST PUSH2 0x12BD PUSH2 0x1C46 JUMP JUMPDEST DUP2 MSTORE PUSH1 0x20 ADD SWAP1 PUSH1 0x1 SWAP1 SUB SWAP1 DUP2 PUSH2 0x12B5 JUMPI SWAP1 POP JUMPDEST POP SWAP1 POP PUSH0 DUP1 JUMPDEST PUSH1 0x3 DUP1 SLOAD SWAP1 POP DUP2 LT ISZERO PUSH2 0x1543 JUMPI DUP5 PUSH20 0xFFFFFFFFFFFFFFFFFFFFFFFFFFFFFFFFFFFFFFFF AND PUSH1 0x3 DUP3 DUP2 SLOAD DUP2 LT PUSH2 0x130E JUMPI PUSH2 0x130D PUSH2 0x2457 JUMP JUMPDEST JUMPDEST SWAP1 PUSH0 MSTORE PUSH1 0x20 PUSH0 KECCAK256 SWAP1 PUSH1 0x4 MUL ADD PUSH0 ADD PUSH0 SWAP1 SLOAD SWAP1 PUSH2 0x100 EXP SWAP1 DIV PUSH20 0xFFFFFFFFFFFFFFFFFFFFFFFFFFFFFFFFFFFFFFFF AND PUSH20 0xFFFFFFFFFFFFFFFFFFFFFFFFFFFFFFFFFFFFFFFF AND EQ DUP1 ISZERO PUSH2 0x13B1 JUMPI POP PUSH1 0x1 DUP1 DUP2 GT ISZERO PUSH2 0x136D JUMPI PUSH2 0x136C PUSH2 0x1F81 JUMP JUMPDEST JUMPDEST PUSH1 0x3 DUP3 DUP2 SLOAD DUP2 LT PUSH2 0x1381 JUMPI PUSH2 0x1380 PUSH2 0x2457 JUMP JUMPDEST JUMPDEST SWAP1 PUSH0 MSTORE PUSH1 0x20 PUSH0 KECCAK256 SWAP1 PUSH1 0x4 MUL ADD PUSH1 0x3 ADD PUSH0 SWAP1 SLOAD SWAP1 PUSH2 0x100 EXP SWAP1 DIV PUSH1 0xFF AND PUSH1 0x1 DUP2 GT ISZERO PUSH2 0x13AF JUMPI PUSH2 0x13AE PUSH2 0x1F81 JUMP JUMPDEST JUMPDEST EQ JUMPDEST ISZERO PUSH2 0x1536 JUMPI PUSH1 0x3 DUP2 DUP2 SLOAD DUP2 LT PUSH2 0x13CA JUMPI PUSH2 0x13C9 PUSH2 0x2457 JUMP JUMPDEST JUMPDEST SWAP1 PUSH0 MSTORE PUSH1 0x20 PUSH0 KECCAK256 SWAP1 PUSH1 0x4 MUL ADD PUSH1 0x40 MLOAD DUP1 PUSH1 0x80 ADD PUSH1 0x40 MSTORE SWAP1 DUP2 PUSH0 DUP3 ADD PUSH0 SWAP1 SLOAD SWAP1 PUSH2 0x100 EXP SWAP1 DIV PUSH20 0xFFFFFFFFFFFFFFFFFFFFFFFFFFFFFFFFFFFFFFFF AND PUSH20 0xFFFFFFFFFFFFFFFFFFFFFFFFFFFFFFFFFFFFFFFF AND PUSH20 0xFFFFFFFFFFFFFFFFFFFFFFFFFFFFFFFFFFFFFFFF AND DUP2 MSTORE PUSH1 0x20 ADD PUSH1 0x1 DUP3 ADD DUP1 SLOAD PUSH2 0x1445 SWAP1 PUSH2 0x2389 JUMP JUMPDEST DUP1 PUSH1 0x1F ADD PUSH1 0x20 DUP1 SWAP2 DIV MUL PUSH1 0x20 ADD PUSH1 0x40 MLOAD SWAP1 DUP2 ADD PUSH1 0x40 MSTORE DUP1 SWAP3 SWAP2 SWAP1 DUP2 DUP2 MSTORE PUSH1 0x20 ADD DUP3 DUP1 SLOAD PUSH2 0x1471 SWAP1 PUSH2 0x2389 JUMP JUMPDEST DUP1 ISZERO PUSH2 0x14BC JUMPI DUP1 PUSH1 0x1F LT PUSH2 0x1493 JUMPI PUSH2 0x100 DUP1 DUP4 SLOAD DIV MUL DUP4 MSTORE SWAP2 PUSH1 0x20 ADD SWAP2 PUSH2 0x14BC JUMP JUMPDEST DUP3 ADD SWAP2 SWAP1 PUSH0 MSTORE PUSH1 0x20 PUSH0 KECCAK256 SWAP1 JUMPDEST DUP2 SLOAD DUP2 MSTORE SWAP1 PUSH1 0x1 ADD SWAP1 PUSH1 0x20 ADD DUP1 DUP4 GT PUSH2 0x149F JUMPI DUP3 SWAP1 SUB PUSH1 0x1F AND DUP3 ADD SWAP2 JUMPDEST POP POP POP POP POP DUP2 MSTORE PUSH1 0x20 ADD PUSH1 0x2 DUP3 ADD SLOAD DUP2 MSTORE PUSH1 0x20 ADD PUSH1 0x3 DUP3 ADD PUSH0 SWAP1 SLOAD SWAP1 PUSH2 0x100 EXP SWAP1 DIV PUSH1 0xFF AND PUSH1 0x1 DUP2 GT ISZERO PUSH2 0x14F3 JUMPI PUSH2 0x14F2 PUSH2 0x1F81 JUMP JUMPDEST JUMPDEST PUSH1 0x1 DUP2 GT ISZERO PUSH2 0x1505 JUMPI PUSH2 0x1504 PUSH2 0x1F81 JUMP JUMPDEST JUMPDEST DUP2 MSTORE POP POP DUP4 DUP4 DUP2 MLOAD DUP2 LT PUSH2 0x151C JUMPI PUSH2 0x151B PUSH2 0x2457 JUMP JUMPDEST JUMPDEST PUSH1 0x20 MUL PUSH1 0x20 ADD ADD DUP2 SWAP1 MSTORE POP DUP2 DUP1 PUSH2 0x1532 SWAP1 PUSH2 0x24B1 JUMP JUMPDEST SWAP3 POP POP JUMPDEST DUP1 DUP1 PUSH1 0x1 ADD SWAP2 POP POP PUSH2 0x12D6 JUMP JUMPDEST POP PUSH0 DUP2 PUSH8 0xFFFFFFFFFFFFFFFF DUP2 GT ISZERO PUSH2 0x155F JUMPI PUSH2 0x155E PUSH2 0x210E JUMP JUMPDEST JUMPDEST PUSH1 0x40 MLOAD SWAP1 DUP1 DUP3 MSTORE DUP1 PUSH1 0x20 MUL PUSH1 0x20 ADD DUP3 ADD PUSH1 0x40 MSTORE DUP1 ISZERO PUSH2 0x1598 JUMPI DUP2 PUSH1 0x20 ADD JUMPDEST PUSH2 0x1585 PUSH2 0x1C46 JUMP JUMPDEST DUP2 MSTORE PUSH1 0x20 ADD SWAP1 PUSH1 0x1 SWAP1 SUB SWAP1 DUP2 PUSH2 0x157D JUMPI SWAP1 POP JUMPDEST POP SWAP1 POP PUSH0 JUMPDEST DUP3 DUP2 LT ISZERO PUSH2 0x15EB JUMPI DUP4 DUP2 DUP2 MLOAD DUP2 LT PUSH2 0x15B8 JUMPI PUSH2 0x15B7 PUSH2 0x2457 JUMP JUMPDEST JUMPDEST PUSH1 0x20 MUL PUSH1 0x20 ADD ADD MLOAD DUP3 DUP3 DUP2 MLOAD DUP2 LT PUSH2 0x15D3 JUMPI PUSH2 0x15D2 PUSH2 0x2457 JUMP JUMPDEST JUMPDEST PUSH1 0x20 MUL PUSH1 0x20 ADD ADD DUP2 SWAP1 MSTORE POP DUP1 DUP1 PUSH1 0x1 ADD SWAP2 POP POP PUSH2 0x159D JUMP JUMPDEST POP DUP1 SWAP4 POP POP POP POP SWAP2 SWAP1 POP JUMP JUMPDEST PUSH0 DUP1 SLOAD SWAP1 PUSH2 0x100 EXP SWAP1 DIV PUSH20 0xFFFFFFFFFFFFFFFFFFFFFFFFFFFFFFFFFFFFFFFF AND PUSH20 0xFFFFFFFFFFFFFFFFFFFFFFFFFFFFFFFFFFFFFFFF AND CALLER PUSH20 0xFFFFFFFFFFFFFFFFFFFFFFFFFFFFFFFFFFFFFFFF AND EQ PUSH2 0x1684 JUMPI PUSH1 0x40 MLOAD PUSH32 0x8C379A000000000000000000000000000000000000000000000000000000000 DUP2 MSTORE PUSH1 0x4 ADD PUSH2 0x167B SWAP1 PUSH2 0x2439 JUMP JUMPDEST PUSH1 0x40 MLOAD DUP1 SWAP2 SUB SWAP1 REVERT JUMPDEST PUSH0 CALLVALUE GT PUSH2 0x16C6 JUMPI PUSH1 0x40 MLOAD PUSH32 0x8C379A000000000000000000000000000000000000000000000000000000000 DUP2 MSTORE PUSH1 0x4 ADD PUSH2 0x16BD SWAP1 PUSH2 0x29C2 JUMP JUMPDEST PUSH1 0x40 MLOAD DUP1 SWAP2 SUB SWAP1 REVERT JUMPDEST CALLVALUE PUSH1 0x2 PUSH0 CALLER PUSH20 0xFFFFFFFFFFFFFFFFFFFFFFFFFFFFFFFFFFFFFFFF AND PUSH20 0xFFFFFFFFFFFFFFFFFFFFFFFFFFFFFFFFFFFFFFFF AND DUP2 MSTORE PUSH1 0x20 ADD SWAP1 DUP2 MSTORE PUSH1 0x20 ADD PUSH0 KECCAK256 PUSH0 DUP3 DUP3 SLOAD PUSH2 0x1712 SWAP2 SWAP1 PUSH2 0x29E0 JUMP JUMPDEST SWAP3 POP POP DUP2 SWAP1 SSTORE POP JUMP JUMPDEST PUSH0 DUP1 SLOAD SWAP1 PUSH2 0x100 EXP SWAP1 DIV PUSH20 0xFFFFFFFFFFFFFFFFFFFFFFFFFFFFFFFFFFFFFFFF AND PUSH20 0xFFFFFFFFFFFFFFFFFFFFFFFFFFFFFFFFFFFFFFFF AND CALLER PUSH20 0xFFFFFFFFFFFFFFFFFFFFFFFFFFFFFFFFFFFFFFFF AND EQ PUSH2 0x17A8 JUMPI PUSH1 0x40 MLOAD PUSH32 0x8C379A000000000000000000000000000000000000000000000000000000000 DUP2 MSTORE PUSH1 0x4 ADD PUSH2 0x179F SWAP1 PUSH2 0x2439 JUMP JUMPDEST PUSH1 0x40 MLOAD DUP1 SWAP2 SUB SWAP1 REVERT JUMPDEST PUSH1 0x3 DUP1 SLOAD SWAP1 POP DUP2 LT PUSH2 0x17EF JUMPI PUSH1 0x40 MLOAD PUSH32 0x8C379A000000000000000000000000000000000000000000000000000000000 DUP2 MSTORE PUSH1 0x4 ADD PUSH2 0x17E6 SWAP1 PUSH2 0x2A5D JUMP JUMPDEST PUSH1 0x40 MLOAD DUP1 SWAP2 SUB SWAP1 REVERT JUMPDEST CALLER PUSH20 0xFFFFFFFFFFFFFFFFFFFFFFFFFFFFFFFFFFFFFFFF AND PUSH1 0x3 DUP3 DUP2 SLOAD DUP2 LT PUSH2 0x181A JUMPI PUSH2 0x1819 PUSH2 0x2457 JUMP JUMPDEST JUMPDEST SWAP1 PUSH0 MSTORE PUSH1 0x20 PUSH0 KECCAK256 SWAP1 PUSH1 0x4 MUL ADD PUSH0 ADD PUSH0 SWAP1 SLOAD SWAP1 PUSH2 0x100 EXP SWAP1 DIV PUSH20 0xFFFFFFFFFFFFFFFFFFFFFFFFFFFFFFFFFFFFFFFF AND PUSH20 0xFFFFFFFFFFFFFFFFFFFFFFFFFFFFFFFFFFFFFFFF AND EQ PUSH2 0x189E JUMPI PUSH1 0x40 MLOAD PUSH32 0x8C379A000000000000000000000000000000000000000000000000000000000 DUP2 MSTORE PUSH1 0x4 ADD PUSH2 0x1895 SWAP1 PUSH2 0x2AC5 JUMP JUMPDEST PUSH1 0x40 MLOAD DUP1 SWAP2 SUB SWAP1 REVERT JUMPDEST PUSH0 PUSH1 0x1 DUP2 GT ISZERO PUSH2 0x18B1 JUMPI PUSH2 0x18B0 PUSH2 0x1F81 JUMP JUMPDEST JUMPDEST PUSH1 0x3 DUP3 DUP2 SLOAD DUP2 LT PUSH2 0x18C5 JUMPI PUSH2 0x18C4 PUSH2 0x2457 JUMP JUMPDEST JUMPDEST SWAP1 PUSH0 MSTORE PUSH1 0x20 PUSH0 KECCAK256 SWAP1 PUSH1 0x4 MUL ADD PUSH1 0x3 ADD PUSH0 SWAP1 SLOAD SWAP1 PUSH2 0x100 EXP SWAP1 DIV PUSH1 0xFF AND PUSH1 0x1 DUP2 GT ISZERO PUSH2 0x18F3 JUMPI PUSH2 0x18F2 PUSH2 0x1F81 JUMP JUMPDEST JUMPDEST EQ PUSH2 0x1933 JUMPI PUSH1 0x40 MLOAD PUSH32 0x8C379A000000000000000000000000000000000000000000000000000000000 DUP2 MSTORE PUSH1 0x4 ADD PUSH2 0x192A SWAP1 PUSH2 0x2B2D JUMP JUMPDEST PUSH1 0x40 MLOAD DUP1 SWAP2 SUB SWAP1 REVERT JUMPDEST PUSH1 0x1 PUSH1 0x3 DUP3 DUP2 SLOAD DUP2 LT PUSH2 0x1949 JUMPI PUSH2 0x1948 PUSH2 0x2457 JUMP JUMPDEST JUMPDEST SWAP1 PUSH0 MSTORE PUSH1 0x20 PUSH0 KECCAK256 SWAP1 PUSH1 0x4 MUL ADD PUSH1 0x3 ADD PUSH0 PUSH2 0x100 EXP DUP2 SLOAD DUP2 PUSH1 0xFF MUL NOT AND SWAP1 DUP4 PUSH1 0x1 DUP2 GT ISZERO PUSH2 0x1979 JUMPI PUSH2 0x1978 PUSH2 0x1F81 JUMP JUMPDEST JUMPDEST MUL OR SWAP1 SSTORE POP POP JUMP JUMPDEST PUSH2 0x1989 PUSH2 0x1C93 JUMP JUMPDEST PUSH0 JUMPDEST PUSH1 0x1 DUP1 SLOAD SWAP1 POP DUP2 LT ISZERO PUSH2 0x1C05 JUMPI DUP3 PUSH1 0x40 MLOAD PUSH1 0x20 ADD PUSH2 0x19A9 SWAP2 SWAP1 PUSH2 0x2B85 JUMP JUMPDEST PUSH1 0x40 MLOAD PUSH1 0x20 DUP2 DUP4 SUB SUB DUP2 MSTORE SWAP1 PUSH1 0x40 MSTORE DUP1 MLOAD SWAP1 PUSH1 0x20 ADD KECCAK256 PUSH1 0x1 DUP3 DUP2 SLOAD DUP2 LT PUSH2 0x19D3 JUMPI PUSH2 0x19D2 PUSH2 0x2457 JUMP JUMPDEST JUMPDEST SWAP1 PUSH0 MSTORE PUSH1 0x20 PUSH0 KECCAK256 SWAP1 PUSH1 0x4 MUL ADD PUSH0 ADD PUSH1 0x40 MLOAD PUSH1 0x20 ADD PUSH2 0x19F1 SWAP2 SWAP1 PUSH2 0x2C1B JUMP JUMPDEST PUSH1 0x40 MLOAD PUSH1 0x20 DUP2 DUP4 SUB SUB DUP2 MSTORE SWAP1 PUSH1 0x40 MSTORE DUP1 MLOAD SWAP1 PUSH1 0x20 ADD KECCAK256 SUB PUSH2 0x1BF8 JUMPI PUSH1 0x1 DUP2 DUP2 SLOAD DUP2 LT PUSH2 0x1A20 JUMPI PUSH2 0x1A1F PUSH2 0x2457 JUMP JUMPDEST JUMPDEST SWAP1 PUSH0 MSTORE PUSH1 0x20 PUSH0 KECCAK256 SWAP1 PUSH1 0x4 MUL ADD PUSH1 0x40 MLOAD DUP1 PUSH1 0x80 ADD PUSH1 0x40 MSTORE SWAP1 DUP2 PUSH0 DUP3 ADD DUP1 SLOAD PUSH2 0x1A46 SWAP1 PUSH2 0x2389 JUMP JUMPDEST DUP1 PUSH1 0x1F ADD PUSH1 0x20 DUP1 SWAP2 DIV MUL PUSH1 0x20 ADD PUSH1 0x40 MLOAD SWAP1 DUP2 ADD PUSH1 0x40 MSTORE DUP1 SWAP3 SWAP2 SWAP1 DUP2 DUP2 MSTORE PUSH1 0x20 ADD DUP3 DUP1 SLOAD PUSH2 0x1A72 SWAP1 PUSH2 0x2389 JUMP JUMPDEST DUP1 ISZERO PUSH2 0x1ABD JUMPI DUP1 PUSH1 0x1F LT PUSH2 0x1A94 JUMPI PUSH2 0x100 DUP1 DUP4 SLOAD DIV MUL DUP4 MSTORE SWAP2 PUSH1 0x20 ADD SWAP2 PUSH2 0x1ABD JUMP JUMPDEST DUP3 ADD SWAP2 SWAP1 PUSH0 MSTORE PUSH1 0x20 PUSH0 KECCAK256 SWAP1 JUMPDEST DUP2 SLOAD DUP2 MSTORE SWAP1 PUSH1 0x1 ADD SWAP1 PUSH1 0x20 ADD DUP1 DUP4 GT PUSH2 0x1AA0 JUMPI DUP3 SWAP1 SUB PUSH1 0x1F AND DUP3 ADD SWAP2 JUMPDEST POP POP POP POP POP DUP2 MSTORE PUSH1 0x20 ADD PUSH1 0x1 DUP3 ADD SLOAD DUP2 MSTORE PUSH1 0x20 ADD PUSH1 0x2 DUP3 ADD DUP1 SLOAD PUSH2 0x1AE0 SWAP1 PUSH2 0x2389 JUMP JUMPDEST DUP1 PUSH1 0x1F ADD PUSH1 0x20 DUP1 SWAP2 DIV MUL PUSH1 0x20 ADD PUSH1 0x40 MLOAD SWAP1 DUP2 ADD PUSH1 0x40 MSTORE DUP1 SWAP3 SWAP2 SWAP1 DUP2 DUP2 MSTORE PUSH1 0x20 ADD DUP3 DUP1 SLOAD PUSH2 0x1B0C SWAP1 PUSH2 0x2389 JUMP JUMPDEST DUP1 ISZERO PUSH2 0x1B57 JUMPI DUP1 PUSH1 0x1F LT PUSH2 0x1B2E JUMPI PUSH2 0x100 DUP1 DUP4 SLOAD DIV MUL DUP4 MSTORE SWAP2 PUSH1 0x20 ADD SWAP2 PUSH2 0x1B57 JUMP JUMPDEST DUP3 ADD SWAP2 SWAP1 PUSH0 MSTORE PUSH1 0x20 PUSH0 KECCAK256 SWAP1 JUMPDEST DUP2 SLOAD DUP2 MSTORE SWAP1 PUSH1 0x1 ADD SWAP1 PUSH1 0x20 ADD DUP1 DUP4 GT PUSH2 0x1B3A JUMPI DUP3 SWAP1 SUB PUSH1 0x1F AND DUP3 ADD SWAP2 JUMPDEST POP POP POP POP POP DUP2 MSTORE PUSH1 0x20 ADD PUSH1 0x3 DUP3 ADD DUP1 SLOAD PUSH2 0x1B70 SWAP1 PUSH2 0x2389 JUMP JUMPDEST DUP1 PUSH1 0x1F ADD PUSH1 0x20 DUP1 SWAP2 DIV MUL PUSH1 0x20 ADD PUSH1 0x40 MLOAD SWAP1 DUP2 ADD PUSH1 0x40 MSTORE DUP1 SWAP3 SWAP2 SWAP1 DUP2 DUP2 MSTORE PUSH1 0x20 ADD DUP3 DUP1 SLOAD PUSH2 0x1B9C SWAP1 PUSH2 0x2389 JUMP JUMPDEST DUP1 ISZERO PUSH2 0x1BE7 JUMPI DUP1 PUSH1 0x1F LT PUSH2 0x1BBE JUMPI PUSH2 0x100 DUP1 DUP4 SLOAD DIV MUL DUP4 MSTORE SWAP2 PUSH1 0x20 ADD SWAP2 PUSH2 0x1BE7 JUMP JUMPDEST DUP3 ADD SWAP2 SWAP1 PUSH0 MSTORE PUSH1 0x20 PUSH0 KECCAK256 SWAP1 JUMPDEST DUP2 SLOAD DUP2 MSTORE SWAP1 PUSH1 0x1 ADD SWAP1 PUSH1 0x20 ADD DUP1 DUP4 GT PUSH2 0x1BCA JUMPI DUP3 SWAP1 SUB PUSH1 0x1F AND DUP3 ADD SWAP2 JUMPDEST POP POP POP POP POP DUP2 MSTORE POP POP SWAP2 POP POP PUSH2 0x1C41 JUMP JUMPDEST DUP1 DUP1 PUSH1 0x1 ADD SWAP2 POP POP PUSH2 0x198B JUMP JUMPDEST POP PUSH1 0x40 MLOAD PUSH32 0x8C379A000000000000000000000000000000000000000000000000000000000 DUP2 MSTORE PUSH1 0x4 ADD PUSH2 0x1C38 SWAP1 PUSH2 0x2C7B JUMP JUMPDEST PUSH1 0x40 MLOAD DUP1 SWAP2 SUB SWAP1 REVERT JUMPDEST SWAP2 SWAP1 POP JUMP JUMPDEST PUSH1 0x40 MLOAD DUP1 PUSH1 0x80 ADD PUSH1 0x40 MSTORE DUP1 PUSH0 PUSH20 0xFFFFFFFFFFFFFFFFFFFFFFFFFFFFFFFFFFFFFFFF AND DUP2 MSTORE PUSH1 0x20 ADD PUSH1 0x60 DUP2 MSTORE PUSH1 0x20 ADD PUSH0 DUP2 MSTORE PUSH1 0x20 ADD PUSH0 PUSH1 0x1 DUP2 GT ISZERO PUSH2 0x1C8D JUMPI PUSH2 0x1C8C PUSH2 0x1F81 JUMP JUMPDEST JUMPDEST DUP2 MSTORE POP SWAP1 JUMP JUMPDEST PUSH1 0x40 MLOAD DUP1 PUSH1 0x80 ADD PUSH1 0x40 MSTORE DUP1 PUSH1 0x60 DUP2 MSTORE PUSH1 0x20 ADD PUSH0 DUP2 MSTORE PUSH1 0x20 ADD PUSH1 0x60 DUP2 MSTORE PUSH1 0x20 ADD PUSH1 0x60 DUP2 MSTORE POP SWAP1 JUMP JUMPDEST PUSH0 DUP2 MLOAD SWAP1 POP SWAP2 SWAP1 POP JUMP JUMPDEST PUSH0 DUP3 DUP3 MSTORE PUSH1 0x20 DUP3 ADD SWAP1 POP SWAP3 SWAP2 POP POP JUMP JUMPDEST PUSH0 DUP2 SWAP1 POP PUSH1 0x20 DUP3 ADD SWAP1 POP SWAP2 SWAP1 POP JUMP JUMPDEST PUSH0 DUP2 MLOAD SWAP1 POP SWAP2 SWAP1 POP JUMP JUMPDEST PUSH0 DUP3 DUP3 MSTORE PUSH1 0x20 DUP3 ADD SWAP1 POP SWAP3 SWAP2 POP POP JUMP JUMPDEST DUP3 DUP2 DUP4 MCOPY PUSH0 DUP4 DUP4 ADD MSTORE POP POP POP JUMP JUMPDEST PUSH0 PUSH1 0x1F NOT PUSH1 0x1F DUP4 ADD AND SWAP1 POP SWAP2 SWAP1 POP JUMP JUMPDEST PUSH0 PUSH2 0x1D25 DUP3 PUSH2 0x1CE3 JUMP JUMPDEST PUSH2 0x1D2F DUP2 DUP6 PUSH2 0x1CED JUMP JUMPDEST SWAP4 POP PUSH2 0x1D3F DUP2 DUP6 PUSH1 0x20 DUP7 ADD PUSH2 0x1CFD JUMP JUMPDEST PUSH2 0x1D48 DUP2 PUSH2 0x1D0B JUMP JUMPDEST DUP5 ADD SWAP2 POP POP SWAP3 SWAP2 POP POP JUMP JUMPDEST PUSH0 DUP2 SWAP1 POP SWAP2 SWAP1 POP JUMP JUMPDEST PUSH2 0x1D65 DUP2 PUSH2 0x1D53 JUMP JUMPDEST DUP3 MSTORE POP POP JUMP JUMPDEST PUSH0 PUSH1 0x80 DUP4 ADD PUSH0 DUP4 ADD MLOAD DUP5 DUP3 SUB PUSH0 DUP7 ADD MSTORE PUSH2 0x1D85 DUP3 DUP3 PUSH2 0x1D1B JUMP JUMPDEST SWAP2 POP POP PUSH1 0x20 DUP4 ADD MLOAD PUSH2 0x1D9A PUSH1 0x20 DUP7 ADD DUP3 PUSH2 0x1D5C JUMP JUMPDEST POP PUSH1 0x40 DUP4 ADD MLOAD DUP5 DUP3 SUB PUSH1 0x40 DUP7 ADD MSTORE PUSH2 0x1DB2 DUP3 DUP3 PUSH2 0x1D1B JUMP JUMPDEST SWAP2 POP POP PUSH1 0x60 DUP4 ADD MLOAD DUP5 DUP3 SUB PUSH1 0x60 DUP7 ADD MSTORE PUSH2 0x1DCC DUP3 DUP3 PUSH2 0x1D1B JUMP JUMPDEST SWAP2 POP POP DUP1 SWAP2 POP POP SWAP3 SWAP2 POP POP JUMP JUMPDEST PUSH0 PUSH2 0x1DE4 DUP4 DUP4 PUSH2 0x1D6B JUMP JUMPDEST SWAP1 POP SWAP3 SWAP2 POP POP JUMP JUMPDEST PUSH0 PUSH1 0x20 DUP3 ADD SWAP1 POP SWAP2 SWAP1 POP JUMP JUMPDEST PUSH0 PUSH2 0x1E02 DUP3 PUSH2 0x1CBA JUMP JUMPDEST PUSH2 0x1E0C DUP2 DUP6 PUSH2 0x1CC4 JUMP JUMPDEST SWAP4 POP DUP4 PUSH1 0x20 DUP3 MUL DUP6 ADD PUSH2 0x1E1E DUP6 PUSH2 0x1CD4 JUMP JUMPDEST DUP1 PUSH0 JUMPDEST DUP6 DUP2 LT ISZERO PUSH2 0x1E59 JUMPI DUP5 DUP5 SUB DUP10 MSTORE DUP2 MLOAD PUSH2 0x1E3A DUP6 DUP3 PUSH2 0x1DD9 JUMP JUMPDEST SWAP5 POP PUSH2 0x1E45 DUP4 PUSH2 0x1DEC JUMP JUMPDEST SWAP3 POP PUSH1 0x20 DUP11 ADD SWAP10 POP POP PUSH1 0x1 DUP2 ADD SWAP1 POP PUSH2 0x1E21 JUMP JUMPDEST POP DUP3 SWAP8 POP DUP8 SWAP6 POP POP POP POP POP POP SWAP3 SWAP2 POP POP JUMP JUMPDEST PUSH0 PUSH1 0x20 DUP3 ADD SWAP1 POP DUP2 DUP2 SUB PUSH0 DUP4 ADD MSTORE PUSH2 0x1E83 DUP2 DUP5 PUSH2 0x1DF8 JUMP JUMPDEST SWAP1 POP SWAP3 SWAP2 POP POP JUMP JUMPDEST PUSH2 0x1E94 DUP2 PUSH2 0x1D53 JUMP JUMPDEST DUP3 MSTORE POP POP JUMP JUMPDEST PUSH0 PUSH1 0x20 DUP3 ADD SWAP1 POP PUSH2 0x1EAD PUSH0 DUP4 ADD DUP5 PUSH2 0x1E8B JUMP JUMPDEST SWAP3 SWAP2 POP POP JUMP JUMPDEST PUSH0 PUSH1 0x40 MLOAD SWAP1 POP SWAP1 JUMP JUMPDEST PUSH0 DUP1 REVERT JUMPDEST PUSH0 DUP1 REVERT JUMPDEST PUSH0 PUSH20 0xFFFFFFFFFFFFFFFFFFFFFFFFFFFFFFFFFFFFFFFF DUP3 AND SWAP1 POP SWAP2 SWAP1 POP JUMP JUMPDEST PUSH0 PUSH2 0x1EED DUP3 PUSH2 0x1EC4 JUMP JUMPDEST SWAP1 POP SWAP2 SWAP1 POP JUMP JUMPDEST PUSH2 0x1EFD DUP2 PUSH2 0x1EE3 JUMP JUMPDEST DUP2 EQ PUSH2 0x1F07 JUMPI PUSH0 DUP1 REVERT JUMPDEST POP JUMP JUMPDEST PUSH0 DUP2 CALLDATALOAD SWAP1 POP PUSH2 0x1F18 DUP2 PUSH2 0x1EF4 JUMP JUMPDEST SWAP3 SWAP2 POP POP JUMP JUMPDEST PUSH0 PUSH1 0x20 DUP3 DUP5 SUB SLT ISZERO PUSH2 0x1F33 JUMPI PUSH2 0x1F32 PUSH2 0x1EBC JUMP JUMPDEST JUMPDEST PUSH0 PUSH2 0x1F40 DUP5 DUP3 DUP6 ADD PUSH2 0x1F0A JUMP JUMPDEST SWAP2 POP POP SWAP3 SWAP2 POP POP JUMP JUMPDEST PUSH0 DUP2 MLOAD SWAP1 POP SWAP2 SWAP1 POP JUMP JUMPDEST PUSH0 DUP3 DUP3 MSTORE PUSH1 0x20 DUP3 ADD SWAP1 POP SWAP3 SWAP2 POP POP JUMP JUMPDEST PUSH0 DUP2 SWAP1 POP PUSH1 0x20 DUP3 ADD SWAP1 POP SWAP2 SWAP1 POP JUMP JUMPDEST PUSH2 0x1F7B DUP2 PUSH2 0x1EE3 JUMP JUMPDEST DUP3 MSTORE POP POP JUMP JUMPDEST PUSH32 0x4E487B7100000000000000000000000000000000000000000000000000000000 PUSH0 MSTORE PUSH1 0x21 PUSH1 0x4 MSTORE PUSH1 0x24 PUSH0 REVERT JUMPDEST PUSH1 0x2 DUP2 LT PUSH2 0x1FBF JUMPI PUSH2 0x1FBE PUSH2 0x1F81 JUMP JUMPDEST JUMPDEST POP JUMP JUMPDEST PUSH0 DUP2 SWAP1 POP PUSH2 0x1FCF DUP3 PUSH2 0x1FAE JUMP JUMPDEST SWAP2 SWAP1 POP JUMP JUMPDEST PUSH0 PUSH2 0x1FDE DUP3 PUSH2 0x1FC2 JUMP JUMPDEST SWAP1 POP SWAP2 SWAP1 POP JUMP JUMPDEST PUSH2 0x1FEE DUP2 PUSH2 0x1FD4 JUMP JUMPDEST DUP3 MSTORE POP POP JUMP JUMPDEST PUSH0 PUSH1 0x80 DUP4 ADD PUSH0 DUP4 ADD MLOAD PUSH2 0x2009 PUSH0 DUP7 ADD DUP3 PUSH2 0x1F72 JUMP JUMPDEST POP PUSH1 0x20 DUP4 ADD MLOAD DUP5 DUP3 SUB PUSH1 0x20 DUP7 ADD MSTORE PUSH2 0x2021 DUP3 DUP3 PUSH2 0x1D1B JUMP JUMPDEST SWAP2 POP POP PUSH1 0x40 DUP4 ADD MLOAD PUSH2 0x2036 PUSH1 0x40 DUP7 ADD DUP3 PUSH2 0x1D5C JUMP JUMPDEST POP PUSH1 0x60 DUP4 ADD MLOAD PUSH2 0x2049 PUSH1 0x60 DUP7 ADD DUP3 PUSH2 0x1FE5 JUMP JUMPDEST POP DUP1 SWAP2 POP POP SWAP3 SWAP2 POP POP JUMP JUMPDEST PUSH0 PUSH2 0x205F DUP4 DUP4 PUSH2 0x1FF4 JUMP JUMPDEST SWAP1 POP SWAP3 SWAP2 POP POP JUMP JUMPDEST PUSH0 PUSH1 0x20 DUP3 ADD SWAP1 POP SWAP2 SWAP1 POP JUMP JUMPDEST PUSH0 PUSH2 0x207D DUP3 PUSH2 0x1F49 JUMP JUMPDEST PUSH2 0x2087 DUP2 DUP6 PUSH2 0x1F53 JUMP JUMPDEST SWAP4 POP DUP4 PUSH1 0x20 DUP3 MUL DUP6 ADD PUSH2 0x2099 DUP6 PUSH2 0x1F63 JUMP JUMPDEST DUP1 PUSH0 JUMPDEST DUP6 DUP2 LT ISZERO PUSH2 0x20D4 JUMPI DUP5 DUP5 SUB DUP10 MSTORE DUP2 MLOAD PUSH2 0x20B5 DUP6 DUP3 PUSH2 0x2054 JUMP JUMPDEST SWAP5 POP PUSH2 0x20C0 DUP4 PUSH2 0x2067 JUMP JUMPDEST SWAP3 POP PUSH1 0x20 DUP11 ADD SWAP10 POP POP PUSH1 0x1 DUP2 ADD SWAP1 POP PUSH2 0x209C JUMP JUMPDEST POP DUP3 SWAP8 POP DUP8 SWAP6 POP POP POP POP POP POP SWAP3 SWAP2 POP POP JUMP JUMPDEST PUSH0 PUSH1 0x20 DUP3 ADD SWAP1 POP DUP2 DUP2 SUB PUSH0 DUP4 ADD MSTORE PUSH2 0x20FE DUP2 DUP5 PUSH2 0x2073 JUMP JUMPDEST SWAP1 POP SWAP3 SWAP2 POP POP JUMP JUMPDEST PUSH0 DUP1 REVERT JUMPDEST PUSH0 DUP1 REVERT JUMPDEST PUSH32 0x4E487B7100000000000000000000000000000000000000000000000000000000 PUSH0 MSTORE PUSH1 0x41 PUSH1 0x4 MSTORE PUSH1 0x24 PUSH0 REVERT JUMPDEST PUSH2 0x2144 DUP3 PUSH2 0x1D0B JUMP JUMPDEST DUP2 ADD DUP2 DUP2 LT PUSH8 0xFFFFFFFFFFFFFFFF DUP3 GT OR ISZERO PUSH2 0x2163 JUMPI PUSH2 0x2162 PUSH2 0x210E JUMP JUMPDEST JUMPDEST DUP1 PUSH1 0x40 MSTORE POP POP POP JUMP JUMPDEST PUSH0 PUSH2 0x2175 PUSH2 0x1EB3 JUMP JUMPDEST SWAP1 POP PUSH2 0x2181 DUP3 DUP3 PUSH2 0x213B JUMP JUMPDEST SWAP2 SWAP1 POP JUMP JUMPDEST PUSH0 PUSH8 0xFFFFFFFFFFFFFFFF DUP3 GT ISZERO PUSH2 0x21A0 JUMPI PUSH2 0x219F PUSH2 0x210E JUMP JUMPDEST JUMPDEST PUSH2 0x21A9 DUP3 PUSH2 0x1D0B JUMP JUMPDEST SWAP1 POP PUSH1 0x20 DUP2 ADD SWAP1 POP SWAP2 SWAP1 POP JUMP JUMPDEST DUP3 DUP2 DUP4 CALLDATACOPY PUSH0 DUP4 DUP4 ADD MSTORE POP POP POP JUMP JUMPDEST PUSH0 PUSH2 0x21D6 PUSH2 0x21D1 DUP5 PUSH2 0x2186 JUMP JUMPDEST PUSH2 0x216C JUMP JUMPDEST SWAP1 POP DUP3 DUP2 MSTORE PUSH1 0x20 DUP2 ADD DUP5 DUP5 DUP5 ADD GT ISZERO PUSH2 0x21F2 JUMPI PUSH2 0x21F1 PUSH2 0x210A JUMP JUMPDEST JUMPDEST PUSH2 0x21FD DUP5 DUP3 DUP6 PUSH2 0x21B6 JUMP JUMPDEST POP SWAP4 SWAP3 POP POP POP JUMP JUMPDEST PUSH0 DUP3 PUSH1 0x1F DUP4 ADD SLT PUSH2 0x2219 JUMPI PUSH2 0x2218 PUSH2 0x2106 JUMP JUMPDEST JUMPDEST DUP2 CALLDATALOAD PUSH2 0x2229 DUP5 DUP3 PUSH1 0x20 DUP7 ADD PUSH2 0x21C4 JUMP JUMPDEST SWAP2 POP POP SWAP3 SWAP2 POP POP JUMP JUMPDEST PUSH0 PUSH1 0x20 DUP3 DUP5 SUB SLT ISZERO PUSH2 0x2247 JUMPI PUSH2 0x2246 PUSH2 0x1EBC JUMP JUMPDEST JUMPDEST PUSH0 DUP3 ADD CALLDATALOAD PUSH8 0xFFFFFFFFFFFFFFFF DUP2 GT ISZERO PUSH2 0x2264 JUMPI PUSH2 0x2263 PUSH2 0x1EC0 JUMP JUMPDEST JUMPDEST PUSH2 0x2270 DUP5 DUP3 DUP6 ADD PUSH2 0x2205 JUMP JUMPDEST SWAP2 POP POP SWAP3 SWAP2 POP POP JUMP JUMPDEST PUSH2 0x2282 DUP2 PUSH2 0x1D53 JUMP JUMPDEST DUP2 EQ PUSH2 0x228C JUMPI PUSH0 DUP1 REVERT JUMPDEST POP JUMP JUMPDEST PUSH0 DUP2 CALLDATALOAD SWAP1 POP PUSH2 0x229D DUP2 PUSH2 0x2279 JUMP JUMPDEST SWAP3 SWAP2 POP POP JUMP JUMPDEST PUSH0 PUSH1 0x20 DUP3 DUP5 SUB SLT ISZERO PUSH2 0x22B8 JUMPI PUSH2 0x22B7 PUSH2 0x1EBC JUMP JUMPDEST JUMPDEST PUSH0 PUSH2 0x22C5 DUP5 DUP3 DUP6 ADD PUSH2 0x228F JUMP JUMPDEST SWAP2 POP POP SWAP3 SWAP2 POP POP JUMP JUMPDEST PUSH0 PUSH1 0x80 DUP4 ADD PUSH0 DUP4 ADD MLOAD DUP5 DUP3 SUB PUSH0 DUP7 ADD MSTORE PUSH2 0x22E8 DUP3 DUP3 PUSH2 0x1D1B JUMP JUMPDEST SWAP2 POP POP PUSH1 0x20 DUP4 ADD MLOAD PUSH2 0x22FD PUSH1 0x20 DUP7 ADD DUP3 PUSH2 0x1D5C JUMP JUMPDEST POP PUSH1 0x40 DUP4 ADD MLOAD DUP5 DUP3 SUB PUSH1 0x40 DUP7 ADD MSTORE PUSH2 0x2315 DUP3 DUP3 PUSH2 0x1D1B JUMP JUMPDEST SWAP2 POP POP PUSH1 0x60 DUP4 ADD MLOAD DUP5 DUP3 SUB PUSH1 0x60 DUP7 ADD MSTORE PUSH2 0x232F DUP3 DUP3 PUSH2 0x1D1B JUMP JUMPDEST SWAP2 POP POP DUP1 SWAP2 POP POP SWAP3 SWAP2 POP POP JUMP JUMPDEST PUSH0 PUSH1 0x20 DUP3 ADD SWAP1 POP DUP2 DUP2 SUB PUSH0 DUP4 ADD MSTORE PUSH2 0x2354 DUP2 DUP5 PUSH2 0x22CE JUMP JUMPDEST SWAP1 POP SWAP3 SWAP2 POP POP JUMP JUMPDEST PUSH32 0x4E487B7100000000000000000000000000000000000000000000000000000000 PUSH0 MSTORE PUSH1 0x22 PUSH1 0x4 MSTORE PUSH1 0x24 PUSH0 REVERT JUMPDEST PUSH0 PUSH1 0x2 DUP3 DIV SWAP1 POP PUSH1 0x1 DUP3 AND DUP1 PUSH2 0x23A0 JUMPI PUSH1 0x7F DUP3 AND SWAP2 POP JUMPDEST PUSH1 0x20 DUP3 LT DUP2 SUB PUSH2 0x23B3 JUMPI PUSH2 0x23B2 PUSH2 0x235C JUMP JUMPDEST JUMPDEST POP SWAP2 SWAP1 POP JUMP JUMPDEST PUSH0 DUP3 DUP3 MSTORE PUSH1 0x20 DUP3 ADD SWAP1 POP SWAP3 SWAP2 POP POP JUMP JUMPDEST PUSH32 0x4F6E6C79206F776E65722063616E2063616C6C20746869732066756E6374696F PUSH0 DUP3 ADD MSTORE PUSH32 0x6E00000000000000000000000000000000000000000000000000000000000000 PUSH1 0x20 DUP3 ADD MSTORE POP JUMP JUMPDEST PUSH0 PUSH2 0x2423 PUSH1 0x21 DUP4 PUSH2 0x23B9 JUMP JUMPDEST SWAP2 POP PUSH2 0x242E DUP3 PUSH2 0x23C9 JUMP JUMPDEST PUSH1 0x40 DUP3 ADD SWAP1 POP SWAP2 SWAP1 POP JUMP JUMPDEST PUSH0 PUSH1 0x20 DUP3 ADD SWAP1 POP DUP2 DUP2 SUB PUSH0 DUP4 ADD MSTORE PUSH2 0x2450 DUP2 PUSH2 0x2417 JUMP JUMPDEST SWAP1 POP SWAP2 SWAP1 POP JUMP JUMPDEST PUSH32 0x4E487B7100000000000000000000000000000000000000000000000000000000 PUSH0 MSTORE PUSH1 0x32 PUSH1 0x4 MSTORE PUSH1 0x24 PUSH0 REVERT JUMPDEST PUSH32 0x4E487B7100000000000000000000000000000000000000000000000000000000 PUSH0 MSTORE PUSH1 0x11 PUSH1 0x4 MSTORE PUSH1 0x24 PUSH0 REVERT JUMPDEST PUSH0 PUSH2 0x24BB DUP3 PUSH2 0x1D53 JUMP JUMPDEST SWAP2 POP PUSH32 0xFFFFFFFFFFFFFFFFFFFFFFFFFFFFFFFFFFFFFFFFFFFFFFFFFFFFFFFFFFFFFFFF DUP3 SUB PUSH2 0x24ED JUMPI PUSH2 0x24EC PUSH2 0x2484 JUMP JUMPDEST JUMPDEST PUSH1 0x1 DUP3 ADD SWAP1 POP SWAP2 SWAP1 POP JUMP JUMPDEST PUSH32 0x496E73756666696369656E742066756E64730000000000000000000000000000 PUSH0 DUP3 ADD MSTORE POP JUMP JUMPDEST PUSH0 PUSH2 0x252C PUSH1 0x12 DUP4 PUSH2 0x23B9 JUMP JUMPDEST SWAP2 POP PUSH2 0x2537 DUP3 PUSH2 0x24F8 JUMP JUMPDEST PUSH1 0x20 DUP3 ADD SWAP1 POP SWAP2 SWAP1 POP JUMP JUMPDEST PUSH0 PUSH1 0x20 DUP3 ADD SWAP1 POP DUP2 DUP2 SUB PUSH0 DUP4 ADD MSTORE PUSH2 0x2559 DUP2 PUSH2 0x2520 JUMP JUMPDEST SWAP1 POP SWAP2 SWAP1 POP JUMP JUMPDEST PUSH0 PUSH2 0x256A DUP3 PUSH2 0x1D53 JUMP JUMPDEST SWAP2 POP PUSH2 0x2575 DUP4 PUSH2 0x1D53 JUMP JUMPDEST SWAP3 POP DUP3 DUP3 SUB SWAP1 POP DUP2 DUP2 GT ISZERO PUSH2 0x258D JUMPI PUSH2 0x258C PUSH2 0x2484 JUMP JUMPDEST JUMPDEST SWAP3 SWAP2 POP POP JUMP JUMPDEST PUSH0 DUP2 SWAP1 POP DUP2 PUSH0 MSTORE PUSH1 0x20 PUSH0 KECCAK256 SWAP1 POP SWAP2 SWAP1 POP JUMP JUMPDEST PUSH0 PUSH1 0x20 PUSH1 0x1F DUP4 ADD DIV SWAP1 POP SWAP2 SWAP1 POP JUMP JUMPDEST PUSH0 DUP3 DUP3 SHL SWAP1 POP SWAP3 SWAP2 POP POP JUMP JUMPDEST PUSH0 PUSH1 0x8 DUP4 MUL PUSH2 0x25EF PUSH32 0xFFFFFFFFFFFFFFFFFFFFFFFFFFFFFFFFFFFFFFFFFFFFFFFFFFFFFFFFFFFFFFFF DUP3 PUSH2 0x25B4 JUMP JUMPDEST PUSH2 0x25F9 DUP7 DUP4 PUSH2 0x25B4 JUMP JUMPDEST SWAP6 POP DUP1 NOT DUP5 AND SWAP4 POP DUP1 DUP7 AND DUP5 OR SWAP3 POP POP POP SWAP4 SWAP3 POP POP POP JUMP JUMPDEST PUSH0 DUP2 SWAP1 POP SWAP2 SWAP1 POP JUMP JUMPDEST PUSH0 PUSH2 0x2634 PUSH2 0x262F PUSH2 0x262A DUP5 PUSH2 0x1D53 JUMP JUMPDEST PUSH2 0x2611 JUMP JUMPDEST PUSH2 0x1D53 JUMP JUMPDEST SWAP1 POP SWAP2 SWAP1 POP JUMP JUMPDEST PUSH0 DUP2 SWAP1 POP SWAP2 SWAP1 POP JUMP JUMPDEST PUSH2 0x264D DUP4 PUSH2 0x261A JUMP JUMPDEST PUSH2 0x2661 PUSH2 0x2659 DUP3 PUSH2 0x263B JUMP JUMPDEST DUP5 DUP5 SLOAD PUSH2 0x25C0 JUMP JUMPDEST DUP3 SSTORE POP POP POP POP JUMP JUMPDEST PUSH0 SWAP1 JUMP JUMPDEST PUSH2 0x2675 PUSH2 0x2669 JUMP JUMPDEST PUSH2 0x2680 DUP2 DUP5 DUP5 PUSH2 0x2644 JUMP JUMPDEST POP POP POP JUMP JUMPDEST JUMPDEST DUP2 DUP2 LT ISZERO PUSH2 0x26A3 JUMPI PUSH2 0x2698 PUSH0 DUP3 PUSH2 0x266D JUMP JUMPDEST PUSH1 0x1 DUP2 ADD SWAP1 POP PUSH2 0x2686 JUMP JUMPDEST POP POP JUMP JUMPDEST PUSH1 0x1F DUP3 GT ISZERO PUSH2 0x26E8 JUMPI PUSH2 0x26B9 DUP2 PUSH2 0x2593 JUMP JUMPDEST PUSH2 0x26C2 DUP5 PUSH2 0x25A5 JUMP JUMPDEST DUP2 ADD PUSH1 0x20 DUP6 LT ISZERO PUSH2 0x26D1 JUMPI DUP2 SWAP1 POP JUMPDEST PUSH2 0x26E5 PUSH2 0x26DD DUP6 PUSH2 0x25A5 JUMP JUMPDEST DUP4 ADD DUP3 PUSH2 0x2685 JUMP JUMPDEST POP POP JUMPDEST POP POP POP JUMP JUMPDEST PUSH0 DUP3 DUP3 SHR SWAP1 POP SWAP3 SWAP2 POP POP JUMP JUMPDEST PUSH0 PUSH2 0x2708 PUSH0 NOT DUP5 PUSH1 0x8 MUL PUSH2 0x26ED JUMP JUMPDEST NOT DUP1 DUP4 AND SWAP2 POP POP SWAP3 SWAP2 POP POP JUMP JUMPDEST PUSH0 PUSH2 0x2720 DUP4 DUP4 PUSH2 0x26F9 JUMP JUMPDEST SWAP2 POP DUP3 PUSH1 0x2 MUL DUP3 OR SWAP1 POP SWAP3 SWAP2 POP POP JUMP JUMPDEST PUSH2 0x2739 DUP3 PUSH2 0x1CE3 JUMP JUMPDEST PUSH8 0xFFFFFFFFFFFFFFFF DUP2 GT ISZERO PUSH2 0x2752 JUMPI PUSH2 0x2751 PUSH2 0x210E JUMP JUMPDEST JUMPDEST PUSH2 0x275C DUP3 SLOAD PUSH2 0x2389 JUMP JUMPDEST PUSH2 0x2767 DUP3 DUP3 DUP6 PUSH2 0x26A7 JUMP JUMPDEST PUSH0 PUSH1 0x20 SWAP1 POP PUSH1 0x1F DUP4 GT PUSH1 0x1 DUP2 EQ PUSH2 0x2798 JUMPI PUSH0 DUP5 ISZERO PUSH2 0x2786 JUMPI DUP3 DUP8 ADD MLOAD SWAP1 POP JUMPDEST PUSH2 0x2790 DUP6 DUP3 PUSH2 0x2715 JUMP JUMPDEST DUP7 SSTORE POP PUSH2 0x27F7 JUMP JUMPDEST PUSH1 0x1F NOT DUP5 AND PUSH2 0x27A6 DUP7 PUSH2 0x2593 JUMP JUMPDEST PUSH0 JUMPDEST DUP3 DUP2 LT ISZERO PUSH2 0x27CD JUMPI DUP5 DUP10 ADD MLOAD DUP3 SSTORE PUSH1 0x1 DUP3 ADD SWAP2 POP PUSH1 0x20 DUP6 ADD SWAP5 POP PUSH1 0x20 DUP2 ADD SWAP1 POP PUSH2 0x27A8 JUMP JUMPDEST DUP7 DUP4 LT ISZERO PUSH2 0x27EA JUMPI DUP5 DUP10 ADD MLOAD PUSH2 0x27E6 PUSH1 0x1F DUP10 AND DUP3 PUSH2 0x26F9 JUMP JUMPDEST DUP4 SSTORE POP JUMPDEST PUSH1 0x1 PUSH1 0x2 DUP9 MUL ADD DUP9 SSTORE POP POP POP JUMPDEST POP POP POP POP POP POP JUMP JUMPDEST PUSH32 0x4E6F207265656E7472616E637900000000000000000000000000000000000000 PUSH0 DUP3 ADD MSTORE POP JUMP JUMPDEST PUSH0 PUSH2 0x2833 PUSH1 0xD DUP4 PUSH2 0x23B9 JUMP JUMPDEST SWAP2 POP PUSH2 0x283E DUP3 PUSH2 0x27FF JUMP JUMPDEST PUSH1 0x20 DUP3 ADD SWAP1 POP SWAP2 SWAP1 POP JUMP JUMPDEST PUSH0 PUSH1 0x20 DUP3 ADD SWAP1 POP DUP2 DUP2 SUB PUSH0 DUP4 ADD MSTORE PUSH2 0x2860 DUP2 PUSH2 0x2827 JUMP JUMPDEST SWAP1 POP SWAP2 SWAP1 POP JUMP JUMPDEST PUSH32 0x596F7520646F206E6F74206861766520616E792062616C616E63652E00000000 PUSH0 DUP3 ADD MSTORE POP JUMP JUMPDEST PUSH0 PUSH2 0x289B PUSH1 0x1C DUP4 PUSH2 0x23B9 JUMP JUMPDEST SWAP2 POP PUSH2 0x28A6 DUP3 PUSH2 0x2867 JUMP JUMPDEST PUSH1 0x20 DUP3 ADD SWAP1 POP SWAP2 SWAP1 POP JUMP JUMPDEST PUSH0 PUSH1 0x20 DUP3 ADD SWAP1 POP DUP2 DUP2 SUB PUSH0 DUP4 ADD MSTORE PUSH2 0x28C8 DUP2 PUSH2 0x288F JUMP JUMPDEST SWAP1 POP SWAP2 SWAP1 POP JUMP JUMPDEST PUSH0 DUP2 SWAP1 POP SWAP3 SWAP2 POP POP JUMP JUMPDEST POP JUMP JUMPDEST PUSH0 PUSH2 0x28E7 PUSH0 DUP4 PUSH2 0x28CF JUMP JUMPDEST SWAP2 POP PUSH2 0x28F2 DUP3 PUSH2 0x28D9 JUMP JUMPDEST PUSH0 DUP3 ADD SWAP1 POP SWAP2 SWAP1 POP JUMP JUMPDEST PUSH0 PUSH2 0x2906 DUP3 PUSH2 0x28DC JUMP JUMPDEST SWAP2 POP DUP2 SWAP1 POP SWAP2 SWAP1 POP JUMP JUMPDEST PUSH32 0x5472616E73666572206661696C65642E00000000000000000000000000000000 PUSH0 DUP3 ADD MSTORE POP JUMP JUMPDEST PUSH0 PUSH2 0x2944 PUSH1 0x10 DUP4 PUSH2 0x23B9 JUMP JUMPDEST SWAP2 POP PUSH2 0x294F DUP3 PUSH2 0x2910 JUMP JUMPDEST PUSH1 0x20 DUP3 ADD SWAP1 POP SWAP2 SWAP1 POP JUMP JUMPDEST PUSH0 PUSH1 0x20 DUP3 ADD SWAP1 POP DUP2 DUP2 SUB PUSH0 DUP4 ADD MSTORE PUSH2 0x2971 DUP2 PUSH2 0x2938 JUMP JUMPDEST SWAP1 POP SWAP2 SWAP1 POP JUMP JUMPDEST PUSH32 0x4D697373696E6720726571756972656420616D6F756E74000000000000000000 PUSH0 DUP3 ADD MSTORE POP JUMP JUMPDEST PUSH0 PUSH2 0x29AC PUSH1 0x17 DUP4 PUSH2 0x23B9 JUMP JUMPDEST SWAP2 POP PUSH2 0x29B7 DUP3 PUSH2 0x2978 JUMP JUMPDEST PUSH1 0x20 DUP3 ADD SWAP1 POP SWAP2 SWAP1 POP JUMP JUMPDEST PUSH0 PUSH1 0x20 DUP3 ADD SWAP1 POP DUP2 DUP2 SUB PUSH0 DUP4 ADD MSTORE PUSH2 0x29D9 DUP2 PUSH2 0x29A0 JUMP JUMPDEST SWAP1 POP SWAP2 SWAP1 POP JUMP JUMPDEST PUSH0 PUSH2 0x29EA DUP3 PUSH2 0x1D53 JUMP JUMPDEST SWAP2 POP PUSH2 0x29F5 DUP4 PUSH2 0x1D53 JUMP JUMPDEST SWAP3 POP DUP3 DUP3 ADD SWAP1 POP DUP1 DUP3 GT ISZERO PUSH2 0x2A0D JUMPI PUSH2 0x2A0C PUSH2 0x2484 JUMP JUMPDEST JUMPDEST SWAP3 SWAP2 POP POP JUMP JUMPDEST PUSH32 0x496E76616C696420707572636861736520696E64657800000000000000000000 PUSH0 DUP3 ADD MSTORE POP JUMP JUMPDEST PUSH0 PUSH2 0x2A47 PUSH1 0x16 DUP4 PUSH2 0x23B9 JUMP JUMPDEST SWAP2 POP PUSH2 0x2A52 DUP3 PUSH2 0x2A13 JUMP JUMPDEST PUSH1 0x20 DUP3 ADD SWAP1 POP SWAP2 SWAP1 POP JUMP JUMPDEST PUSH0 PUSH1 0x20 DUP3 ADD SWAP1 POP DUP2 DUP2 SUB PUSH0 DUP4 ADD MSTORE PUSH2 0x2A74 DUP2 PUSH2 0x2A3B JUMP JUMPDEST SWAP1 POP SWAP2 SWAP1 POP JUMP JUMPDEST PUSH32 0x4E6F7420796F7572207075726368617365000000000000000000000000000000 PUSH0 DUP3 ADD MSTORE POP JUMP JUMPDEST PUSH0 PUSH2 0x2AAF PUSH1 0x11 DUP4 PUSH2 0x23B9 JUMP JUMPDEST SWAP2 POP PUSH2 0x2ABA DUP3 PUSH2 0x2A7B JUMP JUMPDEST PUSH1 0x20 DUP3 ADD SWAP1 POP SWAP2 SWAP1 POP JUMP JUMPDEST PUSH0 PUSH1 0x20 DUP3 ADD SWAP1 POP DUP2 DUP2 SUB PUSH0 DUP4 ADD MSTORE PUSH2 0x2ADC DUP2 PUSH2 0x2AA3 JUMP JUMPDEST SWAP1 POP SWAP2 SWAP1 POP JUMP JUMPDEST PUSH32 0x507572636861736520616C726561647920636F6E73756D656400000000000000 PUSH0 DUP3 ADD MSTORE POP JUMP JUMPDEST PUSH0 PUSH2 0x2B17 PUSH1 0x19 DUP4 PUSH2 0x23B9 JUMP JUMPDEST SWAP2 POP PUSH2 0x2B22 DUP3 PUSH2 0x2AE3 JUMP JUMPDEST PUSH1 0x20 DUP3 ADD SWAP1 POP SWAP2 SWAP1 POP JUMP JUMPDEST PUSH0 PUSH1 0x20 DUP3 ADD SWAP1 POP DUP2 DUP2 SUB PUSH0 DUP4 ADD MSTORE PUSH2 0x2B44 DUP2 PUSH2 0x2B0B JUMP JUMPDEST SWAP1 POP SWAP2 SWAP1 POP JUMP JUMPDEST PUSH0 DUP2 SWAP1 POP SWAP3 SWAP2 POP POP JUMP JUMPDEST PUSH0 PUSH2 0x2B5F DUP3 PUSH2 0x1CE3 JUMP JUMPDEST PUSH2 0x2B69 DUP2 DUP6 PUSH2 0x2B4B JUMP JUMPDEST SWAP4 POP PUSH2 0x2B79 DUP2 DUP6 PUSH1 0x20 DUP7 ADD PUSH2 0x1CFD JUMP JUMPDEST DUP1 DUP5 ADD SWAP2 POP POP SWAP3 SWAP2 POP POP JUMP JUMPDEST PUSH0 PUSH2 0x2B90 DUP3 DUP5 PUSH2 0x2B55 JUMP JUMPDEST SWAP2 POP DUP2 SWAP1 POP SWAP3 SWAP2 POP POP JUMP JUMPDEST PUSH0 DUP2 SLOAD PUSH2 0x2BA7 DUP2 PUSH2 0x2389 JUMP JUMPDEST PUSH2 0x2BB1 DUP2 DUP7 PUSH2 0x2B4B JUMP JUMPDEST SWAP5 POP PUSH1 0x1 DUP3 AND PUSH0 DUP2 EQ PUSH2 0x2BCB JUMPI PUSH1 0x1 DUP2 EQ PUSH2 0x2BE0 JUMPI PUSH2 0x2C12 JUMP JUMPDEST PUSH1 0xFF NOT DUP4 AND DUP7 MSTORE DUP2 ISZERO ISZERO DUP3 MUL DUP7 ADD SWAP4 POP PUSH2 0x2C12 JUMP JUMPDEST PUSH2 0x2BE9 DUP6 PUSH2 0x2593 JUMP JUMPDEST PUSH0 JUMPDEST DUP4 DUP2 LT ISZERO PUSH2 0x2C0A JUMPI DUP2 SLOAD DUP2 DUP10 ADD MSTORE PUSH1 0x1 DUP3 ADD SWAP2 POP PUSH1 0x20 DUP2 ADD SWAP1 POP PUSH2 0x2BEB JUMP JUMPDEST DUP4 DUP9 ADD SWAP6 POP POP POP JUMPDEST POP POP POP SWAP3 SWAP2 POP POP JUMP JUMPDEST PUSH0 PUSH2 0x2C26 DUP3 DUP5 PUSH2 0x2B9B JUMP JUMPDEST SWAP2 POP DUP2 SWAP1 POP SWAP3 SWAP2 POP POP JUMP JUMPDEST PUSH32 0x50726F64756374206E6F7420666F756E64000000000000000000000000000000 PUSH0 DUP3 ADD MSTORE POP JUMP JUMPDEST PUSH0 PUSH2 0x2C65 PUSH1 0x11 DUP4 PUSH2 0x23B9 JUMP JUMPDEST SWAP2 POP PUSH2 0x2C70 DUP3 PUSH2 0x2C31 JUMP JUMPDEST PUSH1 0x20 DUP3 ADD SWAP1 POP SWAP2 SWAP1 POP JUMP JUMPDEST PUSH0 PUSH1 0x20 DUP3 ADD SWAP1 POP DUP2 DUP2 SUB PUSH0 DUP4 ADD MSTORE PUSH2 0x2C92 DUP2 PUSH2 0x2C59 JUMP JUMPDEST SWAP1 POP SWAP2 SWAP1 POP JUMP INVALID LOG2 PUSH5 0x6970667358 0x22 SLT KECCAK256 MSIZE 0xF7 PUSH9 0x153639BDBF6581E28 0xBC 0xBF BALANCE CALL 0xC6 LT SHR 0xE4 0xE1 PUSH3 0x91D18A PUSH14 0x5DF4B0A8B4ED64736F6C63430008 BYTE STOP CALLER MLOAD PUSH14 0x6652465261626F50334D34386565 PUSH25 0x766E516B6977675544506150484A69466E44634B637545754C TIMESTAMP PUSH3 0x66312F "
				},
				"gasEstimates": {
					"creation": {
						"codeDepositCost": "2294200",
						"executionCost": "infinite",
						"totalCost": "infinite"
					},
					"external": {
						"addFunds()": "infinite",
						"consumePurchase(uint256)": "40012",
						"getAllProducts()": "infinite",
						"getAvailablePurchases(address)": "infinite",
						"getBalance()": "4711",
						"getConsumedPurchases(address)": "infinite",
						"getProductByCode(string)": "infinite",
						"getPurchases(address)": "infinite",
						"purchaseProduct(string)": "infinite",
						"withdraw()": "infinite"
					},
					"internal": {
						"concatIPFSReference(string memory)": "infinite",
						"initializeProducts()": "infinite"
					}
				},
				"methodIdentifiers": {
					"addFunds()": "a26759cb",
					"consumePurchase(uint256)": "b04f3225",
					"getAllProducts()": "02ee3a52",
					"getAvailablePurchases(address)": "121dc3d5",
					"getBalance()": "12065fe0",
					"getConsumedPurchases(address)": "94cf2160",
					"getProductByCode(string)": "cdad28d7",
					"getPurchases(address)": "70cd5a80",
					"purchaseProduct(string)": "19f92926",
					"withdraw()": "3ccfd60b"
				}
			},
			"storageLayout": {
				"storage": [
					{
						"astId": 29,
						"contract": "contracts/VendingMachine.sol:VendingMachine",
						"label": "owner",
						"offset": 0,
						"slot": "0",
						"type": "t_address"
					},
					{
						"astId": 31,
						"contract": "contracts/VendingMachine.sol:VendingMachine",
						"label": "locked",
						"offset": 20,
						"slot": "0",
						"type": "t_bool"
					},
					{
						"astId": 35,
						"contract": "contracts/VendingMachine.sol:VendingMachine",
						"label": "products",
						"offset": 0,
						"slot": "1",
						"type": "t_array(t_struct(Product)13_storage)dyn_storage"
					},
					{
						"astId": 39,
						"contract": "contracts/VendingMachine.sol:VendingMachine",
						"label": "balances",
						"offset": 0,
						"slot": "2",
						"type": "t_mapping(t_address,t_uint256)"
					},
					{
						"astId": 43,
						"contract": "contracts/VendingMachine.sol:VendingMachine",
						"label": "purchases",
						"offset": 0,
						"slot": "3",
						"type": "t_array(t_struct(Purchase)23_storage)dyn_storage"
					}
				],
				"types": {
					"t_address": {
						"encoding": "inplace",
						"label": "address",
						"numberOfBytes": "20"
					},
					"t_array(t_struct(Product)13_storage)dyn_storage": {
						"base": "t_struct(Product)13_storage",
						"encoding": "dynamic_array",
						"label": "struct ProductLibrary.Product[]",
						"numberOfBytes": "32"
					},
					"t_array(t_struct(Purchase)23_storage)dyn_storage": {
						"base": "t_struct(Purchase)23_storage",
						"encoding": "dynamic_array",
						"label": "struct ProductLibrary.Purchase[]",
						"numberOfBytes": "32"
					},
					"t_bool": {
						"encoding": "inplace",
						"label": "bool",
						"numberOfBytes": "1"
					},
					"t_enum(PurchaseStatus)4": {
						"encoding": "inplace",
						"label": "enum ProductLibrary.PurchaseStatus",
						"numberOfBytes": "1"
					},
					"t_mapping(t_address,t_uint256)": {
						"encoding": "mapping",
						"key": "t_address",
						"label": "mapping(address => uint256)",
						"numberOfBytes": "32",
						"value": "t_uint256"
					},
					"t_string_storage": {
						"encoding": "bytes",
						"label": "string",
						"numberOfBytes": "32"
					},
					"t_struct(Product)13_storage": {
						"encoding": "inplace",
						"label": "struct ProductLibrary.Product",
						"members": [
							{
								"astId": 6,
								"contract": "contracts/VendingMachine.sol:VendingMachine",
								"label": "code",
								"offset": 0,
								"slot": "0",
								"type": "t_string_storage"
							},
							{
								"astId": 8,
								"contract": "contracts/VendingMachine.sol:VendingMachine",
								"label": "price",
								"offset": 0,
								"slot": "1",
								"type": "t_uint256"
							},
							{
								"astId": 10,
								"contract": "contracts/VendingMachine.sol:VendingMachine",
								"label": "name",
								"offset": 0,
								"slot": "2",
								"type": "t_string_storage"
							},
							{
								"astId": 12,
								"contract": "contracts/VendingMachine.sol:VendingMachine",
								"label": "imageCID",
								"offset": 0,
								"slot": "3",
								"type": "t_string_storage"
							}
						],
						"numberOfBytes": "128"
					},
					"t_struct(Purchase)23_storage": {
						"encoding": "inplace",
						"label": "struct ProductLibrary.Purchase",
						"members": [
							{
								"astId": 15,
								"contract": "contracts/VendingMachine.sol:VendingMachine",
								"label": "buyer",
								"offset": 0,
								"slot": "0",
								"type": "t_address"
							},
							{
								"astId": 17,
								"contract": "contracts/VendingMachine.sol:VendingMachine",
								"label": "productId",
								"offset": 0,
								"slot": "1",
								"type": "t_string_storage"
							},
							{
								"astId": 19,
								"contract": "contracts/VendingMachine.sol:VendingMachine",
								"label": "timestamp",
								"offset": 0,
								"slot": "2",
								"type": "t_uint256"
							},
							{
								"astId": 22,
								"contract": "contracts/VendingMachine.sol:VendingMachine",
								"label": "status",
								"offset": 0,
								"slot": "3",
								"type": "t_enum(PurchaseStatus)4"
							}
						],
						"numberOfBytes": "128"
					},
					"t_uint256": {
						"encoding": "inplace",
						"label": "uint256",
						"numberOfBytes": "32"
					}
				}
			},
			"userdoc": {
				"kind": "user",
				"methods": {},
				"version": 1
			}
		}
	}
}