{
	"contracts/VendingMachine.sol": {
		"VendingMachine": {
			"abi": [
				{
					"inputs": [],
					"stateMutability": "nonpayable",
					"type": "constructor"
				},
				{
					"inputs": [],
					"name": "addFunds",
					"outputs": [],
					"stateMutability": "payable",
					"type": "function"
				},
				{
					"inputs": [
						{
							"internalType": "uint256",
							"name": "_purchaseIndex",
							"type": "uint256"
						}
					],
					"name": "consumePurchase",
					"outputs": [],
					"stateMutability": "nonpayable",
					"type": "function"
				},
				{
					"inputs": [],
					"name": "getAllProducts",
					"outputs": [
						{
							"components": [
								{
									"internalType": "string",
									"name": "code",
									"type": "string"
								},
								{
									"internalType": "uint256",
									"name": "price",
									"type": "uint256"
								},
								{
									"internalType": "string",
									"name": "name",
									"type": "string"
								}
							],
							"internalType": "struct VendingMachine.Product[]",
							"name": "",
							"type": "tuple[]"
						}
					],
					"stateMutability": "view",
					"type": "function"
				},
				{
					"inputs": [
						{
							"internalType": "address",
							"name": "_buyer",
							"type": "address"
						}
					],
					"name": "getAvailablePurchases",
					"outputs": [
						{
							"components": [
								{
									"internalType": "address",
									"name": "buyer",
									"type": "address"
								},
								{
									"internalType": "string",
									"name": "productId",
									"type": "string"
								},
								{
									"internalType": "uint256",
									"name": "timestamp",
									"type": "uint256"
								},
								{
									"internalType": "enum VendingMachine.PurchaseStatus",
									"name": "status",
									"type": "uint8"
								}
							],
							"internalType": "struct VendingMachine.Purchase[]",
							"name": "",
							"type": "tuple[]"
						}
					],
					"stateMutability": "view",
					"type": "function"
				},
				{
					"inputs": [],
					"name": "getBalance",
					"outputs": [
						{
							"internalType": "uint256",
							"name": "",
							"type": "uint256"
						}
					],
					"stateMutability": "view",
					"type": "function"
				},
				{
					"inputs": [
						{
							"internalType": "address",
							"name": "_buyer",
							"type": "address"
						}
					],
					"name": "getConsumedPurchases",
					"outputs": [
						{
							"components": [
								{
									"internalType": "address",
									"name": "buyer",
									"type": "address"
								},
								{
									"internalType": "string",
									"name": "productId",
									"type": "string"
								},
								{
									"internalType": "uint256",
									"name": "timestamp",
									"type": "uint256"
								},
								{
									"internalType": "enum VendingMachine.PurchaseStatus",
									"name": "status",
									"type": "uint8"
								}
							],
							"internalType": "struct VendingMachine.Purchase[]",
							"name": "",
							"type": "tuple[]"
						}
					],
					"stateMutability": "view",
					"type": "function"
				},
				{
					"inputs": [
						{
							"internalType": "string",
							"name": "_productId",
							"type": "string"
						}
					],
					"name": "getProductByCode",
					"outputs": [
						{
							"components": [
								{
									"internalType": "string",
									"name": "code",
									"type": "string"
								},
								{
									"internalType": "uint256",
									"name": "price",
									"type": "uint256"
								},
								{
									"internalType": "string",
									"name": "name",
									"type": "string"
								}
							],
							"internalType": "struct VendingMachine.Product",
							"name": "",
							"type": "tuple"
						}
					],
					"stateMutability": "view",
					"type": "function"
				},
				{
					"inputs": [
						{
							"internalType": "address",
							"name": "_buyer",
							"type": "address"
						}
					],
					"name": "getPurchases",
					"outputs": [
						{
							"components": [
								{
									"internalType": "address",
									"name": "buyer",
									"type": "address"
								},
								{
									"internalType": "string",
									"name": "productId",
									"type": "string"
								},
								{
									"internalType": "uint256",
									"name": "timestamp",
									"type": "uint256"
								},
								{
									"internalType": "enum VendingMachine.PurchaseStatus",
									"name": "status",
									"type": "uint8"
								}
							],
							"internalType": "struct VendingMachine.Purchase[]",
							"name": "",
							"type": "tuple[]"
						}
					],
					"stateMutability": "view",
					"type": "function"
				},
				{
					"inputs": [
						{
							"internalType": "string",
							"name": "_productId",
							"type": "string"
						}
					],
					"name": "purchaseProduct",
					"outputs": [],
					"stateMutability": "nonpayable",
					"type": "function"
				},
				{
					"inputs": [],
					"name": "withdraw",
					"outputs": [],
					"stateMutability": "nonpayable",
					"type": "function"
				}
			],
			"devdoc": {
				"kind": "dev",
				"methods": {},
				"version": 1
			},
			"evm": {
				"assembly": "    /* \"contracts/VendingMachine.sol\":58:5829  contract VendingMachine {... */\n  mstore(0x40, 0x80)\n    /* \"contracts/VendingMachine.sol\":795:2107  constructor() {... */\n  callvalue\n  dup1\n  iszero\n  tag_1\n  jumpi\n  0x00\n  dup1\n  revert\ntag_1:\n  pop\n    /* \"contracts/VendingMachine.sol\":827:837  msg.sender */\n  caller\n    /* \"contracts/VendingMachine.sol\":819:824  owner */\n  0x00\n  dup1\n    /* \"contracts/VendingMachine.sol\":819:837  owner = msg.sender */\n  0x0100\n  exp\n  dup2\n  sload\n  dup2\n  0xffffffffffffffffffffffffffffffffffffffff\n  mul\n  not\n  and\n  swap1\n  dup4\n  0xffffffffffffffffffffffffffffffffffffffff\n  and\n  mul\n  or\n  swap1\n  sstore\n  pop\n    /* \"contracts/VendingMachine.sol\":847:855  products */\n  0x01\n    /* \"contracts/VendingMachine.sol\":861:894  Product(\"A1\", 15 * 10**8, \"Lays\") */\n  mload(0x40)\n  dup1\n  0x60\n  add\n  0x40\n  mstore\n  dup1\n  mload(0x40)\n  dup1\n  0x40\n  add\n  0x40\n  mstore\n  dup1\n  0x02\n  dup2\n  mstore\n  0x20\n  add\n  0x4131000000000000000000000000000000000000000000000000000000000000\n  dup2\n  mstore\n  pop\n  dup2\n  mstore\n  0x20\n  add\n    /* \"contracts/VendingMachine.sol\":875:885  15 * 10**8 */\n  0x59682f00\n    /* \"contracts/VendingMachine.sol\":861:894  Product(\"A1\", 15 * 10**8, \"Lays\") */\n  dup2\n  mstore\n  0x20\n  add\n  mload(0x40)\n  dup1\n  0x40\n  add\n  0x40\n  mstore\n  dup1\n  0x04\n  dup2\n  mstore\n  0x20\n  add\n  0x4c61797300000000000000000000000000000000000000000000000000000000\n  dup2\n  mstore\n  pop\n  dup2\n  mstore\n  pop\n    /* \"contracts/VendingMachine.sol\":847:895  products.push(Product(\"A1\", 15 * 10**8, \"Lays\")) */\n  swap1\n  dup1\n  0x01\n  dup2\n  sload\n  add\n  dup1\n  dup3\n  sstore\n  dup1\n  swap2\n  pop\n  pop\n  0x01\n  swap1\n  sub\n  swap1\n  0x00\n  mstore\n  keccak256(0x00, 0x20)\n  swap1\n  0x03\n  mul\n  add\n  0x00\n  swap1\n  swap2\n  swap1\n  swap2\n  swap1\n  swap2\n  pop\n  0x00\n  dup3\n  add\n  mload\n  dup2\n  0x00\n  add\n  swap1\n  dup2\n  tag_5\n  swap2\n  swap1\n  tag_6\n  jump\t// in\ntag_5:\n  pop\n  0x20\n  dup3\n  add\n  mload\n  dup2\n  0x01\n  add\n  sstore\n  0x40\n  dup3\n  add\n  mload\n  dup2\n  0x02\n  add\n  swap1\n  dup2\n  tag_7\n  swap2\n  swap1\n  tag_6\n  jump\t// in\ntag_7:\n  pop\n  pop\n  pop\n    /* \"contracts/VendingMachine.sol\":905:913  products */\n  0x01\n    /* \"contracts/VendingMachine.sol\":919:958  Product(\"A2\", 175 * 10**7, \"Coca Cola\") */\n  mload(0x40)\n  dup1\n  0x60\n  add\n  0x40\n  mstore\n  dup1\n  mload(0x40)\n  dup1\n  0x40\n  add\n  0x40\n  mstore\n  dup1\n  0x02\n  dup2\n  mstore\n  0x20\n  add\n  0x4132000000000000000000000000000000000000000000000000000000000000\n  dup2\n  mstore\n  pop\n  dup2\n  mstore\n  0x20\n  add\n    /* \"contracts/VendingMachine.sol\":933:944  175 * 10**7 */\n  0x684ee180\n    /* \"contracts/VendingMachine.sol\":919:958  Product(\"A2\", 175 * 10**7, \"Coca Cola\") */\n  dup2\n  mstore\n  0x20\n  add\n  mload(0x40)\n  dup1\n  0x40\n  add\n  0x40\n  mstore\n  dup1\n  0x09\n  dup2\n  mstore\n  0x20\n  add\n  0x436f636120436f6c610000000000000000000000000000000000000000000000\n  dup2\n  mstore\n  pop\n  dup2\n  mstore\n  pop\n    /* \"contracts/VendingMachine.sol\":905:959  products.push(Product(\"A2\", 175 * 10**7, \"Coca Cola\")) */\n  swap1\n  dup1\n  0x01\n  dup2\n  sload\n  add\n  dup1\n  dup3\n  sstore\n  dup1\n  swap2\n  pop\n  pop\n  0x01\n  swap1\n  sub\n  swap1\n  0x00\n  mstore\n  keccak256(0x00, 0x20)\n  swap1\n  0x03\n  mul\n  add\n  0x00\n  swap1\n  swap2\n  swap1\n  swap2\n  swap1\n  swap2\n  pop\n  0x00\n  dup3\n  add\n  mload\n  dup2\n  0x00\n  add\n  swap1\n  dup2\n  tag_9\n  swap2\n  swap1\n  tag_6\n  jump\t// in\ntag_9:\n  pop\n  0x20\n  dup3\n  add\n  mload\n  dup2\n  0x01\n  add\n  sstore\n  0x40\n  dup3\n  add\n  mload\n  dup2\n  0x02\n  add\n  swap1\n  dup2\n  tag_10\n  swap2\n  swap1\n  tag_6\n  jump\t// in\ntag_10:\n  pop\n  pop\n  pop\n    /* \"contracts/VendingMachine.sol\":969:977  products */\n  0x01\n    /* \"contracts/VendingMachine.sol\":983:1020  Product(\"A3\", 15 * 10**8, \"Pringles\") */\n  mload(0x40)\n  dup1\n  0x60\n  add\n  0x40\n  mstore\n  dup1\n  mload(0x40)\n  dup1\n  0x40\n  add\n  0x40\n  mstore\n  dup1\n  0x02\n  dup2\n  mstore\n  0x20\n  add\n  0x4133000000000000000000000000000000000000000000000000000000000000\n  dup2\n  mstore\n  pop\n  dup2\n  mstore\n  0x20\n  add\n    /* \"contracts/VendingMachine.sol\":997:1007  15 * 10**8 */\n  0x59682f00\n    /* \"contracts/VendingMachine.sol\":983:1020  Product(\"A3\", 15 * 10**8, \"Pringles\") */\n  dup2\n  mstore\n  0x20\n  add\n  mload(0x40)\n  dup1\n  0x40\n  add\n  0x40\n  mstore\n  dup1\n  0x08\n  dup2\n  mstore\n  0x20\n  add\n  0x5072696e676c6573000000000000000000000000000000000000000000000000\n  dup2\n  mstore\n  pop\n  dup2\n  mstore\n  pop\n    /* \"contracts/VendingMachine.sol\":969:1021  products.push(Product(\"A3\", 15 * 10**8, \"Pringles\")) */\n  swap1\n  dup1\n  0x01\n  dup2\n  sload\n  add\n  dup1\n  dup3\n  sstore\n  dup1\n  swap2\n  pop\n  pop\n  0x01\n  swap1\n  sub\n  swap1\n  0x00\n  mstore\n  keccak256(0x00, 0x20)\n  swap1\n  0x03\n  mul\n  add\n  0x00\n  swap1\n  swap2\n  swap1\n  swap2\n  swap1\n  swap2\n  pop\n  0x00\n  dup3\n  add\n  mload\n  dup2\n  0x00\n  add\n  swap1\n  dup2\n  tag_12\n  swap2\n  swap1\n  tag_6\n  jump\t// in\ntag_12:\n  pop\n  0x20\n  dup3\n  add\n  mload\n  dup2\n  0x01\n  add\n  sstore\n  0x40\n  dup3\n  add\n  mload\n  dup2\n  0x02\n  add\n  swap1\n  dup2\n  tag_13\n  swap2\n  swap1\n  tag_6\n  jump\t// in\ntag_13:\n  pop\n  pop\n  pop\n    /* \"contracts/VendingMachine.sol\":1031:1039  products */\n  0x01\n    /* \"contracts/VendingMachine.sol\":1045:1080  Product(\"A4\", 175 * 10**7, \"Water\") */\n  mload(0x40)\n  dup1\n  0x60\n  add\n  0x40\n  mstore\n  dup1\n  mload(0x40)\n  dup1\n  0x40\n  add\n  0x40\n  mstore\n  dup1\n  0x02\n  dup2\n  mstore\n  0x20\n  add\n  0x4134000000000000000000000000000000000000000000000000000000000000\n  dup2\n  mstore\n  pop\n  dup2\n  mstore\n  0x20\n  add\n    /* \"contracts/VendingMachine.sol\":1059:1070  175 * 10**7 */\n  0x684ee180\n    /* \"contracts/VendingMachine.sol\":1045:1080  Product(\"A4\", 175 * 10**7, \"Water\") */\n  dup2\n  mstore\n  0x20\n  add\n  mload(0x40)\n  dup1\n  0x40\n  add\n  0x40\n  mstore\n  dup1\n  0x05\n  dup2\n  mstore\n  0x20\n  add\n  0x5761746572000000000000000000000000000000000000000000000000000000\n  dup2\n  mstore\n  pop\n  dup2\n  mstore\n  pop\n    /* \"contracts/VendingMachine.sol\":1031:1081  products.push(Product(\"A4\", 175 * 10**7, \"Water\")) */\n  swap1\n  dup1\n  0x01\n  dup2\n  sload\n  add\n  dup1\n  dup3\n  sstore\n  dup1\n  swap2\n  pop\n  pop\n  0x01\n  swap1\n  sub\n  swap1\n  0x00\n  mstore\n  keccak256(0x00, 0x20)\n  swap1\n  0x03\n  mul\n  add\n  0x00\n  swap1\n  swap2\n  swap1\n  swap2\n  swap1\n  swap2\n  pop\n  0x00\n  dup3\n  add\n  mload\n  dup2\n  0x00\n  add\n  swap1\n  dup2\n  tag_15\n  swap2\n  swap1\n  tag_6\n  jump\t// in\ntag_15:\n  pop\n  0x20\n  dup3\n  add\n  mload\n  dup2\n  0x01\n  add\n  sstore\n  0x40\n  dup3\n  add\n  mload\n  dup2\n  0x02\n  add\n  swap1\n  dup2\n  tag_16\n  swap2\n  swap1\n  tag_6\n  jump\t// in\ntag_16:\n  pop\n  pop\n  pop\n    /* \"contracts/VendingMachine.sol\":1091:1099  products */\n  0x01\n    /* \"contracts/VendingMachine.sol\":1105:1146  Product(\"A5\", 15 * 10**8, \"Energy Drink\") */\n  mload(0x40)\n  dup1\n  0x60\n  add\n  0x40\n  mstore\n  dup1\n  mload(0x40)\n  dup1\n  0x40\n  add\n  0x40\n  mstore\n  dup1\n  0x02\n  dup2\n  mstore\n  0x20\n  add\n  0x4135000000000000000000000000000000000000000000000000000000000000\n  dup2\n  mstore\n  pop\n  dup2\n  mstore\n  0x20\n  add\n    /* \"contracts/VendingMachine.sol\":1119:1129  15 * 10**8 */\n  0x59682f00\n    /* \"contracts/VendingMachine.sol\":1105:1146  Product(\"A5\", 15 * 10**8, \"Energy Drink\") */\n  dup2\n  mstore\n  0x20\n  add\n  mload(0x40)\n  dup1\n  0x40\n  add\n  0x40\n  mstore\n  dup1\n  0x0c\n  dup2\n  mstore\n  0x20\n  add\n  0x456e65726779204472696e6b0000000000000000000000000000000000000000\n  dup2\n  mstore\n  pop\n  dup2\n  mstore\n  pop\n    /* \"contracts/VendingMachine.sol\":1091:1147  products.push(Product(\"A5\", 15 * 10**8, \"Energy Drink\")) */\n  swap1\n  dup1\n  0x01\n  dup2\n  sload\n  add\n  dup1\n  dup3\n  sstore\n  dup1\n  swap2\n  pop\n  pop\n  0x01\n  swap1\n  sub\n  swap1\n  0x00\n  mstore\n  keccak256(0x00, 0x20)\n  swap1\n  0x03\n  mul\n  add\n  0x00\n  swap1\n  swap2\n  swap1\n  swap2\n  swap1\n  swap2\n  pop\n  0x00\n  dup3\n  add\n  mload\n  dup2\n  0x00\n  add\n  swap1\n  dup2\n  tag_18\n  swap2\n  swap1\n  tag_6\n  jump\t// in\ntag_18:\n  pop\n  0x20\n  dup3\n  add\n  mload\n  dup2\n  0x01\n  add\n  sstore\n  0x40\n  dup3\n  add\n  mload\n  dup2\n  0x02\n  add\n  swap1\n  dup2\n  tag_19\n  swap2\n  swap1\n  tag_6\n  jump\t// in\ntag_19:\n  pop\n  pop\n  pop\n    /* \"contracts/VendingMachine.sol\":1157:1165  products */\n  0x01\n    /* \"contracts/VendingMachine.sol\":1171:1208  Product(\"B1\", 20 * 10**8, \"Sandwich\") */\n  mload(0x40)\n  dup1\n  0x60\n  add\n  0x40\n  mstore\n  dup1\n  mload(0x40)\n  dup1\n  0x40\n  add\n  0x40\n  mstore\n  dup1\n  0x02\n  dup2\n  mstore\n  0x20\n  add\n  0x4231000000000000000000000000000000000000000000000000000000000000\n  dup2\n  mstore\n  pop\n  dup2\n  mstore\n  0x20\n  add\n    /* \"contracts/VendingMachine.sol\":1185:1195  20 * 10**8 */\n  0x77359400\n    /* \"contracts/VendingMachine.sol\":1171:1208  Product(\"B1\", 20 * 10**8, \"Sandwich\") */\n  dup2\n  mstore\n  0x20\n  add\n  mload(0x40)\n  dup1\n  0x40\n  add\n  0x40\n  mstore\n  dup1\n  0x08\n  dup2\n  mstore\n  0x20\n  add\n  0x53616e6477696368000000000000000000000000000000000000000000000000\n  dup2\n  mstore\n  pop\n  dup2\n  mstore\n  pop\n    /* \"contracts/VendingMachine.sol\":1157:1209  products.push(Product(\"B1\", 20 * 10**8, \"Sandwich\")) */\n  swap1\n  dup1\n  0x01\n  dup2\n  sload\n  add\n  dup1\n  dup3\n  sstore\n  dup1\n  swap2\n  pop\n  pop\n  0x01\n  swap1\n  sub\n  swap1\n  0x00\n  mstore\n  keccak256(0x00, 0x20)\n  swap1\n  0x03\n  mul\n  add\n  0x00\n  swap1\n  swap2\n  swap1\n  swap2\n  swap1\n  swap2\n  pop\n  0x00\n  dup3\n  add\n  mload\n  dup2\n  0x00\n  add\n  swap1\n  dup2\n  tag_21\n  swap2\n  swap1\n  tag_6\n  jump\t// in\ntag_21:\n  pop\n  0x20\n  dup3\n  add\n  mload\n  dup2\n  0x01\n  add\n  sstore\n  0x40\n  dup3\n  add\n  mload\n  dup2\n  0x02\n  add\n  swap1\n  dup2\n  tag_22\n  swap2\n  swap1\n  tag_6\n  jump\t// in\ntag_22:\n  pop\n  pop\n  pop\n    /* \"contracts/VendingMachine.sol\":1219:1227  products */\n  0x01\n    /* \"contracts/VendingMachine.sol\":1233:1267  Product(\"B2\", 175 * 10**7, \"Oreo\") */\n  mload(0x40)\n  dup1\n  0x60\n  add\n  0x40\n  mstore\n  dup1\n  mload(0x40)\n  dup1\n  0x40\n  add\n  0x40\n  mstore\n  dup1\n  0x02\n  dup2\n  mstore\n  0x20\n  add\n  0x4232000000000000000000000000000000000000000000000000000000000000\n  dup2\n  mstore\n  pop\n  dup2\n  mstore\n  0x20\n  add\n    /* \"contracts/VendingMachine.sol\":1247:1258  175 * 10**7 */\n  0x684ee180\n    /* \"contracts/VendingMachine.sol\":1233:1267  Product(\"B2\", 175 * 10**7, \"Oreo\") */\n  dup2\n  mstore\n  0x20\n  add\n  mload(0x40)\n  dup1\n  0x40\n  add\n  0x40\n  mstore\n  dup1\n  0x04\n  dup2\n  mstore\n  0x20\n  add\n  0x4f72656f00000000000000000000000000000000000000000000000000000000\n  dup2\n  mstore\n  pop\n  dup2\n  mstore\n  pop\n    /* \"contracts/VendingMachine.sol\":1219:1268  products.push(Product(\"B2\", 175 * 10**7, \"Oreo\")) */\n  swap1\n  dup1\n  0x01\n  dup2\n  sload\n  add\n  dup1\n  dup3\n  sstore\n  dup1\n  swap2\n  pop\n  pop\n  0x01\n  swap1\n  sub\n  swap1\n  0x00\n  mstore\n  keccak256(0x00, 0x20)\n  swap1\n  0x03\n  mul\n  add\n  0x00\n  swap1\n  swap2\n  swap1\n  swap2\n  swap1\n  swap2\n  pop\n  0x00\n  dup3\n  add\n  mload\n  dup2\n  0x00\n  add\n  swap1\n  dup2\n  tag_24\n  swap2\n  swap1\n  tag_6\n  jump\t// in\ntag_24:\n  pop\n  0x20\n  dup3\n  add\n  mload\n  dup2\n  0x01\n  add\n  sstore\n  0x40\n  dup3\n  add\n  mload\n  dup2\n  0x02\n  add\n  swap1\n  dup2\n  tag_25\n  swap2\n  swap1\n  tag_6\n  jump\t// in\ntag_25:\n  pop\n  pop\n  pop\n    /* \"contracts/VendingMachine.sol\":1278:1286  products */\n  0x01\n    /* \"contracts/VendingMachine.sol\":1292:1327  Product(\"B3\", 15 * 10**8, \"Sprite\") */\n  mload(0x40)\n  dup1\n  0x60\n  add\n  0x40\n  mstore\n  dup1\n  mload(0x40)\n  dup1\n  0x40\n  add\n  0x40\n  mstore\n  dup1\n  0x02\n  dup2\n  mstore\n  0x20\n  add\n  0x4233000000000000000000000000000000000000000000000000000000000000\n  dup2\n  mstore\n  pop\n  dup2\n  mstore\n  0x20\n  add\n    /* \"contracts/VendingMachine.sol\":1306:1316  15 * 10**8 */\n  0x59682f00\n    /* \"contracts/VendingMachine.sol\":1292:1327  Product(\"B3\", 15 * 10**8, \"Sprite\") */\n  dup2\n  mstore\n  0x20\n  add\n  mload(0x40)\n  dup1\n  0x40\n  add\n  0x40\n  mstore\n  dup1\n  0x06\n  dup2\n  mstore\n  0x20\n  add\n  0x5370726974650000000000000000000000000000000000000000000000000000\n  dup2\n  mstore\n  pop\n  dup2\n  mstore\n  pop\n    /* \"contracts/VendingMachine.sol\":1278:1328  products.push(Product(\"B3\", 15 * 10**8, \"Sprite\")) */\n  swap1\n  dup1\n  0x01\n  dup2\n  sload\n  add\n  dup1\n  dup3\n  sstore\n  dup1\n  swap2\n  pop\n  pop\n  0x01\n  swap1\n  sub\n  swap1\n  0x00\n  mstore\n  keccak256(0x00, 0x20)\n  swap1\n  0x03\n  mul\n  add\n  0x00\n  swap1\n  swap2\n  swap1\n  swap2\n  swap1\n  swap2\n  pop\n  0x00\n  dup3\n  add\n  mload\n  dup2\n  0x00\n  add\n  swap1\n  dup2\n  tag_27\n  swap2\n  swap1\n  tag_6\n  jump\t// in\ntag_27:\n  pop\n  0x20\n  dup3\n  add\n  mload\n  dup2\n  0x01\n  add\n  sstore\n  0x40\n  dup3\n  add\n  mload\n  dup2\n  0x02\n  add\n  swap1\n  dup2\n  tag_28\n  swap2\n  swap1\n  tag_6\n  jump\t// in\ntag_28:\n  pop\n  pop\n  pop\n    /* \"contracts/VendingMachine.sol\":1338:1346  products */\n  0x01\n    /* \"contracts/VendingMachine.sol\":1352:1393  Product(\"B4\", 175 * 10**7, \"Granola Bar\") */\n  mload(0x40)\n  dup1\n  0x60\n  add\n  0x40\n  mstore\n  dup1\n  mload(0x40)\n  dup1\n  0x40\n  add\n  0x40\n  mstore\n  dup1\n  0x02\n  dup2\n  mstore\n  0x20\n  add\n  0x4234000000000000000000000000000000000000000000000000000000000000\n  dup2\n  mstore\n  pop\n  dup2\n  mstore\n  0x20\n  add\n    /* \"contracts/VendingMachine.sol\":1366:1377  175 * 10**7 */\n  0x684ee180\n    /* \"contracts/VendingMachine.sol\":1352:1393  Product(\"B4\", 175 * 10**7, \"Granola Bar\") */\n  dup2\n  mstore\n  0x20\n  add\n  mload(0x40)\n  dup1\n  0x40\n  add\n  0x40\n  mstore\n  dup1\n  0x0b\n  dup2\n  mstore\n  0x20\n  add\n  0x4772616e6f6c6120426172000000000000000000000000000000000000000000\n  dup2\n  mstore\n  pop\n  dup2\n  mstore\n  pop\n    /* \"contracts/VendingMachine.sol\":1338:1394  products.push(Product(\"B4\", 175 * 10**7, \"Granola Bar\")) */\n  swap1\n  dup1\n  0x01\n  dup2\n  sload\n  add\n  dup1\n  dup3\n  sstore\n  dup1\n  swap2\n  pop\n  pop\n  0x01\n  swap1\n  sub\n  swap1\n  0x00\n  mstore\n  keccak256(0x00, 0x20)\n  swap1\n  0x03\n  mul\n  add\n  0x00\n  swap1\n  swap2\n  swap1\n  swap2\n  swap1\n  swap2\n  pop\n  0x00\n  dup3\n  add\n  mload\n  dup2\n  0x00\n  add\n  swap1\n  dup2\n  tag_30\n  swap2\n  swap1\n  tag_6\n  jump\t// in\ntag_30:\n  pop\n  0x20\n  dup3\n  add\n  mload\n  dup2\n  0x01\n  add\n  sstore\n  0x40\n  dup3\n  add\n  mload\n  dup2\n  0x02\n  add\n  swap1\n  dup2\n  tag_31\n  swap2\n  swap1\n  tag_6\n  jump\t// in\ntag_31:\n  pop\n  pop\n  pop\n    /* \"contracts/VendingMachine.sol\":1404:1412  products */\n  0x01\n    /* \"contracts/VendingMachine.sol\":1418:1455  Product(\"B5\", 175 * 10**7, \"Doritos\") */\n  mload(0x40)\n  dup1\n  0x60\n  add\n  0x40\n  mstore\n  dup1\n  mload(0x40)\n  dup1\n  0x40\n  add\n  0x40\n  mstore\n  dup1\n  0x02\n  dup2\n  mstore\n  0x20\n  add\n  0x4235000000000000000000000000000000000000000000000000000000000000\n  dup2\n  mstore\n  pop\n  dup2\n  mstore\n  0x20\n  add\n    /* \"contracts/VendingMachine.sol\":1432:1443  175 * 10**7 */\n  0x684ee180\n    /* \"contracts/VendingMachine.sol\":1418:1455  Product(\"B5\", 175 * 10**7, \"Doritos\") */\n  dup2\n  mstore\n  0x20\n  add\n  mload(0x40)\n  dup1\n  0x40\n  add\n  0x40\n  mstore\n  dup1\n  0x07\n  dup2\n  mstore\n  0x20\n  add\n  0x446f7269746f7300000000000000000000000000000000000000000000000000\n  dup2\n  mstore\n  pop\n  dup2\n  mstore\n  pop\n    /* \"contracts/VendingMachine.sol\":1404:1456  products.push(Product(\"B5\", 175 * 10**7, \"Doritos\")) */\n  swap1\n  dup1\n  0x01\n  dup2\n  sload\n  add\n  dup1\n  dup3\n  sstore\n  dup1\n  swap2\n  pop\n  pop\n  0x01\n  swap1\n  sub\n  swap1\n  0x00\n  mstore\n  keccak256(0x00, 0x20)\n  swap1\n  0x03\n  mul\n  add\n  0x00\n  swap1\n  swap2\n  swap1\n  swap2\n  swap1\n  swap2\n  pop\n  0x00\n  dup3\n  add\n  mload\n  dup2\n  0x00\n  add\n  swap1\n  dup2\n  tag_33\n  swap2\n  swap1\n  tag_6\n  jump\t// in\ntag_33:\n  pop\n  0x20\n  dup3\n  add\n  mload\n  dup2\n  0x01\n  add\n  sstore\n  0x40\n  dup3\n  add\n  mload\n  dup2\n  0x02\n  add\n  swap1\n  dup2\n  tag_34\n  swap2\n  swap1\n  tag_6\n  jump\t// in\ntag_34:\n  pop\n  pop\n  pop\n    /* \"contracts/VendingMachine.sol\":1466:1474  products */\n  0x01\n    /* \"contracts/VendingMachine.sol\":1480:1520  Product(\"C1\", 15 * 10**8, \"Snicker Bar\") */\n  mload(0x40)\n  dup1\n  0x60\n  add\n  0x40\n  mstore\n  dup1\n  mload(0x40)\n  dup1\n  0x40\n  add\n  0x40\n  mstore\n  dup1\n  0x02\n  dup2\n  mstore\n  0x20\n  add\n  0x4331000000000000000000000000000000000000000000000000000000000000\n  dup2\n  mstore\n  pop\n  dup2\n  mstore\n  0x20\n  add\n    /* \"contracts/VendingMachine.sol\":1494:1504  15 * 10**8 */\n  0x59682f00\n    /* \"contracts/VendingMachine.sol\":1480:1520  Product(\"C1\", 15 * 10**8, \"Snicker Bar\") */\n  dup2\n  mstore\n  0x20\n  add\n  mload(0x40)\n  dup1\n  0x40\n  add\n  0x40\n  mstore\n  dup1\n  0x0b\n  dup2\n  mstore\n  0x20\n  add\n  0x536e69636b657220426172000000000000000000000000000000000000000000\n  dup2\n  mstore\n  pop\n  dup2\n  mstore\n  pop\n    /* \"contracts/VendingMachine.sol\":1466:1521  products.push(Product(\"C1\", 15 * 10**8, \"Snicker Bar\")) */\n  swap1\n  dup1\n  0x01\n  dup2\n  sload\n  add\n  dup1\n  dup3\n  sstore\n  dup1\n  swap2\n  pop\n  pop\n  0x01\n  swap1\n  sub\n  swap1\n  0x00\n  mstore\n  keccak256(0x00, 0x20)\n  swap1\n  0x03\n  mul\n  add\n  0x00\n  swap1\n  swap2\n  swap1\n  swap2\n  swap1\n  swap2\n  pop\n  0x00\n  dup3\n  add\n  mload\n  dup2\n  0x00\n  add\n  swap1\n  dup2\n  tag_36\n  swap2\n  swap1\n  tag_6\n  jump\t// in\ntag_36:\n  pop\n  0x20\n  dup3\n  add\n  mload\n  dup2\n  0x01\n  add\n  sstore\n  0x40\n  dup3\n  add\n  mload\n  dup2\n  0x02\n  add\n  swap1\n  dup2\n  tag_37\n  swap2\n  swap1\n  tag_6\n  jump\t// in\ntag_37:\n  pop\n  pop\n  pop\n    /* \"contracts/VendingMachine.sol\":1531:1539  products */\n  0x01\n    /* \"contracts/VendingMachine.sol\":1545:1578  Product(\"C2\", 15 * 10**8, \"M&Ms\") */\n  mload(0x40)\n  dup1\n  0x60\n  add\n  0x40\n  mstore\n  dup1\n  mload(0x40)\n  dup1\n  0x40\n  add\n  0x40\n  mstore\n  dup1\n  0x02\n  dup2\n  mstore\n  0x20\n  add\n  0x4332000000000000000000000000000000000000000000000000000000000000\n  dup2\n  mstore\n  pop\n  dup2\n  mstore\n  0x20\n  add\n    /* \"contracts/VendingMachine.sol\":1559:1569  15 * 10**8 */\n  0x59682f00\n    /* \"contracts/VendingMachine.sol\":1545:1578  Product(\"C2\", 15 * 10**8, \"M&Ms\") */\n  dup2\n  mstore\n  0x20\n  add\n  mload(0x40)\n  dup1\n  0x40\n  add\n  0x40\n  mstore\n  dup1\n  0x04\n  dup2\n  mstore\n  0x20\n  add\n  0x4d264d7300000000000000000000000000000000000000000000000000000000\n  dup2\n  mstore\n  pop\n  dup2\n  mstore\n  pop\n    /* \"contracts/VendingMachine.sol\":1531:1579  products.push(Product(\"C2\", 15 * 10**8, \"M&Ms\")) */\n  swap1\n  dup1\n  0x01\n  dup2\n  sload\n  add\n  dup1\n  dup3\n  sstore\n  dup1\n  swap2\n  pop\n  pop\n  0x01\n  swap1\n  sub\n  swap1\n  0x00\n  mstore\n  keccak256(0x00, 0x20)\n  swap1\n  0x03\n  mul\n  add\n  0x00\n  swap1\n  swap2\n  swap1\n  swap2\n  swap1\n  swap2\n  pop\n  0x00\n  dup3\n  add\n  mload\n  dup2\n  0x00\n  add\n  swap1\n  dup2\n  tag_39\n  swap2\n  swap1\n  tag_6\n  jump\t// in\ntag_39:\n  pop\n  0x20\n  dup3\n  add\n  mload\n  dup2\n  0x01\n  add\n  sstore\n  0x40\n  dup3\n  add\n  mload\n  dup2\n  0x02\n  add\n  swap1\n  dup2\n  tag_40\n  swap2\n  swap1\n  tag_6\n  jump\t// in\ntag_40:\n  pop\n  pop\n  pop\n    /* \"contracts/VendingMachine.sol\":1589:1597  products */\n  0x01\n    /* \"contracts/VendingMachine.sol\":1603:1647  Product(\"C3\", 125 * 10**7, \"Bubble Tap Gum\") */\n  mload(0x40)\n  dup1\n  0x60\n  add\n  0x40\n  mstore\n  dup1\n  mload(0x40)\n  dup1\n  0x40\n  add\n  0x40\n  mstore\n  dup1\n  0x02\n  dup2\n  mstore\n  0x20\n  add\n  0x4333000000000000000000000000000000000000000000000000000000000000\n  dup2\n  mstore\n  pop\n  dup2\n  mstore\n  0x20\n  add\n    /* \"contracts/VendingMachine.sol\":1617:1628  125 * 10**7 */\n  0x4a817c80\n    /* \"contracts/VendingMachine.sol\":1603:1647  Product(\"C3\", 125 * 10**7, \"Bubble Tap Gum\") */\n  dup2\n  mstore\n  0x20\n  add\n  mload(0x40)\n  dup1\n  0x40\n  add\n  0x40\n  mstore\n  dup1\n  0x0e\n  dup2\n  mstore\n  0x20\n  add\n  0x427562626c65205461702047756d000000000000000000000000000000000000\n  dup2\n  mstore\n  pop\n  dup2\n  mstore\n  pop\n    /* \"contracts/VendingMachine.sol\":1589:1648  products.push(Product(\"C3\", 125 * 10**7, \"Bubble Tap Gum\")) */\n  swap1\n  dup1\n  0x01\n  dup2\n  sload\n  add\n  dup1\n  dup3\n  sstore\n  dup1\n  swap2\n  pop\n  pop\n  0x01\n  swap1\n  sub\n  swap1\n  0x00\n  mstore\n  keccak256(0x00, 0x20)\n  swap1\n  0x03\n  mul\n  add\n  0x00\n  swap1\n  swap2\n  swap1\n  swap2\n  swap1\n  swap2\n  pop\n  0x00\n  dup3\n  add\n  mload\n  dup2\n  0x00\n  add\n  swap1\n  dup2\n  tag_42\n  swap2\n  swap1\n  tag_6\n  jump\t// in\ntag_42:\n  pop\n  0x20\n  dup3\n  add\n  mload\n  dup2\n  0x01\n  add\n  sstore\n  0x40\n  dup3\n  add\n  mload\n  dup2\n  0x02\n  add\n  swap1\n  dup2\n  tag_43\n  swap2\n  swap1\n  tag_6\n  jump\t// in\ntag_43:\n  pop\n  pop\n  pop\n    /* \"contracts/VendingMachine.sol\":1658:1666  products */\n  0x01\n    /* \"contracts/VendingMachine.sol\":1672:1715  Product(\"C4\", 175 * 10**7, \"Fruit Nut Bar\") */\n  mload(0x40)\n  dup1\n  0x60\n  add\n  0x40\n  mstore\n  dup1\n  mload(0x40)\n  dup1\n  0x40\n  add\n  0x40\n  mstore\n  dup1\n  0x02\n  dup2\n  mstore\n  0x20\n  add\n  0x4334000000000000000000000000000000000000000000000000000000000000\n  dup2\n  mstore\n  pop\n  dup2\n  mstore\n  0x20\n  add\n    /* \"contracts/VendingMachine.sol\":1686:1697  175 * 10**7 */\n  0x684ee180\n    /* \"contracts/VendingMachine.sol\":1672:1715  Product(\"C4\", 175 * 10**7, \"Fruit Nut Bar\") */\n  dup2\n  mstore\n  0x20\n  add\n  mload(0x40)\n  dup1\n  0x40\n  add\n  0x40\n  mstore\n  dup1\n  0x0d\n  dup2\n  mstore\n  0x20\n  add\n  0x4672756974204e75742042617200000000000000000000000000000000000000\n  dup2\n  mstore\n  pop\n  dup2\n  mstore\n  pop\n    /* \"contracts/VendingMachine.sol\":1658:1716  products.push(Product(\"C4\", 175 * 10**7, \"Fruit Nut Bar\")) */\n  swap1\n  dup1\n  0x01\n  dup2\n  sload\n  add\n  dup1\n  dup3\n  sstore\n  dup1\n  swap2\n  pop\n  pop\n  0x01\n  swap1\n  sub\n  swap1\n  0x00\n  mstore\n  keccak256(0x00, 0x20)\n  swap1\n  0x03\n  mul\n  add\n  0x00\n  swap1\n  swap2\n  swap1\n  swap2\n  swap1\n  swap2\n  pop\n  0x00\n  dup3\n  add\n  mload\n  dup2\n  0x00\n  add\n  swap1\n  dup2\n  tag_45\n  swap2\n  swap1\n  tag_6\n  jump\t// in\ntag_45:\n  pop\n  0x20\n  dup3\n  add\n  mload\n  dup2\n  0x01\n  add\n  sstore\n  0x40\n  dup3\n  add\n  mload\n  dup2\n  0x02\n  add\n  swap1\n  dup2\n  tag_46\n  swap2\n  swap1\n  tag_6\n  jump\t// in\ntag_46:\n  pop\n  pop\n  pop\n    /* \"contracts/VendingMachine.sol\":1726:1734  products */\n  0x01\n    /* \"contracts/VendingMachine.sol\":1740:1780  Product(\"C5\", 175 * 10**7, \"Beef Jerky\") */\n  mload(0x40)\n  dup1\n  0x60\n  add\n  0x40\n  mstore\n  dup1\n  mload(0x40)\n  dup1\n  0x40\n  add\n  0x40\n  mstore\n  dup1\n  0x02\n  dup2\n  mstore\n  0x20\n  add\n  0x4335000000000000000000000000000000000000000000000000000000000000\n  dup2\n  mstore\n  pop\n  dup2\n  mstore\n  0x20\n  add\n    /* \"contracts/VendingMachine.sol\":1754:1765  175 * 10**7 */\n  0x684ee180\n    /* \"contracts/VendingMachine.sol\":1740:1780  Product(\"C5\", 175 * 10**7, \"Beef Jerky\") */\n  dup2\n  mstore\n  0x20\n  add\n  mload(0x40)\n  dup1\n  0x40\n  add\n  0x40\n  mstore\n  dup1\n  0x0a\n  dup2\n  mstore\n  0x20\n  add\n  0x42656566204a65726b7900000000000000000000000000000000000000000000\n  dup2\n  mstore\n  pop\n  dup2\n  mstore\n  pop\n    /* \"contracts/VendingMachine.sol\":1726:1781  products.push(Product(\"C5\", 175 * 10**7, \"Beef Jerky\")) */\n  swap1\n  dup1\n  0x01\n  dup2\n  sload\n  add\n  dup1\n  dup3\n  sstore\n  dup1\n  swap2\n  pop\n  pop\n  0x01\n  swap1\n  sub\n  swap1\n  0x00\n  mstore\n  keccak256(0x00, 0x20)\n  swap1\n  0x03\n  mul\n  add\n  0x00\n  swap1\n  swap2\n  swap1\n  swap2\n  swap1\n  swap2\n  pop\n  0x00\n  dup3\n  add\n  mload\n  dup2\n  0x00\n  add\n  swap1\n  dup2\n  tag_48\n  swap2\n  swap1\n  tag_6\n  jump\t// in\ntag_48:\n  pop\n  0x20\n  dup3\n  add\n  mload\n  dup2\n  0x01\n  add\n  sstore\n  0x40\n  dup3\n  add\n  mload\n  dup2\n  0x02\n  add\n  swap1\n  dup2\n  tag_49\n  swap2\n  swap1\n  tag_6\n  jump\t// in\ntag_49:\n  pop\n  pop\n  pop\n    /* \"contracts/VendingMachine.sol\":1791:1799  products */\n  0x01\n    /* \"contracts/VendingMachine.sol\":1805:1849  Product(\"D1\", 125 * 10**7, \"KitKat Biscuit\") */\n  mload(0x40)\n  dup1\n  0x60\n  add\n  0x40\n  mstore\n  dup1\n  mload(0x40)\n  dup1\n  0x40\n  add\n  0x40\n  mstore\n  dup1\n  0x02\n  dup2\n  mstore\n  0x20\n  add\n  0x4431000000000000000000000000000000000000000000000000000000000000\n  dup2\n  mstore\n  pop\n  dup2\n  mstore\n  0x20\n  add\n    /* \"contracts/VendingMachine.sol\":1819:1830  125 * 10**7 */\n  0x4a817c80\n    /* \"contracts/VendingMachine.sol\":1805:1849  Product(\"D1\", 125 * 10**7, \"KitKat Biscuit\") */\n  dup2\n  mstore\n  0x20\n  add\n  mload(0x40)\n  dup1\n  0x40\n  add\n  0x40\n  mstore\n  dup1\n  0x0e\n  dup2\n  mstore\n  0x20\n  add\n  0x4b69744b61742042697363756974000000000000000000000000000000000000\n  dup2\n  mstore\n  pop\n  dup2\n  mstore\n  pop\n    /* \"contracts/VendingMachine.sol\":1791:1850  products.push(Product(\"D1\", 125 * 10**7, \"KitKat Biscuit\")) */\n  swap1\n  dup1\n  0x01\n  dup2\n  sload\n  add\n  dup1\n  dup3\n  sstore\n  dup1\n  swap2\n  pop\n  pop\n  0x01\n  swap1\n  sub\n  swap1\n  0x00\n  mstore\n  keccak256(0x00, 0x20)\n  swap1\n  0x03\n  mul\n  add\n  0x00\n  swap1\n  swap2\n  swap1\n  swap2\n  swap1\n  swap2\n  pop\n  0x00\n  dup3\n  add\n  mload\n  dup2\n  0x00\n  add\n  swap1\n  dup2\n  tag_51\n  swap2\n  swap1\n  tag_6\n  jump\t// in\ntag_51:\n  pop\n  0x20\n  dup3\n  add\n  mload\n  dup2\n  0x01\n  add\n  sstore\n  0x40\n  dup3\n  add\n  mload\n  dup2\n  0x02\n  add\n  swap1\n  dup2\n  tag_52\n  swap2\n  swap1\n  tag_6\n  jump\t// in\ntag_52:\n  pop\n  pop\n  pop\n    /* \"contracts/VendingMachine.sol\":1860:1868  products */\n  0x01\n    /* \"contracts/VendingMachine.sol\":1874:1912  Product(\"D2\", 125 * 10**7, \"Pop Corn\") */\n  mload(0x40)\n  dup1\n  0x60\n  add\n  0x40\n  mstore\n  dup1\n  mload(0x40)\n  dup1\n  0x40\n  add\n  0x40\n  mstore\n  dup1\n  0x02\n  dup2\n  mstore\n  0x20\n  add\n  0x4432000000000000000000000000000000000000000000000000000000000000\n  dup2\n  mstore\n  pop\n  dup2\n  mstore\n  0x20\n  add\n    /* \"contracts/VendingMachine.sol\":1888:1899  125 * 10**7 */\n  0x4a817c80\n    /* \"contracts/VendingMachine.sol\":1874:1912  Product(\"D2\", 125 * 10**7, \"Pop Corn\") */\n  dup2\n  mstore\n  0x20\n  add\n  mload(0x40)\n  dup1\n  0x40\n  add\n  0x40\n  mstore\n  dup1\n  0x08\n  dup2\n  mstore\n  0x20\n  add\n  0x506f7020436f726e000000000000000000000000000000000000000000000000\n  dup2\n  mstore\n  pop\n  dup2\n  mstore\n  pop\n    /* \"contracts/VendingMachine.sol\":1860:1913  products.push(Product(\"D2\", 125 * 10**7, \"Pop Corn\")) */\n  swap1\n  dup1\n  0x01\n  dup2\n  sload\n  add\n  dup1\n  dup3\n  sstore\n  dup1\n  swap2\n  pop\n  pop\n  0x01\n  swap1\n  sub\n  swap1\n  0x00\n  mstore\n  keccak256(0x00, 0x20)\n  swap1\n  0x03\n  mul\n  add\n  0x00\n  swap1\n  swap2\n  swap1\n  swap2\n  swap1\n  swap2\n  pop\n  0x00\n  dup3\n  add\n  mload\n  dup2\n  0x00\n  add\n  swap1\n  dup2\n  tag_54\n  swap2\n  swap1\n  tag_6\n  jump\t// in\ntag_54:\n  pop\n  0x20\n  dup3\n  add\n  mload\n  dup2\n  0x01\n  add\n  sstore\n  0x40\n  dup3\n  add\n  mload\n  dup2\n  0x02\n  add\n  swap1\n  dup2\n  tag_55\n  swap2\n  swap1\n  tag_6\n  jump\t// in\ntag_55:\n  pop\n  pop\n  pop\n    /* \"contracts/VendingMachine.sol\":1923:1931  products */\n  0x01\n    /* \"contracts/VendingMachine.sol\":1937:1975  Product(\"D3\", 150 * 10**7, \"Twix Bar\") */\n  mload(0x40)\n  dup1\n  0x60\n  add\n  0x40\n  mstore\n  dup1\n  mload(0x40)\n  dup1\n  0x40\n  add\n  0x40\n  mstore\n  dup1\n  0x02\n  dup2\n  mstore\n  0x20\n  add\n  0x4433000000000000000000000000000000000000000000000000000000000000\n  dup2\n  mstore\n  pop\n  dup2\n  mstore\n  0x20\n  add\n    /* \"contracts/VendingMachine.sol\":1951:1962  150 * 10**7 */\n  0x59682f00\n    /* \"contracts/VendingMachine.sol\":1937:1975  Product(\"D3\", 150 * 10**7, \"Twix Bar\") */\n  dup2\n  mstore\n  0x20\n  add\n  mload(0x40)\n  dup1\n  0x40\n  add\n  0x40\n  mstore\n  dup1\n  0x08\n  dup2\n  mstore\n  0x20\n  add\n  0x5477697820426172000000000000000000000000000000000000000000000000\n  dup2\n  mstore\n  pop\n  dup2\n  mstore\n  pop\n    /* \"contracts/VendingMachine.sol\":1923:1976  products.push(Product(\"D3\", 150 * 10**7, \"Twix Bar\")) */\n  swap1\n  dup1\n  0x01\n  dup2\n  sload\n  add\n  dup1\n  dup3\n  sstore\n  dup1\n  swap2\n  pop\n  pop\n  0x01\n  swap1\n  sub\n  swap1\n  0x00\n  mstore\n  keccak256(0x00, 0x20)\n  swap1\n  0x03\n  mul\n  add\n  0x00\n  swap1\n  swap2\n  swap1\n  swap2\n  swap1\n  swap2\n  pop\n  0x00\n  dup3\n  add\n  mload\n  dup2\n  0x00\n  add\n  swap1\n  dup2\n  tag_57\n  swap2\n  swap1\n  tag_6\n  jump\t// in\ntag_57:\n  pop\n  0x20\n  dup3\n  add\n  mload\n  dup2\n  0x01\n  add\n  sstore\n  0x40\n  dup3\n  add\n  mload\n  dup2\n  0x02\n  add\n  swap1\n  dup2\n  tag_58\n  swap2\n  swap1\n  tag_6\n  jump\t// in\ntag_58:\n  pop\n  pop\n  pop\n    /* \"contracts/VendingMachine.sol\":1986:1994  products */\n  0x01\n    /* \"contracts/VendingMachine.sol\":2000:2035  Product(\"D4\", 125 * 10**7, \"Donut\") */\n  mload(0x40)\n  dup1\n  0x60\n  add\n  0x40\n  mstore\n  dup1\n  mload(0x40)\n  dup1\n  0x40\n  add\n  0x40\n  mstore\n  dup1\n  0x02\n  dup2\n  mstore\n  0x20\n  add\n  0x4434000000000000000000000000000000000000000000000000000000000000\n  dup2\n  mstore\n  pop\n  dup2\n  mstore\n  0x20\n  add\n    /* \"contracts/VendingMachine.sol\":2014:2025  125 * 10**7 */\n  0x4a817c80\n    /* \"contracts/VendingMachine.sol\":2000:2035  Product(\"D4\", 125 * 10**7, \"Donut\") */\n  dup2\n  mstore\n  0x20\n  add\n  mload(0x40)\n  dup1\n  0x40\n  add\n  0x40\n  mstore\n  dup1\n  0x05\n  dup2\n  mstore\n  0x20\n  add\n  0x446f6e7574000000000000000000000000000000000000000000000000000000\n  dup2\n  mstore\n  pop\n  dup2\n  mstore\n  pop\n    /* \"contracts/VendingMachine.sol\":1986:2036  products.push(Product(\"D4\", 125 * 10**7, \"Donut\")) */\n  swap1\n  dup1\n  0x01\n  dup2\n  sload\n  add\n  dup1\n  dup3\n  sstore\n  dup1\n  swap2\n  pop\n  pop\n  0x01\n  swap1\n  sub\n  swap1\n  0x00\n  mstore\n  keccak256(0x00, 0x20)\n  swap1\n  0x03\n  mul\n  add\n  0x00\n  swap1\n  swap2\n  swap1\n  swap2\n  swap1\n  swap2\n  pop\n  0x00\n  dup3\n  add\n  mload\n  dup2\n  0x00\n  add\n  swap1\n  dup2\n  tag_60\n  swap2\n  swap1\n  tag_6\n  jump\t// in\ntag_60:\n  pop\n  0x20\n  dup3\n  add\n  mload\n  dup2\n  0x01\n  add\n  sstore\n  0x40\n  dup3\n  add\n  mload\n  dup2\n  0x02\n  add\n  swap1\n  dup2\n  tag_61\n  swap2\n  swap1\n  tag_6\n  jump\t// in\ntag_61:\n  pop\n  pop\n  pop\n    /* \"contracts/VendingMachine.sol\":2046:2054  products */\n  0x01\n    /* \"contracts/VendingMachine.sol\":2060:2099  Product(\"D5\", 125 * 10**7, \"Red Apple\") */\n  mload(0x40)\n  dup1\n  0x60\n  add\n  0x40\n  mstore\n  dup1\n  mload(0x40)\n  dup1\n  0x40\n  add\n  0x40\n  mstore\n  dup1\n  0x02\n  dup2\n  mstore\n  0x20\n  add\n  0x4435000000000000000000000000000000000000000000000000000000000000\n  dup2\n  mstore\n  pop\n  dup2\n  mstore\n  0x20\n  add\n    /* \"contracts/VendingMachine.sol\":2074:2085  125 * 10**7 */\n  0x4a817c80\n    /* \"contracts/VendingMachine.sol\":2060:2099  Product(\"D5\", 125 * 10**7, \"Red Apple\") */\n  dup2\n  mstore\n  0x20\n  add\n  mload(0x40)\n  dup1\n  0x40\n  add\n  0x40\n  mstore\n  dup1\n  0x09\n  dup2\n  mstore\n  0x20\n  add\n  0x526564204170706c650000000000000000000000000000000000000000000000\n  dup2\n  mstore\n  pop\n  dup2\n  mstore\n  pop\n    /* \"contracts/VendingMachine.sol\":2046:2100  products.push(Product(\"D5\", 125 * 10**7, \"Red Apple\")) */\n  swap1\n  dup1\n  0x01\n  dup2\n  sload\n  add\n  dup1\n  dup3\n  sstore\n  dup1\n  swap2\n  pop\n  pop\n  0x01\n  swap1\n  sub\n  swap1\n  0x00\n  mstore\n  keccak256(0x00, 0x20)\n  swap1\n  0x03\n  mul\n  add\n  0x00\n  swap1\n  swap2\n  swap1\n  swap2\n  swap1\n  swap2\n  pop\n  0x00\n  dup3\n  add\n  mload\n  dup2\n  0x00\n  add\n  swap1\n  dup2\n  tag_63\n  swap2\n  swap1\n  tag_6\n  jump\t// in\ntag_63:\n  pop\n  0x20\n  dup3\n  add\n  mload\n  dup2\n  0x01\n  add\n  sstore\n  0x40\n  dup3\n  add\n  mload\n  dup2\n  0x02\n  add\n  swap1\n  dup2\n  tag_64\n  swap2\n  swap1\n  tag_6\n  jump\t// in\ntag_64:\n  pop\n  pop\n  pop\n    /* \"contracts/VendingMachine.sol\":58:5829  contract VendingMachine {... */\n  jump(tag_65)\n    /* \"#utility.yul\":7:106   */\ntag_66:\n    /* \"#utility.yul\":59:65   */\n  0x00\n    /* \"#utility.yul\":93:98   */\n  dup2\n    /* \"#utility.yul\":87:99   */\n  mload\n    /* \"#utility.yul\":77:99   */\n  swap1\n  pop\n    /* \"#utility.yul\":7:106   */\n  swap2\n  swap1\n  pop\n  jump\t// out\n    /* \"#utility.yul\":112:292   */\ntag_67:\n    /* \"#utility.yul\":160:237   */\n  0x4e487b7100000000000000000000000000000000000000000000000000000000\n    /* \"#utility.yul\":157:158   */\n  0x00\n    /* \"#utility.yul\":150:238   */\n  mstore\n    /* \"#utility.yul\":257:261   */\n  0x41\n    /* \"#utility.yul\":254:255   */\n  0x04\n    /* \"#utility.yul\":247:262   */\n  mstore\n    /* \"#utility.yul\":281:285   */\n  0x24\n    /* \"#utility.yul\":278:279   */\n  0x00\n    /* \"#utility.yul\":271:286   */\n  revert\n    /* \"#utility.yul\":298:478   */\ntag_68:\n    /* \"#utility.yul\":346:423   */\n  0x4e487b7100000000000000000000000000000000000000000000000000000000\n    /* \"#utility.yul\":343:344   */\n  0x00\n    /* \"#utility.yul\":336:424   */\n  mstore\n    /* \"#utility.yul\":443:447   */\n  0x22\n    /* \"#utility.yul\":440:441   */\n  0x04\n    /* \"#utility.yul\":433:448   */\n  mstore\n    /* \"#utility.yul\":467:471   */\n  0x24\n    /* \"#utility.yul\":464:465   */\n  0x00\n    /* \"#utility.yul\":457:472   */\n  revert\n    /* \"#utility.yul\":484:804   */\ntag_69:\n    /* \"#utility.yul\":528:534   */\n  0x00\n    /* \"#utility.yul\":565:566   */\n  0x02\n    /* \"#utility.yul\":559:563   */\n  dup3\n    /* \"#utility.yul\":555:567   */\n  div\n    /* \"#utility.yul\":545:567   */\n  swap1\n  pop\n    /* \"#utility.yul\":612:613   */\n  0x01\n    /* \"#utility.yul\":606:610   */\n  dup3\n    /* \"#utility.yul\":602:614   */\n  and\n    /* \"#utility.yul\":633:651   */\n  dup1\n    /* \"#utility.yul\":623:704   */\n  tag_91\n  jumpi\n    /* \"#utility.yul\":689:693   */\n  0x7f\n    /* \"#utility.yul\":681:687   */\n  dup3\n    /* \"#utility.yul\":677:694   */\n  and\n    /* \"#utility.yul\":667:694   */\n  swap2\n  pop\n    /* \"#utility.yul\":623:704   */\ntag_91:\n    /* \"#utility.yul\":751:753   */\n  0x20\n    /* \"#utility.yul\":743:749   */\n  dup3\n    /* \"#utility.yul\":740:754   */\n  lt\n    /* \"#utility.yul\":720:738   */\n  dup2\n    /* \"#utility.yul\":717:755   */\n  sub\n    /* \"#utility.yul\":714:798   */\n  tag_92\n  jumpi\n    /* \"#utility.yul\":770:788   */\n  tag_93\n  tag_68\n  jump\t// in\ntag_93:\n    /* \"#utility.yul\":714:798   */\ntag_92:\n    /* \"#utility.yul\":535:804   */\n  pop\n    /* \"#utility.yul\":484:804   */\n  swap2\n  swap1\n  pop\n  jump\t// out\n    /* \"#utility.yul\":810:951   */\ntag_70:\n    /* \"#utility.yul\":859:863   */\n  0x00\n    /* \"#utility.yul\":882:885   */\n  dup2\n    /* \"#utility.yul\":874:885   */\n  swap1\n  pop\n    /* \"#utility.yul\":905:908   */\n  dup2\n    /* \"#utility.yul\":902:903   */\n  0x00\n    /* \"#utility.yul\":895:909   */\n  mstore\n    /* \"#utility.yul\":939:943   */\n  0x20\n    /* \"#utility.yul\":936:937   */\n  0x00\n    /* \"#utility.yul\":926:944   */\n  keccak256\n    /* \"#utility.yul\":918:944   */\n  swap1\n  pop\n    /* \"#utility.yul\":810:951   */\n  swap2\n  swap1\n  pop\n  jump\t// out\n    /* \"#utility.yul\":957:1050   */\ntag_71:\n    /* \"#utility.yul\":994:1000   */\n  0x00\n    /* \"#utility.yul\":1041:1043   */\n  0x20\n    /* \"#utility.yul\":1036:1038   */\n  0x1f\n    /* \"#utility.yul\":1029:1034   */\n  dup4\n    /* \"#utility.yul\":1025:1039   */\n  add\n    /* \"#utility.yul\":1021:1044   */\n  div\n    /* \"#utility.yul\":1011:1044   */\n  swap1\n  pop\n    /* \"#utility.yul\":957:1050   */\n  swap2\n  swap1\n  pop\n  jump\t// out\n    /* \"#utility.yul\":1056:1163   */\ntag_72:\n    /* \"#utility.yul\":1100:1108   */\n  0x00\n    /* \"#utility.yul\":1150:1155   */\n  dup3\n    /* \"#utility.yul\":1144:1148   */\n  dup3\n    /* \"#utility.yul\":1140:1156   */\n  shl\n    /* \"#utility.yul\":1119:1156   */\n  swap1\n  pop\n    /* \"#utility.yul\":1056:1163   */\n  swap3\n  swap2\n  pop\n  pop\n  jump\t// out\n    /* \"#utility.yul\":1169:1562   */\ntag_73:\n    /* \"#utility.yul\":1238:1244   */\n  0x00\n    /* \"#utility.yul\":1288:1289   */\n  0x08\n    /* \"#utility.yul\":1276:1286   */\n  dup4\n    /* \"#utility.yul\":1272:1290   */\n  mul\n    /* \"#utility.yul\":1311:1408   */\n  tag_98\n    /* \"#utility.yul\":1341:1407   */\n  0xffffffffffffffffffffffffffffffffffffffffffffffffffffffffffffffff\n    /* \"#utility.yul\":1330:1339   */\n  dup3\n    /* \"#utility.yul\":1311:1408   */\n  tag_72\n  jump\t// in\ntag_98:\n    /* \"#utility.yul\":1429:1468   */\n  tag_99\n    /* \"#utility.yul\":1459:1467   */\n  dup7\n    /* \"#utility.yul\":1448:1457   */\n  dup4\n    /* \"#utility.yul\":1429:1468   */\n  tag_72\n  jump\t// in\ntag_99:\n    /* \"#utility.yul\":1417:1468   */\n  swap6\n  pop\n    /* \"#utility.yul\":1501:1505   */\n  dup1\n    /* \"#utility.yul\":1497:1506   */\n  not\n    /* \"#utility.yul\":1490:1495   */\n  dup5\n    /* \"#utility.yul\":1486:1507   */\n  and\n    /* \"#utility.yul\":1477:1507   */\n  swap4\n  pop\n    /* \"#utility.yul\":1550:1554   */\n  dup1\n    /* \"#utility.yul\":1540:1548   */\n  dup7\n    /* \"#utility.yul\":1536:1555   */\n  and\n    /* \"#utility.yul\":1529:1534   */\n  dup5\n    /* \"#utility.yul\":1526:1556   */\n  or\n    /* \"#utility.yul\":1516:1556   */\n  swap3\n  pop\n    /* \"#utility.yul\":1245:1562   */\n  pop\n  pop\n    /* \"#utility.yul\":1169:1562   */\n  swap4\n  swap3\n  pop\n  pop\n  pop\n  jump\t// out\n    /* \"#utility.yul\":1568:1645   */\ntag_74:\n    /* \"#utility.yul\":1605:1612   */\n  0x00\n    /* \"#utility.yul\":1634:1639   */\n  dup2\n    /* \"#utility.yul\":1623:1639   */\n  swap1\n  pop\n    /* \"#utility.yul\":1568:1645   */\n  swap2\n  swap1\n  pop\n  jump\t// out\n    /* \"#utility.yul\":1651:1711   */\ntag_75:\n    /* \"#utility.yul\":1679:1682   */\n  0x00\n    /* \"#utility.yul\":1700:1705   */\n  dup2\n    /* \"#utility.yul\":1693:1705   */\n  swap1\n  pop\n    /* \"#utility.yul\":1651:1711   */\n  swap2\n  swap1\n  pop\n  jump\t// out\n    /* \"#utility.yul\":1717:1859   */\ntag_76:\n    /* \"#utility.yul\":1767:1776   */\n  0x00\n    /* \"#utility.yul\":1800:1853   */\n  tag_103\n    /* \"#utility.yul\":1818:1852   */\n  tag_104\n    /* \"#utility.yul\":1827:1851   */\n  tag_105\n    /* \"#utility.yul\":1845:1850   */\n  dup5\n    /* \"#utility.yul\":1827:1851   */\n  tag_74\n  jump\t// in\ntag_105:\n    /* \"#utility.yul\":1818:1852   */\n  tag_75\n  jump\t// in\ntag_104:\n    /* \"#utility.yul\":1800:1853   */\n  tag_74\n  jump\t// in\ntag_103:\n    /* \"#utility.yul\":1787:1853   */\n  swap1\n  pop\n    /* \"#utility.yul\":1717:1859   */\n  swap2\n  swap1\n  pop\n  jump\t// out\n    /* \"#utility.yul\":1865:1940   */\ntag_77:\n    /* \"#utility.yul\":1908:1911   */\n  0x00\n    /* \"#utility.yul\":1929:1934   */\n  dup2\n    /* \"#utility.yul\":1922:1934   */\n  swap1\n  pop\n    /* \"#utility.yul\":1865:1940   */\n  swap2\n  swap1\n  pop\n  jump\t// out\n    /* \"#utility.yul\":1946:2215   */\ntag_78:\n    /* \"#utility.yul\":2056:2095   */\n  tag_108\n    /* \"#utility.yul\":2087:2094   */\n  dup4\n    /* \"#utility.yul\":2056:2095   */\n  tag_76\n  jump\t// in\ntag_108:\n    /* \"#utility.yul\":2117:2208   */\n  tag_109\n    /* \"#utility.yul\":2166:2207   */\n  tag_110\n    /* \"#utility.yul\":2190:2206   */\n  dup3\n    /* \"#utility.yul\":2166:2207   */\n  tag_77\n  jump\t// in\ntag_110:\n    /* \"#utility.yul\":2158:2164   */\n  dup5\n    /* \"#utility.yul\":2151:2155   */\n  dup5\n    /* \"#utility.yul\":2145:2156   */\n  sload\n    /* \"#utility.yul\":2117:2208   */\n  tag_73\n  jump\t// in\ntag_109:\n    /* \"#utility.yul\":2111:2115   */\n  dup3\n    /* \"#utility.yul\":2104:2209   */\n  sstore\n    /* \"#utility.yul\":2022:2215   */\n  pop\n    /* \"#utility.yul\":1946:2215   */\n  pop\n  pop\n  pop\n  jump\t// out\n    /* \"#utility.yul\":2221:2294   */\ntag_79:\n    /* \"#utility.yul\":2266:2269   */\n  0x00\n    /* \"#utility.yul\":2221:2294   */\n  swap1\n  jump\t// out\n    /* \"#utility.yul\":2300:2489   */\ntag_80:\n    /* \"#utility.yul\":2377:2409   */\n  tag_113\n  tag_79\n  jump\t// in\ntag_113:\n    /* \"#utility.yul\":2418:2483   */\n  tag_114\n    /* \"#utility.yul\":2476:2482   */\n  dup2\n    /* \"#utility.yul\":2468:2474   */\n  dup5\n    /* \"#utility.yul\":2462:2466   */\n  dup5\n    /* \"#utility.yul\":2418:2483   */\n  tag_78\n  jump\t// in\ntag_114:\n    /* \"#utility.yul\":2353:2489   */\n  pop\n    /* \"#utility.yul\":2300:2489   */\n  pop\n  pop\n  jump\t// out\n    /* \"#utility.yul\":2495:2681   */\ntag_81:\n    /* \"#utility.yul\":2555:2675   */\ntag_116:\n    /* \"#utility.yul\":2572:2575   */\n  dup2\n    /* \"#utility.yul\":2565:2570   */\n  dup2\n    /* \"#utility.yul\":2562:2576   */\n  lt\n    /* \"#utility.yul\":2555:2675   */\n  iszero\n  tag_118\n  jumpi\n    /* \"#utility.yul\":2626:2665   */\n  tag_119\n    /* \"#utility.yul\":2663:2664   */\n  0x00\n    /* \"#utility.yul\":2656:2661   */\n  dup3\n    /* \"#utility.yul\":2626:2665   */\n  tag_80\n  jump\t// in\ntag_119:\n    /* \"#utility.yul\":2599:2600   */\n  0x01\n    /* \"#utility.yul\":2592:2597   */\n  dup2\n    /* \"#utility.yul\":2588:2601   */\n  add\n    /* \"#utility.yul\":2579:2601   */\n  swap1\n  pop\n    /* \"#utility.yul\":2555:2675   */\n  jump(tag_116)\ntag_118:\n    /* \"#utility.yul\":2495:2681   */\n  pop\n  pop\n  jump\t// out\n    /* \"#utility.yul\":2687:3230   */\ntag_82:\n    /* \"#utility.yul\":2788:2790   */\n  0x1f\n    /* \"#utility.yul\":2783:2786   */\n  dup3\n    /* \"#utility.yul\":2780:2791   */\n  gt\n    /* \"#utility.yul\":2777:3223   */\n  iszero\n  tag_121\n  jumpi\n    /* \"#utility.yul\":2822:2860   */\n  tag_122\n    /* \"#utility.yul\":2854:2859   */\n  dup2\n    /* \"#utility.yul\":2822:2860   */\n  tag_70\n  jump\t// in\ntag_122:\n    /* \"#utility.yul\":2906:2935   */\n  tag_123\n    /* \"#utility.yul\":2924:2934   */\n  dup5\n    /* \"#utility.yul\":2906:2935   */\n  tag_71\n  jump\t// in\ntag_123:\n    /* \"#utility.yul\":2896:2904   */\n  dup2\n    /* \"#utility.yul\":2892:2936   */\n  add\n    /* \"#utility.yul\":3089:3091   */\n  0x20\n    /* \"#utility.yul\":3077:3087   */\n  dup6\n    /* \"#utility.yul\":3074:3092   */\n  lt\n    /* \"#utility.yul\":3071:3120   */\n  iszero\n  tag_124\n  jumpi\n    /* \"#utility.yul\":3110:3118   */\n  dup2\n    /* \"#utility.yul\":3095:3118   */\n  swap1\n  pop\n    /* \"#utility.yul\":3071:3120   */\ntag_124:\n    /* \"#utility.yul\":3133:3213   */\n  tag_125\n    /* \"#utility.yul\":3189:3211   */\n  tag_126\n    /* \"#utility.yul\":3207:3210   */\n  dup6\n    /* \"#utility.yul\":3189:3211   */\n  tag_71\n  jump\t// in\ntag_126:\n    /* \"#utility.yul\":3179:3187   */\n  dup4\n    /* \"#utility.yul\":3175:3212   */\n  add\n    /* \"#utility.yul\":3162:3173   */\n  dup3\n    /* \"#utility.yul\":3133:3213   */\n  tag_81\n  jump\t// in\ntag_125:\n    /* \"#utility.yul\":2792:3223   */\n  pop\n  pop\n    /* \"#utility.yul\":2777:3223   */\ntag_121:\n    /* \"#utility.yul\":2687:3230   */\n  pop\n  pop\n  pop\n  jump\t// out\n    /* \"#utility.yul\":3236:3353   */\ntag_83:\n    /* \"#utility.yul\":3290:3298   */\n  0x00\n    /* \"#utility.yul\":3340:3345   */\n  dup3\n    /* \"#utility.yul\":3334:3338   */\n  dup3\n    /* \"#utility.yul\":3330:3346   */\n  shr\n    /* \"#utility.yul\":3309:3346   */\n  swap1\n  pop\n    /* \"#utility.yul\":3236:3353   */\n  swap3\n  swap2\n  pop\n  pop\n  jump\t// out\n    /* \"#utility.yul\":3359:3528   */\ntag_84:\n    /* \"#utility.yul\":3403:3409   */\n  0x00\n    /* \"#utility.yul\":3436:3487   */\n  tag_129\n    /* \"#utility.yul\":3484:3485   */\n  0x00\n    /* \"#utility.yul\":3480:3486   */\n  not\n    /* \"#utility.yul\":3472:3477   */\n  dup5\n    /* \"#utility.yul\":3469:3470   */\n  0x08\n    /* \"#utility.yul\":3465:3478   */\n  mul\n    /* \"#utility.yul\":3436:3487   */\n  tag_83\n  jump\t// in\ntag_129:\n    /* \"#utility.yul\":3432:3488   */\n  not\n    /* \"#utility.yul\":3517:3521   */\n  dup1\n    /* \"#utility.yul\":3511:3515   */\n  dup4\n    /* \"#utility.yul\":3507:3522   */\n  and\n    /* \"#utility.yul\":3497:3522   */\n  swap2\n  pop\n    /* \"#utility.yul\":3410:3528   */\n  pop\n    /* \"#utility.yul\":3359:3528   */\n  swap3\n  swap2\n  pop\n  pop\n  jump\t// out\n    /* \"#utility.yul\":3533:3828   */\ntag_85:\n    /* \"#utility.yul\":3609:3613   */\n  0x00\n    /* \"#utility.yul\":3755:3784   */\n  tag_131\n    /* \"#utility.yul\":3780:3783   */\n  dup4\n    /* \"#utility.yul\":3774:3778   */\n  dup4\n    /* \"#utility.yul\":3755:3784   */\n  tag_84\n  jump\t// in\ntag_131:\n    /* \"#utility.yul\":3747:3784   */\n  swap2\n  pop\n    /* \"#utility.yul\":3817:3820   */\n  dup3\n    /* \"#utility.yul\":3814:3815   */\n  0x02\n    /* \"#utility.yul\":3810:3821   */\n  mul\n    /* \"#utility.yul\":3804:3808   */\n  dup3\n    /* \"#utility.yul\":3801:3822   */\n  or\n    /* \"#utility.yul\":3793:3822   */\n  swap1\n  pop\n    /* \"#utility.yul\":3533:3828   */\n  swap3\n  swap2\n  pop\n  pop\n  jump\t// out\n    /* \"#utility.yul\":3833:5228   */\ntag_6:\n    /* \"#utility.yul\":3950:3987   */\n  tag_133\n    /* \"#utility.yul\":3983:3986   */\n  dup3\n    /* \"#utility.yul\":3950:3987   */\n  tag_66\n  jump\t// in\ntag_133:\n    /* \"#utility.yul\":4052:4070   */\n  0xffffffffffffffff\n    /* \"#utility.yul\":4044:4050   */\n  dup2\n    /* \"#utility.yul\":4041:4071   */\n  gt\n    /* \"#utility.yul\":4038:4094   */\n  iszero\n  tag_134\n  jumpi\n    /* \"#utility.yul\":4074:4092   */\n  tag_135\n  tag_67\n  jump\t// in\ntag_135:\n    /* \"#utility.yul\":4038:4094   */\ntag_134:\n    /* \"#utility.yul\":4118:4156   */\n  tag_136\n    /* \"#utility.yul\":4150:4154   */\n  dup3\n    /* \"#utility.yul\":4144:4155   */\n  sload\n    /* \"#utility.yul\":4118:4156   */\n  tag_69\n  jump\t// in\ntag_136:\n    /* \"#utility.yul\":4203:4270   */\n  tag_137\n    /* \"#utility.yul\":4263:4269   */\n  dup3\n    /* \"#utility.yul\":4255:4261   */\n  dup3\n    /* \"#utility.yul\":4249:4253   */\n  dup6\n    /* \"#utility.yul\":4203:4270   */\n  tag_82\n  jump\t// in\ntag_137:\n    /* \"#utility.yul\":4297:4298   */\n  0x00\n    /* \"#utility.yul\":4321:4325   */\n  0x20\n    /* \"#utility.yul\":4308:4325   */\n  swap1\n  pop\n    /* \"#utility.yul\":4353:4355   */\n  0x1f\n    /* \"#utility.yul\":4345:4351   */\n  dup4\n    /* \"#utility.yul\":4342:4356   */\n  gt\n    /* \"#utility.yul\":4370:4371   */\n  0x01\n    /* \"#utility.yul\":4365:4983   */\n  dup2\n  eq\n  tag_139\n  jumpi\n    /* \"#utility.yul\":5027:5028   */\n  0x00\n    /* \"#utility.yul\":5044:5050   */\n  dup5\n    /* \"#utility.yul\":5041:5118   */\n  iszero\n  tag_140\n  jumpi\n    /* \"#utility.yul\":5093:5102   */\n  dup3\n    /* \"#utility.yul\":5088:5091   */\n  dup8\n    /* \"#utility.yul\":5084:5103   */\n  add\n    /* \"#utility.yul\":5078:5104   */\n  mload\n    /* \"#utility.yul\":5069:5104   */\n  swap1\n  pop\n    /* \"#utility.yul\":5041:5118   */\ntag_140:\n    /* \"#utility.yul\":5144:5211   */\n  tag_141\n    /* \"#utility.yul\":5204:5210   */\n  dup6\n    /* \"#utility.yul\":5197:5202   */\n  dup3\n    /* \"#utility.yul\":5144:5211   */\n  tag_85\n  jump\t// in\ntag_141:\n    /* \"#utility.yul\":5138:5142   */\n  dup7\n    /* \"#utility.yul\":5131:5212   */\n  sstore\n    /* \"#utility.yul\":5000:5222   */\n  pop\n    /* \"#utility.yul\":4335:5222   */\n  jump(tag_138)\n    /* \"#utility.yul\":4365:4983   */\ntag_139:\n    /* \"#utility.yul\":4417:4421   */\n  0x1f\n    /* \"#utility.yul\":4413:4422   */\n  not\n    /* \"#utility.yul\":4405:4411   */\n  dup5\n    /* \"#utility.yul\":4401:4423   */\n  and\n    /* \"#utility.yul\":4451:4488   */\n  tag_142\n    /* \"#utility.yul\":4483:4487   */\n  dup7\n    /* \"#utility.yul\":4451:4488   */\n  tag_70\n  jump\t// in\ntag_142:\n    /* \"#utility.yul\":4510:4511   */\n  0x00\n    /* \"#utility.yul\":4524:4732   */\ntag_143:\n    /* \"#utility.yul\":4538:4545   */\n  dup3\n    /* \"#utility.yul\":4535:4536   */\n  dup2\n    /* \"#utility.yul\":4532:4546   */\n  lt\n    /* \"#utility.yul\":4524:4732   */\n  iszero\n  tag_145\n  jumpi\n    /* \"#utility.yul\":4617:4626   */\n  dup5\n    /* \"#utility.yul\":4612:4615   */\n  dup10\n    /* \"#utility.yul\":4608:4627   */\n  add\n    /* \"#utility.yul\":4602:4628   */\n  mload\n    /* \"#utility.yul\":4594:4600   */\n  dup3\n    /* \"#utility.yul\":4587:4629   */\n  sstore\n    /* \"#utility.yul\":4668:4669   */\n  0x01\n    /* \"#utility.yul\":4660:4666   */\n  dup3\n    /* \"#utility.yul\":4656:4670   */\n  add\n    /* \"#utility.yul\":4646:4670   */\n  swap2\n  pop\n    /* \"#utility.yul\":4715:4717   */\n  0x20\n    /* \"#utility.yul\":4704:4713   */\n  dup6\n    /* \"#utility.yul\":4700:4718   */\n  add\n    /* \"#utility.yul\":4687:4718   */\n  swap5\n  pop\n    /* \"#utility.yul\":4561:4565   */\n  0x20\n    /* \"#utility.yul\":4558:4559   */\n  dup2\n    /* \"#utility.yul\":4554:4566   */\n  add\n    /* \"#utility.yul\":4549:4566   */\n  swap1\n  pop\n    /* \"#utility.yul\":4524:4732   */\n  jump(tag_143)\ntag_145:\n    /* \"#utility.yul\":4760:4766   */\n  dup7\n    /* \"#utility.yul\":4751:4758   */\n  dup4\n    /* \"#utility.yul\":4748:4767   */\n  lt\n    /* \"#utility.yul\":4745:4924   */\n  iszero\n  tag_146\n  jumpi\n    /* \"#utility.yul\":4818:4827   */\n  dup5\n    /* \"#utility.yul\":4813:4816   */\n  dup10\n    /* \"#utility.yul\":4809:4828   */\n  add\n    /* \"#utility.yul\":4803:4829   */\n  mload\n    /* \"#utility.yul\":4861:4909   */\n  tag_147\n    /* \"#utility.yul\":4903:4907   */\n  0x1f\n    /* \"#utility.yul\":4895:4901   */\n  dup10\n    /* \"#utility.yul\":4891:4908   */\n  and\n    /* \"#utility.yul\":4880:4889   */\n  dup3\n    /* \"#utility.yul\":4861:4909   */\n  tag_84\n  jump\t// in\ntag_147:\n    /* \"#utility.yul\":4853:4859   */\n  dup4\n    /* \"#utility.yul\":4846:4910   */\n  sstore\n    /* \"#utility.yul\":4768:4924   */\n  pop\n    /* \"#utility.yul\":4745:4924   */\ntag_146:\n    /* \"#utility.yul\":4970:4971   */\n  0x01\n    /* \"#utility.yul\":4966:4967   */\n  0x02\n    /* \"#utility.yul\":4958:4964   */\n  dup9\n    /* \"#utility.yul\":4954:4968   */\n  mul\n    /* \"#utility.yul\":4950:4972   */\n  add\n    /* \"#utility.yul\":4944:4948   */\n  dup9\n    /* \"#utility.yul\":4937:4973   */\n  sstore\n    /* \"#utility.yul\":4372:4983   */\n  pop\n  pop\n  pop\n    /* \"#utility.yul\":4335:5222   */\ntag_138:\n  pop\n    /* \"#utility.yul\":3925:5228   */\n  pop\n  pop\n  pop\n    /* \"#utility.yul\":3833:5228   */\n  pop\n  pop\n  jump\t// out\n    /* \"contracts/VendingMachine.sol\":58:5829  contract VendingMachine {... */\ntag_65:\n  dataSize(sub_0)\n  dup1\n  dataOffset(sub_0)\n  0x00\n  codecopy\n  0x00\n  return\nstop\n\nsub_0: assembly {\n        /* \"contracts/VendingMachine.sol\":58:5829  contract VendingMachine {... */\n      mstore(0x40, 0x80)\n      jumpi(tag_1, lt(calldatasize, 0x04))\n      shr(0xe0, calldataload(0x00))\n      dup1\n      0x70cd5a80\n      gt\n      tag_12\n      jumpi\n      dup1\n      0x70cd5a80\n      eq\n      tag_7\n      jumpi\n      dup1\n      0x94cf2160\n      eq\n      tag_8\n      jumpi\n      dup1\n      0xa26759cb\n      eq\n      tag_9\n      jumpi\n      dup1\n      0xb04f3225\n      eq\n      tag_10\n      jumpi\n      dup1\n      0xcdad28d7\n      eq\n      tag_11\n      jumpi\n      jump(tag_1)\n    tag_12:\n      dup1\n      0x02ee3a52\n      eq\n      tag_2\n      jumpi\n      dup1\n      0x12065fe0\n      eq\n      tag_3\n      jumpi\n      dup1\n      0x121dc3d5\n      eq\n      tag_4\n      jumpi\n      dup1\n      0x19f92926\n      eq\n      tag_5\n      jumpi\n      dup1\n      0x3ccfd60b\n      eq\n      tag_6\n      jumpi\n    tag_1:\n      0x00\n      dup1\n      revert\n        /* \"contracts/VendingMachine.sol\":2475:2572  function getAllProducts() public view returns (Product[] memory) {... */\n    tag_2:\n      callvalue\n      dup1\n      iszero\n      tag_13\n      jumpi\n      0x00\n      dup1\n      revert\n    tag_13:\n      pop\n      tag_14\n      tag_15\n      jump\t// in\n    tag_14:\n      mload(0x40)\n      tag_16\n      swap2\n      swap1\n      tag_17\n      jump\t// in\n    tag_16:\n      mload(0x40)\n      dup1\n      swap2\n      sub\n      swap1\n      return\n        /* \"contracts/VendingMachine.sol\":2738:2841  function getBalance() public view onlyOwner returns (uint) {... */\n    tag_3:\n      callvalue\n      dup1\n      iszero\n      tag_18\n      jumpi\n      0x00\n      dup1\n      revert\n    tag_18:\n      pop\n      tag_19\n      tag_20\n      jump\t// in\n    tag_19:\n      mload(0x40)\n      tag_21\n      swap2\n      swap1\n      tag_22\n      jump\t// in\n    tag_21:\n      mload(0x40)\n      dup1\n      swap2\n      sub\n      swap1\n      return\n        /* \"contracts/VendingMachine.sol\":4216:4866  function getAvailablePurchases(address _buyer) public view onlyOwner returns (Purchase[] memory) {... */\n    tag_4:\n      callvalue\n      dup1\n      iszero\n      tag_23\n      jumpi\n      0x00\n      dup1\n      revert\n    tag_23:\n      pop\n      tag_24\n      0x04\n      dup1\n      calldatasize\n      sub\n      dup2\n      add\n      swap1\n      tag_25\n      swap2\n      swap1\n      tag_26\n      jump\t// in\n    tag_25:\n      tag_27\n      jump\t// in\n    tag_24:\n      mload(0x40)\n      tag_28\n      swap2\n      swap1\n      tag_29\n      jump\t// in\n    tag_28:\n      mload(0x40)\n      dup1\n      swap2\n      sub\n      swap1\n      return\n        /* \"contracts/VendingMachine.sol\":2851:3215  function purchaseProduct(string memory _productId) public onlyOwner {... */\n    tag_5:\n      callvalue\n      dup1\n      iszero\n      tag_30\n      jumpi\n      0x00\n      dup1\n      revert\n    tag_30:\n      pop\n      tag_31\n      0x04\n      dup1\n      calldatasize\n      sub\n      dup2\n      add\n      swap1\n      tag_32\n      swap2\n      swap1\n      tag_33\n      jump\t// in\n    tag_32:\n      tag_34\n      jump\t// in\n    tag_31:\n      stop\n        /* \"contracts/VendingMachine.sol\":5523:5827  function withdraw() public onlyOwner noReentrant {... */\n    tag_6:\n      callvalue\n      dup1\n      iszero\n      tag_35\n      jumpi\n      0x00\n      dup1\n      revert\n    tag_35:\n      pop\n      tag_36\n      tag_37\n      jump\t// in\n    tag_36:\n      stop\n        /* \"contracts/VendingMachine.sol\":3221:3794  function getPurchases(address _buyer) public view onlyOwner returns (Purchase[] memory) {... */\n    tag_7:\n      callvalue\n      dup1\n      iszero\n      tag_38\n      jumpi\n      0x00\n      dup1\n      revert\n    tag_38:\n      pop\n      tag_39\n      0x04\n      dup1\n      calldatasize\n      sub\n      dup2\n      add\n      swap1\n      tag_40\n      swap2\n      swap1\n      tag_26\n      jump\t// in\n    tag_40:\n      tag_41\n      jump\t// in\n    tag_39:\n      mload(0x40)\n      tag_42\n      swap2\n      swap1\n      tag_29\n      jump\t// in\n    tag_42:\n      mload(0x40)\n      dup1\n      swap2\n      sub\n      swap1\n      return\n        /* \"contracts/VendingMachine.sol\":4872:5517  function getConsumedPurchases(address _buyer) public view onlyOwner returns (Purchase[] memory) {... */\n    tag_8:\n      callvalue\n      dup1\n      iszero\n      tag_43\n      jumpi\n      0x00\n      dup1\n      revert\n    tag_43:\n      pop\n      tag_44\n      0x04\n      dup1\n      calldatasize\n      sub\n      dup2\n      add\n      swap1\n      tag_45\n      swap2\n      swap1\n      tag_26\n      jump\t// in\n    tag_45:\n      tag_46\n      jump\t// in\n    tag_44:\n      mload(0x40)\n      tag_47\n      swap2\n      swap1\n      tag_29\n      jump\t// in\n    tag_47:\n      mload(0x40)\n      dup1\n      swap2\n      sub\n      swap1\n      return\n        /* \"contracts/VendingMachine.sol\":2578:2732  function addFunds() public onlyOwner payable {... */\n    tag_9:\n      tag_48\n      tag_49\n      jump\t// in\n    tag_48:\n      stop\n        /* \"contracts/VendingMachine.sol\":3800:4210  function consumePurchase(uint _purchaseIndex) public onlyOwner {... */\n    tag_10:\n      callvalue\n      dup1\n      iszero\n      tag_50\n      jumpi\n      0x00\n      dup1\n      revert\n    tag_50:\n      pop\n      tag_51\n      0x04\n      dup1\n      calldatasize\n      sub\n      dup2\n      add\n      swap1\n      tag_52\n      swap2\n      swap1\n      tag_53\n      jump\t// in\n    tag_52:\n      tag_54\n      jump\t// in\n    tag_51:\n      stop\n        /* \"contracts/VendingMachine.sol\":2113:2469  function getProductByCode(string memory _productId) public view returns (Product memory) {... */\n    tag_11:\n      callvalue\n      dup1\n      iszero\n      tag_55\n      jumpi\n      0x00\n      dup1\n      revert\n    tag_55:\n      pop\n      tag_56\n      0x04\n      dup1\n      calldatasize\n      sub\n      dup2\n      add\n      swap1\n      tag_57\n      swap2\n      swap1\n      tag_33\n      jump\t// in\n    tag_57:\n      tag_58\n      jump\t// in\n    tag_56:\n      mload(0x40)\n      tag_59\n      swap2\n      swap1\n      tag_60\n      jump\t// in\n    tag_59:\n      mload(0x40)\n      dup1\n      swap2\n      sub\n      swap1\n      return\n        /* \"contracts/VendingMachine.sol\":2475:2572  function getAllProducts() public view returns (Product[] memory) {... */\n    tag_15:\n        /* \"contracts/VendingMachine.sol\":2522:2538  Product[] memory */\n      0x60\n        /* \"contracts/VendingMachine.sol\":2557:2565  products */\n      0x01\n        /* \"contracts/VendingMachine.sol\":2550:2565  return products */\n      dup1\n      sload\n      dup1\n      0x20\n      mul\n      0x20\n      add\n      mload(0x40)\n      swap1\n      dup2\n      add\n      0x40\n      mstore\n      dup1\n      swap3\n      swap2\n      swap1\n      dup2\n      dup2\n      mstore\n      0x20\n      add\n      0x00\n      swap1\n    tag_62:\n      dup3\n      dup3\n      lt\n      iszero\n      tag_63\n      jumpi\n      dup4\n      dup3\n      swap1\n      0x00\n      mstore\n      keccak256(0x00, 0x20)\n      swap1\n      0x03\n      mul\n      add\n      mload(0x40)\n      dup1\n      0x60\n      add\n      0x40\n      mstore\n      swap1\n      dup2\n      0x00\n      dup3\n      add\n      dup1\n      sload\n      tag_65\n      swap1\n      tag_66\n      jump\t// in\n    tag_65:\n      dup1\n      0x1f\n      add\n      0x20\n      dup1\n      swap2\n      div\n      mul\n      0x20\n      add\n      mload(0x40)\n      swap1\n      dup2\n      add\n      0x40\n      mstore\n      dup1\n      swap3\n      swap2\n      swap1\n      dup2\n      dup2\n      mstore\n      0x20\n      add\n      dup3\n      dup1\n      sload\n      tag_67\n      swap1\n      tag_66\n      jump\t// in\n    tag_67:\n      dup1\n      iszero\n      tag_68\n      jumpi\n      dup1\n      0x1f\n      lt\n      tag_69\n      jumpi\n      0x0100\n      dup1\n      dup4\n      sload\n      div\n      mul\n      dup4\n      mstore\n      swap2\n      0x20\n      add\n      swap2\n      jump(tag_68)\n    tag_69:\n      dup3\n      add\n      swap2\n      swap1\n      0x00\n      mstore\n      keccak256(0x00, 0x20)\n      swap1\n    tag_70:\n      dup2\n      sload\n      dup2\n      mstore\n      swap1\n      0x01\n      add\n      swap1\n      0x20\n      add\n      dup1\n      dup4\n      gt\n      tag_70\n      jumpi\n      dup3\n      swap1\n      sub\n      0x1f\n      and\n      dup3\n      add\n      swap2\n    tag_68:\n      pop\n      pop\n      pop\n      pop\n      pop\n      dup2\n      mstore\n      0x20\n      add\n      0x01\n      dup3\n      add\n      sload\n      dup2\n      mstore\n      0x20\n      add\n      0x02\n      dup3\n      add\n      dup1\n      sload\n      tag_71\n      swap1\n      tag_66\n      jump\t// in\n    tag_71:\n      dup1\n      0x1f\n      add\n      0x20\n      dup1\n      swap2\n      div\n      mul\n      0x20\n      add\n      mload(0x40)\n      swap1\n      dup2\n      add\n      0x40\n      mstore\n      dup1\n      swap3\n      swap2\n      swap1\n      dup2\n      dup2\n      mstore\n      0x20\n      add\n      dup3\n      dup1\n      sload\n      tag_72\n      swap1\n      tag_66\n      jump\t// in\n    tag_72:\n      dup1\n      iszero\n      tag_73\n      jumpi\n      dup1\n      0x1f\n      lt\n      tag_74\n      jumpi\n      0x0100\n      dup1\n      dup4\n      sload\n      div\n      mul\n      dup4\n      mstore\n      swap2\n      0x20\n      add\n      swap2\n      jump(tag_73)\n    tag_74:\n      dup3\n      add\n      swap2\n      swap1\n      0x00\n      mstore\n      keccak256(0x00, 0x20)\n      swap1\n    tag_75:\n      dup2\n      sload\n      dup2\n      mstore\n      swap1\n      0x01\n      add\n      swap1\n      0x20\n      add\n      dup1\n      dup4\n      gt\n      tag_75\n      jumpi\n      dup3\n      swap1\n      sub\n      0x1f\n      and\n      dup3\n      add\n      swap2\n    tag_73:\n      pop\n      pop\n      pop\n      pop\n      pop\n      dup2\n      mstore\n      pop\n      pop\n      dup2\n      mstore\n      0x20\n      add\n      swap1\n      0x01\n      add\n      swap1\n      jump(tag_62)\n    tag_63:\n      pop\n      pop\n      pop\n      pop\n      swap1\n      pop\n        /* \"contracts/VendingMachine.sol\":2475:2572  function getAllProducts() public view returns (Product[] memory) {... */\n      swap1\n      jump\t// out\n        /* \"contracts/VendingMachine.sol\":2738:2841  function getBalance() public view onlyOwner returns (uint) {... */\n    tag_20:\n        /* \"contracts/VendingMachine.sol\":2791:2795  uint */\n      0x00\n        /* \"contracts/VendingMachine.sol\":590:595  owner */\n      dup1\n      0x00\n      swap1\n      sload\n      swap1\n      0x0100\n      exp\n      swap1\n      div\n      0xffffffffffffffffffffffffffffffffffffffff\n      and\n        /* \"contracts/VendingMachine.sol\":576:595  msg.sender == owner */\n      0xffffffffffffffffffffffffffffffffffffffff\n      and\n        /* \"contracts/VendingMachine.sol\":576:586  msg.sender */\n      caller\n        /* \"contracts/VendingMachine.sol\":576:595  msg.sender == owner */\n      0xffffffffffffffffffffffffffffffffffffffff\n      and\n      eq\n        /* \"contracts/VendingMachine.sol\":568:633  require(msg.sender == owner, \"Only owner can call this function\") */\n      tag_77\n      jumpi\n      mload(0x40)\n      0x08c379a000000000000000000000000000000000000000000000000000000000\n      dup2\n      mstore\n      0x04\n      add\n      tag_78\n      swap1\n      tag_79\n      jump\t// in\n    tag_78:\n      mload(0x40)\n      dup1\n      swap2\n      sub\n      swap1\n      revert\n    tag_77:\n        /* \"contracts/VendingMachine.sol\":2814:2822  balances */\n      0x02\n        /* \"contracts/VendingMachine.sol\":2814:2834  balances[msg.sender] */\n      0x00\n        /* \"contracts/VendingMachine.sol\":2823:2833  msg.sender */\n      caller\n        /* \"contracts/VendingMachine.sol\":2814:2834  balances[msg.sender] */\n      0xffffffffffffffffffffffffffffffffffffffff\n      and\n      0xffffffffffffffffffffffffffffffffffffffff\n      and\n      dup2\n      mstore\n      0x20\n      add\n      swap1\n      dup2\n      mstore\n      0x20\n      add\n      0x00\n      keccak256\n      sload\n        /* \"contracts/VendingMachine.sol\":2807:2834  return balances[msg.sender] */\n      swap1\n      pop\n        /* \"contracts/VendingMachine.sol\":2738:2841  function getBalance() public view onlyOwner returns (uint) {... */\n      swap1\n      jump\t// out\n        /* \"contracts/VendingMachine.sol\":4216:4866  function getAvailablePurchases(address _buyer) public view onlyOwner returns (Purchase[] memory) {... */\n    tag_27:\n        /* \"contracts/VendingMachine.sol\":4294:4311  Purchase[] memory */\n      0x60\n        /* \"contracts/VendingMachine.sol\":590:595  owner */\n      0x00\n      dup1\n      sload\n      swap1\n      0x0100\n      exp\n      swap1\n      div\n      0xffffffffffffffffffffffffffffffffffffffff\n      and\n        /* \"contracts/VendingMachine.sol\":576:595  msg.sender == owner */\n      0xffffffffffffffffffffffffffffffffffffffff\n      and\n        /* \"contracts/VendingMachine.sol\":576:586  msg.sender */\n      caller\n        /* \"contracts/VendingMachine.sol\":576:595  msg.sender == owner */\n      0xffffffffffffffffffffffffffffffffffffffff\n      and\n      eq\n        /* \"contracts/VendingMachine.sol\":568:633  require(msg.sender == owner, \"Only owner can call this function\") */\n      tag_82\n      jumpi\n      mload(0x40)\n      0x08c379a000000000000000000000000000000000000000000000000000000000\n      dup2\n      mstore\n      0x04\n      add\n      tag_83\n      swap1\n      tag_79\n      jump\t// in\n    tag_83:\n      mload(0x40)\n      dup1\n      swap2\n      sub\n      swap1\n      revert\n    tag_82:\n        /* \"contracts/VendingMachine.sol\":4323:4359  Purchase[] memory availablePurchases */\n      0x00\n        /* \"contracts/VendingMachine.sol\":4377:4386  purchases */\n      0x03\n        /* \"contracts/VendingMachine.sol\":4377:4393  purchases.length */\n      dup1\n      sload\n      swap1\n      pop\n        /* \"contracts/VendingMachine.sol\":4362:4394  new Purchase[](purchases.length) */\n      0xffffffffffffffff\n      dup2\n      gt\n      iszero\n      tag_85\n      jumpi\n      tag_86\n      tag_87\n      jump\t// in\n    tag_86:\n    tag_85:\n      mload(0x40)\n      swap1\n      dup1\n      dup3\n      mstore\n      dup1\n      0x20\n      mul\n      0x20\n      add\n      dup3\n      add\n      0x40\n      mstore\n      dup1\n      iszero\n      tag_88\n      jumpi\n      dup2\n      0x20\n      add\n    tag_89:\n      tag_90\n      tag_91\n      jump\t// in\n    tag_90:\n      dup2\n      mstore\n      0x20\n      add\n      swap1\n      0x01\n      swap1\n      sub\n      swap1\n      dup2\n      tag_89\n      jumpi\n      swap1\n      pop\n    tag_88:\n      pop\n        /* \"contracts/VendingMachine.sol\":4323:4394  Purchase[] memory availablePurchases = new Purchase[](purchases.length) */\n      swap1\n      pop\n        /* \"contracts/VendingMachine.sol\":4404:4414  uint count */\n      0x00\n        /* \"contracts/VendingMachine.sol\":4433:4439  uint i */\n      dup1\n        /* \"contracts/VendingMachine.sol\":4428:4679  for (uint i = 0; i < purchases.length; i++) {... */\n    tag_92:\n        /* \"contracts/VendingMachine.sol\":4449:4458  purchases */\n      0x03\n        /* \"contracts/VendingMachine.sol\":4449:4465  purchases.length */\n      dup1\n      sload\n      swap1\n      pop\n        /* \"contracts/VendingMachine.sol\":4445:4446  i */\n      dup2\n        /* \"contracts/VendingMachine.sol\":4445:4465  i < purchases.length */\n      lt\n        /* \"contracts/VendingMachine.sol\":4428:4679  for (uint i = 0; i < purchases.length; i++) {... */\n      iszero\n      tag_93\n      jumpi\n        /* \"contracts/VendingMachine.sol\":4512:4518  _buyer */\n      dup5\n        /* \"contracts/VendingMachine.sol\":4490:4518  purchases[i].buyer == _buyer */\n      0xffffffffffffffffffffffffffffffffffffffff\n      and\n        /* \"contracts/VendingMachine.sol\":4490:4499  purchases */\n      0x03\n        /* \"contracts/VendingMachine.sol\":4500:4501  i */\n      dup3\n        /* \"contracts/VendingMachine.sol\":4490:4502  purchases[i] */\n      dup2\n      sload\n      dup2\n      lt\n      tag_95\n      jumpi\n      tag_96\n      tag_97\n      jump\t// in\n    tag_96:\n    tag_95:\n      swap1\n      0x00\n      mstore\n      keccak256(0x00, 0x20)\n      swap1\n      0x04\n      mul\n      add\n        /* \"contracts/VendingMachine.sol\":4490:4508  purchases[i].buyer */\n      0x00\n      add\n      0x00\n      swap1\n      sload\n      swap1\n      0x0100\n      exp\n      swap1\n      div\n      0xffffffffffffffffffffffffffffffffffffffff\n      and\n        /* \"contracts/VendingMachine.sol\":4490:4518  purchases[i].buyer == _buyer */\n      0xffffffffffffffffffffffffffffffffffffffff\n      and\n      eq\n        /* \"contracts/VendingMachine.sol\":4490:4569  purchases[i].buyer == _buyer && purchases[i].status == PurchaseStatus.Available */\n      dup1\n      iszero\n      tag_99\n      jumpi\n      pop\n        /* \"contracts/VendingMachine.sol\":4545:4569  PurchaseStatus.Available */\n      0x00\n        /* \"contracts/VendingMachine.sol\":4522:4569  purchases[i].status == PurchaseStatus.Available */\n      0x01\n      dup2\n      gt\n      iszero\n      tag_100\n      jumpi\n      tag_101\n      tag_102\n      jump\t// in\n    tag_101:\n    tag_100:\n        /* \"contracts/VendingMachine.sol\":4522:4531  purchases */\n      0x03\n        /* \"contracts/VendingMachine.sol\":4532:4533  i */\n      dup3\n        /* \"contracts/VendingMachine.sol\":4522:4534  purchases[i] */\n      dup2\n      sload\n      dup2\n      lt\n      tag_103\n      jumpi\n      tag_104\n      tag_97\n      jump\t// in\n    tag_104:\n    tag_103:\n      swap1\n      0x00\n      mstore\n      keccak256(0x00, 0x20)\n      swap1\n      0x04\n      mul\n      add\n        /* \"contracts/VendingMachine.sol\":4522:4541  purchases[i].status */\n      0x03\n      add\n      0x00\n      swap1\n      sload\n      swap1\n      0x0100\n      exp\n      swap1\n      div\n      0xff\n      and\n        /* \"contracts/VendingMachine.sol\":4522:4569  purchases[i].status == PurchaseStatus.Available */\n      0x01\n      dup2\n      gt\n      iszero\n      tag_106\n      jumpi\n      tag_107\n      tag_102\n      jump\t// in\n    tag_107:\n    tag_106:\n      eq\n        /* \"contracts/VendingMachine.sol\":4490:4569  purchases[i].buyer == _buyer && purchases[i].status == PurchaseStatus.Available */\n    tag_99:\n        /* \"contracts/VendingMachine.sol\":4486:4669  if (purchases[i].buyer == _buyer && purchases[i].status == PurchaseStatus.Available) {... */\n      iszero\n      tag_108\n      jumpi\n        /* \"contracts/VendingMachine.sol\":4617:4626  purchases */\n      0x03\n        /* \"contracts/VendingMachine.sol\":4627:4628  i */\n      dup2\n        /* \"contracts/VendingMachine.sol\":4617:4629  purchases[i] */\n      dup2\n      sload\n      dup2\n      lt\n      tag_109\n      jumpi\n      tag_110\n      tag_97\n      jump\t// in\n    tag_110:\n    tag_109:\n      swap1\n      0x00\n      mstore\n      keccak256(0x00, 0x20)\n      swap1\n      0x04\n      mul\n      add\n        /* \"contracts/VendingMachine.sol\":4589:4629  availablePurchases[count] = purchases[i] */\n      mload(0x40)\n      dup1\n      0x80\n      add\n      0x40\n      mstore\n      swap1\n      dup2\n      0x00\n      dup3\n      add\n      0x00\n      swap1\n      sload\n      swap1\n      0x0100\n      exp\n      swap1\n      div\n      0xffffffffffffffffffffffffffffffffffffffff\n      and\n      0xffffffffffffffffffffffffffffffffffffffff\n      and\n      0xffffffffffffffffffffffffffffffffffffffff\n      and\n      dup2\n      mstore\n      0x20\n      add\n      0x01\n      dup3\n      add\n      dup1\n      sload\n      tag_112\n      swap1\n      tag_66\n      jump\t// in\n    tag_112:\n      dup1\n      0x1f\n      add\n      0x20\n      dup1\n      swap2\n      div\n      mul\n      0x20\n      add\n      mload(0x40)\n      swap1\n      dup2\n      add\n      0x40\n      mstore\n      dup1\n      swap3\n      swap2\n      swap1\n      dup2\n      dup2\n      mstore\n      0x20\n      add\n      dup3\n      dup1\n      sload\n      tag_113\n      swap1\n      tag_66\n      jump\t// in\n    tag_113:\n      dup1\n      iszero\n      tag_114\n      jumpi\n      dup1\n      0x1f\n      lt\n      tag_115\n      jumpi\n      0x0100\n      dup1\n      dup4\n      sload\n      div\n      mul\n      dup4\n      mstore\n      swap2\n      0x20\n      add\n      swap2\n      jump(tag_114)\n    tag_115:\n      dup3\n      add\n      swap2\n      swap1\n      0x00\n      mstore\n      keccak256(0x00, 0x20)\n      swap1\n    tag_116:\n      dup2\n      sload\n      dup2\n      mstore\n      swap1\n      0x01\n      add\n      swap1\n      0x20\n      add\n      dup1\n      dup4\n      gt\n      tag_116\n      jumpi\n      dup3\n      swap1\n      sub\n      0x1f\n      and\n      dup3\n      add\n      swap2\n    tag_114:\n      pop\n      pop\n      pop\n      pop\n      pop\n      dup2\n      mstore\n      0x20\n      add\n      0x02\n      dup3\n      add\n      sload\n      dup2\n      mstore\n      0x20\n      add\n      0x03\n      dup3\n      add\n      0x00\n      swap1\n      sload\n      swap1\n      0x0100\n      exp\n      swap1\n      div\n      0xff\n      and\n      0x01\n      dup2\n      gt\n      iszero\n      tag_117\n      jumpi\n      tag_118\n      tag_102\n      jump\t// in\n    tag_118:\n    tag_117:\n      0x01\n      dup2\n      gt\n      iszero\n      tag_119\n      jumpi\n      tag_120\n      tag_102\n      jump\t// in\n    tag_120:\n    tag_119:\n      dup2\n      mstore\n      pop\n      pop\n        /* \"contracts/VendingMachine.sol\":4589:4607  availablePurchases */\n      dup4\n        /* \"contracts/VendingMachine.sol\":4608:4613  count */\n      dup4\n        /* \"contracts/VendingMachine.sol\":4589:4614  availablePurchases[count] */\n      dup2\n      mload\n      dup2\n      lt\n      tag_121\n      jumpi\n      tag_122\n      tag_97\n      jump\t// in\n    tag_122:\n    tag_121:\n      0x20\n      mul\n      0x20\n      add\n      add\n        /* \"contracts/VendingMachine.sol\":4589:4629  availablePurchases[count] = purchases[i] */\n      dup2\n      swap1\n      mstore\n      pop\n        /* \"contracts/VendingMachine.sol\":4647:4654  count++ */\n      dup2\n      dup1\n      tag_123\n      swap1\n      tag_124\n      jump\t// in\n    tag_123:\n      swap3\n      pop\n      pop\n        /* \"contracts/VendingMachine.sol\":4486:4669  if (purchases[i].buyer == _buyer && purchases[i].status == PurchaseStatus.Available) {... */\n    tag_108:\n        /* \"contracts/VendingMachine.sol\":4467:4470  i++ */\n      dup1\n      dup1\n      0x01\n      add\n      swap2\n      pop\n      pop\n        /* \"contracts/VendingMachine.sol\":4428:4679  for (uint i = 0; i < purchases.length; i++) {... */\n      jump(tag_92)\n    tag_93:\n      pop\n        /* \"contracts/VendingMachine.sol\":4688:4712  Purchase[] memory result */\n      0x00\n        /* \"contracts/VendingMachine.sol\":4730:4735  count */\n      dup2\n        /* \"contracts/VendingMachine.sol\":4715:4736  new Purchase[](count) */\n      0xffffffffffffffff\n      dup2\n      gt\n      iszero\n      tag_125\n      jumpi\n      tag_126\n      tag_87\n      jump\t// in\n    tag_126:\n    tag_125:\n      mload(0x40)\n      swap1\n      dup1\n      dup3\n      mstore\n      dup1\n      0x20\n      mul\n      0x20\n      add\n      dup3\n      add\n      0x40\n      mstore\n      dup1\n      iszero\n      tag_127\n      jumpi\n      dup2\n      0x20\n      add\n    tag_128:\n      tag_129\n      tag_91\n      jump\t// in\n    tag_129:\n      dup2\n      mstore\n      0x20\n      add\n      swap1\n      0x01\n      swap1\n      sub\n      swap1\n      dup2\n      tag_128\n      jumpi\n      swap1\n      pop\n    tag_127:\n      pop\n        /* \"contracts/VendingMachine.sol\":4688:4736  Purchase[] memory result = new Purchase[](count) */\n      swap1\n      pop\n        /* \"contracts/VendingMachine.sol\":4751:4757  uint i */\n      0x00\n        /* \"contracts/VendingMachine.sol\":4746:4837  for (uint i = 0; i < count; i++) {... */\n    tag_130:\n        /* \"contracts/VendingMachine.sol\":4767:4772  count */\n      dup3\n        /* \"contracts/VendingMachine.sol\":4763:4764  i */\n      dup2\n        /* \"contracts/VendingMachine.sol\":4763:4772  i < count */\n      lt\n        /* \"contracts/VendingMachine.sol\":4746:4837  for (uint i = 0; i < count; i++) {... */\n      iszero\n      tag_131\n      jumpi\n        /* \"contracts/VendingMachine.sol\":4805:4823  availablePurchases */\n      dup4\n        /* \"contracts/VendingMachine.sol\":4824:4825  i */\n      dup2\n        /* \"contracts/VendingMachine.sol\":4805:4826  availablePurchases[i] */\n      dup2\n      mload\n      dup2\n      lt\n      tag_133\n      jumpi\n      tag_134\n      tag_97\n      jump\t// in\n    tag_134:\n    tag_133:\n      0x20\n      mul\n      0x20\n      add\n      add\n      mload\n        /* \"contracts/VendingMachine.sol\":4793:4799  result */\n      dup3\n        /* \"contracts/VendingMachine.sol\":4800:4801  i */\n      dup3\n        /* \"contracts/VendingMachine.sol\":4793:4802  result[i] */\n      dup2\n      mload\n      dup2\n      lt\n      tag_135\n      jumpi\n      tag_136\n      tag_97\n      jump\t// in\n    tag_136:\n    tag_135:\n      0x20\n      mul\n      0x20\n      add\n      add\n        /* \"contracts/VendingMachine.sol\":4793:4826  result[i] = availablePurchases[i] */\n      dup2\n      swap1\n      mstore\n      pop\n        /* \"contracts/VendingMachine.sol\":4774:4777  i++ */\n      dup1\n      dup1\n      0x01\n      add\n      swap2\n      pop\n      pop\n        /* \"contracts/VendingMachine.sol\":4746:4837  for (uint i = 0; i < count; i++) {... */\n      jump(tag_130)\n    tag_131:\n      pop\n        /* \"contracts/VendingMachine.sol\":4853:4859  result */\n      dup1\n        /* \"contracts/VendingMachine.sol\":4846:4859  return result */\n      swap4\n      pop\n      pop\n      pop\n      pop\n        /* \"contracts/VendingMachine.sol\":4216:4866  function getAvailablePurchases(address _buyer) public view onlyOwner returns (Purchase[] memory) {... */\n      swap2\n      swap1\n      pop\n      jump\t// out\n        /* \"contracts/VendingMachine.sol\":2851:3215  function purchaseProduct(string memory _productId) public onlyOwner {... */\n    tag_34:\n        /* \"contracts/VendingMachine.sol\":590:595  owner */\n      0x00\n      dup1\n      sload\n      swap1\n      0x0100\n      exp\n      swap1\n      div\n      0xffffffffffffffffffffffffffffffffffffffff\n      and\n        /* \"contracts/VendingMachine.sol\":576:595  msg.sender == owner */\n      0xffffffffffffffffffffffffffffffffffffffff\n      and\n        /* \"contracts/VendingMachine.sol\":576:586  msg.sender */\n      caller\n        /* \"contracts/VendingMachine.sol\":576:595  msg.sender == owner */\n      0xffffffffffffffffffffffffffffffffffffffff\n      and\n      eq\n        /* \"contracts/VendingMachine.sol\":568:633  require(msg.sender == owner, \"Only owner can call this function\") */\n      tag_138\n      jumpi\n      mload(0x40)\n      0x08c379a000000000000000000000000000000000000000000000000000000000\n      dup2\n      mstore\n      0x04\n      add\n      tag_139\n      swap1\n      tag_79\n      jump\t// in\n    tag_139:\n      mload(0x40)\n      dup1\n      swap2\n      sub\n      swap1\n      revert\n    tag_138:\n        /* \"contracts/VendingMachine.sol\":2929:2946  uint productPrice */\n      0x00\n        /* \"contracts/VendingMachine.sol\":2949:2977  getProductByCode(_productId) */\n      tag_141\n        /* \"contracts/VendingMachine.sol\":2966:2976  _productId */\n      dup3\n        /* \"contracts/VendingMachine.sol\":2949:2965  getProductByCode */\n      tag_58\n        /* \"contracts/VendingMachine.sol\":2949:2977  getProductByCode(_productId) */\n      jump\t// in\n    tag_141:\n        /* \"contracts/VendingMachine.sol\":2949:2983  getProductByCode(_productId).price */\n      0x20\n      add\n      mload\n        /* \"contracts/VendingMachine.sol\":2929:2983  uint productPrice = getProductByCode(_productId).price */\n      swap1\n      pop\n        /* \"contracts/VendingMachine.sol\":3025:3037  productPrice */\n      dup1\n        /* \"contracts/VendingMachine.sol\":3001:3009  balances */\n      0x02\n        /* \"contracts/VendingMachine.sol\":3001:3021  balances[msg.sender] */\n      0x00\n        /* \"contracts/VendingMachine.sol\":3010:3020  msg.sender */\n      caller\n        /* \"contracts/VendingMachine.sol\":3001:3021  balances[msg.sender] */\n      0xffffffffffffffffffffffffffffffffffffffff\n      and\n      0xffffffffffffffffffffffffffffffffffffffff\n      and\n      dup2\n      mstore\n      0x20\n      add\n      swap1\n      dup2\n      mstore\n      0x20\n      add\n      0x00\n      keccak256\n      sload\n        /* \"contracts/VendingMachine.sol\":3001:3037  balances[msg.sender] >= productPrice */\n      lt\n      iszero\n        /* \"contracts/VendingMachine.sol\":2993:3060  require(balances[msg.sender] >= productPrice, \"Insufficient funds\") */\n      tag_142\n      jumpi\n      mload(0x40)\n      0x08c379a000000000000000000000000000000000000000000000000000000000\n      dup2\n      mstore\n      0x04\n      add\n      tag_143\n      swap1\n      tag_144\n      jump\t// in\n    tag_143:\n      mload(0x40)\n      dup1\n      swap2\n      sub\n      swap1\n      revert\n    tag_142:\n        /* \"contracts/VendingMachine.sol\":3095:3107  productPrice */\n      dup1\n        /* \"contracts/VendingMachine.sol\":3071:3079  balances */\n      0x02\n        /* \"contracts/VendingMachine.sol\":3071:3091  balances[msg.sender] */\n      0x00\n        /* \"contracts/VendingMachine.sol\":3080:3090  msg.sender */\n      caller\n        /* \"contracts/VendingMachine.sol\":3071:3091  balances[msg.sender] */\n      0xffffffffffffffffffffffffffffffffffffffff\n      and\n      0xffffffffffffffffffffffffffffffffffffffff\n      and\n      dup2\n      mstore\n      0x20\n      add\n      swap1\n      dup2\n      mstore\n      0x20\n      add\n      0x00\n      keccak256\n      0x00\n        /* \"contracts/VendingMachine.sol\":3071:3107  balances[msg.sender] -= productPrice */\n      dup3\n      dup3\n      sload\n      tag_145\n      swap2\n      swap1\n      tag_146\n      jump\t// in\n    tag_145:\n      swap3\n      pop\n      pop\n      dup2\n      swap1\n      sstore\n      pop\n        /* \"contracts/VendingMachine.sol\":3117:3126  purchases */\n      0x03\n        /* \"contracts/VendingMachine.sol\":3132:3207  Purchase(msg.sender, _productId, block.timestamp, PurchaseStatus.Available) */\n      mload(0x40)\n      dup1\n      0x80\n      add\n      0x40\n      mstore\n      dup1\n        /* \"contracts/VendingMachine.sol\":3141:3151  msg.sender */\n      caller\n        /* \"contracts/VendingMachine.sol\":3132:3207  Purchase(msg.sender, _productId, block.timestamp, PurchaseStatus.Available) */\n      0xffffffffffffffffffffffffffffffffffffffff\n      and\n      dup2\n      mstore\n      0x20\n      add\n        /* \"contracts/VendingMachine.sol\":3153:3163  _productId */\n      dup5\n        /* \"contracts/VendingMachine.sol\":3132:3207  Purchase(msg.sender, _productId, block.timestamp, PurchaseStatus.Available) */\n      dup2\n      mstore\n      0x20\n      add\n        /* \"contracts/VendingMachine.sol\":3165:3180  block.timestamp */\n      timestamp\n        /* \"contracts/VendingMachine.sol\":3132:3207  Purchase(msg.sender, _productId, block.timestamp, PurchaseStatus.Available) */\n      dup2\n      mstore\n      0x20\n      add\n        /* \"contracts/VendingMachine.sol\":3182:3206  PurchaseStatus.Available */\n      0x00\n        /* \"contracts/VendingMachine.sol\":3132:3207  Purchase(msg.sender, _productId, block.timestamp, PurchaseStatus.Available) */\n      0x01\n      dup2\n      gt\n      iszero\n      tag_147\n      jumpi\n      tag_148\n      tag_102\n      jump\t// in\n    tag_148:\n    tag_147:\n      dup2\n      mstore\n      pop\n        /* \"contracts/VendingMachine.sol\":3117:3208  purchases.push(Purchase(msg.sender, _productId, block.timestamp, PurchaseStatus.Available)) */\n      swap1\n      dup1\n      0x01\n      dup2\n      sload\n      add\n      dup1\n      dup3\n      sstore\n      dup1\n      swap2\n      pop\n      pop\n      0x01\n      swap1\n      sub\n      swap1\n      0x00\n      mstore\n      keccak256(0x00, 0x20)\n      swap1\n      0x04\n      mul\n      add\n      0x00\n      swap1\n      swap2\n      swap1\n      swap2\n      swap1\n      swap2\n      pop\n      0x00\n      dup3\n      add\n      mload\n      dup2\n      0x00\n      add\n      exp(0x0100, 0x00)\n      dup2\n      sload\n      dup2\n      0xffffffffffffffffffffffffffffffffffffffff\n      mul\n      not\n      and\n      swap1\n      dup4\n      0xffffffffffffffffffffffffffffffffffffffff\n      and\n      mul\n      or\n      swap1\n      sstore\n      pop\n      0x20\n      dup3\n      add\n      mload\n      dup2\n      0x01\n      add\n      swap1\n      dup2\n      tag_150\n      swap2\n      swap1\n      tag_151\n      jump\t// in\n    tag_150:\n      pop\n      0x40\n      dup3\n      add\n      mload\n      dup2\n      0x02\n      add\n      sstore\n      0x60\n      dup3\n      add\n      mload\n      dup2\n      0x03\n      add\n      exp(0x0100, 0x00)\n      dup2\n      sload\n      dup2\n      0xff\n      mul\n      not\n      and\n      swap1\n      dup4\n      0x01\n      dup2\n      gt\n      iszero\n      tag_152\n      jumpi\n      tag_153\n      tag_102\n      jump\t// in\n    tag_153:\n    tag_152:\n      mul\n      or\n      swap1\n      sstore\n      pop\n      pop\n      pop\n        /* \"contracts/VendingMachine.sol\":2919:3215  {... */\n      pop\n        /* \"contracts/VendingMachine.sol\":2851:3215  function purchaseProduct(string memory _productId) public onlyOwner {... */\n      pop\n      jump\t// out\n        /* \"contracts/VendingMachine.sol\":5523:5827  function withdraw() public onlyOwner noReentrant {... */\n    tag_37:\n        /* \"contracts/VendingMachine.sol\":590:595  owner */\n      0x00\n      dup1\n      sload\n      swap1\n      0x0100\n      exp\n      swap1\n      div\n      0xffffffffffffffffffffffffffffffffffffffff\n      and\n        /* \"contracts/VendingMachine.sol\":576:595  msg.sender == owner */\n      0xffffffffffffffffffffffffffffffffffffffff\n      and\n        /* \"contracts/VendingMachine.sol\":576:586  msg.sender */\n      caller\n        /* \"contracts/VendingMachine.sol\":576:595  msg.sender == owner */\n      0xffffffffffffffffffffffffffffffffffffffff\n      and\n      eq\n        /* \"contracts/VendingMachine.sol\":568:633  require(msg.sender == owner, \"Only owner can call this function\") */\n      tag_155\n      jumpi\n      mload(0x40)\n      0x08c379a000000000000000000000000000000000000000000000000000000000\n      dup2\n      mstore\n      0x04\n      add\n      tag_156\n      swap1\n      tag_79\n      jump\t// in\n    tag_156:\n      mload(0x40)\n      dup1\n      swap2\n      sub\n      swap1\n      revert\n    tag_155:\n        /* \"contracts/VendingMachine.sol\":699:705  locked */\n      0x00\n      0x14\n      swap1\n      sload\n      swap1\n      0x0100\n      exp\n      swap1\n      div\n      0xff\n      and\n        /* \"contracts/VendingMachine.sol\":698:705  !locked */\n      iszero\n        /* \"contracts/VendingMachine.sol\":690:723  require(!locked, \"No reentrancy\") */\n      tag_158\n      jumpi\n      mload(0x40)\n      0x08c379a000000000000000000000000000000000000000000000000000000000\n      dup2\n      mstore\n      0x04\n      add\n      tag_159\n      swap1\n      tag_160\n      jump\t// in\n    tag_159:\n      mload(0x40)\n      dup1\n      swap2\n      sub\n      swap1\n      revert\n    tag_158:\n        /* \"contracts/VendingMachine.sol\":742:746  true */\n      0x01\n        /* \"contracts/VendingMachine.sol\":733:739  locked */\n      0x00\n      0x14\n        /* \"contracts/VendingMachine.sol\":733:746  locked = true */\n      0x0100\n      exp\n      dup2\n      sload\n      dup2\n      0xff\n      mul\n      not\n      and\n      swap1\n      dup4\n      iszero\n      iszero\n      mul\n      or\n      swap1\n      sstore\n      pop\n        /* \"contracts/VendingMachine.sol\":5582:5593  uint amount */\n      0x00\n        /* \"contracts/VendingMachine.sol\":5596:5604  balances */\n      0x02\n        /* \"contracts/VendingMachine.sol\":5596:5616  balances[msg.sender] */\n      0x00\n        /* \"contracts/VendingMachine.sol\":5605:5615  msg.sender */\n      caller\n        /* \"contracts/VendingMachine.sol\":5596:5616  balances[msg.sender] */\n      0xffffffffffffffffffffffffffffffffffffffff\n      and\n      0xffffffffffffffffffffffffffffffffffffffff\n      and\n      dup2\n      mstore\n      0x20\n      add\n      swap1\n      dup2\n      mstore\n      0x20\n      add\n      0x00\n      keccak256\n      sload\n        /* \"contracts/VendingMachine.sol\":5582:5616  uint amount = balances[msg.sender] */\n      swap1\n      pop\n        /* \"contracts/VendingMachine.sol\":5643:5644  0 */\n      0x00\n        /* \"contracts/VendingMachine.sol\":5634:5640  amount */\n      dup2\n        /* \"contracts/VendingMachine.sol\":5634:5644  amount > 0 */\n      gt\n        /* \"contracts/VendingMachine.sol\":5626:5677  require(amount > 0, \"You do not have any balance.\") */\n      tag_162\n      jumpi\n      mload(0x40)\n      0x08c379a000000000000000000000000000000000000000000000000000000000\n      dup2\n      mstore\n      0x04\n      add\n      tag_163\n      swap1\n      tag_164\n      jump\t// in\n    tag_163:\n      mload(0x40)\n      dup1\n      swap2\n      sub\n      swap1\n      revert\n    tag_162:\n        /* \"contracts/VendingMachine.sol\":5710:5711  0 */\n      0x00\n        /* \"contracts/VendingMachine.sol\":5687:5695  balances */\n      0x02\n        /* \"contracts/VendingMachine.sol\":5687:5707  balances[msg.sender] */\n      0x00\n        /* \"contracts/VendingMachine.sol\":5696:5706  msg.sender */\n      caller\n        /* \"contracts/VendingMachine.sol\":5687:5707  balances[msg.sender] */\n      0xffffffffffffffffffffffffffffffffffffffff\n      and\n      0xffffffffffffffffffffffffffffffffffffffff\n      and\n      dup2\n      mstore\n      0x20\n      add\n      swap1\n      dup2\n      mstore\n      0x20\n      add\n      0x00\n      keccak256\n        /* \"contracts/VendingMachine.sol\":5687:5711  balances[msg.sender] = 0 */\n      dup2\n      swap1\n      sstore\n      pop\n        /* \"contracts/VendingMachine.sol\":5722:5734  bool success */\n      0x00\n        /* \"contracts/VendingMachine.sol\":5740:5750  msg.sender */\n      caller\n        /* \"contracts/VendingMachine.sol\":5740:5755  msg.sender.call */\n      0xffffffffffffffffffffffffffffffffffffffff\n      and\n        /* \"contracts/VendingMachine.sol\":5763:5769  amount */\n      dup3\n        /* \"contracts/VendingMachine.sol\":5740:5774  msg.sender.call{value: amount}(\"\") */\n      mload(0x40)\n      tag_165\n      swap1\n      tag_166\n      jump\t// in\n    tag_165:\n      0x00\n      mload(0x40)\n      dup1\n      dup4\n      sub\n      dup2\n      dup6\n      dup8\n      gas\n      call\n      swap3\n      pop\n      pop\n      pop\n      returndatasize\n      dup1\n      0x00\n      dup2\n      eq\n      tag_169\n      jumpi\n      mload(0x40)\n      swap2\n      pop\n      and(add(returndatasize, 0x3f), not(0x1f))\n      dup3\n      add\n      0x40\n      mstore\n      returndatasize\n      dup3\n      mstore\n      returndatasize\n      0x00\n      0x20\n      dup5\n      add\n      returndatacopy\n      jump(tag_168)\n    tag_169:\n      0x60\n      swap2\n      pop\n    tag_168:\n      pop\n        /* \"contracts/VendingMachine.sol\":5721:5774  (bool success, ) = msg.sender.call{value: amount}(\"\") */\n      pop\n      swap1\n      pop\n        /* \"contracts/VendingMachine.sol\":5792:5799  success */\n      dup1\n        /* \"contracts/VendingMachine.sol\":5784:5820  require(success, \"Transfer failed.\") */\n      tag_170\n      jumpi\n      mload(0x40)\n      0x08c379a000000000000000000000000000000000000000000000000000000000\n      dup2\n      mstore\n      0x04\n      add\n      tag_171\n      swap1\n      tag_172\n      jump\t// in\n    tag_171:\n      mload(0x40)\n      dup1\n      swap2\n      sub\n      swap1\n      revert\n    tag_170:\n        /* \"contracts/VendingMachine.sol\":5572:5827  {... */\n      pop\n      pop\n        /* \"contracts/VendingMachine.sol\":776:781  false */\n      0x00\n        /* \"contracts/VendingMachine.sol\":767:773  locked */\n      dup1\n      0x14\n        /* \"contracts/VendingMachine.sol\":767:781  locked = false */\n      0x0100\n      exp\n      dup2\n      sload\n      dup2\n      0xff\n      mul\n      not\n      and\n      swap1\n      dup4\n      iszero\n      iszero\n      mul\n      or\n      swap1\n      sstore\n      pop\n        /* \"contracts/VendingMachine.sol\":5523:5827  function withdraw() public onlyOwner noReentrant {... */\n      jump\t// out\n        /* \"contracts/VendingMachine.sol\":3221:3794  function getPurchases(address _buyer) public view onlyOwner returns (Purchase[] memory) {... */\n    tag_41:\n        /* \"contracts/VendingMachine.sol\":3290:3307  Purchase[] memory */\n      0x60\n        /* \"contracts/VendingMachine.sol\":590:595  owner */\n      0x00\n      dup1\n      sload\n      swap1\n      0x0100\n      exp\n      swap1\n      div\n      0xffffffffffffffffffffffffffffffffffffffff\n      and\n        /* \"contracts/VendingMachine.sol\":576:595  msg.sender == owner */\n      0xffffffffffffffffffffffffffffffffffffffff\n      and\n        /* \"contracts/VendingMachine.sol\":576:586  msg.sender */\n      caller\n        /* \"contracts/VendingMachine.sol\":576:595  msg.sender == owner */\n      0xffffffffffffffffffffffffffffffffffffffff\n      and\n      eq\n        /* \"contracts/VendingMachine.sol\":568:633  require(msg.sender == owner, \"Only owner can call this function\") */\n      tag_174\n      jumpi\n      mload(0x40)\n      0x08c379a000000000000000000000000000000000000000000000000000000000\n      dup2\n      mstore\n      0x04\n      add\n      tag_175\n      swap1\n      tag_79\n      jump\t// in\n    tag_175:\n      mload(0x40)\n      dup1\n      swap2\n      sub\n      swap1\n      revert\n    tag_174:\n        /* \"contracts/VendingMachine.sol\":3319:3350  Purchase[] memory userPurchases */\n      0x00\n        /* \"contracts/VendingMachine.sol\":3368:3377  purchases */\n      0x03\n        /* \"contracts/VendingMachine.sol\":3368:3384  purchases.length */\n      dup1\n      sload\n      swap1\n      pop\n        /* \"contracts/VendingMachine.sol\":3353:3385  new Purchase[](purchases.length) */\n      0xffffffffffffffff\n      dup2\n      gt\n      iszero\n      tag_177\n      jumpi\n      tag_178\n      tag_87\n      jump\t// in\n    tag_178:\n    tag_177:\n      mload(0x40)\n      swap1\n      dup1\n      dup3\n      mstore\n      dup1\n      0x20\n      mul\n      0x20\n      add\n      dup3\n      add\n      0x40\n      mstore\n      dup1\n      iszero\n      tag_179\n      jumpi\n      dup2\n      0x20\n      add\n    tag_180:\n      tag_181\n      tag_91\n      jump\t// in\n    tag_181:\n      dup2\n      mstore\n      0x20\n      add\n      swap1\n      0x01\n      swap1\n      sub\n      swap1\n      dup2\n      tag_180\n      jumpi\n      swap1\n      pop\n    tag_179:\n      pop\n        /* \"contracts/VendingMachine.sol\":3319:3385  Purchase[] memory userPurchases = new Purchase[](purchases.length) */\n      swap1\n      pop\n        /* \"contracts/VendingMachine.sol\":3395:3405  uint count */\n      0x00\n        /* \"contracts/VendingMachine.sol\":3424:3430  uint i */\n      dup1\n        /* \"contracts/VendingMachine.sol\":3419:3614  for (uint i = 0; i < purchases.length; i++) {... */\n    tag_182:\n        /* \"contracts/VendingMachine.sol\":3440:3449  purchases */\n      0x03\n        /* \"contracts/VendingMachine.sol\":3440:3456  purchases.length */\n      dup1\n      sload\n      swap1\n      pop\n        /* \"contracts/VendingMachine.sol\":3436:3437  i */\n      dup2\n        /* \"contracts/VendingMachine.sol\":3436:3456  i < purchases.length */\n      lt\n        /* \"contracts/VendingMachine.sol\":3419:3614  for (uint i = 0; i < purchases.length; i++) {... */\n      iszero\n      tag_183\n      jumpi\n        /* \"contracts/VendingMachine.sol\":3503:3509  _buyer */\n      dup5\n        /* \"contracts/VendingMachine.sol\":3481:3509  purchases[i].buyer == _buyer */\n      0xffffffffffffffffffffffffffffffffffffffff\n      and\n        /* \"contracts/VendingMachine.sol\":3481:3490  purchases */\n      0x03\n        /* \"contracts/VendingMachine.sol\":3491:3492  i */\n      dup3\n        /* \"contracts/VendingMachine.sol\":3481:3493  purchases[i] */\n      dup2\n      sload\n      dup2\n      lt\n      tag_185\n      jumpi\n      tag_186\n      tag_97\n      jump\t// in\n    tag_186:\n    tag_185:\n      swap1\n      0x00\n      mstore\n      keccak256(0x00, 0x20)\n      swap1\n      0x04\n      mul\n      add\n        /* \"contracts/VendingMachine.sol\":3481:3499  purchases[i].buyer */\n      0x00\n      add\n      0x00\n      swap1\n      sload\n      swap1\n      0x0100\n      exp\n      swap1\n      div\n      0xffffffffffffffffffffffffffffffffffffffff\n      and\n        /* \"contracts/VendingMachine.sol\":3481:3509  purchases[i].buyer == _buyer */\n      0xffffffffffffffffffffffffffffffffffffffff\n      and\n      sub\n        /* \"contracts/VendingMachine.sol\":3477:3604  if (purchases[i].buyer == _buyer) {... */\n      tag_188\n      jumpi\n        /* \"contracts/VendingMachine.sol\":3552:3561  purchases */\n      0x03\n        /* \"contracts/VendingMachine.sol\":3562:3563  i */\n      dup2\n        /* \"contracts/VendingMachine.sol\":3552:3564  purchases[i] */\n      dup2\n      sload\n      dup2\n      lt\n      tag_189\n      jumpi\n      tag_190\n      tag_97\n      jump\t// in\n    tag_190:\n    tag_189:\n      swap1\n      0x00\n      mstore\n      keccak256(0x00, 0x20)\n      swap1\n      0x04\n      mul\n      add\n        /* \"contracts/VendingMachine.sol\":3529:3564  userPurchases[count] = purchases[i] */\n      mload(0x40)\n      dup1\n      0x80\n      add\n      0x40\n      mstore\n      swap1\n      dup2\n      0x00\n      dup3\n      add\n      0x00\n      swap1\n      sload\n      swap1\n      0x0100\n      exp\n      swap1\n      div\n      0xffffffffffffffffffffffffffffffffffffffff\n      and\n      0xffffffffffffffffffffffffffffffffffffffff\n      and\n      0xffffffffffffffffffffffffffffffffffffffff\n      and\n      dup2\n      mstore\n      0x20\n      add\n      0x01\n      dup3\n      add\n      dup1\n      sload\n      tag_192\n      swap1\n      tag_66\n      jump\t// in\n    tag_192:\n      dup1\n      0x1f\n      add\n      0x20\n      dup1\n      swap2\n      div\n      mul\n      0x20\n      add\n      mload(0x40)\n      swap1\n      dup2\n      add\n      0x40\n      mstore\n      dup1\n      swap3\n      swap2\n      swap1\n      dup2\n      dup2\n      mstore\n      0x20\n      add\n      dup3\n      dup1\n      sload\n      tag_193\n      swap1\n      tag_66\n      jump\t// in\n    tag_193:\n      dup1\n      iszero\n      tag_194\n      jumpi\n      dup1\n      0x1f\n      lt\n      tag_195\n      jumpi\n      0x0100\n      dup1\n      dup4\n      sload\n      div\n      mul\n      dup4\n      mstore\n      swap2\n      0x20\n      add\n      swap2\n      jump(tag_194)\n    tag_195:\n      dup3\n      add\n      swap2\n      swap1\n      0x00\n      mstore\n      keccak256(0x00, 0x20)\n      swap1\n    tag_196:\n      dup2\n      sload\n      dup2\n      mstore\n      swap1\n      0x01\n      add\n      swap1\n      0x20\n      add\n      dup1\n      dup4\n      gt\n      tag_196\n      jumpi\n      dup3\n      swap1\n      sub\n      0x1f\n      and\n      dup3\n      add\n      swap2\n    tag_194:\n      pop\n      pop\n      pop\n      pop\n      pop\n      dup2\n      mstore\n      0x20\n      add\n      0x02\n      dup3\n      add\n      sload\n      dup2\n      mstore\n      0x20\n      add\n      0x03\n      dup3\n      add\n      0x00\n      swap1\n      sload\n      swap1\n      0x0100\n      exp\n      swap1\n      div\n      0xff\n      and\n      0x01\n      dup2\n      gt\n      iszero\n      tag_197\n      jumpi\n      tag_198\n      tag_102\n      jump\t// in\n    tag_198:\n    tag_197:\n      0x01\n      dup2\n      gt\n      iszero\n      tag_199\n      jumpi\n      tag_200\n      tag_102\n      jump\t// in\n    tag_200:\n    tag_199:\n      dup2\n      mstore\n      pop\n      pop\n        /* \"contracts/VendingMachine.sol\":3529:3542  userPurchases */\n      dup4\n        /* \"contracts/VendingMachine.sol\":3543:3548  count */\n      dup4\n        /* \"contracts/VendingMachine.sol\":3529:3549  userPurchases[count] */\n      dup2\n      mload\n      dup2\n      lt\n      tag_201\n      jumpi\n      tag_202\n      tag_97\n      jump\t// in\n    tag_202:\n    tag_201:\n      0x20\n      mul\n      0x20\n      add\n      add\n        /* \"contracts/VendingMachine.sol\":3529:3564  userPurchases[count] = purchases[i] */\n      dup2\n      swap1\n      mstore\n      pop\n        /* \"contracts/VendingMachine.sol\":3582:3589  count++ */\n      dup2\n      dup1\n      tag_203\n      swap1\n      tag_124\n      jump\t// in\n    tag_203:\n      swap3\n      pop\n      pop\n        /* \"contracts/VendingMachine.sol\":3477:3604  if (purchases[i].buyer == _buyer) {... */\n    tag_188:\n        /* \"contracts/VendingMachine.sol\":3458:3461  i++ */\n      dup1\n      dup1\n      0x01\n      add\n      swap2\n      pop\n      pop\n        /* \"contracts/VendingMachine.sol\":3419:3614  for (uint i = 0; i < purchases.length; i++) {... */\n      jump(tag_182)\n    tag_183:\n      pop\n        /* \"contracts/VendingMachine.sol\":3623:3647  Purchase[] memory result */\n      0x00\n        /* \"contracts/VendingMachine.sol\":3665:3670  count */\n      dup2\n        /* \"contracts/VendingMachine.sol\":3650:3671  new Purchase[](count) */\n      0xffffffffffffffff\n      dup2\n      gt\n      iszero\n      tag_204\n      jumpi\n      tag_205\n      tag_87\n      jump\t// in\n    tag_205:\n    tag_204:\n      mload(0x40)\n      swap1\n      dup1\n      dup3\n      mstore\n      dup1\n      0x20\n      mul\n      0x20\n      add\n      dup3\n      add\n      0x40\n      mstore\n      dup1\n      iszero\n      tag_206\n      jumpi\n      dup2\n      0x20\n      add\n    tag_207:\n      tag_208\n      tag_91\n      jump\t// in\n    tag_208:\n      dup2\n      mstore\n      0x20\n      add\n      swap1\n      0x01\n      swap1\n      sub\n      swap1\n      dup2\n      tag_207\n      jumpi\n      swap1\n      pop\n    tag_206:\n      pop\n        /* \"contracts/VendingMachine.sol\":3623:3671  Purchase[] memory result = new Purchase[](count) */\n      swap1\n      pop\n        /* \"contracts/VendingMachine.sol\":3685:3691  uint i */\n      0x00\n        /* \"contracts/VendingMachine.sol\":3681:3765  for(uint i = 0; i < count; i++){... */\n    tag_209:\n        /* \"contracts/VendingMachine.sol\":3701:3706  count */\n      dup3\n        /* \"contracts/VendingMachine.sol\":3697:3698  i */\n      dup2\n        /* \"contracts/VendingMachine.sol\":3697:3706  i < count */\n      lt\n        /* \"contracts/VendingMachine.sol\":3681:3765  for(uint i = 0; i < count; i++){... */\n      iszero\n      tag_210\n      jumpi\n        /* \"contracts/VendingMachine.sol\":3738:3751  userPurchases */\n      dup4\n        /* \"contracts/VendingMachine.sol\":3752:3753  i */\n      dup2\n        /* \"contracts/VendingMachine.sol\":3738:3754  userPurchases[i] */\n      dup2\n      mload\n      dup2\n      lt\n      tag_212\n      jumpi\n      tag_213\n      tag_97\n      jump\t// in\n    tag_213:\n    tag_212:\n      0x20\n      mul\n      0x20\n      add\n      add\n      mload\n        /* \"contracts/VendingMachine.sol\":3726:3732  result */\n      dup3\n        /* \"contracts/VendingMachine.sol\":3733:3734  i */\n      dup3\n        /* \"contracts/VendingMachine.sol\":3726:3735  result[i] */\n      dup2\n      mload\n      dup2\n      lt\n      tag_214\n      jumpi\n      tag_215\n      tag_97\n      jump\t// in\n    tag_215:\n    tag_214:\n      0x20\n      mul\n      0x20\n      add\n      add\n        /* \"contracts/VendingMachine.sol\":3726:3754  result[i] = userPurchases[i] */\n      dup2\n      swap1\n      mstore\n      pop\n        /* \"contracts/VendingMachine.sol\":3708:3711  i++ */\n      dup1\n      dup1\n      0x01\n      add\n      swap2\n      pop\n      pop\n        /* \"contracts/VendingMachine.sol\":3681:3765  for(uint i = 0; i < count; i++){... */\n      jump(tag_209)\n    tag_210:\n      pop\n        /* \"contracts/VendingMachine.sol\":3781:3787  result */\n      dup1\n        /* \"contracts/VendingMachine.sol\":3774:3787  return result */\n      swap4\n      pop\n      pop\n      pop\n      pop\n        /* \"contracts/VendingMachine.sol\":3221:3794  function getPurchases(address _buyer) public view onlyOwner returns (Purchase[] memory) {... */\n      swap2\n      swap1\n      pop\n      jump\t// out\n        /* \"contracts/VendingMachine.sol\":4872:5517  function getConsumedPurchases(address _buyer) public view onlyOwner returns (Purchase[] memory) {... */\n    tag_46:\n        /* \"contracts/VendingMachine.sol\":4949:4966  Purchase[] memory */\n      0x60\n        /* \"contracts/VendingMachine.sol\":590:595  owner */\n      0x00\n      dup1\n      sload\n      swap1\n      0x0100\n      exp\n      swap1\n      div\n      0xffffffffffffffffffffffffffffffffffffffff\n      and\n        /* \"contracts/VendingMachine.sol\":576:595  msg.sender == owner */\n      0xffffffffffffffffffffffffffffffffffffffff\n      and\n        /* \"contracts/VendingMachine.sol\":576:586  msg.sender */\n      caller\n        /* \"contracts/VendingMachine.sol\":576:595  msg.sender == owner */\n      0xffffffffffffffffffffffffffffffffffffffff\n      and\n      eq\n        /* \"contracts/VendingMachine.sol\":568:633  require(msg.sender == owner, \"Only owner can call this function\") */\n      tag_217\n      jumpi\n      mload(0x40)\n      0x08c379a000000000000000000000000000000000000000000000000000000000\n      dup2\n      mstore\n      0x04\n      add\n      tag_218\n      swap1\n      tag_79\n      jump\t// in\n    tag_218:\n      mload(0x40)\n      dup1\n      swap2\n      sub\n      swap1\n      revert\n    tag_217:\n        /* \"contracts/VendingMachine.sol\":4978:5013  Purchase[] memory consumedPurchases */\n      0x00\n        /* \"contracts/VendingMachine.sol\":5031:5040  purchases */\n      0x03\n        /* \"contracts/VendingMachine.sol\":5031:5047  purchases.length */\n      dup1\n      sload\n      swap1\n      pop\n        /* \"contracts/VendingMachine.sol\":5016:5048  new Purchase[](purchases.length) */\n      0xffffffffffffffff\n      dup2\n      gt\n      iszero\n      tag_220\n      jumpi\n      tag_221\n      tag_87\n      jump\t// in\n    tag_221:\n    tag_220:\n      mload(0x40)\n      swap1\n      dup1\n      dup3\n      mstore\n      dup1\n      0x20\n      mul\n      0x20\n      add\n      dup3\n      add\n      0x40\n      mstore\n      dup1\n      iszero\n      tag_222\n      jumpi\n      dup2\n      0x20\n      add\n    tag_223:\n      tag_224\n      tag_91\n      jump\t// in\n    tag_224:\n      dup2\n      mstore\n      0x20\n      add\n      swap1\n      0x01\n      swap1\n      sub\n      swap1\n      dup2\n      tag_223\n      jumpi\n      swap1\n      pop\n    tag_222:\n      pop\n        /* \"contracts/VendingMachine.sol\":4978:5048  Purchase[] memory consumedPurchases = new Purchase[](purchases.length) */\n      swap1\n      pop\n        /* \"contracts/VendingMachine.sol\":5058:5068  uint count */\n      0x00\n        /* \"contracts/VendingMachine.sol\":5087:5093  uint i */\n      dup1\n        /* \"contracts/VendingMachine.sol\":5082:5331  for (uint i = 0; i < purchases.length; i++) {... */\n    tag_225:\n        /* \"contracts/VendingMachine.sol\":5103:5112  purchases */\n      0x03\n        /* \"contracts/VendingMachine.sol\":5103:5119  purchases.length */\n      dup1\n      sload\n      swap1\n      pop\n        /* \"contracts/VendingMachine.sol\":5099:5100  i */\n      dup2\n        /* \"contracts/VendingMachine.sol\":5099:5119  i < purchases.length */\n      lt\n        /* \"contracts/VendingMachine.sol\":5082:5331  for (uint i = 0; i < purchases.length; i++) {... */\n      iszero\n      tag_226\n      jumpi\n        /* \"contracts/VendingMachine.sol\":5166:5172  _buyer */\n      dup5\n        /* \"contracts/VendingMachine.sol\":5144:5172  purchases[i].buyer == _buyer */\n      0xffffffffffffffffffffffffffffffffffffffff\n      and\n        /* \"contracts/VendingMachine.sol\":5144:5153  purchases */\n      0x03\n        /* \"contracts/VendingMachine.sol\":5154:5155  i */\n      dup3\n        /* \"contracts/VendingMachine.sol\":5144:5156  purchases[i] */\n      dup2\n      sload\n      dup2\n      lt\n      tag_228\n      jumpi\n      tag_229\n      tag_97\n      jump\t// in\n    tag_229:\n    tag_228:\n      swap1\n      0x00\n      mstore\n      keccak256(0x00, 0x20)\n      swap1\n      0x04\n      mul\n      add\n        /* \"contracts/VendingMachine.sol\":5144:5162  purchases[i].buyer */\n      0x00\n      add\n      0x00\n      swap1\n      sload\n      swap1\n      0x0100\n      exp\n      swap1\n      div\n      0xffffffffffffffffffffffffffffffffffffffff\n      and\n        /* \"contracts/VendingMachine.sol\":5144:5172  purchases[i].buyer == _buyer */\n      0xffffffffffffffffffffffffffffffffffffffff\n      and\n      eq\n        /* \"contracts/VendingMachine.sol\":5144:5222  purchases[i].buyer == _buyer && purchases[i].status == PurchaseStatus.Consumed */\n      dup1\n      iszero\n      tag_231\n      jumpi\n      pop\n        /* \"contracts/VendingMachine.sol\":5199:5222  PurchaseStatus.Consumed */\n      0x01\n        /* \"contracts/VendingMachine.sol\":5176:5222  purchases[i].status == PurchaseStatus.Consumed */\n      dup1\n      dup2\n      gt\n      iszero\n      tag_232\n      jumpi\n      tag_233\n      tag_102\n      jump\t// in\n    tag_233:\n    tag_232:\n        /* \"contracts/VendingMachine.sol\":5176:5185  purchases */\n      0x03\n        /* \"contracts/VendingMachine.sol\":5186:5187  i */\n      dup3\n        /* \"contracts/VendingMachine.sol\":5176:5188  purchases[i] */\n      dup2\n      sload\n      dup2\n      lt\n      tag_234\n      jumpi\n      tag_235\n      tag_97\n      jump\t// in\n    tag_235:\n    tag_234:\n      swap1\n      0x00\n      mstore\n      keccak256(0x00, 0x20)\n      swap1\n      0x04\n      mul\n      add\n        /* \"contracts/VendingMachine.sol\":5176:5195  purchases[i].status */\n      0x03\n      add\n      0x00\n      swap1\n      sload\n      swap1\n      0x0100\n      exp\n      swap1\n      div\n      0xff\n      and\n        /* \"contracts/VendingMachine.sol\":5176:5222  purchases[i].status == PurchaseStatus.Consumed */\n      0x01\n      dup2\n      gt\n      iszero\n      tag_237\n      jumpi\n      tag_238\n      tag_102\n      jump\t// in\n    tag_238:\n    tag_237:\n      eq\n        /* \"contracts/VendingMachine.sol\":5144:5222  purchases[i].buyer == _buyer && purchases[i].status == PurchaseStatus.Consumed */\n    tag_231:\n        /* \"contracts/VendingMachine.sol\":5140:5321  if (purchases[i].buyer == _buyer && purchases[i].status == PurchaseStatus.Consumed) {... */\n      iszero\n      tag_239\n      jumpi\n        /* \"contracts/VendingMachine.sol\":5269:5278  purchases */\n      0x03\n        /* \"contracts/VendingMachine.sol\":5279:5280  i */\n      dup2\n        /* \"contracts/VendingMachine.sol\":5269:5281  purchases[i] */\n      dup2\n      sload\n      dup2\n      lt\n      tag_240\n      jumpi\n      tag_241\n      tag_97\n      jump\t// in\n    tag_241:\n    tag_240:\n      swap1\n      0x00\n      mstore\n      keccak256(0x00, 0x20)\n      swap1\n      0x04\n      mul\n      add\n        /* \"contracts/VendingMachine.sol\":5242:5281  consumedPurchases[count] = purchases[i] */\n      mload(0x40)\n      dup1\n      0x80\n      add\n      0x40\n      mstore\n      swap1\n      dup2\n      0x00\n      dup3\n      add\n      0x00\n      swap1\n      sload\n      swap1\n      0x0100\n      exp\n      swap1\n      div\n      0xffffffffffffffffffffffffffffffffffffffff\n      and\n      0xffffffffffffffffffffffffffffffffffffffff\n      and\n      0xffffffffffffffffffffffffffffffffffffffff\n      and\n      dup2\n      mstore\n      0x20\n      add\n      0x01\n      dup3\n      add\n      dup1\n      sload\n      tag_243\n      swap1\n      tag_66\n      jump\t// in\n    tag_243:\n      dup1\n      0x1f\n      add\n      0x20\n      dup1\n      swap2\n      div\n      mul\n      0x20\n      add\n      mload(0x40)\n      swap1\n      dup2\n      add\n      0x40\n      mstore\n      dup1\n      swap3\n      swap2\n      swap1\n      dup2\n      dup2\n      mstore\n      0x20\n      add\n      dup3\n      dup1\n      sload\n      tag_244\n      swap1\n      tag_66\n      jump\t// in\n    tag_244:\n      dup1\n      iszero\n      tag_245\n      jumpi\n      dup1\n      0x1f\n      lt\n      tag_246\n      jumpi\n      0x0100\n      dup1\n      dup4\n      sload\n      div\n      mul\n      dup4\n      mstore\n      swap2\n      0x20\n      add\n      swap2\n      jump(tag_245)\n    tag_246:\n      dup3\n      add\n      swap2\n      swap1\n      0x00\n      mstore\n      keccak256(0x00, 0x20)\n      swap1\n    tag_247:\n      dup2\n      sload\n      dup2\n      mstore\n      swap1\n      0x01\n      add\n      swap1\n      0x20\n      add\n      dup1\n      dup4\n      gt\n      tag_247\n      jumpi\n      dup3\n      swap1\n      sub\n      0x1f\n      and\n      dup3\n      add\n      swap2\n    tag_245:\n      pop\n      pop\n      pop\n      pop\n      pop\n      dup2\n      mstore\n      0x20\n      add\n      0x02\n      dup3\n      add\n      sload\n      dup2\n      mstore\n      0x20\n      add\n      0x03\n      dup3\n      add\n      0x00\n      swap1\n      sload\n      swap1\n      0x0100\n      exp\n      swap1\n      div\n      0xff\n      and\n      0x01\n      dup2\n      gt\n      iszero\n      tag_248\n      jumpi\n      tag_249\n      tag_102\n      jump\t// in\n    tag_249:\n    tag_248:\n      0x01\n      dup2\n      gt\n      iszero\n      tag_250\n      jumpi\n      tag_251\n      tag_102\n      jump\t// in\n    tag_251:\n    tag_250:\n      dup2\n      mstore\n      pop\n      pop\n        /* \"contracts/VendingMachine.sol\":5242:5259  consumedPurchases */\n      dup4\n        /* \"contracts/VendingMachine.sol\":5260:5265  count */\n      dup4\n        /* \"contracts/VendingMachine.sol\":5242:5266  consumedPurchases[count] */\n      dup2\n      mload\n      dup2\n      lt\n      tag_252\n      jumpi\n      tag_253\n      tag_97\n      jump\t// in\n    tag_253:\n    tag_252:\n      0x20\n      mul\n      0x20\n      add\n      add\n        /* \"contracts/VendingMachine.sol\":5242:5281  consumedPurchases[count] = purchases[i] */\n      dup2\n      swap1\n      mstore\n      pop\n        /* \"contracts/VendingMachine.sol\":5299:5306  count++ */\n      dup2\n      dup1\n      tag_254\n      swap1\n      tag_124\n      jump\t// in\n    tag_254:\n      swap3\n      pop\n      pop\n        /* \"contracts/VendingMachine.sol\":5140:5321  if (purchases[i].buyer == _buyer && purchases[i].status == PurchaseStatus.Consumed) {... */\n    tag_239:\n        /* \"contracts/VendingMachine.sol\":5121:5124  i++ */\n      dup1\n      dup1\n      0x01\n      add\n      swap2\n      pop\n      pop\n        /* \"contracts/VendingMachine.sol\":5082:5331  for (uint i = 0; i < purchases.length; i++) {... */\n      jump(tag_225)\n    tag_226:\n      pop\n        /* \"contracts/VendingMachine.sol\":5340:5364  Purchase[] memory result */\n      0x00\n        /* \"contracts/VendingMachine.sol\":5382:5387  count */\n      dup2\n        /* \"contracts/VendingMachine.sol\":5367:5388  new Purchase[](count) */\n      0xffffffffffffffff\n      dup2\n      gt\n      iszero\n      tag_255\n      jumpi\n      tag_256\n      tag_87\n      jump\t// in\n    tag_256:\n    tag_255:\n      mload(0x40)\n      swap1\n      dup1\n      dup3\n      mstore\n      dup1\n      0x20\n      mul\n      0x20\n      add\n      dup3\n      add\n      0x40\n      mstore\n      dup1\n      iszero\n      tag_257\n      jumpi\n      dup2\n      0x20\n      add\n    tag_258:\n      tag_259\n      tag_91\n      jump\t// in\n    tag_259:\n      dup2\n      mstore\n      0x20\n      add\n      swap1\n      0x01\n      swap1\n      sub\n      swap1\n      dup2\n      tag_258\n      jumpi\n      swap1\n      pop\n    tag_257:\n      pop\n        /* \"contracts/VendingMachine.sol\":5340:5388  Purchase[] memory result = new Purchase[](count) */\n      swap1\n      pop\n        /* \"contracts/VendingMachine.sol\":5403:5409  uint i */\n      0x00\n        /* \"contracts/VendingMachine.sol\":5398:5488  for (uint i = 0; i < count; i++) {... */\n    tag_260:\n        /* \"contracts/VendingMachine.sol\":5419:5424  count */\n      dup3\n        /* \"contracts/VendingMachine.sol\":5415:5416  i */\n      dup2\n        /* \"contracts/VendingMachine.sol\":5415:5424  i < count */\n      lt\n        /* \"contracts/VendingMachine.sol\":5398:5488  for (uint i = 0; i < count; i++) {... */\n      iszero\n      tag_261\n      jumpi\n        /* \"contracts/VendingMachine.sol\":5457:5474  consumedPurchases */\n      dup4\n        /* \"contracts/VendingMachine.sol\":5475:5476  i */\n      dup2\n        /* \"contracts/VendingMachine.sol\":5457:5477  consumedPurchases[i] */\n      dup2\n      mload\n      dup2\n      lt\n      tag_263\n      jumpi\n      tag_264\n      tag_97\n      jump\t// in\n    tag_264:\n    tag_263:\n      0x20\n      mul\n      0x20\n      add\n      add\n      mload\n        /* \"contracts/VendingMachine.sol\":5445:5451  result */\n      dup3\n        /* \"contracts/VendingMachine.sol\":5452:5453  i */\n      dup3\n        /* \"contracts/VendingMachine.sol\":5445:5454  result[i] */\n      dup2\n      mload\n      dup2\n      lt\n      tag_265\n      jumpi\n      tag_266\n      tag_97\n      jump\t// in\n    tag_266:\n    tag_265:\n      0x20\n      mul\n      0x20\n      add\n      add\n        /* \"contracts/VendingMachine.sol\":5445:5477  result[i] = consumedPurchases[i] */\n      dup2\n      swap1\n      mstore\n      pop\n        /* \"contracts/VendingMachine.sol\":5426:5429  i++ */\n      dup1\n      dup1\n      0x01\n      add\n      swap2\n      pop\n      pop\n        /* \"contracts/VendingMachine.sol\":5398:5488  for (uint i = 0; i < count; i++) {... */\n      jump(tag_260)\n    tag_261:\n      pop\n        /* \"contracts/VendingMachine.sol\":5504:5510  result */\n      dup1\n        /* \"contracts/VendingMachine.sol\":5497:5510  return result */\n      swap4\n      pop\n      pop\n      pop\n      pop\n        /* \"contracts/VendingMachine.sol\":4872:5517  function getConsumedPurchases(address _buyer) public view onlyOwner returns (Purchase[] memory) {... */\n      swap2\n      swap1\n      pop\n      jump\t// out\n        /* \"contracts/VendingMachine.sol\":2578:2732  function addFunds() public onlyOwner payable {... */\n    tag_49:\n        /* \"contracts/VendingMachine.sol\":590:595  owner */\n      0x00\n      dup1\n      sload\n      swap1\n      0x0100\n      exp\n      swap1\n      div\n      0xffffffffffffffffffffffffffffffffffffffff\n      and\n        /* \"contracts/VendingMachine.sol\":576:595  msg.sender == owner */\n      0xffffffffffffffffffffffffffffffffffffffff\n      and\n        /* \"contracts/VendingMachine.sol\":576:586  msg.sender */\n      caller\n        /* \"contracts/VendingMachine.sol\":576:595  msg.sender == owner */\n      0xffffffffffffffffffffffffffffffffffffffff\n      and\n      eq\n        /* \"contracts/VendingMachine.sol\":568:633  require(msg.sender == owner, \"Only owner can call this function\") */\n      tag_268\n      jumpi\n      mload(0x40)\n      0x08c379a000000000000000000000000000000000000000000000000000000000\n      dup2\n      mstore\n      0x04\n      add\n      tag_269\n      swap1\n      tag_79\n      jump\t// in\n    tag_269:\n      mload(0x40)\n      dup1\n      swap2\n      sub\n      swap1\n      revert\n    tag_268:\n        /* \"contracts/VendingMachine.sol\":2653:2654  0 */\n      0x00\n        /* \"contracts/VendingMachine.sol\":2641:2650  msg.value */\n      callvalue\n        /* \"contracts/VendingMachine.sol\":2641:2654  msg.value > 0 */\n      gt\n        /* \"contracts/VendingMachine.sol\":2633:2682  require(msg.value > 0, \"Missing required amount\") */\n      tag_271\n      jumpi\n      mload(0x40)\n      0x08c379a000000000000000000000000000000000000000000000000000000000\n      dup2\n      mstore\n      0x04\n      add\n      tag_272\n      swap1\n      tag_273\n      jump\t// in\n    tag_272:\n      mload(0x40)\n      dup1\n      swap2\n      sub\n      swap1\n      revert\n    tag_271:\n        /* \"contracts/VendingMachine.sol\":2716:2725  msg.value */\n      callvalue\n        /* \"contracts/VendingMachine.sol\":2692:2700  balances */\n      0x02\n        /* \"contracts/VendingMachine.sol\":2692:2712  balances[msg.sender] */\n      0x00\n        /* \"contracts/VendingMachine.sol\":2701:2711  msg.sender */\n      caller\n        /* \"contracts/VendingMachine.sol\":2692:2712  balances[msg.sender] */\n      0xffffffffffffffffffffffffffffffffffffffff\n      and\n      0xffffffffffffffffffffffffffffffffffffffff\n      and\n      dup2\n      mstore\n      0x20\n      add\n      swap1\n      dup2\n      mstore\n      0x20\n      add\n      0x00\n      keccak256\n      0x00\n        /* \"contracts/VendingMachine.sol\":2692:2725  balances[msg.sender] += msg.value */\n      dup3\n      dup3\n      sload\n      tag_274\n      swap2\n      swap1\n      tag_275\n      jump\t// in\n    tag_274:\n      swap3\n      pop\n      pop\n      dup2\n      swap1\n      sstore\n      pop\n        /* \"contracts/VendingMachine.sol\":2578:2732  function addFunds() public onlyOwner payable {... */\n      jump\t// out\n        /* \"contracts/VendingMachine.sol\":3800:4210  function consumePurchase(uint _purchaseIndex) public onlyOwner {... */\n    tag_54:\n        /* \"contracts/VendingMachine.sol\":590:595  owner */\n      0x00\n      dup1\n      sload\n      swap1\n      0x0100\n      exp\n      swap1\n      div\n      0xffffffffffffffffffffffffffffffffffffffff\n      and\n        /* \"contracts/VendingMachine.sol\":576:595  msg.sender == owner */\n      0xffffffffffffffffffffffffffffffffffffffff\n      and\n        /* \"contracts/VendingMachine.sol\":576:586  msg.sender */\n      caller\n        /* \"contracts/VendingMachine.sol\":576:595  msg.sender == owner */\n      0xffffffffffffffffffffffffffffffffffffffff\n      and\n      eq\n        /* \"contracts/VendingMachine.sol\":568:633  require(msg.sender == owner, \"Only owner can call this function\") */\n      tag_277\n      jumpi\n      mload(0x40)\n      0x08c379a000000000000000000000000000000000000000000000000000000000\n      dup2\n      mstore\n      0x04\n      add\n      tag_278\n      swap1\n      tag_79\n      jump\t// in\n    tag_278:\n      mload(0x40)\n      dup1\n      swap2\n      sub\n      swap1\n      revert\n    tag_277:\n        /* \"contracts/VendingMachine.sol\":3898:3907  purchases */\n      0x03\n        /* \"contracts/VendingMachine.sol\":3898:3914  purchases.length */\n      dup1\n      sload\n      swap1\n      pop\n        /* \"contracts/VendingMachine.sol\":3881:3895  _purchaseIndex */\n      dup2\n        /* \"contracts/VendingMachine.sol\":3881:3914  _purchaseIndex < purchases.length */\n      lt\n        /* \"contracts/VendingMachine.sol\":3873:3941  require(_purchaseIndex < purchases.length, \"Invalid purchase index\") */\n      tag_280\n      jumpi\n      mload(0x40)\n      0x08c379a000000000000000000000000000000000000000000000000000000000\n      dup2\n      mstore\n      0x04\n      add\n      tag_281\n      swap1\n      tag_282\n      jump\t// in\n    tag_281:\n      mload(0x40)\n      dup1\n      swap2\n      sub\n      swap1\n      revert\n    tag_280:\n        /* \"contracts/VendingMachine.sol\":3994:4004  msg.sender */\n      caller\n        /* \"contracts/VendingMachine.sol\":3959:4004  purchases[_purchaseIndex].buyer == msg.sender */\n      0xffffffffffffffffffffffffffffffffffffffff\n      and\n        /* \"contracts/VendingMachine.sol\":3959:3968  purchases */\n      0x03\n        /* \"contracts/VendingMachine.sol\":3969:3983  _purchaseIndex */\n      dup3\n        /* \"contracts/VendingMachine.sol\":3959:3984  purchases[_purchaseIndex] */\n      dup2\n      sload\n      dup2\n      lt\n      tag_283\n      jumpi\n      tag_284\n      tag_97\n      jump\t// in\n    tag_284:\n    tag_283:\n      swap1\n      0x00\n      mstore\n      keccak256(0x00, 0x20)\n      swap1\n      0x04\n      mul\n      add\n        /* \"contracts/VendingMachine.sol\":3959:3990  purchases[_purchaseIndex].buyer */\n      0x00\n      add\n      0x00\n      swap1\n      sload\n      swap1\n      0x0100\n      exp\n      swap1\n      div\n      0xffffffffffffffffffffffffffffffffffffffff\n      and\n        /* \"contracts/VendingMachine.sol\":3959:4004  purchases[_purchaseIndex].buyer == msg.sender */\n      0xffffffffffffffffffffffffffffffffffffffff\n      and\n      eq\n        /* \"contracts/VendingMachine.sol\":3951:4026  require(purchases[_purchaseIndex].buyer == msg.sender, \"Not your purchase\") */\n      tag_286\n      jumpi\n      mload(0x40)\n      0x08c379a000000000000000000000000000000000000000000000000000000000\n      dup2\n      mstore\n      0x04\n      add\n      tag_287\n      swap1\n      tag_288\n      jump\t// in\n    tag_287:\n      mload(0x40)\n      dup1\n      swap2\n      sub\n      swap1\n      revert\n    tag_286:\n        /* \"contracts/VendingMachine.sol\":4080:4104  PurchaseStatus.Available */\n      0x00\n        /* \"contracts/VendingMachine.sol\":4044:4104  purchases[_purchaseIndex].status == PurchaseStatus.Available */\n      0x01\n      dup2\n      gt\n      iszero\n      tag_289\n      jumpi\n      tag_290\n      tag_102\n      jump\t// in\n    tag_290:\n    tag_289:\n        /* \"contracts/VendingMachine.sol\":4044:4053  purchases */\n      0x03\n        /* \"contracts/VendingMachine.sol\":4054:4068  _purchaseIndex */\n      dup3\n        /* \"contracts/VendingMachine.sol\":4044:4069  purchases[_purchaseIndex] */\n      dup2\n      sload\n      dup2\n      lt\n      tag_291\n      jumpi\n      tag_292\n      tag_97\n      jump\t// in\n    tag_292:\n    tag_291:\n      swap1\n      0x00\n      mstore\n      keccak256(0x00, 0x20)\n      swap1\n      0x04\n      mul\n      add\n        /* \"contracts/VendingMachine.sol\":4044:4076  purchases[_purchaseIndex].status */\n      0x03\n      add\n      0x00\n      swap1\n      sload\n      swap1\n      0x0100\n      exp\n      swap1\n      div\n      0xff\n      and\n        /* \"contracts/VendingMachine.sol\":4044:4104  purchases[_purchaseIndex].status == PurchaseStatus.Available */\n      0x01\n      dup2\n      gt\n      iszero\n      tag_294\n      jumpi\n      tag_295\n      tag_102\n      jump\t// in\n    tag_295:\n    tag_294:\n      eq\n        /* \"contracts/VendingMachine.sol\":4036:4134  require(purchases[_purchaseIndex].status == PurchaseStatus.Available, \"Purchase already consumed\") */\n      tag_296\n      jumpi\n      mload(0x40)\n      0x08c379a000000000000000000000000000000000000000000000000000000000\n      dup2\n      mstore\n      0x04\n      add\n      tag_297\n      swap1\n      tag_298\n      jump\t// in\n    tag_297:\n      mload(0x40)\n      dup1\n      swap2\n      sub\n      swap1\n      revert\n    tag_296:\n        /* \"contracts/VendingMachine.sol\":4180:4203  PurchaseStatus.Consumed */\n      0x01\n        /* \"contracts/VendingMachine.sol\":4145:4154  purchases */\n      0x03\n        /* \"contracts/VendingMachine.sol\":4155:4169  _purchaseIndex */\n      dup3\n        /* \"contracts/VendingMachine.sol\":4145:4170  purchases[_purchaseIndex] */\n      dup2\n      sload\n      dup2\n      lt\n      tag_299\n      jumpi\n      tag_300\n      tag_97\n      jump\t// in\n    tag_300:\n    tag_299:\n      swap1\n      0x00\n      mstore\n      keccak256(0x00, 0x20)\n      swap1\n      0x04\n      mul\n      add\n        /* \"contracts/VendingMachine.sol\":4145:4177  purchases[_purchaseIndex].status */\n      0x03\n      add\n      0x00\n        /* \"contracts/VendingMachine.sol\":4145:4203  purchases[_purchaseIndex].status = PurchaseStatus.Consumed */\n      0x0100\n      exp\n      dup2\n      sload\n      dup2\n      0xff\n      mul\n      not\n      and\n      swap1\n      dup4\n      0x01\n      dup2\n      gt\n      iszero\n      tag_302\n      jumpi\n      tag_303\n      tag_102\n      jump\t// in\n    tag_303:\n    tag_302:\n      mul\n      or\n      swap1\n      sstore\n      pop\n        /* \"contracts/VendingMachine.sol\":3800:4210  function consumePurchase(uint _purchaseIndex) public onlyOwner {... */\n      pop\n      jump\t// out\n        /* \"contracts/VendingMachine.sol\":2113:2469  function getProductByCode(string memory _productId) public view returns (Product memory) {... */\n    tag_58:\n        /* \"contracts/VendingMachine.sol\":2186:2200  Product memory */\n      tag_304\n      tag_305\n      jump\t// in\n    tag_304:\n        /* \"contracts/VendingMachine.sol\":2218:2224  uint i */\n      0x00\n        /* \"contracts/VendingMachine.sol\":2213:2426  for (uint i = 0; i < products.length; i++) {... */\n    tag_307:\n        /* \"contracts/VendingMachine.sol\":2234:2242  products */\n      0x01\n        /* \"contracts/VendingMachine.sol\":2234:2249  products.length */\n      dup1\n      sload\n      swap1\n      pop\n        /* \"contracts/VendingMachine.sol\":2230:2231  i */\n      dup2\n        /* \"contracts/VendingMachine.sol\":2230:2249  i < products.length */\n      lt\n        /* \"contracts/VendingMachine.sol\":2213:2426  for (uint i = 0; i < products.length; i++) {... */\n      iszero\n      tag_308\n      jumpi\n        /* \"contracts/VendingMachine.sol\":2350:2360  _productId */\n      dup3\n        /* \"contracts/VendingMachine.sol\":2333:2361  abi.encodePacked(_productId) */\n      add(0x20, mload(0x40))\n      tag_310\n      swap2\n      swap1\n      tag_311\n      jump\t// in\n    tag_310:\n      mload(0x40)\n      0x20\n      dup2\n      dup4\n      sub\n      sub\n      dup2\n      mstore\n      swap1\n      0x40\n      mstore\n        /* \"contracts/VendingMachine.sol\":2323:2362  keccak256(abi.encodePacked(_productId)) */\n      dup1\n      mload\n      swap1\n      0x20\n      add\n      keccak256\n        /* \"contracts/VendingMachine.sol\":2301:2309  products */\n      0x01\n        /* \"contracts/VendingMachine.sol\":2310:2311  i */\n      dup3\n        /* \"contracts/VendingMachine.sol\":2301:2312  products[i] */\n      dup2\n      sload\n      dup2\n      lt\n      tag_312\n      jumpi\n      tag_313\n      tag_97\n      jump\t// in\n    tag_313:\n    tag_312:\n      swap1\n      0x00\n      mstore\n      keccak256(0x00, 0x20)\n      swap1\n      0x03\n      mul\n      add\n        /* \"contracts/VendingMachine.sol\":2301:2317  products[i].code */\n      0x00\n      add\n        /* \"contracts/VendingMachine.sol\":2284:2318  abi.encodePacked(products[i].code) */\n      add(0x20, mload(0x40))\n      tag_315\n      swap2\n      swap1\n      tag_316\n      jump\t// in\n    tag_315:\n      mload(0x40)\n      0x20\n      dup2\n      dup4\n      sub\n      sub\n      dup2\n      mstore\n      swap1\n      0x40\n      mstore\n        /* \"contracts/VendingMachine.sol\":2274:2319  keccak256(abi.encodePacked(products[i].code)) */\n      dup1\n      mload\n      swap1\n      0x20\n      add\n      keccak256\n        /* \"contracts/VendingMachine.sol\":2274:2362  keccak256(abi.encodePacked(products[i].code)) == keccak256(abi.encodePacked(_productId)) */\n      sub\n        /* \"contracts/VendingMachine.sol\":2270:2416  if (keccak256(abi.encodePacked(products[i].code)) == keccak256(abi.encodePacked(_productId))) {... */\n      tag_317\n      jumpi\n        /* \"contracts/VendingMachine.sol\":2389:2397  products */\n      0x01\n        /* \"contracts/VendingMachine.sol\":2398:2399  i */\n      dup2\n        /* \"contracts/VendingMachine.sol\":2389:2400  products[i] */\n      dup2\n      sload\n      dup2\n      lt\n      tag_318\n      jumpi\n      tag_319\n      tag_97\n      jump\t// in\n    tag_319:\n    tag_318:\n      swap1\n      0x00\n      mstore\n      keccak256(0x00, 0x20)\n      swap1\n      0x03\n      mul\n      add\n        /* \"contracts/VendingMachine.sol\":2382:2400  return products[i] */\n      mload(0x40)\n      dup1\n      0x60\n      add\n      0x40\n      mstore\n      swap1\n      dup2\n      0x00\n      dup3\n      add\n      dup1\n      sload\n      tag_321\n      swap1\n      tag_66\n      jump\t// in\n    tag_321:\n      dup1\n      0x1f\n      add\n      0x20\n      dup1\n      swap2\n      div\n      mul\n      0x20\n      add\n      mload(0x40)\n      swap1\n      dup2\n      add\n      0x40\n      mstore\n      dup1\n      swap3\n      swap2\n      swap1\n      dup2\n      dup2\n      mstore\n      0x20\n      add\n      dup3\n      dup1\n      sload\n      tag_322\n      swap1\n      tag_66\n      jump\t// in\n    tag_322:\n      dup1\n      iszero\n      tag_323\n      jumpi\n      dup1\n      0x1f\n      lt\n      tag_324\n      jumpi\n      0x0100\n      dup1\n      dup4\n      sload\n      div\n      mul\n      dup4\n      mstore\n      swap2\n      0x20\n      add\n      swap2\n      jump(tag_323)\n    tag_324:\n      dup3\n      add\n      swap2\n      swap1\n      0x00\n      mstore\n      keccak256(0x00, 0x20)\n      swap1\n    tag_325:\n      dup2\n      sload\n      dup2\n      mstore\n      swap1\n      0x01\n      add\n      swap1\n      0x20\n      add\n      dup1\n      dup4\n      gt\n      tag_325\n      jumpi\n      dup3\n      swap1\n      sub\n      0x1f\n      and\n      dup3\n      add\n      swap2\n    tag_323:\n      pop\n      pop\n      pop\n      pop\n      pop\n      dup2\n      mstore\n      0x20\n      add\n      0x01\n      dup3\n      add\n      sload\n      dup2\n      mstore\n      0x20\n      add\n      0x02\n      dup3\n      add\n      dup1\n      sload\n      tag_326\n      swap1\n      tag_66\n      jump\t// in\n    tag_326:\n      dup1\n      0x1f\n      add\n      0x20\n      dup1\n      swap2\n      div\n      mul\n      0x20\n      add\n      mload(0x40)\n      swap1\n      dup2\n      add\n      0x40\n      mstore\n      dup1\n      swap3\n      swap2\n      swap1\n      dup2\n      dup2\n      mstore\n      0x20\n      add\n      dup3\n      dup1\n      sload\n      tag_327\n      swap1\n      tag_66\n      jump\t// in\n    tag_327:\n      dup1\n      iszero\n      tag_328\n      jumpi\n      dup1\n      0x1f\n      lt\n      tag_329\n      jumpi\n      0x0100\n      dup1\n      dup4\n      sload\n      div\n      mul\n      dup4\n      mstore\n      swap2\n      0x20\n      add\n      swap2\n      jump(tag_328)\n    tag_329:\n      dup3\n      add\n      swap2\n      swap1\n      0x00\n      mstore\n      keccak256(0x00, 0x20)\n      swap1\n    tag_330:\n      dup2\n      sload\n      dup2\n      mstore\n      swap1\n      0x01\n      add\n      swap1\n      0x20\n      add\n      dup1\n      dup4\n      gt\n      tag_330\n      jumpi\n      dup3\n      swap1\n      sub\n      0x1f\n      and\n      dup3\n      add\n      swap2\n    tag_328:\n      pop\n      pop\n      pop\n      pop\n      pop\n      dup2\n      mstore\n      pop\n      pop\n      swap2\n      pop\n      pop\n      jump(tag_306)\n        /* \"contracts/VendingMachine.sol\":2270:2416  if (keccak256(abi.encodePacked(products[i].code)) == keccak256(abi.encodePacked(_productId))) {... */\n    tag_317:\n        /* \"contracts/VendingMachine.sol\":2251:2254  i++ */\n      dup1\n      dup1\n      0x01\n      add\n      swap2\n      pop\n      pop\n        /* \"contracts/VendingMachine.sol\":2213:2426  for (uint i = 0; i < products.length; i++) {... */\n      jump(tag_307)\n    tag_308:\n      pop\n        /* \"contracts/VendingMachine.sol\":2435:2462  revert(\"Product not found\") */\n      mload(0x40)\n      0x08c379a000000000000000000000000000000000000000000000000000000000\n      dup2\n      mstore\n      0x04\n      add\n      tag_331\n      swap1\n      tag_332\n      jump\t// in\n    tag_331:\n      mload(0x40)\n      dup1\n      swap2\n      sub\n      swap1\n      revert\n        /* \"contracts/VendingMachine.sol\":2113:2469  function getProductByCode(string memory _productId) public view returns (Product memory) {... */\n    tag_306:\n      swap2\n      swap1\n      pop\n      jump\t// out\n    tag_91:\n      mload(0x40)\n      dup1\n      0x80\n      add\n      0x40\n      mstore\n      dup1\n      and(0xffffffffffffffffffffffffffffffffffffffff, 0x00)\n      dup2\n      mstore\n      0x20\n      add\n      0x60\n      dup2\n      mstore\n      0x20\n      add\n      0x00\n      dup2\n      mstore\n      0x20\n      add\n      0x00\n      0x01\n      dup2\n      gt\n      iszero\n      tag_333\n      jumpi\n      tag_334\n      tag_102\n      jump\t// in\n    tag_334:\n    tag_333:\n      dup2\n      mstore\n      pop\n      swap1\n      jump\t// out\n    tag_305:\n      mload(0x40)\n      dup1\n      0x60\n      add\n      0x40\n      mstore\n      dup1\n      0x60\n      dup2\n      mstore\n      0x20\n      add\n      0x00\n      dup2\n      mstore\n      0x20\n      add\n      0x60\n      dup2\n      mstore\n      pop\n      swap1\n      jump\t// out\n        /* \"#utility.yul\":7:144   */\n    tag_335:\n        /* \"#utility.yul\":97:103   */\n      0x00\n        /* \"#utility.yul\":131:136   */\n      dup2\n        /* \"#utility.yul\":125:137   */\n      mload\n        /* \"#utility.yul\":115:137   */\n      swap1\n      pop\n        /* \"#utility.yul\":7:144   */\n      swap2\n      swap1\n      pop\n      jump\t// out\n        /* \"#utility.yul\":150:357   */\n    tag_336:\n        /* \"#utility.yul\":272:283   */\n      0x00\n        /* \"#utility.yul\":306:312   */\n      dup3\n        /* \"#utility.yul\":301:304   */\n      dup3\n        /* \"#utility.yul\":294:313   */\n      mstore\n        /* \"#utility.yul\":346:350   */\n      0x20\n        /* \"#utility.yul\":341:344   */\n      dup3\n        /* \"#utility.yul\":337:351   */\n      add\n        /* \"#utility.yul\":322:351   */\n      swap1\n      pop\n        /* \"#utility.yul\":150:357   */\n      swap3\n      swap2\n      pop\n      pop\n      jump\t// out\n        /* \"#utility.yul\":363:518   */\n    tag_337:\n        /* \"#utility.yul\":453:457   */\n      0x00\n        /* \"#utility.yul\":476:479   */\n      dup2\n        /* \"#utility.yul\":468:479   */\n      swap1\n      pop\n        /* \"#utility.yul\":506:510   */\n      0x20\n        /* \"#utility.yul\":501:504   */\n      dup3\n        /* \"#utility.yul\":497:511   */\n      add\n        /* \"#utility.yul\":489:511   */\n      swap1\n      pop\n        /* \"#utility.yul\":363:518   */\n      swap2\n      swap1\n      pop\n      jump\t// out\n        /* \"#utility.yul\":524:623   */\n    tag_338:\n        /* \"#utility.yul\":576:582   */\n      0x00\n        /* \"#utility.yul\":610:615   */\n      dup2\n        /* \"#utility.yul\":604:616   */\n      mload\n        /* \"#utility.yul\":594:616   */\n      swap1\n      pop\n        /* \"#utility.yul\":524:623   */\n      swap2\n      swap1\n      pop\n      jump\t// out\n        /* \"#utility.yul\":629:788   */\n    tag_339:\n        /* \"#utility.yul\":703:714   */\n      0x00\n        /* \"#utility.yul\":737:743   */\n      dup3\n        /* \"#utility.yul\":732:735   */\n      dup3\n        /* \"#utility.yul\":725:744   */\n      mstore\n        /* \"#utility.yul\":777:781   */\n      0x20\n        /* \"#utility.yul\":772:775   */\n      dup3\n        /* \"#utility.yul\":768:782   */\n      add\n        /* \"#utility.yul\":753:782   */\n      swap1\n      pop\n        /* \"#utility.yul\":629:788   */\n      swap3\n      swap2\n      pop\n      pop\n      jump\t// out\n        /* \"#utility.yul\":794:933   */\n    tag_340:\n        /* \"#utility.yul\":883:889   */\n      dup3\n        /* \"#utility.yul\":878:881   */\n      dup2\n        /* \"#utility.yul\":873:876   */\n      dup4\n        /* \"#utility.yul\":867:890   */\n      mcopy\n        /* \"#utility.yul\":924:925   */\n      0x00\n        /* \"#utility.yul\":915:921   */\n      dup4\n        /* \"#utility.yul\":910:913   */\n      dup4\n        /* \"#utility.yul\":906:922   */\n      add\n        /* \"#utility.yul\":899:926   */\n      mstore\n        /* \"#utility.yul\":794:933   */\n      pop\n      pop\n      pop\n      jump\t// out\n        /* \"#utility.yul\":939:1041   */\n    tag_341:\n        /* \"#utility.yul\":980:986   */\n      0x00\n        /* \"#utility.yul\":1031:1033   */\n      0x1f\n        /* \"#utility.yul\":1027:1034   */\n      not\n        /* \"#utility.yul\":1022:1024   */\n      0x1f\n        /* \"#utility.yul\":1015:1020   */\n      dup4\n        /* \"#utility.yul\":1011:1025   */\n      add\n        /* \"#utility.yul\":1007:1035   */\n      and\n        /* \"#utility.yul\":997:1035   */\n      swap1\n      pop\n        /* \"#utility.yul\":939:1041   */\n      swap2\n      swap1\n      pop\n      jump\t// out\n        /* \"#utility.yul\":1047:1404   */\n    tag_342:\n        /* \"#utility.yul\":1125:1128   */\n      0x00\n        /* \"#utility.yul\":1153:1192   */\n      tag_433\n        /* \"#utility.yul\":1186:1191   */\n      dup3\n        /* \"#utility.yul\":1153:1192   */\n      tag_338\n      jump\t// in\n    tag_433:\n        /* \"#utility.yul\":1208:1269   */\n      tag_434\n        /* \"#utility.yul\":1262:1268   */\n      dup2\n        /* \"#utility.yul\":1257:1260   */\n      dup6\n        /* \"#utility.yul\":1208:1269   */\n      tag_339\n      jump\t// in\n    tag_434:\n        /* \"#utility.yul\":1201:1269   */\n      swap4\n      pop\n        /* \"#utility.yul\":1278:1343   */\n      tag_435\n        /* \"#utility.yul\":1336:1342   */\n      dup2\n        /* \"#utility.yul\":1331:1334   */\n      dup6\n        /* \"#utility.yul\":1324:1328   */\n      0x20\n        /* \"#utility.yul\":1317:1322   */\n      dup7\n        /* \"#utility.yul\":1313:1329   */\n      add\n        /* \"#utility.yul\":1278:1343   */\n      tag_340\n      jump\t// in\n    tag_435:\n        /* \"#utility.yul\":1368:1397   */\n      tag_436\n        /* \"#utility.yul\":1390:1396   */\n      dup2\n        /* \"#utility.yul\":1368:1397   */\n      tag_341\n      jump\t// in\n    tag_436:\n        /* \"#utility.yul\":1363:1366   */\n      dup5\n        /* \"#utility.yul\":1359:1398   */\n      add\n        /* \"#utility.yul\":1352:1398   */\n      swap2\n      pop\n        /* \"#utility.yul\":1129:1404   */\n      pop\n        /* \"#utility.yul\":1047:1404   */\n      swap3\n      swap2\n      pop\n      pop\n      jump\t// out\n        /* \"#utility.yul\":1410:1487   */\n    tag_343:\n        /* \"#utility.yul\":1447:1454   */\n      0x00\n        /* \"#utility.yul\":1476:1481   */\n      dup2\n        /* \"#utility.yul\":1465:1481   */\n      swap1\n      pop\n        /* \"#utility.yul\":1410:1487   */\n      swap2\n      swap1\n      pop\n      jump\t// out\n        /* \"#utility.yul\":1493:1601   */\n    tag_344:\n        /* \"#utility.yul\":1570:1594   */\n      tag_439\n        /* \"#utility.yul\":1588:1593   */\n      dup2\n        /* \"#utility.yul\":1570:1594   */\n      tag_343\n      jump\t// in\n    tag_439:\n        /* \"#utility.yul\":1565:1568   */\n      dup3\n        /* \"#utility.yul\":1558:1595   */\n      mstore\n        /* \"#utility.yul\":1493:1601   */\n      pop\n      pop\n      jump\t// out\n        /* \"#utility.yul\":1677:2515   */\n    tag_345:\n        /* \"#utility.yul\":1782:1785   */\n      0x00\n        /* \"#utility.yul\":1818:1822   */\n      0x60\n        /* \"#utility.yul\":1813:1816   */\n      dup4\n        /* \"#utility.yul\":1809:1823   */\n      add\n        /* \"#utility.yul\":1905:1909   */\n      0x00\n        /* \"#utility.yul\":1898:1903   */\n      dup4\n        /* \"#utility.yul\":1894:1910   */\n      add\n        /* \"#utility.yul\":1888:1911   */\n      mload\n        /* \"#utility.yul\":1958:1961   */\n      dup5\n        /* \"#utility.yul\":1952:1956   */\n      dup3\n        /* \"#utility.yul\":1948:1962   */\n      sub\n        /* \"#utility.yul\":1941:1945   */\n      0x00\n        /* \"#utility.yul\":1936:1939   */\n      dup7\n        /* \"#utility.yul\":1932:1946   */\n      add\n        /* \"#utility.yul\":1925:1963   */\n      mstore\n        /* \"#utility.yul\":1984:2057   */\n      tag_441\n        /* \"#utility.yul\":2052:2056   */\n      dup3\n        /* \"#utility.yul\":2038:2050   */\n      dup3\n        /* \"#utility.yul\":1984:2057   */\n      tag_342\n      jump\t// in\n    tag_441:\n        /* \"#utility.yul\":1976:2057   */\n      swap2\n      pop\n        /* \"#utility.yul\":1833:2068   */\n      pop\n        /* \"#utility.yul\":2151:2155   */\n      0x20\n        /* \"#utility.yul\":2144:2149   */\n      dup4\n        /* \"#utility.yul\":2140:2156   */\n      add\n        /* \"#utility.yul\":2134:2157   */\n      mload\n        /* \"#utility.yul\":2170:2233   */\n      tag_442\n        /* \"#utility.yul\":2227:2231   */\n      0x20\n        /* \"#utility.yul\":2222:2225   */\n      dup7\n        /* \"#utility.yul\":2218:2232   */\n      add\n        /* \"#utility.yul\":2204:2216   */\n      dup3\n        /* \"#utility.yul\":2170:2233   */\n      tag_344\n      jump\t// in\n    tag_442:\n        /* \"#utility.yul\":2078:2243   */\n      pop\n        /* \"#utility.yul\":2325:2329   */\n      0x40\n        /* \"#utility.yul\":2318:2323   */\n      dup4\n        /* \"#utility.yul\":2314:2330   */\n      add\n        /* \"#utility.yul\":2308:2331   */\n      mload\n        /* \"#utility.yul\":2378:2381   */\n      dup5\n        /* \"#utility.yul\":2372:2376   */\n      dup3\n        /* \"#utility.yul\":2368:2382   */\n      sub\n        /* \"#utility.yul\":2361:2365   */\n      0x40\n        /* \"#utility.yul\":2356:2359   */\n      dup7\n        /* \"#utility.yul\":2352:2366   */\n      add\n        /* \"#utility.yul\":2345:2383   */\n      mstore\n        /* \"#utility.yul\":2404:2477   */\n      tag_443\n        /* \"#utility.yul\":2472:2476   */\n      dup3\n        /* \"#utility.yul\":2458:2470   */\n      dup3\n        /* \"#utility.yul\":2404:2477   */\n      tag_342\n      jump\t// in\n    tag_443:\n        /* \"#utility.yul\":2396:2477   */\n      swap2\n      pop\n        /* \"#utility.yul\":2253:2488   */\n      pop\n        /* \"#utility.yul\":2505:2509   */\n      dup1\n        /* \"#utility.yul\":2498:2509   */\n      swap2\n      pop\n        /* \"#utility.yul\":1787:2515   */\n      pop\n        /* \"#utility.yul\":1677:2515   */\n      swap3\n      swap2\n      pop\n      pop\n      jump\t// out\n        /* \"#utility.yul\":2521:2769   */\n    tag_346:\n        /* \"#utility.yul\":2636:2646   */\n      0x00\n        /* \"#utility.yul\":2671:2763   */\n      tag_445\n        /* \"#utility.yul\":2759:2762   */\n      dup4\n        /* \"#utility.yul\":2751:2757   */\n      dup4\n        /* \"#utility.yul\":2671:2763   */\n      tag_345\n      jump\t// in\n    tag_445:\n        /* \"#utility.yul\":2657:2763   */\n      swap1\n      pop\n        /* \"#utility.yul\":2521:2769   */\n      swap3\n      swap2\n      pop\n      pop\n      jump\t// out\n        /* \"#utility.yul\":2775:2911   */\n    tag_347:\n        /* \"#utility.yul\":2868:2872   */\n      0x00\n        /* \"#utility.yul\":2900:2904   */\n      0x20\n        /* \"#utility.yul\":2895:2898   */\n      dup3\n        /* \"#utility.yul\":2891:2905   */\n      add\n        /* \"#utility.yul\":2883:2905   */\n      swap1\n      pop\n        /* \"#utility.yul\":2775:2911   */\n      swap2\n      swap1\n      pop\n      jump\t// out\n        /* \"#utility.yul\":2991:4086   */\n    tag_348:\n        /* \"#utility.yul\":3156:3159   */\n      0x00\n        /* \"#utility.yul\":3185:3262   */\n      tag_448\n        /* \"#utility.yul\":3256:3261   */\n      dup3\n        /* \"#utility.yul\":3185:3262   */\n      tag_335\n      jump\t// in\n    tag_448:\n        /* \"#utility.yul\":3278:3387   */\n      tag_449\n        /* \"#utility.yul\":3380:3386   */\n      dup2\n        /* \"#utility.yul\":3375:3378   */\n      dup6\n        /* \"#utility.yul\":3278:3387   */\n      tag_336\n      jump\t// in\n    tag_449:\n        /* \"#utility.yul\":3271:3387   */\n      swap4\n      pop\n        /* \"#utility.yul\":3413:3416   */\n      dup4\n        /* \"#utility.yul\":3458:3462   */\n      0x20\n        /* \"#utility.yul\":3450:3456   */\n      dup3\n        /* \"#utility.yul\":3446:3463   */\n      mul\n        /* \"#utility.yul\":3441:3444   */\n      dup6\n        /* \"#utility.yul\":3437:3464   */\n      add\n        /* \"#utility.yul\":3488:3567   */\n      tag_450\n        /* \"#utility.yul\":3561:3566   */\n      dup6\n        /* \"#utility.yul\":3488:3567   */\n      tag_337\n      jump\t// in\n    tag_450:\n        /* \"#utility.yul\":3590:3597   */\n      dup1\n        /* \"#utility.yul\":3621:3622   */\n      0x00\n        /* \"#utility.yul\":3606:4041   */\n    tag_451:\n        /* \"#utility.yul\":3631:3637   */\n      dup6\n        /* \"#utility.yul\":3628:3629   */\n      dup2\n        /* \"#utility.yul\":3625:3638   */\n      lt\n        /* \"#utility.yul\":3606:4041   */\n      iszero\n      tag_453\n      jumpi\n        /* \"#utility.yul\":3702:3711   */\n      dup5\n        /* \"#utility.yul\":3696:3700   */\n      dup5\n        /* \"#utility.yul\":3692:3712   */\n      sub\n        /* \"#utility.yul\":3687:3690   */\n      dup10\n        /* \"#utility.yul\":3680:3713   */\n      mstore\n        /* \"#utility.yul\":3753:3759   */\n      dup2\n        /* \"#utility.yul\":3747:3760   */\n      mload\n        /* \"#utility.yul\":3781:3891   */\n      tag_454\n        /* \"#utility.yul\":3886:3890   */\n      dup6\n        /* \"#utility.yul\":3871:3884   */\n      dup3\n        /* \"#utility.yul\":3781:3891   */\n      tag_346\n      jump\t// in\n    tag_454:\n        /* \"#utility.yul\":3773:3891   */\n      swap5\n      pop\n        /* \"#utility.yul\":3914:3997   */\n      tag_455\n        /* \"#utility.yul\":3990:3996   */\n      dup4\n        /* \"#utility.yul\":3914:3997   */\n      tag_347\n      jump\t// in\n    tag_455:\n        /* \"#utility.yul\":3904:3997   */\n      swap3\n      pop\n        /* \"#utility.yul\":4026:4030   */\n      0x20\n        /* \"#utility.yul\":4021:4024   */\n      dup11\n        /* \"#utility.yul\":4017:4031   */\n      add\n        /* \"#utility.yul\":4010:4031   */\n      swap10\n      pop\n        /* \"#utility.yul\":3666:4041   */\n      pop\n        /* \"#utility.yul\":3653:3654   */\n      0x01\n        /* \"#utility.yul\":3650:3651   */\n      dup2\n        /* \"#utility.yul\":3646:3655   */\n      add\n        /* \"#utility.yul\":3641:3655   */\n      swap1\n      pop\n        /* \"#utility.yul\":3606:4041   */\n      jump(tag_451)\n    tag_453:\n        /* \"#utility.yul\":3610:3624   */\n      pop\n        /* \"#utility.yul\":4057:4061   */\n      dup3\n        /* \"#utility.yul\":4050:4061   */\n      swap8\n      pop\n        /* \"#utility.yul\":4077:4080   */\n      dup8\n        /* \"#utility.yul\":4070:4080   */\n      swap6\n      pop\n        /* \"#utility.yul\":3161:4086   */\n      pop\n      pop\n      pop\n      pop\n      pop\n        /* \"#utility.yul\":2991:4086   */\n      swap3\n      swap2\n      pop\n      pop\n      jump\t// out\n        /* \"#utility.yul\":4092:4557   */\n    tag_17:\n        /* \"#utility.yul\":4281:4285   */\n      0x00\n        /* \"#utility.yul\":4319:4321   */\n      0x20\n        /* \"#utility.yul\":4308:4317   */\n      dup3\n        /* \"#utility.yul\":4304:4322   */\n      add\n        /* \"#utility.yul\":4296:4322   */\n      swap1\n      pop\n        /* \"#utility.yul\":4368:4377   */\n      dup2\n        /* \"#utility.yul\":4362:4366   */\n      dup2\n        /* \"#utility.yul\":4358:4378   */\n      sub\n        /* \"#utility.yul\":4354:4355   */\n      0x00\n        /* \"#utility.yul\":4343:4352   */\n      dup4\n        /* \"#utility.yul\":4339:4356   */\n      add\n        /* \"#utility.yul\":4332:4379   */\n      mstore\n        /* \"#utility.yul\":4396:4550   */\n      tag_457\n        /* \"#utility.yul\":4545:4549   */\n      dup2\n        /* \"#utility.yul\":4536:4542   */\n      dup5\n        /* \"#utility.yul\":4396:4550   */\n      tag_348\n      jump\t// in\n    tag_457:\n        /* \"#utility.yul\":4388:4550   */\n      swap1\n      pop\n        /* \"#utility.yul\":4092:4557   */\n      swap3\n      swap2\n      pop\n      pop\n      jump\t// out\n        /* \"#utility.yul\":4563:4681   */\n    tag_349:\n        /* \"#utility.yul\":4650:4674   */\n      tag_459\n        /* \"#utility.yul\":4668:4673   */\n      dup2\n        /* \"#utility.yul\":4650:4674   */\n      tag_343\n      jump\t// in\n    tag_459:\n        /* \"#utility.yul\":4645:4648   */\n      dup3\n        /* \"#utility.yul\":4638:4675   */\n      mstore\n        /* \"#utility.yul\":4563:4681   */\n      pop\n      pop\n      jump\t// out\n        /* \"#utility.yul\":4687:4909   */\n    tag_22:\n        /* \"#utility.yul\":4780:4784   */\n      0x00\n        /* \"#utility.yul\":4818:4820   */\n      0x20\n        /* \"#utility.yul\":4807:4816   */\n      dup3\n        /* \"#utility.yul\":4803:4821   */\n      add\n        /* \"#utility.yul\":4795:4821   */\n      swap1\n      pop\n        /* \"#utility.yul\":4831:4902   */\n      tag_461\n        /* \"#utility.yul\":4899:4900   */\n      0x00\n        /* \"#utility.yul\":4888:4897   */\n      dup4\n        /* \"#utility.yul\":4884:4901   */\n      add\n        /* \"#utility.yul\":4875:4881   */\n      dup5\n        /* \"#utility.yul\":4831:4902   */\n      tag_349\n      jump\t// in\n    tag_461:\n        /* \"#utility.yul\":4687:4909   */\n      swap3\n      swap2\n      pop\n      pop\n      jump\t// out\n        /* \"#utility.yul\":4915:4990   */\n    tag_350:\n        /* \"#utility.yul\":4948:4954   */\n      0x00\n        /* \"#utility.yul\":4981:4983   */\n      0x40\n        /* \"#utility.yul\":4975:4984   */\n      mload\n        /* \"#utility.yul\":4965:4984   */\n      swap1\n      pop\n        /* \"#utility.yul\":4915:4990   */\n      swap1\n      jump\t// out\n        /* \"#utility.yul\":4996:5113   */\n    tag_351:\n        /* \"#utility.yul\":5105:5106   */\n      0x00\n        /* \"#utility.yul\":5102:5103   */\n      dup1\n        /* \"#utility.yul\":5095:5107   */\n      revert\n        /* \"#utility.yul\":5119:5236   */\n    tag_352:\n        /* \"#utility.yul\":5228:5229   */\n      0x00\n        /* \"#utility.yul\":5225:5226   */\n      dup1\n        /* \"#utility.yul\":5218:5230   */\n      revert\n        /* \"#utility.yul\":5242:5368   */\n    tag_353:\n        /* \"#utility.yul\":5279:5286   */\n      0x00\n        /* \"#utility.yul\":5319:5361   */\n      0xffffffffffffffffffffffffffffffffffffffff\n        /* \"#utility.yul\":5312:5317   */\n      dup3\n        /* \"#utility.yul\":5308:5362   */\n      and\n        /* \"#utility.yul\":5297:5362   */\n      swap1\n      pop\n        /* \"#utility.yul\":5242:5368   */\n      swap2\n      swap1\n      pop\n      jump\t// out\n        /* \"#utility.yul\":5374:5470   */\n    tag_354:\n        /* \"#utility.yul\":5411:5418   */\n      0x00\n        /* \"#utility.yul\":5440:5464   */\n      tag_467\n        /* \"#utility.yul\":5458:5463   */\n      dup3\n        /* \"#utility.yul\":5440:5464   */\n      tag_353\n      jump\t// in\n    tag_467:\n        /* \"#utility.yul\":5429:5464   */\n      swap1\n      pop\n        /* \"#utility.yul\":5374:5470   */\n      swap2\n      swap1\n      pop\n      jump\t// out\n        /* \"#utility.yul\":5476:5598   */\n    tag_355:\n        /* \"#utility.yul\":5549:5573   */\n      tag_469\n        /* \"#utility.yul\":5567:5572   */\n      dup2\n        /* \"#utility.yul\":5549:5573   */\n      tag_354\n      jump\t// in\n    tag_469:\n        /* \"#utility.yul\":5542:5547   */\n      dup2\n        /* \"#utility.yul\":5539:5574   */\n      eq\n        /* \"#utility.yul\":5529:5592   */\n      tag_470\n      jumpi\n        /* \"#utility.yul\":5588:5589   */\n      0x00\n        /* \"#utility.yul\":5585:5586   */\n      dup1\n        /* \"#utility.yul\":5578:5590   */\n      revert\n        /* \"#utility.yul\":5529:5592   */\n    tag_470:\n        /* \"#utility.yul\":5476:5598   */\n      pop\n      jump\t// out\n        /* \"#utility.yul\":5604:5743   */\n    tag_356:\n        /* \"#utility.yul\":5650:5655   */\n      0x00\n        /* \"#utility.yul\":5688:5694   */\n      dup2\n        /* \"#utility.yul\":5675:5695   */\n      calldataload\n        /* \"#utility.yul\":5666:5695   */\n      swap1\n      pop\n        /* \"#utility.yul\":5704:5737   */\n      tag_472\n        /* \"#utility.yul\":5731:5736   */\n      dup2\n        /* \"#utility.yul\":5704:5737   */\n      tag_355\n      jump\t// in\n    tag_472:\n        /* \"#utility.yul\":5604:5743   */\n      swap3\n      swap2\n      pop\n      pop\n      jump\t// out\n        /* \"#utility.yul\":5749:6078   */\n    tag_26:\n        /* \"#utility.yul\":5808:5814   */\n      0x00\n        /* \"#utility.yul\":5857:5859   */\n      0x20\n        /* \"#utility.yul\":5845:5854   */\n      dup3\n        /* \"#utility.yul\":5836:5843   */\n      dup5\n        /* \"#utility.yul\":5832:5855   */\n      sub\n        /* \"#utility.yul\":5828:5860   */\n      slt\n        /* \"#utility.yul\":5825:5944   */\n      iszero\n      tag_474\n      jumpi\n        /* \"#utility.yul\":5863:5942   */\n      tag_475\n      tag_351\n      jump\t// in\n    tag_475:\n        /* \"#utility.yul\":5825:5944   */\n    tag_474:\n        /* \"#utility.yul\":5983:5984   */\n      0x00\n        /* \"#utility.yul\":6008:6061   */\n      tag_476\n        /* \"#utility.yul\":6053:6060   */\n      dup5\n        /* \"#utility.yul\":6044:6050   */\n      dup3\n        /* \"#utility.yul\":6033:6042   */\n      dup6\n        /* \"#utility.yul\":6029:6051   */\n      add\n        /* \"#utility.yul\":6008:6061   */\n      tag_356\n      jump\t// in\n    tag_476:\n        /* \"#utility.yul\":5998:6061   */\n      swap2\n      pop\n        /* \"#utility.yul\":5954:6071   */\n      pop\n        /* \"#utility.yul\":5749:6078   */\n      swap3\n      swap2\n      pop\n      pop\n      jump\t// out\n        /* \"#utility.yul\":6084:6222   */\n    tag_357:\n        /* \"#utility.yul\":6175:6181   */\n      0x00\n        /* \"#utility.yul\":6209:6214   */\n      dup2\n        /* \"#utility.yul\":6203:6215   */\n      mload\n        /* \"#utility.yul\":6193:6215   */\n      swap1\n      pop\n        /* \"#utility.yul\":6084:6222   */\n      swap2\n      swap1\n      pop\n      jump\t// out\n        /* \"#utility.yul\":6228:6436   */\n    tag_358:\n        /* \"#utility.yul\":6351:6362   */\n      0x00\n        /* \"#utility.yul\":6385:6391   */\n      dup3\n        /* \"#utility.yul\":6380:6383   */\n      dup3\n        /* \"#utility.yul\":6373:6392   */\n      mstore\n        /* \"#utility.yul\":6425:6429   */\n      0x20\n        /* \"#utility.yul\":6420:6423   */\n      dup3\n        /* \"#utility.yul\":6416:6430   */\n      add\n        /* \"#utility.yul\":6401:6430   */\n      swap1\n      pop\n        /* \"#utility.yul\":6228:6436   */\n      swap3\n      swap2\n      pop\n      pop\n      jump\t// out\n        /* \"#utility.yul\":6442:6598   */\n    tag_359:\n        /* \"#utility.yul\":6533:6537   */\n      0x00\n        /* \"#utility.yul\":6556:6559   */\n      dup2\n        /* \"#utility.yul\":6548:6559   */\n      swap1\n      pop\n        /* \"#utility.yul\":6586:6590   */\n      0x20\n        /* \"#utility.yul\":6581:6584   */\n      dup3\n        /* \"#utility.yul\":6577:6591   */\n      add\n        /* \"#utility.yul\":6569:6591   */\n      swap1\n      pop\n        /* \"#utility.yul\":6442:6598   */\n      swap2\n      swap1\n      pop\n      jump\t// out\n        /* \"#utility.yul\":6604:6712   */\n    tag_360:\n        /* \"#utility.yul\":6681:6705   */\n      tag_481\n        /* \"#utility.yul\":6699:6704   */\n      dup2\n        /* \"#utility.yul\":6681:6705   */\n      tag_354\n      jump\t// in\n    tag_481:\n        /* \"#utility.yul\":6676:6679   */\n      dup3\n        /* \"#utility.yul\":6669:6706   */\n      mstore\n        /* \"#utility.yul\":6604:6712   */\n      pop\n      pop\n      jump\t// out\n        /* \"#utility.yul\":6718:6898   */\n    tag_102:\n        /* \"#utility.yul\":6766:6843   */\n      0x4e487b7100000000000000000000000000000000000000000000000000000000\n        /* \"#utility.yul\":6763:6764   */\n      0x00\n        /* \"#utility.yul\":6756:6844   */\n      mstore\n        /* \"#utility.yul\":6863:6867   */\n      0x21\n        /* \"#utility.yul\":6860:6861   */\n      0x04\n        /* \"#utility.yul\":6853:6868   */\n      mstore\n        /* \"#utility.yul\":6887:6891   */\n      0x24\n        /* \"#utility.yul\":6884:6885   */\n      0x00\n        /* \"#utility.yul\":6877:6892   */\n      revert\n        /* \"#utility.yul\":6904:7025   */\n    tag_361:\n        /* \"#utility.yul\":6993:6994   */\n      0x02\n        /* \"#utility.yul\":6986:6991   */\n      dup2\n        /* \"#utility.yul\":6983:6995   */\n      lt\n        /* \"#utility.yul\":6973:7019   */\n      tag_484\n      jumpi\n        /* \"#utility.yul\":6999:7017   */\n      tag_485\n      tag_102\n      jump\t// in\n    tag_485:\n        /* \"#utility.yul\":6973:7019   */\n    tag_484:\n        /* \"#utility.yul\":6904:7025   */\n      pop\n      jump\t// out\n        /* \"#utility.yul\":7031:7174   */\n    tag_362:\n        /* \"#utility.yul\":7084:7091   */\n      0x00\n        /* \"#utility.yul\":7113:7118   */\n      dup2\n        /* \"#utility.yul\":7102:7118   */\n      swap1\n      pop\n        /* \"#utility.yul\":7119:7168   */\n      tag_487\n        /* \"#utility.yul\":7162:7167   */\n      dup3\n        /* \"#utility.yul\":7119:7168   */\n      tag_361\n      jump\t// in\n    tag_487:\n        /* \"#utility.yul\":7031:7174   */\n      swap2\n      swap1\n      pop\n      jump\t// out\n        /* \"#utility.yul\":7180:7323   */\n    tag_363:\n        /* \"#utility.yul\":7244:7253   */\n      0x00\n        /* \"#utility.yul\":7277:7317   */\n      tag_489\n        /* \"#utility.yul\":7311:7316   */\n      dup3\n        /* \"#utility.yul\":7277:7317   */\n      tag_362\n      jump\t// in\n    tag_489:\n        /* \"#utility.yul\":7264:7317   */\n      swap1\n      pop\n        /* \"#utility.yul\":7180:7323   */\n      swap2\n      swap1\n      pop\n      jump\t// out\n        /* \"#utility.yul\":7329:7478   */\n    tag_364:\n        /* \"#utility.yul\":7420:7471   */\n      tag_491\n        /* \"#utility.yul\":7465:7470   */\n      dup2\n        /* \"#utility.yul\":7420:7471   */\n      tag_363\n      jump\t// in\n    tag_491:\n        /* \"#utility.yul\":7415:7418   */\n      dup3\n        /* \"#utility.yul\":7408:7472   */\n      mstore\n        /* \"#utility.yul\":7329:7478   */\n      pop\n      pop\n      jump\t// out\n        /* \"#utility.yul\":7556:8525   */\n    tag_365:\n        /* \"#utility.yul\":7663:7666   */\n      0x00\n        /* \"#utility.yul\":7699:7703   */\n      0x80\n        /* \"#utility.yul\":7694:7697   */\n      dup4\n        /* \"#utility.yul\":7690:7704   */\n      add\n        /* \"#utility.yul\":7787:7791   */\n      0x00\n        /* \"#utility.yul\":7780:7785   */\n      dup4\n        /* \"#utility.yul\":7776:7792   */\n      add\n        /* \"#utility.yul\":7770:7793   */\n      mload\n        /* \"#utility.yul\":7806:7869   */\n      tag_493\n        /* \"#utility.yul\":7863:7867   */\n      0x00\n        /* \"#utility.yul\":7858:7861   */\n      dup7\n        /* \"#utility.yul\":7854:7868   */\n      add\n        /* \"#utility.yul\":7840:7852   */\n      dup3\n        /* \"#utility.yul\":7806:7869   */\n      tag_360\n      jump\t// in\n    tag_493:\n        /* \"#utility.yul\":7714:7879   */\n      pop\n        /* \"#utility.yul\":7966:7970   */\n      0x20\n        /* \"#utility.yul\":7959:7964   */\n      dup4\n        /* \"#utility.yul\":7955:7971   */\n      add\n        /* \"#utility.yul\":7949:7972   */\n      mload\n        /* \"#utility.yul\":8019:8022   */\n      dup5\n        /* \"#utility.yul\":8013:8017   */\n      dup3\n        /* \"#utility.yul\":8009:8023   */\n      sub\n        /* \"#utility.yul\":8002:8006   */\n      0x20\n        /* \"#utility.yul\":7997:8000   */\n      dup7\n        /* \"#utility.yul\":7993:8007   */\n      add\n        /* \"#utility.yul\":7986:8024   */\n      mstore\n        /* \"#utility.yul\":8045:8118   */\n      tag_494\n        /* \"#utility.yul\":8113:8117   */\n      dup3\n        /* \"#utility.yul\":8099:8111   */\n      dup3\n        /* \"#utility.yul\":8045:8118   */\n      tag_342\n      jump\t// in\n    tag_494:\n        /* \"#utility.yul\":8037:8118   */\n      swap2\n      pop\n        /* \"#utility.yul\":7889:8129   */\n      pop\n        /* \"#utility.yul\":8216:8220   */\n      0x40\n        /* \"#utility.yul\":8209:8214   */\n      dup4\n        /* \"#utility.yul\":8205:8221   */\n      add\n        /* \"#utility.yul\":8199:8222   */\n      mload\n        /* \"#utility.yul\":8235:8298   */\n      tag_495\n        /* \"#utility.yul\":8292:8296   */\n      0x40\n        /* \"#utility.yul\":8287:8290   */\n      dup7\n        /* \"#utility.yul\":8283:8297   */\n      add\n        /* \"#utility.yul\":8269:8281   */\n      dup3\n        /* \"#utility.yul\":8235:8298   */\n      tag_344\n      jump\t// in\n    tag_495:\n        /* \"#utility.yul\":8139:8308   */\n      pop\n        /* \"#utility.yul\":8392:8396   */\n      0x60\n        /* \"#utility.yul\":8385:8390   */\n      dup4\n        /* \"#utility.yul\":8381:8397   */\n      add\n        /* \"#utility.yul\":8375:8398   */\n      mload\n        /* \"#utility.yul\":8411:8488   */\n      tag_496\n        /* \"#utility.yul\":8482:8486   */\n      0x60\n        /* \"#utility.yul\":8477:8480   */\n      dup7\n        /* \"#utility.yul\":8473:8487   */\n      add\n        /* \"#utility.yul\":8459:8471   */\n      dup3\n        /* \"#utility.yul\":8411:8488   */\n      tag_364\n      jump\t// in\n    tag_496:\n        /* \"#utility.yul\":8318:8498   */\n      pop\n        /* \"#utility.yul\":8515:8519   */\n      dup1\n        /* \"#utility.yul\":8508:8519   */\n      swap2\n      pop\n        /* \"#utility.yul\":7668:8525   */\n      pop\n        /* \"#utility.yul\":7556:8525   */\n      swap3\n      swap2\n      pop\n      pop\n      jump\t// out\n        /* \"#utility.yul\":8531:8783   */\n    tag_366:\n        /* \"#utility.yul\":8648:8658   */\n      0x00\n        /* \"#utility.yul\":8683:8777   */\n      tag_498\n        /* \"#utility.yul\":8773:8776   */\n      dup4\n        /* \"#utility.yul\":8765:8771   */\n      dup4\n        /* \"#utility.yul\":8683:8777   */\n      tag_365\n      jump\t// in\n    tag_498:\n        /* \"#utility.yul\":8669:8777   */\n      swap1\n      pop\n        /* \"#utility.yul\":8531:8783   */\n      swap3\n      swap2\n      pop\n      pop\n      jump\t// out\n        /* \"#utility.yul\":8789:8926   */\n    tag_367:\n        /* \"#utility.yul\":8883:8887   */\n      0x00\n        /* \"#utility.yul\":8915:8919   */\n      0x20\n        /* \"#utility.yul\":8910:8913   */\n      dup3\n        /* \"#utility.yul\":8906:8920   */\n      add\n        /* \"#utility.yul\":8898:8920   */\n      swap1\n      pop\n        /* \"#utility.yul\":8789:8926   */\n      swap2\n      swap1\n      pop\n      jump\t// out\n        /* \"#utility.yul\":9008:10111   */\n    tag_368:\n        /* \"#utility.yul\":9175:9178   */\n      0x00\n        /* \"#utility.yul\":9204:9282   */\n      tag_501\n        /* \"#utility.yul\":9276:9281   */\n      dup3\n        /* \"#utility.yul\":9204:9282   */\n      tag_357\n      jump\t// in\n    tag_501:\n        /* \"#utility.yul\":9298:9408   */\n      tag_502\n        /* \"#utility.yul\":9401:9407   */\n      dup2\n        /* \"#utility.yul\":9396:9399   */\n      dup6\n        /* \"#utility.yul\":9298:9408   */\n      tag_358\n      jump\t// in\n    tag_502:\n        /* \"#utility.yul\":9291:9408   */\n      swap4\n      pop\n        /* \"#utility.yul\":9434:9437   */\n      dup4\n        /* \"#utility.yul\":9479:9483   */\n      0x20\n        /* \"#utility.yul\":9471:9477   */\n      dup3\n        /* \"#utility.yul\":9467:9484   */\n      mul\n        /* \"#utility.yul\":9462:9465   */\n      dup6\n        /* \"#utility.yul\":9458:9485   */\n      add\n        /* \"#utility.yul\":9509:9589   */\n      tag_503\n        /* \"#utility.yul\":9583:9588   */\n      dup6\n        /* \"#utility.yul\":9509:9589   */\n      tag_359\n      jump\t// in\n    tag_503:\n        /* \"#utility.yul\":9612:9619   */\n      dup1\n        /* \"#utility.yul\":9643:9644   */\n      0x00\n        /* \"#utility.yul\":9628:10066   */\n    tag_504:\n        /* \"#utility.yul\":9653:9659   */\n      dup6\n        /* \"#utility.yul\":9650:9651   */\n      dup2\n        /* \"#utility.yul\":9647:9660   */\n      lt\n        /* \"#utility.yul\":9628:10066   */\n      iszero\n      tag_506\n      jumpi\n        /* \"#utility.yul\":9724:9733   */\n      dup5\n        /* \"#utility.yul\":9718:9722   */\n      dup5\n        /* \"#utility.yul\":9714:9734   */\n      sub\n        /* \"#utility.yul\":9709:9712   */\n      dup10\n        /* \"#utility.yul\":9702:9735   */\n      mstore\n        /* \"#utility.yul\":9775:9781   */\n      dup2\n        /* \"#utility.yul\":9769:9782   */\n      mload\n        /* \"#utility.yul\":9803:9915   */\n      tag_507\n        /* \"#utility.yul\":9910:9914   */\n      dup6\n        /* \"#utility.yul\":9895:9908   */\n      dup3\n        /* \"#utility.yul\":9803:9915   */\n      tag_366\n      jump\t// in\n    tag_507:\n        /* \"#utility.yul\":9795:9915   */\n      swap5\n      pop\n        /* \"#utility.yul\":9938:10022   */\n      tag_508\n        /* \"#utility.yul\":10015:10021   */\n      dup4\n        /* \"#utility.yul\":9938:10022   */\n      tag_367\n      jump\t// in\n    tag_508:\n        /* \"#utility.yul\":9928:10022   */\n      swap3\n      pop\n        /* \"#utility.yul\":10051:10055   */\n      0x20\n        /* \"#utility.yul\":10046:10049   */\n      dup11\n        /* \"#utility.yul\":10042:10056   */\n      add\n        /* \"#utility.yul\":10035:10056   */\n      swap10\n      pop\n        /* \"#utility.yul\":9688:10066   */\n      pop\n        /* \"#utility.yul\":9675:9676   */\n      0x01\n        /* \"#utility.yul\":9672:9673   */\n      dup2\n        /* \"#utility.yul\":9668:9677   */\n      add\n        /* \"#utility.yul\":9663:9677   */\n      swap1\n      pop\n        /* \"#utility.yul\":9628:10066   */\n      jump(tag_504)\n    tag_506:\n        /* \"#utility.yul\":9632:9646   */\n      pop\n        /* \"#utility.yul\":10082:10086   */\n      dup3\n        /* \"#utility.yul\":10075:10086   */\n      swap8\n      pop\n        /* \"#utility.yul\":10102:10105   */\n      dup8\n        /* \"#utility.yul\":10095:10105   */\n      swap6\n      pop\n        /* \"#utility.yul\":9180:10111   */\n      pop\n      pop\n      pop\n      pop\n      pop\n        /* \"#utility.yul\":9008:10111   */\n      swap3\n      swap2\n      pop\n      pop\n      jump\t// out\n        /* \"#utility.yul\":10117:10586   */\n    tag_29:\n        /* \"#utility.yul\":10308:10312   */\n      0x00\n        /* \"#utility.yul\":10346:10348   */\n      0x20\n        /* \"#utility.yul\":10335:10344   */\n      dup3\n        /* \"#utility.yul\":10331:10349   */\n      add\n        /* \"#utility.yul\":10323:10349   */\n      swap1\n      pop\n        /* \"#utility.yul\":10395:10404   */\n      dup2\n        /* \"#utility.yul\":10389:10393   */\n      dup2\n        /* \"#utility.yul\":10385:10405   */\n      sub\n        /* \"#utility.yul\":10381:10382   */\n      0x00\n        /* \"#utility.yul\":10370:10379   */\n      dup4\n        /* \"#utility.yul\":10366:10383   */\n      add\n        /* \"#utility.yul\":10359:10406   */\n      mstore\n        /* \"#utility.yul\":10423:10579   */\n      tag_510\n        /* \"#utility.yul\":10574:10578   */\n      dup2\n        /* \"#utility.yul\":10565:10571   */\n      dup5\n        /* \"#utility.yul\":10423:10579   */\n      tag_368\n      jump\t// in\n    tag_510:\n        /* \"#utility.yul\":10415:10579   */\n      swap1\n      pop\n        /* \"#utility.yul\":10117:10586   */\n      swap3\n      swap2\n      pop\n      pop\n      jump\t// out\n        /* \"#utility.yul\":10592:10709   */\n    tag_369:\n        /* \"#utility.yul\":10701:10702   */\n      0x00\n        /* \"#utility.yul\":10698:10699   */\n      dup1\n        /* \"#utility.yul\":10691:10703   */\n      revert\n        /* \"#utility.yul\":10715:10832   */\n    tag_370:\n        /* \"#utility.yul\":10824:10825   */\n      0x00\n        /* \"#utility.yul\":10821:10822   */\n      dup1\n        /* \"#utility.yul\":10814:10826   */\n      revert\n        /* \"#utility.yul\":10838:11018   */\n    tag_87:\n        /* \"#utility.yul\":10886:10963   */\n      0x4e487b7100000000000000000000000000000000000000000000000000000000\n        /* \"#utility.yul\":10883:10884   */\n      0x00\n        /* \"#utility.yul\":10876:10964   */\n      mstore\n        /* \"#utility.yul\":10983:10987   */\n      0x41\n        /* \"#utility.yul\":10980:10981   */\n      0x04\n        /* \"#utility.yul\":10973:10988   */\n      mstore\n        /* \"#utility.yul\":11007:11011   */\n      0x24\n        /* \"#utility.yul\":11004:11005   */\n      0x00\n        /* \"#utility.yul\":10997:11012   */\n      revert\n        /* \"#utility.yul\":11024:11305   */\n    tag_371:\n        /* \"#utility.yul\":11107:11134   */\n      tag_515\n        /* \"#utility.yul\":11129:11133   */\n      dup3\n        /* \"#utility.yul\":11107:11134   */\n      tag_341\n      jump\t// in\n    tag_515:\n        /* \"#utility.yul\":11099:11105   */\n      dup2\n        /* \"#utility.yul\":11095:11135   */\n      add\n        /* \"#utility.yul\":11237:11243   */\n      dup2\n        /* \"#utility.yul\":11225:11235   */\n      dup2\n        /* \"#utility.yul\":11222:11244   */\n      lt\n        /* \"#utility.yul\":11201:11219   */\n      0xffffffffffffffff\n        /* \"#utility.yul\":11189:11199   */\n      dup3\n        /* \"#utility.yul\":11186:11220   */\n      gt\n        /* \"#utility.yul\":11183:11245   */\n      or\n        /* \"#utility.yul\":11180:11268   */\n      iszero\n      tag_516\n      jumpi\n        /* \"#utility.yul\":11248:11266   */\n      tag_517\n      tag_87\n      jump\t// in\n    tag_517:\n        /* \"#utility.yul\":11180:11268   */\n    tag_516:\n        /* \"#utility.yul\":11288:11298   */\n      dup1\n        /* \"#utility.yul\":11284:11286   */\n      0x40\n        /* \"#utility.yul\":11277:11299   */\n      mstore\n        /* \"#utility.yul\":11067:11305   */\n      pop\n        /* \"#utility.yul\":11024:11305   */\n      pop\n      pop\n      jump\t// out\n        /* \"#utility.yul\":11311:11440   */\n    tag_372:\n        /* \"#utility.yul\":11345:11351   */\n      0x00\n        /* \"#utility.yul\":11372:11392   */\n      tag_519\n      tag_350\n      jump\t// in\n    tag_519:\n        /* \"#utility.yul\":11362:11392   */\n      swap1\n      pop\n        /* \"#utility.yul\":11401:11434   */\n      tag_520\n        /* \"#utility.yul\":11429:11433   */\n      dup3\n        /* \"#utility.yul\":11421:11427   */\n      dup3\n        /* \"#utility.yul\":11401:11434   */\n      tag_371\n      jump\t// in\n    tag_520:\n        /* \"#utility.yul\":11311:11440   */\n      swap2\n      swap1\n      pop\n      jump\t// out\n        /* \"#utility.yul\":11446:11754   */\n    tag_373:\n        /* \"#utility.yul\":11508:11512   */\n      0x00\n        /* \"#utility.yul\":11598:11616   */\n      0xffffffffffffffff\n        /* \"#utility.yul\":11590:11596   */\n      dup3\n        /* \"#utility.yul\":11587:11617   */\n      gt\n        /* \"#utility.yul\":11584:11640   */\n      iszero\n      tag_522\n      jumpi\n        /* \"#utility.yul\":11620:11638   */\n      tag_523\n      tag_87\n      jump\t// in\n    tag_523:\n        /* \"#utility.yul\":11584:11640   */\n    tag_522:\n        /* \"#utility.yul\":11658:11687   */\n      tag_524\n        /* \"#utility.yul\":11680:11686   */\n      dup3\n        /* \"#utility.yul\":11658:11687   */\n      tag_341\n      jump\t// in\n    tag_524:\n        /* \"#utility.yul\":11650:11687   */\n      swap1\n      pop\n        /* \"#utility.yul\":11742:11746   */\n      0x20\n        /* \"#utility.yul\":11736:11740   */\n      dup2\n        /* \"#utility.yul\":11732:11747   */\n      add\n        /* \"#utility.yul\":11724:11747   */\n      swap1\n      pop\n        /* \"#utility.yul\":11446:11754   */\n      swap2\n      swap1\n      pop\n      jump\t// out\n        /* \"#utility.yul\":11760:11908   */\n    tag_374:\n        /* \"#utility.yul\":11858:11864   */\n      dup3\n        /* \"#utility.yul\":11853:11856   */\n      dup2\n        /* \"#utility.yul\":11848:11851   */\n      dup4\n        /* \"#utility.yul\":11835:11865   */\n      calldatacopy\n        /* \"#utility.yul\":11899:11900   */\n      0x00\n        /* \"#utility.yul\":11890:11896   */\n      dup4\n        /* \"#utility.yul\":11885:11888   */\n      dup4\n        /* \"#utility.yul\":11881:11897   */\n      add\n        /* \"#utility.yul\":11874:11901   */\n      mstore\n        /* \"#utility.yul\":11760:11908   */\n      pop\n      pop\n      pop\n      jump\t// out\n        /* \"#utility.yul\":11914:12339   */\n    tag_375:\n        /* \"#utility.yul\":11992:11997   */\n      0x00\n        /* \"#utility.yul\":12017:12083   */\n      tag_527\n        /* \"#utility.yul\":12033:12082   */\n      tag_528\n        /* \"#utility.yul\":12075:12081   */\n      dup5\n        /* \"#utility.yul\":12033:12082   */\n      tag_373\n      jump\t// in\n    tag_528:\n        /* \"#utility.yul\":12017:12083   */\n      tag_372\n      jump\t// in\n    tag_527:\n        /* \"#utility.yul\":12008:12083   */\n      swap1\n      pop\n        /* \"#utility.yul\":12106:12112   */\n      dup3\n        /* \"#utility.yul\":12099:12104   */\n      dup2\n        /* \"#utility.yul\":12092:12113   */\n      mstore\n        /* \"#utility.yul\":12144:12148   */\n      0x20\n        /* \"#utility.yul\":12137:12142   */\n      dup2\n        /* \"#utility.yul\":12133:12149   */\n      add\n        /* \"#utility.yul\":12182:12185   */\n      dup5\n        /* \"#utility.yul\":12173:12179   */\n      dup5\n        /* \"#utility.yul\":12168:12171   */\n      dup5\n        /* \"#utility.yul\":12164:12180   */\n      add\n        /* \"#utility.yul\":12161:12186   */\n      gt\n        /* \"#utility.yul\":12158:12270   */\n      iszero\n      tag_529\n      jumpi\n        /* \"#utility.yul\":12189:12268   */\n      tag_530\n      tag_370\n      jump\t// in\n    tag_530:\n        /* \"#utility.yul\":12158:12270   */\n    tag_529:\n        /* \"#utility.yul\":12279:12333   */\n      tag_531\n        /* \"#utility.yul\":12326:12332   */\n      dup5\n        /* \"#utility.yul\":12321:12324   */\n      dup3\n        /* \"#utility.yul\":12316:12319   */\n      dup6\n        /* \"#utility.yul\":12279:12333   */\n      tag_374\n      jump\t// in\n    tag_531:\n        /* \"#utility.yul\":11998:12339   */\n      pop\n        /* \"#utility.yul\":11914:12339   */\n      swap4\n      swap3\n      pop\n      pop\n      pop\n      jump\t// out\n        /* \"#utility.yul\":12359:12699   */\n    tag_376:\n        /* \"#utility.yul\":12415:12420   */\n      0x00\n        /* \"#utility.yul\":12464:12467   */\n      dup3\n        /* \"#utility.yul\":12457:12461   */\n      0x1f\n        /* \"#utility.yul\":12449:12455   */\n      dup4\n        /* \"#utility.yul\":12445:12462   */\n      add\n        /* \"#utility.yul\":12441:12468   */\n      slt\n        /* \"#utility.yul\":12431:12553   */\n      tag_533\n      jumpi\n        /* \"#utility.yul\":12472:12551   */\n      tag_534\n      tag_369\n      jump\t// in\n    tag_534:\n        /* \"#utility.yul\":12431:12553   */\n    tag_533:\n        /* \"#utility.yul\":12589:12595   */\n      dup2\n        /* \"#utility.yul\":12576:12596   */\n      calldataload\n        /* \"#utility.yul\":12614:12693   */\n      tag_535\n        /* \"#utility.yul\":12689:12692   */\n      dup5\n        /* \"#utility.yul\":12681:12687   */\n      dup3\n        /* \"#utility.yul\":12674:12678   */\n      0x20\n        /* \"#utility.yul\":12666:12672   */\n      dup7\n        /* \"#utility.yul\":12662:12679   */\n      add\n        /* \"#utility.yul\":12614:12693   */\n      tag_375\n      jump\t// in\n    tag_535:\n        /* \"#utility.yul\":12605:12693   */\n      swap2\n      pop\n        /* \"#utility.yul\":12421:12699   */\n      pop\n        /* \"#utility.yul\":12359:12699   */\n      swap3\n      swap2\n      pop\n      pop\n      jump\t// out\n        /* \"#utility.yul\":12705:13214   */\n    tag_33:\n        /* \"#utility.yul\":12774:12780   */\n      0x00\n        /* \"#utility.yul\":12823:12825   */\n      0x20\n        /* \"#utility.yul\":12811:12820   */\n      dup3\n        /* \"#utility.yul\":12802:12809   */\n      dup5\n        /* \"#utility.yul\":12798:12821   */\n      sub\n        /* \"#utility.yul\":12794:12826   */\n      slt\n        /* \"#utility.yul\":12791:12910   */\n      iszero\n      tag_537\n      jumpi\n        /* \"#utility.yul\":12829:12908   */\n      tag_538\n      tag_351\n      jump\t// in\n    tag_538:\n        /* \"#utility.yul\":12791:12910   */\n    tag_537:\n        /* \"#utility.yul\":12977:12978   */\n      0x00\n        /* \"#utility.yul\":12966:12975   */\n      dup3\n        /* \"#utility.yul\":12962:12979   */\n      add\n        /* \"#utility.yul\":12949:12980   */\n      calldataload\n        /* \"#utility.yul\":13007:13025   */\n      0xffffffffffffffff\n        /* \"#utility.yul\":12999:13005   */\n      dup2\n        /* \"#utility.yul\":12996:13026   */\n      gt\n        /* \"#utility.yul\":12993:13110   */\n      iszero\n      tag_539\n      jumpi\n        /* \"#utility.yul\":13029:13108   */\n      tag_540\n      tag_352\n      jump\t// in\n    tag_540:\n        /* \"#utility.yul\":12993:13110   */\n    tag_539:\n        /* \"#utility.yul\":13134:13197   */\n      tag_541\n        /* \"#utility.yul\":13189:13196   */\n      dup5\n        /* \"#utility.yul\":13180:13186   */\n      dup3\n        /* \"#utility.yul\":13169:13178   */\n      dup6\n        /* \"#utility.yul\":13165:13187   */\n      add\n        /* \"#utility.yul\":13134:13197   */\n      tag_376\n      jump\t// in\n    tag_541:\n        /* \"#utility.yul\":13124:13197   */\n      swap2\n      pop\n        /* \"#utility.yul\":12920:13207   */\n      pop\n        /* \"#utility.yul\":12705:13214   */\n      swap3\n      swap2\n      pop\n      pop\n      jump\t// out\n        /* \"#utility.yul\":13220:13342   */\n    tag_377:\n        /* \"#utility.yul\":13293:13317   */\n      tag_543\n        /* \"#utility.yul\":13311:13316   */\n      dup2\n        /* \"#utility.yul\":13293:13317   */\n      tag_343\n      jump\t// in\n    tag_543:\n        /* \"#utility.yul\":13286:13291   */\n      dup2\n        /* \"#utility.yul\":13283:13318   */\n      eq\n        /* \"#utility.yul\":13273:13336   */\n      tag_544\n      jumpi\n        /* \"#utility.yul\":13332:13333   */\n      0x00\n        /* \"#utility.yul\":13329:13330   */\n      dup1\n        /* \"#utility.yul\":13322:13334   */\n      revert\n        /* \"#utility.yul\":13273:13336   */\n    tag_544:\n        /* \"#utility.yul\":13220:13342   */\n      pop\n      jump\t// out\n        /* \"#utility.yul\":13348:13487   */\n    tag_378:\n        /* \"#utility.yul\":13394:13399   */\n      0x00\n        /* \"#utility.yul\":13432:13438   */\n      dup2\n        /* \"#utility.yul\":13419:13439   */\n      calldataload\n        /* \"#utility.yul\":13410:13439   */\n      swap1\n      pop\n        /* \"#utility.yul\":13448:13481   */\n      tag_546\n        /* \"#utility.yul\":13475:13480   */\n      dup2\n        /* \"#utility.yul\":13448:13481   */\n      tag_377\n      jump\t// in\n    tag_546:\n        /* \"#utility.yul\":13348:13487   */\n      swap3\n      swap2\n      pop\n      pop\n      jump\t// out\n        /* \"#utility.yul\":13493:13822   */\n    tag_53:\n        /* \"#utility.yul\":13552:13558   */\n      0x00\n        /* \"#utility.yul\":13601:13603   */\n      0x20\n        /* \"#utility.yul\":13589:13598   */\n      dup3\n        /* \"#utility.yul\":13580:13587   */\n      dup5\n        /* \"#utility.yul\":13576:13599   */\n      sub\n        /* \"#utility.yul\":13572:13604   */\n      slt\n        /* \"#utility.yul\":13569:13688   */\n      iszero\n      tag_548\n      jumpi\n        /* \"#utility.yul\":13607:13686   */\n      tag_549\n      tag_351\n      jump\t// in\n    tag_549:\n        /* \"#utility.yul\":13569:13688   */\n    tag_548:\n        /* \"#utility.yul\":13727:13728   */\n      0x00\n        /* \"#utility.yul\":13752:13805   */\n      tag_550\n        /* \"#utility.yul\":13797:13804   */\n      dup5\n        /* \"#utility.yul\":13788:13794   */\n      dup3\n        /* \"#utility.yul\":13777:13786   */\n      dup6\n        /* \"#utility.yul\":13773:13795   */\n      add\n        /* \"#utility.yul\":13752:13805   */\n      tag_378\n      jump\t// in\n    tag_550:\n        /* \"#utility.yul\":13742:13805   */\n      swap2\n      pop\n        /* \"#utility.yul\":13698:13815   */\n      pop\n        /* \"#utility.yul\":13493:13822   */\n      swap3\n      swap2\n      pop\n      pop\n      jump\t// out\n        /* \"#utility.yul\":13898:14746   */\n    tag_379:\n        /* \"#utility.yul\":14013:14016   */\n      0x00\n        /* \"#utility.yul\":14049:14053   */\n      0x60\n        /* \"#utility.yul\":14044:14047   */\n      dup4\n        /* \"#utility.yul\":14040:14054   */\n      add\n        /* \"#utility.yul\":14136:14140   */\n      0x00\n        /* \"#utility.yul\":14129:14134   */\n      dup4\n        /* \"#utility.yul\":14125:14141   */\n      add\n        /* \"#utility.yul\":14119:14142   */\n      mload\n        /* \"#utility.yul\":14189:14192   */\n      dup5\n        /* \"#utility.yul\":14183:14187   */\n      dup3\n        /* \"#utility.yul\":14179:14193   */\n      sub\n        /* \"#utility.yul\":14172:14176   */\n      0x00\n        /* \"#utility.yul\":14167:14170   */\n      dup7\n        /* \"#utility.yul\":14163:14177   */\n      add\n        /* \"#utility.yul\":14156:14194   */\n      mstore\n        /* \"#utility.yul\":14215:14288   */\n      tag_552\n        /* \"#utility.yul\":14283:14287   */\n      dup3\n        /* \"#utility.yul\":14269:14281   */\n      dup3\n        /* \"#utility.yul\":14215:14288   */\n      tag_342\n      jump\t// in\n    tag_552:\n        /* \"#utility.yul\":14207:14288   */\n      swap2\n      pop\n        /* \"#utility.yul\":14064:14299   */\n      pop\n        /* \"#utility.yul\":14382:14386   */\n      0x20\n        /* \"#utility.yul\":14375:14380   */\n      dup4\n        /* \"#utility.yul\":14371:14387   */\n      add\n        /* \"#utility.yul\":14365:14388   */\n      mload\n        /* \"#utility.yul\":14401:14464   */\n      tag_553\n        /* \"#utility.yul\":14458:14462   */\n      0x20\n        /* \"#utility.yul\":14453:14456   */\n      dup7\n        /* \"#utility.yul\":14449:14463   */\n      add\n        /* \"#utility.yul\":14435:14447   */\n      dup3\n        /* \"#utility.yul\":14401:14464   */\n      tag_344\n      jump\t// in\n    tag_553:\n        /* \"#utility.yul\":14309:14474   */\n      pop\n        /* \"#utility.yul\":14556:14560   */\n      0x40\n        /* \"#utility.yul\":14549:14554   */\n      dup4\n        /* \"#utility.yul\":14545:14561   */\n      add\n        /* \"#utility.yul\":14539:14562   */\n      mload\n        /* \"#utility.yul\":14609:14612   */\n      dup5\n        /* \"#utility.yul\":14603:14607   */\n      dup3\n        /* \"#utility.yul\":14599:14613   */\n      sub\n        /* \"#utility.yul\":14592:14596   */\n      0x40\n        /* \"#utility.yul\":14587:14590   */\n      dup7\n        /* \"#utility.yul\":14583:14597   */\n      add\n        /* \"#utility.yul\":14576:14614   */\n      mstore\n        /* \"#utility.yul\":14635:14708   */\n      tag_554\n        /* \"#utility.yul\":14703:14707   */\n      dup3\n        /* \"#utility.yul\":14689:14701   */\n      dup3\n        /* \"#utility.yul\":14635:14708   */\n      tag_342\n      jump\t// in\n    tag_554:\n        /* \"#utility.yul\":14627:14708   */\n      swap2\n      pop\n        /* \"#utility.yul\":14484:14719   */\n      pop\n        /* \"#utility.yul\":14736:14740   */\n      dup1\n        /* \"#utility.yul\":14729:14740   */\n      swap2\n      pop\n        /* \"#utility.yul\":14018:14746   */\n      pop\n        /* \"#utility.yul\":13898:14746   */\n      swap3\n      swap2\n      pop\n      pop\n      jump\t// out\n        /* \"#utility.yul\":14752:15117   */\n    tag_60:\n        /* \"#utility.yul\":14891:14895   */\n      0x00\n        /* \"#utility.yul\":14929:14931   */\n      0x20\n        /* \"#utility.yul\":14918:14927   */\n      dup3\n        /* \"#utility.yul\":14914:14932   */\n      add\n        /* \"#utility.yul\":14906:14932   */\n      swap1\n      pop\n        /* \"#utility.yul\":14978:14987   */\n      dup2\n        /* \"#utility.yul\":14972:14976   */\n      dup2\n        /* \"#utility.yul\":14968:14988   */\n      sub\n        /* \"#utility.yul\":14964:14965   */\n      0x00\n        /* \"#utility.yul\":14953:14962   */\n      dup4\n        /* \"#utility.yul\":14949:14966   */\n      add\n        /* \"#utility.yul\":14942:14989   */\n      mstore\n        /* \"#utility.yul\":15006:15110   */\n      tag_556\n        /* \"#utility.yul\":15105:15109   */\n      dup2\n        /* \"#utility.yul\":15096:15102   */\n      dup5\n        /* \"#utility.yul\":15006:15110   */\n      tag_379\n      jump\t// in\n    tag_556:\n        /* \"#utility.yul\":14998:15110   */\n      swap1\n      pop\n        /* \"#utility.yul\":14752:15117   */\n      swap3\n      swap2\n      pop\n      pop\n      jump\t// out\n        /* \"#utility.yul\":15123:15303   */\n    tag_380:\n        /* \"#utility.yul\":15171:15248   */\n      0x4e487b7100000000000000000000000000000000000000000000000000000000\n        /* \"#utility.yul\":15168:15169   */\n      0x00\n        /* \"#utility.yul\":15161:15249   */\n      mstore\n        /* \"#utility.yul\":15268:15272   */\n      0x22\n        /* \"#utility.yul\":15265:15266   */\n      0x04\n        /* \"#utility.yul\":15258:15273   */\n      mstore\n        /* \"#utility.yul\":15292:15296   */\n      0x24\n        /* \"#utility.yul\":15289:15290   */\n      0x00\n        /* \"#utility.yul\":15282:15297   */\n      revert\n        /* \"#utility.yul\":15309:15629   */\n    tag_66:\n        /* \"#utility.yul\":15353:15359   */\n      0x00\n        /* \"#utility.yul\":15390:15391   */\n      0x02\n        /* \"#utility.yul\":15384:15388   */\n      dup3\n        /* \"#utility.yul\":15380:15392   */\n      div\n        /* \"#utility.yul\":15370:15392   */\n      swap1\n      pop\n        /* \"#utility.yul\":15437:15438   */\n      0x01\n        /* \"#utility.yul\":15431:15435   */\n      dup3\n        /* \"#utility.yul\":15427:15439   */\n      and\n        /* \"#utility.yul\":15458:15476   */\n      dup1\n        /* \"#utility.yul\":15448:15529   */\n      tag_559\n      jumpi\n        /* \"#utility.yul\":15514:15518   */\n      0x7f\n        /* \"#utility.yul\":15506:15512   */\n      dup3\n        /* \"#utility.yul\":15502:15519   */\n      and\n        /* \"#utility.yul\":15492:15519   */\n      swap2\n      pop\n        /* \"#utility.yul\":15448:15529   */\n    tag_559:\n        /* \"#utility.yul\":15576:15578   */\n      0x20\n        /* \"#utility.yul\":15568:15574   */\n      dup3\n        /* \"#utility.yul\":15565:15579   */\n      lt\n        /* \"#utility.yul\":15545:15563   */\n      dup2\n        /* \"#utility.yul\":15542:15580   */\n      sub\n        /* \"#utility.yul\":15539:15623   */\n      tag_560\n      jumpi\n        /* \"#utility.yul\":15595:15613   */\n      tag_561\n      tag_380\n      jump\t// in\n    tag_561:\n        /* \"#utility.yul\":15539:15623   */\n    tag_560:\n        /* \"#utility.yul\":15360:15629   */\n      pop\n        /* \"#utility.yul\":15309:15629   */\n      swap2\n      swap1\n      pop\n      jump\t// out\n        /* \"#utility.yul\":15635:15804   */\n    tag_381:\n        /* \"#utility.yul\":15719:15730   */\n      0x00\n        /* \"#utility.yul\":15753:15759   */\n      dup3\n        /* \"#utility.yul\":15748:15751   */\n      dup3\n        /* \"#utility.yul\":15741:15760   */\n      mstore\n        /* \"#utility.yul\":15793:15797   */\n      0x20\n        /* \"#utility.yul\":15788:15791   */\n      dup3\n        /* \"#utility.yul\":15784:15798   */\n      add\n        /* \"#utility.yul\":15769:15798   */\n      swap1\n      pop\n        /* \"#utility.yul\":15635:15804   */\n      swap3\n      swap2\n      pop\n      pop\n      jump\t// out\n        /* \"#utility.yul\":15810:16030   */\n    tag_382:\n        /* \"#utility.yul\":15950:15984   */\n      0x4f6e6c79206f776e65722063616e2063616c6c20746869732066756e6374696f\n        /* \"#utility.yul\":15946:15947   */\n      0x00\n        /* \"#utility.yul\":15938:15944   */\n      dup3\n        /* \"#utility.yul\":15934:15948   */\n      add\n        /* \"#utility.yul\":15927:15985   */\n      mstore\n        /* \"#utility.yul\":16019:16022   */\n      0x6e00000000000000000000000000000000000000000000000000000000000000\n        /* \"#utility.yul\":16014:16016   */\n      0x20\n        /* \"#utility.yul\":16006:16012   */\n      dup3\n        /* \"#utility.yul\":16002:16017   */\n      add\n        /* \"#utility.yul\":15995:16023   */\n      mstore\n        /* \"#utility.yul\":15810:16030   */\n      pop\n      jump\t// out\n        /* \"#utility.yul\":16036:16402   */\n    tag_383:\n        /* \"#utility.yul\":16178:16181   */\n      0x00\n        /* \"#utility.yul\":16199:16266   */\n      tag_565\n        /* \"#utility.yul\":16263:16265   */\n      0x21\n        /* \"#utility.yul\":16258:16261   */\n      dup4\n        /* \"#utility.yul\":16199:16266   */\n      tag_381\n      jump\t// in\n    tag_565:\n        /* \"#utility.yul\":16192:16266   */\n      swap2\n      pop\n        /* \"#utility.yul\":16275:16368   */\n      tag_566\n        /* \"#utility.yul\":16364:16367   */\n      dup3\n        /* \"#utility.yul\":16275:16368   */\n      tag_382\n      jump\t// in\n    tag_566:\n        /* \"#utility.yul\":16393:16395   */\n      0x40\n        /* \"#utility.yul\":16388:16391   */\n      dup3\n        /* \"#utility.yul\":16384:16396   */\n      add\n        /* \"#utility.yul\":16377:16396   */\n      swap1\n      pop\n        /* \"#utility.yul\":16036:16402   */\n      swap2\n      swap1\n      pop\n      jump\t// out\n        /* \"#utility.yul\":16408:16827   */\n    tag_79:\n        /* \"#utility.yul\":16574:16578   */\n      0x00\n        /* \"#utility.yul\":16612:16614   */\n      0x20\n        /* \"#utility.yul\":16601:16610   */\n      dup3\n        /* \"#utility.yul\":16597:16615   */\n      add\n        /* \"#utility.yul\":16589:16615   */\n      swap1\n      pop\n        /* \"#utility.yul\":16661:16670   */\n      dup2\n        /* \"#utility.yul\":16655:16659   */\n      dup2\n        /* \"#utility.yul\":16651:16671   */\n      sub\n        /* \"#utility.yul\":16647:16648   */\n      0x00\n        /* \"#utility.yul\":16636:16645   */\n      dup4\n        /* \"#utility.yul\":16632:16649   */\n      add\n        /* \"#utility.yul\":16625:16672   */\n      mstore\n        /* \"#utility.yul\":16689:16820   */\n      tag_568\n        /* \"#utility.yul\":16815:16819   */\n      dup2\n        /* \"#utility.yul\":16689:16820   */\n      tag_383\n      jump\t// in\n    tag_568:\n        /* \"#utility.yul\":16681:16820   */\n      swap1\n      pop\n        /* \"#utility.yul\":16408:16827   */\n      swap2\n      swap1\n      pop\n      jump\t// out\n        /* \"#utility.yul\":16833:17013   */\n    tag_97:\n        /* \"#utility.yul\":16881:16958   */\n      0x4e487b7100000000000000000000000000000000000000000000000000000000\n        /* \"#utility.yul\":16878:16879   */\n      0x00\n        /* \"#utility.yul\":16871:16959   */\n      mstore\n        /* \"#utility.yul\":16978:16982   */\n      0x32\n        /* \"#utility.yul\":16975:16976   */\n      0x04\n        /* \"#utility.yul\":16968:16983   */\n      mstore\n        /* \"#utility.yul\":17002:17006   */\n      0x24\n        /* \"#utility.yul\":16999:17000   */\n      0x00\n        /* \"#utility.yul\":16992:17007   */\n      revert\n        /* \"#utility.yul\":17019:17199   */\n    tag_384:\n        /* \"#utility.yul\":17067:17144   */\n      0x4e487b7100000000000000000000000000000000000000000000000000000000\n        /* \"#utility.yul\":17064:17065   */\n      0x00\n        /* \"#utility.yul\":17057:17145   */\n      mstore\n        /* \"#utility.yul\":17164:17168   */\n      0x11\n        /* \"#utility.yul\":17161:17162   */\n      0x04\n        /* \"#utility.yul\":17154:17169   */\n      mstore\n        /* \"#utility.yul\":17188:17192   */\n      0x24\n        /* \"#utility.yul\":17185:17186   */\n      0x00\n        /* \"#utility.yul\":17178:17193   */\n      revert\n        /* \"#utility.yul\":17205:17438   */\n    tag_124:\n        /* \"#utility.yul\":17244:17247   */\n      0x00\n        /* \"#utility.yul\":17267:17291   */\n      tag_572\n        /* \"#utility.yul\":17285:17290   */\n      dup3\n        /* \"#utility.yul\":17267:17291   */\n      tag_343\n      jump\t// in\n    tag_572:\n        /* \"#utility.yul\":17258:17291   */\n      swap2\n      pop\n        /* \"#utility.yul\":17313:17379   */\n      0xffffffffffffffffffffffffffffffffffffffffffffffffffffffffffffffff\n        /* \"#utility.yul\":17306:17311   */\n      dup3\n        /* \"#utility.yul\":17303:17380   */\n      sub\n        /* \"#utility.yul\":17300:17403   */\n      tag_573\n      jumpi\n        /* \"#utility.yul\":17383:17401   */\n      tag_574\n      tag_384\n      jump\t// in\n    tag_574:\n        /* \"#utility.yul\":17300:17403   */\n    tag_573:\n        /* \"#utility.yul\":17430:17431   */\n      0x01\n        /* \"#utility.yul\":17423:17428   */\n      dup3\n        /* \"#utility.yul\":17419:17432   */\n      add\n        /* \"#utility.yul\":17412:17432   */\n      swap1\n      pop\n        /* \"#utility.yul\":17205:17438   */\n      swap2\n      swap1\n      pop\n      jump\t// out\n        /* \"#utility.yul\":17444:17612   */\n    tag_385:\n        /* \"#utility.yul\":17584:17604   */\n      0x496e73756666696369656e742066756e64730000000000000000000000000000\n        /* \"#utility.yul\":17580:17581   */\n      0x00\n        /* \"#utility.yul\":17572:17578   */\n      dup3\n        /* \"#utility.yul\":17568:17582   */\n      add\n        /* \"#utility.yul\":17561:17605   */\n      mstore\n        /* \"#utility.yul\":17444:17612   */\n      pop\n      jump\t// out\n        /* \"#utility.yul\":17618:17984   */\n    tag_386:\n        /* \"#utility.yul\":17760:17763   */\n      0x00\n        /* \"#utility.yul\":17781:17848   */\n      tag_577\n        /* \"#utility.yul\":17845:17847   */\n      0x12\n        /* \"#utility.yul\":17840:17843   */\n      dup4\n        /* \"#utility.yul\":17781:17848   */\n      tag_381\n      jump\t// in\n    tag_577:\n        /* \"#utility.yul\":17774:17848   */\n      swap2\n      pop\n        /* \"#utility.yul\":17857:17950   */\n      tag_578\n        /* \"#utility.yul\":17946:17949   */\n      dup3\n        /* \"#utility.yul\":17857:17950   */\n      tag_385\n      jump\t// in\n    tag_578:\n        /* \"#utility.yul\":17975:17977   */\n      0x20\n        /* \"#utility.yul\":17970:17973   */\n      dup3\n        /* \"#utility.yul\":17966:17978   */\n      add\n        /* \"#utility.yul\":17959:17978   */\n      swap1\n      pop\n        /* \"#utility.yul\":17618:17984   */\n      swap2\n      swap1\n      pop\n      jump\t// out\n        /* \"#utility.yul\":17990:18409   */\n    tag_144:\n        /* \"#utility.yul\":18156:18160   */\n      0x00\n        /* \"#utility.yul\":18194:18196   */\n      0x20\n        /* \"#utility.yul\":18183:18192   */\n      dup3\n        /* \"#utility.yul\":18179:18197   */\n      add\n        /* \"#utility.yul\":18171:18197   */\n      swap1\n      pop\n        /* \"#utility.yul\":18243:18252   */\n      dup2\n        /* \"#utility.yul\":18237:18241   */\n      dup2\n        /* \"#utility.yul\":18233:18253   */\n      sub\n        /* \"#utility.yul\":18229:18230   */\n      0x00\n        /* \"#utility.yul\":18218:18227   */\n      dup4\n        /* \"#utility.yul\":18214:18231   */\n      add\n        /* \"#utility.yul\":18207:18254   */\n      mstore\n        /* \"#utility.yul\":18271:18402   */\n      tag_580\n        /* \"#utility.yul\":18397:18401   */\n      dup2\n        /* \"#utility.yul\":18271:18402   */\n      tag_386\n      jump\t// in\n    tag_580:\n        /* \"#utility.yul\":18263:18402   */\n      swap1\n      pop\n        /* \"#utility.yul\":17990:18409   */\n      swap2\n      swap1\n      pop\n      jump\t// out\n        /* \"#utility.yul\":18415:18609   */\n    tag_146:\n        /* \"#utility.yul\":18455:18459   */\n      0x00\n        /* \"#utility.yul\":18475:18495   */\n      tag_582\n        /* \"#utility.yul\":18493:18494   */\n      dup3\n        /* \"#utility.yul\":18475:18495   */\n      tag_343\n      jump\t// in\n    tag_582:\n        /* \"#utility.yul\":18470:18495   */\n      swap2\n      pop\n        /* \"#utility.yul\":18509:18529   */\n      tag_583\n        /* \"#utility.yul\":18527:18528   */\n      dup4\n        /* \"#utility.yul\":18509:18529   */\n      tag_343\n      jump\t// in\n    tag_583:\n        /* \"#utility.yul\":18504:18529   */\n      swap3\n      pop\n        /* \"#utility.yul\":18553:18554   */\n      dup3\n        /* \"#utility.yul\":18550:18551   */\n      dup3\n        /* \"#utility.yul\":18546:18555   */\n      sub\n        /* \"#utility.yul\":18538:18555   */\n      swap1\n      pop\n        /* \"#utility.yul\":18577:18578   */\n      dup2\n        /* \"#utility.yul\":18571:18575   */\n      dup2\n        /* \"#utility.yul\":18568:18579   */\n      gt\n        /* \"#utility.yul\":18565:18602   */\n      iszero\n      tag_584\n      jumpi\n        /* \"#utility.yul\":18582:18600   */\n      tag_585\n      tag_384\n      jump\t// in\n    tag_585:\n        /* \"#utility.yul\":18565:18602   */\n    tag_584:\n        /* \"#utility.yul\":18415:18609   */\n      swap3\n      swap2\n      pop\n      pop\n      jump\t// out\n        /* \"#utility.yul\":18615:18756   */\n    tag_387:\n        /* \"#utility.yul\":18664:18668   */\n      0x00\n        /* \"#utility.yul\":18687:18690   */\n      dup2\n        /* \"#utility.yul\":18679:18690   */\n      swap1\n      pop\n        /* \"#utility.yul\":18710:18713   */\n      dup2\n        /* \"#utility.yul\":18707:18708   */\n      0x00\n        /* \"#utility.yul\":18700:18714   */\n      mstore\n        /* \"#utility.yul\":18744:18748   */\n      0x20\n        /* \"#utility.yul\":18741:18742   */\n      0x00\n        /* \"#utility.yul\":18731:18749   */\n      keccak256\n        /* \"#utility.yul\":18723:18749   */\n      swap1\n      pop\n        /* \"#utility.yul\":18615:18756   */\n      swap2\n      swap1\n      pop\n      jump\t// out\n        /* \"#utility.yul\":18762:18855   */\n    tag_388:\n        /* \"#utility.yul\":18799:18805   */\n      0x00\n        /* \"#utility.yul\":18846:18848   */\n      0x20\n        /* \"#utility.yul\":18841:18843   */\n      0x1f\n        /* \"#utility.yul\":18834:18839   */\n      dup4\n        /* \"#utility.yul\":18830:18844   */\n      add\n        /* \"#utility.yul\":18826:18849   */\n      div\n        /* \"#utility.yul\":18816:18849   */\n      swap1\n      pop\n        /* \"#utility.yul\":18762:18855   */\n      swap2\n      swap1\n      pop\n      jump\t// out\n        /* \"#utility.yul\":18861:18968   */\n    tag_389:\n        /* \"#utility.yul\":18905:18913   */\n      0x00\n        /* \"#utility.yul\":18955:18960   */\n      dup3\n        /* \"#utility.yul\":18949:18953   */\n      dup3\n        /* \"#utility.yul\":18945:18961   */\n      shl\n        /* \"#utility.yul\":18924:18961   */\n      swap1\n      pop\n        /* \"#utility.yul\":18861:18968   */\n      swap3\n      swap2\n      pop\n      pop\n      jump\t// out\n        /* \"#utility.yul\":18974:19367   */\n    tag_390:\n        /* \"#utility.yul\":19043:19049   */\n      0x00\n        /* \"#utility.yul\":19093:19094   */\n      0x08\n        /* \"#utility.yul\":19081:19091   */\n      dup4\n        /* \"#utility.yul\":19077:19095   */\n      mul\n        /* \"#utility.yul\":19116:19213   */\n      tag_590\n        /* \"#utility.yul\":19146:19212   */\n      0xffffffffffffffffffffffffffffffffffffffffffffffffffffffffffffffff\n        /* \"#utility.yul\":19135:19144   */\n      dup3\n        /* \"#utility.yul\":19116:19213   */\n      tag_389\n      jump\t// in\n    tag_590:\n        /* \"#utility.yul\":19234:19273   */\n      tag_591\n        /* \"#utility.yul\":19264:19272   */\n      dup7\n        /* \"#utility.yul\":19253:19262   */\n      dup4\n        /* \"#utility.yul\":19234:19273   */\n      tag_389\n      jump\t// in\n    tag_591:\n        /* \"#utility.yul\":19222:19273   */\n      swap6\n      pop\n        /* \"#utility.yul\":19306:19310   */\n      dup1\n        /* \"#utility.yul\":19302:19311   */\n      not\n        /* \"#utility.yul\":19295:19300   */\n      dup5\n        /* \"#utility.yul\":19291:19312   */\n      and\n        /* \"#utility.yul\":19282:19312   */\n      swap4\n      pop\n        /* \"#utility.yul\":19355:19359   */\n      dup1\n        /* \"#utility.yul\":19345:19353   */\n      dup7\n        /* \"#utility.yul\":19341:19360   */\n      and\n        /* \"#utility.yul\":19334:19339   */\n      dup5\n        /* \"#utility.yul\":19331:19361   */\n      or\n        /* \"#utility.yul\":19321:19361   */\n      swap3\n      pop\n        /* \"#utility.yul\":19050:19367   */\n      pop\n      pop\n        /* \"#utility.yul\":18974:19367   */\n      swap4\n      swap3\n      pop\n      pop\n      pop\n      jump\t// out\n        /* \"#utility.yul\":19373:19433   */\n    tag_391:\n        /* \"#utility.yul\":19401:19404   */\n      0x00\n        /* \"#utility.yul\":19422:19427   */\n      dup2\n        /* \"#utility.yul\":19415:19427   */\n      swap1\n      pop\n        /* \"#utility.yul\":19373:19433   */\n      swap2\n      swap1\n      pop\n      jump\t// out\n        /* \"#utility.yul\":19439:19581   */\n    tag_392:\n        /* \"#utility.yul\":19489:19498   */\n      0x00\n        /* \"#utility.yul\":19522:19575   */\n      tag_594\n        /* \"#utility.yul\":19540:19574   */\n      tag_595\n        /* \"#utility.yul\":19549:19573   */\n      tag_596\n        /* \"#utility.yul\":19567:19572   */\n      dup5\n        /* \"#utility.yul\":19549:19573   */\n      tag_343\n      jump\t// in\n    tag_596:\n        /* \"#utility.yul\":19540:19574   */\n      tag_391\n      jump\t// in\n    tag_595:\n        /* \"#utility.yul\":19522:19575   */\n      tag_343\n      jump\t// in\n    tag_594:\n        /* \"#utility.yul\":19509:19575   */\n      swap1\n      pop\n        /* \"#utility.yul\":19439:19581   */\n      swap2\n      swap1\n      pop\n      jump\t// out\n        /* \"#utility.yul\":19587:19662   */\n    tag_393:\n        /* \"#utility.yul\":19630:19633   */\n      0x00\n        /* \"#utility.yul\":19651:19656   */\n      dup2\n        /* \"#utility.yul\":19644:19656   */\n      swap1\n      pop\n        /* \"#utility.yul\":19587:19662   */\n      swap2\n      swap1\n      pop\n      jump\t// out\n        /* \"#utility.yul\":19668:19937   */\n    tag_394:\n        /* \"#utility.yul\":19778:19817   */\n      tag_599\n        /* \"#utility.yul\":19809:19816   */\n      dup4\n        /* \"#utility.yul\":19778:19817   */\n      tag_392\n      jump\t// in\n    tag_599:\n        /* \"#utility.yul\":19839:19930   */\n      tag_600\n        /* \"#utility.yul\":19888:19929   */\n      tag_601\n        /* \"#utility.yul\":19912:19928   */\n      dup3\n        /* \"#utility.yul\":19888:19929   */\n      tag_393\n      jump\t// in\n    tag_601:\n        /* \"#utility.yul\":19880:19886   */\n      dup5\n        /* \"#utility.yul\":19873:19877   */\n      dup5\n        /* \"#utility.yul\":19867:19878   */\n      sload\n        /* \"#utility.yul\":19839:19930   */\n      tag_390\n      jump\t// in\n    tag_600:\n        /* \"#utility.yul\":19833:19837   */\n      dup3\n        /* \"#utility.yul\":19826:19931   */\n      sstore\n        /* \"#utility.yul\":19744:19937   */\n      pop\n        /* \"#utility.yul\":19668:19937   */\n      pop\n      pop\n      pop\n      jump\t// out\n        /* \"#utility.yul\":19943:20016   */\n    tag_395:\n        /* \"#utility.yul\":19988:19991   */\n      0x00\n        /* \"#utility.yul\":19943:20016   */\n      swap1\n      jump\t// out\n        /* \"#utility.yul\":20022:20211   */\n    tag_396:\n        /* \"#utility.yul\":20099:20131   */\n      tag_604\n      tag_395\n      jump\t// in\n    tag_604:\n        /* \"#utility.yul\":20140:20205   */\n      tag_605\n        /* \"#utility.yul\":20198:20204   */\n      dup2\n        /* \"#utility.yul\":20190:20196   */\n      dup5\n        /* \"#utility.yul\":20184:20188   */\n      dup5\n        /* \"#utility.yul\":20140:20205   */\n      tag_394\n      jump\t// in\n    tag_605:\n        /* \"#utility.yul\":20075:20211   */\n      pop\n        /* \"#utility.yul\":20022:20211   */\n      pop\n      pop\n      jump\t// out\n        /* \"#utility.yul\":20217:20403   */\n    tag_397:\n        /* \"#utility.yul\":20277:20397   */\n    tag_607:\n        /* \"#utility.yul\":20294:20297   */\n      dup2\n        /* \"#utility.yul\":20287:20292   */\n      dup2\n        /* \"#utility.yul\":20284:20298   */\n      lt\n        /* \"#utility.yul\":20277:20397   */\n      iszero\n      tag_609\n      jumpi\n        /* \"#utility.yul\":20348:20387   */\n      tag_610\n        /* \"#utility.yul\":20385:20386   */\n      0x00\n        /* \"#utility.yul\":20378:20383   */\n      dup3\n        /* \"#utility.yul\":20348:20387   */\n      tag_396\n      jump\t// in\n    tag_610:\n        /* \"#utility.yul\":20321:20322   */\n      0x01\n        /* \"#utility.yul\":20314:20319   */\n      dup2\n        /* \"#utility.yul\":20310:20323   */\n      add\n        /* \"#utility.yul\":20301:20323   */\n      swap1\n      pop\n        /* \"#utility.yul\":20277:20397   */\n      jump(tag_607)\n    tag_609:\n        /* \"#utility.yul\":20217:20403   */\n      pop\n      pop\n      jump\t// out\n        /* \"#utility.yul\":20409:20952   */\n    tag_398:\n        /* \"#utility.yul\":20510:20512   */\n      0x1f\n        /* \"#utility.yul\":20505:20508   */\n      dup3\n        /* \"#utility.yul\":20502:20513   */\n      gt\n        /* \"#utility.yul\":20499:20945   */\n      iszero\n      tag_612\n      jumpi\n        /* \"#utility.yul\":20544:20582   */\n      tag_613\n        /* \"#utility.yul\":20576:20581   */\n      dup2\n        /* \"#utility.yul\":20544:20582   */\n      tag_387\n      jump\t// in\n    tag_613:\n        /* \"#utility.yul\":20628:20657   */\n      tag_614\n        /* \"#utility.yul\":20646:20656   */\n      dup5\n        /* \"#utility.yul\":20628:20657   */\n      tag_388\n      jump\t// in\n    tag_614:\n        /* \"#utility.yul\":20618:20626   */\n      dup2\n        /* \"#utility.yul\":20614:20658   */\n      add\n        /* \"#utility.yul\":20811:20813   */\n      0x20\n        /* \"#utility.yul\":20799:20809   */\n      dup6\n        /* \"#utility.yul\":20796:20814   */\n      lt\n        /* \"#utility.yul\":20793:20842   */\n      iszero\n      tag_615\n      jumpi\n        /* \"#utility.yul\":20832:20840   */\n      dup2\n        /* \"#utility.yul\":20817:20840   */\n      swap1\n      pop\n        /* \"#utility.yul\":20793:20842   */\n    tag_615:\n        /* \"#utility.yul\":20855:20935   */\n      tag_616\n        /* \"#utility.yul\":20911:20933   */\n      tag_617\n        /* \"#utility.yul\":20929:20932   */\n      dup6\n        /* \"#utility.yul\":20911:20933   */\n      tag_388\n      jump\t// in\n    tag_617:\n        /* \"#utility.yul\":20901:20909   */\n      dup4\n        /* \"#utility.yul\":20897:20934   */\n      add\n        /* \"#utility.yul\":20884:20895   */\n      dup3\n        /* \"#utility.yul\":20855:20935   */\n      tag_397\n      jump\t// in\n    tag_616:\n        /* \"#utility.yul\":20514:20945   */\n      pop\n      pop\n        /* \"#utility.yul\":20499:20945   */\n    tag_612:\n        /* \"#utility.yul\":20409:20952   */\n      pop\n      pop\n      pop\n      jump\t// out\n        /* \"#utility.yul\":20958:21075   */\n    tag_399:\n        /* \"#utility.yul\":21012:21020   */\n      0x00\n        /* \"#utility.yul\":21062:21067   */\n      dup3\n        /* \"#utility.yul\":21056:21060   */\n      dup3\n        /* \"#utility.yul\":21052:21068   */\n      shr\n        /* \"#utility.yul\":21031:21068   */\n      swap1\n      pop\n        /* \"#utility.yul\":20958:21075   */\n      swap3\n      swap2\n      pop\n      pop\n      jump\t// out\n        /* \"#utility.yul\":21081:21250   */\n    tag_400:\n        /* \"#utility.yul\":21125:21131   */\n      0x00\n        /* \"#utility.yul\":21158:21209   */\n      tag_620\n        /* \"#utility.yul\":21206:21207   */\n      0x00\n        /* \"#utility.yul\":21202:21208   */\n      not\n        /* \"#utility.yul\":21194:21199   */\n      dup5\n        /* \"#utility.yul\":21191:21192   */\n      0x08\n        /* \"#utility.yul\":21187:21200   */\n      mul\n        /* \"#utility.yul\":21158:21209   */\n      tag_399\n      jump\t// in\n    tag_620:\n        /* \"#utility.yul\":21154:21210   */\n      not\n        /* \"#utility.yul\":21239:21243   */\n      dup1\n        /* \"#utility.yul\":21233:21237   */\n      dup4\n        /* \"#utility.yul\":21229:21244   */\n      and\n        /* \"#utility.yul\":21219:21244   */\n      swap2\n      pop\n        /* \"#utility.yul\":21132:21250   */\n      pop\n        /* \"#utility.yul\":21081:21250   */\n      swap3\n      swap2\n      pop\n      pop\n      jump\t// out\n        /* \"#utility.yul\":21255:21550   */\n    tag_401:\n        /* \"#utility.yul\":21331:21335   */\n      0x00\n        /* \"#utility.yul\":21477:21506   */\n      tag_622\n        /* \"#utility.yul\":21502:21505   */\n      dup4\n        /* \"#utility.yul\":21496:21500   */\n      dup4\n        /* \"#utility.yul\":21477:21506   */\n      tag_400\n      jump\t// in\n    tag_622:\n        /* \"#utility.yul\":21469:21506   */\n      swap2\n      pop\n        /* \"#utility.yul\":21539:21542   */\n      dup3\n        /* \"#utility.yul\":21536:21537   */\n      0x02\n        /* \"#utility.yul\":21532:21543   */\n      mul\n        /* \"#utility.yul\":21526:21530   */\n      dup3\n        /* \"#utility.yul\":21523:21544   */\n      or\n        /* \"#utility.yul\":21515:21544   */\n      swap1\n      pop\n        /* \"#utility.yul\":21255:21550   */\n      swap3\n      swap2\n      pop\n      pop\n      jump\t// out\n        /* \"#utility.yul\":21555:22950   */\n    tag_151:\n        /* \"#utility.yul\":21672:21709   */\n      tag_624\n        /* \"#utility.yul\":21705:21708   */\n      dup3\n        /* \"#utility.yul\":21672:21709   */\n      tag_338\n      jump\t// in\n    tag_624:\n        /* \"#utility.yul\":21774:21792   */\n      0xffffffffffffffff\n        /* \"#utility.yul\":21766:21772   */\n      dup2\n        /* \"#utility.yul\":21763:21793   */\n      gt\n        /* \"#utility.yul\":21760:21816   */\n      iszero\n      tag_625\n      jumpi\n        /* \"#utility.yul\":21796:21814   */\n      tag_626\n      tag_87\n      jump\t// in\n    tag_626:\n        /* \"#utility.yul\":21760:21816   */\n    tag_625:\n        /* \"#utility.yul\":21840:21878   */\n      tag_627\n        /* \"#utility.yul\":21872:21876   */\n      dup3\n        /* \"#utility.yul\":21866:21877   */\n      sload\n        /* \"#utility.yul\":21840:21878   */\n      tag_66\n      jump\t// in\n    tag_627:\n        /* \"#utility.yul\":21925:21992   */\n      tag_628\n        /* \"#utility.yul\":21985:21991   */\n      dup3\n        /* \"#utility.yul\":21977:21983   */\n      dup3\n        /* \"#utility.yul\":21971:21975   */\n      dup6\n        /* \"#utility.yul\":21925:21992   */\n      tag_398\n      jump\t// in\n    tag_628:\n        /* \"#utility.yul\":22019:22020   */\n      0x00\n        /* \"#utility.yul\":22043:22047   */\n      0x20\n        /* \"#utility.yul\":22030:22047   */\n      swap1\n      pop\n        /* \"#utility.yul\":22075:22077   */\n      0x1f\n        /* \"#utility.yul\":22067:22073   */\n      dup4\n        /* \"#utility.yul\":22064:22078   */\n      gt\n        /* \"#utility.yul\":22092:22093   */\n      0x01\n        /* \"#utility.yul\":22087:22705   */\n      dup2\n      eq\n      tag_630\n      jumpi\n        /* \"#utility.yul\":22749:22750   */\n      0x00\n        /* \"#utility.yul\":22766:22772   */\n      dup5\n        /* \"#utility.yul\":22763:22840   */\n      iszero\n      tag_631\n      jumpi\n        /* \"#utility.yul\":22815:22824   */\n      dup3\n        /* \"#utility.yul\":22810:22813   */\n      dup8\n        /* \"#utility.yul\":22806:22825   */\n      add\n        /* \"#utility.yul\":22800:22826   */\n      mload\n        /* \"#utility.yul\":22791:22826   */\n      swap1\n      pop\n        /* \"#utility.yul\":22763:22840   */\n    tag_631:\n        /* \"#utility.yul\":22866:22933   */\n      tag_632\n        /* \"#utility.yul\":22926:22932   */\n      dup6\n        /* \"#utility.yul\":22919:22924   */\n      dup3\n        /* \"#utility.yul\":22866:22933   */\n      tag_401\n      jump\t// in\n    tag_632:\n        /* \"#utility.yul\":22860:22864   */\n      dup7\n        /* \"#utility.yul\":22853:22934   */\n      sstore\n        /* \"#utility.yul\":22722:22944   */\n      pop\n        /* \"#utility.yul\":22057:22944   */\n      jump(tag_629)\n        /* \"#utility.yul\":22087:22705   */\n    tag_630:\n        /* \"#utility.yul\":22139:22143   */\n      0x1f\n        /* \"#utility.yul\":22135:22144   */\n      not\n        /* \"#utility.yul\":22127:22133   */\n      dup5\n        /* \"#utility.yul\":22123:22145   */\n      and\n        /* \"#utility.yul\":22173:22210   */\n      tag_633\n        /* \"#utility.yul\":22205:22209   */\n      dup7\n        /* \"#utility.yul\":22173:22210   */\n      tag_387\n      jump\t// in\n    tag_633:\n        /* \"#utility.yul\":22232:22233   */\n      0x00\n        /* \"#utility.yul\":22246:22454   */\n    tag_634:\n        /* \"#utility.yul\":22260:22267   */\n      dup3\n        /* \"#utility.yul\":22257:22258   */\n      dup2\n        /* \"#utility.yul\":22254:22268   */\n      lt\n        /* \"#utility.yul\":22246:22454   */\n      iszero\n      tag_636\n      jumpi\n        /* \"#utility.yul\":22339:22348   */\n      dup5\n        /* \"#utility.yul\":22334:22337   */\n      dup10\n        /* \"#utility.yul\":22330:22349   */\n      add\n        /* \"#utility.yul\":22324:22350   */\n      mload\n        /* \"#utility.yul\":22316:22322   */\n      dup3\n        /* \"#utility.yul\":22309:22351   */\n      sstore\n        /* \"#utility.yul\":22390:22391   */\n      0x01\n        /* \"#utility.yul\":22382:22388   */\n      dup3\n        /* \"#utility.yul\":22378:22392   */\n      add\n        /* \"#utility.yul\":22368:22392   */\n      swap2\n      pop\n        /* \"#utility.yul\":22437:22439   */\n      0x20\n        /* \"#utility.yul\":22426:22435   */\n      dup6\n        /* \"#utility.yul\":22422:22440   */\n      add\n        /* \"#utility.yul\":22409:22440   */\n      swap5\n      pop\n        /* \"#utility.yul\":22283:22287   */\n      0x20\n        /* \"#utility.yul\":22280:22281   */\n      dup2\n        /* \"#utility.yul\":22276:22288   */\n      add\n        /* \"#utility.yul\":22271:22288   */\n      swap1\n      pop\n        /* \"#utility.yul\":22246:22454   */\n      jump(tag_634)\n    tag_636:\n        /* \"#utility.yul\":22482:22488   */\n      dup7\n        /* \"#utility.yul\":22473:22480   */\n      dup4\n        /* \"#utility.yul\":22470:22489   */\n      lt\n        /* \"#utility.yul\":22467:22646   */\n      iszero\n      tag_637\n      jumpi\n        /* \"#utility.yul\":22540:22549   */\n      dup5\n        /* \"#utility.yul\":22535:22538   */\n      dup10\n        /* \"#utility.yul\":22531:22550   */\n      add\n        /* \"#utility.yul\":22525:22551   */\n      mload\n        /* \"#utility.yul\":22583:22631   */\n      tag_638\n        /* \"#utility.yul\":22625:22629   */\n      0x1f\n        /* \"#utility.yul\":22617:22623   */\n      dup10\n        /* \"#utility.yul\":22613:22630   */\n      and\n        /* \"#utility.yul\":22602:22611   */\n      dup3\n        /* \"#utility.yul\":22583:22631   */\n      tag_400\n      jump\t// in\n    tag_638:\n        /* \"#utility.yul\":22575:22581   */\n      dup4\n        /* \"#utility.yul\":22568:22632   */\n      sstore\n        /* \"#utility.yul\":22490:22646   */\n      pop\n        /* \"#utility.yul\":22467:22646   */\n    tag_637:\n        /* \"#utility.yul\":22692:22693   */\n      0x01\n        /* \"#utility.yul\":22688:22689   */\n      0x02\n        /* \"#utility.yul\":22680:22686   */\n      dup9\n        /* \"#utility.yul\":22676:22690   */\n      mul\n        /* \"#utility.yul\":22672:22694   */\n      add\n        /* \"#utility.yul\":22666:22670   */\n      dup9\n        /* \"#utility.yul\":22659:22695   */\n      sstore\n        /* \"#utility.yul\":22094:22705   */\n      pop\n      pop\n      pop\n        /* \"#utility.yul\":22057:22944   */\n    tag_629:\n      pop\n        /* \"#utility.yul\":21647:22950   */\n      pop\n      pop\n      pop\n        /* \"#utility.yul\":21555:22950   */\n      pop\n      pop\n      jump\t// out\n        /* \"#utility.yul\":22956:23119   */\n    tag_402:\n        /* \"#utility.yul\":23096:23111   */\n      0x4e6f207265656e7472616e637900000000000000000000000000000000000000\n        /* \"#utility.yul\":23092:23093   */\n      0x00\n        /* \"#utility.yul\":23084:23090   */\n      dup3\n        /* \"#utility.yul\":23080:23094   */\n      add\n        /* \"#utility.yul\":23073:23112   */\n      mstore\n        /* \"#utility.yul\":22956:23119   */\n      pop\n      jump\t// out\n        /* \"#utility.yul\":23125:23491   */\n    tag_403:\n        /* \"#utility.yul\":23267:23270   */\n      0x00\n        /* \"#utility.yul\":23288:23355   */\n      tag_641\n        /* \"#utility.yul\":23352:23354   */\n      0x0d\n        /* \"#utility.yul\":23347:23350   */\n      dup4\n        /* \"#utility.yul\":23288:23355   */\n      tag_381\n      jump\t// in\n    tag_641:\n        /* \"#utility.yul\":23281:23355   */\n      swap2\n      pop\n        /* \"#utility.yul\":23364:23457   */\n      tag_642\n        /* \"#utility.yul\":23453:23456   */\n      dup3\n        /* \"#utility.yul\":23364:23457   */\n      tag_402\n      jump\t// in\n    tag_642:\n        /* \"#utility.yul\":23482:23484   */\n      0x20\n        /* \"#utility.yul\":23477:23480   */\n      dup3\n        /* \"#utility.yul\":23473:23485   */\n      add\n        /* \"#utility.yul\":23466:23485   */\n      swap1\n      pop\n        /* \"#utility.yul\":23125:23491   */\n      swap2\n      swap1\n      pop\n      jump\t// out\n        /* \"#utility.yul\":23497:23916   */\n    tag_160:\n        /* \"#utility.yul\":23663:23667   */\n      0x00\n        /* \"#utility.yul\":23701:23703   */\n      0x20\n        /* \"#utility.yul\":23690:23699   */\n      dup3\n        /* \"#utility.yul\":23686:23704   */\n      add\n        /* \"#utility.yul\":23678:23704   */\n      swap1\n      pop\n        /* \"#utility.yul\":23750:23759   */\n      dup2\n        /* \"#utility.yul\":23744:23748   */\n      dup2\n        /* \"#utility.yul\":23740:23760   */\n      sub\n        /* \"#utility.yul\":23736:23737   */\n      0x00\n        /* \"#utility.yul\":23725:23734   */\n      dup4\n        /* \"#utility.yul\":23721:23738   */\n      add\n        /* \"#utility.yul\":23714:23761   */\n      mstore\n        /* \"#utility.yul\":23778:23909   */\n      tag_644\n        /* \"#utility.yul\":23904:23908   */\n      dup2\n        /* \"#utility.yul\":23778:23909   */\n      tag_403\n      jump\t// in\n    tag_644:\n        /* \"#utility.yul\":23770:23909   */\n      swap1\n      pop\n        /* \"#utility.yul\":23497:23916   */\n      swap2\n      swap1\n      pop\n      jump\t// out\n        /* \"#utility.yul\":23922:24100   */\n    tag_404:\n        /* \"#utility.yul\":24062:24092   */\n      0x596f7520646f206e6f74206861766520616e792062616c616e63652e00000000\n        /* \"#utility.yul\":24058:24059   */\n      0x00\n        /* \"#utility.yul\":24050:24056   */\n      dup3\n        /* \"#utility.yul\":24046:24060   */\n      add\n        /* \"#utility.yul\":24039:24093   */\n      mstore\n        /* \"#utility.yul\":23922:24100   */\n      pop\n      jump\t// out\n        /* \"#utility.yul\":24106:24472   */\n    tag_405:\n        /* \"#utility.yul\":24248:24251   */\n      0x00\n        /* \"#utility.yul\":24269:24336   */\n      tag_647\n        /* \"#utility.yul\":24333:24335   */\n      0x1c\n        /* \"#utility.yul\":24328:24331   */\n      dup4\n        /* \"#utility.yul\":24269:24336   */\n      tag_381\n      jump\t// in\n    tag_647:\n        /* \"#utility.yul\":24262:24336   */\n      swap2\n      pop\n        /* \"#utility.yul\":24345:24438   */\n      tag_648\n        /* \"#utility.yul\":24434:24437   */\n      dup3\n        /* \"#utility.yul\":24345:24438   */\n      tag_404\n      jump\t// in\n    tag_648:\n        /* \"#utility.yul\":24463:24465   */\n      0x20\n        /* \"#utility.yul\":24458:24461   */\n      dup3\n        /* \"#utility.yul\":24454:24466   */\n      add\n        /* \"#utility.yul\":24447:24466   */\n      swap1\n      pop\n        /* \"#utility.yul\":24106:24472   */\n      swap2\n      swap1\n      pop\n      jump\t// out\n        /* \"#utility.yul\":24478:24897   */\n    tag_164:\n        /* \"#utility.yul\":24644:24648   */\n      0x00\n        /* \"#utility.yul\":24682:24684   */\n      0x20\n        /* \"#utility.yul\":24671:24680   */\n      dup3\n        /* \"#utility.yul\":24667:24685   */\n      add\n        /* \"#utility.yul\":24659:24685   */\n      swap1\n      pop\n        /* \"#utility.yul\":24731:24740   */\n      dup2\n        /* \"#utility.yul\":24725:24729   */\n      dup2\n        /* \"#utility.yul\":24721:24741   */\n      sub\n        /* \"#utility.yul\":24717:24718   */\n      0x00\n        /* \"#utility.yul\":24706:24715   */\n      dup4\n        /* \"#utility.yul\":24702:24719   */\n      add\n        /* \"#utility.yul\":24695:24742   */\n      mstore\n        /* \"#utility.yul\":24759:24890   */\n      tag_650\n        /* \"#utility.yul\":24885:24889   */\n      dup2\n        /* \"#utility.yul\":24759:24890   */\n      tag_405\n      jump\t// in\n    tag_650:\n        /* \"#utility.yul\":24751:24890   */\n      swap1\n      pop\n        /* \"#utility.yul\":24478:24897   */\n      swap2\n      swap1\n      pop\n      jump\t// out\n        /* \"#utility.yul\":24903:25050   */\n    tag_406:\n        /* \"#utility.yul\":25004:25015   */\n      0x00\n        /* \"#utility.yul\":25041:25044   */\n      dup2\n        /* \"#utility.yul\":25026:25044   */\n      swap1\n      pop\n        /* \"#utility.yul\":24903:25050   */\n      swap3\n      swap2\n      pop\n      pop\n      jump\t// out\n        /* \"#utility.yul\":25056:25170   */\n    tag_407:\n      pop\n      jump\t// out\n        /* \"#utility.yul\":25176:25574   */\n    tag_408:\n        /* \"#utility.yul\":25335:25338   */\n      0x00\n        /* \"#utility.yul\":25356:25439   */\n      tag_654\n        /* \"#utility.yul\":25437:25438   */\n      0x00\n        /* \"#utility.yul\":25432:25435   */\n      dup4\n        /* \"#utility.yul\":25356:25439   */\n      tag_406\n      jump\t// in\n    tag_654:\n        /* \"#utility.yul\":25349:25439   */\n      swap2\n      pop\n        /* \"#utility.yul\":25448:25541   */\n      tag_655\n        /* \"#utility.yul\":25537:25540   */\n      dup3\n        /* \"#utility.yul\":25448:25541   */\n      tag_407\n      jump\t// in\n    tag_655:\n        /* \"#utility.yul\":25566:25567   */\n      0x00\n        /* \"#utility.yul\":25561:25564   */\n      dup3\n        /* \"#utility.yul\":25557:25568   */\n      add\n        /* \"#utility.yul\":25550:25568   */\n      swap1\n      pop\n        /* \"#utility.yul\":25176:25574   */\n      swap2\n      swap1\n      pop\n      jump\t// out\n        /* \"#utility.yul\":25580:25959   */\n    tag_166:\n        /* \"#utility.yul\":25764:25767   */\n      0x00\n        /* \"#utility.yul\":25786:25933   */\n      tag_657\n        /* \"#utility.yul\":25929:25932   */\n      dup3\n        /* \"#utility.yul\":25786:25933   */\n      tag_408\n      jump\t// in\n    tag_657:\n        /* \"#utility.yul\":25779:25933   */\n      swap2\n      pop\n        /* \"#utility.yul\":25950:25953   */\n      dup2\n        /* \"#utility.yul\":25943:25953   */\n      swap1\n      pop\n        /* \"#utility.yul\":25580:25959   */\n      swap2\n      swap1\n      pop\n      jump\t// out\n        /* \"#utility.yul\":25965:26131   */\n    tag_409:\n        /* \"#utility.yul\":26105:26123   */\n      0x5472616e73666572206661696c65642e00000000000000000000000000000000\n        /* \"#utility.yul\":26101:26102   */\n      0x00\n        /* \"#utility.yul\":26093:26099   */\n      dup3\n        /* \"#utility.yul\":26089:26103   */\n      add\n        /* \"#utility.yul\":26082:26124   */\n      mstore\n        /* \"#utility.yul\":25965:26131   */\n      pop\n      jump\t// out\n        /* \"#utility.yul\":26137:26503   */\n    tag_410:\n        /* \"#utility.yul\":26279:26282   */\n      0x00\n        /* \"#utility.yul\":26300:26367   */\n      tag_660\n        /* \"#utility.yul\":26364:26366   */\n      0x10\n        /* \"#utility.yul\":26359:26362   */\n      dup4\n        /* \"#utility.yul\":26300:26367   */\n      tag_381\n      jump\t// in\n    tag_660:\n        /* \"#utility.yul\":26293:26367   */\n      swap2\n      pop\n        /* \"#utility.yul\":26376:26469   */\n      tag_661\n        /* \"#utility.yul\":26465:26468   */\n      dup3\n        /* \"#utility.yul\":26376:26469   */\n      tag_409\n      jump\t// in\n    tag_661:\n        /* \"#utility.yul\":26494:26496   */\n      0x20\n        /* \"#utility.yul\":26489:26492   */\n      dup3\n        /* \"#utility.yul\":26485:26497   */\n      add\n        /* \"#utility.yul\":26478:26497   */\n      swap1\n      pop\n        /* \"#utility.yul\":26137:26503   */\n      swap2\n      swap1\n      pop\n      jump\t// out\n        /* \"#utility.yul\":26509:26928   */\n    tag_172:\n        /* \"#utility.yul\":26675:26679   */\n      0x00\n        /* \"#utility.yul\":26713:26715   */\n      0x20\n        /* \"#utility.yul\":26702:26711   */\n      dup3\n        /* \"#utility.yul\":26698:26716   */\n      add\n        /* \"#utility.yul\":26690:26716   */\n      swap1\n      pop\n        /* \"#utility.yul\":26762:26771   */\n      dup2\n        /* \"#utility.yul\":26756:26760   */\n      dup2\n        /* \"#utility.yul\":26752:26772   */\n      sub\n        /* \"#utility.yul\":26748:26749   */\n      0x00\n        /* \"#utility.yul\":26737:26746   */\n      dup4\n        /* \"#utility.yul\":26733:26750   */\n      add\n        /* \"#utility.yul\":26726:26773   */\n      mstore\n        /* \"#utility.yul\":26790:26921   */\n      tag_663\n        /* \"#utility.yul\":26916:26920   */\n      dup2\n        /* \"#utility.yul\":26790:26921   */\n      tag_410\n      jump\t// in\n    tag_663:\n        /* \"#utility.yul\":26782:26921   */\n      swap1\n      pop\n        /* \"#utility.yul\":26509:26928   */\n      swap2\n      swap1\n      pop\n      jump\t// out\n        /* \"#utility.yul\":26934:27107   */\n    tag_411:\n        /* \"#utility.yul\":27074:27099   */\n      0x4d697373696e6720726571756972656420616d6f756e74000000000000000000\n        /* \"#utility.yul\":27070:27071   */\n      0x00\n        /* \"#utility.yul\":27062:27068   */\n      dup3\n        /* \"#utility.yul\":27058:27072   */\n      add\n        /* \"#utility.yul\":27051:27100   */\n      mstore\n        /* \"#utility.yul\":26934:27107   */\n      pop\n      jump\t// out\n        /* \"#utility.yul\":27113:27479   */\n    tag_412:\n        /* \"#utility.yul\":27255:27258   */\n      0x00\n        /* \"#utility.yul\":27276:27343   */\n      tag_666\n        /* \"#utility.yul\":27340:27342   */\n      0x17\n        /* \"#utility.yul\":27335:27338   */\n      dup4\n        /* \"#utility.yul\":27276:27343   */\n      tag_381\n      jump\t// in\n    tag_666:\n        /* \"#utility.yul\":27269:27343   */\n      swap2\n      pop\n        /* \"#utility.yul\":27352:27445   */\n      tag_667\n        /* \"#utility.yul\":27441:27444   */\n      dup3\n        /* \"#utility.yul\":27352:27445   */\n      tag_411\n      jump\t// in\n    tag_667:\n        /* \"#utility.yul\":27470:27472   */\n      0x20\n        /* \"#utility.yul\":27465:27468   */\n      dup3\n        /* \"#utility.yul\":27461:27473   */\n      add\n        /* \"#utility.yul\":27454:27473   */\n      swap1\n      pop\n        /* \"#utility.yul\":27113:27479   */\n      swap2\n      swap1\n      pop\n      jump\t// out\n        /* \"#utility.yul\":27485:27904   */\n    tag_273:\n        /* \"#utility.yul\":27651:27655   */\n      0x00\n        /* \"#utility.yul\":27689:27691   */\n      0x20\n        /* \"#utility.yul\":27678:27687   */\n      dup3\n        /* \"#utility.yul\":27674:27692   */\n      add\n        /* \"#utility.yul\":27666:27692   */\n      swap1\n      pop\n        /* \"#utility.yul\":27738:27747   */\n      dup2\n        /* \"#utility.yul\":27732:27736   */\n      dup2\n        /* \"#utility.yul\":27728:27748   */\n      sub\n        /* \"#utility.yul\":27724:27725   */\n      0x00\n        /* \"#utility.yul\":27713:27722   */\n      dup4\n        /* \"#utility.yul\":27709:27726   */\n      add\n        /* \"#utility.yul\":27702:27749   */\n      mstore\n        /* \"#utility.yul\":27766:27897   */\n      tag_669\n        /* \"#utility.yul\":27892:27896   */\n      dup2\n        /* \"#utility.yul\":27766:27897   */\n      tag_412\n      jump\t// in\n    tag_669:\n        /* \"#utility.yul\":27758:27897   */\n      swap1\n      pop\n        /* \"#utility.yul\":27485:27904   */\n      swap2\n      swap1\n      pop\n      jump\t// out\n        /* \"#utility.yul\":27910:28101   */\n    tag_275:\n        /* \"#utility.yul\":27950:27953   */\n      0x00\n        /* \"#utility.yul\":27969:27989   */\n      tag_671\n        /* \"#utility.yul\":27987:27988   */\n      dup3\n        /* \"#utility.yul\":27969:27989   */\n      tag_343\n      jump\t// in\n    tag_671:\n        /* \"#utility.yul\":27964:27989   */\n      swap2\n      pop\n        /* \"#utility.yul\":28003:28023   */\n      tag_672\n        /* \"#utility.yul\":28021:28022   */\n      dup4\n        /* \"#utility.yul\":28003:28023   */\n      tag_343\n      jump\t// in\n    tag_672:\n        /* \"#utility.yul\":27998:28023   */\n      swap3\n      pop\n        /* \"#utility.yul\":28046:28047   */\n      dup3\n        /* \"#utility.yul\":28043:28044   */\n      dup3\n        /* \"#utility.yul\":28039:28048   */\n      add\n        /* \"#utility.yul\":28032:28048   */\n      swap1\n      pop\n        /* \"#utility.yul\":28067:28070   */\n      dup1\n        /* \"#utility.yul\":28064:28065   */\n      dup3\n        /* \"#utility.yul\":28061:28071   */\n      gt\n        /* \"#utility.yul\":28058:28094   */\n      iszero\n      tag_673\n      jumpi\n        /* \"#utility.yul\":28074:28092   */\n      tag_674\n      tag_384\n      jump\t// in\n    tag_674:\n        /* \"#utility.yul\":28058:28094   */\n    tag_673:\n        /* \"#utility.yul\":27910:28101   */\n      swap3\n      swap2\n      pop\n      pop\n      jump\t// out\n        /* \"#utility.yul\":28107:28279   */\n    tag_413:\n        /* \"#utility.yul\":28247:28271   */\n      0x496e76616c696420707572636861736520696e64657800000000000000000000\n        /* \"#utility.yul\":28243:28244   */\n      0x00\n        /* \"#utility.yul\":28235:28241   */\n      dup3\n        /* \"#utility.yul\":28231:28245   */\n      add\n        /* \"#utility.yul\":28224:28272   */\n      mstore\n        /* \"#utility.yul\":28107:28279   */\n      pop\n      jump\t// out\n        /* \"#utility.yul\":28285:28651   */\n    tag_414:\n        /* \"#utility.yul\":28427:28430   */\n      0x00\n        /* \"#utility.yul\":28448:28515   */\n      tag_677\n        /* \"#utility.yul\":28512:28514   */\n      0x16\n        /* \"#utility.yul\":28507:28510   */\n      dup4\n        /* \"#utility.yul\":28448:28515   */\n      tag_381\n      jump\t// in\n    tag_677:\n        /* \"#utility.yul\":28441:28515   */\n      swap2\n      pop\n        /* \"#utility.yul\":28524:28617   */\n      tag_678\n        /* \"#utility.yul\":28613:28616   */\n      dup3\n        /* \"#utility.yul\":28524:28617   */\n      tag_413\n      jump\t// in\n    tag_678:\n        /* \"#utility.yul\":28642:28644   */\n      0x20\n        /* \"#utility.yul\":28637:28640   */\n      dup3\n        /* \"#utility.yul\":28633:28645   */\n      add\n        /* \"#utility.yul\":28626:28645   */\n      swap1\n      pop\n        /* \"#utility.yul\":28285:28651   */\n      swap2\n      swap1\n      pop\n      jump\t// out\n        /* \"#utility.yul\":28657:29076   */\n    tag_282:\n        /* \"#utility.yul\":28823:28827   */\n      0x00\n        /* \"#utility.yul\":28861:28863   */\n      0x20\n        /* \"#utility.yul\":28850:28859   */\n      dup3\n        /* \"#utility.yul\":28846:28864   */\n      add\n        /* \"#utility.yul\":28838:28864   */\n      swap1\n      pop\n        /* \"#utility.yul\":28910:28919   */\n      dup2\n        /* \"#utility.yul\":28904:28908   */\n      dup2\n        /* \"#utility.yul\":28900:28920   */\n      sub\n        /* \"#utility.yul\":28896:28897   */\n      0x00\n        /* \"#utility.yul\":28885:28894   */\n      dup4\n        /* \"#utility.yul\":28881:28898   */\n      add\n        /* \"#utility.yul\":28874:28921   */\n      mstore\n        /* \"#utility.yul\":28938:29069   */\n      tag_680\n        /* \"#utility.yul\":29064:29068   */\n      dup2\n        /* \"#utility.yul\":28938:29069   */\n      tag_414\n      jump\t// in\n    tag_680:\n        /* \"#utility.yul\":28930:29069   */\n      swap1\n      pop\n        /* \"#utility.yul\":28657:29076   */\n      swap2\n      swap1\n      pop\n      jump\t// out\n        /* \"#utility.yul\":29082:29249   */\n    tag_415:\n        /* \"#utility.yul\":29222:29241   */\n      0x4e6f7420796f7572207075726368617365000000000000000000000000000000\n        /* \"#utility.yul\":29218:29219   */\n      0x00\n        /* \"#utility.yul\":29210:29216   */\n      dup3\n        /* \"#utility.yul\":29206:29220   */\n      add\n        /* \"#utility.yul\":29199:29242   */\n      mstore\n        /* \"#utility.yul\":29082:29249   */\n      pop\n      jump\t// out\n        /* \"#utility.yul\":29255:29621   */\n    tag_416:\n        /* \"#utility.yul\":29397:29400   */\n      0x00\n        /* \"#utility.yul\":29418:29485   */\n      tag_683\n        /* \"#utility.yul\":29482:29484   */\n      0x11\n        /* \"#utility.yul\":29477:29480   */\n      dup4\n        /* \"#utility.yul\":29418:29485   */\n      tag_381\n      jump\t// in\n    tag_683:\n        /* \"#utility.yul\":29411:29485   */\n      swap2\n      pop\n        /* \"#utility.yul\":29494:29587   */\n      tag_684\n        /* \"#utility.yul\":29583:29586   */\n      dup3\n        /* \"#utility.yul\":29494:29587   */\n      tag_415\n      jump\t// in\n    tag_684:\n        /* \"#utility.yul\":29612:29614   */\n      0x20\n        /* \"#utility.yul\":29607:29610   */\n      dup3\n        /* \"#utility.yul\":29603:29615   */\n      add\n        /* \"#utility.yul\":29596:29615   */\n      swap1\n      pop\n        /* \"#utility.yul\":29255:29621   */\n      swap2\n      swap1\n      pop\n      jump\t// out\n        /* \"#utility.yul\":29627:30046   */\n    tag_288:\n        /* \"#utility.yul\":29793:29797   */\n      0x00\n        /* \"#utility.yul\":29831:29833   */\n      0x20\n        /* \"#utility.yul\":29820:29829   */\n      dup3\n        /* \"#utility.yul\":29816:29834   */\n      add\n        /* \"#utility.yul\":29808:29834   */\n      swap1\n      pop\n        /* \"#utility.yul\":29880:29889   */\n      dup2\n        /* \"#utility.yul\":29874:29878   */\n      dup2\n        /* \"#utility.yul\":29870:29890   */\n      sub\n        /* \"#utility.yul\":29866:29867   */\n      0x00\n        /* \"#utility.yul\":29855:29864   */\n      dup4\n        /* \"#utility.yul\":29851:29868   */\n      add\n        /* \"#utility.yul\":29844:29891   */\n      mstore\n        /* \"#utility.yul\":29908:30039   */\n      tag_686\n        /* \"#utility.yul\":30034:30038   */\n      dup2\n        /* \"#utility.yul\":29908:30039   */\n      tag_416\n      jump\t// in\n    tag_686:\n        /* \"#utility.yul\":29900:30039   */\n      swap1\n      pop\n        /* \"#utility.yul\":29627:30046   */\n      swap2\n      swap1\n      pop\n      jump\t// out\n        /* \"#utility.yul\":30052:30227   */\n    tag_417:\n        /* \"#utility.yul\":30192:30219   */\n      0x507572636861736520616c726561647920636f6e73756d656400000000000000\n        /* \"#utility.yul\":30188:30189   */\n      0x00\n        /* \"#utility.yul\":30180:30186   */\n      dup3\n        /* \"#utility.yul\":30176:30190   */\n      add\n        /* \"#utility.yul\":30169:30220   */\n      mstore\n        /* \"#utility.yul\":30052:30227   */\n      pop\n      jump\t// out\n        /* \"#utility.yul\":30233:30599   */\n    tag_418:\n        /* \"#utility.yul\":30375:30378   */\n      0x00\n        /* \"#utility.yul\":30396:30463   */\n      tag_689\n        /* \"#utility.yul\":30460:30462   */\n      0x19\n        /* \"#utility.yul\":30455:30458   */\n      dup4\n        /* \"#utility.yul\":30396:30463   */\n      tag_381\n      jump\t// in\n    tag_689:\n        /* \"#utility.yul\":30389:30463   */\n      swap2\n      pop\n        /* \"#utility.yul\":30472:30565   */\n      tag_690\n        /* \"#utility.yul\":30561:30564   */\n      dup3\n        /* \"#utility.yul\":30472:30565   */\n      tag_417\n      jump\t// in\n    tag_690:\n        /* \"#utility.yul\":30590:30592   */\n      0x20\n        /* \"#utility.yul\":30585:30588   */\n      dup3\n        /* \"#utility.yul\":30581:30593   */\n      add\n        /* \"#utility.yul\":30574:30593   */\n      swap1\n      pop\n        /* \"#utility.yul\":30233:30599   */\n      swap2\n      swap1\n      pop\n      jump\t// out\n        /* \"#utility.yul\":30605:31024   */\n    tag_298:\n        /* \"#utility.yul\":30771:30775   */\n      0x00\n        /* \"#utility.yul\":30809:30811   */\n      0x20\n        /* \"#utility.yul\":30798:30807   */\n      dup3\n        /* \"#utility.yul\":30794:30812   */\n      add\n        /* \"#utility.yul\":30786:30812   */\n      swap1\n      pop\n        /* \"#utility.yul\":30858:30867   */\n      dup2\n        /* \"#utility.yul\":30852:30856   */\n      dup2\n        /* \"#utility.yul\":30848:30868   */\n      sub\n        /* \"#utility.yul\":30844:30845   */\n      0x00\n        /* \"#utility.yul\":30833:30842   */\n      dup4\n        /* \"#utility.yul\":30829:30846   */\n      add\n        /* \"#utility.yul\":30822:30869   */\n      mstore\n        /* \"#utility.yul\":30886:31017   */\n      tag_692\n        /* \"#utility.yul\":31012:31016   */\n      dup2\n        /* \"#utility.yul\":30886:31017   */\n      tag_418\n      jump\t// in\n    tag_692:\n        /* \"#utility.yul\":30878:31017   */\n      swap1\n      pop\n        /* \"#utility.yul\":30605:31024   */\n      swap2\n      swap1\n      pop\n      jump\t// out\n        /* \"#utility.yul\":31030:31178   */\n    tag_419:\n        /* \"#utility.yul\":31132:31143   */\n      0x00\n        /* \"#utility.yul\":31169:31172   */\n      dup2\n        /* \"#utility.yul\":31154:31172   */\n      swap1\n      pop\n        /* \"#utility.yul\":31030:31178   */\n      swap3\n      swap2\n      pop\n      pop\n      jump\t// out\n        /* \"#utility.yul\":31184:31574   */\n    tag_420:\n        /* \"#utility.yul\":31290:31293   */\n      0x00\n        /* \"#utility.yul\":31318:31357   */\n      tag_695\n        /* \"#utility.yul\":31351:31356   */\n      dup3\n        /* \"#utility.yul\":31318:31357   */\n      tag_338\n      jump\t// in\n    tag_695:\n        /* \"#utility.yul\":31373:31462   */\n      tag_696\n        /* \"#utility.yul\":31455:31461   */\n      dup2\n        /* \"#utility.yul\":31450:31453   */\n      dup6\n        /* \"#utility.yul\":31373:31462   */\n      tag_419\n      jump\t// in\n    tag_696:\n        /* \"#utility.yul\":31366:31462   */\n      swap4\n      pop\n        /* \"#utility.yul\":31471:31536   */\n      tag_697\n        /* \"#utility.yul\":31529:31535   */\n      dup2\n        /* \"#utility.yul\":31524:31527   */\n      dup6\n        /* \"#utility.yul\":31517:31521   */\n      0x20\n        /* \"#utility.yul\":31510:31515   */\n      dup7\n        /* \"#utility.yul\":31506:31522   */\n      add\n        /* \"#utility.yul\":31471:31536   */\n      tag_340\n      jump\t// in\n    tag_697:\n        /* \"#utility.yul\":31561:31567   */\n      dup1\n        /* \"#utility.yul\":31556:31559   */\n      dup5\n        /* \"#utility.yul\":31552:31568   */\n      add\n        /* \"#utility.yul\":31545:31568   */\n      swap2\n      pop\n        /* \"#utility.yul\":31294:31574   */\n      pop\n        /* \"#utility.yul\":31184:31574   */\n      swap3\n      swap2\n      pop\n      pop\n      jump\t// out\n        /* \"#utility.yul\":31580:31855   */\n    tag_311:\n        /* \"#utility.yul\":31712:31715   */\n      0x00\n        /* \"#utility.yul\":31734:31829   */\n      tag_699\n        /* \"#utility.yul\":31825:31828   */\n      dup3\n        /* \"#utility.yul\":31816:31822   */\n      dup5\n        /* \"#utility.yul\":31734:31829   */\n      tag_420\n      jump\t// in\n    tag_699:\n        /* \"#utility.yul\":31727:31829   */\n      swap2\n      pop\n        /* \"#utility.yul\":31846:31849   */\n      dup2\n        /* \"#utility.yul\":31839:31849   */\n      swap1\n      pop\n        /* \"#utility.yul\":31580:31855   */\n      swap3\n      swap2\n      pop\n      pop\n      jump\t// out\n        /* \"#utility.yul\":31885:32759   */\n    tag_421:\n        /* \"#utility.yul\":31988:31991   */\n      0x00\n        /* \"#utility.yul\":32025:32030   */\n      dup2\n        /* \"#utility.yul\":32019:32031   */\n      sload\n        /* \"#utility.yul\":32054:32090   */\n      tag_701\n        /* \"#utility.yul\":32080:32089   */\n      dup2\n        /* \"#utility.yul\":32054:32090   */\n      tag_66\n      jump\t// in\n    tag_701:\n        /* \"#utility.yul\":32106:32195   */\n      tag_702\n        /* \"#utility.yul\":32188:32194   */\n      dup2\n        /* \"#utility.yul\":32183:32186   */\n      dup7\n        /* \"#utility.yul\":32106:32195   */\n      tag_419\n      jump\t// in\n    tag_702:\n        /* \"#utility.yul\":32099:32195   */\n      swap5\n      pop\n        /* \"#utility.yul\":32226:32227   */\n      0x01\n        /* \"#utility.yul\":32215:32224   */\n      dup3\n        /* \"#utility.yul\":32211:32228   */\n      and\n        /* \"#utility.yul\":32242:32243   */\n      0x00\n        /* \"#utility.yul\":32237:32403   */\n      dup2\n      eq\n      tag_704\n      jumpi\n        /* \"#utility.yul\":32417:32418   */\n      0x01\n        /* \"#utility.yul\":32412:32753   */\n      dup2\n      eq\n      tag_705\n      jumpi\n        /* \"#utility.yul\":32204:32753   */\n      jump(tag_703)\n        /* \"#utility.yul\":32237:32403   */\n    tag_704:\n        /* \"#utility.yul\":32321:32325   */\n      0xff\n        /* \"#utility.yul\":32317:32326   */\n      not\n        /* \"#utility.yul\":32306:32315   */\n      dup4\n        /* \"#utility.yul\":32302:32327   */\n      and\n        /* \"#utility.yul\":32297:32300   */\n      dup7\n        /* \"#utility.yul\":32290:32328   */\n      mstore\n        /* \"#utility.yul\":32383:32389   */\n      dup2\n        /* \"#utility.yul\":32376:32390   */\n      iszero\n        /* \"#utility.yul\":32369:32391   */\n      iszero\n        /* \"#utility.yul\":32361:32367   */\n      dup3\n        /* \"#utility.yul\":32357:32392   */\n      mul\n        /* \"#utility.yul\":32352:32355   */\n      dup7\n        /* \"#utility.yul\":32348:32393   */\n      add\n        /* \"#utility.yul\":32341:32393   */\n      swap4\n      pop\n        /* \"#utility.yul\":32237:32403   */\n      jump(tag_703)\n        /* \"#utility.yul\":32412:32753   */\n    tag_705:\n        /* \"#utility.yul\":32479:32517   */\n      tag_706\n        /* \"#utility.yul\":32511:32516   */\n      dup6\n        /* \"#utility.yul\":32479:32517   */\n      tag_387\n      jump\t// in\n    tag_706:\n        /* \"#utility.yul\":32539:32540   */\n      0x00\n        /* \"#utility.yul\":32553:32707   */\n    tag_707:\n        /* \"#utility.yul\":32567:32573   */\n      dup4\n        /* \"#utility.yul\":32564:32565   */\n      dup2\n        /* \"#utility.yul\":32561:32574   */\n      lt\n        /* \"#utility.yul\":32553:32707   */\n      iszero\n      tag_709\n      jumpi\n        /* \"#utility.yul\":32641:32648   */\n      dup2\n        /* \"#utility.yul\":32635:32649   */\n      sload\n        /* \"#utility.yul\":32631:32632   */\n      dup2\n        /* \"#utility.yul\":32626:32629   */\n      dup10\n        /* \"#utility.yul\":32622:32633   */\n      add\n        /* \"#utility.yul\":32615:32650   */\n      mstore\n        /* \"#utility.yul\":32691:32692   */\n      0x01\n        /* \"#utility.yul\":32682:32689   */\n      dup3\n        /* \"#utility.yul\":32678:32693   */\n      add\n        /* \"#utility.yul\":32667:32693   */\n      swap2\n      pop\n        /* \"#utility.yul\":32589:32593   */\n      0x20\n        /* \"#utility.yul\":32586:32587   */\n      dup2\n        /* \"#utility.yul\":32582:32594   */\n      add\n        /* \"#utility.yul\":32577:32594   */\n      swap1\n      pop\n        /* \"#utility.yul\":32553:32707   */\n      jump(tag_707)\n    tag_709:\n        /* \"#utility.yul\":32736:32742   */\n      dup4\n        /* \"#utility.yul\":32731:32734   */\n      dup9\n        /* \"#utility.yul\":32727:32743   */\n      add\n        /* \"#utility.yul\":32720:32743   */\n      swap6\n      pop\n        /* \"#utility.yul\":32419:32753   */\n      pop\n      pop\n        /* \"#utility.yul\":32204:32753   */\n    tag_703:\n      pop\n        /* \"#utility.yul\":31992:32759   */\n      pop\n      pop\n        /* \"#utility.yul\":31885:32759   */\n      swap3\n      swap2\n      pop\n      pop\n      jump\t// out\n        /* \"#utility.yul\":32765:33034   */\n    tag_316:\n        /* \"#utility.yul\":32894:32897   */\n      0x00\n        /* \"#utility.yul\":32916:33008   */\n      tag_711\n        /* \"#utility.yul\":33004:33007   */\n      dup3\n        /* \"#utility.yul\":32995:33001   */\n      dup5\n        /* \"#utility.yul\":32916:33008   */\n      tag_421\n      jump\t// in\n    tag_711:\n        /* \"#utility.yul\":32909:33008   */\n      swap2\n      pop\n        /* \"#utility.yul\":33025:33028   */\n      dup2\n        /* \"#utility.yul\":33018:33028   */\n      swap1\n      pop\n        /* \"#utility.yul\":32765:33034   */\n      swap3\n      swap2\n      pop\n      pop\n      jump\t// out\n        /* \"#utility.yul\":33040:33207   */\n    tag_422:\n        /* \"#utility.yul\":33180:33199   */\n      0x50726f64756374206e6f7420666f756e64000000000000000000000000000000\n        /* \"#utility.yul\":33176:33177   */\n      0x00\n        /* \"#utility.yul\":33168:33174   */\n      dup3\n        /* \"#utility.yul\":33164:33178   */\n      add\n        /* \"#utility.yul\":33157:33200   */\n      mstore\n        /* \"#utility.yul\":33040:33207   */\n      pop\n      jump\t// out\n        /* \"#utility.yul\":33213:33579   */\n    tag_423:\n        /* \"#utility.yul\":33355:33358   */\n      0x00\n        /* \"#utility.yul\":33376:33443   */\n      tag_714\n        /* \"#utility.yul\":33440:33442   */\n      0x11\n        /* \"#utility.yul\":33435:33438   */\n      dup4\n        /* \"#utility.yul\":33376:33443   */\n      tag_381\n      jump\t// in\n    tag_714:\n        /* \"#utility.yul\":33369:33443   */\n      swap2\n      pop\n        /* \"#utility.yul\":33452:33545   */\n      tag_715\n        /* \"#utility.yul\":33541:33544   */\n      dup3\n        /* \"#utility.yul\":33452:33545   */\n      tag_422\n      jump\t// in\n    tag_715:\n        /* \"#utility.yul\":33570:33572   */\n      0x20\n        /* \"#utility.yul\":33565:33568   */\n      dup3\n        /* \"#utility.yul\":33561:33573   */\n      add\n        /* \"#utility.yul\":33554:33573   */\n      swap1\n      pop\n        /* \"#utility.yul\":33213:33579   */\n      swap2\n      swap1\n      pop\n      jump\t// out\n        /* \"#utility.yul\":33585:34004   */\n    tag_332:\n        /* \"#utility.yul\":33751:33755   */\n      0x00\n        /* \"#utility.yul\":33789:33791   */\n      0x20\n        /* \"#utility.yul\":33778:33787   */\n      dup3\n        /* \"#utility.yul\":33774:33792   */\n      add\n        /* \"#utility.yul\":33766:33792   */\n      swap1\n      pop\n        /* \"#utility.yul\":33838:33847   */\n      dup2\n        /* \"#utility.yul\":33832:33836   */\n      dup2\n        /* \"#utility.yul\":33828:33848   */\n      sub\n        /* \"#utility.yul\":33824:33825   */\n      0x00\n        /* \"#utility.yul\":33813:33822   */\n      dup4\n        /* \"#utility.yul\":33809:33826   */\n      add\n        /* \"#utility.yul\":33802:33849   */\n      mstore\n        /* \"#utility.yul\":33866:33997   */\n      tag_717\n        /* \"#utility.yul\":33992:33996   */\n      dup2\n        /* \"#utility.yul\":33866:33997   */\n      tag_423\n      jump\t// in\n    tag_717:\n        /* \"#utility.yul\":33858:33997   */\n      swap1\n      pop\n        /* \"#utility.yul\":33585:34004   */\n      swap2\n      swap1\n      pop\n      jump\t// out\n\n    auxdata: 0xa2646970667358221220ee5feb8bc606dfa1c7d989cfe2eb563ec025d2e52041a660c7adff59ed14cb7964736f6c634300081a0033\n}\n",
				"bytecode": {
					"linkReferences": {},
					"object": "608060405234801561000f575f80fd5b50335f806101000a81548173ffffffffffffffffffffffffffffffffffffffff021916908373ffffffffffffffffffffffffffffffffffffffff160217905550600160405180606001604052806040518060400160405280600281526020017f413100000000000000000000000000000000000000000000000000000000000081525081526020016359682f0081526020016040518060400160405280600481526020017f4c61797300000000000000000000000000000000000000000000000000000000815250815250908060018154018082558091505060019003905f5260205f2090600302015f909190919091505f820151815f019081610113919061149a565b50602082015181600101556040820151816002019081610133919061149a565b505050600160405180606001604052806040518060400160405280600281526020017f4132000000000000000000000000000000000000000000000000000000000000815250815260200163684ee18081526020016040518060400160405280600981526020017f436f636120436f6c610000000000000000000000000000000000000000000000815250815250908060018154018082558091505060019003905f5260205f2090600302015f909190919091505f820151815f0190816101fa919061149a565b5060208201518160010155604082015181600201908161021a919061149a565b505050600160405180606001604052806040518060400160405280600281526020017f413300000000000000000000000000000000000000000000000000000000000081525081526020016359682f0081526020016040518060400160405280600881526020017f5072696e676c6573000000000000000000000000000000000000000000000000815250815250908060018154018082558091505060019003905f5260205f2090600302015f909190919091505f820151815f0190816102e1919061149a565b50602082015181600101556040820151816002019081610301919061149a565b505050600160405180606001604052806040518060400160405280600281526020017f4134000000000000000000000000000000000000000000000000000000000000815250815260200163684ee18081526020016040518060400160405280600581526020017f5761746572000000000000000000000000000000000000000000000000000000815250815250908060018154018082558091505060019003905f5260205f2090600302015f909190919091505f820151815f0190816103c8919061149a565b506020820151816001015560408201518160020190816103e8919061149a565b505050600160405180606001604052806040518060400160405280600281526020017f413500000000000000000000000000000000000000000000000000000000000081525081526020016359682f0081526020016040518060400160405280600c81526020017f456e65726779204472696e6b0000000000000000000000000000000000000000815250815250908060018154018082558091505060019003905f5260205f2090600302015f909190919091505f820151815f0190816104af919061149a565b506020820151816001015560408201518160020190816104cf919061149a565b505050600160405180606001604052806040518060400160405280600281526020017f42310000000000000000000000000000000000000000000000000000000000008152508152602001637735940081526020016040518060400160405280600881526020017f53616e6477696368000000000000000000000000000000000000000000000000815250815250908060018154018082558091505060019003905f5260205f2090600302015f909190919091505f820151815f019081610596919061149a565b506020820151816001015560408201518160020190816105b6919061149a565b505050600160405180606001604052806040518060400160405280600281526020017f4232000000000000000000000000000000000000000000000000000000000000815250815260200163684ee18081526020016040518060400160405280600481526020017f4f72656f00000000000000000000000000000000000000000000000000000000815250815250908060018154018082558091505060019003905f5260205f2090600302015f909190919091505f820151815f01908161067d919061149a565b5060208201518160010155604082015181600201908161069d919061149a565b505050600160405180606001604052806040518060400160405280600281526020017f423300000000000000000000000000000000000000000000000000000000000081525081526020016359682f0081526020016040518060400160405280600681526020017f5370726974650000000000000000000000000000000000000000000000000000815250815250908060018154018082558091505060019003905f5260205f2090600302015f909190919091505f820151815f019081610764919061149a565b50602082015181600101556040820151816002019081610784919061149a565b505050600160405180606001604052806040518060400160405280600281526020017f4234000000000000000000000000000000000000000000000000000000000000815250815260200163684ee18081526020016040518060400160405280600b81526020017f4772616e6f6c6120426172000000000000000000000000000000000000000000815250815250908060018154018082558091505060019003905f5260205f2090600302015f909190919091505f820151815f01908161084b919061149a565b5060208201518160010155604082015181600201908161086b919061149a565b505050600160405180606001604052806040518060400160405280600281526020017f4235000000000000000000000000000000000000000000000000000000000000815250815260200163684ee18081526020016040518060400160405280600781526020017f446f7269746f7300000000000000000000000000000000000000000000000000815250815250908060018154018082558091505060019003905f5260205f2090600302015f909190919091505f820151815f019081610932919061149a565b50602082015181600101556040820151816002019081610952919061149a565b505050600160405180606001604052806040518060400160405280600281526020017f433100000000000000000000000000000000000000000000000000000000000081525081526020016359682f0081526020016040518060400160405280600b81526020017f536e69636b657220426172000000000000000000000000000000000000000000815250815250908060018154018082558091505060019003905f5260205f2090600302015f909190919091505f820151815f019081610a19919061149a565b50602082015181600101556040820151816002019081610a39919061149a565b505050600160405180606001604052806040518060400160405280600281526020017f433200000000000000000000000000000000000000000000000000000000000081525081526020016359682f0081526020016040518060400160405280600481526020017f4d264d7300000000000000000000000000000000000000000000000000000000815250815250908060018154018082558091505060019003905f5260205f2090600302015f909190919091505f820151815f019081610b00919061149a565b50602082015181600101556040820151816002019081610b20919061149a565b505050600160405180606001604052806040518060400160405280600281526020017f43330000000000000000000000000000000000000000000000000000000000008152508152602001634a817c8081526020016040518060400160405280600e81526020017f427562626c65205461702047756d000000000000000000000000000000000000815250815250908060018154018082558091505060019003905f5260205f2090600302015f909190919091505f820151815f019081610be7919061149a565b50602082015181600101556040820151816002019081610c07919061149a565b505050600160405180606001604052806040518060400160405280600281526020017f4334000000000000000000000000000000000000000000000000000000000000815250815260200163684ee18081526020016040518060400160405280600d81526020017f4672756974204e75742042617200000000000000000000000000000000000000815250815250908060018154018082558091505060019003905f5260205f2090600302015f909190919091505f820151815f019081610cce919061149a565b50602082015181600101556040820151816002019081610cee919061149a565b505050600160405180606001604052806040518060400160405280600281526020017f4335000000000000000000000000000000000000000000000000000000000000815250815260200163684ee18081526020016040518060400160405280600a81526020017f42656566204a65726b7900000000000000000000000000000000000000000000815250815250908060018154018082558091505060019003905f5260205f2090600302015f909190919091505f820151815f019081610db5919061149a565b50602082015181600101556040820151816002019081610dd5919061149a565b505050600160405180606001604052806040518060400160405280600281526020017f44310000000000000000000000000000000000000000000000000000000000008152508152602001634a817c8081526020016040518060400160405280600e81526020017f4b69744b61742042697363756974000000000000000000000000000000000000815250815250908060018154018082558091505060019003905f5260205f2090600302015f909190919091505f820151815f019081610e9c919061149a565b50602082015181600101556040820151816002019081610ebc919061149a565b505050600160405180606001604052806040518060400160405280600281526020017f44320000000000000000000000000000000000000000000000000000000000008152508152602001634a817c8081526020016040518060400160405280600881526020017f506f7020436f726e000000000000000000000000000000000000000000000000815250815250908060018154018082558091505060019003905f5260205f2090600302015f909190919091505f820151815f019081610f83919061149a565b50602082015181600101556040820151816002019081610fa3919061149a565b505050600160405180606001604052806040518060400160405280600281526020017f443300000000000000000000000000000000000000000000000000000000000081525081526020016359682f0081526020016040518060400160405280600881526020017f5477697820426172000000000000000000000000000000000000000000000000815250815250908060018154018082558091505060019003905f5260205f2090600302015f909190919091505f820151815f01908161106a919061149a565b5060208201518160010155604082015181600201908161108a919061149a565b505050600160405180606001604052806040518060400160405280600281526020017f44340000000000000000000000000000000000000000000000000000000000008152508152602001634a817c8081526020016040518060400160405280600581526020017f446f6e7574000000000000000000000000000000000000000000000000000000815250815250908060018154018082558091505060019003905f5260205f2090600302015f909190919091505f820151815f019081611151919061149a565b50602082015181600101556040820151816002019081611171919061149a565b505050600160405180606001604052806040518060400160405280600281526020017f44350000000000000000000000000000000000000000000000000000000000008152508152602001634a817c8081526020016040518060400160405280600981526020017f526564204170706c650000000000000000000000000000000000000000000000815250815250908060018154018082558091505060019003905f5260205f2090600302015f909190919091505f820151815f019081611238919061149a565b50602082015181600101556040820151816002019081611258919061149a565b505050611569565b5f81519050919050565b7f4e487b71000000000000000000000000000000000000000000000000000000005f52604160045260245ffd5b7f4e487b71000000000000000000000000000000000000000000000000000000005f52602260045260245ffd5b5f60028204905060018216806112db57607f821691505b6020821081036112ee576112ed611297565b5b50919050565b5f819050815f5260205f209050919050565b5f6020601f8301049050919050565b5f82821b905092915050565b5f600883026113507fffffffffffffffffffffffffffffffffffffffffffffffffffffffffffffffff82611315565b61135a8683611315565b95508019841693508086168417925050509392505050565b5f819050919050565b5f819050919050565b5f61139e61139961139484611372565b61137b565b611372565b9050919050565b5f819050919050565b6113b783611384565b6113cb6113c3826113a5565b848454611321565b825550505050565b5f90565b6113df6113d3565b6113ea8184846113ae565b505050565b5b8181101561140d576114025f826113d7565b6001810190506113f0565b5050565b601f82111561145257611423816112f4565b61142c84611306565b8101602085101561143b578190505b61144f61144785611306565b8301826113ef565b50505b505050565b5f82821c905092915050565b5f6114725f1984600802611457565b1980831691505092915050565b5f61148a8383611463565b9150826002028217905092915050565b6114a382611260565b67ffffffffffffffff8111156114bc576114bb61126a565b5b6114c682546112c4565b6114d1828285611411565b5f60209050601f831160018114611502575f84156114f0578287015190505b6114fa858261147f565b865550611561565b601f198416611510866112f4565b5f5b8281101561153757848901518255600182019150602085019450602081019050611512565b868310156115545784890151611550601f891682611463565b8355505b6001600288020188555050505b505050505050565b612b74806115765f395ff3fe608060405260043610610090575f3560e01c806370cd5a801161005857806370cd5a801461016257806394cf21601461019e578063a26759cb146101da578063b04f3225146101e4578063cdad28d71461020c57610090565b806302ee3a521461009457806312065fe0146100be578063121dc3d5146100e857806319f92926146101245780633ccfd60b1461014c575b5f80fd5b34801561009f575f80fd5b506100a8610248565b6040516100b59190611d2a565b60405180910390f35b3480156100c9575f80fd5b506100d26103cd565b6040516100df9190611d59565b60405180910390f35b3480156100f3575f80fd5b5061010e60048036038101906101099190611ddd565b61049f565b60405161011b9190611fa5565b60405180910390f35b34801561012f575f80fd5b5061014a600480360381019061014591906120f1565b6108ae565b005b348015610157575f80fd5b50610160610b28565b005b34801561016d575f80fd5b5061018860048036038101906101839190611ddd565b610da8565b6040516101959190611fa5565b60405180910390f35b3480156101a9575f80fd5b506101c460048036038101906101bf9190611ddd565b611158565b6040516101d19190611fa5565b60405180910390f35b6101e2611567565b005b3480156101ef575f80fd5b5061020a60048036038101906102059190612162565b61168b565b005b348015610217575f80fd5b50610232600480360381019061022d91906120f1565b6118f1565b60405161023f91906121e1565b60405180910390f35b60606001805480602002602001604051908101604052809291908181526020015f905b828210156103c4578382905f5260205f2090600302016040518060600160405290815f8201805461029b9061222e565b80601f01602080910402602001604051908101604052809291908181526020018280546102c79061222e565b80156103125780601f106102e957610100808354040283529160200191610312565b820191905f5260205f20905b8154815290600101906020018083116102f557829003601f168201915b50505050508152602001600182015481526020016002820180546103359061222e565b80601f01602080910402602001604051908101604052809291908181526020018280546103619061222e565b80156103ac5780601f10610383576101008083540402835291602001916103ac565b820191905f5260205f20905b81548152906001019060200180831161038f57829003601f168201915b5050505050815250508152602001906001019061026b565b50505050905090565b5f805f9054906101000a900473ffffffffffffffffffffffffffffffffffffffff1673ffffffffffffffffffffffffffffffffffffffff163373ffffffffffffffffffffffffffffffffffffffff161461045c576040517f08c379a0000000000000000000000000000000000000000000000000000000008152600401610453906122de565b60405180910390fd5b60025f3373ffffffffffffffffffffffffffffffffffffffff1673ffffffffffffffffffffffffffffffffffffffff1681526020019081526020015f2054905090565b60605f8054906101000a900473ffffffffffffffffffffffffffffffffffffffff1673ffffffffffffffffffffffffffffffffffffffff163373ffffffffffffffffffffffffffffffffffffffff161461052e576040517f08c379a0000000000000000000000000000000000000000000000000000000008152600401610525906122de565b60405180910390fd5b5f60038054905067ffffffffffffffff81111561054e5761054d611fcd565b5b60405190808252806020026020018201604052801561058757816020015b610574611b26565b81526020019060019003908161056c5790505b5090505f805b6003805490508110156107fa578473ffffffffffffffffffffffffffffffffffffffff16600382815481106105c5576105c46122fc565b5b905f5260205f2090600402015f015f9054906101000a900473ffffffffffffffffffffffffffffffffffffffff1673ffffffffffffffffffffffffffffffffffffffff1614801561066857505f600181111561062457610623611e40565b5b60038281548110610638576106376122fc565b5b905f5260205f2090600402016003015f9054906101000a900460ff16600181111561066657610665611e40565b5b145b156107ed5760038181548110610681576106806122fc565b5b905f5260205f2090600402016040518060800160405290815f82015f9054906101000a900473ffffffffffffffffffffffffffffffffffffffff1673ffffffffffffffffffffffffffffffffffffffff1673ffffffffffffffffffffffffffffffffffffffff1681526020016001820180546106fc9061222e565b80601f01602080910402602001604051908101604052809291908181526020018280546107289061222e565b80156107735780601f1061074a57610100808354040283529160200191610773565b820191905f5260205f20905b81548152906001019060200180831161075657829003601f168201915b5050505050815260200160028201548152602001600382015f9054906101000a900460ff1660018111156107aa576107a9611e40565b5b60018111156107bc576107bb611e40565b5b815250508383815181106107d3576107d26122fc565b5b602002602001018190525081806107e990612356565b9250505b808060010191505061058d565b505f8167ffffffffffffffff81111561081657610815611fcd565b5b60405190808252806020026020018201604052801561084f57816020015b61083c611b26565b8152602001906001900390816108345790505b5090505f5b828110156108a25783818151811061086f5761086e6122fc565b5b602002602001015182828151811061088a576108896122fc565b5b60200260200101819052508080600101915050610854565b50809350505050919050565b5f8054906101000a900473ffffffffffffffffffffffffffffffffffffffff1673ffffffffffffffffffffffffffffffffffffffff163373ffffffffffffffffffffffffffffffffffffffff161461093b576040517f08c379a0000000000000000000000000000000000000000000000000000000008152600401610932906122de565b60405180910390fd5b5f610945826118f1565b6020015190508060025f3373ffffffffffffffffffffffffffffffffffffffff1673ffffffffffffffffffffffffffffffffffffffff1681526020019081526020015f205410156109cb576040517f08c379a00000000000000000000000000000000000000000000000000000000081526004016109c2906123e7565b60405180910390fd5b8060025f3373ffffffffffffffffffffffffffffffffffffffff1673ffffffffffffffffffffffffffffffffffffffff1681526020019081526020015f205f828254610a179190612405565b92505081905550600360405180608001604052803373ffffffffffffffffffffffffffffffffffffffff1681526020018481526020014281526020015f6001811115610a6657610a65611e40565b5b815250908060018154018082558091505060019003905f5260205f2090600402015f909190919091505f820151815f015f6101000a81548173ffffffffffffffffffffffffffffffffffffffff021916908373ffffffffffffffffffffffffffffffffffffffff1602179055506020820151816001019081610ae891906125d5565b50604082015181600201556060820151816003015f6101000a81548160ff02191690836001811115610b1d57610b1c611e40565b5b021790555050505050565b5f8054906101000a900473ffffffffffffffffffffffffffffffffffffffff1673ffffffffffffffffffffffffffffffffffffffff163373ffffffffffffffffffffffffffffffffffffffff1614610bb5576040517f08c379a0000000000000000000000000000000000000000000000000000000008152600401610bac906122de565b60405180910390fd5b5f60149054906101000a900460ff1615610c04576040517f08c379a0000000000000000000000000000000000000000000000000000000008152600401610bfb906126ee565b60405180910390fd5b60015f60146101000a81548160ff0219169083151502179055505f60025f3373ffffffffffffffffffffffffffffffffffffffff1673ffffffffffffffffffffffffffffffffffffffff1681526020019081526020015f205490505f8111610ca1576040517f08c379a0000000000000000000000000000000000000000000000000000000008152600401610c9890612756565b60405180910390fd5b5f60025f3373ffffffffffffffffffffffffffffffffffffffff1673ffffffffffffffffffffffffffffffffffffffff1681526020019081526020015f20819055505f3373ffffffffffffffffffffffffffffffffffffffff1682604051610d08906127a1565b5f6040518083038185875af1925050503d805f8114610d42576040519150601f19603f3d011682016040523d82523d5f602084013e610d47565b606091505b5050905080610d8b576040517f08c379a0000000000000000000000000000000000000000000000000000000008152600401610d82906127ff565b60405180910390fd5b50505f8060146101000a81548160ff021916908315150217905550565b60605f8054906101000a900473ffffffffffffffffffffffffffffffffffffffff1673ffffffffffffffffffffffffffffffffffffffff163373ffffffffffffffffffffffffffffffffffffffff1614610e37576040517f08c379a0000000000000000000000000000000000000000000000000000000008152600401610e2e906122de565b60405180910390fd5b5f60038054905067ffffffffffffffff811115610e5757610e56611fcd565b5b604051908082528060200260200182016040528015610e9057816020015b610e7d611b26565b815260200190600190039081610e755790505b5090505f805b6003805490508110156110a4578473ffffffffffffffffffffffffffffffffffffffff1660038281548110610ece57610ecd6122fc565b5b905f5260205f2090600402015f015f9054906101000a900473ffffffffffffffffffffffffffffffffffffffff1673ffffffffffffffffffffffffffffffffffffffff16036110975760038181548110610f2b57610f2a6122fc565b5b905f5260205f2090600402016040518060800160405290815f82015f9054906101000a900473ffffffffffffffffffffffffffffffffffffffff1673ffffffffffffffffffffffffffffffffffffffff1673ffffffffffffffffffffffffffffffffffffffff168152602001600182018054610fa69061222e565b80601f0160208091040260200160405190810160405280929190818152602001828054610fd29061222e565b801561101d5780601f10610ff45761010080835404028352916020019161101d565b820191905f5260205f20905b81548152906001019060200180831161100057829003601f168201915b5050505050815260200160028201548152602001600382015f9054906101000a900460ff16600181111561105457611053611e40565b5b600181111561106657611065611e40565b5b8152505083838151811061107d5761107c6122fc565b5b6020026020010181905250818061109390612356565b9250505b8080600101915050610e96565b505f8167ffffffffffffffff8111156110c0576110bf611fcd565b5b6040519080825280602002602001820160405280156110f957816020015b6110e6611b26565b8152602001906001900390816110de5790505b5090505f5b8281101561114c57838181518110611119576111186122fc565b5b6020026020010151828281518110611134576111336122fc565b5b602002602001018190525080806001019150506110fe565b50809350505050919050565b60605f8054906101000a900473ffffffffffffffffffffffffffffffffffffffff1673ffffffffffffffffffffffffffffffffffffffff163373ffffffffffffffffffffffffffffffffffffffff16146111e7576040517f08c379a00000000000000000000000000000000000000000000000000000000081526004016111de906122de565b60405180910390fd5b5f60038054905067ffffffffffffffff81111561120757611206611fcd565b5b60405190808252806020026020018201604052801561124057816020015b61122d611b26565b8152602001906001900390816112255790505b5090505f805b6003805490508110156114b3578473ffffffffffffffffffffffffffffffffffffffff166003828154811061127e5761127d6122fc565b5b905f5260205f2090600402015f015f9054906101000a900473ffffffffffffffffffffffffffffffffffffffff1673ffffffffffffffffffffffffffffffffffffffff1614801561132157506001808111156112dd576112dc611e40565b5b600382815481106112f1576112f06122fc565b5b905f5260205f2090600402016003015f9054906101000a900460ff16600181111561131f5761131e611e40565b5b145b156114a6576003818154811061133a576113396122fc565b5b905f5260205f2090600402016040518060800160405290815f82015f9054906101000a900473ffffffffffffffffffffffffffffffffffffffff1673ffffffffffffffffffffffffffffffffffffffff1673ffffffffffffffffffffffffffffffffffffffff1681526020016001820180546113b59061222e565b80601f01602080910402602001604051908101604052809291908181526020018280546113e19061222e565b801561142c5780601f106114035761010080835404028352916020019161142c565b820191905f5260205f20905b81548152906001019060200180831161140f57829003601f168201915b5050505050815260200160028201548152602001600382015f9054906101000a900460ff16600181111561146357611462611e40565b5b600181111561147557611474611e40565b5b8152505083838151811061148c5761148b6122fc565b5b602002602001018190525081806114a290612356565b9250505b8080600101915050611246565b505f8167ffffffffffffffff8111156114cf576114ce611fcd565b5b60405190808252806020026020018201604052801561150857816020015b6114f5611b26565b8152602001906001900390816114ed5790505b5090505f5b8281101561155b57838181518110611528576115276122fc565b5b6020026020010151828281518110611543576115426122fc565b5b6020026020010181905250808060010191505061150d565b50809350505050919050565b5f8054906101000a900473ffffffffffffffffffffffffffffffffffffffff1673ffffffffffffffffffffffffffffffffffffffff163373ffffffffffffffffffffffffffffffffffffffff16146115f4576040517f08c379a00000000000000000000000000000000000000000000000000000000081526004016115eb906122de565b60405180910390fd5b5f3411611636576040517f08c379a000000000000000000000000000000000000000000000000000000000815260040161162d90612867565b60405180910390fd5b3460025f3373ffffffffffffffffffffffffffffffffffffffff1673ffffffffffffffffffffffffffffffffffffffff1681526020019081526020015f205f8282546116829190612885565b92505081905550565b5f8054906101000a900473ffffffffffffffffffffffffffffffffffffffff1673ffffffffffffffffffffffffffffffffffffffff163373ffffffffffffffffffffffffffffffffffffffff1614611718576040517f08c379a000000000000000000000000000000000000000000000000000000000815260040161170f906122de565b60405180910390fd5b600380549050811061175f576040517f08c379a000000000000000000000000000000000000000000000000000000000815260040161175690612902565b60405180910390fd5b3373ffffffffffffffffffffffffffffffffffffffff166003828154811061178a576117896122fc565b5b905f5260205f2090600402015f015f9054906101000a900473ffffffffffffffffffffffffffffffffffffffff1673ffffffffffffffffffffffffffffffffffffffff161461180e576040517f08c379a00000000000000000000000000000000000000000000000000000000081526004016118059061296a565b60405180910390fd5b5f600181111561182157611820611e40565b5b60038281548110611835576118346122fc565b5b905f5260205f2090600402016003015f9054906101000a900460ff16600181111561186357611862611e40565b5b146118a3576040517f08c379a000000000000000000000000000000000000000000000000000000000815260040161189a906129d2565b60405180910390fd5b6001600382815481106118b9576118b86122fc565b5b905f5260205f2090600402016003015f6101000a81548160ff021916908360018111156118e9576118e8611e40565b5b021790555050565b6118f9611b73565b5f5b600180549050811015611ae557826040516020016119199190612a2a565b6040516020818303038152906040528051906020012060018281548110611943576119426122fc565b5b905f5260205f2090600302015f016040516020016119619190612ac0565b6040516020818303038152906040528051906020012003611ad857600181815481106119905761198f6122fc565b5b905f5260205f2090600302016040518060600160405290815f820180546119b69061222e565b80601f01602080910402602001604051908101604052809291908181526020018280546119e29061222e565b8015611a2d5780601f10611a0457610100808354040283529160200191611a2d565b820191905f5260205f20905b815481529060010190602001808311611a1057829003601f168201915b5050505050815260200160018201548152602001600282018054611a509061222e565b80601f0160208091040260200160405190810160405280929190818152602001828054611a7c9061222e565b8015611ac75780601f10611a9e57610100808354040283529160200191611ac7565b820191905f5260205f20905b815481529060010190602001808311611aaa57829003601f168201915b505050505081525050915050611b21565b80806001019150506118fb565b506040517f08c379a0000000000000000000000000000000000000000000000000000000008152600401611b1890612b20565b60405180910390fd5b919050565b60405180608001604052805f73ffffffffffffffffffffffffffffffffffffffff168152602001606081526020015f81526020015f6001811115611b6d57611b6c611e40565b5b81525090565b6040518060600160405280606081526020015f8152602001606081525090565b5f81519050919050565b5f82825260208201905092915050565b5f819050602082019050919050565b5f81519050919050565b5f82825260208201905092915050565b8281835e5f83830152505050565b5f601f19601f8301169050919050565b5f611bfe82611bbc565b611c088185611bc6565b9350611c18818560208601611bd6565b611c2181611be4565b840191505092915050565b5f819050919050565b611c3e81611c2c565b82525050565b5f606083015f8301518482035f860152611c5e8282611bf4565b9150506020830151611c736020860182611c35565b5060408301518482036040860152611c8b8282611bf4565b9150508091505092915050565b5f611ca38383611c44565b905092915050565b5f602082019050919050565b5f611cc182611b93565b611ccb8185611b9d565b935083602082028501611cdd85611bad565b805f5b85811015611d185784840389528151611cf98582611c98565b9450611d0483611cab565b925060208a01995050600181019050611ce0565b50829750879550505050505092915050565b5f6020820190508181035f830152611d428184611cb7565b905092915050565b611d5381611c2c565b82525050565b5f602082019050611d6c5f830184611d4a565b92915050565b5f604051905090565b5f80fd5b5f80fd5b5f73ffffffffffffffffffffffffffffffffffffffff82169050919050565b5f611dac82611d83565b9050919050565b611dbc81611da2565b8114611dc6575f80fd5b50565b5f81359050611dd781611db3565b92915050565b5f60208284031215611df257611df1611d7b565b5b5f611dff84828501611dc9565b91505092915050565b5f81519050919050565b5f82825260208201905092915050565b5f819050602082019050919050565b611e3a81611da2565b82525050565b7f4e487b71000000000000000000000000000000000000000000000000000000005f52602160045260245ffd5b60028110611e7e57611e7d611e40565b5b50565b5f819050611e8e82611e6d565b919050565b5f611e9d82611e81565b9050919050565b611ead81611e93565b82525050565b5f608083015f830151611ec85f860182611e31565b5060208301518482036020860152611ee08282611bf4565b9150506040830151611ef56040860182611c35565b506060830151611f086060860182611ea4565b508091505092915050565b5f611f1e8383611eb3565b905092915050565b5f602082019050919050565b5f611f3c82611e08565b611f468185611e12565b935083602082028501611f5885611e22565b805f5b85811015611f935784840389528151611f748582611f13565b9450611f7f83611f26565b925060208a01995050600181019050611f5b565b50829750879550505050505092915050565b5f6020820190508181035f830152611fbd8184611f32565b905092915050565b5f80fd5b5f80fd5b7f4e487b71000000000000000000000000000000000000000000000000000000005f52604160045260245ffd5b61200382611be4565b810181811067ffffffffffffffff8211171561202257612021611fcd565b5b80604052505050565b5f612034611d72565b90506120408282611ffa565b919050565b5f67ffffffffffffffff82111561205f5761205e611fcd565b5b61206882611be4565b9050602081019050919050565b828183375f83830152505050565b5f61209561209084612045565b61202b565b9050828152602081018484840111156120b1576120b0611fc9565b5b6120bc848285612075565b509392505050565b5f82601f8301126120d8576120d7611fc5565b5b81356120e8848260208601612083565b91505092915050565b5f6020828403121561210657612105611d7b565b5b5f82013567ffffffffffffffff81111561212357612122611d7f565b5b61212f848285016120c4565b91505092915050565b61214181611c2c565b811461214b575f80fd5b50565b5f8135905061215c81612138565b92915050565b5f6020828403121561217757612176611d7b565b5b5f6121848482850161214e565b91505092915050565b5f606083015f8301518482035f8601526121a78282611bf4565b91505060208301516121bc6020860182611c35565b50604083015184820360408601526121d48282611bf4565b9150508091505092915050565b5f6020820190508181035f8301526121f9818461218d565b905092915050565b7f4e487b71000000000000000000000000000000000000000000000000000000005f52602260045260245ffd5b5f600282049050600182168061224557607f821691505b60208210810361225857612257612201565b5b50919050565b5f82825260208201905092915050565b7f4f6e6c79206f776e65722063616e2063616c6c20746869732066756e6374696f5f8201527f6e00000000000000000000000000000000000000000000000000000000000000602082015250565b5f6122c860218361225e565b91506122d38261226e565b604082019050919050565b5f6020820190508181035f8301526122f5816122bc565b9050919050565b7f4e487b71000000000000000000000000000000000000000000000000000000005f52603260045260245ffd5b7f4e487b71000000000000000000000000000000000000000000000000000000005f52601160045260245ffd5b5f61236082611c2c565b91507fffffffffffffffffffffffffffffffffffffffffffffffffffffffffffffffff820361239257612391612329565b5b600182019050919050565b7f496e73756666696369656e742066756e647300000000000000000000000000005f82015250565b5f6123d160128361225e565b91506123dc8261239d565b602082019050919050565b5f6020820190508181035f8301526123fe816123c5565b9050919050565b5f61240f82611c2c565b915061241a83611c2c565b925082820390508181111561243257612431612329565b5b92915050565b5f819050815f5260205f209050919050565b5f6020601f8301049050919050565b5f82821b905092915050565b5f600883026124947fffffffffffffffffffffffffffffffffffffffffffffffffffffffffffffffff82612459565b61249e8683612459565b95508019841693508086168417925050509392505050565b5f819050919050565b5f6124d96124d46124cf84611c2c565b6124b6565b611c2c565b9050919050565b5f819050919050565b6124f2836124bf565b6125066124fe826124e0565b848454612465565b825550505050565b5f90565b61251a61250e565b6125258184846124e9565b505050565b5b818110156125485761253d5f82612512565b60018101905061252b565b5050565b601f82111561258d5761255e81612438565b6125678461244a565b81016020851015612576578190505b61258a6125828561244a565b83018261252a565b50505b505050565b5f82821c905092915050565b5f6125ad5f1984600802612592565b1980831691505092915050565b5f6125c5838361259e565b9150826002028217905092915050565b6125de82611bbc565b67ffffffffffffffff8111156125f7576125f6611fcd565b5b612601825461222e565b61260c82828561254c565b5f60209050601f83116001811461263d575f841561262b578287015190505b61263585826125ba565b86555061269c565b601f19841661264b86612438565b5f5b828110156126725784890151825560018201915060208501945060208101905061264d565b8683101561268f578489015161268b601f89168261259e565b8355505b6001600288020188555050505b505050505050565b7f4e6f207265656e7472616e6379000000000000000000000000000000000000005f82015250565b5f6126d8600d8361225e565b91506126e3826126a4565b602082019050919050565b5f6020820190508181035f830152612705816126cc565b9050919050565b7f596f7520646f206e6f74206861766520616e792062616c616e63652e000000005f82015250565b5f612740601c8361225e565b915061274b8261270c565b602082019050919050565b5f6020820190508181035f83015261276d81612734565b9050919050565b5f81905092915050565b50565b5f61278c5f83612774565b91506127978261277e565b5f82019050919050565b5f6127ab82612781565b9150819050919050565b7f5472616e73666572206661696c65642e000000000000000000000000000000005f82015250565b5f6127e960108361225e565b91506127f4826127b5565b602082019050919050565b5f6020820190508181035f830152612816816127dd565b9050919050565b7f4d697373696e6720726571756972656420616d6f756e740000000000000000005f82015250565b5f61285160178361225e565b915061285c8261281d565b602082019050919050565b5f6020820190508181035f83015261287e81612845565b9050919050565b5f61288f82611c2c565b915061289a83611c2c565b92508282019050808211156128b2576128b1612329565b5b92915050565b7f496e76616c696420707572636861736520696e646578000000000000000000005f82015250565b5f6128ec60168361225e565b91506128f7826128b8565b602082019050919050565b5f6020820190508181035f830152612919816128e0565b9050919050565b7f4e6f7420796f75722070757263686173650000000000000000000000000000005f82015250565b5f61295460118361225e565b915061295f82612920565b602082019050919050565b5f6020820190508181035f83015261298181612948565b9050919050565b7f507572636861736520616c726561647920636f6e73756d6564000000000000005f82015250565b5f6129bc60198361225e565b91506129c782612988565b602082019050919050565b5f6020820190508181035f8301526129e9816129b0565b9050919050565b5f81905092915050565b5f612a0482611bbc565b612a0e81856129f0565b9350612a1e818560208601611bd6565b80840191505092915050565b5f612a3582846129fa565b915081905092915050565b5f8154612a4c8161222e565b612a5681866129f0565b9450600182165f8114612a705760018114612a8557612ab7565b60ff1983168652811515820286019350612ab7565b612a8e85612438565b5f5b83811015612aaf57815481890152600182019150602081019050612a90565b838801955050505b50505092915050565b5f612acb8284612a40565b915081905092915050565b7f50726f64756374206e6f7420666f756e640000000000000000000000000000005f82015250565b5f612b0a60118361225e565b9150612b1582612ad6565b602082019050919050565b5f6020820190508181035f830152612b3781612afe565b905091905056fea2646970667358221220ee5feb8bc606dfa1c7d989cfe2eb563ec025d2e52041a660c7adff59ed14cb7964736f6c634300081a0033",
					"opcodes": "PUSH1 0x80 PUSH1 0x40 MSTORE CALLVALUE DUP1 ISZERO PUSH2 0xF JUMPI PUSH0 DUP1 REVERT JUMPDEST POP CALLER PUSH0 DUP1 PUSH2 0x100 EXP DUP2 SLOAD DUP2 PUSH20 0xFFFFFFFFFFFFFFFFFFFFFFFFFFFFFFFFFFFFFFFF MUL NOT AND SWAP1 DUP4 PUSH20 0xFFFFFFFFFFFFFFFFFFFFFFFFFFFFFFFFFFFFFFFF AND MUL OR SWAP1 SSTORE POP PUSH1 0x1 PUSH1 0x40 MLOAD DUP1 PUSH1 0x60 ADD PUSH1 0x40 MSTORE DUP1 PUSH1 0x40 MLOAD DUP1 PUSH1 0x40 ADD PUSH1 0x40 MSTORE DUP1 PUSH1 0x2 DUP2 MSTORE PUSH1 0x20 ADD PUSH32 0x4131000000000000000000000000000000000000000000000000000000000000 DUP2 MSTORE POP DUP2 MSTORE PUSH1 0x20 ADD PUSH4 0x59682F00 DUP2 MSTORE PUSH1 0x20 ADD PUSH1 0x40 MLOAD DUP1 PUSH1 0x40 ADD PUSH1 0x40 MSTORE DUP1 PUSH1 0x4 DUP2 MSTORE PUSH1 0x20 ADD PUSH32 0x4C61797300000000000000000000000000000000000000000000000000000000 DUP2 MSTORE POP DUP2 MSTORE POP SWAP1 DUP1 PUSH1 0x1 DUP2 SLOAD ADD DUP1 DUP3 SSTORE DUP1 SWAP2 POP POP PUSH1 0x1 SWAP1 SUB SWAP1 PUSH0 MSTORE PUSH1 0x20 PUSH0 KECCAK256 SWAP1 PUSH1 0x3 MUL ADD PUSH0 SWAP1 SWAP2 SWAP1 SWAP2 SWAP1 SWAP2 POP PUSH0 DUP3 ADD MLOAD DUP2 PUSH0 ADD SWAP1 DUP2 PUSH2 0x113 SWAP2 SWAP1 PUSH2 0x149A JUMP JUMPDEST POP PUSH1 0x20 DUP3 ADD MLOAD DUP2 PUSH1 0x1 ADD SSTORE PUSH1 0x40 DUP3 ADD MLOAD DUP2 PUSH1 0x2 ADD SWAP1 DUP2 PUSH2 0x133 SWAP2 SWAP1 PUSH2 0x149A JUMP JUMPDEST POP POP POP PUSH1 0x1 PUSH1 0x40 MLOAD DUP1 PUSH1 0x60 ADD PUSH1 0x40 MSTORE DUP1 PUSH1 0x40 MLOAD DUP1 PUSH1 0x40 ADD PUSH1 0x40 MSTORE DUP1 PUSH1 0x2 DUP2 MSTORE PUSH1 0x20 ADD PUSH32 0x4132000000000000000000000000000000000000000000000000000000000000 DUP2 MSTORE POP DUP2 MSTORE PUSH1 0x20 ADD PUSH4 0x684EE180 DUP2 MSTORE PUSH1 0x20 ADD PUSH1 0x40 MLOAD DUP1 PUSH1 0x40 ADD PUSH1 0x40 MSTORE DUP1 PUSH1 0x9 DUP2 MSTORE PUSH1 0x20 ADD PUSH32 0x436F636120436F6C610000000000000000000000000000000000000000000000 DUP2 MSTORE POP DUP2 MSTORE POP SWAP1 DUP1 PUSH1 0x1 DUP2 SLOAD ADD DUP1 DUP3 SSTORE DUP1 SWAP2 POP POP PUSH1 0x1 SWAP1 SUB SWAP1 PUSH0 MSTORE PUSH1 0x20 PUSH0 KECCAK256 SWAP1 PUSH1 0x3 MUL ADD PUSH0 SWAP1 SWAP2 SWAP1 SWAP2 SWAP1 SWAP2 POP PUSH0 DUP3 ADD MLOAD DUP2 PUSH0 ADD SWAP1 DUP2 PUSH2 0x1FA SWAP2 SWAP1 PUSH2 0x149A JUMP JUMPDEST POP PUSH1 0x20 DUP3 ADD MLOAD DUP2 PUSH1 0x1 ADD SSTORE PUSH1 0x40 DUP3 ADD MLOAD DUP2 PUSH1 0x2 ADD SWAP1 DUP2 PUSH2 0x21A SWAP2 SWAP1 PUSH2 0x149A JUMP JUMPDEST POP POP POP PUSH1 0x1 PUSH1 0x40 MLOAD DUP1 PUSH1 0x60 ADD PUSH1 0x40 MSTORE DUP1 PUSH1 0x40 MLOAD DUP1 PUSH1 0x40 ADD PUSH1 0x40 MSTORE DUP1 PUSH1 0x2 DUP2 MSTORE PUSH1 0x20 ADD PUSH32 0x4133000000000000000000000000000000000000000000000000000000000000 DUP2 MSTORE POP DUP2 MSTORE PUSH1 0x20 ADD PUSH4 0x59682F00 DUP2 MSTORE PUSH1 0x20 ADD PUSH1 0x40 MLOAD DUP1 PUSH1 0x40 ADD PUSH1 0x40 MSTORE DUP1 PUSH1 0x8 DUP2 MSTORE PUSH1 0x20 ADD PUSH32 0x5072696E676C6573000000000000000000000000000000000000000000000000 DUP2 MSTORE POP DUP2 MSTORE POP SWAP1 DUP1 PUSH1 0x1 DUP2 SLOAD ADD DUP1 DUP3 SSTORE DUP1 SWAP2 POP POP PUSH1 0x1 SWAP1 SUB SWAP1 PUSH0 MSTORE PUSH1 0x20 PUSH0 KECCAK256 SWAP1 PUSH1 0x3 MUL ADD PUSH0 SWAP1 SWAP2 SWAP1 SWAP2 SWAP1 SWAP2 POP PUSH0 DUP3 ADD MLOAD DUP2 PUSH0 ADD SWAP1 DUP2 PUSH2 0x2E1 SWAP2 SWAP1 PUSH2 0x149A JUMP JUMPDEST POP PUSH1 0x20 DUP3 ADD MLOAD DUP2 PUSH1 0x1 ADD SSTORE PUSH1 0x40 DUP3 ADD MLOAD DUP2 PUSH1 0x2 ADD SWAP1 DUP2 PUSH2 0x301 SWAP2 SWAP1 PUSH2 0x149A JUMP JUMPDEST POP POP POP PUSH1 0x1 PUSH1 0x40 MLOAD DUP1 PUSH1 0x60 ADD PUSH1 0x40 MSTORE DUP1 PUSH1 0x40 MLOAD DUP1 PUSH1 0x40 ADD PUSH1 0x40 MSTORE DUP1 PUSH1 0x2 DUP2 MSTORE PUSH1 0x20 ADD PUSH32 0x4134000000000000000000000000000000000000000000000000000000000000 DUP2 MSTORE POP DUP2 MSTORE PUSH1 0x20 ADD PUSH4 0x684EE180 DUP2 MSTORE PUSH1 0x20 ADD PUSH1 0x40 MLOAD DUP1 PUSH1 0x40 ADD PUSH1 0x40 MSTORE DUP1 PUSH1 0x5 DUP2 MSTORE PUSH1 0x20 ADD PUSH32 0x5761746572000000000000000000000000000000000000000000000000000000 DUP2 MSTORE POP DUP2 MSTORE POP SWAP1 DUP1 PUSH1 0x1 DUP2 SLOAD ADD DUP1 DUP3 SSTORE DUP1 SWAP2 POP POP PUSH1 0x1 SWAP1 SUB SWAP1 PUSH0 MSTORE PUSH1 0x20 PUSH0 KECCAK256 SWAP1 PUSH1 0x3 MUL ADD PUSH0 SWAP1 SWAP2 SWAP1 SWAP2 SWAP1 SWAP2 POP PUSH0 DUP3 ADD MLOAD DUP2 PUSH0 ADD SWAP1 DUP2 PUSH2 0x3C8 SWAP2 SWAP1 PUSH2 0x149A JUMP JUMPDEST POP PUSH1 0x20 DUP3 ADD MLOAD DUP2 PUSH1 0x1 ADD SSTORE PUSH1 0x40 DUP3 ADD MLOAD DUP2 PUSH1 0x2 ADD SWAP1 DUP2 PUSH2 0x3E8 SWAP2 SWAP1 PUSH2 0x149A JUMP JUMPDEST POP POP POP PUSH1 0x1 PUSH1 0x40 MLOAD DUP1 PUSH1 0x60 ADD PUSH1 0x40 MSTORE DUP1 PUSH1 0x40 MLOAD DUP1 PUSH1 0x40 ADD PUSH1 0x40 MSTORE DUP1 PUSH1 0x2 DUP2 MSTORE PUSH1 0x20 ADD PUSH32 0x4135000000000000000000000000000000000000000000000000000000000000 DUP2 MSTORE POP DUP2 MSTORE PUSH1 0x20 ADD PUSH4 0x59682F00 DUP2 MSTORE PUSH1 0x20 ADD PUSH1 0x40 MLOAD DUP1 PUSH1 0x40 ADD PUSH1 0x40 MSTORE DUP1 PUSH1 0xC DUP2 MSTORE PUSH1 0x20 ADD PUSH32 0x456E65726779204472696E6B0000000000000000000000000000000000000000 DUP2 MSTORE POP DUP2 MSTORE POP SWAP1 DUP1 PUSH1 0x1 DUP2 SLOAD ADD DUP1 DUP3 SSTORE DUP1 SWAP2 POP POP PUSH1 0x1 SWAP1 SUB SWAP1 PUSH0 MSTORE PUSH1 0x20 PUSH0 KECCAK256 SWAP1 PUSH1 0x3 MUL ADD PUSH0 SWAP1 SWAP2 SWAP1 SWAP2 SWAP1 SWAP2 POP PUSH0 DUP3 ADD MLOAD DUP2 PUSH0 ADD SWAP1 DUP2 PUSH2 0x4AF SWAP2 SWAP1 PUSH2 0x149A JUMP JUMPDEST POP PUSH1 0x20 DUP3 ADD MLOAD DUP2 PUSH1 0x1 ADD SSTORE PUSH1 0x40 DUP3 ADD MLOAD DUP2 PUSH1 0x2 ADD SWAP1 DUP2 PUSH2 0x4CF SWAP2 SWAP1 PUSH2 0x149A JUMP JUMPDEST POP POP POP PUSH1 0x1 PUSH1 0x40 MLOAD DUP1 PUSH1 0x60 ADD PUSH1 0x40 MSTORE DUP1 PUSH1 0x40 MLOAD DUP1 PUSH1 0x40 ADD PUSH1 0x40 MSTORE DUP1 PUSH1 0x2 DUP2 MSTORE PUSH1 0x20 ADD PUSH32 0x4231000000000000000000000000000000000000000000000000000000000000 DUP2 MSTORE POP DUP2 MSTORE PUSH1 0x20 ADD PUSH4 0x77359400 DUP2 MSTORE PUSH1 0x20 ADD PUSH1 0x40 MLOAD DUP1 PUSH1 0x40 ADD PUSH1 0x40 MSTORE DUP1 PUSH1 0x8 DUP2 MSTORE PUSH1 0x20 ADD PUSH32 0x53616E6477696368000000000000000000000000000000000000000000000000 DUP2 MSTORE POP DUP2 MSTORE POP SWAP1 DUP1 PUSH1 0x1 DUP2 SLOAD ADD DUP1 DUP3 SSTORE DUP1 SWAP2 POP POP PUSH1 0x1 SWAP1 SUB SWAP1 PUSH0 MSTORE PUSH1 0x20 PUSH0 KECCAK256 SWAP1 PUSH1 0x3 MUL ADD PUSH0 SWAP1 SWAP2 SWAP1 SWAP2 SWAP1 SWAP2 POP PUSH0 DUP3 ADD MLOAD DUP2 PUSH0 ADD SWAP1 DUP2 PUSH2 0x596 SWAP2 SWAP1 PUSH2 0x149A JUMP JUMPDEST POP PUSH1 0x20 DUP3 ADD MLOAD DUP2 PUSH1 0x1 ADD SSTORE PUSH1 0x40 DUP3 ADD MLOAD DUP2 PUSH1 0x2 ADD SWAP1 DUP2 PUSH2 0x5B6 SWAP2 SWAP1 PUSH2 0x149A JUMP JUMPDEST POP POP POP PUSH1 0x1 PUSH1 0x40 MLOAD DUP1 PUSH1 0x60 ADD PUSH1 0x40 MSTORE DUP1 PUSH1 0x40 MLOAD DUP1 PUSH1 0x40 ADD PUSH1 0x40 MSTORE DUP1 PUSH1 0x2 DUP2 MSTORE PUSH1 0x20 ADD PUSH32 0x4232000000000000000000000000000000000000000000000000000000000000 DUP2 MSTORE POP DUP2 MSTORE PUSH1 0x20 ADD PUSH4 0x684EE180 DUP2 MSTORE PUSH1 0x20 ADD PUSH1 0x40 MLOAD DUP1 PUSH1 0x40 ADD PUSH1 0x40 MSTORE DUP1 PUSH1 0x4 DUP2 MSTORE PUSH1 0x20 ADD PUSH32 0x4F72656F00000000000000000000000000000000000000000000000000000000 DUP2 MSTORE POP DUP2 MSTORE POP SWAP1 DUP1 PUSH1 0x1 DUP2 SLOAD ADD DUP1 DUP3 SSTORE DUP1 SWAP2 POP POP PUSH1 0x1 SWAP1 SUB SWAP1 PUSH0 MSTORE PUSH1 0x20 PUSH0 KECCAK256 SWAP1 PUSH1 0x3 MUL ADD PUSH0 SWAP1 SWAP2 SWAP1 SWAP2 SWAP1 SWAP2 POP PUSH0 DUP3 ADD MLOAD DUP2 PUSH0 ADD SWAP1 DUP2 PUSH2 0x67D SWAP2 SWAP1 PUSH2 0x149A JUMP JUMPDEST POP PUSH1 0x20 DUP3 ADD MLOAD DUP2 PUSH1 0x1 ADD SSTORE PUSH1 0x40 DUP3 ADD MLOAD DUP2 PUSH1 0x2 ADD SWAP1 DUP2 PUSH2 0x69D SWAP2 SWAP1 PUSH2 0x149A JUMP JUMPDEST POP POP POP PUSH1 0x1 PUSH1 0x40 MLOAD DUP1 PUSH1 0x60 ADD PUSH1 0x40 MSTORE DUP1 PUSH1 0x40 MLOAD DUP1 PUSH1 0x40 ADD PUSH1 0x40 MSTORE DUP1 PUSH1 0x2 DUP2 MSTORE PUSH1 0x20 ADD PUSH32 0x4233000000000000000000000000000000000000000000000000000000000000 DUP2 MSTORE POP DUP2 MSTORE PUSH1 0x20 ADD PUSH4 0x59682F00 DUP2 MSTORE PUSH1 0x20 ADD PUSH1 0x40 MLOAD DUP1 PUSH1 0x40 ADD PUSH1 0x40 MSTORE DUP1 PUSH1 0x6 DUP2 MSTORE PUSH1 0x20 ADD PUSH32 0x5370726974650000000000000000000000000000000000000000000000000000 DUP2 MSTORE POP DUP2 MSTORE POP SWAP1 DUP1 PUSH1 0x1 DUP2 SLOAD ADD DUP1 DUP3 SSTORE DUP1 SWAP2 POP POP PUSH1 0x1 SWAP1 SUB SWAP1 PUSH0 MSTORE PUSH1 0x20 PUSH0 KECCAK256 SWAP1 PUSH1 0x3 MUL ADD PUSH0 SWAP1 SWAP2 SWAP1 SWAP2 SWAP1 SWAP2 POP PUSH0 DUP3 ADD MLOAD DUP2 PUSH0 ADD SWAP1 DUP2 PUSH2 0x764 SWAP2 SWAP1 PUSH2 0x149A JUMP JUMPDEST POP PUSH1 0x20 DUP3 ADD MLOAD DUP2 PUSH1 0x1 ADD SSTORE PUSH1 0x40 DUP3 ADD MLOAD DUP2 PUSH1 0x2 ADD SWAP1 DUP2 PUSH2 0x784 SWAP2 SWAP1 PUSH2 0x149A JUMP JUMPDEST POP POP POP PUSH1 0x1 PUSH1 0x40 MLOAD DUP1 PUSH1 0x60 ADD PUSH1 0x40 MSTORE DUP1 PUSH1 0x40 MLOAD DUP1 PUSH1 0x40 ADD PUSH1 0x40 MSTORE DUP1 PUSH1 0x2 DUP2 MSTORE PUSH1 0x20 ADD PUSH32 0x4234000000000000000000000000000000000000000000000000000000000000 DUP2 MSTORE POP DUP2 MSTORE PUSH1 0x20 ADD PUSH4 0x684EE180 DUP2 MSTORE PUSH1 0x20 ADD PUSH1 0x40 MLOAD DUP1 PUSH1 0x40 ADD PUSH1 0x40 MSTORE DUP1 PUSH1 0xB DUP2 MSTORE PUSH1 0x20 ADD PUSH32 0x4772616E6F6C6120426172000000000000000000000000000000000000000000 DUP2 MSTORE POP DUP2 MSTORE POP SWAP1 DUP1 PUSH1 0x1 DUP2 SLOAD ADD DUP1 DUP3 SSTORE DUP1 SWAP2 POP POP PUSH1 0x1 SWAP1 SUB SWAP1 PUSH0 MSTORE PUSH1 0x20 PUSH0 KECCAK256 SWAP1 PUSH1 0x3 MUL ADD PUSH0 SWAP1 SWAP2 SWAP1 SWAP2 SWAP1 SWAP2 POP PUSH0 DUP3 ADD MLOAD DUP2 PUSH0 ADD SWAP1 DUP2 PUSH2 0x84B SWAP2 SWAP1 PUSH2 0x149A JUMP JUMPDEST POP PUSH1 0x20 DUP3 ADD MLOAD DUP2 PUSH1 0x1 ADD SSTORE PUSH1 0x40 DUP3 ADD MLOAD DUP2 PUSH1 0x2 ADD SWAP1 DUP2 PUSH2 0x86B SWAP2 SWAP1 PUSH2 0x149A JUMP JUMPDEST POP POP POP PUSH1 0x1 PUSH1 0x40 MLOAD DUP1 PUSH1 0x60 ADD PUSH1 0x40 MSTORE DUP1 PUSH1 0x40 MLOAD DUP1 PUSH1 0x40 ADD PUSH1 0x40 MSTORE DUP1 PUSH1 0x2 DUP2 MSTORE PUSH1 0x20 ADD PUSH32 0x4235000000000000000000000000000000000000000000000000000000000000 DUP2 MSTORE POP DUP2 MSTORE PUSH1 0x20 ADD PUSH4 0x684EE180 DUP2 MSTORE PUSH1 0x20 ADD PUSH1 0x40 MLOAD DUP1 PUSH1 0x40 ADD PUSH1 0x40 MSTORE DUP1 PUSH1 0x7 DUP2 MSTORE PUSH1 0x20 ADD PUSH32 0x446F7269746F7300000000000000000000000000000000000000000000000000 DUP2 MSTORE POP DUP2 MSTORE POP SWAP1 DUP1 PUSH1 0x1 DUP2 SLOAD ADD DUP1 DUP3 SSTORE DUP1 SWAP2 POP POP PUSH1 0x1 SWAP1 SUB SWAP1 PUSH0 MSTORE PUSH1 0x20 PUSH0 KECCAK256 SWAP1 PUSH1 0x3 MUL ADD PUSH0 SWAP1 SWAP2 SWAP1 SWAP2 SWAP1 SWAP2 POP PUSH0 DUP3 ADD MLOAD DUP2 PUSH0 ADD SWAP1 DUP2 PUSH2 0x932 SWAP2 SWAP1 PUSH2 0x149A JUMP JUMPDEST POP PUSH1 0x20 DUP3 ADD MLOAD DUP2 PUSH1 0x1 ADD SSTORE PUSH1 0x40 DUP3 ADD MLOAD DUP2 PUSH1 0x2 ADD SWAP1 DUP2 PUSH2 0x952 SWAP2 SWAP1 PUSH2 0x149A JUMP JUMPDEST POP POP POP PUSH1 0x1 PUSH1 0x40 MLOAD DUP1 PUSH1 0x60 ADD PUSH1 0x40 MSTORE DUP1 PUSH1 0x40 MLOAD DUP1 PUSH1 0x40 ADD PUSH1 0x40 MSTORE DUP1 PUSH1 0x2 DUP2 MSTORE PUSH1 0x20 ADD PUSH32 0x4331000000000000000000000000000000000000000000000000000000000000 DUP2 MSTORE POP DUP2 MSTORE PUSH1 0x20 ADD PUSH4 0x59682F00 DUP2 MSTORE PUSH1 0x20 ADD PUSH1 0x40 MLOAD DUP1 PUSH1 0x40 ADD PUSH1 0x40 MSTORE DUP1 PUSH1 0xB DUP2 MSTORE PUSH1 0x20 ADD PUSH32 0x536E69636B657220426172000000000000000000000000000000000000000000 DUP2 MSTORE POP DUP2 MSTORE POP SWAP1 DUP1 PUSH1 0x1 DUP2 SLOAD ADD DUP1 DUP3 SSTORE DUP1 SWAP2 POP POP PUSH1 0x1 SWAP1 SUB SWAP1 PUSH0 MSTORE PUSH1 0x20 PUSH0 KECCAK256 SWAP1 PUSH1 0x3 MUL ADD PUSH0 SWAP1 SWAP2 SWAP1 SWAP2 SWAP1 SWAP2 POP PUSH0 DUP3 ADD MLOAD DUP2 PUSH0 ADD SWAP1 DUP2 PUSH2 0xA19 SWAP2 SWAP1 PUSH2 0x149A JUMP JUMPDEST POP PUSH1 0x20 DUP3 ADD MLOAD DUP2 PUSH1 0x1 ADD SSTORE PUSH1 0x40 DUP3 ADD MLOAD DUP2 PUSH1 0x2 ADD SWAP1 DUP2 PUSH2 0xA39 SWAP2 SWAP1 PUSH2 0x149A JUMP JUMPDEST POP POP POP PUSH1 0x1 PUSH1 0x40 MLOAD DUP1 PUSH1 0x60 ADD PUSH1 0x40 MSTORE DUP1 PUSH1 0x40 MLOAD DUP1 PUSH1 0x40 ADD PUSH1 0x40 MSTORE DUP1 PUSH1 0x2 DUP2 MSTORE PUSH1 0x20 ADD PUSH32 0x4332000000000000000000000000000000000000000000000000000000000000 DUP2 MSTORE POP DUP2 MSTORE PUSH1 0x20 ADD PUSH4 0x59682F00 DUP2 MSTORE PUSH1 0x20 ADD PUSH1 0x40 MLOAD DUP1 PUSH1 0x40 ADD PUSH1 0x40 MSTORE DUP1 PUSH1 0x4 DUP2 MSTORE PUSH1 0x20 ADD PUSH32 0x4D264D7300000000000000000000000000000000000000000000000000000000 DUP2 MSTORE POP DUP2 MSTORE POP SWAP1 DUP1 PUSH1 0x1 DUP2 SLOAD ADD DUP1 DUP3 SSTORE DUP1 SWAP2 POP POP PUSH1 0x1 SWAP1 SUB SWAP1 PUSH0 MSTORE PUSH1 0x20 PUSH0 KECCAK256 SWAP1 PUSH1 0x3 MUL ADD PUSH0 SWAP1 SWAP2 SWAP1 SWAP2 SWAP1 SWAP2 POP PUSH0 DUP3 ADD MLOAD DUP2 PUSH0 ADD SWAP1 DUP2 PUSH2 0xB00 SWAP2 SWAP1 PUSH2 0x149A JUMP JUMPDEST POP PUSH1 0x20 DUP3 ADD MLOAD DUP2 PUSH1 0x1 ADD SSTORE PUSH1 0x40 DUP3 ADD MLOAD DUP2 PUSH1 0x2 ADD SWAP1 DUP2 PUSH2 0xB20 SWAP2 SWAP1 PUSH2 0x149A JUMP JUMPDEST POP POP POP PUSH1 0x1 PUSH1 0x40 MLOAD DUP1 PUSH1 0x60 ADD PUSH1 0x40 MSTORE DUP1 PUSH1 0x40 MLOAD DUP1 PUSH1 0x40 ADD PUSH1 0x40 MSTORE DUP1 PUSH1 0x2 DUP2 MSTORE PUSH1 0x20 ADD PUSH32 0x4333000000000000000000000000000000000000000000000000000000000000 DUP2 MSTORE POP DUP2 MSTORE PUSH1 0x20 ADD PUSH4 0x4A817C80 DUP2 MSTORE PUSH1 0x20 ADD PUSH1 0x40 MLOAD DUP1 PUSH1 0x40 ADD PUSH1 0x40 MSTORE DUP1 PUSH1 0xE DUP2 MSTORE PUSH1 0x20 ADD PUSH32 0x427562626C65205461702047756D000000000000000000000000000000000000 DUP2 MSTORE POP DUP2 MSTORE POP SWAP1 DUP1 PUSH1 0x1 DUP2 SLOAD ADD DUP1 DUP3 SSTORE DUP1 SWAP2 POP POP PUSH1 0x1 SWAP1 SUB SWAP1 PUSH0 MSTORE PUSH1 0x20 PUSH0 KECCAK256 SWAP1 PUSH1 0x3 MUL ADD PUSH0 SWAP1 SWAP2 SWAP1 SWAP2 SWAP1 SWAP2 POP PUSH0 DUP3 ADD MLOAD DUP2 PUSH0 ADD SWAP1 DUP2 PUSH2 0xBE7 SWAP2 SWAP1 PUSH2 0x149A JUMP JUMPDEST POP PUSH1 0x20 DUP3 ADD MLOAD DUP2 PUSH1 0x1 ADD SSTORE PUSH1 0x40 DUP3 ADD MLOAD DUP2 PUSH1 0x2 ADD SWAP1 DUP2 PUSH2 0xC07 SWAP2 SWAP1 PUSH2 0x149A JUMP JUMPDEST POP POP POP PUSH1 0x1 PUSH1 0x40 MLOAD DUP1 PUSH1 0x60 ADD PUSH1 0x40 MSTORE DUP1 PUSH1 0x40 MLOAD DUP1 PUSH1 0x40 ADD PUSH1 0x40 MSTORE DUP1 PUSH1 0x2 DUP2 MSTORE PUSH1 0x20 ADD PUSH32 0x4334000000000000000000000000000000000000000000000000000000000000 DUP2 MSTORE POP DUP2 MSTORE PUSH1 0x20 ADD PUSH4 0x684EE180 DUP2 MSTORE PUSH1 0x20 ADD PUSH1 0x40 MLOAD DUP1 PUSH1 0x40 ADD PUSH1 0x40 MSTORE DUP1 PUSH1 0xD DUP2 MSTORE PUSH1 0x20 ADD PUSH32 0x4672756974204E75742042617200000000000000000000000000000000000000 DUP2 MSTORE POP DUP2 MSTORE POP SWAP1 DUP1 PUSH1 0x1 DUP2 SLOAD ADD DUP1 DUP3 SSTORE DUP1 SWAP2 POP POP PUSH1 0x1 SWAP1 SUB SWAP1 PUSH0 MSTORE PUSH1 0x20 PUSH0 KECCAK256 SWAP1 PUSH1 0x3 MUL ADD PUSH0 SWAP1 SWAP2 SWAP1 SWAP2 SWAP1 SWAP2 POP PUSH0 DUP3 ADD MLOAD DUP2 PUSH0 ADD SWAP1 DUP2 PUSH2 0xCCE SWAP2 SWAP1 PUSH2 0x149A JUMP JUMPDEST POP PUSH1 0x20 DUP3 ADD MLOAD DUP2 PUSH1 0x1 ADD SSTORE PUSH1 0x40 DUP3 ADD MLOAD DUP2 PUSH1 0x2 ADD SWAP1 DUP2 PUSH2 0xCEE SWAP2 SWAP1 PUSH2 0x149A JUMP JUMPDEST POP POP POP PUSH1 0x1 PUSH1 0x40 MLOAD DUP1 PUSH1 0x60 ADD PUSH1 0x40 MSTORE DUP1 PUSH1 0x40 MLOAD DUP1 PUSH1 0x40 ADD PUSH1 0x40 MSTORE DUP1 PUSH1 0x2 DUP2 MSTORE PUSH1 0x20 ADD PUSH32 0x4335000000000000000000000000000000000000000000000000000000000000 DUP2 MSTORE POP DUP2 MSTORE PUSH1 0x20 ADD PUSH4 0x684EE180 DUP2 MSTORE PUSH1 0x20 ADD PUSH1 0x40 MLOAD DUP1 PUSH1 0x40 ADD PUSH1 0x40 MSTORE DUP1 PUSH1 0xA DUP2 MSTORE PUSH1 0x20 ADD PUSH32 0x42656566204A65726B7900000000000000000000000000000000000000000000 DUP2 MSTORE POP DUP2 MSTORE POP SWAP1 DUP1 PUSH1 0x1 DUP2 SLOAD ADD DUP1 DUP3 SSTORE DUP1 SWAP2 POP POP PUSH1 0x1 SWAP1 SUB SWAP1 PUSH0 MSTORE PUSH1 0x20 PUSH0 KECCAK256 SWAP1 PUSH1 0x3 MUL ADD PUSH0 SWAP1 SWAP2 SWAP1 SWAP2 SWAP1 SWAP2 POP PUSH0 DUP3 ADD MLOAD DUP2 PUSH0 ADD SWAP1 DUP2 PUSH2 0xDB5 SWAP2 SWAP1 PUSH2 0x149A JUMP JUMPDEST POP PUSH1 0x20 DUP3 ADD MLOAD DUP2 PUSH1 0x1 ADD SSTORE PUSH1 0x40 DUP3 ADD MLOAD DUP2 PUSH1 0x2 ADD SWAP1 DUP2 PUSH2 0xDD5 SWAP2 SWAP1 PUSH2 0x149A JUMP JUMPDEST POP POP POP PUSH1 0x1 PUSH1 0x40 MLOAD DUP1 PUSH1 0x60 ADD PUSH1 0x40 MSTORE DUP1 PUSH1 0x40 MLOAD DUP1 PUSH1 0x40 ADD PUSH1 0x40 MSTORE DUP1 PUSH1 0x2 DUP2 MSTORE PUSH1 0x20 ADD PUSH32 0x4431000000000000000000000000000000000000000000000000000000000000 DUP2 MSTORE POP DUP2 MSTORE PUSH1 0x20 ADD PUSH4 0x4A817C80 DUP2 MSTORE PUSH1 0x20 ADD PUSH1 0x40 MLOAD DUP1 PUSH1 0x40 ADD PUSH1 0x40 MSTORE DUP1 PUSH1 0xE DUP2 MSTORE PUSH1 0x20 ADD PUSH32 0x4B69744B61742042697363756974000000000000000000000000000000000000 DUP2 MSTORE POP DUP2 MSTORE POP SWAP1 DUP1 PUSH1 0x1 DUP2 SLOAD ADD DUP1 DUP3 SSTORE DUP1 SWAP2 POP POP PUSH1 0x1 SWAP1 SUB SWAP1 PUSH0 MSTORE PUSH1 0x20 PUSH0 KECCAK256 SWAP1 PUSH1 0x3 MUL ADD PUSH0 SWAP1 SWAP2 SWAP1 SWAP2 SWAP1 SWAP2 POP PUSH0 DUP3 ADD MLOAD DUP2 PUSH0 ADD SWAP1 DUP2 PUSH2 0xE9C SWAP2 SWAP1 PUSH2 0x149A JUMP JUMPDEST POP PUSH1 0x20 DUP3 ADD MLOAD DUP2 PUSH1 0x1 ADD SSTORE PUSH1 0x40 DUP3 ADD MLOAD DUP2 PUSH1 0x2 ADD SWAP1 DUP2 PUSH2 0xEBC SWAP2 SWAP1 PUSH2 0x149A JUMP JUMPDEST POP POP POP PUSH1 0x1 PUSH1 0x40 MLOAD DUP1 PUSH1 0x60 ADD PUSH1 0x40 MSTORE DUP1 PUSH1 0x40 MLOAD DUP1 PUSH1 0x40 ADD PUSH1 0x40 MSTORE DUP1 PUSH1 0x2 DUP2 MSTORE PUSH1 0x20 ADD PUSH32 0x4432000000000000000000000000000000000000000000000000000000000000 DUP2 MSTORE POP DUP2 MSTORE PUSH1 0x20 ADD PUSH4 0x4A817C80 DUP2 MSTORE PUSH1 0x20 ADD PUSH1 0x40 MLOAD DUP1 PUSH1 0x40 ADD PUSH1 0x40 MSTORE DUP1 PUSH1 0x8 DUP2 MSTORE PUSH1 0x20 ADD PUSH32 0x506F7020436F726E000000000000000000000000000000000000000000000000 DUP2 MSTORE POP DUP2 MSTORE POP SWAP1 DUP1 PUSH1 0x1 DUP2 SLOAD ADD DUP1 DUP3 SSTORE DUP1 SWAP2 POP POP PUSH1 0x1 SWAP1 SUB SWAP1 PUSH0 MSTORE PUSH1 0x20 PUSH0 KECCAK256 SWAP1 PUSH1 0x3 MUL ADD PUSH0 SWAP1 SWAP2 SWAP1 SWAP2 SWAP1 SWAP2 POP PUSH0 DUP3 ADD MLOAD DUP2 PUSH0 ADD SWAP1 DUP2 PUSH2 0xF83 SWAP2 SWAP1 PUSH2 0x149A JUMP JUMPDEST POP PUSH1 0x20 DUP3 ADD MLOAD DUP2 PUSH1 0x1 ADD SSTORE PUSH1 0x40 DUP3 ADD MLOAD DUP2 PUSH1 0x2 ADD SWAP1 DUP2 PUSH2 0xFA3 SWAP2 SWAP1 PUSH2 0x149A JUMP JUMPDEST POP POP POP PUSH1 0x1 PUSH1 0x40 MLOAD DUP1 PUSH1 0x60 ADD PUSH1 0x40 MSTORE DUP1 PUSH1 0x40 MLOAD DUP1 PUSH1 0x40 ADD PUSH1 0x40 MSTORE DUP1 PUSH1 0x2 DUP2 MSTORE PUSH1 0x20 ADD PUSH32 0x4433000000000000000000000000000000000000000000000000000000000000 DUP2 MSTORE POP DUP2 MSTORE PUSH1 0x20 ADD PUSH4 0x59682F00 DUP2 MSTORE PUSH1 0x20 ADD PUSH1 0x40 MLOAD DUP1 PUSH1 0x40 ADD PUSH1 0x40 MSTORE DUP1 PUSH1 0x8 DUP2 MSTORE PUSH1 0x20 ADD PUSH32 0x5477697820426172000000000000000000000000000000000000000000000000 DUP2 MSTORE POP DUP2 MSTORE POP SWAP1 DUP1 PUSH1 0x1 DUP2 SLOAD ADD DUP1 DUP3 SSTORE DUP1 SWAP2 POP POP PUSH1 0x1 SWAP1 SUB SWAP1 PUSH0 MSTORE PUSH1 0x20 PUSH0 KECCAK256 SWAP1 PUSH1 0x3 MUL ADD PUSH0 SWAP1 SWAP2 SWAP1 SWAP2 SWAP1 SWAP2 POP PUSH0 DUP3 ADD MLOAD DUP2 PUSH0 ADD SWAP1 DUP2 PUSH2 0x106A SWAP2 SWAP1 PUSH2 0x149A JUMP JUMPDEST POP PUSH1 0x20 DUP3 ADD MLOAD DUP2 PUSH1 0x1 ADD SSTORE PUSH1 0x40 DUP3 ADD MLOAD DUP2 PUSH1 0x2 ADD SWAP1 DUP2 PUSH2 0x108A SWAP2 SWAP1 PUSH2 0x149A JUMP JUMPDEST POP POP POP PUSH1 0x1 PUSH1 0x40 MLOAD DUP1 PUSH1 0x60 ADD PUSH1 0x40 MSTORE DUP1 PUSH1 0x40 MLOAD DUP1 PUSH1 0x40 ADD PUSH1 0x40 MSTORE DUP1 PUSH1 0x2 DUP2 MSTORE PUSH1 0x20 ADD PUSH32 0x4434000000000000000000000000000000000000000000000000000000000000 DUP2 MSTORE POP DUP2 MSTORE PUSH1 0x20 ADD PUSH4 0x4A817C80 DUP2 MSTORE PUSH1 0x20 ADD PUSH1 0x40 MLOAD DUP1 PUSH1 0x40 ADD PUSH1 0x40 MSTORE DUP1 PUSH1 0x5 DUP2 MSTORE PUSH1 0x20 ADD PUSH32 0x446F6E7574000000000000000000000000000000000000000000000000000000 DUP2 MSTORE POP DUP2 MSTORE POP SWAP1 DUP1 PUSH1 0x1 DUP2 SLOAD ADD DUP1 DUP3 SSTORE DUP1 SWAP2 POP POP PUSH1 0x1 SWAP1 SUB SWAP1 PUSH0 MSTORE PUSH1 0x20 PUSH0 KECCAK256 SWAP1 PUSH1 0x3 MUL ADD PUSH0 SWAP1 SWAP2 SWAP1 SWAP2 SWAP1 SWAP2 POP PUSH0 DUP3 ADD MLOAD DUP2 PUSH0 ADD SWAP1 DUP2 PUSH2 0x1151 SWAP2 SWAP1 PUSH2 0x149A JUMP JUMPDEST POP PUSH1 0x20 DUP3 ADD MLOAD DUP2 PUSH1 0x1 ADD SSTORE PUSH1 0x40 DUP3 ADD MLOAD DUP2 PUSH1 0x2 ADD SWAP1 DUP2 PUSH2 0x1171 SWAP2 SWAP1 PUSH2 0x149A JUMP JUMPDEST POP POP POP PUSH1 0x1 PUSH1 0x40 MLOAD DUP1 PUSH1 0x60 ADD PUSH1 0x40 MSTORE DUP1 PUSH1 0x40 MLOAD DUP1 PUSH1 0x40 ADD PUSH1 0x40 MSTORE DUP1 PUSH1 0x2 DUP2 MSTORE PUSH1 0x20 ADD PUSH32 0x4435000000000000000000000000000000000000000000000000000000000000 DUP2 MSTORE POP DUP2 MSTORE PUSH1 0x20 ADD PUSH4 0x4A817C80 DUP2 MSTORE PUSH1 0x20 ADD PUSH1 0x40 MLOAD DUP1 PUSH1 0x40 ADD PUSH1 0x40 MSTORE DUP1 PUSH1 0x9 DUP2 MSTORE PUSH1 0x20 ADD PUSH32 0x526564204170706C650000000000000000000000000000000000000000000000 DUP2 MSTORE POP DUP2 MSTORE POP SWAP1 DUP1 PUSH1 0x1 DUP2 SLOAD ADD DUP1 DUP3 SSTORE DUP1 SWAP2 POP POP PUSH1 0x1 SWAP1 SUB SWAP1 PUSH0 MSTORE PUSH1 0x20 PUSH0 KECCAK256 SWAP1 PUSH1 0x3 MUL ADD PUSH0 SWAP1 SWAP2 SWAP1 SWAP2 SWAP1 SWAP2 POP PUSH0 DUP3 ADD MLOAD DUP2 PUSH0 ADD SWAP1 DUP2 PUSH2 0x1238 SWAP2 SWAP1 PUSH2 0x149A JUMP JUMPDEST POP PUSH1 0x20 DUP3 ADD MLOAD DUP2 PUSH1 0x1 ADD SSTORE PUSH1 0x40 DUP3 ADD MLOAD DUP2 PUSH1 0x2 ADD SWAP1 DUP2 PUSH2 0x1258 SWAP2 SWAP1 PUSH2 0x149A JUMP JUMPDEST POP POP POP PUSH2 0x1569 JUMP JUMPDEST PUSH0 DUP2 MLOAD SWAP1 POP SWAP2 SWAP1 POP JUMP JUMPDEST PUSH32 0x4E487B7100000000000000000000000000000000000000000000000000000000 PUSH0 MSTORE PUSH1 0x41 PUSH1 0x4 MSTORE PUSH1 0x24 PUSH0 REVERT JUMPDEST PUSH32 0x4E487B7100000000000000000000000000000000000000000000000000000000 PUSH0 MSTORE PUSH1 0x22 PUSH1 0x4 MSTORE PUSH1 0x24 PUSH0 REVERT JUMPDEST PUSH0 PUSH1 0x2 DUP3 DIV SWAP1 POP PUSH1 0x1 DUP3 AND DUP1 PUSH2 0x12DB JUMPI PUSH1 0x7F DUP3 AND SWAP2 POP JUMPDEST PUSH1 0x20 DUP3 LT DUP2 SUB PUSH2 0x12EE JUMPI PUSH2 0x12ED PUSH2 0x1297 JUMP JUMPDEST JUMPDEST POP SWAP2 SWAP1 POP JUMP JUMPDEST PUSH0 DUP2 SWAP1 POP DUP2 PUSH0 MSTORE PUSH1 0x20 PUSH0 KECCAK256 SWAP1 POP SWAP2 SWAP1 POP JUMP JUMPDEST PUSH0 PUSH1 0x20 PUSH1 0x1F DUP4 ADD DIV SWAP1 POP SWAP2 SWAP1 POP JUMP JUMPDEST PUSH0 DUP3 DUP3 SHL SWAP1 POP SWAP3 SWAP2 POP POP JUMP JUMPDEST PUSH0 PUSH1 0x8 DUP4 MUL PUSH2 0x1350 PUSH32 0xFFFFFFFFFFFFFFFFFFFFFFFFFFFFFFFFFFFFFFFFFFFFFFFFFFFFFFFFFFFFFFFF DUP3 PUSH2 0x1315 JUMP JUMPDEST PUSH2 0x135A DUP7 DUP4 PUSH2 0x1315 JUMP JUMPDEST SWAP6 POP DUP1 NOT DUP5 AND SWAP4 POP DUP1 DUP7 AND DUP5 OR SWAP3 POP POP POP SWAP4 SWAP3 POP POP POP JUMP JUMPDEST PUSH0 DUP2 SWAP1 POP SWAP2 SWAP1 POP JUMP JUMPDEST PUSH0 DUP2 SWAP1 POP SWAP2 SWAP1 POP JUMP JUMPDEST PUSH0 PUSH2 0x139E PUSH2 0x1399 PUSH2 0x1394 DUP5 PUSH2 0x1372 JUMP JUMPDEST PUSH2 0x137B JUMP JUMPDEST PUSH2 0x1372 JUMP JUMPDEST SWAP1 POP SWAP2 SWAP1 POP JUMP JUMPDEST PUSH0 DUP2 SWAP1 POP SWAP2 SWAP1 POP JUMP JUMPDEST PUSH2 0x13B7 DUP4 PUSH2 0x1384 JUMP JUMPDEST PUSH2 0x13CB PUSH2 0x13C3 DUP3 PUSH2 0x13A5 JUMP JUMPDEST DUP5 DUP5 SLOAD PUSH2 0x1321 JUMP JUMPDEST DUP3 SSTORE POP POP POP POP JUMP JUMPDEST PUSH0 SWAP1 JUMP JUMPDEST PUSH2 0x13DF PUSH2 0x13D3 JUMP JUMPDEST PUSH2 0x13EA DUP2 DUP5 DUP5 PUSH2 0x13AE JUMP JUMPDEST POP POP POP JUMP JUMPDEST JUMPDEST DUP2 DUP2 LT ISZERO PUSH2 0x140D JUMPI PUSH2 0x1402 PUSH0 DUP3 PUSH2 0x13D7 JUMP JUMPDEST PUSH1 0x1 DUP2 ADD SWAP1 POP PUSH2 0x13F0 JUMP JUMPDEST POP POP JUMP JUMPDEST PUSH1 0x1F DUP3 GT ISZERO PUSH2 0x1452 JUMPI PUSH2 0x1423 DUP2 PUSH2 0x12F4 JUMP JUMPDEST PUSH2 0x142C DUP5 PUSH2 0x1306 JUMP JUMPDEST DUP2 ADD PUSH1 0x20 DUP6 LT ISZERO PUSH2 0x143B JUMPI DUP2 SWAP1 POP JUMPDEST PUSH2 0x144F PUSH2 0x1447 DUP6 PUSH2 0x1306 JUMP JUMPDEST DUP4 ADD DUP3 PUSH2 0x13EF JUMP JUMPDEST POP POP JUMPDEST POP POP POP JUMP JUMPDEST PUSH0 DUP3 DUP3 SHR SWAP1 POP SWAP3 SWAP2 POP POP JUMP JUMPDEST PUSH0 PUSH2 0x1472 PUSH0 NOT DUP5 PUSH1 0x8 MUL PUSH2 0x1457 JUMP JUMPDEST NOT DUP1 DUP4 AND SWAP2 POP POP SWAP3 SWAP2 POP POP JUMP JUMPDEST PUSH0 PUSH2 0x148A DUP4 DUP4 PUSH2 0x1463 JUMP JUMPDEST SWAP2 POP DUP3 PUSH1 0x2 MUL DUP3 OR SWAP1 POP SWAP3 SWAP2 POP POP JUMP JUMPDEST PUSH2 0x14A3 DUP3 PUSH2 0x1260 JUMP JUMPDEST PUSH8 0xFFFFFFFFFFFFFFFF DUP2 GT ISZERO PUSH2 0x14BC JUMPI PUSH2 0x14BB PUSH2 0x126A JUMP JUMPDEST JUMPDEST PUSH2 0x14C6 DUP3 SLOAD PUSH2 0x12C4 JUMP JUMPDEST PUSH2 0x14D1 DUP3 DUP3 DUP6 PUSH2 0x1411 JUMP JUMPDEST PUSH0 PUSH1 0x20 SWAP1 POP PUSH1 0x1F DUP4 GT PUSH1 0x1 DUP2 EQ PUSH2 0x1502 JUMPI PUSH0 DUP5 ISZERO PUSH2 0x14F0 JUMPI DUP3 DUP8 ADD MLOAD SWAP1 POP JUMPDEST PUSH2 0x14FA DUP6 DUP3 PUSH2 0x147F JUMP JUMPDEST DUP7 SSTORE POP PUSH2 0x1561 JUMP JUMPDEST PUSH1 0x1F NOT DUP5 AND PUSH2 0x1510 DUP7 PUSH2 0x12F4 JUMP JUMPDEST PUSH0 JUMPDEST DUP3 DUP2 LT ISZERO PUSH2 0x1537 JUMPI DUP5 DUP10 ADD MLOAD DUP3 SSTORE PUSH1 0x1 DUP3 ADD SWAP2 POP PUSH1 0x20 DUP6 ADD SWAP5 POP PUSH1 0x20 DUP2 ADD SWAP1 POP PUSH2 0x1512 JUMP JUMPDEST DUP7 DUP4 LT ISZERO PUSH2 0x1554 JUMPI DUP5 DUP10 ADD MLOAD PUSH2 0x1550 PUSH1 0x1F DUP10 AND DUP3 PUSH2 0x1463 JUMP JUMPDEST DUP4 SSTORE POP JUMPDEST PUSH1 0x1 PUSH1 0x2 DUP9 MUL ADD DUP9 SSTORE POP POP POP JUMPDEST POP POP POP POP POP POP JUMP JUMPDEST PUSH2 0x2B74 DUP1 PUSH2 0x1576 PUSH0 CODECOPY PUSH0 RETURN INVALID PUSH1 0x80 PUSH1 0x40 MSTORE PUSH1 0x4 CALLDATASIZE LT PUSH2 0x90 JUMPI PUSH0 CALLDATALOAD PUSH1 0xE0 SHR DUP1 PUSH4 0x70CD5A80 GT PUSH2 0x58 JUMPI DUP1 PUSH4 0x70CD5A80 EQ PUSH2 0x162 JUMPI DUP1 PUSH4 0x94CF2160 EQ PUSH2 0x19E JUMPI DUP1 PUSH4 0xA26759CB EQ PUSH2 0x1DA JUMPI DUP1 PUSH4 0xB04F3225 EQ PUSH2 0x1E4 JUMPI DUP1 PUSH4 0xCDAD28D7 EQ PUSH2 0x20C JUMPI PUSH2 0x90 JUMP JUMPDEST DUP1 PUSH4 0x2EE3A52 EQ PUSH2 0x94 JUMPI DUP1 PUSH4 0x12065FE0 EQ PUSH2 0xBE JUMPI DUP1 PUSH4 0x121DC3D5 EQ PUSH2 0xE8 JUMPI DUP1 PUSH4 0x19F92926 EQ PUSH2 0x124 JUMPI DUP1 PUSH4 0x3CCFD60B EQ PUSH2 0x14C JUMPI JUMPDEST PUSH0 DUP1 REVERT JUMPDEST CALLVALUE DUP1 ISZERO PUSH2 0x9F JUMPI PUSH0 DUP1 REVERT JUMPDEST POP PUSH2 0xA8 PUSH2 0x248 JUMP JUMPDEST PUSH1 0x40 MLOAD PUSH2 0xB5 SWAP2 SWAP1 PUSH2 0x1D2A JUMP JUMPDEST PUSH1 0x40 MLOAD DUP1 SWAP2 SUB SWAP1 RETURN JUMPDEST CALLVALUE DUP1 ISZERO PUSH2 0xC9 JUMPI PUSH0 DUP1 REVERT JUMPDEST POP PUSH2 0xD2 PUSH2 0x3CD JUMP JUMPDEST PUSH1 0x40 MLOAD PUSH2 0xDF SWAP2 SWAP1 PUSH2 0x1D59 JUMP JUMPDEST PUSH1 0x40 MLOAD DUP1 SWAP2 SUB SWAP1 RETURN JUMPDEST CALLVALUE DUP1 ISZERO PUSH2 0xF3 JUMPI PUSH0 DUP1 REVERT JUMPDEST POP PUSH2 0x10E PUSH1 0x4 DUP1 CALLDATASIZE SUB DUP2 ADD SWAP1 PUSH2 0x109 SWAP2 SWAP1 PUSH2 0x1DDD JUMP JUMPDEST PUSH2 0x49F JUMP JUMPDEST PUSH1 0x40 MLOAD PUSH2 0x11B SWAP2 SWAP1 PUSH2 0x1FA5 JUMP JUMPDEST PUSH1 0x40 MLOAD DUP1 SWAP2 SUB SWAP1 RETURN JUMPDEST CALLVALUE DUP1 ISZERO PUSH2 0x12F JUMPI PUSH0 DUP1 REVERT JUMPDEST POP PUSH2 0x14A PUSH1 0x4 DUP1 CALLDATASIZE SUB DUP2 ADD SWAP1 PUSH2 0x145 SWAP2 SWAP1 PUSH2 0x20F1 JUMP JUMPDEST PUSH2 0x8AE JUMP JUMPDEST STOP JUMPDEST CALLVALUE DUP1 ISZERO PUSH2 0x157 JUMPI PUSH0 DUP1 REVERT JUMPDEST POP PUSH2 0x160 PUSH2 0xB28 JUMP JUMPDEST STOP JUMPDEST CALLVALUE DUP1 ISZERO PUSH2 0x16D JUMPI PUSH0 DUP1 REVERT JUMPDEST POP PUSH2 0x188 PUSH1 0x4 DUP1 CALLDATASIZE SUB DUP2 ADD SWAP1 PUSH2 0x183 SWAP2 SWAP1 PUSH2 0x1DDD JUMP JUMPDEST PUSH2 0xDA8 JUMP JUMPDEST PUSH1 0x40 MLOAD PUSH2 0x195 SWAP2 SWAP1 PUSH2 0x1FA5 JUMP JUMPDEST PUSH1 0x40 MLOAD DUP1 SWAP2 SUB SWAP1 RETURN JUMPDEST CALLVALUE DUP1 ISZERO PUSH2 0x1A9 JUMPI PUSH0 DUP1 REVERT JUMPDEST POP PUSH2 0x1C4 PUSH1 0x4 DUP1 CALLDATASIZE SUB DUP2 ADD SWAP1 PUSH2 0x1BF SWAP2 SWAP1 PUSH2 0x1DDD JUMP JUMPDEST PUSH2 0x1158 JUMP JUMPDEST PUSH1 0x40 MLOAD PUSH2 0x1D1 SWAP2 SWAP1 PUSH2 0x1FA5 JUMP JUMPDEST PUSH1 0x40 MLOAD DUP1 SWAP2 SUB SWAP1 RETURN JUMPDEST PUSH2 0x1E2 PUSH2 0x1567 JUMP JUMPDEST STOP JUMPDEST CALLVALUE DUP1 ISZERO PUSH2 0x1EF JUMPI PUSH0 DUP1 REVERT JUMPDEST POP PUSH2 0x20A PUSH1 0x4 DUP1 CALLDATASIZE SUB DUP2 ADD SWAP1 PUSH2 0x205 SWAP2 SWAP1 PUSH2 0x2162 JUMP JUMPDEST PUSH2 0x168B JUMP JUMPDEST STOP JUMPDEST CALLVALUE DUP1 ISZERO PUSH2 0x217 JUMPI PUSH0 DUP1 REVERT JUMPDEST POP PUSH2 0x232 PUSH1 0x4 DUP1 CALLDATASIZE SUB DUP2 ADD SWAP1 PUSH2 0x22D SWAP2 SWAP1 PUSH2 0x20F1 JUMP JUMPDEST PUSH2 0x18F1 JUMP JUMPDEST PUSH1 0x40 MLOAD PUSH2 0x23F SWAP2 SWAP1 PUSH2 0x21E1 JUMP JUMPDEST PUSH1 0x40 MLOAD DUP1 SWAP2 SUB SWAP1 RETURN JUMPDEST PUSH1 0x60 PUSH1 0x1 DUP1 SLOAD DUP1 PUSH1 0x20 MUL PUSH1 0x20 ADD PUSH1 0x40 MLOAD SWAP1 DUP2 ADD PUSH1 0x40 MSTORE DUP1 SWAP3 SWAP2 SWAP1 DUP2 DUP2 MSTORE PUSH1 0x20 ADD PUSH0 SWAP1 JUMPDEST DUP3 DUP3 LT ISZERO PUSH2 0x3C4 JUMPI DUP4 DUP3 SWAP1 PUSH0 MSTORE PUSH1 0x20 PUSH0 KECCAK256 SWAP1 PUSH1 0x3 MUL ADD PUSH1 0x40 MLOAD DUP1 PUSH1 0x60 ADD PUSH1 0x40 MSTORE SWAP1 DUP2 PUSH0 DUP3 ADD DUP1 SLOAD PUSH2 0x29B SWAP1 PUSH2 0x222E JUMP JUMPDEST DUP1 PUSH1 0x1F ADD PUSH1 0x20 DUP1 SWAP2 DIV MUL PUSH1 0x20 ADD PUSH1 0x40 MLOAD SWAP1 DUP2 ADD PUSH1 0x40 MSTORE DUP1 SWAP3 SWAP2 SWAP1 DUP2 DUP2 MSTORE PUSH1 0x20 ADD DUP3 DUP1 SLOAD PUSH2 0x2C7 SWAP1 PUSH2 0x222E JUMP JUMPDEST DUP1 ISZERO PUSH2 0x312 JUMPI DUP1 PUSH1 0x1F LT PUSH2 0x2E9 JUMPI PUSH2 0x100 DUP1 DUP4 SLOAD DIV MUL DUP4 MSTORE SWAP2 PUSH1 0x20 ADD SWAP2 PUSH2 0x312 JUMP JUMPDEST DUP3 ADD SWAP2 SWAP1 PUSH0 MSTORE PUSH1 0x20 PUSH0 KECCAK256 SWAP1 JUMPDEST DUP2 SLOAD DUP2 MSTORE SWAP1 PUSH1 0x1 ADD SWAP1 PUSH1 0x20 ADD DUP1 DUP4 GT PUSH2 0x2F5 JUMPI DUP3 SWAP1 SUB PUSH1 0x1F AND DUP3 ADD SWAP2 JUMPDEST POP POP POP POP POP DUP2 MSTORE PUSH1 0x20 ADD PUSH1 0x1 DUP3 ADD SLOAD DUP2 MSTORE PUSH1 0x20 ADD PUSH1 0x2 DUP3 ADD DUP1 SLOAD PUSH2 0x335 SWAP1 PUSH2 0x222E JUMP JUMPDEST DUP1 PUSH1 0x1F ADD PUSH1 0x20 DUP1 SWAP2 DIV MUL PUSH1 0x20 ADD PUSH1 0x40 MLOAD SWAP1 DUP2 ADD PUSH1 0x40 MSTORE DUP1 SWAP3 SWAP2 SWAP1 DUP2 DUP2 MSTORE PUSH1 0x20 ADD DUP3 DUP1 SLOAD PUSH2 0x361 SWAP1 PUSH2 0x222E JUMP JUMPDEST DUP1 ISZERO PUSH2 0x3AC JUMPI DUP1 PUSH1 0x1F LT PUSH2 0x383 JUMPI PUSH2 0x100 DUP1 DUP4 SLOAD DIV MUL DUP4 MSTORE SWAP2 PUSH1 0x20 ADD SWAP2 PUSH2 0x3AC JUMP JUMPDEST DUP3 ADD SWAP2 SWAP1 PUSH0 MSTORE PUSH1 0x20 PUSH0 KECCAK256 SWAP1 JUMPDEST DUP2 SLOAD DUP2 MSTORE SWAP1 PUSH1 0x1 ADD SWAP1 PUSH1 0x20 ADD DUP1 DUP4 GT PUSH2 0x38F JUMPI DUP3 SWAP1 SUB PUSH1 0x1F AND DUP3 ADD SWAP2 JUMPDEST POP POP POP POP POP DUP2 MSTORE POP POP DUP2 MSTORE PUSH1 0x20 ADD SWAP1 PUSH1 0x1 ADD SWAP1 PUSH2 0x26B JUMP JUMPDEST POP POP POP POP SWAP1 POP SWAP1 JUMP JUMPDEST PUSH0 DUP1 PUSH0 SWAP1 SLOAD SWAP1 PUSH2 0x100 EXP SWAP1 DIV PUSH20 0xFFFFFFFFFFFFFFFFFFFFFFFFFFFFFFFFFFFFFFFF AND PUSH20 0xFFFFFFFFFFFFFFFFFFFFFFFFFFFFFFFFFFFFFFFF AND CALLER PUSH20 0xFFFFFFFFFFFFFFFFFFFFFFFFFFFFFFFFFFFFFFFF AND EQ PUSH2 0x45C JUMPI PUSH1 0x40 MLOAD PUSH32 0x8C379A000000000000000000000000000000000000000000000000000000000 DUP2 MSTORE PUSH1 0x4 ADD PUSH2 0x453 SWAP1 PUSH2 0x22DE JUMP JUMPDEST PUSH1 0x40 MLOAD DUP1 SWAP2 SUB SWAP1 REVERT JUMPDEST PUSH1 0x2 PUSH0 CALLER PUSH20 0xFFFFFFFFFFFFFFFFFFFFFFFFFFFFFFFFFFFFFFFF AND PUSH20 0xFFFFFFFFFFFFFFFFFFFFFFFFFFFFFFFFFFFFFFFF AND DUP2 MSTORE PUSH1 0x20 ADD SWAP1 DUP2 MSTORE PUSH1 0x20 ADD PUSH0 KECCAK256 SLOAD SWAP1 POP SWAP1 JUMP JUMPDEST PUSH1 0x60 PUSH0 DUP1 SLOAD SWAP1 PUSH2 0x100 EXP SWAP1 DIV PUSH20 0xFFFFFFFFFFFFFFFFFFFFFFFFFFFFFFFFFFFFFFFF AND PUSH20 0xFFFFFFFFFFFFFFFFFFFFFFFFFFFFFFFFFFFFFFFF AND CALLER PUSH20 0xFFFFFFFFFFFFFFFFFFFFFFFFFFFFFFFFFFFFFFFF AND EQ PUSH2 0x52E JUMPI PUSH1 0x40 MLOAD PUSH32 0x8C379A000000000000000000000000000000000000000000000000000000000 DUP2 MSTORE PUSH1 0x4 ADD PUSH2 0x525 SWAP1 PUSH2 0x22DE JUMP JUMPDEST PUSH1 0x40 MLOAD DUP1 SWAP2 SUB SWAP1 REVERT JUMPDEST PUSH0 PUSH1 0x3 DUP1 SLOAD SWAP1 POP PUSH8 0xFFFFFFFFFFFFFFFF DUP2 GT ISZERO PUSH2 0x54E JUMPI PUSH2 0x54D PUSH2 0x1FCD JUMP JUMPDEST JUMPDEST PUSH1 0x40 MLOAD SWAP1 DUP1 DUP3 MSTORE DUP1 PUSH1 0x20 MUL PUSH1 0x20 ADD DUP3 ADD PUSH1 0x40 MSTORE DUP1 ISZERO PUSH2 0x587 JUMPI DUP2 PUSH1 0x20 ADD JUMPDEST PUSH2 0x574 PUSH2 0x1B26 JUMP JUMPDEST DUP2 MSTORE PUSH1 0x20 ADD SWAP1 PUSH1 0x1 SWAP1 SUB SWAP1 DUP2 PUSH2 0x56C JUMPI SWAP1 POP JUMPDEST POP SWAP1 POP PUSH0 DUP1 JUMPDEST PUSH1 0x3 DUP1 SLOAD SWAP1 POP DUP2 LT ISZERO PUSH2 0x7FA JUMPI DUP5 PUSH20 0xFFFFFFFFFFFFFFFFFFFFFFFFFFFFFFFFFFFFFFFF AND PUSH1 0x3 DUP3 DUP2 SLOAD DUP2 LT PUSH2 0x5C5 JUMPI PUSH2 0x5C4 PUSH2 0x22FC JUMP JUMPDEST JUMPDEST SWAP1 PUSH0 MSTORE PUSH1 0x20 PUSH0 KECCAK256 SWAP1 PUSH1 0x4 MUL ADD PUSH0 ADD PUSH0 SWAP1 SLOAD SWAP1 PUSH2 0x100 EXP SWAP1 DIV PUSH20 0xFFFFFFFFFFFFFFFFFFFFFFFFFFFFFFFFFFFFFFFF AND PUSH20 0xFFFFFFFFFFFFFFFFFFFFFFFFFFFFFFFFFFFFFFFF AND EQ DUP1 ISZERO PUSH2 0x668 JUMPI POP PUSH0 PUSH1 0x1 DUP2 GT ISZERO PUSH2 0x624 JUMPI PUSH2 0x623 PUSH2 0x1E40 JUMP JUMPDEST JUMPDEST PUSH1 0x3 DUP3 DUP2 SLOAD DUP2 LT PUSH2 0x638 JUMPI PUSH2 0x637 PUSH2 0x22FC JUMP JUMPDEST JUMPDEST SWAP1 PUSH0 MSTORE PUSH1 0x20 PUSH0 KECCAK256 SWAP1 PUSH1 0x4 MUL ADD PUSH1 0x3 ADD PUSH0 SWAP1 SLOAD SWAP1 PUSH2 0x100 EXP SWAP1 DIV PUSH1 0xFF AND PUSH1 0x1 DUP2 GT ISZERO PUSH2 0x666 JUMPI PUSH2 0x665 PUSH2 0x1E40 JUMP JUMPDEST JUMPDEST EQ JUMPDEST ISZERO PUSH2 0x7ED JUMPI PUSH1 0x3 DUP2 DUP2 SLOAD DUP2 LT PUSH2 0x681 JUMPI PUSH2 0x680 PUSH2 0x22FC JUMP JUMPDEST JUMPDEST SWAP1 PUSH0 MSTORE PUSH1 0x20 PUSH0 KECCAK256 SWAP1 PUSH1 0x4 MUL ADD PUSH1 0x40 MLOAD DUP1 PUSH1 0x80 ADD PUSH1 0x40 MSTORE SWAP1 DUP2 PUSH0 DUP3 ADD PUSH0 SWAP1 SLOAD SWAP1 PUSH2 0x100 EXP SWAP1 DIV PUSH20 0xFFFFFFFFFFFFFFFFFFFFFFFFFFFFFFFFFFFFFFFF AND PUSH20 0xFFFFFFFFFFFFFFFFFFFFFFFFFFFFFFFFFFFFFFFF AND PUSH20 0xFFFFFFFFFFFFFFFFFFFFFFFFFFFFFFFFFFFFFFFF AND DUP2 MSTORE PUSH1 0x20 ADD PUSH1 0x1 DUP3 ADD DUP1 SLOAD PUSH2 0x6FC SWAP1 PUSH2 0x222E JUMP JUMPDEST DUP1 PUSH1 0x1F ADD PUSH1 0x20 DUP1 SWAP2 DIV MUL PUSH1 0x20 ADD PUSH1 0x40 MLOAD SWAP1 DUP2 ADD PUSH1 0x40 MSTORE DUP1 SWAP3 SWAP2 SWAP1 DUP2 DUP2 MSTORE PUSH1 0x20 ADD DUP3 DUP1 SLOAD PUSH2 0x728 SWAP1 PUSH2 0x222E JUMP JUMPDEST DUP1 ISZERO PUSH2 0x773 JUMPI DUP1 PUSH1 0x1F LT PUSH2 0x74A JUMPI PUSH2 0x100 DUP1 DUP4 SLOAD DIV MUL DUP4 MSTORE SWAP2 PUSH1 0x20 ADD SWAP2 PUSH2 0x773 JUMP JUMPDEST DUP3 ADD SWAP2 SWAP1 PUSH0 MSTORE PUSH1 0x20 PUSH0 KECCAK256 SWAP1 JUMPDEST DUP2 SLOAD DUP2 MSTORE SWAP1 PUSH1 0x1 ADD SWAP1 PUSH1 0x20 ADD DUP1 DUP4 GT PUSH2 0x756 JUMPI DUP3 SWAP1 SUB PUSH1 0x1F AND DUP3 ADD SWAP2 JUMPDEST POP POP POP POP POP DUP2 MSTORE PUSH1 0x20 ADD PUSH1 0x2 DUP3 ADD SLOAD DUP2 MSTORE PUSH1 0x20 ADD PUSH1 0x3 DUP3 ADD PUSH0 SWAP1 SLOAD SWAP1 PUSH2 0x100 EXP SWAP1 DIV PUSH1 0xFF AND PUSH1 0x1 DUP2 GT ISZERO PUSH2 0x7AA JUMPI PUSH2 0x7A9 PUSH2 0x1E40 JUMP JUMPDEST JUMPDEST PUSH1 0x1 DUP2 GT ISZERO PUSH2 0x7BC JUMPI PUSH2 0x7BB PUSH2 0x1E40 JUMP JUMPDEST JUMPDEST DUP2 MSTORE POP POP DUP4 DUP4 DUP2 MLOAD DUP2 LT PUSH2 0x7D3 JUMPI PUSH2 0x7D2 PUSH2 0x22FC JUMP JUMPDEST JUMPDEST PUSH1 0x20 MUL PUSH1 0x20 ADD ADD DUP2 SWAP1 MSTORE POP DUP2 DUP1 PUSH2 0x7E9 SWAP1 PUSH2 0x2356 JUMP JUMPDEST SWAP3 POP POP JUMPDEST DUP1 DUP1 PUSH1 0x1 ADD SWAP2 POP POP PUSH2 0x58D JUMP JUMPDEST POP PUSH0 DUP2 PUSH8 0xFFFFFFFFFFFFFFFF DUP2 GT ISZERO PUSH2 0x816 JUMPI PUSH2 0x815 PUSH2 0x1FCD JUMP JUMPDEST JUMPDEST PUSH1 0x40 MLOAD SWAP1 DUP1 DUP3 MSTORE DUP1 PUSH1 0x20 MUL PUSH1 0x20 ADD DUP3 ADD PUSH1 0x40 MSTORE DUP1 ISZERO PUSH2 0x84F JUMPI DUP2 PUSH1 0x20 ADD JUMPDEST PUSH2 0x83C PUSH2 0x1B26 JUMP JUMPDEST DUP2 MSTORE PUSH1 0x20 ADD SWAP1 PUSH1 0x1 SWAP1 SUB SWAP1 DUP2 PUSH2 0x834 JUMPI SWAP1 POP JUMPDEST POP SWAP1 POP PUSH0 JUMPDEST DUP3 DUP2 LT ISZERO PUSH2 0x8A2 JUMPI DUP4 DUP2 DUP2 MLOAD DUP2 LT PUSH2 0x86F JUMPI PUSH2 0x86E PUSH2 0x22FC JUMP JUMPDEST JUMPDEST PUSH1 0x20 MUL PUSH1 0x20 ADD ADD MLOAD DUP3 DUP3 DUP2 MLOAD DUP2 LT PUSH2 0x88A JUMPI PUSH2 0x889 PUSH2 0x22FC JUMP JUMPDEST JUMPDEST PUSH1 0x20 MUL PUSH1 0x20 ADD ADD DUP2 SWAP1 MSTORE POP DUP1 DUP1 PUSH1 0x1 ADD SWAP2 POP POP PUSH2 0x854 JUMP JUMPDEST POP DUP1 SWAP4 POP POP POP POP SWAP2 SWAP1 POP JUMP JUMPDEST PUSH0 DUP1 SLOAD SWAP1 PUSH2 0x100 EXP SWAP1 DIV PUSH20 0xFFFFFFFFFFFFFFFFFFFFFFFFFFFFFFFFFFFFFFFF AND PUSH20 0xFFFFFFFFFFFFFFFFFFFFFFFFFFFFFFFFFFFFFFFF AND CALLER PUSH20 0xFFFFFFFFFFFFFFFFFFFFFFFFFFFFFFFFFFFFFFFF AND EQ PUSH2 0x93B JUMPI PUSH1 0x40 MLOAD PUSH32 0x8C379A000000000000000000000000000000000000000000000000000000000 DUP2 MSTORE PUSH1 0x4 ADD PUSH2 0x932 SWAP1 PUSH2 0x22DE JUMP JUMPDEST PUSH1 0x40 MLOAD DUP1 SWAP2 SUB SWAP1 REVERT JUMPDEST PUSH0 PUSH2 0x945 DUP3 PUSH2 0x18F1 JUMP JUMPDEST PUSH1 0x20 ADD MLOAD SWAP1 POP DUP1 PUSH1 0x2 PUSH0 CALLER PUSH20 0xFFFFFFFFFFFFFFFFFFFFFFFFFFFFFFFFFFFFFFFF AND PUSH20 0xFFFFFFFFFFFFFFFFFFFFFFFFFFFFFFFFFFFFFFFF AND DUP2 MSTORE PUSH1 0x20 ADD SWAP1 DUP2 MSTORE PUSH1 0x20 ADD PUSH0 KECCAK256 SLOAD LT ISZERO PUSH2 0x9CB JUMPI PUSH1 0x40 MLOAD PUSH32 0x8C379A000000000000000000000000000000000000000000000000000000000 DUP2 MSTORE PUSH1 0x4 ADD PUSH2 0x9C2 SWAP1 PUSH2 0x23E7 JUMP JUMPDEST PUSH1 0x40 MLOAD DUP1 SWAP2 SUB SWAP1 REVERT JUMPDEST DUP1 PUSH1 0x2 PUSH0 CALLER PUSH20 0xFFFFFFFFFFFFFFFFFFFFFFFFFFFFFFFFFFFFFFFF AND PUSH20 0xFFFFFFFFFFFFFFFFFFFFFFFFFFFFFFFFFFFFFFFF AND DUP2 MSTORE PUSH1 0x20 ADD SWAP1 DUP2 MSTORE PUSH1 0x20 ADD PUSH0 KECCAK256 PUSH0 DUP3 DUP3 SLOAD PUSH2 0xA17 SWAP2 SWAP1 PUSH2 0x2405 JUMP JUMPDEST SWAP3 POP POP DUP2 SWAP1 SSTORE POP PUSH1 0x3 PUSH1 0x40 MLOAD DUP1 PUSH1 0x80 ADD PUSH1 0x40 MSTORE DUP1 CALLER PUSH20 0xFFFFFFFFFFFFFFFFFFFFFFFFFFFFFFFFFFFFFFFF AND DUP2 MSTORE PUSH1 0x20 ADD DUP5 DUP2 MSTORE PUSH1 0x20 ADD TIMESTAMP DUP2 MSTORE PUSH1 0x20 ADD PUSH0 PUSH1 0x1 DUP2 GT ISZERO PUSH2 0xA66 JUMPI PUSH2 0xA65 PUSH2 0x1E40 JUMP JUMPDEST JUMPDEST DUP2 MSTORE POP SWAP1 DUP1 PUSH1 0x1 DUP2 SLOAD ADD DUP1 DUP3 SSTORE DUP1 SWAP2 POP POP PUSH1 0x1 SWAP1 SUB SWAP1 PUSH0 MSTORE PUSH1 0x20 PUSH0 KECCAK256 SWAP1 PUSH1 0x4 MUL ADD PUSH0 SWAP1 SWAP2 SWAP1 SWAP2 SWAP1 SWAP2 POP PUSH0 DUP3 ADD MLOAD DUP2 PUSH0 ADD PUSH0 PUSH2 0x100 EXP DUP2 SLOAD DUP2 PUSH20 0xFFFFFFFFFFFFFFFFFFFFFFFFFFFFFFFFFFFFFFFF MUL NOT AND SWAP1 DUP4 PUSH20 0xFFFFFFFFFFFFFFFFFFFFFFFFFFFFFFFFFFFFFFFF AND MUL OR SWAP1 SSTORE POP PUSH1 0x20 DUP3 ADD MLOAD DUP2 PUSH1 0x1 ADD SWAP1 DUP2 PUSH2 0xAE8 SWAP2 SWAP1 PUSH2 0x25D5 JUMP JUMPDEST POP PUSH1 0x40 DUP3 ADD MLOAD DUP2 PUSH1 0x2 ADD SSTORE PUSH1 0x60 DUP3 ADD MLOAD DUP2 PUSH1 0x3 ADD PUSH0 PUSH2 0x100 EXP DUP2 SLOAD DUP2 PUSH1 0xFF MUL NOT AND SWAP1 DUP4 PUSH1 0x1 DUP2 GT ISZERO PUSH2 0xB1D JUMPI PUSH2 0xB1C PUSH2 0x1E40 JUMP JUMPDEST JUMPDEST MUL OR SWAP1 SSTORE POP POP POP POP POP JUMP JUMPDEST PUSH0 DUP1 SLOAD SWAP1 PUSH2 0x100 EXP SWAP1 DIV PUSH20 0xFFFFFFFFFFFFFFFFFFFFFFFFFFFFFFFFFFFFFFFF AND PUSH20 0xFFFFFFFFFFFFFFFFFFFFFFFFFFFFFFFFFFFFFFFF AND CALLER PUSH20 0xFFFFFFFFFFFFFFFFFFFFFFFFFFFFFFFFFFFFFFFF AND EQ PUSH2 0xBB5 JUMPI PUSH1 0x40 MLOAD PUSH32 0x8C379A000000000000000000000000000000000000000000000000000000000 DUP2 MSTORE PUSH1 0x4 ADD PUSH2 0xBAC SWAP1 PUSH2 0x22DE JUMP JUMPDEST PUSH1 0x40 MLOAD DUP1 SWAP2 SUB SWAP1 REVERT JUMPDEST PUSH0 PUSH1 0x14 SWAP1 SLOAD SWAP1 PUSH2 0x100 EXP SWAP1 DIV PUSH1 0xFF AND ISZERO PUSH2 0xC04 JUMPI PUSH1 0x40 MLOAD PUSH32 0x8C379A000000000000000000000000000000000000000000000000000000000 DUP2 MSTORE PUSH1 0x4 ADD PUSH2 0xBFB SWAP1 PUSH2 0x26EE JUMP JUMPDEST PUSH1 0x40 MLOAD DUP1 SWAP2 SUB SWAP1 REVERT JUMPDEST PUSH1 0x1 PUSH0 PUSH1 0x14 PUSH2 0x100 EXP DUP2 SLOAD DUP2 PUSH1 0xFF MUL NOT AND SWAP1 DUP4 ISZERO ISZERO MUL OR SWAP1 SSTORE POP PUSH0 PUSH1 0x2 PUSH0 CALLER PUSH20 0xFFFFFFFFFFFFFFFFFFFFFFFFFFFFFFFFFFFFFFFF AND PUSH20 0xFFFFFFFFFFFFFFFFFFFFFFFFFFFFFFFFFFFFFFFF AND DUP2 MSTORE PUSH1 0x20 ADD SWAP1 DUP2 MSTORE PUSH1 0x20 ADD PUSH0 KECCAK256 SLOAD SWAP1 POP PUSH0 DUP2 GT PUSH2 0xCA1 JUMPI PUSH1 0x40 MLOAD PUSH32 0x8C379A000000000000000000000000000000000000000000000000000000000 DUP2 MSTORE PUSH1 0x4 ADD PUSH2 0xC98 SWAP1 PUSH2 0x2756 JUMP JUMPDEST PUSH1 0x40 MLOAD DUP1 SWAP2 SUB SWAP1 REVERT JUMPDEST PUSH0 PUSH1 0x2 PUSH0 CALLER PUSH20 0xFFFFFFFFFFFFFFFFFFFFFFFFFFFFFFFFFFFFFFFF AND PUSH20 0xFFFFFFFFFFFFFFFFFFFFFFFFFFFFFFFFFFFFFFFF AND DUP2 MSTORE PUSH1 0x20 ADD SWAP1 DUP2 MSTORE PUSH1 0x20 ADD PUSH0 KECCAK256 DUP2 SWAP1 SSTORE POP PUSH0 CALLER PUSH20 0xFFFFFFFFFFFFFFFFFFFFFFFFFFFFFFFFFFFFFFFF AND DUP3 PUSH1 0x40 MLOAD PUSH2 0xD08 SWAP1 PUSH2 0x27A1 JUMP JUMPDEST PUSH0 PUSH1 0x40 MLOAD DUP1 DUP4 SUB DUP2 DUP6 DUP8 GAS CALL SWAP3 POP POP POP RETURNDATASIZE DUP1 PUSH0 DUP2 EQ PUSH2 0xD42 JUMPI PUSH1 0x40 MLOAD SWAP2 POP PUSH1 0x1F NOT PUSH1 0x3F RETURNDATASIZE ADD AND DUP3 ADD PUSH1 0x40 MSTORE RETURNDATASIZE DUP3 MSTORE RETURNDATASIZE PUSH0 PUSH1 0x20 DUP5 ADD RETURNDATACOPY PUSH2 0xD47 JUMP JUMPDEST PUSH1 0x60 SWAP2 POP JUMPDEST POP POP SWAP1 POP DUP1 PUSH2 0xD8B JUMPI PUSH1 0x40 MLOAD PUSH32 0x8C379A000000000000000000000000000000000000000000000000000000000 DUP2 MSTORE PUSH1 0x4 ADD PUSH2 0xD82 SWAP1 PUSH2 0x27FF JUMP JUMPDEST PUSH1 0x40 MLOAD DUP1 SWAP2 SUB SWAP1 REVERT JUMPDEST POP POP PUSH0 DUP1 PUSH1 0x14 PUSH2 0x100 EXP DUP2 SLOAD DUP2 PUSH1 0xFF MUL NOT AND SWAP1 DUP4 ISZERO ISZERO MUL OR SWAP1 SSTORE POP JUMP JUMPDEST PUSH1 0x60 PUSH0 DUP1 SLOAD SWAP1 PUSH2 0x100 EXP SWAP1 DIV PUSH20 0xFFFFFFFFFFFFFFFFFFFFFFFFFFFFFFFFFFFFFFFF AND PUSH20 0xFFFFFFFFFFFFFFFFFFFFFFFFFFFFFFFFFFFFFFFF AND CALLER PUSH20 0xFFFFFFFFFFFFFFFFFFFFFFFFFFFFFFFFFFFFFFFF AND EQ PUSH2 0xE37 JUMPI PUSH1 0x40 MLOAD PUSH32 0x8C379A000000000000000000000000000000000000000000000000000000000 DUP2 MSTORE PUSH1 0x4 ADD PUSH2 0xE2E SWAP1 PUSH2 0x22DE JUMP JUMPDEST PUSH1 0x40 MLOAD DUP1 SWAP2 SUB SWAP1 REVERT JUMPDEST PUSH0 PUSH1 0x3 DUP1 SLOAD SWAP1 POP PUSH8 0xFFFFFFFFFFFFFFFF DUP2 GT ISZERO PUSH2 0xE57 JUMPI PUSH2 0xE56 PUSH2 0x1FCD JUMP JUMPDEST JUMPDEST PUSH1 0x40 MLOAD SWAP1 DUP1 DUP3 MSTORE DUP1 PUSH1 0x20 MUL PUSH1 0x20 ADD DUP3 ADD PUSH1 0x40 MSTORE DUP1 ISZERO PUSH2 0xE90 JUMPI DUP2 PUSH1 0x20 ADD JUMPDEST PUSH2 0xE7D PUSH2 0x1B26 JUMP JUMPDEST DUP2 MSTORE PUSH1 0x20 ADD SWAP1 PUSH1 0x1 SWAP1 SUB SWAP1 DUP2 PUSH2 0xE75 JUMPI SWAP1 POP JUMPDEST POP SWAP1 POP PUSH0 DUP1 JUMPDEST PUSH1 0x3 DUP1 SLOAD SWAP1 POP DUP2 LT ISZERO PUSH2 0x10A4 JUMPI DUP5 PUSH20 0xFFFFFFFFFFFFFFFFFFFFFFFFFFFFFFFFFFFFFFFF AND PUSH1 0x3 DUP3 DUP2 SLOAD DUP2 LT PUSH2 0xECE JUMPI PUSH2 0xECD PUSH2 0x22FC JUMP JUMPDEST JUMPDEST SWAP1 PUSH0 MSTORE PUSH1 0x20 PUSH0 KECCAK256 SWAP1 PUSH1 0x4 MUL ADD PUSH0 ADD PUSH0 SWAP1 SLOAD SWAP1 PUSH2 0x100 EXP SWAP1 DIV PUSH20 0xFFFFFFFFFFFFFFFFFFFFFFFFFFFFFFFFFFFFFFFF AND PUSH20 0xFFFFFFFFFFFFFFFFFFFFFFFFFFFFFFFFFFFFFFFF AND SUB PUSH2 0x1097 JUMPI PUSH1 0x3 DUP2 DUP2 SLOAD DUP2 LT PUSH2 0xF2B JUMPI PUSH2 0xF2A PUSH2 0x22FC JUMP JUMPDEST JUMPDEST SWAP1 PUSH0 MSTORE PUSH1 0x20 PUSH0 KECCAK256 SWAP1 PUSH1 0x4 MUL ADD PUSH1 0x40 MLOAD DUP1 PUSH1 0x80 ADD PUSH1 0x40 MSTORE SWAP1 DUP2 PUSH0 DUP3 ADD PUSH0 SWAP1 SLOAD SWAP1 PUSH2 0x100 EXP SWAP1 DIV PUSH20 0xFFFFFFFFFFFFFFFFFFFFFFFFFFFFFFFFFFFFFFFF AND PUSH20 0xFFFFFFFFFFFFFFFFFFFFFFFFFFFFFFFFFFFFFFFF AND PUSH20 0xFFFFFFFFFFFFFFFFFFFFFFFFFFFFFFFFFFFFFFFF AND DUP2 MSTORE PUSH1 0x20 ADD PUSH1 0x1 DUP3 ADD DUP1 SLOAD PUSH2 0xFA6 SWAP1 PUSH2 0x222E JUMP JUMPDEST DUP1 PUSH1 0x1F ADD PUSH1 0x20 DUP1 SWAP2 DIV MUL PUSH1 0x20 ADD PUSH1 0x40 MLOAD SWAP1 DUP2 ADD PUSH1 0x40 MSTORE DUP1 SWAP3 SWAP2 SWAP1 DUP2 DUP2 MSTORE PUSH1 0x20 ADD DUP3 DUP1 SLOAD PUSH2 0xFD2 SWAP1 PUSH2 0x222E JUMP JUMPDEST DUP1 ISZERO PUSH2 0x101D JUMPI DUP1 PUSH1 0x1F LT PUSH2 0xFF4 JUMPI PUSH2 0x100 DUP1 DUP4 SLOAD DIV MUL DUP4 MSTORE SWAP2 PUSH1 0x20 ADD SWAP2 PUSH2 0x101D JUMP JUMPDEST DUP3 ADD SWAP2 SWAP1 PUSH0 MSTORE PUSH1 0x20 PUSH0 KECCAK256 SWAP1 JUMPDEST DUP2 SLOAD DUP2 MSTORE SWAP1 PUSH1 0x1 ADD SWAP1 PUSH1 0x20 ADD DUP1 DUP4 GT PUSH2 0x1000 JUMPI DUP3 SWAP1 SUB PUSH1 0x1F AND DUP3 ADD SWAP2 JUMPDEST POP POP POP POP POP DUP2 MSTORE PUSH1 0x20 ADD PUSH1 0x2 DUP3 ADD SLOAD DUP2 MSTORE PUSH1 0x20 ADD PUSH1 0x3 DUP3 ADD PUSH0 SWAP1 SLOAD SWAP1 PUSH2 0x100 EXP SWAP1 DIV PUSH1 0xFF AND PUSH1 0x1 DUP2 GT ISZERO PUSH2 0x1054 JUMPI PUSH2 0x1053 PUSH2 0x1E40 JUMP JUMPDEST JUMPDEST PUSH1 0x1 DUP2 GT ISZERO PUSH2 0x1066 JUMPI PUSH2 0x1065 PUSH2 0x1E40 JUMP JUMPDEST JUMPDEST DUP2 MSTORE POP POP DUP4 DUP4 DUP2 MLOAD DUP2 LT PUSH2 0x107D JUMPI PUSH2 0x107C PUSH2 0x22FC JUMP JUMPDEST JUMPDEST PUSH1 0x20 MUL PUSH1 0x20 ADD ADD DUP2 SWAP1 MSTORE POP DUP2 DUP1 PUSH2 0x1093 SWAP1 PUSH2 0x2356 JUMP JUMPDEST SWAP3 POP POP JUMPDEST DUP1 DUP1 PUSH1 0x1 ADD SWAP2 POP POP PUSH2 0xE96 JUMP JUMPDEST POP PUSH0 DUP2 PUSH8 0xFFFFFFFFFFFFFFFF DUP2 GT ISZERO PUSH2 0x10C0 JUMPI PUSH2 0x10BF PUSH2 0x1FCD JUMP JUMPDEST JUMPDEST PUSH1 0x40 MLOAD SWAP1 DUP1 DUP3 MSTORE DUP1 PUSH1 0x20 MUL PUSH1 0x20 ADD DUP3 ADD PUSH1 0x40 MSTORE DUP1 ISZERO PUSH2 0x10F9 JUMPI DUP2 PUSH1 0x20 ADD JUMPDEST PUSH2 0x10E6 PUSH2 0x1B26 JUMP JUMPDEST DUP2 MSTORE PUSH1 0x20 ADD SWAP1 PUSH1 0x1 SWAP1 SUB SWAP1 DUP2 PUSH2 0x10DE JUMPI SWAP1 POP JUMPDEST POP SWAP1 POP PUSH0 JUMPDEST DUP3 DUP2 LT ISZERO PUSH2 0x114C JUMPI DUP4 DUP2 DUP2 MLOAD DUP2 LT PUSH2 0x1119 JUMPI PUSH2 0x1118 PUSH2 0x22FC JUMP JUMPDEST JUMPDEST PUSH1 0x20 MUL PUSH1 0x20 ADD ADD MLOAD DUP3 DUP3 DUP2 MLOAD DUP2 LT PUSH2 0x1134 JUMPI PUSH2 0x1133 PUSH2 0x22FC JUMP JUMPDEST JUMPDEST PUSH1 0x20 MUL PUSH1 0x20 ADD ADD DUP2 SWAP1 MSTORE POP DUP1 DUP1 PUSH1 0x1 ADD SWAP2 POP POP PUSH2 0x10FE JUMP JUMPDEST POP DUP1 SWAP4 POP POP POP POP SWAP2 SWAP1 POP JUMP JUMPDEST PUSH1 0x60 PUSH0 DUP1 SLOAD SWAP1 PUSH2 0x100 EXP SWAP1 DIV PUSH20 0xFFFFFFFFFFFFFFFFFFFFFFFFFFFFFFFFFFFFFFFF AND PUSH20 0xFFFFFFFFFFFFFFFFFFFFFFFFFFFFFFFFFFFFFFFF AND CALLER PUSH20 0xFFFFFFFFFFFFFFFFFFFFFFFFFFFFFFFFFFFFFFFF AND EQ PUSH2 0x11E7 JUMPI PUSH1 0x40 MLOAD PUSH32 0x8C379A000000000000000000000000000000000000000000000000000000000 DUP2 MSTORE PUSH1 0x4 ADD PUSH2 0x11DE SWAP1 PUSH2 0x22DE JUMP JUMPDEST PUSH1 0x40 MLOAD DUP1 SWAP2 SUB SWAP1 REVERT JUMPDEST PUSH0 PUSH1 0x3 DUP1 SLOAD SWAP1 POP PUSH8 0xFFFFFFFFFFFFFFFF DUP2 GT ISZERO PUSH2 0x1207 JUMPI PUSH2 0x1206 PUSH2 0x1FCD JUMP JUMPDEST JUMPDEST PUSH1 0x40 MLOAD SWAP1 DUP1 DUP3 MSTORE DUP1 PUSH1 0x20 MUL PUSH1 0x20 ADD DUP3 ADD PUSH1 0x40 MSTORE DUP1 ISZERO PUSH2 0x1240 JUMPI DUP2 PUSH1 0x20 ADD JUMPDEST PUSH2 0x122D PUSH2 0x1B26 JUMP JUMPDEST DUP2 MSTORE PUSH1 0x20 ADD SWAP1 PUSH1 0x1 SWAP1 SUB SWAP1 DUP2 PUSH2 0x1225 JUMPI SWAP1 POP JUMPDEST POP SWAP1 POP PUSH0 DUP1 JUMPDEST PUSH1 0x3 DUP1 SLOAD SWAP1 POP DUP2 LT ISZERO PUSH2 0x14B3 JUMPI DUP5 PUSH20 0xFFFFFFFFFFFFFFFFFFFFFFFFFFFFFFFFFFFFFFFF AND PUSH1 0x3 DUP3 DUP2 SLOAD DUP2 LT PUSH2 0x127E JUMPI PUSH2 0x127D PUSH2 0x22FC JUMP JUMPDEST JUMPDEST SWAP1 PUSH0 MSTORE PUSH1 0x20 PUSH0 KECCAK256 SWAP1 PUSH1 0x4 MUL ADD PUSH0 ADD PUSH0 SWAP1 SLOAD SWAP1 PUSH2 0x100 EXP SWAP1 DIV PUSH20 0xFFFFFFFFFFFFFFFFFFFFFFFFFFFFFFFFFFFFFFFF AND PUSH20 0xFFFFFFFFFFFFFFFFFFFFFFFFFFFFFFFFFFFFFFFF AND EQ DUP1 ISZERO PUSH2 0x1321 JUMPI POP PUSH1 0x1 DUP1 DUP2 GT ISZERO PUSH2 0x12DD JUMPI PUSH2 0x12DC PUSH2 0x1E40 JUMP JUMPDEST JUMPDEST PUSH1 0x3 DUP3 DUP2 SLOAD DUP2 LT PUSH2 0x12F1 JUMPI PUSH2 0x12F0 PUSH2 0x22FC JUMP JUMPDEST JUMPDEST SWAP1 PUSH0 MSTORE PUSH1 0x20 PUSH0 KECCAK256 SWAP1 PUSH1 0x4 MUL ADD PUSH1 0x3 ADD PUSH0 SWAP1 SLOAD SWAP1 PUSH2 0x100 EXP SWAP1 DIV PUSH1 0xFF AND PUSH1 0x1 DUP2 GT ISZERO PUSH2 0x131F JUMPI PUSH2 0x131E PUSH2 0x1E40 JUMP JUMPDEST JUMPDEST EQ JUMPDEST ISZERO PUSH2 0x14A6 JUMPI PUSH1 0x3 DUP2 DUP2 SLOAD DUP2 LT PUSH2 0x133A JUMPI PUSH2 0x1339 PUSH2 0x22FC JUMP JUMPDEST JUMPDEST SWAP1 PUSH0 MSTORE PUSH1 0x20 PUSH0 KECCAK256 SWAP1 PUSH1 0x4 MUL ADD PUSH1 0x40 MLOAD DUP1 PUSH1 0x80 ADD PUSH1 0x40 MSTORE SWAP1 DUP2 PUSH0 DUP3 ADD PUSH0 SWAP1 SLOAD SWAP1 PUSH2 0x100 EXP SWAP1 DIV PUSH20 0xFFFFFFFFFFFFFFFFFFFFFFFFFFFFFFFFFFFFFFFF AND PUSH20 0xFFFFFFFFFFFFFFFFFFFFFFFFFFFFFFFFFFFFFFFF AND PUSH20 0xFFFFFFFFFFFFFFFFFFFFFFFFFFFFFFFFFFFFFFFF AND DUP2 MSTORE PUSH1 0x20 ADD PUSH1 0x1 DUP3 ADD DUP1 SLOAD PUSH2 0x13B5 SWAP1 PUSH2 0x222E JUMP JUMPDEST DUP1 PUSH1 0x1F ADD PUSH1 0x20 DUP1 SWAP2 DIV MUL PUSH1 0x20 ADD PUSH1 0x40 MLOAD SWAP1 DUP2 ADD PUSH1 0x40 MSTORE DUP1 SWAP3 SWAP2 SWAP1 DUP2 DUP2 MSTORE PUSH1 0x20 ADD DUP3 DUP1 SLOAD PUSH2 0x13E1 SWAP1 PUSH2 0x222E JUMP JUMPDEST DUP1 ISZERO PUSH2 0x142C JUMPI DUP1 PUSH1 0x1F LT PUSH2 0x1403 JUMPI PUSH2 0x100 DUP1 DUP4 SLOAD DIV MUL DUP4 MSTORE SWAP2 PUSH1 0x20 ADD SWAP2 PUSH2 0x142C JUMP JUMPDEST DUP3 ADD SWAP2 SWAP1 PUSH0 MSTORE PUSH1 0x20 PUSH0 KECCAK256 SWAP1 JUMPDEST DUP2 SLOAD DUP2 MSTORE SWAP1 PUSH1 0x1 ADD SWAP1 PUSH1 0x20 ADD DUP1 DUP4 GT PUSH2 0x140F JUMPI DUP3 SWAP1 SUB PUSH1 0x1F AND DUP3 ADD SWAP2 JUMPDEST POP POP POP POP POP DUP2 MSTORE PUSH1 0x20 ADD PUSH1 0x2 DUP3 ADD SLOAD DUP2 MSTORE PUSH1 0x20 ADD PUSH1 0x3 DUP3 ADD PUSH0 SWAP1 SLOAD SWAP1 PUSH2 0x100 EXP SWAP1 DIV PUSH1 0xFF AND PUSH1 0x1 DUP2 GT ISZERO PUSH2 0x1463 JUMPI PUSH2 0x1462 PUSH2 0x1E40 JUMP JUMPDEST JUMPDEST PUSH1 0x1 DUP2 GT ISZERO PUSH2 0x1475 JUMPI PUSH2 0x1474 PUSH2 0x1E40 JUMP JUMPDEST JUMPDEST DUP2 MSTORE POP POP DUP4 DUP4 DUP2 MLOAD DUP2 LT PUSH2 0x148C JUMPI PUSH2 0x148B PUSH2 0x22FC JUMP JUMPDEST JUMPDEST PUSH1 0x20 MUL PUSH1 0x20 ADD ADD DUP2 SWAP1 MSTORE POP DUP2 DUP1 PUSH2 0x14A2 SWAP1 PUSH2 0x2356 JUMP JUMPDEST SWAP3 POP POP JUMPDEST DUP1 DUP1 PUSH1 0x1 ADD SWAP2 POP POP PUSH2 0x1246 JUMP JUMPDEST POP PUSH0 DUP2 PUSH8 0xFFFFFFFFFFFFFFFF DUP2 GT ISZERO PUSH2 0x14CF JUMPI PUSH2 0x14CE PUSH2 0x1FCD JUMP JUMPDEST JUMPDEST PUSH1 0x40 MLOAD SWAP1 DUP1 DUP3 MSTORE DUP1 PUSH1 0x20 MUL PUSH1 0x20 ADD DUP3 ADD PUSH1 0x40 MSTORE DUP1 ISZERO PUSH2 0x1508 JUMPI DUP2 PUSH1 0x20 ADD JUMPDEST PUSH2 0x14F5 PUSH2 0x1B26 JUMP JUMPDEST DUP2 MSTORE PUSH1 0x20 ADD SWAP1 PUSH1 0x1 SWAP1 SUB SWAP1 DUP2 PUSH2 0x14ED JUMPI SWAP1 POP JUMPDEST POP SWAP1 POP PUSH0 JUMPDEST DUP3 DUP2 LT ISZERO PUSH2 0x155B JUMPI DUP4 DUP2 DUP2 MLOAD DUP2 LT PUSH2 0x1528 JUMPI PUSH2 0x1527 PUSH2 0x22FC JUMP JUMPDEST JUMPDEST PUSH1 0x20 MUL PUSH1 0x20 ADD ADD MLOAD DUP3 DUP3 DUP2 MLOAD DUP2 LT PUSH2 0x1543 JUMPI PUSH2 0x1542 PUSH2 0x22FC JUMP JUMPDEST JUMPDEST PUSH1 0x20 MUL PUSH1 0x20 ADD ADD DUP2 SWAP1 MSTORE POP DUP1 DUP1 PUSH1 0x1 ADD SWAP2 POP POP PUSH2 0x150D JUMP JUMPDEST POP DUP1 SWAP4 POP POP POP POP SWAP2 SWAP1 POP JUMP JUMPDEST PUSH0 DUP1 SLOAD SWAP1 PUSH2 0x100 EXP SWAP1 DIV PUSH20 0xFFFFFFFFFFFFFFFFFFFFFFFFFFFFFFFFFFFFFFFF AND PUSH20 0xFFFFFFFFFFFFFFFFFFFFFFFFFFFFFFFFFFFFFFFF AND CALLER PUSH20 0xFFFFFFFFFFFFFFFFFFFFFFFFFFFFFFFFFFFFFFFF AND EQ PUSH2 0x15F4 JUMPI PUSH1 0x40 MLOAD PUSH32 0x8C379A000000000000000000000000000000000000000000000000000000000 DUP2 MSTORE PUSH1 0x4 ADD PUSH2 0x15EB SWAP1 PUSH2 0x22DE JUMP JUMPDEST PUSH1 0x40 MLOAD DUP1 SWAP2 SUB SWAP1 REVERT JUMPDEST PUSH0 CALLVALUE GT PUSH2 0x1636 JUMPI PUSH1 0x40 MLOAD PUSH32 0x8C379A000000000000000000000000000000000000000000000000000000000 DUP2 MSTORE PUSH1 0x4 ADD PUSH2 0x162D SWAP1 PUSH2 0x2867 JUMP JUMPDEST PUSH1 0x40 MLOAD DUP1 SWAP2 SUB SWAP1 REVERT JUMPDEST CALLVALUE PUSH1 0x2 PUSH0 CALLER PUSH20 0xFFFFFFFFFFFFFFFFFFFFFFFFFFFFFFFFFFFFFFFF AND PUSH20 0xFFFFFFFFFFFFFFFFFFFFFFFFFFFFFFFFFFFFFFFF AND DUP2 MSTORE PUSH1 0x20 ADD SWAP1 DUP2 MSTORE PUSH1 0x20 ADD PUSH0 KECCAK256 PUSH0 DUP3 DUP3 SLOAD PUSH2 0x1682 SWAP2 SWAP1 PUSH2 0x2885 JUMP JUMPDEST SWAP3 POP POP DUP2 SWAP1 SSTORE POP JUMP JUMPDEST PUSH0 DUP1 SLOAD SWAP1 PUSH2 0x100 EXP SWAP1 DIV PUSH20 0xFFFFFFFFFFFFFFFFFFFFFFFFFFFFFFFFFFFFFFFF AND PUSH20 0xFFFFFFFFFFFFFFFFFFFFFFFFFFFFFFFFFFFFFFFF AND CALLER PUSH20 0xFFFFFFFFFFFFFFFFFFFFFFFFFFFFFFFFFFFFFFFF AND EQ PUSH2 0x1718 JUMPI PUSH1 0x40 MLOAD PUSH32 0x8C379A000000000000000000000000000000000000000000000000000000000 DUP2 MSTORE PUSH1 0x4 ADD PUSH2 0x170F SWAP1 PUSH2 0x22DE JUMP JUMPDEST PUSH1 0x40 MLOAD DUP1 SWAP2 SUB SWAP1 REVERT JUMPDEST PUSH1 0x3 DUP1 SLOAD SWAP1 POP DUP2 LT PUSH2 0x175F JUMPI PUSH1 0x40 MLOAD PUSH32 0x8C379A000000000000000000000000000000000000000000000000000000000 DUP2 MSTORE PUSH1 0x4 ADD PUSH2 0x1756 SWAP1 PUSH2 0x2902 JUMP JUMPDEST PUSH1 0x40 MLOAD DUP1 SWAP2 SUB SWAP1 REVERT JUMPDEST CALLER PUSH20 0xFFFFFFFFFFFFFFFFFFFFFFFFFFFFFFFFFFFFFFFF AND PUSH1 0x3 DUP3 DUP2 SLOAD DUP2 LT PUSH2 0x178A JUMPI PUSH2 0x1789 PUSH2 0x22FC JUMP JUMPDEST JUMPDEST SWAP1 PUSH0 MSTORE PUSH1 0x20 PUSH0 KECCAK256 SWAP1 PUSH1 0x4 MUL ADD PUSH0 ADD PUSH0 SWAP1 SLOAD SWAP1 PUSH2 0x100 EXP SWAP1 DIV PUSH20 0xFFFFFFFFFFFFFFFFFFFFFFFFFFFFFFFFFFFFFFFF AND PUSH20 0xFFFFFFFFFFFFFFFFFFFFFFFFFFFFFFFFFFFFFFFF AND EQ PUSH2 0x180E JUMPI PUSH1 0x40 MLOAD PUSH32 0x8C379A000000000000000000000000000000000000000000000000000000000 DUP2 MSTORE PUSH1 0x4 ADD PUSH2 0x1805 SWAP1 PUSH2 0x296A JUMP JUMPDEST PUSH1 0x40 MLOAD DUP1 SWAP2 SUB SWAP1 REVERT JUMPDEST PUSH0 PUSH1 0x1 DUP2 GT ISZERO PUSH2 0x1821 JUMPI PUSH2 0x1820 PUSH2 0x1E40 JUMP JUMPDEST JUMPDEST PUSH1 0x3 DUP3 DUP2 SLOAD DUP2 LT PUSH2 0x1835 JUMPI PUSH2 0x1834 PUSH2 0x22FC JUMP JUMPDEST JUMPDEST SWAP1 PUSH0 MSTORE PUSH1 0x20 PUSH0 KECCAK256 SWAP1 PUSH1 0x4 MUL ADD PUSH1 0x3 ADD PUSH0 SWAP1 SLOAD SWAP1 PUSH2 0x100 EXP SWAP1 DIV PUSH1 0xFF AND PUSH1 0x1 DUP2 GT ISZERO PUSH2 0x1863 JUMPI PUSH2 0x1862 PUSH2 0x1E40 JUMP JUMPDEST JUMPDEST EQ PUSH2 0x18A3 JUMPI PUSH1 0x40 MLOAD PUSH32 0x8C379A000000000000000000000000000000000000000000000000000000000 DUP2 MSTORE PUSH1 0x4 ADD PUSH2 0x189A SWAP1 PUSH2 0x29D2 JUMP JUMPDEST PUSH1 0x40 MLOAD DUP1 SWAP2 SUB SWAP1 REVERT JUMPDEST PUSH1 0x1 PUSH1 0x3 DUP3 DUP2 SLOAD DUP2 LT PUSH2 0x18B9 JUMPI PUSH2 0x18B8 PUSH2 0x22FC JUMP JUMPDEST JUMPDEST SWAP1 PUSH0 MSTORE PUSH1 0x20 PUSH0 KECCAK256 SWAP1 PUSH1 0x4 MUL ADD PUSH1 0x3 ADD PUSH0 PUSH2 0x100 EXP DUP2 SLOAD DUP2 PUSH1 0xFF MUL NOT AND SWAP1 DUP4 PUSH1 0x1 DUP2 GT ISZERO PUSH2 0x18E9 JUMPI PUSH2 0x18E8 PUSH2 0x1E40 JUMP JUMPDEST JUMPDEST MUL OR SWAP1 SSTORE POP POP JUMP JUMPDEST PUSH2 0x18F9 PUSH2 0x1B73 JUMP JUMPDEST PUSH0 JUMPDEST PUSH1 0x1 DUP1 SLOAD SWAP1 POP DUP2 LT ISZERO PUSH2 0x1AE5 JUMPI DUP3 PUSH1 0x40 MLOAD PUSH1 0x20 ADD PUSH2 0x1919 SWAP2 SWAP1 PUSH2 0x2A2A JUMP JUMPDEST PUSH1 0x40 MLOAD PUSH1 0x20 DUP2 DUP4 SUB SUB DUP2 MSTORE SWAP1 PUSH1 0x40 MSTORE DUP1 MLOAD SWAP1 PUSH1 0x20 ADD KECCAK256 PUSH1 0x1 DUP3 DUP2 SLOAD DUP2 LT PUSH2 0x1943 JUMPI PUSH2 0x1942 PUSH2 0x22FC JUMP JUMPDEST JUMPDEST SWAP1 PUSH0 MSTORE PUSH1 0x20 PUSH0 KECCAK256 SWAP1 PUSH1 0x3 MUL ADD PUSH0 ADD PUSH1 0x40 MLOAD PUSH1 0x20 ADD PUSH2 0x1961 SWAP2 SWAP1 PUSH2 0x2AC0 JUMP JUMPDEST PUSH1 0x40 MLOAD PUSH1 0x20 DUP2 DUP4 SUB SUB DUP2 MSTORE SWAP1 PUSH1 0x40 MSTORE DUP1 MLOAD SWAP1 PUSH1 0x20 ADD KECCAK256 SUB PUSH2 0x1AD8 JUMPI PUSH1 0x1 DUP2 DUP2 SLOAD DUP2 LT PUSH2 0x1990 JUMPI PUSH2 0x198F PUSH2 0x22FC JUMP JUMPDEST JUMPDEST SWAP1 PUSH0 MSTORE PUSH1 0x20 PUSH0 KECCAK256 SWAP1 PUSH1 0x3 MUL ADD PUSH1 0x40 MLOAD DUP1 PUSH1 0x60 ADD PUSH1 0x40 MSTORE SWAP1 DUP2 PUSH0 DUP3 ADD DUP1 SLOAD PUSH2 0x19B6 SWAP1 PUSH2 0x222E JUMP JUMPDEST DUP1 PUSH1 0x1F ADD PUSH1 0x20 DUP1 SWAP2 DIV MUL PUSH1 0x20 ADD PUSH1 0x40 MLOAD SWAP1 DUP2 ADD PUSH1 0x40 MSTORE DUP1 SWAP3 SWAP2 SWAP1 DUP2 DUP2 MSTORE PUSH1 0x20 ADD DUP3 DUP1 SLOAD PUSH2 0x19E2 SWAP1 PUSH2 0x222E JUMP JUMPDEST DUP1 ISZERO PUSH2 0x1A2D JUMPI DUP1 PUSH1 0x1F LT PUSH2 0x1A04 JUMPI PUSH2 0x100 DUP1 DUP4 SLOAD DIV MUL DUP4 MSTORE SWAP2 PUSH1 0x20 ADD SWAP2 PUSH2 0x1A2D JUMP JUMPDEST DUP3 ADD SWAP2 SWAP1 PUSH0 MSTORE PUSH1 0x20 PUSH0 KECCAK256 SWAP1 JUMPDEST DUP2 SLOAD DUP2 MSTORE SWAP1 PUSH1 0x1 ADD SWAP1 PUSH1 0x20 ADD DUP1 DUP4 GT PUSH2 0x1A10 JUMPI DUP3 SWAP1 SUB PUSH1 0x1F AND DUP3 ADD SWAP2 JUMPDEST POP POP POP POP POP DUP2 MSTORE PUSH1 0x20 ADD PUSH1 0x1 DUP3 ADD SLOAD DUP2 MSTORE PUSH1 0x20 ADD PUSH1 0x2 DUP3 ADD DUP1 SLOAD PUSH2 0x1A50 SWAP1 PUSH2 0x222E JUMP JUMPDEST DUP1 PUSH1 0x1F ADD PUSH1 0x20 DUP1 SWAP2 DIV MUL PUSH1 0x20 ADD PUSH1 0x40 MLOAD SWAP1 DUP2 ADD PUSH1 0x40 MSTORE DUP1 SWAP3 SWAP2 SWAP1 DUP2 DUP2 MSTORE PUSH1 0x20 ADD DUP3 DUP1 SLOAD PUSH2 0x1A7C SWAP1 PUSH2 0x222E JUMP JUMPDEST DUP1 ISZERO PUSH2 0x1AC7 JUMPI DUP1 PUSH1 0x1F LT PUSH2 0x1A9E JUMPI PUSH2 0x100 DUP1 DUP4 SLOAD DIV MUL DUP4 MSTORE SWAP2 PUSH1 0x20 ADD SWAP2 PUSH2 0x1AC7 JUMP JUMPDEST DUP3 ADD SWAP2 SWAP1 PUSH0 MSTORE PUSH1 0x20 PUSH0 KECCAK256 SWAP1 JUMPDEST DUP2 SLOAD DUP2 MSTORE SWAP1 PUSH1 0x1 ADD SWAP1 PUSH1 0x20 ADD DUP1 DUP4 GT PUSH2 0x1AAA JUMPI DUP3 SWAP1 SUB PUSH1 0x1F AND DUP3 ADD SWAP2 JUMPDEST POP POP POP POP POP DUP2 MSTORE POP POP SWAP2 POP POP PUSH2 0x1B21 JUMP JUMPDEST DUP1 DUP1 PUSH1 0x1 ADD SWAP2 POP POP PUSH2 0x18FB JUMP JUMPDEST POP PUSH1 0x40 MLOAD PUSH32 0x8C379A000000000000000000000000000000000000000000000000000000000 DUP2 MSTORE PUSH1 0x4 ADD PUSH2 0x1B18 SWAP1 PUSH2 0x2B20 JUMP JUMPDEST PUSH1 0x40 MLOAD DUP1 SWAP2 SUB SWAP1 REVERT JUMPDEST SWAP2 SWAP1 POP JUMP JUMPDEST PUSH1 0x40 MLOAD DUP1 PUSH1 0x80 ADD PUSH1 0x40 MSTORE DUP1 PUSH0 PUSH20 0xFFFFFFFFFFFFFFFFFFFFFFFFFFFFFFFFFFFFFFFF AND DUP2 MSTORE PUSH1 0x20 ADD PUSH1 0x60 DUP2 MSTORE PUSH1 0x20 ADD PUSH0 DUP2 MSTORE PUSH1 0x20 ADD PUSH0 PUSH1 0x1 DUP2 GT ISZERO PUSH2 0x1B6D JUMPI PUSH2 0x1B6C PUSH2 0x1E40 JUMP JUMPDEST JUMPDEST DUP2 MSTORE POP SWAP1 JUMP JUMPDEST PUSH1 0x40 MLOAD DUP1 PUSH1 0x60 ADD PUSH1 0x40 MSTORE DUP1 PUSH1 0x60 DUP2 MSTORE PUSH1 0x20 ADD PUSH0 DUP2 MSTORE PUSH1 0x20 ADD PUSH1 0x60 DUP2 MSTORE POP SWAP1 JUMP JUMPDEST PUSH0 DUP2 MLOAD SWAP1 POP SWAP2 SWAP1 POP JUMP JUMPDEST PUSH0 DUP3 DUP3 MSTORE PUSH1 0x20 DUP3 ADD SWAP1 POP SWAP3 SWAP2 POP POP JUMP JUMPDEST PUSH0 DUP2 SWAP1 POP PUSH1 0x20 DUP3 ADD SWAP1 POP SWAP2 SWAP1 POP JUMP JUMPDEST PUSH0 DUP2 MLOAD SWAP1 POP SWAP2 SWAP1 POP JUMP JUMPDEST PUSH0 DUP3 DUP3 MSTORE PUSH1 0x20 DUP3 ADD SWAP1 POP SWAP3 SWAP2 POP POP JUMP JUMPDEST DUP3 DUP2 DUP4 MCOPY PUSH0 DUP4 DUP4 ADD MSTORE POP POP POP JUMP JUMPDEST PUSH0 PUSH1 0x1F NOT PUSH1 0x1F DUP4 ADD AND SWAP1 POP SWAP2 SWAP1 POP JUMP JUMPDEST PUSH0 PUSH2 0x1BFE DUP3 PUSH2 0x1BBC JUMP JUMPDEST PUSH2 0x1C08 DUP2 DUP6 PUSH2 0x1BC6 JUMP JUMPDEST SWAP4 POP PUSH2 0x1C18 DUP2 DUP6 PUSH1 0x20 DUP7 ADD PUSH2 0x1BD6 JUMP JUMPDEST PUSH2 0x1C21 DUP2 PUSH2 0x1BE4 JUMP JUMPDEST DUP5 ADD SWAP2 POP POP SWAP3 SWAP2 POP POP JUMP JUMPDEST PUSH0 DUP2 SWAP1 POP SWAP2 SWAP1 POP JUMP JUMPDEST PUSH2 0x1C3E DUP2 PUSH2 0x1C2C JUMP JUMPDEST DUP3 MSTORE POP POP JUMP JUMPDEST PUSH0 PUSH1 0x60 DUP4 ADD PUSH0 DUP4 ADD MLOAD DUP5 DUP3 SUB PUSH0 DUP7 ADD MSTORE PUSH2 0x1C5E DUP3 DUP3 PUSH2 0x1BF4 JUMP JUMPDEST SWAP2 POP POP PUSH1 0x20 DUP4 ADD MLOAD PUSH2 0x1C73 PUSH1 0x20 DUP7 ADD DUP3 PUSH2 0x1C35 JUMP JUMPDEST POP PUSH1 0x40 DUP4 ADD MLOAD DUP5 DUP3 SUB PUSH1 0x40 DUP7 ADD MSTORE PUSH2 0x1C8B DUP3 DUP3 PUSH2 0x1BF4 JUMP JUMPDEST SWAP2 POP POP DUP1 SWAP2 POP POP SWAP3 SWAP2 POP POP JUMP JUMPDEST PUSH0 PUSH2 0x1CA3 DUP4 DUP4 PUSH2 0x1C44 JUMP JUMPDEST SWAP1 POP SWAP3 SWAP2 POP POP JUMP JUMPDEST PUSH0 PUSH1 0x20 DUP3 ADD SWAP1 POP SWAP2 SWAP1 POP JUMP JUMPDEST PUSH0 PUSH2 0x1CC1 DUP3 PUSH2 0x1B93 JUMP JUMPDEST PUSH2 0x1CCB DUP2 DUP6 PUSH2 0x1B9D JUMP JUMPDEST SWAP4 POP DUP4 PUSH1 0x20 DUP3 MUL DUP6 ADD PUSH2 0x1CDD DUP6 PUSH2 0x1BAD JUMP JUMPDEST DUP1 PUSH0 JUMPDEST DUP6 DUP2 LT ISZERO PUSH2 0x1D18 JUMPI DUP5 DUP5 SUB DUP10 MSTORE DUP2 MLOAD PUSH2 0x1CF9 DUP6 DUP3 PUSH2 0x1C98 JUMP JUMPDEST SWAP5 POP PUSH2 0x1D04 DUP4 PUSH2 0x1CAB JUMP JUMPDEST SWAP3 POP PUSH1 0x20 DUP11 ADD SWAP10 POP POP PUSH1 0x1 DUP2 ADD SWAP1 POP PUSH2 0x1CE0 JUMP JUMPDEST POP DUP3 SWAP8 POP DUP8 SWAP6 POP POP POP POP POP POP SWAP3 SWAP2 POP POP JUMP JUMPDEST PUSH0 PUSH1 0x20 DUP3 ADD SWAP1 POP DUP2 DUP2 SUB PUSH0 DUP4 ADD MSTORE PUSH2 0x1D42 DUP2 DUP5 PUSH2 0x1CB7 JUMP JUMPDEST SWAP1 POP SWAP3 SWAP2 POP POP JUMP JUMPDEST PUSH2 0x1D53 DUP2 PUSH2 0x1C2C JUMP JUMPDEST DUP3 MSTORE POP POP JUMP JUMPDEST PUSH0 PUSH1 0x20 DUP3 ADD SWAP1 POP PUSH2 0x1D6C PUSH0 DUP4 ADD DUP5 PUSH2 0x1D4A JUMP JUMPDEST SWAP3 SWAP2 POP POP JUMP JUMPDEST PUSH0 PUSH1 0x40 MLOAD SWAP1 POP SWAP1 JUMP JUMPDEST PUSH0 DUP1 REVERT JUMPDEST PUSH0 DUP1 REVERT JUMPDEST PUSH0 PUSH20 0xFFFFFFFFFFFFFFFFFFFFFFFFFFFFFFFFFFFFFFFF DUP3 AND SWAP1 POP SWAP2 SWAP1 POP JUMP JUMPDEST PUSH0 PUSH2 0x1DAC DUP3 PUSH2 0x1D83 JUMP JUMPDEST SWAP1 POP SWAP2 SWAP1 POP JUMP JUMPDEST PUSH2 0x1DBC DUP2 PUSH2 0x1DA2 JUMP JUMPDEST DUP2 EQ PUSH2 0x1DC6 JUMPI PUSH0 DUP1 REVERT JUMPDEST POP JUMP JUMPDEST PUSH0 DUP2 CALLDATALOAD SWAP1 POP PUSH2 0x1DD7 DUP2 PUSH2 0x1DB3 JUMP JUMPDEST SWAP3 SWAP2 POP POP JUMP JUMPDEST PUSH0 PUSH1 0x20 DUP3 DUP5 SUB SLT ISZERO PUSH2 0x1DF2 JUMPI PUSH2 0x1DF1 PUSH2 0x1D7B JUMP JUMPDEST JUMPDEST PUSH0 PUSH2 0x1DFF DUP5 DUP3 DUP6 ADD PUSH2 0x1DC9 JUMP JUMPDEST SWAP2 POP POP SWAP3 SWAP2 POP POP JUMP JUMPDEST PUSH0 DUP2 MLOAD SWAP1 POP SWAP2 SWAP1 POP JUMP JUMPDEST PUSH0 DUP3 DUP3 MSTORE PUSH1 0x20 DUP3 ADD SWAP1 POP SWAP3 SWAP2 POP POP JUMP JUMPDEST PUSH0 DUP2 SWAP1 POP PUSH1 0x20 DUP3 ADD SWAP1 POP SWAP2 SWAP1 POP JUMP JUMPDEST PUSH2 0x1E3A DUP2 PUSH2 0x1DA2 JUMP JUMPDEST DUP3 MSTORE POP POP JUMP JUMPDEST PUSH32 0x4E487B7100000000000000000000000000000000000000000000000000000000 PUSH0 MSTORE PUSH1 0x21 PUSH1 0x4 MSTORE PUSH1 0x24 PUSH0 REVERT JUMPDEST PUSH1 0x2 DUP2 LT PUSH2 0x1E7E JUMPI PUSH2 0x1E7D PUSH2 0x1E40 JUMP JUMPDEST JUMPDEST POP JUMP JUMPDEST PUSH0 DUP2 SWAP1 POP PUSH2 0x1E8E DUP3 PUSH2 0x1E6D JUMP JUMPDEST SWAP2 SWAP1 POP JUMP JUMPDEST PUSH0 PUSH2 0x1E9D DUP3 PUSH2 0x1E81 JUMP JUMPDEST SWAP1 POP SWAP2 SWAP1 POP JUMP JUMPDEST PUSH2 0x1EAD DUP2 PUSH2 0x1E93 JUMP JUMPDEST DUP3 MSTORE POP POP JUMP JUMPDEST PUSH0 PUSH1 0x80 DUP4 ADD PUSH0 DUP4 ADD MLOAD PUSH2 0x1EC8 PUSH0 DUP7 ADD DUP3 PUSH2 0x1E31 JUMP JUMPDEST POP PUSH1 0x20 DUP4 ADD MLOAD DUP5 DUP3 SUB PUSH1 0x20 DUP7 ADD MSTORE PUSH2 0x1EE0 DUP3 DUP3 PUSH2 0x1BF4 JUMP JUMPDEST SWAP2 POP POP PUSH1 0x40 DUP4 ADD MLOAD PUSH2 0x1EF5 PUSH1 0x40 DUP7 ADD DUP3 PUSH2 0x1C35 JUMP JUMPDEST POP PUSH1 0x60 DUP4 ADD MLOAD PUSH2 0x1F08 PUSH1 0x60 DUP7 ADD DUP3 PUSH2 0x1EA4 JUMP JUMPDEST POP DUP1 SWAP2 POP POP SWAP3 SWAP2 POP POP JUMP JUMPDEST PUSH0 PUSH2 0x1F1E DUP4 DUP4 PUSH2 0x1EB3 JUMP JUMPDEST SWAP1 POP SWAP3 SWAP2 POP POP JUMP JUMPDEST PUSH0 PUSH1 0x20 DUP3 ADD SWAP1 POP SWAP2 SWAP1 POP JUMP JUMPDEST PUSH0 PUSH2 0x1F3C DUP3 PUSH2 0x1E08 JUMP JUMPDEST PUSH2 0x1F46 DUP2 DUP6 PUSH2 0x1E12 JUMP JUMPDEST SWAP4 POP DUP4 PUSH1 0x20 DUP3 MUL DUP6 ADD PUSH2 0x1F58 DUP6 PUSH2 0x1E22 JUMP JUMPDEST DUP1 PUSH0 JUMPDEST DUP6 DUP2 LT ISZERO PUSH2 0x1F93 JUMPI DUP5 DUP5 SUB DUP10 MSTORE DUP2 MLOAD PUSH2 0x1F74 DUP6 DUP3 PUSH2 0x1F13 JUMP JUMPDEST SWAP5 POP PUSH2 0x1F7F DUP4 PUSH2 0x1F26 JUMP JUMPDEST SWAP3 POP PUSH1 0x20 DUP11 ADD SWAP10 POP POP PUSH1 0x1 DUP2 ADD SWAP1 POP PUSH2 0x1F5B JUMP JUMPDEST POP DUP3 SWAP8 POP DUP8 SWAP6 POP POP POP POP POP POP SWAP3 SWAP2 POP POP JUMP JUMPDEST PUSH0 PUSH1 0x20 DUP3 ADD SWAP1 POP DUP2 DUP2 SUB PUSH0 DUP4 ADD MSTORE PUSH2 0x1FBD DUP2 DUP5 PUSH2 0x1F32 JUMP JUMPDEST SWAP1 POP SWAP3 SWAP2 POP POP JUMP JUMPDEST PUSH0 DUP1 REVERT JUMPDEST PUSH0 DUP1 REVERT JUMPDEST PUSH32 0x4E487B7100000000000000000000000000000000000000000000000000000000 PUSH0 MSTORE PUSH1 0x41 PUSH1 0x4 MSTORE PUSH1 0x24 PUSH0 REVERT JUMPDEST PUSH2 0x2003 DUP3 PUSH2 0x1BE4 JUMP JUMPDEST DUP2 ADD DUP2 DUP2 LT PUSH8 0xFFFFFFFFFFFFFFFF DUP3 GT OR ISZERO PUSH2 0x2022 JUMPI PUSH2 0x2021 PUSH2 0x1FCD JUMP JUMPDEST JUMPDEST DUP1 PUSH1 0x40 MSTORE POP POP POP JUMP JUMPDEST PUSH0 PUSH2 0x2034 PUSH2 0x1D72 JUMP JUMPDEST SWAP1 POP PUSH2 0x2040 DUP3 DUP3 PUSH2 0x1FFA JUMP JUMPDEST SWAP2 SWAP1 POP JUMP JUMPDEST PUSH0 PUSH8 0xFFFFFFFFFFFFFFFF DUP3 GT ISZERO PUSH2 0x205F JUMPI PUSH2 0x205E PUSH2 0x1FCD JUMP JUMPDEST JUMPDEST PUSH2 0x2068 DUP3 PUSH2 0x1BE4 JUMP JUMPDEST SWAP1 POP PUSH1 0x20 DUP2 ADD SWAP1 POP SWAP2 SWAP1 POP JUMP JUMPDEST DUP3 DUP2 DUP4 CALLDATACOPY PUSH0 DUP4 DUP4 ADD MSTORE POP POP POP JUMP JUMPDEST PUSH0 PUSH2 0x2095 PUSH2 0x2090 DUP5 PUSH2 0x2045 JUMP JUMPDEST PUSH2 0x202B JUMP JUMPDEST SWAP1 POP DUP3 DUP2 MSTORE PUSH1 0x20 DUP2 ADD DUP5 DUP5 DUP5 ADD GT ISZERO PUSH2 0x20B1 JUMPI PUSH2 0x20B0 PUSH2 0x1FC9 JUMP JUMPDEST JUMPDEST PUSH2 0x20BC DUP5 DUP3 DUP6 PUSH2 0x2075 JUMP JUMPDEST POP SWAP4 SWAP3 POP POP POP JUMP JUMPDEST PUSH0 DUP3 PUSH1 0x1F DUP4 ADD SLT PUSH2 0x20D8 JUMPI PUSH2 0x20D7 PUSH2 0x1FC5 JUMP JUMPDEST JUMPDEST DUP2 CALLDATALOAD PUSH2 0x20E8 DUP5 DUP3 PUSH1 0x20 DUP7 ADD PUSH2 0x2083 JUMP JUMPDEST SWAP2 POP POP SWAP3 SWAP2 POP POP JUMP JUMPDEST PUSH0 PUSH1 0x20 DUP3 DUP5 SUB SLT ISZERO PUSH2 0x2106 JUMPI PUSH2 0x2105 PUSH2 0x1D7B JUMP JUMPDEST JUMPDEST PUSH0 DUP3 ADD CALLDATALOAD PUSH8 0xFFFFFFFFFFFFFFFF DUP2 GT ISZERO PUSH2 0x2123 JUMPI PUSH2 0x2122 PUSH2 0x1D7F JUMP JUMPDEST JUMPDEST PUSH2 0x212F DUP5 DUP3 DUP6 ADD PUSH2 0x20C4 JUMP JUMPDEST SWAP2 POP POP SWAP3 SWAP2 POP POP JUMP JUMPDEST PUSH2 0x2141 DUP2 PUSH2 0x1C2C JUMP JUMPDEST DUP2 EQ PUSH2 0x214B JUMPI PUSH0 DUP1 REVERT JUMPDEST POP JUMP JUMPDEST PUSH0 DUP2 CALLDATALOAD SWAP1 POP PUSH2 0x215C DUP2 PUSH2 0x2138 JUMP JUMPDEST SWAP3 SWAP2 POP POP JUMP JUMPDEST PUSH0 PUSH1 0x20 DUP3 DUP5 SUB SLT ISZERO PUSH2 0x2177 JUMPI PUSH2 0x2176 PUSH2 0x1D7B JUMP JUMPDEST JUMPDEST PUSH0 PUSH2 0x2184 DUP5 DUP3 DUP6 ADD PUSH2 0x214E JUMP JUMPDEST SWAP2 POP POP SWAP3 SWAP2 POP POP JUMP JUMPDEST PUSH0 PUSH1 0x60 DUP4 ADD PUSH0 DUP4 ADD MLOAD DUP5 DUP3 SUB PUSH0 DUP7 ADD MSTORE PUSH2 0x21A7 DUP3 DUP3 PUSH2 0x1BF4 JUMP JUMPDEST SWAP2 POP POP PUSH1 0x20 DUP4 ADD MLOAD PUSH2 0x21BC PUSH1 0x20 DUP7 ADD DUP3 PUSH2 0x1C35 JUMP JUMPDEST POP PUSH1 0x40 DUP4 ADD MLOAD DUP5 DUP3 SUB PUSH1 0x40 DUP7 ADD MSTORE PUSH2 0x21D4 DUP3 DUP3 PUSH2 0x1BF4 JUMP JUMPDEST SWAP2 POP POP DUP1 SWAP2 POP POP SWAP3 SWAP2 POP POP JUMP JUMPDEST PUSH0 PUSH1 0x20 DUP3 ADD SWAP1 POP DUP2 DUP2 SUB PUSH0 DUP4 ADD MSTORE PUSH2 0x21F9 DUP2 DUP5 PUSH2 0x218D JUMP JUMPDEST SWAP1 POP SWAP3 SWAP2 POP POP JUMP JUMPDEST PUSH32 0x4E487B7100000000000000000000000000000000000000000000000000000000 PUSH0 MSTORE PUSH1 0x22 PUSH1 0x4 MSTORE PUSH1 0x24 PUSH0 REVERT JUMPDEST PUSH0 PUSH1 0x2 DUP3 DIV SWAP1 POP PUSH1 0x1 DUP3 AND DUP1 PUSH2 0x2245 JUMPI PUSH1 0x7F DUP3 AND SWAP2 POP JUMPDEST PUSH1 0x20 DUP3 LT DUP2 SUB PUSH2 0x2258 JUMPI PUSH2 0x2257 PUSH2 0x2201 JUMP JUMPDEST JUMPDEST POP SWAP2 SWAP1 POP JUMP JUMPDEST PUSH0 DUP3 DUP3 MSTORE PUSH1 0x20 DUP3 ADD SWAP1 POP SWAP3 SWAP2 POP POP JUMP JUMPDEST PUSH32 0x4F6E6C79206F776E65722063616E2063616C6C20746869732066756E6374696F PUSH0 DUP3 ADD MSTORE PUSH32 0x6E00000000000000000000000000000000000000000000000000000000000000 PUSH1 0x20 DUP3 ADD MSTORE POP JUMP JUMPDEST PUSH0 PUSH2 0x22C8 PUSH1 0x21 DUP4 PUSH2 0x225E JUMP JUMPDEST SWAP2 POP PUSH2 0x22D3 DUP3 PUSH2 0x226E JUMP JUMPDEST PUSH1 0x40 DUP3 ADD SWAP1 POP SWAP2 SWAP1 POP JUMP JUMPDEST PUSH0 PUSH1 0x20 DUP3 ADD SWAP1 POP DUP2 DUP2 SUB PUSH0 DUP4 ADD MSTORE PUSH2 0x22F5 DUP2 PUSH2 0x22BC JUMP JUMPDEST SWAP1 POP SWAP2 SWAP1 POP JUMP JUMPDEST PUSH32 0x4E487B7100000000000000000000000000000000000000000000000000000000 PUSH0 MSTORE PUSH1 0x32 PUSH1 0x4 MSTORE PUSH1 0x24 PUSH0 REVERT JUMPDEST PUSH32 0x4E487B7100000000000000000000000000000000000000000000000000000000 PUSH0 MSTORE PUSH1 0x11 PUSH1 0x4 MSTORE PUSH1 0x24 PUSH0 REVERT JUMPDEST PUSH0 PUSH2 0x2360 DUP3 PUSH2 0x1C2C JUMP JUMPDEST SWAP2 POP PUSH32 0xFFFFFFFFFFFFFFFFFFFFFFFFFFFFFFFFFFFFFFFFFFFFFFFFFFFFFFFFFFFFFFFF DUP3 SUB PUSH2 0x2392 JUMPI PUSH2 0x2391 PUSH2 0x2329 JUMP JUMPDEST JUMPDEST PUSH1 0x1 DUP3 ADD SWAP1 POP SWAP2 SWAP1 POP JUMP JUMPDEST PUSH32 0x496E73756666696369656E742066756E64730000000000000000000000000000 PUSH0 DUP3 ADD MSTORE POP JUMP JUMPDEST PUSH0 PUSH2 0x23D1 PUSH1 0x12 DUP4 PUSH2 0x225E JUMP JUMPDEST SWAP2 POP PUSH2 0x23DC DUP3 PUSH2 0x239D JUMP JUMPDEST PUSH1 0x20 DUP3 ADD SWAP1 POP SWAP2 SWAP1 POP JUMP JUMPDEST PUSH0 PUSH1 0x20 DUP3 ADD SWAP1 POP DUP2 DUP2 SUB PUSH0 DUP4 ADD MSTORE PUSH2 0x23FE DUP2 PUSH2 0x23C5 JUMP JUMPDEST SWAP1 POP SWAP2 SWAP1 POP JUMP JUMPDEST PUSH0 PUSH2 0x240F DUP3 PUSH2 0x1C2C JUMP JUMPDEST SWAP2 POP PUSH2 0x241A DUP4 PUSH2 0x1C2C JUMP JUMPDEST SWAP3 POP DUP3 DUP3 SUB SWAP1 POP DUP2 DUP2 GT ISZERO PUSH2 0x2432 JUMPI PUSH2 0x2431 PUSH2 0x2329 JUMP JUMPDEST JUMPDEST SWAP3 SWAP2 POP POP JUMP JUMPDEST PUSH0 DUP2 SWAP1 POP DUP2 PUSH0 MSTORE PUSH1 0x20 PUSH0 KECCAK256 SWAP1 POP SWAP2 SWAP1 POP JUMP JUMPDEST PUSH0 PUSH1 0x20 PUSH1 0x1F DUP4 ADD DIV SWAP1 POP SWAP2 SWAP1 POP JUMP JUMPDEST PUSH0 DUP3 DUP3 SHL SWAP1 POP SWAP3 SWAP2 POP POP JUMP JUMPDEST PUSH0 PUSH1 0x8 DUP4 MUL PUSH2 0x2494 PUSH32 0xFFFFFFFFFFFFFFFFFFFFFFFFFFFFFFFFFFFFFFFFFFFFFFFFFFFFFFFFFFFFFFFF DUP3 PUSH2 0x2459 JUMP JUMPDEST PUSH2 0x249E DUP7 DUP4 PUSH2 0x2459 JUMP JUMPDEST SWAP6 POP DUP1 NOT DUP5 AND SWAP4 POP DUP1 DUP7 AND DUP5 OR SWAP3 POP POP POP SWAP4 SWAP3 POP POP POP JUMP JUMPDEST PUSH0 DUP2 SWAP1 POP SWAP2 SWAP1 POP JUMP JUMPDEST PUSH0 PUSH2 0x24D9 PUSH2 0x24D4 PUSH2 0x24CF DUP5 PUSH2 0x1C2C JUMP JUMPDEST PUSH2 0x24B6 JUMP JUMPDEST PUSH2 0x1C2C JUMP JUMPDEST SWAP1 POP SWAP2 SWAP1 POP JUMP JUMPDEST PUSH0 DUP2 SWAP1 POP SWAP2 SWAP1 POP JUMP JUMPDEST PUSH2 0x24F2 DUP4 PUSH2 0x24BF JUMP JUMPDEST PUSH2 0x2506 PUSH2 0x24FE DUP3 PUSH2 0x24E0 JUMP JUMPDEST DUP5 DUP5 SLOAD PUSH2 0x2465 JUMP JUMPDEST DUP3 SSTORE POP POP POP POP JUMP JUMPDEST PUSH0 SWAP1 JUMP JUMPDEST PUSH2 0x251A PUSH2 0x250E JUMP JUMPDEST PUSH2 0x2525 DUP2 DUP5 DUP5 PUSH2 0x24E9 JUMP JUMPDEST POP POP POP JUMP JUMPDEST JUMPDEST DUP2 DUP2 LT ISZERO PUSH2 0x2548 JUMPI PUSH2 0x253D PUSH0 DUP3 PUSH2 0x2512 JUMP JUMPDEST PUSH1 0x1 DUP2 ADD SWAP1 POP PUSH2 0x252B JUMP JUMPDEST POP POP JUMP JUMPDEST PUSH1 0x1F DUP3 GT ISZERO PUSH2 0x258D JUMPI PUSH2 0x255E DUP2 PUSH2 0x2438 JUMP JUMPDEST PUSH2 0x2567 DUP5 PUSH2 0x244A JUMP JUMPDEST DUP2 ADD PUSH1 0x20 DUP6 LT ISZERO PUSH2 0x2576 JUMPI DUP2 SWAP1 POP JUMPDEST PUSH2 0x258A PUSH2 0x2582 DUP6 PUSH2 0x244A JUMP JUMPDEST DUP4 ADD DUP3 PUSH2 0x252A JUMP JUMPDEST POP POP JUMPDEST POP POP POP JUMP JUMPDEST PUSH0 DUP3 DUP3 SHR SWAP1 POP SWAP3 SWAP2 POP POP JUMP JUMPDEST PUSH0 PUSH2 0x25AD PUSH0 NOT DUP5 PUSH1 0x8 MUL PUSH2 0x2592 JUMP JUMPDEST NOT DUP1 DUP4 AND SWAP2 POP POP SWAP3 SWAP2 POP POP JUMP JUMPDEST PUSH0 PUSH2 0x25C5 DUP4 DUP4 PUSH2 0x259E JUMP JUMPDEST SWAP2 POP DUP3 PUSH1 0x2 MUL DUP3 OR SWAP1 POP SWAP3 SWAP2 POP POP JUMP JUMPDEST PUSH2 0x25DE DUP3 PUSH2 0x1BBC JUMP JUMPDEST PUSH8 0xFFFFFFFFFFFFFFFF DUP2 GT ISZERO PUSH2 0x25F7 JUMPI PUSH2 0x25F6 PUSH2 0x1FCD JUMP JUMPDEST JUMPDEST PUSH2 0x2601 DUP3 SLOAD PUSH2 0x222E JUMP JUMPDEST PUSH2 0x260C DUP3 DUP3 DUP6 PUSH2 0x254C JUMP JUMPDEST PUSH0 PUSH1 0x20 SWAP1 POP PUSH1 0x1F DUP4 GT PUSH1 0x1 DUP2 EQ PUSH2 0x263D JUMPI PUSH0 DUP5 ISZERO PUSH2 0x262B JUMPI DUP3 DUP8 ADD MLOAD SWAP1 POP JUMPDEST PUSH2 0x2635 DUP6 DUP3 PUSH2 0x25BA JUMP JUMPDEST DUP7 SSTORE POP PUSH2 0x269C JUMP JUMPDEST PUSH1 0x1F NOT DUP5 AND PUSH2 0x264B DUP7 PUSH2 0x2438 JUMP JUMPDEST PUSH0 JUMPDEST DUP3 DUP2 LT ISZERO PUSH2 0x2672 JUMPI DUP5 DUP10 ADD MLOAD DUP3 SSTORE PUSH1 0x1 DUP3 ADD SWAP2 POP PUSH1 0x20 DUP6 ADD SWAP5 POP PUSH1 0x20 DUP2 ADD SWAP1 POP PUSH2 0x264D JUMP JUMPDEST DUP7 DUP4 LT ISZERO PUSH2 0x268F JUMPI DUP5 DUP10 ADD MLOAD PUSH2 0x268B PUSH1 0x1F DUP10 AND DUP3 PUSH2 0x259E JUMP JUMPDEST DUP4 SSTORE POP JUMPDEST PUSH1 0x1 PUSH1 0x2 DUP9 MUL ADD DUP9 SSTORE POP POP POP JUMPDEST POP POP POP POP POP POP JUMP JUMPDEST PUSH32 0x4E6F207265656E7472616E637900000000000000000000000000000000000000 PUSH0 DUP3 ADD MSTORE POP JUMP JUMPDEST PUSH0 PUSH2 0x26D8 PUSH1 0xD DUP4 PUSH2 0x225E JUMP JUMPDEST SWAP2 POP PUSH2 0x26E3 DUP3 PUSH2 0x26A4 JUMP JUMPDEST PUSH1 0x20 DUP3 ADD SWAP1 POP SWAP2 SWAP1 POP JUMP JUMPDEST PUSH0 PUSH1 0x20 DUP3 ADD SWAP1 POP DUP2 DUP2 SUB PUSH0 DUP4 ADD MSTORE PUSH2 0x2705 DUP2 PUSH2 0x26CC JUMP JUMPDEST SWAP1 POP SWAP2 SWAP1 POP JUMP JUMPDEST PUSH32 0x596F7520646F206E6F74206861766520616E792062616C616E63652E00000000 PUSH0 DUP3 ADD MSTORE POP JUMP JUMPDEST PUSH0 PUSH2 0x2740 PUSH1 0x1C DUP4 PUSH2 0x225E JUMP JUMPDEST SWAP2 POP PUSH2 0x274B DUP3 PUSH2 0x270C JUMP JUMPDEST PUSH1 0x20 DUP3 ADD SWAP1 POP SWAP2 SWAP1 POP JUMP JUMPDEST PUSH0 PUSH1 0x20 DUP3 ADD SWAP1 POP DUP2 DUP2 SUB PUSH0 DUP4 ADD MSTORE PUSH2 0x276D DUP2 PUSH2 0x2734 JUMP JUMPDEST SWAP1 POP SWAP2 SWAP1 POP JUMP JUMPDEST PUSH0 DUP2 SWAP1 POP SWAP3 SWAP2 POP POP JUMP JUMPDEST POP JUMP JUMPDEST PUSH0 PUSH2 0x278C PUSH0 DUP4 PUSH2 0x2774 JUMP JUMPDEST SWAP2 POP PUSH2 0x2797 DUP3 PUSH2 0x277E JUMP JUMPDEST PUSH0 DUP3 ADD SWAP1 POP SWAP2 SWAP1 POP JUMP JUMPDEST PUSH0 PUSH2 0x27AB DUP3 PUSH2 0x2781 JUMP JUMPDEST SWAP2 POP DUP2 SWAP1 POP SWAP2 SWAP1 POP JUMP JUMPDEST PUSH32 0x5472616E73666572206661696C65642E00000000000000000000000000000000 PUSH0 DUP3 ADD MSTORE POP JUMP JUMPDEST PUSH0 PUSH2 0x27E9 PUSH1 0x10 DUP4 PUSH2 0x225E JUMP JUMPDEST SWAP2 POP PUSH2 0x27F4 DUP3 PUSH2 0x27B5 JUMP JUMPDEST PUSH1 0x20 DUP3 ADD SWAP1 POP SWAP2 SWAP1 POP JUMP JUMPDEST PUSH0 PUSH1 0x20 DUP3 ADD SWAP1 POP DUP2 DUP2 SUB PUSH0 DUP4 ADD MSTORE PUSH2 0x2816 DUP2 PUSH2 0x27DD JUMP JUMPDEST SWAP1 POP SWAP2 SWAP1 POP JUMP JUMPDEST PUSH32 0x4D697373696E6720726571756972656420616D6F756E74000000000000000000 PUSH0 DUP3 ADD MSTORE POP JUMP JUMPDEST PUSH0 PUSH2 0x2851 PUSH1 0x17 DUP4 PUSH2 0x225E JUMP JUMPDEST SWAP2 POP PUSH2 0x285C DUP3 PUSH2 0x281D JUMP JUMPDEST PUSH1 0x20 DUP3 ADD SWAP1 POP SWAP2 SWAP1 POP JUMP JUMPDEST PUSH0 PUSH1 0x20 DUP3 ADD SWAP1 POP DUP2 DUP2 SUB PUSH0 DUP4 ADD MSTORE PUSH2 0x287E DUP2 PUSH2 0x2845 JUMP JUMPDEST SWAP1 POP SWAP2 SWAP1 POP JUMP JUMPDEST PUSH0 PUSH2 0x288F DUP3 PUSH2 0x1C2C JUMP JUMPDEST SWAP2 POP PUSH2 0x289A DUP4 PUSH2 0x1C2C JUMP JUMPDEST SWAP3 POP DUP3 DUP3 ADD SWAP1 POP DUP1 DUP3 GT ISZERO PUSH2 0x28B2 JUMPI PUSH2 0x28B1 PUSH2 0x2329 JUMP JUMPDEST JUMPDEST SWAP3 SWAP2 POP POP JUMP JUMPDEST PUSH32 0x496E76616C696420707572636861736520696E64657800000000000000000000 PUSH0 DUP3 ADD MSTORE POP JUMP JUMPDEST PUSH0 PUSH2 0x28EC PUSH1 0x16 DUP4 PUSH2 0x225E JUMP JUMPDEST SWAP2 POP PUSH2 0x28F7 DUP3 PUSH2 0x28B8 JUMP JUMPDEST PUSH1 0x20 DUP3 ADD SWAP1 POP SWAP2 SWAP1 POP JUMP JUMPDEST PUSH0 PUSH1 0x20 DUP3 ADD SWAP1 POP DUP2 DUP2 SUB PUSH0 DUP4 ADD MSTORE PUSH2 0x2919 DUP2 PUSH2 0x28E0 JUMP JUMPDEST SWAP1 POP SWAP2 SWAP1 POP JUMP JUMPDEST PUSH32 0x4E6F7420796F7572207075726368617365000000000000000000000000000000 PUSH0 DUP3 ADD MSTORE POP JUMP JUMPDEST PUSH0 PUSH2 0x2954 PUSH1 0x11 DUP4 PUSH2 0x225E JUMP JUMPDEST SWAP2 POP PUSH2 0x295F DUP3 PUSH2 0x2920 JUMP JUMPDEST PUSH1 0x20 DUP3 ADD SWAP1 POP SWAP2 SWAP1 POP JUMP JUMPDEST PUSH0 PUSH1 0x20 DUP3 ADD SWAP1 POP DUP2 DUP2 SUB PUSH0 DUP4 ADD MSTORE PUSH2 0x2981 DUP2 PUSH2 0x2948 JUMP JUMPDEST SWAP1 POP SWAP2 SWAP1 POP JUMP JUMPDEST PUSH32 0x507572636861736520616C726561647920636F6E73756D656400000000000000 PUSH0 DUP3 ADD MSTORE POP JUMP JUMPDEST PUSH0 PUSH2 0x29BC PUSH1 0x19 DUP4 PUSH2 0x225E JUMP JUMPDEST SWAP2 POP PUSH2 0x29C7 DUP3 PUSH2 0x2988 JUMP JUMPDEST PUSH1 0x20 DUP3 ADD SWAP1 POP SWAP2 SWAP1 POP JUMP JUMPDEST PUSH0 PUSH1 0x20 DUP3 ADD SWAP1 POP DUP2 DUP2 SUB PUSH0 DUP4 ADD MSTORE PUSH2 0x29E9 DUP2 PUSH2 0x29B0 JUMP JUMPDEST SWAP1 POP SWAP2 SWAP1 POP JUMP JUMPDEST PUSH0 DUP2 SWAP1 POP SWAP3 SWAP2 POP POP JUMP JUMPDEST PUSH0 PUSH2 0x2A04 DUP3 PUSH2 0x1BBC JUMP JUMPDEST PUSH2 0x2A0E DUP2 DUP6 PUSH2 0x29F0 JUMP JUMPDEST SWAP4 POP PUSH2 0x2A1E DUP2 DUP6 PUSH1 0x20 DUP7 ADD PUSH2 0x1BD6 JUMP JUMPDEST DUP1 DUP5 ADD SWAP2 POP POP SWAP3 SWAP2 POP POP JUMP JUMPDEST PUSH0 PUSH2 0x2A35 DUP3 DUP5 PUSH2 0x29FA JUMP JUMPDEST SWAP2 POP DUP2 SWAP1 POP SWAP3 SWAP2 POP POP JUMP JUMPDEST PUSH0 DUP2 SLOAD PUSH2 0x2A4C DUP2 PUSH2 0x222E JUMP JUMPDEST PUSH2 0x2A56 DUP2 DUP7 PUSH2 0x29F0 JUMP JUMPDEST SWAP5 POP PUSH1 0x1 DUP3 AND PUSH0 DUP2 EQ PUSH2 0x2A70 JUMPI PUSH1 0x1 DUP2 EQ PUSH2 0x2A85 JUMPI PUSH2 0x2AB7 JUMP JUMPDEST PUSH1 0xFF NOT DUP4 AND DUP7 MSTORE DUP2 ISZERO ISZERO DUP3 MUL DUP7 ADD SWAP4 POP PUSH2 0x2AB7 JUMP JUMPDEST PUSH2 0x2A8E DUP6 PUSH2 0x2438 JUMP JUMPDEST PUSH0 JUMPDEST DUP4 DUP2 LT ISZERO PUSH2 0x2AAF JUMPI DUP2 SLOAD DUP2 DUP10 ADD MSTORE PUSH1 0x1 DUP3 ADD SWAP2 POP PUSH1 0x20 DUP2 ADD SWAP1 POP PUSH2 0x2A90 JUMP JUMPDEST DUP4 DUP9 ADD SWAP6 POP POP POP JUMPDEST POP POP POP SWAP3 SWAP2 POP POP JUMP JUMPDEST PUSH0 PUSH2 0x2ACB DUP3 DUP5 PUSH2 0x2A40 JUMP JUMPDEST SWAP2 POP DUP2 SWAP1 POP SWAP3 SWAP2 POP POP JUMP JUMPDEST PUSH32 0x50726F64756374206E6F7420666F756E64000000000000000000000000000000 PUSH0 DUP3 ADD MSTORE POP JUMP JUMPDEST PUSH0 PUSH2 0x2B0A PUSH1 0x11 DUP4 PUSH2 0x225E JUMP JUMPDEST SWAP2 POP PUSH2 0x2B15 DUP3 PUSH2 0x2AD6 JUMP JUMPDEST PUSH1 0x20 DUP3 ADD SWAP1 POP SWAP2 SWAP1 POP JUMP JUMPDEST PUSH0 PUSH1 0x20 DUP3 ADD SWAP1 POP DUP2 DUP2 SUB PUSH0 DUP4 ADD MSTORE PUSH2 0x2B37 DUP2 PUSH2 0x2AFE JUMP JUMPDEST SWAP1 POP SWAP2 SWAP1 POP JUMP INVALID LOG2 PUSH5 0x6970667358 0x22 SLT KECCAK256 0xEE PUSH0 0xEB DUP12 0xC6 MOD 0xDF LOG1 0xC7 0xD9 DUP10 0xCF 0xE2 0xEB JUMP RETURNDATACOPY 0xC0 0x25 0xD2 0xE5 KECCAK256 COINBASE 0xA6 PUSH1 0xC7 0xAD SELFDESTRUCT MSIZE 0xED EQ 0xCB PUSH26 0x64736F6C634300081A0033000000000000000000000000000000 "
				},
				"gasEstimates": {
					"creation": {
						"codeDepositCost": "2224800",
						"executionCost": "infinite",
						"totalCost": "infinite"
					},
					"external": {
						"addFunds()": "infinite",
						"consumePurchase(uint256)": "40012",
						"getAllProducts()": "infinite",
						"getAvailablePurchases(address)": "infinite",
						"getBalance()": "4711",
						"getConsumedPurchases(address)": "infinite",
						"getProductByCode(string)": "infinite",
						"getPurchases(address)": "infinite",
						"purchaseProduct(string)": "infinite",
						"withdraw()": "infinite"
					}
				},
				"methodIdentifiers": {
					"addFunds()": "a26759cb",
					"consumePurchase(uint256)": "b04f3225",
					"getAllProducts()": "02ee3a52",
					"getAvailablePurchases(address)": "121dc3d5",
					"getBalance()": "12065fe0",
					"getConsumedPurchases(address)": "94cf2160",
					"getProductByCode(string)": "cdad28d7",
					"getPurchases(address)": "70cd5a80",
					"purchaseProduct(string)": "19f92926",
					"withdraw()": "3ccfd60b"
				}
			},
			"storageLayout": {
				"storage": [
					{
						"astId": 3,
						"contract": "contracts/VendingMachine.sol:VendingMachine",
						"label": "owner",
						"offset": 0,
						"slot": "0",
						"type": "t_address"
					},
					{
						"astId": 8,
						"contract": "contracts/VendingMachine.sol:VendingMachine",
						"label": "locked",
						"offset": 20,
						"slot": "0",
						"type": "t_bool"
					},
					{
						"astId": 29,
						"contract": "contracts/VendingMachine.sol:VendingMachine",
						"label": "products",
						"offset": 0,
						"slot": "1",
						"type": "t_array(t_struct(Product)15_storage)dyn_storage"
					},
					{
						"astId": 33,
						"contract": "contracts/VendingMachine.sol:VendingMachine",
						"label": "balances",
						"offset": 0,
						"slot": "2",
						"type": "t_mapping(t_address,t_uint256)"
					},
					{
						"astId": 37,
						"contract": "contracts/VendingMachine.sol:VendingMachine",
						"label": "purchases",
						"offset": 0,
						"slot": "3",
						"type": "t_array(t_struct(Purchase)25_storage)dyn_storage"
					}
				],
				"types": {
					"t_address": {
						"encoding": "inplace",
						"label": "address",
						"numberOfBytes": "20"
					},
					"t_array(t_struct(Product)15_storage)dyn_storage": {
						"base": "t_struct(Product)15_storage",
						"encoding": "dynamic_array",
						"label": "struct VendingMachine.Product[]",
						"numberOfBytes": "32"
					},
					"t_array(t_struct(Purchase)25_storage)dyn_storage": {
						"base": "t_struct(Purchase)25_storage",
						"encoding": "dynamic_array",
						"label": "struct VendingMachine.Purchase[]",
						"numberOfBytes": "32"
					},
					"t_bool": {
						"encoding": "inplace",
						"label": "bool",
						"numberOfBytes": "1"
					},
					"t_enum(PurchaseStatus)6": {
						"encoding": "inplace",
						"label": "enum VendingMachine.PurchaseStatus",
						"numberOfBytes": "1"
					},
					"t_mapping(t_address,t_uint256)": {
						"encoding": "mapping",
						"key": "t_address",
						"label": "mapping(address => uint256)",
						"numberOfBytes": "32",
						"value": "t_uint256"
					},
					"t_string_storage": {
						"encoding": "bytes",
						"label": "string",
						"numberOfBytes": "32"
					},
					"t_struct(Product)15_storage": {
						"encoding": "inplace",
						"label": "struct VendingMachine.Product",
						"members": [
							{
								"astId": 10,
								"contract": "contracts/VendingMachine.sol:VendingMachine",
								"label": "code",
								"offset": 0,
								"slot": "0",
								"type": "t_string_storage"
							},
							{
								"astId": 12,
								"contract": "contracts/VendingMachine.sol:VendingMachine",
								"label": "price",
								"offset": 0,
								"slot": "1",
								"type": "t_uint256"
							},
							{
								"astId": 14,
								"contract": "contracts/VendingMachine.sol:VendingMachine",
								"label": "name",
								"offset": 0,
								"slot": "2",
								"type": "t_string_storage"
							}
						],
						"numberOfBytes": "96"
					},
					"t_struct(Purchase)25_storage": {
						"encoding": "inplace",
						"label": "struct VendingMachine.Purchase",
						"members": [
							{
								"astId": 17,
								"contract": "contracts/VendingMachine.sol:VendingMachine",
								"label": "buyer",
								"offset": 0,
								"slot": "0",
								"type": "t_address"
							},
							{
								"astId": 19,
								"contract": "contracts/VendingMachine.sol:VendingMachine",
								"label": "productId",
								"offset": 0,
								"slot": "1",
								"type": "t_string_storage"
							},
							{
								"astId": 21,
								"contract": "contracts/VendingMachine.sol:VendingMachine",
								"label": "timestamp",
								"offset": 0,
								"slot": "2",
								"type": "t_uint256"
							},
							{
								"astId": 24,
								"contract": "contracts/VendingMachine.sol:VendingMachine",
								"label": "status",
								"offset": 0,
								"slot": "3",
								"type": "t_enum(PurchaseStatus)6"
							}
						],
						"numberOfBytes": "128"
					},
					"t_uint256": {
						"encoding": "inplace",
						"label": "uint256",
						"numberOfBytes": "32"
					}
				}
			},
			"userdoc": {
				"kind": "user",
				"methods": {},
				"version": 1
			}
		}
	}
}