{
	"contracts/VendingMachine.sol": {
		"VendingMachine": {
			"abi": [
				{
					"inputs": [],
					"stateMutability": "nonpayable",
					"type": "constructor"
				},
				{
					"anonymous": false,
					"inputs": [
						{
							"indexed": true,
							"internalType": "address",
							"name": "sender",
							"type": "address"
						},
						{
							"indexed": false,
							"internalType": "uint256",
							"name": "amount",
							"type": "uint256"
						}
					],
					"name": "FundsAdded",
					"type": "event"
				},
				{
					"anonymous": false,
					"inputs": [
						{
							"indexed": false,
							"internalType": "string",
							"name": "code",
							"type": "string"
						},
						{
							"indexed": false,
							"internalType": "string",
							"name": "name",
							"type": "string"
						},
						{
							"indexed": false,
							"internalType": "uint256",
							"name": "price",
							"type": "uint256"
						},
						{
							"indexed": false,
							"internalType": "string",
							"name": "imageCID",
							"type": "string"
						}
					],
					"name": "ProductInitialized",
					"type": "event"
				},
				{
					"anonymous": false,
					"inputs": [
						{
							"indexed": true,
							"internalType": "address",
							"name": "buyer",
							"type": "address"
						},
						{
							"indexed": false,
							"internalType": "string",
							"name": "productId",
							"type": "string"
						},
						{
							"indexed": false,
							"internalType": "uint256",
							"name": "price",
							"type": "uint256"
						},
						{
							"indexed": false,
							"internalType": "uint256",
							"name": "timestamp",
							"type": "uint256"
						}
					],
					"name": "ProductPurchased",
					"type": "event"
				},
				{
					"anonymous": false,
					"inputs": [
						{
							"indexed": true,
							"internalType": "address",
							"name": "consumer",
							"type": "address"
						},
						{
							"indexed": false,
							"internalType": "uint256",
							"name": "purchaseIndex",
							"type": "uint256"
						}
					],
					"name": "PurchaseConsumed",
					"type": "event"
				},
				{
					"anonymous": false,
					"inputs": [
						{
							"indexed": true,
							"internalType": "address",
							"name": "attacker",
							"type": "address"
						}
					],
					"name": "ReentrancyAttempt",
					"type": "event"
				},
				{
					"anonymous": false,
					"inputs": [
						{
							"indexed": true,
							"internalType": "address",
							"name": "owner",
							"type": "address"
						},
						{
							"indexed": false,
							"internalType": "uint256",
							"name": "amount",
							"type": "uint256"
						}
					],
					"name": "Withdrawal",
					"type": "event"
				},
				{
					"inputs": [],
					"name": "addFunds",
					"outputs": [],
					"stateMutability": "payable",
					"type": "function"
				},
				{
					"inputs": [
						{
							"internalType": "uint256",
							"name": "_purchaseIndex",
							"type": "uint256"
						}
					],
					"name": "consumePurchase",
					"outputs": [],
					"stateMutability": "nonpayable",
					"type": "function"
				},
				{
					"inputs": [],
					"name": "getAllProducts",
					"outputs": [
						{
							"components": [
								{
									"internalType": "string",
									"name": "code",
									"type": "string"
								},
								{
									"internalType": "uint256",
									"name": "price",
									"type": "uint256"
								},
								{
									"internalType": "string",
									"name": "name",
									"type": "string"
								},
								{
									"internalType": "string",
									"name": "imageCID",
									"type": "string"
								}
							],
							"internalType": "struct ProductLibrary.Product[]",
							"name": "",
							"type": "tuple[]"
						}
					],
					"stateMutability": "view",
					"type": "function"
				},
				{
					"inputs": [
						{
							"internalType": "address",
							"name": "_buyer",
							"type": "address"
						}
					],
					"name": "getAllPurchases",
					"outputs": [
						{
							"components": [
								{
									"internalType": "uint256",
									"name": "id",
									"type": "uint256"
								},
								{
									"internalType": "string",
									"name": "name",
									"type": "string"
								},
								{
									"internalType": "string",
									"name": "image",
									"type": "string"
								},
								{
									"internalType": "uint256",
									"name": "price",
									"type": "uint256"
								},
								{
									"internalType": "uint256",
									"name": "purchaseDate",
									"type": "uint256"
								},
								{
									"internalType": "bool",
									"name": "consumed",
									"type": "bool"
								}
							],
							"internalType": "struct ProductLibrary.PurchaseInfo[]",
							"name": "",
							"type": "tuple[]"
						}
					],
					"stateMutability": "view",
					"type": "function"
				},
				{
					"inputs": [],
					"name": "getBalance",
					"outputs": [
						{
							"internalType": "uint256",
							"name": "",
							"type": "uint256"
						}
					],
					"stateMutability": "view",
					"type": "function"
				},
				{
					"inputs": [],
					"name": "owner",
					"outputs": [
						{
							"internalType": "address",
							"name": "",
							"type": "address"
						}
					],
					"stateMutability": "view",
					"type": "function"
				},
				{
					"inputs": [
						{
							"internalType": "string",
							"name": "_productId",
							"type": "string"
						}
					],
					"name": "purchaseProduct",
					"outputs": [],
					"stateMutability": "nonpayable",
					"type": "function"
				},
				{
					"inputs": [],
					"name": "withdraw",
					"outputs": [],
					"stateMutability": "nonpayable",
					"type": "function"
				}
			],
			"devdoc": {
				"kind": "dev",
				"methods": {},
				"version": 1
			},
			"evm": {
				"assembly": "    /* \"contracts/VendingMachine.sol\":90:6861  contract VendingMachine {... */\n  mstore(0x40, 0x80)\n    /* \"contracts/VendingMachine.sol\":1325:1404  constructor() {... */\n  callvalue\n  dup1\n  iszero\n  tag_1\n  jumpi\n  0x00\n  dup1\n  revert\ntag_1:\n  pop\n    /* \"contracts/VendingMachine.sol\":1357:1367  msg.sender */\n  caller\n    /* \"contracts/VendingMachine.sol\":1349:1354  owner */\n  0x00\n  dup1\n    /* \"contracts/VendingMachine.sol\":1349:1367  owner = msg.sender */\n  0x0100\n  exp\n  dup2\n  sload\n  dup2\n  0xffffffffffffffffffffffffffffffffffffffff\n  mul\n  not\n  and\n  swap1\n  dup4\n  0xffffffffffffffffffffffffffffffffffffffff\n  and\n  mul\n  or\n  swap1\n  sstore\n  pop\n    /* \"contracts/VendingMachine.sol\":1377:1397  initializeProducts() */\n  tag_4\n    /* \"contracts/VendingMachine.sol\":1377:1395  initializeProducts */\n  shl(0x20, tag_5)\n    /* \"contracts/VendingMachine.sol\":1377:1397  initializeProducts() */\n  0x20\n  shr\n  jump\t// in\ntag_4:\n    /* \"contracts/VendingMachine.sol\":90:6861  contract VendingMachine {... */\n  jump(tag_6)\n    /* \"contracts/VendingMachine.sol\":1561:3225  function initializeProducts() private {... */\ntag_5:\n    /* \"contracts/VendingMachine.sol\":1609:1668  _addProduct(\"A1\", 15 * GWEI_MULTIPLIER, \"Lays\", \"lays.png\") */\n  tag_8\n  mload(0x40)\n  dup1\n  0x40\n  add\n  0x40\n  mstore\n  dup1\n  0x02\n  dup2\n  mstore\n  0x20\n  add\n  0x4131000000000000000000000000000000000000000000000000000000000000\n  dup2\n  mstore\n  pop\n    /* \"contracts/VendingMachine.sol\":916:921  10**8 */\n  0x05f5e100\n    /* \"contracts/VendingMachine.sol\":1627:1629  15 */\n  0x0f\n    /* \"contracts/VendingMachine.sol\":1627:1647  15 * GWEI_MULTIPLIER */\n  tag_9\n  swap2\n  swap1\n  tag_10\n  jump\t// in\ntag_9:\n    /* \"contracts/VendingMachine.sol\":1609:1668  _addProduct(\"A1\", 15 * GWEI_MULTIPLIER, \"Lays\", \"lays.png\") */\n  mload(0x40)\n  dup1\n  0x40\n  add\n  0x40\n  mstore\n  dup1\n  0x04\n  dup2\n  mstore\n  0x20\n  add\n  0x4c61797300000000000000000000000000000000000000000000000000000000\n  dup2\n  mstore\n  pop\n  mload(0x40)\n  dup1\n  0x40\n  add\n  0x40\n  mstore\n  dup1\n  0x08\n  dup2\n  mstore\n  0x20\n  add\n  0x6c6179732e706e67000000000000000000000000000000000000000000000000\n  dup2\n  mstore\n  pop\n    /* \"contracts/VendingMachine.sol\":1609:1620  _addProduct */\n  shl(0x20, tag_11)\n    /* \"contracts/VendingMachine.sol\":1609:1668  _addProduct(\"A1\", 15 * GWEI_MULTIPLIER, \"Lays\", \"lays.png\") */\n  0x20\n  shr\n  jump\t// in\ntag_8:\n    /* \"contracts/VendingMachine.sol\":1678:1754  _addProduct(\"A2\", 175 * SMALL_GWEI_MULTIPLIER, \"Coca Cola\", \"coca-cola.png\") */\n  tag_12\n  mload(0x40)\n  dup1\n  0x40\n  add\n  0x40\n  mstore\n  dup1\n  0x02\n  dup2\n  mstore\n  0x20\n  add\n  0x4132000000000000000000000000000000000000000000000000000000000000\n  dup2\n  mstore\n  pop\n    /* \"contracts/VendingMachine.sol\":976:981  10**7 */\n  0x989680\n    /* \"contracts/VendingMachine.sol\":1696:1699  175 */\n  0xaf\n    /* \"contracts/VendingMachine.sol\":1696:1723  175 * SMALL_GWEI_MULTIPLIER */\n  tag_13\n  swap2\n  swap1\n  tag_10\n  jump\t// in\ntag_13:\n    /* \"contracts/VendingMachine.sol\":1678:1754  _addProduct(\"A2\", 175 * SMALL_GWEI_MULTIPLIER, \"Coca Cola\", \"coca-cola.png\") */\n  mload(0x40)\n  dup1\n  0x40\n  add\n  0x40\n  mstore\n  dup1\n  0x09\n  dup2\n  mstore\n  0x20\n  add\n  0x436f636120436f6c610000000000000000000000000000000000000000000000\n  dup2\n  mstore\n  pop\n  mload(0x40)\n  dup1\n  0x40\n  add\n  0x40\n  mstore\n  dup1\n  0x0d\n  dup2\n  mstore\n  0x20\n  add\n  0x636f63612d636f6c612e706e6700000000000000000000000000000000000000\n  dup2\n  mstore\n  pop\n    /* \"contracts/VendingMachine.sol\":1678:1689  _addProduct */\n  shl(0x20, tag_11)\n    /* \"contracts/VendingMachine.sol\":1678:1754  _addProduct(\"A2\", 175 * SMALL_GWEI_MULTIPLIER, \"Coca Cola\", \"coca-cola.png\") */\n  0x20\n  shr\n  jump\t// in\ntag_12:\n    /* \"contracts/VendingMachine.sol\":1764:1831  _addProduct(\"A3\", 15 * GWEI_MULTIPLIER, \"Pringles\", \"pringles.png\") */\n  tag_14\n  mload(0x40)\n  dup1\n  0x40\n  add\n  0x40\n  mstore\n  dup1\n  0x02\n  dup2\n  mstore\n  0x20\n  add\n  0x4133000000000000000000000000000000000000000000000000000000000000\n  dup2\n  mstore\n  pop\n    /* \"contracts/VendingMachine.sol\":916:921  10**8 */\n  0x05f5e100\n    /* \"contracts/VendingMachine.sol\":1782:1784  15 */\n  0x0f\n    /* \"contracts/VendingMachine.sol\":1782:1802  15 * GWEI_MULTIPLIER */\n  tag_15\n  swap2\n  swap1\n  tag_10\n  jump\t// in\ntag_15:\n    /* \"contracts/VendingMachine.sol\":1764:1831  _addProduct(\"A3\", 15 * GWEI_MULTIPLIER, \"Pringles\", \"pringles.png\") */\n  mload(0x40)\n  dup1\n  0x40\n  add\n  0x40\n  mstore\n  dup1\n  0x08\n  dup2\n  mstore\n  0x20\n  add\n  0x5072696e676c6573000000000000000000000000000000000000000000000000\n  dup2\n  mstore\n  pop\n  mload(0x40)\n  dup1\n  0x40\n  add\n  0x40\n  mstore\n  dup1\n  0x0c\n  dup2\n  mstore\n  0x20\n  add\n  0x7072696e676c65732e706e670000000000000000000000000000000000000000\n  dup2\n  mstore\n  pop\n    /* \"contracts/VendingMachine.sol\":1764:1775  _addProduct */\n  shl(0x20, tag_11)\n    /* \"contracts/VendingMachine.sol\":1764:1831  _addProduct(\"A3\", 15 * GWEI_MULTIPLIER, \"Pringles\", \"pringles.png\") */\n  0x20\n  shr\n  jump\t// in\ntag_14:\n    /* \"contracts/VendingMachine.sol\":1841:1909  _addProduct(\"A4\", 175 * SMALL_GWEI_MULTIPLIER, \"Water\", \"water.png\") */\n  tag_16\n  mload(0x40)\n  dup1\n  0x40\n  add\n  0x40\n  mstore\n  dup1\n  0x02\n  dup2\n  mstore\n  0x20\n  add\n  0x4134000000000000000000000000000000000000000000000000000000000000\n  dup2\n  mstore\n  pop\n    /* \"contracts/VendingMachine.sol\":976:981  10**7 */\n  0x989680\n    /* \"contracts/VendingMachine.sol\":1859:1862  175 */\n  0xaf\n    /* \"contracts/VendingMachine.sol\":1859:1886  175 * SMALL_GWEI_MULTIPLIER */\n  tag_17\n  swap2\n  swap1\n  tag_10\n  jump\t// in\ntag_17:\n    /* \"contracts/VendingMachine.sol\":1841:1909  _addProduct(\"A4\", 175 * SMALL_GWEI_MULTIPLIER, \"Water\", \"water.png\") */\n  mload(0x40)\n  dup1\n  0x40\n  add\n  0x40\n  mstore\n  dup1\n  0x05\n  dup2\n  mstore\n  0x20\n  add\n  0x5761746572000000000000000000000000000000000000000000000000000000\n  dup2\n  mstore\n  pop\n  mload(0x40)\n  dup1\n  0x40\n  add\n  0x40\n  mstore\n  dup1\n  0x09\n  dup2\n  mstore\n  0x20\n  add\n  0x77617465722e706e670000000000000000000000000000000000000000000000\n  dup2\n  mstore\n  pop\n    /* \"contracts/VendingMachine.sol\":1841:1852  _addProduct */\n  shl(0x20, tag_11)\n    /* \"contracts/VendingMachine.sol\":1841:1909  _addProduct(\"A4\", 175 * SMALL_GWEI_MULTIPLIER, \"Water\", \"water.png\") */\n  0x20\n  shr\n  jump\t// in\ntag_16:\n    /* \"contracts/VendingMachine.sol\":1919:1990  _addProduct(\"A5\", 15 * GWEI_MULTIPLIER, \"Energy Drink\", \"red-bull.png\") */\n  tag_18\n  mload(0x40)\n  dup1\n  0x40\n  add\n  0x40\n  mstore\n  dup1\n  0x02\n  dup2\n  mstore\n  0x20\n  add\n  0x4135000000000000000000000000000000000000000000000000000000000000\n  dup2\n  mstore\n  pop\n    /* \"contracts/VendingMachine.sol\":916:921  10**8 */\n  0x05f5e100\n    /* \"contracts/VendingMachine.sol\":1937:1939  15 */\n  0x0f\n    /* \"contracts/VendingMachine.sol\":1937:1957  15 * GWEI_MULTIPLIER */\n  tag_19\n  swap2\n  swap1\n  tag_10\n  jump\t// in\ntag_19:\n    /* \"contracts/VendingMachine.sol\":1919:1990  _addProduct(\"A5\", 15 * GWEI_MULTIPLIER, \"Energy Drink\", \"red-bull.png\") */\n  mload(0x40)\n  dup1\n  0x40\n  add\n  0x40\n  mstore\n  dup1\n  0x0c\n  dup2\n  mstore\n  0x20\n  add\n  0x456e65726779204472696e6b0000000000000000000000000000000000000000\n  dup2\n  mstore\n  pop\n  mload(0x40)\n  dup1\n  0x40\n  add\n  0x40\n  mstore\n  dup1\n  0x0c\n  dup2\n  mstore\n  0x20\n  add\n  0x7265642d62756c6c2e706e670000000000000000000000000000000000000000\n  dup2\n  mstore\n  pop\n    /* \"contracts/VendingMachine.sol\":1919:1930  _addProduct */\n  shl(0x20, tag_11)\n    /* \"contracts/VendingMachine.sol\":1919:1990  _addProduct(\"A5\", 15 * GWEI_MULTIPLIER, \"Energy Drink\", \"red-bull.png\") */\n  0x20\n  shr\n  jump\t// in\ntag_18:\n    /* \"contracts/VendingMachine.sol\":2000:2067  _addProduct(\"B1\", 20 * GWEI_MULTIPLIER, \"Sandwich\", \"sandwich.png\") */\n  tag_20\n  mload(0x40)\n  dup1\n  0x40\n  add\n  0x40\n  mstore\n  dup1\n  0x02\n  dup2\n  mstore\n  0x20\n  add\n  0x4231000000000000000000000000000000000000000000000000000000000000\n  dup2\n  mstore\n  pop\n    /* \"contracts/VendingMachine.sol\":916:921  10**8 */\n  0x05f5e100\n    /* \"contracts/VendingMachine.sol\":2018:2020  20 */\n  0x14\n    /* \"contracts/VendingMachine.sol\":2018:2038  20 * GWEI_MULTIPLIER */\n  tag_21\n  swap2\n  swap1\n  tag_10\n  jump\t// in\ntag_21:\n    /* \"contracts/VendingMachine.sol\":2000:2067  _addProduct(\"B1\", 20 * GWEI_MULTIPLIER, \"Sandwich\", \"sandwich.png\") */\n  mload(0x40)\n  dup1\n  0x40\n  add\n  0x40\n  mstore\n  dup1\n  0x08\n  dup2\n  mstore\n  0x20\n  add\n  0x53616e6477696368000000000000000000000000000000000000000000000000\n  dup2\n  mstore\n  pop\n  mload(0x40)\n  dup1\n  0x40\n  add\n  0x40\n  mstore\n  dup1\n  0x0c\n  dup2\n  mstore\n  0x20\n  add\n  0x73616e64776963682e706e670000000000000000000000000000000000000000\n  dup2\n  mstore\n  pop\n    /* \"contracts/VendingMachine.sol\":2000:2011  _addProduct */\n  shl(0x20, tag_11)\n    /* \"contracts/VendingMachine.sol\":2000:2067  _addProduct(\"B1\", 20 * GWEI_MULTIPLIER, \"Sandwich\", \"sandwich.png\") */\n  0x20\n  shr\n  jump\t// in\ntag_20:\n    /* \"contracts/VendingMachine.sol\":2077:2143  _addProduct(\"B2\", 175 * SMALL_GWEI_MULTIPLIER, \"Oreo\", \"oreo.png\") */\n  tag_22\n  mload(0x40)\n  dup1\n  0x40\n  add\n  0x40\n  mstore\n  dup1\n  0x02\n  dup2\n  mstore\n  0x20\n  add\n  0x4232000000000000000000000000000000000000000000000000000000000000\n  dup2\n  mstore\n  pop\n    /* \"contracts/VendingMachine.sol\":976:981  10**7 */\n  0x989680\n    /* \"contracts/VendingMachine.sol\":2095:2098  175 */\n  0xaf\n    /* \"contracts/VendingMachine.sol\":2095:2122  175 * SMALL_GWEI_MULTIPLIER */\n  tag_23\n  swap2\n  swap1\n  tag_10\n  jump\t// in\ntag_23:\n    /* \"contracts/VendingMachine.sol\":2077:2143  _addProduct(\"B2\", 175 * SMALL_GWEI_MULTIPLIER, \"Oreo\", \"oreo.png\") */\n  mload(0x40)\n  dup1\n  0x40\n  add\n  0x40\n  mstore\n  dup1\n  0x04\n  dup2\n  mstore\n  0x20\n  add\n  0x4f72656f00000000000000000000000000000000000000000000000000000000\n  dup2\n  mstore\n  pop\n  mload(0x40)\n  dup1\n  0x40\n  add\n  0x40\n  mstore\n  dup1\n  0x08\n  dup2\n  mstore\n  0x20\n  add\n  0x6f72656f2e706e67000000000000000000000000000000000000000000000000\n  dup2\n  mstore\n  pop\n    /* \"contracts/VendingMachine.sol\":2077:2088  _addProduct */\n  shl(0x20, tag_11)\n    /* \"contracts/VendingMachine.sol\":2077:2143  _addProduct(\"B2\", 175 * SMALL_GWEI_MULTIPLIER, \"Oreo\", \"oreo.png\") */\n  0x20\n  shr\n  jump\t// in\ntag_22:\n    /* \"contracts/VendingMachine.sol\":2153:2216  _addProduct(\"B3\", 15 * GWEI_MULTIPLIER, \"Sprite\", \"sprite.png\") */\n  tag_24\n  mload(0x40)\n  dup1\n  0x40\n  add\n  0x40\n  mstore\n  dup1\n  0x02\n  dup2\n  mstore\n  0x20\n  add\n  0x4233000000000000000000000000000000000000000000000000000000000000\n  dup2\n  mstore\n  pop\n    /* \"contracts/VendingMachine.sol\":916:921  10**8 */\n  0x05f5e100\n    /* \"contracts/VendingMachine.sol\":2171:2173  15 */\n  0x0f\n    /* \"contracts/VendingMachine.sol\":2171:2191  15 * GWEI_MULTIPLIER */\n  tag_25\n  swap2\n  swap1\n  tag_10\n  jump\t// in\ntag_25:\n    /* \"contracts/VendingMachine.sol\":2153:2216  _addProduct(\"B3\", 15 * GWEI_MULTIPLIER, \"Sprite\", \"sprite.png\") */\n  mload(0x40)\n  dup1\n  0x40\n  add\n  0x40\n  mstore\n  dup1\n  0x06\n  dup2\n  mstore\n  0x20\n  add\n  0x5370726974650000000000000000000000000000000000000000000000000000\n  dup2\n  mstore\n  pop\n  mload(0x40)\n  dup1\n  0x40\n  add\n  0x40\n  mstore\n  dup1\n  0x0a\n  dup2\n  mstore\n  0x20\n  add\n  0x7370726974652e706e6700000000000000000000000000000000000000000000\n  dup2\n  mstore\n  pop\n    /* \"contracts/VendingMachine.sol\":2153:2164  _addProduct */\n  shl(0x20, tag_11)\n    /* \"contracts/VendingMachine.sol\":2153:2216  _addProduct(\"B3\", 15 * GWEI_MULTIPLIER, \"Sprite\", \"sprite.png\") */\n  0x20\n  shr\n  jump\t// in\ntag_24:\n    /* \"contracts/VendingMachine.sol\":2226:2306  _addProduct(\"B4\", 175 * SMALL_GWEI_MULTIPLIER, \"Granola Bar\", \"granola-bar.png\") */\n  tag_26\n  mload(0x40)\n  dup1\n  0x40\n  add\n  0x40\n  mstore\n  dup1\n  0x02\n  dup2\n  mstore\n  0x20\n  add\n  0x4234000000000000000000000000000000000000000000000000000000000000\n  dup2\n  mstore\n  pop\n    /* \"contracts/VendingMachine.sol\":976:981  10**7 */\n  0x989680\n    /* \"contracts/VendingMachine.sol\":2244:2247  175 */\n  0xaf\n    /* \"contracts/VendingMachine.sol\":2244:2271  175 * SMALL_GWEI_MULTIPLIER */\n  tag_27\n  swap2\n  swap1\n  tag_10\n  jump\t// in\ntag_27:\n    /* \"contracts/VendingMachine.sol\":2226:2306  _addProduct(\"B4\", 175 * SMALL_GWEI_MULTIPLIER, \"Granola Bar\", \"granola-bar.png\") */\n  mload(0x40)\n  dup1\n  0x40\n  add\n  0x40\n  mstore\n  dup1\n  0x0b\n  dup2\n  mstore\n  0x20\n  add\n  0x4772616e6f6c6120426172000000000000000000000000000000000000000000\n  dup2\n  mstore\n  pop\n  mload(0x40)\n  dup1\n  0x40\n  add\n  0x40\n  mstore\n  dup1\n  0x0f\n  dup2\n  mstore\n  0x20\n  add\n  0x6772616e6f6c612d6261722e706e670000000000000000000000000000000000\n  dup2\n  mstore\n  pop\n    /* \"contracts/VendingMachine.sol\":2226:2237  _addProduct */\n  shl(0x20, tag_11)\n    /* \"contracts/VendingMachine.sol\":2226:2306  _addProduct(\"B4\", 175 * SMALL_GWEI_MULTIPLIER, \"Granola Bar\", \"granola-bar.png\") */\n  0x20\n  shr\n  jump\t// in\ntag_26:\n    /* \"contracts/VendingMachine.sol\":2316:2388  _addProduct(\"B5\", 175 * SMALL_GWEI_MULTIPLIER, \"Doritos\", \"doritos.png\") */\n  tag_28\n  mload(0x40)\n  dup1\n  0x40\n  add\n  0x40\n  mstore\n  dup1\n  0x02\n  dup2\n  mstore\n  0x20\n  add\n  0x4235000000000000000000000000000000000000000000000000000000000000\n  dup2\n  mstore\n  pop\n    /* \"contracts/VendingMachine.sol\":976:981  10**7 */\n  0x989680\n    /* \"contracts/VendingMachine.sol\":2334:2337  175 */\n  0xaf\n    /* \"contracts/VendingMachine.sol\":2334:2361  175 * SMALL_GWEI_MULTIPLIER */\n  tag_29\n  swap2\n  swap1\n  tag_10\n  jump\t// in\ntag_29:\n    /* \"contracts/VendingMachine.sol\":2316:2388  _addProduct(\"B5\", 175 * SMALL_GWEI_MULTIPLIER, \"Doritos\", \"doritos.png\") */\n  mload(0x40)\n  dup1\n  0x40\n  add\n  0x40\n  mstore\n  dup1\n  0x07\n  dup2\n  mstore\n  0x20\n  add\n  0x446f7269746f7300000000000000000000000000000000000000000000000000\n  dup2\n  mstore\n  pop\n  mload(0x40)\n  dup1\n  0x40\n  add\n  0x40\n  mstore\n  dup1\n  0x0b\n  dup2\n  mstore\n  0x20\n  add\n  0x646f7269746f732e706e67000000000000000000000000000000000000000000\n  dup2\n  mstore\n  pop\n    /* \"contracts/VendingMachine.sol\":2316:2327  _addProduct */\n  shl(0x20, tag_11)\n    /* \"contracts/VendingMachine.sol\":2316:2388  _addProduct(\"B5\", 175 * SMALL_GWEI_MULTIPLIER, \"Doritos\", \"doritos.png\") */\n  0x20\n  shr\n  jump\t// in\ntag_28:\n    /* \"contracts/VendingMachine.sol\":2398:2468  _addProduct(\"C1\", 15 * GWEI_MULTIPLIER, \"Snicker Bar\", \"snickers.png\") */\n  tag_30\n  mload(0x40)\n  dup1\n  0x40\n  add\n  0x40\n  mstore\n  dup1\n  0x02\n  dup2\n  mstore\n  0x20\n  add\n  0x4331000000000000000000000000000000000000000000000000000000000000\n  dup2\n  mstore\n  pop\n    /* \"contracts/VendingMachine.sol\":916:921  10**8 */\n  0x05f5e100\n    /* \"contracts/VendingMachine.sol\":2416:2418  15 */\n  0x0f\n    /* \"contracts/VendingMachine.sol\":2416:2436  15 * GWEI_MULTIPLIER */\n  tag_31\n  swap2\n  swap1\n  tag_10\n  jump\t// in\ntag_31:\n    /* \"contracts/VendingMachine.sol\":2398:2468  _addProduct(\"C1\", 15 * GWEI_MULTIPLIER, \"Snicker Bar\", \"snickers.png\") */\n  mload(0x40)\n  dup1\n  0x40\n  add\n  0x40\n  mstore\n  dup1\n  0x0b\n  dup2\n  mstore\n  0x20\n  add\n  0x536e69636b657220426172000000000000000000000000000000000000000000\n  dup2\n  mstore\n  pop\n  mload(0x40)\n  dup1\n  0x40\n  add\n  0x40\n  mstore\n  dup1\n  0x0c\n  dup2\n  mstore\n  0x20\n  add\n  0x736e69636b6572732e706e670000000000000000000000000000000000000000\n  dup2\n  mstore\n  pop\n    /* \"contracts/VendingMachine.sol\":2398:2409  _addProduct */\n  shl(0x20, tag_11)\n    /* \"contracts/VendingMachine.sol\":2398:2468  _addProduct(\"C1\", 15 * GWEI_MULTIPLIER, \"Snicker Bar\", \"snickers.png\") */\n  0x20\n  shr\n  jump\t// in\ntag_30:\n    /* \"contracts/VendingMachine.sol\":2478:2537  _addProduct(\"C2\", 15 * GWEI_MULTIPLIER, \"M&Ms\", \"m&ms.png\") */\n  tag_32\n  mload(0x40)\n  dup1\n  0x40\n  add\n  0x40\n  mstore\n  dup1\n  0x02\n  dup2\n  mstore\n  0x20\n  add\n  0x4332000000000000000000000000000000000000000000000000000000000000\n  dup2\n  mstore\n  pop\n    /* \"contracts/VendingMachine.sol\":916:921  10**8 */\n  0x05f5e100\n    /* \"contracts/VendingMachine.sol\":2496:2498  15 */\n  0x0f\n    /* \"contracts/VendingMachine.sol\":2496:2516  15 * GWEI_MULTIPLIER */\n  tag_33\n  swap2\n  swap1\n  tag_10\n  jump\t// in\ntag_33:\n    /* \"contracts/VendingMachine.sol\":2478:2537  _addProduct(\"C2\", 15 * GWEI_MULTIPLIER, \"M&Ms\", \"m&ms.png\") */\n  mload(0x40)\n  dup1\n  0x40\n  add\n  0x40\n  mstore\n  dup1\n  0x04\n  dup2\n  mstore\n  0x20\n  add\n  0x4d264d7300000000000000000000000000000000000000000000000000000000\n  dup2\n  mstore\n  pop\n  mload(0x40)\n  dup1\n  0x40\n  add\n  0x40\n  mstore\n  dup1\n  0x08\n  dup2\n  mstore\n  0x20\n  add\n  0x6d266d732e706e67000000000000000000000000000000000000000000000000\n  dup2\n  mstore\n  pop\n    /* \"contracts/VendingMachine.sol\":2478:2489  _addProduct */\n  shl(0x20, tag_11)\n    /* \"contracts/VendingMachine.sol\":2478:2537  _addProduct(\"C2\", 15 * GWEI_MULTIPLIER, \"M&Ms\", \"m&ms.png\") */\n  0x20\n  shr\n  jump\t// in\ntag_32:\n    /* \"contracts/VendingMachine.sol\":2547:2629  _addProduct(\"C3\", 125 * SMALL_GWEI_MULTIPLIER, \"Bubble Tap Gum\", \"bubble-tap.png\") */\n  tag_34\n  mload(0x40)\n  dup1\n  0x40\n  add\n  0x40\n  mstore\n  dup1\n  0x02\n  dup2\n  mstore\n  0x20\n  add\n  0x4333000000000000000000000000000000000000000000000000000000000000\n  dup2\n  mstore\n  pop\n    /* \"contracts/VendingMachine.sol\":976:981  10**7 */\n  0x989680\n    /* \"contracts/VendingMachine.sol\":2565:2568  125 */\n  0x7d\n    /* \"contracts/VendingMachine.sol\":2565:2592  125 * SMALL_GWEI_MULTIPLIER */\n  tag_35\n  swap2\n  swap1\n  tag_10\n  jump\t// in\ntag_35:\n    /* \"contracts/VendingMachine.sol\":2547:2629  _addProduct(\"C3\", 125 * SMALL_GWEI_MULTIPLIER, \"Bubble Tap Gum\", \"bubble-tap.png\") */\n  mload(0x40)\n  dup1\n  0x40\n  add\n  0x40\n  mstore\n  dup1\n  0x0e\n  dup2\n  mstore\n  0x20\n  add\n  0x427562626c65205461702047756d000000000000000000000000000000000000\n  dup2\n  mstore\n  pop\n  mload(0x40)\n  dup1\n  0x40\n  add\n  0x40\n  mstore\n  dup1\n  0x0e\n  dup2\n  mstore\n  0x20\n  add\n  0x627562626c652d7461702e706e67000000000000000000000000000000000000\n  dup2\n  mstore\n  pop\n    /* \"contracts/VendingMachine.sol\":2547:2558  _addProduct */\n  shl(0x20, tag_11)\n    /* \"contracts/VendingMachine.sol\":2547:2629  _addProduct(\"C3\", 125 * SMALL_GWEI_MULTIPLIER, \"Bubble Tap Gum\", \"bubble-tap.png\") */\n  0x20\n  shr\n  jump\t// in\ntag_34:\n    /* \"contracts/VendingMachine.sol\":2639:2719  _addProduct(\"C4\", 175 * SMALL_GWEI_MULTIPLIER, \"Fruit Nut Bar\", \"fruit-nut.png\") */\n  tag_36\n  mload(0x40)\n  dup1\n  0x40\n  add\n  0x40\n  mstore\n  dup1\n  0x02\n  dup2\n  mstore\n  0x20\n  add\n  0x4334000000000000000000000000000000000000000000000000000000000000\n  dup2\n  mstore\n  pop\n    /* \"contracts/VendingMachine.sol\":976:981  10**7 */\n  0x989680\n    /* \"contracts/VendingMachine.sol\":2657:2660  175 */\n  0xaf\n    /* \"contracts/VendingMachine.sol\":2657:2684  175 * SMALL_GWEI_MULTIPLIER */\n  tag_37\n  swap2\n  swap1\n  tag_10\n  jump\t// in\ntag_37:\n    /* \"contracts/VendingMachine.sol\":2639:2719  _addProduct(\"C4\", 175 * SMALL_GWEI_MULTIPLIER, \"Fruit Nut Bar\", \"fruit-nut.png\") */\n  mload(0x40)\n  dup1\n  0x40\n  add\n  0x40\n  mstore\n  dup1\n  0x0d\n  dup2\n  mstore\n  0x20\n  add\n  0x4672756974204e75742042617200000000000000000000000000000000000000\n  dup2\n  mstore\n  pop\n  mload(0x40)\n  dup1\n  0x40\n  add\n  0x40\n  mstore\n  dup1\n  0x0d\n  dup2\n  mstore\n  0x20\n  add\n  0x66727569742d6e75742e706e6700000000000000000000000000000000000000\n  dup2\n  mstore\n  pop\n    /* \"contracts/VendingMachine.sol\":2639:2650  _addProduct */\n  shl(0x20, tag_11)\n    /* \"contracts/VendingMachine.sol\":2639:2719  _addProduct(\"C4\", 175 * SMALL_GWEI_MULTIPLIER, \"Fruit Nut Bar\", \"fruit-nut.png\") */\n  0x20\n  shr\n  jump\t// in\ntag_36:\n    /* \"contracts/VendingMachine.sol\":2729:2807  _addProduct(\"C5\", 175 * SMALL_GWEI_MULTIPLIER, \"Beef Jerky\", \"beef-jerky.png\") */\n  tag_38\n  mload(0x40)\n  dup1\n  0x40\n  add\n  0x40\n  mstore\n  dup1\n  0x02\n  dup2\n  mstore\n  0x20\n  add\n  0x4335000000000000000000000000000000000000000000000000000000000000\n  dup2\n  mstore\n  pop\n    /* \"contracts/VendingMachine.sol\":976:981  10**7 */\n  0x989680\n    /* \"contracts/VendingMachine.sol\":2747:2750  175 */\n  0xaf\n    /* \"contracts/VendingMachine.sol\":2747:2774  175 * SMALL_GWEI_MULTIPLIER */\n  tag_39\n  swap2\n  swap1\n  tag_10\n  jump\t// in\ntag_39:\n    /* \"contracts/VendingMachine.sol\":2729:2807  _addProduct(\"C5\", 175 * SMALL_GWEI_MULTIPLIER, \"Beef Jerky\", \"beef-jerky.png\") */\n  mload(0x40)\n  dup1\n  0x40\n  add\n  0x40\n  mstore\n  dup1\n  0x0a\n  dup2\n  mstore\n  0x20\n  add\n  0x42656566204a65726b7900000000000000000000000000000000000000000000\n  dup2\n  mstore\n  pop\n  mload(0x40)\n  dup1\n  0x40\n  add\n  0x40\n  mstore\n  dup1\n  0x0e\n  dup2\n  mstore\n  0x20\n  add\n  0x626565662d6a65726b792e706e67000000000000000000000000000000000000\n  dup2\n  mstore\n  pop\n    /* \"contracts/VendingMachine.sol\":2729:2740  _addProduct */\n  shl(0x20, tag_11)\n    /* \"contracts/VendingMachine.sol\":2729:2807  _addProduct(\"C5\", 175 * SMALL_GWEI_MULTIPLIER, \"Beef Jerky\", \"beef-jerky.png\") */\n  0x20\n  shr\n  jump\t// in\ntag_38:\n    /* \"contracts/VendingMachine.sol\":2817:2895  _addProduct(\"D1\", 125 * SMALL_GWEI_MULTIPLIER, \"KitKat Biscuit\", \"kitkat.png\") */\n  tag_40\n  mload(0x40)\n  dup1\n  0x40\n  add\n  0x40\n  mstore\n  dup1\n  0x02\n  dup2\n  mstore\n  0x20\n  add\n  0x4431000000000000000000000000000000000000000000000000000000000000\n  dup2\n  mstore\n  pop\n    /* \"contracts/VendingMachine.sol\":976:981  10**7 */\n  0x989680\n    /* \"contracts/VendingMachine.sol\":2835:2838  125 */\n  0x7d\n    /* \"contracts/VendingMachine.sol\":2835:2862  125 * SMALL_GWEI_MULTIPLIER */\n  tag_41\n  swap2\n  swap1\n  tag_10\n  jump\t// in\ntag_41:\n    /* \"contracts/VendingMachine.sol\":2817:2895  _addProduct(\"D1\", 125 * SMALL_GWEI_MULTIPLIER, \"KitKat Biscuit\", \"kitkat.png\") */\n  mload(0x40)\n  dup1\n  0x40\n  add\n  0x40\n  mstore\n  dup1\n  0x0e\n  dup2\n  mstore\n  0x20\n  add\n  0x4b69744b61742042697363756974000000000000000000000000000000000000\n  dup2\n  mstore\n  pop\n  mload(0x40)\n  dup1\n  0x40\n  add\n  0x40\n  mstore\n  dup1\n  0x0a\n  dup2\n  mstore\n  0x20\n  add\n  0x6b69746b61742e706e6700000000000000000000000000000000000000000000\n  dup2\n  mstore\n  pop\n    /* \"contracts/VendingMachine.sol\":2817:2828  _addProduct */\n  shl(0x20, tag_11)\n    /* \"contracts/VendingMachine.sol\":2817:2895  _addProduct(\"D1\", 125 * SMALL_GWEI_MULTIPLIER, \"KitKat Biscuit\", \"kitkat.png\") */\n  0x20\n  shr\n  jump\t// in\ntag_40:\n    /* \"contracts/VendingMachine.sol\":2905:2978  _addProduct(\"D2\", 125 * SMALL_GWEI_MULTIPLIER, \"Pop Corn\", \"popcorn.png\") */\n  tag_42\n  mload(0x40)\n  dup1\n  0x40\n  add\n  0x40\n  mstore\n  dup1\n  0x02\n  dup2\n  mstore\n  0x20\n  add\n  0x4432000000000000000000000000000000000000000000000000000000000000\n  dup2\n  mstore\n  pop\n    /* \"contracts/VendingMachine.sol\":976:981  10**7 */\n  0x989680\n    /* \"contracts/VendingMachine.sol\":2923:2926  125 */\n  0x7d\n    /* \"contracts/VendingMachine.sol\":2923:2950  125 * SMALL_GWEI_MULTIPLIER */\n  tag_43\n  swap2\n  swap1\n  tag_10\n  jump\t// in\ntag_43:\n    /* \"contracts/VendingMachine.sol\":2905:2978  _addProduct(\"D2\", 125 * SMALL_GWEI_MULTIPLIER, \"Pop Corn\", \"popcorn.png\") */\n  mload(0x40)\n  dup1\n  0x40\n  add\n  0x40\n  mstore\n  dup1\n  0x08\n  dup2\n  mstore\n  0x20\n  add\n  0x506f7020436f726e000000000000000000000000000000000000000000000000\n  dup2\n  mstore\n  pop\n  mload(0x40)\n  dup1\n  0x40\n  add\n  0x40\n  mstore\n  dup1\n  0x0b\n  dup2\n  mstore\n  0x20\n  add\n  0x706f70636f726e2e706e67000000000000000000000000000000000000000000\n  dup2\n  mstore\n  pop\n    /* \"contracts/VendingMachine.sol\":2905:2916  _addProduct */\n  shl(0x20, tag_11)\n    /* \"contracts/VendingMachine.sol\":2905:2978  _addProduct(\"D2\", 125 * SMALL_GWEI_MULTIPLIER, \"Pop Corn\", \"popcorn.png\") */\n  0x20\n  shr\n  jump\t// in\ntag_42:\n    /* \"contracts/VendingMachine.sol\":2988:3058  _addProduct(\"D3\", 150 * SMALL_GWEI_MULTIPLIER, \"Twix Bar\", \"twix.png\") */\n  tag_44\n  mload(0x40)\n  dup1\n  0x40\n  add\n  0x40\n  mstore\n  dup1\n  0x02\n  dup2\n  mstore\n  0x20\n  add\n  0x4433000000000000000000000000000000000000000000000000000000000000\n  dup2\n  mstore\n  pop\n    /* \"contracts/VendingMachine.sol\":976:981  10**7 */\n  0x989680\n    /* \"contracts/VendingMachine.sol\":3006:3009  150 */\n  0x96\n    /* \"contracts/VendingMachine.sol\":3006:3033  150 * SMALL_GWEI_MULTIPLIER */\n  tag_45\n  swap2\n  swap1\n  tag_10\n  jump\t// in\ntag_45:\n    /* \"contracts/VendingMachine.sol\":2988:3058  _addProduct(\"D3\", 150 * SMALL_GWEI_MULTIPLIER, \"Twix Bar\", \"twix.png\") */\n  mload(0x40)\n  dup1\n  0x40\n  add\n  0x40\n  mstore\n  dup1\n  0x08\n  dup2\n  mstore\n  0x20\n  add\n  0x5477697820426172000000000000000000000000000000000000000000000000\n  dup2\n  mstore\n  pop\n  mload(0x40)\n  dup1\n  0x40\n  add\n  0x40\n  mstore\n  dup1\n  0x08\n  dup2\n  mstore\n  0x20\n  add\n  0x747769782e706e67000000000000000000000000000000000000000000000000\n  dup2\n  mstore\n  pop\n    /* \"contracts/VendingMachine.sol\":2988:2999  _addProduct */\n  shl(0x20, tag_11)\n    /* \"contracts/VendingMachine.sol\":2988:3058  _addProduct(\"D3\", 150 * SMALL_GWEI_MULTIPLIER, \"Twix Bar\", \"twix.png\") */\n  0x20\n  shr\n  jump\t// in\ntag_44:\n    /* \"contracts/VendingMachine.sol\":3068:3136  _addProduct(\"D4\", 125 * SMALL_GWEI_MULTIPLIER, \"Donut\", \"donut.png\") */\n  tag_46\n  mload(0x40)\n  dup1\n  0x40\n  add\n  0x40\n  mstore\n  dup1\n  0x02\n  dup2\n  mstore\n  0x20\n  add\n  0x4434000000000000000000000000000000000000000000000000000000000000\n  dup2\n  mstore\n  pop\n    /* \"contracts/VendingMachine.sol\":976:981  10**7 */\n  0x989680\n    /* \"contracts/VendingMachine.sol\":3086:3089  125 */\n  0x7d\n    /* \"contracts/VendingMachine.sol\":3086:3113  125 * SMALL_GWEI_MULTIPLIER */\n  tag_47\n  swap2\n  swap1\n  tag_10\n  jump\t// in\ntag_47:\n    /* \"contracts/VendingMachine.sol\":3068:3136  _addProduct(\"D4\", 125 * SMALL_GWEI_MULTIPLIER, \"Donut\", \"donut.png\") */\n  mload(0x40)\n  dup1\n  0x40\n  add\n  0x40\n  mstore\n  dup1\n  0x05\n  dup2\n  mstore\n  0x20\n  add\n  0x446f6e7574000000000000000000000000000000000000000000000000000000\n  dup2\n  mstore\n  pop\n  mload(0x40)\n  dup1\n  0x40\n  add\n  0x40\n  mstore\n  dup1\n  0x09\n  dup2\n  mstore\n  0x20\n  add\n  0x646f6e75742e706e670000000000000000000000000000000000000000000000\n  dup2\n  mstore\n  pop\n    /* \"contracts/VendingMachine.sol\":3068:3079  _addProduct */\n  shl(0x20, tag_11)\n    /* \"contracts/VendingMachine.sol\":3068:3136  _addProduct(\"D4\", 125 * SMALL_GWEI_MULTIPLIER, \"Donut\", \"donut.png\") */\n  0x20\n  shr\n  jump\t// in\ntag_46:\n    /* \"contracts/VendingMachine.sol\":3146:3218  _addProduct(\"D5\", 125 * SMALL_GWEI_MULTIPLIER, \"Red Apple\", \"apple.png\") */\n  tag_48\n  mload(0x40)\n  dup1\n  0x40\n  add\n  0x40\n  mstore\n  dup1\n  0x02\n  dup2\n  mstore\n  0x20\n  add\n  0x4435000000000000000000000000000000000000000000000000000000000000\n  dup2\n  mstore\n  pop\n    /* \"contracts/VendingMachine.sol\":976:981  10**7 */\n  0x989680\n    /* \"contracts/VendingMachine.sol\":3164:3167  125 */\n  0x7d\n    /* \"contracts/VendingMachine.sol\":3164:3191  125 * SMALL_GWEI_MULTIPLIER */\n  tag_49\n  swap2\n  swap1\n  tag_10\n  jump\t// in\ntag_49:\n    /* \"contracts/VendingMachine.sol\":3146:3218  _addProduct(\"D5\", 125 * SMALL_GWEI_MULTIPLIER, \"Red Apple\", \"apple.png\") */\n  mload(0x40)\n  dup1\n  0x40\n  add\n  0x40\n  mstore\n  dup1\n  0x09\n  dup2\n  mstore\n  0x20\n  add\n  0x526564204170706c650000000000000000000000000000000000000000000000\n  dup2\n  mstore\n  pop\n  mload(0x40)\n  dup1\n  0x40\n  add\n  0x40\n  mstore\n  dup1\n  0x09\n  dup2\n  mstore\n  0x20\n  add\n  0x6170706c652e706e670000000000000000000000000000000000000000000000\n  dup2\n  mstore\n  pop\n    /* \"contracts/VendingMachine.sol\":3146:3157  _addProduct */\n  shl(0x20, tag_11)\n    /* \"contracts/VendingMachine.sol\":3146:3218  _addProduct(\"D5\", 125 * SMALL_GWEI_MULTIPLIER, \"Red Apple\", \"apple.png\") */\n  0x20\n  shr\n  jump\t// in\ntag_48:\n    /* \"contracts/VendingMachine.sol\":1561:3225  function initializeProducts() private {... */\n  jump\t// out\n    /* \"contracts/VendingMachine.sol\":3231:3548  function _addProduct(string memory code, uint256 price, string memory name, string memory imageKey) private {... */\ntag_11:\n    /* \"contracts/VendingMachine.sol\":3349:3371  string memory imageCID */\n  0x00\n    /* \"contracts/VendingMachine.sol\":3374:3403  concatIPFSReference(imageKey) */\n  tag_51\n    /* \"contracts/VendingMachine.sol\":3394:3402  imageKey */\n  dup3\n    /* \"contracts/VendingMachine.sol\":3374:3393  concatIPFSReference */\n  shl(0x20, tag_52)\n    /* \"contracts/VendingMachine.sol\":3374:3403  concatIPFSReference(imageKey) */\n  0x20\n  shr\n  jump\t// in\ntag_51:\n    /* \"contracts/VendingMachine.sol\":3349:3403  string memory imageCID = concatIPFSReference(imageKey) */\n  swap1\n  pop\n    /* \"contracts/VendingMachine.sol\":3413:3421  products */\n  0x01\n    /* \"contracts/VendingMachine.sol\":3427:3478  ProductLibrary.Product(code, price, name, imageCID) */\n  mload(0x40)\n  dup1\n  0x80\n  add\n  0x40\n  mstore\n  dup1\n    /* \"contracts/VendingMachine.sol\":3450:3454  code */\n  dup8\n    /* \"contracts/VendingMachine.sol\":3427:3478  ProductLibrary.Product(code, price, name, imageCID) */\n  dup2\n  mstore\n  0x20\n  add\n    /* \"contracts/VendingMachine.sol\":3456:3461  price */\n  dup7\n    /* \"contracts/VendingMachine.sol\":3427:3478  ProductLibrary.Product(code, price, name, imageCID) */\n  dup2\n  mstore\n  0x20\n  add\n    /* \"contracts/VendingMachine.sol\":3463:3467  name */\n  dup6\n    /* \"contracts/VendingMachine.sol\":3427:3478  ProductLibrary.Product(code, price, name, imageCID) */\n  dup2\n  mstore\n  0x20\n  add\n    /* \"contracts/VendingMachine.sol\":3469:3477  imageCID */\n  dup4\n    /* \"contracts/VendingMachine.sol\":3427:3478  ProductLibrary.Product(code, price, name, imageCID) */\n  dup2\n  mstore\n  pop\n    /* \"contracts/VendingMachine.sol\":3413:3479  products.push(ProductLibrary.Product(code, price, name, imageCID)) */\n  swap1\n  dup1\n  0x01\n  dup2\n  sload\n  add\n  dup1\n  dup3\n  sstore\n  dup1\n  swap2\n  pop\n  pop\n  0x01\n  swap1\n  sub\n  swap1\n  0x00\n  mstore\n  keccak256(0x00, 0x20)\n  swap1\n  0x04\n  mul\n  add\n  0x00\n  swap1\n  swap2\n  swap1\n  swap2\n  swap1\n  swap2\n  pop\n  0x00\n  dup3\n  add\n  mload\n  dup2\n  0x00\n  add\n  swap1\n  dup2\n  tag_54\n  swap2\n  swap1\n  tag_55\n  jump\t// in\ntag_54:\n  pop\n  0x20\n  dup3\n  add\n  mload\n  dup2\n  0x01\n  add\n  sstore\n  0x40\n  dup3\n  add\n  mload\n  dup2\n  0x02\n  add\n  swap1\n  dup2\n  tag_56\n  swap2\n  swap1\n  tag_55\n  jump\t// in\ntag_56:\n  pop\n  0x60\n  dup3\n  add\n  mload\n  dup2\n  0x03\n  add\n  swap1\n  dup2\n  tag_57\n  swap2\n  swap1\n  tag_55\n  jump\t// in\ntag_57:\n  pop\n  pop\n  pop\n    /* \"contracts/VendingMachine.sol\":3494:3541  ProductInitialized(code, name, price, imageCID) */\n  0x8ca0e4a383b33c2f01484c7ceb45c2555c4997b82d3aa641e9807527f56237fc\n    /* \"contracts/VendingMachine.sol\":3513:3517  code */\n  dup6\n    /* \"contracts/VendingMachine.sol\":3519:3523  name */\n  dup5\n    /* \"contracts/VendingMachine.sol\":3525:3530  price */\n  dup7\n    /* \"contracts/VendingMachine.sol\":3532:3540  imageCID */\n  dup5\n    /* \"contracts/VendingMachine.sol\":3494:3541  ProductInitialized(code, name, price, imageCID) */\n  mload(0x40)\n  tag_58\n  swap5\n  swap4\n  swap3\n  swap2\n  swap1\n  tag_59\n  jump\t// in\ntag_58:\n  mload(0x40)\n  dup1\n  swap2\n  sub\n  swap1\n  log1\n    /* \"contracts/VendingMachine.sol\":3339:3548  {... */\n  pop\n    /* \"contracts/VendingMachine.sol\":3231:3548  function _addProduct(string memory code, uint256 price, string memory name, string memory imageKey) private {... */\n  pop\n  pop\n  pop\n  pop\n  jump\t// out\n    /* \"contracts/VendingMachine.sol\":1410:1555  function concatIPFSReference(string memory _key) pure private returns (string memory) {... */\ntag_52:\n    /* \"contracts/VendingMachine.sol\":1481:1494  string memory */\n  0x60\n    /* \"contracts/VendingMachine.sol\":1527:1541  IPFS_REFERENCE */\n  mload(0x40)\n  dup1\n  0x60\n  add\n  0x40\n  mstore\n  dup1\n  0x2f\n  dup2\n  mstore\n  0x20\n  add\n  data_ec9eb78cc41e57eb52d56b49fd2dd4ed8c3cd69def9c06a39aaca306c1f4712f\n  0x2f\n  swap2\n  codecopy\n    /* \"contracts/VendingMachine.sol\":1543:1547  _key */\n  dup3\n    /* \"contracts/VendingMachine.sol\":1513:1548  string.concat(IPFS_REFERENCE, _key) */\n  add(0x20, mload(0x40))\n  tag_61\n  swap3\n  swap2\n  swap1\n  tag_62\n  jump\t// in\ntag_61:\n  mload(0x40)\n  0x20\n  dup2\n  dup4\n  sub\n  sub\n  dup2\n  mstore\n  swap1\n  0x40\n  mstore\n    /* \"contracts/VendingMachine.sol\":1506:1548  return string.concat(IPFS_REFERENCE, _key) */\n  swap1\n  pop\n    /* \"contracts/VendingMachine.sol\":1410:1555  function concatIPFSReference(string memory _key) pure private returns (string memory) {... */\n  swap2\n  swap1\n  pop\n  jump\t// out\n    /* \"#utility.yul\":7:84   */\ntag_63:\n    /* \"#utility.yul\":44:51   */\n  0x00\n    /* \"#utility.yul\":73:78   */\n  dup2\n    /* \"#utility.yul\":62:78   */\n  swap1\n  pop\n    /* \"#utility.yul\":7:84   */\n  swap2\n  swap1\n  pop\n  jump\t// out\n    /* \"#utility.yul\":90:270   */\ntag_64:\n    /* \"#utility.yul\":138:215   */\n  0x4e487b7100000000000000000000000000000000000000000000000000000000\n    /* \"#utility.yul\":135:136   */\n  0x00\n    /* \"#utility.yul\":128:216   */\n  mstore\n    /* \"#utility.yul\":235:239   */\n  0x11\n    /* \"#utility.yul\":232:233   */\n  0x04\n    /* \"#utility.yul\":225:240   */\n  mstore\n    /* \"#utility.yul\":259:263   */\n  0x24\n    /* \"#utility.yul\":256:257   */\n  0x00\n    /* \"#utility.yul\":249:264   */\n  revert\n    /* \"#utility.yul\":276:686   */\ntag_10:\n    /* \"#utility.yul\":316:323   */\n  0x00\n    /* \"#utility.yul\":339:359   */\n  tag_95\n    /* \"#utility.yul\":357:358   */\n  dup3\n    /* \"#utility.yul\":339:359   */\n  tag_63\n  jump\t// in\ntag_95:\n    /* \"#utility.yul\":334:359   */\n  swap2\n  pop\n    /* \"#utility.yul\":373:393   */\n  tag_96\n    /* \"#utility.yul\":391:392   */\n  dup4\n    /* \"#utility.yul\":373:393   */\n  tag_63\n  jump\t// in\ntag_96:\n    /* \"#utility.yul\":368:393   */\n  swap3\n  pop\n    /* \"#utility.yul\":428:429   */\n  dup3\n    /* \"#utility.yul\":425:426   */\n  dup3\n    /* \"#utility.yul\":421:430   */\n  mul\n    /* \"#utility.yul\":450:480   */\n  tag_97\n    /* \"#utility.yul\":468:479   */\n  dup2\n    /* \"#utility.yul\":450:480   */\n  tag_63\n  jump\t// in\ntag_97:\n    /* \"#utility.yul\":439:480   */\n  swap2\n  pop\n    /* \"#utility.yul\":629:630   */\n  dup3\n    /* \"#utility.yul\":620:627   */\n  dup3\n    /* \"#utility.yul\":616:631   */\n  div\n    /* \"#utility.yul\":613:614   */\n  dup5\n    /* \"#utility.yul\":610:632   */\n  eq\n    /* \"#utility.yul\":590:591   */\n  dup4\n    /* \"#utility.yul\":583:592   */\n  iszero\n    /* \"#utility.yul\":563:646   */\n  or\n    /* \"#utility.yul\":540:679   */\n  tag_98\n  jumpi\n    /* \"#utility.yul\":659:677   */\n  tag_99\n  tag_64\n  jump\t// in\ntag_99:\n    /* \"#utility.yul\":540:679   */\ntag_98:\n    /* \"#utility.yul\":324:686   */\n  pop\n    /* \"#utility.yul\":276:686   */\n  swap3\n  swap2\n  pop\n  pop\n  jump\t// out\n    /* \"#utility.yul\":692:791   */\ntag_65:\n    /* \"#utility.yul\":744:750   */\n  0x00\n    /* \"#utility.yul\":778:783   */\n  dup2\n    /* \"#utility.yul\":772:784   */\n  mload\n    /* \"#utility.yul\":762:784   */\n  swap1\n  pop\n    /* \"#utility.yul\":692:791   */\n  swap2\n  swap1\n  pop\n  jump\t// out\n    /* \"#utility.yul\":797:977   */\ntag_66:\n    /* \"#utility.yul\":845:922   */\n  0x4e487b7100000000000000000000000000000000000000000000000000000000\n    /* \"#utility.yul\":842:843   */\n  0x00\n    /* \"#utility.yul\":835:923   */\n  mstore\n    /* \"#utility.yul\":942:946   */\n  0x41\n    /* \"#utility.yul\":939:940   */\n  0x04\n    /* \"#utility.yul\":932:947   */\n  mstore\n    /* \"#utility.yul\":966:970   */\n  0x24\n    /* \"#utility.yul\":963:964   */\n  0x00\n    /* \"#utility.yul\":956:971   */\n  revert\n    /* \"#utility.yul\":983:1163   */\ntag_67:\n    /* \"#utility.yul\":1031:1108   */\n  0x4e487b7100000000000000000000000000000000000000000000000000000000\n    /* \"#utility.yul\":1028:1029   */\n  0x00\n    /* \"#utility.yul\":1021:1109   */\n  mstore\n    /* \"#utility.yul\":1128:1132   */\n  0x22\n    /* \"#utility.yul\":1125:1126   */\n  0x04\n    /* \"#utility.yul\":1118:1133   */\n  mstore\n    /* \"#utility.yul\":1152:1156   */\n  0x24\n    /* \"#utility.yul\":1149:1150   */\n  0x00\n    /* \"#utility.yul\":1142:1157   */\n  revert\n    /* \"#utility.yul\":1169:1489   */\ntag_68:\n    /* \"#utility.yul\":1213:1219   */\n  0x00\n    /* \"#utility.yul\":1250:1251   */\n  0x02\n    /* \"#utility.yul\":1244:1248   */\n  dup3\n    /* \"#utility.yul\":1240:1252   */\n  div\n    /* \"#utility.yul\":1230:1252   */\n  swap1\n  pop\n    /* \"#utility.yul\":1297:1298   */\n  0x01\n    /* \"#utility.yul\":1291:1295   */\n  dup3\n    /* \"#utility.yul\":1287:1299   */\n  and\n    /* \"#utility.yul\":1318:1336   */\n  dup1\n    /* \"#utility.yul\":1308:1389   */\n  tag_104\n  jumpi\n    /* \"#utility.yul\":1374:1378   */\n  0x7f\n    /* \"#utility.yul\":1366:1372   */\n  dup3\n    /* \"#utility.yul\":1362:1379   */\n  and\n    /* \"#utility.yul\":1352:1379   */\n  swap2\n  pop\n    /* \"#utility.yul\":1308:1389   */\ntag_104:\n    /* \"#utility.yul\":1436:1438   */\n  0x20\n    /* \"#utility.yul\":1428:1434   */\n  dup3\n    /* \"#utility.yul\":1425:1439   */\n  lt\n    /* \"#utility.yul\":1405:1423   */\n  dup2\n    /* \"#utility.yul\":1402:1440   */\n  sub\n    /* \"#utility.yul\":1399:1483   */\n  tag_105\n  jumpi\n    /* \"#utility.yul\":1455:1473   */\n  tag_106\n  tag_67\n  jump\t// in\ntag_106:\n    /* \"#utility.yul\":1399:1483   */\ntag_105:\n    /* \"#utility.yul\":1220:1489   */\n  pop\n    /* \"#utility.yul\":1169:1489   */\n  swap2\n  swap1\n  pop\n  jump\t// out\n    /* \"#utility.yul\":1495:1636   */\ntag_69:\n    /* \"#utility.yul\":1544:1548   */\n  0x00\n    /* \"#utility.yul\":1567:1570   */\n  dup2\n    /* \"#utility.yul\":1559:1570   */\n  swap1\n  pop\n    /* \"#utility.yul\":1590:1593   */\n  dup2\n    /* \"#utility.yul\":1587:1588   */\n  0x00\n    /* \"#utility.yul\":1580:1594   */\n  mstore\n    /* \"#utility.yul\":1624:1628   */\n  0x20\n    /* \"#utility.yul\":1621:1622   */\n  0x00\n    /* \"#utility.yul\":1611:1629   */\n  keccak256\n    /* \"#utility.yul\":1603:1629   */\n  swap1\n  pop\n    /* \"#utility.yul\":1495:1636   */\n  swap2\n  swap1\n  pop\n  jump\t// out\n    /* \"#utility.yul\":1642:1735   */\ntag_70:\n    /* \"#utility.yul\":1679:1685   */\n  0x00\n    /* \"#utility.yul\":1726:1728   */\n  0x20\n    /* \"#utility.yul\":1721:1723   */\n  0x1f\n    /* \"#utility.yul\":1714:1719   */\n  dup4\n    /* \"#utility.yul\":1710:1724   */\n  add\n    /* \"#utility.yul\":1706:1729   */\n  div\n    /* \"#utility.yul\":1696:1729   */\n  swap1\n  pop\n    /* \"#utility.yul\":1642:1735   */\n  swap2\n  swap1\n  pop\n  jump\t// out\n    /* \"#utility.yul\":1741:1848   */\ntag_71:\n    /* \"#utility.yul\":1785:1793   */\n  0x00\n    /* \"#utility.yul\":1835:1840   */\n  dup3\n    /* \"#utility.yul\":1829:1833   */\n  dup3\n    /* \"#utility.yul\":1825:1841   */\n  shl\n    /* \"#utility.yul\":1804:1841   */\n  swap1\n  pop\n    /* \"#utility.yul\":1741:1848   */\n  swap3\n  swap2\n  pop\n  pop\n  jump\t// out\n    /* \"#utility.yul\":1854:2247   */\ntag_72:\n    /* \"#utility.yul\":1923:1929   */\n  0x00\n    /* \"#utility.yul\":1973:1974   */\n  0x08\n    /* \"#utility.yul\":1961:1971   */\n  dup4\n    /* \"#utility.yul\":1957:1975   */\n  mul\n    /* \"#utility.yul\":1996:2093   */\n  tag_111\n    /* \"#utility.yul\":2026:2092   */\n  0xffffffffffffffffffffffffffffffffffffffffffffffffffffffffffffffff\n    /* \"#utility.yul\":2015:2024   */\n  dup3\n    /* \"#utility.yul\":1996:2093   */\n  tag_71\n  jump\t// in\ntag_111:\n    /* \"#utility.yul\":2114:2153   */\n  tag_112\n    /* \"#utility.yul\":2144:2152   */\n  dup7\n    /* \"#utility.yul\":2133:2142   */\n  dup4\n    /* \"#utility.yul\":2114:2153   */\n  tag_71\n  jump\t// in\ntag_112:\n    /* \"#utility.yul\":2102:2153   */\n  swap6\n  pop\n    /* \"#utility.yul\":2186:2190   */\n  dup1\n    /* \"#utility.yul\":2182:2191   */\n  not\n    /* \"#utility.yul\":2175:2180   */\n  dup5\n    /* \"#utility.yul\":2171:2192   */\n  and\n    /* \"#utility.yul\":2162:2192   */\n  swap4\n  pop\n    /* \"#utility.yul\":2235:2239   */\n  dup1\n    /* \"#utility.yul\":2225:2233   */\n  dup7\n    /* \"#utility.yul\":2221:2240   */\n  and\n    /* \"#utility.yul\":2214:2219   */\n  dup5\n    /* \"#utility.yul\":2211:2241   */\n  or\n    /* \"#utility.yul\":2201:2241   */\n  swap3\n  pop\n    /* \"#utility.yul\":1930:2247   */\n  pop\n  pop\n    /* \"#utility.yul\":1854:2247   */\n  swap4\n  swap3\n  pop\n  pop\n  pop\n  jump\t// out\n    /* \"#utility.yul\":2253:2313   */\ntag_73:\n    /* \"#utility.yul\":2281:2284   */\n  0x00\n    /* \"#utility.yul\":2302:2307   */\n  dup2\n    /* \"#utility.yul\":2295:2307   */\n  swap1\n  pop\n    /* \"#utility.yul\":2253:2313   */\n  swap2\n  swap1\n  pop\n  jump\t// out\n    /* \"#utility.yul\":2319:2461   */\ntag_74:\n    /* \"#utility.yul\":2369:2378   */\n  0x00\n    /* \"#utility.yul\":2402:2455   */\n  tag_115\n    /* \"#utility.yul\":2420:2454   */\n  tag_116\n    /* \"#utility.yul\":2429:2453   */\n  tag_117\n    /* \"#utility.yul\":2447:2452   */\n  dup5\n    /* \"#utility.yul\":2429:2453   */\n  tag_63\n  jump\t// in\ntag_117:\n    /* \"#utility.yul\":2420:2454   */\n  tag_73\n  jump\t// in\ntag_116:\n    /* \"#utility.yul\":2402:2455   */\n  tag_63\n  jump\t// in\ntag_115:\n    /* \"#utility.yul\":2389:2455   */\n  swap1\n  pop\n    /* \"#utility.yul\":2319:2461   */\n  swap2\n  swap1\n  pop\n  jump\t// out\n    /* \"#utility.yul\":2467:2542   */\ntag_75:\n    /* \"#utility.yul\":2510:2513   */\n  0x00\n    /* \"#utility.yul\":2531:2536   */\n  dup2\n    /* \"#utility.yul\":2524:2536   */\n  swap1\n  pop\n    /* \"#utility.yul\":2467:2542   */\n  swap2\n  swap1\n  pop\n  jump\t// out\n    /* \"#utility.yul\":2548:2817   */\ntag_76:\n    /* \"#utility.yul\":2658:2697   */\n  tag_120\n    /* \"#utility.yul\":2689:2696   */\n  dup4\n    /* \"#utility.yul\":2658:2697   */\n  tag_74\n  jump\t// in\ntag_120:\n    /* \"#utility.yul\":2719:2810   */\n  tag_121\n    /* \"#utility.yul\":2768:2809   */\n  tag_122\n    /* \"#utility.yul\":2792:2808   */\n  dup3\n    /* \"#utility.yul\":2768:2809   */\n  tag_75\n  jump\t// in\ntag_122:\n    /* \"#utility.yul\":2760:2766   */\n  dup5\n    /* \"#utility.yul\":2753:2757   */\n  dup5\n    /* \"#utility.yul\":2747:2758   */\n  sload\n    /* \"#utility.yul\":2719:2810   */\n  tag_72\n  jump\t// in\ntag_121:\n    /* \"#utility.yul\":2713:2717   */\n  dup3\n    /* \"#utility.yul\":2706:2811   */\n  sstore\n    /* \"#utility.yul\":2624:2817   */\n  pop\n    /* \"#utility.yul\":2548:2817   */\n  pop\n  pop\n  pop\n  jump\t// out\n    /* \"#utility.yul\":2823:2896   */\ntag_77:\n    /* \"#utility.yul\":2868:2871   */\n  0x00\n    /* \"#utility.yul\":2823:2896   */\n  swap1\n  jump\t// out\n    /* \"#utility.yul\":2902:3091   */\ntag_78:\n    /* \"#utility.yul\":2979:3011   */\n  tag_125\n  tag_77\n  jump\t// in\ntag_125:\n    /* \"#utility.yul\":3020:3085   */\n  tag_126\n    /* \"#utility.yul\":3078:3084   */\n  dup2\n    /* \"#utility.yul\":3070:3076   */\n  dup5\n    /* \"#utility.yul\":3064:3068   */\n  dup5\n    /* \"#utility.yul\":3020:3085   */\n  tag_76\n  jump\t// in\ntag_126:\n    /* \"#utility.yul\":2955:3091   */\n  pop\n    /* \"#utility.yul\":2902:3091   */\n  pop\n  pop\n  jump\t// out\n    /* \"#utility.yul\":3097:3283   */\ntag_79:\n    /* \"#utility.yul\":3157:3277   */\ntag_128:\n    /* \"#utility.yul\":3174:3177   */\n  dup2\n    /* \"#utility.yul\":3167:3172   */\n  dup2\n    /* \"#utility.yul\":3164:3178   */\n  lt\n    /* \"#utility.yul\":3157:3277   */\n  iszero\n  tag_130\n  jumpi\n    /* \"#utility.yul\":3228:3267   */\n  tag_131\n    /* \"#utility.yul\":3265:3266   */\n  0x00\n    /* \"#utility.yul\":3258:3263   */\n  dup3\n    /* \"#utility.yul\":3228:3267   */\n  tag_78\n  jump\t// in\ntag_131:\n    /* \"#utility.yul\":3201:3202   */\n  0x01\n    /* \"#utility.yul\":3194:3199   */\n  dup2\n    /* \"#utility.yul\":3190:3203   */\n  add\n    /* \"#utility.yul\":3181:3203   */\n  swap1\n  pop\n    /* \"#utility.yul\":3157:3277   */\n  jump(tag_128)\ntag_130:\n    /* \"#utility.yul\":3097:3283   */\n  pop\n  pop\n  jump\t// out\n    /* \"#utility.yul\":3289:3832   */\ntag_80:\n    /* \"#utility.yul\":3390:3392   */\n  0x1f\n    /* \"#utility.yul\":3385:3388   */\n  dup3\n    /* \"#utility.yul\":3382:3393   */\n  gt\n    /* \"#utility.yul\":3379:3825   */\n  iszero\n  tag_133\n  jumpi\n    /* \"#utility.yul\":3424:3462   */\n  tag_134\n    /* \"#utility.yul\":3456:3461   */\n  dup2\n    /* \"#utility.yul\":3424:3462   */\n  tag_69\n  jump\t// in\ntag_134:\n    /* \"#utility.yul\":3508:3537   */\n  tag_135\n    /* \"#utility.yul\":3526:3536   */\n  dup5\n    /* \"#utility.yul\":3508:3537   */\n  tag_70\n  jump\t// in\ntag_135:\n    /* \"#utility.yul\":3498:3506   */\n  dup2\n    /* \"#utility.yul\":3494:3538   */\n  add\n    /* \"#utility.yul\":3691:3693   */\n  0x20\n    /* \"#utility.yul\":3679:3689   */\n  dup6\n    /* \"#utility.yul\":3676:3694   */\n  lt\n    /* \"#utility.yul\":3673:3722   */\n  iszero\n  tag_136\n  jumpi\n    /* \"#utility.yul\":3712:3720   */\n  dup2\n    /* \"#utility.yul\":3697:3720   */\n  swap1\n  pop\n    /* \"#utility.yul\":3673:3722   */\ntag_136:\n    /* \"#utility.yul\":3735:3815   */\n  tag_137\n    /* \"#utility.yul\":3791:3813   */\n  tag_138\n    /* \"#utility.yul\":3809:3812   */\n  dup6\n    /* \"#utility.yul\":3791:3813   */\n  tag_70\n  jump\t// in\ntag_138:\n    /* \"#utility.yul\":3781:3789   */\n  dup4\n    /* \"#utility.yul\":3777:3814   */\n  add\n    /* \"#utility.yul\":3764:3775   */\n  dup3\n    /* \"#utility.yul\":3735:3815   */\n  tag_79\n  jump\t// in\ntag_137:\n    /* \"#utility.yul\":3394:3825   */\n  pop\n  pop\n    /* \"#utility.yul\":3379:3825   */\ntag_133:\n    /* \"#utility.yul\":3289:3832   */\n  pop\n  pop\n  pop\n  jump\t// out\n    /* \"#utility.yul\":3838:3955   */\ntag_81:\n    /* \"#utility.yul\":3892:3900   */\n  0x00\n    /* \"#utility.yul\":3942:3947   */\n  dup3\n    /* \"#utility.yul\":3936:3940   */\n  dup3\n    /* \"#utility.yul\":3932:3948   */\n  shr\n    /* \"#utility.yul\":3911:3948   */\n  swap1\n  pop\n    /* \"#utility.yul\":3838:3955   */\n  swap3\n  swap2\n  pop\n  pop\n  jump\t// out\n    /* \"#utility.yul\":3961:4130   */\ntag_82:\n    /* \"#utility.yul\":4005:4011   */\n  0x00\n    /* \"#utility.yul\":4038:4089   */\n  tag_141\n    /* \"#utility.yul\":4086:4087   */\n  0x00\n    /* \"#utility.yul\":4082:4088   */\n  not\n    /* \"#utility.yul\":4074:4079   */\n  dup5\n    /* \"#utility.yul\":4071:4072   */\n  0x08\n    /* \"#utility.yul\":4067:4080   */\n  mul\n    /* \"#utility.yul\":4038:4089   */\n  tag_81\n  jump\t// in\ntag_141:\n    /* \"#utility.yul\":4034:4090   */\n  not\n    /* \"#utility.yul\":4119:4123   */\n  dup1\n    /* \"#utility.yul\":4113:4117   */\n  dup4\n    /* \"#utility.yul\":4109:4124   */\n  and\n    /* \"#utility.yul\":4099:4124   */\n  swap2\n  pop\n    /* \"#utility.yul\":4012:4130   */\n  pop\n    /* \"#utility.yul\":3961:4130   */\n  swap3\n  swap2\n  pop\n  pop\n  jump\t// out\n    /* \"#utility.yul\":4135:4430   */\ntag_83:\n    /* \"#utility.yul\":4211:4215   */\n  0x00\n    /* \"#utility.yul\":4357:4386   */\n  tag_143\n    /* \"#utility.yul\":4382:4385   */\n  dup4\n    /* \"#utility.yul\":4376:4380   */\n  dup4\n    /* \"#utility.yul\":4357:4386   */\n  tag_82\n  jump\t// in\ntag_143:\n    /* \"#utility.yul\":4349:4386   */\n  swap2\n  pop\n    /* \"#utility.yul\":4419:4422   */\n  dup3\n    /* \"#utility.yul\":4416:4417   */\n  0x02\n    /* \"#utility.yul\":4412:4423   */\n  mul\n    /* \"#utility.yul\":4406:4410   */\n  dup3\n    /* \"#utility.yul\":4403:4424   */\n  or\n    /* \"#utility.yul\":4395:4424   */\n  swap1\n  pop\n    /* \"#utility.yul\":4135:4430   */\n  swap3\n  swap2\n  pop\n  pop\n  jump\t// out\n    /* \"#utility.yul\":4435:5830   */\ntag_55:\n    /* \"#utility.yul\":4552:4589   */\n  tag_145\n    /* \"#utility.yul\":4585:4588   */\n  dup3\n    /* \"#utility.yul\":4552:4589   */\n  tag_65\n  jump\t// in\ntag_145:\n    /* \"#utility.yul\":4654:4672   */\n  0xffffffffffffffff\n    /* \"#utility.yul\":4646:4652   */\n  dup2\n    /* \"#utility.yul\":4643:4673   */\n  gt\n    /* \"#utility.yul\":4640:4696   */\n  iszero\n  tag_146\n  jumpi\n    /* \"#utility.yul\":4676:4694   */\n  tag_147\n  tag_66\n  jump\t// in\ntag_147:\n    /* \"#utility.yul\":4640:4696   */\ntag_146:\n    /* \"#utility.yul\":4720:4758   */\n  tag_148\n    /* \"#utility.yul\":4752:4756   */\n  dup3\n    /* \"#utility.yul\":4746:4757   */\n  sload\n    /* \"#utility.yul\":4720:4758   */\n  tag_68\n  jump\t// in\ntag_148:\n    /* \"#utility.yul\":4805:4872   */\n  tag_149\n    /* \"#utility.yul\":4865:4871   */\n  dup3\n    /* \"#utility.yul\":4857:4863   */\n  dup3\n    /* \"#utility.yul\":4851:4855   */\n  dup6\n    /* \"#utility.yul\":4805:4872   */\n  tag_80\n  jump\t// in\ntag_149:\n    /* \"#utility.yul\":4899:4900   */\n  0x00\n    /* \"#utility.yul\":4923:4927   */\n  0x20\n    /* \"#utility.yul\":4910:4927   */\n  swap1\n  pop\n    /* \"#utility.yul\":4955:4957   */\n  0x1f\n    /* \"#utility.yul\":4947:4953   */\n  dup4\n    /* \"#utility.yul\":4944:4958   */\n  gt\n    /* \"#utility.yul\":4972:4973   */\n  0x01\n    /* \"#utility.yul\":4967:5585   */\n  dup2\n  eq\n  tag_151\n  jumpi\n    /* \"#utility.yul\":5629:5630   */\n  0x00\n    /* \"#utility.yul\":5646:5652   */\n  dup5\n    /* \"#utility.yul\":5643:5720   */\n  iszero\n  tag_152\n  jumpi\n    /* \"#utility.yul\":5695:5704   */\n  dup3\n    /* \"#utility.yul\":5690:5693   */\n  dup8\n    /* \"#utility.yul\":5686:5705   */\n  add\n    /* \"#utility.yul\":5680:5706   */\n  mload\n    /* \"#utility.yul\":5671:5706   */\n  swap1\n  pop\n    /* \"#utility.yul\":5643:5720   */\ntag_152:\n    /* \"#utility.yul\":5746:5813   */\n  tag_153\n    /* \"#utility.yul\":5806:5812   */\n  dup6\n    /* \"#utility.yul\":5799:5804   */\n  dup3\n    /* \"#utility.yul\":5746:5813   */\n  tag_83\n  jump\t// in\ntag_153:\n    /* \"#utility.yul\":5740:5744   */\n  dup7\n    /* \"#utility.yul\":5733:5814   */\n  sstore\n    /* \"#utility.yul\":5602:5824   */\n  pop\n    /* \"#utility.yul\":4937:5824   */\n  jump(tag_150)\n    /* \"#utility.yul\":4967:5585   */\ntag_151:\n    /* \"#utility.yul\":5019:5023   */\n  0x1f\n    /* \"#utility.yul\":5015:5024   */\n  not\n    /* \"#utility.yul\":5007:5013   */\n  dup5\n    /* \"#utility.yul\":5003:5025   */\n  and\n    /* \"#utility.yul\":5053:5090   */\n  tag_154\n    /* \"#utility.yul\":5085:5089   */\n  dup7\n    /* \"#utility.yul\":5053:5090   */\n  tag_69\n  jump\t// in\ntag_154:\n    /* \"#utility.yul\":5112:5113   */\n  0x00\n    /* \"#utility.yul\":5126:5334   */\ntag_155:\n    /* \"#utility.yul\":5140:5147   */\n  dup3\n    /* \"#utility.yul\":5137:5138   */\n  dup2\n    /* \"#utility.yul\":5134:5148   */\n  lt\n    /* \"#utility.yul\":5126:5334   */\n  iszero\n  tag_157\n  jumpi\n    /* \"#utility.yul\":5219:5228   */\n  dup5\n    /* \"#utility.yul\":5214:5217   */\n  dup10\n    /* \"#utility.yul\":5210:5229   */\n  add\n    /* \"#utility.yul\":5204:5230   */\n  mload\n    /* \"#utility.yul\":5196:5202   */\n  dup3\n    /* \"#utility.yul\":5189:5231   */\n  sstore\n    /* \"#utility.yul\":5270:5271   */\n  0x01\n    /* \"#utility.yul\":5262:5268   */\n  dup3\n    /* \"#utility.yul\":5258:5272   */\n  add\n    /* \"#utility.yul\":5248:5272   */\n  swap2\n  pop\n    /* \"#utility.yul\":5317:5319   */\n  0x20\n    /* \"#utility.yul\":5306:5315   */\n  dup6\n    /* \"#utility.yul\":5302:5320   */\n  add\n    /* \"#utility.yul\":5289:5320   */\n  swap5\n  pop\n    /* \"#utility.yul\":5163:5167   */\n  0x20\n    /* \"#utility.yul\":5160:5161   */\n  dup2\n    /* \"#utility.yul\":5156:5168   */\n  add\n    /* \"#utility.yul\":5151:5168   */\n  swap1\n  pop\n    /* \"#utility.yul\":5126:5334   */\n  jump(tag_155)\ntag_157:\n    /* \"#utility.yul\":5362:5368   */\n  dup7\n    /* \"#utility.yul\":5353:5360   */\n  dup4\n    /* \"#utility.yul\":5350:5369   */\n  lt\n    /* \"#utility.yul\":5347:5526   */\n  iszero\n  tag_158\n  jumpi\n    /* \"#utility.yul\":5420:5429   */\n  dup5\n    /* \"#utility.yul\":5415:5418   */\n  dup10\n    /* \"#utility.yul\":5411:5430   */\n  add\n    /* \"#utility.yul\":5405:5431   */\n  mload\n    /* \"#utility.yul\":5463:5511   */\n  tag_159\n    /* \"#utility.yul\":5505:5509   */\n  0x1f\n    /* \"#utility.yul\":5497:5503   */\n  dup10\n    /* \"#utility.yul\":5493:5510   */\n  and\n    /* \"#utility.yul\":5482:5491   */\n  dup3\n    /* \"#utility.yul\":5463:5511   */\n  tag_82\n  jump\t// in\ntag_159:\n    /* \"#utility.yul\":5455:5461   */\n  dup4\n    /* \"#utility.yul\":5448:5512   */\n  sstore\n    /* \"#utility.yul\":5370:5526   */\n  pop\n    /* \"#utility.yul\":5347:5526   */\ntag_158:\n    /* \"#utility.yul\":5572:5573   */\n  0x01\n    /* \"#utility.yul\":5568:5569   */\n  0x02\n    /* \"#utility.yul\":5560:5566   */\n  dup9\n    /* \"#utility.yul\":5556:5570   */\n  mul\n    /* \"#utility.yul\":5552:5574   */\n  add\n    /* \"#utility.yul\":5546:5550   */\n  dup9\n    /* \"#utility.yul\":5539:5575   */\n  sstore\n    /* \"#utility.yul\":4974:5585   */\n  pop\n  pop\n  pop\n    /* \"#utility.yul\":4937:5824   */\ntag_150:\n  pop\n    /* \"#utility.yul\":4527:5830   */\n  pop\n  pop\n  pop\n    /* \"#utility.yul\":4435:5830   */\n  pop\n  pop\n  jump\t// out\n    /* \"#utility.yul\":5836:6005   */\ntag_84:\n    /* \"#utility.yul\":5920:5931   */\n  0x00\n    /* \"#utility.yul\":5954:5960   */\n  dup3\n    /* \"#utility.yul\":5949:5952   */\n  dup3\n    /* \"#utility.yul\":5942:5961   */\n  mstore\n    /* \"#utility.yul\":5994:5998   */\n  0x20\n    /* \"#utility.yul\":5989:5992   */\n  dup3\n    /* \"#utility.yul\":5985:5999   */\n  add\n    /* \"#utility.yul\":5970:5999   */\n  swap1\n  pop\n    /* \"#utility.yul\":5836:6005   */\n  swap3\n  swap2\n  pop\n  pop\n  jump\t// out\n    /* \"#utility.yul\":6011:6150   */\ntag_85:\n    /* \"#utility.yul\":6100:6106   */\n  dup3\n    /* \"#utility.yul\":6095:6098   */\n  dup2\n    /* \"#utility.yul\":6090:6093   */\n  dup4\n    /* \"#utility.yul\":6084:6107   */\n  mcopy\n    /* \"#utility.yul\":6141:6142   */\n  0x00\n    /* \"#utility.yul\":6132:6138   */\n  dup4\n    /* \"#utility.yul\":6127:6130   */\n  dup4\n    /* \"#utility.yul\":6123:6139   */\n  add\n    /* \"#utility.yul\":6116:6143   */\n  mstore\n    /* \"#utility.yul\":6011:6150   */\n  pop\n  pop\n  pop\n  jump\t// out\n    /* \"#utility.yul\":6156:6258   */\ntag_86:\n    /* \"#utility.yul\":6197:6203   */\n  0x00\n    /* \"#utility.yul\":6248:6250   */\n  0x1f\n    /* \"#utility.yul\":6244:6251   */\n  not\n    /* \"#utility.yul\":6239:6241   */\n  0x1f\n    /* \"#utility.yul\":6232:6237   */\n  dup4\n    /* \"#utility.yul\":6228:6242   */\n  add\n    /* \"#utility.yul\":6224:6252   */\n  and\n    /* \"#utility.yul\":6214:6252   */\n  swap1\n  pop\n    /* \"#utility.yul\":6156:6258   */\n  swap2\n  swap1\n  pop\n  jump\t// out\n    /* \"#utility.yul\":6264:6641   */\ntag_87:\n    /* \"#utility.yul\":6352:6355   */\n  0x00\n    /* \"#utility.yul\":6380:6419   */\n  tag_164\n    /* \"#utility.yul\":6413:6418   */\n  dup3\n    /* \"#utility.yul\":6380:6419   */\n  tag_65\n  jump\t// in\ntag_164:\n    /* \"#utility.yul\":6435:6506   */\n  tag_165\n    /* \"#utility.yul\":6499:6505   */\n  dup2\n    /* \"#utility.yul\":6494:6497   */\n  dup6\n    /* \"#utility.yul\":6435:6506   */\n  tag_84\n  jump\t// in\ntag_165:\n    /* \"#utility.yul\":6428:6506   */\n  swap4\n  pop\n    /* \"#utility.yul\":6515:6580   */\n  tag_166\n    /* \"#utility.yul\":6573:6579   */\n  dup2\n    /* \"#utility.yul\":6568:6571   */\n  dup6\n    /* \"#utility.yul\":6561:6565   */\n  0x20\n    /* \"#utility.yul\":6554:6559   */\n  dup7\n    /* \"#utility.yul\":6550:6566   */\n  add\n    /* \"#utility.yul\":6515:6580   */\n  tag_85\n  jump\t// in\ntag_166:\n    /* \"#utility.yul\":6605:6634   */\n  tag_167\n    /* \"#utility.yul\":6627:6633   */\n  dup2\n    /* \"#utility.yul\":6605:6634   */\n  tag_86\n  jump\t// in\ntag_167:\n    /* \"#utility.yul\":6600:6603   */\n  dup5\n    /* \"#utility.yul\":6596:6635   */\n  add\n    /* \"#utility.yul\":6589:6635   */\n  swap2\n  pop\n    /* \"#utility.yul\":6356:6641   */\n  pop\n    /* \"#utility.yul\":6264:6641   */\n  swap3\n  swap2\n  pop\n  pop\n  jump\t// out\n    /* \"#utility.yul\":6647:6765   */\ntag_88:\n    /* \"#utility.yul\":6734:6758   */\n  tag_169\n    /* \"#utility.yul\":6752:6757   */\n  dup2\n    /* \"#utility.yul\":6734:6758   */\n  tag_63\n  jump\t// in\ntag_169:\n    /* \"#utility.yul\":6729:6732   */\n  dup3\n    /* \"#utility.yul\":6722:6759   */\n  mstore\n    /* \"#utility.yul\":6647:6765   */\n  pop\n  pop\n  jump\t// out\n    /* \"#utility.yul\":6771:7597   */\ntag_59:\n    /* \"#utility.yul\":7008:7012   */\n  0x00\n    /* \"#utility.yul\":7046:7049   */\n  0x80\n    /* \"#utility.yul\":7035:7044   */\n  dup3\n    /* \"#utility.yul\":7031:7050   */\n  add\n    /* \"#utility.yul\":7023:7050   */\n  swap1\n  pop\n    /* \"#utility.yul\":7096:7105   */\n  dup2\n    /* \"#utility.yul\":7090:7094   */\n  dup2\n    /* \"#utility.yul\":7086:7106   */\n  sub\n    /* \"#utility.yul\":7082:7083   */\n  0x00\n    /* \"#utility.yul\":7071:7080   */\n  dup4\n    /* \"#utility.yul\":7067:7084   */\n  add\n    /* \"#utility.yul\":7060:7107   */\n  mstore\n    /* \"#utility.yul\":7124:7202   */\n  tag_171\n    /* \"#utility.yul\":7197:7201   */\n  dup2\n    /* \"#utility.yul\":7188:7194   */\n  dup8\n    /* \"#utility.yul\":7124:7202   */\n  tag_87\n  jump\t// in\ntag_171:\n    /* \"#utility.yul\":7116:7202   */\n  swap1\n  pop\n    /* \"#utility.yul\":7249:7258   */\n  dup2\n    /* \"#utility.yul\":7243:7247   */\n  dup2\n    /* \"#utility.yul\":7239:7259   */\n  sub\n    /* \"#utility.yul\":7234:7236   */\n  0x20\n    /* \"#utility.yul\":7223:7232   */\n  dup4\n    /* \"#utility.yul\":7219:7237   */\n  add\n    /* \"#utility.yul\":7212:7260   */\n  mstore\n    /* \"#utility.yul\":7277:7355   */\n  tag_172\n    /* \"#utility.yul\":7350:7354   */\n  dup2\n    /* \"#utility.yul\":7341:7347   */\n  dup7\n    /* \"#utility.yul\":7277:7355   */\n  tag_87\n  jump\t// in\ntag_172:\n    /* \"#utility.yul\":7269:7355   */\n  swap1\n  pop\n    /* \"#utility.yul\":7365:7437   */\n  tag_173\n    /* \"#utility.yul\":7433:7435   */\n  0x40\n    /* \"#utility.yul\":7422:7431   */\n  dup4\n    /* \"#utility.yul\":7418:7436   */\n  add\n    /* \"#utility.yul\":7409:7415   */\n  dup6\n    /* \"#utility.yul\":7365:7437   */\n  tag_88\n  jump\t// in\ntag_173:\n    /* \"#utility.yul\":7484:7493   */\n  dup2\n    /* \"#utility.yul\":7478:7482   */\n  dup2\n    /* \"#utility.yul\":7474:7494   */\n  sub\n    /* \"#utility.yul\":7469:7471   */\n  0x60\n    /* \"#utility.yul\":7458:7467   */\n  dup4\n    /* \"#utility.yul\":7454:7472   */\n  add\n    /* \"#utility.yul\":7447:7495   */\n  mstore\n    /* \"#utility.yul\":7512:7590   */\n  tag_174\n    /* \"#utility.yul\":7585:7589   */\n  dup2\n    /* \"#utility.yul\":7576:7582   */\n  dup5\n    /* \"#utility.yul\":7512:7590   */\n  tag_87\n  jump\t// in\ntag_174:\n    /* \"#utility.yul\":7504:7590   */\n  swap1\n  pop\n    /* \"#utility.yul\":6771:7597   */\n  swap6\n  swap5\n  pop\n  pop\n  pop\n  pop\n  pop\n  jump\t// out\n    /* \"#utility.yul\":7603:7751   */\ntag_89:\n    /* \"#utility.yul\":7705:7716   */\n  0x00\n    /* \"#utility.yul\":7742:7745   */\n  dup2\n    /* \"#utility.yul\":7727:7745   */\n  swap1\n  pop\n    /* \"#utility.yul\":7603:7751   */\n  swap3\n  swap2\n  pop\n  pop\n  jump\t// out\n    /* \"#utility.yul\":7757:8147   */\ntag_90:\n    /* \"#utility.yul\":7863:7866   */\n  0x00\n    /* \"#utility.yul\":7891:7930   */\n  tag_177\n    /* \"#utility.yul\":7924:7929   */\n  dup3\n    /* \"#utility.yul\":7891:7930   */\n  tag_65\n  jump\t// in\ntag_177:\n    /* \"#utility.yul\":7946:8035   */\n  tag_178\n    /* \"#utility.yul\":8028:8034   */\n  dup2\n    /* \"#utility.yul\":8023:8026   */\n  dup6\n    /* \"#utility.yul\":7946:8035   */\n  tag_89\n  jump\t// in\ntag_178:\n    /* \"#utility.yul\":7939:8035   */\n  swap4\n  pop\n    /* \"#utility.yul\":8044:8109   */\n  tag_179\n    /* \"#utility.yul\":8102:8108   */\n  dup2\n    /* \"#utility.yul\":8097:8100   */\n  dup6\n    /* \"#utility.yul\":8090:8094   */\n  0x20\n    /* \"#utility.yul\":8083:8088   */\n  dup7\n    /* \"#utility.yul\":8079:8095   */\n  add\n    /* \"#utility.yul\":8044:8109   */\n  tag_85\n  jump\t// in\ntag_179:\n    /* \"#utility.yul\":8134:8140   */\n  dup1\n    /* \"#utility.yul\":8129:8132   */\n  dup5\n    /* \"#utility.yul\":8125:8141   */\n  add\n    /* \"#utility.yul\":8118:8141   */\n  swap2\n  pop\n    /* \"#utility.yul\":7867:8147   */\n  pop\n    /* \"#utility.yul\":7757:8147   */\n  swap3\n  swap2\n  pop\n  pop\n  jump\t// out\n    /* \"#utility.yul\":8153:8588   */\ntag_62:\n    /* \"#utility.yul\":8333:8336   */\n  0x00\n    /* \"#utility.yul\":8355:8450   */\n  tag_181\n    /* \"#utility.yul\":8446:8449   */\n  dup3\n    /* \"#utility.yul\":8437:8443   */\n  dup6\n    /* \"#utility.yul\":8355:8450   */\n  tag_90\n  jump\t// in\ntag_181:\n    /* \"#utility.yul\":8348:8450   */\n  swap2\n  pop\n    /* \"#utility.yul\":8467:8562   */\n  tag_182\n    /* \"#utility.yul\":8558:8561   */\n  dup3\n    /* \"#utility.yul\":8549:8555   */\n  dup5\n    /* \"#utility.yul\":8467:8562   */\n  tag_90\n  jump\t// in\ntag_182:\n    /* \"#utility.yul\":8460:8562   */\n  swap2\n  pop\n    /* \"#utility.yul\":8579:8582   */\n  dup2\n    /* \"#utility.yul\":8572:8582   */\n  swap1\n  pop\n    /* \"#utility.yul\":8153:8588   */\n  swap4\n  swap3\n  pop\n  pop\n  pop\n  jump\t// out\n    /* \"contracts/VendingMachine.sol\":90:6861  contract VendingMachine {... */\ntag_6:\n  dataSize(sub_0)\n  dup1\n  dataOffset(sub_0)\n  0x00\n  codecopy\n  0x00\n  return\nstop\ndata_ec9eb78cc41e57eb52d56b49fd2dd4ed8c3cd69def9c06a39aaca306c1f4712f 516d6652465261626f50334d3438656578766e516b6977675544506150484a69466e44634b637545754c426266312f\n\nsub_0: assembly {\n        /* \"contracts/VendingMachine.sol\":90:6861  contract VendingMachine {... */\n      mstore(0x40, 0x80)\n      jumpi(tag_1, lt(calldatasize, 0x04))\n      shr(0xe0, calldataload(0x00))\n      dup1\n      0x3ccfd60b\n      gt\n      tag_10\n      jumpi\n      dup1\n      0x3ccfd60b\n      eq\n      tag_6\n      jumpi\n      dup1\n      0x8da5cb5b\n      eq\n      tag_7\n      jumpi\n      dup1\n      0xa26759cb\n      eq\n      tag_8\n      jumpi\n      dup1\n      0xb04f3225\n      eq\n      tag_9\n      jumpi\n      jump(tag_1)\n    tag_10:\n      dup1\n      0x02ee3a52\n      eq\n      tag_2\n      jumpi\n      dup1\n      0x1107bc98\n      eq\n      tag_3\n      jumpi\n      dup1\n      0x12065fe0\n      eq\n      tag_4\n      jumpi\n      dup1\n      0x19f92926\n      eq\n      tag_5\n      jumpi\n    tag_1:\n      0x00\n      dup1\n      revert\n        /* \"contracts/VendingMachine.sol\":3931:4043  function getAllProducts() public view returns (ProductLibrary.Product[] memory) {... */\n    tag_2:\n      callvalue\n      dup1\n      iszero\n      tag_11\n      jumpi\n      0x00\n      dup1\n      revert\n    tag_11:\n      pop\n      tag_12\n      tag_13\n      jump\t// in\n    tag_12:\n      mload(0x40)\n      tag_14\n      swap2\n      swap1\n      tag_15\n      jump\t// in\n    tag_14:\n      mload(0x40)\n      dup1\n      swap2\n      sub\n      swap1\n      return\n        /* \"contracts/VendingMachine.sol\":4957:6018  function getAllPurchases(address _buyer) public view returns (ProductLibrary.PurchaseInfo[] memory) {... */\n    tag_3:\n      callvalue\n      dup1\n      iszero\n      tag_16\n      jumpi\n      0x00\n      dup1\n      revert\n    tag_16:\n      pop\n      tag_17\n      0x04\n      dup1\n      calldatasize\n      sub\n      dup2\n      add\n      swap1\n      tag_18\n      swap2\n      swap1\n      tag_19\n      jump\t// in\n    tag_18:\n      tag_20\n      jump\t// in\n    tag_17:\n      mload(0x40)\n      tag_21\n      swap2\n      swap1\n      tag_22\n      jump\t// in\n    tag_21:\n      mload(0x40)\n      dup1\n      swap2\n      sub\n      swap1\n      return\n        /* \"contracts/VendingMachine.sol\":4247:4340  function getBalance() public view returns (uint) {... */\n    tag_4:\n      callvalue\n      dup1\n      iszero\n      tag_23\n      jumpi\n      0x00\n      dup1\n      revert\n    tag_23:\n      pop\n      tag_24\n      tag_25\n      jump\t// in\n    tag_24:\n      mload(0x40)\n      tag_26\n      swap2\n      swap1\n      tag_27\n      jump\t// in\n    tag_26:\n      mload(0x40)\n      dup1\n      swap2\n      sub\n      swap1\n      return\n        /* \"contracts/VendingMachine.sol\":4350:4951  function purchaseProduct(string memory _productId) public {... */\n    tag_5:\n      callvalue\n      dup1\n      iszero\n      tag_28\n      jumpi\n      0x00\n      dup1\n      revert\n    tag_28:\n      pop\n      tag_29\n      0x04\n      dup1\n      calldatasize\n      sub\n      dup2\n      add\n      swap1\n      tag_30\n      swap2\n      swap1\n      tag_31\n      jump\t// in\n    tag_30:\n      tag_32\n      jump\t// in\n    tag_29:\n      stop\n        /* \"contracts/VendingMachine.sol\":6510:6859  function withdraw() public onlyOwner noReentrant {... */\n    tag_6:\n      callvalue\n      dup1\n      iszero\n      tag_33\n      jumpi\n      0x00\n      dup1\n      revert\n    tag_33:\n      pop\n      tag_34\n      tag_35\n      jump\t// in\n    tag_34:\n      stop\n        /* \"contracts/VendingMachine.sol\":120:140  address public owner */\n    tag_7:\n      callvalue\n      dup1\n      iszero\n      tag_36\n      jumpi\n      0x00\n      dup1\n      revert\n    tag_36:\n      pop\n      tag_37\n      tag_38\n      jump\t// in\n    tag_37:\n      mload(0x40)\n      tag_39\n      swap2\n      swap1\n      tag_40\n      jump\t// in\n    tag_39:\n      mload(0x40)\n      dup1\n      swap2\n      sub\n      swap1\n      return\n        /* \"contracts/VendingMachine.sol\":4049:4241  function addFunds() public payable {... */\n    tag_8:\n      tag_41\n      tag_42\n      jump\t// in\n    tag_41:\n      stop\n        /* \"contracts/VendingMachine.sol\":6024:6504  function consumePurchase(uint _purchaseIndex) public {... */\n    tag_9:\n      callvalue\n      dup1\n      iszero\n      tag_43\n      jumpi\n      0x00\n      dup1\n      revert\n    tag_43:\n      pop\n      tag_44\n      0x04\n      dup1\n      calldatasize\n      sub\n      dup2\n      add\n      swap1\n      tag_45\n      swap2\n      swap1\n      tag_46\n      jump\t// in\n    tag_45:\n      tag_47\n      jump\t// in\n    tag_44:\n      stop\n        /* \"contracts/VendingMachine.sol\":3931:4043  function getAllProducts() public view returns (ProductLibrary.Product[] memory) {... */\n    tag_13:\n        /* \"contracts/VendingMachine.sol\":3978:4009  ProductLibrary.Product[] memory */\n      0x60\n        /* \"contracts/VendingMachine.sol\":4028:4036  products */\n      0x01\n        /* \"contracts/VendingMachine.sol\":4021:4036  return products */\n      dup1\n      sload\n      dup1\n      0x20\n      mul\n      0x20\n      add\n      mload(0x40)\n      swap1\n      dup2\n      add\n      0x40\n      mstore\n      dup1\n      swap3\n      swap2\n      swap1\n      dup2\n      dup2\n      mstore\n      0x20\n      add\n      0x00\n      swap1\n    tag_49:\n      dup3\n      dup3\n      lt\n      iszero\n      tag_50\n      jumpi\n      dup4\n      dup3\n      swap1\n      0x00\n      mstore\n      keccak256(0x00, 0x20)\n      swap1\n      0x04\n      mul\n      add\n      mload(0x40)\n      dup1\n      0x80\n      add\n      0x40\n      mstore\n      swap1\n      dup2\n      0x00\n      dup3\n      add\n      dup1\n      sload\n      tag_52\n      swap1\n      tag_53\n      jump\t// in\n    tag_52:\n      dup1\n      0x1f\n      add\n      0x20\n      dup1\n      swap2\n      div\n      mul\n      0x20\n      add\n      mload(0x40)\n      swap1\n      dup2\n      add\n      0x40\n      mstore\n      dup1\n      swap3\n      swap2\n      swap1\n      dup2\n      dup2\n      mstore\n      0x20\n      add\n      dup3\n      dup1\n      sload\n      tag_54\n      swap1\n      tag_53\n      jump\t// in\n    tag_54:\n      dup1\n      iszero\n      tag_55\n      jumpi\n      dup1\n      0x1f\n      lt\n      tag_56\n      jumpi\n      0x0100\n      dup1\n      dup4\n      sload\n      div\n      mul\n      dup4\n      mstore\n      swap2\n      0x20\n      add\n      swap2\n      jump(tag_55)\n    tag_56:\n      dup3\n      add\n      swap2\n      swap1\n      0x00\n      mstore\n      keccak256(0x00, 0x20)\n      swap1\n    tag_57:\n      dup2\n      sload\n      dup2\n      mstore\n      swap1\n      0x01\n      add\n      swap1\n      0x20\n      add\n      dup1\n      dup4\n      gt\n      tag_57\n      jumpi\n      dup3\n      swap1\n      sub\n      0x1f\n      and\n      dup3\n      add\n      swap2\n    tag_55:\n      pop\n      pop\n      pop\n      pop\n      pop\n      dup2\n      mstore\n      0x20\n      add\n      0x01\n      dup3\n      add\n      sload\n      dup2\n      mstore\n      0x20\n      add\n      0x02\n      dup3\n      add\n      dup1\n      sload\n      tag_58\n      swap1\n      tag_53\n      jump\t// in\n    tag_58:\n      dup1\n      0x1f\n      add\n      0x20\n      dup1\n      swap2\n      div\n      mul\n      0x20\n      add\n      mload(0x40)\n      swap1\n      dup2\n      add\n      0x40\n      mstore\n      dup1\n      swap3\n      swap2\n      swap1\n      dup2\n      dup2\n      mstore\n      0x20\n      add\n      dup3\n      dup1\n      sload\n      tag_59\n      swap1\n      tag_53\n      jump\t// in\n    tag_59:\n      dup1\n      iszero\n      tag_60\n      jumpi\n      dup1\n      0x1f\n      lt\n      tag_61\n      jumpi\n      0x0100\n      dup1\n      dup4\n      sload\n      div\n      mul\n      dup4\n      mstore\n      swap2\n      0x20\n      add\n      swap2\n      jump(tag_60)\n    tag_61:\n      dup3\n      add\n      swap2\n      swap1\n      0x00\n      mstore\n      keccak256(0x00, 0x20)\n      swap1\n    tag_62:\n      dup2\n      sload\n      dup2\n      mstore\n      swap1\n      0x01\n      add\n      swap1\n      0x20\n      add\n      dup1\n      dup4\n      gt\n      tag_62\n      jumpi\n      dup3\n      swap1\n      sub\n      0x1f\n      and\n      dup3\n      add\n      swap2\n    tag_60:\n      pop\n      pop\n      pop\n      pop\n      pop\n      dup2\n      mstore\n      0x20\n      add\n      0x03\n      dup3\n      add\n      dup1\n      sload\n      tag_63\n      swap1\n      tag_53\n      jump\t// in\n    tag_63:\n      dup1\n      0x1f\n      add\n      0x20\n      dup1\n      swap2\n      div\n      mul\n      0x20\n      add\n      mload(0x40)\n      swap1\n      dup2\n      add\n      0x40\n      mstore\n      dup1\n      swap3\n      swap2\n      swap1\n      dup2\n      dup2\n      mstore\n      0x20\n      add\n      dup3\n      dup1\n      sload\n      tag_64\n      swap1\n      tag_53\n      jump\t// in\n    tag_64:\n      dup1\n      iszero\n      tag_65\n      jumpi\n      dup1\n      0x1f\n      lt\n      tag_66\n      jumpi\n      0x0100\n      dup1\n      dup4\n      sload\n      div\n      mul\n      dup4\n      mstore\n      swap2\n      0x20\n      add\n      swap2\n      jump(tag_65)\n    tag_66:\n      dup3\n      add\n      swap2\n      swap1\n      0x00\n      mstore\n      keccak256(0x00, 0x20)\n      swap1\n    tag_67:\n      dup2\n      sload\n      dup2\n      mstore\n      swap1\n      0x01\n      add\n      swap1\n      0x20\n      add\n      dup1\n      dup4\n      gt\n      tag_67\n      jumpi\n      dup3\n      swap1\n      sub\n      0x1f\n      and\n      dup3\n      add\n      swap2\n    tag_65:\n      pop\n      pop\n      pop\n      pop\n      pop\n      dup2\n      mstore\n      pop\n      pop\n      dup2\n      mstore\n      0x20\n      add\n      swap1\n      0x01\n      add\n      swap1\n      jump(tag_49)\n    tag_50:\n      pop\n      pop\n      pop\n      pop\n      swap1\n      pop\n        /* \"contracts/VendingMachine.sol\":3931:4043  function getAllProducts() public view returns (ProductLibrary.Product[] memory) {... */\n      swap1\n      jump\t// out\n        /* \"contracts/VendingMachine.sol\":4957:6018  function getAllPurchases(address _buyer) public view returns (ProductLibrary.PurchaseInfo[] memory) {... */\n    tag_20:\n        /* \"contracts/VendingMachine.sol\":5019:5055  ProductLibrary.PurchaseInfo[] memory */\n      0x60\n        /* \"contracts/VendingMachine.sol\":5067:5077  uint count */\n      0x00\n        /* \"contracts/VendingMachine.sol\":5096:5102  uint i */\n      dup1\n        /* \"contracts/VendingMachine.sol\":5091:5233  for (uint i = 0; i < purchases.length; i++) {... */\n    tag_69:\n        /* \"contracts/VendingMachine.sol\":5112:5121  purchases */\n      0x03\n        /* \"contracts/VendingMachine.sol\":5112:5128  purchases.length */\n      dup1\n      sload\n      swap1\n      pop\n        /* \"contracts/VendingMachine.sol\":5108:5109  i */\n      dup2\n        /* \"contracts/VendingMachine.sol\":5108:5128  i < purchases.length */\n      lt\n        /* \"contracts/VendingMachine.sol\":5091:5233  for (uint i = 0; i < purchases.length; i++) {... */\n      iszero\n      tag_70\n      jumpi\n        /* \"contracts/VendingMachine.sol\":5175:5181  _buyer */\n      dup4\n        /* \"contracts/VendingMachine.sol\":5153:5181  purchases[i].buyer == _buyer */\n      0xffffffffffffffffffffffffffffffffffffffff\n      and\n        /* \"contracts/VendingMachine.sol\":5153:5162  purchases */\n      0x03\n        /* \"contracts/VendingMachine.sol\":5163:5164  i */\n      dup3\n        /* \"contracts/VendingMachine.sol\":5153:5165  purchases[i] */\n      dup2\n      sload\n      dup2\n      lt\n      tag_72\n      jumpi\n      tag_73\n      tag_74\n      jump\t// in\n    tag_73:\n    tag_72:\n      swap1\n      0x00\n      mstore\n      keccak256(0x00, 0x20)\n      swap1\n      0x04\n      mul\n      add\n        /* \"contracts/VendingMachine.sol\":5153:5171  purchases[i].buyer */\n      0x00\n      add\n      0x00\n      swap1\n      sload\n      swap1\n      0x0100\n      exp\n      swap1\n      div\n      0xffffffffffffffffffffffffffffffffffffffff\n      and\n        /* \"contracts/VendingMachine.sol\":5153:5181  purchases[i].buyer == _buyer */\n      0xffffffffffffffffffffffffffffffffffffffff\n      and\n      sub\n        /* \"contracts/VendingMachine.sol\":5149:5223  if (purchases[i].buyer == _buyer) {... */\n      tag_76\n      jumpi\n        /* \"contracts/VendingMachine.sol\":5201:5208  count++ */\n      dup2\n      dup1\n      tag_77\n      swap1\n      tag_78\n      jump\t// in\n    tag_77:\n      swap3\n      pop\n      pop\n        /* \"contracts/VendingMachine.sol\":5149:5223  if (purchases[i].buyer == _buyer) {... */\n    tag_76:\n        /* \"contracts/VendingMachine.sol\":5130:5133  i++ */\n      dup1\n      dup1\n      0x01\n      add\n      swap2\n      pop\n      pop\n        /* \"contracts/VendingMachine.sol\":5091:5233  for (uint i = 0; i < purchases.length; i++) {... */\n      jump(tag_69)\n    tag_70:\n      pop\n        /* \"contracts/VendingMachine.sol\":5243:5286  ProductLibrary.PurchaseInfo[] memory result */\n      0x00\n        /* \"contracts/VendingMachine.sol\":5323:5328  count */\n      dup2\n        /* \"contracts/VendingMachine.sol\":5289:5329  new ProductLibrary.PurchaseInfo[](count) */\n      0xffffffffffffffff\n      dup2\n      gt\n      iszero\n      tag_79\n      jumpi\n      tag_80\n      tag_81\n      jump\t// in\n    tag_80:\n    tag_79:\n      mload(0x40)\n      swap1\n      dup1\n      dup3\n      mstore\n      dup1\n      0x20\n      mul\n      0x20\n      add\n      dup3\n      add\n      0x40\n      mstore\n      dup1\n      iszero\n      tag_82\n      jumpi\n      dup2\n      0x20\n      add\n    tag_83:\n      tag_84\n      tag_85\n      jump\t// in\n    tag_84:\n      dup2\n      mstore\n      0x20\n      add\n      swap1\n      0x01\n      swap1\n      sub\n      swap1\n      dup2\n      tag_83\n      jumpi\n      swap1\n      pop\n    tag_82:\n      pop\n        /* \"contracts/VendingMachine.sol\":5243:5329  ProductLibrary.PurchaseInfo[] memory result = new ProductLibrary.PurchaseInfo[](count) */\n      swap1\n      pop\n        /* \"contracts/VendingMachine.sol\":5339:5349  uint index */\n      0x00\n        /* \"contracts/VendingMachine.sol\":5368:5374  uint i */\n      dup1\n        /* \"contracts/VendingMachine.sol\":5363:5989  for (uint i = 0; i < purchases.length; i++) {... */\n    tag_86:\n        /* \"contracts/VendingMachine.sol\":5384:5393  purchases */\n      0x03\n        /* \"contracts/VendingMachine.sol\":5384:5400  purchases.length */\n      dup1\n      sload\n      swap1\n      pop\n        /* \"contracts/VendingMachine.sol\":5380:5381  i */\n      dup2\n        /* \"contracts/VendingMachine.sol\":5380:5400  i < purchases.length */\n      lt\n        /* \"contracts/VendingMachine.sol\":5363:5989  for (uint i = 0; i < purchases.length; i++) {... */\n      iszero\n      tag_87\n      jumpi\n        /* \"contracts/VendingMachine.sol\":5447:5453  _buyer */\n      dup6\n        /* \"contracts/VendingMachine.sol\":5425:5453  purchases[i].buyer == _buyer */\n      0xffffffffffffffffffffffffffffffffffffffff\n      and\n        /* \"contracts/VendingMachine.sol\":5425:5434  purchases */\n      0x03\n        /* \"contracts/VendingMachine.sol\":5435:5436  i */\n      dup3\n        /* \"contracts/VendingMachine.sol\":5425:5437  purchases[i] */\n      dup2\n      sload\n      dup2\n      lt\n      tag_89\n      jumpi\n      tag_90\n      tag_74\n      jump\t// in\n    tag_90:\n    tag_89:\n      swap1\n      0x00\n      mstore\n      keccak256(0x00, 0x20)\n      swap1\n      0x04\n      mul\n      add\n        /* \"contracts/VendingMachine.sol\":5425:5443  purchases[i].buyer */\n      0x00\n      add\n      0x00\n      swap1\n      sload\n      swap1\n      0x0100\n      exp\n      swap1\n      div\n      0xffffffffffffffffffffffffffffffffffffffff\n      and\n        /* \"contracts/VendingMachine.sol\":5425:5453  purchases[i].buyer == _buyer */\n      0xffffffffffffffffffffffffffffffffffffffff\n      and\n      sub\n        /* \"contracts/VendingMachine.sol\":5421:5979  if (purchases[i].buyer == _buyer) {... */\n      tag_92\n      jumpi\n        /* \"contracts/VendingMachine.sol\":5473:5510  ProductLibrary.Product memory product */\n      0x00\n        /* \"contracts/VendingMachine.sol\":5513:5553  getProductByCode(purchases[i].productId) */\n      tag_93\n        /* \"contracts/VendingMachine.sol\":5530:5539  purchases */\n      0x03\n        /* \"contracts/VendingMachine.sol\":5540:5541  i */\n      dup4\n        /* \"contracts/VendingMachine.sol\":5530:5542  purchases[i] */\n      dup2\n      sload\n      dup2\n      lt\n      tag_94\n      jumpi\n      tag_95\n      tag_74\n      jump\t// in\n    tag_95:\n    tag_94:\n      swap1\n      0x00\n      mstore\n      keccak256(0x00, 0x20)\n      swap1\n      0x04\n      mul\n      add\n        /* \"contracts/VendingMachine.sol\":5530:5552  purchases[i].productId */\n      0x01\n      add\n        /* \"contracts/VendingMachine.sol\":5513:5553  getProductByCode(purchases[i].productId) */\n      dup1\n      sload\n      tag_97\n      swap1\n      tag_53\n      jump\t// in\n    tag_97:\n      dup1\n      0x1f\n      add\n      0x20\n      dup1\n      swap2\n      div\n      mul\n      0x20\n      add\n      mload(0x40)\n      swap1\n      dup2\n      add\n      0x40\n      mstore\n      dup1\n      swap3\n      swap2\n      swap1\n      dup2\n      dup2\n      mstore\n      0x20\n      add\n      dup3\n      dup1\n      sload\n      tag_98\n      swap1\n      tag_53\n      jump\t// in\n    tag_98:\n      dup1\n      iszero\n      tag_99\n      jumpi\n      dup1\n      0x1f\n      lt\n      tag_100\n      jumpi\n      0x0100\n      dup1\n      dup4\n      sload\n      div\n      mul\n      dup4\n      mstore\n      swap2\n      0x20\n      add\n      swap2\n      jump(tag_99)\n    tag_100:\n      dup3\n      add\n      swap2\n      swap1\n      0x00\n      mstore\n      keccak256(0x00, 0x20)\n      swap1\n    tag_101:\n      dup2\n      sload\n      dup2\n      mstore\n      swap1\n      0x01\n      add\n      swap1\n      0x20\n      add\n      dup1\n      dup4\n      gt\n      tag_101\n      jumpi\n      dup3\n      swap1\n      sub\n      0x1f\n      and\n      dup3\n      add\n      swap2\n    tag_99:\n      pop\n      pop\n      pop\n      pop\n      pop\n        /* \"contracts/VendingMachine.sol\":5513:5529  getProductByCode */\n      tag_102\n        /* \"contracts/VendingMachine.sol\":5513:5553  getProductByCode(purchases[i].productId) */\n      jump\t// in\n    tag_93:\n        /* \"contracts/VendingMachine.sol\":5473:5553  ProductLibrary.Product memory product = getProductByCode(purchases[i].productId) */\n      swap1\n      pop\n        /* \"contracts/VendingMachine.sol\":5587:5939  ProductLibrary.PurchaseInfo({... */\n      mload(0x40)\n      dup1\n      0xc0\n      add\n      0x40\n      mstore\n      dup1\n        /* \"contracts/VendingMachine.sol\":5641:5642  i */\n      dup4\n        /* \"contracts/VendingMachine.sol\":5587:5939  ProductLibrary.PurchaseInfo({... */\n      dup2\n      mstore\n      0x20\n      add\n        /* \"contracts/VendingMachine.sol\":5670:5677  product */\n      dup3\n        /* \"contracts/VendingMachine.sol\":5670:5682  product.name */\n      0x40\n      add\n      mload\n        /* \"contracts/VendingMachine.sol\":5587:5939  ProductLibrary.PurchaseInfo({... */\n      dup2\n      mstore\n      0x20\n      add\n        /* \"contracts/VendingMachine.sol\":5711:5718  product */\n      dup3\n        /* \"contracts/VendingMachine.sol\":5711:5727  product.imageCID */\n      0x60\n      add\n      mload\n        /* \"contracts/VendingMachine.sol\":5587:5939  ProductLibrary.PurchaseInfo({... */\n      dup2\n      mstore\n      0x20\n      add\n        /* \"contracts/VendingMachine.sol\":5756:5763  product */\n      dup3\n        /* \"contracts/VendingMachine.sol\":5756:5769  product.price */\n      0x20\n      add\n      mload\n        /* \"contracts/VendingMachine.sol\":5587:5939  ProductLibrary.PurchaseInfo({... */\n      dup2\n      mstore\n      0x20\n      add\n        /* \"contracts/VendingMachine.sol\":5805:5814  purchases */\n      0x03\n        /* \"contracts/VendingMachine.sol\":5815:5816  i */\n      dup5\n        /* \"contracts/VendingMachine.sol\":5805:5817  purchases[i] */\n      dup2\n      sload\n      dup2\n      lt\n      tag_103\n      jumpi\n      tag_104\n      tag_74\n      jump\t// in\n    tag_104:\n    tag_103:\n      swap1\n      0x00\n      mstore\n      keccak256(0x00, 0x20)\n      swap1\n      0x04\n      mul\n      add\n        /* \"contracts/VendingMachine.sol\":5805:5827  purchases[i].timestamp */\n      0x02\n      add\n      sload\n        /* \"contracts/VendingMachine.sol\":5587:5939  ProductLibrary.PurchaseInfo({... */\n      dup2\n      mstore\n      0x20\n      add\n        /* \"contracts/VendingMachine.sol\":5882:5920  ProductLibrary.PurchaseStatus.Consumed */\n      0x01\n        /* \"contracts/VendingMachine.sol\":5859:5920  purchases[i].status == ProductLibrary.PurchaseStatus.Consumed */\n      dup1\n      dup2\n      gt\n      iszero\n      tag_106\n      jumpi\n      tag_107\n      tag_108\n      jump\t// in\n    tag_107:\n    tag_106:\n        /* \"contracts/VendingMachine.sol\":5859:5868  purchases */\n      0x03\n        /* \"contracts/VendingMachine.sol\":5869:5870  i */\n      dup6\n        /* \"contracts/VendingMachine.sol\":5859:5871  purchases[i] */\n      dup2\n      sload\n      dup2\n      lt\n      tag_109\n      jumpi\n      tag_110\n      tag_74\n      jump\t// in\n    tag_110:\n    tag_109:\n      swap1\n      0x00\n      mstore\n      keccak256(0x00, 0x20)\n      swap1\n      0x04\n      mul\n      add\n        /* \"contracts/VendingMachine.sol\":5859:5878  purchases[i].status */\n      0x03\n      add\n      0x00\n      swap1\n      sload\n      swap1\n      0x0100\n      exp\n      swap1\n      div\n      0xff\n      and\n        /* \"contracts/VendingMachine.sol\":5859:5920  purchases[i].status == ProductLibrary.PurchaseStatus.Consumed */\n      0x01\n      dup2\n      gt\n      iszero\n      tag_112\n      jumpi\n      tag_113\n      tag_108\n      jump\t// in\n    tag_113:\n    tag_112:\n      eq\n        /* \"contracts/VendingMachine.sol\":5587:5939  ProductLibrary.PurchaseInfo({... */\n      iszero\n      iszero\n      dup2\n      mstore\n      pop\n        /* \"contracts/VendingMachine.sol\":5571:5577  result */\n      dup5\n        /* \"contracts/VendingMachine.sol\":5578:5583  index */\n      dup5\n        /* \"contracts/VendingMachine.sol\":5571:5584  result[index] */\n      dup2\n      mload\n      dup2\n      lt\n      tag_114\n      jumpi\n      tag_115\n      tag_74\n      jump\t// in\n    tag_115:\n    tag_114:\n      0x20\n      mul\n      0x20\n      add\n      add\n        /* \"contracts/VendingMachine.sol\":5571:5939  result[index] = ProductLibrary.PurchaseInfo({... */\n      dup2\n      swap1\n      mstore\n      pop\n        /* \"contracts/VendingMachine.sol\":5957:5964  index++ */\n      dup3\n      dup1\n      tag_116\n      swap1\n      tag_78\n      jump\t// in\n    tag_116:\n      swap4\n      pop\n      pop\n        /* \"contracts/VendingMachine.sol\":5455:5979  {... */\n      pop\n        /* \"contracts/VendingMachine.sol\":5421:5979  if (purchases[i].buyer == _buyer) {... */\n    tag_92:\n        /* \"contracts/VendingMachine.sol\":5402:5405  i++ */\n      dup1\n      dup1\n      0x01\n      add\n      swap2\n      pop\n      pop\n        /* \"contracts/VendingMachine.sol\":5363:5989  for (uint i = 0; i < purchases.length; i++) {... */\n      jump(tag_86)\n    tag_87:\n      pop\n        /* \"contracts/VendingMachine.sol\":6005:6011  result */\n      dup2\n        /* \"contracts/VendingMachine.sol\":5998:6011  return result */\n      swap4\n      pop\n      pop\n      pop\n      pop\n        /* \"contracts/VendingMachine.sol\":4957:6018  function getAllPurchases(address _buyer) public view returns (ProductLibrary.PurchaseInfo[] memory) {... */\n      swap2\n      swap1\n      pop\n      jump\t// out\n        /* \"contracts/VendingMachine.sol\":4247:4340  function getBalance() public view returns (uint) {... */\n    tag_25:\n        /* \"contracts/VendingMachine.sol\":4290:4294  uint */\n      0x00\n        /* \"contracts/VendingMachine.sol\":4313:4321  balances */\n      0x02\n        /* \"contracts/VendingMachine.sol\":4313:4333  balances[msg.sender] */\n      0x00\n        /* \"contracts/VendingMachine.sol\":4322:4332  msg.sender */\n      caller\n        /* \"contracts/VendingMachine.sol\":4313:4333  balances[msg.sender] */\n      0xffffffffffffffffffffffffffffffffffffffff\n      and\n      0xffffffffffffffffffffffffffffffffffffffff\n      and\n      dup2\n      mstore\n      0x20\n      add\n      swap1\n      dup2\n      mstore\n      0x20\n      add\n      0x00\n      keccak256\n      sload\n        /* \"contracts/VendingMachine.sol\":4306:4333  return balances[msg.sender] */\n      swap1\n      pop\n        /* \"contracts/VendingMachine.sol\":4247:4340  function getBalance() public view returns (uint) {... */\n      swap1\n      jump\t// out\n        /* \"contracts/VendingMachine.sol\":4350:4951  function purchaseProduct(string memory _productId) public {... */\n    tag_32:\n        /* \"contracts/VendingMachine.sol\":4418:4435  uint productPrice */\n      0x00\n        /* \"contracts/VendingMachine.sol\":4438:4466  getProductByCode(_productId) */\n      tag_119\n        /* \"contracts/VendingMachine.sol\":4455:4465  _productId */\n      dup3\n        /* \"contracts/VendingMachine.sol\":4438:4454  getProductByCode */\n      tag_102\n        /* \"contracts/VendingMachine.sol\":4438:4466  getProductByCode(_productId) */\n      jump\t// in\n    tag_119:\n        /* \"contracts/VendingMachine.sol\":4438:4472  getProductByCode(_productId).price */\n      0x20\n      add\n      mload\n        /* \"contracts/VendingMachine.sol\":4418:4472  uint productPrice = getProductByCode(_productId).price */\n      swap1\n      pop\n        /* \"contracts/VendingMachine.sol\":4514:4526  productPrice */\n      dup1\n        /* \"contracts/VendingMachine.sol\":4490:4498  balances */\n      0x02\n        /* \"contracts/VendingMachine.sol\":4490:4510  balances[msg.sender] */\n      0x00\n        /* \"contracts/VendingMachine.sol\":4499:4509  msg.sender */\n      caller\n        /* \"contracts/VendingMachine.sol\":4490:4510  balances[msg.sender] */\n      0xffffffffffffffffffffffffffffffffffffffff\n      and\n      0xffffffffffffffffffffffffffffffffffffffff\n      and\n      dup2\n      mstore\n      0x20\n      add\n      swap1\n      dup2\n      mstore\n      0x20\n      add\n      0x00\n      keccak256\n      sload\n        /* \"contracts/VendingMachine.sol\":4490:4526  balances[msg.sender] >= productPrice */\n      lt\n      iszero\n        /* \"contracts/VendingMachine.sol\":4482:4549  require(balances[msg.sender] >= productPrice, \"Insufficient funds\") */\n      tag_120\n      jumpi\n      mload(0x40)\n      0x08c379a000000000000000000000000000000000000000000000000000000000\n      dup2\n      mstore\n      0x04\n      add\n      tag_121\n      swap1\n      tag_122\n      jump\t// in\n    tag_121:\n      mload(0x40)\n      dup1\n      swap2\n      sub\n      swap1\n      revert\n    tag_120:\n        /* \"contracts/VendingMachine.sol\":4584:4596  productPrice */\n      dup1\n        /* \"contracts/VendingMachine.sol\":4560:4568  balances */\n      0x02\n        /* \"contracts/VendingMachine.sol\":4560:4580  balances[msg.sender] */\n      0x00\n        /* \"contracts/VendingMachine.sol\":4569:4579  msg.sender */\n      caller\n        /* \"contracts/VendingMachine.sol\":4560:4580  balances[msg.sender] */\n      0xffffffffffffffffffffffffffffffffffffffff\n      and\n      0xffffffffffffffffffffffffffffffffffffffff\n      and\n      dup2\n      mstore\n      0x20\n      add\n      swap1\n      dup2\n      mstore\n      0x20\n      add\n      0x00\n      keccak256\n      0x00\n        /* \"contracts/VendingMachine.sol\":4560:4596  balances[msg.sender] -= productPrice */\n      dup3\n      dup3\n      sload\n      tag_123\n      swap2\n      swap1\n      tag_124\n      jump\t// in\n    tag_123:\n      swap3\n      pop\n      pop\n      dup2\n      swap1\n      sstore\n      pop\n        /* \"contracts/VendingMachine.sol\":4606:4615  purchases */\n      0x03\n        /* \"contracts/VendingMachine.sol\":4621:4787  ProductLibrary.Purchase(... */\n      mload(0x40)\n      dup1\n      0x80\n      add\n      0x40\n      mstore\n      dup1\n        /* \"contracts/VendingMachine.sol\":4658:4668  msg.sender */\n      caller\n        /* \"contracts/VendingMachine.sol\":4621:4787  ProductLibrary.Purchase(... */\n      0xffffffffffffffffffffffffffffffffffffffff\n      and\n      dup2\n      mstore\n      0x20\n      add\n        /* \"contracts/VendingMachine.sol\":4683:4693  _productId */\n      dup5\n        /* \"contracts/VendingMachine.sol\":4621:4787  ProductLibrary.Purchase(... */\n      dup2\n      mstore\n      0x20\n      add\n        /* \"contracts/VendingMachine.sol\":4708:4723  block.timestamp */\n      timestamp\n        /* \"contracts/VendingMachine.sol\":4621:4787  ProductLibrary.Purchase(... */\n      dup2\n      mstore\n      0x20\n      add\n        /* \"contracts/VendingMachine.sol\":4738:4777  ProductLibrary.PurchaseStatus.Available */\n      0x00\n        /* \"contracts/VendingMachine.sol\":4621:4787  ProductLibrary.Purchase(... */\n      0x01\n      dup2\n      gt\n      iszero\n      tag_125\n      jumpi\n      tag_126\n      tag_108\n      jump\t// in\n    tag_126:\n    tag_125:\n      dup2\n      mstore\n      pop\n        /* \"contracts/VendingMachine.sol\":4606:4788  purchases.push(ProductLibrary.Purchase(... */\n      swap1\n      dup1\n      0x01\n      dup2\n      sload\n      add\n      dup1\n      dup3\n      sstore\n      dup1\n      swap2\n      pop\n      pop\n      0x01\n      swap1\n      sub\n      swap1\n      0x00\n      mstore\n      keccak256(0x00, 0x20)\n      swap1\n      0x04\n      mul\n      add\n      0x00\n      swap1\n      swap2\n      swap1\n      swap2\n      swap1\n      swap2\n      pop\n      0x00\n      dup3\n      add\n      mload\n      dup2\n      0x00\n      add\n      exp(0x0100, 0x00)\n      dup2\n      sload\n      dup2\n      0xffffffffffffffffffffffffffffffffffffffff\n      mul\n      not\n      and\n      swap1\n      dup4\n      0xffffffffffffffffffffffffffffffffffffffff\n      and\n      mul\n      or\n      swap1\n      sstore\n      pop\n      0x20\n      dup3\n      add\n      mload\n      dup2\n      0x01\n      add\n      swap1\n      dup2\n      tag_128\n      swap2\n      swap1\n      tag_129\n      jump\t// in\n    tag_128:\n      pop\n      0x40\n      dup3\n      add\n      mload\n      dup2\n      0x02\n      add\n      sstore\n      0x60\n      dup3\n      add\n      mload\n      dup2\n      0x03\n      add\n      exp(0x0100, 0x00)\n      dup2\n      sload\n      dup2\n      0xff\n      mul\n      not\n      and\n      swap1\n      dup4\n      0x01\n      dup2\n      gt\n      iszero\n      tag_130\n      jumpi\n      tag_131\n      tag_108\n      jump\t// in\n    tag_131:\n    tag_130:\n      mul\n      or\n      swap1\n      sstore\n      pop\n      pop\n      pop\n        /* \"contracts/VendingMachine.sol\":4842:4852  msg.sender */\n      caller\n        /* \"contracts/VendingMachine.sol\":4812:4944  ProductPurchased(... */\n      0xffffffffffffffffffffffffffffffffffffffff\n      and\n      0x63d8e5c0bf4559e61ee479385882367114d00d044cdbf28449bf437737db31af\n        /* \"contracts/VendingMachine.sol\":4867:4877  _productId */\n      dup4\n        /* \"contracts/VendingMachine.sol\":4892:4904  productPrice */\n      dup4\n        /* \"contracts/VendingMachine.sol\":4919:4934  block.timestamp */\n      timestamp\n        /* \"contracts/VendingMachine.sol\":4812:4944  ProductPurchased(... */\n      mload(0x40)\n      tag_132\n      swap4\n      swap3\n      swap2\n      swap1\n      tag_133\n      jump\t// in\n    tag_132:\n      mload(0x40)\n      dup1\n      swap2\n      sub\n      swap1\n      log2\n        /* \"contracts/VendingMachine.sol\":4408:4951  {... */\n      pop\n        /* \"contracts/VendingMachine.sol\":4350:4951  function purchaseProduct(string memory _productId) public {... */\n      pop\n      jump\t// out\n        /* \"contracts/VendingMachine.sol\":6510:6859  function withdraw() public onlyOwner noReentrant {... */\n    tag_35:\n        /* \"contracts/VendingMachine.sol\":1041:1046  owner */\n      0x00\n      dup1\n      sload\n      swap1\n      0x0100\n      exp\n      swap1\n      div\n      0xffffffffffffffffffffffffffffffffffffffff\n      and\n        /* \"contracts/VendingMachine.sol\":1027:1046  msg.sender == owner */\n      0xffffffffffffffffffffffffffffffffffffffff\n      and\n        /* \"contracts/VendingMachine.sol\":1027:1037  msg.sender */\n      caller\n        /* \"contracts/VendingMachine.sol\":1027:1046  msg.sender == owner */\n      0xffffffffffffffffffffffffffffffffffffffff\n      and\n      eq\n        /* \"contracts/VendingMachine.sol\":1019:1084  require(msg.sender == owner, \"Only owner can call this function\") */\n      tag_135\n      jumpi\n      mload(0x40)\n      0x08c379a000000000000000000000000000000000000000000000000000000000\n      dup2\n      mstore\n      0x04\n      add\n      tag_136\n      swap1\n      tag_137\n      jump\t// in\n    tag_136:\n      mload(0x40)\n      dup1\n      swap2\n      sub\n      swap1\n      revert\n    tag_135:\n        /* \"contracts/VendingMachine.sol\":1145:1151  locked */\n      0x00\n      0x14\n      swap1\n      sload\n      swap1\n      0x0100\n      exp\n      swap1\n      div\n      0xff\n      and\n        /* \"contracts/VendingMachine.sol\":1141:1212  if (locked) {... */\n      iszero\n      tag_139\n      jumpi\n        /* \"contracts/VendingMachine.sol\":1190:1200  msg.sender */\n      caller\n        /* \"contracts/VendingMachine.sol\":1172:1201  ReentrancyAttempt(msg.sender) */\n      0xffffffffffffffffffffffffffffffffffffffff\n      and\n      0xc76eaf55fe0c62418848780c99c0c94a15f79b80bca75629b0b8bd07678f55b6\n      mload(0x40)\n      mload(0x40)\n      dup1\n      swap2\n      sub\n      swap1\n      log2\n        /* \"contracts/VendingMachine.sol\":1141:1212  if (locked) {... */\n    tag_139:\n        /* \"contracts/VendingMachine.sol\":1230:1236  locked */\n      0x00\n      0x14\n      swap1\n      sload\n      swap1\n      0x0100\n      exp\n      swap1\n      div\n      0xff\n      and\n        /* \"contracts/VendingMachine.sol\":1229:1236  !locked */\n      iszero\n        /* \"contracts/VendingMachine.sol\":1221:1254  require(!locked, \"No reentrancy\") */\n      tag_140\n      jumpi\n      mload(0x40)\n      0x08c379a000000000000000000000000000000000000000000000000000000000\n      dup2\n      mstore\n      0x04\n      add\n      tag_141\n      swap1\n      tag_142\n      jump\t// in\n    tag_141:\n      mload(0x40)\n      dup1\n      swap2\n      sub\n      swap1\n      revert\n    tag_140:\n        /* \"contracts/VendingMachine.sol\":1273:1277  true */\n      0x01\n        /* \"contracts/VendingMachine.sol\":1264:1270  locked */\n      0x00\n      0x14\n        /* \"contracts/VendingMachine.sol\":1264:1277  locked = true */\n      0x0100\n      exp\n      dup2\n      sload\n      dup2\n      0xff\n      mul\n      not\n      and\n      swap1\n      dup4\n      iszero\n      iszero\n      mul\n      or\n      swap1\n      sstore\n      pop\n        /* \"contracts/VendingMachine.sol\":6569:6580  uint amount */\n      0x00\n        /* \"contracts/VendingMachine.sol\":6583:6591  balances */\n      0x02\n        /* \"contracts/VendingMachine.sol\":6583:6603  balances[msg.sender] */\n      0x00\n        /* \"contracts/VendingMachine.sol\":6592:6602  msg.sender */\n      caller\n        /* \"contracts/VendingMachine.sol\":6583:6603  balances[msg.sender] */\n      0xffffffffffffffffffffffffffffffffffffffff\n      and\n      0xffffffffffffffffffffffffffffffffffffffff\n      and\n      dup2\n      mstore\n      0x20\n      add\n      swap1\n      dup2\n      mstore\n      0x20\n      add\n      0x00\n      keccak256\n      sload\n        /* \"contracts/VendingMachine.sol\":6569:6603  uint amount = balances[msg.sender] */\n      swap1\n      pop\n        /* \"contracts/VendingMachine.sol\":6630:6631  0 */\n      0x00\n        /* \"contracts/VendingMachine.sol\":6621:6627  amount */\n      dup2\n        /* \"contracts/VendingMachine.sol\":6621:6631  amount > 0 */\n      gt\n        /* \"contracts/VendingMachine.sol\":6613:6664  require(amount > 0, \"You do not have any balance.\") */\n      tag_144\n      jumpi\n      mload(0x40)\n      0x08c379a000000000000000000000000000000000000000000000000000000000\n      dup2\n      mstore\n      0x04\n      add\n      tag_145\n      swap1\n      tag_146\n      jump\t// in\n    tag_145:\n      mload(0x40)\n      dup1\n      swap2\n      sub\n      swap1\n      revert\n    tag_144:\n        /* \"contracts/VendingMachine.sol\":6697:6698  0 */\n      0x00\n        /* \"contracts/VendingMachine.sol\":6674:6682  balances */\n      0x02\n        /* \"contracts/VendingMachine.sol\":6674:6694  balances[msg.sender] */\n      0x00\n        /* \"contracts/VendingMachine.sol\":6683:6693  msg.sender */\n      caller\n        /* \"contracts/VendingMachine.sol\":6674:6694  balances[msg.sender] */\n      0xffffffffffffffffffffffffffffffffffffffff\n      and\n      0xffffffffffffffffffffffffffffffffffffffff\n      and\n      dup2\n      mstore\n      0x20\n      add\n      swap1\n      dup2\n      mstore\n      0x20\n      add\n      0x00\n      keccak256\n        /* \"contracts/VendingMachine.sol\":6674:6698  balances[msg.sender] = 0 */\n      dup2\n      swap1\n      sstore\n      pop\n        /* \"contracts/VendingMachine.sol\":6709:6721  bool success */\n      0x00\n        /* \"contracts/VendingMachine.sol\":6727:6737  msg.sender */\n      caller\n        /* \"contracts/VendingMachine.sol\":6727:6742  msg.sender.call */\n      0xffffffffffffffffffffffffffffffffffffffff\n      and\n        /* \"contracts/VendingMachine.sol\":6750:6756  amount */\n      dup3\n        /* \"contracts/VendingMachine.sol\":6727:6761  msg.sender.call{value: amount}(\"\") */\n      mload(0x40)\n      tag_147\n      swap1\n      tag_148\n      jump\t// in\n    tag_147:\n      0x00\n      mload(0x40)\n      dup1\n      dup4\n      sub\n      dup2\n      dup6\n      dup8\n      gas\n      call\n      swap3\n      pop\n      pop\n      pop\n      returndatasize\n      dup1\n      0x00\n      dup2\n      eq\n      tag_151\n      jumpi\n      mload(0x40)\n      swap2\n      pop\n      and(add(returndatasize, 0x3f), not(0x1f))\n      dup3\n      add\n      0x40\n      mstore\n      returndatasize\n      dup3\n      mstore\n      returndatasize\n      0x00\n      0x20\n      dup5\n      add\n      returndatacopy\n      jump(tag_150)\n    tag_151:\n      0x60\n      swap2\n      pop\n    tag_150:\n      pop\n        /* \"contracts/VendingMachine.sol\":6708:6761  (bool success, ) = msg.sender.call{value: amount}(\"\") */\n      pop\n      swap1\n      pop\n        /* \"contracts/VendingMachine.sol\":6779:6786  success */\n      dup1\n        /* \"contracts/VendingMachine.sol\":6771:6807  require(success, \"Transfer failed.\") */\n      tag_152\n      jumpi\n      mload(0x40)\n      0x08c379a000000000000000000000000000000000000000000000000000000000\n      dup2\n      mstore\n      0x04\n      add\n      tag_153\n      swap1\n      tag_154\n      jump\t// in\n    tag_153:\n      mload(0x40)\n      dup1\n      swap2\n      sub\n      swap1\n      revert\n    tag_152:\n        /* \"contracts/VendingMachine.sol\":6833:6843  msg.sender */\n      caller\n        /* \"contracts/VendingMachine.sol\":6822:6852  Withdrawal(msg.sender, amount) */\n      0xffffffffffffffffffffffffffffffffffffffff\n      and\n      0x7fcf532c15f0a6db0bd6d0e038bea71d30d808c7d98cb3bf7268a95bf5081b65\n        /* \"contracts/VendingMachine.sol\":6845:6851  amount */\n      dup4\n        /* \"contracts/VendingMachine.sol\":6822:6852  Withdrawal(msg.sender, amount) */\n      mload(0x40)\n      tag_155\n      swap2\n      swap1\n      tag_27\n      jump\t// in\n    tag_155:\n      mload(0x40)\n      dup1\n      swap2\n      sub\n      swap1\n      log2\n        /* \"contracts/VendingMachine.sol\":6559:6859  {... */\n      pop\n      pop\n        /* \"contracts/VendingMachine.sol\":1307:1312  false */\n      0x00\n        /* \"contracts/VendingMachine.sol\":1298:1304  locked */\n      dup1\n      0x14\n        /* \"contracts/VendingMachine.sol\":1298:1312  locked = false */\n      0x0100\n      exp\n      dup2\n      sload\n      dup2\n      0xff\n      mul\n      not\n      and\n      swap1\n      dup4\n      iszero\n      iszero\n      mul\n      or\n      swap1\n      sstore\n      pop\n        /* \"contracts/VendingMachine.sol\":6510:6859  function withdraw() public onlyOwner noReentrant {... */\n      jump\t// out\n        /* \"contracts/VendingMachine.sol\":120:140  address public owner */\n    tag_38:\n      0x00\n      dup1\n      sload\n      swap1\n      0x0100\n      exp\n      swap1\n      div\n      0xffffffffffffffffffffffffffffffffffffffff\n      and\n      dup2\n      jump\t// out\n        /* \"contracts/VendingMachine.sol\":4049:4241  function addFunds() public payable {... */\n    tag_42:\n        /* \"contracts/VendingMachine.sol\":4114:4115  0 */\n      0x00\n        /* \"contracts/VendingMachine.sol\":4102:4111  msg.value */\n      callvalue\n        /* \"contracts/VendingMachine.sol\":4102:4115  msg.value > 0 */\n      gt\n        /* \"contracts/VendingMachine.sol\":4094:4143  require(msg.value > 0, \"Missing required amount\") */\n      tag_157\n      jumpi\n      mload(0x40)\n      0x08c379a000000000000000000000000000000000000000000000000000000000\n      dup2\n      mstore\n      0x04\n      add\n      tag_158\n      swap1\n      tag_159\n      jump\t// in\n    tag_158:\n      mload(0x40)\n      dup1\n      swap2\n      sub\n      swap1\n      revert\n    tag_157:\n        /* \"contracts/VendingMachine.sol\":4177:4186  msg.value */\n      callvalue\n        /* \"contracts/VendingMachine.sol\":4153:4161  balances */\n      0x02\n        /* \"contracts/VendingMachine.sol\":4153:4173  balances[msg.sender] */\n      0x00\n        /* \"contracts/VendingMachine.sol\":4162:4172  msg.sender */\n      caller\n        /* \"contracts/VendingMachine.sol\":4153:4173  balances[msg.sender] */\n      0xffffffffffffffffffffffffffffffffffffffff\n      and\n      0xffffffffffffffffffffffffffffffffffffffff\n      and\n      dup2\n      mstore\n      0x20\n      add\n      swap1\n      dup2\n      mstore\n      0x20\n      add\n      0x00\n      keccak256\n      0x00\n        /* \"contracts/VendingMachine.sol\":4153:4186  balances[msg.sender] += msg.value */\n      dup3\n      dup3\n      sload\n      tag_160\n      swap2\n      swap1\n      tag_161\n      jump\t// in\n    tag_160:\n      swap3\n      pop\n      pop\n      dup2\n      swap1\n      sstore\n      pop\n        /* \"contracts/VendingMachine.sol\":4212:4222  msg.sender */\n      caller\n        /* \"contracts/VendingMachine.sol\":4201:4234  FundsAdded(msg.sender, msg.value) */\n      0xffffffffffffffffffffffffffffffffffffffff\n      and\n      0x8fe10ae416f22f5e5220b0018a6c1d4ff534d6aa3a471f2a20cb7747fe63e5b9\n        /* \"contracts/VendingMachine.sol\":4224:4233  msg.value */\n      callvalue\n        /* \"contracts/VendingMachine.sol\":4201:4234  FundsAdded(msg.sender, msg.value) */\n      mload(0x40)\n      tag_162\n      swap2\n      swap1\n      tag_27\n      jump\t// in\n    tag_162:\n      mload(0x40)\n      dup1\n      swap2\n      sub\n      swap1\n      log2\n        /* \"contracts/VendingMachine.sol\":4049:4241  function addFunds() public payable {... */\n      jump\t// out\n        /* \"contracts/VendingMachine.sol\":6024:6504  function consumePurchase(uint _purchaseIndex) public {... */\n    tag_47:\n        /* \"contracts/VendingMachine.sol\":6112:6121  purchases */\n      0x03\n        /* \"contracts/VendingMachine.sol\":6112:6128  purchases.length */\n      dup1\n      sload\n      swap1\n      pop\n        /* \"contracts/VendingMachine.sol\":6095:6109  _purchaseIndex */\n      dup2\n        /* \"contracts/VendingMachine.sol\":6095:6128  _purchaseIndex < purchases.length */\n      lt\n        /* \"contracts/VendingMachine.sol\":6087:6146  require(_purchaseIndex < purchases.length, \"Invalid index\") */\n      tag_164\n      jumpi\n      mload(0x40)\n      0x08c379a000000000000000000000000000000000000000000000000000000000\n      dup2\n      mstore\n      0x04\n      add\n      tag_165\n      swap1\n      tag_166\n      jump\t// in\n    tag_165:\n      mload(0x40)\n      dup1\n      swap2\n      sub\n      swap1\n      revert\n    tag_164:\n        /* \"contracts/VendingMachine.sol\":6199:6209  msg.sender */\n      caller\n        /* \"contracts/VendingMachine.sol\":6164:6209  purchases[_purchaseIndex].buyer == msg.sender */\n      0xffffffffffffffffffffffffffffffffffffffff\n      and\n        /* \"contracts/VendingMachine.sol\":6164:6173  purchases */\n      0x03\n        /* \"contracts/VendingMachine.sol\":6174:6188  _purchaseIndex */\n      dup3\n        /* \"contracts/VendingMachine.sol\":6164:6189  purchases[_purchaseIndex] */\n      dup2\n      sload\n      dup2\n      lt\n      tag_167\n      jumpi\n      tag_168\n      tag_74\n      jump\t// in\n    tag_168:\n    tag_167:\n      swap1\n      0x00\n      mstore\n      keccak256(0x00, 0x20)\n      swap1\n      0x04\n      mul\n      add\n        /* \"contracts/VendingMachine.sol\":6164:6195  purchases[_purchaseIndex].buyer */\n      0x00\n      add\n      0x00\n      swap1\n      sload\n      swap1\n      0x0100\n      exp\n      swap1\n      div\n      0xffffffffffffffffffffffffffffffffffffffff\n      and\n        /* \"contracts/VendingMachine.sol\":6164:6209  purchases[_purchaseIndex].buyer == msg.sender */\n      0xffffffffffffffffffffffffffffffffffffffff\n      and\n      eq\n        /* \"contracts/VendingMachine.sol\":6156:6231  require(purchases[_purchaseIndex].buyer == msg.sender, \"Not your purchase\") */\n      tag_170\n      jumpi\n      mload(0x40)\n      0x08c379a000000000000000000000000000000000000000000000000000000000\n      dup2\n      mstore\n      0x04\n      add\n      tag_171\n      swap1\n      tag_172\n      jump\t// in\n    tag_171:\n      mload(0x40)\n      dup1\n      swap2\n      sub\n      swap1\n      revert\n    tag_170:\n        /* \"contracts/VendingMachine.sol\":6285:6324  ProductLibrary.PurchaseStatus.Available */\n      0x00\n        /* \"contracts/VendingMachine.sol\":6249:6324  purchases[_purchaseIndex].status == ProductLibrary.PurchaseStatus.Available */\n      0x01\n      dup2\n      gt\n      iszero\n      tag_173\n      jumpi\n      tag_174\n      tag_108\n      jump\t// in\n    tag_174:\n    tag_173:\n        /* \"contracts/VendingMachine.sol\":6249:6258  purchases */\n      0x03\n        /* \"contracts/VendingMachine.sol\":6259:6273  _purchaseIndex */\n      dup3\n        /* \"contracts/VendingMachine.sol\":6249:6274  purchases[_purchaseIndex] */\n      dup2\n      sload\n      dup2\n      lt\n      tag_175\n      jumpi\n      tag_176\n      tag_74\n      jump\t// in\n    tag_176:\n    tag_175:\n      swap1\n      0x00\n      mstore\n      keccak256(0x00, 0x20)\n      swap1\n      0x04\n      mul\n      add\n        /* \"contracts/VendingMachine.sol\":6249:6281  purchases[_purchaseIndex].status */\n      0x03\n      add\n      0x00\n      swap1\n      sload\n      swap1\n      0x0100\n      exp\n      swap1\n      div\n      0xff\n      and\n        /* \"contracts/VendingMachine.sol\":6249:6324  purchases[_purchaseIndex].status == ProductLibrary.PurchaseStatus.Available */\n      0x01\n      dup2\n      gt\n      iszero\n      tag_178\n      jumpi\n      tag_179\n      tag_108\n      jump\t// in\n    tag_179:\n    tag_178:\n      eq\n        /* \"contracts/VendingMachine.sol\":6241:6354  require(purchases[_purchaseIndex].status == ProductLibrary.PurchaseStatus.Available, \"Purchase already consumed\") */\n      tag_180\n      jumpi\n      mload(0x40)\n      0x08c379a000000000000000000000000000000000000000000000000000000000\n      dup2\n      mstore\n      0x04\n      add\n      tag_181\n      swap1\n      tag_182\n      jump\t// in\n    tag_181:\n      mload(0x40)\n      dup1\n      swap2\n      sub\n      swap1\n      revert\n    tag_180:\n        /* \"contracts/VendingMachine.sol\":6400:6438  ProductLibrary.PurchaseStatus.Consumed */\n      0x01\n        /* \"contracts/VendingMachine.sol\":6365:6374  purchases */\n      0x03\n        /* \"contracts/VendingMachine.sol\":6375:6389  _purchaseIndex */\n      dup3\n        /* \"contracts/VendingMachine.sol\":6365:6390  purchases[_purchaseIndex] */\n      dup2\n      sload\n      dup2\n      lt\n      tag_183\n      jumpi\n      tag_184\n      tag_74\n      jump\t// in\n    tag_184:\n    tag_183:\n      swap1\n      0x00\n      mstore\n      keccak256(0x00, 0x20)\n      swap1\n      0x04\n      mul\n      add\n        /* \"contracts/VendingMachine.sol\":6365:6397  purchases[_purchaseIndex].status */\n      0x03\n      add\n      0x00\n        /* \"contracts/VendingMachine.sol\":6365:6438  purchases[_purchaseIndex].status = ProductLibrary.PurchaseStatus.Consumed */\n      0x0100\n      exp\n      dup2\n      sload\n      dup2\n      0xff\n      mul\n      not\n      and\n      swap1\n      dup4\n      0x01\n      dup2\n      gt\n      iszero\n      tag_186\n      jumpi\n      tag_187\n      tag_108\n      jump\t// in\n    tag_187:\n    tag_186:\n      mul\n      or\n      swap1\n      sstore\n      pop\n        /* \"contracts/VendingMachine.sol\":6470:6480  msg.sender */\n      caller\n        /* \"contracts/VendingMachine.sol\":6453:6497  PurchaseConsumed(msg.sender, _purchaseIndex) */\n      0xffffffffffffffffffffffffffffffffffffffff\n      and\n      0xa7c459bc1ada656ec9f3f0e9562dcd1353b12b0fd5cc82657c4cecdc0dba6b82\n        /* \"contracts/VendingMachine.sol\":6482:6496  _purchaseIndex */\n      dup3\n        /* \"contracts/VendingMachine.sol\":6453:6497  PurchaseConsumed(msg.sender, _purchaseIndex) */\n      mload(0x40)\n      tag_188\n      swap2\n      swap1\n      tag_27\n      jump\t// in\n    tag_188:\n      mload(0x40)\n      dup1\n      swap2\n      sub\n      swap1\n      log2\n        /* \"contracts/VendingMachine.sol\":6024:6504  function consumePurchase(uint _purchaseIndex) public {... */\n      pop\n      jump\t// out\n        /* \"contracts/VendingMachine.sol\":3554:3925  function getProductByCode(string memory _productId) private view returns (ProductLibrary.Product memory) {... */\n    tag_102:\n        /* \"contracts/VendingMachine.sol\":3628:3657  ProductLibrary.Product memory */\n      tag_189\n      tag_190\n      jump\t// in\n    tag_189:\n        /* \"contracts/VendingMachine.sol\":3674:3680  uint i */\n      0x00\n        /* \"contracts/VendingMachine.sol\":3669:3882  for (uint i = 0; i < products.length; i++) {... */\n    tag_192:\n        /* \"contracts/VendingMachine.sol\":3690:3698  products */\n      0x01\n        /* \"contracts/VendingMachine.sol\":3690:3705  products.length */\n      dup1\n      sload\n      swap1\n      pop\n        /* \"contracts/VendingMachine.sol\":3686:3687  i */\n      dup2\n        /* \"contracts/VendingMachine.sol\":3686:3705  i < products.length */\n      lt\n        /* \"contracts/VendingMachine.sol\":3669:3882  for (uint i = 0; i < products.length; i++) {... */\n      iszero\n      tag_193\n      jumpi\n        /* \"contracts/VendingMachine.sol\":3806:3816  _productId */\n      dup3\n        /* \"contracts/VendingMachine.sol\":3789:3817  abi.encodePacked(_productId) */\n      add(0x20, mload(0x40))\n      tag_195\n      swap2\n      swap1\n      tag_196\n      jump\t// in\n    tag_195:\n      mload(0x40)\n      0x20\n      dup2\n      dup4\n      sub\n      sub\n      dup2\n      mstore\n      swap1\n      0x40\n      mstore\n        /* \"contracts/VendingMachine.sol\":3779:3818  keccak256(abi.encodePacked(_productId)) */\n      dup1\n      mload\n      swap1\n      0x20\n      add\n      keccak256\n        /* \"contracts/VendingMachine.sol\":3757:3765  products */\n      0x01\n        /* \"contracts/VendingMachine.sol\":3766:3767  i */\n      dup3\n        /* \"contracts/VendingMachine.sol\":3757:3768  products[i] */\n      dup2\n      sload\n      dup2\n      lt\n      tag_197\n      jumpi\n      tag_198\n      tag_74\n      jump\t// in\n    tag_198:\n    tag_197:\n      swap1\n      0x00\n      mstore\n      keccak256(0x00, 0x20)\n      swap1\n      0x04\n      mul\n      add\n        /* \"contracts/VendingMachine.sol\":3757:3773  products[i].code */\n      0x00\n      add\n        /* \"contracts/VendingMachine.sol\":3740:3774  abi.encodePacked(products[i].code) */\n      add(0x20, mload(0x40))\n      tag_200\n      swap2\n      swap1\n      tag_201\n      jump\t// in\n    tag_200:\n      mload(0x40)\n      0x20\n      dup2\n      dup4\n      sub\n      sub\n      dup2\n      mstore\n      swap1\n      0x40\n      mstore\n        /* \"contracts/VendingMachine.sol\":3730:3775  keccak256(abi.encodePacked(products[i].code)) */\n      dup1\n      mload\n      swap1\n      0x20\n      add\n      keccak256\n        /* \"contracts/VendingMachine.sol\":3730:3818  keccak256(abi.encodePacked(products[i].code)) == keccak256(abi.encodePacked(_productId)) */\n      sub\n        /* \"contracts/VendingMachine.sol\":3726:3872  if (keccak256(abi.encodePacked(products[i].code)) == keccak256(abi.encodePacked(_productId))) {... */\n      tag_202\n      jumpi\n        /* \"contracts/VendingMachine.sol\":3845:3853  products */\n      0x01\n        /* \"contracts/VendingMachine.sol\":3854:3855  i */\n      dup2\n        /* \"contracts/VendingMachine.sol\":3845:3856  products[i] */\n      dup2\n      sload\n      dup2\n      lt\n      tag_203\n      jumpi\n      tag_204\n      tag_74\n      jump\t// in\n    tag_204:\n    tag_203:\n      swap1\n      0x00\n      mstore\n      keccak256(0x00, 0x20)\n      swap1\n      0x04\n      mul\n      add\n        /* \"contracts/VendingMachine.sol\":3838:3856  return products[i] */\n      mload(0x40)\n      dup1\n      0x80\n      add\n      0x40\n      mstore\n      swap1\n      dup2\n      0x00\n      dup3\n      add\n      dup1\n      sload\n      tag_206\n      swap1\n      tag_53\n      jump\t// in\n    tag_206:\n      dup1\n      0x1f\n      add\n      0x20\n      dup1\n      swap2\n      div\n      mul\n      0x20\n      add\n      mload(0x40)\n      swap1\n      dup2\n      add\n      0x40\n      mstore\n      dup1\n      swap3\n      swap2\n      swap1\n      dup2\n      dup2\n      mstore\n      0x20\n      add\n      dup3\n      dup1\n      sload\n      tag_207\n      swap1\n      tag_53\n      jump\t// in\n    tag_207:\n      dup1\n      iszero\n      tag_208\n      jumpi\n      dup1\n      0x1f\n      lt\n      tag_209\n      jumpi\n      0x0100\n      dup1\n      dup4\n      sload\n      div\n      mul\n      dup4\n      mstore\n      swap2\n      0x20\n      add\n      swap2\n      jump(tag_208)\n    tag_209:\n      dup3\n      add\n      swap2\n      swap1\n      0x00\n      mstore\n      keccak256(0x00, 0x20)\n      swap1\n    tag_210:\n      dup2\n      sload\n      dup2\n      mstore\n      swap1\n      0x01\n      add\n      swap1\n      0x20\n      add\n      dup1\n      dup4\n      gt\n      tag_210\n      jumpi\n      dup3\n      swap1\n      sub\n      0x1f\n      and\n      dup3\n      add\n      swap2\n    tag_208:\n      pop\n      pop\n      pop\n      pop\n      pop\n      dup2\n      mstore\n      0x20\n      add\n      0x01\n      dup3\n      add\n      sload\n      dup2\n      mstore\n      0x20\n      add\n      0x02\n      dup3\n      add\n      dup1\n      sload\n      tag_211\n      swap1\n      tag_53\n      jump\t// in\n    tag_211:\n      dup1\n      0x1f\n      add\n      0x20\n      dup1\n      swap2\n      div\n      mul\n      0x20\n      add\n      mload(0x40)\n      swap1\n      dup2\n      add\n      0x40\n      mstore\n      dup1\n      swap3\n      swap2\n      swap1\n      dup2\n      dup2\n      mstore\n      0x20\n      add\n      dup3\n      dup1\n      sload\n      tag_212\n      swap1\n      tag_53\n      jump\t// in\n    tag_212:\n      dup1\n      iszero\n      tag_213\n      jumpi\n      dup1\n      0x1f\n      lt\n      tag_214\n      jumpi\n      0x0100\n      dup1\n      dup4\n      sload\n      div\n      mul\n      dup4\n      mstore\n      swap2\n      0x20\n      add\n      swap2\n      jump(tag_213)\n    tag_214:\n      dup3\n      add\n      swap2\n      swap1\n      0x00\n      mstore\n      keccak256(0x00, 0x20)\n      swap1\n    tag_215:\n      dup2\n      sload\n      dup2\n      mstore\n      swap1\n      0x01\n      add\n      swap1\n      0x20\n      add\n      dup1\n      dup4\n      gt\n      tag_215\n      jumpi\n      dup3\n      swap1\n      sub\n      0x1f\n      and\n      dup3\n      add\n      swap2\n    tag_213:\n      pop\n      pop\n      pop\n      pop\n      pop\n      dup2\n      mstore\n      0x20\n      add\n      0x03\n      dup3\n      add\n      dup1\n      sload\n      tag_216\n      swap1\n      tag_53\n      jump\t// in\n    tag_216:\n      dup1\n      0x1f\n      add\n      0x20\n      dup1\n      swap2\n      div\n      mul\n      0x20\n      add\n      mload(0x40)\n      swap1\n      dup2\n      add\n      0x40\n      mstore\n      dup1\n      swap3\n      swap2\n      swap1\n      dup2\n      dup2\n      mstore\n      0x20\n      add\n      dup3\n      dup1\n      sload\n      tag_217\n      swap1\n      tag_53\n      jump\t// in\n    tag_217:\n      dup1\n      iszero\n      tag_218\n      jumpi\n      dup1\n      0x1f\n      lt\n      tag_219\n      jumpi\n      0x0100\n      dup1\n      dup4\n      sload\n      div\n      mul\n      dup4\n      mstore\n      swap2\n      0x20\n      add\n      swap2\n      jump(tag_218)\n    tag_219:\n      dup3\n      add\n      swap2\n      swap1\n      0x00\n      mstore\n      keccak256(0x00, 0x20)\n      swap1\n    tag_220:\n      dup2\n      sload\n      dup2\n      mstore\n      swap1\n      0x01\n      add\n      swap1\n      0x20\n      add\n      dup1\n      dup4\n      gt\n      tag_220\n      jumpi\n      dup3\n      swap1\n      sub\n      0x1f\n      and\n      dup3\n      add\n      swap2\n    tag_218:\n      pop\n      pop\n      pop\n      pop\n      pop\n      dup2\n      mstore\n      pop\n      pop\n      swap2\n      pop\n      pop\n      jump(tag_191)\n        /* \"contracts/VendingMachine.sol\":3726:3872  if (keccak256(abi.encodePacked(products[i].code)) == keccak256(abi.encodePacked(_productId))) {... */\n    tag_202:\n        /* \"contracts/VendingMachine.sol\":3707:3710  i++ */\n      dup1\n      dup1\n      0x01\n      add\n      swap2\n      pop\n      pop\n        /* \"contracts/VendingMachine.sol\":3669:3882  for (uint i = 0; i < products.length; i++) {... */\n      jump(tag_192)\n    tag_193:\n      pop\n        /* \"contracts/VendingMachine.sol\":3891:3918  revert(\"Product not found\") */\n      mload(0x40)\n      0x08c379a000000000000000000000000000000000000000000000000000000000\n      dup2\n      mstore\n      0x04\n      add\n      tag_221\n      swap1\n      tag_222\n      jump\t// in\n    tag_221:\n      mload(0x40)\n      dup1\n      swap2\n      sub\n      swap1\n      revert\n        /* \"contracts/VendingMachine.sol\":3554:3925  function getProductByCode(string memory _productId) private view returns (ProductLibrary.Product memory) {... */\n    tag_191:\n      swap2\n      swap1\n      pop\n      jump\t// out\n    tag_85:\n      mload(0x40)\n      dup1\n      0xc0\n      add\n      0x40\n      mstore\n      dup1\n      0x00\n      dup2\n      mstore\n      0x20\n      add\n      0x60\n      dup2\n      mstore\n      0x20\n      add\n      0x60\n      dup2\n      mstore\n      0x20\n      add\n      0x00\n      dup2\n      mstore\n      0x20\n      add\n      0x00\n      dup2\n      mstore\n      0x20\n      add\n      iszero(iszero(0x00))\n      dup2\n      mstore\n      pop\n      swap1\n      jump\t// out\n    tag_190:\n      mload(0x40)\n      dup1\n      0x80\n      add\n      0x40\n      mstore\n      dup1\n      0x60\n      dup2\n      mstore\n      0x20\n      add\n      0x00\n      dup2\n      mstore\n      0x20\n      add\n      0x60\n      dup2\n      mstore\n      0x20\n      add\n      0x60\n      dup2\n      mstore\n      pop\n      swap1\n      jump\t// out\n        /* \"#utility.yul\":7:144   */\n    tag_223:\n        /* \"#utility.yul\":97:103   */\n      0x00\n        /* \"#utility.yul\":131:136   */\n      dup2\n        /* \"#utility.yul\":125:137   */\n      mload\n        /* \"#utility.yul\":115:137   */\n      swap1\n      pop\n        /* \"#utility.yul\":7:144   */\n      swap2\n      swap1\n      pop\n      jump\t// out\n        /* \"#utility.yul\":150:357   */\n    tag_224:\n        /* \"#utility.yul\":272:283   */\n      0x00\n        /* \"#utility.yul\":306:312   */\n      dup3\n        /* \"#utility.yul\":301:304   */\n      dup3\n        /* \"#utility.yul\":294:313   */\n      mstore\n        /* \"#utility.yul\":346:350   */\n      0x20\n        /* \"#utility.yul\":341:344   */\n      dup3\n        /* \"#utility.yul\":337:351   */\n      add\n        /* \"#utility.yul\":322:351   */\n      swap1\n      pop\n        /* \"#utility.yul\":150:357   */\n      swap3\n      swap2\n      pop\n      pop\n      jump\t// out\n        /* \"#utility.yul\":363:518   */\n    tag_225:\n        /* \"#utility.yul\":453:457   */\n      0x00\n        /* \"#utility.yul\":476:479   */\n      dup2\n        /* \"#utility.yul\":468:479   */\n      swap1\n      pop\n        /* \"#utility.yul\":506:510   */\n      0x20\n        /* \"#utility.yul\":501:504   */\n      dup3\n        /* \"#utility.yul\":497:511   */\n      add\n        /* \"#utility.yul\":489:511   */\n      swap1\n      pop\n        /* \"#utility.yul\":363:518   */\n      swap2\n      swap1\n      pop\n      jump\t// out\n        /* \"#utility.yul\":524:623   */\n    tag_226:\n        /* \"#utility.yul\":576:582   */\n      0x00\n        /* \"#utility.yul\":610:615   */\n      dup2\n        /* \"#utility.yul\":604:616   */\n      mload\n        /* \"#utility.yul\":594:616   */\n      swap1\n      pop\n        /* \"#utility.yul\":524:623   */\n      swap2\n      swap1\n      pop\n      jump\t// out\n        /* \"#utility.yul\":629:788   */\n    tag_227:\n        /* \"#utility.yul\":703:714   */\n      0x00\n        /* \"#utility.yul\":737:743   */\n      dup3\n        /* \"#utility.yul\":732:735   */\n      dup3\n        /* \"#utility.yul\":725:744   */\n      mstore\n        /* \"#utility.yul\":777:781   */\n      0x20\n        /* \"#utility.yul\":772:775   */\n      dup3\n        /* \"#utility.yul\":768:782   */\n      add\n        /* \"#utility.yul\":753:782   */\n      swap1\n      pop\n        /* \"#utility.yul\":629:788   */\n      swap3\n      swap2\n      pop\n      pop\n      jump\t// out\n        /* \"#utility.yul\":794:933   */\n    tag_228:\n        /* \"#utility.yul\":883:889   */\n      dup3\n        /* \"#utility.yul\":878:881   */\n      dup2\n        /* \"#utility.yul\":873:876   */\n      dup4\n        /* \"#utility.yul\":867:890   */\n      mcopy\n        /* \"#utility.yul\":924:925   */\n      0x00\n        /* \"#utility.yul\":915:921   */\n      dup4\n        /* \"#utility.yul\":910:913   */\n      dup4\n        /* \"#utility.yul\":906:922   */\n      add\n        /* \"#utility.yul\":899:926   */\n      mstore\n        /* \"#utility.yul\":794:933   */\n      pop\n      pop\n      pop\n      jump\t// out\n        /* \"#utility.yul\":939:1041   */\n    tag_229:\n        /* \"#utility.yul\":980:986   */\n      0x00\n        /* \"#utility.yul\":1031:1033   */\n      0x1f\n        /* \"#utility.yul\":1027:1034   */\n      not\n        /* \"#utility.yul\":1022:1024   */\n      0x1f\n        /* \"#utility.yul\":1015:1020   */\n      dup4\n        /* \"#utility.yul\":1011:1025   */\n      add\n        /* \"#utility.yul\":1007:1035   */\n      and\n        /* \"#utility.yul\":997:1035   */\n      swap1\n      pop\n        /* \"#utility.yul\":939:1041   */\n      swap2\n      swap1\n      pop\n      jump\t// out\n        /* \"#utility.yul\":1047:1404   */\n    tag_230:\n        /* \"#utility.yul\":1125:1128   */\n      0x00\n        /* \"#utility.yul\":1153:1192   */\n      tag_319\n        /* \"#utility.yul\":1186:1191   */\n      dup3\n        /* \"#utility.yul\":1153:1192   */\n      tag_226\n      jump\t// in\n    tag_319:\n        /* \"#utility.yul\":1208:1269   */\n      tag_320\n        /* \"#utility.yul\":1262:1268   */\n      dup2\n        /* \"#utility.yul\":1257:1260   */\n      dup6\n        /* \"#utility.yul\":1208:1269   */\n      tag_227\n      jump\t// in\n    tag_320:\n        /* \"#utility.yul\":1201:1269   */\n      swap4\n      pop\n        /* \"#utility.yul\":1278:1343   */\n      tag_321\n        /* \"#utility.yul\":1336:1342   */\n      dup2\n        /* \"#utility.yul\":1331:1334   */\n      dup6\n        /* \"#utility.yul\":1324:1328   */\n      0x20\n        /* \"#utility.yul\":1317:1322   */\n      dup7\n        /* \"#utility.yul\":1313:1329   */\n      add\n        /* \"#utility.yul\":1278:1343   */\n      tag_228\n      jump\t// in\n    tag_321:\n        /* \"#utility.yul\":1368:1397   */\n      tag_322\n        /* \"#utility.yul\":1390:1396   */\n      dup2\n        /* \"#utility.yul\":1368:1397   */\n      tag_229\n      jump\t// in\n    tag_322:\n        /* \"#utility.yul\":1363:1366   */\n      dup5\n        /* \"#utility.yul\":1359:1398   */\n      add\n        /* \"#utility.yul\":1352:1398   */\n      swap2\n      pop\n        /* \"#utility.yul\":1129:1404   */\n      pop\n        /* \"#utility.yul\":1047:1404   */\n      swap3\n      swap2\n      pop\n      pop\n      jump\t// out\n        /* \"#utility.yul\":1410:1487   */\n    tag_231:\n        /* \"#utility.yul\":1447:1454   */\n      0x00\n        /* \"#utility.yul\":1476:1481   */\n      dup2\n        /* \"#utility.yul\":1465:1481   */\n      swap1\n      pop\n        /* \"#utility.yul\":1410:1487   */\n      swap2\n      swap1\n      pop\n      jump\t// out\n        /* \"#utility.yul\":1493:1601   */\n    tag_232:\n        /* \"#utility.yul\":1570:1594   */\n      tag_325\n        /* \"#utility.yul\":1588:1593   */\n      dup2\n        /* \"#utility.yul\":1570:1594   */\n      tag_231\n      jump\t// in\n    tag_325:\n        /* \"#utility.yul\":1565:1568   */\n      dup3\n        /* \"#utility.yul\":1558:1595   */\n      mstore\n        /* \"#utility.yul\":1493:1601   */\n      pop\n      pop\n      jump\t// out\n        /* \"#utility.yul\":1677:2764   */\n    tag_233:\n        /* \"#utility.yul\":1782:1785   */\n      0x00\n        /* \"#utility.yul\":1818:1822   */\n      0x80\n        /* \"#utility.yul\":1813:1816   */\n      dup4\n        /* \"#utility.yul\":1809:1823   */\n      add\n        /* \"#utility.yul\":1905:1909   */\n      0x00\n        /* \"#utility.yul\":1898:1903   */\n      dup4\n        /* \"#utility.yul\":1894:1910   */\n      add\n        /* \"#utility.yul\":1888:1911   */\n      mload\n        /* \"#utility.yul\":1958:1961   */\n      dup5\n        /* \"#utility.yul\":1952:1956   */\n      dup3\n        /* \"#utility.yul\":1948:1962   */\n      sub\n        /* \"#utility.yul\":1941:1945   */\n      0x00\n        /* \"#utility.yul\":1936:1939   */\n      dup7\n        /* \"#utility.yul\":1932:1946   */\n      add\n        /* \"#utility.yul\":1925:1963   */\n      mstore\n        /* \"#utility.yul\":1984:2057   */\n      tag_327\n        /* \"#utility.yul\":2052:2056   */\n      dup3\n        /* \"#utility.yul\":2038:2050   */\n      dup3\n        /* \"#utility.yul\":1984:2057   */\n      tag_230\n      jump\t// in\n    tag_327:\n        /* \"#utility.yul\":1976:2057   */\n      swap2\n      pop\n        /* \"#utility.yul\":1833:2068   */\n      pop\n        /* \"#utility.yul\":2151:2155   */\n      0x20\n        /* \"#utility.yul\":2144:2149   */\n      dup4\n        /* \"#utility.yul\":2140:2156   */\n      add\n        /* \"#utility.yul\":2134:2157   */\n      mload\n        /* \"#utility.yul\":2170:2233   */\n      tag_328\n        /* \"#utility.yul\":2227:2231   */\n      0x20\n        /* \"#utility.yul\":2222:2225   */\n      dup7\n        /* \"#utility.yul\":2218:2232   */\n      add\n        /* \"#utility.yul\":2204:2216   */\n      dup3\n        /* \"#utility.yul\":2170:2233   */\n      tag_232\n      jump\t// in\n    tag_328:\n        /* \"#utility.yul\":2078:2243   */\n      pop\n        /* \"#utility.yul\":2325:2329   */\n      0x40\n        /* \"#utility.yul\":2318:2323   */\n      dup4\n        /* \"#utility.yul\":2314:2330   */\n      add\n        /* \"#utility.yul\":2308:2331   */\n      mload\n        /* \"#utility.yul\":2378:2381   */\n      dup5\n        /* \"#utility.yul\":2372:2376   */\n      dup3\n        /* \"#utility.yul\":2368:2382   */\n      sub\n        /* \"#utility.yul\":2361:2365   */\n      0x40\n        /* \"#utility.yul\":2356:2359   */\n      dup7\n        /* \"#utility.yul\":2352:2366   */\n      add\n        /* \"#utility.yul\":2345:2383   */\n      mstore\n        /* \"#utility.yul\":2404:2477   */\n      tag_329\n        /* \"#utility.yul\":2472:2476   */\n      dup3\n        /* \"#utility.yul\":2458:2470   */\n      dup3\n        /* \"#utility.yul\":2404:2477   */\n      tag_230\n      jump\t// in\n    tag_329:\n        /* \"#utility.yul\":2396:2477   */\n      swap2\n      pop\n        /* \"#utility.yul\":2253:2488   */\n      pop\n        /* \"#utility.yul\":2574:2578   */\n      0x60\n        /* \"#utility.yul\":2567:2572   */\n      dup4\n        /* \"#utility.yul\":2563:2579   */\n      add\n        /* \"#utility.yul\":2557:2580   */\n      mload\n        /* \"#utility.yul\":2627:2630   */\n      dup5\n        /* \"#utility.yul\":2621:2625   */\n      dup3\n        /* \"#utility.yul\":2617:2631   */\n      sub\n        /* \"#utility.yul\":2610:2614   */\n      0x60\n        /* \"#utility.yul\":2605:2608   */\n      dup7\n        /* \"#utility.yul\":2601:2615   */\n      add\n        /* \"#utility.yul\":2594:2632   */\n      mstore\n        /* \"#utility.yul\":2653:2726   */\n      tag_330\n        /* \"#utility.yul\":2721:2725   */\n      dup3\n        /* \"#utility.yul\":2707:2719   */\n      dup3\n        /* \"#utility.yul\":2653:2726   */\n      tag_230\n      jump\t// in\n    tag_330:\n        /* \"#utility.yul\":2645:2726   */\n      swap2\n      pop\n        /* \"#utility.yul\":2498:2737   */\n      pop\n        /* \"#utility.yul\":2754:2758   */\n      dup1\n        /* \"#utility.yul\":2747:2758   */\n      swap2\n      pop\n        /* \"#utility.yul\":1787:2764   */\n      pop\n        /* \"#utility.yul\":1677:2764   */\n      swap3\n      swap2\n      pop\n      pop\n      jump\t// out\n        /* \"#utility.yul\":2770:3018   */\n    tag_234:\n        /* \"#utility.yul\":2885:2895   */\n      0x00\n        /* \"#utility.yul\":2920:3012   */\n      tag_332\n        /* \"#utility.yul\":3008:3011   */\n      dup4\n        /* \"#utility.yul\":3000:3006   */\n      dup4\n        /* \"#utility.yul\":2920:3012   */\n      tag_233\n      jump\t// in\n    tag_332:\n        /* \"#utility.yul\":2906:3012   */\n      swap1\n      pop\n        /* \"#utility.yul\":2770:3018   */\n      swap3\n      swap2\n      pop\n      pop\n      jump\t// out\n        /* \"#utility.yul\":3024:3160   */\n    tag_235:\n        /* \"#utility.yul\":3117:3121   */\n      0x00\n        /* \"#utility.yul\":3149:3153   */\n      0x20\n        /* \"#utility.yul\":3144:3147   */\n      dup3\n        /* \"#utility.yul\":3140:3154   */\n      add\n        /* \"#utility.yul\":3132:3154   */\n      swap1\n      pop\n        /* \"#utility.yul\":3024:3160   */\n      swap2\n      swap1\n      pop\n      jump\t// out\n        /* \"#utility.yul\":3240:4335   */\n    tag_236:\n        /* \"#utility.yul\":3405:3408   */\n      0x00\n        /* \"#utility.yul\":3434:3511   */\n      tag_335\n        /* \"#utility.yul\":3505:3510   */\n      dup3\n        /* \"#utility.yul\":3434:3511   */\n      tag_223\n      jump\t// in\n    tag_335:\n        /* \"#utility.yul\":3527:3636   */\n      tag_336\n        /* \"#utility.yul\":3629:3635   */\n      dup2\n        /* \"#utility.yul\":3624:3627   */\n      dup6\n        /* \"#utility.yul\":3527:3636   */\n      tag_224\n      jump\t// in\n    tag_336:\n        /* \"#utility.yul\":3520:3636   */\n      swap4\n      pop\n        /* \"#utility.yul\":3662:3665   */\n      dup4\n        /* \"#utility.yul\":3707:3711   */\n      0x20\n        /* \"#utility.yul\":3699:3705   */\n      dup3\n        /* \"#utility.yul\":3695:3712   */\n      mul\n        /* \"#utility.yul\":3690:3693   */\n      dup6\n        /* \"#utility.yul\":3686:3713   */\n      add\n        /* \"#utility.yul\":3737:3816   */\n      tag_337\n        /* \"#utility.yul\":3810:3815   */\n      dup6\n        /* \"#utility.yul\":3737:3816   */\n      tag_225\n      jump\t// in\n    tag_337:\n        /* \"#utility.yul\":3839:3846   */\n      dup1\n        /* \"#utility.yul\":3870:3871   */\n      0x00\n        /* \"#utility.yul\":3855:4290   */\n    tag_338:\n        /* \"#utility.yul\":3880:3886   */\n      dup6\n        /* \"#utility.yul\":3877:3878   */\n      dup2\n        /* \"#utility.yul\":3874:3887   */\n      lt\n        /* \"#utility.yul\":3855:4290   */\n      iszero\n      tag_340\n      jumpi\n        /* \"#utility.yul\":3951:3960   */\n      dup5\n        /* \"#utility.yul\":3945:3949   */\n      dup5\n        /* \"#utility.yul\":3941:3961   */\n      sub\n        /* \"#utility.yul\":3936:3939   */\n      dup10\n        /* \"#utility.yul\":3929:3962   */\n      mstore\n        /* \"#utility.yul\":4002:4008   */\n      dup2\n        /* \"#utility.yul\":3996:4009   */\n      mload\n        /* \"#utility.yul\":4030:4140   */\n      tag_341\n        /* \"#utility.yul\":4135:4139   */\n      dup6\n        /* \"#utility.yul\":4120:4133   */\n      dup3\n        /* \"#utility.yul\":4030:4140   */\n      tag_234\n      jump\t// in\n    tag_341:\n        /* \"#utility.yul\":4022:4140   */\n      swap5\n      pop\n        /* \"#utility.yul\":4163:4246   */\n      tag_342\n        /* \"#utility.yul\":4239:4245   */\n      dup4\n        /* \"#utility.yul\":4163:4246   */\n      tag_235\n      jump\t// in\n    tag_342:\n        /* \"#utility.yul\":4153:4246   */\n      swap3\n      pop\n        /* \"#utility.yul\":4275:4279   */\n      0x20\n        /* \"#utility.yul\":4270:4273   */\n      dup11\n        /* \"#utility.yul\":4266:4280   */\n      add\n        /* \"#utility.yul\":4259:4280   */\n      swap10\n      pop\n        /* \"#utility.yul\":3915:4290   */\n      pop\n        /* \"#utility.yul\":3902:3903   */\n      0x01\n        /* \"#utility.yul\":3899:3900   */\n      dup2\n        /* \"#utility.yul\":3895:3904   */\n      add\n        /* \"#utility.yul\":3890:3904   */\n      swap1\n      pop\n        /* \"#utility.yul\":3855:4290   */\n      jump(tag_338)\n    tag_340:\n        /* \"#utility.yul\":3859:3873   */\n      pop\n        /* \"#utility.yul\":4306:4310   */\n      dup3\n        /* \"#utility.yul\":4299:4310   */\n      swap8\n      pop\n        /* \"#utility.yul\":4326:4329   */\n      dup8\n        /* \"#utility.yul\":4319:4329   */\n      swap6\n      pop\n        /* \"#utility.yul\":3410:4335   */\n      pop\n      pop\n      pop\n      pop\n      pop\n        /* \"#utility.yul\":3240:4335   */\n      swap3\n      swap2\n      pop\n      pop\n      jump\t// out\n        /* \"#utility.yul\":4341:4806   */\n    tag_15:\n        /* \"#utility.yul\":4530:4534   */\n      0x00\n        /* \"#utility.yul\":4568:4570   */\n      0x20\n        /* \"#utility.yul\":4557:4566   */\n      dup3\n        /* \"#utility.yul\":4553:4571   */\n      add\n        /* \"#utility.yul\":4545:4571   */\n      swap1\n      pop\n        /* \"#utility.yul\":4617:4626   */\n      dup2\n        /* \"#utility.yul\":4611:4615   */\n      dup2\n        /* \"#utility.yul\":4607:4627   */\n      sub\n        /* \"#utility.yul\":4603:4604   */\n      0x00\n        /* \"#utility.yul\":4592:4601   */\n      dup4\n        /* \"#utility.yul\":4588:4605   */\n      add\n        /* \"#utility.yul\":4581:4628   */\n      mstore\n        /* \"#utility.yul\":4645:4799   */\n      tag_344\n        /* \"#utility.yul\":4794:4798   */\n      dup2\n        /* \"#utility.yul\":4785:4791   */\n      dup5\n        /* \"#utility.yul\":4645:4799   */\n      tag_236\n      jump\t// in\n    tag_344:\n        /* \"#utility.yul\":4637:4799   */\n      swap1\n      pop\n        /* \"#utility.yul\":4341:4806   */\n      swap3\n      swap2\n      pop\n      pop\n      jump\t// out\n        /* \"#utility.yul\":4812:4887   */\n    tag_237:\n        /* \"#utility.yul\":4845:4851   */\n      0x00\n        /* \"#utility.yul\":4878:4880   */\n      0x40\n        /* \"#utility.yul\":4872:4881   */\n      mload\n        /* \"#utility.yul\":4862:4881   */\n      swap1\n      pop\n        /* \"#utility.yul\":4812:4887   */\n      swap1\n      jump\t// out\n        /* \"#utility.yul\":4893:5010   */\n    tag_238:\n        /* \"#utility.yul\":5002:5003   */\n      0x00\n        /* \"#utility.yul\":4999:5000   */\n      dup1\n        /* \"#utility.yul\":4992:5004   */\n      revert\n        /* \"#utility.yul\":5016:5133   */\n    tag_239:\n        /* \"#utility.yul\":5125:5126   */\n      0x00\n        /* \"#utility.yul\":5122:5123   */\n      dup1\n        /* \"#utility.yul\":5115:5127   */\n      revert\n        /* \"#utility.yul\":5139:5265   */\n    tag_240:\n        /* \"#utility.yul\":5176:5183   */\n      0x00\n        /* \"#utility.yul\":5216:5258   */\n      0xffffffffffffffffffffffffffffffffffffffff\n        /* \"#utility.yul\":5209:5214   */\n      dup3\n        /* \"#utility.yul\":5205:5259   */\n      and\n        /* \"#utility.yul\":5194:5259   */\n      swap1\n      pop\n        /* \"#utility.yul\":5139:5265   */\n      swap2\n      swap1\n      pop\n      jump\t// out\n        /* \"#utility.yul\":5271:5367   */\n    tag_241:\n        /* \"#utility.yul\":5308:5315   */\n      0x00\n        /* \"#utility.yul\":5337:5361   */\n      tag_350\n        /* \"#utility.yul\":5355:5360   */\n      dup3\n        /* \"#utility.yul\":5337:5361   */\n      tag_240\n      jump\t// in\n    tag_350:\n        /* \"#utility.yul\":5326:5361   */\n      swap1\n      pop\n        /* \"#utility.yul\":5271:5367   */\n      swap2\n      swap1\n      pop\n      jump\t// out\n        /* \"#utility.yul\":5373:5495   */\n    tag_242:\n        /* \"#utility.yul\":5446:5470   */\n      tag_352\n        /* \"#utility.yul\":5464:5469   */\n      dup2\n        /* \"#utility.yul\":5446:5470   */\n      tag_241\n      jump\t// in\n    tag_352:\n        /* \"#utility.yul\":5439:5444   */\n      dup2\n        /* \"#utility.yul\":5436:5471   */\n      eq\n        /* \"#utility.yul\":5426:5489   */\n      tag_353\n      jumpi\n        /* \"#utility.yul\":5485:5486   */\n      0x00\n        /* \"#utility.yul\":5482:5483   */\n      dup1\n        /* \"#utility.yul\":5475:5487   */\n      revert\n        /* \"#utility.yul\":5426:5489   */\n    tag_353:\n        /* \"#utility.yul\":5373:5495   */\n      pop\n      jump\t// out\n        /* \"#utility.yul\":5501:5640   */\n    tag_243:\n        /* \"#utility.yul\":5547:5552   */\n      0x00\n        /* \"#utility.yul\":5585:5591   */\n      dup2\n        /* \"#utility.yul\":5572:5592   */\n      calldataload\n        /* \"#utility.yul\":5563:5592   */\n      swap1\n      pop\n        /* \"#utility.yul\":5601:5634   */\n      tag_355\n        /* \"#utility.yul\":5628:5633   */\n      dup2\n        /* \"#utility.yul\":5601:5634   */\n      tag_242\n      jump\t// in\n    tag_355:\n        /* \"#utility.yul\":5501:5640   */\n      swap3\n      swap2\n      pop\n      pop\n      jump\t// out\n        /* \"#utility.yul\":5646:5975   */\n    tag_19:\n        /* \"#utility.yul\":5705:5711   */\n      0x00\n        /* \"#utility.yul\":5754:5756   */\n      0x20\n        /* \"#utility.yul\":5742:5751   */\n      dup3\n        /* \"#utility.yul\":5733:5740   */\n      dup5\n        /* \"#utility.yul\":5729:5752   */\n      sub\n        /* \"#utility.yul\":5725:5757   */\n      slt\n        /* \"#utility.yul\":5722:5841   */\n      iszero\n      tag_357\n      jumpi\n        /* \"#utility.yul\":5760:5839   */\n      tag_358\n      tag_238\n      jump\t// in\n    tag_358:\n        /* \"#utility.yul\":5722:5841   */\n    tag_357:\n        /* \"#utility.yul\":5880:5881   */\n      0x00\n        /* \"#utility.yul\":5905:5958   */\n      tag_359\n        /* \"#utility.yul\":5950:5957   */\n      dup5\n        /* \"#utility.yul\":5941:5947   */\n      dup3\n        /* \"#utility.yul\":5930:5939   */\n      dup6\n        /* \"#utility.yul\":5926:5948   */\n      add\n        /* \"#utility.yul\":5905:5958   */\n      tag_243\n      jump\t// in\n    tag_359:\n        /* \"#utility.yul\":5895:5958   */\n      swap2\n      pop\n        /* \"#utility.yul\":5851:5968   */\n      pop\n        /* \"#utility.yul\":5646:5975   */\n      swap3\n      swap2\n      pop\n      pop\n      jump\t// out\n        /* \"#utility.yul\":5981:6123   */\n    tag_244:\n        /* \"#utility.yul\":6076:6082   */\n      0x00\n        /* \"#utility.yul\":6110:6115   */\n      dup2\n        /* \"#utility.yul\":6104:6116   */\n      mload\n        /* \"#utility.yul\":6094:6116   */\n      swap1\n      pop\n        /* \"#utility.yul\":5981:6123   */\n      swap2\n      swap1\n      pop\n      jump\t// out\n        /* \"#utility.yul\":6129:6341   */\n    tag_245:\n        /* \"#utility.yul\":6256:6267   */\n      0x00\n        /* \"#utility.yul\":6290:6296   */\n      dup3\n        /* \"#utility.yul\":6285:6288   */\n      dup3\n        /* \"#utility.yul\":6278:6297   */\n      mstore\n        /* \"#utility.yul\":6330:6334   */\n      0x20\n        /* \"#utility.yul\":6325:6328   */\n      dup3\n        /* \"#utility.yul\":6321:6335   */\n      add\n        /* \"#utility.yul\":6306:6335   */\n      swap1\n      pop\n        /* \"#utility.yul\":6129:6341   */\n      swap3\n      swap2\n      pop\n      pop\n      jump\t// out\n        /* \"#utility.yul\":6347:6507   */\n    tag_246:\n        /* \"#utility.yul\":6442:6446   */\n      0x00\n        /* \"#utility.yul\":6465:6468   */\n      dup2\n        /* \"#utility.yul\":6457:6468   */\n      swap1\n      pop\n        /* \"#utility.yul\":6495:6499   */\n      0x20\n        /* \"#utility.yul\":6490:6493   */\n      dup3\n        /* \"#utility.yul\":6486:6500   */\n      add\n        /* \"#utility.yul\":6478:6500   */\n      swap1\n      pop\n        /* \"#utility.yul\":6347:6507   */\n      swap2\n      swap1\n      pop\n      jump\t// out\n        /* \"#utility.yul\":6513:6603   */\n    tag_247:\n        /* \"#utility.yul\":6547:6554   */\n      0x00\n        /* \"#utility.yul\":6590:6595   */\n      dup2\n        /* \"#utility.yul\":6583:6596   */\n      iszero\n        /* \"#utility.yul\":6576:6597   */\n      iszero\n        /* \"#utility.yul\":6565:6597   */\n      swap1\n      pop\n        /* \"#utility.yul\":6513:6603   */\n      swap2\n      swap1\n      pop\n      jump\t// out\n        /* \"#utility.yul\":6609:6708   */\n    tag_248:\n        /* \"#utility.yul\":6680:6701   */\n      tag_365\n        /* \"#utility.yul\":6695:6700   */\n      dup2\n        /* \"#utility.yul\":6680:6701   */\n      tag_247\n      jump\t// in\n    tag_365:\n        /* \"#utility.yul\":6675:6678   */\n      dup3\n        /* \"#utility.yul\":6668:6702   */\n      mstore\n        /* \"#utility.yul\":6609:6708   */\n      pop\n      pop\n      jump\t// out\n        /* \"#utility.yul\":6794:8169   */\n    tag_249:\n        /* \"#utility.yul\":6909:6912   */\n      0x00\n        /* \"#utility.yul\":6945:6949   */\n      0xc0\n        /* \"#utility.yul\":6940:6943   */\n      dup4\n        /* \"#utility.yul\":6936:6950   */\n      add\n        /* \"#utility.yul\":7030:7034   */\n      0x00\n        /* \"#utility.yul\":7023:7028   */\n      dup4\n        /* \"#utility.yul\":7019:7035   */\n      add\n        /* \"#utility.yul\":7013:7036   */\n      mload\n        /* \"#utility.yul\":7049:7112   */\n      tag_367\n        /* \"#utility.yul\":7106:7110   */\n      0x00\n        /* \"#utility.yul\":7101:7104   */\n      dup7\n        /* \"#utility.yul\":7097:7111   */\n      add\n        /* \"#utility.yul\":7083:7095   */\n      dup3\n        /* \"#utility.yul\":7049:7112   */\n      tag_232\n      jump\t// in\n    tag_367:\n        /* \"#utility.yul\":6960:7122   */\n      pop\n        /* \"#utility.yul\":7204:7208   */\n      0x20\n        /* \"#utility.yul\":7197:7202   */\n      dup4\n        /* \"#utility.yul\":7193:7209   */\n      add\n        /* \"#utility.yul\":7187:7210   */\n      mload\n        /* \"#utility.yul\":7257:7260   */\n      dup5\n        /* \"#utility.yul\":7251:7255   */\n      dup3\n        /* \"#utility.yul\":7247:7261   */\n      sub\n        /* \"#utility.yul\":7240:7244   */\n      0x20\n        /* \"#utility.yul\":7235:7238   */\n      dup7\n        /* \"#utility.yul\":7231:7245   */\n      add\n        /* \"#utility.yul\":7224:7262   */\n      mstore\n        /* \"#utility.yul\":7283:7356   */\n      tag_368\n        /* \"#utility.yul\":7351:7355   */\n      dup3\n        /* \"#utility.yul\":7337:7349   */\n      dup3\n        /* \"#utility.yul\":7283:7356   */\n      tag_230\n      jump\t// in\n    tag_368:\n        /* \"#utility.yul\":7275:7356   */\n      swap2\n      pop\n        /* \"#utility.yul\":7132:7367   */\n      pop\n        /* \"#utility.yul\":7450:7454   */\n      0x40\n        /* \"#utility.yul\":7443:7448   */\n      dup4\n        /* \"#utility.yul\":7439:7455   */\n      add\n        /* \"#utility.yul\":7433:7456   */\n      mload\n        /* \"#utility.yul\":7503:7506   */\n      dup5\n        /* \"#utility.yul\":7497:7501   */\n      dup3\n        /* \"#utility.yul\":7493:7507   */\n      sub\n        /* \"#utility.yul\":7486:7490   */\n      0x40\n        /* \"#utility.yul\":7481:7484   */\n      dup7\n        /* \"#utility.yul\":7477:7491   */\n      add\n        /* \"#utility.yul\":7470:7508   */\n      mstore\n        /* \"#utility.yul\":7529:7602   */\n      tag_369\n        /* \"#utility.yul\":7597:7601   */\n      dup3\n        /* \"#utility.yul\":7583:7595   */\n      dup3\n        /* \"#utility.yul\":7529:7602   */\n      tag_230\n      jump\t// in\n    tag_369:\n        /* \"#utility.yul\":7521:7602   */\n      swap2\n      pop\n        /* \"#utility.yul\":7377:7613   */\n      pop\n        /* \"#utility.yul\":7696:7700   */\n      0x60\n        /* \"#utility.yul\":7689:7694   */\n      dup4\n        /* \"#utility.yul\":7685:7701   */\n      add\n        /* \"#utility.yul\":7679:7702   */\n      mload\n        /* \"#utility.yul\":7715:7778   */\n      tag_370\n        /* \"#utility.yul\":7772:7776   */\n      0x60\n        /* \"#utility.yul\":7767:7770   */\n      dup7\n        /* \"#utility.yul\":7763:7777   */\n      add\n        /* \"#utility.yul\":7749:7761   */\n      dup3\n        /* \"#utility.yul\":7715:7778   */\n      tag_232\n      jump\t// in\n    tag_370:\n        /* \"#utility.yul\":7623:7788   */\n      pop\n        /* \"#utility.yul\":7878:7882   */\n      0x80\n        /* \"#utility.yul\":7871:7876   */\n      dup4\n        /* \"#utility.yul\":7867:7883   */\n      add\n        /* \"#utility.yul\":7861:7884   */\n      mload\n        /* \"#utility.yul\":7897:7960   */\n      tag_371\n        /* \"#utility.yul\":7954:7958   */\n      0x80\n        /* \"#utility.yul\":7949:7952   */\n      dup7\n        /* \"#utility.yul\":7945:7959   */\n      add\n        /* \"#utility.yul\":7931:7943   */\n      dup3\n        /* \"#utility.yul\":7897:7960   */\n      tag_232\n      jump\t// in\n    tag_371:\n        /* \"#utility.yul\":7798:7970   */\n      pop\n        /* \"#utility.yul\":8056:8060   */\n      0xa0\n        /* \"#utility.yul\":8049:8054   */\n      dup4\n        /* \"#utility.yul\":8045:8061   */\n      add\n        /* \"#utility.yul\":8039:8062   */\n      mload\n        /* \"#utility.yul\":8075:8132   */\n      tag_372\n        /* \"#utility.yul\":8126:8130   */\n      0xa0\n        /* \"#utility.yul\":8121:8124   */\n      dup7\n        /* \"#utility.yul\":8117:8131   */\n      add\n        /* \"#utility.yul\":8103:8115   */\n      dup3\n        /* \"#utility.yul\":8075:8132   */\n      tag_248\n      jump\t// in\n    tag_372:\n        /* \"#utility.yul\":7980:8142   */\n      pop\n        /* \"#utility.yul\":8159:8163   */\n      dup1\n        /* \"#utility.yul\":8152:8163   */\n      swap2\n      pop\n        /* \"#utility.yul\":6914:8169   */\n      pop\n        /* \"#utility.yul\":6794:8169   */\n      swap3\n      swap2\n      pop\n      pop\n      jump\t// out\n        /* \"#utility.yul\":8175:8443   */\n    tag_250:\n        /* \"#utility.yul\":8300:8310   */\n      0x00\n        /* \"#utility.yul\":8335:8437   */\n      tag_374\n        /* \"#utility.yul\":8433:8436   */\n      dup4\n        /* \"#utility.yul\":8425:8431   */\n      dup4\n        /* \"#utility.yul\":8335:8437   */\n      tag_249\n      jump\t// in\n    tag_374:\n        /* \"#utility.yul\":8321:8437   */\n      swap1\n      pop\n        /* \"#utility.yul\":8175:8443   */\n      swap3\n      swap2\n      pop\n      pop\n      jump\t// out\n        /* \"#utility.yul\":8449:8590   */\n    tag_251:\n        /* \"#utility.yul\":8547:8551   */\n      0x00\n        /* \"#utility.yul\":8579:8583   */\n      0x20\n        /* \"#utility.yul\":8574:8577   */\n      dup3\n        /* \"#utility.yul\":8570:8584   */\n      add\n        /* \"#utility.yul\":8562:8584   */\n      swap1\n      pop\n        /* \"#utility.yul\":8449:8590   */\n      swap2\n      swap1\n      pop\n      jump\t// out\n        /* \"#utility.yul\":8680:9815   */\n    tag_252:\n        /* \"#utility.yul\":8855:8858   */\n      0x00\n        /* \"#utility.yul\":8884:8966   */\n      tag_377\n        /* \"#utility.yul\":8960:8965   */\n      dup3\n        /* \"#utility.yul\":8884:8966   */\n      tag_244\n      jump\t// in\n    tag_377:\n        /* \"#utility.yul\":8982:9096   */\n      tag_378\n        /* \"#utility.yul\":9089:9095   */\n      dup2\n        /* \"#utility.yul\":9084:9087   */\n      dup6\n        /* \"#utility.yul\":8982:9096   */\n      tag_245\n      jump\t// in\n    tag_378:\n        /* \"#utility.yul\":8975:9096   */\n      swap4\n      pop\n        /* \"#utility.yul\":9122:9125   */\n      dup4\n        /* \"#utility.yul\":9167:9171   */\n      0x20\n        /* \"#utility.yul\":9159:9165   */\n      dup3\n        /* \"#utility.yul\":9155:9172   */\n      mul\n        /* \"#utility.yul\":9150:9153   */\n      dup6\n        /* \"#utility.yul\":9146:9173   */\n      add\n        /* \"#utility.yul\":9197:9281   */\n      tag_379\n        /* \"#utility.yul\":9275:9280   */\n      dup6\n        /* \"#utility.yul\":9197:9281   */\n      tag_246\n      jump\t// in\n    tag_379:\n        /* \"#utility.yul\":9304:9311   */\n      dup1\n        /* \"#utility.yul\":9335:9336   */\n      0x00\n        /* \"#utility.yul\":9320:9770   */\n    tag_380:\n        /* \"#utility.yul\":9345:9351   */\n      dup6\n        /* \"#utility.yul\":9342:9343   */\n      dup2\n        /* \"#utility.yul\":9339:9352   */\n      lt\n        /* \"#utility.yul\":9320:9770   */\n      iszero\n      tag_382\n      jumpi\n        /* \"#utility.yul\":9416:9425   */\n      dup5\n        /* \"#utility.yul\":9410:9414   */\n      dup5\n        /* \"#utility.yul\":9406:9426   */\n      sub\n        /* \"#utility.yul\":9401:9404   */\n      dup10\n        /* \"#utility.yul\":9394:9427   */\n      mstore\n        /* \"#utility.yul\":9467:9473   */\n      dup2\n        /* \"#utility.yul\":9461:9474   */\n      mload\n        /* \"#utility.yul\":9495:9615   */\n      tag_383\n        /* \"#utility.yul\":9610:9614   */\n      dup6\n        /* \"#utility.yul\":9595:9608   */\n      dup3\n        /* \"#utility.yul\":9495:9615   */\n      tag_250\n      jump\t// in\n    tag_383:\n        /* \"#utility.yul\":9487:9615   */\n      swap5\n      pop\n        /* \"#utility.yul\":9638:9726   */\n      tag_384\n        /* \"#utility.yul\":9719:9725   */\n      dup4\n        /* \"#utility.yul\":9638:9726   */\n      tag_251\n      jump\t// in\n    tag_384:\n        /* \"#utility.yul\":9628:9726   */\n      swap3\n      pop\n        /* \"#utility.yul\":9755:9759   */\n      0x20\n        /* \"#utility.yul\":9750:9753   */\n      dup11\n        /* \"#utility.yul\":9746:9760   */\n      add\n        /* \"#utility.yul\":9739:9760   */\n      swap10\n      pop\n        /* \"#utility.yul\":9380:9770   */\n      pop\n        /* \"#utility.yul\":9367:9368   */\n      0x01\n        /* \"#utility.yul\":9364:9365   */\n      dup2\n        /* \"#utility.yul\":9360:9369   */\n      add\n        /* \"#utility.yul\":9355:9369   */\n      swap1\n      pop\n        /* \"#utility.yul\":9320:9770   */\n      jump(tag_380)\n    tag_382:\n        /* \"#utility.yul\":9324:9338   */\n      pop\n        /* \"#utility.yul\":9786:9790   */\n      dup3\n        /* \"#utility.yul\":9779:9790   */\n      swap8\n      pop\n        /* \"#utility.yul\":9806:9809   */\n      dup8\n        /* \"#utility.yul\":9799:9809   */\n      swap6\n      pop\n        /* \"#utility.yul\":8860:9815   */\n      pop\n      pop\n      pop\n      pop\n      pop\n        /* \"#utility.yul\":8680:9815   */\n      swap3\n      swap2\n      pop\n      pop\n      jump\t// out\n        /* \"#utility.yul\":9821:10306   */\n    tag_22:\n        /* \"#utility.yul\":10020:10024   */\n      0x00\n        /* \"#utility.yul\":10058:10060   */\n      0x20\n        /* \"#utility.yul\":10047:10056   */\n      dup3\n        /* \"#utility.yul\":10043:10061   */\n      add\n        /* \"#utility.yul\":10035:10061   */\n      swap1\n      pop\n        /* \"#utility.yul\":10107:10116   */\n      dup2\n        /* \"#utility.yul\":10101:10105   */\n      dup2\n        /* \"#utility.yul\":10097:10117   */\n      sub\n        /* \"#utility.yul\":10093:10094   */\n      0x00\n        /* \"#utility.yul\":10082:10091   */\n      dup4\n        /* \"#utility.yul\":10078:10095   */\n      add\n        /* \"#utility.yul\":10071:10118   */\n      mstore\n        /* \"#utility.yul\":10135:10299   */\n      tag_386\n        /* \"#utility.yul\":10294:10298   */\n      dup2\n        /* \"#utility.yul\":10285:10291   */\n      dup5\n        /* \"#utility.yul\":10135:10299   */\n      tag_252\n      jump\t// in\n    tag_386:\n        /* \"#utility.yul\":10127:10299   */\n      swap1\n      pop\n        /* \"#utility.yul\":9821:10306   */\n      swap3\n      swap2\n      pop\n      pop\n      jump\t// out\n        /* \"#utility.yul\":10312:10430   */\n    tag_253:\n        /* \"#utility.yul\":10399:10423   */\n      tag_388\n        /* \"#utility.yul\":10417:10422   */\n      dup2\n        /* \"#utility.yul\":10399:10423   */\n      tag_231\n      jump\t// in\n    tag_388:\n        /* \"#utility.yul\":10394:10397   */\n      dup3\n        /* \"#utility.yul\":10387:10424   */\n      mstore\n        /* \"#utility.yul\":10312:10430   */\n      pop\n      pop\n      jump\t// out\n        /* \"#utility.yul\":10436:10658   */\n    tag_27:\n        /* \"#utility.yul\":10529:10533   */\n      0x00\n        /* \"#utility.yul\":10567:10569   */\n      0x20\n        /* \"#utility.yul\":10556:10565   */\n      dup3\n        /* \"#utility.yul\":10552:10570   */\n      add\n        /* \"#utility.yul\":10544:10570   */\n      swap1\n      pop\n        /* \"#utility.yul\":10580:10651   */\n      tag_390\n        /* \"#utility.yul\":10648:10649   */\n      0x00\n        /* \"#utility.yul\":10637:10646   */\n      dup4\n        /* \"#utility.yul\":10633:10650   */\n      add\n        /* \"#utility.yul\":10624:10630   */\n      dup5\n        /* \"#utility.yul\":10580:10651   */\n      tag_253\n      jump\t// in\n    tag_390:\n        /* \"#utility.yul\":10436:10658   */\n      swap3\n      swap2\n      pop\n      pop\n      jump\t// out\n        /* \"#utility.yul\":10664:10781   */\n    tag_254:\n        /* \"#utility.yul\":10773:10774   */\n      0x00\n        /* \"#utility.yul\":10770:10771   */\n      dup1\n        /* \"#utility.yul\":10763:10775   */\n      revert\n        /* \"#utility.yul\":10787:10904   */\n    tag_255:\n        /* \"#utility.yul\":10896:10897   */\n      0x00\n        /* \"#utility.yul\":10893:10894   */\n      dup1\n        /* \"#utility.yul\":10886:10898   */\n      revert\n        /* \"#utility.yul\":10910:11090   */\n    tag_81:\n        /* \"#utility.yul\":10958:11035   */\n      0x4e487b7100000000000000000000000000000000000000000000000000000000\n        /* \"#utility.yul\":10955:10956   */\n      0x00\n        /* \"#utility.yul\":10948:11036   */\n      mstore\n        /* \"#utility.yul\":11055:11059   */\n      0x41\n        /* \"#utility.yul\":11052:11053   */\n      0x04\n        /* \"#utility.yul\":11045:11060   */\n      mstore\n        /* \"#utility.yul\":11079:11083   */\n      0x24\n        /* \"#utility.yul\":11076:11077   */\n      0x00\n        /* \"#utility.yul\":11069:11084   */\n      revert\n        /* \"#utility.yul\":11096:11377   */\n    tag_256:\n        /* \"#utility.yul\":11179:11206   */\n      tag_395\n        /* \"#utility.yul\":11201:11205   */\n      dup3\n        /* \"#utility.yul\":11179:11206   */\n      tag_229\n      jump\t// in\n    tag_395:\n        /* \"#utility.yul\":11171:11177   */\n      dup2\n        /* \"#utility.yul\":11167:11207   */\n      add\n        /* \"#utility.yul\":11309:11315   */\n      dup2\n        /* \"#utility.yul\":11297:11307   */\n      dup2\n        /* \"#utility.yul\":11294:11316   */\n      lt\n        /* \"#utility.yul\":11273:11291   */\n      0xffffffffffffffff\n        /* \"#utility.yul\":11261:11271   */\n      dup3\n        /* \"#utility.yul\":11258:11292   */\n      gt\n        /* \"#utility.yul\":11255:11317   */\n      or\n        /* \"#utility.yul\":11252:11340   */\n      iszero\n      tag_396\n      jumpi\n        /* \"#utility.yul\":11320:11338   */\n      tag_397\n      tag_81\n      jump\t// in\n    tag_397:\n        /* \"#utility.yul\":11252:11340   */\n    tag_396:\n        /* \"#utility.yul\":11360:11370   */\n      dup1\n        /* \"#utility.yul\":11356:11358   */\n      0x40\n        /* \"#utility.yul\":11349:11371   */\n      mstore\n        /* \"#utility.yul\":11139:11377   */\n      pop\n        /* \"#utility.yul\":11096:11377   */\n      pop\n      pop\n      jump\t// out\n        /* \"#utility.yul\":11383:11512   */\n    tag_257:\n        /* \"#utility.yul\":11417:11423   */\n      0x00\n        /* \"#utility.yul\":11444:11464   */\n      tag_399\n      tag_237\n      jump\t// in\n    tag_399:\n        /* \"#utility.yul\":11434:11464   */\n      swap1\n      pop\n        /* \"#utility.yul\":11473:11506   */\n      tag_400\n        /* \"#utility.yul\":11501:11505   */\n      dup3\n        /* \"#utility.yul\":11493:11499   */\n      dup3\n        /* \"#utility.yul\":11473:11506   */\n      tag_256\n      jump\t// in\n    tag_400:\n        /* \"#utility.yul\":11383:11512   */\n      swap2\n      swap1\n      pop\n      jump\t// out\n        /* \"#utility.yul\":11518:11826   */\n    tag_258:\n        /* \"#utility.yul\":11580:11584   */\n      0x00\n        /* \"#utility.yul\":11670:11688   */\n      0xffffffffffffffff\n        /* \"#utility.yul\":11662:11668   */\n      dup3\n        /* \"#utility.yul\":11659:11689   */\n      gt\n        /* \"#utility.yul\":11656:11712   */\n      iszero\n      tag_402\n      jumpi\n        /* \"#utility.yul\":11692:11710   */\n      tag_403\n      tag_81\n      jump\t// in\n    tag_403:\n        /* \"#utility.yul\":11656:11712   */\n    tag_402:\n        /* \"#utility.yul\":11730:11759   */\n      tag_404\n        /* \"#utility.yul\":11752:11758   */\n      dup3\n        /* \"#utility.yul\":11730:11759   */\n      tag_229\n      jump\t// in\n    tag_404:\n        /* \"#utility.yul\":11722:11759   */\n      swap1\n      pop\n        /* \"#utility.yul\":11814:11818   */\n      0x20\n        /* \"#utility.yul\":11808:11812   */\n      dup2\n        /* \"#utility.yul\":11804:11819   */\n      add\n        /* \"#utility.yul\":11796:11819   */\n      swap1\n      pop\n        /* \"#utility.yul\":11518:11826   */\n      swap2\n      swap1\n      pop\n      jump\t// out\n        /* \"#utility.yul\":11832:11980   */\n    tag_259:\n        /* \"#utility.yul\":11930:11936   */\n      dup3\n        /* \"#utility.yul\":11925:11928   */\n      dup2\n        /* \"#utility.yul\":11920:11923   */\n      dup4\n        /* \"#utility.yul\":11907:11937   */\n      calldatacopy\n        /* \"#utility.yul\":11971:11972   */\n      0x00\n        /* \"#utility.yul\":11962:11968   */\n      dup4\n        /* \"#utility.yul\":11957:11960   */\n      dup4\n        /* \"#utility.yul\":11953:11969   */\n      add\n        /* \"#utility.yul\":11946:11973   */\n      mstore\n        /* \"#utility.yul\":11832:11980   */\n      pop\n      pop\n      pop\n      jump\t// out\n        /* \"#utility.yul\":11986:12411   */\n    tag_260:\n        /* \"#utility.yul\":12064:12069   */\n      0x00\n        /* \"#utility.yul\":12089:12155   */\n      tag_407\n        /* \"#utility.yul\":12105:12154   */\n      tag_408\n        /* \"#utility.yul\":12147:12153   */\n      dup5\n        /* \"#utility.yul\":12105:12154   */\n      tag_258\n      jump\t// in\n    tag_408:\n        /* \"#utility.yul\":12089:12155   */\n      tag_257\n      jump\t// in\n    tag_407:\n        /* \"#utility.yul\":12080:12155   */\n      swap1\n      pop\n        /* \"#utility.yul\":12178:12184   */\n      dup3\n        /* \"#utility.yul\":12171:12176   */\n      dup2\n        /* \"#utility.yul\":12164:12185   */\n      mstore\n        /* \"#utility.yul\":12216:12220   */\n      0x20\n        /* \"#utility.yul\":12209:12214   */\n      dup2\n        /* \"#utility.yul\":12205:12221   */\n      add\n        /* \"#utility.yul\":12254:12257   */\n      dup5\n        /* \"#utility.yul\":12245:12251   */\n      dup5\n        /* \"#utility.yul\":12240:12243   */\n      dup5\n        /* \"#utility.yul\":12236:12252   */\n      add\n        /* \"#utility.yul\":12233:12258   */\n      gt\n        /* \"#utility.yul\":12230:12342   */\n      iszero\n      tag_409\n      jumpi\n        /* \"#utility.yul\":12261:12340   */\n      tag_410\n      tag_255\n      jump\t// in\n    tag_410:\n        /* \"#utility.yul\":12230:12342   */\n    tag_409:\n        /* \"#utility.yul\":12351:12405   */\n      tag_411\n        /* \"#utility.yul\":12398:12404   */\n      dup5\n        /* \"#utility.yul\":12393:12396   */\n      dup3\n        /* \"#utility.yul\":12388:12391   */\n      dup6\n        /* \"#utility.yul\":12351:12405   */\n      tag_259\n      jump\t// in\n    tag_411:\n        /* \"#utility.yul\":12070:12411   */\n      pop\n        /* \"#utility.yul\":11986:12411   */\n      swap4\n      swap3\n      pop\n      pop\n      pop\n      jump\t// out\n        /* \"#utility.yul\":12431:12771   */\n    tag_261:\n        /* \"#utility.yul\":12487:12492   */\n      0x00\n        /* \"#utility.yul\":12536:12539   */\n      dup3\n        /* \"#utility.yul\":12529:12533   */\n      0x1f\n        /* \"#utility.yul\":12521:12527   */\n      dup4\n        /* \"#utility.yul\":12517:12534   */\n      add\n        /* \"#utility.yul\":12513:12540   */\n      slt\n        /* \"#utility.yul\":12503:12625   */\n      tag_413\n      jumpi\n        /* \"#utility.yul\":12544:12623   */\n      tag_414\n      tag_254\n      jump\t// in\n    tag_414:\n        /* \"#utility.yul\":12503:12625   */\n    tag_413:\n        /* \"#utility.yul\":12661:12667   */\n      dup2\n        /* \"#utility.yul\":12648:12668   */\n      calldataload\n        /* \"#utility.yul\":12686:12765   */\n      tag_415\n        /* \"#utility.yul\":12761:12764   */\n      dup5\n        /* \"#utility.yul\":12753:12759   */\n      dup3\n        /* \"#utility.yul\":12746:12750   */\n      0x20\n        /* \"#utility.yul\":12738:12744   */\n      dup7\n        /* \"#utility.yul\":12734:12751   */\n      add\n        /* \"#utility.yul\":12686:12765   */\n      tag_260\n      jump\t// in\n    tag_415:\n        /* \"#utility.yul\":12677:12765   */\n      swap2\n      pop\n        /* \"#utility.yul\":12493:12771   */\n      pop\n        /* \"#utility.yul\":12431:12771   */\n      swap3\n      swap2\n      pop\n      pop\n      jump\t// out\n        /* \"#utility.yul\":12777:13286   */\n    tag_31:\n        /* \"#utility.yul\":12846:12852   */\n      0x00\n        /* \"#utility.yul\":12895:12897   */\n      0x20\n        /* \"#utility.yul\":12883:12892   */\n      dup3\n        /* \"#utility.yul\":12874:12881   */\n      dup5\n        /* \"#utility.yul\":12870:12893   */\n      sub\n        /* \"#utility.yul\":12866:12898   */\n      slt\n        /* \"#utility.yul\":12863:12982   */\n      iszero\n      tag_417\n      jumpi\n        /* \"#utility.yul\":12901:12980   */\n      tag_418\n      tag_238\n      jump\t// in\n    tag_418:\n        /* \"#utility.yul\":12863:12982   */\n    tag_417:\n        /* \"#utility.yul\":13049:13050   */\n      0x00\n        /* \"#utility.yul\":13038:13047   */\n      dup3\n        /* \"#utility.yul\":13034:13051   */\n      add\n        /* \"#utility.yul\":13021:13052   */\n      calldataload\n        /* \"#utility.yul\":13079:13097   */\n      0xffffffffffffffff\n        /* \"#utility.yul\":13071:13077   */\n      dup2\n        /* \"#utility.yul\":13068:13098   */\n      gt\n        /* \"#utility.yul\":13065:13182   */\n      iszero\n      tag_419\n      jumpi\n        /* \"#utility.yul\":13101:13180   */\n      tag_420\n      tag_239\n      jump\t// in\n    tag_420:\n        /* \"#utility.yul\":13065:13182   */\n    tag_419:\n        /* \"#utility.yul\":13206:13269   */\n      tag_421\n        /* \"#utility.yul\":13261:13268   */\n      dup5\n        /* \"#utility.yul\":13252:13258   */\n      dup3\n        /* \"#utility.yul\":13241:13250   */\n      dup6\n        /* \"#utility.yul\":13237:13259   */\n      add\n        /* \"#utility.yul\":13206:13269   */\n      tag_261\n      jump\t// in\n    tag_421:\n        /* \"#utility.yul\":13196:13269   */\n      swap2\n      pop\n        /* \"#utility.yul\":12992:13279   */\n      pop\n        /* \"#utility.yul\":12777:13286   */\n      swap3\n      swap2\n      pop\n      pop\n      jump\t// out\n        /* \"#utility.yul\":13292:13410   */\n    tag_262:\n        /* \"#utility.yul\":13379:13403   */\n      tag_423\n        /* \"#utility.yul\":13397:13402   */\n      dup2\n        /* \"#utility.yul\":13379:13403   */\n      tag_241\n      jump\t// in\n    tag_423:\n        /* \"#utility.yul\":13374:13377   */\n      dup3\n        /* \"#utility.yul\":13367:13404   */\n      mstore\n        /* \"#utility.yul\":13292:13410   */\n      pop\n      pop\n      jump\t// out\n        /* \"#utility.yul\":13416:13638   */\n    tag_40:\n        /* \"#utility.yul\":13509:13513   */\n      0x00\n        /* \"#utility.yul\":13547:13549   */\n      0x20\n        /* \"#utility.yul\":13536:13545   */\n      dup3\n        /* \"#utility.yul\":13532:13550   */\n      add\n        /* \"#utility.yul\":13524:13550   */\n      swap1\n      pop\n        /* \"#utility.yul\":13560:13631   */\n      tag_425\n        /* \"#utility.yul\":13628:13629   */\n      0x00\n        /* \"#utility.yul\":13617:13626   */\n      dup4\n        /* \"#utility.yul\":13613:13630   */\n      add\n        /* \"#utility.yul\":13604:13610   */\n      dup5\n        /* \"#utility.yul\":13560:13631   */\n      tag_262\n      jump\t// in\n    tag_425:\n        /* \"#utility.yul\":13416:13638   */\n      swap3\n      swap2\n      pop\n      pop\n      jump\t// out\n        /* \"#utility.yul\":13644:13766   */\n    tag_263:\n        /* \"#utility.yul\":13717:13741   */\n      tag_427\n        /* \"#utility.yul\":13735:13740   */\n      dup2\n        /* \"#utility.yul\":13717:13741   */\n      tag_231\n      jump\t// in\n    tag_427:\n        /* \"#utility.yul\":13710:13715   */\n      dup2\n        /* \"#utility.yul\":13707:13742   */\n      eq\n        /* \"#utility.yul\":13697:13760   */\n      tag_428\n      jumpi\n        /* \"#utility.yul\":13756:13757   */\n      0x00\n        /* \"#utility.yul\":13753:13754   */\n      dup1\n        /* \"#utility.yul\":13746:13758   */\n      revert\n        /* \"#utility.yul\":13697:13760   */\n    tag_428:\n        /* \"#utility.yul\":13644:13766   */\n      pop\n      jump\t// out\n        /* \"#utility.yul\":13772:13911   */\n    tag_264:\n        /* \"#utility.yul\":13818:13823   */\n      0x00\n        /* \"#utility.yul\":13856:13862   */\n      dup2\n        /* \"#utility.yul\":13843:13863   */\n      calldataload\n        /* \"#utility.yul\":13834:13863   */\n      swap1\n      pop\n        /* \"#utility.yul\":13872:13905   */\n      tag_430\n        /* \"#utility.yul\":13899:13904   */\n      dup2\n        /* \"#utility.yul\":13872:13905   */\n      tag_263\n      jump\t// in\n    tag_430:\n        /* \"#utility.yul\":13772:13911   */\n      swap3\n      swap2\n      pop\n      pop\n      jump\t// out\n        /* \"#utility.yul\":13917:14246   */\n    tag_46:\n        /* \"#utility.yul\":13976:13982   */\n      0x00\n        /* \"#utility.yul\":14025:14027   */\n      0x20\n        /* \"#utility.yul\":14013:14022   */\n      dup3\n        /* \"#utility.yul\":14004:14011   */\n      dup5\n        /* \"#utility.yul\":14000:14023   */\n      sub\n        /* \"#utility.yul\":13996:14028   */\n      slt\n        /* \"#utility.yul\":13993:14112   */\n      iszero\n      tag_432\n      jumpi\n        /* \"#utility.yul\":14031:14110   */\n      tag_433\n      tag_238\n      jump\t// in\n    tag_433:\n        /* \"#utility.yul\":13993:14112   */\n    tag_432:\n        /* \"#utility.yul\":14151:14152   */\n      0x00\n        /* \"#utility.yul\":14176:14229   */\n      tag_434\n        /* \"#utility.yul\":14221:14228   */\n      dup5\n        /* \"#utility.yul\":14212:14218   */\n      dup3\n        /* \"#utility.yul\":14201:14210   */\n      dup6\n        /* \"#utility.yul\":14197:14219   */\n      add\n        /* \"#utility.yul\":14176:14229   */\n      tag_264\n      jump\t// in\n    tag_434:\n        /* \"#utility.yul\":14166:14229   */\n      swap2\n      pop\n        /* \"#utility.yul\":14122:14239   */\n      pop\n        /* \"#utility.yul\":13917:14246   */\n      swap3\n      swap2\n      pop\n      pop\n      jump\t// out\n        /* \"#utility.yul\":14252:14432   */\n    tag_265:\n        /* \"#utility.yul\":14300:14377   */\n      0x4e487b7100000000000000000000000000000000000000000000000000000000\n        /* \"#utility.yul\":14297:14298   */\n      0x00\n        /* \"#utility.yul\":14290:14378   */\n      mstore\n        /* \"#utility.yul\":14397:14401   */\n      0x22\n        /* \"#utility.yul\":14394:14395   */\n      0x04\n        /* \"#utility.yul\":14387:14402   */\n      mstore\n        /* \"#utility.yul\":14421:14425   */\n      0x24\n        /* \"#utility.yul\":14418:14419   */\n      0x00\n        /* \"#utility.yul\":14411:14426   */\n      revert\n        /* \"#utility.yul\":14438:14758   */\n    tag_53:\n        /* \"#utility.yul\":14482:14488   */\n      0x00\n        /* \"#utility.yul\":14519:14520   */\n      0x02\n        /* \"#utility.yul\":14513:14517   */\n      dup3\n        /* \"#utility.yul\":14509:14521   */\n      div\n        /* \"#utility.yul\":14499:14521   */\n      swap1\n      pop\n        /* \"#utility.yul\":14566:14567   */\n      0x01\n        /* \"#utility.yul\":14560:14564   */\n      dup3\n        /* \"#utility.yul\":14556:14568   */\n      and\n        /* \"#utility.yul\":14587:14605   */\n      dup1\n        /* \"#utility.yul\":14577:14658   */\n      tag_437\n      jumpi\n        /* \"#utility.yul\":14643:14647   */\n      0x7f\n        /* \"#utility.yul\":14635:14641   */\n      dup3\n        /* \"#utility.yul\":14631:14648   */\n      and\n        /* \"#utility.yul\":14621:14648   */\n      swap2\n      pop\n        /* \"#utility.yul\":14577:14658   */\n    tag_437:\n        /* \"#utility.yul\":14705:14707   */\n      0x20\n        /* \"#utility.yul\":14697:14703   */\n      dup3\n        /* \"#utility.yul\":14694:14708   */\n      lt\n        /* \"#utility.yul\":14674:14692   */\n      dup2\n        /* \"#utility.yul\":14671:14709   */\n      sub\n        /* \"#utility.yul\":14668:14752   */\n      tag_438\n      jumpi\n        /* \"#utility.yul\":14724:14742   */\n      tag_439\n      tag_265\n      jump\t// in\n    tag_439:\n        /* \"#utility.yul\":14668:14752   */\n    tag_438:\n        /* \"#utility.yul\":14489:14758   */\n      pop\n        /* \"#utility.yul\":14438:14758   */\n      swap2\n      swap1\n      pop\n      jump\t// out\n        /* \"#utility.yul\":14764:14944   */\n    tag_74:\n        /* \"#utility.yul\":14812:14889   */\n      0x4e487b7100000000000000000000000000000000000000000000000000000000\n        /* \"#utility.yul\":14809:14810   */\n      0x00\n        /* \"#utility.yul\":14802:14890   */\n      mstore\n        /* \"#utility.yul\":14909:14913   */\n      0x32\n        /* \"#utility.yul\":14906:14907   */\n      0x04\n        /* \"#utility.yul\":14899:14914   */\n      mstore\n        /* \"#utility.yul\":14933:14937   */\n      0x24\n        /* \"#utility.yul\":14930:14931   */\n      0x00\n        /* \"#utility.yul\":14923:14938   */\n      revert\n        /* \"#utility.yul\":14950:15130   */\n    tag_266:\n        /* \"#utility.yul\":14998:15075   */\n      0x4e487b7100000000000000000000000000000000000000000000000000000000\n        /* \"#utility.yul\":14995:14996   */\n      0x00\n        /* \"#utility.yul\":14988:15076   */\n      mstore\n        /* \"#utility.yul\":15095:15099   */\n      0x11\n        /* \"#utility.yul\":15092:15093   */\n      0x04\n        /* \"#utility.yul\":15085:15100   */\n      mstore\n        /* \"#utility.yul\":15119:15123   */\n      0x24\n        /* \"#utility.yul\":15116:15117   */\n      0x00\n        /* \"#utility.yul\":15109:15124   */\n      revert\n        /* \"#utility.yul\":15136:15369   */\n    tag_78:\n        /* \"#utility.yul\":15175:15178   */\n      0x00\n        /* \"#utility.yul\":15198:15222   */\n      tag_443\n        /* \"#utility.yul\":15216:15221   */\n      dup3\n        /* \"#utility.yul\":15198:15222   */\n      tag_231\n      jump\t// in\n    tag_443:\n        /* \"#utility.yul\":15189:15222   */\n      swap2\n      pop\n        /* \"#utility.yul\":15244:15310   */\n      0xffffffffffffffffffffffffffffffffffffffffffffffffffffffffffffffff\n        /* \"#utility.yul\":15237:15242   */\n      dup3\n        /* \"#utility.yul\":15234:15311   */\n      sub\n        /* \"#utility.yul\":15231:15334   */\n      tag_444\n      jumpi\n        /* \"#utility.yul\":15314:15332   */\n      tag_445\n      tag_266\n      jump\t// in\n    tag_445:\n        /* \"#utility.yul\":15231:15334   */\n    tag_444:\n        /* \"#utility.yul\":15361:15362   */\n      0x01\n        /* \"#utility.yul\":15354:15359   */\n      dup3\n        /* \"#utility.yul\":15350:15363   */\n      add\n        /* \"#utility.yul\":15343:15363   */\n      swap1\n      pop\n        /* \"#utility.yul\":15136:15369   */\n      swap2\n      swap1\n      pop\n      jump\t// out\n        /* \"#utility.yul\":15375:15555   */\n    tag_108:\n        /* \"#utility.yul\":15423:15500   */\n      0x4e487b7100000000000000000000000000000000000000000000000000000000\n        /* \"#utility.yul\":15420:15421   */\n      0x00\n        /* \"#utility.yul\":15413:15501   */\n      mstore\n        /* \"#utility.yul\":15520:15524   */\n      0x21\n        /* \"#utility.yul\":15517:15518   */\n      0x04\n        /* \"#utility.yul\":15510:15525   */\n      mstore\n        /* \"#utility.yul\":15544:15548   */\n      0x24\n        /* \"#utility.yul\":15541:15542   */\n      0x00\n        /* \"#utility.yul\":15534:15549   */\n      revert\n        /* \"#utility.yul\":15561:15730   */\n    tag_267:\n        /* \"#utility.yul\":15645:15656   */\n      0x00\n        /* \"#utility.yul\":15679:15685   */\n      dup3\n        /* \"#utility.yul\":15674:15677   */\n      dup3\n        /* \"#utility.yul\":15667:15686   */\n      mstore\n        /* \"#utility.yul\":15719:15723   */\n      0x20\n        /* \"#utility.yul\":15714:15717   */\n      dup3\n        /* \"#utility.yul\":15710:15724   */\n      add\n        /* \"#utility.yul\":15695:15724   */\n      swap1\n      pop\n        /* \"#utility.yul\":15561:15730   */\n      swap3\n      swap2\n      pop\n      pop\n      jump\t// out\n        /* \"#utility.yul\":15736:15904   */\n    tag_268:\n        /* \"#utility.yul\":15876:15896   */\n      0x496e73756666696369656e742066756e64730000000000000000000000000000\n        /* \"#utility.yul\":15872:15873   */\n      0x00\n        /* \"#utility.yul\":15864:15870   */\n      dup3\n        /* \"#utility.yul\":15860:15874   */\n      add\n        /* \"#utility.yul\":15853:15897   */\n      mstore\n        /* \"#utility.yul\":15736:15904   */\n      pop\n      jump\t// out\n        /* \"#utility.yul\":15910:16276   */\n    tag_269:\n        /* \"#utility.yul\":16052:16055   */\n      0x00\n        /* \"#utility.yul\":16073:16140   */\n      tag_450\n        /* \"#utility.yul\":16137:16139   */\n      0x12\n        /* \"#utility.yul\":16132:16135   */\n      dup4\n        /* \"#utility.yul\":16073:16140   */\n      tag_267\n      jump\t// in\n    tag_450:\n        /* \"#utility.yul\":16066:16140   */\n      swap2\n      pop\n        /* \"#utility.yul\":16149:16242   */\n      tag_451\n        /* \"#utility.yul\":16238:16241   */\n      dup3\n        /* \"#utility.yul\":16149:16242   */\n      tag_268\n      jump\t// in\n    tag_451:\n        /* \"#utility.yul\":16267:16269   */\n      0x20\n        /* \"#utility.yul\":16262:16265   */\n      dup3\n        /* \"#utility.yul\":16258:16270   */\n      add\n        /* \"#utility.yul\":16251:16270   */\n      swap1\n      pop\n        /* \"#utility.yul\":15910:16276   */\n      swap2\n      swap1\n      pop\n      jump\t// out\n        /* \"#utility.yul\":16282:16701   */\n    tag_122:\n        /* \"#utility.yul\":16448:16452   */\n      0x00\n        /* \"#utility.yul\":16486:16488   */\n      0x20\n        /* \"#utility.yul\":16475:16484   */\n      dup3\n        /* \"#utility.yul\":16471:16489   */\n      add\n        /* \"#utility.yul\":16463:16489   */\n      swap1\n      pop\n        /* \"#utility.yul\":16535:16544   */\n      dup2\n        /* \"#utility.yul\":16529:16533   */\n      dup2\n        /* \"#utility.yul\":16525:16545   */\n      sub\n        /* \"#utility.yul\":16521:16522   */\n      0x00\n        /* \"#utility.yul\":16510:16519   */\n      dup4\n        /* \"#utility.yul\":16506:16523   */\n      add\n        /* \"#utility.yul\":16499:16546   */\n      mstore\n        /* \"#utility.yul\":16563:16694   */\n      tag_453\n        /* \"#utility.yul\":16689:16693   */\n      dup2\n        /* \"#utility.yul\":16563:16694   */\n      tag_269\n      jump\t// in\n    tag_453:\n        /* \"#utility.yul\":16555:16694   */\n      swap1\n      pop\n        /* \"#utility.yul\":16282:16701   */\n      swap2\n      swap1\n      pop\n      jump\t// out\n        /* \"#utility.yul\":16707:16901   */\n    tag_124:\n        /* \"#utility.yul\":16747:16751   */\n      0x00\n        /* \"#utility.yul\":16767:16787   */\n      tag_455\n        /* \"#utility.yul\":16785:16786   */\n      dup3\n        /* \"#utility.yul\":16767:16787   */\n      tag_231\n      jump\t// in\n    tag_455:\n        /* \"#utility.yul\":16762:16787   */\n      swap2\n      pop\n        /* \"#utility.yul\":16801:16821   */\n      tag_456\n        /* \"#utility.yul\":16819:16820   */\n      dup4\n        /* \"#utility.yul\":16801:16821   */\n      tag_231\n      jump\t// in\n    tag_456:\n        /* \"#utility.yul\":16796:16821   */\n      swap3\n      pop\n        /* \"#utility.yul\":16845:16846   */\n      dup3\n        /* \"#utility.yul\":16842:16843   */\n      dup3\n        /* \"#utility.yul\":16838:16847   */\n      sub\n        /* \"#utility.yul\":16830:16847   */\n      swap1\n      pop\n        /* \"#utility.yul\":16869:16870   */\n      dup2\n        /* \"#utility.yul\":16863:16867   */\n      dup2\n        /* \"#utility.yul\":16860:16871   */\n      gt\n        /* \"#utility.yul\":16857:16894   */\n      iszero\n      tag_457\n      jumpi\n        /* \"#utility.yul\":16874:16892   */\n      tag_458\n      tag_266\n      jump\t// in\n    tag_458:\n        /* \"#utility.yul\":16857:16894   */\n    tag_457:\n        /* \"#utility.yul\":16707:16901   */\n      swap3\n      swap2\n      pop\n      pop\n      jump\t// out\n        /* \"#utility.yul\":16907:17048   */\n    tag_270:\n        /* \"#utility.yul\":16956:16960   */\n      0x00\n        /* \"#utility.yul\":16979:16982   */\n      dup2\n        /* \"#utility.yul\":16971:16982   */\n      swap1\n      pop\n        /* \"#utility.yul\":17002:17005   */\n      dup2\n        /* \"#utility.yul\":16999:17000   */\n      0x00\n        /* \"#utility.yul\":16992:17006   */\n      mstore\n        /* \"#utility.yul\":17036:17040   */\n      0x20\n        /* \"#utility.yul\":17033:17034   */\n      0x00\n        /* \"#utility.yul\":17023:17041   */\n      keccak256\n        /* \"#utility.yul\":17015:17041   */\n      swap1\n      pop\n        /* \"#utility.yul\":16907:17048   */\n      swap2\n      swap1\n      pop\n      jump\t// out\n        /* \"#utility.yul\":17054:17147   */\n    tag_271:\n        /* \"#utility.yul\":17091:17097   */\n      0x00\n        /* \"#utility.yul\":17138:17140   */\n      0x20\n        /* \"#utility.yul\":17133:17135   */\n      0x1f\n        /* \"#utility.yul\":17126:17131   */\n      dup4\n        /* \"#utility.yul\":17122:17136   */\n      add\n        /* \"#utility.yul\":17118:17141   */\n      div\n        /* \"#utility.yul\":17108:17141   */\n      swap1\n      pop\n        /* \"#utility.yul\":17054:17147   */\n      swap2\n      swap1\n      pop\n      jump\t// out\n        /* \"#utility.yul\":17153:17260   */\n    tag_272:\n        /* \"#utility.yul\":17197:17205   */\n      0x00\n        /* \"#utility.yul\":17247:17252   */\n      dup3\n        /* \"#utility.yul\":17241:17245   */\n      dup3\n        /* \"#utility.yul\":17237:17253   */\n      shl\n        /* \"#utility.yul\":17216:17253   */\n      swap1\n      pop\n        /* \"#utility.yul\":17153:17260   */\n      swap3\n      swap2\n      pop\n      pop\n      jump\t// out\n        /* \"#utility.yul\":17266:17659   */\n    tag_273:\n        /* \"#utility.yul\":17335:17341   */\n      0x00\n        /* \"#utility.yul\":17385:17386   */\n      0x08\n        /* \"#utility.yul\":17373:17383   */\n      dup4\n        /* \"#utility.yul\":17369:17387   */\n      mul\n        /* \"#utility.yul\":17408:17505   */\n      tag_463\n        /* \"#utility.yul\":17438:17504   */\n      0xffffffffffffffffffffffffffffffffffffffffffffffffffffffffffffffff\n        /* \"#utility.yul\":17427:17436   */\n      dup3\n        /* \"#utility.yul\":17408:17505   */\n      tag_272\n      jump\t// in\n    tag_463:\n        /* \"#utility.yul\":17526:17565   */\n      tag_464\n        /* \"#utility.yul\":17556:17564   */\n      dup7\n        /* \"#utility.yul\":17545:17554   */\n      dup4\n        /* \"#utility.yul\":17526:17565   */\n      tag_272\n      jump\t// in\n    tag_464:\n        /* \"#utility.yul\":17514:17565   */\n      swap6\n      pop\n        /* \"#utility.yul\":17598:17602   */\n      dup1\n        /* \"#utility.yul\":17594:17603   */\n      not\n        /* \"#utility.yul\":17587:17592   */\n      dup5\n        /* \"#utility.yul\":17583:17604   */\n      and\n        /* \"#utility.yul\":17574:17604   */\n      swap4\n      pop\n        /* \"#utility.yul\":17647:17651   */\n      dup1\n        /* \"#utility.yul\":17637:17645   */\n      dup7\n        /* \"#utility.yul\":17633:17652   */\n      and\n        /* \"#utility.yul\":17626:17631   */\n      dup5\n        /* \"#utility.yul\":17623:17653   */\n      or\n        /* \"#utility.yul\":17613:17653   */\n      swap3\n      pop\n        /* \"#utility.yul\":17342:17659   */\n      pop\n      pop\n        /* \"#utility.yul\":17266:17659   */\n      swap4\n      swap3\n      pop\n      pop\n      pop\n      jump\t// out\n        /* \"#utility.yul\":17665:17725   */\n    tag_274:\n        /* \"#utility.yul\":17693:17696   */\n      0x00\n        /* \"#utility.yul\":17714:17719   */\n      dup2\n        /* \"#utility.yul\":17707:17719   */\n      swap1\n      pop\n        /* \"#utility.yul\":17665:17725   */\n      swap2\n      swap1\n      pop\n      jump\t// out\n        /* \"#utility.yul\":17731:17873   */\n    tag_275:\n        /* \"#utility.yul\":17781:17790   */\n      0x00\n        /* \"#utility.yul\":17814:17867   */\n      tag_467\n        /* \"#utility.yul\":17832:17866   */\n      tag_468\n        /* \"#utility.yul\":17841:17865   */\n      tag_469\n        /* \"#utility.yul\":17859:17864   */\n      dup5\n        /* \"#utility.yul\":17841:17865   */\n      tag_231\n      jump\t// in\n    tag_469:\n        /* \"#utility.yul\":17832:17866   */\n      tag_274\n      jump\t// in\n    tag_468:\n        /* \"#utility.yul\":17814:17867   */\n      tag_231\n      jump\t// in\n    tag_467:\n        /* \"#utility.yul\":17801:17867   */\n      swap1\n      pop\n        /* \"#utility.yul\":17731:17873   */\n      swap2\n      swap1\n      pop\n      jump\t// out\n        /* \"#utility.yul\":17879:17954   */\n    tag_276:\n        /* \"#utility.yul\":17922:17925   */\n      0x00\n        /* \"#utility.yul\":17943:17948   */\n      dup2\n        /* \"#utility.yul\":17936:17948   */\n      swap1\n      pop\n        /* \"#utility.yul\":17879:17954   */\n      swap2\n      swap1\n      pop\n      jump\t// out\n        /* \"#utility.yul\":17960:18229   */\n    tag_277:\n        /* \"#utility.yul\":18070:18109   */\n      tag_472\n        /* \"#utility.yul\":18101:18108   */\n      dup4\n        /* \"#utility.yul\":18070:18109   */\n      tag_275\n      jump\t// in\n    tag_472:\n        /* \"#utility.yul\":18131:18222   */\n      tag_473\n        /* \"#utility.yul\":18180:18221   */\n      tag_474\n        /* \"#utility.yul\":18204:18220   */\n      dup3\n        /* \"#utility.yul\":18180:18221   */\n      tag_276\n      jump\t// in\n    tag_474:\n        /* \"#utility.yul\":18172:18178   */\n      dup5\n        /* \"#utility.yul\":18165:18169   */\n      dup5\n        /* \"#utility.yul\":18159:18170   */\n      sload\n        /* \"#utility.yul\":18131:18222   */\n      tag_273\n      jump\t// in\n    tag_473:\n        /* \"#utility.yul\":18125:18129   */\n      dup3\n        /* \"#utility.yul\":18118:18223   */\n      sstore\n        /* \"#utility.yul\":18036:18229   */\n      pop\n        /* \"#utility.yul\":17960:18229   */\n      pop\n      pop\n      pop\n      jump\t// out\n        /* \"#utility.yul\":18235:18308   */\n    tag_278:\n        /* \"#utility.yul\":18280:18283   */\n      0x00\n        /* \"#utility.yul\":18235:18308   */\n      swap1\n      jump\t// out\n        /* \"#utility.yul\":18314:18503   */\n    tag_279:\n        /* \"#utility.yul\":18391:18423   */\n      tag_477\n      tag_278\n      jump\t// in\n    tag_477:\n        /* \"#utility.yul\":18432:18497   */\n      tag_478\n        /* \"#utility.yul\":18490:18496   */\n      dup2\n        /* \"#utility.yul\":18482:18488   */\n      dup5\n        /* \"#utility.yul\":18476:18480   */\n      dup5\n        /* \"#utility.yul\":18432:18497   */\n      tag_277\n      jump\t// in\n    tag_478:\n        /* \"#utility.yul\":18367:18503   */\n      pop\n        /* \"#utility.yul\":18314:18503   */\n      pop\n      pop\n      jump\t// out\n        /* \"#utility.yul\":18509:18695   */\n    tag_280:\n        /* \"#utility.yul\":18569:18689   */\n    tag_480:\n        /* \"#utility.yul\":18586:18589   */\n      dup2\n        /* \"#utility.yul\":18579:18584   */\n      dup2\n        /* \"#utility.yul\":18576:18590   */\n      lt\n        /* \"#utility.yul\":18569:18689   */\n      iszero\n      tag_482\n      jumpi\n        /* \"#utility.yul\":18640:18679   */\n      tag_483\n        /* \"#utility.yul\":18677:18678   */\n      0x00\n        /* \"#utility.yul\":18670:18675   */\n      dup3\n        /* \"#utility.yul\":18640:18679   */\n      tag_279\n      jump\t// in\n    tag_483:\n        /* \"#utility.yul\":18613:18614   */\n      0x01\n        /* \"#utility.yul\":18606:18611   */\n      dup2\n        /* \"#utility.yul\":18602:18615   */\n      add\n        /* \"#utility.yul\":18593:18615   */\n      swap1\n      pop\n        /* \"#utility.yul\":18569:18689   */\n      jump(tag_480)\n    tag_482:\n        /* \"#utility.yul\":18509:18695   */\n      pop\n      pop\n      jump\t// out\n        /* \"#utility.yul\":18701:19244   */\n    tag_281:\n        /* \"#utility.yul\":18802:18804   */\n      0x1f\n        /* \"#utility.yul\":18797:18800   */\n      dup3\n        /* \"#utility.yul\":18794:18805   */\n      gt\n        /* \"#utility.yul\":18791:19237   */\n      iszero\n      tag_485\n      jumpi\n        /* \"#utility.yul\":18836:18874   */\n      tag_486\n        /* \"#utility.yul\":18868:18873   */\n      dup2\n        /* \"#utility.yul\":18836:18874   */\n      tag_270\n      jump\t// in\n    tag_486:\n        /* \"#utility.yul\":18920:18949   */\n      tag_487\n        /* \"#utility.yul\":18938:18948   */\n      dup5\n        /* \"#utility.yul\":18920:18949   */\n      tag_271\n      jump\t// in\n    tag_487:\n        /* \"#utility.yul\":18910:18918   */\n      dup2\n        /* \"#utility.yul\":18906:18950   */\n      add\n        /* \"#utility.yul\":19103:19105   */\n      0x20\n        /* \"#utility.yul\":19091:19101   */\n      dup6\n        /* \"#utility.yul\":19088:19106   */\n      lt\n        /* \"#utility.yul\":19085:19134   */\n      iszero\n      tag_488\n      jumpi\n        /* \"#utility.yul\":19124:19132   */\n      dup2\n        /* \"#utility.yul\":19109:19132   */\n      swap1\n      pop\n        /* \"#utility.yul\":19085:19134   */\n    tag_488:\n        /* \"#utility.yul\":19147:19227   */\n      tag_489\n        /* \"#utility.yul\":19203:19225   */\n      tag_490\n        /* \"#utility.yul\":19221:19224   */\n      dup6\n        /* \"#utility.yul\":19203:19225   */\n      tag_271\n      jump\t// in\n    tag_490:\n        /* \"#utility.yul\":19193:19201   */\n      dup4\n        /* \"#utility.yul\":19189:19226   */\n      add\n        /* \"#utility.yul\":19176:19187   */\n      dup3\n        /* \"#utility.yul\":19147:19227   */\n      tag_280\n      jump\t// in\n    tag_489:\n        /* \"#utility.yul\":18806:19237   */\n      pop\n      pop\n        /* \"#utility.yul\":18791:19237   */\n    tag_485:\n        /* \"#utility.yul\":18701:19244   */\n      pop\n      pop\n      pop\n      jump\t// out\n        /* \"#utility.yul\":19250:19367   */\n    tag_282:\n        /* \"#utility.yul\":19304:19312   */\n      0x00\n        /* \"#utility.yul\":19354:19359   */\n      dup3\n        /* \"#utility.yul\":19348:19352   */\n      dup3\n        /* \"#utility.yul\":19344:19360   */\n      shr\n        /* \"#utility.yul\":19323:19360   */\n      swap1\n      pop\n        /* \"#utility.yul\":19250:19367   */\n      swap3\n      swap2\n      pop\n      pop\n      jump\t// out\n        /* \"#utility.yul\":19373:19542   */\n    tag_283:\n        /* \"#utility.yul\":19417:19423   */\n      0x00\n        /* \"#utility.yul\":19450:19501   */\n      tag_493\n        /* \"#utility.yul\":19498:19499   */\n      0x00\n        /* \"#utility.yul\":19494:19500   */\n      not\n        /* \"#utility.yul\":19486:19491   */\n      dup5\n        /* \"#utility.yul\":19483:19484   */\n      0x08\n        /* \"#utility.yul\":19479:19492   */\n      mul\n        /* \"#utility.yul\":19450:19501   */\n      tag_282\n      jump\t// in\n    tag_493:\n        /* \"#utility.yul\":19446:19502   */\n      not\n        /* \"#utility.yul\":19531:19535   */\n      dup1\n        /* \"#utility.yul\":19525:19529   */\n      dup4\n        /* \"#utility.yul\":19521:19536   */\n      and\n        /* \"#utility.yul\":19511:19536   */\n      swap2\n      pop\n        /* \"#utility.yul\":19424:19542   */\n      pop\n        /* \"#utility.yul\":19373:19542   */\n      swap3\n      swap2\n      pop\n      pop\n      jump\t// out\n        /* \"#utility.yul\":19547:19842   */\n    tag_284:\n        /* \"#utility.yul\":19623:19627   */\n      0x00\n        /* \"#utility.yul\":19769:19798   */\n      tag_495\n        /* \"#utility.yul\":19794:19797   */\n      dup4\n        /* \"#utility.yul\":19788:19792   */\n      dup4\n        /* \"#utility.yul\":19769:19798   */\n      tag_283\n      jump\t// in\n    tag_495:\n        /* \"#utility.yul\":19761:19798   */\n      swap2\n      pop\n        /* \"#utility.yul\":19831:19834   */\n      dup3\n        /* \"#utility.yul\":19828:19829   */\n      0x02\n        /* \"#utility.yul\":19824:19835   */\n      mul\n        /* \"#utility.yul\":19818:19822   */\n      dup3\n        /* \"#utility.yul\":19815:19836   */\n      or\n        /* \"#utility.yul\":19807:19836   */\n      swap1\n      pop\n        /* \"#utility.yul\":19547:19842   */\n      swap3\n      swap2\n      pop\n      pop\n      jump\t// out\n        /* \"#utility.yul\":19847:21242   */\n    tag_129:\n        /* \"#utility.yul\":19964:20001   */\n      tag_497\n        /* \"#utility.yul\":19997:20000   */\n      dup3\n        /* \"#utility.yul\":19964:20001   */\n      tag_226\n      jump\t// in\n    tag_497:\n        /* \"#utility.yul\":20066:20084   */\n      0xffffffffffffffff\n        /* \"#utility.yul\":20058:20064   */\n      dup2\n        /* \"#utility.yul\":20055:20085   */\n      gt\n        /* \"#utility.yul\":20052:20108   */\n      iszero\n      tag_498\n      jumpi\n        /* \"#utility.yul\":20088:20106   */\n      tag_499\n      tag_81\n      jump\t// in\n    tag_499:\n        /* \"#utility.yul\":20052:20108   */\n    tag_498:\n        /* \"#utility.yul\":20132:20170   */\n      tag_500\n        /* \"#utility.yul\":20164:20168   */\n      dup3\n        /* \"#utility.yul\":20158:20169   */\n      sload\n        /* \"#utility.yul\":20132:20170   */\n      tag_53\n      jump\t// in\n    tag_500:\n        /* \"#utility.yul\":20217:20284   */\n      tag_501\n        /* \"#utility.yul\":20277:20283   */\n      dup3\n        /* \"#utility.yul\":20269:20275   */\n      dup3\n        /* \"#utility.yul\":20263:20267   */\n      dup6\n        /* \"#utility.yul\":20217:20284   */\n      tag_281\n      jump\t// in\n    tag_501:\n        /* \"#utility.yul\":20311:20312   */\n      0x00\n        /* \"#utility.yul\":20335:20339   */\n      0x20\n        /* \"#utility.yul\":20322:20339   */\n      swap1\n      pop\n        /* \"#utility.yul\":20367:20369   */\n      0x1f\n        /* \"#utility.yul\":20359:20365   */\n      dup4\n        /* \"#utility.yul\":20356:20370   */\n      gt\n        /* \"#utility.yul\":20384:20385   */\n      0x01\n        /* \"#utility.yul\":20379:20997   */\n      dup2\n      eq\n      tag_503\n      jumpi\n        /* \"#utility.yul\":21041:21042   */\n      0x00\n        /* \"#utility.yul\":21058:21064   */\n      dup5\n        /* \"#utility.yul\":21055:21132   */\n      iszero\n      tag_504\n      jumpi\n        /* \"#utility.yul\":21107:21116   */\n      dup3\n        /* \"#utility.yul\":21102:21105   */\n      dup8\n        /* \"#utility.yul\":21098:21117   */\n      add\n        /* \"#utility.yul\":21092:21118   */\n      mload\n        /* \"#utility.yul\":21083:21118   */\n      swap1\n      pop\n        /* \"#utility.yul\":21055:21132   */\n    tag_504:\n        /* \"#utility.yul\":21158:21225   */\n      tag_505\n        /* \"#utility.yul\":21218:21224   */\n      dup6\n        /* \"#utility.yul\":21211:21216   */\n      dup3\n        /* \"#utility.yul\":21158:21225   */\n      tag_284\n      jump\t// in\n    tag_505:\n        /* \"#utility.yul\":21152:21156   */\n      dup7\n        /* \"#utility.yul\":21145:21226   */\n      sstore\n        /* \"#utility.yul\":21014:21236   */\n      pop\n        /* \"#utility.yul\":20349:21236   */\n      jump(tag_502)\n        /* \"#utility.yul\":20379:20997   */\n    tag_503:\n        /* \"#utility.yul\":20431:20435   */\n      0x1f\n        /* \"#utility.yul\":20427:20436   */\n      not\n        /* \"#utility.yul\":20419:20425   */\n      dup5\n        /* \"#utility.yul\":20415:20437   */\n      and\n        /* \"#utility.yul\":20465:20502   */\n      tag_506\n        /* \"#utility.yul\":20497:20501   */\n      dup7\n        /* \"#utility.yul\":20465:20502   */\n      tag_270\n      jump\t// in\n    tag_506:\n        /* \"#utility.yul\":20524:20525   */\n      0x00\n        /* \"#utility.yul\":20538:20746   */\n    tag_507:\n        /* \"#utility.yul\":20552:20559   */\n      dup3\n        /* \"#utility.yul\":20549:20550   */\n      dup2\n        /* \"#utility.yul\":20546:20560   */\n      lt\n        /* \"#utility.yul\":20538:20746   */\n      iszero\n      tag_509\n      jumpi\n        /* \"#utility.yul\":20631:20640   */\n      dup5\n        /* \"#utility.yul\":20626:20629   */\n      dup10\n        /* \"#utility.yul\":20622:20641   */\n      add\n        /* \"#utility.yul\":20616:20642   */\n      mload\n        /* \"#utility.yul\":20608:20614   */\n      dup3\n        /* \"#utility.yul\":20601:20643   */\n      sstore\n        /* \"#utility.yul\":20682:20683   */\n      0x01\n        /* \"#utility.yul\":20674:20680   */\n      dup3\n        /* \"#utility.yul\":20670:20684   */\n      add\n        /* \"#utility.yul\":20660:20684   */\n      swap2\n      pop\n        /* \"#utility.yul\":20729:20731   */\n      0x20\n        /* \"#utility.yul\":20718:20727   */\n      dup6\n        /* \"#utility.yul\":20714:20732   */\n      add\n        /* \"#utility.yul\":20701:20732   */\n      swap5\n      pop\n        /* \"#utility.yul\":20575:20579   */\n      0x20\n        /* \"#utility.yul\":20572:20573   */\n      dup2\n        /* \"#utility.yul\":20568:20580   */\n      add\n        /* \"#utility.yul\":20563:20580   */\n      swap1\n      pop\n        /* \"#utility.yul\":20538:20746   */\n      jump(tag_507)\n    tag_509:\n        /* \"#utility.yul\":20774:20780   */\n      dup7\n        /* \"#utility.yul\":20765:20772   */\n      dup4\n        /* \"#utility.yul\":20762:20781   */\n      lt\n        /* \"#utility.yul\":20759:20938   */\n      iszero\n      tag_510\n      jumpi\n        /* \"#utility.yul\":20832:20841   */\n      dup5\n        /* \"#utility.yul\":20827:20830   */\n      dup10\n        /* \"#utility.yul\":20823:20842   */\n      add\n        /* \"#utility.yul\":20817:20843   */\n      mload\n        /* \"#utility.yul\":20875:20923   */\n      tag_511\n        /* \"#utility.yul\":20917:20921   */\n      0x1f\n        /* \"#utility.yul\":20909:20915   */\n      dup10\n        /* \"#utility.yul\":20905:20922   */\n      and\n        /* \"#utility.yul\":20894:20903   */\n      dup3\n        /* \"#utility.yul\":20875:20923   */\n      tag_283\n      jump\t// in\n    tag_511:\n        /* \"#utility.yul\":20867:20873   */\n      dup4\n        /* \"#utility.yul\":20860:20924   */\n      sstore\n        /* \"#utility.yul\":20782:20938   */\n      pop\n        /* \"#utility.yul\":20759:20938   */\n    tag_510:\n        /* \"#utility.yul\":20984:20985   */\n      0x01\n        /* \"#utility.yul\":20980:20981   */\n      0x02\n        /* \"#utility.yul\":20972:20978   */\n      dup9\n        /* \"#utility.yul\":20968:20982   */\n      mul\n        /* \"#utility.yul\":20964:20986   */\n      add\n        /* \"#utility.yul\":20958:20962   */\n      dup9\n        /* \"#utility.yul\":20951:20987   */\n      sstore\n        /* \"#utility.yul\":20386:20997   */\n      pop\n      pop\n      pop\n        /* \"#utility.yul\":20349:21236   */\n    tag_502:\n      pop\n        /* \"#utility.yul\":19939:21242   */\n      pop\n      pop\n      pop\n        /* \"#utility.yul\":19847:21242   */\n      pop\n      pop\n      jump\t// out\n        /* \"#utility.yul\":21248:21625   */\n    tag_285:\n        /* \"#utility.yul\":21336:21339   */\n      0x00\n        /* \"#utility.yul\":21364:21403   */\n      tag_513\n        /* \"#utility.yul\":21397:21402   */\n      dup3\n        /* \"#utility.yul\":21364:21403   */\n      tag_226\n      jump\t// in\n    tag_513:\n        /* \"#utility.yul\":21419:21490   */\n      tag_514\n        /* \"#utility.yul\":21483:21489   */\n      dup2\n        /* \"#utility.yul\":21478:21481   */\n      dup6\n        /* \"#utility.yul\":21419:21490   */\n      tag_267\n      jump\t// in\n    tag_514:\n        /* \"#utility.yul\":21412:21490   */\n      swap4\n      pop\n        /* \"#utility.yul\":21499:21564   */\n      tag_515\n        /* \"#utility.yul\":21557:21563   */\n      dup2\n        /* \"#utility.yul\":21552:21555   */\n      dup6\n        /* \"#utility.yul\":21545:21549   */\n      0x20\n        /* \"#utility.yul\":21538:21543   */\n      dup7\n        /* \"#utility.yul\":21534:21550   */\n      add\n        /* \"#utility.yul\":21499:21564   */\n      tag_228\n      jump\t// in\n    tag_515:\n        /* \"#utility.yul\":21589:21618   */\n      tag_516\n        /* \"#utility.yul\":21611:21617   */\n      dup2\n        /* \"#utility.yul\":21589:21618   */\n      tag_229\n      jump\t// in\n    tag_516:\n        /* \"#utility.yul\":21584:21587   */\n      dup5\n        /* \"#utility.yul\":21580:21619   */\n      add\n        /* \"#utility.yul\":21573:21619   */\n      swap2\n      pop\n        /* \"#utility.yul\":21340:21625   */\n      pop\n        /* \"#utility.yul\":21248:21625   */\n      swap3\n      swap2\n      pop\n      pop\n      jump\t// out\n        /* \"#utility.yul\":21631:22164   */\n    tag_133:\n        /* \"#utility.yul\":21800:21804   */\n      0x00\n        /* \"#utility.yul\":21838:21840   */\n      0x60\n        /* \"#utility.yul\":21827:21836   */\n      dup3\n        /* \"#utility.yul\":21823:21841   */\n      add\n        /* \"#utility.yul\":21815:21841   */\n      swap1\n      pop\n        /* \"#utility.yul\":21887:21896   */\n      dup2\n        /* \"#utility.yul\":21881:21885   */\n      dup2\n        /* \"#utility.yul\":21877:21897   */\n      sub\n        /* \"#utility.yul\":21873:21874   */\n      0x00\n        /* \"#utility.yul\":21862:21871   */\n      dup4\n        /* \"#utility.yul\":21858:21875   */\n      add\n        /* \"#utility.yul\":21851:21898   */\n      mstore\n        /* \"#utility.yul\":21915:21993   */\n      tag_518\n        /* \"#utility.yul\":21988:21992   */\n      dup2\n        /* \"#utility.yul\":21979:21985   */\n      dup7\n        /* \"#utility.yul\":21915:21993   */\n      tag_285\n      jump\t// in\n    tag_518:\n        /* \"#utility.yul\":21907:21993   */\n      swap1\n      pop\n        /* \"#utility.yul\":22003:22075   */\n      tag_519\n        /* \"#utility.yul\":22071:22073   */\n      0x20\n        /* \"#utility.yul\":22060:22069   */\n      dup4\n        /* \"#utility.yul\":22056:22074   */\n      add\n        /* \"#utility.yul\":22047:22053   */\n      dup6\n        /* \"#utility.yul\":22003:22075   */\n      tag_253\n      jump\t// in\n    tag_519:\n        /* \"#utility.yul\":22085:22157   */\n      tag_520\n        /* \"#utility.yul\":22153:22155   */\n      0x40\n        /* \"#utility.yul\":22142:22151   */\n      dup4\n        /* \"#utility.yul\":22138:22156   */\n      add\n        /* \"#utility.yul\":22129:22135   */\n      dup5\n        /* \"#utility.yul\":22085:22157   */\n      tag_253\n      jump\t// in\n    tag_520:\n        /* \"#utility.yul\":21631:22164   */\n      swap5\n      swap4\n      pop\n      pop\n      pop\n      pop\n      jump\t// out\n        /* \"#utility.yul\":22170:22390   */\n    tag_286:\n        /* \"#utility.yul\":22310:22344   */\n      0x4f6e6c79206f776e65722063616e2063616c6c20746869732066756e6374696f\n        /* \"#utility.yul\":22306:22307   */\n      0x00\n        /* \"#utility.yul\":22298:22304   */\n      dup3\n        /* \"#utility.yul\":22294:22308   */\n      add\n        /* \"#utility.yul\":22287:22345   */\n      mstore\n        /* \"#utility.yul\":22379:22382   */\n      0x6e00000000000000000000000000000000000000000000000000000000000000\n        /* \"#utility.yul\":22374:22376   */\n      0x20\n        /* \"#utility.yul\":22366:22372   */\n      dup3\n        /* \"#utility.yul\":22362:22377   */\n      add\n        /* \"#utility.yul\":22355:22383   */\n      mstore\n        /* \"#utility.yul\":22170:22390   */\n      pop\n      jump\t// out\n        /* \"#utility.yul\":22396:22762   */\n    tag_287:\n        /* \"#utility.yul\":22538:22541   */\n      0x00\n        /* \"#utility.yul\":22559:22626   */\n      tag_523\n        /* \"#utility.yul\":22623:22625   */\n      0x21\n        /* \"#utility.yul\":22618:22621   */\n      dup4\n        /* \"#utility.yul\":22559:22626   */\n      tag_267\n      jump\t// in\n    tag_523:\n        /* \"#utility.yul\":22552:22626   */\n      swap2\n      pop\n        /* \"#utility.yul\":22635:22728   */\n      tag_524\n        /* \"#utility.yul\":22724:22727   */\n      dup3\n        /* \"#utility.yul\":22635:22728   */\n      tag_286\n      jump\t// in\n    tag_524:\n        /* \"#utility.yul\":22753:22755   */\n      0x40\n        /* \"#utility.yul\":22748:22751   */\n      dup3\n        /* \"#utility.yul\":22744:22756   */\n      add\n        /* \"#utility.yul\":22737:22756   */\n      swap1\n      pop\n        /* \"#utility.yul\":22396:22762   */\n      swap2\n      swap1\n      pop\n      jump\t// out\n        /* \"#utility.yul\":22768:23187   */\n    tag_137:\n        /* \"#utility.yul\":22934:22938   */\n      0x00\n        /* \"#utility.yul\":22972:22974   */\n      0x20\n        /* \"#utility.yul\":22961:22970   */\n      dup3\n        /* \"#utility.yul\":22957:22975   */\n      add\n        /* \"#utility.yul\":22949:22975   */\n      swap1\n      pop\n        /* \"#utility.yul\":23021:23030   */\n      dup2\n        /* \"#utility.yul\":23015:23019   */\n      dup2\n        /* \"#utility.yul\":23011:23031   */\n      sub\n        /* \"#utility.yul\":23007:23008   */\n      0x00\n        /* \"#utility.yul\":22996:23005   */\n      dup4\n        /* \"#utility.yul\":22992:23009   */\n      add\n        /* \"#utility.yul\":22985:23032   */\n      mstore\n        /* \"#utility.yul\":23049:23180   */\n      tag_526\n        /* \"#utility.yul\":23175:23179   */\n      dup2\n        /* \"#utility.yul\":23049:23180   */\n      tag_287\n      jump\t// in\n    tag_526:\n        /* \"#utility.yul\":23041:23180   */\n      swap1\n      pop\n        /* \"#utility.yul\":22768:23187   */\n      swap2\n      swap1\n      pop\n      jump\t// out\n        /* \"#utility.yul\":23193:23356   */\n    tag_288:\n        /* \"#utility.yul\":23333:23348   */\n      0x4e6f207265656e7472616e637900000000000000000000000000000000000000\n        /* \"#utility.yul\":23329:23330   */\n      0x00\n        /* \"#utility.yul\":23321:23327   */\n      dup3\n        /* \"#utility.yul\":23317:23331   */\n      add\n        /* \"#utility.yul\":23310:23349   */\n      mstore\n        /* \"#utility.yul\":23193:23356   */\n      pop\n      jump\t// out\n        /* \"#utility.yul\":23362:23728   */\n    tag_289:\n        /* \"#utility.yul\":23504:23507   */\n      0x00\n        /* \"#utility.yul\":23525:23592   */\n      tag_529\n        /* \"#utility.yul\":23589:23591   */\n      0x0d\n        /* \"#utility.yul\":23584:23587   */\n      dup4\n        /* \"#utility.yul\":23525:23592   */\n      tag_267\n      jump\t// in\n    tag_529:\n        /* \"#utility.yul\":23518:23592   */\n      swap2\n      pop\n        /* \"#utility.yul\":23601:23694   */\n      tag_530\n        /* \"#utility.yul\":23690:23693   */\n      dup3\n        /* \"#utility.yul\":23601:23694   */\n      tag_288\n      jump\t// in\n    tag_530:\n        /* \"#utility.yul\":23719:23721   */\n      0x20\n        /* \"#utility.yul\":23714:23717   */\n      dup3\n        /* \"#utility.yul\":23710:23722   */\n      add\n        /* \"#utility.yul\":23703:23722   */\n      swap1\n      pop\n        /* \"#utility.yul\":23362:23728   */\n      swap2\n      swap1\n      pop\n      jump\t// out\n        /* \"#utility.yul\":23734:24153   */\n    tag_142:\n        /* \"#utility.yul\":23900:23904   */\n      0x00\n        /* \"#utility.yul\":23938:23940   */\n      0x20\n        /* \"#utility.yul\":23927:23936   */\n      dup3\n        /* \"#utility.yul\":23923:23941   */\n      add\n        /* \"#utility.yul\":23915:23941   */\n      swap1\n      pop\n        /* \"#utility.yul\":23987:23996   */\n      dup2\n        /* \"#utility.yul\":23981:23985   */\n      dup2\n        /* \"#utility.yul\":23977:23997   */\n      sub\n        /* \"#utility.yul\":23973:23974   */\n      0x00\n        /* \"#utility.yul\":23962:23971   */\n      dup4\n        /* \"#utility.yul\":23958:23975   */\n      add\n        /* \"#utility.yul\":23951:23998   */\n      mstore\n        /* \"#utility.yul\":24015:24146   */\n      tag_532\n        /* \"#utility.yul\":24141:24145   */\n      dup2\n        /* \"#utility.yul\":24015:24146   */\n      tag_289\n      jump\t// in\n    tag_532:\n        /* \"#utility.yul\":24007:24146   */\n      swap1\n      pop\n        /* \"#utility.yul\":23734:24153   */\n      swap2\n      swap1\n      pop\n      jump\t// out\n        /* \"#utility.yul\":24159:24337   */\n    tag_290:\n        /* \"#utility.yul\":24299:24329   */\n      0x596f7520646f206e6f74206861766520616e792062616c616e63652e00000000\n        /* \"#utility.yul\":24295:24296   */\n      0x00\n        /* \"#utility.yul\":24287:24293   */\n      dup3\n        /* \"#utility.yul\":24283:24297   */\n      add\n        /* \"#utility.yul\":24276:24330   */\n      mstore\n        /* \"#utility.yul\":24159:24337   */\n      pop\n      jump\t// out\n        /* \"#utility.yul\":24343:24709   */\n    tag_291:\n        /* \"#utility.yul\":24485:24488   */\n      0x00\n        /* \"#utility.yul\":24506:24573   */\n      tag_535\n        /* \"#utility.yul\":24570:24572   */\n      0x1c\n        /* \"#utility.yul\":24565:24568   */\n      dup4\n        /* \"#utility.yul\":24506:24573   */\n      tag_267\n      jump\t// in\n    tag_535:\n        /* \"#utility.yul\":24499:24573   */\n      swap2\n      pop\n        /* \"#utility.yul\":24582:24675   */\n      tag_536\n        /* \"#utility.yul\":24671:24674   */\n      dup3\n        /* \"#utility.yul\":24582:24675   */\n      tag_290\n      jump\t// in\n    tag_536:\n        /* \"#utility.yul\":24700:24702   */\n      0x20\n        /* \"#utility.yul\":24695:24698   */\n      dup3\n        /* \"#utility.yul\":24691:24703   */\n      add\n        /* \"#utility.yul\":24684:24703   */\n      swap1\n      pop\n        /* \"#utility.yul\":24343:24709   */\n      swap2\n      swap1\n      pop\n      jump\t// out\n        /* \"#utility.yul\":24715:25134   */\n    tag_146:\n        /* \"#utility.yul\":24881:24885   */\n      0x00\n        /* \"#utility.yul\":24919:24921   */\n      0x20\n        /* \"#utility.yul\":24908:24917   */\n      dup3\n        /* \"#utility.yul\":24904:24922   */\n      add\n        /* \"#utility.yul\":24896:24922   */\n      swap1\n      pop\n        /* \"#utility.yul\":24968:24977   */\n      dup2\n        /* \"#utility.yul\":24962:24966   */\n      dup2\n        /* \"#utility.yul\":24958:24978   */\n      sub\n        /* \"#utility.yul\":24954:24955   */\n      0x00\n        /* \"#utility.yul\":24943:24952   */\n      dup4\n        /* \"#utility.yul\":24939:24956   */\n      add\n        /* \"#utility.yul\":24932:24979   */\n      mstore\n        /* \"#utility.yul\":24996:25127   */\n      tag_538\n        /* \"#utility.yul\":25122:25126   */\n      dup2\n        /* \"#utility.yul\":24996:25127   */\n      tag_291\n      jump\t// in\n    tag_538:\n        /* \"#utility.yul\":24988:25127   */\n      swap1\n      pop\n        /* \"#utility.yul\":24715:25134   */\n      swap2\n      swap1\n      pop\n      jump\t// out\n        /* \"#utility.yul\":25140:25287   */\n    tag_292:\n        /* \"#utility.yul\":25241:25252   */\n      0x00\n        /* \"#utility.yul\":25278:25281   */\n      dup2\n        /* \"#utility.yul\":25263:25281   */\n      swap1\n      pop\n        /* \"#utility.yul\":25140:25287   */\n      swap3\n      swap2\n      pop\n      pop\n      jump\t// out\n        /* \"#utility.yul\":25293:25407   */\n    tag_293:\n      pop\n      jump\t// out\n        /* \"#utility.yul\":25413:25811   */\n    tag_294:\n        /* \"#utility.yul\":25572:25575   */\n      0x00\n        /* \"#utility.yul\":25593:25676   */\n      tag_542\n        /* \"#utility.yul\":25674:25675   */\n      0x00\n        /* \"#utility.yul\":25669:25672   */\n      dup4\n        /* \"#utility.yul\":25593:25676   */\n      tag_292\n      jump\t// in\n    tag_542:\n        /* \"#utility.yul\":25586:25676   */\n      swap2\n      pop\n        /* \"#utility.yul\":25685:25778   */\n      tag_543\n        /* \"#utility.yul\":25774:25777   */\n      dup3\n        /* \"#utility.yul\":25685:25778   */\n      tag_293\n      jump\t// in\n    tag_543:\n        /* \"#utility.yul\":25803:25804   */\n      0x00\n        /* \"#utility.yul\":25798:25801   */\n      dup3\n        /* \"#utility.yul\":25794:25805   */\n      add\n        /* \"#utility.yul\":25787:25805   */\n      swap1\n      pop\n        /* \"#utility.yul\":25413:25811   */\n      swap2\n      swap1\n      pop\n      jump\t// out\n        /* \"#utility.yul\":25817:26196   */\n    tag_148:\n        /* \"#utility.yul\":26001:26004   */\n      0x00\n        /* \"#utility.yul\":26023:26170   */\n      tag_545\n        /* \"#utility.yul\":26166:26169   */\n      dup3\n        /* \"#utility.yul\":26023:26170   */\n      tag_294\n      jump\t// in\n    tag_545:\n        /* \"#utility.yul\":26016:26170   */\n      swap2\n      pop\n        /* \"#utility.yul\":26187:26190   */\n      dup2\n        /* \"#utility.yul\":26180:26190   */\n      swap1\n      pop\n        /* \"#utility.yul\":25817:26196   */\n      swap2\n      swap1\n      pop\n      jump\t// out\n        /* \"#utility.yul\":26202:26368   */\n    tag_295:\n        /* \"#utility.yul\":26342:26360   */\n      0x5472616e73666572206661696c65642e00000000000000000000000000000000\n        /* \"#utility.yul\":26338:26339   */\n      0x00\n        /* \"#utility.yul\":26330:26336   */\n      dup3\n        /* \"#utility.yul\":26326:26340   */\n      add\n        /* \"#utility.yul\":26319:26361   */\n      mstore\n        /* \"#utility.yul\":26202:26368   */\n      pop\n      jump\t// out\n        /* \"#utility.yul\":26374:26740   */\n    tag_296:\n        /* \"#utility.yul\":26516:26519   */\n      0x00\n        /* \"#utility.yul\":26537:26604   */\n      tag_548\n        /* \"#utility.yul\":26601:26603   */\n      0x10\n        /* \"#utility.yul\":26596:26599   */\n      dup4\n        /* \"#utility.yul\":26537:26604   */\n      tag_267\n      jump\t// in\n    tag_548:\n        /* \"#utility.yul\":26530:26604   */\n      swap2\n      pop\n        /* \"#utility.yul\":26613:26706   */\n      tag_549\n        /* \"#utility.yul\":26702:26705   */\n      dup3\n        /* \"#utility.yul\":26613:26706   */\n      tag_295\n      jump\t// in\n    tag_549:\n        /* \"#utility.yul\":26731:26733   */\n      0x20\n        /* \"#utility.yul\":26726:26729   */\n      dup3\n        /* \"#utility.yul\":26722:26734   */\n      add\n        /* \"#utility.yul\":26715:26734   */\n      swap1\n      pop\n        /* \"#utility.yul\":26374:26740   */\n      swap2\n      swap1\n      pop\n      jump\t// out\n        /* \"#utility.yul\":26746:27165   */\n    tag_154:\n        /* \"#utility.yul\":26912:26916   */\n      0x00\n        /* \"#utility.yul\":26950:26952   */\n      0x20\n        /* \"#utility.yul\":26939:26948   */\n      dup3\n        /* \"#utility.yul\":26935:26953   */\n      add\n        /* \"#utility.yul\":26927:26953   */\n      swap1\n      pop\n        /* \"#utility.yul\":26999:27008   */\n      dup2\n        /* \"#utility.yul\":26993:26997   */\n      dup2\n        /* \"#utility.yul\":26989:27009   */\n      sub\n        /* \"#utility.yul\":26985:26986   */\n      0x00\n        /* \"#utility.yul\":26974:26983   */\n      dup4\n        /* \"#utility.yul\":26970:26987   */\n      add\n        /* \"#utility.yul\":26963:27010   */\n      mstore\n        /* \"#utility.yul\":27027:27158   */\n      tag_551\n        /* \"#utility.yul\":27153:27157   */\n      dup2\n        /* \"#utility.yul\":27027:27158   */\n      tag_296\n      jump\t// in\n    tag_551:\n        /* \"#utility.yul\":27019:27158   */\n      swap1\n      pop\n        /* \"#utility.yul\":26746:27165   */\n      swap2\n      swap1\n      pop\n      jump\t// out\n        /* \"#utility.yul\":27171:27344   */\n    tag_297:\n        /* \"#utility.yul\":27311:27336   */\n      0x4d697373696e6720726571756972656420616d6f756e74000000000000000000\n        /* \"#utility.yul\":27307:27308   */\n      0x00\n        /* \"#utility.yul\":27299:27305   */\n      dup3\n        /* \"#utility.yul\":27295:27309   */\n      add\n        /* \"#utility.yul\":27288:27337   */\n      mstore\n        /* \"#utility.yul\":27171:27344   */\n      pop\n      jump\t// out\n        /* \"#utility.yul\":27350:27716   */\n    tag_298:\n        /* \"#utility.yul\":27492:27495   */\n      0x00\n        /* \"#utility.yul\":27513:27580   */\n      tag_554\n        /* \"#utility.yul\":27577:27579   */\n      0x17\n        /* \"#utility.yul\":27572:27575   */\n      dup4\n        /* \"#utility.yul\":27513:27580   */\n      tag_267\n      jump\t// in\n    tag_554:\n        /* \"#utility.yul\":27506:27580   */\n      swap2\n      pop\n        /* \"#utility.yul\":27589:27682   */\n      tag_555\n        /* \"#utility.yul\":27678:27681   */\n      dup3\n        /* \"#utility.yul\":27589:27682   */\n      tag_297\n      jump\t// in\n    tag_555:\n        /* \"#utility.yul\":27707:27709   */\n      0x20\n        /* \"#utility.yul\":27702:27705   */\n      dup3\n        /* \"#utility.yul\":27698:27710   */\n      add\n        /* \"#utility.yul\":27691:27710   */\n      swap1\n      pop\n        /* \"#utility.yul\":27350:27716   */\n      swap2\n      swap1\n      pop\n      jump\t// out\n        /* \"#utility.yul\":27722:28141   */\n    tag_159:\n        /* \"#utility.yul\":27888:27892   */\n      0x00\n        /* \"#utility.yul\":27926:27928   */\n      0x20\n        /* \"#utility.yul\":27915:27924   */\n      dup3\n        /* \"#utility.yul\":27911:27929   */\n      add\n        /* \"#utility.yul\":27903:27929   */\n      swap1\n      pop\n        /* \"#utility.yul\":27975:27984   */\n      dup2\n        /* \"#utility.yul\":27969:27973   */\n      dup2\n        /* \"#utility.yul\":27965:27985   */\n      sub\n        /* \"#utility.yul\":27961:27962   */\n      0x00\n        /* \"#utility.yul\":27950:27959   */\n      dup4\n        /* \"#utility.yul\":27946:27963   */\n      add\n        /* \"#utility.yul\":27939:27986   */\n      mstore\n        /* \"#utility.yul\":28003:28134   */\n      tag_557\n        /* \"#utility.yul\":28129:28133   */\n      dup2\n        /* \"#utility.yul\":28003:28134   */\n      tag_298\n      jump\t// in\n    tag_557:\n        /* \"#utility.yul\":27995:28134   */\n      swap1\n      pop\n        /* \"#utility.yul\":27722:28141   */\n      swap2\n      swap1\n      pop\n      jump\t// out\n        /* \"#utility.yul\":28147:28338   */\n    tag_161:\n        /* \"#utility.yul\":28187:28190   */\n      0x00\n        /* \"#utility.yul\":28206:28226   */\n      tag_559\n        /* \"#utility.yul\":28224:28225   */\n      dup3\n        /* \"#utility.yul\":28206:28226   */\n      tag_231\n      jump\t// in\n    tag_559:\n        /* \"#utility.yul\":28201:28226   */\n      swap2\n      pop\n        /* \"#utility.yul\":28240:28260   */\n      tag_560\n        /* \"#utility.yul\":28258:28259   */\n      dup4\n        /* \"#utility.yul\":28240:28260   */\n      tag_231\n      jump\t// in\n    tag_560:\n        /* \"#utility.yul\":28235:28260   */\n      swap3\n      pop\n        /* \"#utility.yul\":28283:28284   */\n      dup3\n        /* \"#utility.yul\":28280:28281   */\n      dup3\n        /* \"#utility.yul\":28276:28285   */\n      add\n        /* \"#utility.yul\":28269:28285   */\n      swap1\n      pop\n        /* \"#utility.yul\":28304:28307   */\n      dup1\n        /* \"#utility.yul\":28301:28302   */\n      dup3\n        /* \"#utility.yul\":28298:28308   */\n      gt\n        /* \"#utility.yul\":28295:28331   */\n      iszero\n      tag_561\n      jumpi\n        /* \"#utility.yul\":28311:28329   */\n      tag_562\n      tag_266\n      jump\t// in\n    tag_562:\n        /* \"#utility.yul\":28295:28331   */\n    tag_561:\n        /* \"#utility.yul\":28147:28338   */\n      swap3\n      swap2\n      pop\n      pop\n      jump\t// out\n        /* \"#utility.yul\":28344:28507   */\n    tag_299:\n        /* \"#utility.yul\":28484:28499   */\n      0x496e76616c696420696e64657800000000000000000000000000000000000000\n        /* \"#utility.yul\":28480:28481   */\n      0x00\n        /* \"#utility.yul\":28472:28478   */\n      dup3\n        /* \"#utility.yul\":28468:28482   */\n      add\n        /* \"#utility.yul\":28461:28500   */\n      mstore\n        /* \"#utility.yul\":28344:28507   */\n      pop\n      jump\t// out\n        /* \"#utility.yul\":28513:28879   */\n    tag_300:\n        /* \"#utility.yul\":28655:28658   */\n      0x00\n        /* \"#utility.yul\":28676:28743   */\n      tag_565\n        /* \"#utility.yul\":28740:28742   */\n      0x0d\n        /* \"#utility.yul\":28735:28738   */\n      dup4\n        /* \"#utility.yul\":28676:28743   */\n      tag_267\n      jump\t// in\n    tag_565:\n        /* \"#utility.yul\":28669:28743   */\n      swap2\n      pop\n        /* \"#utility.yul\":28752:28845   */\n      tag_566\n        /* \"#utility.yul\":28841:28844   */\n      dup3\n        /* \"#utility.yul\":28752:28845   */\n      tag_299\n      jump\t// in\n    tag_566:\n        /* \"#utility.yul\":28870:28872   */\n      0x20\n        /* \"#utility.yul\":28865:28868   */\n      dup3\n        /* \"#utility.yul\":28861:28873   */\n      add\n        /* \"#utility.yul\":28854:28873   */\n      swap1\n      pop\n        /* \"#utility.yul\":28513:28879   */\n      swap2\n      swap1\n      pop\n      jump\t// out\n        /* \"#utility.yul\":28885:29304   */\n    tag_166:\n        /* \"#utility.yul\":29051:29055   */\n      0x00\n        /* \"#utility.yul\":29089:29091   */\n      0x20\n        /* \"#utility.yul\":29078:29087   */\n      dup3\n        /* \"#utility.yul\":29074:29092   */\n      add\n        /* \"#utility.yul\":29066:29092   */\n      swap1\n      pop\n        /* \"#utility.yul\":29138:29147   */\n      dup2\n        /* \"#utility.yul\":29132:29136   */\n      dup2\n        /* \"#utility.yul\":29128:29148   */\n      sub\n        /* \"#utility.yul\":29124:29125   */\n      0x00\n        /* \"#utility.yul\":29113:29122   */\n      dup4\n        /* \"#utility.yul\":29109:29126   */\n      add\n        /* \"#utility.yul\":29102:29149   */\n      mstore\n        /* \"#utility.yul\":29166:29297   */\n      tag_568\n        /* \"#utility.yul\":29292:29296   */\n      dup2\n        /* \"#utility.yul\":29166:29297   */\n      tag_300\n      jump\t// in\n    tag_568:\n        /* \"#utility.yul\":29158:29297   */\n      swap1\n      pop\n        /* \"#utility.yul\":28885:29304   */\n      swap2\n      swap1\n      pop\n      jump\t// out\n        /* \"#utility.yul\":29310:29477   */\n    tag_301:\n        /* \"#utility.yul\":29450:29469   */\n      0x4e6f7420796f7572207075726368617365000000000000000000000000000000\n        /* \"#utility.yul\":29446:29447   */\n      0x00\n        /* \"#utility.yul\":29438:29444   */\n      dup3\n        /* \"#utility.yul\":29434:29448   */\n      add\n        /* \"#utility.yul\":29427:29470   */\n      mstore\n        /* \"#utility.yul\":29310:29477   */\n      pop\n      jump\t// out\n        /* \"#utility.yul\":29483:29849   */\n    tag_302:\n        /* \"#utility.yul\":29625:29628   */\n      0x00\n        /* \"#utility.yul\":29646:29713   */\n      tag_571\n        /* \"#utility.yul\":29710:29712   */\n      0x11\n        /* \"#utility.yul\":29705:29708   */\n      dup4\n        /* \"#utility.yul\":29646:29713   */\n      tag_267\n      jump\t// in\n    tag_571:\n        /* \"#utility.yul\":29639:29713   */\n      swap2\n      pop\n        /* \"#utility.yul\":29722:29815   */\n      tag_572\n        /* \"#utility.yul\":29811:29814   */\n      dup3\n        /* \"#utility.yul\":29722:29815   */\n      tag_301\n      jump\t// in\n    tag_572:\n        /* \"#utility.yul\":29840:29842   */\n      0x20\n        /* \"#utility.yul\":29835:29838   */\n      dup3\n        /* \"#utility.yul\":29831:29843   */\n      add\n        /* \"#utility.yul\":29824:29843   */\n      swap1\n      pop\n        /* \"#utility.yul\":29483:29849   */\n      swap2\n      swap1\n      pop\n      jump\t// out\n        /* \"#utility.yul\":29855:30274   */\n    tag_172:\n        /* \"#utility.yul\":30021:30025   */\n      0x00\n        /* \"#utility.yul\":30059:30061   */\n      0x20\n        /* \"#utility.yul\":30048:30057   */\n      dup3\n        /* \"#utility.yul\":30044:30062   */\n      add\n        /* \"#utility.yul\":30036:30062   */\n      swap1\n      pop\n        /* \"#utility.yul\":30108:30117   */\n      dup2\n        /* \"#utility.yul\":30102:30106   */\n      dup2\n        /* \"#utility.yul\":30098:30118   */\n      sub\n        /* \"#utility.yul\":30094:30095   */\n      0x00\n        /* \"#utility.yul\":30083:30092   */\n      dup4\n        /* \"#utility.yul\":30079:30096   */\n      add\n        /* \"#utility.yul\":30072:30119   */\n      mstore\n        /* \"#utility.yul\":30136:30267   */\n      tag_574\n        /* \"#utility.yul\":30262:30266   */\n      dup2\n        /* \"#utility.yul\":30136:30267   */\n      tag_302\n      jump\t// in\n    tag_574:\n        /* \"#utility.yul\":30128:30267   */\n      swap1\n      pop\n        /* \"#utility.yul\":29855:30274   */\n      swap2\n      swap1\n      pop\n      jump\t// out\n        /* \"#utility.yul\":30280:30455   */\n    tag_303:\n        /* \"#utility.yul\":30420:30447   */\n      0x507572636861736520616c726561647920636f6e73756d656400000000000000\n        /* \"#utility.yul\":30416:30417   */\n      0x00\n        /* \"#utility.yul\":30408:30414   */\n      dup3\n        /* \"#utility.yul\":30404:30418   */\n      add\n        /* \"#utility.yul\":30397:30448   */\n      mstore\n        /* \"#utility.yul\":30280:30455   */\n      pop\n      jump\t// out\n        /* \"#utility.yul\":30461:30827   */\n    tag_304:\n        /* \"#utility.yul\":30603:30606   */\n      0x00\n        /* \"#utility.yul\":30624:30691   */\n      tag_577\n        /* \"#utility.yul\":30688:30690   */\n      0x19\n        /* \"#utility.yul\":30683:30686   */\n      dup4\n        /* \"#utility.yul\":30624:30691   */\n      tag_267\n      jump\t// in\n    tag_577:\n        /* \"#utility.yul\":30617:30691   */\n      swap2\n      pop\n        /* \"#utility.yul\":30700:30793   */\n      tag_578\n        /* \"#utility.yul\":30789:30792   */\n      dup3\n        /* \"#utility.yul\":30700:30793   */\n      tag_303\n      jump\t// in\n    tag_578:\n        /* \"#utility.yul\":30818:30820   */\n      0x20\n        /* \"#utility.yul\":30813:30816   */\n      dup3\n        /* \"#utility.yul\":30809:30821   */\n      add\n        /* \"#utility.yul\":30802:30821   */\n      swap1\n      pop\n        /* \"#utility.yul\":30461:30827   */\n      swap2\n      swap1\n      pop\n      jump\t// out\n        /* \"#utility.yul\":30833:31252   */\n    tag_182:\n        /* \"#utility.yul\":30999:31003   */\n      0x00\n        /* \"#utility.yul\":31037:31039   */\n      0x20\n        /* \"#utility.yul\":31026:31035   */\n      dup3\n        /* \"#utility.yul\":31022:31040   */\n      add\n        /* \"#utility.yul\":31014:31040   */\n      swap1\n      pop\n        /* \"#utility.yul\":31086:31095   */\n      dup2\n        /* \"#utility.yul\":31080:31084   */\n      dup2\n        /* \"#utility.yul\":31076:31096   */\n      sub\n        /* \"#utility.yul\":31072:31073   */\n      0x00\n        /* \"#utility.yul\":31061:31070   */\n      dup4\n        /* \"#utility.yul\":31057:31074   */\n      add\n        /* \"#utility.yul\":31050:31097   */\n      mstore\n        /* \"#utility.yul\":31114:31245   */\n      tag_580\n        /* \"#utility.yul\":31240:31244   */\n      dup2\n        /* \"#utility.yul\":31114:31245   */\n      tag_304\n      jump\t// in\n    tag_580:\n        /* \"#utility.yul\":31106:31245   */\n      swap1\n      pop\n        /* \"#utility.yul\":30833:31252   */\n      swap2\n      swap1\n      pop\n      jump\t// out\n        /* \"#utility.yul\":31258:31406   */\n    tag_305:\n        /* \"#utility.yul\":31360:31371   */\n      0x00\n        /* \"#utility.yul\":31397:31400   */\n      dup2\n        /* \"#utility.yul\":31382:31400   */\n      swap1\n      pop\n        /* \"#utility.yul\":31258:31406   */\n      swap3\n      swap2\n      pop\n      pop\n      jump\t// out\n        /* \"#utility.yul\":31412:31802   */\n    tag_306:\n        /* \"#utility.yul\":31518:31521   */\n      0x00\n        /* \"#utility.yul\":31546:31585   */\n      tag_583\n        /* \"#utility.yul\":31579:31584   */\n      dup3\n        /* \"#utility.yul\":31546:31585   */\n      tag_226\n      jump\t// in\n    tag_583:\n        /* \"#utility.yul\":31601:31690   */\n      tag_584\n        /* \"#utility.yul\":31683:31689   */\n      dup2\n        /* \"#utility.yul\":31678:31681   */\n      dup6\n        /* \"#utility.yul\":31601:31690   */\n      tag_305\n      jump\t// in\n    tag_584:\n        /* \"#utility.yul\":31594:31690   */\n      swap4\n      pop\n        /* \"#utility.yul\":31699:31764   */\n      tag_585\n        /* \"#utility.yul\":31757:31763   */\n      dup2\n        /* \"#utility.yul\":31752:31755   */\n      dup6\n        /* \"#utility.yul\":31745:31749   */\n      0x20\n        /* \"#utility.yul\":31738:31743   */\n      dup7\n        /* \"#utility.yul\":31734:31750   */\n      add\n        /* \"#utility.yul\":31699:31764   */\n      tag_228\n      jump\t// in\n    tag_585:\n        /* \"#utility.yul\":31789:31795   */\n      dup1\n        /* \"#utility.yul\":31784:31787   */\n      dup5\n        /* \"#utility.yul\":31780:31796   */\n      add\n        /* \"#utility.yul\":31773:31796   */\n      swap2\n      pop\n        /* \"#utility.yul\":31522:31802   */\n      pop\n        /* \"#utility.yul\":31412:31802   */\n      swap3\n      swap2\n      pop\n      pop\n      jump\t// out\n        /* \"#utility.yul\":31808:32083   */\n    tag_196:\n        /* \"#utility.yul\":31940:31943   */\n      0x00\n        /* \"#utility.yul\":31962:32057   */\n      tag_587\n        /* \"#utility.yul\":32053:32056   */\n      dup3\n        /* \"#utility.yul\":32044:32050   */\n      dup5\n        /* \"#utility.yul\":31962:32057   */\n      tag_306\n      jump\t// in\n    tag_587:\n        /* \"#utility.yul\":31955:32057   */\n      swap2\n      pop\n        /* \"#utility.yul\":32074:32077   */\n      dup2\n        /* \"#utility.yul\":32067:32077   */\n      swap1\n      pop\n        /* \"#utility.yul\":31808:32083   */\n      swap3\n      swap2\n      pop\n      pop\n      jump\t// out\n        /* \"#utility.yul\":32113:32987   */\n    tag_307:\n        /* \"#utility.yul\":32216:32219   */\n      0x00\n        /* \"#utility.yul\":32253:32258   */\n      dup2\n        /* \"#utility.yul\":32247:32259   */\n      sload\n        /* \"#utility.yul\":32282:32318   */\n      tag_589\n        /* \"#utility.yul\":32308:32317   */\n      dup2\n        /* \"#utility.yul\":32282:32318   */\n      tag_53\n      jump\t// in\n    tag_589:\n        /* \"#utility.yul\":32334:32423   */\n      tag_590\n        /* \"#utility.yul\":32416:32422   */\n      dup2\n        /* \"#utility.yul\":32411:32414   */\n      dup7\n        /* \"#utility.yul\":32334:32423   */\n      tag_305\n      jump\t// in\n    tag_590:\n        /* \"#utility.yul\":32327:32423   */\n      swap5\n      pop\n        /* \"#utility.yul\":32454:32455   */\n      0x01\n        /* \"#utility.yul\":32443:32452   */\n      dup3\n        /* \"#utility.yul\":32439:32456   */\n      and\n        /* \"#utility.yul\":32470:32471   */\n      0x00\n        /* \"#utility.yul\":32465:32631   */\n      dup2\n      eq\n      tag_592\n      jumpi\n        /* \"#utility.yul\":32645:32646   */\n      0x01\n        /* \"#utility.yul\":32640:32981   */\n      dup2\n      eq\n      tag_593\n      jumpi\n        /* \"#utility.yul\":32432:32981   */\n      jump(tag_591)\n        /* \"#utility.yul\":32465:32631   */\n    tag_592:\n        /* \"#utility.yul\":32549:32553   */\n      0xff\n        /* \"#utility.yul\":32545:32554   */\n      not\n        /* \"#utility.yul\":32534:32543   */\n      dup4\n        /* \"#utility.yul\":32530:32555   */\n      and\n        /* \"#utility.yul\":32525:32528   */\n      dup7\n        /* \"#utility.yul\":32518:32556   */\n      mstore\n        /* \"#utility.yul\":32611:32617   */\n      dup2\n        /* \"#utility.yul\":32604:32618   */\n      iszero\n        /* \"#utility.yul\":32597:32619   */\n      iszero\n        /* \"#utility.yul\":32589:32595   */\n      dup3\n        /* \"#utility.yul\":32585:32620   */\n      mul\n        /* \"#utility.yul\":32580:32583   */\n      dup7\n        /* \"#utility.yul\":32576:32621   */\n      add\n        /* \"#utility.yul\":32569:32621   */\n      swap4\n      pop\n        /* \"#utility.yul\":32465:32631   */\n      jump(tag_591)\n        /* \"#utility.yul\":32640:32981   */\n    tag_593:\n        /* \"#utility.yul\":32707:32745   */\n      tag_594\n        /* \"#utility.yul\":32739:32744   */\n      dup6\n        /* \"#utility.yul\":32707:32745   */\n      tag_270\n      jump\t// in\n    tag_594:\n        /* \"#utility.yul\":32767:32768   */\n      0x00\n        /* \"#utility.yul\":32781:32935   */\n    tag_595:\n        /* \"#utility.yul\":32795:32801   */\n      dup4\n        /* \"#utility.yul\":32792:32793   */\n      dup2\n        /* \"#utility.yul\":32789:32802   */\n      lt\n        /* \"#utility.yul\":32781:32935   */\n      iszero\n      tag_597\n      jumpi\n        /* \"#utility.yul\":32869:32876   */\n      dup2\n        /* \"#utility.yul\":32863:32877   */\n      sload\n        /* \"#utility.yul\":32859:32860   */\n      dup2\n        /* \"#utility.yul\":32854:32857   */\n      dup10\n        /* \"#utility.yul\":32850:32861   */\n      add\n        /* \"#utility.yul\":32843:32878   */\n      mstore\n        /* \"#utility.yul\":32919:32920   */\n      0x01\n        /* \"#utility.yul\":32910:32917   */\n      dup3\n        /* \"#utility.yul\":32906:32921   */\n      add\n        /* \"#utility.yul\":32895:32921   */\n      swap2\n      pop\n        /* \"#utility.yul\":32817:32821   */\n      0x20\n        /* \"#utility.yul\":32814:32815   */\n      dup2\n        /* \"#utility.yul\":32810:32822   */\n      add\n        /* \"#utility.yul\":32805:32822   */\n      swap1\n      pop\n        /* \"#utility.yul\":32781:32935   */\n      jump(tag_595)\n    tag_597:\n        /* \"#utility.yul\":32964:32970   */\n      dup4\n        /* \"#utility.yul\":32959:32962   */\n      dup9\n        /* \"#utility.yul\":32955:32971   */\n      add\n        /* \"#utility.yul\":32948:32971   */\n      swap6\n      pop\n        /* \"#utility.yul\":32647:32981   */\n      pop\n      pop\n        /* \"#utility.yul\":32432:32981   */\n    tag_591:\n      pop\n        /* \"#utility.yul\":32220:32987   */\n      pop\n      pop\n        /* \"#utility.yul\":32113:32987   */\n      swap3\n      swap2\n      pop\n      pop\n      jump\t// out\n        /* \"#utility.yul\":32993:33262   */\n    tag_201:\n        /* \"#utility.yul\":33122:33125   */\n      0x00\n        /* \"#utility.yul\":33144:33236   */\n      tag_599\n        /* \"#utility.yul\":33232:33235   */\n      dup3\n        /* \"#utility.yul\":33223:33229   */\n      dup5\n        /* \"#utility.yul\":33144:33236   */\n      tag_307\n      jump\t// in\n    tag_599:\n        /* \"#utility.yul\":33137:33236   */\n      swap2\n      pop\n        /* \"#utility.yul\":33253:33256   */\n      dup2\n        /* \"#utility.yul\":33246:33256   */\n      swap1\n      pop\n        /* \"#utility.yul\":32993:33262   */\n      swap3\n      swap2\n      pop\n      pop\n      jump\t// out\n        /* \"#utility.yul\":33268:33435   */\n    tag_308:\n        /* \"#utility.yul\":33408:33427   */\n      0x50726f64756374206e6f7420666f756e64000000000000000000000000000000\n        /* \"#utility.yul\":33404:33405   */\n      0x00\n        /* \"#utility.yul\":33396:33402   */\n      dup3\n        /* \"#utility.yul\":33392:33406   */\n      add\n        /* \"#utility.yul\":33385:33428   */\n      mstore\n        /* \"#utility.yul\":33268:33435   */\n      pop\n      jump\t// out\n        /* \"#utility.yul\":33441:33807   */\n    tag_309:\n        /* \"#utility.yul\":33583:33586   */\n      0x00\n        /* \"#utility.yul\":33604:33671   */\n      tag_602\n        /* \"#utility.yul\":33668:33670   */\n      0x11\n        /* \"#utility.yul\":33663:33666   */\n      dup4\n        /* \"#utility.yul\":33604:33671   */\n      tag_267\n      jump\t// in\n    tag_602:\n        /* \"#utility.yul\":33597:33671   */\n      swap2\n      pop\n        /* \"#utility.yul\":33680:33773   */\n      tag_603\n        /* \"#utility.yul\":33769:33772   */\n      dup3\n        /* \"#utility.yul\":33680:33773   */\n      tag_308\n      jump\t// in\n    tag_603:\n        /* \"#utility.yul\":33798:33800   */\n      0x20\n        /* \"#utility.yul\":33793:33796   */\n      dup3\n        /* \"#utility.yul\":33789:33801   */\n      add\n        /* \"#utility.yul\":33782:33801   */\n      swap1\n      pop\n        /* \"#utility.yul\":33441:33807   */\n      swap2\n      swap1\n      pop\n      jump\t// out\n        /* \"#utility.yul\":33813:34232   */\n    tag_222:\n        /* \"#utility.yul\":33979:33983   */\n      0x00\n        /* \"#utility.yul\":34017:34019   */\n      0x20\n        /* \"#utility.yul\":34006:34015   */\n      dup3\n        /* \"#utility.yul\":34002:34020   */\n      add\n        /* \"#utility.yul\":33994:34020   */\n      swap1\n      pop\n        /* \"#utility.yul\":34066:34075   */\n      dup2\n        /* \"#utility.yul\":34060:34064   */\n      dup2\n        /* \"#utility.yul\":34056:34076   */\n      sub\n        /* \"#utility.yul\":34052:34053   */\n      0x00\n        /* \"#utility.yul\":34041:34050   */\n      dup4\n        /* \"#utility.yul\":34037:34054   */\n      add\n        /* \"#utility.yul\":34030:34077   */\n      mstore\n        /* \"#utility.yul\":34094:34225   */\n      tag_605\n        /* \"#utility.yul\":34220:34224   */\n      dup2\n        /* \"#utility.yul\":34094:34225   */\n      tag_309\n      jump\t// in\n    tag_605:\n        /* \"#utility.yul\":34086:34225   */\n      swap1\n      pop\n        /* \"#utility.yul\":33813:34232   */\n      swap2\n      swap1\n      pop\n      jump\t// out\n\n    auxdata: 0xa26469706673582212207012308cd0d654691d1ae787753343a887fec0309ff2bf609fe3960c1549866b64736f6c634300081a0033\n}\n",
				"bytecode": {
					"linkReferences": {},
					"object": "608060405234801561000f575f80fd5b50335f806101000a81548173ffffffffffffffffffffffffffffffffffffffff021916908373ffffffffffffffffffffffffffffffffffffffff16021790555061005d61006260201b60201c565b61153a565b6101236040518060400160405280600281526020017f41310000000000000000000000000000000000000000000000000000000000008152506305f5e100600f6100ac91906110cf565b6040518060400160405280600481526020017f4c617973000000000000000000000000000000000000000000000000000000008152506040518060400160405280600881526020017f6c6179732e706e67000000000000000000000000000000000000000000000000815250610f6b60201b60201c565b6101e36040518060400160405280600281526020017f41320000000000000000000000000000000000000000000000000000000000008152506298968060af61016c91906110cf565b6040518060400160405280600981526020017f436f636120436f6c6100000000000000000000000000000000000000000000008152506040518060400160405280600d81526020017f636f63612d636f6c612e706e6700000000000000000000000000000000000000815250610f6b60201b60201c565b6102a46040518060400160405280600281526020017f41330000000000000000000000000000000000000000000000000000000000008152506305f5e100600f61022d91906110cf565b6040518060400160405280600881526020017f5072696e676c65730000000000000000000000000000000000000000000000008152506040518060400160405280600c81526020017f7072696e676c65732e706e670000000000000000000000000000000000000000815250610f6b60201b60201c565b6103646040518060400160405280600281526020017f41340000000000000000000000000000000000000000000000000000000000008152506298968060af6102ed91906110cf565b6040518060400160405280600581526020017f57617465720000000000000000000000000000000000000000000000000000008152506040518060400160405280600981526020017f77617465722e706e670000000000000000000000000000000000000000000000815250610f6b60201b60201c565b6104256040518060400160405280600281526020017f41350000000000000000000000000000000000000000000000000000000000008152506305f5e100600f6103ae91906110cf565b6040518060400160405280600c81526020017f456e65726779204472696e6b00000000000000000000000000000000000000008152506040518060400160405280600c81526020017f7265642d62756c6c2e706e670000000000000000000000000000000000000000815250610f6b60201b60201c565b6104e66040518060400160405280600281526020017f42310000000000000000000000000000000000000000000000000000000000008152506305f5e100601461046f91906110cf565b6040518060400160405280600881526020017f53616e64776963680000000000000000000000000000000000000000000000008152506040518060400160405280600c81526020017f73616e64776963682e706e670000000000000000000000000000000000000000815250610f6b60201b60201c565b6105a66040518060400160405280600281526020017f42320000000000000000000000000000000000000000000000000000000000008152506298968060af61052f91906110cf565b6040518060400160405280600481526020017f4f72656f000000000000000000000000000000000000000000000000000000008152506040518060400160405280600881526020017f6f72656f2e706e67000000000000000000000000000000000000000000000000815250610f6b60201b60201c565b6106676040518060400160405280600281526020017f42330000000000000000000000000000000000000000000000000000000000008152506305f5e100600f6105f091906110cf565b6040518060400160405280600681526020017f53707269746500000000000000000000000000000000000000000000000000008152506040518060400160405280600a81526020017f7370726974652e706e6700000000000000000000000000000000000000000000815250610f6b60201b60201c565b6107276040518060400160405280600281526020017f42340000000000000000000000000000000000000000000000000000000000008152506298968060af6106b091906110cf565b6040518060400160405280600b81526020017f4772616e6f6c61204261720000000000000000000000000000000000000000008152506040518060400160405280600f81526020017f6772616e6f6c612d6261722e706e670000000000000000000000000000000000815250610f6b60201b60201c565b6107e76040518060400160405280600281526020017f42350000000000000000000000000000000000000000000000000000000000008152506298968060af61077091906110cf565b6040518060400160405280600781526020017f446f7269746f73000000000000000000000000000000000000000000000000008152506040518060400160405280600b81526020017f646f7269746f732e706e67000000000000000000000000000000000000000000815250610f6b60201b60201c565b6108a86040518060400160405280600281526020017f43310000000000000000000000000000000000000000000000000000000000008152506305f5e100600f61083191906110cf565b6040518060400160405280600b81526020017f536e69636b6572204261720000000000000000000000000000000000000000008152506040518060400160405280600c81526020017f736e69636b6572732e706e670000000000000000000000000000000000000000815250610f6b60201b60201c565b6109696040518060400160405280600281526020017f43320000000000000000000000000000000000000000000000000000000000008152506305f5e100600f6108f291906110cf565b6040518060400160405280600481526020017f4d264d73000000000000000000000000000000000000000000000000000000008152506040518060400160405280600881526020017f6d266d732e706e67000000000000000000000000000000000000000000000000815250610f6b60201b60201c565b610a296040518060400160405280600281526020017f433300000000000000000000000000000000000000000000000000000000000081525062989680607d6109b291906110cf565b6040518060400160405280600e81526020017f427562626c65205461702047756d0000000000000000000000000000000000008152506040518060400160405280600e81526020017f627562626c652d7461702e706e67000000000000000000000000000000000000815250610f6b60201b60201c565b610ae96040518060400160405280600281526020017f43340000000000000000000000000000000000000000000000000000000000008152506298968060af610a7291906110cf565b6040518060400160405280600d81526020017f4672756974204e757420426172000000000000000000000000000000000000008152506040518060400160405280600d81526020017f66727569742d6e75742e706e6700000000000000000000000000000000000000815250610f6b60201b60201c565b610ba96040518060400160405280600281526020017f43350000000000000000000000000000000000000000000000000000000000008152506298968060af610b3291906110cf565b6040518060400160405280600a81526020017f42656566204a65726b79000000000000000000000000000000000000000000008152506040518060400160405280600e81526020017f626565662d6a65726b792e706e67000000000000000000000000000000000000815250610f6b60201b60201c565b610c696040518060400160405280600281526020017f443100000000000000000000000000000000000000000000000000000000000081525062989680607d610bf291906110cf565b6040518060400160405280600e81526020017f4b69744b617420426973637569740000000000000000000000000000000000008152506040518060400160405280600a81526020017f6b69746b61742e706e6700000000000000000000000000000000000000000000815250610f6b60201b60201c565b610d296040518060400160405280600281526020017f443200000000000000000000000000000000000000000000000000000000000081525062989680607d610cb291906110cf565b6040518060400160405280600881526020017f506f7020436f726e0000000000000000000000000000000000000000000000008152506040518060400160405280600b81526020017f706f70636f726e2e706e67000000000000000000000000000000000000000000815250610f6b60201b60201c565b610de96040518060400160405280600281526020017f4433000000000000000000000000000000000000000000000000000000000000815250629896806096610d7291906110cf565b6040518060400160405280600881526020017f54776978204261720000000000000000000000000000000000000000000000008152506040518060400160405280600881526020017f747769782e706e67000000000000000000000000000000000000000000000000815250610f6b60201b60201c565b610ea96040518060400160405280600281526020017f443400000000000000000000000000000000000000000000000000000000000081525062989680607d610e3291906110cf565b6040518060400160405280600581526020017f446f6e75740000000000000000000000000000000000000000000000000000008152506040518060400160405280600981526020017f646f6e75742e706e670000000000000000000000000000000000000000000000815250610f6b60201b60201c565b610f696040518060400160405280600281526020017f443500000000000000000000000000000000000000000000000000000000000081525062989680607d610ef291906110cf565b6040518060400160405280600981526020017f526564204170706c6500000000000000000000000000000000000000000000008152506040518060400160405280600981526020017f6170706c652e706e670000000000000000000000000000000000000000000000815250610f6b60201b60201c565b565b5f610f7b8261105660201b60201c565b90506001604051806080016040528087815260200186815260200185815260200183815250908060018154018082558091505060019003905f5260205f2090600402015f909190919091505f820151815f019081610fd99190611341565b50602082015181600101556040820151816002019081610ff99190611341565b50606082015181600301908161100f9190611341565b5050507f8ca0e4a383b33c2f01484c7ceb45c2555c4997b82d3aa641e9807527f56237fc858486846040516110479493929190611485565b60405180910390a15050505050565b60606040518060600160405280602f815260200161383e602f913982604051602001611083929190611517565b6040516020818303038152906040529050919050565b5f819050919050565b7f4e487b71000000000000000000000000000000000000000000000000000000005f52601160045260245ffd5b5f6110d982611099565b91506110e483611099565b92508282026110f281611099565b91508282048414831517611109576111086110a2565b5b5092915050565b5f81519050919050565b7f4e487b71000000000000000000000000000000000000000000000000000000005f52604160045260245ffd5b7f4e487b71000000000000000000000000000000000000000000000000000000005f52602260045260245ffd5b5f600282049050600182168061118b57607f821691505b60208210810361119e5761119d611147565b5b50919050565b5f819050815f5260205f209050919050565b5f6020601f8301049050919050565b5f82821b905092915050565b5f600883026112007fffffffffffffffffffffffffffffffffffffffffffffffffffffffffffffffff826111c5565b61120a86836111c5565b95508019841693508086168417925050509392505050565b5f819050919050565b5f61124561124061123b84611099565b611222565b611099565b9050919050565b5f819050919050565b61125e8361122b565b61127261126a8261124c565b8484546111d1565b825550505050565b5f90565b61128661127a565b611291818484611255565b505050565b5b818110156112b4576112a95f8261127e565b600181019050611297565b5050565b601f8211156112f9576112ca816111a4565b6112d3846111b6565b810160208510156112e2578190505b6112f66112ee856111b6565b830182611296565b50505b505050565b5f82821c905092915050565b5f6113195f19846008026112fe565b1980831691505092915050565b5f611331838361130a565b9150826002028217905092915050565b61134a82611110565b67ffffffffffffffff8111156113635761136261111a565b5b61136d8254611174565b6113788282856112b8565b5f60209050601f8311600181146113a9575f8415611397578287015190505b6113a18582611326565b865550611408565b601f1984166113b7866111a4565b5f5b828110156113de578489015182556001820191506020850194506020810190506113b9565b868310156113fb57848901516113f7601f89168261130a565b8355505b6001600288020188555050505b505050505050565b5f82825260208201905092915050565b8281835e5f83830152505050565b5f601f19601f8301169050919050565b5f61144882611110565b6114528185611410565b9350611462818560208601611420565b61146b8161142e565b840191505092915050565b61147f81611099565b82525050565b5f6080820190508181035f83015261149d818761143e565b905081810360208301526114b1818661143e565b90506114c06040830185611476565b81810360608301526114d2818461143e565b905095945050505050565b5f81905092915050565b5f6114f182611110565b6114fb81856114dd565b935061150b818560208601611420565b80840191505092915050565b5f61152282856114e7565b915061152e82846114e7565b91508190509392505050565b6122f7806115475f395ff3fe60806040526004361061007a575f3560e01c80633ccfd60b1161004d5780633ccfd60b146101365780638da5cb5b1461014c578063a26759cb14610176578063b04f3225146101805761007a565b806302ee3a521461007e5780631107bc98146100a857806312065fe0146100e457806319f929261461010e575b5f80fd5b348015610089575f80fd5b506100926101a8565b60405161009f9190611493565b60405180910390f35b3480156100b3575f80fd5b506100ce60048036038101906100c9919061151e565b6103bd565b6040516100db91906116ab565b60405180910390f35b3480156100ef575f80fd5b506100f86106ea565b60405161010591906116da565b60405180910390f35b348015610119575f80fd5b50610134600480360381019061012f919061181f565b61072e565b005b348015610141575f80fd5b5061014a61096d565b005b348015610157575f80fd5b50610160610c93565b60405161016d9190611875565b60405180910390f35b61017e610cb6565b005b34801561018b575f80fd5b506101a660048036038101906101a191906118b8565b610d9b565b005b60606001805480602002602001604051908101604052809291908181526020015f905b828210156103b4578382905f5260205f2090600402016040518060800160405290815f820180546101fb90611910565b80601f016020809104026020016040519081016040528092919081815260200182805461022790611910565b80156102725780601f1061024957610100808354040283529160200191610272565b820191905f5260205f20905b81548152906001019060200180831161025557829003601f168201915b505050505081526020016001820154815260200160028201805461029590611910565b80601f01602080910402602001604051908101604052809291908181526020018280546102c190611910565b801561030c5780601f106102e35761010080835404028352916020019161030c565b820191905f5260205f20905b8154815290600101906020018083116102ef57829003601f168201915b5050505050815260200160038201805461032590611910565b80601f016020809104026020016040519081016040528092919081815260200182805461035190611910565b801561039c5780601f106103735761010080835404028352916020019161039c565b820191905f5260205f20905b81548152906001019060200180831161037f57829003601f168201915b505050505081525050815260200190600101906101cb565b50505050905090565b60605f805b60038054905081101561045f578373ffffffffffffffffffffffffffffffffffffffff16600382815481106103fa576103f9611940565b5b905f5260205f2090600402015f015f9054906101000a900473ffffffffffffffffffffffffffffffffffffffff1673ffffffffffffffffffffffffffffffffffffffff160361045257818061044e9061199a565b9250505b80806001019150506103c2565b505f8167ffffffffffffffff81111561047b5761047a6116fb565b5b6040519080825280602002602001820160405280156104b457816020015b6104a1611287565b8152602001906001900390816104995790505b5090505f805b6003805490508110156106de578573ffffffffffffffffffffffffffffffffffffffff16600382815481106104f2576104f1611940565b5b905f5260205f2090600402015f015f9054906101000a900473ffffffffffffffffffffffffffffffffffffffff1673ffffffffffffffffffffffffffffffffffffffff16036106d1575f6105ee6003838154811061055357610552611940565b5b905f5260205f209060040201600101805461056d90611910565b80601f016020809104026020016040519081016040528092919081815260200182805461059990611910565b80156105e45780601f106105bb576101008083540402835291602001916105e4565b820191905f5260205f20905b8154815290600101906020018083116105c757829003601f168201915b5050505050610fc2565b90506040518060c001604052808381526020018260400151815260200182606001518152602001826020015181526020016003848154811061063357610632611940565b5b905f5260205f20906004020160020154815260200160018081111561065b5761065a6119e1565b5b6003858154811061066f5761066e611940565b5b905f5260205f2090600402016003015f9054906101000a900460ff16600181111561069d5761069c6119e1565b5b1415158152508484815181106106b6576106b5611940565b5b602002602001018190525082806106cc9061199a565b935050505b80806001019150506104ba565b50819350505050919050565b5f60025f3373ffffffffffffffffffffffffffffffffffffffff1673ffffffffffffffffffffffffffffffffffffffff1681526020019081526020015f2054905090565b5f61073882610fc2565b6020015190508060025f3373ffffffffffffffffffffffffffffffffffffffff1673ffffffffffffffffffffffffffffffffffffffff1681526020019081526020015f205410156107be576040517f08c379a00000000000000000000000000000000000000000000000000000000081526004016107b590611a68565b60405180910390fd5b8060025f3373ffffffffffffffffffffffffffffffffffffffff1673ffffffffffffffffffffffffffffffffffffffff1681526020019081526020015f205f82825461080a9190611a86565b92505081905550600360405180608001604052803373ffffffffffffffffffffffffffffffffffffffff1681526020018481526020014281526020015f6001811115610859576108586119e1565b5b815250908060018154018082558091505060019003905f5260205f2090600402015f909190919091505f820151815f015f6101000a81548173ffffffffffffffffffffffffffffffffffffffff021916908373ffffffffffffffffffffffffffffffffffffffff16021790555060208201518160010190816108db9190611c56565b50604082015181600201556060820151816003015f6101000a81548160ff021916908360018111156109105761090f6119e1565b5b021790555050503373ffffffffffffffffffffffffffffffffffffffff167f63d8e5c0bf4559e61ee479385882367114d00d044cdbf28449bf437737db31af83834260405161096193929190611d5d565b60405180910390a25050565b5f8054906101000a900473ffffffffffffffffffffffffffffffffffffffff1673ffffffffffffffffffffffffffffffffffffffff163373ffffffffffffffffffffffffffffffffffffffff16146109fa576040517f08c379a00000000000000000000000000000000000000000000000000000000081526004016109f190611e09565b60405180910390fd5b5f60149054906101000a900460ff1615610a52573373ffffffffffffffffffffffffffffffffffffffff167fc76eaf55fe0c62418848780c99c0c94a15f79b80bca75629b0b8bd07678f55b660405160405180910390a25b5f60149054906101000a900460ff1615610aa1576040517f08c379a0000000000000000000000000000000000000000000000000000000008152600401610a9890611e71565b60405180910390fd5b60015f60146101000a81548160ff0219169083151502179055505f60025f3373ffffffffffffffffffffffffffffffffffffffff1673ffffffffffffffffffffffffffffffffffffffff1681526020019081526020015f205490505f8111610b3e576040517f08c379a0000000000000000000000000000000000000000000000000000000008152600401610b3590611ed9565b60405180910390fd5b5f60025f3373ffffffffffffffffffffffffffffffffffffffff1673ffffffffffffffffffffffffffffffffffffffff1681526020019081526020015f20819055505f3373ffffffffffffffffffffffffffffffffffffffff1682604051610ba590611f24565b5f6040518083038185875af1925050503d805f8114610bdf576040519150601f19603f3d011682016040523d82523d5f602084013e610be4565b606091505b5050905080610c28576040517f08c379a0000000000000000000000000000000000000000000000000000000008152600401610c1f90611f82565b60405180910390fd5b3373ffffffffffffffffffffffffffffffffffffffff167f7fcf532c15f0a6db0bd6d0e038bea71d30d808c7d98cb3bf7268a95bf5081b6583604051610c6e91906116da565b60405180910390a250505f8060146101000a81548160ff021916908315150217905550565b5f8054906101000a900473ffffffffffffffffffffffffffffffffffffffff1681565b5f3411610cf8576040517f08c379a0000000000000000000000000000000000000000000000000000000008152600401610cef90611fea565b60405180910390fd5b3460025f3373ffffffffffffffffffffffffffffffffffffffff1673ffffffffffffffffffffffffffffffffffffffff1681526020019081526020015f205f828254610d449190612008565b925050819055503373ffffffffffffffffffffffffffffffffffffffff167f8fe10ae416f22f5e5220b0018a6c1d4ff534d6aa3a471f2a20cb7747fe63e5b934604051610d9191906116da565b60405180910390a2565b6003805490508110610de2576040517f08c379a0000000000000000000000000000000000000000000000000000000008152600401610dd990612085565b60405180910390fd5b3373ffffffffffffffffffffffffffffffffffffffff1660038281548110610e0d57610e0c611940565b5b905f5260205f2090600402015f015f9054906101000a900473ffffffffffffffffffffffffffffffffffffffff1673ffffffffffffffffffffffffffffffffffffffff1614610e91576040517f08c379a0000000000000000000000000000000000000000000000000000000008152600401610e88906120ed565b60405180910390fd5b5f6001811115610ea457610ea36119e1565b5b60038281548110610eb857610eb7611940565b5b905f5260205f2090600402016003015f9054906101000a900460ff166001811115610ee657610ee56119e1565b5b14610f26576040517f08c379a0000000000000000000000000000000000000000000000000000000008152600401610f1d90612155565b60405180910390fd5b600160038281548110610f3c57610f3b611940565b5b905f5260205f2090600402016003015f6101000a81548160ff02191690836001811115610f6c57610f6b6119e1565b5b02179055503373ffffffffffffffffffffffffffffffffffffffff167fa7c459bc1ada656ec9f3f0e9562dcd1353b12b0fd5cc82657c4cecdc0dba6b8282604051610fb791906116da565b60405180910390a250565b610fca6112bb565b5f5b6001805490508110156112465782604051602001610fea91906121ad565b604051602081830303815290604052805190602001206001828154811061101457611013611940565b5b905f5260205f2090600402015f016040516020016110329190612243565b6040516020818303038152906040528051906020012003611239576001818154811061106157611060611940565b5b905f5260205f2090600402016040518060800160405290815f8201805461108790611910565b80601f01602080910402602001604051908101604052809291908181526020018280546110b390611910565b80156110fe5780601f106110d5576101008083540402835291602001916110fe565b820191905f5260205f20905b8154815290600101906020018083116110e157829003601f168201915b505050505081526020016001820154815260200160028201805461112190611910565b80601f016020809104026020016040519081016040528092919081815260200182805461114d90611910565b80156111985780601f1061116f57610100808354040283529160200191611198565b820191905f5260205f20905b81548152906001019060200180831161117b57829003601f168201915b505050505081526020016003820180546111b190611910565b80601f01602080910402602001604051908101604052809291908181526020018280546111dd90611910565b80156112285780601f106111ff57610100808354040283529160200191611228565b820191905f5260205f20905b81548152906001019060200180831161120b57829003601f168201915b505050505081525050915050611282565b8080600101915050610fcc565b506040517f08c379a0000000000000000000000000000000000000000000000000000000008152600401611279906122a3565b60405180910390fd5b919050565b6040518060c001604052805f815260200160608152602001606081526020015f81526020015f81526020015f151581525090565b6040518060800160405280606081526020015f815260200160608152602001606081525090565b5f81519050919050565b5f82825260208201905092915050565b5f819050602082019050919050565b5f81519050919050565b5f82825260208201905092915050565b8281835e5f83830152505050565b5f601f19601f8301169050919050565b5f61134d8261130b565b6113578185611315565b9350611367818560208601611325565b61137081611333565b840191505092915050565b5f819050919050565b61138d8161137b565b82525050565b5f608083015f8301518482035f8601526113ad8282611343565b91505060208301516113c26020860182611384565b50604083015184820360408601526113da8282611343565b915050606083015184820360608601526113f48282611343565b9150508091505092915050565b5f61140c8383611393565b905092915050565b5f602082019050919050565b5f61142a826112e2565b61143481856112ec565b935083602082028501611446856112fc565b805f5b8581101561148157848403895281516114628582611401565b945061146d83611414565b925060208a01995050600181019050611449565b50829750879550505050505092915050565b5f6020820190508181035f8301526114ab8184611420565b905092915050565b5f604051905090565b5f80fd5b5f80fd5b5f73ffffffffffffffffffffffffffffffffffffffff82169050919050565b5f6114ed826114c4565b9050919050565b6114fd816114e3565b8114611507575f80fd5b50565b5f81359050611518816114f4565b92915050565b5f60208284031215611533576115326114bc565b5b5f6115408482850161150a565b91505092915050565b5f81519050919050565b5f82825260208201905092915050565b5f819050602082019050919050565b5f8115159050919050565b61158681611572565b82525050565b5f60c083015f8301516115a15f860182611384565b50602083015184820360208601526115b98282611343565b915050604083015184820360408601526115d38282611343565b91505060608301516115e86060860182611384565b5060808301516115fb6080860182611384565b5060a083015161160e60a086018261157d565b508091505092915050565b5f611624838361158c565b905092915050565b5f602082019050919050565b5f61164282611549565b61164c8185611553565b93508360208202850161165e85611563565b805f5b85811015611699578484038952815161167a8582611619565b94506116858361162c565b925060208a01995050600181019050611661565b50829750879550505050505092915050565b5f6020820190508181035f8301526116c38184611638565b905092915050565b6116d48161137b565b82525050565b5f6020820190506116ed5f8301846116cb565b92915050565b5f80fd5b5f80fd5b7f4e487b71000000000000000000000000000000000000000000000000000000005f52604160045260245ffd5b61173182611333565b810181811067ffffffffffffffff821117156117505761174f6116fb565b5b80604052505050565b5f6117626114b3565b905061176e8282611728565b919050565b5f67ffffffffffffffff82111561178d5761178c6116fb565b5b61179682611333565b9050602081019050919050565b828183375f83830152505050565b5f6117c36117be84611773565b611759565b9050828152602081018484840111156117df576117de6116f7565b5b6117ea8482856117a3565b509392505050565b5f82601f830112611806576118056116f3565b5b81356118168482602086016117b1565b91505092915050565b5f60208284031215611834576118336114bc565b5b5f82013567ffffffffffffffff811115611851576118506114c0565b5b61185d848285016117f2565b91505092915050565b61186f816114e3565b82525050565b5f6020820190506118885f830184611866565b92915050565b6118978161137b565b81146118a1575f80fd5b50565b5f813590506118b28161188e565b92915050565b5f602082840312156118cd576118cc6114bc565b5b5f6118da848285016118a4565b91505092915050565b7f4e487b71000000000000000000000000000000000000000000000000000000005f52602260045260245ffd5b5f600282049050600182168061192757607f821691505b60208210810361193a576119396118e3565b5b50919050565b7f4e487b71000000000000000000000000000000000000000000000000000000005f52603260045260245ffd5b7f4e487b71000000000000000000000000000000000000000000000000000000005f52601160045260245ffd5b5f6119a48261137b565b91507fffffffffffffffffffffffffffffffffffffffffffffffffffffffffffffffff82036119d6576119d561196d565b5b600182019050919050565b7f4e487b71000000000000000000000000000000000000000000000000000000005f52602160045260245ffd5b5f82825260208201905092915050565b7f496e73756666696369656e742066756e647300000000000000000000000000005f82015250565b5f611a52601283611a0e565b9150611a5d82611a1e565b602082019050919050565b5f6020820190508181035f830152611a7f81611a46565b9050919050565b5f611a908261137b565b9150611a9b8361137b565b9250828203905081811115611ab357611ab261196d565b5b92915050565b5f819050815f5260205f209050919050565b5f6020601f8301049050919050565b5f82821b905092915050565b5f60088302611b157fffffffffffffffffffffffffffffffffffffffffffffffffffffffffffffffff82611ada565b611b1f8683611ada565b95508019841693508086168417925050509392505050565b5f819050919050565b5f611b5a611b55611b508461137b565b611b37565b61137b565b9050919050565b5f819050919050565b611b7383611b40565b611b87611b7f82611b61565b848454611ae6565b825550505050565b5f90565b611b9b611b8f565b611ba6818484611b6a565b505050565b5b81811015611bc957611bbe5f82611b93565b600181019050611bac565b5050565b601f821115611c0e57611bdf81611ab9565b611be884611acb565b81016020851015611bf7578190505b611c0b611c0385611acb565b830182611bab565b50505b505050565b5f82821c905092915050565b5f611c2e5f1984600802611c13565b1980831691505092915050565b5f611c468383611c1f565b9150826002028217905092915050565b611c5f8261130b565b67ffffffffffffffff811115611c7857611c776116fb565b5b611c828254611910565b611c8d828285611bcd565b5f60209050601f831160018114611cbe575f8415611cac578287015190505b611cb68582611c3b565b865550611d1d565b601f198416611ccc86611ab9565b5f5b82811015611cf357848901518255600182019150602085019450602081019050611cce565b86831015611d105784890151611d0c601f891682611c1f565b8355505b6001600288020188555050505b505050505050565b5f611d2f8261130b565b611d398185611a0e565b9350611d49818560208601611325565b611d5281611333565b840191505092915050565b5f6060820190508181035f830152611d758186611d25565b9050611d8460208301856116cb565b611d9160408301846116cb565b949350505050565b7f4f6e6c79206f776e65722063616e2063616c6c20746869732066756e6374696f5f8201527f6e00000000000000000000000000000000000000000000000000000000000000602082015250565b5f611df3602183611a0e565b9150611dfe82611d99565b604082019050919050565b5f6020820190508181035f830152611e2081611de7565b9050919050565b7f4e6f207265656e7472616e6379000000000000000000000000000000000000005f82015250565b5f611e5b600d83611a0e565b9150611e6682611e27565b602082019050919050565b5f6020820190508181035f830152611e8881611e4f565b9050919050565b7f596f7520646f206e6f74206861766520616e792062616c616e63652e000000005f82015250565b5f611ec3601c83611a0e565b9150611ece82611e8f565b602082019050919050565b5f6020820190508181035f830152611ef081611eb7565b9050919050565b5f81905092915050565b50565b5f611f0f5f83611ef7565b9150611f1a82611f01565b5f82019050919050565b5f611f2e82611f04565b9150819050919050565b7f5472616e73666572206661696c65642e000000000000000000000000000000005f82015250565b5f611f6c601083611a0e565b9150611f7782611f38565b602082019050919050565b5f6020820190508181035f830152611f9981611f60565b9050919050565b7f4d697373696e6720726571756972656420616d6f756e740000000000000000005f82015250565b5f611fd4601783611a0e565b9150611fdf82611fa0565b602082019050919050565b5f6020820190508181035f83015261200181611fc8565b9050919050565b5f6120128261137b565b915061201d8361137b565b92508282019050808211156120355761203461196d565b5b92915050565b7f496e76616c696420696e646578000000000000000000000000000000000000005f82015250565b5f61206f600d83611a0e565b915061207a8261203b565b602082019050919050565b5f6020820190508181035f83015261209c81612063565b9050919050565b7f4e6f7420796f75722070757263686173650000000000000000000000000000005f82015250565b5f6120d7601183611a0e565b91506120e2826120a3565b602082019050919050565b5f6020820190508181035f830152612104816120cb565b9050919050565b7f507572636861736520616c726561647920636f6e73756d6564000000000000005f82015250565b5f61213f601983611a0e565b915061214a8261210b565b602082019050919050565b5f6020820190508181035f83015261216c81612133565b9050919050565b5f81905092915050565b5f6121878261130b565b6121918185612173565b93506121a1818560208601611325565b80840191505092915050565b5f6121b8828461217d565b915081905092915050565b5f81546121cf81611910565b6121d98186612173565b9450600182165f81146121f357600181146122085761223a565b60ff198316865281151582028601935061223a565b61221185611ab9565b5f5b8381101561223257815481890152600182019150602081019050612213565b838801955050505b50505092915050565b5f61224e82846121c3565b915081905092915050565b7f50726f64756374206e6f7420666f756e640000000000000000000000000000005f82015250565b5f61228d601183611a0e565b915061229882612259565b602082019050919050565b5f6020820190508181035f8301526122ba81612281565b905091905056fea26469706673582212207012308cd0d654691d1ae787753343a887fec0309ff2bf609fe3960c1549866b64736f6c634300081a0033516d6652465261626f50334d3438656578766e516b6977675544506150484a69466e44634b637545754c426266312f",
					"opcodes": "PUSH1 0x80 PUSH1 0x40 MSTORE CALLVALUE DUP1 ISZERO PUSH2 0xF JUMPI PUSH0 DUP1 REVERT JUMPDEST POP CALLER PUSH0 DUP1 PUSH2 0x100 EXP DUP2 SLOAD DUP2 PUSH20 0xFFFFFFFFFFFFFFFFFFFFFFFFFFFFFFFFFFFFFFFF MUL NOT AND SWAP1 DUP4 PUSH20 0xFFFFFFFFFFFFFFFFFFFFFFFFFFFFFFFFFFFFFFFF AND MUL OR SWAP1 SSTORE POP PUSH2 0x5D PUSH2 0x62 PUSH1 0x20 SHL PUSH1 0x20 SHR JUMP JUMPDEST PUSH2 0x153A JUMP JUMPDEST PUSH2 0x123 PUSH1 0x40 MLOAD DUP1 PUSH1 0x40 ADD PUSH1 0x40 MSTORE DUP1 PUSH1 0x2 DUP2 MSTORE PUSH1 0x20 ADD PUSH32 0x4131000000000000000000000000000000000000000000000000000000000000 DUP2 MSTORE POP PUSH4 0x5F5E100 PUSH1 0xF PUSH2 0xAC SWAP2 SWAP1 PUSH2 0x10CF JUMP JUMPDEST PUSH1 0x40 MLOAD DUP1 PUSH1 0x40 ADD PUSH1 0x40 MSTORE DUP1 PUSH1 0x4 DUP2 MSTORE PUSH1 0x20 ADD PUSH32 0x4C61797300000000000000000000000000000000000000000000000000000000 DUP2 MSTORE POP PUSH1 0x40 MLOAD DUP1 PUSH1 0x40 ADD PUSH1 0x40 MSTORE DUP1 PUSH1 0x8 DUP2 MSTORE PUSH1 0x20 ADD PUSH32 0x6C6179732E706E67000000000000000000000000000000000000000000000000 DUP2 MSTORE POP PUSH2 0xF6B PUSH1 0x20 SHL PUSH1 0x20 SHR JUMP JUMPDEST PUSH2 0x1E3 PUSH1 0x40 MLOAD DUP1 PUSH1 0x40 ADD PUSH1 0x40 MSTORE DUP1 PUSH1 0x2 DUP2 MSTORE PUSH1 0x20 ADD PUSH32 0x4132000000000000000000000000000000000000000000000000000000000000 DUP2 MSTORE POP PUSH3 0x989680 PUSH1 0xAF PUSH2 0x16C SWAP2 SWAP1 PUSH2 0x10CF JUMP JUMPDEST PUSH1 0x40 MLOAD DUP1 PUSH1 0x40 ADD PUSH1 0x40 MSTORE DUP1 PUSH1 0x9 DUP2 MSTORE PUSH1 0x20 ADD PUSH32 0x436F636120436F6C610000000000000000000000000000000000000000000000 DUP2 MSTORE POP PUSH1 0x40 MLOAD DUP1 PUSH1 0x40 ADD PUSH1 0x40 MSTORE DUP1 PUSH1 0xD DUP2 MSTORE PUSH1 0x20 ADD PUSH32 0x636F63612D636F6C612E706E6700000000000000000000000000000000000000 DUP2 MSTORE POP PUSH2 0xF6B PUSH1 0x20 SHL PUSH1 0x20 SHR JUMP JUMPDEST PUSH2 0x2A4 PUSH1 0x40 MLOAD DUP1 PUSH1 0x40 ADD PUSH1 0x40 MSTORE DUP1 PUSH1 0x2 DUP2 MSTORE PUSH1 0x20 ADD PUSH32 0x4133000000000000000000000000000000000000000000000000000000000000 DUP2 MSTORE POP PUSH4 0x5F5E100 PUSH1 0xF PUSH2 0x22D SWAP2 SWAP1 PUSH2 0x10CF JUMP JUMPDEST PUSH1 0x40 MLOAD DUP1 PUSH1 0x40 ADD PUSH1 0x40 MSTORE DUP1 PUSH1 0x8 DUP2 MSTORE PUSH1 0x20 ADD PUSH32 0x5072696E676C6573000000000000000000000000000000000000000000000000 DUP2 MSTORE POP PUSH1 0x40 MLOAD DUP1 PUSH1 0x40 ADD PUSH1 0x40 MSTORE DUP1 PUSH1 0xC DUP2 MSTORE PUSH1 0x20 ADD PUSH32 0x7072696E676C65732E706E670000000000000000000000000000000000000000 DUP2 MSTORE POP PUSH2 0xF6B PUSH1 0x20 SHL PUSH1 0x20 SHR JUMP JUMPDEST PUSH2 0x364 PUSH1 0x40 MLOAD DUP1 PUSH1 0x40 ADD PUSH1 0x40 MSTORE DUP1 PUSH1 0x2 DUP2 MSTORE PUSH1 0x20 ADD PUSH32 0x4134000000000000000000000000000000000000000000000000000000000000 DUP2 MSTORE POP PUSH3 0x989680 PUSH1 0xAF PUSH2 0x2ED SWAP2 SWAP1 PUSH2 0x10CF JUMP JUMPDEST PUSH1 0x40 MLOAD DUP1 PUSH1 0x40 ADD PUSH1 0x40 MSTORE DUP1 PUSH1 0x5 DUP2 MSTORE PUSH1 0x20 ADD PUSH32 0x5761746572000000000000000000000000000000000000000000000000000000 DUP2 MSTORE POP PUSH1 0x40 MLOAD DUP1 PUSH1 0x40 ADD PUSH1 0x40 MSTORE DUP1 PUSH1 0x9 DUP2 MSTORE PUSH1 0x20 ADD PUSH32 0x77617465722E706E670000000000000000000000000000000000000000000000 DUP2 MSTORE POP PUSH2 0xF6B PUSH1 0x20 SHL PUSH1 0x20 SHR JUMP JUMPDEST PUSH2 0x425 PUSH1 0x40 MLOAD DUP1 PUSH1 0x40 ADD PUSH1 0x40 MSTORE DUP1 PUSH1 0x2 DUP2 MSTORE PUSH1 0x20 ADD PUSH32 0x4135000000000000000000000000000000000000000000000000000000000000 DUP2 MSTORE POP PUSH4 0x5F5E100 PUSH1 0xF PUSH2 0x3AE SWAP2 SWAP1 PUSH2 0x10CF JUMP JUMPDEST PUSH1 0x40 MLOAD DUP1 PUSH1 0x40 ADD PUSH1 0x40 MSTORE DUP1 PUSH1 0xC DUP2 MSTORE PUSH1 0x20 ADD PUSH32 0x456E65726779204472696E6B0000000000000000000000000000000000000000 DUP2 MSTORE POP PUSH1 0x40 MLOAD DUP1 PUSH1 0x40 ADD PUSH1 0x40 MSTORE DUP1 PUSH1 0xC DUP2 MSTORE PUSH1 0x20 ADD PUSH32 0x7265642D62756C6C2E706E670000000000000000000000000000000000000000 DUP2 MSTORE POP PUSH2 0xF6B PUSH1 0x20 SHL PUSH1 0x20 SHR JUMP JUMPDEST PUSH2 0x4E6 PUSH1 0x40 MLOAD DUP1 PUSH1 0x40 ADD PUSH1 0x40 MSTORE DUP1 PUSH1 0x2 DUP2 MSTORE PUSH1 0x20 ADD PUSH32 0x4231000000000000000000000000000000000000000000000000000000000000 DUP2 MSTORE POP PUSH4 0x5F5E100 PUSH1 0x14 PUSH2 0x46F SWAP2 SWAP1 PUSH2 0x10CF JUMP JUMPDEST PUSH1 0x40 MLOAD DUP1 PUSH1 0x40 ADD PUSH1 0x40 MSTORE DUP1 PUSH1 0x8 DUP2 MSTORE PUSH1 0x20 ADD PUSH32 0x53616E6477696368000000000000000000000000000000000000000000000000 DUP2 MSTORE POP PUSH1 0x40 MLOAD DUP1 PUSH1 0x40 ADD PUSH1 0x40 MSTORE DUP1 PUSH1 0xC DUP2 MSTORE PUSH1 0x20 ADD PUSH32 0x73616E64776963682E706E670000000000000000000000000000000000000000 DUP2 MSTORE POP PUSH2 0xF6B PUSH1 0x20 SHL PUSH1 0x20 SHR JUMP JUMPDEST PUSH2 0x5A6 PUSH1 0x40 MLOAD DUP1 PUSH1 0x40 ADD PUSH1 0x40 MSTORE DUP1 PUSH1 0x2 DUP2 MSTORE PUSH1 0x20 ADD PUSH32 0x4232000000000000000000000000000000000000000000000000000000000000 DUP2 MSTORE POP PUSH3 0x989680 PUSH1 0xAF PUSH2 0x52F SWAP2 SWAP1 PUSH2 0x10CF JUMP JUMPDEST PUSH1 0x40 MLOAD DUP1 PUSH1 0x40 ADD PUSH1 0x40 MSTORE DUP1 PUSH1 0x4 DUP2 MSTORE PUSH1 0x20 ADD PUSH32 0x4F72656F00000000000000000000000000000000000000000000000000000000 DUP2 MSTORE POP PUSH1 0x40 MLOAD DUP1 PUSH1 0x40 ADD PUSH1 0x40 MSTORE DUP1 PUSH1 0x8 DUP2 MSTORE PUSH1 0x20 ADD PUSH32 0x6F72656F2E706E67000000000000000000000000000000000000000000000000 DUP2 MSTORE POP PUSH2 0xF6B PUSH1 0x20 SHL PUSH1 0x20 SHR JUMP JUMPDEST PUSH2 0x667 PUSH1 0x40 MLOAD DUP1 PUSH1 0x40 ADD PUSH1 0x40 MSTORE DUP1 PUSH1 0x2 DUP2 MSTORE PUSH1 0x20 ADD PUSH32 0x4233000000000000000000000000000000000000000000000000000000000000 DUP2 MSTORE POP PUSH4 0x5F5E100 PUSH1 0xF PUSH2 0x5F0 SWAP2 SWAP1 PUSH2 0x10CF JUMP JUMPDEST PUSH1 0x40 MLOAD DUP1 PUSH1 0x40 ADD PUSH1 0x40 MSTORE DUP1 PUSH1 0x6 DUP2 MSTORE PUSH1 0x20 ADD PUSH32 0x5370726974650000000000000000000000000000000000000000000000000000 DUP2 MSTORE POP PUSH1 0x40 MLOAD DUP1 PUSH1 0x40 ADD PUSH1 0x40 MSTORE DUP1 PUSH1 0xA DUP2 MSTORE PUSH1 0x20 ADD PUSH32 0x7370726974652E706E6700000000000000000000000000000000000000000000 DUP2 MSTORE POP PUSH2 0xF6B PUSH1 0x20 SHL PUSH1 0x20 SHR JUMP JUMPDEST PUSH2 0x727 PUSH1 0x40 MLOAD DUP1 PUSH1 0x40 ADD PUSH1 0x40 MSTORE DUP1 PUSH1 0x2 DUP2 MSTORE PUSH1 0x20 ADD PUSH32 0x4234000000000000000000000000000000000000000000000000000000000000 DUP2 MSTORE POP PUSH3 0x989680 PUSH1 0xAF PUSH2 0x6B0 SWAP2 SWAP1 PUSH2 0x10CF JUMP JUMPDEST PUSH1 0x40 MLOAD DUP1 PUSH1 0x40 ADD PUSH1 0x40 MSTORE DUP1 PUSH1 0xB DUP2 MSTORE PUSH1 0x20 ADD PUSH32 0x4772616E6F6C6120426172000000000000000000000000000000000000000000 DUP2 MSTORE POP PUSH1 0x40 MLOAD DUP1 PUSH1 0x40 ADD PUSH1 0x40 MSTORE DUP1 PUSH1 0xF DUP2 MSTORE PUSH1 0x20 ADD PUSH32 0x6772616E6F6C612D6261722E706E670000000000000000000000000000000000 DUP2 MSTORE POP PUSH2 0xF6B PUSH1 0x20 SHL PUSH1 0x20 SHR JUMP JUMPDEST PUSH2 0x7E7 PUSH1 0x40 MLOAD DUP1 PUSH1 0x40 ADD PUSH1 0x40 MSTORE DUP1 PUSH1 0x2 DUP2 MSTORE PUSH1 0x20 ADD PUSH32 0x4235000000000000000000000000000000000000000000000000000000000000 DUP2 MSTORE POP PUSH3 0x989680 PUSH1 0xAF PUSH2 0x770 SWAP2 SWAP1 PUSH2 0x10CF JUMP JUMPDEST PUSH1 0x40 MLOAD DUP1 PUSH1 0x40 ADD PUSH1 0x40 MSTORE DUP1 PUSH1 0x7 DUP2 MSTORE PUSH1 0x20 ADD PUSH32 0x446F7269746F7300000000000000000000000000000000000000000000000000 DUP2 MSTORE POP PUSH1 0x40 MLOAD DUP1 PUSH1 0x40 ADD PUSH1 0x40 MSTORE DUP1 PUSH1 0xB DUP2 MSTORE PUSH1 0x20 ADD PUSH32 0x646F7269746F732E706E67000000000000000000000000000000000000000000 DUP2 MSTORE POP PUSH2 0xF6B PUSH1 0x20 SHL PUSH1 0x20 SHR JUMP JUMPDEST PUSH2 0x8A8 PUSH1 0x40 MLOAD DUP1 PUSH1 0x40 ADD PUSH1 0x40 MSTORE DUP1 PUSH1 0x2 DUP2 MSTORE PUSH1 0x20 ADD PUSH32 0x4331000000000000000000000000000000000000000000000000000000000000 DUP2 MSTORE POP PUSH4 0x5F5E100 PUSH1 0xF PUSH2 0x831 SWAP2 SWAP1 PUSH2 0x10CF JUMP JUMPDEST PUSH1 0x40 MLOAD DUP1 PUSH1 0x40 ADD PUSH1 0x40 MSTORE DUP1 PUSH1 0xB DUP2 MSTORE PUSH1 0x20 ADD PUSH32 0x536E69636B657220426172000000000000000000000000000000000000000000 DUP2 MSTORE POP PUSH1 0x40 MLOAD DUP1 PUSH1 0x40 ADD PUSH1 0x40 MSTORE DUP1 PUSH1 0xC DUP2 MSTORE PUSH1 0x20 ADD PUSH32 0x736E69636B6572732E706E670000000000000000000000000000000000000000 DUP2 MSTORE POP PUSH2 0xF6B PUSH1 0x20 SHL PUSH1 0x20 SHR JUMP JUMPDEST PUSH2 0x969 PUSH1 0x40 MLOAD DUP1 PUSH1 0x40 ADD PUSH1 0x40 MSTORE DUP1 PUSH1 0x2 DUP2 MSTORE PUSH1 0x20 ADD PUSH32 0x4332000000000000000000000000000000000000000000000000000000000000 DUP2 MSTORE POP PUSH4 0x5F5E100 PUSH1 0xF PUSH2 0x8F2 SWAP2 SWAP1 PUSH2 0x10CF JUMP JUMPDEST PUSH1 0x40 MLOAD DUP1 PUSH1 0x40 ADD PUSH1 0x40 MSTORE DUP1 PUSH1 0x4 DUP2 MSTORE PUSH1 0x20 ADD PUSH32 0x4D264D7300000000000000000000000000000000000000000000000000000000 DUP2 MSTORE POP PUSH1 0x40 MLOAD DUP1 PUSH1 0x40 ADD PUSH1 0x40 MSTORE DUP1 PUSH1 0x8 DUP2 MSTORE PUSH1 0x20 ADD PUSH32 0x6D266D732E706E67000000000000000000000000000000000000000000000000 DUP2 MSTORE POP PUSH2 0xF6B PUSH1 0x20 SHL PUSH1 0x20 SHR JUMP JUMPDEST PUSH2 0xA29 PUSH1 0x40 MLOAD DUP1 PUSH1 0x40 ADD PUSH1 0x40 MSTORE DUP1 PUSH1 0x2 DUP2 MSTORE PUSH1 0x20 ADD PUSH32 0x4333000000000000000000000000000000000000000000000000000000000000 DUP2 MSTORE POP PUSH3 0x989680 PUSH1 0x7D PUSH2 0x9B2 SWAP2 SWAP1 PUSH2 0x10CF JUMP JUMPDEST PUSH1 0x40 MLOAD DUP1 PUSH1 0x40 ADD PUSH1 0x40 MSTORE DUP1 PUSH1 0xE DUP2 MSTORE PUSH1 0x20 ADD PUSH32 0x427562626C65205461702047756D000000000000000000000000000000000000 DUP2 MSTORE POP PUSH1 0x40 MLOAD DUP1 PUSH1 0x40 ADD PUSH1 0x40 MSTORE DUP1 PUSH1 0xE DUP2 MSTORE PUSH1 0x20 ADD PUSH32 0x627562626C652D7461702E706E67000000000000000000000000000000000000 DUP2 MSTORE POP PUSH2 0xF6B PUSH1 0x20 SHL PUSH1 0x20 SHR JUMP JUMPDEST PUSH2 0xAE9 PUSH1 0x40 MLOAD DUP1 PUSH1 0x40 ADD PUSH1 0x40 MSTORE DUP1 PUSH1 0x2 DUP2 MSTORE PUSH1 0x20 ADD PUSH32 0x4334000000000000000000000000000000000000000000000000000000000000 DUP2 MSTORE POP PUSH3 0x989680 PUSH1 0xAF PUSH2 0xA72 SWAP2 SWAP1 PUSH2 0x10CF JUMP JUMPDEST PUSH1 0x40 MLOAD DUP1 PUSH1 0x40 ADD PUSH1 0x40 MSTORE DUP1 PUSH1 0xD DUP2 MSTORE PUSH1 0x20 ADD PUSH32 0x4672756974204E75742042617200000000000000000000000000000000000000 DUP2 MSTORE POP PUSH1 0x40 MLOAD DUP1 PUSH1 0x40 ADD PUSH1 0x40 MSTORE DUP1 PUSH1 0xD DUP2 MSTORE PUSH1 0x20 ADD PUSH32 0x66727569742D6E75742E706E6700000000000000000000000000000000000000 DUP2 MSTORE POP PUSH2 0xF6B PUSH1 0x20 SHL PUSH1 0x20 SHR JUMP JUMPDEST PUSH2 0xBA9 PUSH1 0x40 MLOAD DUP1 PUSH1 0x40 ADD PUSH1 0x40 MSTORE DUP1 PUSH1 0x2 DUP2 MSTORE PUSH1 0x20 ADD PUSH32 0x4335000000000000000000000000000000000000000000000000000000000000 DUP2 MSTORE POP PUSH3 0x989680 PUSH1 0xAF PUSH2 0xB32 SWAP2 SWAP1 PUSH2 0x10CF JUMP JUMPDEST PUSH1 0x40 MLOAD DUP1 PUSH1 0x40 ADD PUSH1 0x40 MSTORE DUP1 PUSH1 0xA DUP2 MSTORE PUSH1 0x20 ADD PUSH32 0x42656566204A65726B7900000000000000000000000000000000000000000000 DUP2 MSTORE POP PUSH1 0x40 MLOAD DUP1 PUSH1 0x40 ADD PUSH1 0x40 MSTORE DUP1 PUSH1 0xE DUP2 MSTORE PUSH1 0x20 ADD PUSH32 0x626565662D6A65726B792E706E67000000000000000000000000000000000000 DUP2 MSTORE POP PUSH2 0xF6B PUSH1 0x20 SHL PUSH1 0x20 SHR JUMP JUMPDEST PUSH2 0xC69 PUSH1 0x40 MLOAD DUP1 PUSH1 0x40 ADD PUSH1 0x40 MSTORE DUP1 PUSH1 0x2 DUP2 MSTORE PUSH1 0x20 ADD PUSH32 0x4431000000000000000000000000000000000000000000000000000000000000 DUP2 MSTORE POP PUSH3 0x989680 PUSH1 0x7D PUSH2 0xBF2 SWAP2 SWAP1 PUSH2 0x10CF JUMP JUMPDEST PUSH1 0x40 MLOAD DUP1 PUSH1 0x40 ADD PUSH1 0x40 MSTORE DUP1 PUSH1 0xE DUP2 MSTORE PUSH1 0x20 ADD PUSH32 0x4B69744B61742042697363756974000000000000000000000000000000000000 DUP2 MSTORE POP PUSH1 0x40 MLOAD DUP1 PUSH1 0x40 ADD PUSH1 0x40 MSTORE DUP1 PUSH1 0xA DUP2 MSTORE PUSH1 0x20 ADD PUSH32 0x6B69746B61742E706E6700000000000000000000000000000000000000000000 DUP2 MSTORE POP PUSH2 0xF6B PUSH1 0x20 SHL PUSH1 0x20 SHR JUMP JUMPDEST PUSH2 0xD29 PUSH1 0x40 MLOAD DUP1 PUSH1 0x40 ADD PUSH1 0x40 MSTORE DUP1 PUSH1 0x2 DUP2 MSTORE PUSH1 0x20 ADD PUSH32 0x4432000000000000000000000000000000000000000000000000000000000000 DUP2 MSTORE POP PUSH3 0x989680 PUSH1 0x7D PUSH2 0xCB2 SWAP2 SWAP1 PUSH2 0x10CF JUMP JUMPDEST PUSH1 0x40 MLOAD DUP1 PUSH1 0x40 ADD PUSH1 0x40 MSTORE DUP1 PUSH1 0x8 DUP2 MSTORE PUSH1 0x20 ADD PUSH32 0x506F7020436F726E000000000000000000000000000000000000000000000000 DUP2 MSTORE POP PUSH1 0x40 MLOAD DUP1 PUSH1 0x40 ADD PUSH1 0x40 MSTORE DUP1 PUSH1 0xB DUP2 MSTORE PUSH1 0x20 ADD PUSH32 0x706F70636F726E2E706E67000000000000000000000000000000000000000000 DUP2 MSTORE POP PUSH2 0xF6B PUSH1 0x20 SHL PUSH1 0x20 SHR JUMP JUMPDEST PUSH2 0xDE9 PUSH1 0x40 MLOAD DUP1 PUSH1 0x40 ADD PUSH1 0x40 MSTORE DUP1 PUSH1 0x2 DUP2 MSTORE PUSH1 0x20 ADD PUSH32 0x4433000000000000000000000000000000000000000000000000000000000000 DUP2 MSTORE POP PUSH3 0x989680 PUSH1 0x96 PUSH2 0xD72 SWAP2 SWAP1 PUSH2 0x10CF JUMP JUMPDEST PUSH1 0x40 MLOAD DUP1 PUSH1 0x40 ADD PUSH1 0x40 MSTORE DUP1 PUSH1 0x8 DUP2 MSTORE PUSH1 0x20 ADD PUSH32 0x5477697820426172000000000000000000000000000000000000000000000000 DUP2 MSTORE POP PUSH1 0x40 MLOAD DUP1 PUSH1 0x40 ADD PUSH1 0x40 MSTORE DUP1 PUSH1 0x8 DUP2 MSTORE PUSH1 0x20 ADD PUSH32 0x747769782E706E67000000000000000000000000000000000000000000000000 DUP2 MSTORE POP PUSH2 0xF6B PUSH1 0x20 SHL PUSH1 0x20 SHR JUMP JUMPDEST PUSH2 0xEA9 PUSH1 0x40 MLOAD DUP1 PUSH1 0x40 ADD PUSH1 0x40 MSTORE DUP1 PUSH1 0x2 DUP2 MSTORE PUSH1 0x20 ADD PUSH32 0x4434000000000000000000000000000000000000000000000000000000000000 DUP2 MSTORE POP PUSH3 0x989680 PUSH1 0x7D PUSH2 0xE32 SWAP2 SWAP1 PUSH2 0x10CF JUMP JUMPDEST PUSH1 0x40 MLOAD DUP1 PUSH1 0x40 ADD PUSH1 0x40 MSTORE DUP1 PUSH1 0x5 DUP2 MSTORE PUSH1 0x20 ADD PUSH32 0x446F6E7574000000000000000000000000000000000000000000000000000000 DUP2 MSTORE POP PUSH1 0x40 MLOAD DUP1 PUSH1 0x40 ADD PUSH1 0x40 MSTORE DUP1 PUSH1 0x9 DUP2 MSTORE PUSH1 0x20 ADD PUSH32 0x646F6E75742E706E670000000000000000000000000000000000000000000000 DUP2 MSTORE POP PUSH2 0xF6B PUSH1 0x20 SHL PUSH1 0x20 SHR JUMP JUMPDEST PUSH2 0xF69 PUSH1 0x40 MLOAD DUP1 PUSH1 0x40 ADD PUSH1 0x40 MSTORE DUP1 PUSH1 0x2 DUP2 MSTORE PUSH1 0x20 ADD PUSH32 0x4435000000000000000000000000000000000000000000000000000000000000 DUP2 MSTORE POP PUSH3 0x989680 PUSH1 0x7D PUSH2 0xEF2 SWAP2 SWAP1 PUSH2 0x10CF JUMP JUMPDEST PUSH1 0x40 MLOAD DUP1 PUSH1 0x40 ADD PUSH1 0x40 MSTORE DUP1 PUSH1 0x9 DUP2 MSTORE PUSH1 0x20 ADD PUSH32 0x526564204170706C650000000000000000000000000000000000000000000000 DUP2 MSTORE POP PUSH1 0x40 MLOAD DUP1 PUSH1 0x40 ADD PUSH1 0x40 MSTORE DUP1 PUSH1 0x9 DUP2 MSTORE PUSH1 0x20 ADD PUSH32 0x6170706C652E706E670000000000000000000000000000000000000000000000 DUP2 MSTORE POP PUSH2 0xF6B PUSH1 0x20 SHL PUSH1 0x20 SHR JUMP JUMPDEST JUMP JUMPDEST PUSH0 PUSH2 0xF7B DUP3 PUSH2 0x1056 PUSH1 0x20 SHL PUSH1 0x20 SHR JUMP JUMPDEST SWAP1 POP PUSH1 0x1 PUSH1 0x40 MLOAD DUP1 PUSH1 0x80 ADD PUSH1 0x40 MSTORE DUP1 DUP8 DUP2 MSTORE PUSH1 0x20 ADD DUP7 DUP2 MSTORE PUSH1 0x20 ADD DUP6 DUP2 MSTORE PUSH1 0x20 ADD DUP4 DUP2 MSTORE POP SWAP1 DUP1 PUSH1 0x1 DUP2 SLOAD ADD DUP1 DUP3 SSTORE DUP1 SWAP2 POP POP PUSH1 0x1 SWAP1 SUB SWAP1 PUSH0 MSTORE PUSH1 0x20 PUSH0 KECCAK256 SWAP1 PUSH1 0x4 MUL ADD PUSH0 SWAP1 SWAP2 SWAP1 SWAP2 SWAP1 SWAP2 POP PUSH0 DUP3 ADD MLOAD DUP2 PUSH0 ADD SWAP1 DUP2 PUSH2 0xFD9 SWAP2 SWAP1 PUSH2 0x1341 JUMP JUMPDEST POP PUSH1 0x20 DUP3 ADD MLOAD DUP2 PUSH1 0x1 ADD SSTORE PUSH1 0x40 DUP3 ADD MLOAD DUP2 PUSH1 0x2 ADD SWAP1 DUP2 PUSH2 0xFF9 SWAP2 SWAP1 PUSH2 0x1341 JUMP JUMPDEST POP PUSH1 0x60 DUP3 ADD MLOAD DUP2 PUSH1 0x3 ADD SWAP1 DUP2 PUSH2 0x100F SWAP2 SWAP1 PUSH2 0x1341 JUMP JUMPDEST POP POP POP PUSH32 0x8CA0E4A383B33C2F01484C7CEB45C2555C4997B82D3AA641E9807527F56237FC DUP6 DUP5 DUP7 DUP5 PUSH1 0x40 MLOAD PUSH2 0x1047 SWAP5 SWAP4 SWAP3 SWAP2 SWAP1 PUSH2 0x1485 JUMP JUMPDEST PUSH1 0x40 MLOAD DUP1 SWAP2 SUB SWAP1 LOG1 POP POP POP POP POP JUMP JUMPDEST PUSH1 0x60 PUSH1 0x40 MLOAD DUP1 PUSH1 0x60 ADD PUSH1 0x40 MSTORE DUP1 PUSH1 0x2F DUP2 MSTORE PUSH1 0x20 ADD PUSH2 0x383E PUSH1 0x2F SWAP2 CODECOPY DUP3 PUSH1 0x40 MLOAD PUSH1 0x20 ADD PUSH2 0x1083 SWAP3 SWAP2 SWAP1 PUSH2 0x1517 JUMP JUMPDEST PUSH1 0x40 MLOAD PUSH1 0x20 DUP2 DUP4 SUB SUB DUP2 MSTORE SWAP1 PUSH1 0x40 MSTORE SWAP1 POP SWAP2 SWAP1 POP JUMP JUMPDEST PUSH0 DUP2 SWAP1 POP SWAP2 SWAP1 POP JUMP JUMPDEST PUSH32 0x4E487B7100000000000000000000000000000000000000000000000000000000 PUSH0 MSTORE PUSH1 0x11 PUSH1 0x4 MSTORE PUSH1 0x24 PUSH0 REVERT JUMPDEST PUSH0 PUSH2 0x10D9 DUP3 PUSH2 0x1099 JUMP JUMPDEST SWAP2 POP PUSH2 0x10E4 DUP4 PUSH2 0x1099 JUMP JUMPDEST SWAP3 POP DUP3 DUP3 MUL PUSH2 0x10F2 DUP2 PUSH2 0x1099 JUMP JUMPDEST SWAP2 POP DUP3 DUP3 DIV DUP5 EQ DUP4 ISZERO OR PUSH2 0x1109 JUMPI PUSH2 0x1108 PUSH2 0x10A2 JUMP JUMPDEST JUMPDEST POP SWAP3 SWAP2 POP POP JUMP JUMPDEST PUSH0 DUP2 MLOAD SWAP1 POP SWAP2 SWAP1 POP JUMP JUMPDEST PUSH32 0x4E487B7100000000000000000000000000000000000000000000000000000000 PUSH0 MSTORE PUSH1 0x41 PUSH1 0x4 MSTORE PUSH1 0x24 PUSH0 REVERT JUMPDEST PUSH32 0x4E487B7100000000000000000000000000000000000000000000000000000000 PUSH0 MSTORE PUSH1 0x22 PUSH1 0x4 MSTORE PUSH1 0x24 PUSH0 REVERT JUMPDEST PUSH0 PUSH1 0x2 DUP3 DIV SWAP1 POP PUSH1 0x1 DUP3 AND DUP1 PUSH2 0x118B JUMPI PUSH1 0x7F DUP3 AND SWAP2 POP JUMPDEST PUSH1 0x20 DUP3 LT DUP2 SUB PUSH2 0x119E JUMPI PUSH2 0x119D PUSH2 0x1147 JUMP JUMPDEST JUMPDEST POP SWAP2 SWAP1 POP JUMP JUMPDEST PUSH0 DUP2 SWAP1 POP DUP2 PUSH0 MSTORE PUSH1 0x20 PUSH0 KECCAK256 SWAP1 POP SWAP2 SWAP1 POP JUMP JUMPDEST PUSH0 PUSH1 0x20 PUSH1 0x1F DUP4 ADD DIV SWAP1 POP SWAP2 SWAP1 POP JUMP JUMPDEST PUSH0 DUP3 DUP3 SHL SWAP1 POP SWAP3 SWAP2 POP POP JUMP JUMPDEST PUSH0 PUSH1 0x8 DUP4 MUL PUSH2 0x1200 PUSH32 0xFFFFFFFFFFFFFFFFFFFFFFFFFFFFFFFFFFFFFFFFFFFFFFFFFFFFFFFFFFFFFFFF DUP3 PUSH2 0x11C5 JUMP JUMPDEST PUSH2 0x120A DUP7 DUP4 PUSH2 0x11C5 JUMP JUMPDEST SWAP6 POP DUP1 NOT DUP5 AND SWAP4 POP DUP1 DUP7 AND DUP5 OR SWAP3 POP POP POP SWAP4 SWAP3 POP POP POP JUMP JUMPDEST PUSH0 DUP2 SWAP1 POP SWAP2 SWAP1 POP JUMP JUMPDEST PUSH0 PUSH2 0x1245 PUSH2 0x1240 PUSH2 0x123B DUP5 PUSH2 0x1099 JUMP JUMPDEST PUSH2 0x1222 JUMP JUMPDEST PUSH2 0x1099 JUMP JUMPDEST SWAP1 POP SWAP2 SWAP1 POP JUMP JUMPDEST PUSH0 DUP2 SWAP1 POP SWAP2 SWAP1 POP JUMP JUMPDEST PUSH2 0x125E DUP4 PUSH2 0x122B JUMP JUMPDEST PUSH2 0x1272 PUSH2 0x126A DUP3 PUSH2 0x124C JUMP JUMPDEST DUP5 DUP5 SLOAD PUSH2 0x11D1 JUMP JUMPDEST DUP3 SSTORE POP POP POP POP JUMP JUMPDEST PUSH0 SWAP1 JUMP JUMPDEST PUSH2 0x1286 PUSH2 0x127A JUMP JUMPDEST PUSH2 0x1291 DUP2 DUP5 DUP5 PUSH2 0x1255 JUMP JUMPDEST POP POP POP JUMP JUMPDEST JUMPDEST DUP2 DUP2 LT ISZERO PUSH2 0x12B4 JUMPI PUSH2 0x12A9 PUSH0 DUP3 PUSH2 0x127E JUMP JUMPDEST PUSH1 0x1 DUP2 ADD SWAP1 POP PUSH2 0x1297 JUMP JUMPDEST POP POP JUMP JUMPDEST PUSH1 0x1F DUP3 GT ISZERO PUSH2 0x12F9 JUMPI PUSH2 0x12CA DUP2 PUSH2 0x11A4 JUMP JUMPDEST PUSH2 0x12D3 DUP5 PUSH2 0x11B6 JUMP JUMPDEST DUP2 ADD PUSH1 0x20 DUP6 LT ISZERO PUSH2 0x12E2 JUMPI DUP2 SWAP1 POP JUMPDEST PUSH2 0x12F6 PUSH2 0x12EE DUP6 PUSH2 0x11B6 JUMP JUMPDEST DUP4 ADD DUP3 PUSH2 0x1296 JUMP JUMPDEST POP POP JUMPDEST POP POP POP JUMP JUMPDEST PUSH0 DUP3 DUP3 SHR SWAP1 POP SWAP3 SWAP2 POP POP JUMP JUMPDEST PUSH0 PUSH2 0x1319 PUSH0 NOT DUP5 PUSH1 0x8 MUL PUSH2 0x12FE JUMP JUMPDEST NOT DUP1 DUP4 AND SWAP2 POP POP SWAP3 SWAP2 POP POP JUMP JUMPDEST PUSH0 PUSH2 0x1331 DUP4 DUP4 PUSH2 0x130A JUMP JUMPDEST SWAP2 POP DUP3 PUSH1 0x2 MUL DUP3 OR SWAP1 POP SWAP3 SWAP2 POP POP JUMP JUMPDEST PUSH2 0x134A DUP3 PUSH2 0x1110 JUMP JUMPDEST PUSH8 0xFFFFFFFFFFFFFFFF DUP2 GT ISZERO PUSH2 0x1363 JUMPI PUSH2 0x1362 PUSH2 0x111A JUMP JUMPDEST JUMPDEST PUSH2 0x136D DUP3 SLOAD PUSH2 0x1174 JUMP JUMPDEST PUSH2 0x1378 DUP3 DUP3 DUP6 PUSH2 0x12B8 JUMP JUMPDEST PUSH0 PUSH1 0x20 SWAP1 POP PUSH1 0x1F DUP4 GT PUSH1 0x1 DUP2 EQ PUSH2 0x13A9 JUMPI PUSH0 DUP5 ISZERO PUSH2 0x1397 JUMPI DUP3 DUP8 ADD MLOAD SWAP1 POP JUMPDEST PUSH2 0x13A1 DUP6 DUP3 PUSH2 0x1326 JUMP JUMPDEST DUP7 SSTORE POP PUSH2 0x1408 JUMP JUMPDEST PUSH1 0x1F NOT DUP5 AND PUSH2 0x13B7 DUP7 PUSH2 0x11A4 JUMP JUMPDEST PUSH0 JUMPDEST DUP3 DUP2 LT ISZERO PUSH2 0x13DE JUMPI DUP5 DUP10 ADD MLOAD DUP3 SSTORE PUSH1 0x1 DUP3 ADD SWAP2 POP PUSH1 0x20 DUP6 ADD SWAP5 POP PUSH1 0x20 DUP2 ADD SWAP1 POP PUSH2 0x13B9 JUMP JUMPDEST DUP7 DUP4 LT ISZERO PUSH2 0x13FB JUMPI DUP5 DUP10 ADD MLOAD PUSH2 0x13F7 PUSH1 0x1F DUP10 AND DUP3 PUSH2 0x130A JUMP JUMPDEST DUP4 SSTORE POP JUMPDEST PUSH1 0x1 PUSH1 0x2 DUP9 MUL ADD DUP9 SSTORE POP POP POP JUMPDEST POP POP POP POP POP POP JUMP JUMPDEST PUSH0 DUP3 DUP3 MSTORE PUSH1 0x20 DUP3 ADD SWAP1 POP SWAP3 SWAP2 POP POP JUMP JUMPDEST DUP3 DUP2 DUP4 MCOPY PUSH0 DUP4 DUP4 ADD MSTORE POP POP POP JUMP JUMPDEST PUSH0 PUSH1 0x1F NOT PUSH1 0x1F DUP4 ADD AND SWAP1 POP SWAP2 SWAP1 POP JUMP JUMPDEST PUSH0 PUSH2 0x1448 DUP3 PUSH2 0x1110 JUMP JUMPDEST PUSH2 0x1452 DUP2 DUP6 PUSH2 0x1410 JUMP JUMPDEST SWAP4 POP PUSH2 0x1462 DUP2 DUP6 PUSH1 0x20 DUP7 ADD PUSH2 0x1420 JUMP JUMPDEST PUSH2 0x146B DUP2 PUSH2 0x142E JUMP JUMPDEST DUP5 ADD SWAP2 POP POP SWAP3 SWAP2 POP POP JUMP JUMPDEST PUSH2 0x147F DUP2 PUSH2 0x1099 JUMP JUMPDEST DUP3 MSTORE POP POP JUMP JUMPDEST PUSH0 PUSH1 0x80 DUP3 ADD SWAP1 POP DUP2 DUP2 SUB PUSH0 DUP4 ADD MSTORE PUSH2 0x149D DUP2 DUP8 PUSH2 0x143E JUMP JUMPDEST SWAP1 POP DUP2 DUP2 SUB PUSH1 0x20 DUP4 ADD MSTORE PUSH2 0x14B1 DUP2 DUP7 PUSH2 0x143E JUMP JUMPDEST SWAP1 POP PUSH2 0x14C0 PUSH1 0x40 DUP4 ADD DUP6 PUSH2 0x1476 JUMP JUMPDEST DUP2 DUP2 SUB PUSH1 0x60 DUP4 ADD MSTORE PUSH2 0x14D2 DUP2 DUP5 PUSH2 0x143E JUMP JUMPDEST SWAP1 POP SWAP6 SWAP5 POP POP POP POP POP JUMP JUMPDEST PUSH0 DUP2 SWAP1 POP SWAP3 SWAP2 POP POP JUMP JUMPDEST PUSH0 PUSH2 0x14F1 DUP3 PUSH2 0x1110 JUMP JUMPDEST PUSH2 0x14FB DUP2 DUP6 PUSH2 0x14DD JUMP JUMPDEST SWAP4 POP PUSH2 0x150B DUP2 DUP6 PUSH1 0x20 DUP7 ADD PUSH2 0x1420 JUMP JUMPDEST DUP1 DUP5 ADD SWAP2 POP POP SWAP3 SWAP2 POP POP JUMP JUMPDEST PUSH0 PUSH2 0x1522 DUP3 DUP6 PUSH2 0x14E7 JUMP JUMPDEST SWAP2 POP PUSH2 0x152E DUP3 DUP5 PUSH2 0x14E7 JUMP JUMPDEST SWAP2 POP DUP2 SWAP1 POP SWAP4 SWAP3 POP POP POP JUMP JUMPDEST PUSH2 0x22F7 DUP1 PUSH2 0x1547 PUSH0 CODECOPY PUSH0 RETURN INVALID PUSH1 0x80 PUSH1 0x40 MSTORE PUSH1 0x4 CALLDATASIZE LT PUSH2 0x7A JUMPI PUSH0 CALLDATALOAD PUSH1 0xE0 SHR DUP1 PUSH4 0x3CCFD60B GT PUSH2 0x4D JUMPI DUP1 PUSH4 0x3CCFD60B EQ PUSH2 0x136 JUMPI DUP1 PUSH4 0x8DA5CB5B EQ PUSH2 0x14C JUMPI DUP1 PUSH4 0xA26759CB EQ PUSH2 0x176 JUMPI DUP1 PUSH4 0xB04F3225 EQ PUSH2 0x180 JUMPI PUSH2 0x7A JUMP JUMPDEST DUP1 PUSH4 0x2EE3A52 EQ PUSH2 0x7E JUMPI DUP1 PUSH4 0x1107BC98 EQ PUSH2 0xA8 JUMPI DUP1 PUSH4 0x12065FE0 EQ PUSH2 0xE4 JUMPI DUP1 PUSH4 0x19F92926 EQ PUSH2 0x10E JUMPI JUMPDEST PUSH0 DUP1 REVERT JUMPDEST CALLVALUE DUP1 ISZERO PUSH2 0x89 JUMPI PUSH0 DUP1 REVERT JUMPDEST POP PUSH2 0x92 PUSH2 0x1A8 JUMP JUMPDEST PUSH1 0x40 MLOAD PUSH2 0x9F SWAP2 SWAP1 PUSH2 0x1493 JUMP JUMPDEST PUSH1 0x40 MLOAD DUP1 SWAP2 SUB SWAP1 RETURN JUMPDEST CALLVALUE DUP1 ISZERO PUSH2 0xB3 JUMPI PUSH0 DUP1 REVERT JUMPDEST POP PUSH2 0xCE PUSH1 0x4 DUP1 CALLDATASIZE SUB DUP2 ADD SWAP1 PUSH2 0xC9 SWAP2 SWAP1 PUSH2 0x151E JUMP JUMPDEST PUSH2 0x3BD JUMP JUMPDEST PUSH1 0x40 MLOAD PUSH2 0xDB SWAP2 SWAP1 PUSH2 0x16AB JUMP JUMPDEST PUSH1 0x40 MLOAD DUP1 SWAP2 SUB SWAP1 RETURN JUMPDEST CALLVALUE DUP1 ISZERO PUSH2 0xEF JUMPI PUSH0 DUP1 REVERT JUMPDEST POP PUSH2 0xF8 PUSH2 0x6EA JUMP JUMPDEST PUSH1 0x40 MLOAD PUSH2 0x105 SWAP2 SWAP1 PUSH2 0x16DA JUMP JUMPDEST PUSH1 0x40 MLOAD DUP1 SWAP2 SUB SWAP1 RETURN JUMPDEST CALLVALUE DUP1 ISZERO PUSH2 0x119 JUMPI PUSH0 DUP1 REVERT JUMPDEST POP PUSH2 0x134 PUSH1 0x4 DUP1 CALLDATASIZE SUB DUP2 ADD SWAP1 PUSH2 0x12F SWAP2 SWAP1 PUSH2 0x181F JUMP JUMPDEST PUSH2 0x72E JUMP JUMPDEST STOP JUMPDEST CALLVALUE DUP1 ISZERO PUSH2 0x141 JUMPI PUSH0 DUP1 REVERT JUMPDEST POP PUSH2 0x14A PUSH2 0x96D JUMP JUMPDEST STOP JUMPDEST CALLVALUE DUP1 ISZERO PUSH2 0x157 JUMPI PUSH0 DUP1 REVERT JUMPDEST POP PUSH2 0x160 PUSH2 0xC93 JUMP JUMPDEST PUSH1 0x40 MLOAD PUSH2 0x16D SWAP2 SWAP1 PUSH2 0x1875 JUMP JUMPDEST PUSH1 0x40 MLOAD DUP1 SWAP2 SUB SWAP1 RETURN JUMPDEST PUSH2 0x17E PUSH2 0xCB6 JUMP JUMPDEST STOP JUMPDEST CALLVALUE DUP1 ISZERO PUSH2 0x18B JUMPI PUSH0 DUP1 REVERT JUMPDEST POP PUSH2 0x1A6 PUSH1 0x4 DUP1 CALLDATASIZE SUB DUP2 ADD SWAP1 PUSH2 0x1A1 SWAP2 SWAP1 PUSH2 0x18B8 JUMP JUMPDEST PUSH2 0xD9B JUMP JUMPDEST STOP JUMPDEST PUSH1 0x60 PUSH1 0x1 DUP1 SLOAD DUP1 PUSH1 0x20 MUL PUSH1 0x20 ADD PUSH1 0x40 MLOAD SWAP1 DUP2 ADD PUSH1 0x40 MSTORE DUP1 SWAP3 SWAP2 SWAP1 DUP2 DUP2 MSTORE PUSH1 0x20 ADD PUSH0 SWAP1 JUMPDEST DUP3 DUP3 LT ISZERO PUSH2 0x3B4 JUMPI DUP4 DUP3 SWAP1 PUSH0 MSTORE PUSH1 0x20 PUSH0 KECCAK256 SWAP1 PUSH1 0x4 MUL ADD PUSH1 0x40 MLOAD DUP1 PUSH1 0x80 ADD PUSH1 0x40 MSTORE SWAP1 DUP2 PUSH0 DUP3 ADD DUP1 SLOAD PUSH2 0x1FB SWAP1 PUSH2 0x1910 JUMP JUMPDEST DUP1 PUSH1 0x1F ADD PUSH1 0x20 DUP1 SWAP2 DIV MUL PUSH1 0x20 ADD PUSH1 0x40 MLOAD SWAP1 DUP2 ADD PUSH1 0x40 MSTORE DUP1 SWAP3 SWAP2 SWAP1 DUP2 DUP2 MSTORE PUSH1 0x20 ADD DUP3 DUP1 SLOAD PUSH2 0x227 SWAP1 PUSH2 0x1910 JUMP JUMPDEST DUP1 ISZERO PUSH2 0x272 JUMPI DUP1 PUSH1 0x1F LT PUSH2 0x249 JUMPI PUSH2 0x100 DUP1 DUP4 SLOAD DIV MUL DUP4 MSTORE SWAP2 PUSH1 0x20 ADD SWAP2 PUSH2 0x272 JUMP JUMPDEST DUP3 ADD SWAP2 SWAP1 PUSH0 MSTORE PUSH1 0x20 PUSH0 KECCAK256 SWAP1 JUMPDEST DUP2 SLOAD DUP2 MSTORE SWAP1 PUSH1 0x1 ADD SWAP1 PUSH1 0x20 ADD DUP1 DUP4 GT PUSH2 0x255 JUMPI DUP3 SWAP1 SUB PUSH1 0x1F AND DUP3 ADD SWAP2 JUMPDEST POP POP POP POP POP DUP2 MSTORE PUSH1 0x20 ADD PUSH1 0x1 DUP3 ADD SLOAD DUP2 MSTORE PUSH1 0x20 ADD PUSH1 0x2 DUP3 ADD DUP1 SLOAD PUSH2 0x295 SWAP1 PUSH2 0x1910 JUMP JUMPDEST DUP1 PUSH1 0x1F ADD PUSH1 0x20 DUP1 SWAP2 DIV MUL PUSH1 0x20 ADD PUSH1 0x40 MLOAD SWAP1 DUP2 ADD PUSH1 0x40 MSTORE DUP1 SWAP3 SWAP2 SWAP1 DUP2 DUP2 MSTORE PUSH1 0x20 ADD DUP3 DUP1 SLOAD PUSH2 0x2C1 SWAP1 PUSH2 0x1910 JUMP JUMPDEST DUP1 ISZERO PUSH2 0x30C JUMPI DUP1 PUSH1 0x1F LT PUSH2 0x2E3 JUMPI PUSH2 0x100 DUP1 DUP4 SLOAD DIV MUL DUP4 MSTORE SWAP2 PUSH1 0x20 ADD SWAP2 PUSH2 0x30C JUMP JUMPDEST DUP3 ADD SWAP2 SWAP1 PUSH0 MSTORE PUSH1 0x20 PUSH0 KECCAK256 SWAP1 JUMPDEST DUP2 SLOAD DUP2 MSTORE SWAP1 PUSH1 0x1 ADD SWAP1 PUSH1 0x20 ADD DUP1 DUP4 GT PUSH2 0x2EF JUMPI DUP3 SWAP1 SUB PUSH1 0x1F AND DUP3 ADD SWAP2 JUMPDEST POP POP POP POP POP DUP2 MSTORE PUSH1 0x20 ADD PUSH1 0x3 DUP3 ADD DUP1 SLOAD PUSH2 0x325 SWAP1 PUSH2 0x1910 JUMP JUMPDEST DUP1 PUSH1 0x1F ADD PUSH1 0x20 DUP1 SWAP2 DIV MUL PUSH1 0x20 ADD PUSH1 0x40 MLOAD SWAP1 DUP2 ADD PUSH1 0x40 MSTORE DUP1 SWAP3 SWAP2 SWAP1 DUP2 DUP2 MSTORE PUSH1 0x20 ADD DUP3 DUP1 SLOAD PUSH2 0x351 SWAP1 PUSH2 0x1910 JUMP JUMPDEST DUP1 ISZERO PUSH2 0x39C JUMPI DUP1 PUSH1 0x1F LT PUSH2 0x373 JUMPI PUSH2 0x100 DUP1 DUP4 SLOAD DIV MUL DUP4 MSTORE SWAP2 PUSH1 0x20 ADD SWAP2 PUSH2 0x39C JUMP JUMPDEST DUP3 ADD SWAP2 SWAP1 PUSH0 MSTORE PUSH1 0x20 PUSH0 KECCAK256 SWAP1 JUMPDEST DUP2 SLOAD DUP2 MSTORE SWAP1 PUSH1 0x1 ADD SWAP1 PUSH1 0x20 ADD DUP1 DUP4 GT PUSH2 0x37F JUMPI DUP3 SWAP1 SUB PUSH1 0x1F AND DUP3 ADD SWAP2 JUMPDEST POP POP POP POP POP DUP2 MSTORE POP POP DUP2 MSTORE PUSH1 0x20 ADD SWAP1 PUSH1 0x1 ADD SWAP1 PUSH2 0x1CB JUMP JUMPDEST POP POP POP POP SWAP1 POP SWAP1 JUMP JUMPDEST PUSH1 0x60 PUSH0 DUP1 JUMPDEST PUSH1 0x3 DUP1 SLOAD SWAP1 POP DUP2 LT ISZERO PUSH2 0x45F JUMPI DUP4 PUSH20 0xFFFFFFFFFFFFFFFFFFFFFFFFFFFFFFFFFFFFFFFF AND PUSH1 0x3 DUP3 DUP2 SLOAD DUP2 LT PUSH2 0x3FA JUMPI PUSH2 0x3F9 PUSH2 0x1940 JUMP JUMPDEST JUMPDEST SWAP1 PUSH0 MSTORE PUSH1 0x20 PUSH0 KECCAK256 SWAP1 PUSH1 0x4 MUL ADD PUSH0 ADD PUSH0 SWAP1 SLOAD SWAP1 PUSH2 0x100 EXP SWAP1 DIV PUSH20 0xFFFFFFFFFFFFFFFFFFFFFFFFFFFFFFFFFFFFFFFF AND PUSH20 0xFFFFFFFFFFFFFFFFFFFFFFFFFFFFFFFFFFFFFFFF AND SUB PUSH2 0x452 JUMPI DUP2 DUP1 PUSH2 0x44E SWAP1 PUSH2 0x199A JUMP JUMPDEST SWAP3 POP POP JUMPDEST DUP1 DUP1 PUSH1 0x1 ADD SWAP2 POP POP PUSH2 0x3C2 JUMP JUMPDEST POP PUSH0 DUP2 PUSH8 0xFFFFFFFFFFFFFFFF DUP2 GT ISZERO PUSH2 0x47B JUMPI PUSH2 0x47A PUSH2 0x16FB JUMP JUMPDEST JUMPDEST PUSH1 0x40 MLOAD SWAP1 DUP1 DUP3 MSTORE DUP1 PUSH1 0x20 MUL PUSH1 0x20 ADD DUP3 ADD PUSH1 0x40 MSTORE DUP1 ISZERO PUSH2 0x4B4 JUMPI DUP2 PUSH1 0x20 ADD JUMPDEST PUSH2 0x4A1 PUSH2 0x1287 JUMP JUMPDEST DUP2 MSTORE PUSH1 0x20 ADD SWAP1 PUSH1 0x1 SWAP1 SUB SWAP1 DUP2 PUSH2 0x499 JUMPI SWAP1 POP JUMPDEST POP SWAP1 POP PUSH0 DUP1 JUMPDEST PUSH1 0x3 DUP1 SLOAD SWAP1 POP DUP2 LT ISZERO PUSH2 0x6DE JUMPI DUP6 PUSH20 0xFFFFFFFFFFFFFFFFFFFFFFFFFFFFFFFFFFFFFFFF AND PUSH1 0x3 DUP3 DUP2 SLOAD DUP2 LT PUSH2 0x4F2 JUMPI PUSH2 0x4F1 PUSH2 0x1940 JUMP JUMPDEST JUMPDEST SWAP1 PUSH0 MSTORE PUSH1 0x20 PUSH0 KECCAK256 SWAP1 PUSH1 0x4 MUL ADD PUSH0 ADD PUSH0 SWAP1 SLOAD SWAP1 PUSH2 0x100 EXP SWAP1 DIV PUSH20 0xFFFFFFFFFFFFFFFFFFFFFFFFFFFFFFFFFFFFFFFF AND PUSH20 0xFFFFFFFFFFFFFFFFFFFFFFFFFFFFFFFFFFFFFFFF AND SUB PUSH2 0x6D1 JUMPI PUSH0 PUSH2 0x5EE PUSH1 0x3 DUP4 DUP2 SLOAD DUP2 LT PUSH2 0x553 JUMPI PUSH2 0x552 PUSH2 0x1940 JUMP JUMPDEST JUMPDEST SWAP1 PUSH0 MSTORE PUSH1 0x20 PUSH0 KECCAK256 SWAP1 PUSH1 0x4 MUL ADD PUSH1 0x1 ADD DUP1 SLOAD PUSH2 0x56D SWAP1 PUSH2 0x1910 JUMP JUMPDEST DUP1 PUSH1 0x1F ADD PUSH1 0x20 DUP1 SWAP2 DIV MUL PUSH1 0x20 ADD PUSH1 0x40 MLOAD SWAP1 DUP2 ADD PUSH1 0x40 MSTORE DUP1 SWAP3 SWAP2 SWAP1 DUP2 DUP2 MSTORE PUSH1 0x20 ADD DUP3 DUP1 SLOAD PUSH2 0x599 SWAP1 PUSH2 0x1910 JUMP JUMPDEST DUP1 ISZERO PUSH2 0x5E4 JUMPI DUP1 PUSH1 0x1F LT PUSH2 0x5BB JUMPI PUSH2 0x100 DUP1 DUP4 SLOAD DIV MUL DUP4 MSTORE SWAP2 PUSH1 0x20 ADD SWAP2 PUSH2 0x5E4 JUMP JUMPDEST DUP3 ADD SWAP2 SWAP1 PUSH0 MSTORE PUSH1 0x20 PUSH0 KECCAK256 SWAP1 JUMPDEST DUP2 SLOAD DUP2 MSTORE SWAP1 PUSH1 0x1 ADD SWAP1 PUSH1 0x20 ADD DUP1 DUP4 GT PUSH2 0x5C7 JUMPI DUP3 SWAP1 SUB PUSH1 0x1F AND DUP3 ADD SWAP2 JUMPDEST POP POP POP POP POP PUSH2 0xFC2 JUMP JUMPDEST SWAP1 POP PUSH1 0x40 MLOAD DUP1 PUSH1 0xC0 ADD PUSH1 0x40 MSTORE DUP1 DUP4 DUP2 MSTORE PUSH1 0x20 ADD DUP3 PUSH1 0x40 ADD MLOAD DUP2 MSTORE PUSH1 0x20 ADD DUP3 PUSH1 0x60 ADD MLOAD DUP2 MSTORE PUSH1 0x20 ADD DUP3 PUSH1 0x20 ADD MLOAD DUP2 MSTORE PUSH1 0x20 ADD PUSH1 0x3 DUP5 DUP2 SLOAD DUP2 LT PUSH2 0x633 JUMPI PUSH2 0x632 PUSH2 0x1940 JUMP JUMPDEST JUMPDEST SWAP1 PUSH0 MSTORE PUSH1 0x20 PUSH0 KECCAK256 SWAP1 PUSH1 0x4 MUL ADD PUSH1 0x2 ADD SLOAD DUP2 MSTORE PUSH1 0x20 ADD PUSH1 0x1 DUP1 DUP2 GT ISZERO PUSH2 0x65B JUMPI PUSH2 0x65A PUSH2 0x19E1 JUMP JUMPDEST JUMPDEST PUSH1 0x3 DUP6 DUP2 SLOAD DUP2 LT PUSH2 0x66F JUMPI PUSH2 0x66E PUSH2 0x1940 JUMP JUMPDEST JUMPDEST SWAP1 PUSH0 MSTORE PUSH1 0x20 PUSH0 KECCAK256 SWAP1 PUSH1 0x4 MUL ADD PUSH1 0x3 ADD PUSH0 SWAP1 SLOAD SWAP1 PUSH2 0x100 EXP SWAP1 DIV PUSH1 0xFF AND PUSH1 0x1 DUP2 GT ISZERO PUSH2 0x69D JUMPI PUSH2 0x69C PUSH2 0x19E1 JUMP JUMPDEST JUMPDEST EQ ISZERO ISZERO DUP2 MSTORE POP DUP5 DUP5 DUP2 MLOAD DUP2 LT PUSH2 0x6B6 JUMPI PUSH2 0x6B5 PUSH2 0x1940 JUMP JUMPDEST JUMPDEST PUSH1 0x20 MUL PUSH1 0x20 ADD ADD DUP2 SWAP1 MSTORE POP DUP3 DUP1 PUSH2 0x6CC SWAP1 PUSH2 0x199A JUMP JUMPDEST SWAP4 POP POP POP JUMPDEST DUP1 DUP1 PUSH1 0x1 ADD SWAP2 POP POP PUSH2 0x4BA JUMP JUMPDEST POP DUP2 SWAP4 POP POP POP POP SWAP2 SWAP1 POP JUMP JUMPDEST PUSH0 PUSH1 0x2 PUSH0 CALLER PUSH20 0xFFFFFFFFFFFFFFFFFFFFFFFFFFFFFFFFFFFFFFFF AND PUSH20 0xFFFFFFFFFFFFFFFFFFFFFFFFFFFFFFFFFFFFFFFF AND DUP2 MSTORE PUSH1 0x20 ADD SWAP1 DUP2 MSTORE PUSH1 0x20 ADD PUSH0 KECCAK256 SLOAD SWAP1 POP SWAP1 JUMP JUMPDEST PUSH0 PUSH2 0x738 DUP3 PUSH2 0xFC2 JUMP JUMPDEST PUSH1 0x20 ADD MLOAD SWAP1 POP DUP1 PUSH1 0x2 PUSH0 CALLER PUSH20 0xFFFFFFFFFFFFFFFFFFFFFFFFFFFFFFFFFFFFFFFF AND PUSH20 0xFFFFFFFFFFFFFFFFFFFFFFFFFFFFFFFFFFFFFFFF AND DUP2 MSTORE PUSH1 0x20 ADD SWAP1 DUP2 MSTORE PUSH1 0x20 ADD PUSH0 KECCAK256 SLOAD LT ISZERO PUSH2 0x7BE JUMPI PUSH1 0x40 MLOAD PUSH32 0x8C379A000000000000000000000000000000000000000000000000000000000 DUP2 MSTORE PUSH1 0x4 ADD PUSH2 0x7B5 SWAP1 PUSH2 0x1A68 JUMP JUMPDEST PUSH1 0x40 MLOAD DUP1 SWAP2 SUB SWAP1 REVERT JUMPDEST DUP1 PUSH1 0x2 PUSH0 CALLER PUSH20 0xFFFFFFFFFFFFFFFFFFFFFFFFFFFFFFFFFFFFFFFF AND PUSH20 0xFFFFFFFFFFFFFFFFFFFFFFFFFFFFFFFFFFFFFFFF AND DUP2 MSTORE PUSH1 0x20 ADD SWAP1 DUP2 MSTORE PUSH1 0x20 ADD PUSH0 KECCAK256 PUSH0 DUP3 DUP3 SLOAD PUSH2 0x80A SWAP2 SWAP1 PUSH2 0x1A86 JUMP JUMPDEST SWAP3 POP POP DUP2 SWAP1 SSTORE POP PUSH1 0x3 PUSH1 0x40 MLOAD DUP1 PUSH1 0x80 ADD PUSH1 0x40 MSTORE DUP1 CALLER PUSH20 0xFFFFFFFFFFFFFFFFFFFFFFFFFFFFFFFFFFFFFFFF AND DUP2 MSTORE PUSH1 0x20 ADD DUP5 DUP2 MSTORE PUSH1 0x20 ADD TIMESTAMP DUP2 MSTORE PUSH1 0x20 ADD PUSH0 PUSH1 0x1 DUP2 GT ISZERO PUSH2 0x859 JUMPI PUSH2 0x858 PUSH2 0x19E1 JUMP JUMPDEST JUMPDEST DUP2 MSTORE POP SWAP1 DUP1 PUSH1 0x1 DUP2 SLOAD ADD DUP1 DUP3 SSTORE DUP1 SWAP2 POP POP PUSH1 0x1 SWAP1 SUB SWAP1 PUSH0 MSTORE PUSH1 0x20 PUSH0 KECCAK256 SWAP1 PUSH1 0x4 MUL ADD PUSH0 SWAP1 SWAP2 SWAP1 SWAP2 SWAP1 SWAP2 POP PUSH0 DUP3 ADD MLOAD DUP2 PUSH0 ADD PUSH0 PUSH2 0x100 EXP DUP2 SLOAD DUP2 PUSH20 0xFFFFFFFFFFFFFFFFFFFFFFFFFFFFFFFFFFFFFFFF MUL NOT AND SWAP1 DUP4 PUSH20 0xFFFFFFFFFFFFFFFFFFFFFFFFFFFFFFFFFFFFFFFF AND MUL OR SWAP1 SSTORE POP PUSH1 0x20 DUP3 ADD MLOAD DUP2 PUSH1 0x1 ADD SWAP1 DUP2 PUSH2 0x8DB SWAP2 SWAP1 PUSH2 0x1C56 JUMP JUMPDEST POP PUSH1 0x40 DUP3 ADD MLOAD DUP2 PUSH1 0x2 ADD SSTORE PUSH1 0x60 DUP3 ADD MLOAD DUP2 PUSH1 0x3 ADD PUSH0 PUSH2 0x100 EXP DUP2 SLOAD DUP2 PUSH1 0xFF MUL NOT AND SWAP1 DUP4 PUSH1 0x1 DUP2 GT ISZERO PUSH2 0x910 JUMPI PUSH2 0x90F PUSH2 0x19E1 JUMP JUMPDEST JUMPDEST MUL OR SWAP1 SSTORE POP POP POP CALLER PUSH20 0xFFFFFFFFFFFFFFFFFFFFFFFFFFFFFFFFFFFFFFFF AND PUSH32 0x63D8E5C0BF4559E61EE479385882367114D00D044CDBF28449BF437737DB31AF DUP4 DUP4 TIMESTAMP PUSH1 0x40 MLOAD PUSH2 0x961 SWAP4 SWAP3 SWAP2 SWAP1 PUSH2 0x1D5D JUMP JUMPDEST PUSH1 0x40 MLOAD DUP1 SWAP2 SUB SWAP1 LOG2 POP POP JUMP JUMPDEST PUSH0 DUP1 SLOAD SWAP1 PUSH2 0x100 EXP SWAP1 DIV PUSH20 0xFFFFFFFFFFFFFFFFFFFFFFFFFFFFFFFFFFFFFFFF AND PUSH20 0xFFFFFFFFFFFFFFFFFFFFFFFFFFFFFFFFFFFFFFFF AND CALLER PUSH20 0xFFFFFFFFFFFFFFFFFFFFFFFFFFFFFFFFFFFFFFFF AND EQ PUSH2 0x9FA JUMPI PUSH1 0x40 MLOAD PUSH32 0x8C379A000000000000000000000000000000000000000000000000000000000 DUP2 MSTORE PUSH1 0x4 ADD PUSH2 0x9F1 SWAP1 PUSH2 0x1E09 JUMP JUMPDEST PUSH1 0x40 MLOAD DUP1 SWAP2 SUB SWAP1 REVERT JUMPDEST PUSH0 PUSH1 0x14 SWAP1 SLOAD SWAP1 PUSH2 0x100 EXP SWAP1 DIV PUSH1 0xFF AND ISZERO PUSH2 0xA52 JUMPI CALLER PUSH20 0xFFFFFFFFFFFFFFFFFFFFFFFFFFFFFFFFFFFFFFFF AND PUSH32 0xC76EAF55FE0C62418848780C99C0C94A15F79B80BCA75629B0B8BD07678F55B6 PUSH1 0x40 MLOAD PUSH1 0x40 MLOAD DUP1 SWAP2 SUB SWAP1 LOG2 JUMPDEST PUSH0 PUSH1 0x14 SWAP1 SLOAD SWAP1 PUSH2 0x100 EXP SWAP1 DIV PUSH1 0xFF AND ISZERO PUSH2 0xAA1 JUMPI PUSH1 0x40 MLOAD PUSH32 0x8C379A000000000000000000000000000000000000000000000000000000000 DUP2 MSTORE PUSH1 0x4 ADD PUSH2 0xA98 SWAP1 PUSH2 0x1E71 JUMP JUMPDEST PUSH1 0x40 MLOAD DUP1 SWAP2 SUB SWAP1 REVERT JUMPDEST PUSH1 0x1 PUSH0 PUSH1 0x14 PUSH2 0x100 EXP DUP2 SLOAD DUP2 PUSH1 0xFF MUL NOT AND SWAP1 DUP4 ISZERO ISZERO MUL OR SWAP1 SSTORE POP PUSH0 PUSH1 0x2 PUSH0 CALLER PUSH20 0xFFFFFFFFFFFFFFFFFFFFFFFFFFFFFFFFFFFFFFFF AND PUSH20 0xFFFFFFFFFFFFFFFFFFFFFFFFFFFFFFFFFFFFFFFF AND DUP2 MSTORE PUSH1 0x20 ADD SWAP1 DUP2 MSTORE PUSH1 0x20 ADD PUSH0 KECCAK256 SLOAD SWAP1 POP PUSH0 DUP2 GT PUSH2 0xB3E JUMPI PUSH1 0x40 MLOAD PUSH32 0x8C379A000000000000000000000000000000000000000000000000000000000 DUP2 MSTORE PUSH1 0x4 ADD PUSH2 0xB35 SWAP1 PUSH2 0x1ED9 JUMP JUMPDEST PUSH1 0x40 MLOAD DUP1 SWAP2 SUB SWAP1 REVERT JUMPDEST PUSH0 PUSH1 0x2 PUSH0 CALLER PUSH20 0xFFFFFFFFFFFFFFFFFFFFFFFFFFFFFFFFFFFFFFFF AND PUSH20 0xFFFFFFFFFFFFFFFFFFFFFFFFFFFFFFFFFFFFFFFF AND DUP2 MSTORE PUSH1 0x20 ADD SWAP1 DUP2 MSTORE PUSH1 0x20 ADD PUSH0 KECCAK256 DUP2 SWAP1 SSTORE POP PUSH0 CALLER PUSH20 0xFFFFFFFFFFFFFFFFFFFFFFFFFFFFFFFFFFFFFFFF AND DUP3 PUSH1 0x40 MLOAD PUSH2 0xBA5 SWAP1 PUSH2 0x1F24 JUMP JUMPDEST PUSH0 PUSH1 0x40 MLOAD DUP1 DUP4 SUB DUP2 DUP6 DUP8 GAS CALL SWAP3 POP POP POP RETURNDATASIZE DUP1 PUSH0 DUP2 EQ PUSH2 0xBDF JUMPI PUSH1 0x40 MLOAD SWAP2 POP PUSH1 0x1F NOT PUSH1 0x3F RETURNDATASIZE ADD AND DUP3 ADD PUSH1 0x40 MSTORE RETURNDATASIZE DUP3 MSTORE RETURNDATASIZE PUSH0 PUSH1 0x20 DUP5 ADD RETURNDATACOPY PUSH2 0xBE4 JUMP JUMPDEST PUSH1 0x60 SWAP2 POP JUMPDEST POP POP SWAP1 POP DUP1 PUSH2 0xC28 JUMPI PUSH1 0x40 MLOAD PUSH32 0x8C379A000000000000000000000000000000000000000000000000000000000 DUP2 MSTORE PUSH1 0x4 ADD PUSH2 0xC1F SWAP1 PUSH2 0x1F82 JUMP JUMPDEST PUSH1 0x40 MLOAD DUP1 SWAP2 SUB SWAP1 REVERT JUMPDEST CALLER PUSH20 0xFFFFFFFFFFFFFFFFFFFFFFFFFFFFFFFFFFFFFFFF AND PUSH32 0x7FCF532C15F0A6DB0BD6D0E038BEA71D30D808C7D98CB3BF7268A95BF5081B65 DUP4 PUSH1 0x40 MLOAD PUSH2 0xC6E SWAP2 SWAP1 PUSH2 0x16DA JUMP JUMPDEST PUSH1 0x40 MLOAD DUP1 SWAP2 SUB SWAP1 LOG2 POP POP PUSH0 DUP1 PUSH1 0x14 PUSH2 0x100 EXP DUP2 SLOAD DUP2 PUSH1 0xFF MUL NOT AND SWAP1 DUP4 ISZERO ISZERO MUL OR SWAP1 SSTORE POP JUMP JUMPDEST PUSH0 DUP1 SLOAD SWAP1 PUSH2 0x100 EXP SWAP1 DIV PUSH20 0xFFFFFFFFFFFFFFFFFFFFFFFFFFFFFFFFFFFFFFFF AND DUP2 JUMP JUMPDEST PUSH0 CALLVALUE GT PUSH2 0xCF8 JUMPI PUSH1 0x40 MLOAD PUSH32 0x8C379A000000000000000000000000000000000000000000000000000000000 DUP2 MSTORE PUSH1 0x4 ADD PUSH2 0xCEF SWAP1 PUSH2 0x1FEA JUMP JUMPDEST PUSH1 0x40 MLOAD DUP1 SWAP2 SUB SWAP1 REVERT JUMPDEST CALLVALUE PUSH1 0x2 PUSH0 CALLER PUSH20 0xFFFFFFFFFFFFFFFFFFFFFFFFFFFFFFFFFFFFFFFF AND PUSH20 0xFFFFFFFFFFFFFFFFFFFFFFFFFFFFFFFFFFFFFFFF AND DUP2 MSTORE PUSH1 0x20 ADD SWAP1 DUP2 MSTORE PUSH1 0x20 ADD PUSH0 KECCAK256 PUSH0 DUP3 DUP3 SLOAD PUSH2 0xD44 SWAP2 SWAP1 PUSH2 0x2008 JUMP JUMPDEST SWAP3 POP POP DUP2 SWAP1 SSTORE POP CALLER PUSH20 0xFFFFFFFFFFFFFFFFFFFFFFFFFFFFFFFFFFFFFFFF AND PUSH32 0x8FE10AE416F22F5E5220B0018A6C1D4FF534D6AA3A471F2A20CB7747FE63E5B9 CALLVALUE PUSH1 0x40 MLOAD PUSH2 0xD91 SWAP2 SWAP1 PUSH2 0x16DA JUMP JUMPDEST PUSH1 0x40 MLOAD DUP1 SWAP2 SUB SWAP1 LOG2 JUMP JUMPDEST PUSH1 0x3 DUP1 SLOAD SWAP1 POP DUP2 LT PUSH2 0xDE2 JUMPI PUSH1 0x40 MLOAD PUSH32 0x8C379A000000000000000000000000000000000000000000000000000000000 DUP2 MSTORE PUSH1 0x4 ADD PUSH2 0xDD9 SWAP1 PUSH2 0x2085 JUMP JUMPDEST PUSH1 0x40 MLOAD DUP1 SWAP2 SUB SWAP1 REVERT JUMPDEST CALLER PUSH20 0xFFFFFFFFFFFFFFFFFFFFFFFFFFFFFFFFFFFFFFFF AND PUSH1 0x3 DUP3 DUP2 SLOAD DUP2 LT PUSH2 0xE0D JUMPI PUSH2 0xE0C PUSH2 0x1940 JUMP JUMPDEST JUMPDEST SWAP1 PUSH0 MSTORE PUSH1 0x20 PUSH0 KECCAK256 SWAP1 PUSH1 0x4 MUL ADD PUSH0 ADD PUSH0 SWAP1 SLOAD SWAP1 PUSH2 0x100 EXP SWAP1 DIV PUSH20 0xFFFFFFFFFFFFFFFFFFFFFFFFFFFFFFFFFFFFFFFF AND PUSH20 0xFFFFFFFFFFFFFFFFFFFFFFFFFFFFFFFFFFFFFFFF AND EQ PUSH2 0xE91 JUMPI PUSH1 0x40 MLOAD PUSH32 0x8C379A000000000000000000000000000000000000000000000000000000000 DUP2 MSTORE PUSH1 0x4 ADD PUSH2 0xE88 SWAP1 PUSH2 0x20ED JUMP JUMPDEST PUSH1 0x40 MLOAD DUP1 SWAP2 SUB SWAP1 REVERT JUMPDEST PUSH0 PUSH1 0x1 DUP2 GT ISZERO PUSH2 0xEA4 JUMPI PUSH2 0xEA3 PUSH2 0x19E1 JUMP JUMPDEST JUMPDEST PUSH1 0x3 DUP3 DUP2 SLOAD DUP2 LT PUSH2 0xEB8 JUMPI PUSH2 0xEB7 PUSH2 0x1940 JUMP JUMPDEST JUMPDEST SWAP1 PUSH0 MSTORE PUSH1 0x20 PUSH0 KECCAK256 SWAP1 PUSH1 0x4 MUL ADD PUSH1 0x3 ADD PUSH0 SWAP1 SLOAD SWAP1 PUSH2 0x100 EXP SWAP1 DIV PUSH1 0xFF AND PUSH1 0x1 DUP2 GT ISZERO PUSH2 0xEE6 JUMPI PUSH2 0xEE5 PUSH2 0x19E1 JUMP JUMPDEST JUMPDEST EQ PUSH2 0xF26 JUMPI PUSH1 0x40 MLOAD PUSH32 0x8C379A000000000000000000000000000000000000000000000000000000000 DUP2 MSTORE PUSH1 0x4 ADD PUSH2 0xF1D SWAP1 PUSH2 0x2155 JUMP JUMPDEST PUSH1 0x40 MLOAD DUP1 SWAP2 SUB SWAP1 REVERT JUMPDEST PUSH1 0x1 PUSH1 0x3 DUP3 DUP2 SLOAD DUP2 LT PUSH2 0xF3C JUMPI PUSH2 0xF3B PUSH2 0x1940 JUMP JUMPDEST JUMPDEST SWAP1 PUSH0 MSTORE PUSH1 0x20 PUSH0 KECCAK256 SWAP1 PUSH1 0x4 MUL ADD PUSH1 0x3 ADD PUSH0 PUSH2 0x100 EXP DUP2 SLOAD DUP2 PUSH1 0xFF MUL NOT AND SWAP1 DUP4 PUSH1 0x1 DUP2 GT ISZERO PUSH2 0xF6C JUMPI PUSH2 0xF6B PUSH2 0x19E1 JUMP JUMPDEST JUMPDEST MUL OR SWAP1 SSTORE POP CALLER PUSH20 0xFFFFFFFFFFFFFFFFFFFFFFFFFFFFFFFFFFFFFFFF AND PUSH32 0xA7C459BC1ADA656EC9F3F0E9562DCD1353B12B0FD5CC82657C4CECDC0DBA6B82 DUP3 PUSH1 0x40 MLOAD PUSH2 0xFB7 SWAP2 SWAP1 PUSH2 0x16DA JUMP JUMPDEST PUSH1 0x40 MLOAD DUP1 SWAP2 SUB SWAP1 LOG2 POP JUMP JUMPDEST PUSH2 0xFCA PUSH2 0x12BB JUMP JUMPDEST PUSH0 JUMPDEST PUSH1 0x1 DUP1 SLOAD SWAP1 POP DUP2 LT ISZERO PUSH2 0x1246 JUMPI DUP3 PUSH1 0x40 MLOAD PUSH1 0x20 ADD PUSH2 0xFEA SWAP2 SWAP1 PUSH2 0x21AD JUMP JUMPDEST PUSH1 0x40 MLOAD PUSH1 0x20 DUP2 DUP4 SUB SUB DUP2 MSTORE SWAP1 PUSH1 0x40 MSTORE DUP1 MLOAD SWAP1 PUSH1 0x20 ADD KECCAK256 PUSH1 0x1 DUP3 DUP2 SLOAD DUP2 LT PUSH2 0x1014 JUMPI PUSH2 0x1013 PUSH2 0x1940 JUMP JUMPDEST JUMPDEST SWAP1 PUSH0 MSTORE PUSH1 0x20 PUSH0 KECCAK256 SWAP1 PUSH1 0x4 MUL ADD PUSH0 ADD PUSH1 0x40 MLOAD PUSH1 0x20 ADD PUSH2 0x1032 SWAP2 SWAP1 PUSH2 0x2243 JUMP JUMPDEST PUSH1 0x40 MLOAD PUSH1 0x20 DUP2 DUP4 SUB SUB DUP2 MSTORE SWAP1 PUSH1 0x40 MSTORE DUP1 MLOAD SWAP1 PUSH1 0x20 ADD KECCAK256 SUB PUSH2 0x1239 JUMPI PUSH1 0x1 DUP2 DUP2 SLOAD DUP2 LT PUSH2 0x1061 JUMPI PUSH2 0x1060 PUSH2 0x1940 JUMP JUMPDEST JUMPDEST SWAP1 PUSH0 MSTORE PUSH1 0x20 PUSH0 KECCAK256 SWAP1 PUSH1 0x4 MUL ADD PUSH1 0x40 MLOAD DUP1 PUSH1 0x80 ADD PUSH1 0x40 MSTORE SWAP1 DUP2 PUSH0 DUP3 ADD DUP1 SLOAD PUSH2 0x1087 SWAP1 PUSH2 0x1910 JUMP JUMPDEST DUP1 PUSH1 0x1F ADD PUSH1 0x20 DUP1 SWAP2 DIV MUL PUSH1 0x20 ADD PUSH1 0x40 MLOAD SWAP1 DUP2 ADD PUSH1 0x40 MSTORE DUP1 SWAP3 SWAP2 SWAP1 DUP2 DUP2 MSTORE PUSH1 0x20 ADD DUP3 DUP1 SLOAD PUSH2 0x10B3 SWAP1 PUSH2 0x1910 JUMP JUMPDEST DUP1 ISZERO PUSH2 0x10FE JUMPI DUP1 PUSH1 0x1F LT PUSH2 0x10D5 JUMPI PUSH2 0x100 DUP1 DUP4 SLOAD DIV MUL DUP4 MSTORE SWAP2 PUSH1 0x20 ADD SWAP2 PUSH2 0x10FE JUMP JUMPDEST DUP3 ADD SWAP2 SWAP1 PUSH0 MSTORE PUSH1 0x20 PUSH0 KECCAK256 SWAP1 JUMPDEST DUP2 SLOAD DUP2 MSTORE SWAP1 PUSH1 0x1 ADD SWAP1 PUSH1 0x20 ADD DUP1 DUP4 GT PUSH2 0x10E1 JUMPI DUP3 SWAP1 SUB PUSH1 0x1F AND DUP3 ADD SWAP2 JUMPDEST POP POP POP POP POP DUP2 MSTORE PUSH1 0x20 ADD PUSH1 0x1 DUP3 ADD SLOAD DUP2 MSTORE PUSH1 0x20 ADD PUSH1 0x2 DUP3 ADD DUP1 SLOAD PUSH2 0x1121 SWAP1 PUSH2 0x1910 JUMP JUMPDEST DUP1 PUSH1 0x1F ADD PUSH1 0x20 DUP1 SWAP2 DIV MUL PUSH1 0x20 ADD PUSH1 0x40 MLOAD SWAP1 DUP2 ADD PUSH1 0x40 MSTORE DUP1 SWAP3 SWAP2 SWAP1 DUP2 DUP2 MSTORE PUSH1 0x20 ADD DUP3 DUP1 SLOAD PUSH2 0x114D SWAP1 PUSH2 0x1910 JUMP JUMPDEST DUP1 ISZERO PUSH2 0x1198 JUMPI DUP1 PUSH1 0x1F LT PUSH2 0x116F JUMPI PUSH2 0x100 DUP1 DUP4 SLOAD DIV MUL DUP4 MSTORE SWAP2 PUSH1 0x20 ADD SWAP2 PUSH2 0x1198 JUMP JUMPDEST DUP3 ADD SWAP2 SWAP1 PUSH0 MSTORE PUSH1 0x20 PUSH0 KECCAK256 SWAP1 JUMPDEST DUP2 SLOAD DUP2 MSTORE SWAP1 PUSH1 0x1 ADD SWAP1 PUSH1 0x20 ADD DUP1 DUP4 GT PUSH2 0x117B JUMPI DUP3 SWAP1 SUB PUSH1 0x1F AND DUP3 ADD SWAP2 JUMPDEST POP POP POP POP POP DUP2 MSTORE PUSH1 0x20 ADD PUSH1 0x3 DUP3 ADD DUP1 SLOAD PUSH2 0x11B1 SWAP1 PUSH2 0x1910 JUMP JUMPDEST DUP1 PUSH1 0x1F ADD PUSH1 0x20 DUP1 SWAP2 DIV MUL PUSH1 0x20 ADD PUSH1 0x40 MLOAD SWAP1 DUP2 ADD PUSH1 0x40 MSTORE DUP1 SWAP3 SWAP2 SWAP1 DUP2 DUP2 MSTORE PUSH1 0x20 ADD DUP3 DUP1 SLOAD PUSH2 0x11DD SWAP1 PUSH2 0x1910 JUMP JUMPDEST DUP1 ISZERO PUSH2 0x1228 JUMPI DUP1 PUSH1 0x1F LT PUSH2 0x11FF JUMPI PUSH2 0x100 DUP1 DUP4 SLOAD DIV MUL DUP4 MSTORE SWAP2 PUSH1 0x20 ADD SWAP2 PUSH2 0x1228 JUMP JUMPDEST DUP3 ADD SWAP2 SWAP1 PUSH0 MSTORE PUSH1 0x20 PUSH0 KECCAK256 SWAP1 JUMPDEST DUP2 SLOAD DUP2 MSTORE SWAP1 PUSH1 0x1 ADD SWAP1 PUSH1 0x20 ADD DUP1 DUP4 GT PUSH2 0x120B JUMPI DUP3 SWAP1 SUB PUSH1 0x1F AND DUP3 ADD SWAP2 JUMPDEST POP POP POP POP POP DUP2 MSTORE POP POP SWAP2 POP POP PUSH2 0x1282 JUMP JUMPDEST DUP1 DUP1 PUSH1 0x1 ADD SWAP2 POP POP PUSH2 0xFCC JUMP JUMPDEST POP PUSH1 0x40 MLOAD PUSH32 0x8C379A000000000000000000000000000000000000000000000000000000000 DUP2 MSTORE PUSH1 0x4 ADD PUSH2 0x1279 SWAP1 PUSH2 0x22A3 JUMP JUMPDEST PUSH1 0x40 MLOAD DUP1 SWAP2 SUB SWAP1 REVERT JUMPDEST SWAP2 SWAP1 POP JUMP JUMPDEST PUSH1 0x40 MLOAD DUP1 PUSH1 0xC0 ADD PUSH1 0x40 MSTORE DUP1 PUSH0 DUP2 MSTORE PUSH1 0x20 ADD PUSH1 0x60 DUP2 MSTORE PUSH1 0x20 ADD PUSH1 0x60 DUP2 MSTORE PUSH1 0x20 ADD PUSH0 DUP2 MSTORE PUSH1 0x20 ADD PUSH0 DUP2 MSTORE PUSH1 0x20 ADD PUSH0 ISZERO ISZERO DUP2 MSTORE POP SWAP1 JUMP JUMPDEST PUSH1 0x40 MLOAD DUP1 PUSH1 0x80 ADD PUSH1 0x40 MSTORE DUP1 PUSH1 0x60 DUP2 MSTORE PUSH1 0x20 ADD PUSH0 DUP2 MSTORE PUSH1 0x20 ADD PUSH1 0x60 DUP2 MSTORE PUSH1 0x20 ADD PUSH1 0x60 DUP2 MSTORE POP SWAP1 JUMP JUMPDEST PUSH0 DUP2 MLOAD SWAP1 POP SWAP2 SWAP1 POP JUMP JUMPDEST PUSH0 DUP3 DUP3 MSTORE PUSH1 0x20 DUP3 ADD SWAP1 POP SWAP3 SWAP2 POP POP JUMP JUMPDEST PUSH0 DUP2 SWAP1 POP PUSH1 0x20 DUP3 ADD SWAP1 POP SWAP2 SWAP1 POP JUMP JUMPDEST PUSH0 DUP2 MLOAD SWAP1 POP SWAP2 SWAP1 POP JUMP JUMPDEST PUSH0 DUP3 DUP3 MSTORE PUSH1 0x20 DUP3 ADD SWAP1 POP SWAP3 SWAP2 POP POP JUMP JUMPDEST DUP3 DUP2 DUP4 MCOPY PUSH0 DUP4 DUP4 ADD MSTORE POP POP POP JUMP JUMPDEST PUSH0 PUSH1 0x1F NOT PUSH1 0x1F DUP4 ADD AND SWAP1 POP SWAP2 SWAP1 POP JUMP JUMPDEST PUSH0 PUSH2 0x134D DUP3 PUSH2 0x130B JUMP JUMPDEST PUSH2 0x1357 DUP2 DUP6 PUSH2 0x1315 JUMP JUMPDEST SWAP4 POP PUSH2 0x1367 DUP2 DUP6 PUSH1 0x20 DUP7 ADD PUSH2 0x1325 JUMP JUMPDEST PUSH2 0x1370 DUP2 PUSH2 0x1333 JUMP JUMPDEST DUP5 ADD SWAP2 POP POP SWAP3 SWAP2 POP POP JUMP JUMPDEST PUSH0 DUP2 SWAP1 POP SWAP2 SWAP1 POP JUMP JUMPDEST PUSH2 0x138D DUP2 PUSH2 0x137B JUMP JUMPDEST DUP3 MSTORE POP POP JUMP JUMPDEST PUSH0 PUSH1 0x80 DUP4 ADD PUSH0 DUP4 ADD MLOAD DUP5 DUP3 SUB PUSH0 DUP7 ADD MSTORE PUSH2 0x13AD DUP3 DUP3 PUSH2 0x1343 JUMP JUMPDEST SWAP2 POP POP PUSH1 0x20 DUP4 ADD MLOAD PUSH2 0x13C2 PUSH1 0x20 DUP7 ADD DUP3 PUSH2 0x1384 JUMP JUMPDEST POP PUSH1 0x40 DUP4 ADD MLOAD DUP5 DUP3 SUB PUSH1 0x40 DUP7 ADD MSTORE PUSH2 0x13DA DUP3 DUP3 PUSH2 0x1343 JUMP JUMPDEST SWAP2 POP POP PUSH1 0x60 DUP4 ADD MLOAD DUP5 DUP3 SUB PUSH1 0x60 DUP7 ADD MSTORE PUSH2 0x13F4 DUP3 DUP3 PUSH2 0x1343 JUMP JUMPDEST SWAP2 POP POP DUP1 SWAP2 POP POP SWAP3 SWAP2 POP POP JUMP JUMPDEST PUSH0 PUSH2 0x140C DUP4 DUP4 PUSH2 0x1393 JUMP JUMPDEST SWAP1 POP SWAP3 SWAP2 POP POP JUMP JUMPDEST PUSH0 PUSH1 0x20 DUP3 ADD SWAP1 POP SWAP2 SWAP1 POP JUMP JUMPDEST PUSH0 PUSH2 0x142A DUP3 PUSH2 0x12E2 JUMP JUMPDEST PUSH2 0x1434 DUP2 DUP6 PUSH2 0x12EC JUMP JUMPDEST SWAP4 POP DUP4 PUSH1 0x20 DUP3 MUL DUP6 ADD PUSH2 0x1446 DUP6 PUSH2 0x12FC JUMP JUMPDEST DUP1 PUSH0 JUMPDEST DUP6 DUP2 LT ISZERO PUSH2 0x1481 JUMPI DUP5 DUP5 SUB DUP10 MSTORE DUP2 MLOAD PUSH2 0x1462 DUP6 DUP3 PUSH2 0x1401 JUMP JUMPDEST SWAP5 POP PUSH2 0x146D DUP4 PUSH2 0x1414 JUMP JUMPDEST SWAP3 POP PUSH1 0x20 DUP11 ADD SWAP10 POP POP PUSH1 0x1 DUP2 ADD SWAP1 POP PUSH2 0x1449 JUMP JUMPDEST POP DUP3 SWAP8 POP DUP8 SWAP6 POP POP POP POP POP POP SWAP3 SWAP2 POP POP JUMP JUMPDEST PUSH0 PUSH1 0x20 DUP3 ADD SWAP1 POP DUP2 DUP2 SUB PUSH0 DUP4 ADD MSTORE PUSH2 0x14AB DUP2 DUP5 PUSH2 0x1420 JUMP JUMPDEST SWAP1 POP SWAP3 SWAP2 POP POP JUMP JUMPDEST PUSH0 PUSH1 0x40 MLOAD SWAP1 POP SWAP1 JUMP JUMPDEST PUSH0 DUP1 REVERT JUMPDEST PUSH0 DUP1 REVERT JUMPDEST PUSH0 PUSH20 0xFFFFFFFFFFFFFFFFFFFFFFFFFFFFFFFFFFFFFFFF DUP3 AND SWAP1 POP SWAP2 SWAP1 POP JUMP JUMPDEST PUSH0 PUSH2 0x14ED DUP3 PUSH2 0x14C4 JUMP JUMPDEST SWAP1 POP SWAP2 SWAP1 POP JUMP JUMPDEST PUSH2 0x14FD DUP2 PUSH2 0x14E3 JUMP JUMPDEST DUP2 EQ PUSH2 0x1507 JUMPI PUSH0 DUP1 REVERT JUMPDEST POP JUMP JUMPDEST PUSH0 DUP2 CALLDATALOAD SWAP1 POP PUSH2 0x1518 DUP2 PUSH2 0x14F4 JUMP JUMPDEST SWAP3 SWAP2 POP POP JUMP JUMPDEST PUSH0 PUSH1 0x20 DUP3 DUP5 SUB SLT ISZERO PUSH2 0x1533 JUMPI PUSH2 0x1532 PUSH2 0x14BC JUMP JUMPDEST JUMPDEST PUSH0 PUSH2 0x1540 DUP5 DUP3 DUP6 ADD PUSH2 0x150A JUMP JUMPDEST SWAP2 POP POP SWAP3 SWAP2 POP POP JUMP JUMPDEST PUSH0 DUP2 MLOAD SWAP1 POP SWAP2 SWAP1 POP JUMP JUMPDEST PUSH0 DUP3 DUP3 MSTORE PUSH1 0x20 DUP3 ADD SWAP1 POP SWAP3 SWAP2 POP POP JUMP JUMPDEST PUSH0 DUP2 SWAP1 POP PUSH1 0x20 DUP3 ADD SWAP1 POP SWAP2 SWAP1 POP JUMP JUMPDEST PUSH0 DUP2 ISZERO ISZERO SWAP1 POP SWAP2 SWAP1 POP JUMP JUMPDEST PUSH2 0x1586 DUP2 PUSH2 0x1572 JUMP JUMPDEST DUP3 MSTORE POP POP JUMP JUMPDEST PUSH0 PUSH1 0xC0 DUP4 ADD PUSH0 DUP4 ADD MLOAD PUSH2 0x15A1 PUSH0 DUP7 ADD DUP3 PUSH2 0x1384 JUMP JUMPDEST POP PUSH1 0x20 DUP4 ADD MLOAD DUP5 DUP3 SUB PUSH1 0x20 DUP7 ADD MSTORE PUSH2 0x15B9 DUP3 DUP3 PUSH2 0x1343 JUMP JUMPDEST SWAP2 POP POP PUSH1 0x40 DUP4 ADD MLOAD DUP5 DUP3 SUB PUSH1 0x40 DUP7 ADD MSTORE PUSH2 0x15D3 DUP3 DUP3 PUSH2 0x1343 JUMP JUMPDEST SWAP2 POP POP PUSH1 0x60 DUP4 ADD MLOAD PUSH2 0x15E8 PUSH1 0x60 DUP7 ADD DUP3 PUSH2 0x1384 JUMP JUMPDEST POP PUSH1 0x80 DUP4 ADD MLOAD PUSH2 0x15FB PUSH1 0x80 DUP7 ADD DUP3 PUSH2 0x1384 JUMP JUMPDEST POP PUSH1 0xA0 DUP4 ADD MLOAD PUSH2 0x160E PUSH1 0xA0 DUP7 ADD DUP3 PUSH2 0x157D JUMP JUMPDEST POP DUP1 SWAP2 POP POP SWAP3 SWAP2 POP POP JUMP JUMPDEST PUSH0 PUSH2 0x1624 DUP4 DUP4 PUSH2 0x158C JUMP JUMPDEST SWAP1 POP SWAP3 SWAP2 POP POP JUMP JUMPDEST PUSH0 PUSH1 0x20 DUP3 ADD SWAP1 POP SWAP2 SWAP1 POP JUMP JUMPDEST PUSH0 PUSH2 0x1642 DUP3 PUSH2 0x1549 JUMP JUMPDEST PUSH2 0x164C DUP2 DUP6 PUSH2 0x1553 JUMP JUMPDEST SWAP4 POP DUP4 PUSH1 0x20 DUP3 MUL DUP6 ADD PUSH2 0x165E DUP6 PUSH2 0x1563 JUMP JUMPDEST DUP1 PUSH0 JUMPDEST DUP6 DUP2 LT ISZERO PUSH2 0x1699 JUMPI DUP5 DUP5 SUB DUP10 MSTORE DUP2 MLOAD PUSH2 0x167A DUP6 DUP3 PUSH2 0x1619 JUMP JUMPDEST SWAP5 POP PUSH2 0x1685 DUP4 PUSH2 0x162C JUMP JUMPDEST SWAP3 POP PUSH1 0x20 DUP11 ADD SWAP10 POP POP PUSH1 0x1 DUP2 ADD SWAP1 POP PUSH2 0x1661 JUMP JUMPDEST POP DUP3 SWAP8 POP DUP8 SWAP6 POP POP POP POP POP POP SWAP3 SWAP2 POP POP JUMP JUMPDEST PUSH0 PUSH1 0x20 DUP3 ADD SWAP1 POP DUP2 DUP2 SUB PUSH0 DUP4 ADD MSTORE PUSH2 0x16C3 DUP2 DUP5 PUSH2 0x1638 JUMP JUMPDEST SWAP1 POP SWAP3 SWAP2 POP POP JUMP JUMPDEST PUSH2 0x16D4 DUP2 PUSH2 0x137B JUMP JUMPDEST DUP3 MSTORE POP POP JUMP JUMPDEST PUSH0 PUSH1 0x20 DUP3 ADD SWAP1 POP PUSH2 0x16ED PUSH0 DUP4 ADD DUP5 PUSH2 0x16CB JUMP JUMPDEST SWAP3 SWAP2 POP POP JUMP JUMPDEST PUSH0 DUP1 REVERT JUMPDEST PUSH0 DUP1 REVERT JUMPDEST PUSH32 0x4E487B7100000000000000000000000000000000000000000000000000000000 PUSH0 MSTORE PUSH1 0x41 PUSH1 0x4 MSTORE PUSH1 0x24 PUSH0 REVERT JUMPDEST PUSH2 0x1731 DUP3 PUSH2 0x1333 JUMP JUMPDEST DUP2 ADD DUP2 DUP2 LT PUSH8 0xFFFFFFFFFFFFFFFF DUP3 GT OR ISZERO PUSH2 0x1750 JUMPI PUSH2 0x174F PUSH2 0x16FB JUMP JUMPDEST JUMPDEST DUP1 PUSH1 0x40 MSTORE POP POP POP JUMP JUMPDEST PUSH0 PUSH2 0x1762 PUSH2 0x14B3 JUMP JUMPDEST SWAP1 POP PUSH2 0x176E DUP3 DUP3 PUSH2 0x1728 JUMP JUMPDEST SWAP2 SWAP1 POP JUMP JUMPDEST PUSH0 PUSH8 0xFFFFFFFFFFFFFFFF DUP3 GT ISZERO PUSH2 0x178D JUMPI PUSH2 0x178C PUSH2 0x16FB JUMP JUMPDEST JUMPDEST PUSH2 0x1796 DUP3 PUSH2 0x1333 JUMP JUMPDEST SWAP1 POP PUSH1 0x20 DUP2 ADD SWAP1 POP SWAP2 SWAP1 POP JUMP JUMPDEST DUP3 DUP2 DUP4 CALLDATACOPY PUSH0 DUP4 DUP4 ADD MSTORE POP POP POP JUMP JUMPDEST PUSH0 PUSH2 0x17C3 PUSH2 0x17BE DUP5 PUSH2 0x1773 JUMP JUMPDEST PUSH2 0x1759 JUMP JUMPDEST SWAP1 POP DUP3 DUP2 MSTORE PUSH1 0x20 DUP2 ADD DUP5 DUP5 DUP5 ADD GT ISZERO PUSH2 0x17DF JUMPI PUSH2 0x17DE PUSH2 0x16F7 JUMP JUMPDEST JUMPDEST PUSH2 0x17EA DUP5 DUP3 DUP6 PUSH2 0x17A3 JUMP JUMPDEST POP SWAP4 SWAP3 POP POP POP JUMP JUMPDEST PUSH0 DUP3 PUSH1 0x1F DUP4 ADD SLT PUSH2 0x1806 JUMPI PUSH2 0x1805 PUSH2 0x16F3 JUMP JUMPDEST JUMPDEST DUP2 CALLDATALOAD PUSH2 0x1816 DUP5 DUP3 PUSH1 0x20 DUP7 ADD PUSH2 0x17B1 JUMP JUMPDEST SWAP2 POP POP SWAP3 SWAP2 POP POP JUMP JUMPDEST PUSH0 PUSH1 0x20 DUP3 DUP5 SUB SLT ISZERO PUSH2 0x1834 JUMPI PUSH2 0x1833 PUSH2 0x14BC JUMP JUMPDEST JUMPDEST PUSH0 DUP3 ADD CALLDATALOAD PUSH8 0xFFFFFFFFFFFFFFFF DUP2 GT ISZERO PUSH2 0x1851 JUMPI PUSH2 0x1850 PUSH2 0x14C0 JUMP JUMPDEST JUMPDEST PUSH2 0x185D DUP5 DUP3 DUP6 ADD PUSH2 0x17F2 JUMP JUMPDEST SWAP2 POP POP SWAP3 SWAP2 POP POP JUMP JUMPDEST PUSH2 0x186F DUP2 PUSH2 0x14E3 JUMP JUMPDEST DUP3 MSTORE POP POP JUMP JUMPDEST PUSH0 PUSH1 0x20 DUP3 ADD SWAP1 POP PUSH2 0x1888 PUSH0 DUP4 ADD DUP5 PUSH2 0x1866 JUMP JUMPDEST SWAP3 SWAP2 POP POP JUMP JUMPDEST PUSH2 0x1897 DUP2 PUSH2 0x137B JUMP JUMPDEST DUP2 EQ PUSH2 0x18A1 JUMPI PUSH0 DUP1 REVERT JUMPDEST POP JUMP JUMPDEST PUSH0 DUP2 CALLDATALOAD SWAP1 POP PUSH2 0x18B2 DUP2 PUSH2 0x188E JUMP JUMPDEST SWAP3 SWAP2 POP POP JUMP JUMPDEST PUSH0 PUSH1 0x20 DUP3 DUP5 SUB SLT ISZERO PUSH2 0x18CD JUMPI PUSH2 0x18CC PUSH2 0x14BC JUMP JUMPDEST JUMPDEST PUSH0 PUSH2 0x18DA DUP5 DUP3 DUP6 ADD PUSH2 0x18A4 JUMP JUMPDEST SWAP2 POP POP SWAP3 SWAP2 POP POP JUMP JUMPDEST PUSH32 0x4E487B7100000000000000000000000000000000000000000000000000000000 PUSH0 MSTORE PUSH1 0x22 PUSH1 0x4 MSTORE PUSH1 0x24 PUSH0 REVERT JUMPDEST PUSH0 PUSH1 0x2 DUP3 DIV SWAP1 POP PUSH1 0x1 DUP3 AND DUP1 PUSH2 0x1927 JUMPI PUSH1 0x7F DUP3 AND SWAP2 POP JUMPDEST PUSH1 0x20 DUP3 LT DUP2 SUB PUSH2 0x193A JUMPI PUSH2 0x1939 PUSH2 0x18E3 JUMP JUMPDEST JUMPDEST POP SWAP2 SWAP1 POP JUMP JUMPDEST PUSH32 0x4E487B7100000000000000000000000000000000000000000000000000000000 PUSH0 MSTORE PUSH1 0x32 PUSH1 0x4 MSTORE PUSH1 0x24 PUSH0 REVERT JUMPDEST PUSH32 0x4E487B7100000000000000000000000000000000000000000000000000000000 PUSH0 MSTORE PUSH1 0x11 PUSH1 0x4 MSTORE PUSH1 0x24 PUSH0 REVERT JUMPDEST PUSH0 PUSH2 0x19A4 DUP3 PUSH2 0x137B JUMP JUMPDEST SWAP2 POP PUSH32 0xFFFFFFFFFFFFFFFFFFFFFFFFFFFFFFFFFFFFFFFFFFFFFFFFFFFFFFFFFFFFFFFF DUP3 SUB PUSH2 0x19D6 JUMPI PUSH2 0x19D5 PUSH2 0x196D JUMP JUMPDEST JUMPDEST PUSH1 0x1 DUP3 ADD SWAP1 POP SWAP2 SWAP1 POP JUMP JUMPDEST PUSH32 0x4E487B7100000000000000000000000000000000000000000000000000000000 PUSH0 MSTORE PUSH1 0x21 PUSH1 0x4 MSTORE PUSH1 0x24 PUSH0 REVERT JUMPDEST PUSH0 DUP3 DUP3 MSTORE PUSH1 0x20 DUP3 ADD SWAP1 POP SWAP3 SWAP2 POP POP JUMP JUMPDEST PUSH32 0x496E73756666696369656E742066756E64730000000000000000000000000000 PUSH0 DUP3 ADD MSTORE POP JUMP JUMPDEST PUSH0 PUSH2 0x1A52 PUSH1 0x12 DUP4 PUSH2 0x1A0E JUMP JUMPDEST SWAP2 POP PUSH2 0x1A5D DUP3 PUSH2 0x1A1E JUMP JUMPDEST PUSH1 0x20 DUP3 ADD SWAP1 POP SWAP2 SWAP1 POP JUMP JUMPDEST PUSH0 PUSH1 0x20 DUP3 ADD SWAP1 POP DUP2 DUP2 SUB PUSH0 DUP4 ADD MSTORE PUSH2 0x1A7F DUP2 PUSH2 0x1A46 JUMP JUMPDEST SWAP1 POP SWAP2 SWAP1 POP JUMP JUMPDEST PUSH0 PUSH2 0x1A90 DUP3 PUSH2 0x137B JUMP JUMPDEST SWAP2 POP PUSH2 0x1A9B DUP4 PUSH2 0x137B JUMP JUMPDEST SWAP3 POP DUP3 DUP3 SUB SWAP1 POP DUP2 DUP2 GT ISZERO PUSH2 0x1AB3 JUMPI PUSH2 0x1AB2 PUSH2 0x196D JUMP JUMPDEST JUMPDEST SWAP3 SWAP2 POP POP JUMP JUMPDEST PUSH0 DUP2 SWAP1 POP DUP2 PUSH0 MSTORE PUSH1 0x20 PUSH0 KECCAK256 SWAP1 POP SWAP2 SWAP1 POP JUMP JUMPDEST PUSH0 PUSH1 0x20 PUSH1 0x1F DUP4 ADD DIV SWAP1 POP SWAP2 SWAP1 POP JUMP JUMPDEST PUSH0 DUP3 DUP3 SHL SWAP1 POP SWAP3 SWAP2 POP POP JUMP JUMPDEST PUSH0 PUSH1 0x8 DUP4 MUL PUSH2 0x1B15 PUSH32 0xFFFFFFFFFFFFFFFFFFFFFFFFFFFFFFFFFFFFFFFFFFFFFFFFFFFFFFFFFFFFFFFF DUP3 PUSH2 0x1ADA JUMP JUMPDEST PUSH2 0x1B1F DUP7 DUP4 PUSH2 0x1ADA JUMP JUMPDEST SWAP6 POP DUP1 NOT DUP5 AND SWAP4 POP DUP1 DUP7 AND DUP5 OR SWAP3 POP POP POP SWAP4 SWAP3 POP POP POP JUMP JUMPDEST PUSH0 DUP2 SWAP1 POP SWAP2 SWAP1 POP JUMP JUMPDEST PUSH0 PUSH2 0x1B5A PUSH2 0x1B55 PUSH2 0x1B50 DUP5 PUSH2 0x137B JUMP JUMPDEST PUSH2 0x1B37 JUMP JUMPDEST PUSH2 0x137B JUMP JUMPDEST SWAP1 POP SWAP2 SWAP1 POP JUMP JUMPDEST PUSH0 DUP2 SWAP1 POP SWAP2 SWAP1 POP JUMP JUMPDEST PUSH2 0x1B73 DUP4 PUSH2 0x1B40 JUMP JUMPDEST PUSH2 0x1B87 PUSH2 0x1B7F DUP3 PUSH2 0x1B61 JUMP JUMPDEST DUP5 DUP5 SLOAD PUSH2 0x1AE6 JUMP JUMPDEST DUP3 SSTORE POP POP POP POP JUMP JUMPDEST PUSH0 SWAP1 JUMP JUMPDEST PUSH2 0x1B9B PUSH2 0x1B8F JUMP JUMPDEST PUSH2 0x1BA6 DUP2 DUP5 DUP5 PUSH2 0x1B6A JUMP JUMPDEST POP POP POP JUMP JUMPDEST JUMPDEST DUP2 DUP2 LT ISZERO PUSH2 0x1BC9 JUMPI PUSH2 0x1BBE PUSH0 DUP3 PUSH2 0x1B93 JUMP JUMPDEST PUSH1 0x1 DUP2 ADD SWAP1 POP PUSH2 0x1BAC JUMP JUMPDEST POP POP JUMP JUMPDEST PUSH1 0x1F DUP3 GT ISZERO PUSH2 0x1C0E JUMPI PUSH2 0x1BDF DUP2 PUSH2 0x1AB9 JUMP JUMPDEST PUSH2 0x1BE8 DUP5 PUSH2 0x1ACB JUMP JUMPDEST DUP2 ADD PUSH1 0x20 DUP6 LT ISZERO PUSH2 0x1BF7 JUMPI DUP2 SWAP1 POP JUMPDEST PUSH2 0x1C0B PUSH2 0x1C03 DUP6 PUSH2 0x1ACB JUMP JUMPDEST DUP4 ADD DUP3 PUSH2 0x1BAB JUMP JUMPDEST POP POP JUMPDEST POP POP POP JUMP JUMPDEST PUSH0 DUP3 DUP3 SHR SWAP1 POP SWAP3 SWAP2 POP POP JUMP JUMPDEST PUSH0 PUSH2 0x1C2E PUSH0 NOT DUP5 PUSH1 0x8 MUL PUSH2 0x1C13 JUMP JUMPDEST NOT DUP1 DUP4 AND SWAP2 POP POP SWAP3 SWAP2 POP POP JUMP JUMPDEST PUSH0 PUSH2 0x1C46 DUP4 DUP4 PUSH2 0x1C1F JUMP JUMPDEST SWAP2 POP DUP3 PUSH1 0x2 MUL DUP3 OR SWAP1 POP SWAP3 SWAP2 POP POP JUMP JUMPDEST PUSH2 0x1C5F DUP3 PUSH2 0x130B JUMP JUMPDEST PUSH8 0xFFFFFFFFFFFFFFFF DUP2 GT ISZERO PUSH2 0x1C78 JUMPI PUSH2 0x1C77 PUSH2 0x16FB JUMP JUMPDEST JUMPDEST PUSH2 0x1C82 DUP3 SLOAD PUSH2 0x1910 JUMP JUMPDEST PUSH2 0x1C8D DUP3 DUP3 DUP6 PUSH2 0x1BCD JUMP JUMPDEST PUSH0 PUSH1 0x20 SWAP1 POP PUSH1 0x1F DUP4 GT PUSH1 0x1 DUP2 EQ PUSH2 0x1CBE JUMPI PUSH0 DUP5 ISZERO PUSH2 0x1CAC JUMPI DUP3 DUP8 ADD MLOAD SWAP1 POP JUMPDEST PUSH2 0x1CB6 DUP6 DUP3 PUSH2 0x1C3B JUMP JUMPDEST DUP7 SSTORE POP PUSH2 0x1D1D JUMP JUMPDEST PUSH1 0x1F NOT DUP5 AND PUSH2 0x1CCC DUP7 PUSH2 0x1AB9 JUMP JUMPDEST PUSH0 JUMPDEST DUP3 DUP2 LT ISZERO PUSH2 0x1CF3 JUMPI DUP5 DUP10 ADD MLOAD DUP3 SSTORE PUSH1 0x1 DUP3 ADD SWAP2 POP PUSH1 0x20 DUP6 ADD SWAP5 POP PUSH1 0x20 DUP2 ADD SWAP1 POP PUSH2 0x1CCE JUMP JUMPDEST DUP7 DUP4 LT ISZERO PUSH2 0x1D10 JUMPI DUP5 DUP10 ADD MLOAD PUSH2 0x1D0C PUSH1 0x1F DUP10 AND DUP3 PUSH2 0x1C1F JUMP JUMPDEST DUP4 SSTORE POP JUMPDEST PUSH1 0x1 PUSH1 0x2 DUP9 MUL ADD DUP9 SSTORE POP POP POP JUMPDEST POP POP POP POP POP POP JUMP JUMPDEST PUSH0 PUSH2 0x1D2F DUP3 PUSH2 0x130B JUMP JUMPDEST PUSH2 0x1D39 DUP2 DUP6 PUSH2 0x1A0E JUMP JUMPDEST SWAP4 POP PUSH2 0x1D49 DUP2 DUP6 PUSH1 0x20 DUP7 ADD PUSH2 0x1325 JUMP JUMPDEST PUSH2 0x1D52 DUP2 PUSH2 0x1333 JUMP JUMPDEST DUP5 ADD SWAP2 POP POP SWAP3 SWAP2 POP POP JUMP JUMPDEST PUSH0 PUSH1 0x60 DUP3 ADD SWAP1 POP DUP2 DUP2 SUB PUSH0 DUP4 ADD MSTORE PUSH2 0x1D75 DUP2 DUP7 PUSH2 0x1D25 JUMP JUMPDEST SWAP1 POP PUSH2 0x1D84 PUSH1 0x20 DUP4 ADD DUP6 PUSH2 0x16CB JUMP JUMPDEST PUSH2 0x1D91 PUSH1 0x40 DUP4 ADD DUP5 PUSH2 0x16CB JUMP JUMPDEST SWAP5 SWAP4 POP POP POP POP JUMP JUMPDEST PUSH32 0x4F6E6C79206F776E65722063616E2063616C6C20746869732066756E6374696F PUSH0 DUP3 ADD MSTORE PUSH32 0x6E00000000000000000000000000000000000000000000000000000000000000 PUSH1 0x20 DUP3 ADD MSTORE POP JUMP JUMPDEST PUSH0 PUSH2 0x1DF3 PUSH1 0x21 DUP4 PUSH2 0x1A0E JUMP JUMPDEST SWAP2 POP PUSH2 0x1DFE DUP3 PUSH2 0x1D99 JUMP JUMPDEST PUSH1 0x40 DUP3 ADD SWAP1 POP SWAP2 SWAP1 POP JUMP JUMPDEST PUSH0 PUSH1 0x20 DUP3 ADD SWAP1 POP DUP2 DUP2 SUB PUSH0 DUP4 ADD MSTORE PUSH2 0x1E20 DUP2 PUSH2 0x1DE7 JUMP JUMPDEST SWAP1 POP SWAP2 SWAP1 POP JUMP JUMPDEST PUSH32 0x4E6F207265656E7472616E637900000000000000000000000000000000000000 PUSH0 DUP3 ADD MSTORE POP JUMP JUMPDEST PUSH0 PUSH2 0x1E5B PUSH1 0xD DUP4 PUSH2 0x1A0E JUMP JUMPDEST SWAP2 POP PUSH2 0x1E66 DUP3 PUSH2 0x1E27 JUMP JUMPDEST PUSH1 0x20 DUP3 ADD SWAP1 POP SWAP2 SWAP1 POP JUMP JUMPDEST PUSH0 PUSH1 0x20 DUP3 ADD SWAP1 POP DUP2 DUP2 SUB PUSH0 DUP4 ADD MSTORE PUSH2 0x1E88 DUP2 PUSH2 0x1E4F JUMP JUMPDEST SWAP1 POP SWAP2 SWAP1 POP JUMP JUMPDEST PUSH32 0x596F7520646F206E6F74206861766520616E792062616C616E63652E00000000 PUSH0 DUP3 ADD MSTORE POP JUMP JUMPDEST PUSH0 PUSH2 0x1EC3 PUSH1 0x1C DUP4 PUSH2 0x1A0E JUMP JUMPDEST SWAP2 POP PUSH2 0x1ECE DUP3 PUSH2 0x1E8F JUMP JUMPDEST PUSH1 0x20 DUP3 ADD SWAP1 POP SWAP2 SWAP1 POP JUMP JUMPDEST PUSH0 PUSH1 0x20 DUP3 ADD SWAP1 POP DUP2 DUP2 SUB PUSH0 DUP4 ADD MSTORE PUSH2 0x1EF0 DUP2 PUSH2 0x1EB7 JUMP JUMPDEST SWAP1 POP SWAP2 SWAP1 POP JUMP JUMPDEST PUSH0 DUP2 SWAP1 POP SWAP3 SWAP2 POP POP JUMP JUMPDEST POP JUMP JUMPDEST PUSH0 PUSH2 0x1F0F PUSH0 DUP4 PUSH2 0x1EF7 JUMP JUMPDEST SWAP2 POP PUSH2 0x1F1A DUP3 PUSH2 0x1F01 JUMP JUMPDEST PUSH0 DUP3 ADD SWAP1 POP SWAP2 SWAP1 POP JUMP JUMPDEST PUSH0 PUSH2 0x1F2E DUP3 PUSH2 0x1F04 JUMP JUMPDEST SWAP2 POP DUP2 SWAP1 POP SWAP2 SWAP1 POP JUMP JUMPDEST PUSH32 0x5472616E73666572206661696C65642E00000000000000000000000000000000 PUSH0 DUP3 ADD MSTORE POP JUMP JUMPDEST PUSH0 PUSH2 0x1F6C PUSH1 0x10 DUP4 PUSH2 0x1A0E JUMP JUMPDEST SWAP2 POP PUSH2 0x1F77 DUP3 PUSH2 0x1F38 JUMP JUMPDEST PUSH1 0x20 DUP3 ADD SWAP1 POP SWAP2 SWAP1 POP JUMP JUMPDEST PUSH0 PUSH1 0x20 DUP3 ADD SWAP1 POP DUP2 DUP2 SUB PUSH0 DUP4 ADD MSTORE PUSH2 0x1F99 DUP2 PUSH2 0x1F60 JUMP JUMPDEST SWAP1 POP SWAP2 SWAP1 POP JUMP JUMPDEST PUSH32 0x4D697373696E6720726571756972656420616D6F756E74000000000000000000 PUSH0 DUP3 ADD MSTORE POP JUMP JUMPDEST PUSH0 PUSH2 0x1FD4 PUSH1 0x17 DUP4 PUSH2 0x1A0E JUMP JUMPDEST SWAP2 POP PUSH2 0x1FDF DUP3 PUSH2 0x1FA0 JUMP JUMPDEST PUSH1 0x20 DUP3 ADD SWAP1 POP SWAP2 SWAP1 POP JUMP JUMPDEST PUSH0 PUSH1 0x20 DUP3 ADD SWAP1 POP DUP2 DUP2 SUB PUSH0 DUP4 ADD MSTORE PUSH2 0x2001 DUP2 PUSH2 0x1FC8 JUMP JUMPDEST SWAP1 POP SWAP2 SWAP1 POP JUMP JUMPDEST PUSH0 PUSH2 0x2012 DUP3 PUSH2 0x137B JUMP JUMPDEST SWAP2 POP PUSH2 0x201D DUP4 PUSH2 0x137B JUMP JUMPDEST SWAP3 POP DUP3 DUP3 ADD SWAP1 POP DUP1 DUP3 GT ISZERO PUSH2 0x2035 JUMPI PUSH2 0x2034 PUSH2 0x196D JUMP JUMPDEST JUMPDEST SWAP3 SWAP2 POP POP JUMP JUMPDEST PUSH32 0x496E76616C696420696E64657800000000000000000000000000000000000000 PUSH0 DUP3 ADD MSTORE POP JUMP JUMPDEST PUSH0 PUSH2 0x206F PUSH1 0xD DUP4 PUSH2 0x1A0E JUMP JUMPDEST SWAP2 POP PUSH2 0x207A DUP3 PUSH2 0x203B JUMP JUMPDEST PUSH1 0x20 DUP3 ADD SWAP1 POP SWAP2 SWAP1 POP JUMP JUMPDEST PUSH0 PUSH1 0x20 DUP3 ADD SWAP1 POP DUP2 DUP2 SUB PUSH0 DUP4 ADD MSTORE PUSH2 0x209C DUP2 PUSH2 0x2063 JUMP JUMPDEST SWAP1 POP SWAP2 SWAP1 POP JUMP JUMPDEST PUSH32 0x4E6F7420796F7572207075726368617365000000000000000000000000000000 PUSH0 DUP3 ADD MSTORE POP JUMP JUMPDEST PUSH0 PUSH2 0x20D7 PUSH1 0x11 DUP4 PUSH2 0x1A0E JUMP JUMPDEST SWAP2 POP PUSH2 0x20E2 DUP3 PUSH2 0x20A3 JUMP JUMPDEST PUSH1 0x20 DUP3 ADD SWAP1 POP SWAP2 SWAP1 POP JUMP JUMPDEST PUSH0 PUSH1 0x20 DUP3 ADD SWAP1 POP DUP2 DUP2 SUB PUSH0 DUP4 ADD MSTORE PUSH2 0x2104 DUP2 PUSH2 0x20CB JUMP JUMPDEST SWAP1 POP SWAP2 SWAP1 POP JUMP JUMPDEST PUSH32 0x507572636861736520616C726561647920636F6E73756D656400000000000000 PUSH0 DUP3 ADD MSTORE POP JUMP JUMPDEST PUSH0 PUSH2 0x213F PUSH1 0x19 DUP4 PUSH2 0x1A0E JUMP JUMPDEST SWAP2 POP PUSH2 0x214A DUP3 PUSH2 0x210B JUMP JUMPDEST PUSH1 0x20 DUP3 ADD SWAP1 POP SWAP2 SWAP1 POP JUMP JUMPDEST PUSH0 PUSH1 0x20 DUP3 ADD SWAP1 POP DUP2 DUP2 SUB PUSH0 DUP4 ADD MSTORE PUSH2 0x216C DUP2 PUSH2 0x2133 JUMP JUMPDEST SWAP1 POP SWAP2 SWAP1 POP JUMP JUMPDEST PUSH0 DUP2 SWAP1 POP SWAP3 SWAP2 POP POP JUMP JUMPDEST PUSH0 PUSH2 0x2187 DUP3 PUSH2 0x130B JUMP JUMPDEST PUSH2 0x2191 DUP2 DUP6 PUSH2 0x2173 JUMP JUMPDEST SWAP4 POP PUSH2 0x21A1 DUP2 DUP6 PUSH1 0x20 DUP7 ADD PUSH2 0x1325 JUMP JUMPDEST DUP1 DUP5 ADD SWAP2 POP POP SWAP3 SWAP2 POP POP JUMP JUMPDEST PUSH0 PUSH2 0x21B8 DUP3 DUP5 PUSH2 0x217D JUMP JUMPDEST SWAP2 POP DUP2 SWAP1 POP SWAP3 SWAP2 POP POP JUMP JUMPDEST PUSH0 DUP2 SLOAD PUSH2 0x21CF DUP2 PUSH2 0x1910 JUMP JUMPDEST PUSH2 0x21D9 DUP2 DUP7 PUSH2 0x2173 JUMP JUMPDEST SWAP5 POP PUSH1 0x1 DUP3 AND PUSH0 DUP2 EQ PUSH2 0x21F3 JUMPI PUSH1 0x1 DUP2 EQ PUSH2 0x2208 JUMPI PUSH2 0x223A JUMP JUMPDEST PUSH1 0xFF NOT DUP4 AND DUP7 MSTORE DUP2 ISZERO ISZERO DUP3 MUL DUP7 ADD SWAP4 POP PUSH2 0x223A JUMP JUMPDEST PUSH2 0x2211 DUP6 PUSH2 0x1AB9 JUMP JUMPDEST PUSH0 JUMPDEST DUP4 DUP2 LT ISZERO PUSH2 0x2232 JUMPI DUP2 SLOAD DUP2 DUP10 ADD MSTORE PUSH1 0x1 DUP3 ADD SWAP2 POP PUSH1 0x20 DUP2 ADD SWAP1 POP PUSH2 0x2213 JUMP JUMPDEST DUP4 DUP9 ADD SWAP6 POP POP POP JUMPDEST POP POP POP SWAP3 SWAP2 POP POP JUMP JUMPDEST PUSH0 PUSH2 0x224E DUP3 DUP5 PUSH2 0x21C3 JUMP JUMPDEST SWAP2 POP DUP2 SWAP1 POP SWAP3 SWAP2 POP POP JUMP JUMPDEST PUSH32 0x50726F64756374206E6F7420666F756E64000000000000000000000000000000 PUSH0 DUP3 ADD MSTORE POP JUMP JUMPDEST PUSH0 PUSH2 0x228D PUSH1 0x11 DUP4 PUSH2 0x1A0E JUMP JUMPDEST SWAP2 POP PUSH2 0x2298 DUP3 PUSH2 0x2259 JUMP JUMPDEST PUSH1 0x20 DUP3 ADD SWAP1 POP SWAP2 SWAP1 POP JUMP JUMPDEST PUSH0 PUSH1 0x20 DUP3 ADD SWAP1 POP DUP2 DUP2 SUB PUSH0 DUP4 ADD MSTORE PUSH2 0x22BA DUP2 PUSH2 0x2281 JUMP JUMPDEST SWAP1 POP SWAP2 SWAP1 POP JUMP INVALID LOG2 PUSH5 0x6970667358 0x22 SLT KECCAK256 PUSH17 0x12308CD0D654691D1AE787753343A887FE 0xC0 ADDRESS SWAP16 CALLCODE 0xBF PUSH1 0x9F 0xE3 SWAP7 0xC ISZERO BLOBHASH DUP7 PUSH12 0x64736F6C634300081A003351 PUSH14 0x6652465261626F50334D34386565 PUSH25 0x766E516B6977675544506150484A69466E44634B637545754C TIMESTAMP PUSH3 0x66312F "
				},
				"gasEstimates": {
					"creation": {
						"codeDepositCost": "1790200",
						"executionCost": "infinite",
						"totalCost": "infinite"
					},
					"external": {
						"addFunds()": "infinite",
						"consumePurchase(uint256)": "infinite",
						"getAllProducts()": "infinite",
						"getAllPurchases(address)": "infinite",
						"getBalance()": "2564",
						"owner()": "2527",
						"purchaseProduct(string)": "infinite",
						"withdraw()": "infinite"
					},
					"internal": {
						"_addProduct(string memory,uint256,string memory,string memory)": "infinite",
						"concatIPFSReference(string memory)": "infinite",
						"getProductByCode(string memory)": "infinite",
						"initializeProducts()": "infinite"
					}
				},
				"methodIdentifiers": {
					"addFunds()": "a26759cb",
					"consumePurchase(uint256)": "b04f3225",
					"getAllProducts()": "02ee3a52",
					"getAllPurchases(address)": "1107bc98",
					"getBalance()": "12065fe0",
					"owner()": "8da5cb5b",
					"purchaseProduct(string)": "19f92926",
					"withdraw()": "3ccfd60b"
				}
			},
			"storageLayout": {
				"storage": [
					{
						"astId": 49,
						"contract": "contracts/VendingMachine.sol:VendingMachine",
						"label": "owner",
						"offset": 0,
						"slot": "0",
						"type": "t_address"
					},
					{
						"astId": 51,
						"contract": "contracts/VendingMachine.sol:VendingMachine",
						"label": "locked",
						"offset": 20,
						"slot": "0",
						"type": "t_bool"
					},
					{
						"astId": 97,
						"contract": "contracts/VendingMachine.sol:VendingMachine",
						"label": "products",
						"offset": 0,
						"slot": "1",
						"type": "t_array(t_struct(Product)13_storage)dyn_storage"
					},
					{
						"astId": 101,
						"contract": "contracts/VendingMachine.sol:VendingMachine",
						"label": "balances",
						"offset": 0,
						"slot": "2",
						"type": "t_mapping(t_address,t_uint256)"
					},
					{
						"astId": 105,
						"contract": "contracts/VendingMachine.sol:VendingMachine",
						"label": "purchases",
						"offset": 0,
						"slot": "3",
						"type": "t_array(t_struct(Purchase)23_storage)dyn_storage"
					}
				],
				"types": {
					"t_address": {
						"encoding": "inplace",
						"label": "address",
						"numberOfBytes": "20"
					},
					"t_array(t_struct(Product)13_storage)dyn_storage": {
						"base": "t_struct(Product)13_storage",
						"encoding": "dynamic_array",
						"label": "struct ProductLibrary.Product[]",
						"numberOfBytes": "32"
					},
					"t_array(t_struct(Purchase)23_storage)dyn_storage": {
						"base": "t_struct(Purchase)23_storage",
						"encoding": "dynamic_array",
						"label": "struct ProductLibrary.Purchase[]",
						"numberOfBytes": "32"
					},
					"t_bool": {
						"encoding": "inplace",
						"label": "bool",
						"numberOfBytes": "1"
					},
					"t_enum(PurchaseStatus)4": {
						"encoding": "inplace",
						"label": "enum ProductLibrary.PurchaseStatus",
						"numberOfBytes": "1"
					},
					"t_mapping(t_address,t_uint256)": {
						"encoding": "mapping",
						"key": "t_address",
						"label": "mapping(address => uint256)",
						"numberOfBytes": "32",
						"value": "t_uint256"
					},
					"t_string_storage": {
						"encoding": "bytes",
						"label": "string",
						"numberOfBytes": "32"
					},
					"t_struct(Product)13_storage": {
						"encoding": "inplace",
						"label": "struct ProductLibrary.Product",
						"members": [
							{
								"astId": 6,
								"contract": "contracts/VendingMachine.sol:VendingMachine",
								"label": "code",
								"offset": 0,
								"slot": "0",
								"type": "t_string_storage"
							},
							{
								"astId": 8,
								"contract": "contracts/VendingMachine.sol:VendingMachine",
								"label": "price",
								"offset": 0,
								"slot": "1",
								"type": "t_uint256"
							},
							{
								"astId": 10,
								"contract": "contracts/VendingMachine.sol:VendingMachine",
								"label": "name",
								"offset": 0,
								"slot": "2",
								"type": "t_string_storage"
							},
							{
								"astId": 12,
								"contract": "contracts/VendingMachine.sol:VendingMachine",
								"label": "imageCID",
								"offset": 0,
								"slot": "3",
								"type": "t_string_storage"
							}
						],
						"numberOfBytes": "128"
					},
					"t_struct(Purchase)23_storage": {
						"encoding": "inplace",
						"label": "struct ProductLibrary.Purchase",
						"members": [
							{
								"astId": 15,
								"contract": "contracts/VendingMachine.sol:VendingMachine",
								"label": "buyer",
								"offset": 0,
								"slot": "0",
								"type": "t_address"
							},
							{
								"astId": 17,
								"contract": "contracts/VendingMachine.sol:VendingMachine",
								"label": "productId",
								"offset": 0,
								"slot": "1",
								"type": "t_string_storage"
							},
							{
								"astId": 19,
								"contract": "contracts/VendingMachine.sol:VendingMachine",
								"label": "timestamp",
								"offset": 0,
								"slot": "2",
								"type": "t_uint256"
							},
							{
								"astId": 22,
								"contract": "contracts/VendingMachine.sol:VendingMachine",
								"label": "status",
								"offset": 0,
								"slot": "3",
								"type": "t_enum(PurchaseStatus)4"
							}
						],
						"numberOfBytes": "128"
					},
					"t_uint256": {
						"encoding": "inplace",
						"label": "uint256",
						"numberOfBytes": "32"
					}
				}
			},
			"userdoc": {
				"kind": "user",
				"methods": {},
				"version": 1
			}
		}
	}
}