{
	"blockchain/contracts/VendingMachine.sol": {
		"VendingMachine": {
			"abi": [
				{
					"inputs": [],
					"stateMutability": "nonpayable",
					"type": "constructor"
				},
				{
					"anonymous": false,
					"inputs": [
						{
							"indexed": true,
							"internalType": "address",
							"name": "sender",
							"type": "address"
						},
						{
							"indexed": false,
							"internalType": "uint256",
							"name": "amount",
							"type": "uint256"
						}
					],
					"name": "FundsAdded",
					"type": "event"
				},
				{
					"anonymous": false,
					"inputs": [
						{
							"indexed": false,
							"internalType": "string",
							"name": "code",
							"type": "string"
						},
						{
							"indexed": false,
							"internalType": "string",
							"name": "name",
							"type": "string"
						},
						{
							"indexed": false,
							"internalType": "uint256",
							"name": "price",
							"type": "uint256"
						},
						{
							"indexed": false,
							"internalType": "string",
							"name": "imageCID",
							"type": "string"
						}
					],
					"name": "ProductInitialized",
					"type": "event"
				},
				{
					"anonymous": false,
					"inputs": [
						{
							"indexed": true,
							"internalType": "address",
							"name": "buyer",
							"type": "address"
						},
						{
							"indexed": false,
							"internalType": "string",
							"name": "productId",
							"type": "string"
						},
						{
							"indexed": false,
							"internalType": "uint256",
							"name": "price",
							"type": "uint256"
						},
						{
							"indexed": false,
							"internalType": "uint256",
							"name": "timestamp",
							"type": "uint256"
						}
					],
					"name": "ProductPurchased",
					"type": "event"
				},
				{
					"anonymous": false,
					"inputs": [
						{
							"indexed": true,
							"internalType": "address",
							"name": "consumer",
							"type": "address"
						},
						{
							"indexed": false,
							"internalType": "uint256",
							"name": "purchaseIndex",
							"type": "uint256"
						}
					],
					"name": "PurchaseConsumed",
					"type": "event"
				},
				{
					"anonymous": false,
					"inputs": [
						{
							"indexed": true,
							"internalType": "address",
							"name": "attacker",
							"type": "address"
						}
					],
					"name": "ReentrancyAttempt",
					"type": "event"
				},
				{
					"anonymous": false,
					"inputs": [
						{
							"indexed": true,
							"internalType": "address",
							"name": "owner",
							"type": "address"
						},
						{
							"indexed": false,
							"internalType": "uint256",
							"name": "amount",
							"type": "uint256"
						}
					],
					"name": "Withdrawal",
					"type": "event"
				},
				{
					"stateMutability": "payable",
					"type": "fallback"
				},
				{
					"inputs": [],
					"name": "addFunds",
					"outputs": [],
					"stateMutability": "payable",
					"type": "function"
				},
				{
					"inputs": [
						{
							"internalType": "uint256",
							"name": "_purchaseIndex",
							"type": "uint256"
						}
					],
					"name": "consumePurchase",
					"outputs": [],
					"stateMutability": "nonpayable",
					"type": "function"
				},
				{
					"inputs": [],
					"name": "getAllProducts",
					"outputs": [
						{
							"components": [
								{
									"internalType": "string",
									"name": "code",
									"type": "string"
								},
								{
									"internalType": "uint256",
									"name": "price",
									"type": "uint256"
								},
								{
									"internalType": "string",
									"name": "name",
									"type": "string"
								},
								{
									"internalType": "string",
									"name": "imageCID",
									"type": "string"
								}
							],
							"internalType": "struct ProductLibrary.Product[]",
							"name": "",
							"type": "tuple[]"
						}
					],
					"stateMutability": "view",
					"type": "function"
				},
				{
					"inputs": [
						{
							"internalType": "address",
							"name": "_buyer",
							"type": "address"
						}
					],
					"name": "getAllPurchases",
					"outputs": [
						{
							"components": [
								{
									"internalType": "uint256",
									"name": "id",
									"type": "uint256"
								},
								{
									"internalType": "string",
									"name": "name",
									"type": "string"
								},
								{
									"internalType": "string",
									"name": "image",
									"type": "string"
								},
								{
									"internalType": "uint256",
									"name": "price",
									"type": "uint256"
								},
								{
									"internalType": "uint256",
									"name": "purchaseDate",
									"type": "uint256"
								},
								{
									"internalType": "bool",
									"name": "consumed",
									"type": "bool"
								}
							],
							"internalType": "struct ProductLibrary.PurchaseInfo[]",
							"name": "",
							"type": "tuple[]"
						}
					],
					"stateMutability": "view",
					"type": "function"
				},
				{
					"inputs": [],
					"name": "getBalance",
					"outputs": [
						{
							"internalType": "uint256",
							"name": "",
							"type": "uint256"
						}
					],
					"stateMutability": "view",
					"type": "function"
				},
				{
					"inputs": [],
					"name": "owner",
					"outputs": [
						{
							"internalType": "address",
							"name": "",
							"type": "address"
						}
					],
					"stateMutability": "view",
					"type": "function"
				},
				{
					"inputs": [
						{
							"internalType": "string",
							"name": "_productId",
							"type": "string"
						}
					],
					"name": "purchaseProduct",
					"outputs": [],
					"stateMutability": "nonpayable",
					"type": "function"
				},
				{
					"inputs": [],
					"name": "withdraw",
					"outputs": [],
					"stateMutability": "nonpayable",
					"type": "function"
				},
				{
					"stateMutability": "payable",
					"type": "receive"
				}
			],
			"devdoc": {
				"kind": "dev",
				"methods": {},
				"version": 1
			},
			"evm": {
				"assembly": "    /* \"blockchain/contracts/VendingMachine.sol\":115:7019  contract VendingMachine {... */\n  mstore(0x40, 0xa0)\n    /* \"blockchain/contracts/VendingMachine.sol\":1360:1439  constructor() {... */\n  callvalue\n  dup1\n  iszero\n  tag_1\n  jumpi\n  0x00\n  dup1\n  revert\ntag_1:\n  pop\n    /* \"blockchain/contracts/VendingMachine.sol\":1392:1402  msg.sender */\n  caller\n    /* \"blockchain/contracts/VendingMachine.sol\":1384:1402  owner = msg.sender */\n  0xffffffffffffffffffffffffffffffffffffffff\n  and\n  0x80\n  dup2\n  0xffffffffffffffffffffffffffffffffffffffff\n  and\n  dup2\n  mstore\n  pop\n  pop\n    /* \"blockchain/contracts/VendingMachine.sol\":1412:1432  initializeProducts() */\n  tag_4\n    /* \"blockchain/contracts/VendingMachine.sol\":1412:1430  initializeProducts */\n  shl(0x20, tag_5)\n    /* \"blockchain/contracts/VendingMachine.sol\":1412:1432  initializeProducts() */\n  0x20\n  shr\n  jump\t// in\ntag_4:\n    /* \"blockchain/contracts/VendingMachine.sol\":115:7019  contract VendingMachine {... */\n  jump(tag_6)\n    /* \"blockchain/contracts/VendingMachine.sol\":1596:3260  function initializeProducts() private {... */\ntag_5:\n    /* \"blockchain/contracts/VendingMachine.sol\":1644:1703  _addProduct(\"A1\", 15 * GWEI_MULTIPLIER, \"Lays\", \"lays.png\") */\n  tag_8\n  mload(0x40)\n  dup1\n  0x40\n  add\n  0x40\n  mstore\n  dup1\n  0x02\n  dup2\n  mstore\n  0x20\n  add\n  0x4131000000000000000000000000000000000000000000000000000000000000\n  dup2\n  mstore\n  pop\n    /* \"blockchain/contracts/VendingMachine.sol\":951:956  10**8 */\n  0x05f5e100\n    /* \"blockchain/contracts/VendingMachine.sol\":1662:1664  15 */\n  0x0f\n    /* \"blockchain/contracts/VendingMachine.sol\":1662:1682  15 * GWEI_MULTIPLIER */\n  tag_9\n  swap2\n  swap1\n  tag_10\n  jump\t// in\ntag_9:\n    /* \"blockchain/contracts/VendingMachine.sol\":1644:1703  _addProduct(\"A1\", 15 * GWEI_MULTIPLIER, \"Lays\", \"lays.png\") */\n  mload(0x40)\n  dup1\n  0x40\n  add\n  0x40\n  mstore\n  dup1\n  0x04\n  dup2\n  mstore\n  0x20\n  add\n  0x4c61797300000000000000000000000000000000000000000000000000000000\n  dup2\n  mstore\n  pop\n  mload(0x40)\n  dup1\n  0x40\n  add\n  0x40\n  mstore\n  dup1\n  0x08\n  dup2\n  mstore\n  0x20\n  add\n  0x6c6179732e706e67000000000000000000000000000000000000000000000000\n  dup2\n  mstore\n  pop\n    /* \"blockchain/contracts/VendingMachine.sol\":1644:1655  _addProduct */\n  shl(0x20, tag_11)\n    /* \"blockchain/contracts/VendingMachine.sol\":1644:1703  _addProduct(\"A1\", 15 * GWEI_MULTIPLIER, \"Lays\", \"lays.png\") */\n  0x20\n  shr\n  jump\t// in\ntag_8:\n    /* \"blockchain/contracts/VendingMachine.sol\":1713:1789  _addProduct(\"A2\", 175 * SMALL_GWEI_MULTIPLIER, \"Coca Cola\", \"coca-cola.png\") */\n  tag_12\n  mload(0x40)\n  dup1\n  0x40\n  add\n  0x40\n  mstore\n  dup1\n  0x02\n  dup2\n  mstore\n  0x20\n  add\n  0x4132000000000000000000000000000000000000000000000000000000000000\n  dup2\n  mstore\n  pop\n    /* \"blockchain/contracts/VendingMachine.sol\":1011:1016  10**7 */\n  0x989680\n    /* \"blockchain/contracts/VendingMachine.sol\":1731:1734  175 */\n  0xaf\n    /* \"blockchain/contracts/VendingMachine.sol\":1731:1758  175 * SMALL_GWEI_MULTIPLIER */\n  tag_13\n  swap2\n  swap1\n  tag_10\n  jump\t// in\ntag_13:\n    /* \"blockchain/contracts/VendingMachine.sol\":1713:1789  _addProduct(\"A2\", 175 * SMALL_GWEI_MULTIPLIER, \"Coca Cola\", \"coca-cola.png\") */\n  mload(0x40)\n  dup1\n  0x40\n  add\n  0x40\n  mstore\n  dup1\n  0x09\n  dup2\n  mstore\n  0x20\n  add\n  0x436f636120436f6c610000000000000000000000000000000000000000000000\n  dup2\n  mstore\n  pop\n  mload(0x40)\n  dup1\n  0x40\n  add\n  0x40\n  mstore\n  dup1\n  0x0d\n  dup2\n  mstore\n  0x20\n  add\n  0x636f63612d636f6c612e706e6700000000000000000000000000000000000000\n  dup2\n  mstore\n  pop\n    /* \"blockchain/contracts/VendingMachine.sol\":1713:1724  _addProduct */\n  shl(0x20, tag_11)\n    /* \"blockchain/contracts/VendingMachine.sol\":1713:1789  _addProduct(\"A2\", 175 * SMALL_GWEI_MULTIPLIER, \"Coca Cola\", \"coca-cola.png\") */\n  0x20\n  shr\n  jump\t// in\ntag_12:\n    /* \"blockchain/contracts/VendingMachine.sol\":1799:1866  _addProduct(\"A3\", 15 * GWEI_MULTIPLIER, \"Pringles\", \"pringles.png\") */\n  tag_14\n  mload(0x40)\n  dup1\n  0x40\n  add\n  0x40\n  mstore\n  dup1\n  0x02\n  dup2\n  mstore\n  0x20\n  add\n  0x4133000000000000000000000000000000000000000000000000000000000000\n  dup2\n  mstore\n  pop\n    /* \"blockchain/contracts/VendingMachine.sol\":951:956  10**8 */\n  0x05f5e100\n    /* \"blockchain/contracts/VendingMachine.sol\":1817:1819  15 */\n  0x0f\n    /* \"blockchain/contracts/VendingMachine.sol\":1817:1837  15 * GWEI_MULTIPLIER */\n  tag_15\n  swap2\n  swap1\n  tag_10\n  jump\t// in\ntag_15:\n    /* \"blockchain/contracts/VendingMachine.sol\":1799:1866  _addProduct(\"A3\", 15 * GWEI_MULTIPLIER, \"Pringles\", \"pringles.png\") */\n  mload(0x40)\n  dup1\n  0x40\n  add\n  0x40\n  mstore\n  dup1\n  0x08\n  dup2\n  mstore\n  0x20\n  add\n  0x5072696e676c6573000000000000000000000000000000000000000000000000\n  dup2\n  mstore\n  pop\n  mload(0x40)\n  dup1\n  0x40\n  add\n  0x40\n  mstore\n  dup1\n  0x0c\n  dup2\n  mstore\n  0x20\n  add\n  0x7072696e676c65732e706e670000000000000000000000000000000000000000\n  dup2\n  mstore\n  pop\n    /* \"blockchain/contracts/VendingMachine.sol\":1799:1810  _addProduct */\n  shl(0x20, tag_11)\n    /* \"blockchain/contracts/VendingMachine.sol\":1799:1866  _addProduct(\"A3\", 15 * GWEI_MULTIPLIER, \"Pringles\", \"pringles.png\") */\n  0x20\n  shr\n  jump\t// in\ntag_14:\n    /* \"blockchain/contracts/VendingMachine.sol\":1876:1944  _addProduct(\"A4\", 175 * SMALL_GWEI_MULTIPLIER, \"Water\", \"water.png\") */\n  tag_16\n  mload(0x40)\n  dup1\n  0x40\n  add\n  0x40\n  mstore\n  dup1\n  0x02\n  dup2\n  mstore\n  0x20\n  add\n  0x4134000000000000000000000000000000000000000000000000000000000000\n  dup2\n  mstore\n  pop\n    /* \"blockchain/contracts/VendingMachine.sol\":1011:1016  10**7 */\n  0x989680\n    /* \"blockchain/contracts/VendingMachine.sol\":1894:1897  175 */\n  0xaf\n    /* \"blockchain/contracts/VendingMachine.sol\":1894:1921  175 * SMALL_GWEI_MULTIPLIER */\n  tag_17\n  swap2\n  swap1\n  tag_10\n  jump\t// in\ntag_17:\n    /* \"blockchain/contracts/VendingMachine.sol\":1876:1944  _addProduct(\"A4\", 175 * SMALL_GWEI_MULTIPLIER, \"Water\", \"water.png\") */\n  mload(0x40)\n  dup1\n  0x40\n  add\n  0x40\n  mstore\n  dup1\n  0x05\n  dup2\n  mstore\n  0x20\n  add\n  0x5761746572000000000000000000000000000000000000000000000000000000\n  dup2\n  mstore\n  pop\n  mload(0x40)\n  dup1\n  0x40\n  add\n  0x40\n  mstore\n  dup1\n  0x09\n  dup2\n  mstore\n  0x20\n  add\n  0x77617465722e706e670000000000000000000000000000000000000000000000\n  dup2\n  mstore\n  pop\n    /* \"blockchain/contracts/VendingMachine.sol\":1876:1887  _addProduct */\n  shl(0x20, tag_11)\n    /* \"blockchain/contracts/VendingMachine.sol\":1876:1944  _addProduct(\"A4\", 175 * SMALL_GWEI_MULTIPLIER, \"Water\", \"water.png\") */\n  0x20\n  shr\n  jump\t// in\ntag_16:\n    /* \"blockchain/contracts/VendingMachine.sol\":1954:2025  _addProduct(\"A5\", 15 * GWEI_MULTIPLIER, \"Energy Drink\", \"red-bull.png\") */\n  tag_18\n  mload(0x40)\n  dup1\n  0x40\n  add\n  0x40\n  mstore\n  dup1\n  0x02\n  dup2\n  mstore\n  0x20\n  add\n  0x4135000000000000000000000000000000000000000000000000000000000000\n  dup2\n  mstore\n  pop\n    /* \"blockchain/contracts/VendingMachine.sol\":951:956  10**8 */\n  0x05f5e100\n    /* \"blockchain/contracts/VendingMachine.sol\":1972:1974  15 */\n  0x0f\n    /* \"blockchain/contracts/VendingMachine.sol\":1972:1992  15 * GWEI_MULTIPLIER */\n  tag_19\n  swap2\n  swap1\n  tag_10\n  jump\t// in\ntag_19:\n    /* \"blockchain/contracts/VendingMachine.sol\":1954:2025  _addProduct(\"A5\", 15 * GWEI_MULTIPLIER, \"Energy Drink\", \"red-bull.png\") */\n  mload(0x40)\n  dup1\n  0x40\n  add\n  0x40\n  mstore\n  dup1\n  0x0c\n  dup2\n  mstore\n  0x20\n  add\n  0x456e65726779204472696e6b0000000000000000000000000000000000000000\n  dup2\n  mstore\n  pop\n  mload(0x40)\n  dup1\n  0x40\n  add\n  0x40\n  mstore\n  dup1\n  0x0c\n  dup2\n  mstore\n  0x20\n  add\n  0x7265642d62756c6c2e706e670000000000000000000000000000000000000000\n  dup2\n  mstore\n  pop\n    /* \"blockchain/contracts/VendingMachine.sol\":1954:1965  _addProduct */\n  shl(0x20, tag_11)\n    /* \"blockchain/contracts/VendingMachine.sol\":1954:2025  _addProduct(\"A5\", 15 * GWEI_MULTIPLIER, \"Energy Drink\", \"red-bull.png\") */\n  0x20\n  shr\n  jump\t// in\ntag_18:\n    /* \"blockchain/contracts/VendingMachine.sol\":2035:2102  _addProduct(\"B1\", 20 * GWEI_MULTIPLIER, \"Sandwich\", \"sandwich.png\") */\n  tag_20\n  mload(0x40)\n  dup1\n  0x40\n  add\n  0x40\n  mstore\n  dup1\n  0x02\n  dup2\n  mstore\n  0x20\n  add\n  0x4231000000000000000000000000000000000000000000000000000000000000\n  dup2\n  mstore\n  pop\n    /* \"blockchain/contracts/VendingMachine.sol\":951:956  10**8 */\n  0x05f5e100\n    /* \"blockchain/contracts/VendingMachine.sol\":2053:2055  20 */\n  0x14\n    /* \"blockchain/contracts/VendingMachine.sol\":2053:2073  20 * GWEI_MULTIPLIER */\n  tag_21\n  swap2\n  swap1\n  tag_10\n  jump\t// in\ntag_21:\n    /* \"blockchain/contracts/VendingMachine.sol\":2035:2102  _addProduct(\"B1\", 20 * GWEI_MULTIPLIER, \"Sandwich\", \"sandwich.png\") */\n  mload(0x40)\n  dup1\n  0x40\n  add\n  0x40\n  mstore\n  dup1\n  0x08\n  dup2\n  mstore\n  0x20\n  add\n  0x53616e6477696368000000000000000000000000000000000000000000000000\n  dup2\n  mstore\n  pop\n  mload(0x40)\n  dup1\n  0x40\n  add\n  0x40\n  mstore\n  dup1\n  0x0c\n  dup2\n  mstore\n  0x20\n  add\n  0x73616e64776963682e706e670000000000000000000000000000000000000000\n  dup2\n  mstore\n  pop\n    /* \"blockchain/contracts/VendingMachine.sol\":2035:2046  _addProduct */\n  shl(0x20, tag_11)\n    /* \"blockchain/contracts/VendingMachine.sol\":2035:2102  _addProduct(\"B1\", 20 * GWEI_MULTIPLIER, \"Sandwich\", \"sandwich.png\") */\n  0x20\n  shr\n  jump\t// in\ntag_20:\n    /* \"blockchain/contracts/VendingMachine.sol\":2112:2178  _addProduct(\"B2\", 175 * SMALL_GWEI_MULTIPLIER, \"Oreo\", \"oreo.png\") */\n  tag_22\n  mload(0x40)\n  dup1\n  0x40\n  add\n  0x40\n  mstore\n  dup1\n  0x02\n  dup2\n  mstore\n  0x20\n  add\n  0x4232000000000000000000000000000000000000000000000000000000000000\n  dup2\n  mstore\n  pop\n    /* \"blockchain/contracts/VendingMachine.sol\":1011:1016  10**7 */\n  0x989680\n    /* \"blockchain/contracts/VendingMachine.sol\":2130:2133  175 */\n  0xaf\n    /* \"blockchain/contracts/VendingMachine.sol\":2130:2157  175 * SMALL_GWEI_MULTIPLIER */\n  tag_23\n  swap2\n  swap1\n  tag_10\n  jump\t// in\ntag_23:\n    /* \"blockchain/contracts/VendingMachine.sol\":2112:2178  _addProduct(\"B2\", 175 * SMALL_GWEI_MULTIPLIER, \"Oreo\", \"oreo.png\") */\n  mload(0x40)\n  dup1\n  0x40\n  add\n  0x40\n  mstore\n  dup1\n  0x04\n  dup2\n  mstore\n  0x20\n  add\n  0x4f72656f00000000000000000000000000000000000000000000000000000000\n  dup2\n  mstore\n  pop\n  mload(0x40)\n  dup1\n  0x40\n  add\n  0x40\n  mstore\n  dup1\n  0x08\n  dup2\n  mstore\n  0x20\n  add\n  0x6f72656f2e706e67000000000000000000000000000000000000000000000000\n  dup2\n  mstore\n  pop\n    /* \"blockchain/contracts/VendingMachine.sol\":2112:2123  _addProduct */\n  shl(0x20, tag_11)\n    /* \"blockchain/contracts/VendingMachine.sol\":2112:2178  _addProduct(\"B2\", 175 * SMALL_GWEI_MULTIPLIER, \"Oreo\", \"oreo.png\") */\n  0x20\n  shr\n  jump\t// in\ntag_22:\n    /* \"blockchain/contracts/VendingMachine.sol\":2188:2251  _addProduct(\"B3\", 15 * GWEI_MULTIPLIER, \"Sprite\", \"sprite.png\") */\n  tag_24\n  mload(0x40)\n  dup1\n  0x40\n  add\n  0x40\n  mstore\n  dup1\n  0x02\n  dup2\n  mstore\n  0x20\n  add\n  0x4233000000000000000000000000000000000000000000000000000000000000\n  dup2\n  mstore\n  pop\n    /* \"blockchain/contracts/VendingMachine.sol\":951:956  10**8 */\n  0x05f5e100\n    /* \"blockchain/contracts/VendingMachine.sol\":2206:2208  15 */\n  0x0f\n    /* \"blockchain/contracts/VendingMachine.sol\":2206:2226  15 * GWEI_MULTIPLIER */\n  tag_25\n  swap2\n  swap1\n  tag_10\n  jump\t// in\ntag_25:\n    /* \"blockchain/contracts/VendingMachine.sol\":2188:2251  _addProduct(\"B3\", 15 * GWEI_MULTIPLIER, \"Sprite\", \"sprite.png\") */\n  mload(0x40)\n  dup1\n  0x40\n  add\n  0x40\n  mstore\n  dup1\n  0x06\n  dup2\n  mstore\n  0x20\n  add\n  0x5370726974650000000000000000000000000000000000000000000000000000\n  dup2\n  mstore\n  pop\n  mload(0x40)\n  dup1\n  0x40\n  add\n  0x40\n  mstore\n  dup1\n  0x0a\n  dup2\n  mstore\n  0x20\n  add\n  0x7370726974652e706e6700000000000000000000000000000000000000000000\n  dup2\n  mstore\n  pop\n    /* \"blockchain/contracts/VendingMachine.sol\":2188:2199  _addProduct */\n  shl(0x20, tag_11)\n    /* \"blockchain/contracts/VendingMachine.sol\":2188:2251  _addProduct(\"B3\", 15 * GWEI_MULTIPLIER, \"Sprite\", \"sprite.png\") */\n  0x20\n  shr\n  jump\t// in\ntag_24:\n    /* \"blockchain/contracts/VendingMachine.sol\":2261:2341  _addProduct(\"B4\", 175 * SMALL_GWEI_MULTIPLIER, \"Granola Bar\", \"granola-bar.png\") */\n  tag_26\n  mload(0x40)\n  dup1\n  0x40\n  add\n  0x40\n  mstore\n  dup1\n  0x02\n  dup2\n  mstore\n  0x20\n  add\n  0x4234000000000000000000000000000000000000000000000000000000000000\n  dup2\n  mstore\n  pop\n    /* \"blockchain/contracts/VendingMachine.sol\":1011:1016  10**7 */\n  0x989680\n    /* \"blockchain/contracts/VendingMachine.sol\":2279:2282  175 */\n  0xaf\n    /* \"blockchain/contracts/VendingMachine.sol\":2279:2306  175 * SMALL_GWEI_MULTIPLIER */\n  tag_27\n  swap2\n  swap1\n  tag_10\n  jump\t// in\ntag_27:\n    /* \"blockchain/contracts/VendingMachine.sol\":2261:2341  _addProduct(\"B4\", 175 * SMALL_GWEI_MULTIPLIER, \"Granola Bar\", \"granola-bar.png\") */\n  mload(0x40)\n  dup1\n  0x40\n  add\n  0x40\n  mstore\n  dup1\n  0x0b\n  dup2\n  mstore\n  0x20\n  add\n  0x4772616e6f6c6120426172000000000000000000000000000000000000000000\n  dup2\n  mstore\n  pop\n  mload(0x40)\n  dup1\n  0x40\n  add\n  0x40\n  mstore\n  dup1\n  0x0f\n  dup2\n  mstore\n  0x20\n  add\n  0x6772616e6f6c612d6261722e706e670000000000000000000000000000000000\n  dup2\n  mstore\n  pop\n    /* \"blockchain/contracts/VendingMachine.sol\":2261:2272  _addProduct */\n  shl(0x20, tag_11)\n    /* \"blockchain/contracts/VendingMachine.sol\":2261:2341  _addProduct(\"B4\", 175 * SMALL_GWEI_MULTIPLIER, \"Granola Bar\", \"granola-bar.png\") */\n  0x20\n  shr\n  jump\t// in\ntag_26:\n    /* \"blockchain/contracts/VendingMachine.sol\":2351:2423  _addProduct(\"B5\", 175 * SMALL_GWEI_MULTIPLIER, \"Doritos\", \"doritos.png\") */\n  tag_28\n  mload(0x40)\n  dup1\n  0x40\n  add\n  0x40\n  mstore\n  dup1\n  0x02\n  dup2\n  mstore\n  0x20\n  add\n  0x4235000000000000000000000000000000000000000000000000000000000000\n  dup2\n  mstore\n  pop\n    /* \"blockchain/contracts/VendingMachine.sol\":1011:1016  10**7 */\n  0x989680\n    /* \"blockchain/contracts/VendingMachine.sol\":2369:2372  175 */\n  0xaf\n    /* \"blockchain/contracts/VendingMachine.sol\":2369:2396  175 * SMALL_GWEI_MULTIPLIER */\n  tag_29\n  swap2\n  swap1\n  tag_10\n  jump\t// in\ntag_29:\n    /* \"blockchain/contracts/VendingMachine.sol\":2351:2423  _addProduct(\"B5\", 175 * SMALL_GWEI_MULTIPLIER, \"Doritos\", \"doritos.png\") */\n  mload(0x40)\n  dup1\n  0x40\n  add\n  0x40\n  mstore\n  dup1\n  0x07\n  dup2\n  mstore\n  0x20\n  add\n  0x446f7269746f7300000000000000000000000000000000000000000000000000\n  dup2\n  mstore\n  pop\n  mload(0x40)\n  dup1\n  0x40\n  add\n  0x40\n  mstore\n  dup1\n  0x0b\n  dup2\n  mstore\n  0x20\n  add\n  0x646f7269746f732e706e67000000000000000000000000000000000000000000\n  dup2\n  mstore\n  pop\n    /* \"blockchain/contracts/VendingMachine.sol\":2351:2362  _addProduct */\n  shl(0x20, tag_11)\n    /* \"blockchain/contracts/VendingMachine.sol\":2351:2423  _addProduct(\"B5\", 175 * SMALL_GWEI_MULTIPLIER, \"Doritos\", \"doritos.png\") */\n  0x20\n  shr\n  jump\t// in\ntag_28:\n    /* \"blockchain/contracts/VendingMachine.sol\":2433:2503  _addProduct(\"C1\", 15 * GWEI_MULTIPLIER, \"Snicker Bar\", \"snickers.png\") */\n  tag_30\n  mload(0x40)\n  dup1\n  0x40\n  add\n  0x40\n  mstore\n  dup1\n  0x02\n  dup2\n  mstore\n  0x20\n  add\n  0x4331000000000000000000000000000000000000000000000000000000000000\n  dup2\n  mstore\n  pop\n    /* \"blockchain/contracts/VendingMachine.sol\":951:956  10**8 */\n  0x05f5e100\n    /* \"blockchain/contracts/VendingMachine.sol\":2451:2453  15 */\n  0x0f\n    /* \"blockchain/contracts/VendingMachine.sol\":2451:2471  15 * GWEI_MULTIPLIER */\n  tag_31\n  swap2\n  swap1\n  tag_10\n  jump\t// in\ntag_31:\n    /* \"blockchain/contracts/VendingMachine.sol\":2433:2503  _addProduct(\"C1\", 15 * GWEI_MULTIPLIER, \"Snicker Bar\", \"snickers.png\") */\n  mload(0x40)\n  dup1\n  0x40\n  add\n  0x40\n  mstore\n  dup1\n  0x0b\n  dup2\n  mstore\n  0x20\n  add\n  0x536e69636b657220426172000000000000000000000000000000000000000000\n  dup2\n  mstore\n  pop\n  mload(0x40)\n  dup1\n  0x40\n  add\n  0x40\n  mstore\n  dup1\n  0x0c\n  dup2\n  mstore\n  0x20\n  add\n  0x736e69636b6572732e706e670000000000000000000000000000000000000000\n  dup2\n  mstore\n  pop\n    /* \"blockchain/contracts/VendingMachine.sol\":2433:2444  _addProduct */\n  shl(0x20, tag_11)\n    /* \"blockchain/contracts/VendingMachine.sol\":2433:2503  _addProduct(\"C1\", 15 * GWEI_MULTIPLIER, \"Snicker Bar\", \"snickers.png\") */\n  0x20\n  shr\n  jump\t// in\ntag_30:\n    /* \"blockchain/contracts/VendingMachine.sol\":2513:2572  _addProduct(\"C2\", 15 * GWEI_MULTIPLIER, \"M&Ms\", \"m&ms.png\") */\n  tag_32\n  mload(0x40)\n  dup1\n  0x40\n  add\n  0x40\n  mstore\n  dup1\n  0x02\n  dup2\n  mstore\n  0x20\n  add\n  0x4332000000000000000000000000000000000000000000000000000000000000\n  dup2\n  mstore\n  pop\n    /* \"blockchain/contracts/VendingMachine.sol\":951:956  10**8 */\n  0x05f5e100\n    /* \"blockchain/contracts/VendingMachine.sol\":2531:2533  15 */\n  0x0f\n    /* \"blockchain/contracts/VendingMachine.sol\":2531:2551  15 * GWEI_MULTIPLIER */\n  tag_33\n  swap2\n  swap1\n  tag_10\n  jump\t// in\ntag_33:\n    /* \"blockchain/contracts/VendingMachine.sol\":2513:2572  _addProduct(\"C2\", 15 * GWEI_MULTIPLIER, \"M&Ms\", \"m&ms.png\") */\n  mload(0x40)\n  dup1\n  0x40\n  add\n  0x40\n  mstore\n  dup1\n  0x04\n  dup2\n  mstore\n  0x20\n  add\n  0x4d264d7300000000000000000000000000000000000000000000000000000000\n  dup2\n  mstore\n  pop\n  mload(0x40)\n  dup1\n  0x40\n  add\n  0x40\n  mstore\n  dup1\n  0x08\n  dup2\n  mstore\n  0x20\n  add\n  0x6d266d732e706e67000000000000000000000000000000000000000000000000\n  dup2\n  mstore\n  pop\n    /* \"blockchain/contracts/VendingMachine.sol\":2513:2524  _addProduct */\n  shl(0x20, tag_11)\n    /* \"blockchain/contracts/VendingMachine.sol\":2513:2572  _addProduct(\"C2\", 15 * GWEI_MULTIPLIER, \"M&Ms\", \"m&ms.png\") */\n  0x20\n  shr\n  jump\t// in\ntag_32:\n    /* \"blockchain/contracts/VendingMachine.sol\":2582:2664  _addProduct(\"C3\", 125 * SMALL_GWEI_MULTIPLIER, \"Bubble Tap Gum\", \"bubble-tap.png\") */\n  tag_34\n  mload(0x40)\n  dup1\n  0x40\n  add\n  0x40\n  mstore\n  dup1\n  0x02\n  dup2\n  mstore\n  0x20\n  add\n  0x4333000000000000000000000000000000000000000000000000000000000000\n  dup2\n  mstore\n  pop\n    /* \"blockchain/contracts/VendingMachine.sol\":1011:1016  10**7 */\n  0x989680\n    /* \"blockchain/contracts/VendingMachine.sol\":2600:2603  125 */\n  0x7d\n    /* \"blockchain/contracts/VendingMachine.sol\":2600:2627  125 * SMALL_GWEI_MULTIPLIER */\n  tag_35\n  swap2\n  swap1\n  tag_10\n  jump\t// in\ntag_35:\n    /* \"blockchain/contracts/VendingMachine.sol\":2582:2664  _addProduct(\"C3\", 125 * SMALL_GWEI_MULTIPLIER, \"Bubble Tap Gum\", \"bubble-tap.png\") */\n  mload(0x40)\n  dup1\n  0x40\n  add\n  0x40\n  mstore\n  dup1\n  0x0e\n  dup2\n  mstore\n  0x20\n  add\n  0x427562626c65205461702047756d000000000000000000000000000000000000\n  dup2\n  mstore\n  pop\n  mload(0x40)\n  dup1\n  0x40\n  add\n  0x40\n  mstore\n  dup1\n  0x0e\n  dup2\n  mstore\n  0x20\n  add\n  0x627562626c652d7461702e706e67000000000000000000000000000000000000\n  dup2\n  mstore\n  pop\n    /* \"blockchain/contracts/VendingMachine.sol\":2582:2593  _addProduct */\n  shl(0x20, tag_11)\n    /* \"blockchain/contracts/VendingMachine.sol\":2582:2664  _addProduct(\"C3\", 125 * SMALL_GWEI_MULTIPLIER, \"Bubble Tap Gum\", \"bubble-tap.png\") */\n  0x20\n  shr\n  jump\t// in\ntag_34:\n    /* \"blockchain/contracts/VendingMachine.sol\":2674:2754  _addProduct(\"C4\", 175 * SMALL_GWEI_MULTIPLIER, \"Fruit Nut Bar\", \"fruit-nut.png\") */\n  tag_36\n  mload(0x40)\n  dup1\n  0x40\n  add\n  0x40\n  mstore\n  dup1\n  0x02\n  dup2\n  mstore\n  0x20\n  add\n  0x4334000000000000000000000000000000000000000000000000000000000000\n  dup2\n  mstore\n  pop\n    /* \"blockchain/contracts/VendingMachine.sol\":1011:1016  10**7 */\n  0x989680\n    /* \"blockchain/contracts/VendingMachine.sol\":2692:2695  175 */\n  0xaf\n    /* \"blockchain/contracts/VendingMachine.sol\":2692:2719  175 * SMALL_GWEI_MULTIPLIER */\n  tag_37\n  swap2\n  swap1\n  tag_10\n  jump\t// in\ntag_37:\n    /* \"blockchain/contracts/VendingMachine.sol\":2674:2754  _addProduct(\"C4\", 175 * SMALL_GWEI_MULTIPLIER, \"Fruit Nut Bar\", \"fruit-nut.png\") */\n  mload(0x40)\n  dup1\n  0x40\n  add\n  0x40\n  mstore\n  dup1\n  0x0d\n  dup2\n  mstore\n  0x20\n  add\n  0x4672756974204e75742042617200000000000000000000000000000000000000\n  dup2\n  mstore\n  pop\n  mload(0x40)\n  dup1\n  0x40\n  add\n  0x40\n  mstore\n  dup1\n  0x0d\n  dup2\n  mstore\n  0x20\n  add\n  0x66727569742d6e75742e706e6700000000000000000000000000000000000000\n  dup2\n  mstore\n  pop\n    /* \"blockchain/contracts/VendingMachine.sol\":2674:2685  _addProduct */\n  shl(0x20, tag_11)\n    /* \"blockchain/contracts/VendingMachine.sol\":2674:2754  _addProduct(\"C4\", 175 * SMALL_GWEI_MULTIPLIER, \"Fruit Nut Bar\", \"fruit-nut.png\") */\n  0x20\n  shr\n  jump\t// in\ntag_36:\n    /* \"blockchain/contracts/VendingMachine.sol\":2764:2842  _addProduct(\"C5\", 175 * SMALL_GWEI_MULTIPLIER, \"Beef Jerky\", \"beef-jerky.png\") */\n  tag_38\n  mload(0x40)\n  dup1\n  0x40\n  add\n  0x40\n  mstore\n  dup1\n  0x02\n  dup2\n  mstore\n  0x20\n  add\n  0x4335000000000000000000000000000000000000000000000000000000000000\n  dup2\n  mstore\n  pop\n    /* \"blockchain/contracts/VendingMachine.sol\":1011:1016  10**7 */\n  0x989680\n    /* \"blockchain/contracts/VendingMachine.sol\":2782:2785  175 */\n  0xaf\n    /* \"blockchain/contracts/VendingMachine.sol\":2782:2809  175 * SMALL_GWEI_MULTIPLIER */\n  tag_39\n  swap2\n  swap1\n  tag_10\n  jump\t// in\ntag_39:\n    /* \"blockchain/contracts/VendingMachine.sol\":2764:2842  _addProduct(\"C5\", 175 * SMALL_GWEI_MULTIPLIER, \"Beef Jerky\", \"beef-jerky.png\") */\n  mload(0x40)\n  dup1\n  0x40\n  add\n  0x40\n  mstore\n  dup1\n  0x0a\n  dup2\n  mstore\n  0x20\n  add\n  0x42656566204a65726b7900000000000000000000000000000000000000000000\n  dup2\n  mstore\n  pop\n  mload(0x40)\n  dup1\n  0x40\n  add\n  0x40\n  mstore\n  dup1\n  0x0e\n  dup2\n  mstore\n  0x20\n  add\n  0x626565662d6a65726b792e706e67000000000000000000000000000000000000\n  dup2\n  mstore\n  pop\n    /* \"blockchain/contracts/VendingMachine.sol\":2764:2775  _addProduct */\n  shl(0x20, tag_11)\n    /* \"blockchain/contracts/VendingMachine.sol\":2764:2842  _addProduct(\"C5\", 175 * SMALL_GWEI_MULTIPLIER, \"Beef Jerky\", \"beef-jerky.png\") */\n  0x20\n  shr\n  jump\t// in\ntag_38:\n    /* \"blockchain/contracts/VendingMachine.sol\":2852:2930  _addProduct(\"D1\", 125 * SMALL_GWEI_MULTIPLIER, \"KitKat Biscuit\", \"kitkat.png\") */\n  tag_40\n  mload(0x40)\n  dup1\n  0x40\n  add\n  0x40\n  mstore\n  dup1\n  0x02\n  dup2\n  mstore\n  0x20\n  add\n  0x4431000000000000000000000000000000000000000000000000000000000000\n  dup2\n  mstore\n  pop\n    /* \"blockchain/contracts/VendingMachine.sol\":1011:1016  10**7 */\n  0x989680\n    /* \"blockchain/contracts/VendingMachine.sol\":2870:2873  125 */\n  0x7d\n    /* \"blockchain/contracts/VendingMachine.sol\":2870:2897  125 * SMALL_GWEI_MULTIPLIER */\n  tag_41\n  swap2\n  swap1\n  tag_10\n  jump\t// in\ntag_41:\n    /* \"blockchain/contracts/VendingMachine.sol\":2852:2930  _addProduct(\"D1\", 125 * SMALL_GWEI_MULTIPLIER, \"KitKat Biscuit\", \"kitkat.png\") */\n  mload(0x40)\n  dup1\n  0x40\n  add\n  0x40\n  mstore\n  dup1\n  0x0e\n  dup2\n  mstore\n  0x20\n  add\n  0x4b69744b61742042697363756974000000000000000000000000000000000000\n  dup2\n  mstore\n  pop\n  mload(0x40)\n  dup1\n  0x40\n  add\n  0x40\n  mstore\n  dup1\n  0x0a\n  dup2\n  mstore\n  0x20\n  add\n  0x6b69746b61742e706e6700000000000000000000000000000000000000000000\n  dup2\n  mstore\n  pop\n    /* \"blockchain/contracts/VendingMachine.sol\":2852:2863  _addProduct */\n  shl(0x20, tag_11)\n    /* \"blockchain/contracts/VendingMachine.sol\":2852:2930  _addProduct(\"D1\", 125 * SMALL_GWEI_MULTIPLIER, \"KitKat Biscuit\", \"kitkat.png\") */\n  0x20\n  shr\n  jump\t// in\ntag_40:\n    /* \"blockchain/contracts/VendingMachine.sol\":2940:3013  _addProduct(\"D2\", 125 * SMALL_GWEI_MULTIPLIER, \"Pop Corn\", \"popcorn.png\") */\n  tag_42\n  mload(0x40)\n  dup1\n  0x40\n  add\n  0x40\n  mstore\n  dup1\n  0x02\n  dup2\n  mstore\n  0x20\n  add\n  0x4432000000000000000000000000000000000000000000000000000000000000\n  dup2\n  mstore\n  pop\n    /* \"blockchain/contracts/VendingMachine.sol\":1011:1016  10**7 */\n  0x989680\n    /* \"blockchain/contracts/VendingMachine.sol\":2958:2961  125 */\n  0x7d\n    /* \"blockchain/contracts/VendingMachine.sol\":2958:2985  125 * SMALL_GWEI_MULTIPLIER */\n  tag_43\n  swap2\n  swap1\n  tag_10\n  jump\t// in\ntag_43:\n    /* \"blockchain/contracts/VendingMachine.sol\":2940:3013  _addProduct(\"D2\", 125 * SMALL_GWEI_MULTIPLIER, \"Pop Corn\", \"popcorn.png\") */\n  mload(0x40)\n  dup1\n  0x40\n  add\n  0x40\n  mstore\n  dup1\n  0x08\n  dup2\n  mstore\n  0x20\n  add\n  0x506f7020436f726e000000000000000000000000000000000000000000000000\n  dup2\n  mstore\n  pop\n  mload(0x40)\n  dup1\n  0x40\n  add\n  0x40\n  mstore\n  dup1\n  0x0b\n  dup2\n  mstore\n  0x20\n  add\n  0x706f70636f726e2e706e67000000000000000000000000000000000000000000\n  dup2\n  mstore\n  pop\n    /* \"blockchain/contracts/VendingMachine.sol\":2940:2951  _addProduct */\n  shl(0x20, tag_11)\n    /* \"blockchain/contracts/VendingMachine.sol\":2940:3013  _addProduct(\"D2\", 125 * SMALL_GWEI_MULTIPLIER, \"Pop Corn\", \"popcorn.png\") */\n  0x20\n  shr\n  jump\t// in\ntag_42:\n    /* \"blockchain/contracts/VendingMachine.sol\":3023:3093  _addProduct(\"D3\", 150 * SMALL_GWEI_MULTIPLIER, \"Twix Bar\", \"twix.png\") */\n  tag_44\n  mload(0x40)\n  dup1\n  0x40\n  add\n  0x40\n  mstore\n  dup1\n  0x02\n  dup2\n  mstore\n  0x20\n  add\n  0x4433000000000000000000000000000000000000000000000000000000000000\n  dup2\n  mstore\n  pop\n    /* \"blockchain/contracts/VendingMachine.sol\":1011:1016  10**7 */\n  0x989680\n    /* \"blockchain/contracts/VendingMachine.sol\":3041:3044  150 */\n  0x96\n    /* \"blockchain/contracts/VendingMachine.sol\":3041:3068  150 * SMALL_GWEI_MULTIPLIER */\n  tag_45\n  swap2\n  swap1\n  tag_10\n  jump\t// in\ntag_45:\n    /* \"blockchain/contracts/VendingMachine.sol\":3023:3093  _addProduct(\"D3\", 150 * SMALL_GWEI_MULTIPLIER, \"Twix Bar\", \"twix.png\") */\n  mload(0x40)\n  dup1\n  0x40\n  add\n  0x40\n  mstore\n  dup1\n  0x08\n  dup2\n  mstore\n  0x20\n  add\n  0x5477697820426172000000000000000000000000000000000000000000000000\n  dup2\n  mstore\n  pop\n  mload(0x40)\n  dup1\n  0x40\n  add\n  0x40\n  mstore\n  dup1\n  0x08\n  dup2\n  mstore\n  0x20\n  add\n  0x747769782e706e67000000000000000000000000000000000000000000000000\n  dup2\n  mstore\n  pop\n    /* \"blockchain/contracts/VendingMachine.sol\":3023:3034  _addProduct */\n  shl(0x20, tag_11)\n    /* \"blockchain/contracts/VendingMachine.sol\":3023:3093  _addProduct(\"D3\", 150 * SMALL_GWEI_MULTIPLIER, \"Twix Bar\", \"twix.png\") */\n  0x20\n  shr\n  jump\t// in\ntag_44:\n    /* \"blockchain/contracts/VendingMachine.sol\":3103:3171  _addProduct(\"D4\", 125 * SMALL_GWEI_MULTIPLIER, \"Donut\", \"donut.png\") */\n  tag_46\n  mload(0x40)\n  dup1\n  0x40\n  add\n  0x40\n  mstore\n  dup1\n  0x02\n  dup2\n  mstore\n  0x20\n  add\n  0x4434000000000000000000000000000000000000000000000000000000000000\n  dup2\n  mstore\n  pop\n    /* \"blockchain/contracts/VendingMachine.sol\":1011:1016  10**7 */\n  0x989680\n    /* \"blockchain/contracts/VendingMachine.sol\":3121:3124  125 */\n  0x7d\n    /* \"blockchain/contracts/VendingMachine.sol\":3121:3148  125 * SMALL_GWEI_MULTIPLIER */\n  tag_47\n  swap2\n  swap1\n  tag_10\n  jump\t// in\ntag_47:\n    /* \"blockchain/contracts/VendingMachine.sol\":3103:3171  _addProduct(\"D4\", 125 * SMALL_GWEI_MULTIPLIER, \"Donut\", \"donut.png\") */\n  mload(0x40)\n  dup1\n  0x40\n  add\n  0x40\n  mstore\n  dup1\n  0x05\n  dup2\n  mstore\n  0x20\n  add\n  0x446f6e7574000000000000000000000000000000000000000000000000000000\n  dup2\n  mstore\n  pop\n  mload(0x40)\n  dup1\n  0x40\n  add\n  0x40\n  mstore\n  dup1\n  0x09\n  dup2\n  mstore\n  0x20\n  add\n  0x646f6e75742e706e670000000000000000000000000000000000000000000000\n  dup2\n  mstore\n  pop\n    /* \"blockchain/contracts/VendingMachine.sol\":3103:3114  _addProduct */\n  shl(0x20, tag_11)\n    /* \"blockchain/contracts/VendingMachine.sol\":3103:3171  _addProduct(\"D4\", 125 * SMALL_GWEI_MULTIPLIER, \"Donut\", \"donut.png\") */\n  0x20\n  shr\n  jump\t// in\ntag_46:\n    /* \"blockchain/contracts/VendingMachine.sol\":3181:3253  _addProduct(\"D5\", 125 * SMALL_GWEI_MULTIPLIER, \"Red Apple\", \"apple.png\") */\n  tag_48\n  mload(0x40)\n  dup1\n  0x40\n  add\n  0x40\n  mstore\n  dup1\n  0x02\n  dup2\n  mstore\n  0x20\n  add\n  0x4435000000000000000000000000000000000000000000000000000000000000\n  dup2\n  mstore\n  pop\n    /* \"blockchain/contracts/VendingMachine.sol\":1011:1016  10**7 */\n  0x989680\n    /* \"blockchain/contracts/VendingMachine.sol\":3199:3202  125 */\n  0x7d\n    /* \"blockchain/contracts/VendingMachine.sol\":3199:3226  125 * SMALL_GWEI_MULTIPLIER */\n  tag_49\n  swap2\n  swap1\n  tag_10\n  jump\t// in\ntag_49:\n    /* \"blockchain/contracts/VendingMachine.sol\":3181:3253  _addProduct(\"D5\", 125 * SMALL_GWEI_MULTIPLIER, \"Red Apple\", \"apple.png\") */\n  mload(0x40)\n  dup1\n  0x40\n  add\n  0x40\n  mstore\n  dup1\n  0x09\n  dup2\n  mstore\n  0x20\n  add\n  0x526564204170706c650000000000000000000000000000000000000000000000\n  dup2\n  mstore\n  pop\n  mload(0x40)\n  dup1\n  0x40\n  add\n  0x40\n  mstore\n  dup1\n  0x09\n  dup2\n  mstore\n  0x20\n  add\n  0x6170706c652e706e670000000000000000000000000000000000000000000000\n  dup2\n  mstore\n  pop\n    /* \"blockchain/contracts/VendingMachine.sol\":3181:3192  _addProduct */\n  shl(0x20, tag_11)\n    /* \"blockchain/contracts/VendingMachine.sol\":3181:3253  _addProduct(\"D5\", 125 * SMALL_GWEI_MULTIPLIER, \"Red Apple\", \"apple.png\") */\n  0x20\n  shr\n  jump\t// in\ntag_48:\n    /* \"blockchain/contracts/VendingMachine.sol\":1596:3260  function initializeProducts() private {... */\n  jump\t// out\n    /* \"blockchain/contracts/VendingMachine.sol\":3266:3583  function _addProduct(string memory code, uint256 price, string memory name, string memory imageKey) private {... */\ntag_11:\n    /* \"blockchain/contracts/VendingMachine.sol\":3384:3406  string memory imageCID */\n  0x00\n    /* \"blockchain/contracts/VendingMachine.sol\":3409:3438  concatIPFSReference(imageKey) */\n  tag_51\n    /* \"blockchain/contracts/VendingMachine.sol\":3429:3437  imageKey */\n  dup3\n    /* \"blockchain/contracts/VendingMachine.sol\":3409:3428  concatIPFSReference */\n  shl(0x20, tag_52)\n    /* \"blockchain/contracts/VendingMachine.sol\":3409:3438  concatIPFSReference(imageKey) */\n  0x20\n  shr\n  jump\t// in\ntag_51:\n    /* \"blockchain/contracts/VendingMachine.sol\":3384:3438  string memory imageCID = concatIPFSReference(imageKey) */\n  swap1\n  pop\n    /* \"blockchain/contracts/VendingMachine.sol\":3448:3456  products */\n  0x01\n    /* \"blockchain/contracts/VendingMachine.sol\":3462:3513  ProductLibrary.Product(code, price, name, imageCID) */\n  mload(0x40)\n  dup1\n  0x80\n  add\n  0x40\n  mstore\n  dup1\n    /* \"blockchain/contracts/VendingMachine.sol\":3485:3489  code */\n  dup8\n    /* \"blockchain/contracts/VendingMachine.sol\":3462:3513  ProductLibrary.Product(code, price, name, imageCID) */\n  dup2\n  mstore\n  0x20\n  add\n    /* \"blockchain/contracts/VendingMachine.sol\":3491:3496  price */\n  dup7\n    /* \"blockchain/contracts/VendingMachine.sol\":3462:3513  ProductLibrary.Product(code, price, name, imageCID) */\n  dup2\n  mstore\n  0x20\n  add\n    /* \"blockchain/contracts/VendingMachine.sol\":3498:3502  name */\n  dup6\n    /* \"blockchain/contracts/VendingMachine.sol\":3462:3513  ProductLibrary.Product(code, price, name, imageCID) */\n  dup2\n  mstore\n  0x20\n  add\n    /* \"blockchain/contracts/VendingMachine.sol\":3504:3512  imageCID */\n  dup4\n    /* \"blockchain/contracts/VendingMachine.sol\":3462:3513  ProductLibrary.Product(code, price, name, imageCID) */\n  dup2\n  mstore\n  pop\n    /* \"blockchain/contracts/VendingMachine.sol\":3448:3514  products.push(ProductLibrary.Product(code, price, name, imageCID)) */\n  swap1\n  dup1\n  0x01\n  dup2\n  sload\n  add\n  dup1\n  dup3\n  sstore\n  dup1\n  swap2\n  pop\n  pop\n  0x01\n  swap1\n  sub\n  swap1\n  0x00\n  mstore\n  keccak256(0x00, 0x20)\n  swap1\n  0x04\n  mul\n  add\n  0x00\n  swap1\n  swap2\n  swap1\n  swap2\n  swap1\n  swap2\n  pop\n  0x00\n  dup3\n  add\n  mload\n  dup2\n  0x00\n  add\n  swap1\n  dup2\n  tag_54\n  swap2\n  swap1\n  tag_55\n  jump\t// in\ntag_54:\n  pop\n  0x20\n  dup3\n  add\n  mload\n  dup2\n  0x01\n  add\n  sstore\n  0x40\n  dup3\n  add\n  mload\n  dup2\n  0x02\n  add\n  swap1\n  dup2\n  tag_56\n  swap2\n  swap1\n  tag_55\n  jump\t// in\ntag_56:\n  pop\n  0x60\n  dup3\n  add\n  mload\n  dup2\n  0x03\n  add\n  swap1\n  dup2\n  tag_57\n  swap2\n  swap1\n  tag_55\n  jump\t// in\ntag_57:\n  pop\n  pop\n  pop\n    /* \"blockchain/contracts/VendingMachine.sol\":3529:3576  ProductInitialized(code, name, price, imageCID) */\n  0x8ca0e4a383b33c2f01484c7ceb45c2555c4997b82d3aa641e9807527f56237fc\n    /* \"blockchain/contracts/VendingMachine.sol\":3548:3552  code */\n  dup6\n    /* \"blockchain/contracts/VendingMachine.sol\":3554:3558  name */\n  dup5\n    /* \"blockchain/contracts/VendingMachine.sol\":3560:3565  price */\n  dup7\n    /* \"blockchain/contracts/VendingMachine.sol\":3567:3575  imageCID */\n  dup5\n    /* \"blockchain/contracts/VendingMachine.sol\":3529:3576  ProductInitialized(code, name, price, imageCID) */\n  mload(0x40)\n  tag_58\n  swap5\n  swap4\n  swap3\n  swap2\n  swap1\n  tag_59\n  jump\t// in\ntag_58:\n  mload(0x40)\n  dup1\n  swap2\n  sub\n  swap1\n  log1\n    /* \"blockchain/contracts/VendingMachine.sol\":3374:3583  {... */\n  pop\n    /* \"blockchain/contracts/VendingMachine.sol\":3266:3583  function _addProduct(string memory code, uint256 price, string memory name, string memory imageKey) private {... */\n  pop\n  pop\n  pop\n  pop\n  jump\t// out\n    /* \"blockchain/contracts/VendingMachine.sol\":1445:1590  function concatIPFSReference(string memory _key) pure private returns (string memory) {... */\ntag_52:\n    /* \"blockchain/contracts/VendingMachine.sol\":1516:1529  string memory */\n  0x60\n    /* \"blockchain/contracts/VendingMachine.sol\":1562:1576  IPFS_REFERENCE */\n  mload(0x40)\n  dup1\n  0x60\n  add\n  0x40\n  mstore\n  dup1\n  0x2f\n  dup2\n  mstore\n  0x20\n  add\n  data_ec9eb78cc41e57eb52d56b49fd2dd4ed8c3cd69def9c06a39aaca306c1f4712f\n  0x2f\n  swap2\n  codecopy\n    /* \"blockchain/contracts/VendingMachine.sol\":1578:1582  _key */\n  dup3\n    /* \"blockchain/contracts/VendingMachine.sol\":1548:1583  string.concat(IPFS_REFERENCE, _key) */\n  add(0x20, mload(0x40))\n  tag_61\n  swap3\n  swap2\n  swap1\n  tag_62\n  jump\t// in\ntag_61:\n  mload(0x40)\n  0x20\n  dup2\n  dup4\n  sub\n  sub\n  dup2\n  mstore\n  swap1\n  0x40\n  mstore\n    /* \"blockchain/contracts/VendingMachine.sol\":1541:1583  return string.concat(IPFS_REFERENCE, _key) */\n  swap1\n  pop\n    /* \"blockchain/contracts/VendingMachine.sol\":1445:1590  function concatIPFSReference(string memory _key) pure private returns (string memory) {... */\n  swap2\n  swap1\n  pop\n  jump\t// out\n    /* \"#utility.yul\":7:84   */\ntag_63:\n    /* \"#utility.yul\":44:51   */\n  0x00\n    /* \"#utility.yul\":73:78   */\n  dup2\n    /* \"#utility.yul\":62:78   */\n  swap1\n  pop\n    /* \"#utility.yul\":7:84   */\n  swap2\n  swap1\n  pop\n  jump\t// out\n    /* \"#utility.yul\":90:270   */\ntag_64:\n    /* \"#utility.yul\":138:215   */\n  0x4e487b7100000000000000000000000000000000000000000000000000000000\n    /* \"#utility.yul\":135:136   */\n  0x00\n    /* \"#utility.yul\":128:216   */\n  mstore\n    /* \"#utility.yul\":235:239   */\n  0x11\n    /* \"#utility.yul\":232:233   */\n  0x04\n    /* \"#utility.yul\":225:240   */\n  mstore\n    /* \"#utility.yul\":259:263   */\n  0x24\n    /* \"#utility.yul\":256:257   */\n  0x00\n    /* \"#utility.yul\":249:264   */\n  revert\n    /* \"#utility.yul\":276:686   */\ntag_10:\n    /* \"#utility.yul\":316:323   */\n  0x00\n    /* \"#utility.yul\":339:359   */\n  tag_95\n    /* \"#utility.yul\":357:358   */\n  dup3\n    /* \"#utility.yul\":339:359   */\n  tag_63\n  jump\t// in\ntag_95:\n    /* \"#utility.yul\":334:359   */\n  swap2\n  pop\n    /* \"#utility.yul\":373:393   */\n  tag_96\n    /* \"#utility.yul\":391:392   */\n  dup4\n    /* \"#utility.yul\":373:393   */\n  tag_63\n  jump\t// in\ntag_96:\n    /* \"#utility.yul\":368:393   */\n  swap3\n  pop\n    /* \"#utility.yul\":428:429   */\n  dup3\n    /* \"#utility.yul\":425:426   */\n  dup3\n    /* \"#utility.yul\":421:430   */\n  mul\n    /* \"#utility.yul\":450:480   */\n  tag_97\n    /* \"#utility.yul\":468:479   */\n  dup2\n    /* \"#utility.yul\":450:480   */\n  tag_63\n  jump\t// in\ntag_97:\n    /* \"#utility.yul\":439:480   */\n  swap2\n  pop\n    /* \"#utility.yul\":629:630   */\n  dup3\n    /* \"#utility.yul\":620:627   */\n  dup3\n    /* \"#utility.yul\":616:631   */\n  div\n    /* \"#utility.yul\":613:614   */\n  dup5\n    /* \"#utility.yul\":610:632   */\n  eq\n    /* \"#utility.yul\":590:591   */\n  dup4\n    /* \"#utility.yul\":583:592   */\n  iszero\n    /* \"#utility.yul\":563:646   */\n  or\n    /* \"#utility.yul\":540:679   */\n  tag_98\n  jumpi\n    /* \"#utility.yul\":659:677   */\n  tag_99\n  tag_64\n  jump\t// in\ntag_99:\n    /* \"#utility.yul\":540:679   */\ntag_98:\n    /* \"#utility.yul\":324:686   */\n  pop\n    /* \"#utility.yul\":276:686   */\n  swap3\n  swap2\n  pop\n  pop\n  jump\t// out\n    /* \"#utility.yul\":692:791   */\ntag_65:\n    /* \"#utility.yul\":744:750   */\n  0x00\n    /* \"#utility.yul\":778:783   */\n  dup2\n    /* \"#utility.yul\":772:784   */\n  mload\n    /* \"#utility.yul\":762:784   */\n  swap1\n  pop\n    /* \"#utility.yul\":692:791   */\n  swap2\n  swap1\n  pop\n  jump\t// out\n    /* \"#utility.yul\":797:977   */\ntag_66:\n    /* \"#utility.yul\":845:922   */\n  0x4e487b7100000000000000000000000000000000000000000000000000000000\n    /* \"#utility.yul\":842:843   */\n  0x00\n    /* \"#utility.yul\":835:923   */\n  mstore\n    /* \"#utility.yul\":942:946   */\n  0x41\n    /* \"#utility.yul\":939:940   */\n  0x04\n    /* \"#utility.yul\":932:947   */\n  mstore\n    /* \"#utility.yul\":966:970   */\n  0x24\n    /* \"#utility.yul\":963:964   */\n  0x00\n    /* \"#utility.yul\":956:971   */\n  revert\n    /* \"#utility.yul\":983:1163   */\ntag_67:\n    /* \"#utility.yul\":1031:1108   */\n  0x4e487b7100000000000000000000000000000000000000000000000000000000\n    /* \"#utility.yul\":1028:1029   */\n  0x00\n    /* \"#utility.yul\":1021:1109   */\n  mstore\n    /* \"#utility.yul\":1128:1132   */\n  0x22\n    /* \"#utility.yul\":1125:1126   */\n  0x04\n    /* \"#utility.yul\":1118:1133   */\n  mstore\n    /* \"#utility.yul\":1152:1156   */\n  0x24\n    /* \"#utility.yul\":1149:1150   */\n  0x00\n    /* \"#utility.yul\":1142:1157   */\n  revert\n    /* \"#utility.yul\":1169:1489   */\ntag_68:\n    /* \"#utility.yul\":1213:1219   */\n  0x00\n    /* \"#utility.yul\":1250:1251   */\n  0x02\n    /* \"#utility.yul\":1244:1248   */\n  dup3\n    /* \"#utility.yul\":1240:1252   */\n  div\n    /* \"#utility.yul\":1230:1252   */\n  swap1\n  pop\n    /* \"#utility.yul\":1297:1298   */\n  0x01\n    /* \"#utility.yul\":1291:1295   */\n  dup3\n    /* \"#utility.yul\":1287:1299   */\n  and\n    /* \"#utility.yul\":1318:1336   */\n  dup1\n    /* \"#utility.yul\":1308:1389   */\n  tag_104\n  jumpi\n    /* \"#utility.yul\":1374:1378   */\n  0x7f\n    /* \"#utility.yul\":1366:1372   */\n  dup3\n    /* \"#utility.yul\":1362:1379   */\n  and\n    /* \"#utility.yul\":1352:1379   */\n  swap2\n  pop\n    /* \"#utility.yul\":1308:1389   */\ntag_104:\n    /* \"#utility.yul\":1436:1438   */\n  0x20\n    /* \"#utility.yul\":1428:1434   */\n  dup3\n    /* \"#utility.yul\":1425:1439   */\n  lt\n    /* \"#utility.yul\":1405:1423   */\n  dup2\n    /* \"#utility.yul\":1402:1440   */\n  sub\n    /* \"#utility.yul\":1399:1483   */\n  tag_105\n  jumpi\n    /* \"#utility.yul\":1455:1473   */\n  tag_106\n  tag_67\n  jump\t// in\ntag_106:\n    /* \"#utility.yul\":1399:1483   */\ntag_105:\n    /* \"#utility.yul\":1220:1489   */\n  pop\n    /* \"#utility.yul\":1169:1489   */\n  swap2\n  swap1\n  pop\n  jump\t// out\n    /* \"#utility.yul\":1495:1636   */\ntag_69:\n    /* \"#utility.yul\":1544:1548   */\n  0x00\n    /* \"#utility.yul\":1567:1570   */\n  dup2\n    /* \"#utility.yul\":1559:1570   */\n  swap1\n  pop\n    /* \"#utility.yul\":1590:1593   */\n  dup2\n    /* \"#utility.yul\":1587:1588   */\n  0x00\n    /* \"#utility.yul\":1580:1594   */\n  mstore\n    /* \"#utility.yul\":1624:1628   */\n  0x20\n    /* \"#utility.yul\":1621:1622   */\n  0x00\n    /* \"#utility.yul\":1611:1629   */\n  keccak256\n    /* \"#utility.yul\":1603:1629   */\n  swap1\n  pop\n    /* \"#utility.yul\":1495:1636   */\n  swap2\n  swap1\n  pop\n  jump\t// out\n    /* \"#utility.yul\":1642:1735   */\ntag_70:\n    /* \"#utility.yul\":1679:1685   */\n  0x00\n    /* \"#utility.yul\":1726:1728   */\n  0x20\n    /* \"#utility.yul\":1721:1723   */\n  0x1f\n    /* \"#utility.yul\":1714:1719   */\n  dup4\n    /* \"#utility.yul\":1710:1724   */\n  add\n    /* \"#utility.yul\":1706:1729   */\n  div\n    /* \"#utility.yul\":1696:1729   */\n  swap1\n  pop\n    /* \"#utility.yul\":1642:1735   */\n  swap2\n  swap1\n  pop\n  jump\t// out\n    /* \"#utility.yul\":1741:1848   */\ntag_71:\n    /* \"#utility.yul\":1785:1793   */\n  0x00\n    /* \"#utility.yul\":1835:1840   */\n  dup3\n    /* \"#utility.yul\":1829:1833   */\n  dup3\n    /* \"#utility.yul\":1825:1841   */\n  shl\n    /* \"#utility.yul\":1804:1841   */\n  swap1\n  pop\n    /* \"#utility.yul\":1741:1848   */\n  swap3\n  swap2\n  pop\n  pop\n  jump\t// out\n    /* \"#utility.yul\":1854:2247   */\ntag_72:\n    /* \"#utility.yul\":1923:1929   */\n  0x00\n    /* \"#utility.yul\":1973:1974   */\n  0x08\n    /* \"#utility.yul\":1961:1971   */\n  dup4\n    /* \"#utility.yul\":1957:1975   */\n  mul\n    /* \"#utility.yul\":1996:2093   */\n  tag_111\n    /* \"#utility.yul\":2026:2092   */\n  0xffffffffffffffffffffffffffffffffffffffffffffffffffffffffffffffff\n    /* \"#utility.yul\":2015:2024   */\n  dup3\n    /* \"#utility.yul\":1996:2093   */\n  tag_71\n  jump\t// in\ntag_111:\n    /* \"#utility.yul\":2114:2153   */\n  tag_112\n    /* \"#utility.yul\":2144:2152   */\n  dup7\n    /* \"#utility.yul\":2133:2142   */\n  dup4\n    /* \"#utility.yul\":2114:2153   */\n  tag_71\n  jump\t// in\ntag_112:\n    /* \"#utility.yul\":2102:2153   */\n  swap6\n  pop\n    /* \"#utility.yul\":2186:2190   */\n  dup1\n    /* \"#utility.yul\":2182:2191   */\n  not\n    /* \"#utility.yul\":2175:2180   */\n  dup5\n    /* \"#utility.yul\":2171:2192   */\n  and\n    /* \"#utility.yul\":2162:2192   */\n  swap4\n  pop\n    /* \"#utility.yul\":2235:2239   */\n  dup1\n    /* \"#utility.yul\":2225:2233   */\n  dup7\n    /* \"#utility.yul\":2221:2240   */\n  and\n    /* \"#utility.yul\":2214:2219   */\n  dup5\n    /* \"#utility.yul\":2211:2241   */\n  or\n    /* \"#utility.yul\":2201:2241   */\n  swap3\n  pop\n    /* \"#utility.yul\":1930:2247   */\n  pop\n  pop\n    /* \"#utility.yul\":1854:2247   */\n  swap4\n  swap3\n  pop\n  pop\n  pop\n  jump\t// out\n    /* \"#utility.yul\":2253:2313   */\ntag_73:\n    /* \"#utility.yul\":2281:2284   */\n  0x00\n    /* \"#utility.yul\":2302:2307   */\n  dup2\n    /* \"#utility.yul\":2295:2307   */\n  swap1\n  pop\n    /* \"#utility.yul\":2253:2313   */\n  swap2\n  swap1\n  pop\n  jump\t// out\n    /* \"#utility.yul\":2319:2461   */\ntag_74:\n    /* \"#utility.yul\":2369:2378   */\n  0x00\n    /* \"#utility.yul\":2402:2455   */\n  tag_115\n    /* \"#utility.yul\":2420:2454   */\n  tag_116\n    /* \"#utility.yul\":2429:2453   */\n  tag_117\n    /* \"#utility.yul\":2447:2452   */\n  dup5\n    /* \"#utility.yul\":2429:2453   */\n  tag_63\n  jump\t// in\ntag_117:\n    /* \"#utility.yul\":2420:2454   */\n  tag_73\n  jump\t// in\ntag_116:\n    /* \"#utility.yul\":2402:2455   */\n  tag_63\n  jump\t// in\ntag_115:\n    /* \"#utility.yul\":2389:2455   */\n  swap1\n  pop\n    /* \"#utility.yul\":2319:2461   */\n  swap2\n  swap1\n  pop\n  jump\t// out\n    /* \"#utility.yul\":2467:2542   */\ntag_75:\n    /* \"#utility.yul\":2510:2513   */\n  0x00\n    /* \"#utility.yul\":2531:2536   */\n  dup2\n    /* \"#utility.yul\":2524:2536   */\n  swap1\n  pop\n    /* \"#utility.yul\":2467:2542   */\n  swap2\n  swap1\n  pop\n  jump\t// out\n    /* \"#utility.yul\":2548:2817   */\ntag_76:\n    /* \"#utility.yul\":2658:2697   */\n  tag_120\n    /* \"#utility.yul\":2689:2696   */\n  dup4\n    /* \"#utility.yul\":2658:2697   */\n  tag_74\n  jump\t// in\ntag_120:\n    /* \"#utility.yul\":2719:2810   */\n  tag_121\n    /* \"#utility.yul\":2768:2809   */\n  tag_122\n    /* \"#utility.yul\":2792:2808   */\n  dup3\n    /* \"#utility.yul\":2768:2809   */\n  tag_75\n  jump\t// in\ntag_122:\n    /* \"#utility.yul\":2760:2766   */\n  dup5\n    /* \"#utility.yul\":2753:2757   */\n  dup5\n    /* \"#utility.yul\":2747:2758   */\n  sload\n    /* \"#utility.yul\":2719:2810   */\n  tag_72\n  jump\t// in\ntag_121:\n    /* \"#utility.yul\":2713:2717   */\n  dup3\n    /* \"#utility.yul\":2706:2811   */\n  sstore\n    /* \"#utility.yul\":2624:2817   */\n  pop\n    /* \"#utility.yul\":2548:2817   */\n  pop\n  pop\n  pop\n  jump\t// out\n    /* \"#utility.yul\":2823:2896   */\ntag_77:\n    /* \"#utility.yul\":2868:2871   */\n  0x00\n    /* \"#utility.yul\":2823:2896   */\n  swap1\n  jump\t// out\n    /* \"#utility.yul\":2902:3091   */\ntag_78:\n    /* \"#utility.yul\":2979:3011   */\n  tag_125\n  tag_77\n  jump\t// in\ntag_125:\n    /* \"#utility.yul\":3020:3085   */\n  tag_126\n    /* \"#utility.yul\":3078:3084   */\n  dup2\n    /* \"#utility.yul\":3070:3076   */\n  dup5\n    /* \"#utility.yul\":3064:3068   */\n  dup5\n    /* \"#utility.yul\":3020:3085   */\n  tag_76\n  jump\t// in\ntag_126:\n    /* \"#utility.yul\":2955:3091   */\n  pop\n    /* \"#utility.yul\":2902:3091   */\n  pop\n  pop\n  jump\t// out\n    /* \"#utility.yul\":3097:3283   */\ntag_79:\n    /* \"#utility.yul\":3157:3277   */\ntag_128:\n    /* \"#utility.yul\":3174:3177   */\n  dup2\n    /* \"#utility.yul\":3167:3172   */\n  dup2\n    /* \"#utility.yul\":3164:3178   */\n  lt\n    /* \"#utility.yul\":3157:3277   */\n  iszero\n  tag_130\n  jumpi\n    /* \"#utility.yul\":3228:3267   */\n  tag_131\n    /* \"#utility.yul\":3265:3266   */\n  0x00\n    /* \"#utility.yul\":3258:3263   */\n  dup3\n    /* \"#utility.yul\":3228:3267   */\n  tag_78\n  jump\t// in\ntag_131:\n    /* \"#utility.yul\":3201:3202   */\n  0x01\n    /* \"#utility.yul\":3194:3199   */\n  dup2\n    /* \"#utility.yul\":3190:3203   */\n  add\n    /* \"#utility.yul\":3181:3203   */\n  swap1\n  pop\n    /* \"#utility.yul\":3157:3277   */\n  jump(tag_128)\ntag_130:\n    /* \"#utility.yul\":3097:3283   */\n  pop\n  pop\n  jump\t// out\n    /* \"#utility.yul\":3289:3832   */\ntag_80:\n    /* \"#utility.yul\":3390:3392   */\n  0x1f\n    /* \"#utility.yul\":3385:3388   */\n  dup3\n    /* \"#utility.yul\":3382:3393   */\n  gt\n    /* \"#utility.yul\":3379:3825   */\n  iszero\n  tag_133\n  jumpi\n    /* \"#utility.yul\":3424:3462   */\n  tag_134\n    /* \"#utility.yul\":3456:3461   */\n  dup2\n    /* \"#utility.yul\":3424:3462   */\n  tag_69\n  jump\t// in\ntag_134:\n    /* \"#utility.yul\":3508:3537   */\n  tag_135\n    /* \"#utility.yul\":3526:3536   */\n  dup5\n    /* \"#utility.yul\":3508:3537   */\n  tag_70\n  jump\t// in\ntag_135:\n    /* \"#utility.yul\":3498:3506   */\n  dup2\n    /* \"#utility.yul\":3494:3538   */\n  add\n    /* \"#utility.yul\":3691:3693   */\n  0x20\n    /* \"#utility.yul\":3679:3689   */\n  dup6\n    /* \"#utility.yul\":3676:3694   */\n  lt\n    /* \"#utility.yul\":3673:3722   */\n  iszero\n  tag_136\n  jumpi\n    /* \"#utility.yul\":3712:3720   */\n  dup2\n    /* \"#utility.yul\":3697:3720   */\n  swap1\n  pop\n    /* \"#utility.yul\":3673:3722   */\ntag_136:\n    /* \"#utility.yul\":3735:3815   */\n  tag_137\n    /* \"#utility.yul\":3791:3813   */\n  tag_138\n    /* \"#utility.yul\":3809:3812   */\n  dup6\n    /* \"#utility.yul\":3791:3813   */\n  tag_70\n  jump\t// in\ntag_138:\n    /* \"#utility.yul\":3781:3789   */\n  dup4\n    /* \"#utility.yul\":3777:3814   */\n  add\n    /* \"#utility.yul\":3764:3775   */\n  dup3\n    /* \"#utility.yul\":3735:3815   */\n  tag_79\n  jump\t// in\ntag_137:\n    /* \"#utility.yul\":3394:3825   */\n  pop\n  pop\n    /* \"#utility.yul\":3379:3825   */\ntag_133:\n    /* \"#utility.yul\":3289:3832   */\n  pop\n  pop\n  pop\n  jump\t// out\n    /* \"#utility.yul\":3838:3955   */\ntag_81:\n    /* \"#utility.yul\":3892:3900   */\n  0x00\n    /* \"#utility.yul\":3942:3947   */\n  dup3\n    /* \"#utility.yul\":3936:3940   */\n  dup3\n    /* \"#utility.yul\":3932:3948   */\n  shr\n    /* \"#utility.yul\":3911:3948   */\n  swap1\n  pop\n    /* \"#utility.yul\":3838:3955   */\n  swap3\n  swap2\n  pop\n  pop\n  jump\t// out\n    /* \"#utility.yul\":3961:4130   */\ntag_82:\n    /* \"#utility.yul\":4005:4011   */\n  0x00\n    /* \"#utility.yul\":4038:4089   */\n  tag_141\n    /* \"#utility.yul\":4086:4087   */\n  0x00\n    /* \"#utility.yul\":4082:4088   */\n  not\n    /* \"#utility.yul\":4074:4079   */\n  dup5\n    /* \"#utility.yul\":4071:4072   */\n  0x08\n    /* \"#utility.yul\":4067:4080   */\n  mul\n    /* \"#utility.yul\":4038:4089   */\n  tag_81\n  jump\t// in\ntag_141:\n    /* \"#utility.yul\":4034:4090   */\n  not\n    /* \"#utility.yul\":4119:4123   */\n  dup1\n    /* \"#utility.yul\":4113:4117   */\n  dup4\n    /* \"#utility.yul\":4109:4124   */\n  and\n    /* \"#utility.yul\":4099:4124   */\n  swap2\n  pop\n    /* \"#utility.yul\":4012:4130   */\n  pop\n    /* \"#utility.yul\":3961:4130   */\n  swap3\n  swap2\n  pop\n  pop\n  jump\t// out\n    /* \"#utility.yul\":4135:4430   */\ntag_83:\n    /* \"#utility.yul\":4211:4215   */\n  0x00\n    /* \"#utility.yul\":4357:4386   */\n  tag_143\n    /* \"#utility.yul\":4382:4385   */\n  dup4\n    /* \"#utility.yul\":4376:4380   */\n  dup4\n    /* \"#utility.yul\":4357:4386   */\n  tag_82\n  jump\t// in\ntag_143:\n    /* \"#utility.yul\":4349:4386   */\n  swap2\n  pop\n    /* \"#utility.yul\":4419:4422   */\n  dup3\n    /* \"#utility.yul\":4416:4417   */\n  0x02\n    /* \"#utility.yul\":4412:4423   */\n  mul\n    /* \"#utility.yul\":4406:4410   */\n  dup3\n    /* \"#utility.yul\":4403:4424   */\n  or\n    /* \"#utility.yul\":4395:4424   */\n  swap1\n  pop\n    /* \"#utility.yul\":4135:4430   */\n  swap3\n  swap2\n  pop\n  pop\n  jump\t// out\n    /* \"#utility.yul\":4435:5830   */\ntag_55:\n    /* \"#utility.yul\":4552:4589   */\n  tag_145\n    /* \"#utility.yul\":4585:4588   */\n  dup3\n    /* \"#utility.yul\":4552:4589   */\n  tag_65\n  jump\t// in\ntag_145:\n    /* \"#utility.yul\":4654:4672   */\n  0xffffffffffffffff\n    /* \"#utility.yul\":4646:4652   */\n  dup2\n    /* \"#utility.yul\":4643:4673   */\n  gt\n    /* \"#utility.yul\":4640:4696   */\n  iszero\n  tag_146\n  jumpi\n    /* \"#utility.yul\":4676:4694   */\n  tag_147\n  tag_66\n  jump\t// in\ntag_147:\n    /* \"#utility.yul\":4640:4696   */\ntag_146:\n    /* \"#utility.yul\":4720:4758   */\n  tag_148\n    /* \"#utility.yul\":4752:4756   */\n  dup3\n    /* \"#utility.yul\":4746:4757   */\n  sload\n    /* \"#utility.yul\":4720:4758   */\n  tag_68\n  jump\t// in\ntag_148:\n    /* \"#utility.yul\":4805:4872   */\n  tag_149\n    /* \"#utility.yul\":4865:4871   */\n  dup3\n    /* \"#utility.yul\":4857:4863   */\n  dup3\n    /* \"#utility.yul\":4851:4855   */\n  dup6\n    /* \"#utility.yul\":4805:4872   */\n  tag_80\n  jump\t// in\ntag_149:\n    /* \"#utility.yul\":4899:4900   */\n  0x00\n    /* \"#utility.yul\":4923:4927   */\n  0x20\n    /* \"#utility.yul\":4910:4927   */\n  swap1\n  pop\n    /* \"#utility.yul\":4955:4957   */\n  0x1f\n    /* \"#utility.yul\":4947:4953   */\n  dup4\n    /* \"#utility.yul\":4944:4958   */\n  gt\n    /* \"#utility.yul\":4972:4973   */\n  0x01\n    /* \"#utility.yul\":4967:5585   */\n  dup2\n  eq\n  tag_151\n  jumpi\n    /* \"#utility.yul\":5629:5630   */\n  0x00\n    /* \"#utility.yul\":5646:5652   */\n  dup5\n    /* \"#utility.yul\":5643:5720   */\n  iszero\n  tag_152\n  jumpi\n    /* \"#utility.yul\":5695:5704   */\n  dup3\n    /* \"#utility.yul\":5690:5693   */\n  dup8\n    /* \"#utility.yul\":5686:5705   */\n  add\n    /* \"#utility.yul\":5680:5706   */\n  mload\n    /* \"#utility.yul\":5671:5706   */\n  swap1\n  pop\n    /* \"#utility.yul\":5643:5720   */\ntag_152:\n    /* \"#utility.yul\":5746:5813   */\n  tag_153\n    /* \"#utility.yul\":5806:5812   */\n  dup6\n    /* \"#utility.yul\":5799:5804   */\n  dup3\n    /* \"#utility.yul\":5746:5813   */\n  tag_83\n  jump\t// in\ntag_153:\n    /* \"#utility.yul\":5740:5744   */\n  dup7\n    /* \"#utility.yul\":5733:5814   */\n  sstore\n    /* \"#utility.yul\":5602:5824   */\n  pop\n    /* \"#utility.yul\":4937:5824   */\n  jump(tag_150)\n    /* \"#utility.yul\":4967:5585   */\ntag_151:\n    /* \"#utility.yul\":5019:5023   */\n  0x1f\n    /* \"#utility.yul\":5015:5024   */\n  not\n    /* \"#utility.yul\":5007:5013   */\n  dup5\n    /* \"#utility.yul\":5003:5025   */\n  and\n    /* \"#utility.yul\":5053:5090   */\n  tag_154\n    /* \"#utility.yul\":5085:5089   */\n  dup7\n    /* \"#utility.yul\":5053:5090   */\n  tag_69\n  jump\t// in\ntag_154:\n    /* \"#utility.yul\":5112:5113   */\n  0x00\n    /* \"#utility.yul\":5126:5334   */\ntag_155:\n    /* \"#utility.yul\":5140:5147   */\n  dup3\n    /* \"#utility.yul\":5137:5138   */\n  dup2\n    /* \"#utility.yul\":5134:5148   */\n  lt\n    /* \"#utility.yul\":5126:5334   */\n  iszero\n  tag_157\n  jumpi\n    /* \"#utility.yul\":5219:5228   */\n  dup5\n    /* \"#utility.yul\":5214:5217   */\n  dup10\n    /* \"#utility.yul\":5210:5229   */\n  add\n    /* \"#utility.yul\":5204:5230   */\n  mload\n    /* \"#utility.yul\":5196:5202   */\n  dup3\n    /* \"#utility.yul\":5189:5231   */\n  sstore\n    /* \"#utility.yul\":5270:5271   */\n  0x01\n    /* \"#utility.yul\":5262:5268   */\n  dup3\n    /* \"#utility.yul\":5258:5272   */\n  add\n    /* \"#utility.yul\":5248:5272   */\n  swap2\n  pop\n    /* \"#utility.yul\":5317:5319   */\n  0x20\n    /* \"#utility.yul\":5306:5315   */\n  dup6\n    /* \"#utility.yul\":5302:5320   */\n  add\n    /* \"#utility.yul\":5289:5320   */\n  swap5\n  pop\n    /* \"#utility.yul\":5163:5167   */\n  0x20\n    /* \"#utility.yul\":5160:5161   */\n  dup2\n    /* \"#utility.yul\":5156:5168   */\n  add\n    /* \"#utility.yul\":5151:5168   */\n  swap1\n  pop\n    /* \"#utility.yul\":5126:5334   */\n  jump(tag_155)\ntag_157:\n    /* \"#utility.yul\":5362:5368   */\n  dup7\n    /* \"#utility.yul\":5353:5360   */\n  dup4\n    /* \"#utility.yul\":5350:5369   */\n  lt\n    /* \"#utility.yul\":5347:5526   */\n  iszero\n  tag_158\n  jumpi\n    /* \"#utility.yul\":5420:5429   */\n  dup5\n    /* \"#utility.yul\":5415:5418   */\n  dup10\n    /* \"#utility.yul\":5411:5430   */\n  add\n    /* \"#utility.yul\":5405:5431   */\n  mload\n    /* \"#utility.yul\":5463:5511   */\n  tag_159\n    /* \"#utility.yul\":5505:5509   */\n  0x1f\n    /* \"#utility.yul\":5497:5503   */\n  dup10\n    /* \"#utility.yul\":5493:5510   */\n  and\n    /* \"#utility.yul\":5482:5491   */\n  dup3\n    /* \"#utility.yul\":5463:5511   */\n  tag_82\n  jump\t// in\ntag_159:\n    /* \"#utility.yul\":5455:5461   */\n  dup4\n    /* \"#utility.yul\":5448:5512   */\n  sstore\n    /* \"#utility.yul\":5370:5526   */\n  pop\n    /* \"#utility.yul\":5347:5526   */\ntag_158:\n    /* \"#utility.yul\":5572:5573   */\n  0x01\n    /* \"#utility.yul\":5568:5569   */\n  0x02\n    /* \"#utility.yul\":5560:5566   */\n  dup9\n    /* \"#utility.yul\":5556:5570   */\n  mul\n    /* \"#utility.yul\":5552:5574   */\n  add\n    /* \"#utility.yul\":5546:5550   */\n  dup9\n    /* \"#utility.yul\":5539:5575   */\n  sstore\n    /* \"#utility.yul\":4974:5585   */\n  pop\n  pop\n  pop\n    /* \"#utility.yul\":4937:5824   */\ntag_150:\n  pop\n    /* \"#utility.yul\":4527:5830   */\n  pop\n  pop\n  pop\n    /* \"#utility.yul\":4435:5830   */\n  pop\n  pop\n  jump\t// out\n    /* \"#utility.yul\":5836:6005   */\ntag_84:\n    /* \"#utility.yul\":5920:5931   */\n  0x00\n    /* \"#utility.yul\":5954:5960   */\n  dup3\n    /* \"#utility.yul\":5949:5952   */\n  dup3\n    /* \"#utility.yul\":5942:5961   */\n  mstore\n    /* \"#utility.yul\":5994:5998   */\n  0x20\n    /* \"#utility.yul\":5989:5992   */\n  dup3\n    /* \"#utility.yul\":5985:5999   */\n  add\n    /* \"#utility.yul\":5970:5999   */\n  swap1\n  pop\n    /* \"#utility.yul\":5836:6005   */\n  swap3\n  swap2\n  pop\n  pop\n  jump\t// out\n    /* \"#utility.yul\":6011:6150   */\ntag_85:\n    /* \"#utility.yul\":6100:6106   */\n  dup3\n    /* \"#utility.yul\":6095:6098   */\n  dup2\n    /* \"#utility.yul\":6090:6093   */\n  dup4\n    /* \"#utility.yul\":6084:6107   */\n  mcopy\n    /* \"#utility.yul\":6141:6142   */\n  0x00\n    /* \"#utility.yul\":6132:6138   */\n  dup4\n    /* \"#utility.yul\":6127:6130   */\n  dup4\n    /* \"#utility.yul\":6123:6139   */\n  add\n    /* \"#utility.yul\":6116:6143   */\n  mstore\n    /* \"#utility.yul\":6011:6150   */\n  pop\n  pop\n  pop\n  jump\t// out\n    /* \"#utility.yul\":6156:6258   */\ntag_86:\n    /* \"#utility.yul\":6197:6203   */\n  0x00\n    /* \"#utility.yul\":6248:6250   */\n  0x1f\n    /* \"#utility.yul\":6244:6251   */\n  not\n    /* \"#utility.yul\":6239:6241   */\n  0x1f\n    /* \"#utility.yul\":6232:6237   */\n  dup4\n    /* \"#utility.yul\":6228:6242   */\n  add\n    /* \"#utility.yul\":6224:6252   */\n  and\n    /* \"#utility.yul\":6214:6252   */\n  swap1\n  pop\n    /* \"#utility.yul\":6156:6258   */\n  swap2\n  swap1\n  pop\n  jump\t// out\n    /* \"#utility.yul\":6264:6641   */\ntag_87:\n    /* \"#utility.yul\":6352:6355   */\n  0x00\n    /* \"#utility.yul\":6380:6419   */\n  tag_164\n    /* \"#utility.yul\":6413:6418   */\n  dup3\n    /* \"#utility.yul\":6380:6419   */\n  tag_65\n  jump\t// in\ntag_164:\n    /* \"#utility.yul\":6435:6506   */\n  tag_165\n    /* \"#utility.yul\":6499:6505   */\n  dup2\n    /* \"#utility.yul\":6494:6497   */\n  dup6\n    /* \"#utility.yul\":6435:6506   */\n  tag_84\n  jump\t// in\ntag_165:\n    /* \"#utility.yul\":6428:6506   */\n  swap4\n  pop\n    /* \"#utility.yul\":6515:6580   */\n  tag_166\n    /* \"#utility.yul\":6573:6579   */\n  dup2\n    /* \"#utility.yul\":6568:6571   */\n  dup6\n    /* \"#utility.yul\":6561:6565   */\n  0x20\n    /* \"#utility.yul\":6554:6559   */\n  dup7\n    /* \"#utility.yul\":6550:6566   */\n  add\n    /* \"#utility.yul\":6515:6580   */\n  tag_85\n  jump\t// in\ntag_166:\n    /* \"#utility.yul\":6605:6634   */\n  tag_167\n    /* \"#utility.yul\":6627:6633   */\n  dup2\n    /* \"#utility.yul\":6605:6634   */\n  tag_86\n  jump\t// in\ntag_167:\n    /* \"#utility.yul\":6600:6603   */\n  dup5\n    /* \"#utility.yul\":6596:6635   */\n  add\n    /* \"#utility.yul\":6589:6635   */\n  swap2\n  pop\n    /* \"#utility.yul\":6356:6641   */\n  pop\n    /* \"#utility.yul\":6264:6641   */\n  swap3\n  swap2\n  pop\n  pop\n  jump\t// out\n    /* \"#utility.yul\":6647:6765   */\ntag_88:\n    /* \"#utility.yul\":6734:6758   */\n  tag_169\n    /* \"#utility.yul\":6752:6757   */\n  dup2\n    /* \"#utility.yul\":6734:6758   */\n  tag_63\n  jump\t// in\ntag_169:\n    /* \"#utility.yul\":6729:6732   */\n  dup3\n    /* \"#utility.yul\":6722:6759   */\n  mstore\n    /* \"#utility.yul\":6647:6765   */\n  pop\n  pop\n  jump\t// out\n    /* \"#utility.yul\":6771:7597   */\ntag_59:\n    /* \"#utility.yul\":7008:7012   */\n  0x00\n    /* \"#utility.yul\":7046:7049   */\n  0x80\n    /* \"#utility.yul\":7035:7044   */\n  dup3\n    /* \"#utility.yul\":7031:7050   */\n  add\n    /* \"#utility.yul\":7023:7050   */\n  swap1\n  pop\n    /* \"#utility.yul\":7096:7105   */\n  dup2\n    /* \"#utility.yul\":7090:7094   */\n  dup2\n    /* \"#utility.yul\":7086:7106   */\n  sub\n    /* \"#utility.yul\":7082:7083   */\n  0x00\n    /* \"#utility.yul\":7071:7080   */\n  dup4\n    /* \"#utility.yul\":7067:7084   */\n  add\n    /* \"#utility.yul\":7060:7107   */\n  mstore\n    /* \"#utility.yul\":7124:7202   */\n  tag_171\n    /* \"#utility.yul\":7197:7201   */\n  dup2\n    /* \"#utility.yul\":7188:7194   */\n  dup8\n    /* \"#utility.yul\":7124:7202   */\n  tag_87\n  jump\t// in\ntag_171:\n    /* \"#utility.yul\":7116:7202   */\n  swap1\n  pop\n    /* \"#utility.yul\":7249:7258   */\n  dup2\n    /* \"#utility.yul\":7243:7247   */\n  dup2\n    /* \"#utility.yul\":7239:7259   */\n  sub\n    /* \"#utility.yul\":7234:7236   */\n  0x20\n    /* \"#utility.yul\":7223:7232   */\n  dup4\n    /* \"#utility.yul\":7219:7237   */\n  add\n    /* \"#utility.yul\":7212:7260   */\n  mstore\n    /* \"#utility.yul\":7277:7355   */\n  tag_172\n    /* \"#utility.yul\":7350:7354   */\n  dup2\n    /* \"#utility.yul\":7341:7347   */\n  dup7\n    /* \"#utility.yul\":7277:7355   */\n  tag_87\n  jump\t// in\ntag_172:\n    /* \"#utility.yul\":7269:7355   */\n  swap1\n  pop\n    /* \"#utility.yul\":7365:7437   */\n  tag_173\n    /* \"#utility.yul\":7433:7435   */\n  0x40\n    /* \"#utility.yul\":7422:7431   */\n  dup4\n    /* \"#utility.yul\":7418:7436   */\n  add\n    /* \"#utility.yul\":7409:7415   */\n  dup6\n    /* \"#utility.yul\":7365:7437   */\n  tag_88\n  jump\t// in\ntag_173:\n    /* \"#utility.yul\":7484:7493   */\n  dup2\n    /* \"#utility.yul\":7478:7482   */\n  dup2\n    /* \"#utility.yul\":7474:7494   */\n  sub\n    /* \"#utility.yul\":7469:7471   */\n  0x60\n    /* \"#utility.yul\":7458:7467   */\n  dup4\n    /* \"#utility.yul\":7454:7472   */\n  add\n    /* \"#utility.yul\":7447:7495   */\n  mstore\n    /* \"#utility.yul\":7512:7590   */\n  tag_174\n    /* \"#utility.yul\":7585:7589   */\n  dup2\n    /* \"#utility.yul\":7576:7582   */\n  dup5\n    /* \"#utility.yul\":7512:7590   */\n  tag_87\n  jump\t// in\ntag_174:\n    /* \"#utility.yul\":7504:7590   */\n  swap1\n  pop\n    /* \"#utility.yul\":6771:7597   */\n  swap6\n  swap5\n  pop\n  pop\n  pop\n  pop\n  pop\n  jump\t// out\n    /* \"#utility.yul\":7603:7751   */\ntag_89:\n    /* \"#utility.yul\":7705:7716   */\n  0x00\n    /* \"#utility.yul\":7742:7745   */\n  dup2\n    /* \"#utility.yul\":7727:7745   */\n  swap1\n  pop\n    /* \"#utility.yul\":7603:7751   */\n  swap3\n  swap2\n  pop\n  pop\n  jump\t// out\n    /* \"#utility.yul\":7757:8147   */\ntag_90:\n    /* \"#utility.yul\":7863:7866   */\n  0x00\n    /* \"#utility.yul\":7891:7930   */\n  tag_177\n    /* \"#utility.yul\":7924:7929   */\n  dup3\n    /* \"#utility.yul\":7891:7930   */\n  tag_65\n  jump\t// in\ntag_177:\n    /* \"#utility.yul\":7946:8035   */\n  tag_178\n    /* \"#utility.yul\":8028:8034   */\n  dup2\n    /* \"#utility.yul\":8023:8026   */\n  dup6\n    /* \"#utility.yul\":7946:8035   */\n  tag_89\n  jump\t// in\ntag_178:\n    /* \"#utility.yul\":7939:8035   */\n  swap4\n  pop\n    /* \"#utility.yul\":8044:8109   */\n  tag_179\n    /* \"#utility.yul\":8102:8108   */\n  dup2\n    /* \"#utility.yul\":8097:8100   */\n  dup6\n    /* \"#utility.yul\":8090:8094   */\n  0x20\n    /* \"#utility.yul\":8083:8088   */\n  dup7\n    /* \"#utility.yul\":8079:8095   */\n  add\n    /* \"#utility.yul\":8044:8109   */\n  tag_85\n  jump\t// in\ntag_179:\n    /* \"#utility.yul\":8134:8140   */\n  dup1\n    /* \"#utility.yul\":8129:8132   */\n  dup5\n    /* \"#utility.yul\":8125:8141   */\n  add\n    /* \"#utility.yul\":8118:8141   */\n  swap2\n  pop\n    /* \"#utility.yul\":7867:8147   */\n  pop\n    /* \"#utility.yul\":7757:8147   */\n  swap3\n  swap2\n  pop\n  pop\n  jump\t// out\n    /* \"#utility.yul\":8153:8588   */\ntag_62:\n    /* \"#utility.yul\":8333:8336   */\n  0x00\n    /* \"#utility.yul\":8355:8450   */\n  tag_181\n    /* \"#utility.yul\":8446:8449   */\n  dup3\n    /* \"#utility.yul\":8437:8443   */\n  dup6\n    /* \"#utility.yul\":8355:8450   */\n  tag_90\n  jump\t// in\ntag_181:\n    /* \"#utility.yul\":8348:8450   */\n  swap2\n  pop\n    /* \"#utility.yul\":8467:8562   */\n  tag_182\n    /* \"#utility.yul\":8558:8561   */\n  dup3\n    /* \"#utility.yul\":8549:8555   */\n  dup5\n    /* \"#utility.yul\":8467:8562   */\n  tag_90\n  jump\t// in\ntag_182:\n    /* \"#utility.yul\":8460:8562   */\n  swap2\n  pop\n    /* \"#utility.yul\":8579:8582   */\n  dup2\n    /* \"#utility.yul\":8572:8582   */\n  swap1\n  pop\n    /* \"#utility.yul\":8153:8588   */\n  swap4\n  swap3\n  pop\n  pop\n  pop\n  jump\t// out\n    /* \"blockchain/contracts/VendingMachine.sol\":115:7019  contract VendingMachine {... */\ntag_6:\n  mload(0x80)\n  codecopy(0x00, dataOffset(sub_0), dataSize(sub_0))\n  0x00\n  assignImmutable(\"0x59c0d2b7af0a8e6d3d8e710a078764bd67b7223777026c424cdb4f599824bb79\")\n  return(0x00, dataSize(sub_0))\nstop\ndata_ec9eb78cc41e57eb52d56b49fd2dd4ed8c3cd69def9c06a39aaca306c1f4712f 516d6652465261626f50334d3438656578766e516b6977675544506150484a69466e44634b637545754c426266312f\n\nsub_0: assembly {\n        /* \"blockchain/contracts/VendingMachine.sol\":115:7019  contract VendingMachine {... */\n      mstore(0x40, 0x80)\n      jumpi(tag_1, lt(calldatasize, 0x04))\n      shr(0xe0, calldataload(0x00))\n      dup1\n      0x3ccfd60b\n      gt\n      tag_11\n      jumpi\n      dup1\n      0x3ccfd60b\n      eq\n      tag_7\n      jumpi\n      dup1\n      0x8da5cb5b\n      eq\n      tag_8\n      jumpi\n      dup1\n      0xa26759cb\n      eq\n      tag_9\n      jumpi\n      dup1\n      0xb04f3225\n      eq\n      tag_10\n      jumpi\n      jump(tag_2)\n    tag_11:\n      dup1\n      0x02ee3a52\n      eq\n      tag_3\n      jumpi\n      dup1\n      0x1107bc98\n      eq\n      tag_4\n      jumpi\n      dup1\n      0x12065fe0\n      eq\n      tag_5\n      jumpi\n      dup1\n      0x19f92926\n      eq\n      tag_6\n      jumpi\n      jump(tag_2)\n    tag_1:\n      jumpi(tag_2, calldatasize)\n        /* \"blockchain/contracts/VendingMachine.sol\":6938:6948  addFunds() */\n      tag_14\n        /* \"blockchain/contracts/VendingMachine.sol\":6938:6946  addFunds */\n      tag_15\n        /* \"blockchain/contracts/VendingMachine.sol\":6938:6948  addFunds() */\n      jump\t// in\n    tag_14:\n        /* \"blockchain/contracts/VendingMachine.sol\":115:7019  contract VendingMachine {... */\n      stop\n    tag_2:\n        /* \"blockchain/contracts/VendingMachine.sol\":7000:7010  addFunds() */\n      tag_18\n        /* \"blockchain/contracts/VendingMachine.sol\":7000:7008  addFunds */\n      tag_15\n        /* \"blockchain/contracts/VendingMachine.sol\":7000:7010  addFunds() */\n      jump\t// in\n    tag_18:\n        /* \"blockchain/contracts/VendingMachine.sol\":115:7019  contract VendingMachine {... */\n      stop\n        /* \"blockchain/contracts/VendingMachine.sol\":3966:4078  function getAllProducts() public view returns (ProductLibrary.Product[] memory) {... */\n    tag_3:\n      callvalue\n      dup1\n      iszero\n      tag_19\n      jumpi\n      0x00\n      dup1\n      revert\n    tag_19:\n      pop\n      tag_20\n      tag_21\n      jump\t// in\n    tag_20:\n      mload(0x40)\n      tag_22\n      swap2\n      swap1\n      tag_23\n      jump\t// in\n    tag_22:\n      mload(0x40)\n      dup1\n      swap2\n      sub\n      swap1\n      return\n        /* \"blockchain/contracts/VendingMachine.sol\":4992:6053  function getAllPurchases(address _buyer) public view returns (ProductLibrary.PurchaseInfo[] memory) {... */\n    tag_4:\n      callvalue\n      dup1\n      iszero\n      tag_24\n      jumpi\n      0x00\n      dup1\n      revert\n    tag_24:\n      pop\n      tag_25\n      0x04\n      dup1\n      calldatasize\n      sub\n      dup2\n      add\n      swap1\n      tag_26\n      swap2\n      swap1\n      tag_27\n      jump\t// in\n    tag_26:\n      tag_28\n      jump\t// in\n    tag_25:\n      mload(0x40)\n      tag_29\n      swap2\n      swap1\n      tag_30\n      jump\t// in\n    tag_29:\n      mload(0x40)\n      dup1\n      swap2\n      sub\n      swap1\n      return\n        /* \"blockchain/contracts/VendingMachine.sol\":4282:4375  function getBalance() public view returns (uint) {... */\n    tag_5:\n      callvalue\n      dup1\n      iszero\n      tag_31\n      jumpi\n      0x00\n      dup1\n      revert\n    tag_31:\n      pop\n      tag_32\n      tag_33\n      jump\t// in\n    tag_32:\n      mload(0x40)\n      tag_34\n      swap2\n      swap1\n      tag_35\n      jump\t// in\n    tag_34:\n      mload(0x40)\n      dup1\n      swap2\n      sub\n      swap1\n      return\n        /* \"blockchain/contracts/VendingMachine.sol\":4385:4986  function purchaseProduct(string memory _productId) public {... */\n    tag_6:\n      callvalue\n      dup1\n      iszero\n      tag_36\n      jumpi\n      0x00\n      dup1\n      revert\n    tag_36:\n      pop\n      tag_37\n      0x04\n      dup1\n      calldatasize\n      sub\n      dup2\n      add\n      swap1\n      tag_38\n      swap2\n      swap1\n      tag_39\n      jump\t// in\n    tag_38:\n      tag_40\n      jump\t// in\n    tag_37:\n      stop\n        /* \"blockchain/contracts/VendingMachine.sol\":6545:6894  function withdraw() public onlyOwner noReentrant {... */\n    tag_7:\n      callvalue\n      dup1\n      iszero\n      tag_41\n      jumpi\n      0x00\n      dup1\n      revert\n    tag_41:\n      pop\n      tag_42\n      tag_43\n      jump\t// in\n    tag_42:\n      stop\n        /* \"blockchain/contracts/VendingMachine.sol\":145:175  address public immutable owner */\n    tag_8:\n      callvalue\n      dup1\n      iszero\n      tag_44\n      jumpi\n      0x00\n      dup1\n      revert\n    tag_44:\n      pop\n      tag_45\n      tag_46\n      jump\t// in\n    tag_45:\n      mload(0x40)\n      tag_47\n      swap2\n      swap1\n      tag_48\n      jump\t// in\n    tag_47:\n      mload(0x40)\n      dup1\n      swap2\n      sub\n      swap1\n      return\n        /* \"blockchain/contracts/VendingMachine.sol\":4084:4276  function addFunds() public payable {... */\n    tag_9:\n      tag_49\n      tag_15\n      jump\t// in\n    tag_49:\n      stop\n        /* \"blockchain/contracts/VendingMachine.sol\":6059:6539  function consumePurchase(uint _purchaseIndex) public {... */\n    tag_10:\n      callvalue\n      dup1\n      iszero\n      tag_50\n      jumpi\n      0x00\n      dup1\n      revert\n    tag_50:\n      pop\n      tag_51\n      0x04\n      dup1\n      calldatasize\n      sub\n      dup2\n      add\n      swap1\n      tag_52\n      swap2\n      swap1\n      tag_53\n      jump\t// in\n    tag_52:\n      tag_54\n      jump\t// in\n    tag_51:\n      stop\n        /* \"blockchain/contracts/VendingMachine.sol\":4084:4276  function addFunds() public payable {... */\n    tag_15:\n        /* \"blockchain/contracts/VendingMachine.sol\":4149:4150  0 */\n      0x00\n        /* \"blockchain/contracts/VendingMachine.sol\":4137:4146  msg.value */\n      callvalue\n        /* \"blockchain/contracts/VendingMachine.sol\":4137:4150  msg.value > 0 */\n      gt\n        /* \"blockchain/contracts/VendingMachine.sol\":4129:4178  require(msg.value > 0, \"Missing required amount\") */\n      tag_56\n      jumpi\n      mload(0x40)\n      0x08c379a000000000000000000000000000000000000000000000000000000000\n      dup2\n      mstore\n      0x04\n      add\n      tag_57\n      swap1\n      tag_58\n      jump\t// in\n    tag_57:\n      mload(0x40)\n      dup1\n      swap2\n      sub\n      swap1\n      revert\n    tag_56:\n        /* \"blockchain/contracts/VendingMachine.sol\":4212:4221  msg.value */\n      callvalue\n        /* \"blockchain/contracts/VendingMachine.sol\":4188:4196  balances */\n      0x02\n        /* \"blockchain/contracts/VendingMachine.sol\":4188:4208  balances[msg.sender] */\n      0x00\n        /* \"blockchain/contracts/VendingMachine.sol\":4197:4207  msg.sender */\n      caller\n        /* \"blockchain/contracts/VendingMachine.sol\":4188:4208  balances[msg.sender] */\n      0xffffffffffffffffffffffffffffffffffffffff\n      and\n      0xffffffffffffffffffffffffffffffffffffffff\n      and\n      dup2\n      mstore\n      0x20\n      add\n      swap1\n      dup2\n      mstore\n      0x20\n      add\n      0x00\n      keccak256\n      0x00\n        /* \"blockchain/contracts/VendingMachine.sol\":4188:4221  balances[msg.sender] += msg.value */\n      dup3\n      dup3\n      sload\n      tag_59\n      swap2\n      swap1\n      tag_60\n      jump\t// in\n    tag_59:\n      swap3\n      pop\n      pop\n      dup2\n      swap1\n      sstore\n      pop\n        /* \"blockchain/contracts/VendingMachine.sol\":4247:4257  msg.sender */\n      caller\n        /* \"blockchain/contracts/VendingMachine.sol\":4236:4269  FundsAdded(msg.sender, msg.value) */\n      0xffffffffffffffffffffffffffffffffffffffff\n      and\n      0x8fe10ae416f22f5e5220b0018a6c1d4ff534d6aa3a471f2a20cb7747fe63e5b9\n        /* \"blockchain/contracts/VendingMachine.sol\":4259:4268  msg.value */\n      callvalue\n        /* \"blockchain/contracts/VendingMachine.sol\":4236:4269  FundsAdded(msg.sender, msg.value) */\n      mload(0x40)\n      tag_61\n      swap2\n      swap1\n      tag_35\n      jump\t// in\n    tag_61:\n      mload(0x40)\n      dup1\n      swap2\n      sub\n      swap1\n      log2\n        /* \"blockchain/contracts/VendingMachine.sol\":4084:4276  function addFunds() public payable {... */\n      jump\t// out\n        /* \"blockchain/contracts/VendingMachine.sol\":3966:4078  function getAllProducts() public view returns (ProductLibrary.Product[] memory) {... */\n    tag_21:\n        /* \"blockchain/contracts/VendingMachine.sol\":4013:4044  ProductLibrary.Product[] memory */\n      0x60\n        /* \"blockchain/contracts/VendingMachine.sol\":4063:4071  products */\n      0x01\n        /* \"blockchain/contracts/VendingMachine.sol\":4056:4071  return products */\n      dup1\n      sload\n      dup1\n      0x20\n      mul\n      0x20\n      add\n      mload(0x40)\n      swap1\n      dup2\n      add\n      0x40\n      mstore\n      dup1\n      swap3\n      swap2\n      swap1\n      dup2\n      dup2\n      mstore\n      0x20\n      add\n      0x00\n      swap1\n    tag_63:\n      dup3\n      dup3\n      lt\n      iszero\n      tag_64\n      jumpi\n      dup4\n      dup3\n      swap1\n      0x00\n      mstore\n      keccak256(0x00, 0x20)\n      swap1\n      0x04\n      mul\n      add\n      mload(0x40)\n      dup1\n      0x80\n      add\n      0x40\n      mstore\n      swap1\n      dup2\n      0x00\n      dup3\n      add\n      dup1\n      sload\n      tag_66\n      swap1\n      tag_67\n      jump\t// in\n    tag_66:\n      dup1\n      0x1f\n      add\n      0x20\n      dup1\n      swap2\n      div\n      mul\n      0x20\n      add\n      mload(0x40)\n      swap1\n      dup2\n      add\n      0x40\n      mstore\n      dup1\n      swap3\n      swap2\n      swap1\n      dup2\n      dup2\n      mstore\n      0x20\n      add\n      dup3\n      dup1\n      sload\n      tag_68\n      swap1\n      tag_67\n      jump\t// in\n    tag_68:\n      dup1\n      iszero\n      tag_69\n      jumpi\n      dup1\n      0x1f\n      lt\n      tag_70\n      jumpi\n      0x0100\n      dup1\n      dup4\n      sload\n      div\n      mul\n      dup4\n      mstore\n      swap2\n      0x20\n      add\n      swap2\n      jump(tag_69)\n    tag_70:\n      dup3\n      add\n      swap2\n      swap1\n      0x00\n      mstore\n      keccak256(0x00, 0x20)\n      swap1\n    tag_71:\n      dup2\n      sload\n      dup2\n      mstore\n      swap1\n      0x01\n      add\n      swap1\n      0x20\n      add\n      dup1\n      dup4\n      gt\n      tag_71\n      jumpi\n      dup3\n      swap1\n      sub\n      0x1f\n      and\n      dup3\n      add\n      swap2\n    tag_69:\n      pop\n      pop\n      pop\n      pop\n      pop\n      dup2\n      mstore\n      0x20\n      add\n      0x01\n      dup3\n      add\n      sload\n      dup2\n      mstore\n      0x20\n      add\n      0x02\n      dup3\n      add\n      dup1\n      sload\n      tag_72\n      swap1\n      tag_67\n      jump\t// in\n    tag_72:\n      dup1\n      0x1f\n      add\n      0x20\n      dup1\n      swap2\n      div\n      mul\n      0x20\n      add\n      mload(0x40)\n      swap1\n      dup2\n      add\n      0x40\n      mstore\n      dup1\n      swap3\n      swap2\n      swap1\n      dup2\n      dup2\n      mstore\n      0x20\n      add\n      dup3\n      dup1\n      sload\n      tag_73\n      swap1\n      tag_67\n      jump\t// in\n    tag_73:\n      dup1\n      iszero\n      tag_74\n      jumpi\n      dup1\n      0x1f\n      lt\n      tag_75\n      jumpi\n      0x0100\n      dup1\n      dup4\n      sload\n      div\n      mul\n      dup4\n      mstore\n      swap2\n      0x20\n      add\n      swap2\n      jump(tag_74)\n    tag_75:\n      dup3\n      add\n      swap2\n      swap1\n      0x00\n      mstore\n      keccak256(0x00, 0x20)\n      swap1\n    tag_76:\n      dup2\n      sload\n      dup2\n      mstore\n      swap1\n      0x01\n      add\n      swap1\n      0x20\n      add\n      dup1\n      dup4\n      gt\n      tag_76\n      jumpi\n      dup3\n      swap1\n      sub\n      0x1f\n      and\n      dup3\n      add\n      swap2\n    tag_74:\n      pop\n      pop\n      pop\n      pop\n      pop\n      dup2\n      mstore\n      0x20\n      add\n      0x03\n      dup3\n      add\n      dup1\n      sload\n      tag_77\n      swap1\n      tag_67\n      jump\t// in\n    tag_77:\n      dup1\n      0x1f\n      add\n      0x20\n      dup1\n      swap2\n      div\n      mul\n      0x20\n      add\n      mload(0x40)\n      swap1\n      dup2\n      add\n      0x40\n      mstore\n      dup1\n      swap3\n      swap2\n      swap1\n      dup2\n      dup2\n      mstore\n      0x20\n      add\n      dup3\n      dup1\n      sload\n      tag_78\n      swap1\n      tag_67\n      jump\t// in\n    tag_78:\n      dup1\n      iszero\n      tag_79\n      jumpi\n      dup1\n      0x1f\n      lt\n      tag_80\n      jumpi\n      0x0100\n      dup1\n      dup4\n      sload\n      div\n      mul\n      dup4\n      mstore\n      swap2\n      0x20\n      add\n      swap2\n      jump(tag_79)\n    tag_80:\n      dup3\n      add\n      swap2\n      swap1\n      0x00\n      mstore\n      keccak256(0x00, 0x20)\n      swap1\n    tag_81:\n      dup2\n      sload\n      dup2\n      mstore\n      swap1\n      0x01\n      add\n      swap1\n      0x20\n      add\n      dup1\n      dup4\n      gt\n      tag_81\n      jumpi\n      dup3\n      swap1\n      sub\n      0x1f\n      and\n      dup3\n      add\n      swap2\n    tag_79:\n      pop\n      pop\n      pop\n      pop\n      pop\n      dup2\n      mstore\n      pop\n      pop\n      dup2\n      mstore\n      0x20\n      add\n      swap1\n      0x01\n      add\n      swap1\n      jump(tag_63)\n    tag_64:\n      pop\n      pop\n      pop\n      pop\n      swap1\n      pop\n        /* \"blockchain/contracts/VendingMachine.sol\":3966:4078  function getAllProducts() public view returns (ProductLibrary.Product[] memory) {... */\n      swap1\n      jump\t// out\n        /* \"blockchain/contracts/VendingMachine.sol\":4992:6053  function getAllPurchases(address _buyer) public view returns (ProductLibrary.PurchaseInfo[] memory) {... */\n    tag_28:\n        /* \"blockchain/contracts/VendingMachine.sol\":5054:5090  ProductLibrary.PurchaseInfo[] memory */\n      0x60\n        /* \"blockchain/contracts/VendingMachine.sol\":5102:5112  uint count */\n      0x00\n        /* \"blockchain/contracts/VendingMachine.sol\":5131:5137  uint i */\n      dup1\n        /* \"blockchain/contracts/VendingMachine.sol\":5126:5268  for (uint i = 0; i < purchases.length; i++) {... */\n    tag_83:\n        /* \"blockchain/contracts/VendingMachine.sol\":5147:5156  purchases */\n      0x03\n        /* \"blockchain/contracts/VendingMachine.sol\":5147:5163  purchases.length */\n      dup1\n      sload\n      swap1\n      pop\n        /* \"blockchain/contracts/VendingMachine.sol\":5143:5144  i */\n      dup2\n        /* \"blockchain/contracts/VendingMachine.sol\":5143:5163  i < purchases.length */\n      lt\n        /* \"blockchain/contracts/VendingMachine.sol\":5126:5268  for (uint i = 0; i < purchases.length; i++) {... */\n      iszero\n      tag_84\n      jumpi\n        /* \"blockchain/contracts/VendingMachine.sol\":5210:5216  _buyer */\n      dup4\n        /* \"blockchain/contracts/VendingMachine.sol\":5188:5216  purchases[i].buyer == _buyer */\n      0xffffffffffffffffffffffffffffffffffffffff\n      and\n        /* \"blockchain/contracts/VendingMachine.sol\":5188:5197  purchases */\n      0x03\n        /* \"blockchain/contracts/VendingMachine.sol\":5198:5199  i */\n      dup3\n        /* \"blockchain/contracts/VendingMachine.sol\":5188:5200  purchases[i] */\n      dup2\n      sload\n      dup2\n      lt\n      tag_86\n      jumpi\n      tag_87\n      tag_88\n      jump\t// in\n    tag_87:\n    tag_86:\n      swap1\n      0x00\n      mstore\n      keccak256(0x00, 0x20)\n      swap1\n      0x04\n      mul\n      add\n        /* \"blockchain/contracts/VendingMachine.sol\":5188:5206  purchases[i].buyer */\n      0x00\n      add\n      0x00\n      swap1\n      sload\n      swap1\n      0x0100\n      exp\n      swap1\n      div\n      0xffffffffffffffffffffffffffffffffffffffff\n      and\n        /* \"blockchain/contracts/VendingMachine.sol\":5188:5216  purchases[i].buyer == _buyer */\n      0xffffffffffffffffffffffffffffffffffffffff\n      and\n      sub\n        /* \"blockchain/contracts/VendingMachine.sol\":5184:5258  if (purchases[i].buyer == _buyer) {... */\n      tag_90\n      jumpi\n        /* \"blockchain/contracts/VendingMachine.sol\":5236:5243  count++ */\n      dup2\n      dup1\n      tag_91\n      swap1\n      tag_92\n      jump\t// in\n    tag_91:\n      swap3\n      pop\n      pop\n        /* \"blockchain/contracts/VendingMachine.sol\":5184:5258  if (purchases[i].buyer == _buyer) {... */\n    tag_90:\n        /* \"blockchain/contracts/VendingMachine.sol\":5165:5168  i++ */\n      dup1\n      dup1\n      0x01\n      add\n      swap2\n      pop\n      pop\n        /* \"blockchain/contracts/VendingMachine.sol\":5126:5268  for (uint i = 0; i < purchases.length; i++) {... */\n      jump(tag_83)\n    tag_84:\n      pop\n        /* \"blockchain/contracts/VendingMachine.sol\":5278:5321  ProductLibrary.PurchaseInfo[] memory result */\n      0x00\n        /* \"blockchain/contracts/VendingMachine.sol\":5358:5363  count */\n      dup2\n        /* \"blockchain/contracts/VendingMachine.sol\":5324:5364  new ProductLibrary.PurchaseInfo[](count) */\n      0xffffffffffffffff\n      dup2\n      gt\n      iszero\n      tag_93\n      jumpi\n      tag_94\n      tag_95\n      jump\t// in\n    tag_94:\n    tag_93:\n      mload(0x40)\n      swap1\n      dup1\n      dup3\n      mstore\n      dup1\n      0x20\n      mul\n      0x20\n      add\n      dup3\n      add\n      0x40\n      mstore\n      dup1\n      iszero\n      tag_96\n      jumpi\n      dup2\n      0x20\n      add\n    tag_97:\n      tag_98\n      tag_99\n      jump\t// in\n    tag_98:\n      dup2\n      mstore\n      0x20\n      add\n      swap1\n      0x01\n      swap1\n      sub\n      swap1\n      dup2\n      tag_97\n      jumpi\n      swap1\n      pop\n    tag_96:\n      pop\n        /* \"blockchain/contracts/VendingMachine.sol\":5278:5364  ProductLibrary.PurchaseInfo[] memory result = new ProductLibrary.PurchaseInfo[](count) */\n      swap1\n      pop\n        /* \"blockchain/contracts/VendingMachine.sol\":5374:5384  uint index */\n      0x00\n        /* \"blockchain/contracts/VendingMachine.sol\":5403:5409  uint i */\n      dup1\n        /* \"blockchain/contracts/VendingMachine.sol\":5398:6024  for (uint i = 0; i < purchases.length; i++) {... */\n    tag_100:\n        /* \"blockchain/contracts/VendingMachine.sol\":5419:5428  purchases */\n      0x03\n        /* \"blockchain/contracts/VendingMachine.sol\":5419:5435  purchases.length */\n      dup1\n      sload\n      swap1\n      pop\n        /* \"blockchain/contracts/VendingMachine.sol\":5415:5416  i */\n      dup2\n        /* \"blockchain/contracts/VendingMachine.sol\":5415:5435  i < purchases.length */\n      lt\n        /* \"blockchain/contracts/VendingMachine.sol\":5398:6024  for (uint i = 0; i < purchases.length; i++) {... */\n      iszero\n      tag_101\n      jumpi\n        /* \"blockchain/contracts/VendingMachine.sol\":5482:5488  _buyer */\n      dup6\n        /* \"blockchain/contracts/VendingMachine.sol\":5460:5488  purchases[i].buyer == _buyer */\n      0xffffffffffffffffffffffffffffffffffffffff\n      and\n        /* \"blockchain/contracts/VendingMachine.sol\":5460:5469  purchases */\n      0x03\n        /* \"blockchain/contracts/VendingMachine.sol\":5470:5471  i */\n      dup3\n        /* \"blockchain/contracts/VendingMachine.sol\":5460:5472  purchases[i] */\n      dup2\n      sload\n      dup2\n      lt\n      tag_103\n      jumpi\n      tag_104\n      tag_88\n      jump\t// in\n    tag_104:\n    tag_103:\n      swap1\n      0x00\n      mstore\n      keccak256(0x00, 0x20)\n      swap1\n      0x04\n      mul\n      add\n        /* \"blockchain/contracts/VendingMachine.sol\":5460:5478  purchases[i].buyer */\n      0x00\n      add\n      0x00\n      swap1\n      sload\n      swap1\n      0x0100\n      exp\n      swap1\n      div\n      0xffffffffffffffffffffffffffffffffffffffff\n      and\n        /* \"blockchain/contracts/VendingMachine.sol\":5460:5488  purchases[i].buyer == _buyer */\n      0xffffffffffffffffffffffffffffffffffffffff\n      and\n      sub\n        /* \"blockchain/contracts/VendingMachine.sol\":5456:6014  if (purchases[i].buyer == _buyer) {... */\n      tag_106\n      jumpi\n        /* \"blockchain/contracts/VendingMachine.sol\":5508:5545  ProductLibrary.Product memory product */\n      0x00\n        /* \"blockchain/contracts/VendingMachine.sol\":5548:5588  getProductByCode(purchases[i].productId) */\n      tag_107\n        /* \"blockchain/contracts/VendingMachine.sol\":5565:5574  purchases */\n      0x03\n        /* \"blockchain/contracts/VendingMachine.sol\":5575:5576  i */\n      dup4\n        /* \"blockchain/contracts/VendingMachine.sol\":5565:5577  purchases[i] */\n      dup2\n      sload\n      dup2\n      lt\n      tag_108\n      jumpi\n      tag_109\n      tag_88\n      jump\t// in\n    tag_109:\n    tag_108:\n      swap1\n      0x00\n      mstore\n      keccak256(0x00, 0x20)\n      swap1\n      0x04\n      mul\n      add\n        /* \"blockchain/contracts/VendingMachine.sol\":5565:5587  purchases[i].productId */\n      0x01\n      add\n        /* \"blockchain/contracts/VendingMachine.sol\":5548:5588  getProductByCode(purchases[i].productId) */\n      dup1\n      sload\n      tag_111\n      swap1\n      tag_67\n      jump\t// in\n    tag_111:\n      dup1\n      0x1f\n      add\n      0x20\n      dup1\n      swap2\n      div\n      mul\n      0x20\n      add\n      mload(0x40)\n      swap1\n      dup2\n      add\n      0x40\n      mstore\n      dup1\n      swap3\n      swap2\n      swap1\n      dup2\n      dup2\n      mstore\n      0x20\n      add\n      dup3\n      dup1\n      sload\n      tag_112\n      swap1\n      tag_67\n      jump\t// in\n    tag_112:\n      dup1\n      iszero\n      tag_113\n      jumpi\n      dup1\n      0x1f\n      lt\n      tag_114\n      jumpi\n      0x0100\n      dup1\n      dup4\n      sload\n      div\n      mul\n      dup4\n      mstore\n      swap2\n      0x20\n      add\n      swap2\n      jump(tag_113)\n    tag_114:\n      dup3\n      add\n      swap2\n      swap1\n      0x00\n      mstore\n      keccak256(0x00, 0x20)\n      swap1\n    tag_115:\n      dup2\n      sload\n      dup2\n      mstore\n      swap1\n      0x01\n      add\n      swap1\n      0x20\n      add\n      dup1\n      dup4\n      gt\n      tag_115\n      jumpi\n      dup3\n      swap1\n      sub\n      0x1f\n      and\n      dup3\n      add\n      swap2\n    tag_113:\n      pop\n      pop\n      pop\n      pop\n      pop\n        /* \"blockchain/contracts/VendingMachine.sol\":5548:5564  getProductByCode */\n      tag_116\n        /* \"blockchain/contracts/VendingMachine.sol\":5548:5588  getProductByCode(purchases[i].productId) */\n      jump\t// in\n    tag_107:\n        /* \"blockchain/contracts/VendingMachine.sol\":5508:5588  ProductLibrary.Product memory product = getProductByCode(purchases[i].productId) */\n      swap1\n      pop\n        /* \"blockchain/contracts/VendingMachine.sol\":5622:5974  ProductLibrary.PurchaseInfo({... */\n      mload(0x40)\n      dup1\n      0xc0\n      add\n      0x40\n      mstore\n      dup1\n        /* \"blockchain/contracts/VendingMachine.sol\":5676:5677  i */\n      dup4\n        /* \"blockchain/contracts/VendingMachine.sol\":5622:5974  ProductLibrary.PurchaseInfo({... */\n      dup2\n      mstore\n      0x20\n      add\n        /* \"blockchain/contracts/VendingMachine.sol\":5705:5712  product */\n      dup3\n        /* \"blockchain/contracts/VendingMachine.sol\":5705:5717  product.name */\n      0x40\n      add\n      mload\n        /* \"blockchain/contracts/VendingMachine.sol\":5622:5974  ProductLibrary.PurchaseInfo({... */\n      dup2\n      mstore\n      0x20\n      add\n        /* \"blockchain/contracts/VendingMachine.sol\":5746:5753  product */\n      dup3\n        /* \"blockchain/contracts/VendingMachine.sol\":5746:5762  product.imageCID */\n      0x60\n      add\n      mload\n        /* \"blockchain/contracts/VendingMachine.sol\":5622:5974  ProductLibrary.PurchaseInfo({... */\n      dup2\n      mstore\n      0x20\n      add\n        /* \"blockchain/contracts/VendingMachine.sol\":5791:5798  product */\n      dup3\n        /* \"blockchain/contracts/VendingMachine.sol\":5791:5804  product.price */\n      0x20\n      add\n      mload\n        /* \"blockchain/contracts/VendingMachine.sol\":5622:5974  ProductLibrary.PurchaseInfo({... */\n      dup2\n      mstore\n      0x20\n      add\n        /* \"blockchain/contracts/VendingMachine.sol\":5840:5849  purchases */\n      0x03\n        /* \"blockchain/contracts/VendingMachine.sol\":5850:5851  i */\n      dup5\n        /* \"blockchain/contracts/VendingMachine.sol\":5840:5852  purchases[i] */\n      dup2\n      sload\n      dup2\n      lt\n      tag_117\n      jumpi\n      tag_118\n      tag_88\n      jump\t// in\n    tag_118:\n    tag_117:\n      swap1\n      0x00\n      mstore\n      keccak256(0x00, 0x20)\n      swap1\n      0x04\n      mul\n      add\n        /* \"blockchain/contracts/VendingMachine.sol\":5840:5862  purchases[i].timestamp */\n      0x02\n      add\n      sload\n        /* \"blockchain/contracts/VendingMachine.sol\":5622:5974  ProductLibrary.PurchaseInfo({... */\n      dup2\n      mstore\n      0x20\n      add\n        /* \"blockchain/contracts/VendingMachine.sol\":5917:5955  ProductLibrary.PurchaseStatus.Consumed */\n      0x01\n        /* \"blockchain/contracts/VendingMachine.sol\":5894:5955  purchases[i].status == ProductLibrary.PurchaseStatus.Consumed */\n      dup1\n      dup2\n      gt\n      iszero\n      tag_120\n      jumpi\n      tag_121\n      tag_122\n      jump\t// in\n    tag_121:\n    tag_120:\n        /* \"blockchain/contracts/VendingMachine.sol\":5894:5903  purchases */\n      0x03\n        /* \"blockchain/contracts/VendingMachine.sol\":5904:5905  i */\n      dup6\n        /* \"blockchain/contracts/VendingMachine.sol\":5894:5906  purchases[i] */\n      dup2\n      sload\n      dup2\n      lt\n      tag_123\n      jumpi\n      tag_124\n      tag_88\n      jump\t// in\n    tag_124:\n    tag_123:\n      swap1\n      0x00\n      mstore\n      keccak256(0x00, 0x20)\n      swap1\n      0x04\n      mul\n      add\n        /* \"blockchain/contracts/VendingMachine.sol\":5894:5913  purchases[i].status */\n      0x03\n      add\n      0x00\n      swap1\n      sload\n      swap1\n      0x0100\n      exp\n      swap1\n      div\n      0xff\n      and\n        /* \"blockchain/contracts/VendingMachine.sol\":5894:5955  purchases[i].status == ProductLibrary.PurchaseStatus.Consumed */\n      0x01\n      dup2\n      gt\n      iszero\n      tag_126\n      jumpi\n      tag_127\n      tag_122\n      jump\t// in\n    tag_127:\n    tag_126:\n      eq\n        /* \"blockchain/contracts/VendingMachine.sol\":5622:5974  ProductLibrary.PurchaseInfo({... */\n      iszero\n      iszero\n      dup2\n      mstore\n      pop\n        /* \"blockchain/contracts/VendingMachine.sol\":5606:5612  result */\n      dup5\n        /* \"blockchain/contracts/VendingMachine.sol\":5613:5618  index */\n      dup5\n        /* \"blockchain/contracts/VendingMachine.sol\":5606:5619  result[index] */\n      dup2\n      mload\n      dup2\n      lt\n      tag_128\n      jumpi\n      tag_129\n      tag_88\n      jump\t// in\n    tag_129:\n    tag_128:\n      0x20\n      mul\n      0x20\n      add\n      add\n        /* \"blockchain/contracts/VendingMachine.sol\":5606:5974  result[index] = ProductLibrary.PurchaseInfo({... */\n      dup2\n      swap1\n      mstore\n      pop\n        /* \"blockchain/contracts/VendingMachine.sol\":5992:5999  index++ */\n      dup3\n      dup1\n      tag_130\n      swap1\n      tag_92\n      jump\t// in\n    tag_130:\n      swap4\n      pop\n      pop\n        /* \"blockchain/contracts/VendingMachine.sol\":5490:6014  {... */\n      pop\n        /* \"blockchain/contracts/VendingMachine.sol\":5456:6014  if (purchases[i].buyer == _buyer) {... */\n    tag_106:\n        /* \"blockchain/contracts/VendingMachine.sol\":5437:5440  i++ */\n      dup1\n      dup1\n      0x01\n      add\n      swap2\n      pop\n      pop\n        /* \"blockchain/contracts/VendingMachine.sol\":5398:6024  for (uint i = 0; i < purchases.length; i++) {... */\n      jump(tag_100)\n    tag_101:\n      pop\n        /* \"blockchain/contracts/VendingMachine.sol\":6040:6046  result */\n      dup2\n        /* \"blockchain/contracts/VendingMachine.sol\":6033:6046  return result */\n      swap4\n      pop\n      pop\n      pop\n      pop\n        /* \"blockchain/contracts/VendingMachine.sol\":4992:6053  function getAllPurchases(address _buyer) public view returns (ProductLibrary.PurchaseInfo[] memory) {... */\n      swap2\n      swap1\n      pop\n      jump\t// out\n        /* \"blockchain/contracts/VendingMachine.sol\":4282:4375  function getBalance() public view returns (uint) {... */\n    tag_33:\n        /* \"blockchain/contracts/VendingMachine.sol\":4325:4329  uint */\n      0x00\n        /* \"blockchain/contracts/VendingMachine.sol\":4348:4356  balances */\n      0x02\n        /* \"blockchain/contracts/VendingMachine.sol\":4348:4368  balances[msg.sender] */\n      0x00\n        /* \"blockchain/contracts/VendingMachine.sol\":4357:4367  msg.sender */\n      caller\n        /* \"blockchain/contracts/VendingMachine.sol\":4348:4368  balances[msg.sender] */\n      0xffffffffffffffffffffffffffffffffffffffff\n      and\n      0xffffffffffffffffffffffffffffffffffffffff\n      and\n      dup2\n      mstore\n      0x20\n      add\n      swap1\n      dup2\n      mstore\n      0x20\n      add\n      0x00\n      keccak256\n      sload\n        /* \"blockchain/contracts/VendingMachine.sol\":4341:4368  return balances[msg.sender] */\n      swap1\n      pop\n        /* \"blockchain/contracts/VendingMachine.sol\":4282:4375  function getBalance() public view returns (uint) {... */\n      swap1\n      jump\t// out\n        /* \"blockchain/contracts/VendingMachine.sol\":4385:4986  function purchaseProduct(string memory _productId) public {... */\n    tag_40:\n        /* \"blockchain/contracts/VendingMachine.sol\":4453:4470  uint productPrice */\n      0x00\n        /* \"blockchain/contracts/VendingMachine.sol\":4473:4501  getProductByCode(_productId) */\n      tag_133\n        /* \"blockchain/contracts/VendingMachine.sol\":4490:4500  _productId */\n      dup3\n        /* \"blockchain/contracts/VendingMachine.sol\":4473:4489  getProductByCode */\n      tag_116\n        /* \"blockchain/contracts/VendingMachine.sol\":4473:4501  getProductByCode(_productId) */\n      jump\t// in\n    tag_133:\n        /* \"blockchain/contracts/VendingMachine.sol\":4473:4507  getProductByCode(_productId).price */\n      0x20\n      add\n      mload\n        /* \"blockchain/contracts/VendingMachine.sol\":4453:4507  uint productPrice = getProductByCode(_productId).price */\n      swap1\n      pop\n        /* \"blockchain/contracts/VendingMachine.sol\":4549:4561  productPrice */\n      dup1\n        /* \"blockchain/contracts/VendingMachine.sol\":4525:4533  balances */\n      0x02\n        /* \"blockchain/contracts/VendingMachine.sol\":4525:4545  balances[msg.sender] */\n      0x00\n        /* \"blockchain/contracts/VendingMachine.sol\":4534:4544  msg.sender */\n      caller\n        /* \"blockchain/contracts/VendingMachine.sol\":4525:4545  balances[msg.sender] */\n      0xffffffffffffffffffffffffffffffffffffffff\n      and\n      0xffffffffffffffffffffffffffffffffffffffff\n      and\n      dup2\n      mstore\n      0x20\n      add\n      swap1\n      dup2\n      mstore\n      0x20\n      add\n      0x00\n      keccak256\n      sload\n        /* \"blockchain/contracts/VendingMachine.sol\":4525:4561  balances[msg.sender] >= productPrice */\n      lt\n      iszero\n        /* \"blockchain/contracts/VendingMachine.sol\":4517:4584  require(balances[msg.sender] >= productPrice, \"Insufficient funds\") */\n      tag_134\n      jumpi\n      mload(0x40)\n      0x08c379a000000000000000000000000000000000000000000000000000000000\n      dup2\n      mstore\n      0x04\n      add\n      tag_135\n      swap1\n      tag_136\n      jump\t// in\n    tag_135:\n      mload(0x40)\n      dup1\n      swap2\n      sub\n      swap1\n      revert\n    tag_134:\n        /* \"blockchain/contracts/VendingMachine.sol\":4619:4631  productPrice */\n      dup1\n        /* \"blockchain/contracts/VendingMachine.sol\":4595:4603  balances */\n      0x02\n        /* \"blockchain/contracts/VendingMachine.sol\":4595:4615  balances[msg.sender] */\n      0x00\n        /* \"blockchain/contracts/VendingMachine.sol\":4604:4614  msg.sender */\n      caller\n        /* \"blockchain/contracts/VendingMachine.sol\":4595:4615  balances[msg.sender] */\n      0xffffffffffffffffffffffffffffffffffffffff\n      and\n      0xffffffffffffffffffffffffffffffffffffffff\n      and\n      dup2\n      mstore\n      0x20\n      add\n      swap1\n      dup2\n      mstore\n      0x20\n      add\n      0x00\n      keccak256\n      0x00\n        /* \"blockchain/contracts/VendingMachine.sol\":4595:4631  balances[msg.sender] -= productPrice */\n      dup3\n      dup3\n      sload\n      tag_137\n      swap2\n      swap1\n      tag_138\n      jump\t// in\n    tag_137:\n      swap3\n      pop\n      pop\n      dup2\n      swap1\n      sstore\n      pop\n        /* \"blockchain/contracts/VendingMachine.sol\":4641:4650  purchases */\n      0x03\n        /* \"blockchain/contracts/VendingMachine.sol\":4656:4822  ProductLibrary.Purchase(... */\n      mload(0x40)\n      dup1\n      0x80\n      add\n      0x40\n      mstore\n      dup1\n        /* \"blockchain/contracts/VendingMachine.sol\":4693:4703  msg.sender */\n      caller\n        /* \"blockchain/contracts/VendingMachine.sol\":4656:4822  ProductLibrary.Purchase(... */\n      0xffffffffffffffffffffffffffffffffffffffff\n      and\n      dup2\n      mstore\n      0x20\n      add\n        /* \"blockchain/contracts/VendingMachine.sol\":4718:4728  _productId */\n      dup5\n        /* \"blockchain/contracts/VendingMachine.sol\":4656:4822  ProductLibrary.Purchase(... */\n      dup2\n      mstore\n      0x20\n      add\n        /* \"blockchain/contracts/VendingMachine.sol\":4743:4758  block.timestamp */\n      timestamp\n        /* \"blockchain/contracts/VendingMachine.sol\":4656:4822  ProductLibrary.Purchase(... */\n      dup2\n      mstore\n      0x20\n      add\n        /* \"blockchain/contracts/VendingMachine.sol\":4773:4812  ProductLibrary.PurchaseStatus.Available */\n      0x00\n        /* \"blockchain/contracts/VendingMachine.sol\":4656:4822  ProductLibrary.Purchase(... */\n      0x01\n      dup2\n      gt\n      iszero\n      tag_139\n      jumpi\n      tag_140\n      tag_122\n      jump\t// in\n    tag_140:\n    tag_139:\n      dup2\n      mstore\n      pop\n        /* \"blockchain/contracts/VendingMachine.sol\":4641:4823  purchases.push(ProductLibrary.Purchase(... */\n      swap1\n      dup1\n      0x01\n      dup2\n      sload\n      add\n      dup1\n      dup3\n      sstore\n      dup1\n      swap2\n      pop\n      pop\n      0x01\n      swap1\n      sub\n      swap1\n      0x00\n      mstore\n      keccak256(0x00, 0x20)\n      swap1\n      0x04\n      mul\n      add\n      0x00\n      swap1\n      swap2\n      swap1\n      swap2\n      swap1\n      swap2\n      pop\n      0x00\n      dup3\n      add\n      mload\n      dup2\n      0x00\n      add\n      exp(0x0100, 0x00)\n      dup2\n      sload\n      dup2\n      0xffffffffffffffffffffffffffffffffffffffff\n      mul\n      not\n      and\n      swap1\n      dup4\n      0xffffffffffffffffffffffffffffffffffffffff\n      and\n      mul\n      or\n      swap1\n      sstore\n      pop\n      0x20\n      dup3\n      add\n      mload\n      dup2\n      0x01\n      add\n      swap1\n      dup2\n      tag_142\n      swap2\n      swap1\n      tag_143\n      jump\t// in\n    tag_142:\n      pop\n      0x40\n      dup3\n      add\n      mload\n      dup2\n      0x02\n      add\n      sstore\n      0x60\n      dup3\n      add\n      mload\n      dup2\n      0x03\n      add\n      exp(0x0100, 0x00)\n      dup2\n      sload\n      dup2\n      0xff\n      mul\n      not\n      and\n      swap1\n      dup4\n      0x01\n      dup2\n      gt\n      iszero\n      tag_144\n      jumpi\n      tag_145\n      tag_122\n      jump\t// in\n    tag_145:\n    tag_144:\n      mul\n      or\n      swap1\n      sstore\n      pop\n      pop\n      pop\n        /* \"blockchain/contracts/VendingMachine.sol\":4877:4887  msg.sender */\n      caller\n        /* \"blockchain/contracts/VendingMachine.sol\":4847:4979  ProductPurchased(... */\n      0xffffffffffffffffffffffffffffffffffffffff\n      and\n      0x63d8e5c0bf4559e61ee479385882367114d00d044cdbf28449bf437737db31af\n        /* \"blockchain/contracts/VendingMachine.sol\":4902:4912  _productId */\n      dup4\n        /* \"blockchain/contracts/VendingMachine.sol\":4927:4939  productPrice */\n      dup4\n        /* \"blockchain/contracts/VendingMachine.sol\":4954:4969  block.timestamp */\n      timestamp\n        /* \"blockchain/contracts/VendingMachine.sol\":4847:4979  ProductPurchased(... */\n      mload(0x40)\n      tag_146\n      swap4\n      swap3\n      swap2\n      swap1\n      tag_147\n      jump\t// in\n    tag_146:\n      mload(0x40)\n      dup1\n      swap2\n      sub\n      swap1\n      log2\n        /* \"blockchain/contracts/VendingMachine.sol\":4443:4986  {... */\n      pop\n        /* \"blockchain/contracts/VendingMachine.sol\":4385:4986  function purchaseProduct(string memory _productId) public {... */\n      pop\n      jump\t// out\n        /* \"blockchain/contracts/VendingMachine.sol\":6545:6894  function withdraw() public onlyOwner noReentrant {... */\n    tag_43:\n        /* \"blockchain/contracts/VendingMachine.sol\":1076:1081  owner */\n      immutable(\"0x59c0d2b7af0a8e6d3d8e710a078764bd67b7223777026c424cdb4f599824bb79\")\n        /* \"blockchain/contracts/VendingMachine.sol\":1062:1081  msg.sender == owner */\n      0xffffffffffffffffffffffffffffffffffffffff\n      and\n        /* \"blockchain/contracts/VendingMachine.sol\":1062:1072  msg.sender */\n      caller\n        /* \"blockchain/contracts/VendingMachine.sol\":1062:1081  msg.sender == owner */\n      0xffffffffffffffffffffffffffffffffffffffff\n      and\n      eq\n        /* \"blockchain/contracts/VendingMachine.sol\":1054:1119  require(msg.sender == owner, \"Only owner can call this function\") */\n      tag_149\n      jumpi\n      mload(0x40)\n      0x08c379a000000000000000000000000000000000000000000000000000000000\n      dup2\n      mstore\n      0x04\n      add\n      tag_150\n      swap1\n      tag_151\n      jump\t// in\n    tag_150:\n      mload(0x40)\n      dup1\n      swap2\n      sub\n      swap1\n      revert\n    tag_149:\n        /* \"blockchain/contracts/VendingMachine.sol\":1180:1186  locked */\n      0x00\n      dup1\n      sload\n      swap1\n      0x0100\n      exp\n      swap1\n      div\n      0xff\n      and\n        /* \"blockchain/contracts/VendingMachine.sol\":1176:1247  if (locked) {... */\n      iszero\n      tag_153\n      jumpi\n        /* \"blockchain/contracts/VendingMachine.sol\":1225:1235  msg.sender */\n      caller\n        /* \"blockchain/contracts/VendingMachine.sol\":1207:1236  ReentrancyAttempt(msg.sender) */\n      0xffffffffffffffffffffffffffffffffffffffff\n      and\n      0xc76eaf55fe0c62418848780c99c0c94a15f79b80bca75629b0b8bd07678f55b6\n      mload(0x40)\n      mload(0x40)\n      dup1\n      swap2\n      sub\n      swap1\n      log2\n        /* \"blockchain/contracts/VendingMachine.sol\":1176:1247  if (locked) {... */\n    tag_153:\n        /* \"blockchain/contracts/VendingMachine.sol\":1265:1271  locked */\n      0x00\n      dup1\n      sload\n      swap1\n      0x0100\n      exp\n      swap1\n      div\n      0xff\n      and\n        /* \"blockchain/contracts/VendingMachine.sol\":1264:1271  !locked */\n      iszero\n        /* \"blockchain/contracts/VendingMachine.sol\":1256:1289  require(!locked, \"No reentrancy\") */\n      tag_154\n      jumpi\n      mload(0x40)\n      0x08c379a000000000000000000000000000000000000000000000000000000000\n      dup2\n      mstore\n      0x04\n      add\n      tag_155\n      swap1\n      tag_156\n      jump\t// in\n    tag_155:\n      mload(0x40)\n      dup1\n      swap2\n      sub\n      swap1\n      revert\n    tag_154:\n        /* \"blockchain/contracts/VendingMachine.sol\":1308:1312  true */\n      0x01\n        /* \"blockchain/contracts/VendingMachine.sol\":1299:1305  locked */\n      0x00\n      dup1\n        /* \"blockchain/contracts/VendingMachine.sol\":1299:1312  locked = true */\n      0x0100\n      exp\n      dup2\n      sload\n      dup2\n      0xff\n      mul\n      not\n      and\n      swap1\n      dup4\n      iszero\n      iszero\n      mul\n      or\n      swap1\n      sstore\n      pop\n        /* \"blockchain/contracts/VendingMachine.sol\":6604:6615  uint amount */\n      0x00\n        /* \"blockchain/contracts/VendingMachine.sol\":6618:6626  balances */\n      0x02\n        /* \"blockchain/contracts/VendingMachine.sol\":6618:6638  balances[msg.sender] */\n      0x00\n        /* \"blockchain/contracts/VendingMachine.sol\":6627:6637  msg.sender */\n      caller\n        /* \"blockchain/contracts/VendingMachine.sol\":6618:6638  balances[msg.sender] */\n      0xffffffffffffffffffffffffffffffffffffffff\n      and\n      0xffffffffffffffffffffffffffffffffffffffff\n      and\n      dup2\n      mstore\n      0x20\n      add\n      swap1\n      dup2\n      mstore\n      0x20\n      add\n      0x00\n      keccak256\n      sload\n        /* \"blockchain/contracts/VendingMachine.sol\":6604:6638  uint amount = balances[msg.sender] */\n      swap1\n      pop\n        /* \"blockchain/contracts/VendingMachine.sol\":6665:6666  0 */\n      0x00\n        /* \"blockchain/contracts/VendingMachine.sol\":6656:6662  amount */\n      dup2\n        /* \"blockchain/contracts/VendingMachine.sol\":6656:6666  amount > 0 */\n      gt\n        /* \"blockchain/contracts/VendingMachine.sol\":6648:6699  require(amount > 0, \"You do not have any balance.\") */\n      tag_158\n      jumpi\n      mload(0x40)\n      0x08c379a000000000000000000000000000000000000000000000000000000000\n      dup2\n      mstore\n      0x04\n      add\n      tag_159\n      swap1\n      tag_160\n      jump\t// in\n    tag_159:\n      mload(0x40)\n      dup1\n      swap2\n      sub\n      swap1\n      revert\n    tag_158:\n        /* \"blockchain/contracts/VendingMachine.sol\":6732:6733  0 */\n      0x00\n        /* \"blockchain/contracts/VendingMachine.sol\":6709:6717  balances */\n      0x02\n        /* \"blockchain/contracts/VendingMachine.sol\":6709:6729  balances[msg.sender] */\n      0x00\n        /* \"blockchain/contracts/VendingMachine.sol\":6718:6728  msg.sender */\n      caller\n        /* \"blockchain/contracts/VendingMachine.sol\":6709:6729  balances[msg.sender] */\n      0xffffffffffffffffffffffffffffffffffffffff\n      and\n      0xffffffffffffffffffffffffffffffffffffffff\n      and\n      dup2\n      mstore\n      0x20\n      add\n      swap1\n      dup2\n      mstore\n      0x20\n      add\n      0x00\n      keccak256\n        /* \"blockchain/contracts/VendingMachine.sol\":6709:6733  balances[msg.sender] = 0 */\n      dup2\n      swap1\n      sstore\n      pop\n        /* \"blockchain/contracts/VendingMachine.sol\":6744:6756  bool success */\n      0x00\n        /* \"blockchain/contracts/VendingMachine.sol\":6762:6772  msg.sender */\n      caller\n        /* \"blockchain/contracts/VendingMachine.sol\":6762:6777  msg.sender.call */\n      0xffffffffffffffffffffffffffffffffffffffff\n      and\n        /* \"blockchain/contracts/VendingMachine.sol\":6785:6791  amount */\n      dup3\n        /* \"blockchain/contracts/VendingMachine.sol\":6762:6796  msg.sender.call{value: amount}(\"\") */\n      mload(0x40)\n      tag_161\n      swap1\n      tag_162\n      jump\t// in\n    tag_161:\n      0x00\n      mload(0x40)\n      dup1\n      dup4\n      sub\n      dup2\n      dup6\n      dup8\n      gas\n      call\n      swap3\n      pop\n      pop\n      pop\n      returndatasize\n      dup1\n      0x00\n      dup2\n      eq\n      tag_165\n      jumpi\n      mload(0x40)\n      swap2\n      pop\n      and(add(returndatasize, 0x3f), not(0x1f))\n      dup3\n      add\n      0x40\n      mstore\n      returndatasize\n      dup3\n      mstore\n      returndatasize\n      0x00\n      0x20\n      dup5\n      add\n      returndatacopy\n      jump(tag_164)\n    tag_165:\n      0x60\n      swap2\n      pop\n    tag_164:\n      pop\n        /* \"blockchain/contracts/VendingMachine.sol\":6743:6796  (bool success, ) = msg.sender.call{value: amount}(\"\") */\n      pop\n      swap1\n      pop\n        /* \"blockchain/contracts/VendingMachine.sol\":6814:6821  success */\n      dup1\n        /* \"blockchain/contracts/VendingMachine.sol\":6806:6842  require(success, \"Transfer failed.\") */\n      tag_166\n      jumpi\n      mload(0x40)\n      0x08c379a000000000000000000000000000000000000000000000000000000000\n      dup2\n      mstore\n      0x04\n      add\n      tag_167\n      swap1\n      tag_168\n      jump\t// in\n    tag_167:\n      mload(0x40)\n      dup1\n      swap2\n      sub\n      swap1\n      revert\n    tag_166:\n        /* \"blockchain/contracts/VendingMachine.sol\":6868:6878  msg.sender */\n      caller\n        /* \"blockchain/contracts/VendingMachine.sol\":6857:6887  Withdrawal(msg.sender, amount) */\n      0xffffffffffffffffffffffffffffffffffffffff\n      and\n      0x7fcf532c15f0a6db0bd6d0e038bea71d30d808c7d98cb3bf7268a95bf5081b65\n        /* \"blockchain/contracts/VendingMachine.sol\":6880:6886  amount */\n      dup4\n        /* \"blockchain/contracts/VendingMachine.sol\":6857:6887  Withdrawal(msg.sender, amount) */\n      mload(0x40)\n      tag_169\n      swap2\n      swap1\n      tag_35\n      jump\t// in\n    tag_169:\n      mload(0x40)\n      dup1\n      swap2\n      sub\n      swap1\n      log2\n        /* \"blockchain/contracts/VendingMachine.sol\":6594:6894  {... */\n      pop\n      pop\n        /* \"blockchain/contracts/VendingMachine.sol\":1342:1347  false */\n      0x00\n        /* \"blockchain/contracts/VendingMachine.sol\":1333:1339  locked */\n      dup1\n      0x00\n        /* \"blockchain/contracts/VendingMachine.sol\":1333:1347  locked = false */\n      0x0100\n      exp\n      dup2\n      sload\n      dup2\n      0xff\n      mul\n      not\n      and\n      swap1\n      dup4\n      iszero\n      iszero\n      mul\n      or\n      swap1\n      sstore\n      pop\n        /* \"blockchain/contracts/VendingMachine.sol\":6545:6894  function withdraw() public onlyOwner noReentrant {... */\n      jump\t// out\n        /* \"blockchain/contracts/VendingMachine.sol\":145:175  address public immutable owner */\n    tag_46:\n      immutable(\"0x59c0d2b7af0a8e6d3d8e710a078764bd67b7223777026c424cdb4f599824bb79\")\n      dup2\n      jump\t// out\n        /* \"blockchain/contracts/VendingMachine.sol\":6059:6539  function consumePurchase(uint _purchaseIndex) public {... */\n    tag_54:\n        /* \"blockchain/contracts/VendingMachine.sol\":6147:6156  purchases */\n      0x03\n        /* \"blockchain/contracts/VendingMachine.sol\":6147:6163  purchases.length */\n      dup1\n      sload\n      swap1\n      pop\n        /* \"blockchain/contracts/VendingMachine.sol\":6130:6144  _purchaseIndex */\n      dup2\n        /* \"blockchain/contracts/VendingMachine.sol\":6130:6163  _purchaseIndex < purchases.length */\n      lt\n        /* \"blockchain/contracts/VendingMachine.sol\":6122:6181  require(_purchaseIndex < purchases.length, \"Invalid index\") */\n      tag_171\n      jumpi\n      mload(0x40)\n      0x08c379a000000000000000000000000000000000000000000000000000000000\n      dup2\n      mstore\n      0x04\n      add\n      tag_172\n      swap1\n      tag_173\n      jump\t// in\n    tag_172:\n      mload(0x40)\n      dup1\n      swap2\n      sub\n      swap1\n      revert\n    tag_171:\n        /* \"blockchain/contracts/VendingMachine.sol\":6234:6244  msg.sender */\n      caller\n        /* \"blockchain/contracts/VendingMachine.sol\":6199:6244  purchases[_purchaseIndex].buyer == msg.sender */\n      0xffffffffffffffffffffffffffffffffffffffff\n      and\n        /* \"blockchain/contracts/VendingMachine.sol\":6199:6208  purchases */\n      0x03\n        /* \"blockchain/contracts/VendingMachine.sol\":6209:6223  _purchaseIndex */\n      dup3\n        /* \"blockchain/contracts/VendingMachine.sol\":6199:6224  purchases[_purchaseIndex] */\n      dup2\n      sload\n      dup2\n      lt\n      tag_174\n      jumpi\n      tag_175\n      tag_88\n      jump\t// in\n    tag_175:\n    tag_174:\n      swap1\n      0x00\n      mstore\n      keccak256(0x00, 0x20)\n      swap1\n      0x04\n      mul\n      add\n        /* \"blockchain/contracts/VendingMachine.sol\":6199:6230  purchases[_purchaseIndex].buyer */\n      0x00\n      add\n      0x00\n      swap1\n      sload\n      swap1\n      0x0100\n      exp\n      swap1\n      div\n      0xffffffffffffffffffffffffffffffffffffffff\n      and\n        /* \"blockchain/contracts/VendingMachine.sol\":6199:6244  purchases[_purchaseIndex].buyer == msg.sender */\n      0xffffffffffffffffffffffffffffffffffffffff\n      and\n      eq\n        /* \"blockchain/contracts/VendingMachine.sol\":6191:6266  require(purchases[_purchaseIndex].buyer == msg.sender, \"Not your purchase\") */\n      tag_177\n      jumpi\n      mload(0x40)\n      0x08c379a000000000000000000000000000000000000000000000000000000000\n      dup2\n      mstore\n      0x04\n      add\n      tag_178\n      swap1\n      tag_179\n      jump\t// in\n    tag_178:\n      mload(0x40)\n      dup1\n      swap2\n      sub\n      swap1\n      revert\n    tag_177:\n        /* \"blockchain/contracts/VendingMachine.sol\":6320:6359  ProductLibrary.PurchaseStatus.Available */\n      0x00\n        /* \"blockchain/contracts/VendingMachine.sol\":6284:6359  purchases[_purchaseIndex].status == ProductLibrary.PurchaseStatus.Available */\n      0x01\n      dup2\n      gt\n      iszero\n      tag_180\n      jumpi\n      tag_181\n      tag_122\n      jump\t// in\n    tag_181:\n    tag_180:\n        /* \"blockchain/contracts/VendingMachine.sol\":6284:6293  purchases */\n      0x03\n        /* \"blockchain/contracts/VendingMachine.sol\":6294:6308  _purchaseIndex */\n      dup3\n        /* \"blockchain/contracts/VendingMachine.sol\":6284:6309  purchases[_purchaseIndex] */\n      dup2\n      sload\n      dup2\n      lt\n      tag_182\n      jumpi\n      tag_183\n      tag_88\n      jump\t// in\n    tag_183:\n    tag_182:\n      swap1\n      0x00\n      mstore\n      keccak256(0x00, 0x20)\n      swap1\n      0x04\n      mul\n      add\n        /* \"blockchain/contracts/VendingMachine.sol\":6284:6316  purchases[_purchaseIndex].status */\n      0x03\n      add\n      0x00\n      swap1\n      sload\n      swap1\n      0x0100\n      exp\n      swap1\n      div\n      0xff\n      and\n        /* \"blockchain/contracts/VendingMachine.sol\":6284:6359  purchases[_purchaseIndex].status == ProductLibrary.PurchaseStatus.Available */\n      0x01\n      dup2\n      gt\n      iszero\n      tag_185\n      jumpi\n      tag_186\n      tag_122\n      jump\t// in\n    tag_186:\n    tag_185:\n      eq\n        /* \"blockchain/contracts/VendingMachine.sol\":6276:6389  require(purchases[_purchaseIndex].status == ProductLibrary.PurchaseStatus.Available, \"Purchase already consumed\") */\n      tag_187\n      jumpi\n      mload(0x40)\n      0x08c379a000000000000000000000000000000000000000000000000000000000\n      dup2\n      mstore\n      0x04\n      add\n      tag_188\n      swap1\n      tag_189\n      jump\t// in\n    tag_188:\n      mload(0x40)\n      dup1\n      swap2\n      sub\n      swap1\n      revert\n    tag_187:\n        /* \"blockchain/contracts/VendingMachine.sol\":6435:6473  ProductLibrary.PurchaseStatus.Consumed */\n      0x01\n        /* \"blockchain/contracts/VendingMachine.sol\":6400:6409  purchases */\n      0x03\n        /* \"blockchain/contracts/VendingMachine.sol\":6410:6424  _purchaseIndex */\n      dup3\n        /* \"blockchain/contracts/VendingMachine.sol\":6400:6425  purchases[_purchaseIndex] */\n      dup2\n      sload\n      dup2\n      lt\n      tag_190\n      jumpi\n      tag_191\n      tag_88\n      jump\t// in\n    tag_191:\n    tag_190:\n      swap1\n      0x00\n      mstore\n      keccak256(0x00, 0x20)\n      swap1\n      0x04\n      mul\n      add\n        /* \"blockchain/contracts/VendingMachine.sol\":6400:6432  purchases[_purchaseIndex].status */\n      0x03\n      add\n      0x00\n        /* \"blockchain/contracts/VendingMachine.sol\":6400:6473  purchases[_purchaseIndex].status = ProductLibrary.PurchaseStatus.Consumed */\n      0x0100\n      exp\n      dup2\n      sload\n      dup2\n      0xff\n      mul\n      not\n      and\n      swap1\n      dup4\n      0x01\n      dup2\n      gt\n      iszero\n      tag_193\n      jumpi\n      tag_194\n      tag_122\n      jump\t// in\n    tag_194:\n    tag_193:\n      mul\n      or\n      swap1\n      sstore\n      pop\n        /* \"blockchain/contracts/VendingMachine.sol\":6505:6515  msg.sender */\n      caller\n        /* \"blockchain/contracts/VendingMachine.sol\":6488:6532  PurchaseConsumed(msg.sender, _purchaseIndex) */\n      0xffffffffffffffffffffffffffffffffffffffff\n      and\n      0xa7c459bc1ada656ec9f3f0e9562dcd1353b12b0fd5cc82657c4cecdc0dba6b82\n        /* \"blockchain/contracts/VendingMachine.sol\":6517:6531  _purchaseIndex */\n      dup3\n        /* \"blockchain/contracts/VendingMachine.sol\":6488:6532  PurchaseConsumed(msg.sender, _purchaseIndex) */\n      mload(0x40)\n      tag_195\n      swap2\n      swap1\n      tag_35\n      jump\t// in\n    tag_195:\n      mload(0x40)\n      dup1\n      swap2\n      sub\n      swap1\n      log2\n        /* \"blockchain/contracts/VendingMachine.sol\":6059:6539  function consumePurchase(uint _purchaseIndex) public {... */\n      pop\n      jump\t// out\n        /* \"blockchain/contracts/VendingMachine.sol\":3589:3960  function getProductByCode(string memory _productId) private view returns (ProductLibrary.Product memory) {... */\n    tag_116:\n        /* \"blockchain/contracts/VendingMachine.sol\":3663:3692  ProductLibrary.Product memory */\n      tag_196\n      tag_197\n      jump\t// in\n    tag_196:\n        /* \"blockchain/contracts/VendingMachine.sol\":3709:3715  uint i */\n      0x00\n        /* \"blockchain/contracts/VendingMachine.sol\":3704:3917  for (uint i = 0; i < products.length; i++) {... */\n    tag_199:\n        /* \"blockchain/contracts/VendingMachine.sol\":3725:3733  products */\n      0x01\n        /* \"blockchain/contracts/VendingMachine.sol\":3725:3740  products.length */\n      dup1\n      sload\n      swap1\n      pop\n        /* \"blockchain/contracts/VendingMachine.sol\":3721:3722  i */\n      dup2\n        /* \"blockchain/contracts/VendingMachine.sol\":3721:3740  i < products.length */\n      lt\n        /* \"blockchain/contracts/VendingMachine.sol\":3704:3917  for (uint i = 0; i < products.length; i++) {... */\n      iszero\n      tag_200\n      jumpi\n        /* \"blockchain/contracts/VendingMachine.sol\":3841:3851  _productId */\n      dup3\n        /* \"blockchain/contracts/VendingMachine.sol\":3824:3852  abi.encodePacked(_productId) */\n      add(0x20, mload(0x40))\n      tag_202\n      swap2\n      swap1\n      tag_203\n      jump\t// in\n    tag_202:\n      mload(0x40)\n      0x20\n      dup2\n      dup4\n      sub\n      sub\n      dup2\n      mstore\n      swap1\n      0x40\n      mstore\n        /* \"blockchain/contracts/VendingMachine.sol\":3814:3853  keccak256(abi.encodePacked(_productId)) */\n      dup1\n      mload\n      swap1\n      0x20\n      add\n      keccak256\n        /* \"blockchain/contracts/VendingMachine.sol\":3792:3800  products */\n      0x01\n        /* \"blockchain/contracts/VendingMachine.sol\":3801:3802  i */\n      dup3\n        /* \"blockchain/contracts/VendingMachine.sol\":3792:3803  products[i] */\n      dup2\n      sload\n      dup2\n      lt\n      tag_204\n      jumpi\n      tag_205\n      tag_88\n      jump\t// in\n    tag_205:\n    tag_204:\n      swap1\n      0x00\n      mstore\n      keccak256(0x00, 0x20)\n      swap1\n      0x04\n      mul\n      add\n        /* \"blockchain/contracts/VendingMachine.sol\":3792:3808  products[i].code */\n      0x00\n      add\n        /* \"blockchain/contracts/VendingMachine.sol\":3775:3809  abi.encodePacked(products[i].code) */\n      add(0x20, mload(0x40))\n      tag_207\n      swap2\n      swap1\n      tag_208\n      jump\t// in\n    tag_207:\n      mload(0x40)\n      0x20\n      dup2\n      dup4\n      sub\n      sub\n      dup2\n      mstore\n      swap1\n      0x40\n      mstore\n        /* \"blockchain/contracts/VendingMachine.sol\":3765:3810  keccak256(abi.encodePacked(products[i].code)) */\n      dup1\n      mload\n      swap1\n      0x20\n      add\n      keccak256\n        /* \"blockchain/contracts/VendingMachine.sol\":3765:3853  keccak256(abi.encodePacked(products[i].code)) == keccak256(abi.encodePacked(_productId)) */\n      sub\n        /* \"blockchain/contracts/VendingMachine.sol\":3761:3907  if (keccak256(abi.encodePacked(products[i].code)) == keccak256(abi.encodePacked(_productId))) {... */\n      tag_209\n      jumpi\n        /* \"blockchain/contracts/VendingMachine.sol\":3880:3888  products */\n      0x01\n        /* \"blockchain/contracts/VendingMachine.sol\":3889:3890  i */\n      dup2\n        /* \"blockchain/contracts/VendingMachine.sol\":3880:3891  products[i] */\n      dup2\n      sload\n      dup2\n      lt\n      tag_210\n      jumpi\n      tag_211\n      tag_88\n      jump\t// in\n    tag_211:\n    tag_210:\n      swap1\n      0x00\n      mstore\n      keccak256(0x00, 0x20)\n      swap1\n      0x04\n      mul\n      add\n        /* \"blockchain/contracts/VendingMachine.sol\":3873:3891  return products[i] */\n      mload(0x40)\n      dup1\n      0x80\n      add\n      0x40\n      mstore\n      swap1\n      dup2\n      0x00\n      dup3\n      add\n      dup1\n      sload\n      tag_213\n      swap1\n      tag_67\n      jump\t// in\n    tag_213:\n      dup1\n      0x1f\n      add\n      0x20\n      dup1\n      swap2\n      div\n      mul\n      0x20\n      add\n      mload(0x40)\n      swap1\n      dup2\n      add\n      0x40\n      mstore\n      dup1\n      swap3\n      swap2\n      swap1\n      dup2\n      dup2\n      mstore\n      0x20\n      add\n      dup3\n      dup1\n      sload\n      tag_214\n      swap1\n      tag_67\n      jump\t// in\n    tag_214:\n      dup1\n      iszero\n      tag_215\n      jumpi\n      dup1\n      0x1f\n      lt\n      tag_216\n      jumpi\n      0x0100\n      dup1\n      dup4\n      sload\n      div\n      mul\n      dup4\n      mstore\n      swap2\n      0x20\n      add\n      swap2\n      jump(tag_215)\n    tag_216:\n      dup3\n      add\n      swap2\n      swap1\n      0x00\n      mstore\n      keccak256(0x00, 0x20)\n      swap1\n    tag_217:\n      dup2\n      sload\n      dup2\n      mstore\n      swap1\n      0x01\n      add\n      swap1\n      0x20\n      add\n      dup1\n      dup4\n      gt\n      tag_217\n      jumpi\n      dup3\n      swap1\n      sub\n      0x1f\n      and\n      dup3\n      add\n      swap2\n    tag_215:\n      pop\n      pop\n      pop\n      pop\n      pop\n      dup2\n      mstore\n      0x20\n      add\n      0x01\n      dup3\n      add\n      sload\n      dup2\n      mstore\n      0x20\n      add\n      0x02\n      dup3\n      add\n      dup1\n      sload\n      tag_218\n      swap1\n      tag_67\n      jump\t// in\n    tag_218:\n      dup1\n      0x1f\n      add\n      0x20\n      dup1\n      swap2\n      div\n      mul\n      0x20\n      add\n      mload(0x40)\n      swap1\n      dup2\n      add\n      0x40\n      mstore\n      dup1\n      swap3\n      swap2\n      swap1\n      dup2\n      dup2\n      mstore\n      0x20\n      add\n      dup3\n      dup1\n      sload\n      tag_219\n      swap1\n      tag_67\n      jump\t// in\n    tag_219:\n      dup1\n      iszero\n      tag_220\n      jumpi\n      dup1\n      0x1f\n      lt\n      tag_221\n      jumpi\n      0x0100\n      dup1\n      dup4\n      sload\n      div\n      mul\n      dup4\n      mstore\n      swap2\n      0x20\n      add\n      swap2\n      jump(tag_220)\n    tag_221:\n      dup3\n      add\n      swap2\n      swap1\n      0x00\n      mstore\n      keccak256(0x00, 0x20)\n      swap1\n    tag_222:\n      dup2\n      sload\n      dup2\n      mstore\n      swap1\n      0x01\n      add\n      swap1\n      0x20\n      add\n      dup1\n      dup4\n      gt\n      tag_222\n      jumpi\n      dup3\n      swap1\n      sub\n      0x1f\n      and\n      dup3\n      add\n      swap2\n    tag_220:\n      pop\n      pop\n      pop\n      pop\n      pop\n      dup2\n      mstore\n      0x20\n      add\n      0x03\n      dup3\n      add\n      dup1\n      sload\n      tag_223\n      swap1\n      tag_67\n      jump\t// in\n    tag_223:\n      dup1\n      0x1f\n      add\n      0x20\n      dup1\n      swap2\n      div\n      mul\n      0x20\n      add\n      mload(0x40)\n      swap1\n      dup2\n      add\n      0x40\n      mstore\n      dup1\n      swap3\n      swap2\n      swap1\n      dup2\n      dup2\n      mstore\n      0x20\n      add\n      dup3\n      dup1\n      sload\n      tag_224\n      swap1\n      tag_67\n      jump\t// in\n    tag_224:\n      dup1\n      iszero\n      tag_225\n      jumpi\n      dup1\n      0x1f\n      lt\n      tag_226\n      jumpi\n      0x0100\n      dup1\n      dup4\n      sload\n      div\n      mul\n      dup4\n      mstore\n      swap2\n      0x20\n      add\n      swap2\n      jump(tag_225)\n    tag_226:\n      dup3\n      add\n      swap2\n      swap1\n      0x00\n      mstore\n      keccak256(0x00, 0x20)\n      swap1\n    tag_227:\n      dup2\n      sload\n      dup2\n      mstore\n      swap1\n      0x01\n      add\n      swap1\n      0x20\n      add\n      dup1\n      dup4\n      gt\n      tag_227\n      jumpi\n      dup3\n      swap1\n      sub\n      0x1f\n      and\n      dup3\n      add\n      swap2\n    tag_225:\n      pop\n      pop\n      pop\n      pop\n      pop\n      dup2\n      mstore\n      pop\n      pop\n      swap2\n      pop\n      pop\n      jump(tag_198)\n        /* \"blockchain/contracts/VendingMachine.sol\":3761:3907  if (keccak256(abi.encodePacked(products[i].code)) == keccak256(abi.encodePacked(_productId))) {... */\n    tag_209:\n        /* \"blockchain/contracts/VendingMachine.sol\":3742:3745  i++ */\n      dup1\n      dup1\n      0x01\n      add\n      swap2\n      pop\n      pop\n        /* \"blockchain/contracts/VendingMachine.sol\":3704:3917  for (uint i = 0; i < products.length; i++) {... */\n      jump(tag_199)\n    tag_200:\n      pop\n        /* \"blockchain/contracts/VendingMachine.sol\":3926:3953  revert(\"Product not found\") */\n      mload(0x40)\n      0x08c379a000000000000000000000000000000000000000000000000000000000\n      dup2\n      mstore\n      0x04\n      add\n      tag_228\n      swap1\n      tag_229\n      jump\t// in\n    tag_228:\n      mload(0x40)\n      dup1\n      swap2\n      sub\n      swap1\n      revert\n        /* \"blockchain/contracts/VendingMachine.sol\":3589:3960  function getProductByCode(string memory _productId) private view returns (ProductLibrary.Product memory) {... */\n    tag_198:\n      swap2\n      swap1\n      pop\n      jump\t// out\n    tag_99:\n      mload(0x40)\n      dup1\n      0xc0\n      add\n      0x40\n      mstore\n      dup1\n      0x00\n      dup2\n      mstore\n      0x20\n      add\n      0x60\n      dup2\n      mstore\n      0x20\n      add\n      0x60\n      dup2\n      mstore\n      0x20\n      add\n      0x00\n      dup2\n      mstore\n      0x20\n      add\n      0x00\n      dup2\n      mstore\n      0x20\n      add\n      iszero(iszero(0x00))\n      dup2\n      mstore\n      pop\n      swap1\n      jump\t// out\n    tag_197:\n      mload(0x40)\n      dup1\n      0x80\n      add\n      0x40\n      mstore\n      dup1\n      0x60\n      dup2\n      mstore\n      0x20\n      add\n      0x00\n      dup2\n      mstore\n      0x20\n      add\n      0x60\n      dup2\n      mstore\n      0x20\n      add\n      0x60\n      dup2\n      mstore\n      pop\n      swap1\n      jump\t// out\n        /* \"#utility.yul\":7:144   */\n    tag_230:\n        /* \"#utility.yul\":97:103   */\n      0x00\n        /* \"#utility.yul\":131:136   */\n      dup2\n        /* \"#utility.yul\":125:137   */\n      mload\n        /* \"#utility.yul\":115:137   */\n      swap1\n      pop\n        /* \"#utility.yul\":7:144   */\n      swap2\n      swap1\n      pop\n      jump\t// out\n        /* \"#utility.yul\":150:357   */\n    tag_231:\n        /* \"#utility.yul\":272:283   */\n      0x00\n        /* \"#utility.yul\":306:312   */\n      dup3\n        /* \"#utility.yul\":301:304   */\n      dup3\n        /* \"#utility.yul\":294:313   */\n      mstore\n        /* \"#utility.yul\":346:350   */\n      0x20\n        /* \"#utility.yul\":341:344   */\n      dup3\n        /* \"#utility.yul\":337:351   */\n      add\n        /* \"#utility.yul\":322:351   */\n      swap1\n      pop\n        /* \"#utility.yul\":150:357   */\n      swap3\n      swap2\n      pop\n      pop\n      jump\t// out\n        /* \"#utility.yul\":363:518   */\n    tag_232:\n        /* \"#utility.yul\":453:457   */\n      0x00\n        /* \"#utility.yul\":476:479   */\n      dup2\n        /* \"#utility.yul\":468:479   */\n      swap1\n      pop\n        /* \"#utility.yul\":506:510   */\n      0x20\n        /* \"#utility.yul\":501:504   */\n      dup3\n        /* \"#utility.yul\":497:511   */\n      add\n        /* \"#utility.yul\":489:511   */\n      swap1\n      pop\n        /* \"#utility.yul\":363:518   */\n      swap2\n      swap1\n      pop\n      jump\t// out\n        /* \"#utility.yul\":524:623   */\n    tag_233:\n        /* \"#utility.yul\":576:582   */\n      0x00\n        /* \"#utility.yul\":610:615   */\n      dup2\n        /* \"#utility.yul\":604:616   */\n      mload\n        /* \"#utility.yul\":594:616   */\n      swap1\n      pop\n        /* \"#utility.yul\":524:623   */\n      swap2\n      swap1\n      pop\n      jump\t// out\n        /* \"#utility.yul\":629:788   */\n    tag_234:\n        /* \"#utility.yul\":703:714   */\n      0x00\n        /* \"#utility.yul\":737:743   */\n      dup3\n        /* \"#utility.yul\":732:735   */\n      dup3\n        /* \"#utility.yul\":725:744   */\n      mstore\n        /* \"#utility.yul\":777:781   */\n      0x20\n        /* \"#utility.yul\":772:775   */\n      dup3\n        /* \"#utility.yul\":768:782   */\n      add\n        /* \"#utility.yul\":753:782   */\n      swap1\n      pop\n        /* \"#utility.yul\":629:788   */\n      swap3\n      swap2\n      pop\n      pop\n      jump\t// out\n        /* \"#utility.yul\":794:933   */\n    tag_235:\n        /* \"#utility.yul\":883:889   */\n      dup3\n        /* \"#utility.yul\":878:881   */\n      dup2\n        /* \"#utility.yul\":873:876   */\n      dup4\n        /* \"#utility.yul\":867:890   */\n      mcopy\n        /* \"#utility.yul\":924:925   */\n      0x00\n        /* \"#utility.yul\":915:921   */\n      dup4\n        /* \"#utility.yul\":910:913   */\n      dup4\n        /* \"#utility.yul\":906:922   */\n      add\n        /* \"#utility.yul\":899:926   */\n      mstore\n        /* \"#utility.yul\":794:933   */\n      pop\n      pop\n      pop\n      jump\t// out\n        /* \"#utility.yul\":939:1041   */\n    tag_236:\n        /* \"#utility.yul\":980:986   */\n      0x00\n        /* \"#utility.yul\":1031:1033   */\n      0x1f\n        /* \"#utility.yul\":1027:1034   */\n      not\n        /* \"#utility.yul\":1022:1024   */\n      0x1f\n        /* \"#utility.yul\":1015:1020   */\n      dup4\n        /* \"#utility.yul\":1011:1025   */\n      add\n        /* \"#utility.yul\":1007:1035   */\n      and\n        /* \"#utility.yul\":997:1035   */\n      swap1\n      pop\n        /* \"#utility.yul\":939:1041   */\n      swap2\n      swap1\n      pop\n      jump\t// out\n        /* \"#utility.yul\":1047:1404   */\n    tag_237:\n        /* \"#utility.yul\":1125:1128   */\n      0x00\n        /* \"#utility.yul\":1153:1192   */\n      tag_326\n        /* \"#utility.yul\":1186:1191   */\n      dup3\n        /* \"#utility.yul\":1153:1192   */\n      tag_233\n      jump\t// in\n    tag_326:\n        /* \"#utility.yul\":1208:1269   */\n      tag_327\n        /* \"#utility.yul\":1262:1268   */\n      dup2\n        /* \"#utility.yul\":1257:1260   */\n      dup6\n        /* \"#utility.yul\":1208:1269   */\n      tag_234\n      jump\t// in\n    tag_327:\n        /* \"#utility.yul\":1201:1269   */\n      swap4\n      pop\n        /* \"#utility.yul\":1278:1343   */\n      tag_328\n        /* \"#utility.yul\":1336:1342   */\n      dup2\n        /* \"#utility.yul\":1331:1334   */\n      dup6\n        /* \"#utility.yul\":1324:1328   */\n      0x20\n        /* \"#utility.yul\":1317:1322   */\n      dup7\n        /* \"#utility.yul\":1313:1329   */\n      add\n        /* \"#utility.yul\":1278:1343   */\n      tag_235\n      jump\t// in\n    tag_328:\n        /* \"#utility.yul\":1368:1397   */\n      tag_329\n        /* \"#utility.yul\":1390:1396   */\n      dup2\n        /* \"#utility.yul\":1368:1397   */\n      tag_236\n      jump\t// in\n    tag_329:\n        /* \"#utility.yul\":1363:1366   */\n      dup5\n        /* \"#utility.yul\":1359:1398   */\n      add\n        /* \"#utility.yul\":1352:1398   */\n      swap2\n      pop\n        /* \"#utility.yul\":1129:1404   */\n      pop\n        /* \"#utility.yul\":1047:1404   */\n      swap3\n      swap2\n      pop\n      pop\n      jump\t// out\n        /* \"#utility.yul\":1410:1487   */\n    tag_238:\n        /* \"#utility.yul\":1447:1454   */\n      0x00\n        /* \"#utility.yul\":1476:1481   */\n      dup2\n        /* \"#utility.yul\":1465:1481   */\n      swap1\n      pop\n        /* \"#utility.yul\":1410:1487   */\n      swap2\n      swap1\n      pop\n      jump\t// out\n        /* \"#utility.yul\":1493:1601   */\n    tag_239:\n        /* \"#utility.yul\":1570:1594   */\n      tag_332\n        /* \"#utility.yul\":1588:1593   */\n      dup2\n        /* \"#utility.yul\":1570:1594   */\n      tag_238\n      jump\t// in\n    tag_332:\n        /* \"#utility.yul\":1565:1568   */\n      dup3\n        /* \"#utility.yul\":1558:1595   */\n      mstore\n        /* \"#utility.yul\":1493:1601   */\n      pop\n      pop\n      jump\t// out\n        /* \"#utility.yul\":1677:2764   */\n    tag_240:\n        /* \"#utility.yul\":1782:1785   */\n      0x00\n        /* \"#utility.yul\":1818:1822   */\n      0x80\n        /* \"#utility.yul\":1813:1816   */\n      dup4\n        /* \"#utility.yul\":1809:1823   */\n      add\n        /* \"#utility.yul\":1905:1909   */\n      0x00\n        /* \"#utility.yul\":1898:1903   */\n      dup4\n        /* \"#utility.yul\":1894:1910   */\n      add\n        /* \"#utility.yul\":1888:1911   */\n      mload\n        /* \"#utility.yul\":1958:1961   */\n      dup5\n        /* \"#utility.yul\":1952:1956   */\n      dup3\n        /* \"#utility.yul\":1948:1962   */\n      sub\n        /* \"#utility.yul\":1941:1945   */\n      0x00\n        /* \"#utility.yul\":1936:1939   */\n      dup7\n        /* \"#utility.yul\":1932:1946   */\n      add\n        /* \"#utility.yul\":1925:1963   */\n      mstore\n        /* \"#utility.yul\":1984:2057   */\n      tag_334\n        /* \"#utility.yul\":2052:2056   */\n      dup3\n        /* \"#utility.yul\":2038:2050   */\n      dup3\n        /* \"#utility.yul\":1984:2057   */\n      tag_237\n      jump\t// in\n    tag_334:\n        /* \"#utility.yul\":1976:2057   */\n      swap2\n      pop\n        /* \"#utility.yul\":1833:2068   */\n      pop\n        /* \"#utility.yul\":2151:2155   */\n      0x20\n        /* \"#utility.yul\":2144:2149   */\n      dup4\n        /* \"#utility.yul\":2140:2156   */\n      add\n        /* \"#utility.yul\":2134:2157   */\n      mload\n        /* \"#utility.yul\":2170:2233   */\n      tag_335\n        /* \"#utility.yul\":2227:2231   */\n      0x20\n        /* \"#utility.yul\":2222:2225   */\n      dup7\n        /* \"#utility.yul\":2218:2232   */\n      add\n        /* \"#utility.yul\":2204:2216   */\n      dup3\n        /* \"#utility.yul\":2170:2233   */\n      tag_239\n      jump\t// in\n    tag_335:\n        /* \"#utility.yul\":2078:2243   */\n      pop\n        /* \"#utility.yul\":2325:2329   */\n      0x40\n        /* \"#utility.yul\":2318:2323   */\n      dup4\n        /* \"#utility.yul\":2314:2330   */\n      add\n        /* \"#utility.yul\":2308:2331   */\n      mload\n        /* \"#utility.yul\":2378:2381   */\n      dup5\n        /* \"#utility.yul\":2372:2376   */\n      dup3\n        /* \"#utility.yul\":2368:2382   */\n      sub\n        /* \"#utility.yul\":2361:2365   */\n      0x40\n        /* \"#utility.yul\":2356:2359   */\n      dup7\n        /* \"#utility.yul\":2352:2366   */\n      add\n        /* \"#utility.yul\":2345:2383   */\n      mstore\n        /* \"#utility.yul\":2404:2477   */\n      tag_336\n        /* \"#utility.yul\":2472:2476   */\n      dup3\n        /* \"#utility.yul\":2458:2470   */\n      dup3\n        /* \"#utility.yul\":2404:2477   */\n      tag_237\n      jump\t// in\n    tag_336:\n        /* \"#utility.yul\":2396:2477   */\n      swap2\n      pop\n        /* \"#utility.yul\":2253:2488   */\n      pop\n        /* \"#utility.yul\":2574:2578   */\n      0x60\n        /* \"#utility.yul\":2567:2572   */\n      dup4\n        /* \"#utility.yul\":2563:2579   */\n      add\n        /* \"#utility.yul\":2557:2580   */\n      mload\n        /* \"#utility.yul\":2627:2630   */\n      dup5\n        /* \"#utility.yul\":2621:2625   */\n      dup3\n        /* \"#utility.yul\":2617:2631   */\n      sub\n        /* \"#utility.yul\":2610:2614   */\n      0x60\n        /* \"#utility.yul\":2605:2608   */\n      dup7\n        /* \"#utility.yul\":2601:2615   */\n      add\n        /* \"#utility.yul\":2594:2632   */\n      mstore\n        /* \"#utility.yul\":2653:2726   */\n      tag_337\n        /* \"#utility.yul\":2721:2725   */\n      dup3\n        /* \"#utility.yul\":2707:2719   */\n      dup3\n        /* \"#utility.yul\":2653:2726   */\n      tag_237\n      jump\t// in\n    tag_337:\n        /* \"#utility.yul\":2645:2726   */\n      swap2\n      pop\n        /* \"#utility.yul\":2498:2737   */\n      pop\n        /* \"#utility.yul\":2754:2758   */\n      dup1\n        /* \"#utility.yul\":2747:2758   */\n      swap2\n      pop\n        /* \"#utility.yul\":1787:2764   */\n      pop\n        /* \"#utility.yul\":1677:2764   */\n      swap3\n      swap2\n      pop\n      pop\n      jump\t// out\n        /* \"#utility.yul\":2770:3018   */\n    tag_241:\n        /* \"#utility.yul\":2885:2895   */\n      0x00\n        /* \"#utility.yul\":2920:3012   */\n      tag_339\n        /* \"#utility.yul\":3008:3011   */\n      dup4\n        /* \"#utility.yul\":3000:3006   */\n      dup4\n        /* \"#utility.yul\":2920:3012   */\n      tag_240\n      jump\t// in\n    tag_339:\n        /* \"#utility.yul\":2906:3012   */\n      swap1\n      pop\n        /* \"#utility.yul\":2770:3018   */\n      swap3\n      swap2\n      pop\n      pop\n      jump\t// out\n        /* \"#utility.yul\":3024:3160   */\n    tag_242:\n        /* \"#utility.yul\":3117:3121   */\n      0x00\n        /* \"#utility.yul\":3149:3153   */\n      0x20\n        /* \"#utility.yul\":3144:3147   */\n      dup3\n        /* \"#utility.yul\":3140:3154   */\n      add\n        /* \"#utility.yul\":3132:3154   */\n      swap1\n      pop\n        /* \"#utility.yul\":3024:3160   */\n      swap2\n      swap1\n      pop\n      jump\t// out\n        /* \"#utility.yul\":3240:4335   */\n    tag_243:\n        /* \"#utility.yul\":3405:3408   */\n      0x00\n        /* \"#utility.yul\":3434:3511   */\n      tag_342\n        /* \"#utility.yul\":3505:3510   */\n      dup3\n        /* \"#utility.yul\":3434:3511   */\n      tag_230\n      jump\t// in\n    tag_342:\n        /* \"#utility.yul\":3527:3636   */\n      tag_343\n        /* \"#utility.yul\":3629:3635   */\n      dup2\n        /* \"#utility.yul\":3624:3627   */\n      dup6\n        /* \"#utility.yul\":3527:3636   */\n      tag_231\n      jump\t// in\n    tag_343:\n        /* \"#utility.yul\":3520:3636   */\n      swap4\n      pop\n        /* \"#utility.yul\":3662:3665   */\n      dup4\n        /* \"#utility.yul\":3707:3711   */\n      0x20\n        /* \"#utility.yul\":3699:3705   */\n      dup3\n        /* \"#utility.yul\":3695:3712   */\n      mul\n        /* \"#utility.yul\":3690:3693   */\n      dup6\n        /* \"#utility.yul\":3686:3713   */\n      add\n        /* \"#utility.yul\":3737:3816   */\n      tag_344\n        /* \"#utility.yul\":3810:3815   */\n      dup6\n        /* \"#utility.yul\":3737:3816   */\n      tag_232\n      jump\t// in\n    tag_344:\n        /* \"#utility.yul\":3839:3846   */\n      dup1\n        /* \"#utility.yul\":3870:3871   */\n      0x00\n        /* \"#utility.yul\":3855:4290   */\n    tag_345:\n        /* \"#utility.yul\":3880:3886   */\n      dup6\n        /* \"#utility.yul\":3877:3878   */\n      dup2\n        /* \"#utility.yul\":3874:3887   */\n      lt\n        /* \"#utility.yul\":3855:4290   */\n      iszero\n      tag_347\n      jumpi\n        /* \"#utility.yul\":3951:3960   */\n      dup5\n        /* \"#utility.yul\":3945:3949   */\n      dup5\n        /* \"#utility.yul\":3941:3961   */\n      sub\n        /* \"#utility.yul\":3936:3939   */\n      dup10\n        /* \"#utility.yul\":3929:3962   */\n      mstore\n        /* \"#utility.yul\":4002:4008   */\n      dup2\n        /* \"#utility.yul\":3996:4009   */\n      mload\n        /* \"#utility.yul\":4030:4140   */\n      tag_348\n        /* \"#utility.yul\":4135:4139   */\n      dup6\n        /* \"#utility.yul\":4120:4133   */\n      dup3\n        /* \"#utility.yul\":4030:4140   */\n      tag_241\n      jump\t// in\n    tag_348:\n        /* \"#utility.yul\":4022:4140   */\n      swap5\n      pop\n        /* \"#utility.yul\":4163:4246   */\n      tag_349\n        /* \"#utility.yul\":4239:4245   */\n      dup4\n        /* \"#utility.yul\":4163:4246   */\n      tag_242\n      jump\t// in\n    tag_349:\n        /* \"#utility.yul\":4153:4246   */\n      swap3\n      pop\n        /* \"#utility.yul\":4275:4279   */\n      0x20\n        /* \"#utility.yul\":4270:4273   */\n      dup11\n        /* \"#utility.yul\":4266:4280   */\n      add\n        /* \"#utility.yul\":4259:4280   */\n      swap10\n      pop\n        /* \"#utility.yul\":3915:4290   */\n      pop\n        /* \"#utility.yul\":3902:3903   */\n      0x01\n        /* \"#utility.yul\":3899:3900   */\n      dup2\n        /* \"#utility.yul\":3895:3904   */\n      add\n        /* \"#utility.yul\":3890:3904   */\n      swap1\n      pop\n        /* \"#utility.yul\":3855:4290   */\n      jump(tag_345)\n    tag_347:\n        /* \"#utility.yul\":3859:3873   */\n      pop\n        /* \"#utility.yul\":4306:4310   */\n      dup3\n        /* \"#utility.yul\":4299:4310   */\n      swap8\n      pop\n        /* \"#utility.yul\":4326:4329   */\n      dup8\n        /* \"#utility.yul\":4319:4329   */\n      swap6\n      pop\n        /* \"#utility.yul\":3410:4335   */\n      pop\n      pop\n      pop\n      pop\n      pop\n        /* \"#utility.yul\":3240:4335   */\n      swap3\n      swap2\n      pop\n      pop\n      jump\t// out\n        /* \"#utility.yul\":4341:4806   */\n    tag_23:\n        /* \"#utility.yul\":4530:4534   */\n      0x00\n        /* \"#utility.yul\":4568:4570   */\n      0x20\n        /* \"#utility.yul\":4557:4566   */\n      dup3\n        /* \"#utility.yul\":4553:4571   */\n      add\n        /* \"#utility.yul\":4545:4571   */\n      swap1\n      pop\n        /* \"#utility.yul\":4617:4626   */\n      dup2\n        /* \"#utility.yul\":4611:4615   */\n      dup2\n        /* \"#utility.yul\":4607:4627   */\n      sub\n        /* \"#utility.yul\":4603:4604   */\n      0x00\n        /* \"#utility.yul\":4592:4601   */\n      dup4\n        /* \"#utility.yul\":4588:4605   */\n      add\n        /* \"#utility.yul\":4581:4628   */\n      mstore\n        /* \"#utility.yul\":4645:4799   */\n      tag_351\n        /* \"#utility.yul\":4794:4798   */\n      dup2\n        /* \"#utility.yul\":4785:4791   */\n      dup5\n        /* \"#utility.yul\":4645:4799   */\n      tag_243\n      jump\t// in\n    tag_351:\n        /* \"#utility.yul\":4637:4799   */\n      swap1\n      pop\n        /* \"#utility.yul\":4341:4806   */\n      swap3\n      swap2\n      pop\n      pop\n      jump\t// out\n        /* \"#utility.yul\":4812:4887   */\n    tag_244:\n        /* \"#utility.yul\":4845:4851   */\n      0x00\n        /* \"#utility.yul\":4878:4880   */\n      0x40\n        /* \"#utility.yul\":4872:4881   */\n      mload\n        /* \"#utility.yul\":4862:4881   */\n      swap1\n      pop\n        /* \"#utility.yul\":4812:4887   */\n      swap1\n      jump\t// out\n        /* \"#utility.yul\":4893:5010   */\n    tag_245:\n        /* \"#utility.yul\":5002:5003   */\n      0x00\n        /* \"#utility.yul\":4999:5000   */\n      dup1\n        /* \"#utility.yul\":4992:5004   */\n      revert\n        /* \"#utility.yul\":5016:5133   */\n    tag_246:\n        /* \"#utility.yul\":5125:5126   */\n      0x00\n        /* \"#utility.yul\":5122:5123   */\n      dup1\n        /* \"#utility.yul\":5115:5127   */\n      revert\n        /* \"#utility.yul\":5139:5265   */\n    tag_247:\n        /* \"#utility.yul\":5176:5183   */\n      0x00\n        /* \"#utility.yul\":5216:5258   */\n      0xffffffffffffffffffffffffffffffffffffffff\n        /* \"#utility.yul\":5209:5214   */\n      dup3\n        /* \"#utility.yul\":5205:5259   */\n      and\n        /* \"#utility.yul\":5194:5259   */\n      swap1\n      pop\n        /* \"#utility.yul\":5139:5265   */\n      swap2\n      swap1\n      pop\n      jump\t// out\n        /* \"#utility.yul\":5271:5367   */\n    tag_248:\n        /* \"#utility.yul\":5308:5315   */\n      0x00\n        /* \"#utility.yul\":5337:5361   */\n      tag_357\n        /* \"#utility.yul\":5355:5360   */\n      dup3\n        /* \"#utility.yul\":5337:5361   */\n      tag_247\n      jump\t// in\n    tag_357:\n        /* \"#utility.yul\":5326:5361   */\n      swap1\n      pop\n        /* \"#utility.yul\":5271:5367   */\n      swap2\n      swap1\n      pop\n      jump\t// out\n        /* \"#utility.yul\":5373:5495   */\n    tag_249:\n        /* \"#utility.yul\":5446:5470   */\n      tag_359\n        /* \"#utility.yul\":5464:5469   */\n      dup2\n        /* \"#utility.yul\":5446:5470   */\n      tag_248\n      jump\t// in\n    tag_359:\n        /* \"#utility.yul\":5439:5444   */\n      dup2\n        /* \"#utility.yul\":5436:5471   */\n      eq\n        /* \"#utility.yul\":5426:5489   */\n      tag_360\n      jumpi\n        /* \"#utility.yul\":5485:5486   */\n      0x00\n        /* \"#utility.yul\":5482:5483   */\n      dup1\n        /* \"#utility.yul\":5475:5487   */\n      revert\n        /* \"#utility.yul\":5426:5489   */\n    tag_360:\n        /* \"#utility.yul\":5373:5495   */\n      pop\n      jump\t// out\n        /* \"#utility.yul\":5501:5640   */\n    tag_250:\n        /* \"#utility.yul\":5547:5552   */\n      0x00\n        /* \"#utility.yul\":5585:5591   */\n      dup2\n        /* \"#utility.yul\":5572:5592   */\n      calldataload\n        /* \"#utility.yul\":5563:5592   */\n      swap1\n      pop\n        /* \"#utility.yul\":5601:5634   */\n      tag_362\n        /* \"#utility.yul\":5628:5633   */\n      dup2\n        /* \"#utility.yul\":5601:5634   */\n      tag_249\n      jump\t// in\n    tag_362:\n        /* \"#utility.yul\":5501:5640   */\n      swap3\n      swap2\n      pop\n      pop\n      jump\t// out\n        /* \"#utility.yul\":5646:5975   */\n    tag_27:\n        /* \"#utility.yul\":5705:5711   */\n      0x00\n        /* \"#utility.yul\":5754:5756   */\n      0x20\n        /* \"#utility.yul\":5742:5751   */\n      dup3\n        /* \"#utility.yul\":5733:5740   */\n      dup5\n        /* \"#utility.yul\":5729:5752   */\n      sub\n        /* \"#utility.yul\":5725:5757   */\n      slt\n        /* \"#utility.yul\":5722:5841   */\n      iszero\n      tag_364\n      jumpi\n        /* \"#utility.yul\":5760:5839   */\n      tag_365\n      tag_245\n      jump\t// in\n    tag_365:\n        /* \"#utility.yul\":5722:5841   */\n    tag_364:\n        /* \"#utility.yul\":5880:5881   */\n      0x00\n        /* \"#utility.yul\":5905:5958   */\n      tag_366\n        /* \"#utility.yul\":5950:5957   */\n      dup5\n        /* \"#utility.yul\":5941:5947   */\n      dup3\n        /* \"#utility.yul\":5930:5939   */\n      dup6\n        /* \"#utility.yul\":5926:5948   */\n      add\n        /* \"#utility.yul\":5905:5958   */\n      tag_250\n      jump\t// in\n    tag_366:\n        /* \"#utility.yul\":5895:5958   */\n      swap2\n      pop\n        /* \"#utility.yul\":5851:5968   */\n      pop\n        /* \"#utility.yul\":5646:5975   */\n      swap3\n      swap2\n      pop\n      pop\n      jump\t// out\n        /* \"#utility.yul\":5981:6123   */\n    tag_251:\n        /* \"#utility.yul\":6076:6082   */\n      0x00\n        /* \"#utility.yul\":6110:6115   */\n      dup2\n        /* \"#utility.yul\":6104:6116   */\n      mload\n        /* \"#utility.yul\":6094:6116   */\n      swap1\n      pop\n        /* \"#utility.yul\":5981:6123   */\n      swap2\n      swap1\n      pop\n      jump\t// out\n        /* \"#utility.yul\":6129:6341   */\n    tag_252:\n        /* \"#utility.yul\":6256:6267   */\n      0x00\n        /* \"#utility.yul\":6290:6296   */\n      dup3\n        /* \"#utility.yul\":6285:6288   */\n      dup3\n        /* \"#utility.yul\":6278:6297   */\n      mstore\n        /* \"#utility.yul\":6330:6334   */\n      0x20\n        /* \"#utility.yul\":6325:6328   */\n      dup3\n        /* \"#utility.yul\":6321:6335   */\n      add\n        /* \"#utility.yul\":6306:6335   */\n      swap1\n      pop\n        /* \"#utility.yul\":6129:6341   */\n      swap3\n      swap2\n      pop\n      pop\n      jump\t// out\n        /* \"#utility.yul\":6347:6507   */\n    tag_253:\n        /* \"#utility.yul\":6442:6446   */\n      0x00\n        /* \"#utility.yul\":6465:6468   */\n      dup2\n        /* \"#utility.yul\":6457:6468   */\n      swap1\n      pop\n        /* \"#utility.yul\":6495:6499   */\n      0x20\n        /* \"#utility.yul\":6490:6493   */\n      dup3\n        /* \"#utility.yul\":6486:6500   */\n      add\n        /* \"#utility.yul\":6478:6500   */\n      swap1\n      pop\n        /* \"#utility.yul\":6347:6507   */\n      swap2\n      swap1\n      pop\n      jump\t// out\n        /* \"#utility.yul\":6513:6603   */\n    tag_254:\n        /* \"#utility.yul\":6547:6554   */\n      0x00\n        /* \"#utility.yul\":6590:6595   */\n      dup2\n        /* \"#utility.yul\":6583:6596   */\n      iszero\n        /* \"#utility.yul\":6576:6597   */\n      iszero\n        /* \"#utility.yul\":6565:6597   */\n      swap1\n      pop\n        /* \"#utility.yul\":6513:6603   */\n      swap2\n      swap1\n      pop\n      jump\t// out\n        /* \"#utility.yul\":6609:6708   */\n    tag_255:\n        /* \"#utility.yul\":6680:6701   */\n      tag_372\n        /* \"#utility.yul\":6695:6700   */\n      dup2\n        /* \"#utility.yul\":6680:6701   */\n      tag_254\n      jump\t// in\n    tag_372:\n        /* \"#utility.yul\":6675:6678   */\n      dup3\n        /* \"#utility.yul\":6668:6702   */\n      mstore\n        /* \"#utility.yul\":6609:6708   */\n      pop\n      pop\n      jump\t// out\n        /* \"#utility.yul\":6794:8169   */\n    tag_256:\n        /* \"#utility.yul\":6909:6912   */\n      0x00\n        /* \"#utility.yul\":6945:6949   */\n      0xc0\n        /* \"#utility.yul\":6940:6943   */\n      dup4\n        /* \"#utility.yul\":6936:6950   */\n      add\n        /* \"#utility.yul\":7030:7034   */\n      0x00\n        /* \"#utility.yul\":7023:7028   */\n      dup4\n        /* \"#utility.yul\":7019:7035   */\n      add\n        /* \"#utility.yul\":7013:7036   */\n      mload\n        /* \"#utility.yul\":7049:7112   */\n      tag_374\n        /* \"#utility.yul\":7106:7110   */\n      0x00\n        /* \"#utility.yul\":7101:7104   */\n      dup7\n        /* \"#utility.yul\":7097:7111   */\n      add\n        /* \"#utility.yul\":7083:7095   */\n      dup3\n        /* \"#utility.yul\":7049:7112   */\n      tag_239\n      jump\t// in\n    tag_374:\n        /* \"#utility.yul\":6960:7122   */\n      pop\n        /* \"#utility.yul\":7204:7208   */\n      0x20\n        /* \"#utility.yul\":7197:7202   */\n      dup4\n        /* \"#utility.yul\":7193:7209   */\n      add\n        /* \"#utility.yul\":7187:7210   */\n      mload\n        /* \"#utility.yul\":7257:7260   */\n      dup5\n        /* \"#utility.yul\":7251:7255   */\n      dup3\n        /* \"#utility.yul\":7247:7261   */\n      sub\n        /* \"#utility.yul\":7240:7244   */\n      0x20\n        /* \"#utility.yul\":7235:7238   */\n      dup7\n        /* \"#utility.yul\":7231:7245   */\n      add\n        /* \"#utility.yul\":7224:7262   */\n      mstore\n        /* \"#utility.yul\":7283:7356   */\n      tag_375\n        /* \"#utility.yul\":7351:7355   */\n      dup3\n        /* \"#utility.yul\":7337:7349   */\n      dup3\n        /* \"#utility.yul\":7283:7356   */\n      tag_237\n      jump\t// in\n    tag_375:\n        /* \"#utility.yul\":7275:7356   */\n      swap2\n      pop\n        /* \"#utility.yul\":7132:7367   */\n      pop\n        /* \"#utility.yul\":7450:7454   */\n      0x40\n        /* \"#utility.yul\":7443:7448   */\n      dup4\n        /* \"#utility.yul\":7439:7455   */\n      add\n        /* \"#utility.yul\":7433:7456   */\n      mload\n        /* \"#utility.yul\":7503:7506   */\n      dup5\n        /* \"#utility.yul\":7497:7501   */\n      dup3\n        /* \"#utility.yul\":7493:7507   */\n      sub\n        /* \"#utility.yul\":7486:7490   */\n      0x40\n        /* \"#utility.yul\":7481:7484   */\n      dup7\n        /* \"#utility.yul\":7477:7491   */\n      add\n        /* \"#utility.yul\":7470:7508   */\n      mstore\n        /* \"#utility.yul\":7529:7602   */\n      tag_376\n        /* \"#utility.yul\":7597:7601   */\n      dup3\n        /* \"#utility.yul\":7583:7595   */\n      dup3\n        /* \"#utility.yul\":7529:7602   */\n      tag_237\n      jump\t// in\n    tag_376:\n        /* \"#utility.yul\":7521:7602   */\n      swap2\n      pop\n        /* \"#utility.yul\":7377:7613   */\n      pop\n        /* \"#utility.yul\":7696:7700   */\n      0x60\n        /* \"#utility.yul\":7689:7694   */\n      dup4\n        /* \"#utility.yul\":7685:7701   */\n      add\n        /* \"#utility.yul\":7679:7702   */\n      mload\n        /* \"#utility.yul\":7715:7778   */\n      tag_377\n        /* \"#utility.yul\":7772:7776   */\n      0x60\n        /* \"#utility.yul\":7767:7770   */\n      dup7\n        /* \"#utility.yul\":7763:7777   */\n      add\n        /* \"#utility.yul\":7749:7761   */\n      dup3\n        /* \"#utility.yul\":7715:7778   */\n      tag_239\n      jump\t// in\n    tag_377:\n        /* \"#utility.yul\":7623:7788   */\n      pop\n        /* \"#utility.yul\":7878:7882   */\n      0x80\n        /* \"#utility.yul\":7871:7876   */\n      dup4\n        /* \"#utility.yul\":7867:7883   */\n      add\n        /* \"#utility.yul\":7861:7884   */\n      mload\n        /* \"#utility.yul\":7897:7960   */\n      tag_378\n        /* \"#utility.yul\":7954:7958   */\n      0x80\n        /* \"#utility.yul\":7949:7952   */\n      dup7\n        /* \"#utility.yul\":7945:7959   */\n      add\n        /* \"#utility.yul\":7931:7943   */\n      dup3\n        /* \"#utility.yul\":7897:7960   */\n      tag_239\n      jump\t// in\n    tag_378:\n        /* \"#utility.yul\":7798:7970   */\n      pop\n        /* \"#utility.yul\":8056:8060   */\n      0xa0\n        /* \"#utility.yul\":8049:8054   */\n      dup4\n        /* \"#utility.yul\":8045:8061   */\n      add\n        /* \"#utility.yul\":8039:8062   */\n      mload\n        /* \"#utility.yul\":8075:8132   */\n      tag_379\n        /* \"#utility.yul\":8126:8130   */\n      0xa0\n        /* \"#utility.yul\":8121:8124   */\n      dup7\n        /* \"#utility.yul\":8117:8131   */\n      add\n        /* \"#utility.yul\":8103:8115   */\n      dup3\n        /* \"#utility.yul\":8075:8132   */\n      tag_255\n      jump\t// in\n    tag_379:\n        /* \"#utility.yul\":7980:8142   */\n      pop\n        /* \"#utility.yul\":8159:8163   */\n      dup1\n        /* \"#utility.yul\":8152:8163   */\n      swap2\n      pop\n        /* \"#utility.yul\":6914:8169   */\n      pop\n        /* \"#utility.yul\":6794:8169   */\n      swap3\n      swap2\n      pop\n      pop\n      jump\t// out\n        /* \"#utility.yul\":8175:8443   */\n    tag_257:\n        /* \"#utility.yul\":8300:8310   */\n      0x00\n        /* \"#utility.yul\":8335:8437   */\n      tag_381\n        /* \"#utility.yul\":8433:8436   */\n      dup4\n        /* \"#utility.yul\":8425:8431   */\n      dup4\n        /* \"#utility.yul\":8335:8437   */\n      tag_256\n      jump\t// in\n    tag_381:\n        /* \"#utility.yul\":8321:8437   */\n      swap1\n      pop\n        /* \"#utility.yul\":8175:8443   */\n      swap3\n      swap2\n      pop\n      pop\n      jump\t// out\n        /* \"#utility.yul\":8449:8590   */\n    tag_258:\n        /* \"#utility.yul\":8547:8551   */\n      0x00\n        /* \"#utility.yul\":8579:8583   */\n      0x20\n        /* \"#utility.yul\":8574:8577   */\n      dup3\n        /* \"#utility.yul\":8570:8584   */\n      add\n        /* \"#utility.yul\":8562:8584   */\n      swap1\n      pop\n        /* \"#utility.yul\":8449:8590   */\n      swap2\n      swap1\n      pop\n      jump\t// out\n        /* \"#utility.yul\":8680:9815   */\n    tag_259:\n        /* \"#utility.yul\":8855:8858   */\n      0x00\n        /* \"#utility.yul\":8884:8966   */\n      tag_384\n        /* \"#utility.yul\":8960:8965   */\n      dup3\n        /* \"#utility.yul\":8884:8966   */\n      tag_251\n      jump\t// in\n    tag_384:\n        /* \"#utility.yul\":8982:9096   */\n      tag_385\n        /* \"#utility.yul\":9089:9095   */\n      dup2\n        /* \"#utility.yul\":9084:9087   */\n      dup6\n        /* \"#utility.yul\":8982:9096   */\n      tag_252\n      jump\t// in\n    tag_385:\n        /* \"#utility.yul\":8975:9096   */\n      swap4\n      pop\n        /* \"#utility.yul\":9122:9125   */\n      dup4\n        /* \"#utility.yul\":9167:9171   */\n      0x20\n        /* \"#utility.yul\":9159:9165   */\n      dup3\n        /* \"#utility.yul\":9155:9172   */\n      mul\n        /* \"#utility.yul\":9150:9153   */\n      dup6\n        /* \"#utility.yul\":9146:9173   */\n      add\n        /* \"#utility.yul\":9197:9281   */\n      tag_386\n        /* \"#utility.yul\":9275:9280   */\n      dup6\n        /* \"#utility.yul\":9197:9281   */\n      tag_253\n      jump\t// in\n    tag_386:\n        /* \"#utility.yul\":9304:9311   */\n      dup1\n        /* \"#utility.yul\":9335:9336   */\n      0x00\n        /* \"#utility.yul\":9320:9770   */\n    tag_387:\n        /* \"#utility.yul\":9345:9351   */\n      dup6\n        /* \"#utility.yul\":9342:9343   */\n      dup2\n        /* \"#utility.yul\":9339:9352   */\n      lt\n        /* \"#utility.yul\":9320:9770   */\n      iszero\n      tag_389\n      jumpi\n        /* \"#utility.yul\":9416:9425   */\n      dup5\n        /* \"#utility.yul\":9410:9414   */\n      dup5\n        /* \"#utility.yul\":9406:9426   */\n      sub\n        /* \"#utility.yul\":9401:9404   */\n      dup10\n        /* \"#utility.yul\":9394:9427   */\n      mstore\n        /* \"#utility.yul\":9467:9473   */\n      dup2\n        /* \"#utility.yul\":9461:9474   */\n      mload\n        /* \"#utility.yul\":9495:9615   */\n      tag_390\n        /* \"#utility.yul\":9610:9614   */\n      dup6\n        /* \"#utility.yul\":9595:9608   */\n      dup3\n        /* \"#utility.yul\":9495:9615   */\n      tag_257\n      jump\t// in\n    tag_390:\n        /* \"#utility.yul\":9487:9615   */\n      swap5\n      pop\n        /* \"#utility.yul\":9638:9726   */\n      tag_391\n        /* \"#utility.yul\":9719:9725   */\n      dup4\n        /* \"#utility.yul\":9638:9726   */\n      tag_258\n      jump\t// in\n    tag_391:\n        /* \"#utility.yul\":9628:9726   */\n      swap3\n      pop\n        /* \"#utility.yul\":9755:9759   */\n      0x20\n        /* \"#utility.yul\":9750:9753   */\n      dup11\n        /* \"#utility.yul\":9746:9760   */\n      add\n        /* \"#utility.yul\":9739:9760   */\n      swap10\n      pop\n        /* \"#utility.yul\":9380:9770   */\n      pop\n        /* \"#utility.yul\":9367:9368   */\n      0x01\n        /* \"#utility.yul\":9364:9365   */\n      dup2\n        /* \"#utility.yul\":9360:9369   */\n      add\n        /* \"#utility.yul\":9355:9369   */\n      swap1\n      pop\n        /* \"#utility.yul\":9320:9770   */\n      jump(tag_387)\n    tag_389:\n        /* \"#utility.yul\":9324:9338   */\n      pop\n        /* \"#utility.yul\":9786:9790   */\n      dup3\n        /* \"#utility.yul\":9779:9790   */\n      swap8\n      pop\n        /* \"#utility.yul\":9806:9809   */\n      dup8\n        /* \"#utility.yul\":9799:9809   */\n      swap6\n      pop\n        /* \"#utility.yul\":8860:9815   */\n      pop\n      pop\n      pop\n      pop\n      pop\n        /* \"#utility.yul\":8680:9815   */\n      swap3\n      swap2\n      pop\n      pop\n      jump\t// out\n        /* \"#utility.yul\":9821:10306   */\n    tag_30:\n        /* \"#utility.yul\":10020:10024   */\n      0x00\n        /* \"#utility.yul\":10058:10060   */\n      0x20\n        /* \"#utility.yul\":10047:10056   */\n      dup3\n        /* \"#utility.yul\":10043:10061   */\n      add\n        /* \"#utility.yul\":10035:10061   */\n      swap1\n      pop\n        /* \"#utility.yul\":10107:10116   */\n      dup2\n        /* \"#utility.yul\":10101:10105   */\n      dup2\n        /* \"#utility.yul\":10097:10117   */\n      sub\n        /* \"#utility.yul\":10093:10094   */\n      0x00\n        /* \"#utility.yul\":10082:10091   */\n      dup4\n        /* \"#utility.yul\":10078:10095   */\n      add\n        /* \"#utility.yul\":10071:10118   */\n      mstore\n        /* \"#utility.yul\":10135:10299   */\n      tag_393\n        /* \"#utility.yul\":10294:10298   */\n      dup2\n        /* \"#utility.yul\":10285:10291   */\n      dup5\n        /* \"#utility.yul\":10135:10299   */\n      tag_259\n      jump\t// in\n    tag_393:\n        /* \"#utility.yul\":10127:10299   */\n      swap1\n      pop\n        /* \"#utility.yul\":9821:10306   */\n      swap3\n      swap2\n      pop\n      pop\n      jump\t// out\n        /* \"#utility.yul\":10312:10430   */\n    tag_260:\n        /* \"#utility.yul\":10399:10423   */\n      tag_395\n        /* \"#utility.yul\":10417:10422   */\n      dup2\n        /* \"#utility.yul\":10399:10423   */\n      tag_238\n      jump\t// in\n    tag_395:\n        /* \"#utility.yul\":10394:10397   */\n      dup3\n        /* \"#utility.yul\":10387:10424   */\n      mstore\n        /* \"#utility.yul\":10312:10430   */\n      pop\n      pop\n      jump\t// out\n        /* \"#utility.yul\":10436:10658   */\n    tag_35:\n        /* \"#utility.yul\":10529:10533   */\n      0x00\n        /* \"#utility.yul\":10567:10569   */\n      0x20\n        /* \"#utility.yul\":10556:10565   */\n      dup3\n        /* \"#utility.yul\":10552:10570   */\n      add\n        /* \"#utility.yul\":10544:10570   */\n      swap1\n      pop\n        /* \"#utility.yul\":10580:10651   */\n      tag_397\n        /* \"#utility.yul\":10648:10649   */\n      0x00\n        /* \"#utility.yul\":10637:10646   */\n      dup4\n        /* \"#utility.yul\":10633:10650   */\n      add\n        /* \"#utility.yul\":10624:10630   */\n      dup5\n        /* \"#utility.yul\":10580:10651   */\n      tag_260\n      jump\t// in\n    tag_397:\n        /* \"#utility.yul\":10436:10658   */\n      swap3\n      swap2\n      pop\n      pop\n      jump\t// out\n        /* \"#utility.yul\":10664:10781   */\n    tag_261:\n        /* \"#utility.yul\":10773:10774   */\n      0x00\n        /* \"#utility.yul\":10770:10771   */\n      dup1\n        /* \"#utility.yul\":10763:10775   */\n      revert\n        /* \"#utility.yul\":10787:10904   */\n    tag_262:\n        /* \"#utility.yul\":10896:10897   */\n      0x00\n        /* \"#utility.yul\":10893:10894   */\n      dup1\n        /* \"#utility.yul\":10886:10898   */\n      revert\n        /* \"#utility.yul\":10910:11090   */\n    tag_95:\n        /* \"#utility.yul\":10958:11035   */\n      0x4e487b7100000000000000000000000000000000000000000000000000000000\n        /* \"#utility.yul\":10955:10956   */\n      0x00\n        /* \"#utility.yul\":10948:11036   */\n      mstore\n        /* \"#utility.yul\":11055:11059   */\n      0x41\n        /* \"#utility.yul\":11052:11053   */\n      0x04\n        /* \"#utility.yul\":11045:11060   */\n      mstore\n        /* \"#utility.yul\":11079:11083   */\n      0x24\n        /* \"#utility.yul\":11076:11077   */\n      0x00\n        /* \"#utility.yul\":11069:11084   */\n      revert\n        /* \"#utility.yul\":11096:11377   */\n    tag_263:\n        /* \"#utility.yul\":11179:11206   */\n      tag_402\n        /* \"#utility.yul\":11201:11205   */\n      dup3\n        /* \"#utility.yul\":11179:11206   */\n      tag_236\n      jump\t// in\n    tag_402:\n        /* \"#utility.yul\":11171:11177   */\n      dup2\n        /* \"#utility.yul\":11167:11207   */\n      add\n        /* \"#utility.yul\":11309:11315   */\n      dup2\n        /* \"#utility.yul\":11297:11307   */\n      dup2\n        /* \"#utility.yul\":11294:11316   */\n      lt\n        /* \"#utility.yul\":11273:11291   */\n      0xffffffffffffffff\n        /* \"#utility.yul\":11261:11271   */\n      dup3\n        /* \"#utility.yul\":11258:11292   */\n      gt\n        /* \"#utility.yul\":11255:11317   */\n      or\n        /* \"#utility.yul\":11252:11340   */\n      iszero\n      tag_403\n      jumpi\n        /* \"#utility.yul\":11320:11338   */\n      tag_404\n      tag_95\n      jump\t// in\n    tag_404:\n        /* \"#utility.yul\":11252:11340   */\n    tag_403:\n        /* \"#utility.yul\":11360:11370   */\n      dup1\n        /* \"#utility.yul\":11356:11358   */\n      0x40\n        /* \"#utility.yul\":11349:11371   */\n      mstore\n        /* \"#utility.yul\":11139:11377   */\n      pop\n        /* \"#utility.yul\":11096:11377   */\n      pop\n      pop\n      jump\t// out\n        /* \"#utility.yul\":11383:11512   */\n    tag_264:\n        /* \"#utility.yul\":11417:11423   */\n      0x00\n        /* \"#utility.yul\":11444:11464   */\n      tag_406\n      tag_244\n      jump\t// in\n    tag_406:\n        /* \"#utility.yul\":11434:11464   */\n      swap1\n      pop\n        /* \"#utility.yul\":11473:11506   */\n      tag_407\n        /* \"#utility.yul\":11501:11505   */\n      dup3\n        /* \"#utility.yul\":11493:11499   */\n      dup3\n        /* \"#utility.yul\":11473:11506   */\n      tag_263\n      jump\t// in\n    tag_407:\n        /* \"#utility.yul\":11383:11512   */\n      swap2\n      swap1\n      pop\n      jump\t// out\n        /* \"#utility.yul\":11518:11826   */\n    tag_265:\n        /* \"#utility.yul\":11580:11584   */\n      0x00\n        /* \"#utility.yul\":11670:11688   */\n      0xffffffffffffffff\n        /* \"#utility.yul\":11662:11668   */\n      dup3\n        /* \"#utility.yul\":11659:11689   */\n      gt\n        /* \"#utility.yul\":11656:11712   */\n      iszero\n      tag_409\n      jumpi\n        /* \"#utility.yul\":11692:11710   */\n      tag_410\n      tag_95\n      jump\t// in\n    tag_410:\n        /* \"#utility.yul\":11656:11712   */\n    tag_409:\n        /* \"#utility.yul\":11730:11759   */\n      tag_411\n        /* \"#utility.yul\":11752:11758   */\n      dup3\n        /* \"#utility.yul\":11730:11759   */\n      tag_236\n      jump\t// in\n    tag_411:\n        /* \"#utility.yul\":11722:11759   */\n      swap1\n      pop\n        /* \"#utility.yul\":11814:11818   */\n      0x20\n        /* \"#utility.yul\":11808:11812   */\n      dup2\n        /* \"#utility.yul\":11804:11819   */\n      add\n        /* \"#utility.yul\":11796:11819   */\n      swap1\n      pop\n        /* \"#utility.yul\":11518:11826   */\n      swap2\n      swap1\n      pop\n      jump\t// out\n        /* \"#utility.yul\":11832:11980   */\n    tag_266:\n        /* \"#utility.yul\":11930:11936   */\n      dup3\n        /* \"#utility.yul\":11925:11928   */\n      dup2\n        /* \"#utility.yul\":11920:11923   */\n      dup4\n        /* \"#utility.yul\":11907:11937   */\n      calldatacopy\n        /* \"#utility.yul\":11971:11972   */\n      0x00\n        /* \"#utility.yul\":11962:11968   */\n      dup4\n        /* \"#utility.yul\":11957:11960   */\n      dup4\n        /* \"#utility.yul\":11953:11969   */\n      add\n        /* \"#utility.yul\":11946:11973   */\n      mstore\n        /* \"#utility.yul\":11832:11980   */\n      pop\n      pop\n      pop\n      jump\t// out\n        /* \"#utility.yul\":11986:12411   */\n    tag_267:\n        /* \"#utility.yul\":12064:12069   */\n      0x00\n        /* \"#utility.yul\":12089:12155   */\n      tag_414\n        /* \"#utility.yul\":12105:12154   */\n      tag_415\n        /* \"#utility.yul\":12147:12153   */\n      dup5\n        /* \"#utility.yul\":12105:12154   */\n      tag_265\n      jump\t// in\n    tag_415:\n        /* \"#utility.yul\":12089:12155   */\n      tag_264\n      jump\t// in\n    tag_414:\n        /* \"#utility.yul\":12080:12155   */\n      swap1\n      pop\n        /* \"#utility.yul\":12178:12184   */\n      dup3\n        /* \"#utility.yul\":12171:12176   */\n      dup2\n        /* \"#utility.yul\":12164:12185   */\n      mstore\n        /* \"#utility.yul\":12216:12220   */\n      0x20\n        /* \"#utility.yul\":12209:12214   */\n      dup2\n        /* \"#utility.yul\":12205:12221   */\n      add\n        /* \"#utility.yul\":12254:12257   */\n      dup5\n        /* \"#utility.yul\":12245:12251   */\n      dup5\n        /* \"#utility.yul\":12240:12243   */\n      dup5\n        /* \"#utility.yul\":12236:12252   */\n      add\n        /* \"#utility.yul\":12233:12258   */\n      gt\n        /* \"#utility.yul\":12230:12342   */\n      iszero\n      tag_416\n      jumpi\n        /* \"#utility.yul\":12261:12340   */\n      tag_417\n      tag_262\n      jump\t// in\n    tag_417:\n        /* \"#utility.yul\":12230:12342   */\n    tag_416:\n        /* \"#utility.yul\":12351:12405   */\n      tag_418\n        /* \"#utility.yul\":12398:12404   */\n      dup5\n        /* \"#utility.yul\":12393:12396   */\n      dup3\n        /* \"#utility.yul\":12388:12391   */\n      dup6\n        /* \"#utility.yul\":12351:12405   */\n      tag_266\n      jump\t// in\n    tag_418:\n        /* \"#utility.yul\":12070:12411   */\n      pop\n        /* \"#utility.yul\":11986:12411   */\n      swap4\n      swap3\n      pop\n      pop\n      pop\n      jump\t// out\n        /* \"#utility.yul\":12431:12771   */\n    tag_268:\n        /* \"#utility.yul\":12487:12492   */\n      0x00\n        /* \"#utility.yul\":12536:12539   */\n      dup3\n        /* \"#utility.yul\":12529:12533   */\n      0x1f\n        /* \"#utility.yul\":12521:12527   */\n      dup4\n        /* \"#utility.yul\":12517:12534   */\n      add\n        /* \"#utility.yul\":12513:12540   */\n      slt\n        /* \"#utility.yul\":12503:12625   */\n      tag_420\n      jumpi\n        /* \"#utility.yul\":12544:12623   */\n      tag_421\n      tag_261\n      jump\t// in\n    tag_421:\n        /* \"#utility.yul\":12503:12625   */\n    tag_420:\n        /* \"#utility.yul\":12661:12667   */\n      dup2\n        /* \"#utility.yul\":12648:12668   */\n      calldataload\n        /* \"#utility.yul\":12686:12765   */\n      tag_422\n        /* \"#utility.yul\":12761:12764   */\n      dup5\n        /* \"#utility.yul\":12753:12759   */\n      dup3\n        /* \"#utility.yul\":12746:12750   */\n      0x20\n        /* \"#utility.yul\":12738:12744   */\n      dup7\n        /* \"#utility.yul\":12734:12751   */\n      add\n        /* \"#utility.yul\":12686:12765   */\n      tag_267\n      jump\t// in\n    tag_422:\n        /* \"#utility.yul\":12677:12765   */\n      swap2\n      pop\n        /* \"#utility.yul\":12493:12771   */\n      pop\n        /* \"#utility.yul\":12431:12771   */\n      swap3\n      swap2\n      pop\n      pop\n      jump\t// out\n        /* \"#utility.yul\":12777:13286   */\n    tag_39:\n        /* \"#utility.yul\":12846:12852   */\n      0x00\n        /* \"#utility.yul\":12895:12897   */\n      0x20\n        /* \"#utility.yul\":12883:12892   */\n      dup3\n        /* \"#utility.yul\":12874:12881   */\n      dup5\n        /* \"#utility.yul\":12870:12893   */\n      sub\n        /* \"#utility.yul\":12866:12898   */\n      slt\n        /* \"#utility.yul\":12863:12982   */\n      iszero\n      tag_424\n      jumpi\n        /* \"#utility.yul\":12901:12980   */\n      tag_425\n      tag_245\n      jump\t// in\n    tag_425:\n        /* \"#utility.yul\":12863:12982   */\n    tag_424:\n        /* \"#utility.yul\":13049:13050   */\n      0x00\n        /* \"#utility.yul\":13038:13047   */\n      dup3\n        /* \"#utility.yul\":13034:13051   */\n      add\n        /* \"#utility.yul\":13021:13052   */\n      calldataload\n        /* \"#utility.yul\":13079:13097   */\n      0xffffffffffffffff\n        /* \"#utility.yul\":13071:13077   */\n      dup2\n        /* \"#utility.yul\":13068:13098   */\n      gt\n        /* \"#utility.yul\":13065:13182   */\n      iszero\n      tag_426\n      jumpi\n        /* \"#utility.yul\":13101:13180   */\n      tag_427\n      tag_246\n      jump\t// in\n    tag_427:\n        /* \"#utility.yul\":13065:13182   */\n    tag_426:\n        /* \"#utility.yul\":13206:13269   */\n      tag_428\n        /* \"#utility.yul\":13261:13268   */\n      dup5\n        /* \"#utility.yul\":13252:13258   */\n      dup3\n        /* \"#utility.yul\":13241:13250   */\n      dup6\n        /* \"#utility.yul\":13237:13259   */\n      add\n        /* \"#utility.yul\":13206:13269   */\n      tag_268\n      jump\t// in\n    tag_428:\n        /* \"#utility.yul\":13196:13269   */\n      swap2\n      pop\n        /* \"#utility.yul\":12992:13279   */\n      pop\n        /* \"#utility.yul\":12777:13286   */\n      swap3\n      swap2\n      pop\n      pop\n      jump\t// out\n        /* \"#utility.yul\":13292:13410   */\n    tag_269:\n        /* \"#utility.yul\":13379:13403   */\n      tag_430\n        /* \"#utility.yul\":13397:13402   */\n      dup2\n        /* \"#utility.yul\":13379:13403   */\n      tag_248\n      jump\t// in\n    tag_430:\n        /* \"#utility.yul\":13374:13377   */\n      dup3\n        /* \"#utility.yul\":13367:13404   */\n      mstore\n        /* \"#utility.yul\":13292:13410   */\n      pop\n      pop\n      jump\t// out\n        /* \"#utility.yul\":13416:13638   */\n    tag_48:\n        /* \"#utility.yul\":13509:13513   */\n      0x00\n        /* \"#utility.yul\":13547:13549   */\n      0x20\n        /* \"#utility.yul\":13536:13545   */\n      dup3\n        /* \"#utility.yul\":13532:13550   */\n      add\n        /* \"#utility.yul\":13524:13550   */\n      swap1\n      pop\n        /* \"#utility.yul\":13560:13631   */\n      tag_432\n        /* \"#utility.yul\":13628:13629   */\n      0x00\n        /* \"#utility.yul\":13617:13626   */\n      dup4\n        /* \"#utility.yul\":13613:13630   */\n      add\n        /* \"#utility.yul\":13604:13610   */\n      dup5\n        /* \"#utility.yul\":13560:13631   */\n      tag_269\n      jump\t// in\n    tag_432:\n        /* \"#utility.yul\":13416:13638   */\n      swap3\n      swap2\n      pop\n      pop\n      jump\t// out\n        /* \"#utility.yul\":13644:13766   */\n    tag_270:\n        /* \"#utility.yul\":13717:13741   */\n      tag_434\n        /* \"#utility.yul\":13735:13740   */\n      dup2\n        /* \"#utility.yul\":13717:13741   */\n      tag_238\n      jump\t// in\n    tag_434:\n        /* \"#utility.yul\":13710:13715   */\n      dup2\n        /* \"#utility.yul\":13707:13742   */\n      eq\n        /* \"#utility.yul\":13697:13760   */\n      tag_435\n      jumpi\n        /* \"#utility.yul\":13756:13757   */\n      0x00\n        /* \"#utility.yul\":13753:13754   */\n      dup1\n        /* \"#utility.yul\":13746:13758   */\n      revert\n        /* \"#utility.yul\":13697:13760   */\n    tag_435:\n        /* \"#utility.yul\":13644:13766   */\n      pop\n      jump\t// out\n        /* \"#utility.yul\":13772:13911   */\n    tag_271:\n        /* \"#utility.yul\":13818:13823   */\n      0x00\n        /* \"#utility.yul\":13856:13862   */\n      dup2\n        /* \"#utility.yul\":13843:13863   */\n      calldataload\n        /* \"#utility.yul\":13834:13863   */\n      swap1\n      pop\n        /* \"#utility.yul\":13872:13905   */\n      tag_437\n        /* \"#utility.yul\":13899:13904   */\n      dup2\n        /* \"#utility.yul\":13872:13905   */\n      tag_270\n      jump\t// in\n    tag_437:\n        /* \"#utility.yul\":13772:13911   */\n      swap3\n      swap2\n      pop\n      pop\n      jump\t// out\n        /* \"#utility.yul\":13917:14246   */\n    tag_53:\n        /* \"#utility.yul\":13976:13982   */\n      0x00\n        /* \"#utility.yul\":14025:14027   */\n      0x20\n        /* \"#utility.yul\":14013:14022   */\n      dup3\n        /* \"#utility.yul\":14004:14011   */\n      dup5\n        /* \"#utility.yul\":14000:14023   */\n      sub\n        /* \"#utility.yul\":13996:14028   */\n      slt\n        /* \"#utility.yul\":13993:14112   */\n      iszero\n      tag_439\n      jumpi\n        /* \"#utility.yul\":14031:14110   */\n      tag_440\n      tag_245\n      jump\t// in\n    tag_440:\n        /* \"#utility.yul\":13993:14112   */\n    tag_439:\n        /* \"#utility.yul\":14151:14152   */\n      0x00\n        /* \"#utility.yul\":14176:14229   */\n      tag_441\n        /* \"#utility.yul\":14221:14228   */\n      dup5\n        /* \"#utility.yul\":14212:14218   */\n      dup3\n        /* \"#utility.yul\":14201:14210   */\n      dup6\n        /* \"#utility.yul\":14197:14219   */\n      add\n        /* \"#utility.yul\":14176:14229   */\n      tag_271\n      jump\t// in\n    tag_441:\n        /* \"#utility.yul\":14166:14229   */\n      swap2\n      pop\n        /* \"#utility.yul\":14122:14239   */\n      pop\n        /* \"#utility.yul\":13917:14246   */\n      swap3\n      swap2\n      pop\n      pop\n      jump\t// out\n        /* \"#utility.yul\":14252:14421   */\n    tag_272:\n        /* \"#utility.yul\":14336:14347   */\n      0x00\n        /* \"#utility.yul\":14370:14376   */\n      dup3\n        /* \"#utility.yul\":14365:14368   */\n      dup3\n        /* \"#utility.yul\":14358:14377   */\n      mstore\n        /* \"#utility.yul\":14410:14414   */\n      0x20\n        /* \"#utility.yul\":14405:14408   */\n      dup3\n        /* \"#utility.yul\":14401:14415   */\n      add\n        /* \"#utility.yul\":14386:14415   */\n      swap1\n      pop\n        /* \"#utility.yul\":14252:14421   */\n      swap3\n      swap2\n      pop\n      pop\n      jump\t// out\n        /* \"#utility.yul\":14427:14600   */\n    tag_273:\n        /* \"#utility.yul\":14567:14592   */\n      0x4d697373696e6720726571756972656420616d6f756e74000000000000000000\n        /* \"#utility.yul\":14563:14564   */\n      0x00\n        /* \"#utility.yul\":14555:14561   */\n      dup3\n        /* \"#utility.yul\":14551:14565   */\n      add\n        /* \"#utility.yul\":14544:14593   */\n      mstore\n        /* \"#utility.yul\":14427:14600   */\n      pop\n      jump\t// out\n        /* \"#utility.yul\":14606:14972   */\n    tag_274:\n        /* \"#utility.yul\":14748:14751   */\n      0x00\n        /* \"#utility.yul\":14769:14836   */\n      tag_445\n        /* \"#utility.yul\":14833:14835   */\n      0x17\n        /* \"#utility.yul\":14828:14831   */\n      dup4\n        /* \"#utility.yul\":14769:14836   */\n      tag_272\n      jump\t// in\n    tag_445:\n        /* \"#utility.yul\":14762:14836   */\n      swap2\n      pop\n        /* \"#utility.yul\":14845:14938   */\n      tag_446\n        /* \"#utility.yul\":14934:14937   */\n      dup3\n        /* \"#utility.yul\":14845:14938   */\n      tag_273\n      jump\t// in\n    tag_446:\n        /* \"#utility.yul\":14963:14965   */\n      0x20\n        /* \"#utility.yul\":14958:14961   */\n      dup3\n        /* \"#utility.yul\":14954:14966   */\n      add\n        /* \"#utility.yul\":14947:14966   */\n      swap1\n      pop\n        /* \"#utility.yul\":14606:14972   */\n      swap2\n      swap1\n      pop\n      jump\t// out\n        /* \"#utility.yul\":14978:15397   */\n    tag_58:\n        /* \"#utility.yul\":15144:15148   */\n      0x00\n        /* \"#utility.yul\":15182:15184   */\n      0x20\n        /* \"#utility.yul\":15171:15180   */\n      dup3\n        /* \"#utility.yul\":15167:15185   */\n      add\n        /* \"#utility.yul\":15159:15185   */\n      swap1\n      pop\n        /* \"#utility.yul\":15231:15240   */\n      dup2\n        /* \"#utility.yul\":15225:15229   */\n      dup2\n        /* \"#utility.yul\":15221:15241   */\n      sub\n        /* \"#utility.yul\":15217:15218   */\n      0x00\n        /* \"#utility.yul\":15206:15215   */\n      dup4\n        /* \"#utility.yul\":15202:15219   */\n      add\n        /* \"#utility.yul\":15195:15242   */\n      mstore\n        /* \"#utility.yul\":15259:15390   */\n      tag_448\n        /* \"#utility.yul\":15385:15389   */\n      dup2\n        /* \"#utility.yul\":15259:15390   */\n      tag_274\n      jump\t// in\n    tag_448:\n        /* \"#utility.yul\":15251:15390   */\n      swap1\n      pop\n        /* \"#utility.yul\":14978:15397   */\n      swap2\n      swap1\n      pop\n      jump\t// out\n        /* \"#utility.yul\":15403:15583   */\n    tag_275:\n        /* \"#utility.yul\":15451:15528   */\n      0x4e487b7100000000000000000000000000000000000000000000000000000000\n        /* \"#utility.yul\":15448:15449   */\n      0x00\n        /* \"#utility.yul\":15441:15529   */\n      mstore\n        /* \"#utility.yul\":15548:15552   */\n      0x11\n        /* \"#utility.yul\":15545:15546   */\n      0x04\n        /* \"#utility.yul\":15538:15553   */\n      mstore\n        /* \"#utility.yul\":15572:15576   */\n      0x24\n        /* \"#utility.yul\":15569:15570   */\n      0x00\n        /* \"#utility.yul\":15562:15577   */\n      revert\n        /* \"#utility.yul\":15589:15780   */\n    tag_60:\n        /* \"#utility.yul\":15629:15632   */\n      0x00\n        /* \"#utility.yul\":15648:15668   */\n      tag_451\n        /* \"#utility.yul\":15666:15667   */\n      dup3\n        /* \"#utility.yul\":15648:15668   */\n      tag_238\n      jump\t// in\n    tag_451:\n        /* \"#utility.yul\":15643:15668   */\n      swap2\n      pop\n        /* \"#utility.yul\":15682:15702   */\n      tag_452\n        /* \"#utility.yul\":15700:15701   */\n      dup4\n        /* \"#utility.yul\":15682:15702   */\n      tag_238\n      jump\t// in\n    tag_452:\n        /* \"#utility.yul\":15677:15702   */\n      swap3\n      pop\n        /* \"#utility.yul\":15725:15726   */\n      dup3\n        /* \"#utility.yul\":15722:15723   */\n      dup3\n        /* \"#utility.yul\":15718:15727   */\n      add\n        /* \"#utility.yul\":15711:15727   */\n      swap1\n      pop\n        /* \"#utility.yul\":15746:15749   */\n      dup1\n        /* \"#utility.yul\":15743:15744   */\n      dup3\n        /* \"#utility.yul\":15740:15750   */\n      gt\n        /* \"#utility.yul\":15737:15773   */\n      iszero\n      tag_453\n      jumpi\n        /* \"#utility.yul\":15753:15771   */\n      tag_454\n      tag_275\n      jump\t// in\n    tag_454:\n        /* \"#utility.yul\":15737:15773   */\n    tag_453:\n        /* \"#utility.yul\":15589:15780   */\n      swap3\n      swap2\n      pop\n      pop\n      jump\t// out\n        /* \"#utility.yul\":15786:15966   */\n    tag_276:\n        /* \"#utility.yul\":15834:15911   */\n      0x4e487b7100000000000000000000000000000000000000000000000000000000\n        /* \"#utility.yul\":15831:15832   */\n      0x00\n        /* \"#utility.yul\":15824:15912   */\n      mstore\n        /* \"#utility.yul\":15931:15935   */\n      0x22\n        /* \"#utility.yul\":15928:15929   */\n      0x04\n        /* \"#utility.yul\":15921:15936   */\n      mstore\n        /* \"#utility.yul\":15955:15959   */\n      0x24\n        /* \"#utility.yul\":15952:15953   */\n      0x00\n        /* \"#utility.yul\":15945:15960   */\n      revert\n        /* \"#utility.yul\":15972:16292   */\n    tag_67:\n        /* \"#utility.yul\":16016:16022   */\n      0x00\n        /* \"#utility.yul\":16053:16054   */\n      0x02\n        /* \"#utility.yul\":16047:16051   */\n      dup3\n        /* \"#utility.yul\":16043:16055   */\n      div\n        /* \"#utility.yul\":16033:16055   */\n      swap1\n      pop\n        /* \"#utility.yul\":16100:16101   */\n      0x01\n        /* \"#utility.yul\":16094:16098   */\n      dup3\n        /* \"#utility.yul\":16090:16102   */\n      and\n        /* \"#utility.yul\":16121:16139   */\n      dup1\n        /* \"#utility.yul\":16111:16192   */\n      tag_457\n      jumpi\n        /* \"#utility.yul\":16177:16181   */\n      0x7f\n        /* \"#utility.yul\":16169:16175   */\n      dup3\n        /* \"#utility.yul\":16165:16182   */\n      and\n        /* \"#utility.yul\":16155:16182   */\n      swap2\n      pop\n        /* \"#utility.yul\":16111:16192   */\n    tag_457:\n        /* \"#utility.yul\":16239:16241   */\n      0x20\n        /* \"#utility.yul\":16231:16237   */\n      dup3\n        /* \"#utility.yul\":16228:16242   */\n      lt\n        /* \"#utility.yul\":16208:16226   */\n      dup2\n        /* \"#utility.yul\":16205:16243   */\n      sub\n        /* \"#utility.yul\":16202:16286   */\n      tag_458\n      jumpi\n        /* \"#utility.yul\":16258:16276   */\n      tag_459\n      tag_276\n      jump\t// in\n    tag_459:\n        /* \"#utility.yul\":16202:16286   */\n    tag_458:\n        /* \"#utility.yul\":16023:16292   */\n      pop\n        /* \"#utility.yul\":15972:16292   */\n      swap2\n      swap1\n      pop\n      jump\t// out\n        /* \"#utility.yul\":16298:16478   */\n    tag_88:\n        /* \"#utility.yul\":16346:16423   */\n      0x4e487b7100000000000000000000000000000000000000000000000000000000\n        /* \"#utility.yul\":16343:16344   */\n      0x00\n        /* \"#utility.yul\":16336:16424   */\n      mstore\n        /* \"#utility.yul\":16443:16447   */\n      0x32\n        /* \"#utility.yul\":16440:16441   */\n      0x04\n        /* \"#utility.yul\":16433:16448   */\n      mstore\n        /* \"#utility.yul\":16467:16471   */\n      0x24\n        /* \"#utility.yul\":16464:16465   */\n      0x00\n        /* \"#utility.yul\":16457:16472   */\n      revert\n        /* \"#utility.yul\":16484:16717   */\n    tag_92:\n        /* \"#utility.yul\":16523:16526   */\n      0x00\n        /* \"#utility.yul\":16546:16570   */\n      tag_462\n        /* \"#utility.yul\":16564:16569   */\n      dup3\n        /* \"#utility.yul\":16546:16570   */\n      tag_238\n      jump\t// in\n    tag_462:\n        /* \"#utility.yul\":16537:16570   */\n      swap2\n      pop\n        /* \"#utility.yul\":16592:16658   */\n      0xffffffffffffffffffffffffffffffffffffffffffffffffffffffffffffffff\n        /* \"#utility.yul\":16585:16590   */\n      dup3\n        /* \"#utility.yul\":16582:16659   */\n      sub\n        /* \"#utility.yul\":16579:16682   */\n      tag_463\n      jumpi\n        /* \"#utility.yul\":16662:16680   */\n      tag_464\n      tag_275\n      jump\t// in\n    tag_464:\n        /* \"#utility.yul\":16579:16682   */\n    tag_463:\n        /* \"#utility.yul\":16709:16710   */\n      0x01\n        /* \"#utility.yul\":16702:16707   */\n      dup3\n        /* \"#utility.yul\":16698:16711   */\n      add\n        /* \"#utility.yul\":16691:16711   */\n      swap1\n      pop\n        /* \"#utility.yul\":16484:16717   */\n      swap2\n      swap1\n      pop\n      jump\t// out\n        /* \"#utility.yul\":16723:16903   */\n    tag_122:\n        /* \"#utility.yul\":16771:16848   */\n      0x4e487b7100000000000000000000000000000000000000000000000000000000\n        /* \"#utility.yul\":16768:16769   */\n      0x00\n        /* \"#utility.yul\":16761:16849   */\n      mstore\n        /* \"#utility.yul\":16868:16872   */\n      0x21\n        /* \"#utility.yul\":16865:16866   */\n      0x04\n        /* \"#utility.yul\":16858:16873   */\n      mstore\n        /* \"#utility.yul\":16892:16896   */\n      0x24\n        /* \"#utility.yul\":16889:16890   */\n      0x00\n        /* \"#utility.yul\":16882:16897   */\n      revert\n        /* \"#utility.yul\":16909:17077   */\n    tag_277:\n        /* \"#utility.yul\":17049:17069   */\n      0x496e73756666696369656e742066756e64730000000000000000000000000000\n        /* \"#utility.yul\":17045:17046   */\n      0x00\n        /* \"#utility.yul\":17037:17043   */\n      dup3\n        /* \"#utility.yul\":17033:17047   */\n      add\n        /* \"#utility.yul\":17026:17070   */\n      mstore\n        /* \"#utility.yul\":16909:17077   */\n      pop\n      jump\t// out\n        /* \"#utility.yul\":17083:17449   */\n    tag_278:\n        /* \"#utility.yul\":17225:17228   */\n      0x00\n        /* \"#utility.yul\":17246:17313   */\n      tag_468\n        /* \"#utility.yul\":17310:17312   */\n      0x12\n        /* \"#utility.yul\":17305:17308   */\n      dup4\n        /* \"#utility.yul\":17246:17313   */\n      tag_272\n      jump\t// in\n    tag_468:\n        /* \"#utility.yul\":17239:17313   */\n      swap2\n      pop\n        /* \"#utility.yul\":17322:17415   */\n      tag_469\n        /* \"#utility.yul\":17411:17414   */\n      dup3\n        /* \"#utility.yul\":17322:17415   */\n      tag_277\n      jump\t// in\n    tag_469:\n        /* \"#utility.yul\":17440:17442   */\n      0x20\n        /* \"#utility.yul\":17435:17438   */\n      dup3\n        /* \"#utility.yul\":17431:17443   */\n      add\n        /* \"#utility.yul\":17424:17443   */\n      swap1\n      pop\n        /* \"#utility.yul\":17083:17449   */\n      swap2\n      swap1\n      pop\n      jump\t// out\n        /* \"#utility.yul\":17455:17874   */\n    tag_136:\n        /* \"#utility.yul\":17621:17625   */\n      0x00\n        /* \"#utility.yul\":17659:17661   */\n      0x20\n        /* \"#utility.yul\":17648:17657   */\n      dup3\n        /* \"#utility.yul\":17644:17662   */\n      add\n        /* \"#utility.yul\":17636:17662   */\n      swap1\n      pop\n        /* \"#utility.yul\":17708:17717   */\n      dup2\n        /* \"#utility.yul\":17702:17706   */\n      dup2\n        /* \"#utility.yul\":17698:17718   */\n      sub\n        /* \"#utility.yul\":17694:17695   */\n      0x00\n        /* \"#utility.yul\":17683:17692   */\n      dup4\n        /* \"#utility.yul\":17679:17696   */\n      add\n        /* \"#utility.yul\":17672:17719   */\n      mstore\n        /* \"#utility.yul\":17736:17867   */\n      tag_471\n        /* \"#utility.yul\":17862:17866   */\n      dup2\n        /* \"#utility.yul\":17736:17867   */\n      tag_278\n      jump\t// in\n    tag_471:\n        /* \"#utility.yul\":17728:17867   */\n      swap1\n      pop\n        /* \"#utility.yul\":17455:17874   */\n      swap2\n      swap1\n      pop\n      jump\t// out\n        /* \"#utility.yul\":17880:18074   */\n    tag_138:\n        /* \"#utility.yul\":17920:17924   */\n      0x00\n        /* \"#utility.yul\":17940:17960   */\n      tag_473\n        /* \"#utility.yul\":17958:17959   */\n      dup3\n        /* \"#utility.yul\":17940:17960   */\n      tag_238\n      jump\t// in\n    tag_473:\n        /* \"#utility.yul\":17935:17960   */\n      swap2\n      pop\n        /* \"#utility.yul\":17974:17994   */\n      tag_474\n        /* \"#utility.yul\":17992:17993   */\n      dup4\n        /* \"#utility.yul\":17974:17994   */\n      tag_238\n      jump\t// in\n    tag_474:\n        /* \"#utility.yul\":17969:17994   */\n      swap3\n      pop\n        /* \"#utility.yul\":18018:18019   */\n      dup3\n        /* \"#utility.yul\":18015:18016   */\n      dup3\n        /* \"#utility.yul\":18011:18020   */\n      sub\n        /* \"#utility.yul\":18003:18020   */\n      swap1\n      pop\n        /* \"#utility.yul\":18042:18043   */\n      dup2\n        /* \"#utility.yul\":18036:18040   */\n      dup2\n        /* \"#utility.yul\":18033:18044   */\n      gt\n        /* \"#utility.yul\":18030:18067   */\n      iszero\n      tag_475\n      jumpi\n        /* \"#utility.yul\":18047:18065   */\n      tag_476\n      tag_275\n      jump\t// in\n    tag_476:\n        /* \"#utility.yul\":18030:18067   */\n    tag_475:\n        /* \"#utility.yul\":17880:18074   */\n      swap3\n      swap2\n      pop\n      pop\n      jump\t// out\n        /* \"#utility.yul\":18080:18221   */\n    tag_279:\n        /* \"#utility.yul\":18129:18133   */\n      0x00\n        /* \"#utility.yul\":18152:18155   */\n      dup2\n        /* \"#utility.yul\":18144:18155   */\n      swap1\n      pop\n        /* \"#utility.yul\":18175:18178   */\n      dup2\n        /* \"#utility.yul\":18172:18173   */\n      0x00\n        /* \"#utility.yul\":18165:18179   */\n      mstore\n        /* \"#utility.yul\":18209:18213   */\n      0x20\n        /* \"#utility.yul\":18206:18207   */\n      0x00\n        /* \"#utility.yul\":18196:18214   */\n      keccak256\n        /* \"#utility.yul\":18188:18214   */\n      swap1\n      pop\n        /* \"#utility.yul\":18080:18221   */\n      swap2\n      swap1\n      pop\n      jump\t// out\n        /* \"#utility.yul\":18227:18320   */\n    tag_280:\n        /* \"#utility.yul\":18264:18270   */\n      0x00\n        /* \"#utility.yul\":18311:18313   */\n      0x20\n        /* \"#utility.yul\":18306:18308   */\n      0x1f\n        /* \"#utility.yul\":18299:18304   */\n      dup4\n        /* \"#utility.yul\":18295:18309   */\n      add\n        /* \"#utility.yul\":18291:18314   */\n      div\n        /* \"#utility.yul\":18281:18314   */\n      swap1\n      pop\n        /* \"#utility.yul\":18227:18320   */\n      swap2\n      swap1\n      pop\n      jump\t// out\n        /* \"#utility.yul\":18326:18433   */\n    tag_281:\n        /* \"#utility.yul\":18370:18378   */\n      0x00\n        /* \"#utility.yul\":18420:18425   */\n      dup3\n        /* \"#utility.yul\":18414:18418   */\n      dup3\n        /* \"#utility.yul\":18410:18426   */\n      shl\n        /* \"#utility.yul\":18389:18426   */\n      swap1\n      pop\n        /* \"#utility.yul\":18326:18433   */\n      swap3\n      swap2\n      pop\n      pop\n      jump\t// out\n        /* \"#utility.yul\":18439:18832   */\n    tag_282:\n        /* \"#utility.yul\":18508:18514   */\n      0x00\n        /* \"#utility.yul\":18558:18559   */\n      0x08\n        /* \"#utility.yul\":18546:18556   */\n      dup4\n        /* \"#utility.yul\":18542:18560   */\n      mul\n        /* \"#utility.yul\":18581:18678   */\n      tag_481\n        /* \"#utility.yul\":18611:18677   */\n      0xffffffffffffffffffffffffffffffffffffffffffffffffffffffffffffffff\n        /* \"#utility.yul\":18600:18609   */\n      dup3\n        /* \"#utility.yul\":18581:18678   */\n      tag_281\n      jump\t// in\n    tag_481:\n        /* \"#utility.yul\":18699:18738   */\n      tag_482\n        /* \"#utility.yul\":18729:18737   */\n      dup7\n        /* \"#utility.yul\":18718:18727   */\n      dup4\n        /* \"#utility.yul\":18699:18738   */\n      tag_281\n      jump\t// in\n    tag_482:\n        /* \"#utility.yul\":18687:18738   */\n      swap6\n      pop\n        /* \"#utility.yul\":18771:18775   */\n      dup1\n        /* \"#utility.yul\":18767:18776   */\n      not\n        /* \"#utility.yul\":18760:18765   */\n      dup5\n        /* \"#utility.yul\":18756:18777   */\n      and\n        /* \"#utility.yul\":18747:18777   */\n      swap4\n      pop\n        /* \"#utility.yul\":18820:18824   */\n      dup1\n        /* \"#utility.yul\":18810:18818   */\n      dup7\n        /* \"#utility.yul\":18806:18825   */\n      and\n        /* \"#utility.yul\":18799:18804   */\n      dup5\n        /* \"#utility.yul\":18796:18826   */\n      or\n        /* \"#utility.yul\":18786:18826   */\n      swap3\n      pop\n        /* \"#utility.yul\":18515:18832   */\n      pop\n      pop\n        /* \"#utility.yul\":18439:18832   */\n      swap4\n      swap3\n      pop\n      pop\n      pop\n      jump\t// out\n        /* \"#utility.yul\":18838:18898   */\n    tag_283:\n        /* \"#utility.yul\":18866:18869   */\n      0x00\n        /* \"#utility.yul\":18887:18892   */\n      dup2\n        /* \"#utility.yul\":18880:18892   */\n      swap1\n      pop\n        /* \"#utility.yul\":18838:18898   */\n      swap2\n      swap1\n      pop\n      jump\t// out\n        /* \"#utility.yul\":18904:19046   */\n    tag_284:\n        /* \"#utility.yul\":18954:18963   */\n      0x00\n        /* \"#utility.yul\":18987:19040   */\n      tag_485\n        /* \"#utility.yul\":19005:19039   */\n      tag_486\n        /* \"#utility.yul\":19014:19038   */\n      tag_487\n        /* \"#utility.yul\":19032:19037   */\n      dup5\n        /* \"#utility.yul\":19014:19038   */\n      tag_238\n      jump\t// in\n    tag_487:\n        /* \"#utility.yul\":19005:19039   */\n      tag_283\n      jump\t// in\n    tag_486:\n        /* \"#utility.yul\":18987:19040   */\n      tag_238\n      jump\t// in\n    tag_485:\n        /* \"#utility.yul\":18974:19040   */\n      swap1\n      pop\n        /* \"#utility.yul\":18904:19046   */\n      swap2\n      swap1\n      pop\n      jump\t// out\n        /* \"#utility.yul\":19052:19127   */\n    tag_285:\n        /* \"#utility.yul\":19095:19098   */\n      0x00\n        /* \"#utility.yul\":19116:19121   */\n      dup2\n        /* \"#utility.yul\":19109:19121   */\n      swap1\n      pop\n        /* \"#utility.yul\":19052:19127   */\n      swap2\n      swap1\n      pop\n      jump\t// out\n        /* \"#utility.yul\":19133:19402   */\n    tag_286:\n        /* \"#utility.yul\":19243:19282   */\n      tag_490\n        /* \"#utility.yul\":19274:19281   */\n      dup4\n        /* \"#utility.yul\":19243:19282   */\n      tag_284\n      jump\t// in\n    tag_490:\n        /* \"#utility.yul\":19304:19395   */\n      tag_491\n        /* \"#utility.yul\":19353:19394   */\n      tag_492\n        /* \"#utility.yul\":19377:19393   */\n      dup3\n        /* \"#utility.yul\":19353:19394   */\n      tag_285\n      jump\t// in\n    tag_492:\n        /* \"#utility.yul\":19345:19351   */\n      dup5\n        /* \"#utility.yul\":19338:19342   */\n      dup5\n        /* \"#utility.yul\":19332:19343   */\n      sload\n        /* \"#utility.yul\":19304:19395   */\n      tag_282\n      jump\t// in\n    tag_491:\n        /* \"#utility.yul\":19298:19302   */\n      dup3\n        /* \"#utility.yul\":19291:19396   */\n      sstore\n        /* \"#utility.yul\":19209:19402   */\n      pop\n        /* \"#utility.yul\":19133:19402   */\n      pop\n      pop\n      pop\n      jump\t// out\n        /* \"#utility.yul\":19408:19481   */\n    tag_287:\n        /* \"#utility.yul\":19453:19456   */\n      0x00\n        /* \"#utility.yul\":19408:19481   */\n      swap1\n      jump\t// out\n        /* \"#utility.yul\":19487:19676   */\n    tag_288:\n        /* \"#utility.yul\":19564:19596   */\n      tag_495\n      tag_287\n      jump\t// in\n    tag_495:\n        /* \"#utility.yul\":19605:19670   */\n      tag_496\n        /* \"#utility.yul\":19663:19669   */\n      dup2\n        /* \"#utility.yul\":19655:19661   */\n      dup5\n        /* \"#utility.yul\":19649:19653   */\n      dup5\n        /* \"#utility.yul\":19605:19670   */\n      tag_286\n      jump\t// in\n    tag_496:\n        /* \"#utility.yul\":19540:19676   */\n      pop\n        /* \"#utility.yul\":19487:19676   */\n      pop\n      pop\n      jump\t// out\n        /* \"#utility.yul\":19682:19868   */\n    tag_289:\n        /* \"#utility.yul\":19742:19862   */\n    tag_498:\n        /* \"#utility.yul\":19759:19762   */\n      dup2\n        /* \"#utility.yul\":19752:19757   */\n      dup2\n        /* \"#utility.yul\":19749:19763   */\n      lt\n        /* \"#utility.yul\":19742:19862   */\n      iszero\n      tag_500\n      jumpi\n        /* \"#utility.yul\":19813:19852   */\n      tag_501\n        /* \"#utility.yul\":19850:19851   */\n      0x00\n        /* \"#utility.yul\":19843:19848   */\n      dup3\n        /* \"#utility.yul\":19813:19852   */\n      tag_288\n      jump\t// in\n    tag_501:\n        /* \"#utility.yul\":19786:19787   */\n      0x01\n        /* \"#utility.yul\":19779:19784   */\n      dup2\n        /* \"#utility.yul\":19775:19788   */\n      add\n        /* \"#utility.yul\":19766:19788   */\n      swap1\n      pop\n        /* \"#utility.yul\":19742:19862   */\n      jump(tag_498)\n    tag_500:\n        /* \"#utility.yul\":19682:19868   */\n      pop\n      pop\n      jump\t// out\n        /* \"#utility.yul\":19874:20417   */\n    tag_290:\n        /* \"#utility.yul\":19975:19977   */\n      0x1f\n        /* \"#utility.yul\":19970:19973   */\n      dup3\n        /* \"#utility.yul\":19967:19978   */\n      gt\n        /* \"#utility.yul\":19964:20410   */\n      iszero\n      tag_503\n      jumpi\n        /* \"#utility.yul\":20009:20047   */\n      tag_504\n        /* \"#utility.yul\":20041:20046   */\n      dup2\n        /* \"#utility.yul\":20009:20047   */\n      tag_279\n      jump\t// in\n    tag_504:\n        /* \"#utility.yul\":20093:20122   */\n      tag_505\n        /* \"#utility.yul\":20111:20121   */\n      dup5\n        /* \"#utility.yul\":20093:20122   */\n      tag_280\n      jump\t// in\n    tag_505:\n        /* \"#utility.yul\":20083:20091   */\n      dup2\n        /* \"#utility.yul\":20079:20123   */\n      add\n        /* \"#utility.yul\":20276:20278   */\n      0x20\n        /* \"#utility.yul\":20264:20274   */\n      dup6\n        /* \"#utility.yul\":20261:20279   */\n      lt\n        /* \"#utility.yul\":20258:20307   */\n      iszero\n      tag_506\n      jumpi\n        /* \"#utility.yul\":20297:20305   */\n      dup2\n        /* \"#utility.yul\":20282:20305   */\n      swap1\n      pop\n        /* \"#utility.yul\":20258:20307   */\n    tag_506:\n        /* \"#utility.yul\":20320:20400   */\n      tag_507\n        /* \"#utility.yul\":20376:20398   */\n      tag_508\n        /* \"#utility.yul\":20394:20397   */\n      dup6\n        /* \"#utility.yul\":20376:20398   */\n      tag_280\n      jump\t// in\n    tag_508:\n        /* \"#utility.yul\":20366:20374   */\n      dup4\n        /* \"#utility.yul\":20362:20399   */\n      add\n        /* \"#utility.yul\":20349:20360   */\n      dup3\n        /* \"#utility.yul\":20320:20400   */\n      tag_289\n      jump\t// in\n    tag_507:\n        /* \"#utility.yul\":19979:20410   */\n      pop\n      pop\n        /* \"#utility.yul\":19964:20410   */\n    tag_503:\n        /* \"#utility.yul\":19874:20417   */\n      pop\n      pop\n      pop\n      jump\t// out\n        /* \"#utility.yul\":20423:20540   */\n    tag_291:\n        /* \"#utility.yul\":20477:20485   */\n      0x00\n        /* \"#utility.yul\":20527:20532   */\n      dup3\n        /* \"#utility.yul\":20521:20525   */\n      dup3\n        /* \"#utility.yul\":20517:20533   */\n      shr\n        /* \"#utility.yul\":20496:20533   */\n      swap1\n      pop\n        /* \"#utility.yul\":20423:20540   */\n      swap3\n      swap2\n      pop\n      pop\n      jump\t// out\n        /* \"#utility.yul\":20546:20715   */\n    tag_292:\n        /* \"#utility.yul\":20590:20596   */\n      0x00\n        /* \"#utility.yul\":20623:20674   */\n      tag_511\n        /* \"#utility.yul\":20671:20672   */\n      0x00\n        /* \"#utility.yul\":20667:20673   */\n      not\n        /* \"#utility.yul\":20659:20664   */\n      dup5\n        /* \"#utility.yul\":20656:20657   */\n      0x08\n        /* \"#utility.yul\":20652:20665   */\n      mul\n        /* \"#utility.yul\":20623:20674   */\n      tag_291\n      jump\t// in\n    tag_511:\n        /* \"#utility.yul\":20619:20675   */\n      not\n        /* \"#utility.yul\":20704:20708   */\n      dup1\n        /* \"#utility.yul\":20698:20702   */\n      dup4\n        /* \"#utility.yul\":20694:20709   */\n      and\n        /* \"#utility.yul\":20684:20709   */\n      swap2\n      pop\n        /* \"#utility.yul\":20597:20715   */\n      pop\n        /* \"#utility.yul\":20546:20715   */\n      swap3\n      swap2\n      pop\n      pop\n      jump\t// out\n        /* \"#utility.yul\":20720:21015   */\n    tag_293:\n        /* \"#utility.yul\":20796:20800   */\n      0x00\n        /* \"#utility.yul\":20942:20971   */\n      tag_513\n        /* \"#utility.yul\":20967:20970   */\n      dup4\n        /* \"#utility.yul\":20961:20965   */\n      dup4\n        /* \"#utility.yul\":20942:20971   */\n      tag_292\n      jump\t// in\n    tag_513:\n        /* \"#utility.yul\":20934:20971   */\n      swap2\n      pop\n        /* \"#utility.yul\":21004:21007   */\n      dup3\n        /* \"#utility.yul\":21001:21002   */\n      0x02\n        /* \"#utility.yul\":20997:21008   */\n      mul\n        /* \"#utility.yul\":20991:20995   */\n      dup3\n        /* \"#utility.yul\":20988:21009   */\n      or\n        /* \"#utility.yul\":20980:21009   */\n      swap1\n      pop\n        /* \"#utility.yul\":20720:21015   */\n      swap3\n      swap2\n      pop\n      pop\n      jump\t// out\n        /* \"#utility.yul\":21020:22415   */\n    tag_143:\n        /* \"#utility.yul\":21137:21174   */\n      tag_515\n        /* \"#utility.yul\":21170:21173   */\n      dup3\n        /* \"#utility.yul\":21137:21174   */\n      tag_233\n      jump\t// in\n    tag_515:\n        /* \"#utility.yul\":21239:21257   */\n      0xffffffffffffffff\n        /* \"#utility.yul\":21231:21237   */\n      dup2\n        /* \"#utility.yul\":21228:21258   */\n      gt\n        /* \"#utility.yul\":21225:21281   */\n      iszero\n      tag_516\n      jumpi\n        /* \"#utility.yul\":21261:21279   */\n      tag_517\n      tag_95\n      jump\t// in\n    tag_517:\n        /* \"#utility.yul\":21225:21281   */\n    tag_516:\n        /* \"#utility.yul\":21305:21343   */\n      tag_518\n        /* \"#utility.yul\":21337:21341   */\n      dup3\n        /* \"#utility.yul\":21331:21342   */\n      sload\n        /* \"#utility.yul\":21305:21343   */\n      tag_67\n      jump\t// in\n    tag_518:\n        /* \"#utility.yul\":21390:21457   */\n      tag_519\n        /* \"#utility.yul\":21450:21456   */\n      dup3\n        /* \"#utility.yul\":21442:21448   */\n      dup3\n        /* \"#utility.yul\":21436:21440   */\n      dup6\n        /* \"#utility.yul\":21390:21457   */\n      tag_290\n      jump\t// in\n    tag_519:\n        /* \"#utility.yul\":21484:21485   */\n      0x00\n        /* \"#utility.yul\":21508:21512   */\n      0x20\n        /* \"#utility.yul\":21495:21512   */\n      swap1\n      pop\n        /* \"#utility.yul\":21540:21542   */\n      0x1f\n        /* \"#utility.yul\":21532:21538   */\n      dup4\n        /* \"#utility.yul\":21529:21543   */\n      gt\n        /* \"#utility.yul\":21557:21558   */\n      0x01\n        /* \"#utility.yul\":21552:22170   */\n      dup2\n      eq\n      tag_521\n      jumpi\n        /* \"#utility.yul\":22214:22215   */\n      0x00\n        /* \"#utility.yul\":22231:22237   */\n      dup5\n        /* \"#utility.yul\":22228:22305   */\n      iszero\n      tag_522\n      jumpi\n        /* \"#utility.yul\":22280:22289   */\n      dup3\n        /* \"#utility.yul\":22275:22278   */\n      dup8\n        /* \"#utility.yul\":22271:22290   */\n      add\n        /* \"#utility.yul\":22265:22291   */\n      mload\n        /* \"#utility.yul\":22256:22291   */\n      swap1\n      pop\n        /* \"#utility.yul\":22228:22305   */\n    tag_522:\n        /* \"#utility.yul\":22331:22398   */\n      tag_523\n        /* \"#utility.yul\":22391:22397   */\n      dup6\n        /* \"#utility.yul\":22384:22389   */\n      dup3\n        /* \"#utility.yul\":22331:22398   */\n      tag_293\n      jump\t// in\n    tag_523:\n        /* \"#utility.yul\":22325:22329   */\n      dup7\n        /* \"#utility.yul\":22318:22399   */\n      sstore\n        /* \"#utility.yul\":22187:22409   */\n      pop\n        /* \"#utility.yul\":21522:22409   */\n      jump(tag_520)\n        /* \"#utility.yul\":21552:22170   */\n    tag_521:\n        /* \"#utility.yul\":21604:21608   */\n      0x1f\n        /* \"#utility.yul\":21600:21609   */\n      not\n        /* \"#utility.yul\":21592:21598   */\n      dup5\n        /* \"#utility.yul\":21588:21610   */\n      and\n        /* \"#utility.yul\":21638:21675   */\n      tag_524\n        /* \"#utility.yul\":21670:21674   */\n      dup7\n        /* \"#utility.yul\":21638:21675   */\n      tag_279\n      jump\t// in\n    tag_524:\n        /* \"#utility.yul\":21697:21698   */\n      0x00\n        /* \"#utility.yul\":21711:21919   */\n    tag_525:\n        /* \"#utility.yul\":21725:21732   */\n      dup3\n        /* \"#utility.yul\":21722:21723   */\n      dup2\n        /* \"#utility.yul\":21719:21733   */\n      lt\n        /* \"#utility.yul\":21711:21919   */\n      iszero\n      tag_527\n      jumpi\n        /* \"#utility.yul\":21804:21813   */\n      dup5\n        /* \"#utility.yul\":21799:21802   */\n      dup10\n        /* \"#utility.yul\":21795:21814   */\n      add\n        /* \"#utility.yul\":21789:21815   */\n      mload\n        /* \"#utility.yul\":21781:21787   */\n      dup3\n        /* \"#utility.yul\":21774:21816   */\n      sstore\n        /* \"#utility.yul\":21855:21856   */\n      0x01\n        /* \"#utility.yul\":21847:21853   */\n      dup3\n        /* \"#utility.yul\":21843:21857   */\n      add\n        /* \"#utility.yul\":21833:21857   */\n      swap2\n      pop\n        /* \"#utility.yul\":21902:21904   */\n      0x20\n        /* \"#utility.yul\":21891:21900   */\n      dup6\n        /* \"#utility.yul\":21887:21905   */\n      add\n        /* \"#utility.yul\":21874:21905   */\n      swap5\n      pop\n        /* \"#utility.yul\":21748:21752   */\n      0x20\n        /* \"#utility.yul\":21745:21746   */\n      dup2\n        /* \"#utility.yul\":21741:21753   */\n      add\n        /* \"#utility.yul\":21736:21753   */\n      swap1\n      pop\n        /* \"#utility.yul\":21711:21919   */\n      jump(tag_525)\n    tag_527:\n        /* \"#utility.yul\":21947:21953   */\n      dup7\n        /* \"#utility.yul\":21938:21945   */\n      dup4\n        /* \"#utility.yul\":21935:21954   */\n      lt\n        /* \"#utility.yul\":21932:22111   */\n      iszero\n      tag_528\n      jumpi\n        /* \"#utility.yul\":22005:22014   */\n      dup5\n        /* \"#utility.yul\":22000:22003   */\n      dup10\n        /* \"#utility.yul\":21996:22015   */\n      add\n        /* \"#utility.yul\":21990:22016   */\n      mload\n        /* \"#utility.yul\":22048:22096   */\n      tag_529\n        /* \"#utility.yul\":22090:22094   */\n      0x1f\n        /* \"#utility.yul\":22082:22088   */\n      dup10\n        /* \"#utility.yul\":22078:22095   */\n      and\n        /* \"#utility.yul\":22067:22076   */\n      dup3\n        /* \"#utility.yul\":22048:22096   */\n      tag_292\n      jump\t// in\n    tag_529:\n        /* \"#utility.yul\":22040:22046   */\n      dup4\n        /* \"#utility.yul\":22033:22097   */\n      sstore\n        /* \"#utility.yul\":21955:22111   */\n      pop\n        /* \"#utility.yul\":21932:22111   */\n    tag_528:\n        /* \"#utility.yul\":22157:22158   */\n      0x01\n        /* \"#utility.yul\":22153:22154   */\n      0x02\n        /* \"#utility.yul\":22145:22151   */\n      dup9\n        /* \"#utility.yul\":22141:22155   */\n      mul\n        /* \"#utility.yul\":22137:22159   */\n      add\n        /* \"#utility.yul\":22131:22135   */\n      dup9\n        /* \"#utility.yul\":22124:22160   */\n      sstore\n        /* \"#utility.yul\":21559:22170   */\n      pop\n      pop\n      pop\n        /* \"#utility.yul\":21522:22409   */\n    tag_520:\n      pop\n        /* \"#utility.yul\":21112:22415   */\n      pop\n      pop\n      pop\n        /* \"#utility.yul\":21020:22415   */\n      pop\n      pop\n      jump\t// out\n        /* \"#utility.yul\":22421:22798   */\n    tag_294:\n        /* \"#utility.yul\":22509:22512   */\n      0x00\n        /* \"#utility.yul\":22537:22576   */\n      tag_531\n        /* \"#utility.yul\":22570:22575   */\n      dup3\n        /* \"#utility.yul\":22537:22576   */\n      tag_233\n      jump\t// in\n    tag_531:\n        /* \"#utility.yul\":22592:22663   */\n      tag_532\n        /* \"#utility.yul\":22656:22662   */\n      dup2\n        /* \"#utility.yul\":22651:22654   */\n      dup6\n        /* \"#utility.yul\":22592:22663   */\n      tag_272\n      jump\t// in\n    tag_532:\n        /* \"#utility.yul\":22585:22663   */\n      swap4\n      pop\n        /* \"#utility.yul\":22672:22737   */\n      tag_533\n        /* \"#utility.yul\":22730:22736   */\n      dup2\n        /* \"#utility.yul\":22725:22728   */\n      dup6\n        /* \"#utility.yul\":22718:22722   */\n      0x20\n        /* \"#utility.yul\":22711:22716   */\n      dup7\n        /* \"#utility.yul\":22707:22723   */\n      add\n        /* \"#utility.yul\":22672:22737   */\n      tag_235\n      jump\t// in\n    tag_533:\n        /* \"#utility.yul\":22762:22791   */\n      tag_534\n        /* \"#utility.yul\":22784:22790   */\n      dup2\n        /* \"#utility.yul\":22762:22791   */\n      tag_236\n      jump\t// in\n    tag_534:\n        /* \"#utility.yul\":22757:22760   */\n      dup5\n        /* \"#utility.yul\":22753:22792   */\n      add\n        /* \"#utility.yul\":22746:22792   */\n      swap2\n      pop\n        /* \"#utility.yul\":22513:22798   */\n      pop\n        /* \"#utility.yul\":22421:22798   */\n      swap3\n      swap2\n      pop\n      pop\n      jump\t// out\n        /* \"#utility.yul\":22804:23337   */\n    tag_147:\n        /* \"#utility.yul\":22973:22977   */\n      0x00\n        /* \"#utility.yul\":23011:23013   */\n      0x60\n        /* \"#utility.yul\":23000:23009   */\n      dup3\n        /* \"#utility.yul\":22996:23014   */\n      add\n        /* \"#utility.yul\":22988:23014   */\n      swap1\n      pop\n        /* \"#utility.yul\":23060:23069   */\n      dup2\n        /* \"#utility.yul\":23054:23058   */\n      dup2\n        /* \"#utility.yul\":23050:23070   */\n      sub\n        /* \"#utility.yul\":23046:23047   */\n      0x00\n        /* \"#utility.yul\":23035:23044   */\n      dup4\n        /* \"#utility.yul\":23031:23048   */\n      add\n        /* \"#utility.yul\":23024:23071   */\n      mstore\n        /* \"#utility.yul\":23088:23166   */\n      tag_536\n        /* \"#utility.yul\":23161:23165   */\n      dup2\n        /* \"#utility.yul\":23152:23158   */\n      dup7\n        /* \"#utility.yul\":23088:23166   */\n      tag_294\n      jump\t// in\n    tag_536:\n        /* \"#utility.yul\":23080:23166   */\n      swap1\n      pop\n        /* \"#utility.yul\":23176:23248   */\n      tag_537\n        /* \"#utility.yul\":23244:23246   */\n      0x20\n        /* \"#utility.yul\":23233:23242   */\n      dup4\n        /* \"#utility.yul\":23229:23247   */\n      add\n        /* \"#utility.yul\":23220:23226   */\n      dup6\n        /* \"#utility.yul\":23176:23248   */\n      tag_260\n      jump\t// in\n    tag_537:\n        /* \"#utility.yul\":23258:23330   */\n      tag_538\n        /* \"#utility.yul\":23326:23328   */\n      0x40\n        /* \"#utility.yul\":23315:23324   */\n      dup4\n        /* \"#utility.yul\":23311:23329   */\n      add\n        /* \"#utility.yul\":23302:23308   */\n      dup5\n        /* \"#utility.yul\":23258:23330   */\n      tag_260\n      jump\t// in\n    tag_538:\n        /* \"#utility.yul\":22804:23337   */\n      swap5\n      swap4\n      pop\n      pop\n      pop\n      pop\n      jump\t// out\n        /* \"#utility.yul\":23343:23563   */\n    tag_295:\n        /* \"#utility.yul\":23483:23517   */\n      0x4f6e6c79206f776e65722063616e2063616c6c20746869732066756e6374696f\n        /* \"#utility.yul\":23479:23480   */\n      0x00\n        /* \"#utility.yul\":23471:23477   */\n      dup3\n        /* \"#utility.yul\":23467:23481   */\n      add\n        /* \"#utility.yul\":23460:23518   */\n      mstore\n        /* \"#utility.yul\":23552:23555   */\n      0x6e00000000000000000000000000000000000000000000000000000000000000\n        /* \"#utility.yul\":23547:23549   */\n      0x20\n        /* \"#utility.yul\":23539:23545   */\n      dup3\n        /* \"#utility.yul\":23535:23550   */\n      add\n        /* \"#utility.yul\":23528:23556   */\n      mstore\n        /* \"#utility.yul\":23343:23563   */\n      pop\n      jump\t// out\n        /* \"#utility.yul\":23569:23935   */\n    tag_296:\n        /* \"#utility.yul\":23711:23714   */\n      0x00\n        /* \"#utility.yul\":23732:23799   */\n      tag_541\n        /* \"#utility.yul\":23796:23798   */\n      0x21\n        /* \"#utility.yul\":23791:23794   */\n      dup4\n        /* \"#utility.yul\":23732:23799   */\n      tag_272\n      jump\t// in\n    tag_541:\n        /* \"#utility.yul\":23725:23799   */\n      swap2\n      pop\n        /* \"#utility.yul\":23808:23901   */\n      tag_542\n        /* \"#utility.yul\":23897:23900   */\n      dup3\n        /* \"#utility.yul\":23808:23901   */\n      tag_295\n      jump\t// in\n    tag_542:\n        /* \"#utility.yul\":23926:23928   */\n      0x40\n        /* \"#utility.yul\":23921:23924   */\n      dup3\n        /* \"#utility.yul\":23917:23929   */\n      add\n        /* \"#utility.yul\":23910:23929   */\n      swap1\n      pop\n        /* \"#utility.yul\":23569:23935   */\n      swap2\n      swap1\n      pop\n      jump\t// out\n        /* \"#utility.yul\":23941:24360   */\n    tag_151:\n        /* \"#utility.yul\":24107:24111   */\n      0x00\n        /* \"#utility.yul\":24145:24147   */\n      0x20\n        /* \"#utility.yul\":24134:24143   */\n      dup3\n        /* \"#utility.yul\":24130:24148   */\n      add\n        /* \"#utility.yul\":24122:24148   */\n      swap1\n      pop\n        /* \"#utility.yul\":24194:24203   */\n      dup2\n        /* \"#utility.yul\":24188:24192   */\n      dup2\n        /* \"#utility.yul\":24184:24204   */\n      sub\n        /* \"#utility.yul\":24180:24181   */\n      0x00\n        /* \"#utility.yul\":24169:24178   */\n      dup4\n        /* \"#utility.yul\":24165:24182   */\n      add\n        /* \"#utility.yul\":24158:24205   */\n      mstore\n        /* \"#utility.yul\":24222:24353   */\n      tag_544\n        /* \"#utility.yul\":24348:24352   */\n      dup2\n        /* \"#utility.yul\":24222:24353   */\n      tag_296\n      jump\t// in\n    tag_544:\n        /* \"#utility.yul\":24214:24353   */\n      swap1\n      pop\n        /* \"#utility.yul\":23941:24360   */\n      swap2\n      swap1\n      pop\n      jump\t// out\n        /* \"#utility.yul\":24366:24529   */\n    tag_297:\n        /* \"#utility.yul\":24506:24521   */\n      0x4e6f207265656e7472616e637900000000000000000000000000000000000000\n        /* \"#utility.yul\":24502:24503   */\n      0x00\n        /* \"#utility.yul\":24494:24500   */\n      dup3\n        /* \"#utility.yul\":24490:24504   */\n      add\n        /* \"#utility.yul\":24483:24522   */\n      mstore\n        /* \"#utility.yul\":24366:24529   */\n      pop\n      jump\t// out\n        /* \"#utility.yul\":24535:24901   */\n    tag_298:\n        /* \"#utility.yul\":24677:24680   */\n      0x00\n        /* \"#utility.yul\":24698:24765   */\n      tag_547\n        /* \"#utility.yul\":24762:24764   */\n      0x0d\n        /* \"#utility.yul\":24757:24760   */\n      dup4\n        /* \"#utility.yul\":24698:24765   */\n      tag_272\n      jump\t// in\n    tag_547:\n        /* \"#utility.yul\":24691:24765   */\n      swap2\n      pop\n        /* \"#utility.yul\":24774:24867   */\n      tag_548\n        /* \"#utility.yul\":24863:24866   */\n      dup3\n        /* \"#utility.yul\":24774:24867   */\n      tag_297\n      jump\t// in\n    tag_548:\n        /* \"#utility.yul\":24892:24894   */\n      0x20\n        /* \"#utility.yul\":24887:24890   */\n      dup3\n        /* \"#utility.yul\":24883:24895   */\n      add\n        /* \"#utility.yul\":24876:24895   */\n      swap1\n      pop\n        /* \"#utility.yul\":24535:24901   */\n      swap2\n      swap1\n      pop\n      jump\t// out\n        /* \"#utility.yul\":24907:25326   */\n    tag_156:\n        /* \"#utility.yul\":25073:25077   */\n      0x00\n        /* \"#utility.yul\":25111:25113   */\n      0x20\n        /* \"#utility.yul\":25100:25109   */\n      dup3\n        /* \"#utility.yul\":25096:25114   */\n      add\n        /* \"#utility.yul\":25088:25114   */\n      swap1\n      pop\n        /* \"#utility.yul\":25160:25169   */\n      dup2\n        /* \"#utility.yul\":25154:25158   */\n      dup2\n        /* \"#utility.yul\":25150:25170   */\n      sub\n        /* \"#utility.yul\":25146:25147   */\n      0x00\n        /* \"#utility.yul\":25135:25144   */\n      dup4\n        /* \"#utility.yul\":25131:25148   */\n      add\n        /* \"#utility.yul\":25124:25171   */\n      mstore\n        /* \"#utility.yul\":25188:25319   */\n      tag_550\n        /* \"#utility.yul\":25314:25318   */\n      dup2\n        /* \"#utility.yul\":25188:25319   */\n      tag_298\n      jump\t// in\n    tag_550:\n        /* \"#utility.yul\":25180:25319   */\n      swap1\n      pop\n        /* \"#utility.yul\":24907:25326   */\n      swap2\n      swap1\n      pop\n      jump\t// out\n        /* \"#utility.yul\":25332:25510   */\n    tag_299:\n        /* \"#utility.yul\":25472:25502   */\n      0x596f7520646f206e6f74206861766520616e792062616c616e63652e00000000\n        /* \"#utility.yul\":25468:25469   */\n      0x00\n        /* \"#utility.yul\":25460:25466   */\n      dup3\n        /* \"#utility.yul\":25456:25470   */\n      add\n        /* \"#utility.yul\":25449:25503   */\n      mstore\n        /* \"#utility.yul\":25332:25510   */\n      pop\n      jump\t// out\n        /* \"#utility.yul\":25516:25882   */\n    tag_300:\n        /* \"#utility.yul\":25658:25661   */\n      0x00\n        /* \"#utility.yul\":25679:25746   */\n      tag_553\n        /* \"#utility.yul\":25743:25745   */\n      0x1c\n        /* \"#utility.yul\":25738:25741   */\n      dup4\n        /* \"#utility.yul\":25679:25746   */\n      tag_272\n      jump\t// in\n    tag_553:\n        /* \"#utility.yul\":25672:25746   */\n      swap2\n      pop\n        /* \"#utility.yul\":25755:25848   */\n      tag_554\n        /* \"#utility.yul\":25844:25847   */\n      dup3\n        /* \"#utility.yul\":25755:25848   */\n      tag_299\n      jump\t// in\n    tag_554:\n        /* \"#utility.yul\":25873:25875   */\n      0x20\n        /* \"#utility.yul\":25868:25871   */\n      dup3\n        /* \"#utility.yul\":25864:25876   */\n      add\n        /* \"#utility.yul\":25857:25876   */\n      swap1\n      pop\n        /* \"#utility.yul\":25516:25882   */\n      swap2\n      swap1\n      pop\n      jump\t// out\n        /* \"#utility.yul\":25888:26307   */\n    tag_160:\n        /* \"#utility.yul\":26054:26058   */\n      0x00\n        /* \"#utility.yul\":26092:26094   */\n      0x20\n        /* \"#utility.yul\":26081:26090   */\n      dup3\n        /* \"#utility.yul\":26077:26095   */\n      add\n        /* \"#utility.yul\":26069:26095   */\n      swap1\n      pop\n        /* \"#utility.yul\":26141:26150   */\n      dup2\n        /* \"#utility.yul\":26135:26139   */\n      dup2\n        /* \"#utility.yul\":26131:26151   */\n      sub\n        /* \"#utility.yul\":26127:26128   */\n      0x00\n        /* \"#utility.yul\":26116:26125   */\n      dup4\n        /* \"#utility.yul\":26112:26129   */\n      add\n        /* \"#utility.yul\":26105:26152   */\n      mstore\n        /* \"#utility.yul\":26169:26300   */\n      tag_556\n        /* \"#utility.yul\":26295:26299   */\n      dup2\n        /* \"#utility.yul\":26169:26300   */\n      tag_300\n      jump\t// in\n    tag_556:\n        /* \"#utility.yul\":26161:26300   */\n      swap1\n      pop\n        /* \"#utility.yul\":25888:26307   */\n      swap2\n      swap1\n      pop\n      jump\t// out\n        /* \"#utility.yul\":26313:26460   */\n    tag_301:\n        /* \"#utility.yul\":26414:26425   */\n      0x00\n        /* \"#utility.yul\":26451:26454   */\n      dup2\n        /* \"#utility.yul\":26436:26454   */\n      swap1\n      pop\n        /* \"#utility.yul\":26313:26460   */\n      swap3\n      swap2\n      pop\n      pop\n      jump\t// out\n        /* \"#utility.yul\":26466:26580   */\n    tag_302:\n      pop\n      jump\t// out\n        /* \"#utility.yul\":26586:26984   */\n    tag_303:\n        /* \"#utility.yul\":26745:26748   */\n      0x00\n        /* \"#utility.yul\":26766:26849   */\n      tag_560\n        /* \"#utility.yul\":26847:26848   */\n      0x00\n        /* \"#utility.yul\":26842:26845   */\n      dup4\n        /* \"#utility.yul\":26766:26849   */\n      tag_301\n      jump\t// in\n    tag_560:\n        /* \"#utility.yul\":26759:26849   */\n      swap2\n      pop\n        /* \"#utility.yul\":26858:26951   */\n      tag_561\n        /* \"#utility.yul\":26947:26950   */\n      dup3\n        /* \"#utility.yul\":26858:26951   */\n      tag_302\n      jump\t// in\n    tag_561:\n        /* \"#utility.yul\":26976:26977   */\n      0x00\n        /* \"#utility.yul\":26971:26974   */\n      dup3\n        /* \"#utility.yul\":26967:26978   */\n      add\n        /* \"#utility.yul\":26960:26978   */\n      swap1\n      pop\n        /* \"#utility.yul\":26586:26984   */\n      swap2\n      swap1\n      pop\n      jump\t// out\n        /* \"#utility.yul\":26990:27369   */\n    tag_162:\n        /* \"#utility.yul\":27174:27177   */\n      0x00\n        /* \"#utility.yul\":27196:27343   */\n      tag_563\n        /* \"#utility.yul\":27339:27342   */\n      dup3\n        /* \"#utility.yul\":27196:27343   */\n      tag_303\n      jump\t// in\n    tag_563:\n        /* \"#utility.yul\":27189:27343   */\n      swap2\n      pop\n        /* \"#utility.yul\":27360:27363   */\n      dup2\n        /* \"#utility.yul\":27353:27363   */\n      swap1\n      pop\n        /* \"#utility.yul\":26990:27369   */\n      swap2\n      swap1\n      pop\n      jump\t// out\n        /* \"#utility.yul\":27375:27541   */\n    tag_304:\n        /* \"#utility.yul\":27515:27533   */\n      0x5472616e73666572206661696c65642e00000000000000000000000000000000\n        /* \"#utility.yul\":27511:27512   */\n      0x00\n        /* \"#utility.yul\":27503:27509   */\n      dup3\n        /* \"#utility.yul\":27499:27513   */\n      add\n        /* \"#utility.yul\":27492:27534   */\n      mstore\n        /* \"#utility.yul\":27375:27541   */\n      pop\n      jump\t// out\n        /* \"#utility.yul\":27547:27913   */\n    tag_305:\n        /* \"#utility.yul\":27689:27692   */\n      0x00\n        /* \"#utility.yul\":27710:27777   */\n      tag_566\n        /* \"#utility.yul\":27774:27776   */\n      0x10\n        /* \"#utility.yul\":27769:27772   */\n      dup4\n        /* \"#utility.yul\":27710:27777   */\n      tag_272\n      jump\t// in\n    tag_566:\n        /* \"#utility.yul\":27703:27777   */\n      swap2\n      pop\n        /* \"#utility.yul\":27786:27879   */\n      tag_567\n        /* \"#utility.yul\":27875:27878   */\n      dup3\n        /* \"#utility.yul\":27786:27879   */\n      tag_304\n      jump\t// in\n    tag_567:\n        /* \"#utility.yul\":27904:27906   */\n      0x20\n        /* \"#utility.yul\":27899:27902   */\n      dup3\n        /* \"#utility.yul\":27895:27907   */\n      add\n        /* \"#utility.yul\":27888:27907   */\n      swap1\n      pop\n        /* \"#utility.yul\":27547:27913   */\n      swap2\n      swap1\n      pop\n      jump\t// out\n        /* \"#utility.yul\":27919:28338   */\n    tag_168:\n        /* \"#utility.yul\":28085:28089   */\n      0x00\n        /* \"#utility.yul\":28123:28125   */\n      0x20\n        /* \"#utility.yul\":28112:28121   */\n      dup3\n        /* \"#utility.yul\":28108:28126   */\n      add\n        /* \"#utility.yul\":28100:28126   */\n      swap1\n      pop\n        /* \"#utility.yul\":28172:28181   */\n      dup2\n        /* \"#utility.yul\":28166:28170   */\n      dup2\n        /* \"#utility.yul\":28162:28182   */\n      sub\n        /* \"#utility.yul\":28158:28159   */\n      0x00\n        /* \"#utility.yul\":28147:28156   */\n      dup4\n        /* \"#utility.yul\":28143:28160   */\n      add\n        /* \"#utility.yul\":28136:28183   */\n      mstore\n        /* \"#utility.yul\":28200:28331   */\n      tag_569\n        /* \"#utility.yul\":28326:28330   */\n      dup2\n        /* \"#utility.yul\":28200:28331   */\n      tag_305\n      jump\t// in\n    tag_569:\n        /* \"#utility.yul\":28192:28331   */\n      swap1\n      pop\n        /* \"#utility.yul\":27919:28338   */\n      swap2\n      swap1\n      pop\n      jump\t// out\n        /* \"#utility.yul\":28344:28507   */\n    tag_306:\n        /* \"#utility.yul\":28484:28499   */\n      0x496e76616c696420696e64657800000000000000000000000000000000000000\n        /* \"#utility.yul\":28480:28481   */\n      0x00\n        /* \"#utility.yul\":28472:28478   */\n      dup3\n        /* \"#utility.yul\":28468:28482   */\n      add\n        /* \"#utility.yul\":28461:28500   */\n      mstore\n        /* \"#utility.yul\":28344:28507   */\n      pop\n      jump\t// out\n        /* \"#utility.yul\":28513:28879   */\n    tag_307:\n        /* \"#utility.yul\":28655:28658   */\n      0x00\n        /* \"#utility.yul\":28676:28743   */\n      tag_572\n        /* \"#utility.yul\":28740:28742   */\n      0x0d\n        /* \"#utility.yul\":28735:28738   */\n      dup4\n        /* \"#utility.yul\":28676:28743   */\n      tag_272\n      jump\t// in\n    tag_572:\n        /* \"#utility.yul\":28669:28743   */\n      swap2\n      pop\n        /* \"#utility.yul\":28752:28845   */\n      tag_573\n        /* \"#utility.yul\":28841:28844   */\n      dup3\n        /* \"#utility.yul\":28752:28845   */\n      tag_306\n      jump\t// in\n    tag_573:\n        /* \"#utility.yul\":28870:28872   */\n      0x20\n        /* \"#utility.yul\":28865:28868   */\n      dup3\n        /* \"#utility.yul\":28861:28873   */\n      add\n        /* \"#utility.yul\":28854:28873   */\n      swap1\n      pop\n        /* \"#utility.yul\":28513:28879   */\n      swap2\n      swap1\n      pop\n      jump\t// out\n        /* \"#utility.yul\":28885:29304   */\n    tag_173:\n        /* \"#utility.yul\":29051:29055   */\n      0x00\n        /* \"#utility.yul\":29089:29091   */\n      0x20\n        /* \"#utility.yul\":29078:29087   */\n      dup3\n        /* \"#utility.yul\":29074:29092   */\n      add\n        /* \"#utility.yul\":29066:29092   */\n      swap1\n      pop\n        /* \"#utility.yul\":29138:29147   */\n      dup2\n        /* \"#utility.yul\":29132:29136   */\n      dup2\n        /* \"#utility.yul\":29128:29148   */\n      sub\n        /* \"#utility.yul\":29124:29125   */\n      0x00\n        /* \"#utility.yul\":29113:29122   */\n      dup4\n        /* \"#utility.yul\":29109:29126   */\n      add\n        /* \"#utility.yul\":29102:29149   */\n      mstore\n        /* \"#utility.yul\":29166:29297   */\n      tag_575\n        /* \"#utility.yul\":29292:29296   */\n      dup2\n        /* \"#utility.yul\":29166:29297   */\n      tag_307\n      jump\t// in\n    tag_575:\n        /* \"#utility.yul\":29158:29297   */\n      swap1\n      pop\n        /* \"#utility.yul\":28885:29304   */\n      swap2\n      swap1\n      pop\n      jump\t// out\n        /* \"#utility.yul\":29310:29477   */\n    tag_308:\n        /* \"#utility.yul\":29450:29469   */\n      0x4e6f7420796f7572207075726368617365000000000000000000000000000000\n        /* \"#utility.yul\":29446:29447   */\n      0x00\n        /* \"#utility.yul\":29438:29444   */\n      dup3\n        /* \"#utility.yul\":29434:29448   */\n      add\n        /* \"#utility.yul\":29427:29470   */\n      mstore\n        /* \"#utility.yul\":29310:29477   */\n      pop\n      jump\t// out\n        /* \"#utility.yul\":29483:29849   */\n    tag_309:\n        /* \"#utility.yul\":29625:29628   */\n      0x00\n        /* \"#utility.yul\":29646:29713   */\n      tag_578\n        /* \"#utility.yul\":29710:29712   */\n      0x11\n        /* \"#utility.yul\":29705:29708   */\n      dup4\n        /* \"#utility.yul\":29646:29713   */\n      tag_272\n      jump\t// in\n    tag_578:\n        /* \"#utility.yul\":29639:29713   */\n      swap2\n      pop\n        /* \"#utility.yul\":29722:29815   */\n      tag_579\n        /* \"#utility.yul\":29811:29814   */\n      dup3\n        /* \"#utility.yul\":29722:29815   */\n      tag_308\n      jump\t// in\n    tag_579:\n        /* \"#utility.yul\":29840:29842   */\n      0x20\n        /* \"#utility.yul\":29835:29838   */\n      dup3\n        /* \"#utility.yul\":29831:29843   */\n      add\n        /* \"#utility.yul\":29824:29843   */\n      swap1\n      pop\n        /* \"#utility.yul\":29483:29849   */\n      swap2\n      swap1\n      pop\n      jump\t// out\n        /* \"#utility.yul\":29855:30274   */\n    tag_179:\n        /* \"#utility.yul\":30021:30025   */\n      0x00\n        /* \"#utility.yul\":30059:30061   */\n      0x20\n        /* \"#utility.yul\":30048:30057   */\n      dup3\n        /* \"#utility.yul\":30044:30062   */\n      add\n        /* \"#utility.yul\":30036:30062   */\n      swap1\n      pop\n        /* \"#utility.yul\":30108:30117   */\n      dup2\n        /* \"#utility.yul\":30102:30106   */\n      dup2\n        /* \"#utility.yul\":30098:30118   */\n      sub\n        /* \"#utility.yul\":30094:30095   */\n      0x00\n        /* \"#utility.yul\":30083:30092   */\n      dup4\n        /* \"#utility.yul\":30079:30096   */\n      add\n        /* \"#utility.yul\":30072:30119   */\n      mstore\n        /* \"#utility.yul\":30136:30267   */\n      tag_581\n        /* \"#utility.yul\":30262:30266   */\n      dup2\n        /* \"#utility.yul\":30136:30267   */\n      tag_309\n      jump\t// in\n    tag_581:\n        /* \"#utility.yul\":30128:30267   */\n      swap1\n      pop\n        /* \"#utility.yul\":29855:30274   */\n      swap2\n      swap1\n      pop\n      jump\t// out\n        /* \"#utility.yul\":30280:30455   */\n    tag_310:\n        /* \"#utility.yul\":30420:30447   */\n      0x507572636861736520616c726561647920636f6e73756d656400000000000000\n        /* \"#utility.yul\":30416:30417   */\n      0x00\n        /* \"#utility.yul\":30408:30414   */\n      dup3\n        /* \"#utility.yul\":30404:30418   */\n      add\n        /* \"#utility.yul\":30397:30448   */\n      mstore\n        /* \"#utility.yul\":30280:30455   */\n      pop\n      jump\t// out\n        /* \"#utility.yul\":30461:30827   */\n    tag_311:\n        /* \"#utility.yul\":30603:30606   */\n      0x00\n        /* \"#utility.yul\":30624:30691   */\n      tag_584\n        /* \"#utility.yul\":30688:30690   */\n      0x19\n        /* \"#utility.yul\":30683:30686   */\n      dup4\n        /* \"#utility.yul\":30624:30691   */\n      tag_272\n      jump\t// in\n    tag_584:\n        /* \"#utility.yul\":30617:30691   */\n      swap2\n      pop\n        /* \"#utility.yul\":30700:30793   */\n      tag_585\n        /* \"#utility.yul\":30789:30792   */\n      dup3\n        /* \"#utility.yul\":30700:30793   */\n      tag_310\n      jump\t// in\n    tag_585:\n        /* \"#utility.yul\":30818:30820   */\n      0x20\n        /* \"#utility.yul\":30813:30816   */\n      dup3\n        /* \"#utility.yul\":30809:30821   */\n      add\n        /* \"#utility.yul\":30802:30821   */\n      swap1\n      pop\n        /* \"#utility.yul\":30461:30827   */\n      swap2\n      swap1\n      pop\n      jump\t// out\n        /* \"#utility.yul\":30833:31252   */\n    tag_189:\n        /* \"#utility.yul\":30999:31003   */\n      0x00\n        /* \"#utility.yul\":31037:31039   */\n      0x20\n        /* \"#utility.yul\":31026:31035   */\n      dup3\n        /* \"#utility.yul\":31022:31040   */\n      add\n        /* \"#utility.yul\":31014:31040   */\n      swap1\n      pop\n        /* \"#utility.yul\":31086:31095   */\n      dup2\n        /* \"#utility.yul\":31080:31084   */\n      dup2\n        /* \"#utility.yul\":31076:31096   */\n      sub\n        /* \"#utility.yul\":31072:31073   */\n      0x00\n        /* \"#utility.yul\":31061:31070   */\n      dup4\n        /* \"#utility.yul\":31057:31074   */\n      add\n        /* \"#utility.yul\":31050:31097   */\n      mstore\n        /* \"#utility.yul\":31114:31245   */\n      tag_587\n        /* \"#utility.yul\":31240:31244   */\n      dup2\n        /* \"#utility.yul\":31114:31245   */\n      tag_311\n      jump\t// in\n    tag_587:\n        /* \"#utility.yul\":31106:31245   */\n      swap1\n      pop\n        /* \"#utility.yul\":30833:31252   */\n      swap2\n      swap1\n      pop\n      jump\t// out\n        /* \"#utility.yul\":31258:31406   */\n    tag_312:\n        /* \"#utility.yul\":31360:31371   */\n      0x00\n        /* \"#utility.yul\":31397:31400   */\n      dup2\n        /* \"#utility.yul\":31382:31400   */\n      swap1\n      pop\n        /* \"#utility.yul\":31258:31406   */\n      swap3\n      swap2\n      pop\n      pop\n      jump\t// out\n        /* \"#utility.yul\":31412:31802   */\n    tag_313:\n        /* \"#utility.yul\":31518:31521   */\n      0x00\n        /* \"#utility.yul\":31546:31585   */\n      tag_590\n        /* \"#utility.yul\":31579:31584   */\n      dup3\n        /* \"#utility.yul\":31546:31585   */\n      tag_233\n      jump\t// in\n    tag_590:\n        /* \"#utility.yul\":31601:31690   */\n      tag_591\n        /* \"#utility.yul\":31683:31689   */\n      dup2\n        /* \"#utility.yul\":31678:31681   */\n      dup6\n        /* \"#utility.yul\":31601:31690   */\n      tag_312\n      jump\t// in\n    tag_591:\n        /* \"#utility.yul\":31594:31690   */\n      swap4\n      pop\n        /* \"#utility.yul\":31699:31764   */\n      tag_592\n        /* \"#utility.yul\":31757:31763   */\n      dup2\n        /* \"#utility.yul\":31752:31755   */\n      dup6\n        /* \"#utility.yul\":31745:31749   */\n      0x20\n        /* \"#utility.yul\":31738:31743   */\n      dup7\n        /* \"#utility.yul\":31734:31750   */\n      add\n        /* \"#utility.yul\":31699:31764   */\n      tag_235\n      jump\t// in\n    tag_592:\n        /* \"#utility.yul\":31789:31795   */\n      dup1\n        /* \"#utility.yul\":31784:31787   */\n      dup5\n        /* \"#utility.yul\":31780:31796   */\n      add\n        /* \"#utility.yul\":31773:31796   */\n      swap2\n      pop\n        /* \"#utility.yul\":31522:31802   */\n      pop\n        /* \"#utility.yul\":31412:31802   */\n      swap3\n      swap2\n      pop\n      pop\n      jump\t// out\n        /* \"#utility.yul\":31808:32083   */\n    tag_203:\n        /* \"#utility.yul\":31940:31943   */\n      0x00\n        /* \"#utility.yul\":31962:32057   */\n      tag_594\n        /* \"#utility.yul\":32053:32056   */\n      dup3\n        /* \"#utility.yul\":32044:32050   */\n      dup5\n        /* \"#utility.yul\":31962:32057   */\n      tag_313\n      jump\t// in\n    tag_594:\n        /* \"#utility.yul\":31955:32057   */\n      swap2\n      pop\n        /* \"#utility.yul\":32074:32077   */\n      dup2\n        /* \"#utility.yul\":32067:32077   */\n      swap1\n      pop\n        /* \"#utility.yul\":31808:32083   */\n      swap3\n      swap2\n      pop\n      pop\n      jump\t// out\n        /* \"#utility.yul\":32113:32987   */\n    tag_314:\n        /* \"#utility.yul\":32216:32219   */\n      0x00\n        /* \"#utility.yul\":32253:32258   */\n      dup2\n        /* \"#utility.yul\":32247:32259   */\n      sload\n        /* \"#utility.yul\":32282:32318   */\n      tag_596\n        /* \"#utility.yul\":32308:32317   */\n      dup2\n        /* \"#utility.yul\":32282:32318   */\n      tag_67\n      jump\t// in\n    tag_596:\n        /* \"#utility.yul\":32334:32423   */\n      tag_597\n        /* \"#utility.yul\":32416:32422   */\n      dup2\n        /* \"#utility.yul\":32411:32414   */\n      dup7\n        /* \"#utility.yul\":32334:32423   */\n      tag_312\n      jump\t// in\n    tag_597:\n        /* \"#utility.yul\":32327:32423   */\n      swap5\n      pop\n        /* \"#utility.yul\":32454:32455   */\n      0x01\n        /* \"#utility.yul\":32443:32452   */\n      dup3\n        /* \"#utility.yul\":32439:32456   */\n      and\n        /* \"#utility.yul\":32470:32471   */\n      0x00\n        /* \"#utility.yul\":32465:32631   */\n      dup2\n      eq\n      tag_599\n      jumpi\n        /* \"#utility.yul\":32645:32646   */\n      0x01\n        /* \"#utility.yul\":32640:32981   */\n      dup2\n      eq\n      tag_600\n      jumpi\n        /* \"#utility.yul\":32432:32981   */\n      jump(tag_598)\n        /* \"#utility.yul\":32465:32631   */\n    tag_599:\n        /* \"#utility.yul\":32549:32553   */\n      0xff\n        /* \"#utility.yul\":32545:32554   */\n      not\n        /* \"#utility.yul\":32534:32543   */\n      dup4\n        /* \"#utility.yul\":32530:32555   */\n      and\n        /* \"#utility.yul\":32525:32528   */\n      dup7\n        /* \"#utility.yul\":32518:32556   */\n      mstore\n        /* \"#utility.yul\":32611:32617   */\n      dup2\n        /* \"#utility.yul\":32604:32618   */\n      iszero\n        /* \"#utility.yul\":32597:32619   */\n      iszero\n        /* \"#utility.yul\":32589:32595   */\n      dup3\n        /* \"#utility.yul\":32585:32620   */\n      mul\n        /* \"#utility.yul\":32580:32583   */\n      dup7\n        /* \"#utility.yul\":32576:32621   */\n      add\n        /* \"#utility.yul\":32569:32621   */\n      swap4\n      pop\n        /* \"#utility.yul\":32465:32631   */\n      jump(tag_598)\n        /* \"#utility.yul\":32640:32981   */\n    tag_600:\n        /* \"#utility.yul\":32707:32745   */\n      tag_601\n        /* \"#utility.yul\":32739:32744   */\n      dup6\n        /* \"#utility.yul\":32707:32745   */\n      tag_279\n      jump\t// in\n    tag_601:\n        /* \"#utility.yul\":32767:32768   */\n      0x00\n        /* \"#utility.yul\":32781:32935   */\n    tag_602:\n        /* \"#utility.yul\":32795:32801   */\n      dup4\n        /* \"#utility.yul\":32792:32793   */\n      dup2\n        /* \"#utility.yul\":32789:32802   */\n      lt\n        /* \"#utility.yul\":32781:32935   */\n      iszero\n      tag_604\n      jumpi\n        /* \"#utility.yul\":32869:32876   */\n      dup2\n        /* \"#utility.yul\":32863:32877   */\n      sload\n        /* \"#utility.yul\":32859:32860   */\n      dup2\n        /* \"#utility.yul\":32854:32857   */\n      dup10\n        /* \"#utility.yul\":32850:32861   */\n      add\n        /* \"#utility.yul\":32843:32878   */\n      mstore\n        /* \"#utility.yul\":32919:32920   */\n      0x01\n        /* \"#utility.yul\":32910:32917   */\n      dup3\n        /* \"#utility.yul\":32906:32921   */\n      add\n        /* \"#utility.yul\":32895:32921   */\n      swap2\n      pop\n        /* \"#utility.yul\":32817:32821   */\n      0x20\n        /* \"#utility.yul\":32814:32815   */\n      dup2\n        /* \"#utility.yul\":32810:32822   */\n      add\n        /* \"#utility.yul\":32805:32822   */\n      swap1\n      pop\n        /* \"#utility.yul\":32781:32935   */\n      jump(tag_602)\n    tag_604:\n        /* \"#utility.yul\":32964:32970   */\n      dup4\n        /* \"#utility.yul\":32959:32962   */\n      dup9\n        /* \"#utility.yul\":32955:32971   */\n      add\n        /* \"#utility.yul\":32948:32971   */\n      swap6\n      pop\n        /* \"#utility.yul\":32647:32981   */\n      pop\n      pop\n        /* \"#utility.yul\":32432:32981   */\n    tag_598:\n      pop\n        /* \"#utility.yul\":32220:32987   */\n      pop\n      pop\n        /* \"#utility.yul\":32113:32987   */\n      swap3\n      swap2\n      pop\n      pop\n      jump\t// out\n        /* \"#utility.yul\":32993:33262   */\n    tag_208:\n        /* \"#utility.yul\":33122:33125   */\n      0x00\n        /* \"#utility.yul\":33144:33236   */\n      tag_606\n        /* \"#utility.yul\":33232:33235   */\n      dup3\n        /* \"#utility.yul\":33223:33229   */\n      dup5\n        /* \"#utility.yul\":33144:33236   */\n      tag_314\n      jump\t// in\n    tag_606:\n        /* \"#utility.yul\":33137:33236   */\n      swap2\n      pop\n        /* \"#utility.yul\":33253:33256   */\n      dup2\n        /* \"#utility.yul\":33246:33256   */\n      swap1\n      pop\n        /* \"#utility.yul\":32993:33262   */\n      swap3\n      swap2\n      pop\n      pop\n      jump\t// out\n        /* \"#utility.yul\":33268:33435   */\n    tag_315:\n        /* \"#utility.yul\":33408:33427   */\n      0x50726f64756374206e6f7420666f756e64000000000000000000000000000000\n        /* \"#utility.yul\":33404:33405   */\n      0x00\n        /* \"#utility.yul\":33396:33402   */\n      dup3\n        /* \"#utility.yul\":33392:33406   */\n      add\n        /* \"#utility.yul\":33385:33428   */\n      mstore\n        /* \"#utility.yul\":33268:33435   */\n      pop\n      jump\t// out\n        /* \"#utility.yul\":33441:33807   */\n    tag_316:\n        /* \"#utility.yul\":33583:33586   */\n      0x00\n        /* \"#utility.yul\":33604:33671   */\n      tag_609\n        /* \"#utility.yul\":33668:33670   */\n      0x11\n        /* \"#utility.yul\":33663:33666   */\n      dup4\n        /* \"#utility.yul\":33604:33671   */\n      tag_272\n      jump\t// in\n    tag_609:\n        /* \"#utility.yul\":33597:33671   */\n      swap2\n      pop\n        /* \"#utility.yul\":33680:33773   */\n      tag_610\n        /* \"#utility.yul\":33769:33772   */\n      dup3\n        /* \"#utility.yul\":33680:33773   */\n      tag_315\n      jump\t// in\n    tag_610:\n        /* \"#utility.yul\":33798:33800   */\n      0x20\n        /* \"#utility.yul\":33793:33796   */\n      dup3\n        /* \"#utility.yul\":33789:33801   */\n      add\n        /* \"#utility.yul\":33782:33801   */\n      swap1\n      pop\n        /* \"#utility.yul\":33441:33807   */\n      swap2\n      swap1\n      pop\n      jump\t// out\n        /* \"#utility.yul\":33813:34232   */\n    tag_229:\n        /* \"#utility.yul\":33979:33983   */\n      0x00\n        /* \"#utility.yul\":34017:34019   */\n      0x20\n        /* \"#utility.yul\":34006:34015   */\n      dup3\n        /* \"#utility.yul\":34002:34020   */\n      add\n        /* \"#utility.yul\":33994:34020   */\n      swap1\n      pop\n        /* \"#utility.yul\":34066:34075   */\n      dup2\n        /* \"#utility.yul\":34060:34064   */\n      dup2\n        /* \"#utility.yul\":34056:34076   */\n      sub\n        /* \"#utility.yul\":34052:34053   */\n      0x00\n        /* \"#utility.yul\":34041:34050   */\n      dup4\n        /* \"#utility.yul\":34037:34054   */\n      add\n        /* \"#utility.yul\":34030:34077   */\n      mstore\n        /* \"#utility.yul\":34094:34225   */\n      tag_612\n        /* \"#utility.yul\":34220:34224   */\n      dup2\n        /* \"#utility.yul\":34094:34225   */\n      tag_316\n      jump\t// in\n    tag_612:\n        /* \"#utility.yul\":34086:34225   */\n      swap1\n      pop\n        /* \"#utility.yul\":33813:34232   */\n      swap2\n      swap1\n      pop\n      jump\t// out\n\n    auxdata: 0xa2646970667358221220709e0b385cc668793ce01ce0c22f5bd1417910cbe1ffe6647c49ff9edf42665a64736f6c634300081a0033\n}\n",
				"bytecode": {
					"linkReferences": {},
					"object": "60a060405234801561000f575f80fd5b503373ffffffffffffffffffffffffffffffffffffffff1660808173ffffffffffffffffffffffffffffffffffffffff168152505061005261005760201b60201c565b61152f565b6101186040518060400160405280600281526020017f41310000000000000000000000000000000000000000000000000000000000008152506305f5e100600f6100a191906110c4565b6040518060400160405280600481526020017f4c617973000000000000000000000000000000000000000000000000000000008152506040518060400160405280600881526020017f6c6179732e706e67000000000000000000000000000000000000000000000000815250610f6060201b60201c565b6101d86040518060400160405280600281526020017f41320000000000000000000000000000000000000000000000000000000000008152506298968060af61016191906110c4565b6040518060400160405280600981526020017f436f636120436f6c6100000000000000000000000000000000000000000000008152506040518060400160405280600d81526020017f636f63612d636f6c612e706e6700000000000000000000000000000000000000815250610f6060201b60201c565b6102996040518060400160405280600281526020017f41330000000000000000000000000000000000000000000000000000000000008152506305f5e100600f61022291906110c4565b6040518060400160405280600881526020017f5072696e676c65730000000000000000000000000000000000000000000000008152506040518060400160405280600c81526020017f7072696e676c65732e706e670000000000000000000000000000000000000000815250610f6060201b60201c565b6103596040518060400160405280600281526020017f41340000000000000000000000000000000000000000000000000000000000008152506298968060af6102e291906110c4565b6040518060400160405280600581526020017f57617465720000000000000000000000000000000000000000000000000000008152506040518060400160405280600981526020017f77617465722e706e670000000000000000000000000000000000000000000000815250610f6060201b60201c565b61041a6040518060400160405280600281526020017f41350000000000000000000000000000000000000000000000000000000000008152506305f5e100600f6103a391906110c4565b6040518060400160405280600c81526020017f456e65726779204472696e6b00000000000000000000000000000000000000008152506040518060400160405280600c81526020017f7265642d62756c6c2e706e670000000000000000000000000000000000000000815250610f6060201b60201c565b6104db6040518060400160405280600281526020017f42310000000000000000000000000000000000000000000000000000000000008152506305f5e100601461046491906110c4565b6040518060400160405280600881526020017f53616e64776963680000000000000000000000000000000000000000000000008152506040518060400160405280600c81526020017f73616e64776963682e706e670000000000000000000000000000000000000000815250610f6060201b60201c565b61059b6040518060400160405280600281526020017f42320000000000000000000000000000000000000000000000000000000000008152506298968060af61052491906110c4565b6040518060400160405280600481526020017f4f72656f000000000000000000000000000000000000000000000000000000008152506040518060400160405280600881526020017f6f72656f2e706e67000000000000000000000000000000000000000000000000815250610f6060201b60201c565b61065c6040518060400160405280600281526020017f42330000000000000000000000000000000000000000000000000000000000008152506305f5e100600f6105e591906110c4565b6040518060400160405280600681526020017f53707269746500000000000000000000000000000000000000000000000000008152506040518060400160405280600a81526020017f7370726974652e706e6700000000000000000000000000000000000000000000815250610f6060201b60201c565b61071c6040518060400160405280600281526020017f42340000000000000000000000000000000000000000000000000000000000008152506298968060af6106a591906110c4565b6040518060400160405280600b81526020017f4772616e6f6c61204261720000000000000000000000000000000000000000008152506040518060400160405280600f81526020017f6772616e6f6c612d6261722e706e670000000000000000000000000000000000815250610f6060201b60201c565b6107dc6040518060400160405280600281526020017f42350000000000000000000000000000000000000000000000000000000000008152506298968060af61076591906110c4565b6040518060400160405280600781526020017f446f7269746f73000000000000000000000000000000000000000000000000008152506040518060400160405280600b81526020017f646f7269746f732e706e67000000000000000000000000000000000000000000815250610f6060201b60201c565b61089d6040518060400160405280600281526020017f43310000000000000000000000000000000000000000000000000000000000008152506305f5e100600f61082691906110c4565b6040518060400160405280600b81526020017f536e69636b6572204261720000000000000000000000000000000000000000008152506040518060400160405280600c81526020017f736e69636b6572732e706e670000000000000000000000000000000000000000815250610f6060201b60201c565b61095e6040518060400160405280600281526020017f43320000000000000000000000000000000000000000000000000000000000008152506305f5e100600f6108e791906110c4565b6040518060400160405280600481526020017f4d264d73000000000000000000000000000000000000000000000000000000008152506040518060400160405280600881526020017f6d266d732e706e67000000000000000000000000000000000000000000000000815250610f6060201b60201c565b610a1e6040518060400160405280600281526020017f433300000000000000000000000000000000000000000000000000000000000081525062989680607d6109a791906110c4565b6040518060400160405280600e81526020017f427562626c65205461702047756d0000000000000000000000000000000000008152506040518060400160405280600e81526020017f627562626c652d7461702e706e67000000000000000000000000000000000000815250610f6060201b60201c565b610ade6040518060400160405280600281526020017f43340000000000000000000000000000000000000000000000000000000000008152506298968060af610a6791906110c4565b6040518060400160405280600d81526020017f4672756974204e757420426172000000000000000000000000000000000000008152506040518060400160405280600d81526020017f66727569742d6e75742e706e6700000000000000000000000000000000000000815250610f6060201b60201c565b610b9e6040518060400160405280600281526020017f43350000000000000000000000000000000000000000000000000000000000008152506298968060af610b2791906110c4565b6040518060400160405280600a81526020017f42656566204a65726b79000000000000000000000000000000000000000000008152506040518060400160405280600e81526020017f626565662d6a65726b792e706e67000000000000000000000000000000000000815250610f6060201b60201c565b610c5e6040518060400160405280600281526020017f443100000000000000000000000000000000000000000000000000000000000081525062989680607d610be791906110c4565b6040518060400160405280600e81526020017f4b69744b617420426973637569740000000000000000000000000000000000008152506040518060400160405280600a81526020017f6b69746b61742e706e6700000000000000000000000000000000000000000000815250610f6060201b60201c565b610d1e6040518060400160405280600281526020017f443200000000000000000000000000000000000000000000000000000000000081525062989680607d610ca791906110c4565b6040518060400160405280600881526020017f506f7020436f726e0000000000000000000000000000000000000000000000008152506040518060400160405280600b81526020017f706f70636f726e2e706e67000000000000000000000000000000000000000000815250610f6060201b60201c565b610dde6040518060400160405280600281526020017f4433000000000000000000000000000000000000000000000000000000000000815250629896806096610d6791906110c4565b6040518060400160405280600881526020017f54776978204261720000000000000000000000000000000000000000000000008152506040518060400160405280600881526020017f747769782e706e67000000000000000000000000000000000000000000000000815250610f6060201b60201c565b610e9e6040518060400160405280600281526020017f443400000000000000000000000000000000000000000000000000000000000081525062989680607d610e2791906110c4565b6040518060400160405280600581526020017f446f6e75740000000000000000000000000000000000000000000000000000008152506040518060400160405280600981526020017f646f6e75742e706e670000000000000000000000000000000000000000000000815250610f6060201b60201c565b610f5e6040518060400160405280600281526020017f443500000000000000000000000000000000000000000000000000000000000081525062989680607d610ee791906110c4565b6040518060400160405280600981526020017f526564204170706c6500000000000000000000000000000000000000000000008152506040518060400160405280600981526020017f6170706c652e706e670000000000000000000000000000000000000000000000815250610f6060201b60201c565b565b5f610f708261104b60201b60201c565b90506001604051806080016040528087815260200186815260200185815260200183815250908060018154018082558091505060019003905f5260205f2090600402015f909190919091505f820151815f019081610fce9190611336565b50602082015181600101556040820151816002019081610fee9190611336565b5060608201518160030190816110049190611336565b5050507f8ca0e4a383b33c2f01484c7ceb45c2555c4997b82d3aa641e9807527f56237fc8584868460405161103c949392919061147a565b60405180910390a15050505050565b60606040518060600160405280602f815260200161385a602f91398260405160200161107892919061150c565b6040516020818303038152906040529050919050565b5f819050919050565b7f4e487b71000000000000000000000000000000000000000000000000000000005f52601160045260245ffd5b5f6110ce8261108e565b91506110d98361108e565b92508282026110e78161108e565b915082820484148315176110fe576110fd611097565b5b5092915050565b5f81519050919050565b7f4e487b71000000000000000000000000000000000000000000000000000000005f52604160045260245ffd5b7f4e487b71000000000000000000000000000000000000000000000000000000005f52602260045260245ffd5b5f600282049050600182168061118057607f821691505b6020821081036111935761119261113c565b5b50919050565b5f819050815f5260205f209050919050565b5f6020601f8301049050919050565b5f82821b905092915050565b5f600883026111f57fffffffffffffffffffffffffffffffffffffffffffffffffffffffffffffffff826111ba565b6111ff86836111ba565b95508019841693508086168417925050509392505050565b5f819050919050565b5f61123a6112356112308461108e565b611217565b61108e565b9050919050565b5f819050919050565b61125383611220565b61126761125f82611241565b8484546111c6565b825550505050565b5f90565b61127b61126f565b61128681848461124a565b505050565b5b818110156112a95761129e5f82611273565b60018101905061128c565b5050565b601f8211156112ee576112bf81611199565b6112c8846111ab565b810160208510156112d7578190505b6112eb6112e3856111ab565b83018261128b565b50505b505050565b5f82821c905092915050565b5f61130e5f19846008026112f3565b1980831691505092915050565b5f61132683836112ff565b9150826002028217905092915050565b61133f82611105565b67ffffffffffffffff8111156113585761135761110f565b5b6113628254611169565b61136d8282856112ad565b5f60209050601f83116001811461139e575f841561138c578287015190505b611396858261131b565b8655506113fd565b601f1984166113ac86611199565b5f5b828110156113d3578489015182556001820191506020850194506020810190506113ae565b868310156113f057848901516113ec601f8916826112ff565b8355505b6001600288020188555050505b505050505050565b5f82825260208201905092915050565b8281835e5f83830152505050565b5f601f19601f8301169050919050565b5f61143d82611105565b6114478185611405565b9350611457818560208601611415565b61146081611423565b840191505092915050565b6114748161108e565b82525050565b5f6080820190508181035f8301526114928187611433565b905081810360208301526114a68186611433565b90506114b5604083018561146b565b81810360608301526114c78184611433565b905095945050505050565b5f81905092915050565b5f6114e682611105565b6114f081856114d2565b9350611500818560208601611415565b80840191505092915050565b5f61151782856114dc565b915061152382846114dc565b91508190509392505050565b60805161230c61154e5f395f8181610a6d0152610d8e015261230c5ff3fe60806040526004361061007e575f3560e01c80633ccfd60b1161004d5780633ccfd60b1461014f5780638da5cb5b14610165578063a26759cb1461018f578063b04f3225146101995761008d565b806302ee3a52146100975780631107bc98146100c157806312065fe0146100fd57806319f92926146101275761008d565b3661008d5761008b6101c1565b005b6100956101c1565b005b3480156100a2575f80fd5b506100ab6102a6565b6040516100b891906114a8565b60405180910390f35b3480156100cc575f80fd5b506100e760048036038101906100e29190611533565b6104bb565b6040516100f491906116c0565b60405180910390f35b348015610108575f80fd5b506101116107e8565b60405161011e91906116ef565b60405180910390f35b348015610132575f80fd5b5061014d60048036038101906101489190611834565b61082c565b005b34801561015a575f80fd5b50610163610a6b565b005b348015610170575f80fd5b50610179610d8c565b604051610186919061188a565b60405180910390f35b6101976101c1565b005b3480156101a4575f80fd5b506101bf60048036038101906101ba91906118cd565b610db0565b005b5f3411610203576040517f08c379a00000000000000000000000000000000000000000000000000000000081526004016101fa90611952565b60405180910390fd5b3460025f3373ffffffffffffffffffffffffffffffffffffffff1673ffffffffffffffffffffffffffffffffffffffff1681526020019081526020015f205f82825461024f919061199d565b925050819055503373ffffffffffffffffffffffffffffffffffffffff167f8fe10ae416f22f5e5220b0018a6c1d4ff534d6aa3a471f2a20cb7747fe63e5b93460405161029c91906116ef565b60405180910390a2565b60606001805480602002602001604051908101604052809291908181526020015f905b828210156104b2578382905f5260205f2090600402016040518060800160405290815f820180546102f9906119fd565b80601f0160208091040260200160405190810160405280929190818152602001828054610325906119fd565b80156103705780601f1061034757610100808354040283529160200191610370565b820191905f5260205f20905b81548152906001019060200180831161035357829003601f168201915b5050505050815260200160018201548152602001600282018054610393906119fd565b80601f01602080910402602001604051908101604052809291908181526020018280546103bf906119fd565b801561040a5780601f106103e15761010080835404028352916020019161040a565b820191905f5260205f20905b8154815290600101906020018083116103ed57829003601f168201915b50505050508152602001600382018054610423906119fd565b80601f016020809104026020016040519081016040528092919081815260200182805461044f906119fd565b801561049a5780601f106104715761010080835404028352916020019161049a565b820191905f5260205f20905b81548152906001019060200180831161047d57829003601f168201915b505050505081525050815260200190600101906102c9565b50505050905090565b60605f805b60038054905081101561055d578373ffffffffffffffffffffffffffffffffffffffff16600382815481106104f8576104f7611a2d565b5b905f5260205f2090600402015f015f9054906101000a900473ffffffffffffffffffffffffffffffffffffffff1673ffffffffffffffffffffffffffffffffffffffff160361055057818061054c90611a5a565b9250505b80806001019150506104c0565b505f8167ffffffffffffffff81111561057957610578611710565b5b6040519080825280602002602001820160405280156105b257816020015b61059f61129c565b8152602001906001900390816105975790505b5090505f805b6003805490508110156107dc578573ffffffffffffffffffffffffffffffffffffffff16600382815481106105f0576105ef611a2d565b5b905f5260205f2090600402015f015f9054906101000a900473ffffffffffffffffffffffffffffffffffffffff1673ffffffffffffffffffffffffffffffffffffffff16036107cf575f6106ec6003838154811061065157610650611a2d565b5b905f5260205f209060040201600101805461066b906119fd565b80601f0160208091040260200160405190810160405280929190818152602001828054610697906119fd565b80156106e25780601f106106b9576101008083540402835291602001916106e2565b820191905f5260205f20905b8154815290600101906020018083116106c557829003601f168201915b5050505050610fd7565b90506040518060c001604052808381526020018260400151815260200182606001518152602001826020015181526020016003848154811061073157610730611a2d565b5b905f5260205f20906004020160020154815260200160018081111561075957610758611aa1565b5b6003858154811061076d5761076c611a2d565b5b905f5260205f2090600402016003015f9054906101000a900460ff16600181111561079b5761079a611aa1565b5b1415158152508484815181106107b4576107b3611a2d565b5b602002602001018190525082806107ca90611a5a565b935050505b80806001019150506105b8565b50819350505050919050565b5f60025f3373ffffffffffffffffffffffffffffffffffffffff1673ffffffffffffffffffffffffffffffffffffffff1681526020019081526020015f2054905090565b5f61083682610fd7565b6020015190508060025f3373ffffffffffffffffffffffffffffffffffffffff1673ffffffffffffffffffffffffffffffffffffffff1681526020019081526020015f205410156108bc576040517f08c379a00000000000000000000000000000000000000000000000000000000081526004016108b390611b18565b60405180910390fd5b8060025f3373ffffffffffffffffffffffffffffffffffffffff1673ffffffffffffffffffffffffffffffffffffffff1681526020019081526020015f205f8282546109089190611b36565b92505081905550600360405180608001604052803373ffffffffffffffffffffffffffffffffffffffff1681526020018481526020014281526020015f600181111561095757610956611aa1565b5b815250908060018154018082558091505060019003905f5260205f2090600402015f909190919091505f820151815f015f6101000a81548173ffffffffffffffffffffffffffffffffffffffff021916908373ffffffffffffffffffffffffffffffffffffffff16021790555060208201518160010190816109d99190611d06565b50604082015181600201556060820151816003015f6101000a81548160ff02191690836001811115610a0e57610a0d611aa1565b5b021790555050503373ffffffffffffffffffffffffffffffffffffffff167f63d8e5c0bf4559e61ee479385882367114d00d044cdbf28449bf437737db31af838342604051610a5f93929190611e0d565b60405180910390a25050565b7f000000000000000000000000000000000000000000000000000000000000000073ffffffffffffffffffffffffffffffffffffffff163373ffffffffffffffffffffffffffffffffffffffff1614610af9576040517f08c379a0000000000000000000000000000000000000000000000000000000008152600401610af090611eb9565b60405180910390fd5b5f8054906101000a900460ff1615610b4f573373ffffffffffffffffffffffffffffffffffffffff167fc76eaf55fe0c62418848780c99c0c94a15f79b80bca75629b0b8bd07678f55b660405160405180910390a25b5f8054906101000a900460ff1615610b9c576040517f08c379a0000000000000000000000000000000000000000000000000000000008152600401610b9390611f21565b60405180910390fd5b60015f806101000a81548160ff0219169083151502179055505f60025f3373ffffffffffffffffffffffffffffffffffffffff1673ffffffffffffffffffffffffffffffffffffffff1681526020019081526020015f205490505f8111610c38576040517f08c379a0000000000000000000000000000000000000000000000000000000008152600401610c2f90611f89565b60405180910390fd5b5f60025f3373ffffffffffffffffffffffffffffffffffffffff1673ffffffffffffffffffffffffffffffffffffffff1681526020019081526020015f20819055505f3373ffffffffffffffffffffffffffffffffffffffff1682604051610c9f90611fd4565b5f6040518083038185875af1925050503d805f8114610cd9576040519150601f19603f3d011682016040523d82523d5f602084013e610cde565b606091505b5050905080610d22576040517f08c379a0000000000000000000000000000000000000000000000000000000008152600401610d1990612032565b60405180910390fd5b3373ffffffffffffffffffffffffffffffffffffffff167f7fcf532c15f0a6db0bd6d0e038bea71d30d808c7d98cb3bf7268a95bf5081b6583604051610d6891906116ef565b60405180910390a250505f805f6101000a81548160ff021916908315150217905550565b7f000000000000000000000000000000000000000000000000000000000000000081565b6003805490508110610df7576040517f08c379a0000000000000000000000000000000000000000000000000000000008152600401610dee9061209a565b60405180910390fd5b3373ffffffffffffffffffffffffffffffffffffffff1660038281548110610e2257610e21611a2d565b5b905f5260205f2090600402015f015f9054906101000a900473ffffffffffffffffffffffffffffffffffffffff1673ffffffffffffffffffffffffffffffffffffffff1614610ea6576040517f08c379a0000000000000000000000000000000000000000000000000000000008152600401610e9d90612102565b60405180910390fd5b5f6001811115610eb957610eb8611aa1565b5b60038281548110610ecd57610ecc611a2d565b5b905f5260205f2090600402016003015f9054906101000a900460ff166001811115610efb57610efa611aa1565b5b14610f3b576040517f08c379a0000000000000000000000000000000000000000000000000000000008152600401610f329061216a565b60405180910390fd5b600160038281548110610f5157610f50611a2d565b5b905f5260205f2090600402016003015f6101000a81548160ff02191690836001811115610f8157610f80611aa1565b5b02179055503373ffffffffffffffffffffffffffffffffffffffff167fa7c459bc1ada656ec9f3f0e9562dcd1353b12b0fd5cc82657c4cecdc0dba6b8282604051610fcc91906116ef565b60405180910390a250565b610fdf6112d0565b5f5b60018054905081101561125b5782604051602001610fff91906121c2565b604051602081830303815290604052805190602001206001828154811061102957611028611a2d565b5b905f5260205f2090600402015f016040516020016110479190612258565b604051602081830303815290604052805190602001200361124e576001818154811061107657611075611a2d565b5b905f5260205f2090600402016040518060800160405290815f8201805461109c906119fd565b80601f01602080910402602001604051908101604052809291908181526020018280546110c8906119fd565b80156111135780601f106110ea57610100808354040283529160200191611113565b820191905f5260205f20905b8154815290600101906020018083116110f657829003601f168201915b5050505050815260200160018201548152602001600282018054611136906119fd565b80601f0160208091040260200160405190810160405280929190818152602001828054611162906119fd565b80156111ad5780601f10611184576101008083540402835291602001916111ad565b820191905f5260205f20905b81548152906001019060200180831161119057829003601f168201915b505050505081526020016003820180546111c6906119fd565b80601f01602080910402602001604051908101604052809291908181526020018280546111f2906119fd565b801561123d5780601f106112145761010080835404028352916020019161123d565b820191905f5260205f20905b81548152906001019060200180831161122057829003601f168201915b505050505081525050915050611297565b8080600101915050610fe1565b506040517f08c379a000000000000000000000000000000000000000000000000000000000815260040161128e906122b8565b60405180910390fd5b919050565b6040518060c001604052805f815260200160608152602001606081526020015f81526020015f81526020015f151581525090565b6040518060800160405280606081526020015f815260200160608152602001606081525090565b5f81519050919050565b5f82825260208201905092915050565b5f819050602082019050919050565b5f81519050919050565b5f82825260208201905092915050565b8281835e5f83830152505050565b5f601f19601f8301169050919050565b5f61136282611320565b61136c818561132a565b935061137c81856020860161133a565b61138581611348565b840191505092915050565b5f819050919050565b6113a281611390565b82525050565b5f608083015f8301518482035f8601526113c28282611358565b91505060208301516113d76020860182611399565b50604083015184820360408601526113ef8282611358565b915050606083015184820360608601526114098282611358565b9150508091505092915050565b5f61142183836113a8565b905092915050565b5f602082019050919050565b5f61143f826112f7565b6114498185611301565b93508360208202850161145b85611311565b805f5b8581101561149657848403895281516114778582611416565b945061148283611429565b925060208a0199505060018101905061145e565b50829750879550505050505092915050565b5f6020820190508181035f8301526114c08184611435565b905092915050565b5f604051905090565b5f80fd5b5f80fd5b5f73ffffffffffffffffffffffffffffffffffffffff82169050919050565b5f611502826114d9565b9050919050565b611512816114f8565b811461151c575f80fd5b50565b5f8135905061152d81611509565b92915050565b5f60208284031215611548576115476114d1565b5b5f6115558482850161151f565b91505092915050565b5f81519050919050565b5f82825260208201905092915050565b5f819050602082019050919050565b5f8115159050919050565b61159b81611587565b82525050565b5f60c083015f8301516115b65f860182611399565b50602083015184820360208601526115ce8282611358565b915050604083015184820360408601526115e88282611358565b91505060608301516115fd6060860182611399565b5060808301516116106080860182611399565b5060a083015161162360a0860182611592565b508091505092915050565b5f61163983836115a1565b905092915050565b5f602082019050919050565b5f6116578261155e565b6116618185611568565b93508360208202850161167385611578565b805f5b858110156116ae578484038952815161168f858261162e565b945061169a83611641565b925060208a01995050600181019050611676565b50829750879550505050505092915050565b5f6020820190508181035f8301526116d8818461164d565b905092915050565b6116e981611390565b82525050565b5f6020820190506117025f8301846116e0565b92915050565b5f80fd5b5f80fd5b7f4e487b71000000000000000000000000000000000000000000000000000000005f52604160045260245ffd5b61174682611348565b810181811067ffffffffffffffff8211171561176557611764611710565b5b80604052505050565b5f6117776114c8565b9050611783828261173d565b919050565b5f67ffffffffffffffff8211156117a2576117a1611710565b5b6117ab82611348565b9050602081019050919050565b828183375f83830152505050565b5f6117d86117d384611788565b61176e565b9050828152602081018484840111156117f4576117f361170c565b5b6117ff8482856117b8565b509392505050565b5f82601f83011261181b5761181a611708565b5b813561182b8482602086016117c6565b91505092915050565b5f60208284031215611849576118486114d1565b5b5f82013567ffffffffffffffff811115611866576118656114d5565b5b61187284828501611807565b91505092915050565b611884816114f8565b82525050565b5f60208201905061189d5f83018461187b565b92915050565b6118ac81611390565b81146118b6575f80fd5b50565b5f813590506118c7816118a3565b92915050565b5f602082840312156118e2576118e16114d1565b5b5f6118ef848285016118b9565b91505092915050565b5f82825260208201905092915050565b7f4d697373696e6720726571756972656420616d6f756e740000000000000000005f82015250565b5f61193c6017836118f8565b915061194782611908565b602082019050919050565b5f6020820190508181035f83015261196981611930565b9050919050565b7f4e487b71000000000000000000000000000000000000000000000000000000005f52601160045260245ffd5b5f6119a782611390565b91506119b283611390565b92508282019050808211156119ca576119c9611970565b5b92915050565b7f4e487b71000000000000000000000000000000000000000000000000000000005f52602260045260245ffd5b5f6002820490506001821680611a1457607f821691505b602082108103611a2757611a266119d0565b5b50919050565b7f4e487b71000000000000000000000000000000000000000000000000000000005f52603260045260245ffd5b5f611a6482611390565b91507fffffffffffffffffffffffffffffffffffffffffffffffffffffffffffffffff8203611a9657611a95611970565b5b600182019050919050565b7f4e487b71000000000000000000000000000000000000000000000000000000005f52602160045260245ffd5b7f496e73756666696369656e742066756e647300000000000000000000000000005f82015250565b5f611b026012836118f8565b9150611b0d82611ace565b602082019050919050565b5f6020820190508181035f830152611b2f81611af6565b9050919050565b5f611b4082611390565b9150611b4b83611390565b9250828203905081811115611b6357611b62611970565b5b92915050565b5f819050815f5260205f209050919050565b5f6020601f8301049050919050565b5f82821b905092915050565b5f60088302611bc57fffffffffffffffffffffffffffffffffffffffffffffffffffffffffffffffff82611b8a565b611bcf8683611b8a565b95508019841693508086168417925050509392505050565b5f819050919050565b5f611c0a611c05611c0084611390565b611be7565b611390565b9050919050565b5f819050919050565b611c2383611bf0565b611c37611c2f82611c11565b848454611b96565b825550505050565b5f90565b611c4b611c3f565b611c56818484611c1a565b505050565b5b81811015611c7957611c6e5f82611c43565b600181019050611c5c565b5050565b601f821115611cbe57611c8f81611b69565b611c9884611b7b565b81016020851015611ca7578190505b611cbb611cb385611b7b565b830182611c5b565b50505b505050565b5f82821c905092915050565b5f611cde5f1984600802611cc3565b1980831691505092915050565b5f611cf68383611ccf565b9150826002028217905092915050565b611d0f82611320565b67ffffffffffffffff811115611d2857611d27611710565b5b611d3282546119fd565b611d3d828285611c7d565b5f60209050601f831160018114611d6e575f8415611d5c578287015190505b611d668582611ceb565b865550611dcd565b601f198416611d7c86611b69565b5f5b82811015611da357848901518255600182019150602085019450602081019050611d7e565b86831015611dc05784890151611dbc601f891682611ccf565b8355505b6001600288020188555050505b505050505050565b5f611ddf82611320565b611de981856118f8565b9350611df981856020860161133a565b611e0281611348565b840191505092915050565b5f6060820190508181035f830152611e258186611dd5565b9050611e3460208301856116e0565b611e4160408301846116e0565b949350505050565b7f4f6e6c79206f776e65722063616e2063616c6c20746869732066756e6374696f5f8201527f6e00000000000000000000000000000000000000000000000000000000000000602082015250565b5f611ea36021836118f8565b9150611eae82611e49565b604082019050919050565b5f6020820190508181035f830152611ed081611e97565b9050919050565b7f4e6f207265656e7472616e6379000000000000000000000000000000000000005f82015250565b5f611f0b600d836118f8565b9150611f1682611ed7565b602082019050919050565b5f6020820190508181035f830152611f3881611eff565b9050919050565b7f596f7520646f206e6f74206861766520616e792062616c616e63652e000000005f82015250565b5f611f73601c836118f8565b9150611f7e82611f3f565b602082019050919050565b5f6020820190508181035f830152611fa081611f67565b9050919050565b5f81905092915050565b50565b5f611fbf5f83611fa7565b9150611fca82611fb1565b5f82019050919050565b5f611fde82611fb4565b9150819050919050565b7f5472616e73666572206661696c65642e000000000000000000000000000000005f82015250565b5f61201c6010836118f8565b915061202782611fe8565b602082019050919050565b5f6020820190508181035f83015261204981612010565b9050919050565b7f496e76616c696420696e646578000000000000000000000000000000000000005f82015250565b5f612084600d836118f8565b915061208f82612050565b602082019050919050565b5f6020820190508181035f8301526120b181612078565b9050919050565b7f4e6f7420796f75722070757263686173650000000000000000000000000000005f82015250565b5f6120ec6011836118f8565b91506120f7826120b8565b602082019050919050565b5f6020820190508181035f830152612119816120e0565b9050919050565b7f507572636861736520616c726561647920636f6e73756d6564000000000000005f82015250565b5f6121546019836118f8565b915061215f82612120565b602082019050919050565b5f6020820190508181035f83015261218181612148565b9050919050565b5f81905092915050565b5f61219c82611320565b6121a68185612188565b93506121b681856020860161133a565b80840191505092915050565b5f6121cd8284612192565b915081905092915050565b5f81546121e4816119fd565b6121ee8186612188565b9450600182165f8114612208576001811461221d5761224f565b60ff198316865281151582028601935061224f565b61222685611b69565b5f5b8381101561224757815481890152600182019150602081019050612228565b838801955050505b50505092915050565b5f61226382846121d8565b915081905092915050565b7f50726f64756374206e6f7420666f756e640000000000000000000000000000005f82015250565b5f6122a26011836118f8565b91506122ad8261226e565b602082019050919050565b5f6020820190508181035f8301526122cf81612296565b905091905056fea2646970667358221220709e0b385cc668793ce01ce0c22f5bd1417910cbe1ffe6647c49ff9edf42665a64736f6c634300081a0033516d6652465261626f50334d3438656578766e516b6977675544506150484a69466e44634b637545754c426266312f",
					"opcodes": "PUSH1 0xA0 PUSH1 0x40 MSTORE CALLVALUE DUP1 ISZERO PUSH2 0xF JUMPI PUSH0 DUP1 REVERT JUMPDEST POP CALLER PUSH20 0xFFFFFFFFFFFFFFFFFFFFFFFFFFFFFFFFFFFFFFFF AND PUSH1 0x80 DUP2 PUSH20 0xFFFFFFFFFFFFFFFFFFFFFFFFFFFFFFFFFFFFFFFF AND DUP2 MSTORE POP POP PUSH2 0x52 PUSH2 0x57 PUSH1 0x20 SHL PUSH1 0x20 SHR JUMP JUMPDEST PUSH2 0x152F JUMP JUMPDEST PUSH2 0x118 PUSH1 0x40 MLOAD DUP1 PUSH1 0x40 ADD PUSH1 0x40 MSTORE DUP1 PUSH1 0x2 DUP2 MSTORE PUSH1 0x20 ADD PUSH32 0x4131000000000000000000000000000000000000000000000000000000000000 DUP2 MSTORE POP PUSH4 0x5F5E100 PUSH1 0xF PUSH2 0xA1 SWAP2 SWAP1 PUSH2 0x10C4 JUMP JUMPDEST PUSH1 0x40 MLOAD DUP1 PUSH1 0x40 ADD PUSH1 0x40 MSTORE DUP1 PUSH1 0x4 DUP2 MSTORE PUSH1 0x20 ADD PUSH32 0x4C61797300000000000000000000000000000000000000000000000000000000 DUP2 MSTORE POP PUSH1 0x40 MLOAD DUP1 PUSH1 0x40 ADD PUSH1 0x40 MSTORE DUP1 PUSH1 0x8 DUP2 MSTORE PUSH1 0x20 ADD PUSH32 0x6C6179732E706E67000000000000000000000000000000000000000000000000 DUP2 MSTORE POP PUSH2 0xF60 PUSH1 0x20 SHL PUSH1 0x20 SHR JUMP JUMPDEST PUSH2 0x1D8 PUSH1 0x40 MLOAD DUP1 PUSH1 0x40 ADD PUSH1 0x40 MSTORE DUP1 PUSH1 0x2 DUP2 MSTORE PUSH1 0x20 ADD PUSH32 0x4132000000000000000000000000000000000000000000000000000000000000 DUP2 MSTORE POP PUSH3 0x989680 PUSH1 0xAF PUSH2 0x161 SWAP2 SWAP1 PUSH2 0x10C4 JUMP JUMPDEST PUSH1 0x40 MLOAD DUP1 PUSH1 0x40 ADD PUSH1 0x40 MSTORE DUP1 PUSH1 0x9 DUP2 MSTORE PUSH1 0x20 ADD PUSH32 0x436F636120436F6C610000000000000000000000000000000000000000000000 DUP2 MSTORE POP PUSH1 0x40 MLOAD DUP1 PUSH1 0x40 ADD PUSH1 0x40 MSTORE DUP1 PUSH1 0xD DUP2 MSTORE PUSH1 0x20 ADD PUSH32 0x636F63612D636F6C612E706E6700000000000000000000000000000000000000 DUP2 MSTORE POP PUSH2 0xF60 PUSH1 0x20 SHL PUSH1 0x20 SHR JUMP JUMPDEST PUSH2 0x299 PUSH1 0x40 MLOAD DUP1 PUSH1 0x40 ADD PUSH1 0x40 MSTORE DUP1 PUSH1 0x2 DUP2 MSTORE PUSH1 0x20 ADD PUSH32 0x4133000000000000000000000000000000000000000000000000000000000000 DUP2 MSTORE POP PUSH4 0x5F5E100 PUSH1 0xF PUSH2 0x222 SWAP2 SWAP1 PUSH2 0x10C4 JUMP JUMPDEST PUSH1 0x40 MLOAD DUP1 PUSH1 0x40 ADD PUSH1 0x40 MSTORE DUP1 PUSH1 0x8 DUP2 MSTORE PUSH1 0x20 ADD PUSH32 0x5072696E676C6573000000000000000000000000000000000000000000000000 DUP2 MSTORE POP PUSH1 0x40 MLOAD DUP1 PUSH1 0x40 ADD PUSH1 0x40 MSTORE DUP1 PUSH1 0xC DUP2 MSTORE PUSH1 0x20 ADD PUSH32 0x7072696E676C65732E706E670000000000000000000000000000000000000000 DUP2 MSTORE POP PUSH2 0xF60 PUSH1 0x20 SHL PUSH1 0x20 SHR JUMP JUMPDEST PUSH2 0x359 PUSH1 0x40 MLOAD DUP1 PUSH1 0x40 ADD PUSH1 0x40 MSTORE DUP1 PUSH1 0x2 DUP2 MSTORE PUSH1 0x20 ADD PUSH32 0x4134000000000000000000000000000000000000000000000000000000000000 DUP2 MSTORE POP PUSH3 0x989680 PUSH1 0xAF PUSH2 0x2E2 SWAP2 SWAP1 PUSH2 0x10C4 JUMP JUMPDEST PUSH1 0x40 MLOAD DUP1 PUSH1 0x40 ADD PUSH1 0x40 MSTORE DUP1 PUSH1 0x5 DUP2 MSTORE PUSH1 0x20 ADD PUSH32 0x5761746572000000000000000000000000000000000000000000000000000000 DUP2 MSTORE POP PUSH1 0x40 MLOAD DUP1 PUSH1 0x40 ADD PUSH1 0x40 MSTORE DUP1 PUSH1 0x9 DUP2 MSTORE PUSH1 0x20 ADD PUSH32 0x77617465722E706E670000000000000000000000000000000000000000000000 DUP2 MSTORE POP PUSH2 0xF60 PUSH1 0x20 SHL PUSH1 0x20 SHR JUMP JUMPDEST PUSH2 0x41A PUSH1 0x40 MLOAD DUP1 PUSH1 0x40 ADD PUSH1 0x40 MSTORE DUP1 PUSH1 0x2 DUP2 MSTORE PUSH1 0x20 ADD PUSH32 0x4135000000000000000000000000000000000000000000000000000000000000 DUP2 MSTORE POP PUSH4 0x5F5E100 PUSH1 0xF PUSH2 0x3A3 SWAP2 SWAP1 PUSH2 0x10C4 JUMP JUMPDEST PUSH1 0x40 MLOAD DUP1 PUSH1 0x40 ADD PUSH1 0x40 MSTORE DUP1 PUSH1 0xC DUP2 MSTORE PUSH1 0x20 ADD PUSH32 0x456E65726779204472696E6B0000000000000000000000000000000000000000 DUP2 MSTORE POP PUSH1 0x40 MLOAD DUP1 PUSH1 0x40 ADD PUSH1 0x40 MSTORE DUP1 PUSH1 0xC DUP2 MSTORE PUSH1 0x20 ADD PUSH32 0x7265642D62756C6C2E706E670000000000000000000000000000000000000000 DUP2 MSTORE POP PUSH2 0xF60 PUSH1 0x20 SHL PUSH1 0x20 SHR JUMP JUMPDEST PUSH2 0x4DB PUSH1 0x40 MLOAD DUP1 PUSH1 0x40 ADD PUSH1 0x40 MSTORE DUP1 PUSH1 0x2 DUP2 MSTORE PUSH1 0x20 ADD PUSH32 0x4231000000000000000000000000000000000000000000000000000000000000 DUP2 MSTORE POP PUSH4 0x5F5E100 PUSH1 0x14 PUSH2 0x464 SWAP2 SWAP1 PUSH2 0x10C4 JUMP JUMPDEST PUSH1 0x40 MLOAD DUP1 PUSH1 0x40 ADD PUSH1 0x40 MSTORE DUP1 PUSH1 0x8 DUP2 MSTORE PUSH1 0x20 ADD PUSH32 0x53616E6477696368000000000000000000000000000000000000000000000000 DUP2 MSTORE POP PUSH1 0x40 MLOAD DUP1 PUSH1 0x40 ADD PUSH1 0x40 MSTORE DUP1 PUSH1 0xC DUP2 MSTORE PUSH1 0x20 ADD PUSH32 0x73616E64776963682E706E670000000000000000000000000000000000000000 DUP2 MSTORE POP PUSH2 0xF60 PUSH1 0x20 SHL PUSH1 0x20 SHR JUMP JUMPDEST PUSH2 0x59B PUSH1 0x40 MLOAD DUP1 PUSH1 0x40 ADD PUSH1 0x40 MSTORE DUP1 PUSH1 0x2 DUP2 MSTORE PUSH1 0x20 ADD PUSH32 0x4232000000000000000000000000000000000000000000000000000000000000 DUP2 MSTORE POP PUSH3 0x989680 PUSH1 0xAF PUSH2 0x524 SWAP2 SWAP1 PUSH2 0x10C4 JUMP JUMPDEST PUSH1 0x40 MLOAD DUP1 PUSH1 0x40 ADD PUSH1 0x40 MSTORE DUP1 PUSH1 0x4 DUP2 MSTORE PUSH1 0x20 ADD PUSH32 0x4F72656F00000000000000000000000000000000000000000000000000000000 DUP2 MSTORE POP PUSH1 0x40 MLOAD DUP1 PUSH1 0x40 ADD PUSH1 0x40 MSTORE DUP1 PUSH1 0x8 DUP2 MSTORE PUSH1 0x20 ADD PUSH32 0x6F72656F2E706E67000000000000000000000000000000000000000000000000 DUP2 MSTORE POP PUSH2 0xF60 PUSH1 0x20 SHL PUSH1 0x20 SHR JUMP JUMPDEST PUSH2 0x65C PUSH1 0x40 MLOAD DUP1 PUSH1 0x40 ADD PUSH1 0x40 MSTORE DUP1 PUSH1 0x2 DUP2 MSTORE PUSH1 0x20 ADD PUSH32 0x4233000000000000000000000000000000000000000000000000000000000000 DUP2 MSTORE POP PUSH4 0x5F5E100 PUSH1 0xF PUSH2 0x5E5 SWAP2 SWAP1 PUSH2 0x10C4 JUMP JUMPDEST PUSH1 0x40 MLOAD DUP1 PUSH1 0x40 ADD PUSH1 0x40 MSTORE DUP1 PUSH1 0x6 DUP2 MSTORE PUSH1 0x20 ADD PUSH32 0x5370726974650000000000000000000000000000000000000000000000000000 DUP2 MSTORE POP PUSH1 0x40 MLOAD DUP1 PUSH1 0x40 ADD PUSH1 0x40 MSTORE DUP1 PUSH1 0xA DUP2 MSTORE PUSH1 0x20 ADD PUSH32 0x7370726974652E706E6700000000000000000000000000000000000000000000 DUP2 MSTORE POP PUSH2 0xF60 PUSH1 0x20 SHL PUSH1 0x20 SHR JUMP JUMPDEST PUSH2 0x71C PUSH1 0x40 MLOAD DUP1 PUSH1 0x40 ADD PUSH1 0x40 MSTORE DUP1 PUSH1 0x2 DUP2 MSTORE PUSH1 0x20 ADD PUSH32 0x4234000000000000000000000000000000000000000000000000000000000000 DUP2 MSTORE POP PUSH3 0x989680 PUSH1 0xAF PUSH2 0x6A5 SWAP2 SWAP1 PUSH2 0x10C4 JUMP JUMPDEST PUSH1 0x40 MLOAD DUP1 PUSH1 0x40 ADD PUSH1 0x40 MSTORE DUP1 PUSH1 0xB DUP2 MSTORE PUSH1 0x20 ADD PUSH32 0x4772616E6F6C6120426172000000000000000000000000000000000000000000 DUP2 MSTORE POP PUSH1 0x40 MLOAD DUP1 PUSH1 0x40 ADD PUSH1 0x40 MSTORE DUP1 PUSH1 0xF DUP2 MSTORE PUSH1 0x20 ADD PUSH32 0x6772616E6F6C612D6261722E706E670000000000000000000000000000000000 DUP2 MSTORE POP PUSH2 0xF60 PUSH1 0x20 SHL PUSH1 0x20 SHR JUMP JUMPDEST PUSH2 0x7DC PUSH1 0x40 MLOAD DUP1 PUSH1 0x40 ADD PUSH1 0x40 MSTORE DUP1 PUSH1 0x2 DUP2 MSTORE PUSH1 0x20 ADD PUSH32 0x4235000000000000000000000000000000000000000000000000000000000000 DUP2 MSTORE POP PUSH3 0x989680 PUSH1 0xAF PUSH2 0x765 SWAP2 SWAP1 PUSH2 0x10C4 JUMP JUMPDEST PUSH1 0x40 MLOAD DUP1 PUSH1 0x40 ADD PUSH1 0x40 MSTORE DUP1 PUSH1 0x7 DUP2 MSTORE PUSH1 0x20 ADD PUSH32 0x446F7269746F7300000000000000000000000000000000000000000000000000 DUP2 MSTORE POP PUSH1 0x40 MLOAD DUP1 PUSH1 0x40 ADD PUSH1 0x40 MSTORE DUP1 PUSH1 0xB DUP2 MSTORE PUSH1 0x20 ADD PUSH32 0x646F7269746F732E706E67000000000000000000000000000000000000000000 DUP2 MSTORE POP PUSH2 0xF60 PUSH1 0x20 SHL PUSH1 0x20 SHR JUMP JUMPDEST PUSH2 0x89D PUSH1 0x40 MLOAD DUP1 PUSH1 0x40 ADD PUSH1 0x40 MSTORE DUP1 PUSH1 0x2 DUP2 MSTORE PUSH1 0x20 ADD PUSH32 0x4331000000000000000000000000000000000000000000000000000000000000 DUP2 MSTORE POP PUSH4 0x5F5E100 PUSH1 0xF PUSH2 0x826 SWAP2 SWAP1 PUSH2 0x10C4 JUMP JUMPDEST PUSH1 0x40 MLOAD DUP1 PUSH1 0x40 ADD PUSH1 0x40 MSTORE DUP1 PUSH1 0xB DUP2 MSTORE PUSH1 0x20 ADD PUSH32 0x536E69636B657220426172000000000000000000000000000000000000000000 DUP2 MSTORE POP PUSH1 0x40 MLOAD DUP1 PUSH1 0x40 ADD PUSH1 0x40 MSTORE DUP1 PUSH1 0xC DUP2 MSTORE PUSH1 0x20 ADD PUSH32 0x736E69636B6572732E706E670000000000000000000000000000000000000000 DUP2 MSTORE POP PUSH2 0xF60 PUSH1 0x20 SHL PUSH1 0x20 SHR JUMP JUMPDEST PUSH2 0x95E PUSH1 0x40 MLOAD DUP1 PUSH1 0x40 ADD PUSH1 0x40 MSTORE DUP1 PUSH1 0x2 DUP2 MSTORE PUSH1 0x20 ADD PUSH32 0x4332000000000000000000000000000000000000000000000000000000000000 DUP2 MSTORE POP PUSH4 0x5F5E100 PUSH1 0xF PUSH2 0x8E7 SWAP2 SWAP1 PUSH2 0x10C4 JUMP JUMPDEST PUSH1 0x40 MLOAD DUP1 PUSH1 0x40 ADD PUSH1 0x40 MSTORE DUP1 PUSH1 0x4 DUP2 MSTORE PUSH1 0x20 ADD PUSH32 0x4D264D7300000000000000000000000000000000000000000000000000000000 DUP2 MSTORE POP PUSH1 0x40 MLOAD DUP1 PUSH1 0x40 ADD PUSH1 0x40 MSTORE DUP1 PUSH1 0x8 DUP2 MSTORE PUSH1 0x20 ADD PUSH32 0x6D266D732E706E67000000000000000000000000000000000000000000000000 DUP2 MSTORE POP PUSH2 0xF60 PUSH1 0x20 SHL PUSH1 0x20 SHR JUMP JUMPDEST PUSH2 0xA1E PUSH1 0x40 MLOAD DUP1 PUSH1 0x40 ADD PUSH1 0x40 MSTORE DUP1 PUSH1 0x2 DUP2 MSTORE PUSH1 0x20 ADD PUSH32 0x4333000000000000000000000000000000000000000000000000000000000000 DUP2 MSTORE POP PUSH3 0x989680 PUSH1 0x7D PUSH2 0x9A7 SWAP2 SWAP1 PUSH2 0x10C4 JUMP JUMPDEST PUSH1 0x40 MLOAD DUP1 PUSH1 0x40 ADD PUSH1 0x40 MSTORE DUP1 PUSH1 0xE DUP2 MSTORE PUSH1 0x20 ADD PUSH32 0x427562626C65205461702047756D000000000000000000000000000000000000 DUP2 MSTORE POP PUSH1 0x40 MLOAD DUP1 PUSH1 0x40 ADD PUSH1 0x40 MSTORE DUP1 PUSH1 0xE DUP2 MSTORE PUSH1 0x20 ADD PUSH32 0x627562626C652D7461702E706E67000000000000000000000000000000000000 DUP2 MSTORE POP PUSH2 0xF60 PUSH1 0x20 SHL PUSH1 0x20 SHR JUMP JUMPDEST PUSH2 0xADE PUSH1 0x40 MLOAD DUP1 PUSH1 0x40 ADD PUSH1 0x40 MSTORE DUP1 PUSH1 0x2 DUP2 MSTORE PUSH1 0x20 ADD PUSH32 0x4334000000000000000000000000000000000000000000000000000000000000 DUP2 MSTORE POP PUSH3 0x989680 PUSH1 0xAF PUSH2 0xA67 SWAP2 SWAP1 PUSH2 0x10C4 JUMP JUMPDEST PUSH1 0x40 MLOAD DUP1 PUSH1 0x40 ADD PUSH1 0x40 MSTORE DUP1 PUSH1 0xD DUP2 MSTORE PUSH1 0x20 ADD PUSH32 0x4672756974204E75742042617200000000000000000000000000000000000000 DUP2 MSTORE POP PUSH1 0x40 MLOAD DUP1 PUSH1 0x40 ADD PUSH1 0x40 MSTORE DUP1 PUSH1 0xD DUP2 MSTORE PUSH1 0x20 ADD PUSH32 0x66727569742D6E75742E706E6700000000000000000000000000000000000000 DUP2 MSTORE POP PUSH2 0xF60 PUSH1 0x20 SHL PUSH1 0x20 SHR JUMP JUMPDEST PUSH2 0xB9E PUSH1 0x40 MLOAD DUP1 PUSH1 0x40 ADD PUSH1 0x40 MSTORE DUP1 PUSH1 0x2 DUP2 MSTORE PUSH1 0x20 ADD PUSH32 0x4335000000000000000000000000000000000000000000000000000000000000 DUP2 MSTORE POP PUSH3 0x989680 PUSH1 0xAF PUSH2 0xB27 SWAP2 SWAP1 PUSH2 0x10C4 JUMP JUMPDEST PUSH1 0x40 MLOAD DUP1 PUSH1 0x40 ADD PUSH1 0x40 MSTORE DUP1 PUSH1 0xA DUP2 MSTORE PUSH1 0x20 ADD PUSH32 0x42656566204A65726B7900000000000000000000000000000000000000000000 DUP2 MSTORE POP PUSH1 0x40 MLOAD DUP1 PUSH1 0x40 ADD PUSH1 0x40 MSTORE DUP1 PUSH1 0xE DUP2 MSTORE PUSH1 0x20 ADD PUSH32 0x626565662D6A65726B792E706E67000000000000000000000000000000000000 DUP2 MSTORE POP PUSH2 0xF60 PUSH1 0x20 SHL PUSH1 0x20 SHR JUMP JUMPDEST PUSH2 0xC5E PUSH1 0x40 MLOAD DUP1 PUSH1 0x40 ADD PUSH1 0x40 MSTORE DUP1 PUSH1 0x2 DUP2 MSTORE PUSH1 0x20 ADD PUSH32 0x4431000000000000000000000000000000000000000000000000000000000000 DUP2 MSTORE POP PUSH3 0x989680 PUSH1 0x7D PUSH2 0xBE7 SWAP2 SWAP1 PUSH2 0x10C4 JUMP JUMPDEST PUSH1 0x40 MLOAD DUP1 PUSH1 0x40 ADD PUSH1 0x40 MSTORE DUP1 PUSH1 0xE DUP2 MSTORE PUSH1 0x20 ADD PUSH32 0x4B69744B61742042697363756974000000000000000000000000000000000000 DUP2 MSTORE POP PUSH1 0x40 MLOAD DUP1 PUSH1 0x40 ADD PUSH1 0x40 MSTORE DUP1 PUSH1 0xA DUP2 MSTORE PUSH1 0x20 ADD PUSH32 0x6B69746B61742E706E6700000000000000000000000000000000000000000000 DUP2 MSTORE POP PUSH2 0xF60 PUSH1 0x20 SHL PUSH1 0x20 SHR JUMP JUMPDEST PUSH2 0xD1E PUSH1 0x40 MLOAD DUP1 PUSH1 0x40 ADD PUSH1 0x40 MSTORE DUP1 PUSH1 0x2 DUP2 MSTORE PUSH1 0x20 ADD PUSH32 0x4432000000000000000000000000000000000000000000000000000000000000 DUP2 MSTORE POP PUSH3 0x989680 PUSH1 0x7D PUSH2 0xCA7 SWAP2 SWAP1 PUSH2 0x10C4 JUMP JUMPDEST PUSH1 0x40 MLOAD DUP1 PUSH1 0x40 ADD PUSH1 0x40 MSTORE DUP1 PUSH1 0x8 DUP2 MSTORE PUSH1 0x20 ADD PUSH32 0x506F7020436F726E000000000000000000000000000000000000000000000000 DUP2 MSTORE POP PUSH1 0x40 MLOAD DUP1 PUSH1 0x40 ADD PUSH1 0x40 MSTORE DUP1 PUSH1 0xB DUP2 MSTORE PUSH1 0x20 ADD PUSH32 0x706F70636F726E2E706E67000000000000000000000000000000000000000000 DUP2 MSTORE POP PUSH2 0xF60 PUSH1 0x20 SHL PUSH1 0x20 SHR JUMP JUMPDEST PUSH2 0xDDE PUSH1 0x40 MLOAD DUP1 PUSH1 0x40 ADD PUSH1 0x40 MSTORE DUP1 PUSH1 0x2 DUP2 MSTORE PUSH1 0x20 ADD PUSH32 0x4433000000000000000000000000000000000000000000000000000000000000 DUP2 MSTORE POP PUSH3 0x989680 PUSH1 0x96 PUSH2 0xD67 SWAP2 SWAP1 PUSH2 0x10C4 JUMP JUMPDEST PUSH1 0x40 MLOAD DUP1 PUSH1 0x40 ADD PUSH1 0x40 MSTORE DUP1 PUSH1 0x8 DUP2 MSTORE PUSH1 0x20 ADD PUSH32 0x5477697820426172000000000000000000000000000000000000000000000000 DUP2 MSTORE POP PUSH1 0x40 MLOAD DUP1 PUSH1 0x40 ADD PUSH1 0x40 MSTORE DUP1 PUSH1 0x8 DUP2 MSTORE PUSH1 0x20 ADD PUSH32 0x747769782E706E67000000000000000000000000000000000000000000000000 DUP2 MSTORE POP PUSH2 0xF60 PUSH1 0x20 SHL PUSH1 0x20 SHR JUMP JUMPDEST PUSH2 0xE9E PUSH1 0x40 MLOAD DUP1 PUSH1 0x40 ADD PUSH1 0x40 MSTORE DUP1 PUSH1 0x2 DUP2 MSTORE PUSH1 0x20 ADD PUSH32 0x4434000000000000000000000000000000000000000000000000000000000000 DUP2 MSTORE POP PUSH3 0x989680 PUSH1 0x7D PUSH2 0xE27 SWAP2 SWAP1 PUSH2 0x10C4 JUMP JUMPDEST PUSH1 0x40 MLOAD DUP1 PUSH1 0x40 ADD PUSH1 0x40 MSTORE DUP1 PUSH1 0x5 DUP2 MSTORE PUSH1 0x20 ADD PUSH32 0x446F6E7574000000000000000000000000000000000000000000000000000000 DUP2 MSTORE POP PUSH1 0x40 MLOAD DUP1 PUSH1 0x40 ADD PUSH1 0x40 MSTORE DUP1 PUSH1 0x9 DUP2 MSTORE PUSH1 0x20 ADD PUSH32 0x646F6E75742E706E670000000000000000000000000000000000000000000000 DUP2 MSTORE POP PUSH2 0xF60 PUSH1 0x20 SHL PUSH1 0x20 SHR JUMP JUMPDEST PUSH2 0xF5E PUSH1 0x40 MLOAD DUP1 PUSH1 0x40 ADD PUSH1 0x40 MSTORE DUP1 PUSH1 0x2 DUP2 MSTORE PUSH1 0x20 ADD PUSH32 0x4435000000000000000000000000000000000000000000000000000000000000 DUP2 MSTORE POP PUSH3 0x989680 PUSH1 0x7D PUSH2 0xEE7 SWAP2 SWAP1 PUSH2 0x10C4 JUMP JUMPDEST PUSH1 0x40 MLOAD DUP1 PUSH1 0x40 ADD PUSH1 0x40 MSTORE DUP1 PUSH1 0x9 DUP2 MSTORE PUSH1 0x20 ADD PUSH32 0x526564204170706C650000000000000000000000000000000000000000000000 DUP2 MSTORE POP PUSH1 0x40 MLOAD DUP1 PUSH1 0x40 ADD PUSH1 0x40 MSTORE DUP1 PUSH1 0x9 DUP2 MSTORE PUSH1 0x20 ADD PUSH32 0x6170706C652E706E670000000000000000000000000000000000000000000000 DUP2 MSTORE POP PUSH2 0xF60 PUSH1 0x20 SHL PUSH1 0x20 SHR JUMP JUMPDEST JUMP JUMPDEST PUSH0 PUSH2 0xF70 DUP3 PUSH2 0x104B PUSH1 0x20 SHL PUSH1 0x20 SHR JUMP JUMPDEST SWAP1 POP PUSH1 0x1 PUSH1 0x40 MLOAD DUP1 PUSH1 0x80 ADD PUSH1 0x40 MSTORE DUP1 DUP8 DUP2 MSTORE PUSH1 0x20 ADD DUP7 DUP2 MSTORE PUSH1 0x20 ADD DUP6 DUP2 MSTORE PUSH1 0x20 ADD DUP4 DUP2 MSTORE POP SWAP1 DUP1 PUSH1 0x1 DUP2 SLOAD ADD DUP1 DUP3 SSTORE DUP1 SWAP2 POP POP PUSH1 0x1 SWAP1 SUB SWAP1 PUSH0 MSTORE PUSH1 0x20 PUSH0 KECCAK256 SWAP1 PUSH1 0x4 MUL ADD PUSH0 SWAP1 SWAP2 SWAP1 SWAP2 SWAP1 SWAP2 POP PUSH0 DUP3 ADD MLOAD DUP2 PUSH0 ADD SWAP1 DUP2 PUSH2 0xFCE SWAP2 SWAP1 PUSH2 0x1336 JUMP JUMPDEST POP PUSH1 0x20 DUP3 ADD MLOAD DUP2 PUSH1 0x1 ADD SSTORE PUSH1 0x40 DUP3 ADD MLOAD DUP2 PUSH1 0x2 ADD SWAP1 DUP2 PUSH2 0xFEE SWAP2 SWAP1 PUSH2 0x1336 JUMP JUMPDEST POP PUSH1 0x60 DUP3 ADD MLOAD DUP2 PUSH1 0x3 ADD SWAP1 DUP2 PUSH2 0x1004 SWAP2 SWAP1 PUSH2 0x1336 JUMP JUMPDEST POP POP POP PUSH32 0x8CA0E4A383B33C2F01484C7CEB45C2555C4997B82D3AA641E9807527F56237FC DUP6 DUP5 DUP7 DUP5 PUSH1 0x40 MLOAD PUSH2 0x103C SWAP5 SWAP4 SWAP3 SWAP2 SWAP1 PUSH2 0x147A JUMP JUMPDEST PUSH1 0x40 MLOAD DUP1 SWAP2 SUB SWAP1 LOG1 POP POP POP POP POP JUMP JUMPDEST PUSH1 0x60 PUSH1 0x40 MLOAD DUP1 PUSH1 0x60 ADD PUSH1 0x40 MSTORE DUP1 PUSH1 0x2F DUP2 MSTORE PUSH1 0x20 ADD PUSH2 0x385A PUSH1 0x2F SWAP2 CODECOPY DUP3 PUSH1 0x40 MLOAD PUSH1 0x20 ADD PUSH2 0x1078 SWAP3 SWAP2 SWAP1 PUSH2 0x150C JUMP JUMPDEST PUSH1 0x40 MLOAD PUSH1 0x20 DUP2 DUP4 SUB SUB DUP2 MSTORE SWAP1 PUSH1 0x40 MSTORE SWAP1 POP SWAP2 SWAP1 POP JUMP JUMPDEST PUSH0 DUP2 SWAP1 POP SWAP2 SWAP1 POP JUMP JUMPDEST PUSH32 0x4E487B7100000000000000000000000000000000000000000000000000000000 PUSH0 MSTORE PUSH1 0x11 PUSH1 0x4 MSTORE PUSH1 0x24 PUSH0 REVERT JUMPDEST PUSH0 PUSH2 0x10CE DUP3 PUSH2 0x108E JUMP JUMPDEST SWAP2 POP PUSH2 0x10D9 DUP4 PUSH2 0x108E JUMP JUMPDEST SWAP3 POP DUP3 DUP3 MUL PUSH2 0x10E7 DUP2 PUSH2 0x108E JUMP JUMPDEST SWAP2 POP DUP3 DUP3 DIV DUP5 EQ DUP4 ISZERO OR PUSH2 0x10FE JUMPI PUSH2 0x10FD PUSH2 0x1097 JUMP JUMPDEST JUMPDEST POP SWAP3 SWAP2 POP POP JUMP JUMPDEST PUSH0 DUP2 MLOAD SWAP1 POP SWAP2 SWAP1 POP JUMP JUMPDEST PUSH32 0x4E487B7100000000000000000000000000000000000000000000000000000000 PUSH0 MSTORE PUSH1 0x41 PUSH1 0x4 MSTORE PUSH1 0x24 PUSH0 REVERT JUMPDEST PUSH32 0x4E487B7100000000000000000000000000000000000000000000000000000000 PUSH0 MSTORE PUSH1 0x22 PUSH1 0x4 MSTORE PUSH1 0x24 PUSH0 REVERT JUMPDEST PUSH0 PUSH1 0x2 DUP3 DIV SWAP1 POP PUSH1 0x1 DUP3 AND DUP1 PUSH2 0x1180 JUMPI PUSH1 0x7F DUP3 AND SWAP2 POP JUMPDEST PUSH1 0x20 DUP3 LT DUP2 SUB PUSH2 0x1193 JUMPI PUSH2 0x1192 PUSH2 0x113C JUMP JUMPDEST JUMPDEST POP SWAP2 SWAP1 POP JUMP JUMPDEST PUSH0 DUP2 SWAP1 POP DUP2 PUSH0 MSTORE PUSH1 0x20 PUSH0 KECCAK256 SWAP1 POP SWAP2 SWAP1 POP JUMP JUMPDEST PUSH0 PUSH1 0x20 PUSH1 0x1F DUP4 ADD DIV SWAP1 POP SWAP2 SWAP1 POP JUMP JUMPDEST PUSH0 DUP3 DUP3 SHL SWAP1 POP SWAP3 SWAP2 POP POP JUMP JUMPDEST PUSH0 PUSH1 0x8 DUP4 MUL PUSH2 0x11F5 PUSH32 0xFFFFFFFFFFFFFFFFFFFFFFFFFFFFFFFFFFFFFFFFFFFFFFFFFFFFFFFFFFFFFFFF DUP3 PUSH2 0x11BA JUMP JUMPDEST PUSH2 0x11FF DUP7 DUP4 PUSH2 0x11BA JUMP JUMPDEST SWAP6 POP DUP1 NOT DUP5 AND SWAP4 POP DUP1 DUP7 AND DUP5 OR SWAP3 POP POP POP SWAP4 SWAP3 POP POP POP JUMP JUMPDEST PUSH0 DUP2 SWAP1 POP SWAP2 SWAP1 POP JUMP JUMPDEST PUSH0 PUSH2 0x123A PUSH2 0x1235 PUSH2 0x1230 DUP5 PUSH2 0x108E JUMP JUMPDEST PUSH2 0x1217 JUMP JUMPDEST PUSH2 0x108E JUMP JUMPDEST SWAP1 POP SWAP2 SWAP1 POP JUMP JUMPDEST PUSH0 DUP2 SWAP1 POP SWAP2 SWAP1 POP JUMP JUMPDEST PUSH2 0x1253 DUP4 PUSH2 0x1220 JUMP JUMPDEST PUSH2 0x1267 PUSH2 0x125F DUP3 PUSH2 0x1241 JUMP JUMPDEST DUP5 DUP5 SLOAD PUSH2 0x11C6 JUMP JUMPDEST DUP3 SSTORE POP POP POP POP JUMP JUMPDEST PUSH0 SWAP1 JUMP JUMPDEST PUSH2 0x127B PUSH2 0x126F JUMP JUMPDEST PUSH2 0x1286 DUP2 DUP5 DUP5 PUSH2 0x124A JUMP JUMPDEST POP POP POP JUMP JUMPDEST JUMPDEST DUP2 DUP2 LT ISZERO PUSH2 0x12A9 JUMPI PUSH2 0x129E PUSH0 DUP3 PUSH2 0x1273 JUMP JUMPDEST PUSH1 0x1 DUP2 ADD SWAP1 POP PUSH2 0x128C JUMP JUMPDEST POP POP JUMP JUMPDEST PUSH1 0x1F DUP3 GT ISZERO PUSH2 0x12EE JUMPI PUSH2 0x12BF DUP2 PUSH2 0x1199 JUMP JUMPDEST PUSH2 0x12C8 DUP5 PUSH2 0x11AB JUMP JUMPDEST DUP2 ADD PUSH1 0x20 DUP6 LT ISZERO PUSH2 0x12D7 JUMPI DUP2 SWAP1 POP JUMPDEST PUSH2 0x12EB PUSH2 0x12E3 DUP6 PUSH2 0x11AB JUMP JUMPDEST DUP4 ADD DUP3 PUSH2 0x128B JUMP JUMPDEST POP POP JUMPDEST POP POP POP JUMP JUMPDEST PUSH0 DUP3 DUP3 SHR SWAP1 POP SWAP3 SWAP2 POP POP JUMP JUMPDEST PUSH0 PUSH2 0x130E PUSH0 NOT DUP5 PUSH1 0x8 MUL PUSH2 0x12F3 JUMP JUMPDEST NOT DUP1 DUP4 AND SWAP2 POP POP SWAP3 SWAP2 POP POP JUMP JUMPDEST PUSH0 PUSH2 0x1326 DUP4 DUP4 PUSH2 0x12FF JUMP JUMPDEST SWAP2 POP DUP3 PUSH1 0x2 MUL DUP3 OR SWAP1 POP SWAP3 SWAP2 POP POP JUMP JUMPDEST PUSH2 0x133F DUP3 PUSH2 0x1105 JUMP JUMPDEST PUSH8 0xFFFFFFFFFFFFFFFF DUP2 GT ISZERO PUSH2 0x1358 JUMPI PUSH2 0x1357 PUSH2 0x110F JUMP JUMPDEST JUMPDEST PUSH2 0x1362 DUP3 SLOAD PUSH2 0x1169 JUMP JUMPDEST PUSH2 0x136D DUP3 DUP3 DUP6 PUSH2 0x12AD JUMP JUMPDEST PUSH0 PUSH1 0x20 SWAP1 POP PUSH1 0x1F DUP4 GT PUSH1 0x1 DUP2 EQ PUSH2 0x139E JUMPI PUSH0 DUP5 ISZERO PUSH2 0x138C JUMPI DUP3 DUP8 ADD MLOAD SWAP1 POP JUMPDEST PUSH2 0x1396 DUP6 DUP3 PUSH2 0x131B JUMP JUMPDEST DUP7 SSTORE POP PUSH2 0x13FD JUMP JUMPDEST PUSH1 0x1F NOT DUP5 AND PUSH2 0x13AC DUP7 PUSH2 0x1199 JUMP JUMPDEST PUSH0 JUMPDEST DUP3 DUP2 LT ISZERO PUSH2 0x13D3 JUMPI DUP5 DUP10 ADD MLOAD DUP3 SSTORE PUSH1 0x1 DUP3 ADD SWAP2 POP PUSH1 0x20 DUP6 ADD SWAP5 POP PUSH1 0x20 DUP2 ADD SWAP1 POP PUSH2 0x13AE JUMP JUMPDEST DUP7 DUP4 LT ISZERO PUSH2 0x13F0 JUMPI DUP5 DUP10 ADD MLOAD PUSH2 0x13EC PUSH1 0x1F DUP10 AND DUP3 PUSH2 0x12FF JUMP JUMPDEST DUP4 SSTORE POP JUMPDEST PUSH1 0x1 PUSH1 0x2 DUP9 MUL ADD DUP9 SSTORE POP POP POP JUMPDEST POP POP POP POP POP POP JUMP JUMPDEST PUSH0 DUP3 DUP3 MSTORE PUSH1 0x20 DUP3 ADD SWAP1 POP SWAP3 SWAP2 POP POP JUMP JUMPDEST DUP3 DUP2 DUP4 MCOPY PUSH0 DUP4 DUP4 ADD MSTORE POP POP POP JUMP JUMPDEST PUSH0 PUSH1 0x1F NOT PUSH1 0x1F DUP4 ADD AND SWAP1 POP SWAP2 SWAP1 POP JUMP JUMPDEST PUSH0 PUSH2 0x143D DUP3 PUSH2 0x1105 JUMP JUMPDEST PUSH2 0x1447 DUP2 DUP6 PUSH2 0x1405 JUMP JUMPDEST SWAP4 POP PUSH2 0x1457 DUP2 DUP6 PUSH1 0x20 DUP7 ADD PUSH2 0x1415 JUMP JUMPDEST PUSH2 0x1460 DUP2 PUSH2 0x1423 JUMP JUMPDEST DUP5 ADD SWAP2 POP POP SWAP3 SWAP2 POP POP JUMP JUMPDEST PUSH2 0x1474 DUP2 PUSH2 0x108E JUMP JUMPDEST DUP3 MSTORE POP POP JUMP JUMPDEST PUSH0 PUSH1 0x80 DUP3 ADD SWAP1 POP DUP2 DUP2 SUB PUSH0 DUP4 ADD MSTORE PUSH2 0x1492 DUP2 DUP8 PUSH2 0x1433 JUMP JUMPDEST SWAP1 POP DUP2 DUP2 SUB PUSH1 0x20 DUP4 ADD MSTORE PUSH2 0x14A6 DUP2 DUP7 PUSH2 0x1433 JUMP JUMPDEST SWAP1 POP PUSH2 0x14B5 PUSH1 0x40 DUP4 ADD DUP6 PUSH2 0x146B JUMP JUMPDEST DUP2 DUP2 SUB PUSH1 0x60 DUP4 ADD MSTORE PUSH2 0x14C7 DUP2 DUP5 PUSH2 0x1433 JUMP JUMPDEST SWAP1 POP SWAP6 SWAP5 POP POP POP POP POP JUMP JUMPDEST PUSH0 DUP2 SWAP1 POP SWAP3 SWAP2 POP POP JUMP JUMPDEST PUSH0 PUSH2 0x14E6 DUP3 PUSH2 0x1105 JUMP JUMPDEST PUSH2 0x14F0 DUP2 DUP6 PUSH2 0x14D2 JUMP JUMPDEST SWAP4 POP PUSH2 0x1500 DUP2 DUP6 PUSH1 0x20 DUP7 ADD PUSH2 0x1415 JUMP JUMPDEST DUP1 DUP5 ADD SWAP2 POP POP SWAP3 SWAP2 POP POP JUMP JUMPDEST PUSH0 PUSH2 0x1517 DUP3 DUP6 PUSH2 0x14DC JUMP JUMPDEST SWAP2 POP PUSH2 0x1523 DUP3 DUP5 PUSH2 0x14DC JUMP JUMPDEST SWAP2 POP DUP2 SWAP1 POP SWAP4 SWAP3 POP POP POP JUMP JUMPDEST PUSH1 0x80 MLOAD PUSH2 0x230C PUSH2 0x154E PUSH0 CODECOPY PUSH0 DUP2 DUP2 PUSH2 0xA6D ADD MSTORE PUSH2 0xD8E ADD MSTORE PUSH2 0x230C PUSH0 RETURN INVALID PUSH1 0x80 PUSH1 0x40 MSTORE PUSH1 0x4 CALLDATASIZE LT PUSH2 0x7E JUMPI PUSH0 CALLDATALOAD PUSH1 0xE0 SHR DUP1 PUSH4 0x3CCFD60B GT PUSH2 0x4D JUMPI DUP1 PUSH4 0x3CCFD60B EQ PUSH2 0x14F JUMPI DUP1 PUSH4 0x8DA5CB5B EQ PUSH2 0x165 JUMPI DUP1 PUSH4 0xA26759CB EQ PUSH2 0x18F JUMPI DUP1 PUSH4 0xB04F3225 EQ PUSH2 0x199 JUMPI PUSH2 0x8D JUMP JUMPDEST DUP1 PUSH4 0x2EE3A52 EQ PUSH2 0x97 JUMPI DUP1 PUSH4 0x1107BC98 EQ PUSH2 0xC1 JUMPI DUP1 PUSH4 0x12065FE0 EQ PUSH2 0xFD JUMPI DUP1 PUSH4 0x19F92926 EQ PUSH2 0x127 JUMPI PUSH2 0x8D JUMP JUMPDEST CALLDATASIZE PUSH2 0x8D JUMPI PUSH2 0x8B PUSH2 0x1C1 JUMP JUMPDEST STOP JUMPDEST PUSH2 0x95 PUSH2 0x1C1 JUMP JUMPDEST STOP JUMPDEST CALLVALUE DUP1 ISZERO PUSH2 0xA2 JUMPI PUSH0 DUP1 REVERT JUMPDEST POP PUSH2 0xAB PUSH2 0x2A6 JUMP JUMPDEST PUSH1 0x40 MLOAD PUSH2 0xB8 SWAP2 SWAP1 PUSH2 0x14A8 JUMP JUMPDEST PUSH1 0x40 MLOAD DUP1 SWAP2 SUB SWAP1 RETURN JUMPDEST CALLVALUE DUP1 ISZERO PUSH2 0xCC JUMPI PUSH0 DUP1 REVERT JUMPDEST POP PUSH2 0xE7 PUSH1 0x4 DUP1 CALLDATASIZE SUB DUP2 ADD SWAP1 PUSH2 0xE2 SWAP2 SWAP1 PUSH2 0x1533 JUMP JUMPDEST PUSH2 0x4BB JUMP JUMPDEST PUSH1 0x40 MLOAD PUSH2 0xF4 SWAP2 SWAP1 PUSH2 0x16C0 JUMP JUMPDEST PUSH1 0x40 MLOAD DUP1 SWAP2 SUB SWAP1 RETURN JUMPDEST CALLVALUE DUP1 ISZERO PUSH2 0x108 JUMPI PUSH0 DUP1 REVERT JUMPDEST POP PUSH2 0x111 PUSH2 0x7E8 JUMP JUMPDEST PUSH1 0x40 MLOAD PUSH2 0x11E SWAP2 SWAP1 PUSH2 0x16EF JUMP JUMPDEST PUSH1 0x40 MLOAD DUP1 SWAP2 SUB SWAP1 RETURN JUMPDEST CALLVALUE DUP1 ISZERO PUSH2 0x132 JUMPI PUSH0 DUP1 REVERT JUMPDEST POP PUSH2 0x14D PUSH1 0x4 DUP1 CALLDATASIZE SUB DUP2 ADD SWAP1 PUSH2 0x148 SWAP2 SWAP1 PUSH2 0x1834 JUMP JUMPDEST PUSH2 0x82C JUMP JUMPDEST STOP JUMPDEST CALLVALUE DUP1 ISZERO PUSH2 0x15A JUMPI PUSH0 DUP1 REVERT JUMPDEST POP PUSH2 0x163 PUSH2 0xA6B JUMP JUMPDEST STOP JUMPDEST CALLVALUE DUP1 ISZERO PUSH2 0x170 JUMPI PUSH0 DUP1 REVERT JUMPDEST POP PUSH2 0x179 PUSH2 0xD8C JUMP JUMPDEST PUSH1 0x40 MLOAD PUSH2 0x186 SWAP2 SWAP1 PUSH2 0x188A JUMP JUMPDEST PUSH1 0x40 MLOAD DUP1 SWAP2 SUB SWAP1 RETURN JUMPDEST PUSH2 0x197 PUSH2 0x1C1 JUMP JUMPDEST STOP JUMPDEST CALLVALUE DUP1 ISZERO PUSH2 0x1A4 JUMPI PUSH0 DUP1 REVERT JUMPDEST POP PUSH2 0x1BF PUSH1 0x4 DUP1 CALLDATASIZE SUB DUP2 ADD SWAP1 PUSH2 0x1BA SWAP2 SWAP1 PUSH2 0x18CD JUMP JUMPDEST PUSH2 0xDB0 JUMP JUMPDEST STOP JUMPDEST PUSH0 CALLVALUE GT PUSH2 0x203 JUMPI PUSH1 0x40 MLOAD PUSH32 0x8C379A000000000000000000000000000000000000000000000000000000000 DUP2 MSTORE PUSH1 0x4 ADD PUSH2 0x1FA SWAP1 PUSH2 0x1952 JUMP JUMPDEST PUSH1 0x40 MLOAD DUP1 SWAP2 SUB SWAP1 REVERT JUMPDEST CALLVALUE PUSH1 0x2 PUSH0 CALLER PUSH20 0xFFFFFFFFFFFFFFFFFFFFFFFFFFFFFFFFFFFFFFFF AND PUSH20 0xFFFFFFFFFFFFFFFFFFFFFFFFFFFFFFFFFFFFFFFF AND DUP2 MSTORE PUSH1 0x20 ADD SWAP1 DUP2 MSTORE PUSH1 0x20 ADD PUSH0 KECCAK256 PUSH0 DUP3 DUP3 SLOAD PUSH2 0x24F SWAP2 SWAP1 PUSH2 0x199D JUMP JUMPDEST SWAP3 POP POP DUP2 SWAP1 SSTORE POP CALLER PUSH20 0xFFFFFFFFFFFFFFFFFFFFFFFFFFFFFFFFFFFFFFFF AND PUSH32 0x8FE10AE416F22F5E5220B0018A6C1D4FF534D6AA3A471F2A20CB7747FE63E5B9 CALLVALUE PUSH1 0x40 MLOAD PUSH2 0x29C SWAP2 SWAP1 PUSH2 0x16EF JUMP JUMPDEST PUSH1 0x40 MLOAD DUP1 SWAP2 SUB SWAP1 LOG2 JUMP JUMPDEST PUSH1 0x60 PUSH1 0x1 DUP1 SLOAD DUP1 PUSH1 0x20 MUL PUSH1 0x20 ADD PUSH1 0x40 MLOAD SWAP1 DUP2 ADD PUSH1 0x40 MSTORE DUP1 SWAP3 SWAP2 SWAP1 DUP2 DUP2 MSTORE PUSH1 0x20 ADD PUSH0 SWAP1 JUMPDEST DUP3 DUP3 LT ISZERO PUSH2 0x4B2 JUMPI DUP4 DUP3 SWAP1 PUSH0 MSTORE PUSH1 0x20 PUSH0 KECCAK256 SWAP1 PUSH1 0x4 MUL ADD PUSH1 0x40 MLOAD DUP1 PUSH1 0x80 ADD PUSH1 0x40 MSTORE SWAP1 DUP2 PUSH0 DUP3 ADD DUP1 SLOAD PUSH2 0x2F9 SWAP1 PUSH2 0x19FD JUMP JUMPDEST DUP1 PUSH1 0x1F ADD PUSH1 0x20 DUP1 SWAP2 DIV MUL PUSH1 0x20 ADD PUSH1 0x40 MLOAD SWAP1 DUP2 ADD PUSH1 0x40 MSTORE DUP1 SWAP3 SWAP2 SWAP1 DUP2 DUP2 MSTORE PUSH1 0x20 ADD DUP3 DUP1 SLOAD PUSH2 0x325 SWAP1 PUSH2 0x19FD JUMP JUMPDEST DUP1 ISZERO PUSH2 0x370 JUMPI DUP1 PUSH1 0x1F LT PUSH2 0x347 JUMPI PUSH2 0x100 DUP1 DUP4 SLOAD DIV MUL DUP4 MSTORE SWAP2 PUSH1 0x20 ADD SWAP2 PUSH2 0x370 JUMP JUMPDEST DUP3 ADD SWAP2 SWAP1 PUSH0 MSTORE PUSH1 0x20 PUSH0 KECCAK256 SWAP1 JUMPDEST DUP2 SLOAD DUP2 MSTORE SWAP1 PUSH1 0x1 ADD SWAP1 PUSH1 0x20 ADD DUP1 DUP4 GT PUSH2 0x353 JUMPI DUP3 SWAP1 SUB PUSH1 0x1F AND DUP3 ADD SWAP2 JUMPDEST POP POP POP POP POP DUP2 MSTORE PUSH1 0x20 ADD PUSH1 0x1 DUP3 ADD SLOAD DUP2 MSTORE PUSH1 0x20 ADD PUSH1 0x2 DUP3 ADD DUP1 SLOAD PUSH2 0x393 SWAP1 PUSH2 0x19FD JUMP JUMPDEST DUP1 PUSH1 0x1F ADD PUSH1 0x20 DUP1 SWAP2 DIV MUL PUSH1 0x20 ADD PUSH1 0x40 MLOAD SWAP1 DUP2 ADD PUSH1 0x40 MSTORE DUP1 SWAP3 SWAP2 SWAP1 DUP2 DUP2 MSTORE PUSH1 0x20 ADD DUP3 DUP1 SLOAD PUSH2 0x3BF SWAP1 PUSH2 0x19FD JUMP JUMPDEST DUP1 ISZERO PUSH2 0x40A JUMPI DUP1 PUSH1 0x1F LT PUSH2 0x3E1 JUMPI PUSH2 0x100 DUP1 DUP4 SLOAD DIV MUL DUP4 MSTORE SWAP2 PUSH1 0x20 ADD SWAP2 PUSH2 0x40A JUMP JUMPDEST DUP3 ADD SWAP2 SWAP1 PUSH0 MSTORE PUSH1 0x20 PUSH0 KECCAK256 SWAP1 JUMPDEST DUP2 SLOAD DUP2 MSTORE SWAP1 PUSH1 0x1 ADD SWAP1 PUSH1 0x20 ADD DUP1 DUP4 GT PUSH2 0x3ED JUMPI DUP3 SWAP1 SUB PUSH1 0x1F AND DUP3 ADD SWAP2 JUMPDEST POP POP POP POP POP DUP2 MSTORE PUSH1 0x20 ADD PUSH1 0x3 DUP3 ADD DUP1 SLOAD PUSH2 0x423 SWAP1 PUSH2 0x19FD JUMP JUMPDEST DUP1 PUSH1 0x1F ADD PUSH1 0x20 DUP1 SWAP2 DIV MUL PUSH1 0x20 ADD PUSH1 0x40 MLOAD SWAP1 DUP2 ADD PUSH1 0x40 MSTORE DUP1 SWAP3 SWAP2 SWAP1 DUP2 DUP2 MSTORE PUSH1 0x20 ADD DUP3 DUP1 SLOAD PUSH2 0x44F SWAP1 PUSH2 0x19FD JUMP JUMPDEST DUP1 ISZERO PUSH2 0x49A JUMPI DUP1 PUSH1 0x1F LT PUSH2 0x471 JUMPI PUSH2 0x100 DUP1 DUP4 SLOAD DIV MUL DUP4 MSTORE SWAP2 PUSH1 0x20 ADD SWAP2 PUSH2 0x49A JUMP JUMPDEST DUP3 ADD SWAP2 SWAP1 PUSH0 MSTORE PUSH1 0x20 PUSH0 KECCAK256 SWAP1 JUMPDEST DUP2 SLOAD DUP2 MSTORE SWAP1 PUSH1 0x1 ADD SWAP1 PUSH1 0x20 ADD DUP1 DUP4 GT PUSH2 0x47D JUMPI DUP3 SWAP1 SUB PUSH1 0x1F AND DUP3 ADD SWAP2 JUMPDEST POP POP POP POP POP DUP2 MSTORE POP POP DUP2 MSTORE PUSH1 0x20 ADD SWAP1 PUSH1 0x1 ADD SWAP1 PUSH2 0x2C9 JUMP JUMPDEST POP POP POP POP SWAP1 POP SWAP1 JUMP JUMPDEST PUSH1 0x60 PUSH0 DUP1 JUMPDEST PUSH1 0x3 DUP1 SLOAD SWAP1 POP DUP2 LT ISZERO PUSH2 0x55D JUMPI DUP4 PUSH20 0xFFFFFFFFFFFFFFFFFFFFFFFFFFFFFFFFFFFFFFFF AND PUSH1 0x3 DUP3 DUP2 SLOAD DUP2 LT PUSH2 0x4F8 JUMPI PUSH2 0x4F7 PUSH2 0x1A2D JUMP JUMPDEST JUMPDEST SWAP1 PUSH0 MSTORE PUSH1 0x20 PUSH0 KECCAK256 SWAP1 PUSH1 0x4 MUL ADD PUSH0 ADD PUSH0 SWAP1 SLOAD SWAP1 PUSH2 0x100 EXP SWAP1 DIV PUSH20 0xFFFFFFFFFFFFFFFFFFFFFFFFFFFFFFFFFFFFFFFF AND PUSH20 0xFFFFFFFFFFFFFFFFFFFFFFFFFFFFFFFFFFFFFFFF AND SUB PUSH2 0x550 JUMPI DUP2 DUP1 PUSH2 0x54C SWAP1 PUSH2 0x1A5A JUMP JUMPDEST SWAP3 POP POP JUMPDEST DUP1 DUP1 PUSH1 0x1 ADD SWAP2 POP POP PUSH2 0x4C0 JUMP JUMPDEST POP PUSH0 DUP2 PUSH8 0xFFFFFFFFFFFFFFFF DUP2 GT ISZERO PUSH2 0x579 JUMPI PUSH2 0x578 PUSH2 0x1710 JUMP JUMPDEST JUMPDEST PUSH1 0x40 MLOAD SWAP1 DUP1 DUP3 MSTORE DUP1 PUSH1 0x20 MUL PUSH1 0x20 ADD DUP3 ADD PUSH1 0x40 MSTORE DUP1 ISZERO PUSH2 0x5B2 JUMPI DUP2 PUSH1 0x20 ADD JUMPDEST PUSH2 0x59F PUSH2 0x129C JUMP JUMPDEST DUP2 MSTORE PUSH1 0x20 ADD SWAP1 PUSH1 0x1 SWAP1 SUB SWAP1 DUP2 PUSH2 0x597 JUMPI SWAP1 POP JUMPDEST POP SWAP1 POP PUSH0 DUP1 JUMPDEST PUSH1 0x3 DUP1 SLOAD SWAP1 POP DUP2 LT ISZERO PUSH2 0x7DC JUMPI DUP6 PUSH20 0xFFFFFFFFFFFFFFFFFFFFFFFFFFFFFFFFFFFFFFFF AND PUSH1 0x3 DUP3 DUP2 SLOAD DUP2 LT PUSH2 0x5F0 JUMPI PUSH2 0x5EF PUSH2 0x1A2D JUMP JUMPDEST JUMPDEST SWAP1 PUSH0 MSTORE PUSH1 0x20 PUSH0 KECCAK256 SWAP1 PUSH1 0x4 MUL ADD PUSH0 ADD PUSH0 SWAP1 SLOAD SWAP1 PUSH2 0x100 EXP SWAP1 DIV PUSH20 0xFFFFFFFFFFFFFFFFFFFFFFFFFFFFFFFFFFFFFFFF AND PUSH20 0xFFFFFFFFFFFFFFFFFFFFFFFFFFFFFFFFFFFFFFFF AND SUB PUSH2 0x7CF JUMPI PUSH0 PUSH2 0x6EC PUSH1 0x3 DUP4 DUP2 SLOAD DUP2 LT PUSH2 0x651 JUMPI PUSH2 0x650 PUSH2 0x1A2D JUMP JUMPDEST JUMPDEST SWAP1 PUSH0 MSTORE PUSH1 0x20 PUSH0 KECCAK256 SWAP1 PUSH1 0x4 MUL ADD PUSH1 0x1 ADD DUP1 SLOAD PUSH2 0x66B SWAP1 PUSH2 0x19FD JUMP JUMPDEST DUP1 PUSH1 0x1F ADD PUSH1 0x20 DUP1 SWAP2 DIV MUL PUSH1 0x20 ADD PUSH1 0x40 MLOAD SWAP1 DUP2 ADD PUSH1 0x40 MSTORE DUP1 SWAP3 SWAP2 SWAP1 DUP2 DUP2 MSTORE PUSH1 0x20 ADD DUP3 DUP1 SLOAD PUSH2 0x697 SWAP1 PUSH2 0x19FD JUMP JUMPDEST DUP1 ISZERO PUSH2 0x6E2 JUMPI DUP1 PUSH1 0x1F LT PUSH2 0x6B9 JUMPI PUSH2 0x100 DUP1 DUP4 SLOAD DIV MUL DUP4 MSTORE SWAP2 PUSH1 0x20 ADD SWAP2 PUSH2 0x6E2 JUMP JUMPDEST DUP3 ADD SWAP2 SWAP1 PUSH0 MSTORE PUSH1 0x20 PUSH0 KECCAK256 SWAP1 JUMPDEST DUP2 SLOAD DUP2 MSTORE SWAP1 PUSH1 0x1 ADD SWAP1 PUSH1 0x20 ADD DUP1 DUP4 GT PUSH2 0x6C5 JUMPI DUP3 SWAP1 SUB PUSH1 0x1F AND DUP3 ADD SWAP2 JUMPDEST POP POP POP POP POP PUSH2 0xFD7 JUMP JUMPDEST SWAP1 POP PUSH1 0x40 MLOAD DUP1 PUSH1 0xC0 ADD PUSH1 0x40 MSTORE DUP1 DUP4 DUP2 MSTORE PUSH1 0x20 ADD DUP3 PUSH1 0x40 ADD MLOAD DUP2 MSTORE PUSH1 0x20 ADD DUP3 PUSH1 0x60 ADD MLOAD DUP2 MSTORE PUSH1 0x20 ADD DUP3 PUSH1 0x20 ADD MLOAD DUP2 MSTORE PUSH1 0x20 ADD PUSH1 0x3 DUP5 DUP2 SLOAD DUP2 LT PUSH2 0x731 JUMPI PUSH2 0x730 PUSH2 0x1A2D JUMP JUMPDEST JUMPDEST SWAP1 PUSH0 MSTORE PUSH1 0x20 PUSH0 KECCAK256 SWAP1 PUSH1 0x4 MUL ADD PUSH1 0x2 ADD SLOAD DUP2 MSTORE PUSH1 0x20 ADD PUSH1 0x1 DUP1 DUP2 GT ISZERO PUSH2 0x759 JUMPI PUSH2 0x758 PUSH2 0x1AA1 JUMP JUMPDEST JUMPDEST PUSH1 0x3 DUP6 DUP2 SLOAD DUP2 LT PUSH2 0x76D JUMPI PUSH2 0x76C PUSH2 0x1A2D JUMP JUMPDEST JUMPDEST SWAP1 PUSH0 MSTORE PUSH1 0x20 PUSH0 KECCAK256 SWAP1 PUSH1 0x4 MUL ADD PUSH1 0x3 ADD PUSH0 SWAP1 SLOAD SWAP1 PUSH2 0x100 EXP SWAP1 DIV PUSH1 0xFF AND PUSH1 0x1 DUP2 GT ISZERO PUSH2 0x79B JUMPI PUSH2 0x79A PUSH2 0x1AA1 JUMP JUMPDEST JUMPDEST EQ ISZERO ISZERO DUP2 MSTORE POP DUP5 DUP5 DUP2 MLOAD DUP2 LT PUSH2 0x7B4 JUMPI PUSH2 0x7B3 PUSH2 0x1A2D JUMP JUMPDEST JUMPDEST PUSH1 0x20 MUL PUSH1 0x20 ADD ADD DUP2 SWAP1 MSTORE POP DUP3 DUP1 PUSH2 0x7CA SWAP1 PUSH2 0x1A5A JUMP JUMPDEST SWAP4 POP POP POP JUMPDEST DUP1 DUP1 PUSH1 0x1 ADD SWAP2 POP POP PUSH2 0x5B8 JUMP JUMPDEST POP DUP2 SWAP4 POP POP POP POP SWAP2 SWAP1 POP JUMP JUMPDEST PUSH0 PUSH1 0x2 PUSH0 CALLER PUSH20 0xFFFFFFFFFFFFFFFFFFFFFFFFFFFFFFFFFFFFFFFF AND PUSH20 0xFFFFFFFFFFFFFFFFFFFFFFFFFFFFFFFFFFFFFFFF AND DUP2 MSTORE PUSH1 0x20 ADD SWAP1 DUP2 MSTORE PUSH1 0x20 ADD PUSH0 KECCAK256 SLOAD SWAP1 POP SWAP1 JUMP JUMPDEST PUSH0 PUSH2 0x836 DUP3 PUSH2 0xFD7 JUMP JUMPDEST PUSH1 0x20 ADD MLOAD SWAP1 POP DUP1 PUSH1 0x2 PUSH0 CALLER PUSH20 0xFFFFFFFFFFFFFFFFFFFFFFFFFFFFFFFFFFFFFFFF AND PUSH20 0xFFFFFFFFFFFFFFFFFFFFFFFFFFFFFFFFFFFFFFFF AND DUP2 MSTORE PUSH1 0x20 ADD SWAP1 DUP2 MSTORE PUSH1 0x20 ADD PUSH0 KECCAK256 SLOAD LT ISZERO PUSH2 0x8BC JUMPI PUSH1 0x40 MLOAD PUSH32 0x8C379A000000000000000000000000000000000000000000000000000000000 DUP2 MSTORE PUSH1 0x4 ADD PUSH2 0x8B3 SWAP1 PUSH2 0x1B18 JUMP JUMPDEST PUSH1 0x40 MLOAD DUP1 SWAP2 SUB SWAP1 REVERT JUMPDEST DUP1 PUSH1 0x2 PUSH0 CALLER PUSH20 0xFFFFFFFFFFFFFFFFFFFFFFFFFFFFFFFFFFFFFFFF AND PUSH20 0xFFFFFFFFFFFFFFFFFFFFFFFFFFFFFFFFFFFFFFFF AND DUP2 MSTORE PUSH1 0x20 ADD SWAP1 DUP2 MSTORE PUSH1 0x20 ADD PUSH0 KECCAK256 PUSH0 DUP3 DUP3 SLOAD PUSH2 0x908 SWAP2 SWAP1 PUSH2 0x1B36 JUMP JUMPDEST SWAP3 POP POP DUP2 SWAP1 SSTORE POP PUSH1 0x3 PUSH1 0x40 MLOAD DUP1 PUSH1 0x80 ADD PUSH1 0x40 MSTORE DUP1 CALLER PUSH20 0xFFFFFFFFFFFFFFFFFFFFFFFFFFFFFFFFFFFFFFFF AND DUP2 MSTORE PUSH1 0x20 ADD DUP5 DUP2 MSTORE PUSH1 0x20 ADD TIMESTAMP DUP2 MSTORE PUSH1 0x20 ADD PUSH0 PUSH1 0x1 DUP2 GT ISZERO PUSH2 0x957 JUMPI PUSH2 0x956 PUSH2 0x1AA1 JUMP JUMPDEST JUMPDEST DUP2 MSTORE POP SWAP1 DUP1 PUSH1 0x1 DUP2 SLOAD ADD DUP1 DUP3 SSTORE DUP1 SWAP2 POP POP PUSH1 0x1 SWAP1 SUB SWAP1 PUSH0 MSTORE PUSH1 0x20 PUSH0 KECCAK256 SWAP1 PUSH1 0x4 MUL ADD PUSH0 SWAP1 SWAP2 SWAP1 SWAP2 SWAP1 SWAP2 POP PUSH0 DUP3 ADD MLOAD DUP2 PUSH0 ADD PUSH0 PUSH2 0x100 EXP DUP2 SLOAD DUP2 PUSH20 0xFFFFFFFFFFFFFFFFFFFFFFFFFFFFFFFFFFFFFFFF MUL NOT AND SWAP1 DUP4 PUSH20 0xFFFFFFFFFFFFFFFFFFFFFFFFFFFFFFFFFFFFFFFF AND MUL OR SWAP1 SSTORE POP PUSH1 0x20 DUP3 ADD MLOAD DUP2 PUSH1 0x1 ADD SWAP1 DUP2 PUSH2 0x9D9 SWAP2 SWAP1 PUSH2 0x1D06 JUMP JUMPDEST POP PUSH1 0x40 DUP3 ADD MLOAD DUP2 PUSH1 0x2 ADD SSTORE PUSH1 0x60 DUP3 ADD MLOAD DUP2 PUSH1 0x3 ADD PUSH0 PUSH2 0x100 EXP DUP2 SLOAD DUP2 PUSH1 0xFF MUL NOT AND SWAP1 DUP4 PUSH1 0x1 DUP2 GT ISZERO PUSH2 0xA0E JUMPI PUSH2 0xA0D PUSH2 0x1AA1 JUMP JUMPDEST JUMPDEST MUL OR SWAP1 SSTORE POP POP POP CALLER PUSH20 0xFFFFFFFFFFFFFFFFFFFFFFFFFFFFFFFFFFFFFFFF AND PUSH32 0x63D8E5C0BF4559E61EE479385882367114D00D044CDBF28449BF437737DB31AF DUP4 DUP4 TIMESTAMP PUSH1 0x40 MLOAD PUSH2 0xA5F SWAP4 SWAP3 SWAP2 SWAP1 PUSH2 0x1E0D JUMP JUMPDEST PUSH1 0x40 MLOAD DUP1 SWAP2 SUB SWAP1 LOG2 POP POP JUMP JUMPDEST PUSH32 0x0 PUSH20 0xFFFFFFFFFFFFFFFFFFFFFFFFFFFFFFFFFFFFFFFF AND CALLER PUSH20 0xFFFFFFFFFFFFFFFFFFFFFFFFFFFFFFFFFFFFFFFF AND EQ PUSH2 0xAF9 JUMPI PUSH1 0x40 MLOAD PUSH32 0x8C379A000000000000000000000000000000000000000000000000000000000 DUP2 MSTORE PUSH1 0x4 ADD PUSH2 0xAF0 SWAP1 PUSH2 0x1EB9 JUMP JUMPDEST PUSH1 0x40 MLOAD DUP1 SWAP2 SUB SWAP1 REVERT JUMPDEST PUSH0 DUP1 SLOAD SWAP1 PUSH2 0x100 EXP SWAP1 DIV PUSH1 0xFF AND ISZERO PUSH2 0xB4F JUMPI CALLER PUSH20 0xFFFFFFFFFFFFFFFFFFFFFFFFFFFFFFFFFFFFFFFF AND PUSH32 0xC76EAF55FE0C62418848780C99C0C94A15F79B80BCA75629B0B8BD07678F55B6 PUSH1 0x40 MLOAD PUSH1 0x40 MLOAD DUP1 SWAP2 SUB SWAP1 LOG2 JUMPDEST PUSH0 DUP1 SLOAD SWAP1 PUSH2 0x100 EXP SWAP1 DIV PUSH1 0xFF AND ISZERO PUSH2 0xB9C JUMPI PUSH1 0x40 MLOAD PUSH32 0x8C379A000000000000000000000000000000000000000000000000000000000 DUP2 MSTORE PUSH1 0x4 ADD PUSH2 0xB93 SWAP1 PUSH2 0x1F21 JUMP JUMPDEST PUSH1 0x40 MLOAD DUP1 SWAP2 SUB SWAP1 REVERT JUMPDEST PUSH1 0x1 PUSH0 DUP1 PUSH2 0x100 EXP DUP2 SLOAD DUP2 PUSH1 0xFF MUL NOT AND SWAP1 DUP4 ISZERO ISZERO MUL OR SWAP1 SSTORE POP PUSH0 PUSH1 0x2 PUSH0 CALLER PUSH20 0xFFFFFFFFFFFFFFFFFFFFFFFFFFFFFFFFFFFFFFFF AND PUSH20 0xFFFFFFFFFFFFFFFFFFFFFFFFFFFFFFFFFFFFFFFF AND DUP2 MSTORE PUSH1 0x20 ADD SWAP1 DUP2 MSTORE PUSH1 0x20 ADD PUSH0 KECCAK256 SLOAD SWAP1 POP PUSH0 DUP2 GT PUSH2 0xC38 JUMPI PUSH1 0x40 MLOAD PUSH32 0x8C379A000000000000000000000000000000000000000000000000000000000 DUP2 MSTORE PUSH1 0x4 ADD PUSH2 0xC2F SWAP1 PUSH2 0x1F89 JUMP JUMPDEST PUSH1 0x40 MLOAD DUP1 SWAP2 SUB SWAP1 REVERT JUMPDEST PUSH0 PUSH1 0x2 PUSH0 CALLER PUSH20 0xFFFFFFFFFFFFFFFFFFFFFFFFFFFFFFFFFFFFFFFF AND PUSH20 0xFFFFFFFFFFFFFFFFFFFFFFFFFFFFFFFFFFFFFFFF AND DUP2 MSTORE PUSH1 0x20 ADD SWAP1 DUP2 MSTORE PUSH1 0x20 ADD PUSH0 KECCAK256 DUP2 SWAP1 SSTORE POP PUSH0 CALLER PUSH20 0xFFFFFFFFFFFFFFFFFFFFFFFFFFFFFFFFFFFFFFFF AND DUP3 PUSH1 0x40 MLOAD PUSH2 0xC9F SWAP1 PUSH2 0x1FD4 JUMP JUMPDEST PUSH0 PUSH1 0x40 MLOAD DUP1 DUP4 SUB DUP2 DUP6 DUP8 GAS CALL SWAP3 POP POP POP RETURNDATASIZE DUP1 PUSH0 DUP2 EQ PUSH2 0xCD9 JUMPI PUSH1 0x40 MLOAD SWAP2 POP PUSH1 0x1F NOT PUSH1 0x3F RETURNDATASIZE ADD AND DUP3 ADD PUSH1 0x40 MSTORE RETURNDATASIZE DUP3 MSTORE RETURNDATASIZE PUSH0 PUSH1 0x20 DUP5 ADD RETURNDATACOPY PUSH2 0xCDE JUMP JUMPDEST PUSH1 0x60 SWAP2 POP JUMPDEST POP POP SWAP1 POP DUP1 PUSH2 0xD22 JUMPI PUSH1 0x40 MLOAD PUSH32 0x8C379A000000000000000000000000000000000000000000000000000000000 DUP2 MSTORE PUSH1 0x4 ADD PUSH2 0xD19 SWAP1 PUSH2 0x2032 JUMP JUMPDEST PUSH1 0x40 MLOAD DUP1 SWAP2 SUB SWAP1 REVERT JUMPDEST CALLER PUSH20 0xFFFFFFFFFFFFFFFFFFFFFFFFFFFFFFFFFFFFFFFF AND PUSH32 0x7FCF532C15F0A6DB0BD6D0E038BEA71D30D808C7D98CB3BF7268A95BF5081B65 DUP4 PUSH1 0x40 MLOAD PUSH2 0xD68 SWAP2 SWAP1 PUSH2 0x16EF JUMP JUMPDEST PUSH1 0x40 MLOAD DUP1 SWAP2 SUB SWAP1 LOG2 POP POP PUSH0 DUP1 PUSH0 PUSH2 0x100 EXP DUP2 SLOAD DUP2 PUSH1 0xFF MUL NOT AND SWAP1 DUP4 ISZERO ISZERO MUL OR SWAP1 SSTORE POP JUMP JUMPDEST PUSH32 0x0 DUP2 JUMP JUMPDEST PUSH1 0x3 DUP1 SLOAD SWAP1 POP DUP2 LT PUSH2 0xDF7 JUMPI PUSH1 0x40 MLOAD PUSH32 0x8C379A000000000000000000000000000000000000000000000000000000000 DUP2 MSTORE PUSH1 0x4 ADD PUSH2 0xDEE SWAP1 PUSH2 0x209A JUMP JUMPDEST PUSH1 0x40 MLOAD DUP1 SWAP2 SUB SWAP1 REVERT JUMPDEST CALLER PUSH20 0xFFFFFFFFFFFFFFFFFFFFFFFFFFFFFFFFFFFFFFFF AND PUSH1 0x3 DUP3 DUP2 SLOAD DUP2 LT PUSH2 0xE22 JUMPI PUSH2 0xE21 PUSH2 0x1A2D JUMP JUMPDEST JUMPDEST SWAP1 PUSH0 MSTORE PUSH1 0x20 PUSH0 KECCAK256 SWAP1 PUSH1 0x4 MUL ADD PUSH0 ADD PUSH0 SWAP1 SLOAD SWAP1 PUSH2 0x100 EXP SWAP1 DIV PUSH20 0xFFFFFFFFFFFFFFFFFFFFFFFFFFFFFFFFFFFFFFFF AND PUSH20 0xFFFFFFFFFFFFFFFFFFFFFFFFFFFFFFFFFFFFFFFF AND EQ PUSH2 0xEA6 JUMPI PUSH1 0x40 MLOAD PUSH32 0x8C379A000000000000000000000000000000000000000000000000000000000 DUP2 MSTORE PUSH1 0x4 ADD PUSH2 0xE9D SWAP1 PUSH2 0x2102 JUMP JUMPDEST PUSH1 0x40 MLOAD DUP1 SWAP2 SUB SWAP1 REVERT JUMPDEST PUSH0 PUSH1 0x1 DUP2 GT ISZERO PUSH2 0xEB9 JUMPI PUSH2 0xEB8 PUSH2 0x1AA1 JUMP JUMPDEST JUMPDEST PUSH1 0x3 DUP3 DUP2 SLOAD DUP2 LT PUSH2 0xECD JUMPI PUSH2 0xECC PUSH2 0x1A2D JUMP JUMPDEST JUMPDEST SWAP1 PUSH0 MSTORE PUSH1 0x20 PUSH0 KECCAK256 SWAP1 PUSH1 0x4 MUL ADD PUSH1 0x3 ADD PUSH0 SWAP1 SLOAD SWAP1 PUSH2 0x100 EXP SWAP1 DIV PUSH1 0xFF AND PUSH1 0x1 DUP2 GT ISZERO PUSH2 0xEFB JUMPI PUSH2 0xEFA PUSH2 0x1AA1 JUMP JUMPDEST JUMPDEST EQ PUSH2 0xF3B JUMPI PUSH1 0x40 MLOAD PUSH32 0x8C379A000000000000000000000000000000000000000000000000000000000 DUP2 MSTORE PUSH1 0x4 ADD PUSH2 0xF32 SWAP1 PUSH2 0x216A JUMP JUMPDEST PUSH1 0x40 MLOAD DUP1 SWAP2 SUB SWAP1 REVERT JUMPDEST PUSH1 0x1 PUSH1 0x3 DUP3 DUP2 SLOAD DUP2 LT PUSH2 0xF51 JUMPI PUSH2 0xF50 PUSH2 0x1A2D JUMP JUMPDEST JUMPDEST SWAP1 PUSH0 MSTORE PUSH1 0x20 PUSH0 KECCAK256 SWAP1 PUSH1 0x4 MUL ADD PUSH1 0x3 ADD PUSH0 PUSH2 0x100 EXP DUP2 SLOAD DUP2 PUSH1 0xFF MUL NOT AND SWAP1 DUP4 PUSH1 0x1 DUP2 GT ISZERO PUSH2 0xF81 JUMPI PUSH2 0xF80 PUSH2 0x1AA1 JUMP JUMPDEST JUMPDEST MUL OR SWAP1 SSTORE POP CALLER PUSH20 0xFFFFFFFFFFFFFFFFFFFFFFFFFFFFFFFFFFFFFFFF AND PUSH32 0xA7C459BC1ADA656EC9F3F0E9562DCD1353B12B0FD5CC82657C4CECDC0DBA6B82 DUP3 PUSH1 0x40 MLOAD PUSH2 0xFCC SWAP2 SWAP1 PUSH2 0x16EF JUMP JUMPDEST PUSH1 0x40 MLOAD DUP1 SWAP2 SUB SWAP1 LOG2 POP JUMP JUMPDEST PUSH2 0xFDF PUSH2 0x12D0 JUMP JUMPDEST PUSH0 JUMPDEST PUSH1 0x1 DUP1 SLOAD SWAP1 POP DUP2 LT ISZERO PUSH2 0x125B JUMPI DUP3 PUSH1 0x40 MLOAD PUSH1 0x20 ADD PUSH2 0xFFF SWAP2 SWAP1 PUSH2 0x21C2 JUMP JUMPDEST PUSH1 0x40 MLOAD PUSH1 0x20 DUP2 DUP4 SUB SUB DUP2 MSTORE SWAP1 PUSH1 0x40 MSTORE DUP1 MLOAD SWAP1 PUSH1 0x20 ADD KECCAK256 PUSH1 0x1 DUP3 DUP2 SLOAD DUP2 LT PUSH2 0x1029 JUMPI PUSH2 0x1028 PUSH2 0x1A2D JUMP JUMPDEST JUMPDEST SWAP1 PUSH0 MSTORE PUSH1 0x20 PUSH0 KECCAK256 SWAP1 PUSH1 0x4 MUL ADD PUSH0 ADD PUSH1 0x40 MLOAD PUSH1 0x20 ADD PUSH2 0x1047 SWAP2 SWAP1 PUSH2 0x2258 JUMP JUMPDEST PUSH1 0x40 MLOAD PUSH1 0x20 DUP2 DUP4 SUB SUB DUP2 MSTORE SWAP1 PUSH1 0x40 MSTORE DUP1 MLOAD SWAP1 PUSH1 0x20 ADD KECCAK256 SUB PUSH2 0x124E JUMPI PUSH1 0x1 DUP2 DUP2 SLOAD DUP2 LT PUSH2 0x1076 JUMPI PUSH2 0x1075 PUSH2 0x1A2D JUMP JUMPDEST JUMPDEST SWAP1 PUSH0 MSTORE PUSH1 0x20 PUSH0 KECCAK256 SWAP1 PUSH1 0x4 MUL ADD PUSH1 0x40 MLOAD DUP1 PUSH1 0x80 ADD PUSH1 0x40 MSTORE SWAP1 DUP2 PUSH0 DUP3 ADD DUP1 SLOAD PUSH2 0x109C SWAP1 PUSH2 0x19FD JUMP JUMPDEST DUP1 PUSH1 0x1F ADD PUSH1 0x20 DUP1 SWAP2 DIV MUL PUSH1 0x20 ADD PUSH1 0x40 MLOAD SWAP1 DUP2 ADD PUSH1 0x40 MSTORE DUP1 SWAP3 SWAP2 SWAP1 DUP2 DUP2 MSTORE PUSH1 0x20 ADD DUP3 DUP1 SLOAD PUSH2 0x10C8 SWAP1 PUSH2 0x19FD JUMP JUMPDEST DUP1 ISZERO PUSH2 0x1113 JUMPI DUP1 PUSH1 0x1F LT PUSH2 0x10EA JUMPI PUSH2 0x100 DUP1 DUP4 SLOAD DIV MUL DUP4 MSTORE SWAP2 PUSH1 0x20 ADD SWAP2 PUSH2 0x1113 JUMP JUMPDEST DUP3 ADD SWAP2 SWAP1 PUSH0 MSTORE PUSH1 0x20 PUSH0 KECCAK256 SWAP1 JUMPDEST DUP2 SLOAD DUP2 MSTORE SWAP1 PUSH1 0x1 ADD SWAP1 PUSH1 0x20 ADD DUP1 DUP4 GT PUSH2 0x10F6 JUMPI DUP3 SWAP1 SUB PUSH1 0x1F AND DUP3 ADD SWAP2 JUMPDEST POP POP POP POP POP DUP2 MSTORE PUSH1 0x20 ADD PUSH1 0x1 DUP3 ADD SLOAD DUP2 MSTORE PUSH1 0x20 ADD PUSH1 0x2 DUP3 ADD DUP1 SLOAD PUSH2 0x1136 SWAP1 PUSH2 0x19FD JUMP JUMPDEST DUP1 PUSH1 0x1F ADD PUSH1 0x20 DUP1 SWAP2 DIV MUL PUSH1 0x20 ADD PUSH1 0x40 MLOAD SWAP1 DUP2 ADD PUSH1 0x40 MSTORE DUP1 SWAP3 SWAP2 SWAP1 DUP2 DUP2 MSTORE PUSH1 0x20 ADD DUP3 DUP1 SLOAD PUSH2 0x1162 SWAP1 PUSH2 0x19FD JUMP JUMPDEST DUP1 ISZERO PUSH2 0x11AD JUMPI DUP1 PUSH1 0x1F LT PUSH2 0x1184 JUMPI PUSH2 0x100 DUP1 DUP4 SLOAD DIV MUL DUP4 MSTORE SWAP2 PUSH1 0x20 ADD SWAP2 PUSH2 0x11AD JUMP JUMPDEST DUP3 ADD SWAP2 SWAP1 PUSH0 MSTORE PUSH1 0x20 PUSH0 KECCAK256 SWAP1 JUMPDEST DUP2 SLOAD DUP2 MSTORE SWAP1 PUSH1 0x1 ADD SWAP1 PUSH1 0x20 ADD DUP1 DUP4 GT PUSH2 0x1190 JUMPI DUP3 SWAP1 SUB PUSH1 0x1F AND DUP3 ADD SWAP2 JUMPDEST POP POP POP POP POP DUP2 MSTORE PUSH1 0x20 ADD PUSH1 0x3 DUP3 ADD DUP1 SLOAD PUSH2 0x11C6 SWAP1 PUSH2 0x19FD JUMP JUMPDEST DUP1 PUSH1 0x1F ADD PUSH1 0x20 DUP1 SWAP2 DIV MUL PUSH1 0x20 ADD PUSH1 0x40 MLOAD SWAP1 DUP2 ADD PUSH1 0x40 MSTORE DUP1 SWAP3 SWAP2 SWAP1 DUP2 DUP2 MSTORE PUSH1 0x20 ADD DUP3 DUP1 SLOAD PUSH2 0x11F2 SWAP1 PUSH2 0x19FD JUMP JUMPDEST DUP1 ISZERO PUSH2 0x123D JUMPI DUP1 PUSH1 0x1F LT PUSH2 0x1214 JUMPI PUSH2 0x100 DUP1 DUP4 SLOAD DIV MUL DUP4 MSTORE SWAP2 PUSH1 0x20 ADD SWAP2 PUSH2 0x123D JUMP JUMPDEST DUP3 ADD SWAP2 SWAP1 PUSH0 MSTORE PUSH1 0x20 PUSH0 KECCAK256 SWAP1 JUMPDEST DUP2 SLOAD DUP2 MSTORE SWAP1 PUSH1 0x1 ADD SWAP1 PUSH1 0x20 ADD DUP1 DUP4 GT PUSH2 0x1220 JUMPI DUP3 SWAP1 SUB PUSH1 0x1F AND DUP3 ADD SWAP2 JUMPDEST POP POP POP POP POP DUP2 MSTORE POP POP SWAP2 POP POP PUSH2 0x1297 JUMP JUMPDEST DUP1 DUP1 PUSH1 0x1 ADD SWAP2 POP POP PUSH2 0xFE1 JUMP JUMPDEST POP PUSH1 0x40 MLOAD PUSH32 0x8C379A000000000000000000000000000000000000000000000000000000000 DUP2 MSTORE PUSH1 0x4 ADD PUSH2 0x128E SWAP1 PUSH2 0x22B8 JUMP JUMPDEST PUSH1 0x40 MLOAD DUP1 SWAP2 SUB SWAP1 REVERT JUMPDEST SWAP2 SWAP1 POP JUMP JUMPDEST PUSH1 0x40 MLOAD DUP1 PUSH1 0xC0 ADD PUSH1 0x40 MSTORE DUP1 PUSH0 DUP2 MSTORE PUSH1 0x20 ADD PUSH1 0x60 DUP2 MSTORE PUSH1 0x20 ADD PUSH1 0x60 DUP2 MSTORE PUSH1 0x20 ADD PUSH0 DUP2 MSTORE PUSH1 0x20 ADD PUSH0 DUP2 MSTORE PUSH1 0x20 ADD PUSH0 ISZERO ISZERO DUP2 MSTORE POP SWAP1 JUMP JUMPDEST PUSH1 0x40 MLOAD DUP1 PUSH1 0x80 ADD PUSH1 0x40 MSTORE DUP1 PUSH1 0x60 DUP2 MSTORE PUSH1 0x20 ADD PUSH0 DUP2 MSTORE PUSH1 0x20 ADD PUSH1 0x60 DUP2 MSTORE PUSH1 0x20 ADD PUSH1 0x60 DUP2 MSTORE POP SWAP1 JUMP JUMPDEST PUSH0 DUP2 MLOAD SWAP1 POP SWAP2 SWAP1 POP JUMP JUMPDEST PUSH0 DUP3 DUP3 MSTORE PUSH1 0x20 DUP3 ADD SWAP1 POP SWAP3 SWAP2 POP POP JUMP JUMPDEST PUSH0 DUP2 SWAP1 POP PUSH1 0x20 DUP3 ADD SWAP1 POP SWAP2 SWAP1 POP JUMP JUMPDEST PUSH0 DUP2 MLOAD SWAP1 POP SWAP2 SWAP1 POP JUMP JUMPDEST PUSH0 DUP3 DUP3 MSTORE PUSH1 0x20 DUP3 ADD SWAP1 POP SWAP3 SWAP2 POP POP JUMP JUMPDEST DUP3 DUP2 DUP4 MCOPY PUSH0 DUP4 DUP4 ADD MSTORE POP POP POP JUMP JUMPDEST PUSH0 PUSH1 0x1F NOT PUSH1 0x1F DUP4 ADD AND SWAP1 POP SWAP2 SWAP1 POP JUMP JUMPDEST PUSH0 PUSH2 0x1362 DUP3 PUSH2 0x1320 JUMP JUMPDEST PUSH2 0x136C DUP2 DUP6 PUSH2 0x132A JUMP JUMPDEST SWAP4 POP PUSH2 0x137C DUP2 DUP6 PUSH1 0x20 DUP7 ADD PUSH2 0x133A JUMP JUMPDEST PUSH2 0x1385 DUP2 PUSH2 0x1348 JUMP JUMPDEST DUP5 ADD SWAP2 POP POP SWAP3 SWAP2 POP POP JUMP JUMPDEST PUSH0 DUP2 SWAP1 POP SWAP2 SWAP1 POP JUMP JUMPDEST PUSH2 0x13A2 DUP2 PUSH2 0x1390 JUMP JUMPDEST DUP3 MSTORE POP POP JUMP JUMPDEST PUSH0 PUSH1 0x80 DUP4 ADD PUSH0 DUP4 ADD MLOAD DUP5 DUP3 SUB PUSH0 DUP7 ADD MSTORE PUSH2 0x13C2 DUP3 DUP3 PUSH2 0x1358 JUMP JUMPDEST SWAP2 POP POP PUSH1 0x20 DUP4 ADD MLOAD PUSH2 0x13D7 PUSH1 0x20 DUP7 ADD DUP3 PUSH2 0x1399 JUMP JUMPDEST POP PUSH1 0x40 DUP4 ADD MLOAD DUP5 DUP3 SUB PUSH1 0x40 DUP7 ADD MSTORE PUSH2 0x13EF DUP3 DUP3 PUSH2 0x1358 JUMP JUMPDEST SWAP2 POP POP PUSH1 0x60 DUP4 ADD MLOAD DUP5 DUP3 SUB PUSH1 0x60 DUP7 ADD MSTORE PUSH2 0x1409 DUP3 DUP3 PUSH2 0x1358 JUMP JUMPDEST SWAP2 POP POP DUP1 SWAP2 POP POP SWAP3 SWAP2 POP POP JUMP JUMPDEST PUSH0 PUSH2 0x1421 DUP4 DUP4 PUSH2 0x13A8 JUMP JUMPDEST SWAP1 POP SWAP3 SWAP2 POP POP JUMP JUMPDEST PUSH0 PUSH1 0x20 DUP3 ADD SWAP1 POP SWAP2 SWAP1 POP JUMP JUMPDEST PUSH0 PUSH2 0x143F DUP3 PUSH2 0x12F7 JUMP JUMPDEST PUSH2 0x1449 DUP2 DUP6 PUSH2 0x1301 JUMP JUMPDEST SWAP4 POP DUP4 PUSH1 0x20 DUP3 MUL DUP6 ADD PUSH2 0x145B DUP6 PUSH2 0x1311 JUMP JUMPDEST DUP1 PUSH0 JUMPDEST DUP6 DUP2 LT ISZERO PUSH2 0x1496 JUMPI DUP5 DUP5 SUB DUP10 MSTORE DUP2 MLOAD PUSH2 0x1477 DUP6 DUP3 PUSH2 0x1416 JUMP JUMPDEST SWAP5 POP PUSH2 0x1482 DUP4 PUSH2 0x1429 JUMP JUMPDEST SWAP3 POP PUSH1 0x20 DUP11 ADD SWAP10 POP POP PUSH1 0x1 DUP2 ADD SWAP1 POP PUSH2 0x145E JUMP JUMPDEST POP DUP3 SWAP8 POP DUP8 SWAP6 POP POP POP POP POP POP SWAP3 SWAP2 POP POP JUMP JUMPDEST PUSH0 PUSH1 0x20 DUP3 ADD SWAP1 POP DUP2 DUP2 SUB PUSH0 DUP4 ADD MSTORE PUSH2 0x14C0 DUP2 DUP5 PUSH2 0x1435 JUMP JUMPDEST SWAP1 POP SWAP3 SWAP2 POP POP JUMP JUMPDEST PUSH0 PUSH1 0x40 MLOAD SWAP1 POP SWAP1 JUMP JUMPDEST PUSH0 DUP1 REVERT JUMPDEST PUSH0 DUP1 REVERT JUMPDEST PUSH0 PUSH20 0xFFFFFFFFFFFFFFFFFFFFFFFFFFFFFFFFFFFFFFFF DUP3 AND SWAP1 POP SWAP2 SWAP1 POP JUMP JUMPDEST PUSH0 PUSH2 0x1502 DUP3 PUSH2 0x14D9 JUMP JUMPDEST SWAP1 POP SWAP2 SWAP1 POP JUMP JUMPDEST PUSH2 0x1512 DUP2 PUSH2 0x14F8 JUMP JUMPDEST DUP2 EQ PUSH2 0x151C JUMPI PUSH0 DUP1 REVERT JUMPDEST POP JUMP JUMPDEST PUSH0 DUP2 CALLDATALOAD SWAP1 POP PUSH2 0x152D DUP2 PUSH2 0x1509 JUMP JUMPDEST SWAP3 SWAP2 POP POP JUMP JUMPDEST PUSH0 PUSH1 0x20 DUP3 DUP5 SUB SLT ISZERO PUSH2 0x1548 JUMPI PUSH2 0x1547 PUSH2 0x14D1 JUMP JUMPDEST JUMPDEST PUSH0 PUSH2 0x1555 DUP5 DUP3 DUP6 ADD PUSH2 0x151F JUMP JUMPDEST SWAP2 POP POP SWAP3 SWAP2 POP POP JUMP JUMPDEST PUSH0 DUP2 MLOAD SWAP1 POP SWAP2 SWAP1 POP JUMP JUMPDEST PUSH0 DUP3 DUP3 MSTORE PUSH1 0x20 DUP3 ADD SWAP1 POP SWAP3 SWAP2 POP POP JUMP JUMPDEST PUSH0 DUP2 SWAP1 POP PUSH1 0x20 DUP3 ADD SWAP1 POP SWAP2 SWAP1 POP JUMP JUMPDEST PUSH0 DUP2 ISZERO ISZERO SWAP1 POP SWAP2 SWAP1 POP JUMP JUMPDEST PUSH2 0x159B DUP2 PUSH2 0x1587 JUMP JUMPDEST DUP3 MSTORE POP POP JUMP JUMPDEST PUSH0 PUSH1 0xC0 DUP4 ADD PUSH0 DUP4 ADD MLOAD PUSH2 0x15B6 PUSH0 DUP7 ADD DUP3 PUSH2 0x1399 JUMP JUMPDEST POP PUSH1 0x20 DUP4 ADD MLOAD DUP5 DUP3 SUB PUSH1 0x20 DUP7 ADD MSTORE PUSH2 0x15CE DUP3 DUP3 PUSH2 0x1358 JUMP JUMPDEST SWAP2 POP POP PUSH1 0x40 DUP4 ADD MLOAD DUP5 DUP3 SUB PUSH1 0x40 DUP7 ADD MSTORE PUSH2 0x15E8 DUP3 DUP3 PUSH2 0x1358 JUMP JUMPDEST SWAP2 POP POP PUSH1 0x60 DUP4 ADD MLOAD PUSH2 0x15FD PUSH1 0x60 DUP7 ADD DUP3 PUSH2 0x1399 JUMP JUMPDEST POP PUSH1 0x80 DUP4 ADD MLOAD PUSH2 0x1610 PUSH1 0x80 DUP7 ADD DUP3 PUSH2 0x1399 JUMP JUMPDEST POP PUSH1 0xA0 DUP4 ADD MLOAD PUSH2 0x1623 PUSH1 0xA0 DUP7 ADD DUP3 PUSH2 0x1592 JUMP JUMPDEST POP DUP1 SWAP2 POP POP SWAP3 SWAP2 POP POP JUMP JUMPDEST PUSH0 PUSH2 0x1639 DUP4 DUP4 PUSH2 0x15A1 JUMP JUMPDEST SWAP1 POP SWAP3 SWAP2 POP POP JUMP JUMPDEST PUSH0 PUSH1 0x20 DUP3 ADD SWAP1 POP SWAP2 SWAP1 POP JUMP JUMPDEST PUSH0 PUSH2 0x1657 DUP3 PUSH2 0x155E JUMP JUMPDEST PUSH2 0x1661 DUP2 DUP6 PUSH2 0x1568 JUMP JUMPDEST SWAP4 POP DUP4 PUSH1 0x20 DUP3 MUL DUP6 ADD PUSH2 0x1673 DUP6 PUSH2 0x1578 JUMP JUMPDEST DUP1 PUSH0 JUMPDEST DUP6 DUP2 LT ISZERO PUSH2 0x16AE JUMPI DUP5 DUP5 SUB DUP10 MSTORE DUP2 MLOAD PUSH2 0x168F DUP6 DUP3 PUSH2 0x162E JUMP JUMPDEST SWAP5 POP PUSH2 0x169A DUP4 PUSH2 0x1641 JUMP JUMPDEST SWAP3 POP PUSH1 0x20 DUP11 ADD SWAP10 POP POP PUSH1 0x1 DUP2 ADD SWAP1 POP PUSH2 0x1676 JUMP JUMPDEST POP DUP3 SWAP8 POP DUP8 SWAP6 POP POP POP POP POP POP SWAP3 SWAP2 POP POP JUMP JUMPDEST PUSH0 PUSH1 0x20 DUP3 ADD SWAP1 POP DUP2 DUP2 SUB PUSH0 DUP4 ADD MSTORE PUSH2 0x16D8 DUP2 DUP5 PUSH2 0x164D JUMP JUMPDEST SWAP1 POP SWAP3 SWAP2 POP POP JUMP JUMPDEST PUSH2 0x16E9 DUP2 PUSH2 0x1390 JUMP JUMPDEST DUP3 MSTORE POP POP JUMP JUMPDEST PUSH0 PUSH1 0x20 DUP3 ADD SWAP1 POP PUSH2 0x1702 PUSH0 DUP4 ADD DUP5 PUSH2 0x16E0 JUMP JUMPDEST SWAP3 SWAP2 POP POP JUMP JUMPDEST PUSH0 DUP1 REVERT JUMPDEST PUSH0 DUP1 REVERT JUMPDEST PUSH32 0x4E487B7100000000000000000000000000000000000000000000000000000000 PUSH0 MSTORE PUSH1 0x41 PUSH1 0x4 MSTORE PUSH1 0x24 PUSH0 REVERT JUMPDEST PUSH2 0x1746 DUP3 PUSH2 0x1348 JUMP JUMPDEST DUP2 ADD DUP2 DUP2 LT PUSH8 0xFFFFFFFFFFFFFFFF DUP3 GT OR ISZERO PUSH2 0x1765 JUMPI PUSH2 0x1764 PUSH2 0x1710 JUMP JUMPDEST JUMPDEST DUP1 PUSH1 0x40 MSTORE POP POP POP JUMP JUMPDEST PUSH0 PUSH2 0x1777 PUSH2 0x14C8 JUMP JUMPDEST SWAP1 POP PUSH2 0x1783 DUP3 DUP3 PUSH2 0x173D JUMP JUMPDEST SWAP2 SWAP1 POP JUMP JUMPDEST PUSH0 PUSH8 0xFFFFFFFFFFFFFFFF DUP3 GT ISZERO PUSH2 0x17A2 JUMPI PUSH2 0x17A1 PUSH2 0x1710 JUMP JUMPDEST JUMPDEST PUSH2 0x17AB DUP3 PUSH2 0x1348 JUMP JUMPDEST SWAP1 POP PUSH1 0x20 DUP2 ADD SWAP1 POP SWAP2 SWAP1 POP JUMP JUMPDEST DUP3 DUP2 DUP4 CALLDATACOPY PUSH0 DUP4 DUP4 ADD MSTORE POP POP POP JUMP JUMPDEST PUSH0 PUSH2 0x17D8 PUSH2 0x17D3 DUP5 PUSH2 0x1788 JUMP JUMPDEST PUSH2 0x176E JUMP JUMPDEST SWAP1 POP DUP3 DUP2 MSTORE PUSH1 0x20 DUP2 ADD DUP5 DUP5 DUP5 ADD GT ISZERO PUSH2 0x17F4 JUMPI PUSH2 0x17F3 PUSH2 0x170C JUMP JUMPDEST JUMPDEST PUSH2 0x17FF DUP5 DUP3 DUP6 PUSH2 0x17B8 JUMP JUMPDEST POP SWAP4 SWAP3 POP POP POP JUMP JUMPDEST PUSH0 DUP3 PUSH1 0x1F DUP4 ADD SLT PUSH2 0x181B JUMPI PUSH2 0x181A PUSH2 0x1708 JUMP JUMPDEST JUMPDEST DUP2 CALLDATALOAD PUSH2 0x182B DUP5 DUP3 PUSH1 0x20 DUP7 ADD PUSH2 0x17C6 JUMP JUMPDEST SWAP2 POP POP SWAP3 SWAP2 POP POP JUMP JUMPDEST PUSH0 PUSH1 0x20 DUP3 DUP5 SUB SLT ISZERO PUSH2 0x1849 JUMPI PUSH2 0x1848 PUSH2 0x14D1 JUMP JUMPDEST JUMPDEST PUSH0 DUP3 ADD CALLDATALOAD PUSH8 0xFFFFFFFFFFFFFFFF DUP2 GT ISZERO PUSH2 0x1866 JUMPI PUSH2 0x1865 PUSH2 0x14D5 JUMP JUMPDEST JUMPDEST PUSH2 0x1872 DUP5 DUP3 DUP6 ADD PUSH2 0x1807 JUMP JUMPDEST SWAP2 POP POP SWAP3 SWAP2 POP POP JUMP JUMPDEST PUSH2 0x1884 DUP2 PUSH2 0x14F8 JUMP JUMPDEST DUP3 MSTORE POP POP JUMP JUMPDEST PUSH0 PUSH1 0x20 DUP3 ADD SWAP1 POP PUSH2 0x189D PUSH0 DUP4 ADD DUP5 PUSH2 0x187B JUMP JUMPDEST SWAP3 SWAP2 POP POP JUMP JUMPDEST PUSH2 0x18AC DUP2 PUSH2 0x1390 JUMP JUMPDEST DUP2 EQ PUSH2 0x18B6 JUMPI PUSH0 DUP1 REVERT JUMPDEST POP JUMP JUMPDEST PUSH0 DUP2 CALLDATALOAD SWAP1 POP PUSH2 0x18C7 DUP2 PUSH2 0x18A3 JUMP JUMPDEST SWAP3 SWAP2 POP POP JUMP JUMPDEST PUSH0 PUSH1 0x20 DUP3 DUP5 SUB SLT ISZERO PUSH2 0x18E2 JUMPI PUSH2 0x18E1 PUSH2 0x14D1 JUMP JUMPDEST JUMPDEST PUSH0 PUSH2 0x18EF DUP5 DUP3 DUP6 ADD PUSH2 0x18B9 JUMP JUMPDEST SWAP2 POP POP SWAP3 SWAP2 POP POP JUMP JUMPDEST PUSH0 DUP3 DUP3 MSTORE PUSH1 0x20 DUP3 ADD SWAP1 POP SWAP3 SWAP2 POP POP JUMP JUMPDEST PUSH32 0x4D697373696E6720726571756972656420616D6F756E74000000000000000000 PUSH0 DUP3 ADD MSTORE POP JUMP JUMPDEST PUSH0 PUSH2 0x193C PUSH1 0x17 DUP4 PUSH2 0x18F8 JUMP JUMPDEST SWAP2 POP PUSH2 0x1947 DUP3 PUSH2 0x1908 JUMP JUMPDEST PUSH1 0x20 DUP3 ADD SWAP1 POP SWAP2 SWAP1 POP JUMP JUMPDEST PUSH0 PUSH1 0x20 DUP3 ADD SWAP1 POP DUP2 DUP2 SUB PUSH0 DUP4 ADD MSTORE PUSH2 0x1969 DUP2 PUSH2 0x1930 JUMP JUMPDEST SWAP1 POP SWAP2 SWAP1 POP JUMP JUMPDEST PUSH32 0x4E487B7100000000000000000000000000000000000000000000000000000000 PUSH0 MSTORE PUSH1 0x11 PUSH1 0x4 MSTORE PUSH1 0x24 PUSH0 REVERT JUMPDEST PUSH0 PUSH2 0x19A7 DUP3 PUSH2 0x1390 JUMP JUMPDEST SWAP2 POP PUSH2 0x19B2 DUP4 PUSH2 0x1390 JUMP JUMPDEST SWAP3 POP DUP3 DUP3 ADD SWAP1 POP DUP1 DUP3 GT ISZERO PUSH2 0x19CA JUMPI PUSH2 0x19C9 PUSH2 0x1970 JUMP JUMPDEST JUMPDEST SWAP3 SWAP2 POP POP JUMP JUMPDEST PUSH32 0x4E487B7100000000000000000000000000000000000000000000000000000000 PUSH0 MSTORE PUSH1 0x22 PUSH1 0x4 MSTORE PUSH1 0x24 PUSH0 REVERT JUMPDEST PUSH0 PUSH1 0x2 DUP3 DIV SWAP1 POP PUSH1 0x1 DUP3 AND DUP1 PUSH2 0x1A14 JUMPI PUSH1 0x7F DUP3 AND SWAP2 POP JUMPDEST PUSH1 0x20 DUP3 LT DUP2 SUB PUSH2 0x1A27 JUMPI PUSH2 0x1A26 PUSH2 0x19D0 JUMP JUMPDEST JUMPDEST POP SWAP2 SWAP1 POP JUMP JUMPDEST PUSH32 0x4E487B7100000000000000000000000000000000000000000000000000000000 PUSH0 MSTORE PUSH1 0x32 PUSH1 0x4 MSTORE PUSH1 0x24 PUSH0 REVERT JUMPDEST PUSH0 PUSH2 0x1A64 DUP3 PUSH2 0x1390 JUMP JUMPDEST SWAP2 POP PUSH32 0xFFFFFFFFFFFFFFFFFFFFFFFFFFFFFFFFFFFFFFFFFFFFFFFFFFFFFFFFFFFFFFFF DUP3 SUB PUSH2 0x1A96 JUMPI PUSH2 0x1A95 PUSH2 0x1970 JUMP JUMPDEST JUMPDEST PUSH1 0x1 DUP3 ADD SWAP1 POP SWAP2 SWAP1 POP JUMP JUMPDEST PUSH32 0x4E487B7100000000000000000000000000000000000000000000000000000000 PUSH0 MSTORE PUSH1 0x21 PUSH1 0x4 MSTORE PUSH1 0x24 PUSH0 REVERT JUMPDEST PUSH32 0x496E73756666696369656E742066756E64730000000000000000000000000000 PUSH0 DUP3 ADD MSTORE POP JUMP JUMPDEST PUSH0 PUSH2 0x1B02 PUSH1 0x12 DUP4 PUSH2 0x18F8 JUMP JUMPDEST SWAP2 POP PUSH2 0x1B0D DUP3 PUSH2 0x1ACE JUMP JUMPDEST PUSH1 0x20 DUP3 ADD SWAP1 POP SWAP2 SWAP1 POP JUMP JUMPDEST PUSH0 PUSH1 0x20 DUP3 ADD SWAP1 POP DUP2 DUP2 SUB PUSH0 DUP4 ADD MSTORE PUSH2 0x1B2F DUP2 PUSH2 0x1AF6 JUMP JUMPDEST SWAP1 POP SWAP2 SWAP1 POP JUMP JUMPDEST PUSH0 PUSH2 0x1B40 DUP3 PUSH2 0x1390 JUMP JUMPDEST SWAP2 POP PUSH2 0x1B4B DUP4 PUSH2 0x1390 JUMP JUMPDEST SWAP3 POP DUP3 DUP3 SUB SWAP1 POP DUP2 DUP2 GT ISZERO PUSH2 0x1B63 JUMPI PUSH2 0x1B62 PUSH2 0x1970 JUMP JUMPDEST JUMPDEST SWAP3 SWAP2 POP POP JUMP JUMPDEST PUSH0 DUP2 SWAP1 POP DUP2 PUSH0 MSTORE PUSH1 0x20 PUSH0 KECCAK256 SWAP1 POP SWAP2 SWAP1 POP JUMP JUMPDEST PUSH0 PUSH1 0x20 PUSH1 0x1F DUP4 ADD DIV SWAP1 POP SWAP2 SWAP1 POP JUMP JUMPDEST PUSH0 DUP3 DUP3 SHL SWAP1 POP SWAP3 SWAP2 POP POP JUMP JUMPDEST PUSH0 PUSH1 0x8 DUP4 MUL PUSH2 0x1BC5 PUSH32 0xFFFFFFFFFFFFFFFFFFFFFFFFFFFFFFFFFFFFFFFFFFFFFFFFFFFFFFFFFFFFFFFF DUP3 PUSH2 0x1B8A JUMP JUMPDEST PUSH2 0x1BCF DUP7 DUP4 PUSH2 0x1B8A JUMP JUMPDEST SWAP6 POP DUP1 NOT DUP5 AND SWAP4 POP DUP1 DUP7 AND DUP5 OR SWAP3 POP POP POP SWAP4 SWAP3 POP POP POP JUMP JUMPDEST PUSH0 DUP2 SWAP1 POP SWAP2 SWAP1 POP JUMP JUMPDEST PUSH0 PUSH2 0x1C0A PUSH2 0x1C05 PUSH2 0x1C00 DUP5 PUSH2 0x1390 JUMP JUMPDEST PUSH2 0x1BE7 JUMP JUMPDEST PUSH2 0x1390 JUMP JUMPDEST SWAP1 POP SWAP2 SWAP1 POP JUMP JUMPDEST PUSH0 DUP2 SWAP1 POP SWAP2 SWAP1 POP JUMP JUMPDEST PUSH2 0x1C23 DUP4 PUSH2 0x1BF0 JUMP JUMPDEST PUSH2 0x1C37 PUSH2 0x1C2F DUP3 PUSH2 0x1C11 JUMP JUMPDEST DUP5 DUP5 SLOAD PUSH2 0x1B96 JUMP JUMPDEST DUP3 SSTORE POP POP POP POP JUMP JUMPDEST PUSH0 SWAP1 JUMP JUMPDEST PUSH2 0x1C4B PUSH2 0x1C3F JUMP JUMPDEST PUSH2 0x1C56 DUP2 DUP5 DUP5 PUSH2 0x1C1A JUMP JUMPDEST POP POP POP JUMP JUMPDEST JUMPDEST DUP2 DUP2 LT ISZERO PUSH2 0x1C79 JUMPI PUSH2 0x1C6E PUSH0 DUP3 PUSH2 0x1C43 JUMP JUMPDEST PUSH1 0x1 DUP2 ADD SWAP1 POP PUSH2 0x1C5C JUMP JUMPDEST POP POP JUMP JUMPDEST PUSH1 0x1F DUP3 GT ISZERO PUSH2 0x1CBE JUMPI PUSH2 0x1C8F DUP2 PUSH2 0x1B69 JUMP JUMPDEST PUSH2 0x1C98 DUP5 PUSH2 0x1B7B JUMP JUMPDEST DUP2 ADD PUSH1 0x20 DUP6 LT ISZERO PUSH2 0x1CA7 JUMPI DUP2 SWAP1 POP JUMPDEST PUSH2 0x1CBB PUSH2 0x1CB3 DUP6 PUSH2 0x1B7B JUMP JUMPDEST DUP4 ADD DUP3 PUSH2 0x1C5B JUMP JUMPDEST POP POP JUMPDEST POP POP POP JUMP JUMPDEST PUSH0 DUP3 DUP3 SHR SWAP1 POP SWAP3 SWAP2 POP POP JUMP JUMPDEST PUSH0 PUSH2 0x1CDE PUSH0 NOT DUP5 PUSH1 0x8 MUL PUSH2 0x1CC3 JUMP JUMPDEST NOT DUP1 DUP4 AND SWAP2 POP POP SWAP3 SWAP2 POP POP JUMP JUMPDEST PUSH0 PUSH2 0x1CF6 DUP4 DUP4 PUSH2 0x1CCF JUMP JUMPDEST SWAP2 POP DUP3 PUSH1 0x2 MUL DUP3 OR SWAP1 POP SWAP3 SWAP2 POP POP JUMP JUMPDEST PUSH2 0x1D0F DUP3 PUSH2 0x1320 JUMP JUMPDEST PUSH8 0xFFFFFFFFFFFFFFFF DUP2 GT ISZERO PUSH2 0x1D28 JUMPI PUSH2 0x1D27 PUSH2 0x1710 JUMP JUMPDEST JUMPDEST PUSH2 0x1D32 DUP3 SLOAD PUSH2 0x19FD JUMP JUMPDEST PUSH2 0x1D3D DUP3 DUP3 DUP6 PUSH2 0x1C7D JUMP JUMPDEST PUSH0 PUSH1 0x20 SWAP1 POP PUSH1 0x1F DUP4 GT PUSH1 0x1 DUP2 EQ PUSH2 0x1D6E JUMPI PUSH0 DUP5 ISZERO PUSH2 0x1D5C JUMPI DUP3 DUP8 ADD MLOAD SWAP1 POP JUMPDEST PUSH2 0x1D66 DUP6 DUP3 PUSH2 0x1CEB JUMP JUMPDEST DUP7 SSTORE POP PUSH2 0x1DCD JUMP JUMPDEST PUSH1 0x1F NOT DUP5 AND PUSH2 0x1D7C DUP7 PUSH2 0x1B69 JUMP JUMPDEST PUSH0 JUMPDEST DUP3 DUP2 LT ISZERO PUSH2 0x1DA3 JUMPI DUP5 DUP10 ADD MLOAD DUP3 SSTORE PUSH1 0x1 DUP3 ADD SWAP2 POP PUSH1 0x20 DUP6 ADD SWAP5 POP PUSH1 0x20 DUP2 ADD SWAP1 POP PUSH2 0x1D7E JUMP JUMPDEST DUP7 DUP4 LT ISZERO PUSH2 0x1DC0 JUMPI DUP5 DUP10 ADD MLOAD PUSH2 0x1DBC PUSH1 0x1F DUP10 AND DUP3 PUSH2 0x1CCF JUMP JUMPDEST DUP4 SSTORE POP JUMPDEST PUSH1 0x1 PUSH1 0x2 DUP9 MUL ADD DUP9 SSTORE POP POP POP JUMPDEST POP POP POP POP POP POP JUMP JUMPDEST PUSH0 PUSH2 0x1DDF DUP3 PUSH2 0x1320 JUMP JUMPDEST PUSH2 0x1DE9 DUP2 DUP6 PUSH2 0x18F8 JUMP JUMPDEST SWAP4 POP PUSH2 0x1DF9 DUP2 DUP6 PUSH1 0x20 DUP7 ADD PUSH2 0x133A JUMP JUMPDEST PUSH2 0x1E02 DUP2 PUSH2 0x1348 JUMP JUMPDEST DUP5 ADD SWAP2 POP POP SWAP3 SWAP2 POP POP JUMP JUMPDEST PUSH0 PUSH1 0x60 DUP3 ADD SWAP1 POP DUP2 DUP2 SUB PUSH0 DUP4 ADD MSTORE PUSH2 0x1E25 DUP2 DUP7 PUSH2 0x1DD5 JUMP JUMPDEST SWAP1 POP PUSH2 0x1E34 PUSH1 0x20 DUP4 ADD DUP6 PUSH2 0x16E0 JUMP JUMPDEST PUSH2 0x1E41 PUSH1 0x40 DUP4 ADD DUP5 PUSH2 0x16E0 JUMP JUMPDEST SWAP5 SWAP4 POP POP POP POP JUMP JUMPDEST PUSH32 0x4F6E6C79206F776E65722063616E2063616C6C20746869732066756E6374696F PUSH0 DUP3 ADD MSTORE PUSH32 0x6E00000000000000000000000000000000000000000000000000000000000000 PUSH1 0x20 DUP3 ADD MSTORE POP JUMP JUMPDEST PUSH0 PUSH2 0x1EA3 PUSH1 0x21 DUP4 PUSH2 0x18F8 JUMP JUMPDEST SWAP2 POP PUSH2 0x1EAE DUP3 PUSH2 0x1E49 JUMP JUMPDEST PUSH1 0x40 DUP3 ADD SWAP1 POP SWAP2 SWAP1 POP JUMP JUMPDEST PUSH0 PUSH1 0x20 DUP3 ADD SWAP1 POP DUP2 DUP2 SUB PUSH0 DUP4 ADD MSTORE PUSH2 0x1ED0 DUP2 PUSH2 0x1E97 JUMP JUMPDEST SWAP1 POP SWAP2 SWAP1 POP JUMP JUMPDEST PUSH32 0x4E6F207265656E7472616E637900000000000000000000000000000000000000 PUSH0 DUP3 ADD MSTORE POP JUMP JUMPDEST PUSH0 PUSH2 0x1F0B PUSH1 0xD DUP4 PUSH2 0x18F8 JUMP JUMPDEST SWAP2 POP PUSH2 0x1F16 DUP3 PUSH2 0x1ED7 JUMP JUMPDEST PUSH1 0x20 DUP3 ADD SWAP1 POP SWAP2 SWAP1 POP JUMP JUMPDEST PUSH0 PUSH1 0x20 DUP3 ADD SWAP1 POP DUP2 DUP2 SUB PUSH0 DUP4 ADD MSTORE PUSH2 0x1F38 DUP2 PUSH2 0x1EFF JUMP JUMPDEST SWAP1 POP SWAP2 SWAP1 POP JUMP JUMPDEST PUSH32 0x596F7520646F206E6F74206861766520616E792062616C616E63652E00000000 PUSH0 DUP3 ADD MSTORE POP JUMP JUMPDEST PUSH0 PUSH2 0x1F73 PUSH1 0x1C DUP4 PUSH2 0x18F8 JUMP JUMPDEST SWAP2 POP PUSH2 0x1F7E DUP3 PUSH2 0x1F3F JUMP JUMPDEST PUSH1 0x20 DUP3 ADD SWAP1 POP SWAP2 SWAP1 POP JUMP JUMPDEST PUSH0 PUSH1 0x20 DUP3 ADD SWAP1 POP DUP2 DUP2 SUB PUSH0 DUP4 ADD MSTORE PUSH2 0x1FA0 DUP2 PUSH2 0x1F67 JUMP JUMPDEST SWAP1 POP SWAP2 SWAP1 POP JUMP JUMPDEST PUSH0 DUP2 SWAP1 POP SWAP3 SWAP2 POP POP JUMP JUMPDEST POP JUMP JUMPDEST PUSH0 PUSH2 0x1FBF PUSH0 DUP4 PUSH2 0x1FA7 JUMP JUMPDEST SWAP2 POP PUSH2 0x1FCA DUP3 PUSH2 0x1FB1 JUMP JUMPDEST PUSH0 DUP3 ADD SWAP1 POP SWAP2 SWAP1 POP JUMP JUMPDEST PUSH0 PUSH2 0x1FDE DUP3 PUSH2 0x1FB4 JUMP JUMPDEST SWAP2 POP DUP2 SWAP1 POP SWAP2 SWAP1 POP JUMP JUMPDEST PUSH32 0x5472616E73666572206661696C65642E00000000000000000000000000000000 PUSH0 DUP3 ADD MSTORE POP JUMP JUMPDEST PUSH0 PUSH2 0x201C PUSH1 0x10 DUP4 PUSH2 0x18F8 JUMP JUMPDEST SWAP2 POP PUSH2 0x2027 DUP3 PUSH2 0x1FE8 JUMP JUMPDEST PUSH1 0x20 DUP3 ADD SWAP1 POP SWAP2 SWAP1 POP JUMP JUMPDEST PUSH0 PUSH1 0x20 DUP3 ADD SWAP1 POP DUP2 DUP2 SUB PUSH0 DUP4 ADD MSTORE PUSH2 0x2049 DUP2 PUSH2 0x2010 JUMP JUMPDEST SWAP1 POP SWAP2 SWAP1 POP JUMP JUMPDEST PUSH32 0x496E76616C696420696E64657800000000000000000000000000000000000000 PUSH0 DUP3 ADD MSTORE POP JUMP JUMPDEST PUSH0 PUSH2 0x2084 PUSH1 0xD DUP4 PUSH2 0x18F8 JUMP JUMPDEST SWAP2 POP PUSH2 0x208F DUP3 PUSH2 0x2050 JUMP JUMPDEST PUSH1 0x20 DUP3 ADD SWAP1 POP SWAP2 SWAP1 POP JUMP JUMPDEST PUSH0 PUSH1 0x20 DUP3 ADD SWAP1 POP DUP2 DUP2 SUB PUSH0 DUP4 ADD MSTORE PUSH2 0x20B1 DUP2 PUSH2 0x2078 JUMP JUMPDEST SWAP1 POP SWAP2 SWAP1 POP JUMP JUMPDEST PUSH32 0x4E6F7420796F7572207075726368617365000000000000000000000000000000 PUSH0 DUP3 ADD MSTORE POP JUMP JUMPDEST PUSH0 PUSH2 0x20EC PUSH1 0x11 DUP4 PUSH2 0x18F8 JUMP JUMPDEST SWAP2 POP PUSH2 0x20F7 DUP3 PUSH2 0x20B8 JUMP JUMPDEST PUSH1 0x20 DUP3 ADD SWAP1 POP SWAP2 SWAP1 POP JUMP JUMPDEST PUSH0 PUSH1 0x20 DUP3 ADD SWAP1 POP DUP2 DUP2 SUB PUSH0 DUP4 ADD MSTORE PUSH2 0x2119 DUP2 PUSH2 0x20E0 JUMP JUMPDEST SWAP1 POP SWAP2 SWAP1 POP JUMP JUMPDEST PUSH32 0x507572636861736520616C726561647920636F6E73756D656400000000000000 PUSH0 DUP3 ADD MSTORE POP JUMP JUMPDEST PUSH0 PUSH2 0x2154 PUSH1 0x19 DUP4 PUSH2 0x18F8 JUMP JUMPDEST SWAP2 POP PUSH2 0x215F DUP3 PUSH2 0x2120 JUMP JUMPDEST PUSH1 0x20 DUP3 ADD SWAP1 POP SWAP2 SWAP1 POP JUMP JUMPDEST PUSH0 PUSH1 0x20 DUP3 ADD SWAP1 POP DUP2 DUP2 SUB PUSH0 DUP4 ADD MSTORE PUSH2 0x2181 DUP2 PUSH2 0x2148 JUMP JUMPDEST SWAP1 POP SWAP2 SWAP1 POP JUMP JUMPDEST PUSH0 DUP2 SWAP1 POP SWAP3 SWAP2 POP POP JUMP JUMPDEST PUSH0 PUSH2 0x219C DUP3 PUSH2 0x1320 JUMP JUMPDEST PUSH2 0x21A6 DUP2 DUP6 PUSH2 0x2188 JUMP JUMPDEST SWAP4 POP PUSH2 0x21B6 DUP2 DUP6 PUSH1 0x20 DUP7 ADD PUSH2 0x133A JUMP JUMPDEST DUP1 DUP5 ADD SWAP2 POP POP SWAP3 SWAP2 POP POP JUMP JUMPDEST PUSH0 PUSH2 0x21CD DUP3 DUP5 PUSH2 0x2192 JUMP JUMPDEST SWAP2 POP DUP2 SWAP1 POP SWAP3 SWAP2 POP POP JUMP JUMPDEST PUSH0 DUP2 SLOAD PUSH2 0x21E4 DUP2 PUSH2 0x19FD JUMP JUMPDEST PUSH2 0x21EE DUP2 DUP7 PUSH2 0x2188 JUMP JUMPDEST SWAP5 POP PUSH1 0x1 DUP3 AND PUSH0 DUP2 EQ PUSH2 0x2208 JUMPI PUSH1 0x1 DUP2 EQ PUSH2 0x221D JUMPI PUSH2 0x224F JUMP JUMPDEST PUSH1 0xFF NOT DUP4 AND DUP7 MSTORE DUP2 ISZERO ISZERO DUP3 MUL DUP7 ADD SWAP4 POP PUSH2 0x224F JUMP JUMPDEST PUSH2 0x2226 DUP6 PUSH2 0x1B69 JUMP JUMPDEST PUSH0 JUMPDEST DUP4 DUP2 LT ISZERO PUSH2 0x2247 JUMPI DUP2 SLOAD DUP2 DUP10 ADD MSTORE PUSH1 0x1 DUP3 ADD SWAP2 POP PUSH1 0x20 DUP2 ADD SWAP1 POP PUSH2 0x2228 JUMP JUMPDEST DUP4 DUP9 ADD SWAP6 POP POP POP JUMPDEST POP POP POP SWAP3 SWAP2 POP POP JUMP JUMPDEST PUSH0 PUSH2 0x2263 DUP3 DUP5 PUSH2 0x21D8 JUMP JUMPDEST SWAP2 POP DUP2 SWAP1 POP SWAP3 SWAP2 POP POP JUMP JUMPDEST PUSH32 0x50726F64756374206E6F7420666F756E64000000000000000000000000000000 PUSH0 DUP3 ADD MSTORE POP JUMP JUMPDEST PUSH0 PUSH2 0x22A2 PUSH1 0x11 DUP4 PUSH2 0x18F8 JUMP JUMPDEST SWAP2 POP PUSH2 0x22AD DUP3 PUSH2 0x226E JUMP JUMPDEST PUSH1 0x20 DUP3 ADD SWAP1 POP SWAP2 SWAP1 POP JUMP JUMPDEST PUSH0 PUSH1 0x20 DUP3 ADD SWAP1 POP DUP2 DUP2 SUB PUSH0 DUP4 ADD MSTORE PUSH2 0x22CF DUP2 PUSH2 0x2296 JUMP JUMPDEST SWAP1 POP SWAP2 SWAP1 POP JUMP INVALID LOG2 PUSH5 0x6970667358 0x22 SLT KECCAK256 PUSH17 0x9E0B385CC668793CE01CE0C22F5BD14179 LT 0xCB 0xE1 SELFDESTRUCT 0xE6 PUSH5 0x7C49FF9EDF TIMESTAMP PUSH7 0x5A64736F6C6343 STOP ADDMOD BYTE STOP CALLER MLOAD PUSH14 0x6652465261626F50334D34386565 PUSH25 0x766E516B6977675544506150484A69466E44634B637545754C TIMESTAMP PUSH3 0x66312F "
				},
				"gasEstimates": {
					"creation": {
						"codeDepositCost": "1794400",
						"executionCost": "infinite",
						"totalCost": "infinite"
					},
					"external": {
						"": "infinite",
						"addFunds()": "infinite",
						"consumePurchase(uint256)": "infinite",
						"getAllProducts()": "infinite",
						"getAllPurchases(address)": "infinite",
						"getBalance()": "2564",
						"owner()": "infinite",
						"purchaseProduct(string)": "infinite",
						"withdraw()": "infinite"
					},
					"internal": {
						"_addProduct(string memory,uint256,string memory,string memory)": "infinite",
						"concatIPFSReference(string memory)": "infinite",
						"getProductByCode(string memory)": "infinite",
						"initializeProducts()": "infinite"
					}
				},
				"methodIdentifiers": {
					"addFunds()": "a26759cb",
					"consumePurchase(uint256)": "b04f3225",
					"getAllProducts()": "02ee3a52",
					"getAllPurchases(address)": "1107bc98",
					"getBalance()": "12065fe0",
					"owner()": "8da5cb5b",
					"purchaseProduct(string)": "19f92926",
					"withdraw()": "3ccfd60b"
				}
			},
			"storageLayout": {
				"storage": [
					{
						"astId": 51,
						"contract": "blockchain/contracts/VendingMachine.sol:VendingMachine",
						"label": "locked",
						"offset": 0,
						"slot": "0",
						"type": "t_bool"
					},
					{
						"astId": 97,
						"contract": "blockchain/contracts/VendingMachine.sol:VendingMachine",
						"label": "products",
						"offset": 0,
						"slot": "1",
						"type": "t_array(t_struct(Product)13_storage)dyn_storage"
					},
					{
						"astId": 101,
						"contract": "blockchain/contracts/VendingMachine.sol:VendingMachine",
						"label": "balances",
						"offset": 0,
						"slot": "2",
						"type": "t_mapping(t_address,t_uint256)"
					},
					{
						"astId": 105,
						"contract": "blockchain/contracts/VendingMachine.sol:VendingMachine",
						"label": "purchases",
						"offset": 0,
						"slot": "3",
						"type": "t_array(t_struct(Purchase)23_storage)dyn_storage"
					}
				],
				"types": {
					"t_address": {
						"encoding": "inplace",
						"label": "address",
						"numberOfBytes": "20"
					},
					"t_array(t_struct(Product)13_storage)dyn_storage": {
						"base": "t_struct(Product)13_storage",
						"encoding": "dynamic_array",
						"label": "struct ProductLibrary.Product[]",
						"numberOfBytes": "32"
					},
					"t_array(t_struct(Purchase)23_storage)dyn_storage": {
						"base": "t_struct(Purchase)23_storage",
						"encoding": "dynamic_array",
						"label": "struct ProductLibrary.Purchase[]",
						"numberOfBytes": "32"
					},
					"t_bool": {
						"encoding": "inplace",
						"label": "bool",
						"numberOfBytes": "1"
					},
					"t_enum(PurchaseStatus)4": {
						"encoding": "inplace",
						"label": "enum ProductLibrary.PurchaseStatus",
						"numberOfBytes": "1"
					},
					"t_mapping(t_address,t_uint256)": {
						"encoding": "mapping",
						"key": "t_address",
						"label": "mapping(address => uint256)",
						"numberOfBytes": "32",
						"value": "t_uint256"
					},
					"t_string_storage": {
						"encoding": "bytes",
						"label": "string",
						"numberOfBytes": "32"
					},
					"t_struct(Product)13_storage": {
						"encoding": "inplace",
						"label": "struct ProductLibrary.Product",
						"members": [
							{
								"astId": 6,
								"contract": "blockchain/contracts/VendingMachine.sol:VendingMachine",
								"label": "code",
								"offset": 0,
								"slot": "0",
								"type": "t_string_storage"
							},
							{
								"astId": 8,
								"contract": "blockchain/contracts/VendingMachine.sol:VendingMachine",
								"label": "price",
								"offset": 0,
								"slot": "1",
								"type": "t_uint256"
							},
							{
								"astId": 10,
								"contract": "blockchain/contracts/VendingMachine.sol:VendingMachine",
								"label": "name",
								"offset": 0,
								"slot": "2",
								"type": "t_string_storage"
							},
							{
								"astId": 12,
								"contract": "blockchain/contracts/VendingMachine.sol:VendingMachine",
								"label": "imageCID",
								"offset": 0,
								"slot": "3",
								"type": "t_string_storage"
							}
						],
						"numberOfBytes": "128"
					},
					"t_struct(Purchase)23_storage": {
						"encoding": "inplace",
						"label": "struct ProductLibrary.Purchase",
						"members": [
							{
								"astId": 15,
								"contract": "blockchain/contracts/VendingMachine.sol:VendingMachine",
								"label": "buyer",
								"offset": 0,
								"slot": "0",
								"type": "t_address"
							},
							{
								"astId": 17,
								"contract": "blockchain/contracts/VendingMachine.sol:VendingMachine",
								"label": "productId",
								"offset": 0,
								"slot": "1",
								"type": "t_string_storage"
							},
							{
								"astId": 19,
								"contract": "blockchain/contracts/VendingMachine.sol:VendingMachine",
								"label": "timestamp",
								"offset": 0,
								"slot": "2",
								"type": "t_uint256"
							},
							{
								"astId": 22,
								"contract": "blockchain/contracts/VendingMachine.sol:VendingMachine",
								"label": "status",
								"offset": 0,
								"slot": "3",
								"type": "t_enum(PurchaseStatus)4"
							}
						],
						"numberOfBytes": "128"
					},
					"t_uint256": {
						"encoding": "inplace",
						"label": "uint256",
						"numberOfBytes": "32"
					}
				}
			},
			"userdoc": {
				"kind": "user",
				"methods": {},
				"version": 1
			}
		}
	}
}