{
	"data": {
		"bytecode": {
			"linkReferences": {},
			"object": "6080604052348015600e575f80fd5b506121b48061001c5f395ff3fe608060405234801561000f575f80fd5b5060043610610034575f3560e01c80635cf810ed146100385780637acc0b2014610042575b5f80fd5b610040610075565b005b61005c60048036038101906100579190611c8c565b611a46565b60405161006c9493929190611d36565b60405180910390f35b5f60405180608001604052806040518060400160405280600281526020017f413100000000000000000000000000000000000000000000000000000000000081525081526020016305f5e100600f6100cd9190611dbb565b81526020016040518060400160405280600481526020017f4c61797300000000000000000000000000000000000000000000000000000000815250815260200161014b6040518060400160405280600881526020017f6c6179732e706e67000000000000000000000000000000000000000000000000815250611c12565b815250908060018154018082558091505060019003905f5260205f2090600402015f909190919091505f820151815f0190816101879190612023565b506020820151816001015560408201518160020190816101a79190612023565b5060608201518160030190816101bd9190612023565b5050505f60405180608001604052806040518060400160405280600281526020017f413200000000000000000000000000000000000000000000000000000000000081525081526020016298968060af6102179190611dbb565b81526020016040518060400160405280600981526020017f436f636120436f6c61000000000000000000000000000000000000000000000081525081526020016102956040518060400160405280600d81526020017f636f63612d636f6c612e706e6700000000000000000000000000000000000000815250611c12565b815250908060018154018082558091505060019003905f5260205f2090600402015f909190919091505f820151815f0190816102d19190612023565b506020820151816001015560408201518160020190816102f19190612023565b5060608201518160030190816103079190612023565b5050505f60405180608001604052806040518060400160405280600281526020017f413300000000000000000000000000000000000000000000000000000000000081525081526020016305f5e100600f6103629190611dbb565b81526020016040518060400160405280600881526020017f5072696e676c657300000000000000000000000000000000000000000000000081525081526020016103e06040518060400160405280600b81526020017f70696e676c65732e706e67000000000000000000000000000000000000000000815250611c12565b815250908060018154018082558091505060019003905f5260205f2090600402015f909190919091505f820151815f01908161041c9190612023565b5060208201518160010155604082015181600201908161043c9190612023565b5060608201518160030190816104529190612023565b5050505f60405180608001604052806040518060400160405280600281526020017f413400000000000000000000000000000000000000000000000000000000000081525081526020016298968060af6104ac9190611dbb565b81526020016040518060400160405280600581526020017f5761746572000000000000000000000000000000000000000000000000000000815250815260200161052a6040518060400160405280600981526020017f77617465722e706e670000000000000000000000000000000000000000000000815250611c12565b815250908060018154018082558091505060019003905f5260205f2090600402015f909190919091505f820151815f0190816105669190612023565b506020820151816001015560408201518160020190816105869190612023565b50606082015181600301908161059c9190612023565b5050505f60405180608001604052806040518060400160405280600281526020017f413500000000000000000000000000000000000000000000000000000000000081525081526020016305f5e100600f6105f79190611dbb565b81526020016040518060400160405280600c81526020017f456e65726779204472696e6b000000000000000000000000000000000000000081525081526020016106756040518060400160405280600c81526020017f7265642d62756c6c2e706e670000000000000000000000000000000000000000815250611c12565b815250908060018154018082558091505060019003905f5260205f2090600402015f909190919091505f820151815f0190816106b19190612023565b506020820151816001015560408201518160020190816106d19190612023565b5060608201518160030190816106e79190612023565b5050505f60405180608001604052806040518060400160405280600281526020017f423100000000000000000000000000000000000000000000000000000000000081525081526020016305f5e10060146107429190611dbb565b81526020016040518060400160405280600881526020017f53616e647769636800000000000000000000000000000000000000000000000081525081526020016107c06040518060400160405280600c81526020017f73616e64776963682e706e670000000000000000000000000000000000000000815250611c12565b815250908060018154018082558091505060019003905f5260205f2090600402015f909190919091505f820151815f0190816107fc9190612023565b5060208201518160010155604082015181600201908161081c9190612023565b5060608201518160030190816108329190612023565b5050505f60405180608001604052806040518060400160405280600281526020017f423200000000000000000000000000000000000000000000000000000000000081525081526020016298968060af61088c9190611dbb565b81526020016040518060400160405280600481526020017f4f72656f00000000000000000000000000000000000000000000000000000000815250815260200161090a6040518060400160405280600881526020017f6f72656f2e706e67000000000000000000000000000000000000000000000000815250611c12565b815250908060018154018082558091505060019003905f5260205f2090600402015f909190919091505f820151815f0190816109469190612023565b506020820151816001015560408201518160020190816109669190612023565b50606082015181600301908161097c9190612023565b5050505f60405180608001604052806040518060400160405280600281526020017f423300000000000000000000000000000000000000000000000000000000000081525081526020016305f5e100600f6109d79190611dbb565b81526020016040518060400160405280600681526020017f53707269746500000000000000000000000000000000000000000000000000008152508152602001610a556040518060400160405280600a81526020017f7370726974652e706e6700000000000000000000000000000000000000000000815250611c12565b815250908060018154018082558091505060019003905f5260205f2090600402015f909190919091505f820151815f019081610a919190612023565b50602082015181600101556040820151816002019081610ab19190612023565b506060820151816003019081610ac79190612023565b5050505f60405180608001604052806040518060400160405280600281526020017f423400000000000000000000000000000000000000000000000000000000000081525081526020016298968060af610b219190611dbb565b81526020016040518060400160405280600b81526020017f4772616e6f6c61204261720000000000000000000000000000000000000000008152508152602001610b9f6040518060400160405280600f81526020017f6772616e6f6c612d6261722e706e670000000000000000000000000000000000815250611c12565b815250908060018154018082558091505060019003905f5260205f2090600402015f909190919091505f820151815f019081610bdb9190612023565b50602082015181600101556040820151816002019081610bfb9190612023565b506060820151816003019081610c119190612023565b5050505f60405180608001604052806040518060400160405280600281526020017f423500000000000000000000000000000000000000000000000000000000000081525081526020016298968060af610c6b9190611dbb565b81526020016040518060400160405280600781526020017f446f7269746f73000000000000000000000000000000000000000000000000008152508152602001610ce96040518060400160405280600b81526020017f646f7269746f732e706e67000000000000000000000000000000000000000000815250611c12565b815250908060018154018082558091505060019003905f5260205f2090600402015f909190919091505f820151815f019081610d259190612023565b50602082015181600101556040820151816002019081610d459190612023565b506060820151816003019081610d5b9190612023565b5050505f60405180608001604052806040518060400160405280600281526020017f433100000000000000000000000000000000000000000000000000000000000081525081526020016305f5e100600f610db69190611dbb565b81526020016040518060400160405280600b81526020017f536e69636b6572204261720000000000000000000000000000000000000000008152508152602001610e346040518060400160405280600c81526020017f736e69636b6572732e706e670000000000000000000000000000000000000000815250611c12565b815250908060018154018082558091505060019003905f5260205f2090600402015f909190919091505f820151815f019081610e709190612023565b50602082015181600101556040820151816002019081610e909190612023565b506060820151816003019081610ea69190612023565b5050505f60405180608001604052806040518060400160405280600281526020017f433200000000000000000000000000000000000000000000000000000000000081525081526020016305f5e100600f610f019190611dbb565b81526020016040518060400160405280600481526020017f4d264d73000000000000000000000000000000000000000000000000000000008152508152602001610f7f6040518060400160405280600881526020017f6d266d732e706e67000000000000000000000000000000000000000000000000815250611c12565b815250908060018154018082558091505060019003905f5260205f2090600402015f909190919091505f820151815f019081610fbb9190612023565b50602082015181600101556040820151816002019081610fdb9190612023565b506060820151816003019081610ff19190612023565b5050505f60405180608001604052806040518060400160405280600281526020017f4333000000000000000000000000000000000000000000000000000000000000815250815260200162989680607d61104b9190611dbb565b81526020016040518060400160405280600e81526020017f427562626c65205461702047756d00000000000000000000000000000000000081525081526020016110c96040518060400160405280600e81526020017f627562626c652d7461702e706e67000000000000000000000000000000000000815250611c12565b815250908060018154018082558091505060019003905f5260205f2090600402015f909190919091505f820151815f0190816111059190612023565b506020820151816001015560408201518160020190816111259190612023565b50606082015181600301908161113b9190612023565b5050505f60405180608001604052806040518060400160405280600281526020017f433400000000000000000000000000000000000000000000000000000000000081525081526020016298968060af6111959190611dbb565b81526020016040518060400160405280600d81526020017f4672756974204e7574204261720000000000000000000000000000000000000081525081526020016112136040518060400160405280600d81526020017f66727569742d6e75742e706e6700000000000000000000000000000000000000815250611c12565b815250908060018154018082558091505060019003905f5260205f2090600402015f909190919091505f820151815f01908161124f9190612023565b5060208201518160010155604082015181600201908161126f9190612023565b5060608201518160030190816112859190612023565b5050505f60405180608001604052806040518060400160405280600281526020017f433500000000000000000000000000000000000000000000000000000000000081525081526020016298968060af6112df9190611dbb565b81526020016040518060400160405280600a81526020017f42656566204a65726b7900000000000000000000000000000000000000000000815250815260200161135d6040518060400160405280600e81526020017f626565662d6a65726b792e706e67000000000000000000000000000000000000815250611c12565b815250908060018154018082558091505060019003905f5260205f2090600402015f909190919091505f820151815f0190816113999190612023565b506020820151816001015560408201518160020190816113b99190612023565b5060608201518160030190816113cf9190612023565b5050505f60405180608001604052806040518060400160405280600281526020017f4431000000000000000000000000000000000000000000000000000000000000815250815260200162989680607d6114299190611dbb565b81526020016040518060400160405280600e81526020017f4b69744b6174204269736375697400000000000000000000000000000000000081525081526020016114a76040518060400160405280600a81526020017f6b69746b61742e706e6700000000000000000000000000000000000000000000815250611c12565b815250908060018154018082558091505060019003905f5260205f2090600402015f909190919091505f820151815f0190816114e39190612023565b506020820151816001015560408201518160020190816115039190612023565b5060608201518160030190816115199190612023565b5050505f60405180608001604052806040518060400160405280600281526020017f4432000000000000000000000000000000000000000000000000000000000000815250815260200162989680607d6115739190611dbb565b81526020016040518060400160405280600881526020017f506f7020436f726e00000000000000000000000000000000000000000000000081525081526020016115f16040518060400160405280600b81526020017f706f70636f726e2e706e67000000000000000000000000000000000000000000815250611c12565b815250908060018154018082558091505060019003905f5260205f2090600402015f909190919091505f820151815f01908161162d9190612023565b5060208201518160010155604082015181600201908161164d9190612023565b5060608201518160030190816116639190612023565b5050505f60405180608001604052806040518060400160405280600281526020017f443300000000000000000000000000000000000000000000000000000000000081525081526020016298968060966116bd9190611dbb565b81526020016040518060400160405280600881526020017f5477697820426172000000000000000000000000000000000000000000000000815250815260200161173b6040518060400160405280600881526020017f747769782e706e67000000000000000000000000000000000000000000000000815250611c12565b815250908060018154018082558091505060019003905f5260205f2090600402015f909190919091505f820151815f0190816117779190612023565b506020820151816001015560408201518160020190816117979190612023565b5060608201518160030190816117ad9190612023565b5050505f60405180608001604052806040518060400160405280600281526020017f4434000000000000000000000000000000000000000000000000000000000000815250815260200162989680607d6118079190611dbb565b81526020016040518060400160405280600581526020017f446f6e757400000000000000000000000000000000000000000000000000000081525081526020016118856040518060400160405280600981526020017f646f6e75742e706e670000000000000000000000000000000000000000000000815250611c12565b815250908060018154018082558091505060019003905f5260205f2090600402015f909190919091505f820151815f0190816118c19190612023565b506020820151816001015560408201518160020190816118e19190612023565b5060608201518160030190816118f79190612023565b5050505f60405180608001604052806040518060400160405280600281526020017f4435000000000000000000000000000000000000000000000000000000000000815250815260200162989680607d6119519190611dbb565b81526020016040518060400160405280600981526020017f526564204170706c65000000000000000000000000000000000000000000000081525081526020016119cf6040518060400160405280600981526020017f6170706c652e706e670000000000000000000000000000000000000000000000815250611c12565b815250908060018154018082558091505060019003905f5260205f2090600402015f909190919091505f820151815f019081611a0b9190612023565b50602082015181600101556040820151816002019081611a2b9190612023565b506060820151816003019081611a419190612023565b505050565b5f8181548110611a54575f80fd5b905f5260205f2090600402015f91509050805f018054611a7390611e56565b80601f0160208091040260200160405190810160405280929190818152602001828054611a9f90611e56565b8015611aea5780601f10611ac157610100808354040283529160200191611aea565b820191905f5260205f20905b815481529060010190602001808311611acd57829003601f168201915b505050505090806001015490806002018054611b0590611e56565b80601f0160208091040260200160405190810160405280929190818152602001828054611b3190611e56565b8015611b7c5780601f10611b5357610100808354040283529160200191611b7c565b820191905f5260205f20905b815481529060010190602001808311611b5f57829003601f168201915b505050505090806003018054611b9190611e56565b80601f0160208091040260200160405190810160405280929190818152602001828054611bbd90611e56565b8015611c085780601f10611bdf57610100808354040283529160200191611c08565b820191905f5260205f20905b815481529060010190602001808311611beb57829003601f168201915b5050505050905084565b60606040518060600160405280602f8152602001612150602f913982604051602001611c3f92919061212c565b6040516020818303038152906040529050919050565b5f80fd5b5f819050919050565b611c6b81611c59565b8114611c75575f80fd5b50565b5f81359050611c8681611c62565b92915050565b5f60208284031215611ca157611ca0611c55565b5b5f611cae84828501611c78565b91505092915050565b5f81519050919050565b5f82825260208201905092915050565b8281835e5f83830152505050565b5f601f19601f8301169050919050565b5f611cf982611cb7565b611d038185611cc1565b9350611d13818560208601611cd1565b611d1c81611cdf565b840191505092915050565b611d3081611c59565b82525050565b5f6080820190508181035f830152611d4e8187611cef565b9050611d5d6020830186611d27565b8181036040830152611d6f8185611cef565b90508181036060830152611d838184611cef565b905095945050505050565b7f4e487b71000000000000000000000000000000000000000000000000000000005f52601160045260245ffd5b5f611dc582611c59565b9150611dd083611c59565b9250828202611dde81611c59565b91508282048414831517611df557611df4611d8e565b5b5092915050565b7f4e487b71000000000000000000000000000000000000000000000000000000005f52604160045260245ffd5b7f4e487b71000000000000000000000000000000000000000000000000000000005f52602260045260245ffd5b5f6002820490506001821680611e6d57607f821691505b602082108103611e8057611e7f611e29565b5b50919050565b5f819050815f5260205f209050919050565b5f6020601f8301049050919050565b5f82821b905092915050565b5f60088302611ee27fffffffffffffffffffffffffffffffffffffffffffffffffffffffffffffffff82611ea7565b611eec8683611ea7565b95508019841693508086168417925050509392505050565b5f819050919050565b5f611f27611f22611f1d84611c59565b611f04565b611c59565b9050919050565b5f819050919050565b611f4083611f0d565b611f54611f4c82611f2e565b848454611eb3565b825550505050565b5f90565b611f68611f5c565b611f73818484611f37565b505050565b5b81811015611f9657611f8b5f82611f60565b600181019050611f79565b5050565b601f821115611fdb57611fac81611e86565b611fb584611e98565b81016020851015611fc4578190505b611fd8611fd085611e98565b830182611f78565b50505b505050565b5f82821c905092915050565b5f611ffb5f1984600802611fe0565b1980831691505092915050565b5f6120138383611fec565b9150826002028217905092915050565b61202c82611cb7565b67ffffffffffffffff81111561204557612044611dfc565b5b61204f8254611e56565b61205a828285611f9a565b5f60209050601f83116001811461208b575f8415612079578287015190505b6120838582612008565b8655506120ea565b601f19841661209986611e86565b5f5b828110156120c05784890151825560018201915060208501945060208101905061209b565b868310156120dd57848901516120d9601f891682611fec565b8355505b6001600288020188555050505b505050505050565b5f81905092915050565b5f61210682611cb7565b61211081856120f2565b9350612120818560208601611cd1565b80840191505092915050565b5f61213782856120fc565b915061214382846120fc565b9150819050939250505056fe516d6652465261626f50334d3438656578766e516b6977675544506150484a69466e44634b637545754c426266312fa264697066735822122081a2bb1e7e0c2180277e6e728f27c572c7679e0defd8dd0d00663b7f5fa98fac64736f6c634300081a0033",
			"opcodes": "PUSH1 0x80 PUSH1 0x40 MSTORE CALLVALUE DUP1 ISZERO PUSH1 0xE JUMPI PUSH0 DUP1 REVERT JUMPDEST POP PUSH2 0x21B4 DUP1 PUSH2 0x1C PUSH0 CODECOPY PUSH0 RETURN INVALID PUSH1 0x80 PUSH1 0x40 MSTORE CALLVALUE DUP1 ISZERO PUSH2 0xF JUMPI PUSH0 DUP1 REVERT JUMPDEST POP PUSH1 0x4 CALLDATASIZE LT PUSH2 0x34 JUMPI PUSH0 CALLDATALOAD PUSH1 0xE0 SHR DUP1 PUSH4 0x5CF810ED EQ PUSH2 0x38 JUMPI DUP1 PUSH4 0x7ACC0B20 EQ PUSH2 0x42 JUMPI JUMPDEST PUSH0 DUP1 REVERT JUMPDEST PUSH2 0x40 PUSH2 0x75 JUMP JUMPDEST STOP JUMPDEST PUSH2 0x5C PUSH1 0x4 DUP1 CALLDATASIZE SUB DUP2 ADD SWAP1 PUSH2 0x57 SWAP2 SWAP1 PUSH2 0x1C8C JUMP JUMPDEST PUSH2 0x1A46 JUMP JUMPDEST PUSH1 0x40 MLOAD PUSH2 0x6C SWAP5 SWAP4 SWAP3 SWAP2 SWAP1 PUSH2 0x1D36 JUMP JUMPDEST PUSH1 0x40 MLOAD DUP1 SWAP2 SUB SWAP1 RETURN JUMPDEST PUSH0 PUSH1 0x40 MLOAD DUP1 PUSH1 0x80 ADD PUSH1 0x40 MSTORE DUP1 PUSH1 0x40 MLOAD DUP1 PUSH1 0x40 ADD PUSH1 0x40 MSTORE DUP1 PUSH1 0x2 DUP2 MSTORE PUSH1 0x20 ADD PUSH32 0x4131000000000000000000000000000000000000000000000000000000000000 DUP2 MSTORE POP DUP2 MSTORE PUSH1 0x20 ADD PUSH4 0x5F5E100 PUSH1 0xF PUSH2 0xCD SWAP2 SWAP1 PUSH2 0x1DBB JUMP JUMPDEST DUP2 MSTORE PUSH1 0x20 ADD PUSH1 0x40 MLOAD DUP1 PUSH1 0x40 ADD PUSH1 0x40 MSTORE DUP1 PUSH1 0x4 DUP2 MSTORE PUSH1 0x20 ADD PUSH32 0x4C61797300000000000000000000000000000000000000000000000000000000 DUP2 MSTORE POP DUP2 MSTORE PUSH1 0x20 ADD PUSH2 0x14B PUSH1 0x40 MLOAD DUP1 PUSH1 0x40 ADD PUSH1 0x40 MSTORE DUP1 PUSH1 0x8 DUP2 MSTORE PUSH1 0x20 ADD PUSH32 0x6C6179732E706E67000000000000000000000000000000000000000000000000 DUP2 MSTORE POP PUSH2 0x1C12 JUMP JUMPDEST DUP2 MSTORE POP SWAP1 DUP1 PUSH1 0x1 DUP2 SLOAD ADD DUP1 DUP3 SSTORE DUP1 SWAP2 POP POP PUSH1 0x1 SWAP1 SUB SWAP1 PUSH0 MSTORE PUSH1 0x20 PUSH0 KECCAK256 SWAP1 PUSH1 0x4 MUL ADD PUSH0 SWAP1 SWAP2 SWAP1 SWAP2 SWAP1 SWAP2 POP PUSH0 DUP3 ADD MLOAD DUP2 PUSH0 ADD SWAP1 DUP2 PUSH2 0x187 SWAP2 SWAP1 PUSH2 0x2023 JUMP JUMPDEST POP PUSH1 0x20 DUP3 ADD MLOAD DUP2 PUSH1 0x1 ADD SSTORE PUSH1 0x40 DUP3 ADD MLOAD DUP2 PUSH1 0x2 ADD SWAP1 DUP2 PUSH2 0x1A7 SWAP2 SWAP1 PUSH2 0x2023 JUMP JUMPDEST POP PUSH1 0x60 DUP3 ADD MLOAD DUP2 PUSH1 0x3 ADD SWAP1 DUP2 PUSH2 0x1BD SWAP2 SWAP1 PUSH2 0x2023 JUMP JUMPDEST POP POP POP PUSH0 PUSH1 0x40 MLOAD DUP1 PUSH1 0x80 ADD PUSH1 0x40 MSTORE DUP1 PUSH1 0x40 MLOAD DUP1 PUSH1 0x40 ADD PUSH1 0x40 MSTORE DUP1 PUSH1 0x2 DUP2 MSTORE PUSH1 0x20 ADD PUSH32 0x4132000000000000000000000000000000000000000000000000000000000000 DUP2 MSTORE POP DUP2 MSTORE PUSH1 0x20 ADD PUSH3 0x989680 PUSH1 0xAF PUSH2 0x217 SWAP2 SWAP1 PUSH2 0x1DBB JUMP JUMPDEST DUP2 MSTORE PUSH1 0x20 ADD PUSH1 0x40 MLOAD DUP1 PUSH1 0x40 ADD PUSH1 0x40 MSTORE DUP1 PUSH1 0x9 DUP2 MSTORE PUSH1 0x20 ADD PUSH32 0x436F636120436F6C610000000000000000000000000000000000000000000000 DUP2 MSTORE POP DUP2 MSTORE PUSH1 0x20 ADD PUSH2 0x295 PUSH1 0x40 MLOAD DUP1 PUSH1 0x40 ADD PUSH1 0x40 MSTORE DUP1 PUSH1 0xD DUP2 MSTORE PUSH1 0x20 ADD PUSH32 0x636F63612D636F6C612E706E6700000000000000000000000000000000000000 DUP2 MSTORE POP PUSH2 0x1C12 JUMP JUMPDEST DUP2 MSTORE POP SWAP1 DUP1 PUSH1 0x1 DUP2 SLOAD ADD DUP1 DUP3 SSTORE DUP1 SWAP2 POP POP PUSH1 0x1 SWAP1 SUB SWAP1 PUSH0 MSTORE PUSH1 0x20 PUSH0 KECCAK256 SWAP1 PUSH1 0x4 MUL ADD PUSH0 SWAP1 SWAP2 SWAP1 SWAP2 SWAP1 SWAP2 POP PUSH0 DUP3 ADD MLOAD DUP2 PUSH0 ADD SWAP1 DUP2 PUSH2 0x2D1 SWAP2 SWAP1 PUSH2 0x2023 JUMP JUMPDEST POP PUSH1 0x20 DUP3 ADD MLOAD DUP2 PUSH1 0x1 ADD SSTORE PUSH1 0x40 DUP3 ADD MLOAD DUP2 PUSH1 0x2 ADD SWAP1 DUP2 PUSH2 0x2F1 SWAP2 SWAP1 PUSH2 0x2023 JUMP JUMPDEST POP PUSH1 0x60 DUP3 ADD MLOAD DUP2 PUSH1 0x3 ADD SWAP1 DUP2 PUSH2 0x307 SWAP2 SWAP1 PUSH2 0x2023 JUMP JUMPDEST POP POP POP PUSH0 PUSH1 0x40 MLOAD DUP1 PUSH1 0x80 ADD PUSH1 0x40 MSTORE DUP1 PUSH1 0x40 MLOAD DUP1 PUSH1 0x40 ADD PUSH1 0x40 MSTORE DUP1 PUSH1 0x2 DUP2 MSTORE PUSH1 0x20 ADD PUSH32 0x4133000000000000000000000000000000000000000000000000000000000000 DUP2 MSTORE POP DUP2 MSTORE PUSH1 0x20 ADD PUSH4 0x5F5E100 PUSH1 0xF PUSH2 0x362 SWAP2 SWAP1 PUSH2 0x1DBB JUMP JUMPDEST DUP2 MSTORE PUSH1 0x20 ADD PUSH1 0x40 MLOAD DUP1 PUSH1 0x40 ADD PUSH1 0x40 MSTORE DUP1 PUSH1 0x8 DUP2 MSTORE PUSH1 0x20 ADD PUSH32 0x5072696E676C6573000000000000000000000000000000000000000000000000 DUP2 MSTORE POP DUP2 MSTORE PUSH1 0x20 ADD PUSH2 0x3E0 PUSH1 0x40 MLOAD DUP1 PUSH1 0x40 ADD PUSH1 0x40 MSTORE DUP1 PUSH1 0xB DUP2 MSTORE PUSH1 0x20 ADD PUSH32 0x70696E676C65732E706E67000000000000000000000000000000000000000000 DUP2 MSTORE POP PUSH2 0x1C12 JUMP JUMPDEST DUP2 MSTORE POP SWAP1 DUP1 PUSH1 0x1 DUP2 SLOAD ADD DUP1 DUP3 SSTORE DUP1 SWAP2 POP POP PUSH1 0x1 SWAP1 SUB SWAP1 PUSH0 MSTORE PUSH1 0x20 PUSH0 KECCAK256 SWAP1 PUSH1 0x4 MUL ADD PUSH0 SWAP1 SWAP2 SWAP1 SWAP2 SWAP1 SWAP2 POP PUSH0 DUP3 ADD MLOAD DUP2 PUSH0 ADD SWAP1 DUP2 PUSH2 0x41C SWAP2 SWAP1 PUSH2 0x2023 JUMP JUMPDEST POP PUSH1 0x20 DUP3 ADD MLOAD DUP2 PUSH1 0x1 ADD SSTORE PUSH1 0x40 DUP3 ADD MLOAD DUP2 PUSH1 0x2 ADD SWAP1 DUP2 PUSH2 0x43C SWAP2 SWAP1 PUSH2 0x2023 JUMP JUMPDEST POP PUSH1 0x60 DUP3 ADD MLOAD DUP2 PUSH1 0x3 ADD SWAP1 DUP2 PUSH2 0x452 SWAP2 SWAP1 PUSH2 0x2023 JUMP JUMPDEST POP POP POP PUSH0 PUSH1 0x40 MLOAD DUP1 PUSH1 0x80 ADD PUSH1 0x40 MSTORE DUP1 PUSH1 0x40 MLOAD DUP1 PUSH1 0x40 ADD PUSH1 0x40 MSTORE DUP1 PUSH1 0x2 DUP2 MSTORE PUSH1 0x20 ADD PUSH32 0x4134000000000000000000000000000000000000000000000000000000000000 DUP2 MSTORE POP DUP2 MSTORE PUSH1 0x20 ADD PUSH3 0x989680 PUSH1 0xAF PUSH2 0x4AC SWAP2 SWAP1 PUSH2 0x1DBB JUMP JUMPDEST DUP2 MSTORE PUSH1 0x20 ADD PUSH1 0x40 MLOAD DUP1 PUSH1 0x40 ADD PUSH1 0x40 MSTORE DUP1 PUSH1 0x5 DUP2 MSTORE PUSH1 0x20 ADD PUSH32 0x5761746572000000000000000000000000000000000000000000000000000000 DUP2 MSTORE POP DUP2 MSTORE PUSH1 0x20 ADD PUSH2 0x52A PUSH1 0x40 MLOAD DUP1 PUSH1 0x40 ADD PUSH1 0x40 MSTORE DUP1 PUSH1 0x9 DUP2 MSTORE PUSH1 0x20 ADD PUSH32 0x77617465722E706E670000000000000000000000000000000000000000000000 DUP2 MSTORE POP PUSH2 0x1C12 JUMP JUMPDEST DUP2 MSTORE POP SWAP1 DUP1 PUSH1 0x1 DUP2 SLOAD ADD DUP1 DUP3 SSTORE DUP1 SWAP2 POP POP PUSH1 0x1 SWAP1 SUB SWAP1 PUSH0 MSTORE PUSH1 0x20 PUSH0 KECCAK256 SWAP1 PUSH1 0x4 MUL ADD PUSH0 SWAP1 SWAP2 SWAP1 SWAP2 SWAP1 SWAP2 POP PUSH0 DUP3 ADD MLOAD DUP2 PUSH0 ADD SWAP1 DUP2 PUSH2 0x566 SWAP2 SWAP1 PUSH2 0x2023 JUMP JUMPDEST POP PUSH1 0x20 DUP3 ADD MLOAD DUP2 PUSH1 0x1 ADD SSTORE PUSH1 0x40 DUP3 ADD MLOAD DUP2 PUSH1 0x2 ADD SWAP1 DUP2 PUSH2 0x586 SWAP2 SWAP1 PUSH2 0x2023 JUMP JUMPDEST POP PUSH1 0x60 DUP3 ADD MLOAD DUP2 PUSH1 0x3 ADD SWAP1 DUP2 PUSH2 0x59C SWAP2 SWAP1 PUSH2 0x2023 JUMP JUMPDEST POP POP POP PUSH0 PUSH1 0x40 MLOAD DUP1 PUSH1 0x80 ADD PUSH1 0x40 MSTORE DUP1 PUSH1 0x40 MLOAD DUP1 PUSH1 0x40 ADD PUSH1 0x40 MSTORE DUP1 PUSH1 0x2 DUP2 MSTORE PUSH1 0x20 ADD PUSH32 0x4135000000000000000000000000000000000000000000000000000000000000 DUP2 MSTORE POP DUP2 MSTORE PUSH1 0x20 ADD PUSH4 0x5F5E100 PUSH1 0xF PUSH2 0x5F7 SWAP2 SWAP1 PUSH2 0x1DBB JUMP JUMPDEST DUP2 MSTORE PUSH1 0x20 ADD PUSH1 0x40 MLOAD DUP1 PUSH1 0x40 ADD PUSH1 0x40 MSTORE DUP1 PUSH1 0xC DUP2 MSTORE PUSH1 0x20 ADD PUSH32 0x456E65726779204472696E6B0000000000000000000000000000000000000000 DUP2 MSTORE POP DUP2 MSTORE PUSH1 0x20 ADD PUSH2 0x675 PUSH1 0x40 MLOAD DUP1 PUSH1 0x40 ADD PUSH1 0x40 MSTORE DUP1 PUSH1 0xC DUP2 MSTORE PUSH1 0x20 ADD PUSH32 0x7265642D62756C6C2E706E670000000000000000000000000000000000000000 DUP2 MSTORE POP PUSH2 0x1C12 JUMP JUMPDEST DUP2 MSTORE POP SWAP1 DUP1 PUSH1 0x1 DUP2 SLOAD ADD DUP1 DUP3 SSTORE DUP1 SWAP2 POP POP PUSH1 0x1 SWAP1 SUB SWAP1 PUSH0 MSTORE PUSH1 0x20 PUSH0 KECCAK256 SWAP1 PUSH1 0x4 MUL ADD PUSH0 SWAP1 SWAP2 SWAP1 SWAP2 SWAP1 SWAP2 POP PUSH0 DUP3 ADD MLOAD DUP2 PUSH0 ADD SWAP1 DUP2 PUSH2 0x6B1 SWAP2 SWAP1 PUSH2 0x2023 JUMP JUMPDEST POP PUSH1 0x20 DUP3 ADD MLOAD DUP2 PUSH1 0x1 ADD SSTORE PUSH1 0x40 DUP3 ADD MLOAD DUP2 PUSH1 0x2 ADD SWAP1 DUP2 PUSH2 0x6D1 SWAP2 SWAP1 PUSH2 0x2023 JUMP JUMPDEST POP PUSH1 0x60 DUP3 ADD MLOAD DUP2 PUSH1 0x3 ADD SWAP1 DUP2 PUSH2 0x6E7 SWAP2 SWAP1 PUSH2 0x2023 JUMP JUMPDEST POP POP POP PUSH0 PUSH1 0x40 MLOAD DUP1 PUSH1 0x80 ADD PUSH1 0x40 MSTORE DUP1 PUSH1 0x40 MLOAD DUP1 PUSH1 0x40 ADD PUSH1 0x40 MSTORE DUP1 PUSH1 0x2 DUP2 MSTORE PUSH1 0x20 ADD PUSH32 0x4231000000000000000000000000000000000000000000000000000000000000 DUP2 MSTORE POP DUP2 MSTORE PUSH1 0x20 ADD PUSH4 0x5F5E100 PUSH1 0x14 PUSH2 0x742 SWAP2 SWAP1 PUSH2 0x1DBB JUMP JUMPDEST DUP2 MSTORE PUSH1 0x20 ADD PUSH1 0x40 MLOAD DUP1 PUSH1 0x40 ADD PUSH1 0x40 MSTORE DUP1 PUSH1 0x8 DUP2 MSTORE PUSH1 0x20 ADD PUSH32 0x53616E6477696368000000000000000000000000000000000000000000000000 DUP2 MSTORE POP DUP2 MSTORE PUSH1 0x20 ADD PUSH2 0x7C0 PUSH1 0x40 MLOAD DUP1 PUSH1 0x40 ADD PUSH1 0x40 MSTORE DUP1 PUSH1 0xC DUP2 MSTORE PUSH1 0x20 ADD PUSH32 0x73616E64776963682E706E670000000000000000000000000000000000000000 DUP2 MSTORE POP PUSH2 0x1C12 JUMP JUMPDEST DUP2 MSTORE POP SWAP1 DUP1 PUSH1 0x1 DUP2 SLOAD ADD DUP1 DUP3 SSTORE DUP1 SWAP2 POP POP PUSH1 0x1 SWAP1 SUB SWAP1 PUSH0 MSTORE PUSH1 0x20 PUSH0 KECCAK256 SWAP1 PUSH1 0x4 MUL ADD PUSH0 SWAP1 SWAP2 SWAP1 SWAP2 SWAP1 SWAP2 POP PUSH0 DUP3 ADD MLOAD DUP2 PUSH0 ADD SWAP1 DUP2 PUSH2 0x7FC SWAP2 SWAP1 PUSH2 0x2023 JUMP JUMPDEST POP PUSH1 0x20 DUP3 ADD MLOAD DUP2 PUSH1 0x1 ADD SSTORE PUSH1 0x40 DUP3 ADD MLOAD DUP2 PUSH1 0x2 ADD SWAP1 DUP2 PUSH2 0x81C SWAP2 SWAP1 PUSH2 0x2023 JUMP JUMPDEST POP PUSH1 0x60 DUP3 ADD MLOAD DUP2 PUSH1 0x3 ADD SWAP1 DUP2 PUSH2 0x832 SWAP2 SWAP1 PUSH2 0x2023 JUMP JUMPDEST POP POP POP PUSH0 PUSH1 0x40 MLOAD DUP1 PUSH1 0x80 ADD PUSH1 0x40 MSTORE DUP1 PUSH1 0x40 MLOAD DUP1 PUSH1 0x40 ADD PUSH1 0x40 MSTORE DUP1 PUSH1 0x2 DUP2 MSTORE PUSH1 0x20 ADD PUSH32 0x4232000000000000000000000000000000000000000000000000000000000000 DUP2 MSTORE POP DUP2 MSTORE PUSH1 0x20 ADD PUSH3 0x989680 PUSH1 0xAF PUSH2 0x88C SWAP2 SWAP1 PUSH2 0x1DBB JUMP JUMPDEST DUP2 MSTORE PUSH1 0x20 ADD PUSH1 0x40 MLOAD DUP1 PUSH1 0x40 ADD PUSH1 0x40 MSTORE DUP1 PUSH1 0x4 DUP2 MSTORE PUSH1 0x20 ADD PUSH32 0x4F72656F00000000000000000000000000000000000000000000000000000000 DUP2 MSTORE POP DUP2 MSTORE PUSH1 0x20 ADD PUSH2 0x90A PUSH1 0x40 MLOAD DUP1 PUSH1 0x40 ADD PUSH1 0x40 MSTORE DUP1 PUSH1 0x8 DUP2 MSTORE PUSH1 0x20 ADD PUSH32 0x6F72656F2E706E67000000000000000000000000000000000000000000000000 DUP2 MSTORE POP PUSH2 0x1C12 JUMP JUMPDEST DUP2 MSTORE POP SWAP1 DUP1 PUSH1 0x1 DUP2 SLOAD ADD DUP1 DUP3 SSTORE DUP1 SWAP2 POP POP PUSH1 0x1 SWAP1 SUB SWAP1 PUSH0 MSTORE PUSH1 0x20 PUSH0 KECCAK256 SWAP1 PUSH1 0x4 MUL ADD PUSH0 SWAP1 SWAP2 SWAP1 SWAP2 SWAP1 SWAP2 POP PUSH0 DUP3 ADD MLOAD DUP2 PUSH0 ADD SWAP1 DUP2 PUSH2 0x946 SWAP2 SWAP1 PUSH2 0x2023 JUMP JUMPDEST POP PUSH1 0x20 DUP3 ADD MLOAD DUP2 PUSH1 0x1 ADD SSTORE PUSH1 0x40 DUP3 ADD MLOAD DUP2 PUSH1 0x2 ADD SWAP1 DUP2 PUSH2 0x966 SWAP2 SWAP1 PUSH2 0x2023 JUMP JUMPDEST POP PUSH1 0x60 DUP3 ADD MLOAD DUP2 PUSH1 0x3 ADD SWAP1 DUP2 PUSH2 0x97C SWAP2 SWAP1 PUSH2 0x2023 JUMP JUMPDEST POP POP POP PUSH0 PUSH1 0x40 MLOAD DUP1 PUSH1 0x80 ADD PUSH1 0x40 MSTORE DUP1 PUSH1 0x40 MLOAD DUP1 PUSH1 0x40 ADD PUSH1 0x40 MSTORE DUP1 PUSH1 0x2 DUP2 MSTORE PUSH1 0x20 ADD PUSH32 0x4233000000000000000000000000000000000000000000000000000000000000 DUP2 MSTORE POP DUP2 MSTORE PUSH1 0x20 ADD PUSH4 0x5F5E100 PUSH1 0xF PUSH2 0x9D7 SWAP2 SWAP1 PUSH2 0x1DBB JUMP JUMPDEST DUP2 MSTORE PUSH1 0x20 ADD PUSH1 0x40 MLOAD DUP1 PUSH1 0x40 ADD PUSH1 0x40 MSTORE DUP1 PUSH1 0x6 DUP2 MSTORE PUSH1 0x20 ADD PUSH32 0x5370726974650000000000000000000000000000000000000000000000000000 DUP2 MSTORE POP DUP2 MSTORE PUSH1 0x20 ADD PUSH2 0xA55 PUSH1 0x40 MLOAD DUP1 PUSH1 0x40 ADD PUSH1 0x40 MSTORE DUP1 PUSH1 0xA DUP2 MSTORE PUSH1 0x20 ADD PUSH32 0x7370726974652E706E6700000000000000000000000000000000000000000000 DUP2 MSTORE POP PUSH2 0x1C12 JUMP JUMPDEST DUP2 MSTORE POP SWAP1 DUP1 PUSH1 0x1 DUP2 SLOAD ADD DUP1 DUP3 SSTORE DUP1 SWAP2 POP POP PUSH1 0x1 SWAP1 SUB SWAP1 PUSH0 MSTORE PUSH1 0x20 PUSH0 KECCAK256 SWAP1 PUSH1 0x4 MUL ADD PUSH0 SWAP1 SWAP2 SWAP1 SWAP2 SWAP1 SWAP2 POP PUSH0 DUP3 ADD MLOAD DUP2 PUSH0 ADD SWAP1 DUP2 PUSH2 0xA91 SWAP2 SWAP1 PUSH2 0x2023 JUMP JUMPDEST POP PUSH1 0x20 DUP3 ADD MLOAD DUP2 PUSH1 0x1 ADD SSTORE PUSH1 0x40 DUP3 ADD MLOAD DUP2 PUSH1 0x2 ADD SWAP1 DUP2 PUSH2 0xAB1 SWAP2 SWAP1 PUSH2 0x2023 JUMP JUMPDEST POP PUSH1 0x60 DUP3 ADD MLOAD DUP2 PUSH1 0x3 ADD SWAP1 DUP2 PUSH2 0xAC7 SWAP2 SWAP1 PUSH2 0x2023 JUMP JUMPDEST POP POP POP PUSH0 PUSH1 0x40 MLOAD DUP1 PUSH1 0x80 ADD PUSH1 0x40 MSTORE DUP1 PUSH1 0x40 MLOAD DUP1 PUSH1 0x40 ADD PUSH1 0x40 MSTORE DUP1 PUSH1 0x2 DUP2 MSTORE PUSH1 0x20 ADD PUSH32 0x4234000000000000000000000000000000000000000000000000000000000000 DUP2 MSTORE POP DUP2 MSTORE PUSH1 0x20 ADD PUSH3 0x989680 PUSH1 0xAF PUSH2 0xB21 SWAP2 SWAP1 PUSH2 0x1DBB JUMP JUMPDEST DUP2 MSTORE PUSH1 0x20 ADD PUSH1 0x40 MLOAD DUP1 PUSH1 0x40 ADD PUSH1 0x40 MSTORE DUP1 PUSH1 0xB DUP2 MSTORE PUSH1 0x20 ADD PUSH32 0x4772616E6F6C6120426172000000000000000000000000000000000000000000 DUP2 MSTORE POP DUP2 MSTORE PUSH1 0x20 ADD PUSH2 0xB9F PUSH1 0x40 MLOAD DUP1 PUSH1 0x40 ADD PUSH1 0x40 MSTORE DUP1 PUSH1 0xF DUP2 MSTORE PUSH1 0x20 ADD PUSH32 0x6772616E6F6C612D6261722E706E670000000000000000000000000000000000 DUP2 MSTORE POP PUSH2 0x1C12 JUMP JUMPDEST DUP2 MSTORE POP SWAP1 DUP1 PUSH1 0x1 DUP2 SLOAD ADD DUP1 DUP3 SSTORE DUP1 SWAP2 POP POP PUSH1 0x1 SWAP1 SUB SWAP1 PUSH0 MSTORE PUSH1 0x20 PUSH0 KECCAK256 SWAP1 PUSH1 0x4 MUL ADD PUSH0 SWAP1 SWAP2 SWAP1 SWAP2 SWAP1 SWAP2 POP PUSH0 DUP3 ADD MLOAD DUP2 PUSH0 ADD SWAP1 DUP2 PUSH2 0xBDB SWAP2 SWAP1 PUSH2 0x2023 JUMP JUMPDEST POP PUSH1 0x20 DUP3 ADD MLOAD DUP2 PUSH1 0x1 ADD SSTORE PUSH1 0x40 DUP3 ADD MLOAD DUP2 PUSH1 0x2 ADD SWAP1 DUP2 PUSH2 0xBFB SWAP2 SWAP1 PUSH2 0x2023 JUMP JUMPDEST POP PUSH1 0x60 DUP3 ADD MLOAD DUP2 PUSH1 0x3 ADD SWAP1 DUP2 PUSH2 0xC11 SWAP2 SWAP1 PUSH2 0x2023 JUMP JUMPDEST POP POP POP PUSH0 PUSH1 0x40 MLOAD DUP1 PUSH1 0x80 ADD PUSH1 0x40 MSTORE DUP1 PUSH1 0x40 MLOAD DUP1 PUSH1 0x40 ADD PUSH1 0x40 MSTORE DUP1 PUSH1 0x2 DUP2 MSTORE PUSH1 0x20 ADD PUSH32 0x4235000000000000000000000000000000000000000000000000000000000000 DUP2 MSTORE POP DUP2 MSTORE PUSH1 0x20 ADD PUSH3 0x989680 PUSH1 0xAF PUSH2 0xC6B SWAP2 SWAP1 PUSH2 0x1DBB JUMP JUMPDEST DUP2 MSTORE PUSH1 0x20 ADD PUSH1 0x40 MLOAD DUP1 PUSH1 0x40 ADD PUSH1 0x40 MSTORE DUP1 PUSH1 0x7 DUP2 MSTORE PUSH1 0x20 ADD PUSH32 0x446F7269746F7300000000000000000000000000000000000000000000000000 DUP2 MSTORE POP DUP2 MSTORE PUSH1 0x20 ADD PUSH2 0xCE9 PUSH1 0x40 MLOAD DUP1 PUSH1 0x40 ADD PUSH1 0x40 MSTORE DUP1 PUSH1 0xB DUP2 MSTORE PUSH1 0x20 ADD PUSH32 0x646F7269746F732E706E67000000000000000000000000000000000000000000 DUP2 MSTORE POP PUSH2 0x1C12 JUMP JUMPDEST DUP2 MSTORE POP SWAP1 DUP1 PUSH1 0x1 DUP2 SLOAD ADD DUP1 DUP3 SSTORE DUP1 SWAP2 POP POP PUSH1 0x1 SWAP1 SUB SWAP1 PUSH0 MSTORE PUSH1 0x20 PUSH0 KECCAK256 SWAP1 PUSH1 0x4 MUL ADD PUSH0 SWAP1 SWAP2 SWAP1 SWAP2 SWAP1 SWAP2 POP PUSH0 DUP3 ADD MLOAD DUP2 PUSH0 ADD SWAP1 DUP2 PUSH2 0xD25 SWAP2 SWAP1 PUSH2 0x2023 JUMP JUMPDEST POP PUSH1 0x20 DUP3 ADD MLOAD DUP2 PUSH1 0x1 ADD SSTORE PUSH1 0x40 DUP3 ADD MLOAD DUP2 PUSH1 0x2 ADD SWAP1 DUP2 PUSH2 0xD45 SWAP2 SWAP1 PUSH2 0x2023 JUMP JUMPDEST POP PUSH1 0x60 DUP3 ADD MLOAD DUP2 PUSH1 0x3 ADD SWAP1 DUP2 PUSH2 0xD5B SWAP2 SWAP1 PUSH2 0x2023 JUMP JUMPDEST POP POP POP PUSH0 PUSH1 0x40 MLOAD DUP1 PUSH1 0x80 ADD PUSH1 0x40 MSTORE DUP1 PUSH1 0x40 MLOAD DUP1 PUSH1 0x40 ADD PUSH1 0x40 MSTORE DUP1 PUSH1 0x2 DUP2 MSTORE PUSH1 0x20 ADD PUSH32 0x4331000000000000000000000000000000000000000000000000000000000000 DUP2 MSTORE POP DUP2 MSTORE PUSH1 0x20 ADD PUSH4 0x5F5E100 PUSH1 0xF PUSH2 0xDB6 SWAP2 SWAP1 PUSH2 0x1DBB JUMP JUMPDEST DUP2 MSTORE PUSH1 0x20 ADD PUSH1 0x40 MLOAD DUP1 PUSH1 0x40 ADD PUSH1 0x40 MSTORE DUP1 PUSH1 0xB DUP2 MSTORE PUSH1 0x20 ADD PUSH32 0x536E69636B657220426172000000000000000000000000000000000000000000 DUP2 MSTORE POP DUP2 MSTORE PUSH1 0x20 ADD PUSH2 0xE34 PUSH1 0x40 MLOAD DUP1 PUSH1 0x40 ADD PUSH1 0x40 MSTORE DUP1 PUSH1 0xC DUP2 MSTORE PUSH1 0x20 ADD PUSH32 0x736E69636B6572732E706E670000000000000000000000000000000000000000 DUP2 MSTORE POP PUSH2 0x1C12 JUMP JUMPDEST DUP2 MSTORE POP SWAP1 DUP1 PUSH1 0x1 DUP2 SLOAD ADD DUP1 DUP3 SSTORE DUP1 SWAP2 POP POP PUSH1 0x1 SWAP1 SUB SWAP1 PUSH0 MSTORE PUSH1 0x20 PUSH0 KECCAK256 SWAP1 PUSH1 0x4 MUL ADD PUSH0 SWAP1 SWAP2 SWAP1 SWAP2 SWAP1 SWAP2 POP PUSH0 DUP3 ADD MLOAD DUP2 PUSH0 ADD SWAP1 DUP2 PUSH2 0xE70 SWAP2 SWAP1 PUSH2 0x2023 JUMP JUMPDEST POP PUSH1 0x20 DUP3 ADD MLOAD DUP2 PUSH1 0x1 ADD SSTORE PUSH1 0x40 DUP3 ADD MLOAD DUP2 PUSH1 0x2 ADD SWAP1 DUP2 PUSH2 0xE90 SWAP2 SWAP1 PUSH2 0x2023 JUMP JUMPDEST POP PUSH1 0x60 DUP3 ADD MLOAD DUP2 PUSH1 0x3 ADD SWAP1 DUP2 PUSH2 0xEA6 SWAP2 SWAP1 PUSH2 0x2023 JUMP JUMPDEST POP POP POP PUSH0 PUSH1 0x40 MLOAD DUP1 PUSH1 0x80 ADD PUSH1 0x40 MSTORE DUP1 PUSH1 0x40 MLOAD DUP1 PUSH1 0x40 ADD PUSH1 0x40 MSTORE DUP1 PUSH1 0x2 DUP2 MSTORE PUSH1 0x20 ADD PUSH32 0x4332000000000000000000000000000000000000000000000000000000000000 DUP2 MSTORE POP DUP2 MSTORE PUSH1 0x20 ADD PUSH4 0x5F5E100 PUSH1 0xF PUSH2 0xF01 SWAP2 SWAP1 PUSH2 0x1DBB JUMP JUMPDEST DUP2 MSTORE PUSH1 0x20 ADD PUSH1 0x40 MLOAD DUP1 PUSH1 0x40 ADD PUSH1 0x40 MSTORE DUP1 PUSH1 0x4 DUP2 MSTORE PUSH1 0x20 ADD PUSH32 0x4D264D7300000000000000000000000000000000000000000000000000000000 DUP2 MSTORE POP DUP2 MSTORE PUSH1 0x20 ADD PUSH2 0xF7F PUSH1 0x40 MLOAD DUP1 PUSH1 0x40 ADD PUSH1 0x40 MSTORE DUP1 PUSH1 0x8 DUP2 MSTORE PUSH1 0x20 ADD PUSH32 0x6D266D732E706E67000000000000000000000000000000000000000000000000 DUP2 MSTORE POP PUSH2 0x1C12 JUMP JUMPDEST DUP2 MSTORE POP SWAP1 DUP1 PUSH1 0x1 DUP2 SLOAD ADD DUP1 DUP3 SSTORE DUP1 SWAP2 POP POP PUSH1 0x1 SWAP1 SUB SWAP1 PUSH0 MSTORE PUSH1 0x20 PUSH0 KECCAK256 SWAP1 PUSH1 0x4 MUL ADD PUSH0 SWAP1 SWAP2 SWAP1 SWAP2 SWAP1 SWAP2 POP PUSH0 DUP3 ADD MLOAD DUP2 PUSH0 ADD SWAP1 DUP2 PUSH2 0xFBB SWAP2 SWAP1 PUSH2 0x2023 JUMP JUMPDEST POP PUSH1 0x20 DUP3 ADD MLOAD DUP2 PUSH1 0x1 ADD SSTORE PUSH1 0x40 DUP3 ADD MLOAD DUP2 PUSH1 0x2 ADD SWAP1 DUP2 PUSH2 0xFDB SWAP2 SWAP1 PUSH2 0x2023 JUMP JUMPDEST POP PUSH1 0x60 DUP3 ADD MLOAD DUP2 PUSH1 0x3 ADD SWAP1 DUP2 PUSH2 0xFF1 SWAP2 SWAP1 PUSH2 0x2023 JUMP JUMPDEST POP POP POP PUSH0 PUSH1 0x40 MLOAD DUP1 PUSH1 0x80 ADD PUSH1 0x40 MSTORE DUP1 PUSH1 0x40 MLOAD DUP1 PUSH1 0x40 ADD PUSH1 0x40 MSTORE DUP1 PUSH1 0x2 DUP2 MSTORE PUSH1 0x20 ADD PUSH32 0x4333000000000000000000000000000000000000000000000000000000000000 DUP2 MSTORE POP DUP2 MSTORE PUSH1 0x20 ADD PUSH3 0x989680 PUSH1 0x7D PUSH2 0x104B SWAP2 SWAP1 PUSH2 0x1DBB JUMP JUMPDEST DUP2 MSTORE PUSH1 0x20 ADD PUSH1 0x40 MLOAD DUP1 PUSH1 0x40 ADD PUSH1 0x40 MSTORE DUP1 PUSH1 0xE DUP2 MSTORE PUSH1 0x20 ADD PUSH32 0x427562626C65205461702047756D000000000000000000000000000000000000 DUP2 MSTORE POP DUP2 MSTORE PUSH1 0x20 ADD PUSH2 0x10C9 PUSH1 0x40 MLOAD DUP1 PUSH1 0x40 ADD PUSH1 0x40 MSTORE DUP1 PUSH1 0xE DUP2 MSTORE PUSH1 0x20 ADD PUSH32 0x627562626C652D7461702E706E67000000000000000000000000000000000000 DUP2 MSTORE POP PUSH2 0x1C12 JUMP JUMPDEST DUP2 MSTORE POP SWAP1 DUP1 PUSH1 0x1 DUP2 SLOAD ADD DUP1 DUP3 SSTORE DUP1 SWAP2 POP POP PUSH1 0x1 SWAP1 SUB SWAP1 PUSH0 MSTORE PUSH1 0x20 PUSH0 KECCAK256 SWAP1 PUSH1 0x4 MUL ADD PUSH0 SWAP1 SWAP2 SWAP1 SWAP2 SWAP1 SWAP2 POP PUSH0 DUP3 ADD MLOAD DUP2 PUSH0 ADD SWAP1 DUP2 PUSH2 0x1105 SWAP2 SWAP1 PUSH2 0x2023 JUMP JUMPDEST POP PUSH1 0x20 DUP3 ADD MLOAD DUP2 PUSH1 0x1 ADD SSTORE PUSH1 0x40 DUP3 ADD MLOAD DUP2 PUSH1 0x2 ADD SWAP1 DUP2 PUSH2 0x1125 SWAP2 SWAP1 PUSH2 0x2023 JUMP JUMPDEST POP PUSH1 0x60 DUP3 ADD MLOAD DUP2 PUSH1 0x3 ADD SWAP1 DUP2 PUSH2 0x113B SWAP2 SWAP1 PUSH2 0x2023 JUMP JUMPDEST POP POP POP PUSH0 PUSH1 0x40 MLOAD DUP1 PUSH1 0x80 ADD PUSH1 0x40 MSTORE DUP1 PUSH1 0x40 MLOAD DUP1 PUSH1 0x40 ADD PUSH1 0x40 MSTORE DUP1 PUSH1 0x2 DUP2 MSTORE PUSH1 0x20 ADD PUSH32 0x4334000000000000000000000000000000000000000000000000000000000000 DUP2 MSTORE POP DUP2 MSTORE PUSH1 0x20 ADD PUSH3 0x989680 PUSH1 0xAF PUSH2 0x1195 SWAP2 SWAP1 PUSH2 0x1DBB JUMP JUMPDEST DUP2 MSTORE PUSH1 0x20 ADD PUSH1 0x40 MLOAD DUP1 PUSH1 0x40 ADD PUSH1 0x40 MSTORE DUP1 PUSH1 0xD DUP2 MSTORE PUSH1 0x20 ADD PUSH32 0x4672756974204E75742042617200000000000000000000000000000000000000 DUP2 MSTORE POP DUP2 MSTORE PUSH1 0x20 ADD PUSH2 0x1213 PUSH1 0x40 MLOAD DUP1 PUSH1 0x40 ADD PUSH1 0x40 MSTORE DUP1 PUSH1 0xD DUP2 MSTORE PUSH1 0x20 ADD PUSH32 0x66727569742D6E75742E706E6700000000000000000000000000000000000000 DUP2 MSTORE POP PUSH2 0x1C12 JUMP JUMPDEST DUP2 MSTORE POP SWAP1 DUP1 PUSH1 0x1 DUP2 SLOAD ADD DUP1 DUP3 SSTORE DUP1 SWAP2 POP POP PUSH1 0x1 SWAP1 SUB SWAP1 PUSH0 MSTORE PUSH1 0x20 PUSH0 KECCAK256 SWAP1 PUSH1 0x4 MUL ADD PUSH0 SWAP1 SWAP2 SWAP1 SWAP2 SWAP1 SWAP2 POP PUSH0 DUP3 ADD MLOAD DUP2 PUSH0 ADD SWAP1 DUP2 PUSH2 0x124F SWAP2 SWAP1 PUSH2 0x2023 JUMP JUMPDEST POP PUSH1 0x20 DUP3 ADD MLOAD DUP2 PUSH1 0x1 ADD SSTORE PUSH1 0x40 DUP3 ADD MLOAD DUP2 PUSH1 0x2 ADD SWAP1 DUP2 PUSH2 0x126F SWAP2 SWAP1 PUSH2 0x2023 JUMP JUMPDEST POP PUSH1 0x60 DUP3 ADD MLOAD DUP2 PUSH1 0x3 ADD SWAP1 DUP2 PUSH2 0x1285 SWAP2 SWAP1 PUSH2 0x2023 JUMP JUMPDEST POP POP POP PUSH0 PUSH1 0x40 MLOAD DUP1 PUSH1 0x80 ADD PUSH1 0x40 MSTORE DUP1 PUSH1 0x40 MLOAD DUP1 PUSH1 0x40 ADD PUSH1 0x40 MSTORE DUP1 PUSH1 0x2 DUP2 MSTORE PUSH1 0x20 ADD PUSH32 0x4335000000000000000000000000000000000000000000000000000000000000 DUP2 MSTORE POP DUP2 MSTORE PUSH1 0x20 ADD PUSH3 0x989680 PUSH1 0xAF PUSH2 0x12DF SWAP2 SWAP1 PUSH2 0x1DBB JUMP JUMPDEST DUP2 MSTORE PUSH1 0x20 ADD PUSH1 0x40 MLOAD DUP1 PUSH1 0x40 ADD PUSH1 0x40 MSTORE DUP1 PUSH1 0xA DUP2 MSTORE PUSH1 0x20 ADD PUSH32 0x42656566204A65726B7900000000000000000000000000000000000000000000 DUP2 MSTORE POP DUP2 MSTORE PUSH1 0x20 ADD PUSH2 0x135D PUSH1 0x40 MLOAD DUP1 PUSH1 0x40 ADD PUSH1 0x40 MSTORE DUP1 PUSH1 0xE DUP2 MSTORE PUSH1 0x20 ADD PUSH32 0x626565662D6A65726B792E706E67000000000000000000000000000000000000 DUP2 MSTORE POP PUSH2 0x1C12 JUMP JUMPDEST DUP2 MSTORE POP SWAP1 DUP1 PUSH1 0x1 DUP2 SLOAD ADD DUP1 DUP3 SSTORE DUP1 SWAP2 POP POP PUSH1 0x1 SWAP1 SUB SWAP1 PUSH0 MSTORE PUSH1 0x20 PUSH0 KECCAK256 SWAP1 PUSH1 0x4 MUL ADD PUSH0 SWAP1 SWAP2 SWAP1 SWAP2 SWAP1 SWAP2 POP PUSH0 DUP3 ADD MLOAD DUP2 PUSH0 ADD SWAP1 DUP2 PUSH2 0x1399 SWAP2 SWAP1 PUSH2 0x2023 JUMP JUMPDEST POP PUSH1 0x20 DUP3 ADD MLOAD DUP2 PUSH1 0x1 ADD SSTORE PUSH1 0x40 DUP3 ADD MLOAD DUP2 PUSH1 0x2 ADD SWAP1 DUP2 PUSH2 0x13B9 SWAP2 SWAP1 PUSH2 0x2023 JUMP JUMPDEST POP PUSH1 0x60 DUP3 ADD MLOAD DUP2 PUSH1 0x3 ADD SWAP1 DUP2 PUSH2 0x13CF SWAP2 SWAP1 PUSH2 0x2023 JUMP JUMPDEST POP POP POP PUSH0 PUSH1 0x40 MLOAD DUP1 PUSH1 0x80 ADD PUSH1 0x40 MSTORE DUP1 PUSH1 0x40 MLOAD DUP1 PUSH1 0x40 ADD PUSH1 0x40 MSTORE DUP1 PUSH1 0x2 DUP2 MSTORE PUSH1 0x20 ADD PUSH32 0x4431000000000000000000000000000000000000000000000000000000000000 DUP2 MSTORE POP DUP2 MSTORE PUSH1 0x20 ADD PUSH3 0x989680 PUSH1 0x7D PUSH2 0x1429 SWAP2 SWAP1 PUSH2 0x1DBB JUMP JUMPDEST DUP2 MSTORE PUSH1 0x20 ADD PUSH1 0x40 MLOAD DUP1 PUSH1 0x40 ADD PUSH1 0x40 MSTORE DUP1 PUSH1 0xE DUP2 MSTORE PUSH1 0x20 ADD PUSH32 0x4B69744B61742042697363756974000000000000000000000000000000000000 DUP2 MSTORE POP DUP2 MSTORE PUSH1 0x20 ADD PUSH2 0x14A7 PUSH1 0x40 MLOAD DUP1 PUSH1 0x40 ADD PUSH1 0x40 MSTORE DUP1 PUSH1 0xA DUP2 MSTORE PUSH1 0x20 ADD PUSH32 0x6B69746B61742E706E6700000000000000000000000000000000000000000000 DUP2 MSTORE POP PUSH2 0x1C12 JUMP JUMPDEST DUP2 MSTORE POP SWAP1 DUP1 PUSH1 0x1 DUP2 SLOAD ADD DUP1 DUP3 SSTORE DUP1 SWAP2 POP POP PUSH1 0x1 SWAP1 SUB SWAP1 PUSH0 MSTORE PUSH1 0x20 PUSH0 KECCAK256 SWAP1 PUSH1 0x4 MUL ADD PUSH0 SWAP1 SWAP2 SWAP1 SWAP2 SWAP1 SWAP2 POP PUSH0 DUP3 ADD MLOAD DUP2 PUSH0 ADD SWAP1 DUP2 PUSH2 0x14E3 SWAP2 SWAP1 PUSH2 0x2023 JUMP JUMPDEST POP PUSH1 0x20 DUP3 ADD MLOAD DUP2 PUSH1 0x1 ADD SSTORE PUSH1 0x40 DUP3 ADD MLOAD DUP2 PUSH1 0x2 ADD SWAP1 DUP2 PUSH2 0x1503 SWAP2 SWAP1 PUSH2 0x2023 JUMP JUMPDEST POP PUSH1 0x60 DUP3 ADD MLOAD DUP2 PUSH1 0x3 ADD SWAP1 DUP2 PUSH2 0x1519 SWAP2 SWAP1 PUSH2 0x2023 JUMP JUMPDEST POP POP POP PUSH0 PUSH1 0x40 MLOAD DUP1 PUSH1 0x80 ADD PUSH1 0x40 MSTORE DUP1 PUSH1 0x40 MLOAD DUP1 PUSH1 0x40 ADD PUSH1 0x40 MSTORE DUP1 PUSH1 0x2 DUP2 MSTORE PUSH1 0x20 ADD PUSH32 0x4432000000000000000000000000000000000000000000000000000000000000 DUP2 MSTORE POP DUP2 MSTORE PUSH1 0x20 ADD PUSH3 0x989680 PUSH1 0x7D PUSH2 0x1573 SWAP2 SWAP1 PUSH2 0x1DBB JUMP JUMPDEST DUP2 MSTORE PUSH1 0x20 ADD PUSH1 0x40 MLOAD DUP1 PUSH1 0x40 ADD PUSH1 0x40 MSTORE DUP1 PUSH1 0x8 DUP2 MSTORE PUSH1 0x20 ADD PUSH32 0x506F7020436F726E000000000000000000000000000000000000000000000000 DUP2 MSTORE POP DUP2 MSTORE PUSH1 0x20 ADD PUSH2 0x15F1 PUSH1 0x40 MLOAD DUP1 PUSH1 0x40 ADD PUSH1 0x40 MSTORE DUP1 PUSH1 0xB DUP2 MSTORE PUSH1 0x20 ADD PUSH32 0x706F70636F726E2E706E67000000000000000000000000000000000000000000 DUP2 MSTORE POP PUSH2 0x1C12 JUMP JUMPDEST DUP2 MSTORE POP SWAP1 DUP1 PUSH1 0x1 DUP2 SLOAD ADD DUP1 DUP3 SSTORE DUP1 SWAP2 POP POP PUSH1 0x1 SWAP1 SUB SWAP1 PUSH0 MSTORE PUSH1 0x20 PUSH0 KECCAK256 SWAP1 PUSH1 0x4 MUL ADD PUSH0 SWAP1 SWAP2 SWAP1 SWAP2 SWAP1 SWAP2 POP PUSH0 DUP3 ADD MLOAD DUP2 PUSH0 ADD SWAP1 DUP2 PUSH2 0x162D SWAP2 SWAP1 PUSH2 0x2023 JUMP JUMPDEST POP PUSH1 0x20 DUP3 ADD MLOAD DUP2 PUSH1 0x1 ADD SSTORE PUSH1 0x40 DUP3 ADD MLOAD DUP2 PUSH1 0x2 ADD SWAP1 DUP2 PUSH2 0x164D SWAP2 SWAP1 PUSH2 0x2023 JUMP JUMPDEST POP PUSH1 0x60 DUP3 ADD MLOAD DUP2 PUSH1 0x3 ADD SWAP1 DUP2 PUSH2 0x1663 SWAP2 SWAP1 PUSH2 0x2023 JUMP JUMPDEST POP POP POP PUSH0 PUSH1 0x40 MLOAD DUP1 PUSH1 0x80 ADD PUSH1 0x40 MSTORE DUP1 PUSH1 0x40 MLOAD DUP1 PUSH1 0x40 ADD PUSH1 0x40 MSTORE DUP1 PUSH1 0x2 DUP2 MSTORE PUSH1 0x20 ADD PUSH32 0x4433000000000000000000000000000000000000000000000000000000000000 DUP2 MSTORE POP DUP2 MSTORE PUSH1 0x20 ADD PUSH3 0x989680 PUSH1 0x96 PUSH2 0x16BD SWAP2 SWAP1 PUSH2 0x1DBB JUMP JUMPDEST DUP2 MSTORE PUSH1 0x20 ADD PUSH1 0x40 MLOAD DUP1 PUSH1 0x40 ADD PUSH1 0x40 MSTORE DUP1 PUSH1 0x8 DUP2 MSTORE PUSH1 0x20 ADD PUSH32 0x5477697820426172000000000000000000000000000000000000000000000000 DUP2 MSTORE POP DUP2 MSTORE PUSH1 0x20 ADD PUSH2 0x173B PUSH1 0x40 MLOAD DUP1 PUSH1 0x40 ADD PUSH1 0x40 MSTORE DUP1 PUSH1 0x8 DUP2 MSTORE PUSH1 0x20 ADD PUSH32 0x747769782E706E67000000000000000000000000000000000000000000000000 DUP2 MSTORE POP PUSH2 0x1C12 JUMP JUMPDEST DUP2 MSTORE POP SWAP1 DUP1 PUSH1 0x1 DUP2 SLOAD ADD DUP1 DUP3 SSTORE DUP1 SWAP2 POP POP PUSH1 0x1 SWAP1 SUB SWAP1 PUSH0 MSTORE PUSH1 0x20 PUSH0 KECCAK256 SWAP1 PUSH1 0x4 MUL ADD PUSH0 SWAP1 SWAP2 SWAP1 SWAP2 SWAP1 SWAP2 POP PUSH0 DUP3 ADD MLOAD DUP2 PUSH0 ADD SWAP1 DUP2 PUSH2 0x1777 SWAP2 SWAP1 PUSH2 0x2023 JUMP JUMPDEST POP PUSH1 0x20 DUP3 ADD MLOAD DUP2 PUSH1 0x1 ADD SSTORE PUSH1 0x40 DUP3 ADD MLOAD DUP2 PUSH1 0x2 ADD SWAP1 DUP2 PUSH2 0x1797 SWAP2 SWAP1 PUSH2 0x2023 JUMP JUMPDEST POP PUSH1 0x60 DUP3 ADD MLOAD DUP2 PUSH1 0x3 ADD SWAP1 DUP2 PUSH2 0x17AD SWAP2 SWAP1 PUSH2 0x2023 JUMP JUMPDEST POP POP POP PUSH0 PUSH1 0x40 MLOAD DUP1 PUSH1 0x80 ADD PUSH1 0x40 MSTORE DUP1 PUSH1 0x40 MLOAD DUP1 PUSH1 0x40 ADD PUSH1 0x40 MSTORE DUP1 PUSH1 0x2 DUP2 MSTORE PUSH1 0x20 ADD PUSH32 0x4434000000000000000000000000000000000000000000000000000000000000 DUP2 MSTORE POP DUP2 MSTORE PUSH1 0x20 ADD PUSH3 0x989680 PUSH1 0x7D PUSH2 0x1807 SWAP2 SWAP1 PUSH2 0x1DBB JUMP JUMPDEST DUP2 MSTORE PUSH1 0x20 ADD PUSH1 0x40 MLOAD DUP1 PUSH1 0x40 ADD PUSH1 0x40 MSTORE DUP1 PUSH1 0x5 DUP2 MSTORE PUSH1 0x20 ADD PUSH32 0x446F6E7574000000000000000000000000000000000000000000000000000000 DUP2 MSTORE POP DUP2 MSTORE PUSH1 0x20 ADD PUSH2 0x1885 PUSH1 0x40 MLOAD DUP1 PUSH1 0x40 ADD PUSH1 0x40 MSTORE DUP1 PUSH1 0x9 DUP2 MSTORE PUSH1 0x20 ADD PUSH32 0x646F6E75742E706E670000000000000000000000000000000000000000000000 DUP2 MSTORE POP PUSH2 0x1C12 JUMP JUMPDEST DUP2 MSTORE POP SWAP1 DUP1 PUSH1 0x1 DUP2 SLOAD ADD DUP1 DUP3 SSTORE DUP1 SWAP2 POP POP PUSH1 0x1 SWAP1 SUB SWAP1 PUSH0 MSTORE PUSH1 0x20 PUSH0 KECCAK256 SWAP1 PUSH1 0x4 MUL ADD PUSH0 SWAP1 SWAP2 SWAP1 SWAP2 SWAP1 SWAP2 POP PUSH0 DUP3 ADD MLOAD DUP2 PUSH0 ADD SWAP1 DUP2 PUSH2 0x18C1 SWAP2 SWAP1 PUSH2 0x2023 JUMP JUMPDEST POP PUSH1 0x20 DUP3 ADD MLOAD DUP2 PUSH1 0x1 ADD SSTORE PUSH1 0x40 DUP3 ADD MLOAD DUP2 PUSH1 0x2 ADD SWAP1 DUP2 PUSH2 0x18E1 SWAP2 SWAP1 PUSH2 0x2023 JUMP JUMPDEST POP PUSH1 0x60 DUP3 ADD MLOAD DUP2 PUSH1 0x3 ADD SWAP1 DUP2 PUSH2 0x18F7 SWAP2 SWAP1 PUSH2 0x2023 JUMP JUMPDEST POP POP POP PUSH0 PUSH1 0x40 MLOAD DUP1 PUSH1 0x80 ADD PUSH1 0x40 MSTORE DUP1 PUSH1 0x40 MLOAD DUP1 PUSH1 0x40 ADD PUSH1 0x40 MSTORE DUP1 PUSH1 0x2 DUP2 MSTORE PUSH1 0x20 ADD PUSH32 0x4435000000000000000000000000000000000000000000000000000000000000 DUP2 MSTORE POP DUP2 MSTORE PUSH1 0x20 ADD PUSH3 0x989680 PUSH1 0x7D PUSH2 0x1951 SWAP2 SWAP1 PUSH2 0x1DBB JUMP JUMPDEST DUP2 MSTORE PUSH1 0x20 ADD PUSH1 0x40 MLOAD DUP1 PUSH1 0x40 ADD PUSH1 0x40 MSTORE DUP1 PUSH1 0x9 DUP2 MSTORE PUSH1 0x20 ADD PUSH32 0x526564204170706C650000000000000000000000000000000000000000000000 DUP2 MSTORE POP DUP2 MSTORE PUSH1 0x20 ADD PUSH2 0x19CF PUSH1 0x40 MLOAD DUP1 PUSH1 0x40 ADD PUSH1 0x40 MSTORE DUP1 PUSH1 0x9 DUP2 MSTORE PUSH1 0x20 ADD PUSH32 0x6170706C652E706E670000000000000000000000000000000000000000000000 DUP2 MSTORE POP PUSH2 0x1C12 JUMP JUMPDEST DUP2 MSTORE POP SWAP1 DUP1 PUSH1 0x1 DUP2 SLOAD ADD DUP1 DUP3 SSTORE DUP1 SWAP2 POP POP PUSH1 0x1 SWAP1 SUB SWAP1 PUSH0 MSTORE PUSH1 0x20 PUSH0 KECCAK256 SWAP1 PUSH1 0x4 MUL ADD PUSH0 SWAP1 SWAP2 SWAP1 SWAP2 SWAP1 SWAP2 POP PUSH0 DUP3 ADD MLOAD DUP2 PUSH0 ADD SWAP1 DUP2 PUSH2 0x1A0B SWAP2 SWAP1 PUSH2 0x2023 JUMP JUMPDEST POP PUSH1 0x20 DUP3 ADD MLOAD DUP2 PUSH1 0x1 ADD SSTORE PUSH1 0x40 DUP3 ADD MLOAD DUP2 PUSH1 0x2 ADD SWAP1 DUP2 PUSH2 0x1A2B SWAP2 SWAP1 PUSH2 0x2023 JUMP JUMPDEST POP PUSH1 0x60 DUP3 ADD MLOAD DUP2 PUSH1 0x3 ADD SWAP1 DUP2 PUSH2 0x1A41 SWAP2 SWAP1 PUSH2 0x2023 JUMP JUMPDEST POP POP POP JUMP JUMPDEST PUSH0 DUP2 DUP2 SLOAD DUP2 LT PUSH2 0x1A54 JUMPI PUSH0 DUP1 REVERT JUMPDEST SWAP1 PUSH0 MSTORE PUSH1 0x20 PUSH0 KECCAK256 SWAP1 PUSH1 0x4 MUL ADD PUSH0 SWAP2 POP SWAP1 POP DUP1 PUSH0 ADD DUP1 SLOAD PUSH2 0x1A73 SWAP1 PUSH2 0x1E56 JUMP JUMPDEST DUP1 PUSH1 0x1F ADD PUSH1 0x20 DUP1 SWAP2 DIV MUL PUSH1 0x20 ADD PUSH1 0x40 MLOAD SWAP1 DUP2 ADD PUSH1 0x40 MSTORE DUP1 SWAP3 SWAP2 SWAP1 DUP2 DUP2 MSTORE PUSH1 0x20 ADD DUP3 DUP1 SLOAD PUSH2 0x1A9F SWAP1 PUSH2 0x1E56 JUMP JUMPDEST DUP1 ISZERO PUSH2 0x1AEA JUMPI DUP1 PUSH1 0x1F LT PUSH2 0x1AC1 JUMPI PUSH2 0x100 DUP1 DUP4 SLOAD DIV MUL DUP4 MSTORE SWAP2 PUSH1 0x20 ADD SWAP2 PUSH2 0x1AEA JUMP JUMPDEST DUP3 ADD SWAP2 SWAP1 PUSH0 MSTORE PUSH1 0x20 PUSH0 KECCAK256 SWAP1 JUMPDEST DUP2 SLOAD DUP2 MSTORE SWAP1 PUSH1 0x1 ADD SWAP1 PUSH1 0x20 ADD DUP1 DUP4 GT PUSH2 0x1ACD JUMPI DUP3 SWAP1 SUB PUSH1 0x1F AND DUP3 ADD SWAP2 JUMPDEST POP POP POP POP POP SWAP1 DUP1 PUSH1 0x1 ADD SLOAD SWAP1 DUP1 PUSH1 0x2 ADD DUP1 SLOAD PUSH2 0x1B05 SWAP1 PUSH2 0x1E56 JUMP JUMPDEST DUP1 PUSH1 0x1F ADD PUSH1 0x20 DUP1 SWAP2 DIV MUL PUSH1 0x20 ADD PUSH1 0x40 MLOAD SWAP1 DUP2 ADD PUSH1 0x40 MSTORE DUP1 SWAP3 SWAP2 SWAP1 DUP2 DUP2 MSTORE PUSH1 0x20 ADD DUP3 DUP1 SLOAD PUSH2 0x1B31 SWAP1 PUSH2 0x1E56 JUMP JUMPDEST DUP1 ISZERO PUSH2 0x1B7C JUMPI DUP1 PUSH1 0x1F LT PUSH2 0x1B53 JUMPI PUSH2 0x100 DUP1 DUP4 SLOAD DIV MUL DUP4 MSTORE SWAP2 PUSH1 0x20 ADD SWAP2 PUSH2 0x1B7C JUMP JUMPDEST DUP3 ADD SWAP2 SWAP1 PUSH0 MSTORE PUSH1 0x20 PUSH0 KECCAK256 SWAP1 JUMPDEST DUP2 SLOAD DUP2 MSTORE SWAP1 PUSH1 0x1 ADD SWAP1 PUSH1 0x20 ADD DUP1 DUP4 GT PUSH2 0x1B5F JUMPI DUP3 SWAP1 SUB PUSH1 0x1F AND DUP3 ADD SWAP2 JUMPDEST POP POP POP POP POP SWAP1 DUP1 PUSH1 0x3 ADD DUP1 SLOAD PUSH2 0x1B91 SWAP1 PUSH2 0x1E56 JUMP JUMPDEST DUP1 PUSH1 0x1F ADD PUSH1 0x20 DUP1 SWAP2 DIV MUL PUSH1 0x20 ADD PUSH1 0x40 MLOAD SWAP1 DUP2 ADD PUSH1 0x40 MSTORE DUP1 SWAP3 SWAP2 SWAP1 DUP2 DUP2 MSTORE PUSH1 0x20 ADD DUP3 DUP1 SLOAD PUSH2 0x1BBD SWAP1 PUSH2 0x1E56 JUMP JUMPDEST DUP1 ISZERO PUSH2 0x1C08 JUMPI DUP1 PUSH1 0x1F LT PUSH2 0x1BDF JUMPI PUSH2 0x100 DUP1 DUP4 SLOAD DIV MUL DUP4 MSTORE SWAP2 PUSH1 0x20 ADD SWAP2 PUSH2 0x1C08 JUMP JUMPDEST DUP3 ADD SWAP2 SWAP1 PUSH0 MSTORE PUSH1 0x20 PUSH0 KECCAK256 SWAP1 JUMPDEST DUP2 SLOAD DUP2 MSTORE SWAP1 PUSH1 0x1 ADD SWAP1 PUSH1 0x20 ADD DUP1 DUP4 GT PUSH2 0x1BEB JUMPI DUP3 SWAP1 SUB PUSH1 0x1F AND DUP3 ADD SWAP2 JUMPDEST POP POP POP POP POP SWAP1 POP DUP5 JUMP JUMPDEST PUSH1 0x60 PUSH1 0x40 MLOAD DUP1 PUSH1 0x60 ADD PUSH1 0x40 MSTORE DUP1 PUSH1 0x2F DUP2 MSTORE PUSH1 0x20 ADD PUSH2 0x2150 PUSH1 0x2F SWAP2 CODECOPY DUP3 PUSH1 0x40 MLOAD PUSH1 0x20 ADD PUSH2 0x1C3F SWAP3 SWAP2 SWAP1 PUSH2 0x212C JUMP JUMPDEST PUSH1 0x40 MLOAD PUSH1 0x20 DUP2 DUP4 SUB SUB DUP2 MSTORE SWAP1 PUSH1 0x40 MSTORE SWAP1 POP SWAP2 SWAP1 POP JUMP JUMPDEST PUSH0 DUP1 REVERT JUMPDEST PUSH0 DUP2 SWAP1 POP SWAP2 SWAP1 POP JUMP JUMPDEST PUSH2 0x1C6B DUP2 PUSH2 0x1C59 JUMP JUMPDEST DUP2 EQ PUSH2 0x1C75 JUMPI PUSH0 DUP1 REVERT JUMPDEST POP JUMP JUMPDEST PUSH0 DUP2 CALLDATALOAD SWAP1 POP PUSH2 0x1C86 DUP2 PUSH2 0x1C62 JUMP JUMPDEST SWAP3 SWAP2 POP POP JUMP JUMPDEST PUSH0 PUSH1 0x20 DUP3 DUP5 SUB SLT ISZERO PUSH2 0x1CA1 JUMPI PUSH2 0x1CA0 PUSH2 0x1C55 JUMP JUMPDEST JUMPDEST PUSH0 PUSH2 0x1CAE DUP5 DUP3 DUP6 ADD PUSH2 0x1C78 JUMP JUMPDEST SWAP2 POP POP SWAP3 SWAP2 POP POP JUMP JUMPDEST PUSH0 DUP2 MLOAD SWAP1 POP SWAP2 SWAP1 POP JUMP JUMPDEST PUSH0 DUP3 DUP3 MSTORE PUSH1 0x20 DUP3 ADD SWAP1 POP SWAP3 SWAP2 POP POP JUMP JUMPDEST DUP3 DUP2 DUP4 MCOPY PUSH0 DUP4 DUP4 ADD MSTORE POP POP POP JUMP JUMPDEST PUSH0 PUSH1 0x1F NOT PUSH1 0x1F DUP4 ADD AND SWAP1 POP SWAP2 SWAP1 POP JUMP JUMPDEST PUSH0 PUSH2 0x1CF9 DUP3 PUSH2 0x1CB7 JUMP JUMPDEST PUSH2 0x1D03 DUP2 DUP6 PUSH2 0x1CC1 JUMP JUMPDEST SWAP4 POP PUSH2 0x1D13 DUP2 DUP6 PUSH1 0x20 DUP7 ADD PUSH2 0x1CD1 JUMP JUMPDEST PUSH2 0x1D1C DUP2 PUSH2 0x1CDF JUMP JUMPDEST DUP5 ADD SWAP2 POP POP SWAP3 SWAP2 POP POP JUMP JUMPDEST PUSH2 0x1D30 DUP2 PUSH2 0x1C59 JUMP JUMPDEST DUP3 MSTORE POP POP JUMP JUMPDEST PUSH0 PUSH1 0x80 DUP3 ADD SWAP1 POP DUP2 DUP2 SUB PUSH0 DUP4 ADD MSTORE PUSH2 0x1D4E DUP2 DUP8 PUSH2 0x1CEF JUMP JUMPDEST SWAP1 POP PUSH2 0x1D5D PUSH1 0x20 DUP4 ADD DUP7 PUSH2 0x1D27 JUMP JUMPDEST DUP2 DUP2 SUB PUSH1 0x40 DUP4 ADD MSTORE PUSH2 0x1D6F DUP2 DUP6 PUSH2 0x1CEF JUMP JUMPDEST SWAP1 POP DUP2 DUP2 SUB PUSH1 0x60 DUP4 ADD MSTORE PUSH2 0x1D83 DUP2 DUP5 PUSH2 0x1CEF JUMP JUMPDEST SWAP1 POP SWAP6 SWAP5 POP POP POP POP POP JUMP JUMPDEST PUSH32 0x4E487B7100000000000000000000000000000000000000000000000000000000 PUSH0 MSTORE PUSH1 0x11 PUSH1 0x4 MSTORE PUSH1 0x24 PUSH0 REVERT JUMPDEST PUSH0 PUSH2 0x1DC5 DUP3 PUSH2 0x1C59 JUMP JUMPDEST SWAP2 POP PUSH2 0x1DD0 DUP4 PUSH2 0x1C59 JUMP JUMPDEST SWAP3 POP DUP3 DUP3 MUL PUSH2 0x1DDE DUP2 PUSH2 0x1C59 JUMP JUMPDEST SWAP2 POP DUP3 DUP3 DIV DUP5 EQ DUP4 ISZERO OR PUSH2 0x1DF5 JUMPI PUSH2 0x1DF4 PUSH2 0x1D8E JUMP JUMPDEST JUMPDEST POP SWAP3 SWAP2 POP POP JUMP JUMPDEST PUSH32 0x4E487B7100000000000000000000000000000000000000000000000000000000 PUSH0 MSTORE PUSH1 0x41 PUSH1 0x4 MSTORE PUSH1 0x24 PUSH0 REVERT JUMPDEST PUSH32 0x4E487B7100000000000000000000000000000000000000000000000000000000 PUSH0 MSTORE PUSH1 0x22 PUSH1 0x4 MSTORE PUSH1 0x24 PUSH0 REVERT JUMPDEST PUSH0 PUSH1 0x2 DUP3 DIV SWAP1 POP PUSH1 0x1 DUP3 AND DUP1 PUSH2 0x1E6D JUMPI PUSH1 0x7F DUP3 AND SWAP2 POP JUMPDEST PUSH1 0x20 DUP3 LT DUP2 SUB PUSH2 0x1E80 JUMPI PUSH2 0x1E7F PUSH2 0x1E29 JUMP JUMPDEST JUMPDEST POP SWAP2 SWAP1 POP JUMP JUMPDEST PUSH0 DUP2 SWAP1 POP DUP2 PUSH0 MSTORE PUSH1 0x20 PUSH0 KECCAK256 SWAP1 POP SWAP2 SWAP1 POP JUMP JUMPDEST PUSH0 PUSH1 0x20 PUSH1 0x1F DUP4 ADD DIV SWAP1 POP SWAP2 SWAP1 POP JUMP JUMPDEST PUSH0 DUP3 DUP3 SHL SWAP1 POP SWAP3 SWAP2 POP POP JUMP JUMPDEST PUSH0 PUSH1 0x8 DUP4 MUL PUSH2 0x1EE2 PUSH32 0xFFFFFFFFFFFFFFFFFFFFFFFFFFFFFFFFFFFFFFFFFFFFFFFFFFFFFFFFFFFFFFFF DUP3 PUSH2 0x1EA7 JUMP JUMPDEST PUSH2 0x1EEC DUP7 DUP4 PUSH2 0x1EA7 JUMP JUMPDEST SWAP6 POP DUP1 NOT DUP5 AND SWAP4 POP DUP1 DUP7 AND DUP5 OR SWAP3 POP POP POP SWAP4 SWAP3 POP POP POP JUMP JUMPDEST PUSH0 DUP2 SWAP1 POP SWAP2 SWAP1 POP JUMP JUMPDEST PUSH0 PUSH2 0x1F27 PUSH2 0x1F22 PUSH2 0x1F1D DUP5 PUSH2 0x1C59 JUMP JUMPDEST PUSH2 0x1F04 JUMP JUMPDEST PUSH2 0x1C59 JUMP JUMPDEST SWAP1 POP SWAP2 SWAP1 POP JUMP JUMPDEST PUSH0 DUP2 SWAP1 POP SWAP2 SWAP1 POP JUMP JUMPDEST PUSH2 0x1F40 DUP4 PUSH2 0x1F0D JUMP JUMPDEST PUSH2 0x1F54 PUSH2 0x1F4C DUP3 PUSH2 0x1F2E JUMP JUMPDEST DUP5 DUP5 SLOAD PUSH2 0x1EB3 JUMP JUMPDEST DUP3 SSTORE POP POP POP POP JUMP JUMPDEST PUSH0 SWAP1 JUMP JUMPDEST PUSH2 0x1F68 PUSH2 0x1F5C JUMP JUMPDEST PUSH2 0x1F73 DUP2 DUP5 DUP5 PUSH2 0x1F37 JUMP JUMPDEST POP POP POP JUMP JUMPDEST JUMPDEST DUP2 DUP2 LT ISZERO PUSH2 0x1F96 JUMPI PUSH2 0x1F8B PUSH0 DUP3 PUSH2 0x1F60 JUMP JUMPDEST PUSH1 0x1 DUP2 ADD SWAP1 POP PUSH2 0x1F79 JUMP JUMPDEST POP POP JUMP JUMPDEST PUSH1 0x1F DUP3 GT ISZERO PUSH2 0x1FDB JUMPI PUSH2 0x1FAC DUP2 PUSH2 0x1E86 JUMP JUMPDEST PUSH2 0x1FB5 DUP5 PUSH2 0x1E98 JUMP JUMPDEST DUP2 ADD PUSH1 0x20 DUP6 LT ISZERO PUSH2 0x1FC4 JUMPI DUP2 SWAP1 POP JUMPDEST PUSH2 0x1FD8 PUSH2 0x1FD0 DUP6 PUSH2 0x1E98 JUMP JUMPDEST DUP4 ADD DUP3 PUSH2 0x1F78 JUMP JUMPDEST POP POP JUMPDEST POP POP POP JUMP JUMPDEST PUSH0 DUP3 DUP3 SHR SWAP1 POP SWAP3 SWAP2 POP POP JUMP JUMPDEST PUSH0 PUSH2 0x1FFB PUSH0 NOT DUP5 PUSH1 0x8 MUL PUSH2 0x1FE0 JUMP JUMPDEST NOT DUP1 DUP4 AND SWAP2 POP POP SWAP3 SWAP2 POP POP JUMP JUMPDEST PUSH0 PUSH2 0x2013 DUP4 DUP4 PUSH2 0x1FEC JUMP JUMPDEST SWAP2 POP DUP3 PUSH1 0x2 MUL DUP3 OR SWAP1 POP SWAP3 SWAP2 POP POP JUMP JUMPDEST PUSH2 0x202C DUP3 PUSH2 0x1CB7 JUMP JUMPDEST PUSH8 0xFFFFFFFFFFFFFFFF DUP2 GT ISZERO PUSH2 0x2045 JUMPI PUSH2 0x2044 PUSH2 0x1DFC JUMP JUMPDEST JUMPDEST PUSH2 0x204F DUP3 SLOAD PUSH2 0x1E56 JUMP JUMPDEST PUSH2 0x205A DUP3 DUP3 DUP6 PUSH2 0x1F9A JUMP JUMPDEST PUSH0 PUSH1 0x20 SWAP1 POP PUSH1 0x1F DUP4 GT PUSH1 0x1 DUP2 EQ PUSH2 0x208B JUMPI PUSH0 DUP5 ISZERO PUSH2 0x2079 JUMPI DUP3 DUP8 ADD MLOAD SWAP1 POP JUMPDEST PUSH2 0x2083 DUP6 DUP3 PUSH2 0x2008 JUMP JUMPDEST DUP7 SSTORE POP PUSH2 0x20EA JUMP JUMPDEST PUSH1 0x1F NOT DUP5 AND PUSH2 0x2099 DUP7 PUSH2 0x1E86 JUMP JUMPDEST PUSH0 JUMPDEST DUP3 DUP2 LT ISZERO PUSH2 0x20C0 JUMPI DUP5 DUP10 ADD MLOAD DUP3 SSTORE PUSH1 0x1 DUP3 ADD SWAP2 POP PUSH1 0x20 DUP6 ADD SWAP5 POP PUSH1 0x20 DUP2 ADD SWAP1 POP PUSH2 0x209B JUMP JUMPDEST DUP7 DUP4 LT ISZERO PUSH2 0x20DD JUMPI DUP5 DUP10 ADD MLOAD PUSH2 0x20D9 PUSH1 0x1F DUP10 AND DUP3 PUSH2 0x1FEC JUMP JUMPDEST DUP4 SSTORE POP JUMPDEST PUSH1 0x1 PUSH1 0x2 DUP9 MUL ADD DUP9 SSTORE POP POP POP JUMPDEST POP POP POP POP POP POP JUMP JUMPDEST PUSH0 DUP2 SWAP1 POP SWAP3 SWAP2 POP POP JUMP JUMPDEST PUSH0 PUSH2 0x2106 DUP3 PUSH2 0x1CB7 JUMP JUMPDEST PUSH2 0x2110 DUP2 DUP6 PUSH2 0x20F2 JUMP JUMPDEST SWAP4 POP PUSH2 0x2120 DUP2 DUP6 PUSH1 0x20 DUP7 ADD PUSH2 0x1CD1 JUMP JUMPDEST DUP1 DUP5 ADD SWAP2 POP POP SWAP3 SWAP2 POP POP JUMP JUMPDEST PUSH0 PUSH2 0x2137 DUP3 DUP6 PUSH2 0x20FC JUMP JUMPDEST SWAP2 POP PUSH2 0x2143 DUP3 DUP5 PUSH2 0x20FC JUMP JUMPDEST SWAP2 POP DUP2 SWAP1 POP SWAP4 SWAP3 POP POP POP JUMP INVALID MLOAD PUSH14 0x6652465261626F50334D34386565 PUSH25 0x766E516B6977675544506150484A69466E44634B637545754C TIMESTAMP PUSH3 0x66312F LOG2 PUSH5 0x6970667358 0x22 SLT KECCAK256 DUP2 LOG2 0xBB 0x1E PUSH31 0xC2180277E6E728F27C572C7679E0DEFD8DD0D00663B7F5FA98FAC64736F6C PUSH4 0x4300081A STOP CALLER "
		},
		"gasEstimates": {
			"creation": {
				"codeDepositCost": "1725600",
				"executionCost": "1811",
				"totalCost": "1727411"
			},
			"external": {
				"initializeProducts()": "infinite",
				"products(uint256)": "infinite"
			},
			"internal": {
				"concatIPFSReference(string memory)": "infinite"
			}
		},
		"methodIdentifiers": {
			"initializeProducts()": "5cf810ed",
			"products(uint256)": "7acc0b20"
		}
	},
	"abi": [
		{
			"inputs": [],
			"name": "initializeProducts",
			"outputs": [],
			"stateMutability": "nonpayable",
			"type": "function"
		},
		{
			"inputs": [
				{
					"internalType": "uint256",
					"name": "",
					"type": "uint256"
				}
			],
			"name": "products",
			"outputs": [
				{
					"internalType": "string",
					"name": "code",
					"type": "string"
				},
				{
					"internalType": "uint256",
					"name": "price",
					"type": "uint256"
				},
				{
					"internalType": "string",
					"name": "name",
					"type": "string"
				},
				{
					"internalType": "string",
					"name": "imageCID",
					"type": "string"
				}
			],
			"stateMutability": "view",
			"type": "function"
		}
	]
}