{
	"data": {
		"bytecode": {
			"linkReferences": {},
			"object": "608060405234801561000f575f80fd5b50335f806101000a81548173ffffffffffffffffffffffffffffffffffffffff021916908373ffffffffffffffffffffffffffffffffffffffff16021790555061005d61006260201b60201c565b611ee4565b600160405180608001604052806040518060400160405280600281526020017f413100000000000000000000000000000000000000000000000000000000000081525081526020016305f5e100600f6100bb9190611b38565b81526020016040518060400160405280600481526020017f4c61797300000000000000000000000000000000000000000000000000000000815250815260200161013f6040518060400160405280600881526020017f6c6179732e706e67000000000000000000000000000000000000000000000000815250611abf60201b60201c565b815250908060018154018082558091505060019003905f5260205f2090600402015f909190919091505f820151815f01908161017b9190611daa565b5060208201518160010155604082015181600201908161019b9190611daa565b5060608201518160030190816101b19190611daa565b505050600160405180608001604052806040518060400160405280600281526020017f413200000000000000000000000000000000000000000000000000000000000081525081526020016298968060af61020c9190611b38565b81526020016040518060400160405280600981526020017f436f636120436f6c61000000000000000000000000000000000000000000000081525081526020016102906040518060400160405280600d81526020017f636f63612d636f6c612e706e6700000000000000000000000000000000000000815250611abf60201b60201c565b815250908060018154018082558091505060019003905f5260205f2090600402015f909190919091505f820151815f0190816102cc9190611daa565b506020820151816001015560408201518160020190816102ec9190611daa565b5060608201518160030190816103029190611daa565b505050600160405180608001604052806040518060400160405280600281526020017f413300000000000000000000000000000000000000000000000000000000000081525081526020016305f5e100600f61035e9190611b38565b81526020016040518060400160405280600881526020017f5072696e676c657300000000000000000000000000000000000000000000000081525081526020016103e26040518060400160405280600c81526020017f7072696e676c65732e706e670000000000000000000000000000000000000000815250611abf60201b60201c565b815250908060018154018082558091505060019003905f5260205f2090600402015f909190919091505f820151815f01908161041e9190611daa565b5060208201518160010155604082015181600201908161043e9190611daa565b5060608201518160030190816104549190611daa565b505050600160405180608001604052806040518060400160405280600281526020017f413400000000000000000000000000000000000000000000000000000000000081525081526020016298968060af6104af9190611b38565b81526020016040518060400160405280600581526020017f576174657200000000000000000000000000000000000000000000000000000081525081526020016105336040518060400160405280600981526020017f77617465722e706e670000000000000000000000000000000000000000000000815250611abf60201b60201c565b815250908060018154018082558091505060019003905f5260205f2090600402015f909190919091505f820151815f01908161056f9190611daa565b5060208201518160010155604082015181600201908161058f9190611daa565b5060608201518160030190816105a59190611daa565b505050600160405180608001604052806040518060400160405280600281526020017f413500000000000000000000000000000000000000000000000000000000000081525081526020016305f5e100600f6106019190611b38565b81526020016040518060400160405280600c81526020017f456e65726779204472696e6b000000000000000000000000000000000000000081525081526020016106856040518060400160405280600c81526020017f7265642d62756c6c2e706e670000000000000000000000000000000000000000815250611abf60201b60201c565b815250908060018154018082558091505060019003905f5260205f2090600402015f909190919091505f820151815f0190816106c19190611daa565b506020820151816001015560408201518160020190816106e19190611daa565b5060608201518160030190816106f79190611daa565b505050600160405180608001604052806040518060400160405280600281526020017f423100000000000000000000000000000000000000000000000000000000000081525081526020016305f5e10060146107539190611b38565b81526020016040518060400160405280600881526020017f53616e647769636800000000000000000000000000000000000000000000000081525081526020016107d76040518060400160405280600c81526020017f73616e64776963682e706e670000000000000000000000000000000000000000815250611abf60201b60201c565b815250908060018154018082558091505060019003905f5260205f2090600402015f909190919091505f820151815f0190816108139190611daa565b506020820151816001015560408201518160020190816108339190611daa565b5060608201518160030190816108499190611daa565b505050600160405180608001604052806040518060400160405280600281526020017f423200000000000000000000000000000000000000000000000000000000000081525081526020016298968060af6108a49190611b38565b81526020016040518060400160405280600481526020017f4f72656f0000000000000000000000000000000000000000000000000000000081525081526020016109286040518060400160405280600881526020017f6f72656f2e706e67000000000000000000000000000000000000000000000000815250611abf60201b60201c565b815250908060018154018082558091505060019003905f5260205f2090600402015f909190919091505f820151815f0190816109649190611daa565b506020820151816001015560408201518160020190816109849190611daa565b50606082015181600301908161099a9190611daa565b505050600160405180608001604052806040518060400160405280600281526020017f423300000000000000000000000000000000000000000000000000000000000081525081526020016305f5e100600f6109f69190611b38565b81526020016040518060400160405280600681526020017f53707269746500000000000000000000000000000000000000000000000000008152508152602001610a7a6040518060400160405280600a81526020017f7370726974652e706e6700000000000000000000000000000000000000000000815250611abf60201b60201c565b815250908060018154018082558091505060019003905f5260205f2090600402015f909190919091505f820151815f019081610ab69190611daa565b50602082015181600101556040820151816002019081610ad69190611daa565b506060820151816003019081610aec9190611daa565b505050600160405180608001604052806040518060400160405280600281526020017f423400000000000000000000000000000000000000000000000000000000000081525081526020016298968060af610b479190611b38565b81526020016040518060400160405280600b81526020017f4772616e6f6c61204261720000000000000000000000000000000000000000008152508152602001610bcb6040518060400160405280600f81526020017f6772616e6f6c612d6261722e706e670000000000000000000000000000000000815250611abf60201b60201c565b815250908060018154018082558091505060019003905f5260205f2090600402015f909190919091505f820151815f019081610c079190611daa565b50602082015181600101556040820151816002019081610c279190611daa565b506060820151816003019081610c3d9190611daa565b505050600160405180608001604052806040518060400160405280600281526020017f423500000000000000000000000000000000000000000000000000000000000081525081526020016298968060af610c989190611b38565b81526020016040518060400160405280600781526020017f446f7269746f73000000000000000000000000000000000000000000000000008152508152602001610d1c6040518060400160405280600b81526020017f646f7269746f732e706e67000000000000000000000000000000000000000000815250611abf60201b60201c565b815250908060018154018082558091505060019003905f5260205f2090600402015f909190919091505f820151815f019081610d589190611daa565b50602082015181600101556040820151816002019081610d789190611daa565b506060820151816003019081610d8e9190611daa565b505050600160405180608001604052806040518060400160405280600281526020017f433100000000000000000000000000000000000000000000000000000000000081525081526020016305f5e100600f610dea9190611b38565b81526020016040518060400160405280600b81526020017f536e69636b6572204261720000000000000000000000000000000000000000008152508152602001610e6e6040518060400160405280600c81526020017f736e69636b6572732e706e670000000000000000000000000000000000000000815250611abf60201b60201c565b815250908060018154018082558091505060019003905f5260205f2090600402015f909190919091505f820151815f019081610eaa9190611daa565b50602082015181600101556040820151816002019081610eca9190611daa565b506060820151816003019081610ee09190611daa565b505050600160405180608001604052806040518060400160405280600281526020017f433200000000000000000000000000000000000000000000000000000000000081525081526020016305f5e100600f610f3c9190611b38565b81526020016040518060400160405280600481526020017f4d264d73000000000000000000000000000000000000000000000000000000008152508152602001610fc06040518060400160405280600881526020017f6d266d732e706e67000000000000000000000000000000000000000000000000815250611abf60201b60201c565b815250908060018154018082558091505060019003905f5260205f2090600402015f909190919091505f820151815f019081610ffc9190611daa565b5060208201518160010155604082015181600201908161101c9190611daa565b5060608201518160030190816110329190611daa565b505050600160405180608001604052806040518060400160405280600281526020017f4333000000000000000000000000000000000000000000000000000000000000815250815260200162989680607d61108d9190611b38565b81526020016040518060400160405280600e81526020017f427562626c65205461702047756d00000000000000000000000000000000000081525081526020016111116040518060400160405280600e81526020017f627562626c652d7461702e706e67000000000000000000000000000000000000815250611abf60201b60201c565b815250908060018154018082558091505060019003905f5260205f2090600402015f909190919091505f820151815f01908161114d9190611daa565b5060208201518160010155604082015181600201908161116d9190611daa565b5060608201518160030190816111839190611daa565b505050600160405180608001604052806040518060400160405280600281526020017f433400000000000000000000000000000000000000000000000000000000000081525081526020016298968060af6111de9190611b38565b81526020016040518060400160405280600d81526020017f4672756974204e7574204261720000000000000000000000000000000000000081525081526020016112626040518060400160405280600d81526020017f66727569742d6e75742e706e6700000000000000000000000000000000000000815250611abf60201b60201c565b815250908060018154018082558091505060019003905f5260205f2090600402015f909190919091505f820151815f01908161129e9190611daa565b506020820151816001015560408201518160020190816112be9190611daa565b5060608201518160030190816112d49190611daa565b505050600160405180608001604052806040518060400160405280600281526020017f433500000000000000000000000000000000000000000000000000000000000081525081526020016298968060af61132f9190611b38565b81526020016040518060400160405280600a81526020017f42656566204a65726b790000000000000000000000000000000000000000000081525081526020016113b36040518060400160405280600e81526020017f626565662d6a65726b792e706e67000000000000000000000000000000000000815250611abf60201b60201c565b815250908060018154018082558091505060019003905f5260205f2090600402015f909190919091505f820151815f0190816113ef9190611daa565b5060208201518160010155604082015181600201908161140f9190611daa565b5060608201518160030190816114259190611daa565b505050600160405180608001604052806040518060400160405280600281526020017f4431000000000000000000000000000000000000000000000000000000000000815250815260200162989680607d6114809190611b38565b81526020016040518060400160405280600e81526020017f4b69744b6174204269736375697400000000000000000000000000000000000081525081526020016115046040518060400160405280600a81526020017f6b69746b61742e706e6700000000000000000000000000000000000000000000815250611abf60201b60201c565b815250908060018154018082558091505060019003905f5260205f2090600402015f909190919091505f820151815f0190816115409190611daa565b506020820151816001015560408201518160020190816115609190611daa565b5060608201518160030190816115769190611daa565b505050600160405180608001604052806040518060400160405280600281526020017f4432000000000000000000000000000000000000000000000000000000000000815250815260200162989680607d6115d19190611b38565b81526020016040518060400160405280600881526020017f506f7020436f726e00000000000000000000000000000000000000000000000081525081526020016116556040518060400160405280600b81526020017f706f70636f726e2e706e67000000000000000000000000000000000000000000815250611abf60201b60201c565b815250908060018154018082558091505060019003905f5260205f2090600402015f909190919091505f820151815f0190816116919190611daa565b506020820151816001015560408201518160020190816116b19190611daa565b5060608201518160030190816116c79190611daa565b505050600160405180608001604052806040518060400160405280600281526020017f443300000000000000000000000000000000000000000000000000000000000081525081526020016298968060966117229190611b38565b81526020016040518060400160405280600881526020017f547769782042617200000000000000000000000000000000000000000000000081525081526020016117a66040518060400160405280600881526020017f747769782e706e67000000000000000000000000000000000000000000000000815250611abf60201b60201c565b815250908060018154018082558091505060019003905f5260205f2090600402015f909190919091505f820151815f0190816117e29190611daa565b506020820151816001015560408201518160020190816118029190611daa565b5060608201518160030190816118189190611daa565b505050600160405180608001604052806040518060400160405280600281526020017f4434000000000000000000000000000000000000000000000000000000000000815250815260200162989680607d6118739190611b38565b81526020016040518060400160405280600581526020017f446f6e757400000000000000000000000000000000000000000000000000000081525081526020016118f76040518060400160405280600981526020017f646f6e75742e706e670000000000000000000000000000000000000000000000815250611abf60201b60201c565b815250908060018154018082558091505060019003905f5260205f2090600402015f909190919091505f820151815f0190816119339190611daa565b506020820151816001015560408201518160020190816119539190611daa565b5060608201518160030190816119699190611daa565b505050600160405180608001604052806040518060400160405280600281526020017f4435000000000000000000000000000000000000000000000000000000000000815250815260200162989680607d6119c49190611b38565b81526020016040518060400160405280600981526020017f526564204170706c6500000000000000000000000000000000000000000000008152508152602001611a486040518060400160405280600981526020017f6170706c652e706e670000000000000000000000000000000000000000000000815250611abf60201b60201c565b815250908060018154018082558091505060019003905f5260205f2090600402015f909190919091505f820151815f019081611a849190611daa565b50602082015181600101556040820151816002019081611aa49190611daa565b506060820151816003019081611aba9190611daa565b505050565b60606040518060600160405280602f815260200161470f602f913982604051602001611aec929190611ec1565b6040516020818303038152906040529050919050565b5f819050919050565b7f4e487b71000000000000000000000000000000000000000000000000000000005f52601160045260245ffd5b5f611b4282611b02565b9150611b4d83611b02565b9250828202611b5b81611b02565b91508282048414831517611b7257611b71611b0b565b5b5092915050565b5f81519050919050565b7f4e487b71000000000000000000000000000000000000000000000000000000005f52604160045260245ffd5b7f4e487b71000000000000000000000000000000000000000000000000000000005f52602260045260245ffd5b5f6002820490506001821680611bf457607f821691505b602082108103611c0757611c06611bb0565b5b50919050565b5f819050815f5260205f209050919050565b5f6020601f8301049050919050565b5f82821b905092915050565b5f60088302611c697fffffffffffffffffffffffffffffffffffffffffffffffffffffffffffffffff82611c2e565b611c738683611c2e565b95508019841693508086168417925050509392505050565b5f819050919050565b5f611cae611ca9611ca484611b02565b611c8b565b611b02565b9050919050565b5f819050919050565b611cc783611c94565b611cdb611cd382611cb5565b848454611c3a565b825550505050565b5f90565b611cef611ce3565b611cfa818484611cbe565b505050565b5b81811015611d1d57611d125f82611ce7565b600181019050611d00565b5050565b601f821115611d6257611d3381611c0d565b611d3c84611c1f565b81016020851015611d4b578190505b611d5f611d5785611c1f565b830182611cff565b50505b505050565b5f82821c905092915050565b5f611d825f1984600802611d67565b1980831691505092915050565b5f611d9a8383611d73565b9150826002028217905092915050565b611db382611b79565b67ffffffffffffffff811115611dcc57611dcb611b83565b5b611dd68254611bdd565b611de1828285611d21565b5f60209050601f831160018114611e12575f8415611e00578287015190505b611e0a8582611d8f565b865550611e71565b601f198416611e2086611c0d565b5f5b82811015611e4757848901518255600182019150602085019450602081019050611e22565b86831015611e645784890151611e60601f891682611d73565b8355505b6001600288020188555050505b505050505050565b5f81905092915050565b8281835e5f83830152505050565b5f611e9b82611b79565b611ea58185611e79565b9350611eb5818560208601611e83565b80840191505092915050565b5f611ecc8285611e91565b9150611ed88284611e91565b91508190509392505050565b61281e80611ef15f395ff3fe608060405260043610610085575f3560e01c80633ccfd60b116100585780633ccfd60b1461014157806370cd5a801461015757806394cf216014610193578063a26759cb146101cf578063b04f3225146101d957610085565b806302ee3a521461008957806312065fe0146100b3578063121dc3d5146100dd57806319f9292614610119575b5f80fd5b348015610094575f80fd5b5061009d610201565b6040516100aa9190611a48565b60405180910390f35b3480156100be575f80fd5b506100c7610416565b6040516100d49190611a77565b60405180910390f35b3480156100e8575f80fd5b5061010360048036038101906100fe9190611afb565b61045a565b6040516101109190611cc3565b60405180910390f35b348015610124575f80fd5b5061013f600480360381019061013a9190611e0f565b6107dc565b005b34801561014c575f80fd5b506101556109c9565b005b348015610162575f80fd5b5061017d60048036038101906101789190611afb565b610c49565b60405161018a9190611cc3565b60405180910390f35b34801561019e575f80fd5b506101b960048036038101906101b49190611afb565b610f6c565b6040516101c69190611cc3565b60405180910390f35b6101d76112ee565b005b3480156101e4575f80fd5b506101ff60048036038101906101fa9190611e80565b611385565b005b60606001805480602002602001604051908101604052809291908181526020015f905b8282101561040d578382905f5260205f2090600402016040518060800160405290815f8201805461025490611ed8565b80601f016020809104026020016040519081016040528092919081815260200182805461028090611ed8565b80156102cb5780601f106102a2576101008083540402835291602001916102cb565b820191905f5260205f20905b8154815290600101906020018083116102ae57829003601f168201915b50505050508152602001600182015481526020016002820180546102ee90611ed8565b80601f016020809104026020016040519081016040528092919081815260200182805461031a90611ed8565b80156103655780601f1061033c57610100808354040283529160200191610365565b820191905f5260205f20905b81548152906001019060200180831161034857829003601f168201915b5050505050815260200160038201805461037e90611ed8565b80601f01602080910402602001604051908101604052809291908181526020018280546103aa90611ed8565b80156103f55780601f106103cc576101008083540402835291602001916103f5565b820191905f5260205f20905b8154815290600101906020018083116103d857829003601f168201915b50505050508152505081526020019060010190610224565b50505050905090565b5f60025f3373ffffffffffffffffffffffffffffffffffffffff1673ffffffffffffffffffffffffffffffffffffffff1681526020019081526020015f2054905090565b60605f60038054905067ffffffffffffffff81111561047c5761047b611ceb565b5b6040519080825280602002602001820160405280156104b557816020015b6104a2611823565b81526020019060019003908161049a5790505b5090505f805b600380549050811015610728578473ffffffffffffffffffffffffffffffffffffffff16600382815481106104f3576104f2611f08565b5b905f5260205f2090600402015f015f9054906101000a900473ffffffffffffffffffffffffffffffffffffffff1673ffffffffffffffffffffffffffffffffffffffff1614801561059657505f600181111561055257610551611b5e565b5b6003828154811061056657610565611f08565b5b905f5260205f2090600402016003015f9054906101000a900460ff16600181111561059457610593611b5e565b5b145b1561071b57600381815481106105af576105ae611f08565b5b905f5260205f2090600402016040518060800160405290815f82015f9054906101000a900473ffffffffffffffffffffffffffffffffffffffff1673ffffffffffffffffffffffffffffffffffffffff1673ffffffffffffffffffffffffffffffffffffffff16815260200160018201805461062a90611ed8565b80601f016020809104026020016040519081016040528092919081815260200182805461065690611ed8565b80156106a15780601f10610678576101008083540402835291602001916106a1565b820191905f5260205f20905b81548152906001019060200180831161068457829003601f168201915b5050505050815260200160028201548152602001600382015f9054906101000a900460ff1660018111156106d8576106d7611b5e565b5b60018111156106ea576106e9611b5e565b5b8152505083838151811061070157610700611f08565b5b6020026020010181905250818061071790611f62565b9250505b80806001019150506104bb565b505f8167ffffffffffffffff81111561074457610743611ceb565b5b60405190808252806020026020018201604052801561077d57816020015b61076a611823565b8152602001906001900390816107625790505b5090505f5b828110156107d05783818151811061079d5761079c611f08565b5b60200260200101518282815181106107b8576107b7611f08565b5b60200260200101819052508080600101915050610782565b50809350505050919050565b5f6107e68261155e565b6020015190508060025f3373ffffffffffffffffffffffffffffffffffffffff1673ffffffffffffffffffffffffffffffffffffffff1681526020019081526020015f2054101561086c576040517f08c379a000000000000000000000000000000000000000000000000000000000815260040161086390612003565b60405180910390fd5b8060025f3373ffffffffffffffffffffffffffffffffffffffff1673ffffffffffffffffffffffffffffffffffffffff1681526020019081526020015f205f8282546108b89190612021565b92505081905550600360405180608001604052803373ffffffffffffffffffffffffffffffffffffffff1681526020018481526020014281526020015f600181111561090757610906611b5e565b5b815250908060018154018082558091505060019003905f5260205f2090600402015f909190919091505f820151815f015f6101000a81548173ffffffffffffffffffffffffffffffffffffffff021916908373ffffffffffffffffffffffffffffffffffffffff160217905550602082015181600101908161098991906121f1565b50604082015181600201556060820151816003015f6101000a81548160ff021916908360018111156109be576109bd611b5e565b5b021790555050505050565b5f8054906101000a900473ffffffffffffffffffffffffffffffffffffffff1673ffffffffffffffffffffffffffffffffffffffff163373ffffffffffffffffffffffffffffffffffffffff1614610a56576040517f08c379a0000000000000000000000000000000000000000000000000000000008152600401610a4d90612330565b60405180910390fd5b5f60149054906101000a900460ff1615610aa5576040517f08c379a0000000000000000000000000000000000000000000000000000000008152600401610a9c90612398565b60405180910390fd5b60015f60146101000a81548160ff0219169083151502179055505f60025f3373ffffffffffffffffffffffffffffffffffffffff1673ffffffffffffffffffffffffffffffffffffffff1681526020019081526020015f205490505f8111610b42576040517f08c379a0000000000000000000000000000000000000000000000000000000008152600401610b3990612400565b60405180910390fd5b5f60025f3373ffffffffffffffffffffffffffffffffffffffff1673ffffffffffffffffffffffffffffffffffffffff1681526020019081526020015f20819055505f3373ffffffffffffffffffffffffffffffffffffffff1682604051610ba99061244b565b5f6040518083038185875af1925050503d805f8114610be3576040519150601f19603f3d011682016040523d82523d5f602084013e610be8565b606091505b5050905080610c2c576040517f08c379a0000000000000000000000000000000000000000000000000000000008152600401610c23906124a9565b60405180910390fd5b50505f8060146101000a81548160ff021916908315150217905550565b60605f60038054905067ffffffffffffffff811115610c6b57610c6a611ceb565b5b604051908082528060200260200182016040528015610ca457816020015b610c91611823565b815260200190600190039081610c895790505b5090505f805b600380549050811015610eb8578473ffffffffffffffffffffffffffffffffffffffff1660038281548110610ce257610ce1611f08565b5b905f5260205f2090600402015f015f9054906101000a900473ffffffffffffffffffffffffffffffffffffffff1673ffffffffffffffffffffffffffffffffffffffff1603610eab5760038181548110610d3f57610d3e611f08565b5b905f5260205f2090600402016040518060800160405290815f82015f9054906101000a900473ffffffffffffffffffffffffffffffffffffffff1673ffffffffffffffffffffffffffffffffffffffff1673ffffffffffffffffffffffffffffffffffffffff168152602001600182018054610dba90611ed8565b80601f0160208091040260200160405190810160405280929190818152602001828054610de690611ed8565b8015610e315780601f10610e0857610100808354040283529160200191610e31565b820191905f5260205f20905b815481529060010190602001808311610e1457829003601f168201915b5050505050815260200160028201548152602001600382015f9054906101000a900460ff166001811115610e6857610e67611b5e565b5b6001811115610e7a57610e79611b5e565b5b81525050838381518110610e9157610e90611f08565b5b60200260200101819052508180610ea790611f62565b9250505b8080600101915050610caa565b505f8167ffffffffffffffff811115610ed457610ed3611ceb565b5b604051908082528060200260200182016040528015610f0d57816020015b610efa611823565b815260200190600190039081610ef25790505b5090505f5b82811015610f6057838181518110610f2d57610f2c611f08565b5b6020026020010151828281518110610f4857610f47611f08565b5b60200260200101819052508080600101915050610f12565b50809350505050919050565b60605f60038054905067ffffffffffffffff811115610f8e57610f8d611ceb565b5b604051908082528060200260200182016040528015610fc757816020015b610fb4611823565b815260200190600190039081610fac5790505b5090505f805b60038054905081101561123a578473ffffffffffffffffffffffffffffffffffffffff166003828154811061100557611004611f08565b5b905f5260205f2090600402015f015f9054906101000a900473ffffffffffffffffffffffffffffffffffffffff1673ffffffffffffffffffffffffffffffffffffffff161480156110a8575060018081111561106457611063611b5e565b5b6003828154811061107857611077611f08565b5b905f5260205f2090600402016003015f9054906101000a900460ff1660018111156110a6576110a5611b5e565b5b145b1561122d57600381815481106110c1576110c0611f08565b5b905f5260205f2090600402016040518060800160405290815f82015f9054906101000a900473ffffffffffffffffffffffffffffffffffffffff1673ffffffffffffffffffffffffffffffffffffffff1673ffffffffffffffffffffffffffffffffffffffff16815260200160018201805461113c90611ed8565b80601f016020809104026020016040519081016040528092919081815260200182805461116890611ed8565b80156111b35780601f1061118a576101008083540402835291602001916111b3565b820191905f5260205f20905b81548152906001019060200180831161119657829003601f168201915b5050505050815260200160028201548152602001600382015f9054906101000a900460ff1660018111156111ea576111e9611b5e565b5b60018111156111fc576111fb611b5e565b5b8152505083838151811061121357611212611f08565b5b6020026020010181905250818061122990611f62565b9250505b8080600101915050610fcd565b505f8167ffffffffffffffff81111561125657611255611ceb565b5b60405190808252806020026020018201604052801561128f57816020015b61127c611823565b8152602001906001900390816112745790505b5090505f5b828110156112e2578381815181106112af576112ae611f08565b5b60200260200101518282815181106112ca576112c9611f08565b5b60200260200101819052508080600101915050611294565b50809350505050919050565b5f3411611330576040517f08c379a000000000000000000000000000000000000000000000000000000000815260040161132790612511565b60405180910390fd5b3460025f3373ffffffffffffffffffffffffffffffffffffffff1673ffffffffffffffffffffffffffffffffffffffff1681526020019081526020015f205f82825461137c919061252f565b92505081905550565b60038054905081106113cc576040517f08c379a00000000000000000000000000000000000000000000000000000000081526004016113c3906125ac565b60405180910390fd5b3373ffffffffffffffffffffffffffffffffffffffff16600382815481106113f7576113f6611f08565b5b905f5260205f2090600402015f015f9054906101000a900473ffffffffffffffffffffffffffffffffffffffff1673ffffffffffffffffffffffffffffffffffffffff161461147b576040517f08c379a000000000000000000000000000000000000000000000000000000000815260040161147290612614565b60405180910390fd5b5f600181111561148e5761148d611b5e565b5b600382815481106114a2576114a1611f08565b5b905f5260205f2090600402016003015f9054906101000a900460ff1660018111156114d0576114cf611b5e565b5b14611510576040517f08c379a00000000000000000000000000000000000000000000000000000000081526004016115079061267c565b60405180910390fd5b60016003828154811061152657611525611f08565b5b905f5260205f2090600402016003015f6101000a81548160ff0219169083600181111561155657611555611b5e565b5b021790555050565b611566611870565b5f5b6001805490508110156117e2578260405160200161158691906126d4565b60405160208183030381529060405280519060200120600182815481106115b0576115af611f08565b5b905f5260205f2090600402015f016040516020016115ce919061276a565b60405160208183030381529060405280519060200120036117d557600181815481106115fd576115fc611f08565b5b905f5260205f2090600402016040518060800160405290815f8201805461162390611ed8565b80601f016020809104026020016040519081016040528092919081815260200182805461164f90611ed8565b801561169a5780601f106116715761010080835404028352916020019161169a565b820191905f5260205f20905b81548152906001019060200180831161167d57829003601f168201915b50505050508152602001600182015481526020016002820180546116bd90611ed8565b80601f01602080910402602001604051908101604052809291908181526020018280546116e990611ed8565b80156117345780601f1061170b57610100808354040283529160200191611734565b820191905f5260205f20905b81548152906001019060200180831161171757829003601f168201915b5050505050815260200160038201805461174d90611ed8565b80601f016020809104026020016040519081016040528092919081815260200182805461177990611ed8565b80156117c45780601f1061179b576101008083540402835291602001916117c4565b820191905f5260205f20905b8154815290600101906020018083116117a757829003601f168201915b50505050508152505091505061181e565b8080600101915050611568565b506040517f08c379a0000000000000000000000000000000000000000000000000000000008152600401611815906127ca565b60405180910390fd5b919050565b60405180608001604052805f73ffffffffffffffffffffffffffffffffffffffff168152602001606081526020015f81526020015f600181111561186a57611869611b5e565b5b81525090565b6040518060800160405280606081526020015f815260200160608152602001606081525090565b5f81519050919050565b5f82825260208201905092915050565b5f819050602082019050919050565b5f81519050919050565b5f82825260208201905092915050565b8281835e5f83830152505050565b5f601f19601f8301169050919050565b5f611902826118c0565b61190c81856118ca565b935061191c8185602086016118da565b611925816118e8565b840191505092915050565b5f819050919050565b61194281611930565b82525050565b5f608083015f8301518482035f86015261196282826118f8565b91505060208301516119776020860182611939565b506040830151848203604086015261198f82826118f8565b915050606083015184820360608601526119a982826118f8565b9150508091505092915050565b5f6119c18383611948565b905092915050565b5f602082019050919050565b5f6119df82611897565b6119e981856118a1565b9350836020820285016119fb856118b1565b805f5b85811015611a365784840389528151611a1785826119b6565b9450611a22836119c9565b925060208a019950506001810190506119fe565b50829750879550505050505092915050565b5f6020820190508181035f830152611a6081846119d5565b905092915050565b611a7181611930565b82525050565b5f602082019050611a8a5f830184611a68565b92915050565b5f604051905090565b5f80fd5b5f80fd5b5f73ffffffffffffffffffffffffffffffffffffffff82169050919050565b5f611aca82611aa1565b9050919050565b611ada81611ac0565b8114611ae4575f80fd5b50565b5f81359050611af581611ad1565b92915050565b5f60208284031215611b1057611b0f611a99565b5b5f611b1d84828501611ae7565b91505092915050565b5f81519050919050565b5f82825260208201905092915050565b5f819050602082019050919050565b611b5881611ac0565b82525050565b7f4e487b71000000000000000000000000000000000000000000000000000000005f52602160045260245ffd5b60028110611b9c57611b9b611b5e565b5b50565b5f819050611bac82611b8b565b919050565b5f611bbb82611b9f565b9050919050565b611bcb81611bb1565b82525050565b5f608083015f830151611be65f860182611b4f565b5060208301518482036020860152611bfe82826118f8565b9150506040830151611c136040860182611939565b506060830151611c266060860182611bc2565b508091505092915050565b5f611c3c8383611bd1565b905092915050565b5f602082019050919050565b5f611c5a82611b26565b611c648185611b30565b935083602082028501611c7685611b40565b805f5b85811015611cb15784840389528151611c928582611c31565b9450611c9d83611c44565b925060208a01995050600181019050611c79565b50829750879550505050505092915050565b5f6020820190508181035f830152611cdb8184611c50565b905092915050565b5f80fd5b5f80fd5b7f4e487b71000000000000000000000000000000000000000000000000000000005f52604160045260245ffd5b611d21826118e8565b810181811067ffffffffffffffff82111715611d4057611d3f611ceb565b5b80604052505050565b5f611d52611a90565b9050611d5e8282611d18565b919050565b5f67ffffffffffffffff821115611d7d57611d7c611ceb565b5b611d86826118e8565b9050602081019050919050565b828183375f83830152505050565b5f611db3611dae84611d63565b611d49565b905082815260208101848484011115611dcf57611dce611ce7565b5b611dda848285611d93565b509392505050565b5f82601f830112611df657611df5611ce3565b5b8135611e06848260208601611da1565b91505092915050565b5f60208284031215611e2457611e23611a99565b5b5f82013567ffffffffffffffff811115611e4157611e40611a9d565b5b611e4d84828501611de2565b91505092915050565b611e5f81611930565b8114611e69575f80fd5b50565b5f81359050611e7a81611e56565b92915050565b5f60208284031215611e9557611e94611a99565b5b5f611ea284828501611e6c565b91505092915050565b7f4e487b71000000000000000000000000000000000000000000000000000000005f52602260045260245ffd5b5f6002820490506001821680611eef57607f821691505b602082108103611f0257611f01611eab565b5b50919050565b7f4e487b71000000000000000000000000000000000000000000000000000000005f52603260045260245ffd5b7f4e487b71000000000000000000000000000000000000000000000000000000005f52601160045260245ffd5b5f611f6c82611930565b91507fffffffffffffffffffffffffffffffffffffffffffffffffffffffffffffffff8203611f9e57611f9d611f35565b5b600182019050919050565b5f82825260208201905092915050565b7f496e73756666696369656e742066756e647300000000000000000000000000005f82015250565b5f611fed601283611fa9565b9150611ff882611fb9565b602082019050919050565b5f6020820190508181035f83015261201a81611fe1565b9050919050565b5f61202b82611930565b915061203683611930565b925082820390508181111561204e5761204d611f35565b5b92915050565b5f819050815f5260205f209050919050565b5f6020601f8301049050919050565b5f82821b905092915050565b5f600883026120b07fffffffffffffffffffffffffffffffffffffffffffffffffffffffffffffffff82612075565b6120ba8683612075565b95508019841693508086168417925050509392505050565b5f819050919050565b5f6120f56120f06120eb84611930565b6120d2565b611930565b9050919050565b5f819050919050565b61210e836120db565b61212261211a826120fc565b848454612081565b825550505050565b5f90565b61213661212a565b612141818484612105565b505050565b5b81811015612164576121595f8261212e565b600181019050612147565b5050565b601f8211156121a95761217a81612054565b61218384612066565b81016020851015612192578190505b6121a661219e85612066565b830182612146565b50505b505050565b5f82821c905092915050565b5f6121c95f19846008026121ae565b1980831691505092915050565b5f6121e183836121ba565b9150826002028217905092915050565b6121fa826118c0565b67ffffffffffffffff81111561221357612212611ceb565b5b61221d8254611ed8565b612228828285612168565b5f60209050601f831160018114612259575f8415612247578287015190505b61225185826121d6565b8655506122b8565b601f19841661226786612054565b5f5b8281101561228e57848901518255600182019150602085019450602081019050612269565b868310156122ab57848901516122a7601f8916826121ba565b8355505b6001600288020188555050505b505050505050565b7f4f6e6c79206f776e65722063616e2063616c6c20746869732066756e6374696f5f8201527f6e00000000000000000000000000000000000000000000000000000000000000602082015250565b5f61231a602183611fa9565b9150612325826122c0565b604082019050919050565b5f6020820190508181035f8301526123478161230e565b9050919050565b7f4e6f207265656e7472616e6379000000000000000000000000000000000000005f82015250565b5f612382600d83611fa9565b915061238d8261234e565b602082019050919050565b5f6020820190508181035f8301526123af81612376565b9050919050565b7f596f7520646f206e6f74206861766520616e792062616c616e63652e000000005f82015250565b5f6123ea601c83611fa9565b91506123f5826123b6565b602082019050919050565b5f6020820190508181035f830152612417816123de565b9050919050565b5f81905092915050565b50565b5f6124365f8361241e565b915061244182612428565b5f82019050919050565b5f6124558261242b565b9150819050919050565b7f5472616e73666572206661696c65642e000000000000000000000000000000005f82015250565b5f612493601083611fa9565b915061249e8261245f565b602082019050919050565b5f6020820190508181035f8301526124c081612487565b9050919050565b7f4d697373696e6720726571756972656420616d6f756e740000000000000000005f82015250565b5f6124fb601783611fa9565b9150612506826124c7565b602082019050919050565b5f6020820190508181035f830152612528816124ef565b9050919050565b5f61253982611930565b915061254483611930565b925082820190508082111561255c5761255b611f35565b5b92915050565b7f496e76616c696420707572636861736520696e646578000000000000000000005f82015250565b5f612596601683611fa9565b91506125a182612562565b602082019050919050565b5f6020820190508181035f8301526125c38161258a565b9050919050565b7f4e6f7420796f75722070757263686173650000000000000000000000000000005f82015250565b5f6125fe601183611fa9565b9150612609826125ca565b602082019050919050565b5f6020820190508181035f83015261262b816125f2565b9050919050565b7f507572636861736520616c726561647920636f6e73756d6564000000000000005f82015250565b5f612666601983611fa9565b915061267182612632565b602082019050919050565b5f6020820190508181035f8301526126938161265a565b9050919050565b5f81905092915050565b5f6126ae826118c0565b6126b8818561269a565b93506126c88185602086016118da565b80840191505092915050565b5f6126df82846126a4565b915081905092915050565b5f81546126f681611ed8565b612700818661269a565b9450600182165f811461271a576001811461272f57612761565b60ff1983168652811515820286019350612761565b61273885612054565b5f5b838110156127595781548189015260018201915060208101905061273a565b838801955050505b50505092915050565b5f61277582846126ea565b915081905092915050565b7f50726f64756374206e6f7420666f756e640000000000000000000000000000005f82015250565b5f6127b4601183611fa9565b91506127bf82612780565b602082019050919050565b5f6020820190508181035f8301526127e1816127a8565b905091905056fea2646970667358221220e2b2ff6476ad91eafd7a48ee8df2106120c25a45e2da8ca757000ad894c423a364736f6c634300081a0033516d6652465261626f50334d3438656578766e516b6977675544506150484a69466e44634b637545754c426266312f",
			"opcodes": "PUSH1 0x80 PUSH1 0x40 MSTORE CALLVALUE DUP1 ISZERO PUSH2 0xF JUMPI PUSH0 DUP1 REVERT JUMPDEST POP CALLER PUSH0 DUP1 PUSH2 0x100 EXP DUP2 SLOAD DUP2 PUSH20 0xFFFFFFFFFFFFFFFFFFFFFFFFFFFFFFFFFFFFFFFF MUL NOT AND SWAP1 DUP4 PUSH20 0xFFFFFFFFFFFFFFFFFFFFFFFFFFFFFFFFFFFFFFFF AND MUL OR SWAP1 SSTORE POP PUSH2 0x5D PUSH2 0x62 PUSH1 0x20 SHL PUSH1 0x20 SHR JUMP JUMPDEST PUSH2 0x1EE4 JUMP JUMPDEST PUSH1 0x1 PUSH1 0x40 MLOAD DUP1 PUSH1 0x80 ADD PUSH1 0x40 MSTORE DUP1 PUSH1 0x40 MLOAD DUP1 PUSH1 0x40 ADD PUSH1 0x40 MSTORE DUP1 PUSH1 0x2 DUP2 MSTORE PUSH1 0x20 ADD PUSH32 0x4131000000000000000000000000000000000000000000000000000000000000 DUP2 MSTORE POP DUP2 MSTORE PUSH1 0x20 ADD PUSH4 0x5F5E100 PUSH1 0xF PUSH2 0xBB SWAP2 SWAP1 PUSH2 0x1B38 JUMP JUMPDEST DUP2 MSTORE PUSH1 0x20 ADD PUSH1 0x40 MLOAD DUP1 PUSH1 0x40 ADD PUSH1 0x40 MSTORE DUP1 PUSH1 0x4 DUP2 MSTORE PUSH1 0x20 ADD PUSH32 0x4C61797300000000000000000000000000000000000000000000000000000000 DUP2 MSTORE POP DUP2 MSTORE PUSH1 0x20 ADD PUSH2 0x13F PUSH1 0x40 MLOAD DUP1 PUSH1 0x40 ADD PUSH1 0x40 MSTORE DUP1 PUSH1 0x8 DUP2 MSTORE PUSH1 0x20 ADD PUSH32 0x6C6179732E706E67000000000000000000000000000000000000000000000000 DUP2 MSTORE POP PUSH2 0x1ABF PUSH1 0x20 SHL PUSH1 0x20 SHR JUMP JUMPDEST DUP2 MSTORE POP SWAP1 DUP1 PUSH1 0x1 DUP2 SLOAD ADD DUP1 DUP3 SSTORE DUP1 SWAP2 POP POP PUSH1 0x1 SWAP1 SUB SWAP1 PUSH0 MSTORE PUSH1 0x20 PUSH0 KECCAK256 SWAP1 PUSH1 0x4 MUL ADD PUSH0 SWAP1 SWAP2 SWAP1 SWAP2 SWAP1 SWAP2 POP PUSH0 DUP3 ADD MLOAD DUP2 PUSH0 ADD SWAP1 DUP2 PUSH2 0x17B SWAP2 SWAP1 PUSH2 0x1DAA JUMP JUMPDEST POP PUSH1 0x20 DUP3 ADD MLOAD DUP2 PUSH1 0x1 ADD SSTORE PUSH1 0x40 DUP3 ADD MLOAD DUP2 PUSH1 0x2 ADD SWAP1 DUP2 PUSH2 0x19B SWAP2 SWAP1 PUSH2 0x1DAA JUMP JUMPDEST POP PUSH1 0x60 DUP3 ADD MLOAD DUP2 PUSH1 0x3 ADD SWAP1 DUP2 PUSH2 0x1B1 SWAP2 SWAP1 PUSH2 0x1DAA JUMP JUMPDEST POP POP POP PUSH1 0x1 PUSH1 0x40 MLOAD DUP1 PUSH1 0x80 ADD PUSH1 0x40 MSTORE DUP1 PUSH1 0x40 MLOAD DUP1 PUSH1 0x40 ADD PUSH1 0x40 MSTORE DUP1 PUSH1 0x2 DUP2 MSTORE PUSH1 0x20 ADD PUSH32 0x4132000000000000000000000000000000000000000000000000000000000000 DUP2 MSTORE POP DUP2 MSTORE PUSH1 0x20 ADD PUSH3 0x989680 PUSH1 0xAF PUSH2 0x20C SWAP2 SWAP1 PUSH2 0x1B38 JUMP JUMPDEST DUP2 MSTORE PUSH1 0x20 ADD PUSH1 0x40 MLOAD DUP1 PUSH1 0x40 ADD PUSH1 0x40 MSTORE DUP1 PUSH1 0x9 DUP2 MSTORE PUSH1 0x20 ADD PUSH32 0x436F636120436F6C610000000000000000000000000000000000000000000000 DUP2 MSTORE POP DUP2 MSTORE PUSH1 0x20 ADD PUSH2 0x290 PUSH1 0x40 MLOAD DUP1 PUSH1 0x40 ADD PUSH1 0x40 MSTORE DUP1 PUSH1 0xD DUP2 MSTORE PUSH1 0x20 ADD PUSH32 0x636F63612D636F6C612E706E6700000000000000000000000000000000000000 DUP2 MSTORE POP PUSH2 0x1ABF PUSH1 0x20 SHL PUSH1 0x20 SHR JUMP JUMPDEST DUP2 MSTORE POP SWAP1 DUP1 PUSH1 0x1 DUP2 SLOAD ADD DUP1 DUP3 SSTORE DUP1 SWAP2 POP POP PUSH1 0x1 SWAP1 SUB SWAP1 PUSH0 MSTORE PUSH1 0x20 PUSH0 KECCAK256 SWAP1 PUSH1 0x4 MUL ADD PUSH0 SWAP1 SWAP2 SWAP1 SWAP2 SWAP1 SWAP2 POP PUSH0 DUP3 ADD MLOAD DUP2 PUSH0 ADD SWAP1 DUP2 PUSH2 0x2CC SWAP2 SWAP1 PUSH2 0x1DAA JUMP JUMPDEST POP PUSH1 0x20 DUP3 ADD MLOAD DUP2 PUSH1 0x1 ADD SSTORE PUSH1 0x40 DUP3 ADD MLOAD DUP2 PUSH1 0x2 ADD SWAP1 DUP2 PUSH2 0x2EC SWAP2 SWAP1 PUSH2 0x1DAA JUMP JUMPDEST POP PUSH1 0x60 DUP3 ADD MLOAD DUP2 PUSH1 0x3 ADD SWAP1 DUP2 PUSH2 0x302 SWAP2 SWAP1 PUSH2 0x1DAA JUMP JUMPDEST POP POP POP PUSH1 0x1 PUSH1 0x40 MLOAD DUP1 PUSH1 0x80 ADD PUSH1 0x40 MSTORE DUP1 PUSH1 0x40 MLOAD DUP1 PUSH1 0x40 ADD PUSH1 0x40 MSTORE DUP1 PUSH1 0x2 DUP2 MSTORE PUSH1 0x20 ADD PUSH32 0x4133000000000000000000000000000000000000000000000000000000000000 DUP2 MSTORE POP DUP2 MSTORE PUSH1 0x20 ADD PUSH4 0x5F5E100 PUSH1 0xF PUSH2 0x35E SWAP2 SWAP1 PUSH2 0x1B38 JUMP JUMPDEST DUP2 MSTORE PUSH1 0x20 ADD PUSH1 0x40 MLOAD DUP1 PUSH1 0x40 ADD PUSH1 0x40 MSTORE DUP1 PUSH1 0x8 DUP2 MSTORE PUSH1 0x20 ADD PUSH32 0x5072696E676C6573000000000000000000000000000000000000000000000000 DUP2 MSTORE POP DUP2 MSTORE PUSH1 0x20 ADD PUSH2 0x3E2 PUSH1 0x40 MLOAD DUP1 PUSH1 0x40 ADD PUSH1 0x40 MSTORE DUP1 PUSH1 0xC DUP2 MSTORE PUSH1 0x20 ADD PUSH32 0x7072696E676C65732E706E670000000000000000000000000000000000000000 DUP2 MSTORE POP PUSH2 0x1ABF PUSH1 0x20 SHL PUSH1 0x20 SHR JUMP JUMPDEST DUP2 MSTORE POP SWAP1 DUP1 PUSH1 0x1 DUP2 SLOAD ADD DUP1 DUP3 SSTORE DUP1 SWAP2 POP POP PUSH1 0x1 SWAP1 SUB SWAP1 PUSH0 MSTORE PUSH1 0x20 PUSH0 KECCAK256 SWAP1 PUSH1 0x4 MUL ADD PUSH0 SWAP1 SWAP2 SWAP1 SWAP2 SWAP1 SWAP2 POP PUSH0 DUP3 ADD MLOAD DUP2 PUSH0 ADD SWAP1 DUP2 PUSH2 0x41E SWAP2 SWAP1 PUSH2 0x1DAA JUMP JUMPDEST POP PUSH1 0x20 DUP3 ADD MLOAD DUP2 PUSH1 0x1 ADD SSTORE PUSH1 0x40 DUP3 ADD MLOAD DUP2 PUSH1 0x2 ADD SWAP1 DUP2 PUSH2 0x43E SWAP2 SWAP1 PUSH2 0x1DAA JUMP JUMPDEST POP PUSH1 0x60 DUP3 ADD MLOAD DUP2 PUSH1 0x3 ADD SWAP1 DUP2 PUSH2 0x454 SWAP2 SWAP1 PUSH2 0x1DAA JUMP JUMPDEST POP POP POP PUSH1 0x1 PUSH1 0x40 MLOAD DUP1 PUSH1 0x80 ADD PUSH1 0x40 MSTORE DUP1 PUSH1 0x40 MLOAD DUP1 PUSH1 0x40 ADD PUSH1 0x40 MSTORE DUP1 PUSH1 0x2 DUP2 MSTORE PUSH1 0x20 ADD PUSH32 0x4134000000000000000000000000000000000000000000000000000000000000 DUP2 MSTORE POP DUP2 MSTORE PUSH1 0x20 ADD PUSH3 0x989680 PUSH1 0xAF PUSH2 0x4AF SWAP2 SWAP1 PUSH2 0x1B38 JUMP JUMPDEST DUP2 MSTORE PUSH1 0x20 ADD PUSH1 0x40 MLOAD DUP1 PUSH1 0x40 ADD PUSH1 0x40 MSTORE DUP1 PUSH1 0x5 DUP2 MSTORE PUSH1 0x20 ADD PUSH32 0x5761746572000000000000000000000000000000000000000000000000000000 DUP2 MSTORE POP DUP2 MSTORE PUSH1 0x20 ADD PUSH2 0x533 PUSH1 0x40 MLOAD DUP1 PUSH1 0x40 ADD PUSH1 0x40 MSTORE DUP1 PUSH1 0x9 DUP2 MSTORE PUSH1 0x20 ADD PUSH32 0x77617465722E706E670000000000000000000000000000000000000000000000 DUP2 MSTORE POP PUSH2 0x1ABF PUSH1 0x20 SHL PUSH1 0x20 SHR JUMP JUMPDEST DUP2 MSTORE POP SWAP1 DUP1 PUSH1 0x1 DUP2 SLOAD ADD DUP1 DUP3 SSTORE DUP1 SWAP2 POP POP PUSH1 0x1 SWAP1 SUB SWAP1 PUSH0 MSTORE PUSH1 0x20 PUSH0 KECCAK256 SWAP1 PUSH1 0x4 MUL ADD PUSH0 SWAP1 SWAP2 SWAP1 SWAP2 SWAP1 SWAP2 POP PUSH0 DUP3 ADD MLOAD DUP2 PUSH0 ADD SWAP1 DUP2 PUSH2 0x56F SWAP2 SWAP1 PUSH2 0x1DAA JUMP JUMPDEST POP PUSH1 0x20 DUP3 ADD MLOAD DUP2 PUSH1 0x1 ADD SSTORE PUSH1 0x40 DUP3 ADD MLOAD DUP2 PUSH1 0x2 ADD SWAP1 DUP2 PUSH2 0x58F SWAP2 SWAP1 PUSH2 0x1DAA JUMP JUMPDEST POP PUSH1 0x60 DUP3 ADD MLOAD DUP2 PUSH1 0x3 ADD SWAP1 DUP2 PUSH2 0x5A5 SWAP2 SWAP1 PUSH2 0x1DAA JUMP JUMPDEST POP POP POP PUSH1 0x1 PUSH1 0x40 MLOAD DUP1 PUSH1 0x80 ADD PUSH1 0x40 MSTORE DUP1 PUSH1 0x40 MLOAD DUP1 PUSH1 0x40 ADD PUSH1 0x40 MSTORE DUP1 PUSH1 0x2 DUP2 MSTORE PUSH1 0x20 ADD PUSH32 0x4135000000000000000000000000000000000000000000000000000000000000 DUP2 MSTORE POP DUP2 MSTORE PUSH1 0x20 ADD PUSH4 0x5F5E100 PUSH1 0xF PUSH2 0x601 SWAP2 SWAP1 PUSH2 0x1B38 JUMP JUMPDEST DUP2 MSTORE PUSH1 0x20 ADD PUSH1 0x40 MLOAD DUP1 PUSH1 0x40 ADD PUSH1 0x40 MSTORE DUP1 PUSH1 0xC DUP2 MSTORE PUSH1 0x20 ADD PUSH32 0x456E65726779204472696E6B0000000000000000000000000000000000000000 DUP2 MSTORE POP DUP2 MSTORE PUSH1 0x20 ADD PUSH2 0x685 PUSH1 0x40 MLOAD DUP1 PUSH1 0x40 ADD PUSH1 0x40 MSTORE DUP1 PUSH1 0xC DUP2 MSTORE PUSH1 0x20 ADD PUSH32 0x7265642D62756C6C2E706E670000000000000000000000000000000000000000 DUP2 MSTORE POP PUSH2 0x1ABF PUSH1 0x20 SHL PUSH1 0x20 SHR JUMP JUMPDEST DUP2 MSTORE POP SWAP1 DUP1 PUSH1 0x1 DUP2 SLOAD ADD DUP1 DUP3 SSTORE DUP1 SWAP2 POP POP PUSH1 0x1 SWAP1 SUB SWAP1 PUSH0 MSTORE PUSH1 0x20 PUSH0 KECCAK256 SWAP1 PUSH1 0x4 MUL ADD PUSH0 SWAP1 SWAP2 SWAP1 SWAP2 SWAP1 SWAP2 POP PUSH0 DUP3 ADD MLOAD DUP2 PUSH0 ADD SWAP1 DUP2 PUSH2 0x6C1 SWAP2 SWAP1 PUSH2 0x1DAA JUMP JUMPDEST POP PUSH1 0x20 DUP3 ADD MLOAD DUP2 PUSH1 0x1 ADD SSTORE PUSH1 0x40 DUP3 ADD MLOAD DUP2 PUSH1 0x2 ADD SWAP1 DUP2 PUSH2 0x6E1 SWAP2 SWAP1 PUSH2 0x1DAA JUMP JUMPDEST POP PUSH1 0x60 DUP3 ADD MLOAD DUP2 PUSH1 0x3 ADD SWAP1 DUP2 PUSH2 0x6F7 SWAP2 SWAP1 PUSH2 0x1DAA JUMP JUMPDEST POP POP POP PUSH1 0x1 PUSH1 0x40 MLOAD DUP1 PUSH1 0x80 ADD PUSH1 0x40 MSTORE DUP1 PUSH1 0x40 MLOAD DUP1 PUSH1 0x40 ADD PUSH1 0x40 MSTORE DUP1 PUSH1 0x2 DUP2 MSTORE PUSH1 0x20 ADD PUSH32 0x4231000000000000000000000000000000000000000000000000000000000000 DUP2 MSTORE POP DUP2 MSTORE PUSH1 0x20 ADD PUSH4 0x5F5E100 PUSH1 0x14 PUSH2 0x753 SWAP2 SWAP1 PUSH2 0x1B38 JUMP JUMPDEST DUP2 MSTORE PUSH1 0x20 ADD PUSH1 0x40 MLOAD DUP1 PUSH1 0x40 ADD PUSH1 0x40 MSTORE DUP1 PUSH1 0x8 DUP2 MSTORE PUSH1 0x20 ADD PUSH32 0x53616E6477696368000000000000000000000000000000000000000000000000 DUP2 MSTORE POP DUP2 MSTORE PUSH1 0x20 ADD PUSH2 0x7D7 PUSH1 0x40 MLOAD DUP1 PUSH1 0x40 ADD PUSH1 0x40 MSTORE DUP1 PUSH1 0xC DUP2 MSTORE PUSH1 0x20 ADD PUSH32 0x73616E64776963682E706E670000000000000000000000000000000000000000 DUP2 MSTORE POP PUSH2 0x1ABF PUSH1 0x20 SHL PUSH1 0x20 SHR JUMP JUMPDEST DUP2 MSTORE POP SWAP1 DUP1 PUSH1 0x1 DUP2 SLOAD ADD DUP1 DUP3 SSTORE DUP1 SWAP2 POP POP PUSH1 0x1 SWAP1 SUB SWAP1 PUSH0 MSTORE PUSH1 0x20 PUSH0 KECCAK256 SWAP1 PUSH1 0x4 MUL ADD PUSH0 SWAP1 SWAP2 SWAP1 SWAP2 SWAP1 SWAP2 POP PUSH0 DUP3 ADD MLOAD DUP2 PUSH0 ADD SWAP1 DUP2 PUSH2 0x813 SWAP2 SWAP1 PUSH2 0x1DAA JUMP JUMPDEST POP PUSH1 0x20 DUP3 ADD MLOAD DUP2 PUSH1 0x1 ADD SSTORE PUSH1 0x40 DUP3 ADD MLOAD DUP2 PUSH1 0x2 ADD SWAP1 DUP2 PUSH2 0x833 SWAP2 SWAP1 PUSH2 0x1DAA JUMP JUMPDEST POP PUSH1 0x60 DUP3 ADD MLOAD DUP2 PUSH1 0x3 ADD SWAP1 DUP2 PUSH2 0x849 SWAP2 SWAP1 PUSH2 0x1DAA JUMP JUMPDEST POP POP POP PUSH1 0x1 PUSH1 0x40 MLOAD DUP1 PUSH1 0x80 ADD PUSH1 0x40 MSTORE DUP1 PUSH1 0x40 MLOAD DUP1 PUSH1 0x40 ADD PUSH1 0x40 MSTORE DUP1 PUSH1 0x2 DUP2 MSTORE PUSH1 0x20 ADD PUSH32 0x4232000000000000000000000000000000000000000000000000000000000000 DUP2 MSTORE POP DUP2 MSTORE PUSH1 0x20 ADD PUSH3 0x989680 PUSH1 0xAF PUSH2 0x8A4 SWAP2 SWAP1 PUSH2 0x1B38 JUMP JUMPDEST DUP2 MSTORE PUSH1 0x20 ADD PUSH1 0x40 MLOAD DUP1 PUSH1 0x40 ADD PUSH1 0x40 MSTORE DUP1 PUSH1 0x4 DUP2 MSTORE PUSH1 0x20 ADD PUSH32 0x4F72656F00000000000000000000000000000000000000000000000000000000 DUP2 MSTORE POP DUP2 MSTORE PUSH1 0x20 ADD PUSH2 0x928 PUSH1 0x40 MLOAD DUP1 PUSH1 0x40 ADD PUSH1 0x40 MSTORE DUP1 PUSH1 0x8 DUP2 MSTORE PUSH1 0x20 ADD PUSH32 0x6F72656F2E706E67000000000000000000000000000000000000000000000000 DUP2 MSTORE POP PUSH2 0x1ABF PUSH1 0x20 SHL PUSH1 0x20 SHR JUMP JUMPDEST DUP2 MSTORE POP SWAP1 DUP1 PUSH1 0x1 DUP2 SLOAD ADD DUP1 DUP3 SSTORE DUP1 SWAP2 POP POP PUSH1 0x1 SWAP1 SUB SWAP1 PUSH0 MSTORE PUSH1 0x20 PUSH0 KECCAK256 SWAP1 PUSH1 0x4 MUL ADD PUSH0 SWAP1 SWAP2 SWAP1 SWAP2 SWAP1 SWAP2 POP PUSH0 DUP3 ADD MLOAD DUP2 PUSH0 ADD SWAP1 DUP2 PUSH2 0x964 SWAP2 SWAP1 PUSH2 0x1DAA JUMP JUMPDEST POP PUSH1 0x20 DUP3 ADD MLOAD DUP2 PUSH1 0x1 ADD SSTORE PUSH1 0x40 DUP3 ADD MLOAD DUP2 PUSH1 0x2 ADD SWAP1 DUP2 PUSH2 0x984 SWAP2 SWAP1 PUSH2 0x1DAA JUMP JUMPDEST POP PUSH1 0x60 DUP3 ADD MLOAD DUP2 PUSH1 0x3 ADD SWAP1 DUP2 PUSH2 0x99A SWAP2 SWAP1 PUSH2 0x1DAA JUMP JUMPDEST POP POP POP PUSH1 0x1 PUSH1 0x40 MLOAD DUP1 PUSH1 0x80 ADD PUSH1 0x40 MSTORE DUP1 PUSH1 0x40 MLOAD DUP1 PUSH1 0x40 ADD PUSH1 0x40 MSTORE DUP1 PUSH1 0x2 DUP2 MSTORE PUSH1 0x20 ADD PUSH32 0x4233000000000000000000000000000000000000000000000000000000000000 DUP2 MSTORE POP DUP2 MSTORE PUSH1 0x20 ADD PUSH4 0x5F5E100 PUSH1 0xF PUSH2 0x9F6 SWAP2 SWAP1 PUSH2 0x1B38 JUMP JUMPDEST DUP2 MSTORE PUSH1 0x20 ADD PUSH1 0x40 MLOAD DUP1 PUSH1 0x40 ADD PUSH1 0x40 MSTORE DUP1 PUSH1 0x6 DUP2 MSTORE PUSH1 0x20 ADD PUSH32 0x5370726974650000000000000000000000000000000000000000000000000000 DUP2 MSTORE POP DUP2 MSTORE PUSH1 0x20 ADD PUSH2 0xA7A PUSH1 0x40 MLOAD DUP1 PUSH1 0x40 ADD PUSH1 0x40 MSTORE DUP1 PUSH1 0xA DUP2 MSTORE PUSH1 0x20 ADD PUSH32 0x7370726974652E706E6700000000000000000000000000000000000000000000 DUP2 MSTORE POP PUSH2 0x1ABF PUSH1 0x20 SHL PUSH1 0x20 SHR JUMP JUMPDEST DUP2 MSTORE POP SWAP1 DUP1 PUSH1 0x1 DUP2 SLOAD ADD DUP1 DUP3 SSTORE DUP1 SWAP2 POP POP PUSH1 0x1 SWAP1 SUB SWAP1 PUSH0 MSTORE PUSH1 0x20 PUSH0 KECCAK256 SWAP1 PUSH1 0x4 MUL ADD PUSH0 SWAP1 SWAP2 SWAP1 SWAP2 SWAP1 SWAP2 POP PUSH0 DUP3 ADD MLOAD DUP2 PUSH0 ADD SWAP1 DUP2 PUSH2 0xAB6 SWAP2 SWAP1 PUSH2 0x1DAA JUMP JUMPDEST POP PUSH1 0x20 DUP3 ADD MLOAD DUP2 PUSH1 0x1 ADD SSTORE PUSH1 0x40 DUP3 ADD MLOAD DUP2 PUSH1 0x2 ADD SWAP1 DUP2 PUSH2 0xAD6 SWAP2 SWAP1 PUSH2 0x1DAA JUMP JUMPDEST POP PUSH1 0x60 DUP3 ADD MLOAD DUP2 PUSH1 0x3 ADD SWAP1 DUP2 PUSH2 0xAEC SWAP2 SWAP1 PUSH2 0x1DAA JUMP JUMPDEST POP POP POP PUSH1 0x1 PUSH1 0x40 MLOAD DUP1 PUSH1 0x80 ADD PUSH1 0x40 MSTORE DUP1 PUSH1 0x40 MLOAD DUP1 PUSH1 0x40 ADD PUSH1 0x40 MSTORE DUP1 PUSH1 0x2 DUP2 MSTORE PUSH1 0x20 ADD PUSH32 0x4234000000000000000000000000000000000000000000000000000000000000 DUP2 MSTORE POP DUP2 MSTORE PUSH1 0x20 ADD PUSH3 0x989680 PUSH1 0xAF PUSH2 0xB47 SWAP2 SWAP1 PUSH2 0x1B38 JUMP JUMPDEST DUP2 MSTORE PUSH1 0x20 ADD PUSH1 0x40 MLOAD DUP1 PUSH1 0x40 ADD PUSH1 0x40 MSTORE DUP1 PUSH1 0xB DUP2 MSTORE PUSH1 0x20 ADD PUSH32 0x4772616E6F6C6120426172000000000000000000000000000000000000000000 DUP2 MSTORE POP DUP2 MSTORE PUSH1 0x20 ADD PUSH2 0xBCB PUSH1 0x40 MLOAD DUP1 PUSH1 0x40 ADD PUSH1 0x40 MSTORE DUP1 PUSH1 0xF DUP2 MSTORE PUSH1 0x20 ADD PUSH32 0x6772616E6F6C612D6261722E706E670000000000000000000000000000000000 DUP2 MSTORE POP PUSH2 0x1ABF PUSH1 0x20 SHL PUSH1 0x20 SHR JUMP JUMPDEST DUP2 MSTORE POP SWAP1 DUP1 PUSH1 0x1 DUP2 SLOAD ADD DUP1 DUP3 SSTORE DUP1 SWAP2 POP POP PUSH1 0x1 SWAP1 SUB SWAP1 PUSH0 MSTORE PUSH1 0x20 PUSH0 KECCAK256 SWAP1 PUSH1 0x4 MUL ADD PUSH0 SWAP1 SWAP2 SWAP1 SWAP2 SWAP1 SWAP2 POP PUSH0 DUP3 ADD MLOAD DUP2 PUSH0 ADD SWAP1 DUP2 PUSH2 0xC07 SWAP2 SWAP1 PUSH2 0x1DAA JUMP JUMPDEST POP PUSH1 0x20 DUP3 ADD MLOAD DUP2 PUSH1 0x1 ADD SSTORE PUSH1 0x40 DUP3 ADD MLOAD DUP2 PUSH1 0x2 ADD SWAP1 DUP2 PUSH2 0xC27 SWAP2 SWAP1 PUSH2 0x1DAA JUMP JUMPDEST POP PUSH1 0x60 DUP3 ADD MLOAD DUP2 PUSH1 0x3 ADD SWAP1 DUP2 PUSH2 0xC3D SWAP2 SWAP1 PUSH2 0x1DAA JUMP JUMPDEST POP POP POP PUSH1 0x1 PUSH1 0x40 MLOAD DUP1 PUSH1 0x80 ADD PUSH1 0x40 MSTORE DUP1 PUSH1 0x40 MLOAD DUP1 PUSH1 0x40 ADD PUSH1 0x40 MSTORE DUP1 PUSH1 0x2 DUP2 MSTORE PUSH1 0x20 ADD PUSH32 0x4235000000000000000000000000000000000000000000000000000000000000 DUP2 MSTORE POP DUP2 MSTORE PUSH1 0x20 ADD PUSH3 0x989680 PUSH1 0xAF PUSH2 0xC98 SWAP2 SWAP1 PUSH2 0x1B38 JUMP JUMPDEST DUP2 MSTORE PUSH1 0x20 ADD PUSH1 0x40 MLOAD DUP1 PUSH1 0x40 ADD PUSH1 0x40 MSTORE DUP1 PUSH1 0x7 DUP2 MSTORE PUSH1 0x20 ADD PUSH32 0x446F7269746F7300000000000000000000000000000000000000000000000000 DUP2 MSTORE POP DUP2 MSTORE PUSH1 0x20 ADD PUSH2 0xD1C PUSH1 0x40 MLOAD DUP1 PUSH1 0x40 ADD PUSH1 0x40 MSTORE DUP1 PUSH1 0xB DUP2 MSTORE PUSH1 0x20 ADD PUSH32 0x646F7269746F732E706E67000000000000000000000000000000000000000000 DUP2 MSTORE POP PUSH2 0x1ABF PUSH1 0x20 SHL PUSH1 0x20 SHR JUMP JUMPDEST DUP2 MSTORE POP SWAP1 DUP1 PUSH1 0x1 DUP2 SLOAD ADD DUP1 DUP3 SSTORE DUP1 SWAP2 POP POP PUSH1 0x1 SWAP1 SUB SWAP1 PUSH0 MSTORE PUSH1 0x20 PUSH0 KECCAK256 SWAP1 PUSH1 0x4 MUL ADD PUSH0 SWAP1 SWAP2 SWAP1 SWAP2 SWAP1 SWAP2 POP PUSH0 DUP3 ADD MLOAD DUP2 PUSH0 ADD SWAP1 DUP2 PUSH2 0xD58 SWAP2 SWAP1 PUSH2 0x1DAA JUMP JUMPDEST POP PUSH1 0x20 DUP3 ADD MLOAD DUP2 PUSH1 0x1 ADD SSTORE PUSH1 0x40 DUP3 ADD MLOAD DUP2 PUSH1 0x2 ADD SWAP1 DUP2 PUSH2 0xD78 SWAP2 SWAP1 PUSH2 0x1DAA JUMP JUMPDEST POP PUSH1 0x60 DUP3 ADD MLOAD DUP2 PUSH1 0x3 ADD SWAP1 DUP2 PUSH2 0xD8E SWAP2 SWAP1 PUSH2 0x1DAA JUMP JUMPDEST POP POP POP PUSH1 0x1 PUSH1 0x40 MLOAD DUP1 PUSH1 0x80 ADD PUSH1 0x40 MSTORE DUP1 PUSH1 0x40 MLOAD DUP1 PUSH1 0x40 ADD PUSH1 0x40 MSTORE DUP1 PUSH1 0x2 DUP2 MSTORE PUSH1 0x20 ADD PUSH32 0x4331000000000000000000000000000000000000000000000000000000000000 DUP2 MSTORE POP DUP2 MSTORE PUSH1 0x20 ADD PUSH4 0x5F5E100 PUSH1 0xF PUSH2 0xDEA SWAP2 SWAP1 PUSH2 0x1B38 JUMP JUMPDEST DUP2 MSTORE PUSH1 0x20 ADD PUSH1 0x40 MLOAD DUP1 PUSH1 0x40 ADD PUSH1 0x40 MSTORE DUP1 PUSH1 0xB DUP2 MSTORE PUSH1 0x20 ADD PUSH32 0x536E69636B657220426172000000000000000000000000000000000000000000 DUP2 MSTORE POP DUP2 MSTORE PUSH1 0x20 ADD PUSH2 0xE6E PUSH1 0x40 MLOAD DUP1 PUSH1 0x40 ADD PUSH1 0x40 MSTORE DUP1 PUSH1 0xC DUP2 MSTORE PUSH1 0x20 ADD PUSH32 0x736E69636B6572732E706E670000000000000000000000000000000000000000 DUP2 MSTORE POP PUSH2 0x1ABF PUSH1 0x20 SHL PUSH1 0x20 SHR JUMP JUMPDEST DUP2 MSTORE POP SWAP1 DUP1 PUSH1 0x1 DUP2 SLOAD ADD DUP1 DUP3 SSTORE DUP1 SWAP2 POP POP PUSH1 0x1 SWAP1 SUB SWAP1 PUSH0 MSTORE PUSH1 0x20 PUSH0 KECCAK256 SWAP1 PUSH1 0x4 MUL ADD PUSH0 SWAP1 SWAP2 SWAP1 SWAP2 SWAP1 SWAP2 POP PUSH0 DUP3 ADD MLOAD DUP2 PUSH0 ADD SWAP1 DUP2 PUSH2 0xEAA SWAP2 SWAP1 PUSH2 0x1DAA JUMP JUMPDEST POP PUSH1 0x20 DUP3 ADD MLOAD DUP2 PUSH1 0x1 ADD SSTORE PUSH1 0x40 DUP3 ADD MLOAD DUP2 PUSH1 0x2 ADD SWAP1 DUP2 PUSH2 0xECA SWAP2 SWAP1 PUSH2 0x1DAA JUMP JUMPDEST POP PUSH1 0x60 DUP3 ADD MLOAD DUP2 PUSH1 0x3 ADD SWAP1 DUP2 PUSH2 0xEE0 SWAP2 SWAP1 PUSH2 0x1DAA JUMP JUMPDEST POP POP POP PUSH1 0x1 PUSH1 0x40 MLOAD DUP1 PUSH1 0x80 ADD PUSH1 0x40 MSTORE DUP1 PUSH1 0x40 MLOAD DUP1 PUSH1 0x40 ADD PUSH1 0x40 MSTORE DUP1 PUSH1 0x2 DUP2 MSTORE PUSH1 0x20 ADD PUSH32 0x4332000000000000000000000000000000000000000000000000000000000000 DUP2 MSTORE POP DUP2 MSTORE PUSH1 0x20 ADD PUSH4 0x5F5E100 PUSH1 0xF PUSH2 0xF3C SWAP2 SWAP1 PUSH2 0x1B38 JUMP JUMPDEST DUP2 MSTORE PUSH1 0x20 ADD PUSH1 0x40 MLOAD DUP1 PUSH1 0x40 ADD PUSH1 0x40 MSTORE DUP1 PUSH1 0x4 DUP2 MSTORE PUSH1 0x20 ADD PUSH32 0x4D264D7300000000000000000000000000000000000000000000000000000000 DUP2 MSTORE POP DUP2 MSTORE PUSH1 0x20 ADD PUSH2 0xFC0 PUSH1 0x40 MLOAD DUP1 PUSH1 0x40 ADD PUSH1 0x40 MSTORE DUP1 PUSH1 0x8 DUP2 MSTORE PUSH1 0x20 ADD PUSH32 0x6D266D732E706E67000000000000000000000000000000000000000000000000 DUP2 MSTORE POP PUSH2 0x1ABF PUSH1 0x20 SHL PUSH1 0x20 SHR JUMP JUMPDEST DUP2 MSTORE POP SWAP1 DUP1 PUSH1 0x1 DUP2 SLOAD ADD DUP1 DUP3 SSTORE DUP1 SWAP2 POP POP PUSH1 0x1 SWAP1 SUB SWAP1 PUSH0 MSTORE PUSH1 0x20 PUSH0 KECCAK256 SWAP1 PUSH1 0x4 MUL ADD PUSH0 SWAP1 SWAP2 SWAP1 SWAP2 SWAP1 SWAP2 POP PUSH0 DUP3 ADD MLOAD DUP2 PUSH0 ADD SWAP1 DUP2 PUSH2 0xFFC SWAP2 SWAP1 PUSH2 0x1DAA JUMP JUMPDEST POP PUSH1 0x20 DUP3 ADD MLOAD DUP2 PUSH1 0x1 ADD SSTORE PUSH1 0x40 DUP3 ADD MLOAD DUP2 PUSH1 0x2 ADD SWAP1 DUP2 PUSH2 0x101C SWAP2 SWAP1 PUSH2 0x1DAA JUMP JUMPDEST POP PUSH1 0x60 DUP3 ADD MLOAD DUP2 PUSH1 0x3 ADD SWAP1 DUP2 PUSH2 0x1032 SWAP2 SWAP1 PUSH2 0x1DAA JUMP JUMPDEST POP POP POP PUSH1 0x1 PUSH1 0x40 MLOAD DUP1 PUSH1 0x80 ADD PUSH1 0x40 MSTORE DUP1 PUSH1 0x40 MLOAD DUP1 PUSH1 0x40 ADD PUSH1 0x40 MSTORE DUP1 PUSH1 0x2 DUP2 MSTORE PUSH1 0x20 ADD PUSH32 0x4333000000000000000000000000000000000000000000000000000000000000 DUP2 MSTORE POP DUP2 MSTORE PUSH1 0x20 ADD PUSH3 0x989680 PUSH1 0x7D PUSH2 0x108D SWAP2 SWAP1 PUSH2 0x1B38 JUMP JUMPDEST DUP2 MSTORE PUSH1 0x20 ADD PUSH1 0x40 MLOAD DUP1 PUSH1 0x40 ADD PUSH1 0x40 MSTORE DUP1 PUSH1 0xE DUP2 MSTORE PUSH1 0x20 ADD PUSH32 0x427562626C65205461702047756D000000000000000000000000000000000000 DUP2 MSTORE POP DUP2 MSTORE PUSH1 0x20 ADD PUSH2 0x1111 PUSH1 0x40 MLOAD DUP1 PUSH1 0x40 ADD PUSH1 0x40 MSTORE DUP1 PUSH1 0xE DUP2 MSTORE PUSH1 0x20 ADD PUSH32 0x627562626C652D7461702E706E67000000000000000000000000000000000000 DUP2 MSTORE POP PUSH2 0x1ABF PUSH1 0x20 SHL PUSH1 0x20 SHR JUMP JUMPDEST DUP2 MSTORE POP SWAP1 DUP1 PUSH1 0x1 DUP2 SLOAD ADD DUP1 DUP3 SSTORE DUP1 SWAP2 POP POP PUSH1 0x1 SWAP1 SUB SWAP1 PUSH0 MSTORE PUSH1 0x20 PUSH0 KECCAK256 SWAP1 PUSH1 0x4 MUL ADD PUSH0 SWAP1 SWAP2 SWAP1 SWAP2 SWAP1 SWAP2 POP PUSH0 DUP3 ADD MLOAD DUP2 PUSH0 ADD SWAP1 DUP2 PUSH2 0x114D SWAP2 SWAP1 PUSH2 0x1DAA JUMP JUMPDEST POP PUSH1 0x20 DUP3 ADD MLOAD DUP2 PUSH1 0x1 ADD SSTORE PUSH1 0x40 DUP3 ADD MLOAD DUP2 PUSH1 0x2 ADD SWAP1 DUP2 PUSH2 0x116D SWAP2 SWAP1 PUSH2 0x1DAA JUMP JUMPDEST POP PUSH1 0x60 DUP3 ADD MLOAD DUP2 PUSH1 0x3 ADD SWAP1 DUP2 PUSH2 0x1183 SWAP2 SWAP1 PUSH2 0x1DAA JUMP JUMPDEST POP POP POP PUSH1 0x1 PUSH1 0x40 MLOAD DUP1 PUSH1 0x80 ADD PUSH1 0x40 MSTORE DUP1 PUSH1 0x40 MLOAD DUP1 PUSH1 0x40 ADD PUSH1 0x40 MSTORE DUP1 PUSH1 0x2 DUP2 MSTORE PUSH1 0x20 ADD PUSH32 0x4334000000000000000000000000000000000000000000000000000000000000 DUP2 MSTORE POP DUP2 MSTORE PUSH1 0x20 ADD PUSH3 0x989680 PUSH1 0xAF PUSH2 0x11DE SWAP2 SWAP1 PUSH2 0x1B38 JUMP JUMPDEST DUP2 MSTORE PUSH1 0x20 ADD PUSH1 0x40 MLOAD DUP1 PUSH1 0x40 ADD PUSH1 0x40 MSTORE DUP1 PUSH1 0xD DUP2 MSTORE PUSH1 0x20 ADD PUSH32 0x4672756974204E75742042617200000000000000000000000000000000000000 DUP2 MSTORE POP DUP2 MSTORE PUSH1 0x20 ADD PUSH2 0x1262 PUSH1 0x40 MLOAD DUP1 PUSH1 0x40 ADD PUSH1 0x40 MSTORE DUP1 PUSH1 0xD DUP2 MSTORE PUSH1 0x20 ADD PUSH32 0x66727569742D6E75742E706E6700000000000000000000000000000000000000 DUP2 MSTORE POP PUSH2 0x1ABF PUSH1 0x20 SHL PUSH1 0x20 SHR JUMP JUMPDEST DUP2 MSTORE POP SWAP1 DUP1 PUSH1 0x1 DUP2 SLOAD ADD DUP1 DUP3 SSTORE DUP1 SWAP2 POP POP PUSH1 0x1 SWAP1 SUB SWAP1 PUSH0 MSTORE PUSH1 0x20 PUSH0 KECCAK256 SWAP1 PUSH1 0x4 MUL ADD PUSH0 SWAP1 SWAP2 SWAP1 SWAP2 SWAP1 SWAP2 POP PUSH0 DUP3 ADD MLOAD DUP2 PUSH0 ADD SWAP1 DUP2 PUSH2 0x129E SWAP2 SWAP1 PUSH2 0x1DAA JUMP JUMPDEST POP PUSH1 0x20 DUP3 ADD MLOAD DUP2 PUSH1 0x1 ADD SSTORE PUSH1 0x40 DUP3 ADD MLOAD DUP2 PUSH1 0x2 ADD SWAP1 DUP2 PUSH2 0x12BE SWAP2 SWAP1 PUSH2 0x1DAA JUMP JUMPDEST POP PUSH1 0x60 DUP3 ADD MLOAD DUP2 PUSH1 0x3 ADD SWAP1 DUP2 PUSH2 0x12D4 SWAP2 SWAP1 PUSH2 0x1DAA JUMP JUMPDEST POP POP POP PUSH1 0x1 PUSH1 0x40 MLOAD DUP1 PUSH1 0x80 ADD PUSH1 0x40 MSTORE DUP1 PUSH1 0x40 MLOAD DUP1 PUSH1 0x40 ADD PUSH1 0x40 MSTORE DUP1 PUSH1 0x2 DUP2 MSTORE PUSH1 0x20 ADD PUSH32 0x4335000000000000000000000000000000000000000000000000000000000000 DUP2 MSTORE POP DUP2 MSTORE PUSH1 0x20 ADD PUSH3 0x989680 PUSH1 0xAF PUSH2 0x132F SWAP2 SWAP1 PUSH2 0x1B38 JUMP JUMPDEST DUP2 MSTORE PUSH1 0x20 ADD PUSH1 0x40 MLOAD DUP1 PUSH1 0x40 ADD PUSH1 0x40 MSTORE DUP1 PUSH1 0xA DUP2 MSTORE PUSH1 0x20 ADD PUSH32 0x42656566204A65726B7900000000000000000000000000000000000000000000 DUP2 MSTORE POP DUP2 MSTORE PUSH1 0x20 ADD PUSH2 0x13B3 PUSH1 0x40 MLOAD DUP1 PUSH1 0x40 ADD PUSH1 0x40 MSTORE DUP1 PUSH1 0xE DUP2 MSTORE PUSH1 0x20 ADD PUSH32 0x626565662D6A65726B792E706E67000000000000000000000000000000000000 DUP2 MSTORE POP PUSH2 0x1ABF PUSH1 0x20 SHL PUSH1 0x20 SHR JUMP JUMPDEST DUP2 MSTORE POP SWAP1 DUP1 PUSH1 0x1 DUP2 SLOAD ADD DUP1 DUP3 SSTORE DUP1 SWAP2 POP POP PUSH1 0x1 SWAP1 SUB SWAP1 PUSH0 MSTORE PUSH1 0x20 PUSH0 KECCAK256 SWAP1 PUSH1 0x4 MUL ADD PUSH0 SWAP1 SWAP2 SWAP1 SWAP2 SWAP1 SWAP2 POP PUSH0 DUP3 ADD MLOAD DUP2 PUSH0 ADD SWAP1 DUP2 PUSH2 0x13EF SWAP2 SWAP1 PUSH2 0x1DAA JUMP JUMPDEST POP PUSH1 0x20 DUP3 ADD MLOAD DUP2 PUSH1 0x1 ADD SSTORE PUSH1 0x40 DUP3 ADD MLOAD DUP2 PUSH1 0x2 ADD SWAP1 DUP2 PUSH2 0x140F SWAP2 SWAP1 PUSH2 0x1DAA JUMP JUMPDEST POP PUSH1 0x60 DUP3 ADD MLOAD DUP2 PUSH1 0x3 ADD SWAP1 DUP2 PUSH2 0x1425 SWAP2 SWAP1 PUSH2 0x1DAA JUMP JUMPDEST POP POP POP PUSH1 0x1 PUSH1 0x40 MLOAD DUP1 PUSH1 0x80 ADD PUSH1 0x40 MSTORE DUP1 PUSH1 0x40 MLOAD DUP1 PUSH1 0x40 ADD PUSH1 0x40 MSTORE DUP1 PUSH1 0x2 DUP2 MSTORE PUSH1 0x20 ADD PUSH32 0x4431000000000000000000000000000000000000000000000000000000000000 DUP2 MSTORE POP DUP2 MSTORE PUSH1 0x20 ADD PUSH3 0x989680 PUSH1 0x7D PUSH2 0x1480 SWAP2 SWAP1 PUSH2 0x1B38 JUMP JUMPDEST DUP2 MSTORE PUSH1 0x20 ADD PUSH1 0x40 MLOAD DUP1 PUSH1 0x40 ADD PUSH1 0x40 MSTORE DUP1 PUSH1 0xE DUP2 MSTORE PUSH1 0x20 ADD PUSH32 0x4B69744B61742042697363756974000000000000000000000000000000000000 DUP2 MSTORE POP DUP2 MSTORE PUSH1 0x20 ADD PUSH2 0x1504 PUSH1 0x40 MLOAD DUP1 PUSH1 0x40 ADD PUSH1 0x40 MSTORE DUP1 PUSH1 0xA DUP2 MSTORE PUSH1 0x20 ADD PUSH32 0x6B69746B61742E706E6700000000000000000000000000000000000000000000 DUP2 MSTORE POP PUSH2 0x1ABF PUSH1 0x20 SHL PUSH1 0x20 SHR JUMP JUMPDEST DUP2 MSTORE POP SWAP1 DUP1 PUSH1 0x1 DUP2 SLOAD ADD DUP1 DUP3 SSTORE DUP1 SWAP2 POP POP PUSH1 0x1 SWAP1 SUB SWAP1 PUSH0 MSTORE PUSH1 0x20 PUSH0 KECCAK256 SWAP1 PUSH1 0x4 MUL ADD PUSH0 SWAP1 SWAP2 SWAP1 SWAP2 SWAP1 SWAP2 POP PUSH0 DUP3 ADD MLOAD DUP2 PUSH0 ADD SWAP1 DUP2 PUSH2 0x1540 SWAP2 SWAP1 PUSH2 0x1DAA JUMP JUMPDEST POP PUSH1 0x20 DUP3 ADD MLOAD DUP2 PUSH1 0x1 ADD SSTORE PUSH1 0x40 DUP3 ADD MLOAD DUP2 PUSH1 0x2 ADD SWAP1 DUP2 PUSH2 0x1560 SWAP2 SWAP1 PUSH2 0x1DAA JUMP JUMPDEST POP PUSH1 0x60 DUP3 ADD MLOAD DUP2 PUSH1 0x3 ADD SWAP1 DUP2 PUSH2 0x1576 SWAP2 SWAP1 PUSH2 0x1DAA JUMP JUMPDEST POP POP POP PUSH1 0x1 PUSH1 0x40 MLOAD DUP1 PUSH1 0x80 ADD PUSH1 0x40 MSTORE DUP1 PUSH1 0x40 MLOAD DUP1 PUSH1 0x40 ADD PUSH1 0x40 MSTORE DUP1 PUSH1 0x2 DUP2 MSTORE PUSH1 0x20 ADD PUSH32 0x4432000000000000000000000000000000000000000000000000000000000000 DUP2 MSTORE POP DUP2 MSTORE PUSH1 0x20 ADD PUSH3 0x989680 PUSH1 0x7D PUSH2 0x15D1 SWAP2 SWAP1 PUSH2 0x1B38 JUMP JUMPDEST DUP2 MSTORE PUSH1 0x20 ADD PUSH1 0x40 MLOAD DUP1 PUSH1 0x40 ADD PUSH1 0x40 MSTORE DUP1 PUSH1 0x8 DUP2 MSTORE PUSH1 0x20 ADD PUSH32 0x506F7020436F726E000000000000000000000000000000000000000000000000 DUP2 MSTORE POP DUP2 MSTORE PUSH1 0x20 ADD PUSH2 0x1655 PUSH1 0x40 MLOAD DUP1 PUSH1 0x40 ADD PUSH1 0x40 MSTORE DUP1 PUSH1 0xB DUP2 MSTORE PUSH1 0x20 ADD PUSH32 0x706F70636F726E2E706E67000000000000000000000000000000000000000000 DUP2 MSTORE POP PUSH2 0x1ABF PUSH1 0x20 SHL PUSH1 0x20 SHR JUMP JUMPDEST DUP2 MSTORE POP SWAP1 DUP1 PUSH1 0x1 DUP2 SLOAD ADD DUP1 DUP3 SSTORE DUP1 SWAP2 POP POP PUSH1 0x1 SWAP1 SUB SWAP1 PUSH0 MSTORE PUSH1 0x20 PUSH0 KECCAK256 SWAP1 PUSH1 0x4 MUL ADD PUSH0 SWAP1 SWAP2 SWAP1 SWAP2 SWAP1 SWAP2 POP PUSH0 DUP3 ADD MLOAD DUP2 PUSH0 ADD SWAP1 DUP2 PUSH2 0x1691 SWAP2 SWAP1 PUSH2 0x1DAA JUMP JUMPDEST POP PUSH1 0x20 DUP3 ADD MLOAD DUP2 PUSH1 0x1 ADD SSTORE PUSH1 0x40 DUP3 ADD MLOAD DUP2 PUSH1 0x2 ADD SWAP1 DUP2 PUSH2 0x16B1 SWAP2 SWAP1 PUSH2 0x1DAA JUMP JUMPDEST POP PUSH1 0x60 DUP3 ADD MLOAD DUP2 PUSH1 0x3 ADD SWAP1 DUP2 PUSH2 0x16C7 SWAP2 SWAP1 PUSH2 0x1DAA JUMP JUMPDEST POP POP POP PUSH1 0x1 PUSH1 0x40 MLOAD DUP1 PUSH1 0x80 ADD PUSH1 0x40 MSTORE DUP1 PUSH1 0x40 MLOAD DUP1 PUSH1 0x40 ADD PUSH1 0x40 MSTORE DUP1 PUSH1 0x2 DUP2 MSTORE PUSH1 0x20 ADD PUSH32 0x4433000000000000000000000000000000000000000000000000000000000000 DUP2 MSTORE POP DUP2 MSTORE PUSH1 0x20 ADD PUSH3 0x989680 PUSH1 0x96 PUSH2 0x1722 SWAP2 SWAP1 PUSH2 0x1B38 JUMP JUMPDEST DUP2 MSTORE PUSH1 0x20 ADD PUSH1 0x40 MLOAD DUP1 PUSH1 0x40 ADD PUSH1 0x40 MSTORE DUP1 PUSH1 0x8 DUP2 MSTORE PUSH1 0x20 ADD PUSH32 0x5477697820426172000000000000000000000000000000000000000000000000 DUP2 MSTORE POP DUP2 MSTORE PUSH1 0x20 ADD PUSH2 0x17A6 PUSH1 0x40 MLOAD DUP1 PUSH1 0x40 ADD PUSH1 0x40 MSTORE DUP1 PUSH1 0x8 DUP2 MSTORE PUSH1 0x20 ADD PUSH32 0x747769782E706E67000000000000000000000000000000000000000000000000 DUP2 MSTORE POP PUSH2 0x1ABF PUSH1 0x20 SHL PUSH1 0x20 SHR JUMP JUMPDEST DUP2 MSTORE POP SWAP1 DUP1 PUSH1 0x1 DUP2 SLOAD ADD DUP1 DUP3 SSTORE DUP1 SWAP2 POP POP PUSH1 0x1 SWAP1 SUB SWAP1 PUSH0 MSTORE PUSH1 0x20 PUSH0 KECCAK256 SWAP1 PUSH1 0x4 MUL ADD PUSH0 SWAP1 SWAP2 SWAP1 SWAP2 SWAP1 SWAP2 POP PUSH0 DUP3 ADD MLOAD DUP2 PUSH0 ADD SWAP1 DUP2 PUSH2 0x17E2 SWAP2 SWAP1 PUSH2 0x1DAA JUMP JUMPDEST POP PUSH1 0x20 DUP3 ADD MLOAD DUP2 PUSH1 0x1 ADD SSTORE PUSH1 0x40 DUP3 ADD MLOAD DUP2 PUSH1 0x2 ADD SWAP1 DUP2 PUSH2 0x1802 SWAP2 SWAP1 PUSH2 0x1DAA JUMP JUMPDEST POP PUSH1 0x60 DUP3 ADD MLOAD DUP2 PUSH1 0x3 ADD SWAP1 DUP2 PUSH2 0x1818 SWAP2 SWAP1 PUSH2 0x1DAA JUMP JUMPDEST POP POP POP PUSH1 0x1 PUSH1 0x40 MLOAD DUP1 PUSH1 0x80 ADD PUSH1 0x40 MSTORE DUP1 PUSH1 0x40 MLOAD DUP1 PUSH1 0x40 ADD PUSH1 0x40 MSTORE DUP1 PUSH1 0x2 DUP2 MSTORE PUSH1 0x20 ADD PUSH32 0x4434000000000000000000000000000000000000000000000000000000000000 DUP2 MSTORE POP DUP2 MSTORE PUSH1 0x20 ADD PUSH3 0x989680 PUSH1 0x7D PUSH2 0x1873 SWAP2 SWAP1 PUSH2 0x1B38 JUMP JUMPDEST DUP2 MSTORE PUSH1 0x20 ADD PUSH1 0x40 MLOAD DUP1 PUSH1 0x40 ADD PUSH1 0x40 MSTORE DUP1 PUSH1 0x5 DUP2 MSTORE PUSH1 0x20 ADD PUSH32 0x446F6E7574000000000000000000000000000000000000000000000000000000 DUP2 MSTORE POP DUP2 MSTORE PUSH1 0x20 ADD PUSH2 0x18F7 PUSH1 0x40 MLOAD DUP1 PUSH1 0x40 ADD PUSH1 0x40 MSTORE DUP1 PUSH1 0x9 DUP2 MSTORE PUSH1 0x20 ADD PUSH32 0x646F6E75742E706E670000000000000000000000000000000000000000000000 DUP2 MSTORE POP PUSH2 0x1ABF PUSH1 0x20 SHL PUSH1 0x20 SHR JUMP JUMPDEST DUP2 MSTORE POP SWAP1 DUP1 PUSH1 0x1 DUP2 SLOAD ADD DUP1 DUP3 SSTORE DUP1 SWAP2 POP POP PUSH1 0x1 SWAP1 SUB SWAP1 PUSH0 MSTORE PUSH1 0x20 PUSH0 KECCAK256 SWAP1 PUSH1 0x4 MUL ADD PUSH0 SWAP1 SWAP2 SWAP1 SWAP2 SWAP1 SWAP2 POP PUSH0 DUP3 ADD MLOAD DUP2 PUSH0 ADD SWAP1 DUP2 PUSH2 0x1933 SWAP2 SWAP1 PUSH2 0x1DAA JUMP JUMPDEST POP PUSH1 0x20 DUP3 ADD MLOAD DUP2 PUSH1 0x1 ADD SSTORE PUSH1 0x40 DUP3 ADD MLOAD DUP2 PUSH1 0x2 ADD SWAP1 DUP2 PUSH2 0x1953 SWAP2 SWAP1 PUSH2 0x1DAA JUMP JUMPDEST POP PUSH1 0x60 DUP3 ADD MLOAD DUP2 PUSH1 0x3 ADD SWAP1 DUP2 PUSH2 0x1969 SWAP2 SWAP1 PUSH2 0x1DAA JUMP JUMPDEST POP POP POP PUSH1 0x1 PUSH1 0x40 MLOAD DUP1 PUSH1 0x80 ADD PUSH1 0x40 MSTORE DUP1 PUSH1 0x40 MLOAD DUP1 PUSH1 0x40 ADD PUSH1 0x40 MSTORE DUP1 PUSH1 0x2 DUP2 MSTORE PUSH1 0x20 ADD PUSH32 0x4435000000000000000000000000000000000000000000000000000000000000 DUP2 MSTORE POP DUP2 MSTORE PUSH1 0x20 ADD PUSH3 0x989680 PUSH1 0x7D PUSH2 0x19C4 SWAP2 SWAP1 PUSH2 0x1B38 JUMP JUMPDEST DUP2 MSTORE PUSH1 0x20 ADD PUSH1 0x40 MLOAD DUP1 PUSH1 0x40 ADD PUSH1 0x40 MSTORE DUP1 PUSH1 0x9 DUP2 MSTORE PUSH1 0x20 ADD PUSH32 0x526564204170706C650000000000000000000000000000000000000000000000 DUP2 MSTORE POP DUP2 MSTORE PUSH1 0x20 ADD PUSH2 0x1A48 PUSH1 0x40 MLOAD DUP1 PUSH1 0x40 ADD PUSH1 0x40 MSTORE DUP1 PUSH1 0x9 DUP2 MSTORE PUSH1 0x20 ADD PUSH32 0x6170706C652E706E670000000000000000000000000000000000000000000000 DUP2 MSTORE POP PUSH2 0x1ABF PUSH1 0x20 SHL PUSH1 0x20 SHR JUMP JUMPDEST DUP2 MSTORE POP SWAP1 DUP1 PUSH1 0x1 DUP2 SLOAD ADD DUP1 DUP3 SSTORE DUP1 SWAP2 POP POP PUSH1 0x1 SWAP1 SUB SWAP1 PUSH0 MSTORE PUSH1 0x20 PUSH0 KECCAK256 SWAP1 PUSH1 0x4 MUL ADD PUSH0 SWAP1 SWAP2 SWAP1 SWAP2 SWAP1 SWAP2 POP PUSH0 DUP3 ADD MLOAD DUP2 PUSH0 ADD SWAP1 DUP2 PUSH2 0x1A84 SWAP2 SWAP1 PUSH2 0x1DAA JUMP JUMPDEST POP PUSH1 0x20 DUP3 ADD MLOAD DUP2 PUSH1 0x1 ADD SSTORE PUSH1 0x40 DUP3 ADD MLOAD DUP2 PUSH1 0x2 ADD SWAP1 DUP2 PUSH2 0x1AA4 SWAP2 SWAP1 PUSH2 0x1DAA JUMP JUMPDEST POP PUSH1 0x60 DUP3 ADD MLOAD DUP2 PUSH1 0x3 ADD SWAP1 DUP2 PUSH2 0x1ABA SWAP2 SWAP1 PUSH2 0x1DAA JUMP JUMPDEST POP POP POP JUMP JUMPDEST PUSH1 0x60 PUSH1 0x40 MLOAD DUP1 PUSH1 0x60 ADD PUSH1 0x40 MSTORE DUP1 PUSH1 0x2F DUP2 MSTORE PUSH1 0x20 ADD PUSH2 0x470F PUSH1 0x2F SWAP2 CODECOPY DUP3 PUSH1 0x40 MLOAD PUSH1 0x20 ADD PUSH2 0x1AEC SWAP3 SWAP2 SWAP1 PUSH2 0x1EC1 JUMP JUMPDEST PUSH1 0x40 MLOAD PUSH1 0x20 DUP2 DUP4 SUB SUB DUP2 MSTORE SWAP1 PUSH1 0x40 MSTORE SWAP1 POP SWAP2 SWAP1 POP JUMP JUMPDEST PUSH0 DUP2 SWAP1 POP SWAP2 SWAP1 POP JUMP JUMPDEST PUSH32 0x4E487B7100000000000000000000000000000000000000000000000000000000 PUSH0 MSTORE PUSH1 0x11 PUSH1 0x4 MSTORE PUSH1 0x24 PUSH0 REVERT JUMPDEST PUSH0 PUSH2 0x1B42 DUP3 PUSH2 0x1B02 JUMP JUMPDEST SWAP2 POP PUSH2 0x1B4D DUP4 PUSH2 0x1B02 JUMP JUMPDEST SWAP3 POP DUP3 DUP3 MUL PUSH2 0x1B5B DUP2 PUSH2 0x1B02 JUMP JUMPDEST SWAP2 POP DUP3 DUP3 DIV DUP5 EQ DUP4 ISZERO OR PUSH2 0x1B72 JUMPI PUSH2 0x1B71 PUSH2 0x1B0B JUMP JUMPDEST JUMPDEST POP SWAP3 SWAP2 POP POP JUMP JUMPDEST PUSH0 DUP2 MLOAD SWAP1 POP SWAP2 SWAP1 POP JUMP JUMPDEST PUSH32 0x4E487B7100000000000000000000000000000000000000000000000000000000 PUSH0 MSTORE PUSH1 0x41 PUSH1 0x4 MSTORE PUSH1 0x24 PUSH0 REVERT JUMPDEST PUSH32 0x4E487B7100000000000000000000000000000000000000000000000000000000 PUSH0 MSTORE PUSH1 0x22 PUSH1 0x4 MSTORE PUSH1 0x24 PUSH0 REVERT JUMPDEST PUSH0 PUSH1 0x2 DUP3 DIV SWAP1 POP PUSH1 0x1 DUP3 AND DUP1 PUSH2 0x1BF4 JUMPI PUSH1 0x7F DUP3 AND SWAP2 POP JUMPDEST PUSH1 0x20 DUP3 LT DUP2 SUB PUSH2 0x1C07 JUMPI PUSH2 0x1C06 PUSH2 0x1BB0 JUMP JUMPDEST JUMPDEST POP SWAP2 SWAP1 POP JUMP JUMPDEST PUSH0 DUP2 SWAP1 POP DUP2 PUSH0 MSTORE PUSH1 0x20 PUSH0 KECCAK256 SWAP1 POP SWAP2 SWAP1 POP JUMP JUMPDEST PUSH0 PUSH1 0x20 PUSH1 0x1F DUP4 ADD DIV SWAP1 POP SWAP2 SWAP1 POP JUMP JUMPDEST PUSH0 DUP3 DUP3 SHL SWAP1 POP SWAP3 SWAP2 POP POP JUMP JUMPDEST PUSH0 PUSH1 0x8 DUP4 MUL PUSH2 0x1C69 PUSH32 0xFFFFFFFFFFFFFFFFFFFFFFFFFFFFFFFFFFFFFFFFFFFFFFFFFFFFFFFFFFFFFFFF DUP3 PUSH2 0x1C2E JUMP JUMPDEST PUSH2 0x1C73 DUP7 DUP4 PUSH2 0x1C2E JUMP JUMPDEST SWAP6 POP DUP1 NOT DUP5 AND SWAP4 POP DUP1 DUP7 AND DUP5 OR SWAP3 POP POP POP SWAP4 SWAP3 POP POP POP JUMP JUMPDEST PUSH0 DUP2 SWAP1 POP SWAP2 SWAP1 POP JUMP JUMPDEST PUSH0 PUSH2 0x1CAE PUSH2 0x1CA9 PUSH2 0x1CA4 DUP5 PUSH2 0x1B02 JUMP JUMPDEST PUSH2 0x1C8B JUMP JUMPDEST PUSH2 0x1B02 JUMP JUMPDEST SWAP1 POP SWAP2 SWAP1 POP JUMP JUMPDEST PUSH0 DUP2 SWAP1 POP SWAP2 SWAP1 POP JUMP JUMPDEST PUSH2 0x1CC7 DUP4 PUSH2 0x1C94 JUMP JUMPDEST PUSH2 0x1CDB PUSH2 0x1CD3 DUP3 PUSH2 0x1CB5 JUMP JUMPDEST DUP5 DUP5 SLOAD PUSH2 0x1C3A JUMP JUMPDEST DUP3 SSTORE POP POP POP POP JUMP JUMPDEST PUSH0 SWAP1 JUMP JUMPDEST PUSH2 0x1CEF PUSH2 0x1CE3 JUMP JUMPDEST PUSH2 0x1CFA DUP2 DUP5 DUP5 PUSH2 0x1CBE JUMP JUMPDEST POP POP POP JUMP JUMPDEST JUMPDEST DUP2 DUP2 LT ISZERO PUSH2 0x1D1D JUMPI PUSH2 0x1D12 PUSH0 DUP3 PUSH2 0x1CE7 JUMP JUMPDEST PUSH1 0x1 DUP2 ADD SWAP1 POP PUSH2 0x1D00 JUMP JUMPDEST POP POP JUMP JUMPDEST PUSH1 0x1F DUP3 GT ISZERO PUSH2 0x1D62 JUMPI PUSH2 0x1D33 DUP2 PUSH2 0x1C0D JUMP JUMPDEST PUSH2 0x1D3C DUP5 PUSH2 0x1C1F JUMP JUMPDEST DUP2 ADD PUSH1 0x20 DUP6 LT ISZERO PUSH2 0x1D4B JUMPI DUP2 SWAP1 POP JUMPDEST PUSH2 0x1D5F PUSH2 0x1D57 DUP6 PUSH2 0x1C1F JUMP JUMPDEST DUP4 ADD DUP3 PUSH2 0x1CFF JUMP JUMPDEST POP POP JUMPDEST POP POP POP JUMP JUMPDEST PUSH0 DUP3 DUP3 SHR SWAP1 POP SWAP3 SWAP2 POP POP JUMP JUMPDEST PUSH0 PUSH2 0x1D82 PUSH0 NOT DUP5 PUSH1 0x8 MUL PUSH2 0x1D67 JUMP JUMPDEST NOT DUP1 DUP4 AND SWAP2 POP POP SWAP3 SWAP2 POP POP JUMP JUMPDEST PUSH0 PUSH2 0x1D9A DUP4 DUP4 PUSH2 0x1D73 JUMP JUMPDEST SWAP2 POP DUP3 PUSH1 0x2 MUL DUP3 OR SWAP1 POP SWAP3 SWAP2 POP POP JUMP JUMPDEST PUSH2 0x1DB3 DUP3 PUSH2 0x1B79 JUMP JUMPDEST PUSH8 0xFFFFFFFFFFFFFFFF DUP2 GT ISZERO PUSH2 0x1DCC JUMPI PUSH2 0x1DCB PUSH2 0x1B83 JUMP JUMPDEST JUMPDEST PUSH2 0x1DD6 DUP3 SLOAD PUSH2 0x1BDD JUMP JUMPDEST PUSH2 0x1DE1 DUP3 DUP3 DUP6 PUSH2 0x1D21 JUMP JUMPDEST PUSH0 PUSH1 0x20 SWAP1 POP PUSH1 0x1F DUP4 GT PUSH1 0x1 DUP2 EQ PUSH2 0x1E12 JUMPI PUSH0 DUP5 ISZERO PUSH2 0x1E00 JUMPI DUP3 DUP8 ADD MLOAD SWAP1 POP JUMPDEST PUSH2 0x1E0A DUP6 DUP3 PUSH2 0x1D8F JUMP JUMPDEST DUP7 SSTORE POP PUSH2 0x1E71 JUMP JUMPDEST PUSH1 0x1F NOT DUP5 AND PUSH2 0x1E20 DUP7 PUSH2 0x1C0D JUMP JUMPDEST PUSH0 JUMPDEST DUP3 DUP2 LT ISZERO PUSH2 0x1E47 JUMPI DUP5 DUP10 ADD MLOAD DUP3 SSTORE PUSH1 0x1 DUP3 ADD SWAP2 POP PUSH1 0x20 DUP6 ADD SWAP5 POP PUSH1 0x20 DUP2 ADD SWAP1 POP PUSH2 0x1E22 JUMP JUMPDEST DUP7 DUP4 LT ISZERO PUSH2 0x1E64 JUMPI DUP5 DUP10 ADD MLOAD PUSH2 0x1E60 PUSH1 0x1F DUP10 AND DUP3 PUSH2 0x1D73 JUMP JUMPDEST DUP4 SSTORE POP JUMPDEST PUSH1 0x1 PUSH1 0x2 DUP9 MUL ADD DUP9 SSTORE POP POP POP JUMPDEST POP POP POP POP POP POP JUMP JUMPDEST PUSH0 DUP2 SWAP1 POP SWAP3 SWAP2 POP POP JUMP JUMPDEST DUP3 DUP2 DUP4 MCOPY PUSH0 DUP4 DUP4 ADD MSTORE POP POP POP JUMP JUMPDEST PUSH0 PUSH2 0x1E9B DUP3 PUSH2 0x1B79 JUMP JUMPDEST PUSH2 0x1EA5 DUP2 DUP6 PUSH2 0x1E79 JUMP JUMPDEST SWAP4 POP PUSH2 0x1EB5 DUP2 DUP6 PUSH1 0x20 DUP7 ADD PUSH2 0x1E83 JUMP JUMPDEST DUP1 DUP5 ADD SWAP2 POP POP SWAP3 SWAP2 POP POP JUMP JUMPDEST PUSH0 PUSH2 0x1ECC DUP3 DUP6 PUSH2 0x1E91 JUMP JUMPDEST SWAP2 POP PUSH2 0x1ED8 DUP3 DUP5 PUSH2 0x1E91 JUMP JUMPDEST SWAP2 POP DUP2 SWAP1 POP SWAP4 SWAP3 POP POP POP JUMP JUMPDEST PUSH2 0x281E DUP1 PUSH2 0x1EF1 PUSH0 CODECOPY PUSH0 RETURN INVALID PUSH1 0x80 PUSH1 0x40 MSTORE PUSH1 0x4 CALLDATASIZE LT PUSH2 0x85 JUMPI PUSH0 CALLDATALOAD PUSH1 0xE0 SHR DUP1 PUSH4 0x3CCFD60B GT PUSH2 0x58 JUMPI DUP1 PUSH4 0x3CCFD60B EQ PUSH2 0x141 JUMPI DUP1 PUSH4 0x70CD5A80 EQ PUSH2 0x157 JUMPI DUP1 PUSH4 0x94CF2160 EQ PUSH2 0x193 JUMPI DUP1 PUSH4 0xA26759CB EQ PUSH2 0x1CF JUMPI DUP1 PUSH4 0xB04F3225 EQ PUSH2 0x1D9 JUMPI PUSH2 0x85 JUMP JUMPDEST DUP1 PUSH4 0x2EE3A52 EQ PUSH2 0x89 JUMPI DUP1 PUSH4 0x12065FE0 EQ PUSH2 0xB3 JUMPI DUP1 PUSH4 0x121DC3D5 EQ PUSH2 0xDD JUMPI DUP1 PUSH4 0x19F92926 EQ PUSH2 0x119 JUMPI JUMPDEST PUSH0 DUP1 REVERT JUMPDEST CALLVALUE DUP1 ISZERO PUSH2 0x94 JUMPI PUSH0 DUP1 REVERT JUMPDEST POP PUSH2 0x9D PUSH2 0x201 JUMP JUMPDEST PUSH1 0x40 MLOAD PUSH2 0xAA SWAP2 SWAP1 PUSH2 0x1A48 JUMP JUMPDEST PUSH1 0x40 MLOAD DUP1 SWAP2 SUB SWAP1 RETURN JUMPDEST CALLVALUE DUP1 ISZERO PUSH2 0xBE JUMPI PUSH0 DUP1 REVERT JUMPDEST POP PUSH2 0xC7 PUSH2 0x416 JUMP JUMPDEST PUSH1 0x40 MLOAD PUSH2 0xD4 SWAP2 SWAP1 PUSH2 0x1A77 JUMP JUMPDEST PUSH1 0x40 MLOAD DUP1 SWAP2 SUB SWAP1 RETURN JUMPDEST CALLVALUE DUP1 ISZERO PUSH2 0xE8 JUMPI PUSH0 DUP1 REVERT JUMPDEST POP PUSH2 0x103 PUSH1 0x4 DUP1 CALLDATASIZE SUB DUP2 ADD SWAP1 PUSH2 0xFE SWAP2 SWAP1 PUSH2 0x1AFB JUMP JUMPDEST PUSH2 0x45A JUMP JUMPDEST PUSH1 0x40 MLOAD PUSH2 0x110 SWAP2 SWAP1 PUSH2 0x1CC3 JUMP JUMPDEST PUSH1 0x40 MLOAD DUP1 SWAP2 SUB SWAP1 RETURN JUMPDEST CALLVALUE DUP1 ISZERO PUSH2 0x124 JUMPI PUSH0 DUP1 REVERT JUMPDEST POP PUSH2 0x13F PUSH1 0x4 DUP1 CALLDATASIZE SUB DUP2 ADD SWAP1 PUSH2 0x13A SWAP2 SWAP1 PUSH2 0x1E0F JUMP JUMPDEST PUSH2 0x7DC JUMP JUMPDEST STOP JUMPDEST CALLVALUE DUP1 ISZERO PUSH2 0x14C JUMPI PUSH0 DUP1 REVERT JUMPDEST POP PUSH2 0x155 PUSH2 0x9C9 JUMP JUMPDEST STOP JUMPDEST CALLVALUE DUP1 ISZERO PUSH2 0x162 JUMPI PUSH0 DUP1 REVERT JUMPDEST POP PUSH2 0x17D PUSH1 0x4 DUP1 CALLDATASIZE SUB DUP2 ADD SWAP1 PUSH2 0x178 SWAP2 SWAP1 PUSH2 0x1AFB JUMP JUMPDEST PUSH2 0xC49 JUMP JUMPDEST PUSH1 0x40 MLOAD PUSH2 0x18A SWAP2 SWAP1 PUSH2 0x1CC3 JUMP JUMPDEST PUSH1 0x40 MLOAD DUP1 SWAP2 SUB SWAP1 RETURN JUMPDEST CALLVALUE DUP1 ISZERO PUSH2 0x19E JUMPI PUSH0 DUP1 REVERT JUMPDEST POP PUSH2 0x1B9 PUSH1 0x4 DUP1 CALLDATASIZE SUB DUP2 ADD SWAP1 PUSH2 0x1B4 SWAP2 SWAP1 PUSH2 0x1AFB JUMP JUMPDEST PUSH2 0xF6C JUMP JUMPDEST PUSH1 0x40 MLOAD PUSH2 0x1C6 SWAP2 SWAP1 PUSH2 0x1CC3 JUMP JUMPDEST PUSH1 0x40 MLOAD DUP1 SWAP2 SUB SWAP1 RETURN JUMPDEST PUSH2 0x1D7 PUSH2 0x12EE JUMP JUMPDEST STOP JUMPDEST CALLVALUE DUP1 ISZERO PUSH2 0x1E4 JUMPI PUSH0 DUP1 REVERT JUMPDEST POP PUSH2 0x1FF PUSH1 0x4 DUP1 CALLDATASIZE SUB DUP2 ADD SWAP1 PUSH2 0x1FA SWAP2 SWAP1 PUSH2 0x1E80 JUMP JUMPDEST PUSH2 0x1385 JUMP JUMPDEST STOP JUMPDEST PUSH1 0x60 PUSH1 0x1 DUP1 SLOAD DUP1 PUSH1 0x20 MUL PUSH1 0x20 ADD PUSH1 0x40 MLOAD SWAP1 DUP2 ADD PUSH1 0x40 MSTORE DUP1 SWAP3 SWAP2 SWAP1 DUP2 DUP2 MSTORE PUSH1 0x20 ADD PUSH0 SWAP1 JUMPDEST DUP3 DUP3 LT ISZERO PUSH2 0x40D JUMPI DUP4 DUP3 SWAP1 PUSH0 MSTORE PUSH1 0x20 PUSH0 KECCAK256 SWAP1 PUSH1 0x4 MUL ADD PUSH1 0x40 MLOAD DUP1 PUSH1 0x80 ADD PUSH1 0x40 MSTORE SWAP1 DUP2 PUSH0 DUP3 ADD DUP1 SLOAD PUSH2 0x254 SWAP1 PUSH2 0x1ED8 JUMP JUMPDEST DUP1 PUSH1 0x1F ADD PUSH1 0x20 DUP1 SWAP2 DIV MUL PUSH1 0x20 ADD PUSH1 0x40 MLOAD SWAP1 DUP2 ADD PUSH1 0x40 MSTORE DUP1 SWAP3 SWAP2 SWAP1 DUP2 DUP2 MSTORE PUSH1 0x20 ADD DUP3 DUP1 SLOAD PUSH2 0x280 SWAP1 PUSH2 0x1ED8 JUMP JUMPDEST DUP1 ISZERO PUSH2 0x2CB JUMPI DUP1 PUSH1 0x1F LT PUSH2 0x2A2 JUMPI PUSH2 0x100 DUP1 DUP4 SLOAD DIV MUL DUP4 MSTORE SWAP2 PUSH1 0x20 ADD SWAP2 PUSH2 0x2CB JUMP JUMPDEST DUP3 ADD SWAP2 SWAP1 PUSH0 MSTORE PUSH1 0x20 PUSH0 KECCAK256 SWAP1 JUMPDEST DUP2 SLOAD DUP2 MSTORE SWAP1 PUSH1 0x1 ADD SWAP1 PUSH1 0x20 ADD DUP1 DUP4 GT PUSH2 0x2AE JUMPI DUP3 SWAP1 SUB PUSH1 0x1F AND DUP3 ADD SWAP2 JUMPDEST POP POP POP POP POP DUP2 MSTORE PUSH1 0x20 ADD PUSH1 0x1 DUP3 ADD SLOAD DUP2 MSTORE PUSH1 0x20 ADD PUSH1 0x2 DUP3 ADD DUP1 SLOAD PUSH2 0x2EE SWAP1 PUSH2 0x1ED8 JUMP JUMPDEST DUP1 PUSH1 0x1F ADD PUSH1 0x20 DUP1 SWAP2 DIV MUL PUSH1 0x20 ADD PUSH1 0x40 MLOAD SWAP1 DUP2 ADD PUSH1 0x40 MSTORE DUP1 SWAP3 SWAP2 SWAP1 DUP2 DUP2 MSTORE PUSH1 0x20 ADD DUP3 DUP1 SLOAD PUSH2 0x31A SWAP1 PUSH2 0x1ED8 JUMP JUMPDEST DUP1 ISZERO PUSH2 0x365 JUMPI DUP1 PUSH1 0x1F LT PUSH2 0x33C JUMPI PUSH2 0x100 DUP1 DUP4 SLOAD DIV MUL DUP4 MSTORE SWAP2 PUSH1 0x20 ADD SWAP2 PUSH2 0x365 JUMP JUMPDEST DUP3 ADD SWAP2 SWAP1 PUSH0 MSTORE PUSH1 0x20 PUSH0 KECCAK256 SWAP1 JUMPDEST DUP2 SLOAD DUP2 MSTORE SWAP1 PUSH1 0x1 ADD SWAP1 PUSH1 0x20 ADD DUP1 DUP4 GT PUSH2 0x348 JUMPI DUP3 SWAP1 SUB PUSH1 0x1F AND DUP3 ADD SWAP2 JUMPDEST POP POP POP POP POP DUP2 MSTORE PUSH1 0x20 ADD PUSH1 0x3 DUP3 ADD DUP1 SLOAD PUSH2 0x37E SWAP1 PUSH2 0x1ED8 JUMP JUMPDEST DUP1 PUSH1 0x1F ADD PUSH1 0x20 DUP1 SWAP2 DIV MUL PUSH1 0x20 ADD PUSH1 0x40 MLOAD SWAP1 DUP2 ADD PUSH1 0x40 MSTORE DUP1 SWAP3 SWAP2 SWAP1 DUP2 DUP2 MSTORE PUSH1 0x20 ADD DUP3 DUP1 SLOAD PUSH2 0x3AA SWAP1 PUSH2 0x1ED8 JUMP JUMPDEST DUP1 ISZERO PUSH2 0x3F5 JUMPI DUP1 PUSH1 0x1F LT PUSH2 0x3CC JUMPI PUSH2 0x100 DUP1 DUP4 SLOAD DIV MUL DUP4 MSTORE SWAP2 PUSH1 0x20 ADD SWAP2 PUSH2 0x3F5 JUMP JUMPDEST DUP3 ADD SWAP2 SWAP1 PUSH0 MSTORE PUSH1 0x20 PUSH0 KECCAK256 SWAP1 JUMPDEST DUP2 SLOAD DUP2 MSTORE SWAP1 PUSH1 0x1 ADD SWAP1 PUSH1 0x20 ADD DUP1 DUP4 GT PUSH2 0x3D8 JUMPI DUP3 SWAP1 SUB PUSH1 0x1F AND DUP3 ADD SWAP2 JUMPDEST POP POP POP POP POP DUP2 MSTORE POP POP DUP2 MSTORE PUSH1 0x20 ADD SWAP1 PUSH1 0x1 ADD SWAP1 PUSH2 0x224 JUMP JUMPDEST POP POP POP POP SWAP1 POP SWAP1 JUMP JUMPDEST PUSH0 PUSH1 0x2 PUSH0 CALLER PUSH20 0xFFFFFFFFFFFFFFFFFFFFFFFFFFFFFFFFFFFFFFFF AND PUSH20 0xFFFFFFFFFFFFFFFFFFFFFFFFFFFFFFFFFFFFFFFF AND DUP2 MSTORE PUSH1 0x20 ADD SWAP1 DUP2 MSTORE PUSH1 0x20 ADD PUSH0 KECCAK256 SLOAD SWAP1 POP SWAP1 JUMP JUMPDEST PUSH1 0x60 PUSH0 PUSH1 0x3 DUP1 SLOAD SWAP1 POP PUSH8 0xFFFFFFFFFFFFFFFF DUP2 GT ISZERO PUSH2 0x47C JUMPI PUSH2 0x47B PUSH2 0x1CEB JUMP JUMPDEST JUMPDEST PUSH1 0x40 MLOAD SWAP1 DUP1 DUP3 MSTORE DUP1 PUSH1 0x20 MUL PUSH1 0x20 ADD DUP3 ADD PUSH1 0x40 MSTORE DUP1 ISZERO PUSH2 0x4B5 JUMPI DUP2 PUSH1 0x20 ADD JUMPDEST PUSH2 0x4A2 PUSH2 0x1823 JUMP JUMPDEST DUP2 MSTORE PUSH1 0x20 ADD SWAP1 PUSH1 0x1 SWAP1 SUB SWAP1 DUP2 PUSH2 0x49A JUMPI SWAP1 POP JUMPDEST POP SWAP1 POP PUSH0 DUP1 JUMPDEST PUSH1 0x3 DUP1 SLOAD SWAP1 POP DUP2 LT ISZERO PUSH2 0x728 JUMPI DUP5 PUSH20 0xFFFFFFFFFFFFFFFFFFFFFFFFFFFFFFFFFFFFFFFF AND PUSH1 0x3 DUP3 DUP2 SLOAD DUP2 LT PUSH2 0x4F3 JUMPI PUSH2 0x4F2 PUSH2 0x1F08 JUMP JUMPDEST JUMPDEST SWAP1 PUSH0 MSTORE PUSH1 0x20 PUSH0 KECCAK256 SWAP1 PUSH1 0x4 MUL ADD PUSH0 ADD PUSH0 SWAP1 SLOAD SWAP1 PUSH2 0x100 EXP SWAP1 DIV PUSH20 0xFFFFFFFFFFFFFFFFFFFFFFFFFFFFFFFFFFFFFFFF AND PUSH20 0xFFFFFFFFFFFFFFFFFFFFFFFFFFFFFFFFFFFFFFFF AND EQ DUP1 ISZERO PUSH2 0x596 JUMPI POP PUSH0 PUSH1 0x1 DUP2 GT ISZERO PUSH2 0x552 JUMPI PUSH2 0x551 PUSH2 0x1B5E JUMP JUMPDEST JUMPDEST PUSH1 0x3 DUP3 DUP2 SLOAD DUP2 LT PUSH2 0x566 JUMPI PUSH2 0x565 PUSH2 0x1F08 JUMP JUMPDEST JUMPDEST SWAP1 PUSH0 MSTORE PUSH1 0x20 PUSH0 KECCAK256 SWAP1 PUSH1 0x4 MUL ADD PUSH1 0x3 ADD PUSH0 SWAP1 SLOAD SWAP1 PUSH2 0x100 EXP SWAP1 DIV PUSH1 0xFF AND PUSH1 0x1 DUP2 GT ISZERO PUSH2 0x594 JUMPI PUSH2 0x593 PUSH2 0x1B5E JUMP JUMPDEST JUMPDEST EQ JUMPDEST ISZERO PUSH2 0x71B JUMPI PUSH1 0x3 DUP2 DUP2 SLOAD DUP2 LT PUSH2 0x5AF JUMPI PUSH2 0x5AE PUSH2 0x1F08 JUMP JUMPDEST JUMPDEST SWAP1 PUSH0 MSTORE PUSH1 0x20 PUSH0 KECCAK256 SWAP1 PUSH1 0x4 MUL ADD PUSH1 0x40 MLOAD DUP1 PUSH1 0x80 ADD PUSH1 0x40 MSTORE SWAP1 DUP2 PUSH0 DUP3 ADD PUSH0 SWAP1 SLOAD SWAP1 PUSH2 0x100 EXP SWAP1 DIV PUSH20 0xFFFFFFFFFFFFFFFFFFFFFFFFFFFFFFFFFFFFFFFF AND PUSH20 0xFFFFFFFFFFFFFFFFFFFFFFFFFFFFFFFFFFFFFFFF AND PUSH20 0xFFFFFFFFFFFFFFFFFFFFFFFFFFFFFFFFFFFFFFFF AND DUP2 MSTORE PUSH1 0x20 ADD PUSH1 0x1 DUP3 ADD DUP1 SLOAD PUSH2 0x62A SWAP1 PUSH2 0x1ED8 JUMP JUMPDEST DUP1 PUSH1 0x1F ADD PUSH1 0x20 DUP1 SWAP2 DIV MUL PUSH1 0x20 ADD PUSH1 0x40 MLOAD SWAP1 DUP2 ADD PUSH1 0x40 MSTORE DUP1 SWAP3 SWAP2 SWAP1 DUP2 DUP2 MSTORE PUSH1 0x20 ADD DUP3 DUP1 SLOAD PUSH2 0x656 SWAP1 PUSH2 0x1ED8 JUMP JUMPDEST DUP1 ISZERO PUSH2 0x6A1 JUMPI DUP1 PUSH1 0x1F LT PUSH2 0x678 JUMPI PUSH2 0x100 DUP1 DUP4 SLOAD DIV MUL DUP4 MSTORE SWAP2 PUSH1 0x20 ADD SWAP2 PUSH2 0x6A1 JUMP JUMPDEST DUP3 ADD SWAP2 SWAP1 PUSH0 MSTORE PUSH1 0x20 PUSH0 KECCAK256 SWAP1 JUMPDEST DUP2 SLOAD DUP2 MSTORE SWAP1 PUSH1 0x1 ADD SWAP1 PUSH1 0x20 ADD DUP1 DUP4 GT PUSH2 0x684 JUMPI DUP3 SWAP1 SUB PUSH1 0x1F AND DUP3 ADD SWAP2 JUMPDEST POP POP POP POP POP DUP2 MSTORE PUSH1 0x20 ADD PUSH1 0x2 DUP3 ADD SLOAD DUP2 MSTORE PUSH1 0x20 ADD PUSH1 0x3 DUP3 ADD PUSH0 SWAP1 SLOAD SWAP1 PUSH2 0x100 EXP SWAP1 DIV PUSH1 0xFF AND PUSH1 0x1 DUP2 GT ISZERO PUSH2 0x6D8 JUMPI PUSH2 0x6D7 PUSH2 0x1B5E JUMP JUMPDEST JUMPDEST PUSH1 0x1 DUP2 GT ISZERO PUSH2 0x6EA JUMPI PUSH2 0x6E9 PUSH2 0x1B5E JUMP JUMPDEST JUMPDEST DUP2 MSTORE POP POP DUP4 DUP4 DUP2 MLOAD DUP2 LT PUSH2 0x701 JUMPI PUSH2 0x700 PUSH2 0x1F08 JUMP JUMPDEST JUMPDEST PUSH1 0x20 MUL PUSH1 0x20 ADD ADD DUP2 SWAP1 MSTORE POP DUP2 DUP1 PUSH2 0x717 SWAP1 PUSH2 0x1F62 JUMP JUMPDEST SWAP3 POP POP JUMPDEST DUP1 DUP1 PUSH1 0x1 ADD SWAP2 POP POP PUSH2 0x4BB JUMP JUMPDEST POP PUSH0 DUP2 PUSH8 0xFFFFFFFFFFFFFFFF DUP2 GT ISZERO PUSH2 0x744 JUMPI PUSH2 0x743 PUSH2 0x1CEB JUMP JUMPDEST JUMPDEST PUSH1 0x40 MLOAD SWAP1 DUP1 DUP3 MSTORE DUP1 PUSH1 0x20 MUL PUSH1 0x20 ADD DUP3 ADD PUSH1 0x40 MSTORE DUP1 ISZERO PUSH2 0x77D JUMPI DUP2 PUSH1 0x20 ADD JUMPDEST PUSH2 0x76A PUSH2 0x1823 JUMP JUMPDEST DUP2 MSTORE PUSH1 0x20 ADD SWAP1 PUSH1 0x1 SWAP1 SUB SWAP1 DUP2 PUSH2 0x762 JUMPI SWAP1 POP JUMPDEST POP SWAP1 POP PUSH0 JUMPDEST DUP3 DUP2 LT ISZERO PUSH2 0x7D0 JUMPI DUP4 DUP2 DUP2 MLOAD DUP2 LT PUSH2 0x79D JUMPI PUSH2 0x79C PUSH2 0x1F08 JUMP JUMPDEST JUMPDEST PUSH1 0x20 MUL PUSH1 0x20 ADD ADD MLOAD DUP3 DUP3 DUP2 MLOAD DUP2 LT PUSH2 0x7B8 JUMPI PUSH2 0x7B7 PUSH2 0x1F08 JUMP JUMPDEST JUMPDEST PUSH1 0x20 MUL PUSH1 0x20 ADD ADD DUP2 SWAP1 MSTORE POP DUP1 DUP1 PUSH1 0x1 ADD SWAP2 POP POP PUSH2 0x782 JUMP JUMPDEST POP DUP1 SWAP4 POP POP POP POP SWAP2 SWAP1 POP JUMP JUMPDEST PUSH0 PUSH2 0x7E6 DUP3 PUSH2 0x155E JUMP JUMPDEST PUSH1 0x20 ADD MLOAD SWAP1 POP DUP1 PUSH1 0x2 PUSH0 CALLER PUSH20 0xFFFFFFFFFFFFFFFFFFFFFFFFFFFFFFFFFFFFFFFF AND PUSH20 0xFFFFFFFFFFFFFFFFFFFFFFFFFFFFFFFFFFFFFFFF AND DUP2 MSTORE PUSH1 0x20 ADD SWAP1 DUP2 MSTORE PUSH1 0x20 ADD PUSH0 KECCAK256 SLOAD LT ISZERO PUSH2 0x86C JUMPI PUSH1 0x40 MLOAD PUSH32 0x8C379A000000000000000000000000000000000000000000000000000000000 DUP2 MSTORE PUSH1 0x4 ADD PUSH2 0x863 SWAP1 PUSH2 0x2003 JUMP JUMPDEST PUSH1 0x40 MLOAD DUP1 SWAP2 SUB SWAP1 REVERT JUMPDEST DUP1 PUSH1 0x2 PUSH0 CALLER PUSH20 0xFFFFFFFFFFFFFFFFFFFFFFFFFFFFFFFFFFFFFFFF AND PUSH20 0xFFFFFFFFFFFFFFFFFFFFFFFFFFFFFFFFFFFFFFFF AND DUP2 MSTORE PUSH1 0x20 ADD SWAP1 DUP2 MSTORE PUSH1 0x20 ADD PUSH0 KECCAK256 PUSH0 DUP3 DUP3 SLOAD PUSH2 0x8B8 SWAP2 SWAP1 PUSH2 0x2021 JUMP JUMPDEST SWAP3 POP POP DUP2 SWAP1 SSTORE POP PUSH1 0x3 PUSH1 0x40 MLOAD DUP1 PUSH1 0x80 ADD PUSH1 0x40 MSTORE DUP1 CALLER PUSH20 0xFFFFFFFFFFFFFFFFFFFFFFFFFFFFFFFFFFFFFFFF AND DUP2 MSTORE PUSH1 0x20 ADD DUP5 DUP2 MSTORE PUSH1 0x20 ADD TIMESTAMP DUP2 MSTORE PUSH1 0x20 ADD PUSH0 PUSH1 0x1 DUP2 GT ISZERO PUSH2 0x907 JUMPI PUSH2 0x906 PUSH2 0x1B5E JUMP JUMPDEST JUMPDEST DUP2 MSTORE POP SWAP1 DUP1 PUSH1 0x1 DUP2 SLOAD ADD DUP1 DUP3 SSTORE DUP1 SWAP2 POP POP PUSH1 0x1 SWAP1 SUB SWAP1 PUSH0 MSTORE PUSH1 0x20 PUSH0 KECCAK256 SWAP1 PUSH1 0x4 MUL ADD PUSH0 SWAP1 SWAP2 SWAP1 SWAP2 SWAP1 SWAP2 POP PUSH0 DUP3 ADD MLOAD DUP2 PUSH0 ADD PUSH0 PUSH2 0x100 EXP DUP2 SLOAD DUP2 PUSH20 0xFFFFFFFFFFFFFFFFFFFFFFFFFFFFFFFFFFFFFFFF MUL NOT AND SWAP1 DUP4 PUSH20 0xFFFFFFFFFFFFFFFFFFFFFFFFFFFFFFFFFFFFFFFF AND MUL OR SWAP1 SSTORE POP PUSH1 0x20 DUP3 ADD MLOAD DUP2 PUSH1 0x1 ADD SWAP1 DUP2 PUSH2 0x989 SWAP2 SWAP1 PUSH2 0x21F1 JUMP JUMPDEST POP PUSH1 0x40 DUP3 ADD MLOAD DUP2 PUSH1 0x2 ADD SSTORE PUSH1 0x60 DUP3 ADD MLOAD DUP2 PUSH1 0x3 ADD PUSH0 PUSH2 0x100 EXP DUP2 SLOAD DUP2 PUSH1 0xFF MUL NOT AND SWAP1 DUP4 PUSH1 0x1 DUP2 GT ISZERO PUSH2 0x9BE JUMPI PUSH2 0x9BD PUSH2 0x1B5E JUMP JUMPDEST JUMPDEST MUL OR SWAP1 SSTORE POP POP POP POP POP JUMP JUMPDEST PUSH0 DUP1 SLOAD SWAP1 PUSH2 0x100 EXP SWAP1 DIV PUSH20 0xFFFFFFFFFFFFFFFFFFFFFFFFFFFFFFFFFFFFFFFF AND PUSH20 0xFFFFFFFFFFFFFFFFFFFFFFFFFFFFFFFFFFFFFFFF AND CALLER PUSH20 0xFFFFFFFFFFFFFFFFFFFFFFFFFFFFFFFFFFFFFFFF AND EQ PUSH2 0xA56 JUMPI PUSH1 0x40 MLOAD PUSH32 0x8C379A000000000000000000000000000000000000000000000000000000000 DUP2 MSTORE PUSH1 0x4 ADD PUSH2 0xA4D SWAP1 PUSH2 0x2330 JUMP JUMPDEST PUSH1 0x40 MLOAD DUP1 SWAP2 SUB SWAP1 REVERT JUMPDEST PUSH0 PUSH1 0x14 SWAP1 SLOAD SWAP1 PUSH2 0x100 EXP SWAP1 DIV PUSH1 0xFF AND ISZERO PUSH2 0xAA5 JUMPI PUSH1 0x40 MLOAD PUSH32 0x8C379A000000000000000000000000000000000000000000000000000000000 DUP2 MSTORE PUSH1 0x4 ADD PUSH2 0xA9C SWAP1 PUSH2 0x2398 JUMP JUMPDEST PUSH1 0x40 MLOAD DUP1 SWAP2 SUB SWAP1 REVERT JUMPDEST PUSH1 0x1 PUSH0 PUSH1 0x14 PUSH2 0x100 EXP DUP2 SLOAD DUP2 PUSH1 0xFF MUL NOT AND SWAP1 DUP4 ISZERO ISZERO MUL OR SWAP1 SSTORE POP PUSH0 PUSH1 0x2 PUSH0 CALLER PUSH20 0xFFFFFFFFFFFFFFFFFFFFFFFFFFFFFFFFFFFFFFFF AND PUSH20 0xFFFFFFFFFFFFFFFFFFFFFFFFFFFFFFFFFFFFFFFF AND DUP2 MSTORE PUSH1 0x20 ADD SWAP1 DUP2 MSTORE PUSH1 0x20 ADD PUSH0 KECCAK256 SLOAD SWAP1 POP PUSH0 DUP2 GT PUSH2 0xB42 JUMPI PUSH1 0x40 MLOAD PUSH32 0x8C379A000000000000000000000000000000000000000000000000000000000 DUP2 MSTORE PUSH1 0x4 ADD PUSH2 0xB39 SWAP1 PUSH2 0x2400 JUMP JUMPDEST PUSH1 0x40 MLOAD DUP1 SWAP2 SUB SWAP1 REVERT JUMPDEST PUSH0 PUSH1 0x2 PUSH0 CALLER PUSH20 0xFFFFFFFFFFFFFFFFFFFFFFFFFFFFFFFFFFFFFFFF AND PUSH20 0xFFFFFFFFFFFFFFFFFFFFFFFFFFFFFFFFFFFFFFFF AND DUP2 MSTORE PUSH1 0x20 ADD SWAP1 DUP2 MSTORE PUSH1 0x20 ADD PUSH0 KECCAK256 DUP2 SWAP1 SSTORE POP PUSH0 CALLER PUSH20 0xFFFFFFFFFFFFFFFFFFFFFFFFFFFFFFFFFFFFFFFF AND DUP3 PUSH1 0x40 MLOAD PUSH2 0xBA9 SWAP1 PUSH2 0x244B JUMP JUMPDEST PUSH0 PUSH1 0x40 MLOAD DUP1 DUP4 SUB DUP2 DUP6 DUP8 GAS CALL SWAP3 POP POP POP RETURNDATASIZE DUP1 PUSH0 DUP2 EQ PUSH2 0xBE3 JUMPI PUSH1 0x40 MLOAD SWAP2 POP PUSH1 0x1F NOT PUSH1 0x3F RETURNDATASIZE ADD AND DUP3 ADD PUSH1 0x40 MSTORE RETURNDATASIZE DUP3 MSTORE RETURNDATASIZE PUSH0 PUSH1 0x20 DUP5 ADD RETURNDATACOPY PUSH2 0xBE8 JUMP JUMPDEST PUSH1 0x60 SWAP2 POP JUMPDEST POP POP SWAP1 POP DUP1 PUSH2 0xC2C JUMPI PUSH1 0x40 MLOAD PUSH32 0x8C379A000000000000000000000000000000000000000000000000000000000 DUP2 MSTORE PUSH1 0x4 ADD PUSH2 0xC23 SWAP1 PUSH2 0x24A9 JUMP JUMPDEST PUSH1 0x40 MLOAD DUP1 SWAP2 SUB SWAP1 REVERT JUMPDEST POP POP PUSH0 DUP1 PUSH1 0x14 PUSH2 0x100 EXP DUP2 SLOAD DUP2 PUSH1 0xFF MUL NOT AND SWAP1 DUP4 ISZERO ISZERO MUL OR SWAP1 SSTORE POP JUMP JUMPDEST PUSH1 0x60 PUSH0 PUSH1 0x3 DUP1 SLOAD SWAP1 POP PUSH8 0xFFFFFFFFFFFFFFFF DUP2 GT ISZERO PUSH2 0xC6B JUMPI PUSH2 0xC6A PUSH2 0x1CEB JUMP JUMPDEST JUMPDEST PUSH1 0x40 MLOAD SWAP1 DUP1 DUP3 MSTORE DUP1 PUSH1 0x20 MUL PUSH1 0x20 ADD DUP3 ADD PUSH1 0x40 MSTORE DUP1 ISZERO PUSH2 0xCA4 JUMPI DUP2 PUSH1 0x20 ADD JUMPDEST PUSH2 0xC91 PUSH2 0x1823 JUMP JUMPDEST DUP2 MSTORE PUSH1 0x20 ADD SWAP1 PUSH1 0x1 SWAP1 SUB SWAP1 DUP2 PUSH2 0xC89 JUMPI SWAP1 POP JUMPDEST POP SWAP1 POP PUSH0 DUP1 JUMPDEST PUSH1 0x3 DUP1 SLOAD SWAP1 POP DUP2 LT ISZERO PUSH2 0xEB8 JUMPI DUP5 PUSH20 0xFFFFFFFFFFFFFFFFFFFFFFFFFFFFFFFFFFFFFFFF AND PUSH1 0x3 DUP3 DUP2 SLOAD DUP2 LT PUSH2 0xCE2 JUMPI PUSH2 0xCE1 PUSH2 0x1F08 JUMP JUMPDEST JUMPDEST SWAP1 PUSH0 MSTORE PUSH1 0x20 PUSH0 KECCAK256 SWAP1 PUSH1 0x4 MUL ADD PUSH0 ADD PUSH0 SWAP1 SLOAD SWAP1 PUSH2 0x100 EXP SWAP1 DIV PUSH20 0xFFFFFFFFFFFFFFFFFFFFFFFFFFFFFFFFFFFFFFFF AND PUSH20 0xFFFFFFFFFFFFFFFFFFFFFFFFFFFFFFFFFFFFFFFF AND SUB PUSH2 0xEAB JUMPI PUSH1 0x3 DUP2 DUP2 SLOAD DUP2 LT PUSH2 0xD3F JUMPI PUSH2 0xD3E PUSH2 0x1F08 JUMP JUMPDEST JUMPDEST SWAP1 PUSH0 MSTORE PUSH1 0x20 PUSH0 KECCAK256 SWAP1 PUSH1 0x4 MUL ADD PUSH1 0x40 MLOAD DUP1 PUSH1 0x80 ADD PUSH1 0x40 MSTORE SWAP1 DUP2 PUSH0 DUP3 ADD PUSH0 SWAP1 SLOAD SWAP1 PUSH2 0x100 EXP SWAP1 DIV PUSH20 0xFFFFFFFFFFFFFFFFFFFFFFFFFFFFFFFFFFFFFFFF AND PUSH20 0xFFFFFFFFFFFFFFFFFFFFFFFFFFFFFFFFFFFFFFFF AND PUSH20 0xFFFFFFFFFFFFFFFFFFFFFFFFFFFFFFFFFFFFFFFF AND DUP2 MSTORE PUSH1 0x20 ADD PUSH1 0x1 DUP3 ADD DUP1 SLOAD PUSH2 0xDBA SWAP1 PUSH2 0x1ED8 JUMP JUMPDEST DUP1 PUSH1 0x1F ADD PUSH1 0x20 DUP1 SWAP2 DIV MUL PUSH1 0x20 ADD PUSH1 0x40 MLOAD SWAP1 DUP2 ADD PUSH1 0x40 MSTORE DUP1 SWAP3 SWAP2 SWAP1 DUP2 DUP2 MSTORE PUSH1 0x20 ADD DUP3 DUP1 SLOAD PUSH2 0xDE6 SWAP1 PUSH2 0x1ED8 JUMP JUMPDEST DUP1 ISZERO PUSH2 0xE31 JUMPI DUP1 PUSH1 0x1F LT PUSH2 0xE08 JUMPI PUSH2 0x100 DUP1 DUP4 SLOAD DIV MUL DUP4 MSTORE SWAP2 PUSH1 0x20 ADD SWAP2 PUSH2 0xE31 JUMP JUMPDEST DUP3 ADD SWAP2 SWAP1 PUSH0 MSTORE PUSH1 0x20 PUSH0 KECCAK256 SWAP1 JUMPDEST DUP2 SLOAD DUP2 MSTORE SWAP1 PUSH1 0x1 ADD SWAP1 PUSH1 0x20 ADD DUP1 DUP4 GT PUSH2 0xE14 JUMPI DUP3 SWAP1 SUB PUSH1 0x1F AND DUP3 ADD SWAP2 JUMPDEST POP POP POP POP POP DUP2 MSTORE PUSH1 0x20 ADD PUSH1 0x2 DUP3 ADD SLOAD DUP2 MSTORE PUSH1 0x20 ADD PUSH1 0x3 DUP3 ADD PUSH0 SWAP1 SLOAD SWAP1 PUSH2 0x100 EXP SWAP1 DIV PUSH1 0xFF AND PUSH1 0x1 DUP2 GT ISZERO PUSH2 0xE68 JUMPI PUSH2 0xE67 PUSH2 0x1B5E JUMP JUMPDEST JUMPDEST PUSH1 0x1 DUP2 GT ISZERO PUSH2 0xE7A JUMPI PUSH2 0xE79 PUSH2 0x1B5E JUMP JUMPDEST JUMPDEST DUP2 MSTORE POP POP DUP4 DUP4 DUP2 MLOAD DUP2 LT PUSH2 0xE91 JUMPI PUSH2 0xE90 PUSH2 0x1F08 JUMP JUMPDEST JUMPDEST PUSH1 0x20 MUL PUSH1 0x20 ADD ADD DUP2 SWAP1 MSTORE POP DUP2 DUP1 PUSH2 0xEA7 SWAP1 PUSH2 0x1F62 JUMP JUMPDEST SWAP3 POP POP JUMPDEST DUP1 DUP1 PUSH1 0x1 ADD SWAP2 POP POP PUSH2 0xCAA JUMP JUMPDEST POP PUSH0 DUP2 PUSH8 0xFFFFFFFFFFFFFFFF DUP2 GT ISZERO PUSH2 0xED4 JUMPI PUSH2 0xED3 PUSH2 0x1CEB JUMP JUMPDEST JUMPDEST PUSH1 0x40 MLOAD SWAP1 DUP1 DUP3 MSTORE DUP1 PUSH1 0x20 MUL PUSH1 0x20 ADD DUP3 ADD PUSH1 0x40 MSTORE DUP1 ISZERO PUSH2 0xF0D JUMPI DUP2 PUSH1 0x20 ADD JUMPDEST PUSH2 0xEFA PUSH2 0x1823 JUMP JUMPDEST DUP2 MSTORE PUSH1 0x20 ADD SWAP1 PUSH1 0x1 SWAP1 SUB SWAP1 DUP2 PUSH2 0xEF2 JUMPI SWAP1 POP JUMPDEST POP SWAP1 POP PUSH0 JUMPDEST DUP3 DUP2 LT ISZERO PUSH2 0xF60 JUMPI DUP4 DUP2 DUP2 MLOAD DUP2 LT PUSH2 0xF2D JUMPI PUSH2 0xF2C PUSH2 0x1F08 JUMP JUMPDEST JUMPDEST PUSH1 0x20 MUL PUSH1 0x20 ADD ADD MLOAD DUP3 DUP3 DUP2 MLOAD DUP2 LT PUSH2 0xF48 JUMPI PUSH2 0xF47 PUSH2 0x1F08 JUMP JUMPDEST JUMPDEST PUSH1 0x20 MUL PUSH1 0x20 ADD ADD DUP2 SWAP1 MSTORE POP DUP1 DUP1 PUSH1 0x1 ADD SWAP2 POP POP PUSH2 0xF12 JUMP JUMPDEST POP DUP1 SWAP4 POP POP POP POP SWAP2 SWAP1 POP JUMP JUMPDEST PUSH1 0x60 PUSH0 PUSH1 0x3 DUP1 SLOAD SWAP1 POP PUSH8 0xFFFFFFFFFFFFFFFF DUP2 GT ISZERO PUSH2 0xF8E JUMPI PUSH2 0xF8D PUSH2 0x1CEB JUMP JUMPDEST JUMPDEST PUSH1 0x40 MLOAD SWAP1 DUP1 DUP3 MSTORE DUP1 PUSH1 0x20 MUL PUSH1 0x20 ADD DUP3 ADD PUSH1 0x40 MSTORE DUP1 ISZERO PUSH2 0xFC7 JUMPI DUP2 PUSH1 0x20 ADD JUMPDEST PUSH2 0xFB4 PUSH2 0x1823 JUMP JUMPDEST DUP2 MSTORE PUSH1 0x20 ADD SWAP1 PUSH1 0x1 SWAP1 SUB SWAP1 DUP2 PUSH2 0xFAC JUMPI SWAP1 POP JUMPDEST POP SWAP1 POP PUSH0 DUP1 JUMPDEST PUSH1 0x3 DUP1 SLOAD SWAP1 POP DUP2 LT ISZERO PUSH2 0x123A JUMPI DUP5 PUSH20 0xFFFFFFFFFFFFFFFFFFFFFFFFFFFFFFFFFFFFFFFF AND PUSH1 0x3 DUP3 DUP2 SLOAD DUP2 LT PUSH2 0x1005 JUMPI PUSH2 0x1004 PUSH2 0x1F08 JUMP JUMPDEST JUMPDEST SWAP1 PUSH0 MSTORE PUSH1 0x20 PUSH0 KECCAK256 SWAP1 PUSH1 0x4 MUL ADD PUSH0 ADD PUSH0 SWAP1 SLOAD SWAP1 PUSH2 0x100 EXP SWAP1 DIV PUSH20 0xFFFFFFFFFFFFFFFFFFFFFFFFFFFFFFFFFFFFFFFF AND PUSH20 0xFFFFFFFFFFFFFFFFFFFFFFFFFFFFFFFFFFFFFFFF AND EQ DUP1 ISZERO PUSH2 0x10A8 JUMPI POP PUSH1 0x1 DUP1 DUP2 GT ISZERO PUSH2 0x1064 JUMPI PUSH2 0x1063 PUSH2 0x1B5E JUMP JUMPDEST JUMPDEST PUSH1 0x3 DUP3 DUP2 SLOAD DUP2 LT PUSH2 0x1078 JUMPI PUSH2 0x1077 PUSH2 0x1F08 JUMP JUMPDEST JUMPDEST SWAP1 PUSH0 MSTORE PUSH1 0x20 PUSH0 KECCAK256 SWAP1 PUSH1 0x4 MUL ADD PUSH1 0x3 ADD PUSH0 SWAP1 SLOAD SWAP1 PUSH2 0x100 EXP SWAP1 DIV PUSH1 0xFF AND PUSH1 0x1 DUP2 GT ISZERO PUSH2 0x10A6 JUMPI PUSH2 0x10A5 PUSH2 0x1B5E JUMP JUMPDEST JUMPDEST EQ JUMPDEST ISZERO PUSH2 0x122D JUMPI PUSH1 0x3 DUP2 DUP2 SLOAD DUP2 LT PUSH2 0x10C1 JUMPI PUSH2 0x10C0 PUSH2 0x1F08 JUMP JUMPDEST JUMPDEST SWAP1 PUSH0 MSTORE PUSH1 0x20 PUSH0 KECCAK256 SWAP1 PUSH1 0x4 MUL ADD PUSH1 0x40 MLOAD DUP1 PUSH1 0x80 ADD PUSH1 0x40 MSTORE SWAP1 DUP2 PUSH0 DUP3 ADD PUSH0 SWAP1 SLOAD SWAP1 PUSH2 0x100 EXP SWAP1 DIV PUSH20 0xFFFFFFFFFFFFFFFFFFFFFFFFFFFFFFFFFFFFFFFF AND PUSH20 0xFFFFFFFFFFFFFFFFFFFFFFFFFFFFFFFFFFFFFFFF AND PUSH20 0xFFFFFFFFFFFFFFFFFFFFFFFFFFFFFFFFFFFFFFFF AND DUP2 MSTORE PUSH1 0x20 ADD PUSH1 0x1 DUP3 ADD DUP1 SLOAD PUSH2 0x113C SWAP1 PUSH2 0x1ED8 JUMP JUMPDEST DUP1 PUSH1 0x1F ADD PUSH1 0x20 DUP1 SWAP2 DIV MUL PUSH1 0x20 ADD PUSH1 0x40 MLOAD SWAP1 DUP2 ADD PUSH1 0x40 MSTORE DUP1 SWAP3 SWAP2 SWAP1 DUP2 DUP2 MSTORE PUSH1 0x20 ADD DUP3 DUP1 SLOAD PUSH2 0x1168 SWAP1 PUSH2 0x1ED8 JUMP JUMPDEST DUP1 ISZERO PUSH2 0x11B3 JUMPI DUP1 PUSH1 0x1F LT PUSH2 0x118A JUMPI PUSH2 0x100 DUP1 DUP4 SLOAD DIV MUL DUP4 MSTORE SWAP2 PUSH1 0x20 ADD SWAP2 PUSH2 0x11B3 JUMP JUMPDEST DUP3 ADD SWAP2 SWAP1 PUSH0 MSTORE PUSH1 0x20 PUSH0 KECCAK256 SWAP1 JUMPDEST DUP2 SLOAD DUP2 MSTORE SWAP1 PUSH1 0x1 ADD SWAP1 PUSH1 0x20 ADD DUP1 DUP4 GT PUSH2 0x1196 JUMPI DUP3 SWAP1 SUB PUSH1 0x1F AND DUP3 ADD SWAP2 JUMPDEST POP POP POP POP POP DUP2 MSTORE PUSH1 0x20 ADD PUSH1 0x2 DUP3 ADD SLOAD DUP2 MSTORE PUSH1 0x20 ADD PUSH1 0x3 DUP3 ADD PUSH0 SWAP1 SLOAD SWAP1 PUSH2 0x100 EXP SWAP1 DIV PUSH1 0xFF AND PUSH1 0x1 DUP2 GT ISZERO PUSH2 0x11EA JUMPI PUSH2 0x11E9 PUSH2 0x1B5E JUMP JUMPDEST JUMPDEST PUSH1 0x1 DUP2 GT ISZERO PUSH2 0x11FC JUMPI PUSH2 0x11FB PUSH2 0x1B5E JUMP JUMPDEST JUMPDEST DUP2 MSTORE POP POP DUP4 DUP4 DUP2 MLOAD DUP2 LT PUSH2 0x1213 JUMPI PUSH2 0x1212 PUSH2 0x1F08 JUMP JUMPDEST JUMPDEST PUSH1 0x20 MUL PUSH1 0x20 ADD ADD DUP2 SWAP1 MSTORE POP DUP2 DUP1 PUSH2 0x1229 SWAP1 PUSH2 0x1F62 JUMP JUMPDEST SWAP3 POP POP JUMPDEST DUP1 DUP1 PUSH1 0x1 ADD SWAP2 POP POP PUSH2 0xFCD JUMP JUMPDEST POP PUSH0 DUP2 PUSH8 0xFFFFFFFFFFFFFFFF DUP2 GT ISZERO PUSH2 0x1256 JUMPI PUSH2 0x1255 PUSH2 0x1CEB JUMP JUMPDEST JUMPDEST PUSH1 0x40 MLOAD SWAP1 DUP1 DUP3 MSTORE DUP1 PUSH1 0x20 MUL PUSH1 0x20 ADD DUP3 ADD PUSH1 0x40 MSTORE DUP1 ISZERO PUSH2 0x128F JUMPI DUP2 PUSH1 0x20 ADD JUMPDEST PUSH2 0x127C PUSH2 0x1823 JUMP JUMPDEST DUP2 MSTORE PUSH1 0x20 ADD SWAP1 PUSH1 0x1 SWAP1 SUB SWAP1 DUP2 PUSH2 0x1274 JUMPI SWAP1 POP JUMPDEST POP SWAP1 POP PUSH0 JUMPDEST DUP3 DUP2 LT ISZERO PUSH2 0x12E2 JUMPI DUP4 DUP2 DUP2 MLOAD DUP2 LT PUSH2 0x12AF JUMPI PUSH2 0x12AE PUSH2 0x1F08 JUMP JUMPDEST JUMPDEST PUSH1 0x20 MUL PUSH1 0x20 ADD ADD MLOAD DUP3 DUP3 DUP2 MLOAD DUP2 LT PUSH2 0x12CA JUMPI PUSH2 0x12C9 PUSH2 0x1F08 JUMP JUMPDEST JUMPDEST PUSH1 0x20 MUL PUSH1 0x20 ADD ADD DUP2 SWAP1 MSTORE POP DUP1 DUP1 PUSH1 0x1 ADD SWAP2 POP POP PUSH2 0x1294 JUMP JUMPDEST POP DUP1 SWAP4 POP POP POP POP SWAP2 SWAP1 POP JUMP JUMPDEST PUSH0 CALLVALUE GT PUSH2 0x1330 JUMPI PUSH1 0x40 MLOAD PUSH32 0x8C379A000000000000000000000000000000000000000000000000000000000 DUP2 MSTORE PUSH1 0x4 ADD PUSH2 0x1327 SWAP1 PUSH2 0x2511 JUMP JUMPDEST PUSH1 0x40 MLOAD DUP1 SWAP2 SUB SWAP1 REVERT JUMPDEST CALLVALUE PUSH1 0x2 PUSH0 CALLER PUSH20 0xFFFFFFFFFFFFFFFFFFFFFFFFFFFFFFFFFFFFFFFF AND PUSH20 0xFFFFFFFFFFFFFFFFFFFFFFFFFFFFFFFFFFFFFFFF AND DUP2 MSTORE PUSH1 0x20 ADD SWAP1 DUP2 MSTORE PUSH1 0x20 ADD PUSH0 KECCAK256 PUSH0 DUP3 DUP3 SLOAD PUSH2 0x137C SWAP2 SWAP1 PUSH2 0x252F JUMP JUMPDEST SWAP3 POP POP DUP2 SWAP1 SSTORE POP JUMP JUMPDEST PUSH1 0x3 DUP1 SLOAD SWAP1 POP DUP2 LT PUSH2 0x13CC JUMPI PUSH1 0x40 MLOAD PUSH32 0x8C379A000000000000000000000000000000000000000000000000000000000 DUP2 MSTORE PUSH1 0x4 ADD PUSH2 0x13C3 SWAP1 PUSH2 0x25AC JUMP JUMPDEST PUSH1 0x40 MLOAD DUP1 SWAP2 SUB SWAP1 REVERT JUMPDEST CALLER PUSH20 0xFFFFFFFFFFFFFFFFFFFFFFFFFFFFFFFFFFFFFFFF AND PUSH1 0x3 DUP3 DUP2 SLOAD DUP2 LT PUSH2 0x13F7 JUMPI PUSH2 0x13F6 PUSH2 0x1F08 JUMP JUMPDEST JUMPDEST SWAP1 PUSH0 MSTORE PUSH1 0x20 PUSH0 KECCAK256 SWAP1 PUSH1 0x4 MUL ADD PUSH0 ADD PUSH0 SWAP1 SLOAD SWAP1 PUSH2 0x100 EXP SWAP1 DIV PUSH20 0xFFFFFFFFFFFFFFFFFFFFFFFFFFFFFFFFFFFFFFFF AND PUSH20 0xFFFFFFFFFFFFFFFFFFFFFFFFFFFFFFFFFFFFFFFF AND EQ PUSH2 0x147B JUMPI PUSH1 0x40 MLOAD PUSH32 0x8C379A000000000000000000000000000000000000000000000000000000000 DUP2 MSTORE PUSH1 0x4 ADD PUSH2 0x1472 SWAP1 PUSH2 0x2614 JUMP JUMPDEST PUSH1 0x40 MLOAD DUP1 SWAP2 SUB SWAP1 REVERT JUMPDEST PUSH0 PUSH1 0x1 DUP2 GT ISZERO PUSH2 0x148E JUMPI PUSH2 0x148D PUSH2 0x1B5E JUMP JUMPDEST JUMPDEST PUSH1 0x3 DUP3 DUP2 SLOAD DUP2 LT PUSH2 0x14A2 JUMPI PUSH2 0x14A1 PUSH2 0x1F08 JUMP JUMPDEST JUMPDEST SWAP1 PUSH0 MSTORE PUSH1 0x20 PUSH0 KECCAK256 SWAP1 PUSH1 0x4 MUL ADD PUSH1 0x3 ADD PUSH0 SWAP1 SLOAD SWAP1 PUSH2 0x100 EXP SWAP1 DIV PUSH1 0xFF AND PUSH1 0x1 DUP2 GT ISZERO PUSH2 0x14D0 JUMPI PUSH2 0x14CF PUSH2 0x1B5E JUMP JUMPDEST JUMPDEST EQ PUSH2 0x1510 JUMPI PUSH1 0x40 MLOAD PUSH32 0x8C379A000000000000000000000000000000000000000000000000000000000 DUP2 MSTORE PUSH1 0x4 ADD PUSH2 0x1507 SWAP1 PUSH2 0x267C JUMP JUMPDEST PUSH1 0x40 MLOAD DUP1 SWAP2 SUB SWAP1 REVERT JUMPDEST PUSH1 0x1 PUSH1 0x3 DUP3 DUP2 SLOAD DUP2 LT PUSH2 0x1526 JUMPI PUSH2 0x1525 PUSH2 0x1F08 JUMP JUMPDEST JUMPDEST SWAP1 PUSH0 MSTORE PUSH1 0x20 PUSH0 KECCAK256 SWAP1 PUSH1 0x4 MUL ADD PUSH1 0x3 ADD PUSH0 PUSH2 0x100 EXP DUP2 SLOAD DUP2 PUSH1 0xFF MUL NOT AND SWAP1 DUP4 PUSH1 0x1 DUP2 GT ISZERO PUSH2 0x1556 JUMPI PUSH2 0x1555 PUSH2 0x1B5E JUMP JUMPDEST JUMPDEST MUL OR SWAP1 SSTORE POP POP JUMP JUMPDEST PUSH2 0x1566 PUSH2 0x1870 JUMP JUMPDEST PUSH0 JUMPDEST PUSH1 0x1 DUP1 SLOAD SWAP1 POP DUP2 LT ISZERO PUSH2 0x17E2 JUMPI DUP3 PUSH1 0x40 MLOAD PUSH1 0x20 ADD PUSH2 0x1586 SWAP2 SWAP1 PUSH2 0x26D4 JUMP JUMPDEST PUSH1 0x40 MLOAD PUSH1 0x20 DUP2 DUP4 SUB SUB DUP2 MSTORE SWAP1 PUSH1 0x40 MSTORE DUP1 MLOAD SWAP1 PUSH1 0x20 ADD KECCAK256 PUSH1 0x1 DUP3 DUP2 SLOAD DUP2 LT PUSH2 0x15B0 JUMPI PUSH2 0x15AF PUSH2 0x1F08 JUMP JUMPDEST JUMPDEST SWAP1 PUSH0 MSTORE PUSH1 0x20 PUSH0 KECCAK256 SWAP1 PUSH1 0x4 MUL ADD PUSH0 ADD PUSH1 0x40 MLOAD PUSH1 0x20 ADD PUSH2 0x15CE SWAP2 SWAP1 PUSH2 0x276A JUMP JUMPDEST PUSH1 0x40 MLOAD PUSH1 0x20 DUP2 DUP4 SUB SUB DUP2 MSTORE SWAP1 PUSH1 0x40 MSTORE DUP1 MLOAD SWAP1 PUSH1 0x20 ADD KECCAK256 SUB PUSH2 0x17D5 JUMPI PUSH1 0x1 DUP2 DUP2 SLOAD DUP2 LT PUSH2 0x15FD JUMPI PUSH2 0x15FC PUSH2 0x1F08 JUMP JUMPDEST JUMPDEST SWAP1 PUSH0 MSTORE PUSH1 0x20 PUSH0 KECCAK256 SWAP1 PUSH1 0x4 MUL ADD PUSH1 0x40 MLOAD DUP1 PUSH1 0x80 ADD PUSH1 0x40 MSTORE SWAP1 DUP2 PUSH0 DUP3 ADD DUP1 SLOAD PUSH2 0x1623 SWAP1 PUSH2 0x1ED8 JUMP JUMPDEST DUP1 PUSH1 0x1F ADD PUSH1 0x20 DUP1 SWAP2 DIV MUL PUSH1 0x20 ADD PUSH1 0x40 MLOAD SWAP1 DUP2 ADD PUSH1 0x40 MSTORE DUP1 SWAP3 SWAP2 SWAP1 DUP2 DUP2 MSTORE PUSH1 0x20 ADD DUP3 DUP1 SLOAD PUSH2 0x164F SWAP1 PUSH2 0x1ED8 JUMP JUMPDEST DUP1 ISZERO PUSH2 0x169A JUMPI DUP1 PUSH1 0x1F LT PUSH2 0x1671 JUMPI PUSH2 0x100 DUP1 DUP4 SLOAD DIV MUL DUP4 MSTORE SWAP2 PUSH1 0x20 ADD SWAP2 PUSH2 0x169A JUMP JUMPDEST DUP3 ADD SWAP2 SWAP1 PUSH0 MSTORE PUSH1 0x20 PUSH0 KECCAK256 SWAP1 JUMPDEST DUP2 SLOAD DUP2 MSTORE SWAP1 PUSH1 0x1 ADD SWAP1 PUSH1 0x20 ADD DUP1 DUP4 GT PUSH2 0x167D JUMPI DUP3 SWAP1 SUB PUSH1 0x1F AND DUP3 ADD SWAP2 JUMPDEST POP POP POP POP POP DUP2 MSTORE PUSH1 0x20 ADD PUSH1 0x1 DUP3 ADD SLOAD DUP2 MSTORE PUSH1 0x20 ADD PUSH1 0x2 DUP3 ADD DUP1 SLOAD PUSH2 0x16BD SWAP1 PUSH2 0x1ED8 JUMP JUMPDEST DUP1 PUSH1 0x1F ADD PUSH1 0x20 DUP1 SWAP2 DIV MUL PUSH1 0x20 ADD PUSH1 0x40 MLOAD SWAP1 DUP2 ADD PUSH1 0x40 MSTORE DUP1 SWAP3 SWAP2 SWAP1 DUP2 DUP2 MSTORE PUSH1 0x20 ADD DUP3 DUP1 SLOAD PUSH2 0x16E9 SWAP1 PUSH2 0x1ED8 JUMP JUMPDEST DUP1 ISZERO PUSH2 0x1734 JUMPI DUP1 PUSH1 0x1F LT PUSH2 0x170B JUMPI PUSH2 0x100 DUP1 DUP4 SLOAD DIV MUL DUP4 MSTORE SWAP2 PUSH1 0x20 ADD SWAP2 PUSH2 0x1734 JUMP JUMPDEST DUP3 ADD SWAP2 SWAP1 PUSH0 MSTORE PUSH1 0x20 PUSH0 KECCAK256 SWAP1 JUMPDEST DUP2 SLOAD DUP2 MSTORE SWAP1 PUSH1 0x1 ADD SWAP1 PUSH1 0x20 ADD DUP1 DUP4 GT PUSH2 0x1717 JUMPI DUP3 SWAP1 SUB PUSH1 0x1F AND DUP3 ADD SWAP2 JUMPDEST POP POP POP POP POP DUP2 MSTORE PUSH1 0x20 ADD PUSH1 0x3 DUP3 ADD DUP1 SLOAD PUSH2 0x174D SWAP1 PUSH2 0x1ED8 JUMP JUMPDEST DUP1 PUSH1 0x1F ADD PUSH1 0x20 DUP1 SWAP2 DIV MUL PUSH1 0x20 ADD PUSH1 0x40 MLOAD SWAP1 DUP2 ADD PUSH1 0x40 MSTORE DUP1 SWAP3 SWAP2 SWAP1 DUP2 DUP2 MSTORE PUSH1 0x20 ADD DUP3 DUP1 SLOAD PUSH2 0x1779 SWAP1 PUSH2 0x1ED8 JUMP JUMPDEST DUP1 ISZERO PUSH2 0x17C4 JUMPI DUP1 PUSH1 0x1F LT PUSH2 0x179B JUMPI PUSH2 0x100 DUP1 DUP4 SLOAD DIV MUL DUP4 MSTORE SWAP2 PUSH1 0x20 ADD SWAP2 PUSH2 0x17C4 JUMP JUMPDEST DUP3 ADD SWAP2 SWAP1 PUSH0 MSTORE PUSH1 0x20 PUSH0 KECCAK256 SWAP1 JUMPDEST DUP2 SLOAD DUP2 MSTORE SWAP1 PUSH1 0x1 ADD SWAP1 PUSH1 0x20 ADD DUP1 DUP4 GT PUSH2 0x17A7 JUMPI DUP3 SWAP1 SUB PUSH1 0x1F AND DUP3 ADD SWAP2 JUMPDEST POP POP POP POP POP DUP2 MSTORE POP POP SWAP2 POP POP PUSH2 0x181E JUMP JUMPDEST DUP1 DUP1 PUSH1 0x1 ADD SWAP2 POP POP PUSH2 0x1568 JUMP JUMPDEST POP PUSH1 0x40 MLOAD PUSH32 0x8C379A000000000000000000000000000000000000000000000000000000000 DUP2 MSTORE PUSH1 0x4 ADD PUSH2 0x1815 SWAP1 PUSH2 0x27CA JUMP JUMPDEST PUSH1 0x40 MLOAD DUP1 SWAP2 SUB SWAP1 REVERT JUMPDEST SWAP2 SWAP1 POP JUMP JUMPDEST PUSH1 0x40 MLOAD DUP1 PUSH1 0x80 ADD PUSH1 0x40 MSTORE DUP1 PUSH0 PUSH20 0xFFFFFFFFFFFFFFFFFFFFFFFFFFFFFFFFFFFFFFFF AND DUP2 MSTORE PUSH1 0x20 ADD PUSH1 0x60 DUP2 MSTORE PUSH1 0x20 ADD PUSH0 DUP2 MSTORE PUSH1 0x20 ADD PUSH0 PUSH1 0x1 DUP2 GT ISZERO PUSH2 0x186A JUMPI PUSH2 0x1869 PUSH2 0x1B5E JUMP JUMPDEST JUMPDEST DUP2 MSTORE POP SWAP1 JUMP JUMPDEST PUSH1 0x40 MLOAD DUP1 PUSH1 0x80 ADD PUSH1 0x40 MSTORE DUP1 PUSH1 0x60 DUP2 MSTORE PUSH1 0x20 ADD PUSH0 DUP2 MSTORE PUSH1 0x20 ADD PUSH1 0x60 DUP2 MSTORE PUSH1 0x20 ADD PUSH1 0x60 DUP2 MSTORE POP SWAP1 JUMP JUMPDEST PUSH0 DUP2 MLOAD SWAP1 POP SWAP2 SWAP1 POP JUMP JUMPDEST PUSH0 DUP3 DUP3 MSTORE PUSH1 0x20 DUP3 ADD SWAP1 POP SWAP3 SWAP2 POP POP JUMP JUMPDEST PUSH0 DUP2 SWAP1 POP PUSH1 0x20 DUP3 ADD SWAP1 POP SWAP2 SWAP1 POP JUMP JUMPDEST PUSH0 DUP2 MLOAD SWAP1 POP SWAP2 SWAP1 POP JUMP JUMPDEST PUSH0 DUP3 DUP3 MSTORE PUSH1 0x20 DUP3 ADD SWAP1 POP SWAP3 SWAP2 POP POP JUMP JUMPDEST DUP3 DUP2 DUP4 MCOPY PUSH0 DUP4 DUP4 ADD MSTORE POP POP POP JUMP JUMPDEST PUSH0 PUSH1 0x1F NOT PUSH1 0x1F DUP4 ADD AND SWAP1 POP SWAP2 SWAP1 POP JUMP JUMPDEST PUSH0 PUSH2 0x1902 DUP3 PUSH2 0x18C0 JUMP JUMPDEST PUSH2 0x190C DUP2 DUP6 PUSH2 0x18CA JUMP JUMPDEST SWAP4 POP PUSH2 0x191C DUP2 DUP6 PUSH1 0x20 DUP7 ADD PUSH2 0x18DA JUMP JUMPDEST PUSH2 0x1925 DUP2 PUSH2 0x18E8 JUMP JUMPDEST DUP5 ADD SWAP2 POP POP SWAP3 SWAP2 POP POP JUMP JUMPDEST PUSH0 DUP2 SWAP1 POP SWAP2 SWAP1 POP JUMP JUMPDEST PUSH2 0x1942 DUP2 PUSH2 0x1930 JUMP JUMPDEST DUP3 MSTORE POP POP JUMP JUMPDEST PUSH0 PUSH1 0x80 DUP4 ADD PUSH0 DUP4 ADD MLOAD DUP5 DUP3 SUB PUSH0 DUP7 ADD MSTORE PUSH2 0x1962 DUP3 DUP3 PUSH2 0x18F8 JUMP JUMPDEST SWAP2 POP POP PUSH1 0x20 DUP4 ADD MLOAD PUSH2 0x1977 PUSH1 0x20 DUP7 ADD DUP3 PUSH2 0x1939 JUMP JUMPDEST POP PUSH1 0x40 DUP4 ADD MLOAD DUP5 DUP3 SUB PUSH1 0x40 DUP7 ADD MSTORE PUSH2 0x198F DUP3 DUP3 PUSH2 0x18F8 JUMP JUMPDEST SWAP2 POP POP PUSH1 0x60 DUP4 ADD MLOAD DUP5 DUP3 SUB PUSH1 0x60 DUP7 ADD MSTORE PUSH2 0x19A9 DUP3 DUP3 PUSH2 0x18F8 JUMP JUMPDEST SWAP2 POP POP DUP1 SWAP2 POP POP SWAP3 SWAP2 POP POP JUMP JUMPDEST PUSH0 PUSH2 0x19C1 DUP4 DUP4 PUSH2 0x1948 JUMP JUMPDEST SWAP1 POP SWAP3 SWAP2 POP POP JUMP JUMPDEST PUSH0 PUSH1 0x20 DUP3 ADD SWAP1 POP SWAP2 SWAP1 POP JUMP JUMPDEST PUSH0 PUSH2 0x19DF DUP3 PUSH2 0x1897 JUMP JUMPDEST PUSH2 0x19E9 DUP2 DUP6 PUSH2 0x18A1 JUMP JUMPDEST SWAP4 POP DUP4 PUSH1 0x20 DUP3 MUL DUP6 ADD PUSH2 0x19FB DUP6 PUSH2 0x18B1 JUMP JUMPDEST DUP1 PUSH0 JUMPDEST DUP6 DUP2 LT ISZERO PUSH2 0x1A36 JUMPI DUP5 DUP5 SUB DUP10 MSTORE DUP2 MLOAD PUSH2 0x1A17 DUP6 DUP3 PUSH2 0x19B6 JUMP JUMPDEST SWAP5 POP PUSH2 0x1A22 DUP4 PUSH2 0x19C9 JUMP JUMPDEST SWAP3 POP PUSH1 0x20 DUP11 ADD SWAP10 POP POP PUSH1 0x1 DUP2 ADD SWAP1 POP PUSH2 0x19FE JUMP JUMPDEST POP DUP3 SWAP8 POP DUP8 SWAP6 POP POP POP POP POP POP SWAP3 SWAP2 POP POP JUMP JUMPDEST PUSH0 PUSH1 0x20 DUP3 ADD SWAP1 POP DUP2 DUP2 SUB PUSH0 DUP4 ADD MSTORE PUSH2 0x1A60 DUP2 DUP5 PUSH2 0x19D5 JUMP JUMPDEST SWAP1 POP SWAP3 SWAP2 POP POP JUMP JUMPDEST PUSH2 0x1A71 DUP2 PUSH2 0x1930 JUMP JUMPDEST DUP3 MSTORE POP POP JUMP JUMPDEST PUSH0 PUSH1 0x20 DUP3 ADD SWAP1 POP PUSH2 0x1A8A PUSH0 DUP4 ADD DUP5 PUSH2 0x1A68 JUMP JUMPDEST SWAP3 SWAP2 POP POP JUMP JUMPDEST PUSH0 PUSH1 0x40 MLOAD SWAP1 POP SWAP1 JUMP JUMPDEST PUSH0 DUP1 REVERT JUMPDEST PUSH0 DUP1 REVERT JUMPDEST PUSH0 PUSH20 0xFFFFFFFFFFFFFFFFFFFFFFFFFFFFFFFFFFFFFFFF DUP3 AND SWAP1 POP SWAP2 SWAP1 POP JUMP JUMPDEST PUSH0 PUSH2 0x1ACA DUP3 PUSH2 0x1AA1 JUMP JUMPDEST SWAP1 POP SWAP2 SWAP1 POP JUMP JUMPDEST PUSH2 0x1ADA DUP2 PUSH2 0x1AC0 JUMP JUMPDEST DUP2 EQ PUSH2 0x1AE4 JUMPI PUSH0 DUP1 REVERT JUMPDEST POP JUMP JUMPDEST PUSH0 DUP2 CALLDATALOAD SWAP1 POP PUSH2 0x1AF5 DUP2 PUSH2 0x1AD1 JUMP JUMPDEST SWAP3 SWAP2 POP POP JUMP JUMPDEST PUSH0 PUSH1 0x20 DUP3 DUP5 SUB SLT ISZERO PUSH2 0x1B10 JUMPI PUSH2 0x1B0F PUSH2 0x1A99 JUMP JUMPDEST JUMPDEST PUSH0 PUSH2 0x1B1D DUP5 DUP3 DUP6 ADD PUSH2 0x1AE7 JUMP JUMPDEST SWAP2 POP POP SWAP3 SWAP2 POP POP JUMP JUMPDEST PUSH0 DUP2 MLOAD SWAP1 POP SWAP2 SWAP1 POP JUMP JUMPDEST PUSH0 DUP3 DUP3 MSTORE PUSH1 0x20 DUP3 ADD SWAP1 POP SWAP3 SWAP2 POP POP JUMP JUMPDEST PUSH0 DUP2 SWAP1 POP PUSH1 0x20 DUP3 ADD SWAP1 POP SWAP2 SWAP1 POP JUMP JUMPDEST PUSH2 0x1B58 DUP2 PUSH2 0x1AC0 JUMP JUMPDEST DUP3 MSTORE POP POP JUMP JUMPDEST PUSH32 0x4E487B7100000000000000000000000000000000000000000000000000000000 PUSH0 MSTORE PUSH1 0x21 PUSH1 0x4 MSTORE PUSH1 0x24 PUSH0 REVERT JUMPDEST PUSH1 0x2 DUP2 LT PUSH2 0x1B9C JUMPI PUSH2 0x1B9B PUSH2 0x1B5E JUMP JUMPDEST JUMPDEST POP JUMP JUMPDEST PUSH0 DUP2 SWAP1 POP PUSH2 0x1BAC DUP3 PUSH2 0x1B8B JUMP JUMPDEST SWAP2 SWAP1 POP JUMP JUMPDEST PUSH0 PUSH2 0x1BBB DUP3 PUSH2 0x1B9F JUMP JUMPDEST SWAP1 POP SWAP2 SWAP1 POP JUMP JUMPDEST PUSH2 0x1BCB DUP2 PUSH2 0x1BB1 JUMP JUMPDEST DUP3 MSTORE POP POP JUMP JUMPDEST PUSH0 PUSH1 0x80 DUP4 ADD PUSH0 DUP4 ADD MLOAD PUSH2 0x1BE6 PUSH0 DUP7 ADD DUP3 PUSH2 0x1B4F JUMP JUMPDEST POP PUSH1 0x20 DUP4 ADD MLOAD DUP5 DUP3 SUB PUSH1 0x20 DUP7 ADD MSTORE PUSH2 0x1BFE DUP3 DUP3 PUSH2 0x18F8 JUMP JUMPDEST SWAP2 POP POP PUSH1 0x40 DUP4 ADD MLOAD PUSH2 0x1C13 PUSH1 0x40 DUP7 ADD DUP3 PUSH2 0x1939 JUMP JUMPDEST POP PUSH1 0x60 DUP4 ADD MLOAD PUSH2 0x1C26 PUSH1 0x60 DUP7 ADD DUP3 PUSH2 0x1BC2 JUMP JUMPDEST POP DUP1 SWAP2 POP POP SWAP3 SWAP2 POP POP JUMP JUMPDEST PUSH0 PUSH2 0x1C3C DUP4 DUP4 PUSH2 0x1BD1 JUMP JUMPDEST SWAP1 POP SWAP3 SWAP2 POP POP JUMP JUMPDEST PUSH0 PUSH1 0x20 DUP3 ADD SWAP1 POP SWAP2 SWAP1 POP JUMP JUMPDEST PUSH0 PUSH2 0x1C5A DUP3 PUSH2 0x1B26 JUMP JUMPDEST PUSH2 0x1C64 DUP2 DUP6 PUSH2 0x1B30 JUMP JUMPDEST SWAP4 POP DUP4 PUSH1 0x20 DUP3 MUL DUP6 ADD PUSH2 0x1C76 DUP6 PUSH2 0x1B40 JUMP JUMPDEST DUP1 PUSH0 JUMPDEST DUP6 DUP2 LT ISZERO PUSH2 0x1CB1 JUMPI DUP5 DUP5 SUB DUP10 MSTORE DUP2 MLOAD PUSH2 0x1C92 DUP6 DUP3 PUSH2 0x1C31 JUMP JUMPDEST SWAP5 POP PUSH2 0x1C9D DUP4 PUSH2 0x1C44 JUMP JUMPDEST SWAP3 POP PUSH1 0x20 DUP11 ADD SWAP10 POP POP PUSH1 0x1 DUP2 ADD SWAP1 POP PUSH2 0x1C79 JUMP JUMPDEST POP DUP3 SWAP8 POP DUP8 SWAP6 POP POP POP POP POP POP SWAP3 SWAP2 POP POP JUMP JUMPDEST PUSH0 PUSH1 0x20 DUP3 ADD SWAP1 POP DUP2 DUP2 SUB PUSH0 DUP4 ADD MSTORE PUSH2 0x1CDB DUP2 DUP5 PUSH2 0x1C50 JUMP JUMPDEST SWAP1 POP SWAP3 SWAP2 POP POP JUMP JUMPDEST PUSH0 DUP1 REVERT JUMPDEST PUSH0 DUP1 REVERT JUMPDEST PUSH32 0x4E487B7100000000000000000000000000000000000000000000000000000000 PUSH0 MSTORE PUSH1 0x41 PUSH1 0x4 MSTORE PUSH1 0x24 PUSH0 REVERT JUMPDEST PUSH2 0x1D21 DUP3 PUSH2 0x18E8 JUMP JUMPDEST DUP2 ADD DUP2 DUP2 LT PUSH8 0xFFFFFFFFFFFFFFFF DUP3 GT OR ISZERO PUSH2 0x1D40 JUMPI PUSH2 0x1D3F PUSH2 0x1CEB JUMP JUMPDEST JUMPDEST DUP1 PUSH1 0x40 MSTORE POP POP POP JUMP JUMPDEST PUSH0 PUSH2 0x1D52 PUSH2 0x1A90 JUMP JUMPDEST SWAP1 POP PUSH2 0x1D5E DUP3 DUP3 PUSH2 0x1D18 JUMP JUMPDEST SWAP2 SWAP1 POP JUMP JUMPDEST PUSH0 PUSH8 0xFFFFFFFFFFFFFFFF DUP3 GT ISZERO PUSH2 0x1D7D JUMPI PUSH2 0x1D7C PUSH2 0x1CEB JUMP JUMPDEST JUMPDEST PUSH2 0x1D86 DUP3 PUSH2 0x18E8 JUMP JUMPDEST SWAP1 POP PUSH1 0x20 DUP2 ADD SWAP1 POP SWAP2 SWAP1 POP JUMP JUMPDEST DUP3 DUP2 DUP4 CALLDATACOPY PUSH0 DUP4 DUP4 ADD MSTORE POP POP POP JUMP JUMPDEST PUSH0 PUSH2 0x1DB3 PUSH2 0x1DAE DUP5 PUSH2 0x1D63 JUMP JUMPDEST PUSH2 0x1D49 JUMP JUMPDEST SWAP1 POP DUP3 DUP2 MSTORE PUSH1 0x20 DUP2 ADD DUP5 DUP5 DUP5 ADD GT ISZERO PUSH2 0x1DCF JUMPI PUSH2 0x1DCE PUSH2 0x1CE7 JUMP JUMPDEST JUMPDEST PUSH2 0x1DDA DUP5 DUP3 DUP6 PUSH2 0x1D93 JUMP JUMPDEST POP SWAP4 SWAP3 POP POP POP JUMP JUMPDEST PUSH0 DUP3 PUSH1 0x1F DUP4 ADD SLT PUSH2 0x1DF6 JUMPI PUSH2 0x1DF5 PUSH2 0x1CE3 JUMP JUMPDEST JUMPDEST DUP2 CALLDATALOAD PUSH2 0x1E06 DUP5 DUP3 PUSH1 0x20 DUP7 ADD PUSH2 0x1DA1 JUMP JUMPDEST SWAP2 POP POP SWAP3 SWAP2 POP POP JUMP JUMPDEST PUSH0 PUSH1 0x20 DUP3 DUP5 SUB SLT ISZERO PUSH2 0x1E24 JUMPI PUSH2 0x1E23 PUSH2 0x1A99 JUMP JUMPDEST JUMPDEST PUSH0 DUP3 ADD CALLDATALOAD PUSH8 0xFFFFFFFFFFFFFFFF DUP2 GT ISZERO PUSH2 0x1E41 JUMPI PUSH2 0x1E40 PUSH2 0x1A9D JUMP JUMPDEST JUMPDEST PUSH2 0x1E4D DUP5 DUP3 DUP6 ADD PUSH2 0x1DE2 JUMP JUMPDEST SWAP2 POP POP SWAP3 SWAP2 POP POP JUMP JUMPDEST PUSH2 0x1E5F DUP2 PUSH2 0x1930 JUMP JUMPDEST DUP2 EQ PUSH2 0x1E69 JUMPI PUSH0 DUP1 REVERT JUMPDEST POP JUMP JUMPDEST PUSH0 DUP2 CALLDATALOAD SWAP1 POP PUSH2 0x1E7A DUP2 PUSH2 0x1E56 JUMP JUMPDEST SWAP3 SWAP2 POP POP JUMP JUMPDEST PUSH0 PUSH1 0x20 DUP3 DUP5 SUB SLT ISZERO PUSH2 0x1E95 JUMPI PUSH2 0x1E94 PUSH2 0x1A99 JUMP JUMPDEST JUMPDEST PUSH0 PUSH2 0x1EA2 DUP5 DUP3 DUP6 ADD PUSH2 0x1E6C JUMP JUMPDEST SWAP2 POP POP SWAP3 SWAP2 POP POP JUMP JUMPDEST PUSH32 0x4E487B7100000000000000000000000000000000000000000000000000000000 PUSH0 MSTORE PUSH1 0x22 PUSH1 0x4 MSTORE PUSH1 0x24 PUSH0 REVERT JUMPDEST PUSH0 PUSH1 0x2 DUP3 DIV SWAP1 POP PUSH1 0x1 DUP3 AND DUP1 PUSH2 0x1EEF JUMPI PUSH1 0x7F DUP3 AND SWAP2 POP JUMPDEST PUSH1 0x20 DUP3 LT DUP2 SUB PUSH2 0x1F02 JUMPI PUSH2 0x1F01 PUSH2 0x1EAB JUMP JUMPDEST JUMPDEST POP SWAP2 SWAP1 POP JUMP JUMPDEST PUSH32 0x4E487B7100000000000000000000000000000000000000000000000000000000 PUSH0 MSTORE PUSH1 0x32 PUSH1 0x4 MSTORE PUSH1 0x24 PUSH0 REVERT JUMPDEST PUSH32 0x4E487B7100000000000000000000000000000000000000000000000000000000 PUSH0 MSTORE PUSH1 0x11 PUSH1 0x4 MSTORE PUSH1 0x24 PUSH0 REVERT JUMPDEST PUSH0 PUSH2 0x1F6C DUP3 PUSH2 0x1930 JUMP JUMPDEST SWAP2 POP PUSH32 0xFFFFFFFFFFFFFFFFFFFFFFFFFFFFFFFFFFFFFFFFFFFFFFFFFFFFFFFFFFFFFFFF DUP3 SUB PUSH2 0x1F9E JUMPI PUSH2 0x1F9D PUSH2 0x1F35 JUMP JUMPDEST JUMPDEST PUSH1 0x1 DUP3 ADD SWAP1 POP SWAP2 SWAP1 POP JUMP JUMPDEST PUSH0 DUP3 DUP3 MSTORE PUSH1 0x20 DUP3 ADD SWAP1 POP SWAP3 SWAP2 POP POP JUMP JUMPDEST PUSH32 0x496E73756666696369656E742066756E64730000000000000000000000000000 PUSH0 DUP3 ADD MSTORE POP JUMP JUMPDEST PUSH0 PUSH2 0x1FED PUSH1 0x12 DUP4 PUSH2 0x1FA9 JUMP JUMPDEST SWAP2 POP PUSH2 0x1FF8 DUP3 PUSH2 0x1FB9 JUMP JUMPDEST PUSH1 0x20 DUP3 ADD SWAP1 POP SWAP2 SWAP1 POP JUMP JUMPDEST PUSH0 PUSH1 0x20 DUP3 ADD SWAP1 POP DUP2 DUP2 SUB PUSH0 DUP4 ADD MSTORE PUSH2 0x201A DUP2 PUSH2 0x1FE1 JUMP JUMPDEST SWAP1 POP SWAP2 SWAP1 POP JUMP JUMPDEST PUSH0 PUSH2 0x202B DUP3 PUSH2 0x1930 JUMP JUMPDEST SWAP2 POP PUSH2 0x2036 DUP4 PUSH2 0x1930 JUMP JUMPDEST SWAP3 POP DUP3 DUP3 SUB SWAP1 POP DUP2 DUP2 GT ISZERO PUSH2 0x204E JUMPI PUSH2 0x204D PUSH2 0x1F35 JUMP JUMPDEST JUMPDEST SWAP3 SWAP2 POP POP JUMP JUMPDEST PUSH0 DUP2 SWAP1 POP DUP2 PUSH0 MSTORE PUSH1 0x20 PUSH0 KECCAK256 SWAP1 POP SWAP2 SWAP1 POP JUMP JUMPDEST PUSH0 PUSH1 0x20 PUSH1 0x1F DUP4 ADD DIV SWAP1 POP SWAP2 SWAP1 POP JUMP JUMPDEST PUSH0 DUP3 DUP3 SHL SWAP1 POP SWAP3 SWAP2 POP POP JUMP JUMPDEST PUSH0 PUSH1 0x8 DUP4 MUL PUSH2 0x20B0 PUSH32 0xFFFFFFFFFFFFFFFFFFFFFFFFFFFFFFFFFFFFFFFFFFFFFFFFFFFFFFFFFFFFFFFF DUP3 PUSH2 0x2075 JUMP JUMPDEST PUSH2 0x20BA DUP7 DUP4 PUSH2 0x2075 JUMP JUMPDEST SWAP6 POP DUP1 NOT DUP5 AND SWAP4 POP DUP1 DUP7 AND DUP5 OR SWAP3 POP POP POP SWAP4 SWAP3 POP POP POP JUMP JUMPDEST PUSH0 DUP2 SWAP1 POP SWAP2 SWAP1 POP JUMP JUMPDEST PUSH0 PUSH2 0x20F5 PUSH2 0x20F0 PUSH2 0x20EB DUP5 PUSH2 0x1930 JUMP JUMPDEST PUSH2 0x20D2 JUMP JUMPDEST PUSH2 0x1930 JUMP JUMPDEST SWAP1 POP SWAP2 SWAP1 POP JUMP JUMPDEST PUSH0 DUP2 SWAP1 POP SWAP2 SWAP1 POP JUMP JUMPDEST PUSH2 0x210E DUP4 PUSH2 0x20DB JUMP JUMPDEST PUSH2 0x2122 PUSH2 0x211A DUP3 PUSH2 0x20FC JUMP JUMPDEST DUP5 DUP5 SLOAD PUSH2 0x2081 JUMP JUMPDEST DUP3 SSTORE POP POP POP POP JUMP JUMPDEST PUSH0 SWAP1 JUMP JUMPDEST PUSH2 0x2136 PUSH2 0x212A JUMP JUMPDEST PUSH2 0x2141 DUP2 DUP5 DUP5 PUSH2 0x2105 JUMP JUMPDEST POP POP POP JUMP JUMPDEST JUMPDEST DUP2 DUP2 LT ISZERO PUSH2 0x2164 JUMPI PUSH2 0x2159 PUSH0 DUP3 PUSH2 0x212E JUMP JUMPDEST PUSH1 0x1 DUP2 ADD SWAP1 POP PUSH2 0x2147 JUMP JUMPDEST POP POP JUMP JUMPDEST PUSH1 0x1F DUP3 GT ISZERO PUSH2 0x21A9 JUMPI PUSH2 0x217A DUP2 PUSH2 0x2054 JUMP JUMPDEST PUSH2 0x2183 DUP5 PUSH2 0x2066 JUMP JUMPDEST DUP2 ADD PUSH1 0x20 DUP6 LT ISZERO PUSH2 0x2192 JUMPI DUP2 SWAP1 POP JUMPDEST PUSH2 0x21A6 PUSH2 0x219E DUP6 PUSH2 0x2066 JUMP JUMPDEST DUP4 ADD DUP3 PUSH2 0x2146 JUMP JUMPDEST POP POP JUMPDEST POP POP POP JUMP JUMPDEST PUSH0 DUP3 DUP3 SHR SWAP1 POP SWAP3 SWAP2 POP POP JUMP JUMPDEST PUSH0 PUSH2 0x21C9 PUSH0 NOT DUP5 PUSH1 0x8 MUL PUSH2 0x21AE JUMP JUMPDEST NOT DUP1 DUP4 AND SWAP2 POP POP SWAP3 SWAP2 POP POP JUMP JUMPDEST PUSH0 PUSH2 0x21E1 DUP4 DUP4 PUSH2 0x21BA JUMP JUMPDEST SWAP2 POP DUP3 PUSH1 0x2 MUL DUP3 OR SWAP1 POP SWAP3 SWAP2 POP POP JUMP JUMPDEST PUSH2 0x21FA DUP3 PUSH2 0x18C0 JUMP JUMPDEST PUSH8 0xFFFFFFFFFFFFFFFF DUP2 GT ISZERO PUSH2 0x2213 JUMPI PUSH2 0x2212 PUSH2 0x1CEB JUMP JUMPDEST JUMPDEST PUSH2 0x221D DUP3 SLOAD PUSH2 0x1ED8 JUMP JUMPDEST PUSH2 0x2228 DUP3 DUP3 DUP6 PUSH2 0x2168 JUMP JUMPDEST PUSH0 PUSH1 0x20 SWAP1 POP PUSH1 0x1F DUP4 GT PUSH1 0x1 DUP2 EQ PUSH2 0x2259 JUMPI PUSH0 DUP5 ISZERO PUSH2 0x2247 JUMPI DUP3 DUP8 ADD MLOAD SWAP1 POP JUMPDEST PUSH2 0x2251 DUP6 DUP3 PUSH2 0x21D6 JUMP JUMPDEST DUP7 SSTORE POP PUSH2 0x22B8 JUMP JUMPDEST PUSH1 0x1F NOT DUP5 AND PUSH2 0x2267 DUP7 PUSH2 0x2054 JUMP JUMPDEST PUSH0 JUMPDEST DUP3 DUP2 LT ISZERO PUSH2 0x228E JUMPI DUP5 DUP10 ADD MLOAD DUP3 SSTORE PUSH1 0x1 DUP3 ADD SWAP2 POP PUSH1 0x20 DUP6 ADD SWAP5 POP PUSH1 0x20 DUP2 ADD SWAP1 POP PUSH2 0x2269 JUMP JUMPDEST DUP7 DUP4 LT ISZERO PUSH2 0x22AB JUMPI DUP5 DUP10 ADD MLOAD PUSH2 0x22A7 PUSH1 0x1F DUP10 AND DUP3 PUSH2 0x21BA JUMP JUMPDEST DUP4 SSTORE POP JUMPDEST PUSH1 0x1 PUSH1 0x2 DUP9 MUL ADD DUP9 SSTORE POP POP POP JUMPDEST POP POP POP POP POP POP JUMP JUMPDEST PUSH32 0x4F6E6C79206F776E65722063616E2063616C6C20746869732066756E6374696F PUSH0 DUP3 ADD MSTORE PUSH32 0x6E00000000000000000000000000000000000000000000000000000000000000 PUSH1 0x20 DUP3 ADD MSTORE POP JUMP JUMPDEST PUSH0 PUSH2 0x231A PUSH1 0x21 DUP4 PUSH2 0x1FA9 JUMP JUMPDEST SWAP2 POP PUSH2 0x2325 DUP3 PUSH2 0x22C0 JUMP JUMPDEST PUSH1 0x40 DUP3 ADD SWAP1 POP SWAP2 SWAP1 POP JUMP JUMPDEST PUSH0 PUSH1 0x20 DUP3 ADD SWAP1 POP DUP2 DUP2 SUB PUSH0 DUP4 ADD MSTORE PUSH2 0x2347 DUP2 PUSH2 0x230E JUMP JUMPDEST SWAP1 POP SWAP2 SWAP1 POP JUMP JUMPDEST PUSH32 0x4E6F207265656E7472616E637900000000000000000000000000000000000000 PUSH0 DUP3 ADD MSTORE POP JUMP JUMPDEST PUSH0 PUSH2 0x2382 PUSH1 0xD DUP4 PUSH2 0x1FA9 JUMP JUMPDEST SWAP2 POP PUSH2 0x238D DUP3 PUSH2 0x234E JUMP JUMPDEST PUSH1 0x20 DUP3 ADD SWAP1 POP SWAP2 SWAP1 POP JUMP JUMPDEST PUSH0 PUSH1 0x20 DUP3 ADD SWAP1 POP DUP2 DUP2 SUB PUSH0 DUP4 ADD MSTORE PUSH2 0x23AF DUP2 PUSH2 0x2376 JUMP JUMPDEST SWAP1 POP SWAP2 SWAP1 POP JUMP JUMPDEST PUSH32 0x596F7520646F206E6F74206861766520616E792062616C616E63652E00000000 PUSH0 DUP3 ADD MSTORE POP JUMP JUMPDEST PUSH0 PUSH2 0x23EA PUSH1 0x1C DUP4 PUSH2 0x1FA9 JUMP JUMPDEST SWAP2 POP PUSH2 0x23F5 DUP3 PUSH2 0x23B6 JUMP JUMPDEST PUSH1 0x20 DUP3 ADD SWAP1 POP SWAP2 SWAP1 POP JUMP JUMPDEST PUSH0 PUSH1 0x20 DUP3 ADD SWAP1 POP DUP2 DUP2 SUB PUSH0 DUP4 ADD MSTORE PUSH2 0x2417 DUP2 PUSH2 0x23DE JUMP JUMPDEST SWAP1 POP SWAP2 SWAP1 POP JUMP JUMPDEST PUSH0 DUP2 SWAP1 POP SWAP3 SWAP2 POP POP JUMP JUMPDEST POP JUMP JUMPDEST PUSH0 PUSH2 0x2436 PUSH0 DUP4 PUSH2 0x241E JUMP JUMPDEST SWAP2 POP PUSH2 0x2441 DUP3 PUSH2 0x2428 JUMP JUMPDEST PUSH0 DUP3 ADD SWAP1 POP SWAP2 SWAP1 POP JUMP JUMPDEST PUSH0 PUSH2 0x2455 DUP3 PUSH2 0x242B JUMP JUMPDEST SWAP2 POP DUP2 SWAP1 POP SWAP2 SWAP1 POP JUMP JUMPDEST PUSH32 0x5472616E73666572206661696C65642E00000000000000000000000000000000 PUSH0 DUP3 ADD MSTORE POP JUMP JUMPDEST PUSH0 PUSH2 0x2493 PUSH1 0x10 DUP4 PUSH2 0x1FA9 JUMP JUMPDEST SWAP2 POP PUSH2 0x249E DUP3 PUSH2 0x245F JUMP JUMPDEST PUSH1 0x20 DUP3 ADD SWAP1 POP SWAP2 SWAP1 POP JUMP JUMPDEST PUSH0 PUSH1 0x20 DUP3 ADD SWAP1 POP DUP2 DUP2 SUB PUSH0 DUP4 ADD MSTORE PUSH2 0x24C0 DUP2 PUSH2 0x2487 JUMP JUMPDEST SWAP1 POP SWAP2 SWAP1 POP JUMP JUMPDEST PUSH32 0x4D697373696E6720726571756972656420616D6F756E74000000000000000000 PUSH0 DUP3 ADD MSTORE POP JUMP JUMPDEST PUSH0 PUSH2 0x24FB PUSH1 0x17 DUP4 PUSH2 0x1FA9 JUMP JUMPDEST SWAP2 POP PUSH2 0x2506 DUP3 PUSH2 0x24C7 JUMP JUMPDEST PUSH1 0x20 DUP3 ADD SWAP1 POP SWAP2 SWAP1 POP JUMP JUMPDEST PUSH0 PUSH1 0x20 DUP3 ADD SWAP1 POP DUP2 DUP2 SUB PUSH0 DUP4 ADD MSTORE PUSH2 0x2528 DUP2 PUSH2 0x24EF JUMP JUMPDEST SWAP1 POP SWAP2 SWAP1 POP JUMP JUMPDEST PUSH0 PUSH2 0x2539 DUP3 PUSH2 0x1930 JUMP JUMPDEST SWAP2 POP PUSH2 0x2544 DUP4 PUSH2 0x1930 JUMP JUMPDEST SWAP3 POP DUP3 DUP3 ADD SWAP1 POP DUP1 DUP3 GT ISZERO PUSH2 0x255C JUMPI PUSH2 0x255B PUSH2 0x1F35 JUMP JUMPDEST JUMPDEST SWAP3 SWAP2 POP POP JUMP JUMPDEST PUSH32 0x496E76616C696420707572636861736520696E64657800000000000000000000 PUSH0 DUP3 ADD MSTORE POP JUMP JUMPDEST PUSH0 PUSH2 0x2596 PUSH1 0x16 DUP4 PUSH2 0x1FA9 JUMP JUMPDEST SWAP2 POP PUSH2 0x25A1 DUP3 PUSH2 0x2562 JUMP JUMPDEST PUSH1 0x20 DUP3 ADD SWAP1 POP SWAP2 SWAP1 POP JUMP JUMPDEST PUSH0 PUSH1 0x20 DUP3 ADD SWAP1 POP DUP2 DUP2 SUB PUSH0 DUP4 ADD MSTORE PUSH2 0x25C3 DUP2 PUSH2 0x258A JUMP JUMPDEST SWAP1 POP SWAP2 SWAP1 POP JUMP JUMPDEST PUSH32 0x4E6F7420796F7572207075726368617365000000000000000000000000000000 PUSH0 DUP3 ADD MSTORE POP JUMP JUMPDEST PUSH0 PUSH2 0x25FE PUSH1 0x11 DUP4 PUSH2 0x1FA9 JUMP JUMPDEST SWAP2 POP PUSH2 0x2609 DUP3 PUSH2 0x25CA JUMP JUMPDEST PUSH1 0x20 DUP3 ADD SWAP1 POP SWAP2 SWAP1 POP JUMP JUMPDEST PUSH0 PUSH1 0x20 DUP3 ADD SWAP1 POP DUP2 DUP2 SUB PUSH0 DUP4 ADD MSTORE PUSH2 0x262B DUP2 PUSH2 0x25F2 JUMP JUMPDEST SWAP1 POP SWAP2 SWAP1 POP JUMP JUMPDEST PUSH32 0x507572636861736520616C726561647920636F6E73756D656400000000000000 PUSH0 DUP3 ADD MSTORE POP JUMP JUMPDEST PUSH0 PUSH2 0x2666 PUSH1 0x19 DUP4 PUSH2 0x1FA9 JUMP JUMPDEST SWAP2 POP PUSH2 0x2671 DUP3 PUSH2 0x2632 JUMP JUMPDEST PUSH1 0x20 DUP3 ADD SWAP1 POP SWAP2 SWAP1 POP JUMP JUMPDEST PUSH0 PUSH1 0x20 DUP3 ADD SWAP1 POP DUP2 DUP2 SUB PUSH0 DUP4 ADD MSTORE PUSH2 0x2693 DUP2 PUSH2 0x265A JUMP JUMPDEST SWAP1 POP SWAP2 SWAP1 POP JUMP JUMPDEST PUSH0 DUP2 SWAP1 POP SWAP3 SWAP2 POP POP JUMP JUMPDEST PUSH0 PUSH2 0x26AE DUP3 PUSH2 0x18C0 JUMP JUMPDEST PUSH2 0x26B8 DUP2 DUP6 PUSH2 0x269A JUMP JUMPDEST SWAP4 POP PUSH2 0x26C8 DUP2 DUP6 PUSH1 0x20 DUP7 ADD PUSH2 0x18DA JUMP JUMPDEST DUP1 DUP5 ADD SWAP2 POP POP SWAP3 SWAP2 POP POP JUMP JUMPDEST PUSH0 PUSH2 0x26DF DUP3 DUP5 PUSH2 0x26A4 JUMP JUMPDEST SWAP2 POP DUP2 SWAP1 POP SWAP3 SWAP2 POP POP JUMP JUMPDEST PUSH0 DUP2 SLOAD PUSH2 0x26F6 DUP2 PUSH2 0x1ED8 JUMP JUMPDEST PUSH2 0x2700 DUP2 DUP7 PUSH2 0x269A JUMP JUMPDEST SWAP5 POP PUSH1 0x1 DUP3 AND PUSH0 DUP2 EQ PUSH2 0x271A JUMPI PUSH1 0x1 DUP2 EQ PUSH2 0x272F JUMPI PUSH2 0x2761 JUMP JUMPDEST PUSH1 0xFF NOT DUP4 AND DUP7 MSTORE DUP2 ISZERO ISZERO DUP3 MUL DUP7 ADD SWAP4 POP PUSH2 0x2761 JUMP JUMPDEST PUSH2 0x2738 DUP6 PUSH2 0x2054 JUMP JUMPDEST PUSH0 JUMPDEST DUP4 DUP2 LT ISZERO PUSH2 0x2759 JUMPI DUP2 SLOAD DUP2 DUP10 ADD MSTORE PUSH1 0x1 DUP3 ADD SWAP2 POP PUSH1 0x20 DUP2 ADD SWAP1 POP PUSH2 0x273A JUMP JUMPDEST DUP4 DUP9 ADD SWAP6 POP POP POP JUMPDEST POP POP POP SWAP3 SWAP2 POP POP JUMP JUMPDEST PUSH0 PUSH2 0x2775 DUP3 DUP5 PUSH2 0x26EA JUMP JUMPDEST SWAP2 POP DUP2 SWAP1 POP SWAP3 SWAP2 POP POP JUMP JUMPDEST PUSH32 0x50726F64756374206E6F7420666F756E64000000000000000000000000000000 PUSH0 DUP3 ADD MSTORE POP JUMP JUMPDEST PUSH0 PUSH2 0x27B4 PUSH1 0x11 DUP4 PUSH2 0x1FA9 JUMP JUMPDEST SWAP2 POP PUSH2 0x27BF DUP3 PUSH2 0x2780 JUMP JUMPDEST PUSH1 0x20 DUP3 ADD SWAP1 POP SWAP2 SWAP1 POP JUMP JUMPDEST PUSH0 PUSH1 0x20 DUP3 ADD SWAP1 POP DUP2 DUP2 SUB PUSH0 DUP4 ADD MSTORE PUSH2 0x27E1 DUP2 PUSH2 0x27A8 JUMP JUMPDEST SWAP1 POP SWAP2 SWAP1 POP JUMP INVALID LOG2 PUSH5 0x6970667358 0x22 SLT KECCAK256 0xE2 0xB2 SELFDESTRUCT PUSH5 0x76AD91EAFD PUSH27 0x48EE8DF2106120C25A45E2DA8CA757000AD894C423A364736F6C63 NUMBER STOP ADDMOD BYTE STOP CALLER MLOAD PUSH14 0x6652465261626F50334D34386565 PUSH25 0x766E516B6977675544506150484A69466E44634B637545754C TIMESTAMP PUSH3 0x66312F "
		},
		"gasEstimates": {
			"creation": {
				"codeDepositCost": "2054000",
				"executionCost": "infinite",
				"totalCost": "infinite"
			},
			"external": {
				"addFunds()": "infinite",
				"consumePurchase(uint256)": "37868",
				"getAllProducts()": "infinite",
				"getAvailablePurchases(address)": "infinite",
				"getBalance()": "2542",
				"getConsumedPurchases(address)": "infinite",
				"getPurchases(address)": "infinite",
				"purchaseProduct(string)": "infinite",
				"withdraw()": "infinite"
			},
			"internal": {
				"concatIPFSReference(string memory)": "infinite",
				"getProductByCode(string memory)": "infinite",
				"initializeProducts()": "infinite"
			}
		},
		"methodIdentifiers": {
			"addFunds()": "a26759cb",
			"consumePurchase(uint256)": "b04f3225",
			"getAllProducts()": "02ee3a52",
			"getAvailablePurchases(address)": "121dc3d5",
			"getBalance()": "12065fe0",
			"getConsumedPurchases(address)": "94cf2160",
			"getPurchases(address)": "70cd5a80",
			"purchaseProduct(string)": "19f92926",
			"withdraw()": "3ccfd60b"
		}
	},
	"abi": [
		{
			"inputs": [],
			"stateMutability": "nonpayable",
			"type": "constructor"
		},
		{
			"inputs": [],
			"name": "addFunds",
			"outputs": [],
			"stateMutability": "payable",
			"type": "function"
		},
		{
			"inputs": [
				{
					"internalType": "uint256",
					"name": "_purchaseIndex",
					"type": "uint256"
				}
			],
			"name": "consumePurchase",
			"outputs": [],
			"stateMutability": "nonpayable",
			"type": "function"
		},
		{
			"inputs": [],
			"name": "getAllProducts",
			"outputs": [
				{
					"components": [
						{
							"internalType": "string",
							"name": "code",
							"type": "string"
						},
						{
							"internalType": "uint256",
							"name": "price",
							"type": "uint256"
						},
						{
							"internalType": "string",
							"name": "name",
							"type": "string"
						},
						{
							"internalType": "string",
							"name": "imageCID",
							"type": "string"
						}
					],
					"internalType": "struct ProductLibrary.Product[]",
					"name": "",
					"type": "tuple[]"
				}
			],
			"stateMutability": "view",
			"type": "function"
		},
		{
			"inputs": [
				{
					"internalType": "address",
					"name": "_buyer",
					"type": "address"
				}
			],
			"name": "getAvailablePurchases",
			"outputs": [
				{
					"components": [
						{
							"internalType": "address",
							"name": "buyer",
							"type": "address"
						},
						{
							"internalType": "string",
							"name": "productId",
							"type": "string"
						},
						{
							"internalType": "uint256",
							"name": "timestamp",
							"type": "uint256"
						},
						{
							"internalType": "enum ProductLibrary.PurchaseStatus",
							"name": "status",
							"type": "uint8"
						}
					],
					"internalType": "struct ProductLibrary.Purchase[]",
					"name": "",
					"type": "tuple[]"
				}
			],
			"stateMutability": "view",
			"type": "function"
		},
		{
			"inputs": [],
			"name": "getBalance",
			"outputs": [
				{
					"internalType": "uint256",
					"name": "",
					"type": "uint256"
				}
			],
			"stateMutability": "view",
			"type": "function"
		},
		{
			"inputs": [
				{
					"internalType": "address",
					"name": "_buyer",
					"type": "address"
				}
			],
			"name": "getConsumedPurchases",
			"outputs": [
				{
					"components": [
						{
							"internalType": "address",
							"name": "buyer",
							"type": "address"
						},
						{
							"internalType": "string",
							"name": "productId",
							"type": "string"
						},
						{
							"internalType": "uint256",
							"name": "timestamp",
							"type": "uint256"
						},
						{
							"internalType": "enum ProductLibrary.PurchaseStatus",
							"name": "status",
							"type": "uint8"
						}
					],
					"internalType": "struct ProductLibrary.Purchase[]",
					"name": "",
					"type": "tuple[]"
				}
			],
			"stateMutability": "view",
			"type": "function"
		},
		{
			"inputs": [
				{
					"internalType": "address",
					"name": "_buyer",
					"type": "address"
				}
			],
			"name": "getPurchases",
			"outputs": [
				{
					"components": [
						{
							"internalType": "address",
							"name": "buyer",
							"type": "address"
						},
						{
							"internalType": "string",
							"name": "productId",
							"type": "string"
						},
						{
							"internalType": "uint256",
							"name": "timestamp",
							"type": "uint256"
						},
						{
							"internalType": "enum ProductLibrary.PurchaseStatus",
							"name": "status",
							"type": "uint8"
						}
					],
					"internalType": "struct ProductLibrary.Purchase[]",
					"name": "",
					"type": "tuple[]"
				}
			],
			"stateMutability": "view",
			"type": "function"
		},
		{
			"inputs": [
				{
					"internalType": "string",
					"name": "_productId",
					"type": "string"
				}
			],
			"name": "purchaseProduct",
			"outputs": [],
			"stateMutability": "nonpayable",
			"type": "function"
		},
		{
			"inputs": [],
			"name": "withdraw",
			"outputs": [],
			"stateMutability": "nonpayable",
			"type": "function"
		}
	]
}